{
	"src/Contract Architecture/P2P & Social Transfers/EligibilityVerifier.sol": {
		"EligibilityVerifier": {
			"abi": [
				{
					"anonymous": false,
					"inputs": [
						{
							"indexed": true,
							"internalType": "address",
							"name": "user",
							"type": "address"
						},
						{
							"indexed": false,
							"internalType": "bool",
							"name": "eligible",
							"type": "bool"
						}
					],
					"name": "EligibilitySet",
					"type": "event"
				},
				{
					"inputs": [
						{
							"internalType": "address",
							"name": "user",
							"type": "address"
						}
					],
					"name": "checkEligibility",
					"outputs": [
						{
							"internalType": "bool",
							"name": "",
							"type": "bool"
						}
					],
					"stateMutability": "view",
					"type": "function"
				},
				{
					"inputs": [
						{
							"internalType": "address",
							"name": "",
							"type": "address"
						}
					],
					"name": "isEligible",
					"outputs": [
						{
							"internalType": "bool",
							"name": "",
							"type": "bool"
						}
					],
					"stateMutability": "view",
					"type": "function"
				},
				{
					"inputs": [
						{
							"internalType": "address",
							"name": "user",
							"type": "address"
						},
						{
							"internalType": "bool",
							"name": "eligible",
							"type": "bool"
						}
					],
					"name": "setEligibility",
					"outputs": [],
					"stateMutability": "nonpayable",
					"type": "function"
				}
			],
			"devdoc": {
				"kind": "dev",
				"methods": {},
				"title": "EligibilityVerifier",
				"version": 1
			},
			"evm": {
				"assembly": "    /* \"src/Contract Architecture/P2P & Social Transfers/EligibilityVerifier.sol\":247:896  contract EligibilityVerifier {... */\n  0x80\n  dup1\n  0x40\n  mstore\n  jumpi(tag_1, callvalue)\n  dataSize(sub_0)\n  swap1\n  dup2\n  dataOffset(sub_0)\n  dup3\n  codecopy\n  return\ntag_1:\n  0x00\n  dup1\n  revert\nstop\n\nsub_0: assembly {\n        /* \"src/Contract Architecture/P2P & Social Transfers/EligibilityVerifier.sol\":247:896  contract EligibilityVerifier {... */\n      0x80\n      dup1\n      0x40\n      mstore\n      jumpi(tag_2, iszero(lt(calldatasize, 0x04)))\n      0x00\n      dup1\n      revert\n    tag_2:\n      shr(0xe0, calldataload(0x00))\n      swap1\n      dup2\n      0x2d63294d\n      eq\n      tag_4\n      jumpi\n      pop\n      dup1\n      0x66e305fd\n      eq\n      tag_8\n      jumpi\n      0x7723bafb\n      eq\n      tag_8\n      jumpi\n      0x00\n      dup1\n      revert\n    tag_8:\n      jumpi(tag_12, callvalue)\n      jumpi(tag_12, slt(add(not(0x03), calldatasize), 0x20))\n      sub(shl(0xa0, 0x01), 0x01)\n      tag_14\n      tag_1\n      jump\t// in\n    tag_14:\n      and\n      0x00\n      mstore\n      mstore(0x20, 0x00)\n      0x20\n      and(sload(keccak256(0x00, 0x40)), 0xff)\n      mload(0x40)\n      swap1\n      iszero\n      iszero\n      dup2\n      mstore\n      return\n    tag_12:\n      0x00\n      dup1\n      revert\n    tag_4:\n      jumpi(tag_12, callvalue)\n      jumpi(tag_12, slt(add(not(0x03), calldatasize), 0x40))\n      tag_24\n      tag_1\n      jump\t// in\n    tag_24:\n      swap1\n      calldataload(0x24)\n      swap2\n      dup3\n      iszero\n      iszero\n      dup1\n      swap4\n      sub\n      tag_12\n      jumpi\n        /* \"src/Contract Architecture/P2P & Social Transfers/EligibilityVerifier.sol\":742:772  EligibilitySet(user, eligible) */\n      0x84491124de7d287ce3f02c6f49337e6bc1e12b50ab8f8f58c93ea2e14f6f3511\n        /* \"src/Contract Architecture/P2P & Social Transfers/EligibilityVerifier.sol\":247:896  contract EligibilityVerifier {... */\n      swap2\n      0x20\n      swap2\n      0x01\n      dup1\n      0xa0\n      shl\n      sub\n      and\n      swap4\n      dup5\n      0x00\n      mstore\n      0x00\n      dup4\n      mstore\n      keccak256(0x00, 0x40)\n      not(0xff)\n      dup2\n      sload\n      and\n      0xff\n      dup4\n      and\n      or\n      swap1\n      sstore\n      dup2\n      mstore\n        /* \"src/Contract Architecture/P2P & Social Transfers/EligibilityVerifier.sol\":742:772  EligibilitySet(user, eligible) */\n      log2\n        /* \"src/Contract Architecture/P2P & Social Transfers/EligibilityVerifier.sol\":247:896  contract EligibilityVerifier {... */\n      stop\n    tag_1:\n      calldataload(0x04)\n      swap1\n      sub(shl(0xa0, 0x01), 0x01)\n      dup3\n      and\n      dup3\n      sub\n      tag_12\n      jumpi\n      jump\t// out\n\n    auxdata: 0xa26469706673582212209ba4138d8af4d5b59479f9cf756e782bf148c65280239dd7fdf19d4a0e92f8a164736f6c634300081a0033\n}\n",
				"bytecode": {
					"linkReferences": {},
					"object": "6080806040523460155761013b908161001a8239f35b5f80fdfe6080806040526004361015610012575f80fd5b5f3560e01c9081632d63294d1461007d5750806366e305fd1461003d57637723bafb1461003d575f80fd5b34610079576020366003190112610079576001600160a01b0361005e6100ef565b165f525f602052602060ff60405f2054166040519015158152f35b5f80fd5b34610079576040366003190112610079576100966100ef565b9060243591821515809303610079577f84491124de7d287ce3f02c6f49337e6bc1e12b50ab8f8f58c93ea2e14f6f35119160209160018060a01b031693845f525f835260405f2060ff1981541660ff83161790558152a2005b600435906001600160a01b03821682036100795756fea26469706673582212209ba4138d8af4d5b59479f9cf756e782bf148c65280239dd7fdf19d4a0e92f8a164736f6c634300081a0033",
					"opcodes": "PUSH1 0x80 DUP1 PUSH1 0x40 MSTORE CALLVALUE PUSH1 0x15 JUMPI PUSH2 0x13B SWAP1 DUP2 PUSH2 0x1A DUP3 CODECOPY RETURN JUMPDEST PUSH0 DUP1 REVERT INVALID PUSH1 0x80 DUP1 PUSH1 0x40 MSTORE PUSH1 0x4 CALLDATASIZE LT ISZERO PUSH2 0x12 JUMPI PUSH0 DUP1 REVERT JUMPDEST PUSH0 CALLDATALOAD PUSH1 0xE0 SHR SWAP1 DUP2 PUSH4 0x2D63294D EQ PUSH2 0x7D JUMPI POP DUP1 PUSH4 0x66E305FD EQ PUSH2 0x3D JUMPI PUSH4 0x7723BAFB EQ PUSH2 0x3D JUMPI PUSH0 DUP1 REVERT JUMPDEST CALLVALUE PUSH2 0x79 JUMPI PUSH1 0x20 CALLDATASIZE PUSH1 0x3 NOT ADD SLT PUSH2 0x79 JUMPI PUSH1 0x1 PUSH1 0x1 PUSH1 0xA0 SHL SUB PUSH2 0x5E PUSH2 0xEF JUMP JUMPDEST AND PUSH0 MSTORE PUSH0 PUSH1 0x20 MSTORE PUSH1 0x20 PUSH1 0xFF PUSH1 0x40 PUSH0 KECCAK256 SLOAD AND PUSH1 0x40 MLOAD SWAP1 ISZERO ISZERO DUP2 MSTORE RETURN JUMPDEST PUSH0 DUP1 REVERT JUMPDEST CALLVALUE PUSH2 0x79 JUMPI PUSH1 0x40 CALLDATASIZE PUSH1 0x3 NOT ADD SLT PUSH2 0x79 JUMPI PUSH2 0x96 PUSH2 0xEF JUMP JUMPDEST SWAP1 PUSH1 0x24 CALLDATALOAD SWAP2 DUP3 ISZERO ISZERO DUP1 SWAP4 SUB PUSH2 0x79 JUMPI PUSH32 0x84491124DE7D287CE3F02C6F49337E6BC1E12B50AB8F8F58C93EA2E14F6F3511 SWAP2 PUSH1 0x20 SWAP2 PUSH1 0x1 DUP1 PUSH1 0xA0 SHL SUB AND SWAP4 DUP5 PUSH0 MSTORE PUSH0 DUP4 MSTORE PUSH1 0x40 PUSH0 KECCAK256 PUSH1 0xFF NOT DUP2 SLOAD AND PUSH1 0xFF DUP4 AND OR SWAP1 SSTORE DUP2 MSTORE LOG2 STOP JUMPDEST PUSH1 0x4 CALLDATALOAD SWAP1 PUSH1 0x1 PUSH1 0x1 PUSH1 0xA0 SHL SUB DUP3 AND DUP3 SUB PUSH2 0x79 JUMPI JUMP INVALID LOG2 PUSH5 0x6970667358 0x22 SLT KECCAK256 SWAP12 LOG4 SGT DUP14 DUP11 DELEGATECALL 0xD5 0xB5 SWAP5 PUSH26 0xF9CF756E782BF148C65280239DD7FDF19D4A0E92F8A164736F6C PUSH4 0x4300081A STOP CALLER "
				},
				"gasEstimates": {
					"creation": {
						"codeDepositCost": "63000",
						"executionCost": "117",
						"totalCost": "63117"
					},
					"external": {
						"checkEligibility(address)": "2458",
						"isEligible(address)": "2439",
						"setEligibility(address,bool)": "25960"
					}
				},
				"methodIdentifiers": {
					"checkEligibility(address)": "7723bafb",
					"isEligible(address)": "66e305fd",
					"setEligibility(address,bool)": "2d63294d"
				}
			},
			"storageLayout": {
				"storage": [
					{
						"astId": 6,
						"contract": "src/Contract Architecture/P2P & Social Transfers/EligibilityVerifier.sol:EligibilityVerifier",
						"label": "isEligible",
						"offset": 0,
						"slot": "0",
						"type": "t_mapping(t_address,t_bool)"
					}
				],
				"types": {
					"t_address": {
						"encoding": "inplace",
						"label": "address",
						"numberOfBytes": "20"
					},
					"t_bool": {
						"encoding": "inplace",
						"label": "bool",
						"numberOfBytes": "1"
					},
					"t_mapping(t_address,t_bool)": {
						"encoding": "mapping",
						"key": "t_address",
						"label": "mapping(address => bool)",
						"numberOfBytes": "32",
						"value": "t_bool"
					}
				}
			},
			"userdoc": {
				"kind": "user",
				"methods": {},
				"notice": "Minimal contract to enforce per-user eligibility rules for modules.         Can be extended with token/NFT gating or external verifiers.",
				"version": 1
			}
		}
	}
}