{
	"src/Contract Architecture/Core Infrastructure/UserVault.sol": {
		"UserVault": {
			"abi": [
				{
					"inputs": [],
					"name": "AlreadyInitialized",
					"type": "error"
				},
				{
					"inputs": [],
					"name": "InvalidTarget",
					"type": "error"
				},
				{
					"inputs": [],
					"name": "NotOwner",
					"type": "error"
				},
				{
					"inputs": [
						{
							"internalType": "address",
							"name": "token",
							"type": "address"
						}
					],
					"name": "SafeERC20FailedOperation",
					"type": "error"
				},
				{
					"inputs": [],
					"name": "TransferFailed",
					"type": "error"
				},
				{
					"inputs": [],
					"name": "ZeroAddress",
					"type": "error"
				},
				{
					"anonymous": false,
					"inputs": [
						{
							"indexed": true,
							"internalType": "address",
							"name": "token",
							"type": "address"
						},
						{
							"indexed": true,
							"internalType": "address",
							"name": "from",
							"type": "address"
						},
						{
							"indexed": false,
							"internalType": "uint256",
							"name": "amount",
							"type": "uint256"
						}
					],
					"name": "ERC20Deposited",
					"type": "event"
				},
				{
					"anonymous": false,
					"inputs": [
						{
							"indexed": true,
							"internalType": "address",
							"name": "token",
							"type": "address"
						},
						{
							"indexed": true,
							"internalType": "address",
							"name": "to",
							"type": "address"
						},
						{
							"indexed": false,
							"internalType": "uint256",
							"name": "amount",
							"type": "uint256"
						}
					],
					"name": "ERC20Withdrawn",
					"type": "event"
				},
				{
					"anonymous": false,
					"inputs": [
						{
							"indexed": true,
							"internalType": "address",
							"name": "from",
							"type": "address"
						},
						{
							"indexed": false,
							"internalType": "uint256",
							"name": "amount",
							"type": "uint256"
						}
					],
					"name": "ETHReceived",
					"type": "event"
				},
				{
					"anonymous": false,
					"inputs": [
						{
							"indexed": true,
							"internalType": "address",
							"name": "to",
							"type": "address"
						},
						{
							"indexed": false,
							"internalType": "uint256",
							"name": "amount",
							"type": "uint256"
						}
					],
					"name": "ETHWithdrawn",
					"type": "event"
				},
				{
					"anonymous": false,
					"inputs": [
						{
							"indexed": true,
							"internalType": "address",
							"name": "caller",
							"type": "address"
						},
						{
							"indexed": true,
							"internalType": "address",
							"name": "target",
							"type": "address"
						},
						{
							"indexed": false,
							"internalType": "uint256",
							"name": "value",
							"type": "uint256"
						},
						{
							"indexed": false,
							"internalType": "bytes",
							"name": "data",
							"type": "bytes"
						},
						{
							"indexed": false,
							"internalType": "bytes",
							"name": "result",
							"type": "bytes"
						}
					],
					"name": "ExecutedCall",
					"type": "event"
				},
				{
					"anonymous": false,
					"inputs": [
						{
							"indexed": true,
							"internalType": "address",
							"name": "executor",
							"type": "address"
						},
						{
							"indexed": false,
							"internalType": "bool",
							"name": "allowed",
							"type": "bool"
						}
					],
					"name": "ExecutorWhitelisted",
					"type": "event"
				},
				{
					"anonymous": false,
					"inputs": [
						{
							"indexed": true,
							"internalType": "address",
							"name": "owner",
							"type": "address"
						}
					],
					"name": "Initialized",
					"type": "event"
				},
				{
					"inputs": [
						{
							"internalType": "address",
							"name": "token",
							"type": "address"
						},
						{
							"internalType": "address",
							"name": "spender",
							"type": "address"
						},
						{
							"internalType": "uint256",
							"name": "amount",
							"type": "uint256"
						},
						{
							"internalType": "address",
							"name": "target",
							"type": "address"
						},
						{
							"internalType": "bytes",
							"name": "data",
							"type": "bytes"
						}
					],
					"name": "approveAndCall",
					"outputs": [
						{
							"internalType": "bytes",
							"name": "",
							"type": "bytes"
						}
					],
					"stateMutability": "nonpayable",
					"type": "function"
				},
				{
					"inputs": [
						{
							"internalType": "address",
							"name": "token",
							"type": "address"
						},
						{
							"internalType": "address",
							"name": "spender",
							"type": "address"
						},
						{
							"internalType": "uint256",
							"name": "amount",
							"type": "uint256"
						}
					],
					"name": "approveERC20",
					"outputs": [],
					"stateMutability": "nonpayable",
					"type": "function"
				},
				{
					"inputs": [],
					"name": "depositETH",
					"outputs": [],
					"stateMutability": "payable",
					"type": "function"
				},
				{
					"inputs": [
						{
							"internalType": "address",
							"name": "token",
							"type": "address"
						}
					],
					"name": "emergencyWithdrawERC20",
					"outputs": [],
					"stateMutability": "nonpayable",
					"type": "function"
				},
				{
					"inputs": [],
					"name": "emergencyWithdrawETH",
					"outputs": [],
					"stateMutability": "nonpayable",
					"type": "function"
				},
				{
					"inputs": [
						{
							"internalType": "address",
							"name": "target",
							"type": "address"
						},
						{
							"internalType": "uint256",
							"name": "value",
							"type": "uint256"
						},
						{
							"internalType": "bytes",
							"name": "data",
							"type": "bytes"
						}
					],
					"name": "executeCall",
					"outputs": [
						{
							"internalType": "bytes",
							"name": "result",
							"type": "bytes"
						}
					],
					"stateMutability": "nonpayable",
					"type": "function"
				},
				{
					"inputs": [
						{
							"internalType": "address",
							"name": "",
							"type": "address"
						}
					],
					"name": "executorWhitelist",
					"outputs": [
						{
							"internalType": "bool",
							"name": "",
							"type": "bool"
						}
					],
					"stateMutability": "view",
					"type": "function"
				},
				{
					"inputs": [
						{
							"internalType": "address",
							"name": "owner_",
							"type": "address"
						}
					],
					"name": "initialize",
					"outputs": [],
					"stateMutability": "nonpayable",
					"type": "function"
				},
				{
					"inputs": [],
					"name": "isInitialized",
					"outputs": [
						{
							"internalType": "bool",
							"name": "",
							"type": "bool"
						}
					],
					"stateMutability": "view",
					"type": "function"
				},
				{
					"inputs": [
						{
							"internalType": "address",
							"name": "token",
							"type": "address"
						},
						{
							"internalType": "uint256",
							"name": "amount",
							"type": "uint256"
						}
					],
					"name": "notifyERC20Deposit",
					"outputs": [],
					"stateMutability": "nonpayable",
					"type": "function"
				},
				{
					"inputs": [],
					"name": "owner",
					"outputs": [
						{
							"internalType": "address",
							"name": "",
							"type": "address"
						}
					],
					"stateMutability": "view",
					"type": "function"
				},
				{
					"inputs": [
						{
							"internalType": "address",
							"name": "executor",
							"type": "address"
						},
						{
							"internalType": "bool",
							"name": "allowed",
							"type": "bool"
						}
					],
					"name": "setExecutorAllowed",
					"outputs": [],
					"stateMutability": "nonpayable",
					"type": "function"
				},
				{
					"inputs": [
						{
							"internalType": "address",
							"name": "token",
							"type": "address"
						},
						{
							"internalType": "address",
							"name": "to",
							"type": "address"
						},
						{
							"internalType": "uint256",
							"name": "amount",
							"type": "uint256"
						}
					],
					"name": "withdrawERC20",
					"outputs": [],
					"stateMutability": "nonpayable",
					"type": "function"
				},
				{
					"inputs": [
						{
							"internalType": "address payable",
							"name": "to",
							"type": "address"
						},
						{
							"internalType": "uint256",
							"name": "amount",
							"type": "uint256"
						}
					],
					"name": "withdrawETH",
					"outputs": [],
					"stateMutability": "nonpayable",
					"type": "function"
				},
				{
					"stateMutability": "payable",
					"type": "receive"
				}
			],
			"devdoc": {
				"errors": {
					"SafeERC20FailedOperation(address)": [
						{
							"details": "An operation with an ERC-20 token failed."
						}
					]
				},
				"kind": "dev",
				"methods": {
					"executeCall(address,uint256,bytes)": {
						"details": "Must be called by owner or a whitelisted executor. Returns raw call return data.         Use with caution — giving an executor this ability is equivalent to giving control         of the vault's funds to that executor.",
						"params": {
							"data": "Calldata to send.",
							"target": "The destination contract / address to call.",
							"value": "Amount of ETH to send with the call."
						},
						"returns": {
							"result": "The returned data from the call."
						}
					},
					"initialize(address)": {
						"details": "called by the clone right after creation"
					}
				},
				"version": 1
			},
			"evm": {
				"assembly": "    /* \"src/Contract Architecture/Core Infrastructure/UserVault.sol\":1021:7390  contract UserVault {... */\n  0x80\n  dup1\n  0x40\n  mstore\n  jumpi(tag_1, callvalue)\n  dataSize(sub_0)\n  swap1\n  dup2\n  dataOffset(sub_0)\n  dup3\n  codecopy\n  return\ntag_1:\n  0x00\n  dup1\n  revert\nstop\n\nsub_0: assembly {\n        /* \"src/Contract Architecture/Core Infrastructure/UserVault.sol\":1021:7390  contract UserVault {... */\n      mstore(0x40, 0x80)\n      jumpi(tag_40, iszero(lt(calldatasize, 0x04)))\n    tag_41:\n      jumpi(tag_42, iszero(calldatasize))\n      0x00\n      dup1\n      revert\n    tag_42:\n      tag_44\n      tag_38\n      jump\t// in\n    tag_44:\n      stop\n    tag_40:\n      shr(0xe0, calldataload(0x00))\n      dup1\n      0x103657e7\n      eq\n      tag_45\n      jumpi\n      dup1\n      0x392e53cd\n      eq\n      tag_47\n      jumpi\n      dup1\n      0x40c442de\n      eq\n      tag_49\n      jumpi\n      dup1\n      0x44004cc1\n      eq\n      tag_51\n      jumpi\n      dup1\n      0x4782f779\n      eq\n      tag_53\n      jumpi\n      dup1\n      0x54ba7696\n      eq\n      tag_55\n      jumpi\n      dup1\n      0x68fec4da\n      eq\n      tag_57\n      jumpi\n      dup1\n      0x84536017\n      eq\n      tag_59\n      jumpi\n      dup1\n      0x8da5cb5b\n      eq\n      tag_61\n      jumpi\n      dup1\n      0x9e5d4c49\n      eq\n      tag_63\n      jumpi\n      dup1\n      0xa8e5e4aa\n      eq\n      tag_65\n      jumpi\n      dup1\n      0xc4d66de8\n      eq\n      tag_67\n      jumpi\n      dup1\n      0xf32f1864\n      eq\n      tag_69\n      jumpi\n      0xf6326fb3\n      sub\n      tag_41\n      jumpi\n      tag_24\n      jump\t// in\n    tag_69:\n      tag_23\n      jump\t// in\n    tag_67:\n      tag_22\n      jump\t// in\n    tag_65:\n      tag_21\n      jump\t// in\n    tag_63:\n      tag_20\n      jump\t// in\n    tag_61:\n      tag_19\n      jump\t// in\n    tag_59:\n      tag_17\n      jump\t// in\n    tag_57:\n      tag_16\n      jump\t// in\n    tag_55:\n      tag_14\n      jump\t// in\n    tag_53:\n      tag_13\n      jump\t// in\n    tag_51:\n      tag_12\n      jump\t// in\n    tag_49:\n      tag_10\n      jump\t// in\n    tag_47:\n      tag_9\n      jump\t// in\n    tag_45:\n      tag_8\n      jump\t// in\n    tag_2:\n      sub(shl(0xa0, 0x01), 0x01)\n      dup2\n      and\n      sub\n      tag_73\n      jumpi\n      jump\t// out\n    tag_73:\n      0x00\n      dup1\n      revert\n    tag_5:\n      swap2\n      dup2\n      0x1f\n      dup5\n      add\n      slt\n      iszero\n      tag_73\n      jumpi\n      dup3\n      calldataload\n      swap2\n      0xffffffffffffffff\n      dup4\n      gt\n      tag_73\n      jumpi\n      0x20\n      dup4\n      dup2\n      dup7\n      add\n      swap6\n      add\n      add\n      gt\n      tag_73\n      jumpi\n      jump\t// out\n    tag_6:\n      dup1\n      mload\n      dup1\n      dup4\n      mstore\n      0x20\n      swap3\n      swap2\n      dup2\n      swap1\n      dup5\n      add\n      dup5\n      dup5\n      add\n      mcopy\n      0x00\n      dup3\n      dup3\n      add\n      dup5\n      add\n      mstore\n      0x1f\n      add\n      not(0x1f)\n      and\n      add\n      add\n      swap1\n      jump\t// out\n    tag_7:\n      swap1\n      0x20\n      tag_81\n      swap3\n      dup2\n      dup2\n      mstore\n      add\n      swap1\n      tag_6\n      jump\t// in\n    tag_81:\n      swap1\n      jump\t// out\n    tag_8:\n      jumpi(tag_73, callvalue)\n      jumpi(tag_73, slt(add(not(0x03), calldatasize), 0xa0))\n      calldataload(0x04)\n      tag_86\n      dup2\n      tag_2\n      jump\t// in\n    tag_86:\n      calldataload(0x24)\n      swap1\n      tag_87\n      dup3\n      tag_2\n      jump\t// in\n    tag_87:\n      calldataload(0x44)\n      calldataload(0x64)\n      tag_89\n      dup2\n      tag_2\n      jump\t// in\n    tag_89:\n      calldataload(0x84)\n      0xffffffffffffffff\n      dup2\n      gt\n      tag_73\n      jumpi\n      tag_92\n      swap1\n      calldatasize\n      swap1\n      0x04\n      add\n      tag_5\n      jump\t// in\n    tag_92:\n      swap5\n      swap1\n      swap3\n      0x01\n      dup1\n      0xa0\n      shl\n      sub\n      sload(0x00)\n      and\n        /* \"src/Contract Architecture/Core Infrastructure/UserVault.sol\":2141:2151  msg.sender */\n      caller\n        /* \"src/Contract Architecture/Core Infrastructure/UserVault.sol\":2141:2161  msg.sender != _owner */\n      eq\n      iszero\n        /* \"src/Contract Architecture/Core Infrastructure/UserVault.sol\":2141:2195  msg.sender != _owner && !executorWhitelist[msg.sender] */\n      dup1\n      tag_93\n      jumpi\n        /* \"src/Contract Architecture/Core Infrastructure/UserVault.sol\":1021:7390  contract UserVault {... */\n    tag_94:\n        /* \"src/Contract Architecture/Core Infrastructure/UserVault.sol\":2137:2214  if (msg.sender != _owner && !executorWhitelist[msg.sender]) revert NotOwner() */\n      tag_95\n      jumpi\n        /* \"src/Contract Architecture/Core Infrastructure/UserVault.sol\":1021:7390  contract UserVault {... */\n      mload(0x40)\n      shl(0xe0, 0x095ea7b3)\n        /* \"src/Contract Architecture/Core Infrastructure/UserVault.sol\":6506:6544  IERC20(token).approve(spender, amount) */\n      dup2\n      mstore\n      sub(shl(0xa0, 0x01), 0x01)\n        /* \"src/Contract Architecture/Core Infrastructure/UserVault.sol\":1021:7390  contract UserVault {... */\n      swap1\n      swap3\n      and\n      0x04\n        /* \"src/Contract Architecture/Core Infrastructure/UserVault.sol\":6506:6544  IERC20(token).approve(spender, amount) */\n      dup4\n      add\n        /* \"src/Contract Architecture/Core Infrastructure/UserVault.sol\":1021:7390  contract UserVault {... */\n      mstore\n      0x24\n      dup3\n      add\n      mstore\n      swap3\n      0x20\n      swap1\n      dup5\n      swap1\n      dup2\n      0x00\n      dup2\n      0x44\n      dup2\n      add\n        /* \"src/Contract Architecture/Core Infrastructure/UserVault.sol\":6506:6544  IERC20(token).approve(spender, amount) */\n      sub\n      swap3\n      sub(shl(0xa0, 0x01), 0x01)\n        /* \"src/Contract Architecture/Core Infrastructure/UserVault.sol\":1021:7390  contract UserVault {... */\n      and\n        /* \"src/Contract Architecture/Core Infrastructure/UserVault.sol\":6506:6544  IERC20(token).approve(spender, amount) */\n      gas\n      call\n      swap3\n      dup4\n      iszero\n      tag_103\n      jumpi\n      0x00\n      swap4\n      tag_100\n      jumpi\n        /* \"src/Contract Architecture/Core Infrastructure/UserVault.sol\":1021:7390  contract UserVault {... */\n    tag_101:\n      pop\n        /* \"src/Contract Architecture/Core Infrastructure/UserVault.sol\":6557:6590  this.executeCall(target, 0, data) */\n      tag_102\n        /* \"src/Contract Architecture/Core Infrastructure/UserVault.sol\":1021:7390  contract UserVault {... */\n      mload(0x40)\n      swap5\n      dup6\n      swap4\n      dup5\n      swap4\n      shl(0xe0, 0x9e5d4c49)\n        /* \"src/Contract Architecture/Core Infrastructure/UserVault.sol\":6557:6590  this.executeCall(target, 0, data) */\n      dup6\n      mstore\n        /* \"src/Contract Architecture/Core Infrastructure/UserVault.sol\":1021:7390  contract UserVault {... */\n      0x04\n        /* \"src/Contract Architecture/Core Infrastructure/UserVault.sol\":6557:6590  this.executeCall(target, 0, data) */\n      dup6\n      add\n      tag_33\n      jump\t// in\n    tag_102:\n      sub\n        /* \"src/Contract Architecture/Core Infrastructure/UserVault.sol\":6557:6561  this */\n      dup2\n      dup4\n      address\n        /* \"src/Contract Architecture/Core Infrastructure/UserVault.sol\":6557:6590  this.executeCall(target, 0, data) */\n      gas\n      call\n      dup1\n      iszero\n      tag_103\n      jumpi\n        /* \"src/Contract Architecture/Core Infrastructure/UserVault.sol\":1021:7390  contract UserVault {... */\n      tag_105\n        /* \"src/Contract Architecture/Core Infrastructure/UserVault.sol\":6557:6590  this.executeCall(target, 0, data) */\n      swap2\n      0x00\n      swap2\n      tag_106\n      jumpi\n        /* \"src/Contract Architecture/Core Infrastructure/UserVault.sol\":1021:7390  contract UserVault {... */\n    tag_107:\n      pop\n      mload(0x40)\n      swap2\n      dup3\n      swap2\n      dup3\n      tag_7\n      jump\t// in\n    tag_105:\n      sub\n      swap1\n      return\n        /* \"src/Contract Architecture/Core Infrastructure/UserVault.sol\":6557:6590  this.executeCall(target, 0, data) */\n    tag_106:\n      tag_108\n      swap2\n      pop\n      returndatasize\n      dup1\n      0x00\n      dup4\n      returndatacopy\n      tag_109\n      dup2\n      dup4\n      tag_26\n      jump\t// in\n    tag_109:\n      dup2\n      add\n      swap1\n      tag_31\n      jump\t// in\n    tag_108:\n      0x00\n      jump(tag_107)\n    tag_103:\n      tag_29\n      jump\t// in\n        /* \"src/Contract Architecture/Core Infrastructure/UserVault.sol\":6506:6544  IERC20(token).approve(spender, amount) */\n    tag_100:\n      tag_110\n      swap1\n        /* \"src/Contract Architecture/Core Infrastructure/UserVault.sol\":1021:7390  contract UserVault {... */\n      0x20\n        /* \"src/Contract Architecture/Core Infrastructure/UserVault.sol\":6506:6544  IERC20(token).approve(spender, amount) */\n      returndatasize\n        /* \"src/Contract Architecture/Core Infrastructure/UserVault.sol\":1021:7390  contract UserVault {... */\n      0x20\n        /* \"src/Contract Architecture/Core Infrastructure/UserVault.sol\":6506:6544  IERC20(token).approve(spender, amount) */\n      gt\n      tag_111\n      jumpi\n    tag_112:\n      tag_113\n      dup2\n      dup4\n      tag_26\n      jump\t// in\n    tag_113:\n      dup2\n      add\n      swap1\n      tag_27\n      jump\t// in\n    tag_110:\n      jump(tag_101)\n    tag_111:\n      pop\n      returndatasize\n      jump(tag_112)\n        /* \"src/Contract Architecture/Core Infrastructure/UserVault.sol\":2137:2214  if (msg.sender != _owner && !executorWhitelist[msg.sender]) revert NotOwner() */\n    tag_95:\n        /* \"src/Contract Architecture/Core Infrastructure/UserVault.sol\":2204:2214  NotOwner() */\n      mstore(0x00, shl(0xe0, 0x30cd7471))\n        /* \"src/Contract Architecture/Core Infrastructure/UserVault.sol\":1021:7390  contract UserVault {... */\n      0x04\n      0x00\n        /* \"src/Contract Architecture/Core Infrastructure/UserVault.sol\":2204:2214  NotOwner() */\n      revert\n        /* \"src/Contract Architecture/Core Infrastructure/UserVault.sol\":2141:2195  msg.sender != _owner && !executorWhitelist[msg.sender] */\n    tag_93:\n        /* \"src/Contract Architecture/Core Infrastructure/UserVault.sol\":2141:2151  msg.sender */\n      pop\n      caller\n      0x00\n        /* \"src/Contract Architecture/Core Infrastructure/UserVault.sol\":1021:7390  contract UserVault {... */\n      mstore\n        /* \"src/Contract Architecture/Core Infrastructure/UserVault.sol\":2166:2183  executorWhitelist */\n      0x01\n        /* \"src/Contract Architecture/Core Infrastructure/UserVault.sol\":1021:7390  contract UserVault {... */\n      0x20\n      mstore\n      and(sload(keccak256(0x00, 0x40)), 0xff)\n        /* \"src/Contract Architecture/Core Infrastructure/UserVault.sol\":2165:2195  !executorWhitelist[msg.sender] */\n      iszero\n        /* \"src/Contract Architecture/Core Infrastructure/UserVault.sol\":2141:2195  msg.sender != _owner && !executorWhitelist[msg.sender] */\n      jump(tag_94)\n        /* \"src/Contract Architecture/Core Infrastructure/UserVault.sol\":1021:7390  contract UserVault {... */\n    tag_9:\n      jumpi(tag_73, callvalue)\n      jumpi(tag_73, slt(add(not(0x03), calldatasize), 0x00))\n      0x20\n      and(shr(0xa0, sload(0x00)), 0xff)\n      mload(0x40)\n      swap1\n      iszero\n      iszero\n      dup2\n      mstore\n      return\n    tag_10:\n      jumpi(tag_73, callvalue)\n      jumpi(tag_73, slt(add(not(0x03), calldatasize), 0x20))\n      calldataload(0x04)\n      tag_122\n      dup2\n      tag_2\n      jump\t// in\n    tag_122:\n      sload(0x00)\n      swap1\n      sub(shl(0xa0, 0x01), 0x01)\n      dup3\n      and\n        /* \"src/Contract Architecture/Core Infrastructure/UserVault.sol\":2033:2043  msg.sender */\n      caller\n        /* \"src/Contract Architecture/Core Infrastructure/UserVault.sol\":2033:2053  msg.sender != _owner */\n      sub\n        /* \"src/Contract Architecture/Core Infrastructure/UserVault.sol\":2029:2072  if (msg.sender != _owner) revert NotOwner() */\n      tag_95\n      jumpi\n        /* \"src/Contract Architecture/Core Infrastructure/UserVault.sol\":1021:7390  contract UserVault {... */\n      mload(0x40)\n      shl(0xe0, 0x70a08231)\n        /* \"src/Contract Architecture/Core Infrastructure/UserVault.sol\":6797:6835  IERC20(token).balanceOf(address(this)) */\n      dup2\n      mstore\n        /* \"src/Contract Architecture/Core Infrastructure/UserVault.sol\":6829:6833  this */\n      address\n        /* \"src/Contract Architecture/Core Infrastructure/UserVault.sol\":1021:7390  contract UserVault {... */\n      0x04\n        /* \"src/Contract Architecture/Core Infrastructure/UserVault.sol\":6797:6835  IERC20(token).balanceOf(address(this)) */\n      dup3\n      add\n        /* \"src/Contract Architecture/Core Infrastructure/UserVault.sol\":1021:7390  contract UserVault {... */\n      mstore\n      swap2\n      sub(shl(0xa0, 0x01), 0x01)\n      swap2\n      swap1\n      swap2\n      and\n      swap1\n      0x20\n      dup4\n      0x24\n      dup2\n      dup6\n        /* \"src/Contract Architecture/Core Infrastructure/UserVault.sol\":6797:6835  IERC20(token).balanceOf(address(this)) */\n      gas\n      staticcall\n      swap3\n      dup4\n      iszero\n      tag_103\n      jumpi\n      0x00\n      swap4\n      tag_128\n      jumpi\n        /* \"src/Contract Architecture/Core Infrastructure/UserVault.sol\":1021:7390  contract UserVault {... */\n    tag_129:\n        /* \"src/Contract Architecture/Core Infrastructure/UserVault.sol\":6849:6856  bal > 0 */\n      pop\n      dup3\n      dup1\n        /* \"src/Contract Architecture/Core Infrastructure/UserVault.sol\":6845:6897  if (bal > 0) IERC20(token).safeTransfer(_owner, bal) */\n      tag_130\n      jumpi\n        /* \"src/Contract Architecture/Core Infrastructure/UserVault.sol\":1021:7390  contract UserVault {... */\n    tag_131:\n      sload(0x00)\n      mload(0x40)\n      swap2\n      dup3\n      mstore\n      sub(shl(0xa0, 0x01), 0x01)\n      and\n      swap1\n      dup4\n      swap1\n        /* \"src/Contract Architecture/Core Infrastructure/UserVault.sol\":6912:6946  ERC20Withdrawn(token, _owner, bal) */\n      0xbfed55bdcd242e3dd0f60ddd7d1e87c67f61c34cd9527b3e6455d841b1025362\n      swap1\n        /* \"src/Contract Architecture/Core Infrastructure/UserVault.sol\":1021:7390  contract UserVault {... */\n      0x20\n      swap1\n        /* \"src/Contract Architecture/Core Infrastructure/UserVault.sol\":6912:6946  ERC20Withdrawn(token, _owner, bal) */\n      log3\n        /* \"src/Contract Architecture/Core Infrastructure/UserVault.sol\":1021:7390  contract UserVault {... */\n      stop\n        /* \"src/Contract Architecture/Core Infrastructure/UserVault.sol\":6845:6897  if (bal > 0) IERC20(token).safeTransfer(_owner, bal) */\n    tag_130:\n        /* \"src/Contract Architecture/Core Infrastructure/UserVault.sol\":6893:6896  bal */\n      tag_135\n      swap2\n      sub(shl(0xa0, 0x01), 0x01)\n        /* \"src/Contract Architecture/Core Infrastructure/UserVault.sol\":1021:7390  contract UserVault {... */\n      and\n        /* \"src/Contract Architecture/Core Infrastructure/UserVault.sol\":6893:6896  bal */\n      dup4\n      tag_39\n      jump\t// in\n    tag_135:\n        /* \"src/Contract Architecture/Core Infrastructure/UserVault.sol\":6845:6897  if (bal > 0) IERC20(token).safeTransfer(_owner, bal) */\n      0x00\n      dup3\n      jump(tag_131)\n        /* \"src/Contract Architecture/Core Infrastructure/UserVault.sol\":6797:6835  IERC20(token).balanceOf(address(this)) */\n    tag_128:\n      tag_136\n      swap2\n      swap4\n      pop\n        /* \"src/Contract Architecture/Core Infrastructure/UserVault.sol\":1021:7390  contract UserVault {... */\n      0x20\n        /* \"src/Contract Architecture/Core Infrastructure/UserVault.sol\":6797:6835  IERC20(token).balanceOf(address(this)) */\n      returndatasize\n        /* \"src/Contract Architecture/Core Infrastructure/UserVault.sol\":1021:7390  contract UserVault {... */\n      0x20\n        /* \"src/Contract Architecture/Core Infrastructure/UserVault.sol\":6797:6835  IERC20(token).balanceOf(address(this)) */\n      gt\n      tag_137\n      jumpi\n    tag_138:\n      tag_139\n      dup2\n      dup4\n      tag_26\n      jump\t// in\n    tag_139:\n      dup2\n      add\n      swap1\n      tag_34\n      jump\t// in\n    tag_136:\n      swap2\n      0x00\n      jump(tag_129)\n    tag_137:\n      pop\n      returndatasize\n      jump(tag_138)\n        /* \"src/Contract Architecture/Core Infrastructure/UserVault.sol\":1021:7390  contract UserVault {... */\n    tag_11:\n      0x60\n      swap1\n      not(0x03)\n      add\n      slt\n      tag_73\n      jumpi\n      calldataload(0x04)\n      tag_142\n      dup2\n      tag_2\n      jump\t// in\n    tag_142:\n      swap1\n      calldataload(0x24)\n      tag_143\n      dup2\n      tag_2\n      jump\t// in\n    tag_143:\n      swap1\n      calldataload(0x44)\n      swap1\n      jump\t// out\n    tag_12:\n      jumpi(tag_73, callvalue)\n      tag_146\n      calldatasize\n      tag_11\n      jump\t// in\n    tag_146:\n        /* \"src/Contract Architecture/Core Infrastructure/UserVault.sol\":2047:2053  _owner */\n      0x00\n        /* \"src/Contract Architecture/Core Infrastructure/UserVault.sol\":1021:7390  contract UserVault {... */\n      sload\n      swap1\n      swap3\n      swap1\n      sub(shl(0xa0, 0x01), 0x01)\n      and\n        /* \"src/Contract Architecture/Core Infrastructure/UserVault.sol\":2033:2043  msg.sender */\n      caller\n        /* \"src/Contract Architecture/Core Infrastructure/UserVault.sol\":2033:2053  msg.sender != _owner */\n      sub\n        /* \"src/Contract Architecture/Core Infrastructure/UserVault.sol\":2029:2072  if (msg.sender != _owner) revert NotOwner() */\n      tag_95\n      jumpi\n      sub(shl(0xa0, 0x01), 0x01)\n        /* \"src/Contract Architecture/Core Infrastructure/UserVault.sol\":1021:7390  contract UserVault {... */\n      and\n      swap1\n        /* \"src/Contract Architecture/Core Infrastructure/UserVault.sol\":3894:3913  token == address(0) */\n      dup2\n      iszero\n        /* \"src/Contract Architecture/Core Infrastructure/UserVault.sol\":3894:3933  token == address(0) || to == address(0) */\n      dup1\n      iszero\n      tag_149\n      jumpi\n        /* \"src/Contract Architecture/Core Infrastructure/UserVault.sol\":1021:7390  contract UserVault {... */\n    tag_150:\n        /* \"src/Contract Architecture/Core Infrastructure/UserVault.sol\":3890:3955  if (token == address(0) || to == address(0)) revert ZeroAddress() */\n      tag_151\n      jumpi\n        /* \"src/Contract Architecture/Core Infrastructure/UserVault.sol\":1021:7390  contract UserVault {... */\n      0x20\n        /* \"src/Contract Architecture/Core Infrastructure/UserVault.sol\":3996:4002  amount */\n      dup2\n      tag_153\n      dup6\n        /* \"src/Contract Architecture/Core Infrastructure/UserVault.sol\":4018:4051  ERC20Withdrawn(token, to, amount) */\n      0xbfed55bdcd242e3dd0f60ddd7d1e87c67f61c34cd9527b3e6455d841b1025362\n        /* \"src/Contract Architecture/Core Infrastructure/UserVault.sol\":3996:4002  amount */\n      swap5\n      dup7\n      tag_39\n      jump\t// in\n    tag_153:\n        /* \"src/Contract Architecture/Core Infrastructure/UserVault.sol\":1021:7390  contract UserVault {... */\n      mload(0x40)\n      swap5\n      dup6\n      mstore\n      sub(shl(0xa0, 0x01), 0x01)\n      and\n      swap4\n        /* \"src/Contract Architecture/Core Infrastructure/UserVault.sol\":4018:4051  ERC20Withdrawn(token, to, amount) */\n      log3\n        /* \"src/Contract Architecture/Core Infrastructure/UserVault.sol\":1021:7390  contract UserVault {... */\n      stop\n        /* \"src/Contract Architecture/Core Infrastructure/UserVault.sol\":3890:3955  if (token == address(0) || to == address(0)) revert ZeroAddress() */\n    tag_151:\n        /* \"src/Contract Architecture/Core Infrastructure/UserVault.sol\":3942:3955  ZeroAddress() */\n      shl(0xe0, 0xd92e233d)\n        /* \"src/Contract Architecture/Core Infrastructure/UserVault.sol\":2047:2053  _owner */\n      0x00\n        /* \"src/Contract Architecture/Core Infrastructure/UserVault.sol\":3942:3955  ZeroAddress() */\n      mstore\n        /* \"src/Contract Architecture/Core Infrastructure/UserVault.sol\":1021:7390  contract UserVault {... */\n      0x04\n        /* \"src/Contract Architecture/Core Infrastructure/UserVault.sol\":2047:2053  _owner */\n      0x00\n        /* \"src/Contract Architecture/Core Infrastructure/UserVault.sol\":3942:3955  ZeroAddress() */\n      revert\n        /* \"src/Contract Architecture/Core Infrastructure/UserVault.sol\":3894:3933  token == address(0) || to == address(0) */\n    tag_149:\n      pop\n      sub(shl(0xa0, 0x01), 0x01)\n        /* \"src/Contract Architecture/Core Infrastructure/UserVault.sol\":1021:7390  contract UserVault {... */\n      dup2\n      and\n        /* \"src/Contract Architecture/Core Infrastructure/UserVault.sol\":3917:3933  to == address(0) */\n      iszero\n        /* \"src/Contract Architecture/Core Infrastructure/UserVault.sol\":3894:3933  token == address(0) || to == address(0) */\n      jump(tag_150)\n        /* \"src/Contract Architecture/Core Infrastructure/UserVault.sol\":1021:7390  contract UserVault {... */\n    tag_13:\n      jumpi(tag_73, callvalue)\n      jumpi(tag_73, slt(add(not(0x03), calldatasize), 0x40))\n      calldataload(0x04)\n      tag_158\n      dup2\n      tag_2\n      jump\t// in\n    tag_158:\n      sload(0x00)\n      calldataload(0x24)\n      swap2\n      swap1\n      sub(shl(0xa0, 0x01), 0x01)\n      and\n        /* \"src/Contract Architecture/Core Infrastructure/UserVault.sol\":2033:2043  msg.sender */\n      caller\n        /* \"src/Contract Architecture/Core Infrastructure/UserVault.sol\":2033:2053  msg.sender != _owner */\n      sub\n        /* \"src/Contract Architecture/Core Infrastructure/UserVault.sol\":2029:2072  if (msg.sender != _owner) revert NotOwner() */\n      tag_95\n      jumpi\n      sub(shl(0xa0, 0x01), 0x01)\n        /* \"src/Contract Architecture/Core Infrastructure/UserVault.sol\":1021:7390  contract UserVault {... */\n      and\n      swap1\n        /* \"src/Contract Architecture/Core Infrastructure/UserVault.sol\":3549:3565  to == address(0) */\n      dup2\n      iszero\n        /* \"src/Contract Architecture/Core Infrastructure/UserVault.sol\":3545:3587  if (to == address(0)) revert ZeroAddress() */\n      tag_151\n      jumpi\n      0x00\n        /* \"src/Contract Architecture/Core Infrastructure/UserVault.sol\":3611:3637  to.call{value: amount}(\"\") */\n      dup1\n      dup1\n      dup1\n      dup5\n      dup7\n      gas\n      call\n      tag_164\n      tag_36\n      jump\t// in\n    tag_164:\n      pop\n        /* \"src/Contract Architecture/Core Infrastructure/UserVault.sol\":3651:3654  !ok */\n      iszero\n        /* \"src/Contract Architecture/Core Infrastructure/UserVault.sol\":3647:3679  if (!ok) revert TransferFailed() */\n      tag_165\n      jumpi\n        /* \"src/Contract Architecture/Core Infrastructure/UserVault.sol\":1021:7390  contract UserVault {... */\n      0x20\n        /* \"src/Contract Architecture/Core Infrastructure/UserVault.sol\":3694:3718  ETHWithdrawn(to, amount) */\n      0x94b2de810873337ed265c5f8cf98c9cffefa06b8607f9a2f1fbaebdfbcfbef1c\n        /* \"src/Contract Architecture/Core Infrastructure/UserVault.sol\":1021:7390  contract UserVault {... */\n      swap2\n      mload(0x40)\n      swap1\n      dup2\n      mstore\n        /* \"src/Contract Architecture/Core Infrastructure/UserVault.sol\":3694:3718  ETHWithdrawn(to, amount) */\n      log2\n        /* \"src/Contract Architecture/Core Infrastructure/UserVault.sol\":1021:7390  contract UserVault {... */\n      stop\n        /* \"src/Contract Architecture/Core Infrastructure/UserVault.sol\":3647:3679  if (!ok) revert TransferFailed() */\n    tag_165:\n        /* \"src/Contract Architecture/Core Infrastructure/UserVault.sol\":3663:3679  TransferFailed() */\n      mstore(0x00, shl(0xe3, 0x12171d83))\n        /* \"src/Contract Architecture/Core Infrastructure/UserVault.sol\":1021:7390  contract UserVault {... */\n      0x04\n      0x00\n        /* \"src/Contract Architecture/Core Infrastructure/UserVault.sol\":3663:3679  TransferFailed() */\n      revert\n        /* \"src/Contract Architecture/Core Infrastructure/UserVault.sol\":1021:7390  contract UserVault {... */\n    tag_14:\n      jumpi(tag_73, callvalue)\n      jumpi(tag_73, slt(add(not(0x03), calldatasize), 0x20))\n      calldataload(0x04)\n      tag_171\n      dup2\n      tag_2\n      jump\t// in\n    tag_171:\n      0x01\n      dup1\n      0xa0\n      shl\n      sub\n      and\n      0x00\n      mstore\n        /* \"src/Contract Architecture/Core Infrastructure/UserVault.sol\":1341:1390  mapping(address => bool) public executorWhitelist */\n      0x01\n        /* \"src/Contract Architecture/Core Infrastructure/UserVault.sol\":1021:7390  contract UserVault {... */\n      0x20\n      mstore\n      0x20\n      and(sload(keccak256(0x00, 0x40)), 0xff)\n      mload(0x40)\n      swap1\n      iszero\n      iszero\n      dup2\n      mstore\n      return\n    tag_15:\n      dup1\n      iszero\n      iszero\n      sub\n      tag_73\n      jumpi\n      jump\t// out\n    tag_16:\n      jumpi(tag_73, callvalue)\n      jumpi(tag_73, slt(add(not(0x03), calldatasize), 0x40))\n      calldataload(0x04)\n      tag_178\n      dup2\n      tag_2\n      jump\t// in\n    tag_178:\n      calldataload(0x24)\n      swap1\n      tag_179\n      dup3\n      tag_15\n      jump\t// in\n    tag_179:\n      and(sub(shl(0xa0, 0x01), 0x01), sload(0x00))\n        /* \"src/Contract Architecture/Core Infrastructure/UserVault.sol\":2033:2043  msg.sender */\n      caller\n        /* \"src/Contract Architecture/Core Infrastructure/UserVault.sol\":2033:2053  msg.sender != _owner */\n      sub\n        /* \"src/Contract Architecture/Core Infrastructure/UserVault.sol\":2029:2072  if (msg.sender != _owner) revert NotOwner() */\n      tag_95\n      jumpi\n      sub(shl(0xa0, 0x01), 0x01)\n        /* \"src/Contract Architecture/Core Infrastructure/UserVault.sol\":1021:7390  contract UserVault {... */\n      and\n      swap1\n        /* \"src/Contract Architecture/Core Infrastructure/UserVault.sol\":4662:4684  executor == address(0) */\n      dup2\n      iszero\n        /* \"src/Contract Architecture/Core Infrastructure/UserVault.sol\":4658:4706  if (executor == address(0)) revert ZeroAddress() */\n      tag_151\n      jumpi\n        /* \"src/Contract Architecture/Core Infrastructure/UserVault.sol\":1021:7390  contract UserVault {... */\n      0x20\n        /* \"src/Contract Architecture/Core Infrastructure/UserVault.sol\":4768:4806  ExecutorWhitelisted(executor, allowed) */\n      0x19f4c310cf148369e5605e8f3538cee4d3495da0612c9a45c0b89105ed6fee4d\n        /* \"src/Contract Architecture/Core Infrastructure/UserVault.sol\":1021:7390  contract UserVault {... */\n      swap2\n      dup4\n      0x00\n      mstore\n        /* \"src/Contract Architecture/Core Infrastructure/UserVault.sol\":4716:4733  executorWhitelist */\n      0x01\n        /* \"src/Contract Architecture/Core Infrastructure/UserVault.sol\":1021:7390  contract UserVault {... */\n      dup3\n      mstore\n      keccak256(0x00, 0x40)\n      swap1\n      iszero\n      iszero\n      swap1\n      not(0xff)\n      dup2\n      sload\n      and\n      0xff\n      dup4\n      and\n      or\n      swap1\n      sstore\n      mload(0x40)\n      swap1\n      dup2\n      mstore\n        /* \"src/Contract Architecture/Core Infrastructure/UserVault.sol\":4768:4806  ExecutorWhitelisted(executor, allowed) */\n      log2\n        /* \"src/Contract Architecture/Core Infrastructure/UserVault.sol\":1021:7390  contract UserVault {... */\n      stop\n    tag_17:\n      jumpi(tag_73, callvalue)\n      jumpi(tag_73, slt(add(not(0x03), calldatasize), 0x00))\n      and(sub(shl(0xa0, 0x01), 0x01), sload(0x00))\n        /* \"src/Contract Architecture/Core Infrastructure/UserVault.sol\":2033:2043  msg.sender */\n      caller\n        /* \"src/Contract Architecture/Core Infrastructure/UserVault.sol\":2033:2053  msg.sender != _owner */\n      dup2\n      swap1\n      sub\n        /* \"src/Contract Architecture/Core Infrastructure/UserVault.sol\":2029:2072  if (msg.sender != _owner) revert NotOwner() */\n      tag_95\n      jumpi\n        /* \"src/Contract Architecture/Core Infrastructure/UserVault.sol\":7034:7055  address(this).balance */\n      selfbalance\n        /* \"src/Contract Architecture/Core Infrastructure/UserVault.sol\":7069:7076  bal > 0 */\n      swap1\n      dup2\n        /* \"src/Contract Architecture/Core Infrastructure/UserVault.sol\":7065:7243  if (bal > 0) {... */\n      tag_190\n      jumpi\n        /* \"src/Contract Architecture/Core Infrastructure/UserVault.sol\":1021:7390  contract UserVault {... */\n      stop\n        /* \"src/Contract Architecture/Core Infrastructure/UserVault.sol\":7065:7243  if (bal > 0) {... */\n    tag_190:\n        /* \"src/Contract Architecture/Core Infrastructure/UserVault.sol\":1021:7390  contract UserVault {... */\n      0x00\n        /* \"src/Contract Architecture/Core Infrastructure/UserVault.sol\":7106:7142  payable(_owner).call{value: bal}(\"\") */\n      dup1\n      dup1\n      dup5\n      dup2\n      swap5\n      gas\n      call\n      tag_192\n      tag_36\n      jump\t// in\n    tag_192:\n      pop\n        /* \"src/Contract Architecture/Core Infrastructure/UserVault.sol\":7160:7163  !ok */\n      iszero\n        /* \"src/Contract Architecture/Core Infrastructure/UserVault.sol\":7156:7188  if (!ok) revert TransferFailed() */\n      tag_165\n      jumpi\n        /* \"src/Contract Architecture/Core Infrastructure/UserVault.sol\":1021:7390  contract UserVault {... */\n      sload(0x00)\n      mload(0x40)\n      swap2\n      dup3\n      mstore\n      sub(shl(0xa0, 0x01), 0x01)\n      and\n      swap1\n        /* \"src/Contract Architecture/Core Infrastructure/UserVault.sol\":7207:7232  ETHWithdrawn(_owner, bal) */\n      0x94b2de810873337ed265c5f8cf98c9cffefa06b8607f9a2f1fbaebdfbcfbef1c\n      swap1\n        /* \"src/Contract Architecture/Core Infrastructure/UserVault.sol\":1021:7390  contract UserVault {... */\n      0x20\n      swap1\n        /* \"src/Contract Architecture/Core Infrastructure/UserVault.sol\":7207:7232  ETHWithdrawn(_owner, bal) */\n      log2\n        /* \"src/Contract Architecture/Core Infrastructure/UserVault.sol\":1021:7390  contract UserVault {... */\n      stop\n    tag_19:\n      jumpi(tag_73, callvalue)\n      jumpi(tag_73, slt(add(not(0x03), calldatasize), 0x00))\n      sload(0x00)\n      mload(0x40)\n      sub(shl(0xa0, 0x01), 0x01)\n      swap1\n      swap2\n      and\n      dup2\n      mstore\n      0x20\n      swap1\n      return\n    tag_20:\n      jumpi(tag_73, callvalue)\n      jumpi(tag_73, slt(add(not(0x03), calldatasize), 0x60))\n      calldataload(0x04)\n      tag_204\n      dup2\n      tag_2\n      jump\t// in\n    tag_204:\n      calldataload(0x24)\n      calldataload(0x44)\n      0xffffffffffffffff\n      dup2\n      gt\n      tag_73\n      jumpi\n      tag_208\n      swap1\n      calldatasize\n      swap1\n      0x04\n      add\n      tag_5\n      jump\t// in\n    tag_208:\n      swap3\n      swap1\n      swap2\n      0x01\n      dup1\n      0xa0\n      shl\n      sub\n      sload(0x00)\n      and\n        /* \"src/Contract Architecture/Core Infrastructure/UserVault.sol\":2141:2151  msg.sender */\n      caller\n        /* \"src/Contract Architecture/Core Infrastructure/UserVault.sol\":2141:2161  msg.sender != _owner */\n      eq\n      iszero\n        /* \"src/Contract Architecture/Core Infrastructure/UserVault.sol\":2141:2195  msg.sender != _owner && !executorWhitelist[msg.sender] */\n      dup1\n      tag_209\n      jumpi\n        /* \"src/Contract Architecture/Core Infrastructure/UserVault.sol\":1021:7390  contract UserVault {... */\n    tag_210:\n        /* \"src/Contract Architecture/Core Infrastructure/UserVault.sol\":2137:2214  if (msg.sender != _owner && !executorWhitelist[msg.sender]) revert NotOwner() */\n      tag_95\n      jumpi\n      sub(shl(0xa0, 0x01), 0x01)\n        /* \"src/Contract Architecture/Core Infrastructure/UserVault.sol\":1021:7390  contract UserVault {... */\n      dup3\n      and\n      swap2\n        /* \"src/Contract Architecture/Core Infrastructure/UserVault.sol\":5615:5635  target == address(0) */\n      dup3\n      iszero\n        /* \"src/Contract Architecture/Core Infrastructure/UserVault.sol\":5611:5659  if (target == address(0)) revert InvalidTarget() */\n      tag_213\n      jumpi\n      0x00\n        /* \"src/Contract Architecture/Core Infrastructure/UserVault.sol\":1021:7390  contract UserVault {... */\n      dup1\n      swap2\n      mload(0x40)\n      dup8\n      dup8\n      dup3\n      calldatacopy\n      dup5\n      dup2\n      dup10\n      dup2\n      add\n      dup6\n      dup2\n      mstore\n        /* \"src/Contract Architecture/Core Infrastructure/UserVault.sol\":5759:5790  target.call{value: value}(data) */\n      sub\n      swap3\n      gas\n      call\n      swap3\n      tag_215\n      tag_36\n      jump\t// in\n    tag_215:\n        /* \"src/Contract Architecture/Core Infrastructure/UserVault.sol\":5804:5807  !ok */\n      swap4\n      iszero\n        /* \"src/Contract Architecture/Core Infrastructure/UserVault.sol\":5800:6114  if (!ok) {... */\n      tag_216\n      jumpi\n        /* \"src/Contract Architecture/Core Infrastructure/UserVault.sol\":1021:7390  contract UserVault {... */\n      tag_105\n      swap5\n        /* \"src/Contract Architecture/Core Infrastructure/UserVault.sol\":6129:6179  ExecutedCall(msg.sender, target, value, data, res) */\n      0x335a1fecd5558554165c05171954925d0d97911ad1d259ef6bb18eb2c07a58aa\n        /* \"src/Contract Architecture/Core Infrastructure/UserVault.sol\":1021:7390  contract UserVault {... */\n      swap2\n        /* \"src/Contract Architecture/Core Infrastructure/UserVault.sol\":6129:6179  ExecutedCall(msg.sender, target, value, data, res) */\n      tag_219\n        /* \"src/Contract Architecture/Core Infrastructure/UserVault.sol\":1021:7390  contract UserVault {... */\n      dup7\n      mload(0x40)\n        /* \"src/Contract Architecture/Core Infrastructure/UserVault.sol\":2141:2151  msg.sender */\n      swap4\n      dup5\n      swap4\n      caller\n        /* \"src/Contract Architecture/Core Infrastructure/UserVault.sol\":6129:6179  ExecutedCall(msg.sender, target, value, data, res) */\n      swap8\n      dup6\n      tag_37\n      jump\t// in\n    tag_219:\n      sub\n      swap1\n      log3\n        /* \"src/Contract Architecture/Core Infrastructure/UserVault.sol\":1021:7390  contract UserVault {... */\n      mload(0x40)\n      swap2\n      dup3\n      swap2\n      dup3\n      tag_7\n      jump\t// in\n        /* \"src/Contract Architecture/Core Infrastructure/UserVault.sol\":5800:6114  if (!ok) {... */\n    tag_216:\n        /* \"src/Contract Architecture/Core Infrastructure/UserVault.sol\":1021:7390  contract UserVault {... */\n      dup4\n      mload\n      dup5\n      dup2\n        /* \"src/Contract Architecture/Core Infrastructure/UserVault.sol\":5870:6067  if (res.length > 0) {... */\n      tag_220\n      jumpi\n        /* \"src/Contract Architecture/Core Infrastructure/UserVault.sol\":3663:3679  TransferFailed() */\n      shl(0xe3, 0x12171d83)\n      0x00\n        /* \"src/Contract Architecture/Core Infrastructure/UserVault.sol\":6087:6103  TransferFailed() */\n      mstore\n        /* \"src/Contract Architecture/Core Infrastructure/UserVault.sol\":1021:7390  contract UserVault {... */\n      0x04\n      0x00\n        /* \"src/Contract Architecture/Core Infrastructure/UserVault.sol\":6087:6103  TransferFailed() */\n      revert\n        /* \"src/Contract Architecture/Core Infrastructure/UserVault.sol\":5870:6067  if (res.length > 0) {... */\n    tag_220:\n        /* \"src/Contract Architecture/Core Infrastructure/UserVault.sol\":1021:7390  contract UserVault {... */\n      0x20\n        /* \"src/Contract Architecture/Core Infrastructure/UserVault.sol\":5972:6053  assembly {... */\n      add\n      revert\n        /* \"src/Contract Architecture/Core Infrastructure/UserVault.sol\":5611:5659  if (target == address(0)) revert InvalidTarget() */\n    tag_213:\n        /* \"src/Contract Architecture/Core Infrastructure/UserVault.sol\":5644:5659  InvalidTarget() */\n      mstore(0x00, shl(0xe1, 0x416aebb5))\n        /* \"src/Contract Architecture/Core Infrastructure/UserVault.sol\":1021:7390  contract UserVault {... */\n      0x04\n      0x00\n        /* \"src/Contract Architecture/Core Infrastructure/UserVault.sol\":5644:5659  InvalidTarget() */\n      revert\n        /* \"src/Contract Architecture/Core Infrastructure/UserVault.sol\":2141:2195  msg.sender != _owner && !executorWhitelist[msg.sender] */\n    tag_209:\n        /* \"src/Contract Architecture/Core Infrastructure/UserVault.sol\":2141:2151  msg.sender */\n      pop\n      caller\n      0x00\n        /* \"src/Contract Architecture/Core Infrastructure/UserVault.sol\":1021:7390  contract UserVault {... */\n      mstore\n        /* \"src/Contract Architecture/Core Infrastructure/UserVault.sol\":2166:2183  executorWhitelist */\n      0x01\n        /* \"src/Contract Architecture/Core Infrastructure/UserVault.sol\":1021:7390  contract UserVault {... */\n      0x20\n      mstore\n      and(sload(keccak256(0x00, 0x40)), 0xff)\n        /* \"src/Contract Architecture/Core Infrastructure/UserVault.sol\":2165:2195  !executorWhitelist[msg.sender] */\n      iszero\n        /* \"src/Contract Architecture/Core Infrastructure/UserVault.sol\":2141:2195  msg.sender != _owner && !executorWhitelist[msg.sender] */\n      jump(tag_210)\n        /* \"src/Contract Architecture/Core Infrastructure/UserVault.sol\":1021:7390  contract UserVault {... */\n    tag_21:\n      jumpi(tag_73, callvalue)\n      tag_224\n      calldatasize\n      tag_11\n      jump\t// in\n    tag_224:\n        /* \"src/Contract Architecture/Core Infrastructure/UserVault.sol\":2047:2053  _owner */\n      0x00\n        /* \"src/Contract Architecture/Core Infrastructure/UserVault.sol\":1021:7390  contract UserVault {... */\n      sload\n      swap1\n      swap3\n      swap1\n      sub(shl(0xa0, 0x01), 0x01)\n      and\n        /* \"src/Contract Architecture/Core Infrastructure/UserVault.sol\":2033:2043  msg.sender */\n      caller\n        /* \"src/Contract Architecture/Core Infrastructure/UserVault.sol\":2033:2053  msg.sender != _owner */\n      sub\n        /* \"src/Contract Architecture/Core Infrastructure/UserVault.sol\":2029:2072  if (msg.sender != _owner) revert NotOwner() */\n      tag_95\n      jumpi\n      sub(shl(0xa0, 0x01), 0x01)\n        /* \"src/Contract Architecture/Core Infrastructure/UserVault.sol\":1021:7390  contract UserVault {... */\n      and\n      swap2\n        /* \"src/Contract Architecture/Core Infrastructure/UserVault.sol\":4243:4262  token == address(0) */\n      dup3\n      iszero\n        /* \"src/Contract Architecture/Core Infrastructure/UserVault.sol\":4243:4287  token == address(0) || spender == address(0) */\n      dup1\n      iszero\n      tag_227\n      jumpi\n        /* \"src/Contract Architecture/Core Infrastructure/UserVault.sol\":1021:7390  contract UserVault {... */\n    tag_228:\n        /* \"src/Contract Architecture/Core Infrastructure/UserVault.sol\":4239:4309  if (token == address(0) || spender == address(0)) revert ZeroAddress() */\n      tag_151\n      jumpi\n        /* \"src/Contract Architecture/Core Infrastructure/UserVault.sol\":1021:7390  contract UserVault {... */\n      mload(0x40)\n      shl(0xe0, 0x095ea7b3)\n        /* \"src/Contract Architecture/Core Infrastructure/UserVault.sol\":4319:4357  IERC20(token).approve(spender, amount) */\n      dup2\n      mstore\n      sub(shl(0xa0, 0x01), 0x01)\n        /* \"src/Contract Architecture/Core Infrastructure/UserVault.sol\":1021:7390  contract UserVault {... */\n      swap3\n      swap1\n      swap3\n      and\n      0x04\n        /* \"src/Contract Architecture/Core Infrastructure/UserVault.sol\":4319:4357  IERC20(token).approve(spender, amount) */\n      dup4\n      add\n        /* \"src/Contract Architecture/Core Infrastructure/UserVault.sol\":1021:7390  contract UserVault {... */\n      mstore\n      0x24\n      dup3\n      add\n      mstore\n      swap1\n        /* \"src/Contract Architecture/Core Infrastructure/UserVault.sol\":4319:4357  IERC20(token).approve(spender, amount) */\n      0x20\n      swap1\n        /* \"src/Contract Architecture/Core Infrastructure/UserVault.sol\":1021:7390  contract UserVault {... */\n      dup3\n      swap1\n      0x44\n      swap1\n      dup3\n      swap1\n      0x00\n      swap1\n        /* \"src/Contract Architecture/Core Infrastructure/UserVault.sol\":4319:4357  IERC20(token).approve(spender, amount) */\n      gas\n      call\n      dup1\n      iszero\n      tag_103\n      jumpi\n      tag_234\n      jumpi\n        /* \"src/Contract Architecture/Core Infrastructure/UserVault.sol\":1021:7390  contract UserVault {... */\n      stop\n        /* \"src/Contract Architecture/Core Infrastructure/UserVault.sol\":4319:4357  IERC20(token).approve(spender, amount) */\n    tag_234:\n      tag_44\n      swap1\n      0x20\n      jumpi(tag_111, gt(0x20, returndatasize))\n      tag_113\n      dup2\n      dup4\n      tag_26\n      jump\t// in\n        /* \"src/Contract Architecture/Core Infrastructure/UserVault.sol\":4243:4287  token == address(0) || spender == address(0) */\n    tag_227:\n      pop\n      sub(shl(0xa0, 0x01), 0x01)\n        /* \"src/Contract Architecture/Core Infrastructure/UserVault.sol\":1021:7390  contract UserVault {... */\n      dup3\n      and\n        /* \"src/Contract Architecture/Core Infrastructure/UserVault.sol\":4266:4287  spender == address(0) */\n      iszero\n        /* \"src/Contract Architecture/Core Infrastructure/UserVault.sol\":4243:4287  token == address(0) || spender == address(0) */\n      jump(tag_228)\n        /* \"src/Contract Architecture/Core Infrastructure/UserVault.sol\":1021:7390  contract UserVault {... */\n    tag_22:\n      jumpi(tag_73, callvalue)\n      jumpi(tag_73, slt(add(not(0x03), calldatasize), 0x20))\n      calldataload(0x04)\n      tag_244\n      dup2\n      tag_2\n      jump\t// in\n    tag_244:\n      sload(0x00)\n      swap1\n      0xff\n      dup3\n      0xa0\n      shr\n      and\n        /* \"src/Contract Architecture/Core Infrastructure/UserVault.sol\":2389:2434  if (_initialized) revert AlreadyInitialized() */\n      tag_245\n      jumpi\n      sub(shl(0xa0, 0x01), 0x01)\n        /* \"src/Contract Architecture/Core Infrastructure/UserVault.sol\":1021:7390  contract UserVault {... */\n      and\n      swap1\n        /* \"src/Contract Architecture/Core Infrastructure/UserVault.sol\":2448:2468  owner_ == address(0) */\n      dup2\n      iszero\n        /* \"src/Contract Architecture/Core Infrastructure/UserVault.sol\":2444:2490  if (owner_ == address(0)) revert ZeroAddress() */\n      tag_151\n      jumpi\n      not(sub(shl(0xa8, 0x01), 0x01))\n        /* \"src/Contract Architecture/Core Infrastructure/UserVault.sol\":1021:7390  contract UserVault {... */\n      and\n      dup2\n      or\n      shl(0xa0, 0x01)\n      or\n      0x00\n      swap1\n      dup2\n      sstore\n        /* \"src/Contract Architecture/Core Infrastructure/UserVault.sol\":2561:2580  Initialized(owner_) */\n      0x908408e307fc569b417f6cbec5d5a06f44a0a505ac0479b47d421a4b2fd6a1e6\n      swap1\n      dup1\n      log2\n        /* \"src/Contract Architecture/Core Infrastructure/UserVault.sol\":1021:7390  contract UserVault {... */\n      stop\n        /* \"src/Contract Architecture/Core Infrastructure/UserVault.sol\":2389:2434  if (_initialized) revert AlreadyInitialized() */\n    tag_245:\n        /* \"src/Contract Architecture/Core Infrastructure/UserVault.sol\":2414:2434  AlreadyInitialized() */\n      mstore(0x00, shl(0xe4, 0xdc149f))\n        /* \"src/Contract Architecture/Core Infrastructure/UserVault.sol\":1021:7390  contract UserVault {... */\n      0x04\n      0x00\n        /* \"src/Contract Architecture/Core Infrastructure/UserVault.sol\":2414:2434  AlreadyInitialized() */\n      revert\n        /* \"src/Contract Architecture/Core Infrastructure/UserVault.sol\":1021:7390  contract UserVault {... */\n    tag_23:\n      jumpi(tag_73, callvalue)\n      jumpi(tag_73, slt(add(not(0x03), calldatasize), 0x40))\n      calldataload(0x04)\n      tag_253\n      dup2\n      tag_2\n      jump\t// in\n    tag_253:\n      calldataload(0x24)\n      swap1\n      sub(shl(0xa0, 0x01), 0x01)\n      and\n        /* \"src/Contract Architecture/Core Infrastructure/UserVault.sol\":3275:3294  token == address(0) */\n      dup1\n      iszero\n        /* \"src/Contract Architecture/Core Infrastructure/UserVault.sol\":3271:3316  if (token == address(0)) revert ZeroAddress() */\n      tag_151\n      jumpi\n        /* \"src/Contract Architecture/Core Infrastructure/UserVault.sol\":1021:7390  contract UserVault {... */\n      mload(0x40)\n      swap2\n      dup3\n      mstore\n        /* \"src/Contract Architecture/Core Infrastructure/UserVault.sol\":3331:3372  ERC20Deposited(token, msg.sender, amount) */\n      0xe33e9822e3317b004d587136bab2627ea1ecfbba4eb79abddd0a56cfdd09c0e1\n        /* \"src/Contract Architecture/Core Infrastructure/UserVault.sol\":1021:7390  contract UserVault {... */\n      0x20\n        /* \"src/Contract Architecture/Core Infrastructure/UserVault.sol\":3353:3363  msg.sender */\n      caller\n        /* \"src/Contract Architecture/Core Infrastructure/UserVault.sol\":3331:3372  ERC20Deposited(token, msg.sender, amount) */\n      swap4\n      log3\n        /* \"src/Contract Architecture/Core Infrastructure/UserVault.sol\":1021:7390  contract UserVault {... */\n      stop\n    tag_24:\n      jumpi(tag_73, slt(add(not(0x03), calldatasize), 0x00))\n      tag_44\n      tag_38\n      jump\t// in\n    tag_25:\n      mstore(0x00, shl(0xe0, 0x4e487b71))\n      mstore(0x04, 0x41)\n      revert(0x00, 0x24)\n    tag_26:\n      swap1\n      0x1f\n      dup1\n      not\n      swap2\n      add\n      and\n      dup2\n      add\n      swap1\n      dup2\n      lt\n      0xffffffffffffffff\n      dup3\n      gt\n      or\n      tag_259\n      jumpi\n      0x40\n      mstore\n      jump\t// out\n    tag_259:\n      tag_25\n      jump\t// in\n    tag_27:\n      swap1\n      dup2\n      0x20\n      swap2\n      sub\n      slt\n      tag_73\n      jumpi\n      mload\n      tag_81\n      dup2\n      tag_15\n      jump\t// in\n    tag_29:\n      mload(0x40)\n      returndatasize\n      0x00\n      dup3\n      returndatacopy\n      returndatasize\n      swap1\n      revert\n    tag_30:\n      0xffffffffffffffff\n      dup2\n      gt\n      tag_259\n      jumpi\n      0x1f\n      add\n      not(0x1f)\n      and\n      0x20\n      add\n      swap1\n      jump\t// out\n    tag_31:\n      0x20\n      dup2\n      dup4\n      sub\n      slt\n      tag_73\n      jumpi\n      dup1\n      mload\n      swap1\n      0xffffffffffffffff\n      dup3\n      gt\n      tag_73\n      jumpi\n      add\n      dup2\n      0x1f\n      dup3\n      add\n      slt\n      iszero\n      tag_73\n      jumpi\n      dup1\n      mload\n      swap1\n      tag_272\n      dup3\n      tag_30\n      jump\t// in\n    tag_272:\n      swap3\n      tag_273\n      mload(0x40)\n      swap5\n      dup6\n      tag_26\n      jump\t// in\n    tag_273:\n      dup3\n      dup5\n      mstore\n      0x20\n      dup4\n      dup4\n      add\n      add\n      gt\n      tag_73\n      jumpi\n      dup2\n      0x00\n      swap3\n      0x20\n      dup1\n      swap4\n      add\n      dup4\n      dup7\n      add\n      mcopy\n      dup4\n      add\n      add\n      mstore\n      swap1\n      jump\t// out\n    tag_32:\n      swap1\n      dup1\n      0x20\n      swap4\n      swap3\n      dup2\n      dup5\n      mstore\n      dup5\n      dup5\n      add\n      calldatacopy\n      0x00\n      dup3\n      dup3\n      add\n      dup5\n      add\n      mstore\n      0x1f\n      add\n      not(0x1f)\n      and\n      add\n      add\n      swap1\n      jump\t// out\n    tag_33:\n      sub(shl(0xa0, 0x01), 0x01)\n      swap1\n      swap2\n      and\n      dup2\n      mstore\n      0x00\n      0x20\n      dup3\n      add\n      mstore\n      0x60\n      0x40\n      dup3\n      add\n      dup2\n      swap1\n      mstore\n      tag_81\n      swap4\n      swap2\n      add\n      swap2\n      tag_32\n      jump\t// in\n    tag_34:\n      swap1\n      dup2\n      0x20\n      swap2\n      sub\n      slt\n      tag_73\n      jumpi\n      mload\n      swap1\n      jump\t// out\n    tag_36:\n      jumpi(tag_279, iszero(returndatasize))\n      returndatasize\n      swap1\n      tag_281\n      dup3\n      tag_30\n      jump\t// in\n    tag_281:\n      swap2\n      tag_282\n      mload(0x40)\n      swap4\n      dup5\n      tag_26\n      jump\t// in\n    tag_282:\n      dup3\n      mstore\n      returndatasize\n      0x00\n      0x20\n      dup5\n      add\n      returndatacopy\n      jump\t// out\n    tag_279:\n      0x60\n      swap1\n      jump\t// out\n    tag_37:\n      swap3\n      swap2\n      tag_81\n      swap5\n      swap3\n      tag_285\n      swap3\n      dup6\n      mstore\n      0x60\n      0x20\n      dup7\n      add\n      mstore\n      0x60\n      dup6\n      add\n      swap2\n      tag_32\n      jump\t// in\n    tag_285:\n      swap2\n      0x40\n      dup2\n      dup5\n      sub\n      swap2\n      add\n      mstore\n      tag_6\n      jump\t// in\n        /* \"src/Contract Architecture/Core Infrastructure/UserVault.sol\":2925:3020  function depositETH() external payable {... */\n    tag_38:\n        /* \"src/Contract Architecture/Core Infrastructure/UserVault.sol\":1021:7390  contract UserVault {... */\n      mload(0x40)\n        /* \"src/Contract Architecture/Core Infrastructure/UserVault.sol\":3003:3012  msg.value */\n      callvalue\n        /* \"src/Contract Architecture/Core Infrastructure/UserVault.sol\":1021:7390  contract UserVault {... */\n      dup2\n      mstore\n        /* \"src/Contract Architecture/Core Infrastructure/UserVault.sol\":2979:3013  ETHReceived(msg.sender, msg.value) */\n      0xbfe611b001dfcd411432f7bf0d79b82b4b2ee81511edac123a3403c357fb972a\n        /* \"src/Contract Architecture/Core Infrastructure/UserVault.sol\":1021:7390  contract UserVault {... */\n      0x20\n        /* \"src/Contract Architecture/Core Infrastructure/UserVault.sol\":2991:3001  msg.sender */\n      caller\n        /* \"src/Contract Architecture/Core Infrastructure/UserVault.sol\":2979:3013  ETHReceived(msg.sender, msg.value) */\n      swap3\n      log2\n        /* \"src/Contract Architecture/Core Infrastructure/UserVault.sol\":2925:3020  function depositETH() external payable {... */\n      jump\t// out\n        /* \"@openzeppelin/contracts/token/ERC20/utils/SafeERC20.sol\":1219:1379  function safeTransfer(IERC20 token, address to, uint256 value) internal {... */\n    tag_39:\n        /* \"src/Contract Architecture/Core Infrastructure/UserVault.sol\":1021:7390  contract UserVault {... */\n      mload(0x40)\n      shl(0xe0, 0xa9059cbb)\n        /* \"@openzeppelin/contracts/token/ERC20/utils/SafeERC20.sol\":1328:1371  abi.encodeCall(token.transfer, (to, value)) */\n      0x20\n      dup1\n      dup4\n      add\n      swap2\n      dup3\n      mstore\n      sub(shl(0xa0, 0x01), 0x01)\n        /* \"src/Contract Architecture/Core Infrastructure/UserVault.sol\":1021:7390  contract UserVault {... */\n      swap5\n      swap1\n      swap5\n      and\n        /* \"@openzeppelin/contracts/token/ERC20/utils/SafeERC20.sol\":1328:1371  abi.encodeCall(token.transfer, (to, value)) */\n      0x24\n      dup4\n      add\n        /* \"src/Contract Architecture/Core Infrastructure/UserVault.sol\":1021:7390  contract UserVault {... */\n      mstore\n      0x44\n      dup1\n      dup4\n      add\n      swap6\n      swap1\n      swap6\n      mstore\n        /* \"@openzeppelin/contracts/token/ERC20/utils/SafeERC20.sol\":1328:1371  abi.encodeCall(token.transfer, (to, value)) */\n      swap4\n      dup2\n      mstore\n        /* \"@openzeppelin/contracts/token/ERC20/utils/SafeERC20.sol\":1219:1379  function safeTransfer(IERC20 token, address to, uint256 value) internal {... */\n      swap1\n      swap3\n      0x00\n      swap2\n        /* \"@openzeppelin/contracts/token/ERC20/utils/SafeERC20.sol\":1328:1371  abi.encodeCall(token.transfer, (to, value)) */\n      tag_287\n        /* \"src/Contract Architecture/Core Infrastructure/UserVault.sol\":1021:7390  contract UserVault {... */\n      0x64\n      dup3\n        /* \"@openzeppelin/contracts/token/ERC20/utils/SafeERC20.sol\":1328:1371  abi.encodeCall(token.transfer, (to, value)) */\n      tag_26\n      jump\t// in\n    tag_287:\n        /* \"@openzeppelin/contracts/token/ERC20/utils/SafeERC20.sol\":8507:8928  assembly (\"memory-safe\") {... */\n      mload\n      swap1\n      dup3\n      dup6\n      gas\n      call\n      iszero\n      tag_29\n      jumpi\n      mload(0x00)\n      returndatasize\n        /* \"@openzeppelin/contracts/token/ERC20/utils/SafeERC20.sol\":8942:8957  returnSize == 0 */\n      tag_290\n      jumpi\n      pop\n      sub(shl(0xa0, 0x01), 0x01)\n        /* \"src/Contract Architecture/Core Infrastructure/UserVault.sol\":1021:7390  contract UserVault {... */\n      dup2\n      and\n        /* \"@openzeppelin/contracts/token/ERC20/utils/SafeERC20.sol\":8960:8986  address(token).code.length */\n      extcodesize\n        /* \"@openzeppelin/contracts/token/ERC20/utils/SafeERC20.sol\":8960:8991  address(token).code.length == 0 */\n      iszero\n        /* \"@openzeppelin/contracts/token/ERC20/utils/SafeERC20.sol\":8942:9010  returnSize == 0 ? address(token).code.length == 0 : returnValue != 1 */\n    tag_292:\n        /* \"@openzeppelin/contracts/token/ERC20/utils/SafeERC20.sol\":8938:9084  if (returnSize == 0 ? address(token).code.length == 0 : returnValue != 1) {... */\n      tag_293\n      jumpi\n        /* \"@openzeppelin/contracts/token/ERC20/utils/SafeERC20.sol\":1219:1379  function safeTransfer(IERC20 token, address to, uint256 value) internal {... */\n      pop\n      jump\t// out\n        /* \"@openzeppelin/contracts/token/ERC20/utils/SafeERC20.sol\":8938:9084  if (returnSize == 0 ? address(token).code.length == 0 : returnValue != 1) {... */\n    tag_293:\n      shl(0xe0, 0x5274afe7)\n      0x00\n        /* \"@openzeppelin/contracts/token/ERC20/utils/SafeERC20.sol\":9033:9073  SafeERC20FailedOperation(address(token)) */\n      swap1\n      dup2\n      mstore\n      sub(shl(0xa0, 0x01), 0x01)\n        /* \"src/Contract Architecture/Core Infrastructure/UserVault.sol\":1021:7390  contract UserVault {... */\n      swap2\n      swap1\n      swap2\n      and\n        /* \"@openzeppelin/contracts/token/ERC20/utils/SafeERC20.sol\":9033:9073  SafeERC20FailedOperation(address(token)) */\n      0x04\n        /* \"src/Contract Architecture/Core Infrastructure/UserVault.sol\":1021:7390  contract UserVault {... */\n      mstore\n        /* \"@openzeppelin/contracts/token/ERC20/utils/SafeERC20.sol\":1328:1371  abi.encodeCall(token.transfer, (to, value)) */\n      0x24\n      swap1\n        /* \"@openzeppelin/contracts/token/ERC20/utils/SafeERC20.sol\":9033:9073  SafeERC20FailedOperation(address(token)) */\n      revert\n        /* \"@openzeppelin/contracts/token/ERC20/utils/SafeERC20.sol\":8942:9010  returnSize == 0 ? address(token).code.length == 0 : returnValue != 1 */\n    tag_290:\n        /* \"@openzeppelin/contracts/token/ERC20/utils/SafeERC20.sol\":9009:9010  1 */\n      0x01\n        /* \"@openzeppelin/contracts/token/ERC20/utils/SafeERC20.sol\":8994:9010  returnValue != 1 */\n      eq\n      iszero\n        /* \"@openzeppelin/contracts/token/ERC20/utils/SafeERC20.sol\":8942:9010  returnSize == 0 ? address(token).code.length == 0 : returnValue != 1 */\n      jump(tag_292)\n\n    auxdata: 0xa2646970667358221220d58af94963049595cc8efedb194706c0886fd90349d12354461a450a7a544e6564736f6c634300081a0033\n}\n",
				"bytecode": {
					"linkReferences": {},
					"object": "60808060405234601557610c25908161001a8239f35b5f80fdfe60806040526004361015610022575b3615610018575f80fd5b610020610b32565b005b5f3560e01c8063103657e714610101578063392e53cd146100fc57806340c442de146100f757806344004cc1146100f25780634782f779146100ed57806354ba7696146100e857806368fec4da146100e357806384536017146100de5780638da5cb5b146100d95780639e5d4c49146100d4578063a8e5e4aa146100cf578063c4d66de8146100ca578063f32f1864146100c55763f6326fb30361000e57610993565b610935565b6108b0565b610810565b6106f7565b6106d0565b610654565b6105c0565b610576565b6104e1565b610446565b610323565b6102ff565b610181565b6001600160a01b0381160361011757565b5f80fd5b9181601f840112156101175782359167ffffffffffffffff8311610117576020838186019501011161011757565b805180835260209291819084018484015e5f828201840152601f01601f1916010190565b90602061017e928181520190610149565b90565b346101175760a03660031901126101175760043561019e81610106565b602435906101ab82610106565b6044356064356101ba81610106565b60843567ffffffffffffffff8111610117576101da90369060040161011b565b94909260018060a01b035f5416331415806102e8575b6102d95760405163095ea7b360e01b81526001600160a01b0390921660048301526024820152926020908490815f816044810103926001600160a01b03165af19283156102a7575f936102ac575b5061025d6040519485938493639e5d4c4960e01b855260048501610aa0565b038183305af180156102a757610281915f91610285575b506040519182918261016d565b0390f35b6102a191503d805f833e61029981836109ba565b810190610a1d565b5f610274565b6109f6565b6102cd9060203d6020116102d2575b6102c581836109ba565b8101906109e1565b61023e565b503d6102bb565b6330cd747160e01b5f5260045ffd5b50335f52600160205260ff60405f205416156101f0565b34610117575f36600319011261011757602060ff5f5460a01c166040519015158152f35b346101175760203660031901126101175760043561034081610106565b5f54906001600160a01b03821633036102d9576040516370a0823160e01b8152306004820152916001600160a01b039190911690602083602481855afa9283156102a7575f936103e9575b5082806103cf575b5f546040519182526001600160a01b03169083907fbfed55bdcd242e3dd0f60ddd7d1e87c67f61c34cd9527b3e6455d841b102536290602090a3005b6103e2916001600160a01b031683610b60565b5f82610393565b61040c91935060203d602011610413575b61040481836109ba565b810190610ac8565b915f61038b565b503d6103fa565b60609060031901126101175760043561043281610106565b9060243561043f81610106565b9060443590565b34610117576104543661041a565b5f549092906001600160a01b031633036102d9576001600160a01b031690811580156104d0575b6104c1576020816104ae857fbfed55bdcd242e3dd0f60ddd7d1e87c67f61c34cd9527b3e6455d841b10253629486610b60565b6040519485526001600160a01b031693a3005b63d92e233d60e01b5f5260045ffd5b506001600160a01b0381161561047b565b34610117576040366003190112610117576004356104fe81610106565b5f5460243591906001600160a01b031633036102d9576001600160a01b03169081156104c1575f80808084865af1610534610ad7565b50156105675760207f94b2de810873337ed265c5f8cf98c9cffefa06b8607f9a2f1fbaebdfbcfbef1c91604051908152a2005b6312171d8360e31b5f5260045ffd5b346101175760203660031901126101175760043561059381610106565b60018060a01b03165f526001602052602060ff60405f2054166040519015158152f35b8015150361011757565b34610117576040366003190112610117576004356105dd81610106565b602435906105ea826105b6565b5f546001600160a01b031633036102d9576001600160a01b03169081156104c15760207f19f4c310cf148369e5605e8f3538cee4d3495da0612c9a45c0b89105ed6fee4d91835f526001825260405f209015159060ff1981541660ff8316179055604051908152a2005b34610117575f366003190112610117575f546001600160a01b0316338190036102d95747908161068057005b5f80808481945af1610690610ad7565b5015610567575f546040519182526001600160a01b0316907f94b2de810873337ed265c5f8cf98c9cffefa06b8607f9a2f1fbaebdfbcfbef1c90602090a2005b34610117575f366003190112610117575f546040516001600160a01b039091168152602090f35b346101175760603660031901126101175760043561071481610106565b60243560443567ffffffffffffffff81116101175761073790369060040161011b565b92909160018060a01b035f5416331415806107f9575b6102d9576001600160a01b0382169182156107ea575f809160405187878237848189810185815203925af192610781610ad7565b93156107ce57610281947f335a1fecd5558554165c05171954925d0d97911ad1d259ef6bb18eb2c07a58aa916107bf86604051938493339785610b06565b0390a36040519182918261016d565b835184816107e5576312171d8360e31b5f5260045ffd5b602001fd5b63416aebb560e11b5f5260045ffd5b50335f52600160205260ff60405f2054161561074d565b346101175761081e3661041a565b5f549092906001600160a01b031633036102d9576001600160a01b0316918215801561089f575b6104c15760405163095ea7b360e01b81526001600160a01b03929092166004830152602482015290602090829060449082905f905af180156102a75761088757005b6100209060203d6020116102d2576102c581836109ba565b506001600160a01b03821615610845565b34610117576020366003190112610117576004356108cd81610106565b5f549060ff8260a01c16610927576001600160a01b03169081156104c1576001600160a81b0319168117600160a01b175f9081557f908408e307fc569b417f6cbec5d5a06f44a0a505ac0479b47d421a4b2fd6a1e69080a2005b62dc149f60e41b5f5260045ffd5b346101175760403660031901126101175760043561095281610106565b602435906001600160a01b031680156104c1576040519182527fe33e9822e3317b004d587136bab2627ea1ecfbba4eb79abddd0a56cfdd09c0e160203393a3005b5f36600319011261011757610020610b32565b634e487b7160e01b5f52604160045260245ffd5b90601f8019910116810190811067ffffffffffffffff8211176109dc57604052565b6109a6565b90816020910312610117575161017e816105b6565b6040513d5f823e3d90fd5b67ffffffffffffffff81116109dc57601f01601f191660200190565b6020818303126101175780519067ffffffffffffffff8211610117570181601f8201121561011757805190610a5182610a01565b92610a5f60405194856109ba565b8284526020838301011161011757815f9260208093018386015e8301015290565b908060209392818452848401375f828201840152601f01601f1916010190565b6001600160a01b0390911681525f602082015260606040820181905261017e93910191610a80565b90816020910312610117575190565b3d15610b01573d90610ae882610a01565b91610af660405193846109ba565b82523d5f602084013e565b606090565b929161017e9492610b24928552606060208601526060850191610a80565b916040818403910152610149565b6040513481527fbfe611b001dfcd411432f7bf0d79b82b4b2ee81511edac123a3403c357fb972a60203392a2565b60405163a9059cbb60e01b60208083019182526001600160a01b0394909416602483015260448083019590955293815290925f91610b9f6064826109ba565b519082855af1156109f6575f513d610be657506001600160a01b0381163b155b610bc65750565b635274afe760e01b5f9081526001600160a01b0391909116600452602490fd5b60011415610bbf56fea2646970667358221220d58af94963049595cc8efedb194706c0886fd90349d12354461a450a7a544e6564736f6c634300081a0033",
					"opcodes": "PUSH1 0x80 DUP1 PUSH1 0x40 MSTORE CALLVALUE PUSH1 0x15 JUMPI PUSH2 0xC25 SWAP1 DUP2 PUSH2 0x1A DUP3 CODECOPY RETURN JUMPDEST PUSH0 DUP1 REVERT INVALID PUSH1 0x80 PUSH1 0x40 MSTORE PUSH1 0x4 CALLDATASIZE LT ISZERO PUSH2 0x22 JUMPI JUMPDEST CALLDATASIZE ISZERO PUSH2 0x18 JUMPI PUSH0 DUP1 REVERT JUMPDEST PUSH2 0x20 PUSH2 0xB32 JUMP JUMPDEST STOP JUMPDEST PUSH0 CALLDATALOAD PUSH1 0xE0 SHR DUP1 PUSH4 0x103657E7 EQ PUSH2 0x101 JUMPI DUP1 PUSH4 0x392E53CD EQ PUSH2 0xFC JUMPI DUP1 PUSH4 0x40C442DE EQ PUSH2 0xF7 JUMPI DUP1 PUSH4 0x44004CC1 EQ PUSH2 0xF2 JUMPI DUP1 PUSH4 0x4782F779 EQ PUSH2 0xED JUMPI DUP1 PUSH4 0x54BA7696 EQ PUSH2 0xE8 JUMPI DUP1 PUSH4 0x68FEC4DA EQ PUSH2 0xE3 JUMPI DUP1 PUSH4 0x84536017 EQ PUSH2 0xDE JUMPI DUP1 PUSH4 0x8DA5CB5B EQ PUSH2 0xD9 JUMPI DUP1 PUSH4 0x9E5D4C49 EQ PUSH2 0xD4 JUMPI DUP1 PUSH4 0xA8E5E4AA EQ PUSH2 0xCF JUMPI DUP1 PUSH4 0xC4D66DE8 EQ PUSH2 0xCA JUMPI DUP1 PUSH4 0xF32F1864 EQ PUSH2 0xC5 JUMPI PUSH4 0xF6326FB3 SUB PUSH2 0xE JUMPI PUSH2 0x993 JUMP JUMPDEST PUSH2 0x935 JUMP JUMPDEST PUSH2 0x8B0 JUMP JUMPDEST PUSH2 0x810 JUMP JUMPDEST PUSH2 0x6F7 JUMP JUMPDEST PUSH2 0x6D0 JUMP JUMPDEST PUSH2 0x654 JUMP JUMPDEST PUSH2 0x5C0 JUMP JUMPDEST PUSH2 0x576 JUMP JUMPDEST PUSH2 0x4E1 JUMP JUMPDEST PUSH2 0x446 JUMP JUMPDEST PUSH2 0x323 JUMP JUMPDEST PUSH2 0x2FF JUMP JUMPDEST PUSH2 0x181 JUMP JUMPDEST PUSH1 0x1 PUSH1 0x1 PUSH1 0xA0 SHL SUB DUP2 AND SUB PUSH2 0x117 JUMPI JUMP JUMPDEST PUSH0 DUP1 REVERT JUMPDEST SWAP2 DUP2 PUSH1 0x1F DUP5 ADD SLT ISZERO PUSH2 0x117 JUMPI DUP3 CALLDATALOAD SWAP2 PUSH8 0xFFFFFFFFFFFFFFFF DUP4 GT PUSH2 0x117 JUMPI PUSH1 0x20 DUP4 DUP2 DUP7 ADD SWAP6 ADD ADD GT PUSH2 0x117 JUMPI JUMP JUMPDEST DUP1 MLOAD DUP1 DUP4 MSTORE PUSH1 0x20 SWAP3 SWAP2 DUP2 SWAP1 DUP5 ADD DUP5 DUP5 ADD MCOPY PUSH0 DUP3 DUP3 ADD DUP5 ADD MSTORE PUSH1 0x1F ADD PUSH1 0x1F NOT AND ADD ADD SWAP1 JUMP JUMPDEST SWAP1 PUSH1 0x20 PUSH2 0x17E SWAP3 DUP2 DUP2 MSTORE ADD SWAP1 PUSH2 0x149 JUMP JUMPDEST SWAP1 JUMP JUMPDEST CALLVALUE PUSH2 0x117 JUMPI PUSH1 0xA0 CALLDATASIZE PUSH1 0x3 NOT ADD SLT PUSH2 0x117 JUMPI PUSH1 0x4 CALLDATALOAD PUSH2 0x19E DUP2 PUSH2 0x106 JUMP JUMPDEST PUSH1 0x24 CALLDATALOAD SWAP1 PUSH2 0x1AB DUP3 PUSH2 0x106 JUMP JUMPDEST PUSH1 0x44 CALLDATALOAD PUSH1 0x64 CALLDATALOAD PUSH2 0x1BA DUP2 PUSH2 0x106 JUMP JUMPDEST PUSH1 0x84 CALLDATALOAD PUSH8 0xFFFFFFFFFFFFFFFF DUP2 GT PUSH2 0x117 JUMPI PUSH2 0x1DA SWAP1 CALLDATASIZE SWAP1 PUSH1 0x4 ADD PUSH2 0x11B JUMP JUMPDEST SWAP5 SWAP1 SWAP3 PUSH1 0x1 DUP1 PUSH1 0xA0 SHL SUB PUSH0 SLOAD AND CALLER EQ ISZERO DUP1 PUSH2 0x2E8 JUMPI JUMPDEST PUSH2 0x2D9 JUMPI PUSH1 0x40 MLOAD PUSH4 0x95EA7B3 PUSH1 0xE0 SHL DUP2 MSTORE PUSH1 0x1 PUSH1 0x1 PUSH1 0xA0 SHL SUB SWAP1 SWAP3 AND PUSH1 0x4 DUP4 ADD MSTORE PUSH1 0x24 DUP3 ADD MSTORE SWAP3 PUSH1 0x20 SWAP1 DUP5 SWAP1 DUP2 PUSH0 DUP2 PUSH1 0x44 DUP2 ADD SUB SWAP3 PUSH1 0x1 PUSH1 0x1 PUSH1 0xA0 SHL SUB AND GAS CALL SWAP3 DUP4 ISZERO PUSH2 0x2A7 JUMPI PUSH0 SWAP4 PUSH2 0x2AC JUMPI JUMPDEST POP PUSH2 0x25D PUSH1 0x40 MLOAD SWAP5 DUP6 SWAP4 DUP5 SWAP4 PUSH4 0x9E5D4C49 PUSH1 0xE0 SHL DUP6 MSTORE PUSH1 0x4 DUP6 ADD PUSH2 0xAA0 JUMP JUMPDEST SUB DUP2 DUP4 ADDRESS GAS CALL DUP1 ISZERO PUSH2 0x2A7 JUMPI PUSH2 0x281 SWAP2 PUSH0 SWAP2 PUSH2 0x285 JUMPI JUMPDEST POP PUSH1 0x40 MLOAD SWAP2 DUP3 SWAP2 DUP3 PUSH2 0x16D JUMP JUMPDEST SUB SWAP1 RETURN JUMPDEST PUSH2 0x2A1 SWAP2 POP RETURNDATASIZE DUP1 PUSH0 DUP4 RETURNDATACOPY PUSH2 0x299 DUP2 DUP4 PUSH2 0x9BA JUMP JUMPDEST DUP2 ADD SWAP1 PUSH2 0xA1D JUMP JUMPDEST PUSH0 PUSH2 0x274 JUMP JUMPDEST PUSH2 0x9F6 JUMP JUMPDEST PUSH2 0x2CD SWAP1 PUSH1 0x20 RETURNDATASIZE PUSH1 0x20 GT PUSH2 0x2D2 JUMPI JUMPDEST PUSH2 0x2C5 DUP2 DUP4 PUSH2 0x9BA JUMP JUMPDEST DUP2 ADD SWAP1 PUSH2 0x9E1 JUMP JUMPDEST PUSH2 0x23E JUMP JUMPDEST POP RETURNDATASIZE PUSH2 0x2BB JUMP JUMPDEST PUSH4 0x30CD7471 PUSH1 0xE0 SHL PUSH0 MSTORE PUSH1 0x4 PUSH0 REVERT JUMPDEST POP CALLER PUSH0 MSTORE PUSH1 0x1 PUSH1 0x20 MSTORE PUSH1 0xFF PUSH1 0x40 PUSH0 KECCAK256 SLOAD AND ISZERO PUSH2 0x1F0 JUMP JUMPDEST CALLVALUE PUSH2 0x117 JUMPI PUSH0 CALLDATASIZE PUSH1 0x3 NOT ADD SLT PUSH2 0x117 JUMPI PUSH1 0x20 PUSH1 0xFF PUSH0 SLOAD PUSH1 0xA0 SHR AND PUSH1 0x40 MLOAD SWAP1 ISZERO ISZERO DUP2 MSTORE RETURN JUMPDEST CALLVALUE PUSH2 0x117 JUMPI PUSH1 0x20 CALLDATASIZE PUSH1 0x3 NOT ADD SLT PUSH2 0x117 JUMPI PUSH1 0x4 CALLDATALOAD PUSH2 0x340 DUP2 PUSH2 0x106 JUMP JUMPDEST PUSH0 SLOAD SWAP1 PUSH1 0x1 PUSH1 0x1 PUSH1 0xA0 SHL SUB DUP3 AND CALLER SUB PUSH2 0x2D9 JUMPI PUSH1 0x40 MLOAD PUSH4 0x70A08231 PUSH1 0xE0 SHL DUP2 MSTORE ADDRESS PUSH1 0x4 DUP3 ADD MSTORE SWAP2 PUSH1 0x1 PUSH1 0x1 PUSH1 0xA0 SHL SUB SWAP2 SWAP1 SWAP2 AND SWAP1 PUSH1 0x20 DUP4 PUSH1 0x24 DUP2 DUP6 GAS STATICCALL SWAP3 DUP4 ISZERO PUSH2 0x2A7 JUMPI PUSH0 SWAP4 PUSH2 0x3E9 JUMPI JUMPDEST POP DUP3 DUP1 PUSH2 0x3CF JUMPI JUMPDEST PUSH0 SLOAD PUSH1 0x40 MLOAD SWAP2 DUP3 MSTORE PUSH1 0x1 PUSH1 0x1 PUSH1 0xA0 SHL SUB AND SWAP1 DUP4 SWAP1 PUSH32 0xBFED55BDCD242E3DD0F60DDD7D1E87C67F61C34CD9527B3E6455D841B1025362 SWAP1 PUSH1 0x20 SWAP1 LOG3 STOP JUMPDEST PUSH2 0x3E2 SWAP2 PUSH1 0x1 PUSH1 0x1 PUSH1 0xA0 SHL SUB AND DUP4 PUSH2 0xB60 JUMP JUMPDEST PUSH0 DUP3 PUSH2 0x393 JUMP JUMPDEST PUSH2 0x40C SWAP2 SWAP4 POP PUSH1 0x20 RETURNDATASIZE PUSH1 0x20 GT PUSH2 0x413 JUMPI JUMPDEST PUSH2 0x404 DUP2 DUP4 PUSH2 0x9BA JUMP JUMPDEST DUP2 ADD SWAP1 PUSH2 0xAC8 JUMP JUMPDEST SWAP2 PUSH0 PUSH2 0x38B JUMP JUMPDEST POP RETURNDATASIZE PUSH2 0x3FA JUMP JUMPDEST PUSH1 0x60 SWAP1 PUSH1 0x3 NOT ADD SLT PUSH2 0x117 JUMPI PUSH1 0x4 CALLDATALOAD PUSH2 0x432 DUP2 PUSH2 0x106 JUMP JUMPDEST SWAP1 PUSH1 0x24 CALLDATALOAD PUSH2 0x43F DUP2 PUSH2 0x106 JUMP JUMPDEST SWAP1 PUSH1 0x44 CALLDATALOAD SWAP1 JUMP JUMPDEST CALLVALUE PUSH2 0x117 JUMPI PUSH2 0x454 CALLDATASIZE PUSH2 0x41A JUMP JUMPDEST PUSH0 SLOAD SWAP1 SWAP3 SWAP1 PUSH1 0x1 PUSH1 0x1 PUSH1 0xA0 SHL SUB AND CALLER SUB PUSH2 0x2D9 JUMPI PUSH1 0x1 PUSH1 0x1 PUSH1 0xA0 SHL SUB AND SWAP1 DUP2 ISZERO DUP1 ISZERO PUSH2 0x4D0 JUMPI JUMPDEST PUSH2 0x4C1 JUMPI PUSH1 0x20 DUP2 PUSH2 0x4AE DUP6 PUSH32 0xBFED55BDCD242E3DD0F60DDD7D1E87C67F61C34CD9527B3E6455D841B1025362 SWAP5 DUP7 PUSH2 0xB60 JUMP JUMPDEST PUSH1 0x40 MLOAD SWAP5 DUP6 MSTORE PUSH1 0x1 PUSH1 0x1 PUSH1 0xA0 SHL SUB AND SWAP4 LOG3 STOP JUMPDEST PUSH4 0xD92E233D PUSH1 0xE0 SHL PUSH0 MSTORE PUSH1 0x4 PUSH0 REVERT JUMPDEST POP PUSH1 0x1 PUSH1 0x1 PUSH1 0xA0 SHL SUB DUP2 AND ISZERO PUSH2 0x47B JUMP JUMPDEST CALLVALUE PUSH2 0x117 JUMPI PUSH1 0x40 CALLDATASIZE PUSH1 0x3 NOT ADD SLT PUSH2 0x117 JUMPI PUSH1 0x4 CALLDATALOAD PUSH2 0x4FE DUP2 PUSH2 0x106 JUMP JUMPDEST PUSH0 SLOAD PUSH1 0x24 CALLDATALOAD SWAP2 SWAP1 PUSH1 0x1 PUSH1 0x1 PUSH1 0xA0 SHL SUB AND CALLER SUB PUSH2 0x2D9 JUMPI PUSH1 0x1 PUSH1 0x1 PUSH1 0xA0 SHL SUB AND SWAP1 DUP2 ISZERO PUSH2 0x4C1 JUMPI PUSH0 DUP1 DUP1 DUP1 DUP5 DUP7 GAS CALL PUSH2 0x534 PUSH2 0xAD7 JUMP JUMPDEST POP ISZERO PUSH2 0x567 JUMPI PUSH1 0x20 PUSH32 0x94B2DE810873337ED265C5F8CF98C9CFFEFA06B8607F9A2F1FBAEBDFBCFBEF1C SWAP2 PUSH1 0x40 MLOAD SWAP1 DUP2 MSTORE LOG2 STOP JUMPDEST PUSH4 0x12171D83 PUSH1 0xE3 SHL PUSH0 MSTORE PUSH1 0x4 PUSH0 REVERT JUMPDEST CALLVALUE PUSH2 0x117 JUMPI PUSH1 0x20 CALLDATASIZE PUSH1 0x3 NOT ADD SLT PUSH2 0x117 JUMPI PUSH1 0x4 CALLDATALOAD PUSH2 0x593 DUP2 PUSH2 0x106 JUMP JUMPDEST PUSH1 0x1 DUP1 PUSH1 0xA0 SHL SUB AND PUSH0 MSTORE PUSH1 0x1 PUSH1 0x20 MSTORE PUSH1 0x20 PUSH1 0xFF PUSH1 0x40 PUSH0 KECCAK256 SLOAD AND PUSH1 0x40 MLOAD SWAP1 ISZERO ISZERO DUP2 MSTORE RETURN JUMPDEST DUP1 ISZERO ISZERO SUB PUSH2 0x117 JUMPI JUMP JUMPDEST CALLVALUE PUSH2 0x117 JUMPI PUSH1 0x40 CALLDATASIZE PUSH1 0x3 NOT ADD SLT PUSH2 0x117 JUMPI PUSH1 0x4 CALLDATALOAD PUSH2 0x5DD DUP2 PUSH2 0x106 JUMP JUMPDEST PUSH1 0x24 CALLDATALOAD SWAP1 PUSH2 0x5EA DUP3 PUSH2 0x5B6 JUMP JUMPDEST PUSH0 SLOAD PUSH1 0x1 PUSH1 0x1 PUSH1 0xA0 SHL SUB AND CALLER SUB PUSH2 0x2D9 JUMPI PUSH1 0x1 PUSH1 0x1 PUSH1 0xA0 SHL SUB AND SWAP1 DUP2 ISZERO PUSH2 0x4C1 JUMPI PUSH1 0x20 PUSH32 0x19F4C310CF148369E5605E8F3538CEE4D3495DA0612C9A45C0B89105ED6FEE4D SWAP2 DUP4 PUSH0 MSTORE PUSH1 0x1 DUP3 MSTORE PUSH1 0x40 PUSH0 KECCAK256 SWAP1 ISZERO ISZERO SWAP1 PUSH1 0xFF NOT DUP2 SLOAD AND PUSH1 0xFF DUP4 AND OR SWAP1 SSTORE PUSH1 0x40 MLOAD SWAP1 DUP2 MSTORE LOG2 STOP JUMPDEST CALLVALUE PUSH2 0x117 JUMPI PUSH0 CALLDATASIZE PUSH1 0x3 NOT ADD SLT PUSH2 0x117 JUMPI PUSH0 SLOAD PUSH1 0x1 PUSH1 0x1 PUSH1 0xA0 SHL SUB AND CALLER DUP2 SWAP1 SUB PUSH2 0x2D9 JUMPI SELFBALANCE SWAP1 DUP2 PUSH2 0x680 JUMPI STOP JUMPDEST PUSH0 DUP1 DUP1 DUP5 DUP2 SWAP5 GAS CALL PUSH2 0x690 PUSH2 0xAD7 JUMP JUMPDEST POP ISZERO PUSH2 0x567 JUMPI PUSH0 SLOAD PUSH1 0x40 MLOAD SWAP2 DUP3 MSTORE PUSH1 0x1 PUSH1 0x1 PUSH1 0xA0 SHL SUB AND SWAP1 PUSH32 0x94B2DE810873337ED265C5F8CF98C9CFFEFA06B8607F9A2F1FBAEBDFBCFBEF1C SWAP1 PUSH1 0x20 SWAP1 LOG2 STOP JUMPDEST CALLVALUE PUSH2 0x117 JUMPI PUSH0 CALLDATASIZE PUSH1 0x3 NOT ADD SLT PUSH2 0x117 JUMPI PUSH0 SLOAD PUSH1 0x40 MLOAD PUSH1 0x1 PUSH1 0x1 PUSH1 0xA0 SHL SUB SWAP1 SWAP2 AND DUP2 MSTORE PUSH1 0x20 SWAP1 RETURN JUMPDEST CALLVALUE PUSH2 0x117 JUMPI PUSH1 0x60 CALLDATASIZE PUSH1 0x3 NOT ADD SLT PUSH2 0x117 JUMPI PUSH1 0x4 CALLDATALOAD PUSH2 0x714 DUP2 PUSH2 0x106 JUMP JUMPDEST PUSH1 0x24 CALLDATALOAD PUSH1 0x44 CALLDATALOAD PUSH8 0xFFFFFFFFFFFFFFFF DUP2 GT PUSH2 0x117 JUMPI PUSH2 0x737 SWAP1 CALLDATASIZE SWAP1 PUSH1 0x4 ADD PUSH2 0x11B JUMP JUMPDEST SWAP3 SWAP1 SWAP2 PUSH1 0x1 DUP1 PUSH1 0xA0 SHL SUB PUSH0 SLOAD AND CALLER EQ ISZERO DUP1 PUSH2 0x7F9 JUMPI JUMPDEST PUSH2 0x2D9 JUMPI PUSH1 0x1 PUSH1 0x1 PUSH1 0xA0 SHL SUB DUP3 AND SWAP2 DUP3 ISZERO PUSH2 0x7EA JUMPI PUSH0 DUP1 SWAP2 PUSH1 0x40 MLOAD DUP8 DUP8 DUP3 CALLDATACOPY DUP5 DUP2 DUP10 DUP2 ADD DUP6 DUP2 MSTORE SUB SWAP3 GAS CALL SWAP3 PUSH2 0x781 PUSH2 0xAD7 JUMP JUMPDEST SWAP4 ISZERO PUSH2 0x7CE JUMPI PUSH2 0x281 SWAP5 PUSH32 0x335A1FECD5558554165C05171954925D0D97911AD1D259EF6BB18EB2C07A58AA SWAP2 PUSH2 0x7BF DUP7 PUSH1 0x40 MLOAD SWAP4 DUP5 SWAP4 CALLER SWAP8 DUP6 PUSH2 0xB06 JUMP JUMPDEST SUB SWAP1 LOG3 PUSH1 0x40 MLOAD SWAP2 DUP3 SWAP2 DUP3 PUSH2 0x16D JUMP JUMPDEST DUP4 MLOAD DUP5 DUP2 PUSH2 0x7E5 JUMPI PUSH4 0x12171D83 PUSH1 0xE3 SHL PUSH0 MSTORE PUSH1 0x4 PUSH0 REVERT JUMPDEST PUSH1 0x20 ADD REVERT JUMPDEST PUSH4 0x416AEBB5 PUSH1 0xE1 SHL PUSH0 MSTORE PUSH1 0x4 PUSH0 REVERT JUMPDEST POP CALLER PUSH0 MSTORE PUSH1 0x1 PUSH1 0x20 MSTORE PUSH1 0xFF PUSH1 0x40 PUSH0 KECCAK256 SLOAD AND ISZERO PUSH2 0x74D JUMP JUMPDEST CALLVALUE PUSH2 0x117 JUMPI PUSH2 0x81E CALLDATASIZE PUSH2 0x41A JUMP JUMPDEST PUSH0 SLOAD SWAP1 SWAP3 SWAP1 PUSH1 0x1 PUSH1 0x1 PUSH1 0xA0 SHL SUB AND CALLER SUB PUSH2 0x2D9 JUMPI PUSH1 0x1 PUSH1 0x1 PUSH1 0xA0 SHL SUB AND SWAP2 DUP3 ISZERO DUP1 ISZERO PUSH2 0x89F JUMPI JUMPDEST PUSH2 0x4C1 JUMPI PUSH1 0x40 MLOAD PUSH4 0x95EA7B3 PUSH1 0xE0 SHL DUP2 MSTORE PUSH1 0x1 PUSH1 0x1 PUSH1 0xA0 SHL SUB SWAP3 SWAP1 SWAP3 AND PUSH1 0x4 DUP4 ADD MSTORE PUSH1 0x24 DUP3 ADD MSTORE SWAP1 PUSH1 0x20 SWAP1 DUP3 SWAP1 PUSH1 0x44 SWAP1 DUP3 SWAP1 PUSH0 SWAP1 GAS CALL DUP1 ISZERO PUSH2 0x2A7 JUMPI PUSH2 0x887 JUMPI STOP JUMPDEST PUSH2 0x20 SWAP1 PUSH1 0x20 RETURNDATASIZE PUSH1 0x20 GT PUSH2 0x2D2 JUMPI PUSH2 0x2C5 DUP2 DUP4 PUSH2 0x9BA JUMP JUMPDEST POP PUSH1 0x1 PUSH1 0x1 PUSH1 0xA0 SHL SUB DUP3 AND ISZERO PUSH2 0x845 JUMP JUMPDEST CALLVALUE PUSH2 0x117 JUMPI PUSH1 0x20 CALLDATASIZE PUSH1 0x3 NOT ADD SLT PUSH2 0x117 JUMPI PUSH1 0x4 CALLDATALOAD PUSH2 0x8CD DUP2 PUSH2 0x106 JUMP JUMPDEST PUSH0 SLOAD SWAP1 PUSH1 0xFF DUP3 PUSH1 0xA0 SHR AND PUSH2 0x927 JUMPI PUSH1 0x1 PUSH1 0x1 PUSH1 0xA0 SHL SUB AND SWAP1 DUP2 ISZERO PUSH2 0x4C1 JUMPI PUSH1 0x1 PUSH1 0x1 PUSH1 0xA8 SHL SUB NOT AND DUP2 OR PUSH1 0x1 PUSH1 0xA0 SHL OR PUSH0 SWAP1 DUP2 SSTORE PUSH32 0x908408E307FC569B417F6CBEC5D5A06F44A0A505AC0479B47D421A4B2FD6A1E6 SWAP1 DUP1 LOG2 STOP JUMPDEST PUSH3 0xDC149F PUSH1 0xE4 SHL PUSH0 MSTORE PUSH1 0x4 PUSH0 REVERT JUMPDEST CALLVALUE PUSH2 0x117 JUMPI PUSH1 0x40 CALLDATASIZE PUSH1 0x3 NOT ADD SLT PUSH2 0x117 JUMPI PUSH1 0x4 CALLDATALOAD PUSH2 0x952 DUP2 PUSH2 0x106 JUMP JUMPDEST PUSH1 0x24 CALLDATALOAD SWAP1 PUSH1 0x1 PUSH1 0x1 PUSH1 0xA0 SHL SUB AND DUP1 ISZERO PUSH2 0x4C1 JUMPI PUSH1 0x40 MLOAD SWAP2 DUP3 MSTORE PUSH32 0xE33E9822E3317B004D587136BAB2627EA1ECFBBA4EB79ABDDD0A56CFDD09C0E1 PUSH1 0x20 CALLER SWAP4 LOG3 STOP JUMPDEST PUSH0 CALLDATASIZE PUSH1 0x3 NOT ADD SLT PUSH2 0x117 JUMPI PUSH2 0x20 PUSH2 0xB32 JUMP JUMPDEST PUSH4 0x4E487B71 PUSH1 0xE0 SHL PUSH0 MSTORE PUSH1 0x41 PUSH1 0x4 MSTORE PUSH1 0x24 PUSH0 REVERT JUMPDEST SWAP1 PUSH1 0x1F DUP1 NOT SWAP2 ADD AND DUP2 ADD SWAP1 DUP2 LT PUSH8 0xFFFFFFFFFFFFFFFF DUP3 GT OR PUSH2 0x9DC JUMPI PUSH1 0x40 MSTORE JUMP JUMPDEST PUSH2 0x9A6 JUMP JUMPDEST SWAP1 DUP2 PUSH1 0x20 SWAP2 SUB SLT PUSH2 0x117 JUMPI MLOAD PUSH2 0x17E DUP2 PUSH2 0x5B6 JUMP JUMPDEST PUSH1 0x40 MLOAD RETURNDATASIZE PUSH0 DUP3 RETURNDATACOPY RETURNDATASIZE SWAP1 REVERT JUMPDEST PUSH8 0xFFFFFFFFFFFFFFFF DUP2 GT PUSH2 0x9DC JUMPI PUSH1 0x1F ADD PUSH1 0x1F NOT AND PUSH1 0x20 ADD SWAP1 JUMP JUMPDEST PUSH1 0x20 DUP2 DUP4 SUB SLT PUSH2 0x117 JUMPI DUP1 MLOAD SWAP1 PUSH8 0xFFFFFFFFFFFFFFFF DUP3 GT PUSH2 0x117 JUMPI ADD DUP2 PUSH1 0x1F DUP3 ADD SLT ISZERO PUSH2 0x117 JUMPI DUP1 MLOAD SWAP1 PUSH2 0xA51 DUP3 PUSH2 0xA01 JUMP JUMPDEST SWAP3 PUSH2 0xA5F PUSH1 0x40 MLOAD SWAP5 DUP6 PUSH2 0x9BA JUMP JUMPDEST DUP3 DUP5 MSTORE PUSH1 0x20 DUP4 DUP4 ADD ADD GT PUSH2 0x117 JUMPI DUP2 PUSH0 SWAP3 PUSH1 0x20 DUP1 SWAP4 ADD DUP4 DUP7 ADD MCOPY DUP4 ADD ADD MSTORE SWAP1 JUMP JUMPDEST SWAP1 DUP1 PUSH1 0x20 SWAP4 SWAP3 DUP2 DUP5 MSTORE DUP5 DUP5 ADD CALLDATACOPY PUSH0 DUP3 DUP3 ADD DUP5 ADD MSTORE PUSH1 0x1F ADD PUSH1 0x1F NOT AND ADD ADD SWAP1 JUMP JUMPDEST PUSH1 0x1 PUSH1 0x1 PUSH1 0xA0 SHL SUB SWAP1 SWAP2 AND DUP2 MSTORE PUSH0 PUSH1 0x20 DUP3 ADD MSTORE PUSH1 0x60 PUSH1 0x40 DUP3 ADD DUP2 SWAP1 MSTORE PUSH2 0x17E SWAP4 SWAP2 ADD SWAP2 PUSH2 0xA80 JUMP JUMPDEST SWAP1 DUP2 PUSH1 0x20 SWAP2 SUB SLT PUSH2 0x117 JUMPI MLOAD SWAP1 JUMP JUMPDEST RETURNDATASIZE ISZERO PUSH2 0xB01 JUMPI RETURNDATASIZE SWAP1 PUSH2 0xAE8 DUP3 PUSH2 0xA01 JUMP JUMPDEST SWAP2 PUSH2 0xAF6 PUSH1 0x40 MLOAD SWAP4 DUP5 PUSH2 0x9BA JUMP JUMPDEST DUP3 MSTORE RETURNDATASIZE PUSH0 PUSH1 0x20 DUP5 ADD RETURNDATACOPY JUMP JUMPDEST PUSH1 0x60 SWAP1 JUMP JUMPDEST SWAP3 SWAP2 PUSH2 0x17E SWAP5 SWAP3 PUSH2 0xB24 SWAP3 DUP6 MSTORE PUSH1 0x60 PUSH1 0x20 DUP7 ADD MSTORE PUSH1 0x60 DUP6 ADD SWAP2 PUSH2 0xA80 JUMP JUMPDEST SWAP2 PUSH1 0x40 DUP2 DUP5 SUB SWAP2 ADD MSTORE PUSH2 0x149 JUMP JUMPDEST PUSH1 0x40 MLOAD CALLVALUE DUP2 MSTORE PUSH32 0xBFE611B001DFCD411432F7BF0D79B82B4B2EE81511EDAC123A3403C357FB972A PUSH1 0x20 CALLER SWAP3 LOG2 JUMP JUMPDEST PUSH1 0x40 MLOAD PUSH4 0xA9059CBB PUSH1 0xE0 SHL PUSH1 0x20 DUP1 DUP4 ADD SWAP2 DUP3 MSTORE PUSH1 0x1 PUSH1 0x1 PUSH1 0xA0 SHL SUB SWAP5 SWAP1 SWAP5 AND PUSH1 0x24 DUP4 ADD MSTORE PUSH1 0x44 DUP1 DUP4 ADD SWAP6 SWAP1 SWAP6 MSTORE SWAP4 DUP2 MSTORE SWAP1 SWAP3 PUSH0 SWAP2 PUSH2 0xB9F PUSH1 0x64 DUP3 PUSH2 0x9BA JUMP JUMPDEST MLOAD SWAP1 DUP3 DUP6 GAS CALL ISZERO PUSH2 0x9F6 JUMPI PUSH0 MLOAD RETURNDATASIZE PUSH2 0xBE6 JUMPI POP PUSH1 0x1 PUSH1 0x1 PUSH1 0xA0 SHL SUB DUP2 AND EXTCODESIZE ISZERO JUMPDEST PUSH2 0xBC6 JUMPI POP JUMP JUMPDEST PUSH4 0x5274AFE7 PUSH1 0xE0 SHL PUSH0 SWAP1 DUP2 MSTORE PUSH1 0x1 PUSH1 0x1 PUSH1 0xA0 SHL SUB SWAP2 SWAP1 SWAP2 AND PUSH1 0x4 MSTORE PUSH1 0x24 SWAP1 REVERT JUMPDEST PUSH1 0x1 EQ ISZERO PUSH2 0xBBF JUMP INVALID LOG2 PUSH5 0x6970667358 0x22 SLT KECCAK256 0xD5 DUP11 0xF9 BLOBHASH PUSH4 0x49595CC DUP15 INVALID 0xDB NOT SELFBALANCE MOD 0xC0 DUP9 PUSH16 0xD90349D12354461A450A7A544E656473 PUSH16 0x6C634300081A00330000000000000000 "
				},
				"gasEstimates": {
					"creation": {
						"codeDepositCost": "621800",
						"executionCost": "665",
						"totalCost": "622465"
					},
					"external": {
						"approveAndCall(address,address,uint256,address,bytes)": "infinite",
						"approveERC20(address,address,uint256)": "infinite",
						"depositETH()": "1836",
						"emergencyWithdrawERC20(address)": "infinite",
						"emergencyWithdrawETH()": "infinite",
						"executeCall(address,uint256,bytes)": "infinite",
						"executorWhitelist(address)": "2529",
						"initialize(address)": "25900",
						"isInitialized()": "2299",
						"notifyERC20Deposit(address,uint256)": "2302",
						"owner()": "2459",
						"setExecutorAllowed(address,bool)": "28289",
						"withdrawERC20(address,address,uint256)": "infinite",
						"withdrawETH(address,uint256)": "infinite"
					}
				},
				"methodIdentifiers": {
					"approveAndCall(address,address,uint256,address,bytes)": "103657e7",
					"approveERC20(address,address,uint256)": "a8e5e4aa",
					"depositETH()": "f6326fb3",
					"emergencyWithdrawERC20(address)": "40c442de",
					"emergencyWithdrawETH()": "84536017",
					"executeCall(address,uint256,bytes)": "9e5d4c49",
					"executorWhitelist(address)": "54ba7696",
					"initialize(address)": "c4d66de8",
					"isInitialized()": "392e53cd",
					"notifyERC20Deposit(address,uint256)": "f32f1864",
					"owner()": "8da5cb5b",
					"setExecutorAllowed(address,bool)": "68fec4da",
					"withdrawERC20(address,address,uint256)": "44004cc1",
					"withdrawETH(address,uint256)": "4782f779"
				}
			},
			"storageLayout": {
				"storage": [
					{
						"astId": 669,
						"contract": "src/Contract Architecture/Core Infrastructure/UserVault.sol:UserVault",
						"label": "_owner",
						"offset": 0,
						"slot": "0",
						"type": "t_address"
					},
					{
						"astId": 672,
						"contract": "src/Contract Architecture/Core Infrastructure/UserVault.sol:UserVault",
						"label": "_initialized",
						"offset": 20,
						"slot": "0",
						"type": "t_bool"
					},
					{
						"astId": 677,
						"contract": "src/Contract Architecture/Core Infrastructure/UserVault.sol:UserVault",
						"label": "executorWhitelist",
						"offset": 0,
						"slot": "1",
						"type": "t_mapping(t_address,t_bool)"
					}
				],
				"types": {
					"t_address": {
						"encoding": "inplace",
						"label": "address",
						"numberOfBytes": "20"
					},
					"t_bool": {
						"encoding": "inplace",
						"label": "bool",
						"numberOfBytes": "1"
					},
					"t_mapping(t_address,t_bool)": {
						"encoding": "mapping",
						"key": "t_address",
						"label": "mapping(address => bool)",
						"numberOfBytes": "32",
						"value": "t_bool"
					}
				}
			},
			"userdoc": {
				"errors": {
					"AlreadyInitialized()": [
						{
							"notice": "Basic errors (cheaper than revert strings)"
						}
					]
				},
				"events": {
					"Initialized(address)": {
						"notice": "========== EVENTS =========="
					}
				},
				"kind": "user",
				"methods": {
					"approveAndCall(address,address,uint256,address,bytes)": {
						"notice": "========== HELPERS ========== Approve then call helper (useful for DEX routing patterns)"
					},
					"approveERC20(address,address,uint256)": {
						"notice": "Owner can approve a spender for ERC20"
					},
					"depositETH()": {
						"notice": "Convenience deposit function (no-op besides event)"
					},
					"emergencyWithdrawERC20(address)": {
						"notice": "========== EMERGENCY ========== Emergency withdraw all ETH and tokens to owner (owner-only)"
					},
					"executeCall(address,uint256,bytes)": {
						"notice": "Execute arbitrary call from the vault."
					},
					"executorWhitelist(address)": {
						"notice": "Optional: an address allowed to call executeCall on behalf of the owner (e.g., ActionExecutor)"
					},
					"initialize(address)": {
						"notice": "========== INITIALIZER =========="
					},
					"isInitialized()": {
						"notice": "========== VIEW HELPERS =========="
					},
					"notifyERC20Deposit(address,uint256)": {
						"notice": "Called by user (or any address) that transferred ERC20 tokens to vault via `transfer` Use only to emit an indexed event for offchain indexing systems."
					},
					"owner()": {
						"notice": "========== OWNER VIEW =========="
					},
					"setExecutorAllowed(address,bool)": {
						"notice": "========== EXECUTOR WHITELIST (optional) ========== Add/remove an offchain/executor address allowed to call executeCall"
					},
					"withdrawERC20(address,address,uint256)": {
						"notice": "Owner-only withdraw ERC20"
					},
					"withdrawETH(address,uint256)": {
						"notice": "========== WITHDRAWALS ========== Owner-only withdraw ETH"
					}
				},
				"version": 1
			}
		}
	}
}