{
	"src/Contract Architecture/Governance & Configuration/FeeManager.sol": {
		"FeeManager": {
			"abi": [
				{
					"inputs": [
						{
							"internalType": "address",
							"name": "_treasury",
							"type": "address"
						},
						{
							"internalType": "uint256",
							"name": "_feeBps",
							"type": "uint256"
						}
					],
					"stateMutability": "nonpayable",
					"type": "constructor"
				},
				{
					"anonymous": false,
					"inputs": [
						{
							"indexed": true,
							"internalType": "address",
							"name": "from",
							"type": "address"
						},
						{
							"indexed": false,
							"internalType": "uint256",
							"name": "amount",
							"type": "uint256"
						}
					],
					"name": "FeeCollected",
					"type": "event"
				},
				{
					"anonymous": false,
					"inputs": [
						{
							"indexed": false,
							"internalType": "uint256",
							"name": "newFee",
							"type": "uint256"
						}
					],
					"name": "FeeUpdated",
					"type": "event"
				},
				{
					"inputs": [],
					"name": "MAX_FEE_BPS",
					"outputs": [
						{
							"internalType": "uint256",
							"name": "",
							"type": "uint256"
						}
					],
					"stateMutability": "view",
					"type": "function"
				},
				{
					"inputs": [],
					"name": "feeBps",
					"outputs": [
						{
							"internalType": "uint256",
							"name": "",
							"type": "uint256"
						}
					],
					"stateMutability": "view",
					"type": "function"
				},
				{
					"inputs": [
						{
							"internalType": "uint256",
							"name": "_feeBps",
							"type": "uint256"
						}
					],
					"name": "setFee",
					"outputs": [],
					"stateMutability": "nonpayable",
					"type": "function"
				},
				{
					"inputs": [],
					"name": "takeFee",
					"outputs": [],
					"stateMutability": "payable",
					"type": "function"
				},
				{
					"inputs": [],
					"name": "treasury",
					"outputs": [
						{
							"internalType": "address",
							"name": "",
							"type": "address"
						}
					],
					"stateMutability": "view",
					"type": "function"
				}
			],
			"devdoc": {
				"kind": "dev",
				"methods": {},
				"title": "FeeManager",
				"version": 1
			},
			"evm": {
				"assembly": "    /* \"src/Contract Architecture/Governance & Configuration/FeeManager.sol\":138:1034  contract FeeManager {... */\n  0x80\n  jumpi(tag_7, callvalue)\n  0x1f\n  bytecodeSize\n  codesize\n  dup2\n  swap1\n  sub\n  swap2\n  dup3\n  add\n  not(0x1f)\n  and\n  dup4\n  add\n  swap2\n  sub(shl(0x40, 0x01), 0x01)\n  dup4\n  gt\n  dup5\n  dup5\n  lt\n  or\n  tag_3\n  jumpi\n  dup1\n  dup5\n  swap3\n  0x40\n  swap5\n  dup6\n  mstore\n  dup4\n  codecopy\n  dup2\n  add\n  sub\n  slt\n  tag_7\n  jumpi\n  dup1\n  mload\n  sub(shl(0xa0, 0x01), 0x01)\n  dup2\n  and\n  swap2\n  swap1\n  dup3\n  swap1\n  sub\n  tag_7\n  jumpi\n  0x20\n  add\n  mload\n    /* \"src/Contract Architecture/Governance & Configuration/FeeManager.sol\":470:492  _feeBps <= MAX_FEE_BPS */\n  swap1\n    /* \"src/Contract Architecture/Governance & Configuration/FeeManager.sol\":285:289  1000 */\n  0x03e8\n    /* \"src/Contract Architecture/Governance & Configuration/FeeManager.sol\":470:492  _feeBps <= MAX_FEE_BPS */\n  dup3\n  gt\n    /* \"src/Contract Architecture/Governance & Configuration/FeeManager.sol\":285:289  1000 */\n  tag_9\n  jumpi\n  0x00\n  dup1\n  sload\n  not(sub(shl(0xa0, 0x01), 0x01))\n  and\n  swap2\n  swap1\n  swap2\n  or\n  swap1\n  sstore\n    /* \"src/Contract Architecture/Governance & Configuration/FeeManager.sol\":138:1034  contract FeeManager {... */\n  0x01\n    /* \"src/Contract Architecture/Governance & Configuration/FeeManager.sol\":285:289  1000 */\n  sstore\n    /* \"src/Contract Architecture/Governance & Configuration/FeeManager.sol\":138:1034  contract FeeManager {... */\n  mload(0x40)\n  dataSize(sub_0)\n  swap1\n  dup2\n  dataOffset(sub_0)\n  dup3\n  codecopy\n  return\n    /* \"src/Contract Architecture/Governance & Configuration/FeeManager.sol\":285:289  1000 */\ntag_9:\n    /* \"src/Contract Architecture/Governance & Configuration/FeeManager.sol\":138:1034  contract FeeManager {... */\n  mload(0x40)\n  shl(0xe5, 0x461bcd)\n    /* \"src/Contract Architecture/Governance & Configuration/FeeManager.sol\":285:289  1000 */\n  dup2\n  mstore\n    /* \"src/Contract Architecture/Governance & Configuration/FeeManager.sol\":138:1034  contract FeeManager {... */\n  0x20\n    /* \"src/Contract Architecture/Governance & Configuration/FeeManager.sol\":285:289  1000 */\n  0x04\n  dup3\n  add\n  mstore\n  0x14\n  0x24\n  dup3\n  add\n  mstore\n  0x4665654d616e616765723a20746f6f2068696768000000000000000000000000\n  0x44\n  dup3\n  add\n  mstore\n  0x64\n  swap1\n  revert\n    /* \"src/Contract Architecture/Governance & Configuration/FeeManager.sol\":138:1034  contract FeeManager {... */\ntag_7:\n  0x00\n  dup1\n  revert\ntag_3:\n  mstore(0x00, shl(0xe0, 0x4e487b71))\n  mstore(0x04, 0x41)\n  revert(0x00, 0x24)\nstop\n\nsub_0: assembly {\n        /* \"src/Contract Architecture/Governance & Configuration/FeeManager.sol\":138:1034  contract FeeManager {... */\n      mstore(0x40, 0x80)\n      jumpi(tag_1, iszero(lt(calldatasize, 0x04)))\n      0x00\n      dup1\n      revert\n    tag_1:\n      shr(0xe0, calldataload(0x00))\n      dup1\n      0x181aa1fd\n      eq\n      tag_3\n      jumpi\n      dup1\n      0x24a9d853\n      eq\n      tag_5\n      jumpi\n      dup1\n      0x61d027b3\n      eq\n      tag_7\n      jumpi\n      dup1\n      0x69fe0e2d\n      eq\n      tag_9\n      jumpi\n      0xd55be8c6\n      eq\n      tag_11\n      jumpi\n      0x00\n      dup1\n      revert\n    tag_11:\n      jumpi(tag_15, callvalue)\n      jumpi(tag_15, slt(add(not(0x03), calldatasize), 0x00))\n      0x20\n      mload(0x40)\n        /* \"src/Contract Architecture/Governance & Configuration/FeeManager.sol\":285:289  1000 */\n      0x03e8\n        /* \"src/Contract Architecture/Governance & Configuration/FeeManager.sol\":138:1034  contract FeeManager {... */\n      dup2\n      mstore\n      return\n    tag_15:\n      0x00\n      dup1\n      revert\n    tag_9:\n      jumpi(tag_15, callvalue)\n      jumpi(tag_15, slt(add(not(0x03), calldatasize), 0x20))\n      calldataload(0x04)\n        /* \"src/Contract Architecture/Governance & Configuration/FeeManager.sol\":285:289  1000 */\n      0x03e8\n        /* \"src/Contract Architecture/Governance & Configuration/FeeManager.sol\":646:668  _feeBps <= MAX_FEE_BPS */\n      dup2\n      gt\n        /* \"src/Contract Architecture/Governance & Configuration/FeeManager.sol\":138:1034  contract FeeManager {... */\n      tag_21\n      jumpi\n      0x20\n      dup2\n        /* \"src/Contract Architecture/Governance & Configuration/FeeManager.sol\":734:753  FeeUpdated(_feeBps) */\n      0x8c4d35e54a3f2ef1134138fd8ea3daee6a3c89e10d2665996babdf70261e2c76\n        /* \"src/Contract Architecture/Governance & Configuration/FeeManager.sol\":138:1034  contract FeeManager {... */\n      swap3\n      0x01\n      sstore\n      mload(0x40)\n      swap1\n      dup2\n      mstore\n        /* \"src/Contract Architecture/Governance & Configuration/FeeManager.sol\":734:753  FeeUpdated(_feeBps) */\n      log1\n        /* \"src/Contract Architecture/Governance & Configuration/FeeManager.sol\":138:1034  contract FeeManager {... */\n      stop\n    tag_21:\n      mload(0x40)\n      shl(0xe5, 0x461bcd)\n      dup2\n      mstore\n      0x20\n      0x04\n      dup3\n      add\n      mstore\n      0x14\n      0x24\n      dup3\n      add\n      mstore\n      shl(0x63, 0x08ccaca9ac2dcc2cecae47440e8dede40d0d2ced)\n      0x44\n      dup3\n      add\n      mstore\n      0x64\n      swap1\n      revert\n    tag_7:\n      jumpi(tag_15, callvalue)\n      jumpi(tag_15, slt(add(not(0x03), calldatasize), 0x00))\n      sload(0x00)\n      mload(0x40)\n      sub(shl(0xa0, 0x01), 0x01)\n      swap1\n      swap2\n      and\n      dup2\n      mstore\n      0x20\n      swap1\n      return\n    tag_5:\n      jumpi(tag_15, callvalue)\n      jumpi(tag_15, slt(add(not(0x03), calldatasize), 0x00))\n      0x20\n        /* \"src/Contract Architecture/Governance & Configuration/FeeManager.sol\":193:214  uint256 public feeBps */\n      0x01\n        /* \"src/Contract Architecture/Governance & Configuration/FeeManager.sol\":138:1034  contract FeeManager {... */\n      sload\n      mload(0x40)\n      swap1\n      dup2\n      mstore\n      return\n    tag_3:\n      jumpi(tag_15, slt(add(not(0x03), calldatasize), 0x00))\n        /* \"src/Contract Architecture/Governance & Configuration/FeeManager.sol\":839:845  feeBps */\n      0x01\n        /* \"src/Contract Architecture/Governance & Configuration/FeeManager.sol\":138:1034  contract FeeManager {... */\n      sload\n        /* \"src/Contract Architecture/Governance & Configuration/FeeManager.sol\":827:836  msg.value */\n      dup1\n      callvalue\n        /* \"src/Contract Architecture/Governance & Configuration/FeeManager.sol\":138:1034  contract FeeManager {... */\n      mul\n        /* \"src/Contract Architecture/Governance & Configuration/FeeManager.sol\":827:836  msg.value */\n      swap1\n      callvalue\n        /* \"src/Contract Architecture/Governance & Configuration/FeeManager.sol\":138:1034  contract FeeManager {... */\n      dup3\n      div\n      eq\n        /* \"src/Contract Architecture/Governance & Configuration/FeeManager.sol\":827:836  msg.value */\n      callvalue\n        /* \"src/Contract Architecture/Governance & Configuration/FeeManager.sol\":138:1034  contract FeeManager {... */\n      iszero\n      or\n      iszero\n      tag_33\n      jumpi\n        /* \"src/Contract Architecture/Governance & Configuration/FeeManager.sol\":849:854  10000 */\n      0x2710\n        /* \"src/Contract Architecture/Governance & Configuration/FeeManager.sol\":138:1034  contract FeeManager {... */\n      swap1\n      div\n      0x00\n      dup1\n      dup1\n      dup1\n      dup5\n      0x01\n      dup1\n      0xa0\n      shl\n      sub\n      dup3\n      sload\n      and\n        /* \"src/Contract Architecture/Governance & Configuration/FeeManager.sol\":882:920  payable(treasury).call{value: fee}(\"\") */\n      gas\n      call\n        /* \"src/Contract Architecture/Governance & Configuration/FeeManager.sol\":138:1034  contract FeeManager {... */\n      jumpi(tag_35, iszero(returndatasize))\n      returndatasize\n      0xffffffffffffffff\n      dup2\n      gt\n      tag_39\n      jumpi\n      mload(0x40)\n      swap1\n      0x1f\n      dup2\n      add\n      not(0x1f)\n      swap1\n      dup2\n      and\n      0x3f\n      add\n      and\n      dup3\n      add\n      0xffffffffffffffff\n      dup2\n      gt\n      dup4\n      dup3\n      lt\n      or\n      tag_39\n      jumpi\n      0x40\n      mstore\n      dup2\n      mstore\n      0x00\n      0x20\n      returndatasize\n      swap3\n      add\n      returndatacopy\n    tag_41:\n      iszero\n      tag_42\n      jumpi\n      mload(0x40)\n      swap1\n      dup2\n      mstore\n        /* \"src/Contract Architecture/Governance & Configuration/FeeManager.sol\":996:1025  FeeCollected(msg.sender, fee) */\n      0x06c5efeff5c320943d265dc4e5f1af95ad523555ce0c1957e367dda5514572df\n        /* \"src/Contract Architecture/Governance & Configuration/FeeManager.sol\":138:1034  contract FeeManager {... */\n      0x20\n        /* \"src/Contract Architecture/Governance & Configuration/FeeManager.sol\":1009:1019  msg.sender */\n      caller\n        /* \"src/Contract Architecture/Governance & Configuration/FeeManager.sol\":996:1025  FeeCollected(msg.sender, fee) */\n      swap3\n      log2\n        /* \"src/Contract Architecture/Governance & Configuration/FeeManager.sol\":138:1034  contract FeeManager {... */\n      stop\n    tag_42:\n      mload(0x40)\n      shl(0xe5, 0x461bcd)\n      dup2\n      mstore\n      0x20\n      0x04\n      dup3\n      add\n      mstore\n      0x1f\n      0x24\n      dup3\n      add\n      mstore\n      0x4665654d616e616765723a20666565207472616e73666572206661696c656400\n      0x44\n      dup3\n      add\n      mstore\n      0x64\n      swap1\n      revert\n    tag_39:\n      mstore(0x00, shl(0xe0, 0x4e487b71))\n      mstore(0x04, 0x41)\n      revert(0x00, 0x24)\n    tag_35:\n      jump(tag_41)\n    tag_33:\n      mstore(0x00, shl(0xe0, 0x4e487b71))\n      mstore(0x04, 0x11)\n      revert(0x00, 0x24)\n\n    auxdata: 0xa2646970667358221220ffede9109f976cdceebec85cd467501c9765e117895a2d16a496dd46f83c3ffd64736f6c634300081a0033\n}\n",
				"bytecode": {
					"linkReferences": {},
					"object": "60803460c557601f61037538819003918201601f19168301916001600160401b0383118484101760c957808492604094855283398101031260c55780516001600160a01b038116919082900360c55760200151906103e882116080575f80546001600160a01b03191691909117905560015560405161029790816100de8239f35b60405162461bcd60e51b815260206004820152601460248201527f4665654d616e616765723a20746f6f20686967680000000000000000000000006044820152606490fd5b5f80fd5b634e487b7160e01b5f52604160045260245ffdfe60806040526004361015610011575f80fd5b5f3560e01c8063181aa1fd1461013e57806324a9d8531461012157806361d027b3146100fa57806369fe0e2d146100705763d55be8c614610050575f80fd5b3461006c575f36600319011261006c5760206040516103e88152f35b5f80fd5b3461006c57602036600319011261006c576004356103e881116100be576020817f8c4d35e54a3f2ef1134138fd8ea3daee6a3c89e10d2665996babdf70261e2c7692600155604051908152a1005b60405162461bcd60e51b815260206004820152601460248201527308ccaca9ac2dcc2cecae47440e8dede40d0d2ced60631b6044820152606490fd5b3461006c575f36600319011261006c575f546040516001600160a01b039091168152602090f35b3461006c575f36600319011261006c576020600154604051908152f35b5f36600319011261006c5760015480340290348204143415171561024d5761271090045f8080808460018060a01b038254165af13d15610248573d67ffffffffffffffff81116102345760405190601f8101601f19908116603f0116820167ffffffffffffffff8111838210176102345760405281525f60203d92013e5b156101ef576040519081527f06c5efeff5c320943d265dc4e5f1af95ad523555ce0c1957e367dda5514572df60203392a2005b60405162461bcd60e51b815260206004820152601f60248201527f4665654d616e616765723a20666565207472616e73666572206661696c6564006044820152606490fd5b634e487b7160e01b5f52604160045260245ffd5b6101bc565b634e487b7160e01b5f52601160045260245ffdfea2646970667358221220ffede9109f976cdceebec85cd467501c9765e117895a2d16a496dd46f83c3ffd64736f6c634300081a0033",
					"opcodes": "PUSH1 0x80 CALLVALUE PUSH1 0xC5 JUMPI PUSH1 0x1F PUSH2 0x375 CODESIZE DUP2 SWAP1 SUB SWAP2 DUP3 ADD PUSH1 0x1F NOT AND DUP4 ADD SWAP2 PUSH1 0x1 PUSH1 0x1 PUSH1 0x40 SHL SUB DUP4 GT DUP5 DUP5 LT OR PUSH1 0xC9 JUMPI DUP1 DUP5 SWAP3 PUSH1 0x40 SWAP5 DUP6 MSTORE DUP4 CODECOPY DUP2 ADD SUB SLT PUSH1 0xC5 JUMPI DUP1 MLOAD PUSH1 0x1 PUSH1 0x1 PUSH1 0xA0 SHL SUB DUP2 AND SWAP2 SWAP1 DUP3 SWAP1 SUB PUSH1 0xC5 JUMPI PUSH1 0x20 ADD MLOAD SWAP1 PUSH2 0x3E8 DUP3 GT PUSH1 0x80 JUMPI PUSH0 DUP1 SLOAD PUSH1 0x1 PUSH1 0x1 PUSH1 0xA0 SHL SUB NOT AND SWAP2 SWAP1 SWAP2 OR SWAP1 SSTORE PUSH1 0x1 SSTORE PUSH1 0x40 MLOAD PUSH2 0x297 SWAP1 DUP2 PUSH2 0xDE DUP3 CODECOPY RETURN JUMPDEST PUSH1 0x40 MLOAD PUSH3 0x461BCD PUSH1 0xE5 SHL DUP2 MSTORE PUSH1 0x20 PUSH1 0x4 DUP3 ADD MSTORE PUSH1 0x14 PUSH1 0x24 DUP3 ADD MSTORE PUSH32 0x4665654D616E616765723A20746F6F2068696768000000000000000000000000 PUSH1 0x44 DUP3 ADD MSTORE PUSH1 0x64 SWAP1 REVERT JUMPDEST PUSH0 DUP1 REVERT JUMPDEST PUSH4 0x4E487B71 PUSH1 0xE0 SHL PUSH0 MSTORE PUSH1 0x41 PUSH1 0x4 MSTORE PUSH1 0x24 PUSH0 REVERT INVALID PUSH1 0x80 PUSH1 0x40 MSTORE PUSH1 0x4 CALLDATASIZE LT ISZERO PUSH2 0x11 JUMPI PUSH0 DUP1 REVERT JUMPDEST PUSH0 CALLDATALOAD PUSH1 0xE0 SHR DUP1 PUSH4 0x181AA1FD EQ PUSH2 0x13E JUMPI DUP1 PUSH4 0x24A9D853 EQ PUSH2 0x121 JUMPI DUP1 PUSH4 0x61D027B3 EQ PUSH2 0xFA JUMPI DUP1 PUSH4 0x69FE0E2D EQ PUSH2 0x70 JUMPI PUSH4 0xD55BE8C6 EQ PUSH2 0x50 JUMPI PUSH0 DUP1 REVERT JUMPDEST CALLVALUE PUSH2 0x6C JUMPI PUSH0 CALLDATASIZE PUSH1 0x3 NOT ADD SLT PUSH2 0x6C JUMPI PUSH1 0x20 PUSH1 0x40 MLOAD PUSH2 0x3E8 DUP2 MSTORE RETURN JUMPDEST PUSH0 DUP1 REVERT JUMPDEST CALLVALUE PUSH2 0x6C JUMPI PUSH1 0x20 CALLDATASIZE PUSH1 0x3 NOT ADD SLT PUSH2 0x6C JUMPI PUSH1 0x4 CALLDATALOAD PUSH2 0x3E8 DUP2 GT PUSH2 0xBE JUMPI PUSH1 0x20 DUP2 PUSH32 0x8C4D35E54A3F2EF1134138FD8EA3DAEE6A3C89E10D2665996BABDF70261E2C76 SWAP3 PUSH1 0x1 SSTORE PUSH1 0x40 MLOAD SWAP1 DUP2 MSTORE LOG1 STOP JUMPDEST PUSH1 0x40 MLOAD PUSH3 0x461BCD PUSH1 0xE5 SHL DUP2 MSTORE PUSH1 0x20 PUSH1 0x4 DUP3 ADD MSTORE PUSH1 0x14 PUSH1 0x24 DUP3 ADD MSTORE PUSH20 0x8CCACA9AC2DCC2CECAE47440E8DEDE40D0D2CED PUSH1 0x63 SHL PUSH1 0x44 DUP3 ADD MSTORE PUSH1 0x64 SWAP1 REVERT JUMPDEST CALLVALUE PUSH2 0x6C JUMPI PUSH0 CALLDATASIZE PUSH1 0x3 NOT ADD SLT PUSH2 0x6C JUMPI PUSH0 SLOAD PUSH1 0x40 MLOAD PUSH1 0x1 PUSH1 0x1 PUSH1 0xA0 SHL SUB SWAP1 SWAP2 AND DUP2 MSTORE PUSH1 0x20 SWAP1 RETURN JUMPDEST CALLVALUE PUSH2 0x6C JUMPI PUSH0 CALLDATASIZE PUSH1 0x3 NOT ADD SLT PUSH2 0x6C JUMPI PUSH1 0x20 PUSH1 0x1 SLOAD PUSH1 0x40 MLOAD SWAP1 DUP2 MSTORE RETURN JUMPDEST PUSH0 CALLDATASIZE PUSH1 0x3 NOT ADD SLT PUSH2 0x6C JUMPI PUSH1 0x1 SLOAD DUP1 CALLVALUE MUL SWAP1 CALLVALUE DUP3 DIV EQ CALLVALUE ISZERO OR ISZERO PUSH2 0x24D JUMPI PUSH2 0x2710 SWAP1 DIV PUSH0 DUP1 DUP1 DUP1 DUP5 PUSH1 0x1 DUP1 PUSH1 0xA0 SHL SUB DUP3 SLOAD AND GAS CALL RETURNDATASIZE ISZERO PUSH2 0x248 JUMPI RETURNDATASIZE PUSH8 0xFFFFFFFFFFFFFFFF DUP2 GT PUSH2 0x234 JUMPI PUSH1 0x40 MLOAD SWAP1 PUSH1 0x1F DUP2 ADD PUSH1 0x1F NOT SWAP1 DUP2 AND PUSH1 0x3F ADD AND DUP3 ADD PUSH8 0xFFFFFFFFFFFFFFFF DUP2 GT DUP4 DUP3 LT OR PUSH2 0x234 JUMPI PUSH1 0x40 MSTORE DUP2 MSTORE PUSH0 PUSH1 0x20 RETURNDATASIZE SWAP3 ADD RETURNDATACOPY JUMPDEST ISZERO PUSH2 0x1EF JUMPI PUSH1 0x40 MLOAD SWAP1 DUP2 MSTORE PUSH32 0x6C5EFEFF5C320943D265DC4E5F1AF95AD523555CE0C1957E367DDA5514572DF PUSH1 0x20 CALLER SWAP3 LOG2 STOP JUMPDEST PUSH1 0x40 MLOAD PUSH3 0x461BCD PUSH1 0xE5 SHL DUP2 MSTORE PUSH1 0x20 PUSH1 0x4 DUP3 ADD MSTORE PUSH1 0x1F PUSH1 0x24 DUP3 ADD MSTORE PUSH32 0x4665654D616E616765723A20666565207472616E73666572206661696C656400 PUSH1 0x44 DUP3 ADD MSTORE PUSH1 0x64 SWAP1 REVERT JUMPDEST PUSH4 0x4E487B71 PUSH1 0xE0 SHL PUSH0 MSTORE PUSH1 0x41 PUSH1 0x4 MSTORE PUSH1 0x24 PUSH0 REVERT JUMPDEST PUSH2 0x1BC JUMP JUMPDEST PUSH4 0x4E487B71 PUSH1 0xE0 SHL PUSH0 MSTORE PUSH1 0x11 PUSH1 0x4 MSTORE PUSH1 0x24 PUSH0 REVERT INVALID LOG2 PUSH5 0x6970667358 0x22 SLT KECCAK256 SELFDESTRUCT 0xED 0xE9 LT SWAP16 SWAP8 PUSH13 0xDCEEBEC85CD467501C9765E117 DUP10 GAS 0x2D AND LOG4 SWAP7 0xDD CHAINID 0xF8 EXTCODECOPY EXTCODEHASH REVERT PUSH5 0x736F6C6343 STOP ADDMOD BYTE STOP CALLER "
				},
				"gasEstimates": {
					"creation": {
						"codeDepositCost": "132600",
						"executionCost": "infinite",
						"totalCost": "infinite"
					},
					"external": {
						"MAX_FEE_BPS()": "230",
						"feeBps()": "2270",
						"setFee(uint256)": "23358",
						"takeFee()": "infinite",
						"treasury()": "2315"
					}
				},
				"methodIdentifiers": {
					"MAX_FEE_BPS()": "d55be8c6",
					"feeBps()": "24a9d853",
					"setFee(uint256)": "69fe0e2d",
					"takeFee()": "181aa1fd",
					"treasury()": "61d027b3"
				}
			},
			"storageLayout": {
				"storage": [
					{
						"astId": 4,
						"contract": "src/Contract Architecture/Governance & Configuration/FeeManager.sol:FeeManager",
						"label": "treasury",
						"offset": 0,
						"slot": "0",
						"type": "t_address"
					},
					{
						"astId": 6,
						"contract": "src/Contract Architecture/Governance & Configuration/FeeManager.sol:FeeManager",
						"label": "feeBps",
						"offset": 0,
						"slot": "1",
						"type": "t_uint256"
					}
				],
				"types": {
					"t_address": {
						"encoding": "inplace",
						"label": "address",
						"numberOfBytes": "20"
					},
					"t_uint256": {
						"encoding": "inplace",
						"label": "uint256",
						"numberOfBytes": "32"
					}
				}
			},
			"userdoc": {
				"kind": "user",
				"methods": {},
				"notice": "Collects and distributes protocol fees.",
				"version": 1
			}
		}
	}
}