{
	"src/Contract Architecture/Core Infrastructure/WalletManager.sol": {
		"WalletManager": {
			"abi": [
				{
					"inputs": [
						{
							"internalType": "address",
							"name": "_userVaultImplementation",
							"type": "address"
						}
					],
					"stateMutability": "nonpayable",
					"type": "constructor"
				},
				{
					"inputs": [],
					"name": "AlreadyHasVault",
					"type": "error"
				},
				{
					"inputs": [],
					"name": "FailedDeployment",
					"type": "error"
				},
				{
					"inputs": [],
					"name": "FidAlreadyLinked",
					"type": "error"
				},
				{
					"inputs": [],
					"name": "FidNotLinked",
					"type": "error"
				},
				{
					"inputs": [],
					"name": "ImplementationNotSet",
					"type": "error"
				},
				{
					"inputs": [
						{
							"internalType": "uint256",
							"name": "balance",
							"type": "uint256"
						},
						{
							"internalType": "uint256",
							"name": "needed",
							"type": "uint256"
						}
					],
					"name": "InsufficientBalance",
					"type": "error"
				},
				{
					"inputs": [
						{
							"internalType": "address",
							"name": "owner",
							"type": "address"
						}
					],
					"name": "OwnableInvalidOwner",
					"type": "error"
				},
				{
					"inputs": [
						{
							"internalType": "address",
							"name": "account",
							"type": "address"
						}
					],
					"name": "OwnableUnauthorizedAccount",
					"type": "error"
				},
				{
					"inputs": [],
					"name": "OwnerAlreadyLinked",
					"type": "error"
				},
				{
					"inputs": [],
					"name": "VaultNotFound",
					"type": "error"
				},
				{
					"inputs": [],
					"name": "ZeroAddress",
					"type": "error"
				},
				{
					"anonymous": false,
					"inputs": [
						{
							"indexed": true,
							"internalType": "uint256",
							"name": "fid",
							"type": "uint256"
						},
						{
							"indexed": true,
							"internalType": "address",
							"name": "owner",
							"type": "address"
						}
					],
					"name": "FidLinked",
					"type": "event"
				},
				{
					"anonymous": false,
					"inputs": [
						{
							"indexed": true,
							"internalType": "uint256",
							"name": "fid",
							"type": "uint256"
						},
						{
							"indexed": true,
							"internalType": "address",
							"name": "previousOwner",
							"type": "address"
						}
					],
					"name": "FidUnlinked",
					"type": "event"
				},
				{
					"anonymous": false,
					"inputs": [
						{
							"indexed": true,
							"internalType": "address",
							"name": "previousOwner",
							"type": "address"
						},
						{
							"indexed": true,
							"internalType": "address",
							"name": "newOwner",
							"type": "address"
						}
					],
					"name": "OwnershipTransferred",
					"type": "event"
				},
				{
					"anonymous": false,
					"inputs": [
						{
							"indexed": true,
							"internalType": "address",
							"name": "implementation",
							"type": "address"
						}
					],
					"name": "UserVaultImplementationUpdated",
					"type": "event"
				},
				{
					"anonymous": false,
					"inputs": [
						{
							"indexed": true,
							"internalType": "address",
							"name": "owner",
							"type": "address"
						},
						{
							"indexed": true,
							"internalType": "uint256",
							"name": "fid",
							"type": "uint256"
						},
						{
							"indexed": false,
							"internalType": "address",
							"name": "vault",
							"type": "address"
						}
					],
					"name": "WalletCreated",
					"type": "event"
				},
				{
					"inputs": [
						{
							"internalType": "address",
							"name": "owner_",
							"type": "address"
						},
						{
							"internalType": "uint256",
							"name": "fid_",
							"type": "uint256"
						}
					],
					"name": "createWallet",
					"outputs": [
						{
							"internalType": "address",
							"name": "vault",
							"type": "address"
						}
					],
					"stateMutability": "nonpayable",
					"type": "function"
				},
				{
					"inputs": [
						{
							"internalType": "uint256",
							"name": "",
							"type": "uint256"
						}
					],
					"name": "fidToOwner",
					"outputs": [
						{
							"internalType": "address",
							"name": "",
							"type": "address"
						}
					],
					"stateMutability": "view",
					"type": "function"
				},
				{
					"inputs": [
						{
							"internalType": "uint256",
							"name": "fid_",
							"type": "uint256"
						}
					],
					"name": "getOwnerByFid",
					"outputs": [
						{
							"internalType": "address",
							"name": "",
							"type": "address"
						}
					],
					"stateMutability": "view",
					"type": "function"
				},
				{
					"inputs": [
						{
							"internalType": "address",
							"name": "owner_",
							"type": "address"
						}
					],
					"name": "getVault",
					"outputs": [
						{
							"internalType": "address",
							"name": "vault",
							"type": "address"
						}
					],
					"stateMutability": "view",
					"type": "function"
				},
				{
					"inputs": [
						{
							"internalType": "uint256",
							"name": "fid_",
							"type": "uint256"
						}
					],
					"name": "getVaultByFid",
					"outputs": [
						{
							"internalType": "address",
							"name": "vault",
							"type": "address"
						}
					],
					"stateMutability": "view",
					"type": "function"
				},
				{
					"inputs": [
						{
							"internalType": "uint256",
							"name": "fid_",
							"type": "uint256"
						}
					],
					"name": "linkFarcasterId",
					"outputs": [],
					"stateMutability": "nonpayable",
					"type": "function"
				},
				{
					"inputs": [],
					"name": "owner",
					"outputs": [
						{
							"internalType": "address",
							"name": "",
							"type": "address"
						}
					],
					"stateMutability": "view",
					"type": "function"
				},
				{
					"inputs": [
						{
							"internalType": "address",
							"name": "",
							"type": "address"
						}
					],
					"name": "ownerToFid",
					"outputs": [
						{
							"internalType": "uint256",
							"name": "",
							"type": "uint256"
						}
					],
					"stateMutability": "view",
					"type": "function"
				},
				{
					"inputs": [
						{
							"internalType": "address",
							"name": "",
							"type": "address"
						}
					],
					"name": "ownerToVault",
					"outputs": [
						{
							"internalType": "address",
							"name": "",
							"type": "address"
						}
					],
					"stateMutability": "view",
					"type": "function"
				},
				{
					"inputs": [],
					"name": "renounceOwnership",
					"outputs": [],
					"stateMutability": "nonpayable",
					"type": "function"
				},
				{
					"inputs": [
						{
							"internalType": "address",
							"name": "_implementation",
							"type": "address"
						}
					],
					"name": "setUserVaultImplementation",
					"outputs": [],
					"stateMutability": "nonpayable",
					"type": "function"
				},
				{
					"inputs": [
						{
							"internalType": "address",
							"name": "newOwner",
							"type": "address"
						}
					],
					"name": "transferOwnership",
					"outputs": [],
					"stateMutability": "nonpayable",
					"type": "function"
				},
				{
					"inputs": [],
					"name": "unlinkFarcasterId",
					"outputs": [],
					"stateMutability": "nonpayable",
					"type": "function"
				},
				{
					"inputs": [],
					"name": "userVaultImplementation",
					"outputs": [
						{
							"internalType": "address",
							"name": "",
							"type": "address"
						}
					],
					"stateMutability": "view",
					"type": "function"
				}
			],
			"devdoc": {
				"errors": {
					"FailedDeployment()": [
						{
							"details": "The deployment failed."
						}
					],
					"InsufficientBalance(uint256,uint256)": [
						{
							"details": "The ETH balance of the account is not enough to perform the operation."
						}
					],
					"OwnableInvalidOwner(address)": [
						{
							"details": "The owner is not a valid owner account. (eg. `address(0)`)"
						}
					],
					"OwnableUnauthorizedAccount(address)": [
						{
							"details": "The caller account is not authorized to perform an operation."
						}
					],
					"ZeroAddress()": [
						{
							"details": "Basic errors to keep bytecode lean."
						}
					]
				},
				"kind": "dev",
				"methods": {
					"createWallet(address,uint256)": {
						"details": "Reverts if owner already has a vault. If fid_ > 0, also links the FID.",
						"params": {
							"fid_": "Farcaster ID to link (use 0 to skip linking).",
							"owner_": "The EOA or smart account that will control the new vault."
						},
						"returns": {
							"vault": " The address of the newly created vault clone."
						}
					},
					"linkFarcasterId(uint256)": {
						"details": "If msg.sender already has a different FID, unlink first by calling `unlinkFid`."
					},
					"owner()": {
						"details": "Returns the address of the current owner."
					},
					"renounceOwnership()": {
						"details": "Leaves the contract without owner. It will not be possible to call `onlyOwner` functions. Can only be called by the current owner. NOTE: Renouncing ownership will leave the contract without an owner, thereby disabling any functionality that is only available to the owner."
					},
					"setUserVaultImplementation(address)": {
						"details": "Only affects *new* vaults; existing vaults remain unchanged."
					},
					"transferOwnership(address)": {
						"details": "Transfers ownership of the contract to a new account (`newOwner`). Can only be called by the current owner."
					}
				},
				"version": 1
			},
			"evm": {
				"assembly": "    /* \"src/Contract Architecture/Core Infrastructure/WalletManager.sol\":1034:5955  contract WalletManager is Ownable {... */\n  0x80\n  jumpi(tag_7, callvalue)\n  0x1f\n  bytecodeSize\n  codesize\n  dup2\n  swap1\n  sub\n  swap2\n  dup3\n  add\n  not(0x1f)\n  and\n  dup4\n  add\n  swap2\n  sub(shl(0x40, 0x01), 0x01)\n  dup4\n  gt\n  dup5\n  dup5\n  lt\n  or\n  tag_3\n  jumpi\n  dup1\n  dup5\n  swap3\n  0x20\n  swap5\n  0x40\n  mstore\n  dup4\n  codecopy\n  dup2\n  add\n  sub\n  slt\n  tag_7\n  jumpi\n  mload\n  sub(shl(0xa0, 0x01), 0x01)\n  swap1\n  dup2\n  dup2\n  and\n  swap1\n  dup2\n  swap1\n  sub\n  tag_7\n  jumpi\n    /* \"src/Contract Architecture/Core Infrastructure/WalletManager.sol\":2144:2154  msg.sender */\n  caller\n    /* \"@openzeppelin/contracts/access/Ownable.sol\":1273:1299  initialOwner == address(0) */\n  iszero\n    /* \"@openzeppelin/contracts/access/Ownable.sol\":1269:1364  if (initialOwner == address(0)) {... */\n  tag_9\n  jumpi\n  0x00\n    /* \"src/Contract Architecture/Core Infrastructure/WalletManager.sol\":1034:5955  contract WalletManager is Ownable {... */\n  sload\n  0x01\n  dup1\n  0xa0\n  shl\n  sub\n  not\n    /* \"src/Contract Architecture/Core Infrastructure/WalletManager.sol\":2144:2154  msg.sender */\n  swap1\n  caller\n    /* \"src/Contract Architecture/Core Infrastructure/WalletManager.sol\":1034:5955  contract WalletManager is Ownable {... */\n  dup3\n  dup3\n  and\n  or\n  0x00\n  sstore\n  mload(0x40)\n    /* \"src/Contract Architecture/Core Infrastructure/WalletManager.sol\":2144:2154  msg.sender */\n  swap4\n  caller\n    /* \"src/Contract Architecture/Core Infrastructure/WalletManager.sol\":1034:5955  contract WalletManager is Ownable {... */\n  swap2\n  and\n    /* \"@openzeppelin/contracts/access/Ownable.sol\":3052:3092  OwnershipTransferred(oldOwner, newOwner) */\n  0x8be0079c531659141344cd1fd0a4f28419497f9722a3daafe3b4186f6b6457e0\n  0x00\n  dup1\n  log3\n    /* \"src/Contract Architecture/Core Infrastructure/WalletManager.sol\":2170:2208  _userVaultImplementation == address(0) */\n  dup2\n  iszero\n    /* \"src/Contract Architecture/Core Infrastructure/WalletManager.sol\":2166:2230  if (_userVaultImplementation == address(0)) revert ZeroAddress() */\n  tag_11\n  jumpi\n    /* \"src/Contract Architecture/Core Infrastructure/WalletManager.sol\":1034:5955  contract WalletManager is Ownable {... */\n  dup2\n  swap1\n    /* \"src/Contract Architecture/Core Infrastructure/WalletManager.sol\":2240:2290  userVaultImplementation = _userVaultImplementation */\n  0x01\n    /* \"src/Contract Architecture/Core Infrastructure/WalletManager.sol\":1034:5955  contract WalletManager is Ownable {... */\n  sload\n  and\n  or\n    /* \"src/Contract Architecture/Core Infrastructure/WalletManager.sol\":2240:2290  userVaultImplementation = _userVaultImplementation */\n  0x01\n    /* \"src/Contract Architecture/Core Infrastructure/WalletManager.sol\":1034:5955  contract WalletManager is Ownable {... */\n  sstore\n  mload(0x40)\n    /* \"src/Contract Architecture/Core Infrastructure/WalletManager.sol\":2305:2361  UserVaultImplementationUpdated(_userVaultImplementation) */\n  swap1\n  0xb3113c226e7a2d90bb0324c2c6af9fc8f012eb7a61f4004619548b54acf2eb04\n  0x00\n  dup1\n  log2\n    /* \"src/Contract Architecture/Core Infrastructure/WalletManager.sol\":1034:5955  contract WalletManager is Ownable {... */\n  dataSize(sub_0)\n  swap1\n  dup2\n  dataOffset(sub_0)\n  dup3\n  codecopy\n  return\n    /* \"src/Contract Architecture/Core Infrastructure/WalletManager.sol\":2166:2230  if (_userVaultImplementation == address(0)) revert ZeroAddress() */\ntag_11:\n  shl(0xe0, 0xd92e233d)\n    /* \"src/Contract Architecture/Core Infrastructure/WalletManager.sol\":2217:2230  ZeroAddress() */\n  dup4\n  mstore\n  0x04\n  dup4\n  revert\n    /* \"@openzeppelin/contracts/access/Ownable.sol\":1269:1364  if (initialOwner == address(0)) {... */\ntag_9:\n    /* \"src/Contract Architecture/Core Infrastructure/WalletManager.sol\":1034:5955  contract WalletManager is Ownable {... */\n  mload(0x40)\n  shl(0xe0, 0x1e4fbdf7)\n    /* \"@openzeppelin/contracts/access/Ownable.sol\":1322:1353  OwnableInvalidOwner(address(0)) */\n  dup2\n  mstore\n  0x00\n  0x04\n  dup3\n  add\n    /* \"src/Contract Architecture/Core Infrastructure/WalletManager.sol\":1034:5955  contract WalletManager is Ownable {... */\n  mstore\n  0x24\n  swap1\n    /* \"@openzeppelin/contracts/access/Ownable.sol\":1322:1353  OwnableInvalidOwner(address(0)) */\n  revert\n    /* \"src/Contract Architecture/Core Infrastructure/WalletManager.sol\":1034:5955  contract WalletManager is Ownable {... */\ntag_7:\n  0x00\n  dup1\n  revert\ntag_3:\n  mstore(0x00, shl(0xe0, 0x4e487b71))\n  mstore(0x04, 0x41)\n  revert(0x00, 0x24)\nstop\n\nsub_0: assembly {\n        /* \"src/Contract Architecture/Core Infrastructure/WalletManager.sol\":1034:5955  contract WalletManager is Ownable {... */\n      0x80\n      0x40\n      dup2\n      dup2\n      mstore\n      0x04\n      dup1\n      calldatasize\n      lt\n      iszero\n      tag_3\n      jumpi\n      0x00\n      dup1\n      revert\n    tag_3:\n      0x00\n      swap3\n      shr(0xe0, calldataload(0x00))\n      swap1\n      dup2\n      0x0eb9af38\n      eq\n      tag_5\n      jumpi\n      pop\n      dup1\n      0x1c576575\n      eq\n      tag_7\n      jumpi\n      dup1\n      0x35598a02\n      eq\n      tag_9\n      jumpi\n      dup1\n      0x5cf25981\n      eq\n      tag_11\n      jumpi\n      dup1\n      0x715018a6\n      eq\n      tag_13\n      jumpi\n      dup1\n      0x7b9cf4f3\n      eq\n      tag_25\n      jumpi\n      dup1\n      0x820b3d53\n      eq\n      tag_17\n      jumpi\n      dup1\n      0x8a62bb16\n      eq\n      tag_19\n      jumpi\n      dup1\n      0x8da5cb5b\n      eq\n      tag_21\n      jumpi\n      dup1\n      0xa6e7d83f\n      eq\n      tag_23\n      jumpi\n      dup1\n      0xc8b6a983\n      eq\n      tag_25\n      jumpi\n      dup1\n      0xe2cc3d2f\n      eq\n      tag_27\n      jumpi\n      dup1\n      0xf247d217\n      eq\n      tag_29\n      jumpi\n      0xf2fde38b\n      eq\n      tag_31\n      jumpi\n      0x00\n      dup1\n      revert\n    tag_31:\n      jumpi(tag_35, callvalue)\n      jumpi(tag_35, slt(add(not(0x03), calldatasize), 0x20))\n      tag_37\n      tag_1\n      jump\t// in\n    tag_37:\n        /* \"@openzeppelin/contracts/access/Ownable.sol\":1500:1562  modifier onlyOwner() {... */\n      swap1\n      tag_38\n      tag_2\n      jump\t// in\n    tag_38:\n      sub(shl(0xa0, 0x01), 0x01)\n        /* \"src/Contract Architecture/Core Infrastructure/WalletManager.sol\":1034:5955  contract WalletManager is Ownable {... */\n      swap2\n      dup3\n      and\n      swap3\n        /* \"@openzeppelin/contracts/access/Ownable.sol\":2627:2649  newOwner == address(0) */\n      dup4\n      iszero\n        /* \"@openzeppelin/contracts/access/Ownable.sol\":2623:2714  if (newOwner == address(0)) {... */\n      tag_39\n      jumpi\n        /* \"src/Contract Architecture/Core Infrastructure/WalletManager.sol\":1034:5955  contract WalletManager is Ownable {... */\n      pop\n      pop\n      sload(0x00)\n      dup3\n      shl(0xa0, sub(shl(0x60, 0x01), 0x01))\n      dup3\n      and\n      or\n      0x00\n      sstore\n      and\n        /* \"@openzeppelin/contracts/access/Ownable.sol\":3052:3092  OwnershipTransferred(oldOwner, newOwner) */\n      0x8be0079c531659141344cd1fd0a4f28419497f9722a3daafe3b4186f6b6457e0\n        /* \"src/Contract Architecture/Core Infrastructure/WalletManager.sol\":1034:5955  contract WalletManager is Ownable {... */\n      0x00\n        /* \"@openzeppelin/contracts/access/Ownable.sol\":3052:3092  OwnershipTransferred(oldOwner, newOwner) */\n      dup1\n      log3\n        /* \"src/Contract Architecture/Core Infrastructure/WalletManager.sol\":1034:5955  contract WalletManager is Ownable {... */\n      dup1\n      return\n        /* \"@openzeppelin/contracts/access/Ownable.sol\":2623:2714  if (newOwner == address(0)) {... */\n    tag_39:\n        /* \"src/Contract Architecture/Core Infrastructure/WalletManager.sol\":1034:5955  contract WalletManager is Ownable {... */\n      mload\n      shl(0xe0, 0x1e4fbdf7)\n        /* \"@openzeppelin/contracts/access/Ownable.sol\":2672:2703  OwnableInvalidOwner(address(0)) */\n      dup2\n      mstore\n      swap1\n      dup2\n      add\n        /* \"src/Contract Architecture/Core Infrastructure/WalletManager.sol\":1034:5955  contract WalletManager is Ownable {... */\n      dup5\n      swap1\n      mstore\n      0x24\n      swap1\n        /* \"@openzeppelin/contracts/access/Ownable.sol\":2672:2703  OwnableInvalidOwner(address(0)) */\n      revert\n        /* \"src/Contract Architecture/Core Infrastructure/WalletManager.sol\":1034:5955  contract WalletManager is Ownable {... */\n    tag_35:\n      dup3\n      dup1\n      revert\n    tag_29:\n      pop\n      swap1\n      jumpi(tag_58, callvalue)\n      dup1\n      add(calldatasize, not(0x03))\n      slt\n      tag_58\n      jumpi\n      tag_45\n      tag_1\n      jump\t// in\n    tag_45:\n      sload(0x01)\n      sub(shl(0xa0, 0x01), 0x01)\n      swap5\n      calldataload(0x24)\n      swap3\n      swap1\n      swap2\n      swap1\n      dup7\n      dup3\n      and\n        /* \"src/Contract Architecture/Core Infrastructure/WalletManager.sol\":3378:3415  userVaultImplementation == address(0) */\n      iszero\n        /* \"src/Contract Architecture/Core Infrastructure/WalletManager.sol\":3374:3446  if (userVaultImplementation == address(0)) revert ImplementationNotSet() */\n      tag_46\n      jumpi\n        /* \"src/Contract Architecture/Core Infrastructure/WalletManager.sol\":1034:5955  contract WalletManager is Ownable {... */\n      dup7\n      and\n        /* \"src/Contract Architecture/Core Infrastructure/WalletManager.sol\":3460:3480  owner_ == address(0) */\n      swap2\n      dup3\n      iszero\n        /* \"src/Contract Architecture/Core Infrastructure/WalletManager.sol\":3456:3502  if (owner_ == address(0)) revert ZeroAddress() */\n      tag_48\n      jumpi\n        /* \"src/Contract Architecture/Core Infrastructure/WalletManager.sol\":1034:5955  contract WalletManager is Ownable {... */\n      dup3\n      0x00\n      mstore\n      0x20\n      swap7\n        /* \"src/Contract Architecture/Core Infrastructure/WalletManager.sol\":3516:3528  ownerToVault */\n      0x02\n        /* \"src/Contract Architecture/Core Infrastructure/WalletManager.sol\":1034:5955  contract WalletManager is Ownable {... */\n      dup9\n      mstore\n      dup1\n      dup7\n      0x00\n      keccak256\n      sload\n      and\n        /* \"src/Contract Architecture/Core Infrastructure/WalletManager.sol\":3512:3576  if (ownerToVault[owner_] != address(0)) revert AlreadyHasVault() */\n      tag_50\n      jumpi\n        /* \"src/Contract Architecture/Core Infrastructure/WalletManager.sol\":3590:3599  fid_ != 0 */\n      dup5\n      iszero\n      iszero\n      swap3\n      dup4\n      dup1\n        /* \"src/Contract Architecture/Core Infrastructure/WalletManager.sol\":3590:3633  fid_ != 0 && fidToOwner[fid_] != address(0) */\n      tag_52\n      jumpi\n        /* \"src/Contract Architecture/Core Infrastructure/WalletManager.sol\":1034:5955  contract WalletManager is Ownable {... */\n    tag_53:\n        /* \"src/Contract Architecture/Core Infrastructure/WalletManager.sol\":3586:3660  if (fid_ != 0 && fidToOwner[fid_] != address(0)) revert FidAlreadyLinked() */\n      tag_54\n      jumpi\n        /* \"@openzeppelin/contracts/proxy/Clones.sol\":2487:3065  assembly (\"memory-safe\") {... */\n      dup1\n      0x3d602d80600a3d3981f3363d3d373d3d3d363d73000000\n      0xffffff\n      0x5af43d82803e903d91602b57fd5bf3\n      swap4\n      0x88\n      shr\n      and\n      or\n        /* \"src/Contract Architecture/Core Infrastructure/WalletManager.sol\":1034:5955  contract WalletManager is Ownable {... */\n      0x00\n        /* \"@openzeppelin/contracts/proxy/Clones.sol\":2487:3065  assembly (\"memory-safe\") {... */\n      mstore\n      not(0xffffffffffffffffffffffffffffff)\n      swap1\n      0x78\n      shl\n      and\n      or\n      dup9\n      mstore\n      0x37\n      0x09\n        /* \"src/Contract Architecture/Core Infrastructure/WalletManager.sol\":1034:5955  contract WalletManager is Ownable {... */\n      0x00\n        /* \"@openzeppelin/contracts/proxy/Clones.sol\":2487:3065  assembly (\"memory-safe\") {... */\n      create\n        /* \"src/Contract Architecture/Core Infrastructure/WalletManager.sol\":1034:5955  contract WalletManager is Ownable {... */\n      and\n        /* \"@openzeppelin/contracts/proxy/Clones.sol\":3078:3100  instance == address(0) */\n      swap6\n      dup7\n      iszero\n        /* \"@openzeppelin/contracts/proxy/Clones.sol\":3074:3159  if (instance == address(0)) {... */\n      tag_56\n      jumpi\n        /* \"src/Contract Architecture/Core Infrastructure/WalletManager.sol\":3814:3850  IUserVault(vault).initialize(owner_) */\n      dup7\n      extcodesize\n      iszero\n      tag_58\n      jumpi\n        /* \"src/Contract Architecture/Core Infrastructure/WalletManager.sol\":1034:5955  contract WalletManager is Ownable {... */\n      dup6\n      mload\n      shl(0xe3, 0x189acdbd)\n        /* \"src/Contract Architecture/Core Infrastructure/WalletManager.sol\":3814:3850  IUserVault(vault).initialize(owner_) */\n      dup2\n      mstore\n      dup2\n      dup2\n      add\n        /* \"src/Contract Architecture/Core Infrastructure/WalletManager.sol\":1034:5955  contract WalletManager is Ownable {... */\n      dup6\n      swap1\n      mstore\n      0x00\n      dup2\n      0x24\n      dup2\n      dup4\n        /* \"src/Contract Architecture/Core Infrastructure/WalletManager.sol\":3814:3850  IUserVault(vault).initialize(owner_) */\n      dup13\n      gas\n      call\n      dup1\n      iszero\n      tag_60\n      jumpi\n      swap2\n      dup7\n      swap4\n      swap2\n      dup7\n      swap6\n      swap4\n      tag_62\n      jumpi\n        /* \"src/Contract Architecture/Core Infrastructure/WalletManager.sol\":1034:5955  contract WalletManager is Ownable {... */\n    tag_63:\n      pop\n      dup5\n      dup3\n      mstore\n        /* \"src/Contract Architecture/Core Infrastructure/WalletManager.sol\":3516:3528  ownerToVault */\n      0x02\n        /* \"src/Contract Architecture/Core Infrastructure/WalletManager.sol\":1034:5955  contract WalletManager is Ownable {... */\n      dup11\n      mstore\n      dup8\n      dup3\n      keccak256\n      dup1\n      sload\n      not(sub(shl(0xa0, 0x01), 0x01))\n      swap1\n      dup2\n      and\n      dup12\n      or\n      swap1\n      swap2\n      sstore\n      swap3\n        /* \"src/Contract Architecture/Core Infrastructure/WalletManager.sol\":3964:4110  if (fid_ != 0) {... */\n      tag_64\n      jumpi\n        /* \"src/Contract Architecture/Core Infrastructure/WalletManager.sol\":1034:5955  contract WalletManager is Ownable {... */\n    tag_65:\n      pop\n      pop\n      pop\n      pop\n      pop\n        /* \"src/Contract Architecture/Core Infrastructure/WalletManager.sol\":4125:4159  WalletCreated(owner_, fid_, vault) */\n      0x4a3920ce64f1f4f94c7d183cc35de5df87c9b0b30de1c886f490b495cb8791c8\n        /* \"src/Contract Architecture/Core Infrastructure/WalletManager.sol\":1034:5955  contract WalletManager is Ownable {... */\n      dup6\n      dup5\n      mload\n      dup7\n      dup2\n      mstore\n        /* \"src/Contract Architecture/Core Infrastructure/WalletManager.sol\":4125:4159  WalletCreated(owner_, fid_, vault) */\n      log3\n        /* \"src/Contract Architecture/Core Infrastructure/WalletManager.sol\":1034:5955  contract WalletManager is Ownable {... */\n      mload\n      swap1\n      dup2\n      mstore\n      return\n        /* \"src/Contract Architecture/Core Infrastructure/WalletManager.sol\":3964:4110  if (fid_ != 0) {... */\n    tag_64:\n        /* \"src/Contract Architecture/Core Infrastructure/WalletManager.sol\":4076:4099  FidLinked(fid_, owner_) */\n      0x352813b8d042518a94ed321d9dc289e197f2c4808f289e723bb13e59559f1633\n        /* \"src/Contract Architecture/Core Infrastructure/WalletManager.sol\":1034:5955  contract WalletManager is Ownable {... */\n      swap3\n      dup5\n      dup4\n      mstore\n        /* \"src/Contract Architecture/Core Infrastructure/WalletManager.sol\":3993:4003  fidToOwner */\n      0x03\n        /* \"src/Contract Architecture/Core Infrastructure/WalletManager.sol\":1034:5955  contract WalletManager is Ownable {... */\n      dup12\n      mstore\n      dup6\n      dup10\n      dup5\n      keccak256\n      swap2\n      dup3\n      sload\n      and\n      or\n      swap1\n      sstore\n      dup5\n      dup3\n      mstore\n      dup10\n      mstore\n      dup3\n      dup8\n      dup3\n      keccak256\n      sstore\n        /* \"src/Contract Architecture/Core Infrastructure/WalletManager.sol\":4076:4099  FidLinked(fid_, owner_) */\n      dup1\n      log3\n        /* \"src/Contract Architecture/Core Infrastructure/WalletManager.sol\":3964:4110  if (fid_ != 0) {... */\n      dup1\n      dup3\n      0x00\n      dup1\n      dup1\n      jump(tag_65)\n        /* \"src/Contract Architecture/Core Infrastructure/WalletManager.sol\":3814:3850  IUserVault(vault).initialize(owner_) */\n    tag_62:\n        /* \"src/Contract Architecture/Core Infrastructure/WalletManager.sol\":1034:5955  contract WalletManager is Ownable {... */\n      swap3\n      swap5\n      pop\n      swap3\n      pop\n      pop\n      0xffffffffffffffff\n      dup2\n      gt\n      tag_66\n      jumpi\n      dup6\n      mstore\n      dup3\n      swap2\n      dup5\n      swap2\n      0x00\n      swap1\n      dup2\n        /* \"src/Contract Architecture/Core Infrastructure/WalletManager.sol\":3814:3850  IUserVault(vault).initialize(owner_) */\n      jump(tag_63)\n        /* \"src/Contract Architecture/Core Infrastructure/WalletManager.sol\":1034:5955  contract WalletManager is Ownable {... */\n    tag_66:\n      0x41\n      dup3\n      mstore(0x00, shl(0xe0, 0x4e487b71))\n      mstore\n      revert(0x00, 0x24)\n        /* \"src/Contract Architecture/Core Infrastructure/WalletManager.sol\":3814:3850  IUserVault(vault).initialize(owner_) */\n    tag_60:\n        /* \"src/Contract Architecture/Core Infrastructure/WalletManager.sol\":1034:5955  contract WalletManager is Ownable {... */\n      dup8\n      mload\n      returndatasize\n      0x00\n      dup3\n      returndatacopy\n      returndatasize\n      swap1\n      revert\n        /* \"src/Contract Architecture/Core Infrastructure/WalletManager.sol\":3814:3850  IUserVault(vault).initialize(owner_) */\n    tag_58:\n        /* \"src/Contract Architecture/Core Infrastructure/WalletManager.sol\":1034:5955  contract WalletManager is Ownable {... */\n      0x00\n      dup1\n      revert\n        /* \"@openzeppelin/contracts/proxy/Clones.sol\":3074:3159  if (instance == address(0)) {... */\n    tag_56:\n        /* \"src/Contract Architecture/Core Infrastructure/WalletManager.sol\":1034:5955  contract WalletManager is Ownable {... */\n      dup6\n      mload\n      shl(0xe0, 0xb06ebf3d)\n        /* \"@openzeppelin/contracts/proxy/Clones.sol\":3123:3148  Errors.FailedDeployment() */\n      dup2\n      mstore\n      revert\n        /* \"src/Contract Architecture/Core Infrastructure/WalletManager.sol\":3586:3660  if (fid_ != 0 && fidToOwner[fid_] != address(0)) revert FidAlreadyLinked() */\n    tag_54:\n        /* \"src/Contract Architecture/Core Infrastructure/WalletManager.sol\":1034:5955  contract WalletManager is Ownable {... */\n      dup7\n      mload\n      shl(0xe3, 0x1f2c68c1)\n        /* \"src/Contract Architecture/Core Infrastructure/WalletManager.sol\":3642:3660  FidAlreadyLinked() */\n      dup2\n      mstore\n        /* \"src/Contract Architecture/Core Infrastructure/WalletManager.sol\":1034:5955  contract WalletManager is Ownable {... */\n      dup9\n      swap1\n        /* \"src/Contract Architecture/Core Infrastructure/WalletManager.sol\":3642:3660  FidAlreadyLinked() */\n      revert\n        /* \"src/Contract Architecture/Core Infrastructure/WalletManager.sol\":3590:3633  fid_ != 0 && fidToOwner[fid_] != address(0) */\n    tag_52:\n        /* \"src/Contract Architecture/Core Infrastructure/WalletManager.sol\":1034:5955  contract WalletManager is Ownable {... */\n      pop\n      dup6\n      0x00\n      mstore\n        /* \"src/Contract Architecture/Core Infrastructure/WalletManager.sol\":3603:3613  fidToOwner */\n      0x03\n        /* \"src/Contract Architecture/Core Infrastructure/WalletManager.sol\":1034:5955  contract WalletManager is Ownable {... */\n      dup10\n      mstore\n      dup2\n      dup8\n      0x00\n      keccak256\n      sload\n      and\n        /* \"src/Contract Architecture/Core Infrastructure/WalletManager.sol\":3603:3633  fidToOwner[fid_] != address(0) */\n      iszero\n      iszero\n        /* \"src/Contract Architecture/Core Infrastructure/WalletManager.sol\":3590:3633  fid_ != 0 && fidToOwner[fid_] != address(0) */\n      jump(tag_53)\n        /* \"src/Contract Architecture/Core Infrastructure/WalletManager.sol\":3512:3576  if (ownerToVault[owner_] != address(0)) revert AlreadyHasVault() */\n    tag_50:\n        /* \"src/Contract Architecture/Core Infrastructure/WalletManager.sol\":1034:5955  contract WalletManager is Ownable {... */\n      dup6\n      mload\n      shl(0xe0, 0x4f109875)\n        /* \"src/Contract Architecture/Core Infrastructure/WalletManager.sol\":3559:3576  AlreadyHasVault() */\n      dup2\n      mstore\n        /* \"src/Contract Architecture/Core Infrastructure/WalletManager.sol\":1034:5955  contract WalletManager is Ownable {... */\n      dup8\n      swap1\n        /* \"src/Contract Architecture/Core Infrastructure/WalletManager.sol\":3559:3576  AlreadyHasVault() */\n      revert\n        /* \"src/Contract Architecture/Core Infrastructure/WalletManager.sol\":3456:3502  if (owner_ == address(0)) revert ZeroAddress() */\n    tag_48:\n        /* \"src/Contract Architecture/Core Infrastructure/WalletManager.sol\":1034:5955  contract WalletManager is Ownable {... */\n      dup5\n      mload\n      shl(0xe0, 0xd92e233d)\n        /* \"src/Contract Architecture/Core Infrastructure/WalletManager.sol\":3489:3502  ZeroAddress() */\n      dup2\n      mstore\n        /* \"src/Contract Architecture/Core Infrastructure/WalletManager.sol\":1034:5955  contract WalletManager is Ownable {... */\n      dup7\n      swap1\n        /* \"src/Contract Architecture/Core Infrastructure/WalletManager.sol\":3489:3502  ZeroAddress() */\n      revert\n        /* \"src/Contract Architecture/Core Infrastructure/WalletManager.sol\":3374:3446  if (userVaultImplementation == address(0)) revert ImplementationNotSet() */\n    tag_46:\n        /* \"src/Contract Architecture/Core Infrastructure/WalletManager.sol\":1034:5955  contract WalletManager is Ownable {... */\n      dup5\n      mload\n      shl(0xe0, 0x40dde935)\n        /* \"src/Contract Architecture/Core Infrastructure/WalletManager.sol\":3424:3446  ImplementationNotSet() */\n      dup2\n      mstore\n        /* \"src/Contract Architecture/Core Infrastructure/WalletManager.sol\":1034:5955  contract WalletManager is Ownable {... */\n      dup7\n      swap1\n        /* \"src/Contract Architecture/Core Infrastructure/WalletManager.sol\":3424:3446  ImplementationNotSet() */\n      revert\n        /* \"src/Contract Architecture/Core Infrastructure/WalletManager.sol\":1034:5955  contract WalletManager is Ownable {... */\n    tag_27:\n      pop\n      swap1\n      jumpi(tag_58, callvalue)\n      jumpi(tag_58, slt(add(not(0x03), calldatasize), 0x20))\n      0x20\n      swap2\n      sub(shl(0xa0, 0x01), 0x01)\n      tag_72\n      tag_1\n      jump\t// in\n    tag_72:\n      and\n      0x00\n      mstore\n      dup3\n      mstore\n      dup1\n      0x00\n      keccak256\n      sload\n      swap1\n      mload\n      swap1\n      dup2\n      mstore\n      return\n    tag_25:\n      pop\n      swap1\n      jumpi(tag_58, callvalue)\n      jumpi(tag_58, slt(add(not(0x03), calldatasize), 0x20))\n      0x20\n      swap2\n      calldataload\n      0x00\n      mstore\n        /* \"src/Contract Architecture/Core Infrastructure/WalletManager.sol\":1377:1422  mapping(uint256 => address) public fidToOwner */\n      0x03\n        /* \"src/Contract Architecture/Core Infrastructure/WalletManager.sol\":1034:5955  contract WalletManager is Ownable {... */\n      dup3\n      mstore\n      0x01\n      dup1\n      0xa0\n      shl\n      sub\n      dup2\n      0x00\n      keccak256\n      sload\n      and\n      swap1\n      mload\n      swap1\n      dup2\n      mstore\n      return\n    tag_23:\n      dup3\n      jumpi(tag_58, callvalue)\n      jumpi(tag_58, slt(add(not(0x03), calldatasize), 0x00))\n      sload(0x01)\n      swap1\n      mload\n      sub(shl(0xa0, 0x01), 0x01)\n      swap1\n      swap2\n      and\n      dup2\n      mstore\n      0x20\n      swap1\n      return\n    tag_21:\n      dup3\n      jumpi(tag_58, callvalue)\n      jumpi(tag_58, slt(add(not(0x03), calldatasize), 0x00))\n      sload(0x00)\n      swap1\n      mload\n      sub(shl(0xa0, 0x01), 0x01)\n      swap1\n      swap2\n      and\n      dup2\n      mstore\n      0x20\n      swap1\n      return\n    tag_19:\n      pop\n      swap1\n      jumpi(tag_58, callvalue)\n      jumpi(tag_58, slt(add(not(0x03), calldatasize), 0x20))\n      dup2\n      calldataload\n      0x00\n      swap1\n      dup2\n      mstore\n        /* \"src/Contract Architecture/Core Infrastructure/WalletManager.sol\":5778:5788  fidToOwner */\n      0x03\n        /* \"src/Contract Architecture/Core Infrastructure/WalletManager.sol\":1034:5955  contract WalletManager is Ownable {... */\n      0x20\n      mstore\n      dup2\n      swap1\n      keccak256\n      sload\n      sub(shl(0xa0, 0x01), 0x01)\n      swap1\n      dup2\n      and\n        /* \"src/Contract Architecture/Core Infrastructure/WalletManager.sol\":5808:5828  owner_ == address(0) */\n      dup1\n      iszero\n        /* \"src/Contract Architecture/Core Infrastructure/WalletManager.sol\":5804:5851  if (owner_ == address(0)) revert FidNotLinked() */\n      tag_89\n      jumpi\n        /* \"src/Contract Architecture/Core Infrastructure/WalletManager.sol\":1034:5955  contract WalletManager is Ownable {... */\n      0x00\n      mstore\n        /* \"src/Contract Architecture/Core Infrastructure/WalletManager.sol\":5869:5881  ownerToVault */\n      0x02\n        /* \"src/Contract Architecture/Core Infrastructure/WalletManager.sol\":1034:5955  contract WalletManager is Ownable {... */\n      0x20\n      mstore\n      dup2\n      0x00\n      keccak256\n      sload\n      and\n        /* \"src/Contract Architecture/Core Infrastructure/WalletManager.sol\":5903:5922  vault == address(0) */\n      swap1\n      dup2\n      iszero\n        /* \"src/Contract Architecture/Core Infrastructure/WalletManager.sol\":5899:5946  if (vault == address(0)) revert VaultNotFound() */\n      tag_91\n      jumpi\n        /* \"src/Contract Architecture/Core Infrastructure/WalletManager.sol\":1034:5955  contract WalletManager is Ownable {... */\n      0x20\n      swap3\n      pop\n      mload\n      swap1\n      dup2\n      mstore\n      return\n        /* \"src/Contract Architecture/Core Infrastructure/WalletManager.sol\":5899:5946  if (vault == address(0)) revert VaultNotFound() */\n    tag_91:\n        /* \"src/Contract Architecture/Core Infrastructure/WalletManager.sol\":1034:5955  contract WalletManager is Ownable {... */\n      mload\n      shl(0xe0, 0xdee790fb)\n        /* \"src/Contract Architecture/Core Infrastructure/WalletManager.sol\":5931:5946  VaultNotFound() */\n      dup2\n      mstore\n        /* \"src/Contract Architecture/Core Infrastructure/WalletManager.sol\":1034:5955  contract WalletManager is Ownable {... */\n      swap1\n      pop\n        /* \"src/Contract Architecture/Core Infrastructure/WalletManager.sol\":5931:5946  VaultNotFound() */\n      revert\n        /* \"src/Contract Architecture/Core Infrastructure/WalletManager.sol\":5804:5851  if (owner_ == address(0)) revert FidNotLinked() */\n    tag_89:\n      pop\n      pop\n        /* \"src/Contract Architecture/Core Infrastructure/WalletManager.sol\":1034:5955  contract WalletManager is Ownable {... */\n      mload\n      shl(0xe1, 0x7a93adf7)\n        /* \"src/Contract Architecture/Core Infrastructure/WalletManager.sol\":5837:5851  FidNotLinked() */\n      dup2\n      mstore\n      revert\n        /* \"src/Contract Architecture/Core Infrastructure/WalletManager.sol\":1034:5955  contract WalletManager is Ownable {... */\n    tag_17:\n      pop\n      swap1\n      jumpi(tag_58, callvalue)\n      jumpi(tag_58, slt(add(not(0x03), calldatasize), 0x00))\n        /* \"src/Contract Architecture/Core Infrastructure/WalletManager.sol\":4901:4911  msg.sender */\n      caller\n        /* \"src/Contract Architecture/Core Infrastructure/WalletManager.sol\":1034:5955  contract WalletManager is Ownable {... */\n      0x00\n      mstore\n      dup2\n      0x20\n      mstore\n      dup1\n      0x00\n      keccak256\n      sload\n        /* \"src/Contract Architecture/Core Infrastructure/WalletManager.sol\":4926:4939  existing == 0 */\n      swap2\n      dup3\n      iszero\n        /* \"src/Contract Architecture/Core Infrastructure/WalletManager.sol\":4922:4962  if (existing == 0) revert FidNotLinked() */\n      tag_97\n      jumpi\n        /* \"src/Contract Architecture/Core Infrastructure/WalletManager.sol\":1034:5955  contract WalletManager is Ownable {... */\n      swap1\n      0x00\n      swap2\n      dup4\n      dup4\n      mstore\n        /* \"src/Contract Architecture/Core Infrastructure/WalletManager.sol\":5011:5021  fidToOwner */\n      0x03\n        /* \"src/Contract Architecture/Core Infrastructure/WalletManager.sol\":1034:5955  contract WalletManager is Ownable {... */\n      0x20\n      mstore\n      dup2\n      dup4\n      keccak256\n      shl(0xa0, sub(shl(0x60, 0x01), 0x01))\n      dup2\n      sload\n      and\n      swap1\n      sstore\n        /* \"src/Contract Architecture/Core Infrastructure/WalletManager.sol\":4901:4911  msg.sender */\n      caller\n        /* \"src/Contract Architecture/Core Infrastructure/WalletManager.sol\":1034:5955  contract WalletManager is Ownable {... */\n      dup4\n      mstore\n      0x20\n      mstore\n      dup2\n      keccak256\n      sstore\n        /* \"src/Contract Architecture/Core Infrastructure/WalletManager.sol\":4901:4911  msg.sender */\n      caller\n        /* \"src/Contract Architecture/Core Infrastructure/WalletManager.sol\":5086:5119  FidUnlinked(existing, msg.sender) */\n      swap1\n      0xafa425487c9afa00a971354b7196fe3cfcda1835bf4c2a1027b6f21f28889762\n        /* \"src/Contract Architecture/Core Infrastructure/WalletManager.sol\":1034:5955  contract WalletManager is Ownable {... */\n      0x00\n        /* \"src/Contract Architecture/Core Infrastructure/WalletManager.sol\":5086:5119  FidUnlinked(existing, msg.sender) */\n      dup1\n      log3\n        /* \"src/Contract Architecture/Core Infrastructure/WalletManager.sol\":1034:5955  contract WalletManager is Ownable {... */\n      stop\n        /* \"src/Contract Architecture/Core Infrastructure/WalletManager.sol\":4922:4962  if (existing == 0) revert FidNotLinked() */\n    tag_97:\n        /* \"src/Contract Architecture/Core Infrastructure/WalletManager.sol\":1034:5955  contract WalletManager is Ownable {... */\n      swap1\n      mload\n      shl(0xe1, 0x7a93adf7)\n        /* \"src/Contract Architecture/Core Infrastructure/WalletManager.sol\":4948:4962  FidNotLinked() */\n      dup2\n      mstore\n      revert\n        /* \"src/Contract Architecture/Core Infrastructure/WalletManager.sol\":1034:5955  contract WalletManager is Ownable {... */\n    tag_13:\n      jumpi(tag_58, callvalue)\n      jumpi(tag_58, slt(add(not(0x03), calldatasize), 0x00))\n        /* \"@openzeppelin/contracts/access/Ownable.sol\":1500:1562  modifier onlyOwner() {... */\n      tag_107\n      tag_2\n      jump\t// in\n    tag_107:\n        /* \"src/Contract Architecture/Core Infrastructure/WalletManager.sol\":1034:5955  contract WalletManager is Ownable {... */\n      0x00\n      dup1\n      sload\n      not(sub(shl(0xa0, 0x01), 0x01))\n      dup2\n      and\n      dup3\n      sstore\n      sub(shl(0xa0, 0x01), 0x01)\n      and\n        /* \"@openzeppelin/contracts/access/Ownable.sol\":3052:3092  OwnershipTransferred(oldOwner, newOwner) */\n      0x8be0079c531659141344cd1fd0a4f28419497f9722a3daafe3b4186f6b6457e0\n        /* \"src/Contract Architecture/Core Infrastructure/WalletManager.sol\":1034:5955  contract WalletManager is Ownable {... */\n      dup3\n      dup1\n        /* \"@openzeppelin/contracts/access/Ownable.sol\":3052:3092  OwnershipTransferred(oldOwner, newOwner) */\n      log3\n        /* \"src/Contract Architecture/Core Infrastructure/WalletManager.sol\":1034:5955  contract WalletManager is Ownable {... */\n      stop\n    tag_11:\n      dup3\n      jumpi(tag_58, callvalue)\n      jumpi(tag_58, slt(add(not(0x03), calldatasize), 0x20))\n      0x20\n      swap1\n      sub(shl(0xa0, 0x01), 0x01)\n      dup1\n      tag_112\n      tag_1\n      jump\t// in\n    tag_112:\n      and\n      0x00\n      mstore\n        /* \"src/Contract Architecture/Core Infrastructure/WalletManager.sol\":1269:1316  mapping(address => address) public ownerToVault */\n      0x02\n        /* \"src/Contract Architecture/Core Infrastructure/WalletManager.sol\":1034:5955  contract WalletManager is Ownable {... */\n      dup4\n      mstore\n      dup2\n      0x00\n      keccak256\n      sload\n      and\n      swap1\n      mload\n      swap1\n      dup2\n      mstore\n      return\n    tag_9:\n      pop\n      jumpi(tag_58, callvalue)\n      jumpi(tag_58, slt(add(not(0x03), calldatasize), 0x20))\n      tag_117\n      tag_1\n      jump\t// in\n    tag_117:\n        /* \"@openzeppelin/contracts/access/Ownable.sol\":1500:1562  modifier onlyOwner() {... */\n      tag_118\n      tag_2\n      jump\t// in\n    tag_118:\n      sub(shl(0xa0, 0x01), 0x01)\n        /* \"src/Contract Architecture/Core Infrastructure/WalletManager.sol\":1034:5955  contract WalletManager is Ownable {... */\n      and\n      swap2\n        /* \"src/Contract Architecture/Core Infrastructure/WalletManager.sol\":2651:2680  _implementation == address(0) */\n      dup3\n      iszero\n        /* \"src/Contract Architecture/Core Infrastructure/WalletManager.sol\":2647:2702  if (_implementation == address(0)) revert ZeroAddress() */\n      tag_119\n      jumpi\n        /* \"src/Contract Architecture/Core Infrastructure/WalletManager.sol\":2712:2753  userVaultImplementation = _implementation */\n      0x01\n        /* \"src/Contract Architecture/Core Infrastructure/WalletManager.sol\":1034:5955  contract WalletManager is Ownable {... */\n      dup1\n      sload\n      not(sub(shl(0xa0, 0x01), 0x01))\n      and\n      dup5\n      or\n      swap1\n      sstore\n      dup3\n        /* \"src/Contract Architecture/Core Infrastructure/WalletManager.sol\":2768:2815  UserVaultImplementationUpdated(_implementation) */\n      0xb3113c226e7a2d90bb0324c2c6af9fc8f012eb7a61f4004619548b54acf2eb04\n      0x00\n      dup1\n      log2\n        /* \"src/Contract Architecture/Core Infrastructure/WalletManager.sol\":1034:5955  contract WalletManager is Ownable {... */\n      stop\n        /* \"src/Contract Architecture/Core Infrastructure/WalletManager.sol\":2647:2702  if (_implementation == address(0)) revert ZeroAddress() */\n    tag_119:\n        /* \"src/Contract Architecture/Core Infrastructure/WalletManager.sol\":1034:5955  contract WalletManager is Ownable {... */\n      mload\n      shl(0xe0, 0xd92e233d)\n        /* \"src/Contract Architecture/Core Infrastructure/WalletManager.sol\":2689:2702  ZeroAddress() */\n      dup2\n      mstore\n      revert\n        /* \"src/Contract Architecture/Core Infrastructure/WalletManager.sol\":1034:5955  contract WalletManager is Ownable {... */\n    tag_7:\n      pop\n      swap1\n      jumpi(tag_58, callvalue)\n      jumpi(tag_58, slt(add(not(0x03), calldatasize), 0x20))\n      dup2\n      calldataload\n        /* \"src/Contract Architecture/Core Infrastructure/WalletManager.sol\":4440:4449  fid_ == 0 */\n      swap1\n      dup2\n      iszero\n        /* \"src/Contract Architecture/Core Infrastructure/WalletManager.sol\":4436:4472  if (fid_ == 0) revert FidNotLinked() */\n      tag_125\n      jumpi\n        /* \"src/Contract Architecture/Core Infrastructure/WalletManager.sol\":1034:5955  contract WalletManager is Ownable {... */\n      0x00\n      dup3\n      dup2\n      mstore\n        /* \"src/Contract Architecture/Core Infrastructure/WalletManager.sol\":4486:4496  fidToOwner */\n      0x03\n        /* \"src/Contract Architecture/Core Infrastructure/WalletManager.sol\":1034:5955  contract WalletManager is Ownable {... */\n      0x20\n      mstore\n      dup2\n      swap1\n      keccak256\n      sload\n      sub(shl(0xa0, 0x01), 0x01)\n      and\n        /* \"src/Contract Architecture/Core Infrastructure/WalletManager.sol\":4482:4543  if (fidToOwner[fid_] != address(0)) revert FidAlreadyLinked() */\n      tag_127\n      jumpi\n        /* \"src/Contract Architecture/Core Infrastructure/WalletManager.sol\":4568:4578  msg.sender */\n      caller\n        /* \"src/Contract Architecture/Core Infrastructure/WalletManager.sol\":1034:5955  contract WalletManager is Ownable {... */\n      0x00\n      mstore\n      dup3\n      0x20\n      mstore\n      dup1\n      0x00\n      keccak256\n      sload\n        /* \"src/Contract Architecture/Core Infrastructure/WalletManager.sol\":4553:4613  if (ownerToFid[msg.sender] != 0) revert OwnerAlreadyLinked() */\n      tag_129\n      jumpi\n        /* \"src/Contract Architecture/Core Infrastructure/WalletManager.sol\":1034:5955  contract WalletManager is Ownable {... */\n      dup2\n      swap3\n      dup3\n      0x00\n      mstore\n        /* \"src/Contract Architecture/Core Infrastructure/WalletManager.sol\":4486:4496  fidToOwner */\n      0x03\n        /* \"src/Contract Architecture/Core Infrastructure/WalletManager.sol\":1034:5955  contract WalletManager is Ownable {... */\n      0x20\n      mstore\n      dup2\n      0x00\n      keccak256\n        /* \"src/Contract Architecture/Core Infrastructure/WalletManager.sol\":4568:4578  msg.sender */\n      caller\n      sub(shl(0x60, 0x01), 0x01)\n        /* \"src/Contract Architecture/Core Infrastructure/WalletManager.sol\":1034:5955  contract WalletManager is Ownable {... */\n      0xa0\n      shl\n      dup3\n      sload\n      and\n      or\n      swap1\n      sstore\n        /* \"src/Contract Architecture/Core Infrastructure/WalletManager.sol\":4568:4578  msg.sender */\n      caller\n        /* \"src/Contract Architecture/Core Infrastructure/WalletManager.sol\":1034:5955  contract WalletManager is Ownable {... */\n      0x00\n      mstore\n      0x20\n      mstore\n      0x00\n      keccak256\n      sstore\n        /* \"src/Contract Architecture/Core Infrastructure/WalletManager.sol\":4568:4578  msg.sender */\n      caller\n        /* \"src/Contract Architecture/Core Infrastructure/WalletManager.sol\":4707:4734  FidLinked(fid_, msg.sender) */\n      swap1\n      0x352813b8d042518a94ed321d9dc289e197f2c4808f289e723bb13e59559f1633\n        /* \"src/Contract Architecture/Core Infrastructure/WalletManager.sol\":1034:5955  contract WalletManager is Ownable {... */\n      0x00\n        /* \"src/Contract Architecture/Core Infrastructure/WalletManager.sol\":4707:4734  FidLinked(fid_, msg.sender) */\n      dup1\n      log3\n        /* \"src/Contract Architecture/Core Infrastructure/WalletManager.sol\":1034:5955  contract WalletManager is Ownable {... */\n      stop\n        /* \"src/Contract Architecture/Core Infrastructure/WalletManager.sol\":4553:4613  if (ownerToFid[msg.sender] != 0) revert OwnerAlreadyLinked() */\n    tag_129:\n        /* \"src/Contract Architecture/Core Infrastructure/WalletManager.sol\":1034:5955  contract WalletManager is Ownable {... */\n      mload\n      shl(0xe2, 0x34b3fb37)\n        /* \"src/Contract Architecture/Core Infrastructure/WalletManager.sol\":4593:4613  OwnerAlreadyLinked() */\n      dup2\n      mstore\n        /* \"src/Contract Architecture/Core Infrastructure/WalletManager.sol\":1034:5955  contract WalletManager is Ownable {... */\n      swap1\n      pop\n        /* \"src/Contract Architecture/Core Infrastructure/WalletManager.sol\":4593:4613  OwnerAlreadyLinked() */\n      revert\n        /* \"src/Contract Architecture/Core Infrastructure/WalletManager.sol\":4482:4543  if (fidToOwner[fid_] != address(0)) revert FidAlreadyLinked() */\n    tag_127:\n        /* \"src/Contract Architecture/Core Infrastructure/WalletManager.sol\":1034:5955  contract WalletManager is Ownable {... */\n      mload\n      shl(0xe3, 0x1f2c68c1)\n        /* \"src/Contract Architecture/Core Infrastructure/WalletManager.sol\":4525:4543  FidAlreadyLinked() */\n      dup2\n      mstore\n        /* \"src/Contract Architecture/Core Infrastructure/WalletManager.sol\":1034:5955  contract WalletManager is Ownable {... */\n      swap1\n      pop\n        /* \"src/Contract Architecture/Core Infrastructure/WalletManager.sol\":4525:4543  FidAlreadyLinked() */\n      revert\n        /* \"src/Contract Architecture/Core Infrastructure/WalletManager.sol\":4436:4472  if (fid_ == 0) revert FidNotLinked() */\n    tag_125:\n        /* \"src/Contract Architecture/Core Infrastructure/WalletManager.sol\":1034:5955  contract WalletManager is Ownable {... */\n      mload\n      shl(0xe1, 0x7a93adf7)\n        /* \"src/Contract Architecture/Core Infrastructure/WalletManager.sol\":4458:4472  FidNotLinked() */\n      dup2\n      mstore\n        /* \"src/Contract Architecture/Core Infrastructure/WalletManager.sol\":1034:5955  contract WalletManager is Ownable {... */\n      swap1\n      pop\n        /* \"src/Contract Architecture/Core Infrastructure/WalletManager.sol\":4458:4472  FidNotLinked() */\n      revert\n        /* \"src/Contract Architecture/Core Infrastructure/WalletManager.sol\":1034:5955  contract WalletManager is Ownable {... */\n    tag_5:\n      swap1\n      pop\n      dup3\n      jumpi(tag_58, callvalue)\n      jumpi(tag_58, slt(add(not(0x03), calldatasize), 0x20))\n      sub(shl(0xa0, 0x01), 0x01)\n      dup1\n      tag_135\n      tag_1\n      jump\t// in\n    tag_135:\n      and\n      0x00\n      mstore\n        /* \"src/Contract Architecture/Core Infrastructure/WalletManager.sol\":5318:5330  ownerToVault */\n      0x02\n        /* \"src/Contract Architecture/Core Infrastructure/WalletManager.sol\":1034:5955  contract WalletManager is Ownable {... */\n      0x20\n      mstore\n      dup2\n      0x00\n      keccak256\n      sload\n      and\n        /* \"src/Contract Architecture/Core Infrastructure/WalletManager.sol\":5352:5371  vault == address(0) */\n      swap2\n      dup3\n      iszero\n        /* \"src/Contract Architecture/Core Infrastructure/WalletManager.sol\":5348:5395  if (vault == address(0)) revert VaultNotFound() */\n      tag_136\n      jumpi\n        /* \"src/Contract Architecture/Core Infrastructure/WalletManager.sol\":1034:5955  contract WalletManager is Ownable {... */\n      0x20\n      dup4\n      dup4\n      mload\n      swap1\n      dup2\n      mstore\n      return\n        /* \"src/Contract Architecture/Core Infrastructure/WalletManager.sol\":5348:5395  if (vault == address(0)) revert VaultNotFound() */\n    tag_136:\n      shl(0xe0, 0xdee790fb)\n        /* \"src/Contract Architecture/Core Infrastructure/WalletManager.sol\":5380:5395  VaultNotFound() */\n      dup2\n      mstore\n      dup4\n      swap1\n      revert\n        /* \"src/Contract Architecture/Core Infrastructure/WalletManager.sol\":1034:5955  contract WalletManager is Ownable {... */\n    tag_1:\n      calldataload(0x04)\n      swap1\n      sub(shl(0xa0, 0x01), 0x01)\n      dup3\n      and\n      dup3\n      sub\n      tag_58\n      jumpi\n      jump\t// out\n        /* \"@openzeppelin/contracts/access/Ownable.sol\":1796:1958  function _checkOwner() internal view virtual {... */\n    tag_2:\n        /* \"@openzeppelin/contracts/access/Ownable.sol\":1710:1716  _owner */\n      0x00\n        /* \"src/Contract Architecture/Core Infrastructure/WalletManager.sol\":1034:5955  contract WalletManager is Ownable {... */\n      sload\n      sub(shl(0xa0, 0x01), 0x01)\n      and\n        /* \"@openzeppelin/contracts/utils/Context.sol\":735:745  msg.sender */\n      caller\n        /* \"@openzeppelin/contracts/access/Ownable.sol\":1855:1878  owner() != _msgSender() */\n      sub\n        /* \"@openzeppelin/contracts/access/Ownable.sol\":1851:1952  if (owner() != _msgSender()) {... */\n      tag_140\n      jumpi\n        /* \"@openzeppelin/contracts/access/Ownable.sol\":1796:1958  function _checkOwner() internal view virtual {... */\n      jump\t// out\n        /* \"@openzeppelin/contracts/access/Ownable.sol\":1851:1952  if (owner() != _msgSender()) {... */\n    tag_140:\n        /* \"src/Contract Architecture/Core Infrastructure/WalletManager.sol\":1034:5955  contract WalletManager is Ownable {... */\n      mload(0x40)\n      shl(0xe0, 0x118cdaa7)\n        /* \"@openzeppelin/contracts/access/Ownable.sol\":1901:1941  OwnableUnauthorizedAccount(_msgSender()) */\n      dup2\n      mstore\n        /* \"@openzeppelin/contracts/utils/Context.sol\":735:745  msg.sender */\n      caller\n        /* \"@openzeppelin/contracts/access/Ownable.sol\":1901:1941  OwnableUnauthorizedAccount(_msgSender()) */\n      0x04\n      dup3\n      add\n        /* \"src/Contract Architecture/Core Infrastructure/WalletManager.sol\":1034:5955  contract WalletManager is Ownable {... */\n      mstore\n      0x24\n      swap1\n        /* \"@openzeppelin/contracts/access/Ownable.sol\":1901:1941  OwnableUnauthorizedAccount(_msgSender()) */\n      revert\n\n    auxdata: 0xa26469706673582212208db929761920a0a2933ab2c3c92587cde191efe0ed9237bafd01f6050378816f64736f6c63430008180033\n}\n",
				"bytecode": {
					"linkReferences": {},
					"object": "60803461010157601f6108ce38819003918201601f19168301916001600160401b038311848410176101055780849260209460405283398101031261010157516001600160a01b0390818116908190036101015733156100e9575f5460018060a01b03199033828216175f55604051933391167f8be0079c531659141344cd1fd0a4f28419497f9722a3daafe3b4186f6b6457e05f80a381156100da5781906001541617600155604051907fb3113c226e7a2d90bb0324c2c6af9fc8f012eb7a61f4004619548b54acf2eb045f80a26107b4908161011a8239f35b63d92e233d60e01b8352600483fd5b604051631e4fbdf760e01b81525f6004820152602490fd5b5f80fd5b634e487b7160e01b5f52604160045260245ffdfe60806040818152600480361015610014575f80fd5b5f925f3560e01c9081630eb9af38146106ec575080631c5765751461062a57806335598a02146105b25780635cf2598114610579578063715018a6146105225780637b9cf4f3146103b4578063820b3d53146104a15780638a62bb16146104335780638da5cb5b1461040c578063a6e7d83f146103e4578063c8b6a983146103b4578063e2cc3d2f1461037e578063f247d217146101455763f2fde38b146100ba575f80fd5b34610141576020366003190112610141576100d361073d565b906100dc610753565b6001600160a01b0391821692831561012b5750505f54826001600160601b0360a01b8216175f55167f8be0079c531659141344cd1fd0a4f28419497f9722a3daafe3b4186f6b6457e05f80a380f35b51631e4fbdf760e01b8152908101849052602490fd5b8280fd5b50903461031757806003193601126103175761015f61073d565b6001546001600160a01b0394602435929091908682161561036e57861691821561035e57825f526020966002885280865f20541661034e57841515928380610339575b6103295780763d602d80600a3d3981f3363d3d373d3d3d363d7300000062ffffff6e5af43d82803e903d91602b57fd5bf39360881c16175f526effffffffffffffffffffffffffffff199060781b16178852603760095ff01695861561031b57863b1561031757855163189acdbd60e31b81528181018590525f81602481838c5af1801561030d57918693918695936102d7575b5084825260028a5287822080546001600160a01b03199081168b179091559261028d575b50505050507f4a3920ce64f1f4f94c7d183cc35de5df87c9b0b30de1c886f490b495cb8791c8858451868152a351908152f35b7f352813b8d042518a94ed321d9dc289e197f2c4808f289e723bb13e59559f16339284835260038b5285898420918254161790558482528952828782205580a380825f808061025a565b92945092505067ffffffffffffffff81116102fa578552829184915f9081610236565b604182634e487b7160e01b5f525260245ffd5b87513d5f823e3d90fd5b5f80fd5b855163b06ebf3d60e01b8152fd5b8651631f2c68c160e31b81528890fd5b50855f526003895281875f20541615156101a2565b8551634f10987560e01b81528790fd5b845163d92e233d60e01b81528690fd5b84516340dde93560e01b81528690fd5b509034610317576020366003190112610317576020916001600160a01b036103a461073d565b165f528252805f20549051908152f35b50903461031757602036600319011261031757602091355f526003825260018060a01b03815f2054169051908152f35b8234610317575f3660031901126103175760015490516001600160a01b039091168152602090f35b8234610317575f366003190112610317575f5490516001600160a01b039091168152602090f35b5090346103175760203660031901126103175781355f9081526003602052819020546001600160a01b039081168015610492575f526002602052815f205416908115610483576020925051908152f35b5163dee790fb60e01b81529050fd5b505051637a93adf760e11b8152fd5b509034610317575f36600319011261031757335f5281602052805f205491821561051457905f9183835260036020528183206001600160601b0360a01b815416905533835260205281205533907fafa425487c9afa00a971354b7196fe3cfcda1835bf4c2a1027b6f21f288897625f80a3005b9051637a93adf760e11b8152fd5b34610317575f3660031901126103175761053a610753565b5f80546001600160a01b0319811682556001600160a01b03167f8be0079c531659141344cd1fd0a4f28419497f9722a3daafe3b4186f6b6457e08280a3005b8234610317576020366003190112610317576020906001600160a01b038061059f61073d565b165f5260028352815f2054169051908152f35b5034610317576020366003190112610317576105cc61073d565b6105d4610753565b6001600160a01b031691821561061d57600180546001600160a01b03191684179055827fb3113c226e7a2d90bb0324c2c6af9fc8f012eb7a61f4004619548b54acf2eb045f80a2005b5163d92e233d60e01b8152fd5b5090346103175760203660031901126103175781359081156106dd575f8281526003602052819020546001600160a01b03166106ce57335f5282602052805f20546106bf578192825f526003602052815f20336001600160601b0360a01b825416179055335f526020525f205533907f352813b8d042518a94ed321d9dc289e197f2c4808f289e723bb13e59559f16335f80a3005b516334b3fb3760e21b81529050fd5b51631f2c68c160e31b81529050fd5b51637a93adf760e11b81529050fd5b90508234610317576020366003190112610317576001600160a01b038061071161073d565b165f526002602052815f20541691821561072f576020838351908152f35b63dee790fb60e01b81528390fd5b600435906001600160a01b038216820361031757565b5f546001600160a01b0316330361076657565b60405163118cdaa760e01b8152336004820152602490fdfea26469706673582212208db929761920a0a2933ab2c3c92587cde191efe0ed9237bafd01f6050378816f64736f6c63430008180033",
					"opcodes": "PUSH1 0x80 CALLVALUE PUSH2 0x101 JUMPI PUSH1 0x1F PUSH2 0x8CE CODESIZE DUP2 SWAP1 SUB SWAP2 DUP3 ADD PUSH1 0x1F NOT AND DUP4 ADD SWAP2 PUSH1 0x1 PUSH1 0x1 PUSH1 0x40 SHL SUB DUP4 GT DUP5 DUP5 LT OR PUSH2 0x105 JUMPI DUP1 DUP5 SWAP3 PUSH1 0x20 SWAP5 PUSH1 0x40 MSTORE DUP4 CODECOPY DUP2 ADD SUB SLT PUSH2 0x101 JUMPI MLOAD PUSH1 0x1 PUSH1 0x1 PUSH1 0xA0 SHL SUB SWAP1 DUP2 DUP2 AND SWAP1 DUP2 SWAP1 SUB PUSH2 0x101 JUMPI CALLER ISZERO PUSH2 0xE9 JUMPI PUSH0 SLOAD PUSH1 0x1 DUP1 PUSH1 0xA0 SHL SUB NOT SWAP1 CALLER DUP3 DUP3 AND OR PUSH0 SSTORE PUSH1 0x40 MLOAD SWAP4 CALLER SWAP2 AND PUSH32 0x8BE0079C531659141344CD1FD0A4F28419497F9722A3DAAFE3B4186F6B6457E0 PUSH0 DUP1 LOG3 DUP2 ISZERO PUSH2 0xDA JUMPI DUP2 SWAP1 PUSH1 0x1 SLOAD AND OR PUSH1 0x1 SSTORE PUSH1 0x40 MLOAD SWAP1 PUSH32 0xB3113C226E7A2D90BB0324C2C6AF9FC8F012EB7A61F4004619548B54ACF2EB04 PUSH0 DUP1 LOG2 PUSH2 0x7B4 SWAP1 DUP2 PUSH2 0x11A DUP3 CODECOPY RETURN JUMPDEST PUSH4 0xD92E233D PUSH1 0xE0 SHL DUP4 MSTORE PUSH1 0x4 DUP4 REVERT JUMPDEST PUSH1 0x40 MLOAD PUSH4 0x1E4FBDF7 PUSH1 0xE0 SHL DUP2 MSTORE PUSH0 PUSH1 0x4 DUP3 ADD MSTORE PUSH1 0x24 SWAP1 REVERT JUMPDEST PUSH0 DUP1 REVERT JUMPDEST PUSH4 0x4E487B71 PUSH1 0xE0 SHL PUSH0 MSTORE PUSH1 0x41 PUSH1 0x4 MSTORE PUSH1 0x24 PUSH0 REVERT INVALID PUSH1 0x80 PUSH1 0x40 DUP2 DUP2 MSTORE PUSH1 0x4 DUP1 CALLDATASIZE LT ISZERO PUSH2 0x14 JUMPI PUSH0 DUP1 REVERT JUMPDEST PUSH0 SWAP3 PUSH0 CALLDATALOAD PUSH1 0xE0 SHR SWAP1 DUP2 PUSH4 0xEB9AF38 EQ PUSH2 0x6EC JUMPI POP DUP1 PUSH4 0x1C576575 EQ PUSH2 0x62A JUMPI DUP1 PUSH4 0x35598A02 EQ PUSH2 0x5B2 JUMPI DUP1 PUSH4 0x5CF25981 EQ PUSH2 0x579 JUMPI DUP1 PUSH4 0x715018A6 EQ PUSH2 0x522 JUMPI DUP1 PUSH4 0x7B9CF4F3 EQ PUSH2 0x3B4 JUMPI DUP1 PUSH4 0x820B3D53 EQ PUSH2 0x4A1 JUMPI DUP1 PUSH4 0x8A62BB16 EQ PUSH2 0x433 JUMPI DUP1 PUSH4 0x8DA5CB5B EQ PUSH2 0x40C JUMPI DUP1 PUSH4 0xA6E7D83F EQ PUSH2 0x3E4 JUMPI DUP1 PUSH4 0xC8B6A983 EQ PUSH2 0x3B4 JUMPI DUP1 PUSH4 0xE2CC3D2F EQ PUSH2 0x37E JUMPI DUP1 PUSH4 0xF247D217 EQ PUSH2 0x145 JUMPI PUSH4 0xF2FDE38B EQ PUSH2 0xBA JUMPI PUSH0 DUP1 REVERT JUMPDEST CALLVALUE PUSH2 0x141 JUMPI PUSH1 0x20 CALLDATASIZE PUSH1 0x3 NOT ADD SLT PUSH2 0x141 JUMPI PUSH2 0xD3 PUSH2 0x73D JUMP JUMPDEST SWAP1 PUSH2 0xDC PUSH2 0x753 JUMP JUMPDEST PUSH1 0x1 PUSH1 0x1 PUSH1 0xA0 SHL SUB SWAP2 DUP3 AND SWAP3 DUP4 ISZERO PUSH2 0x12B JUMPI POP POP PUSH0 SLOAD DUP3 PUSH1 0x1 PUSH1 0x1 PUSH1 0x60 SHL SUB PUSH1 0xA0 SHL DUP3 AND OR PUSH0 SSTORE AND PUSH32 0x8BE0079C531659141344CD1FD0A4F28419497F9722A3DAAFE3B4186F6B6457E0 PUSH0 DUP1 LOG3 DUP1 RETURN JUMPDEST MLOAD PUSH4 0x1E4FBDF7 PUSH1 0xE0 SHL DUP2 MSTORE SWAP1 DUP2 ADD DUP5 SWAP1 MSTORE PUSH1 0x24 SWAP1 REVERT JUMPDEST DUP3 DUP1 REVERT JUMPDEST POP SWAP1 CALLVALUE PUSH2 0x317 JUMPI DUP1 PUSH1 0x3 NOT CALLDATASIZE ADD SLT PUSH2 0x317 JUMPI PUSH2 0x15F PUSH2 0x73D JUMP JUMPDEST PUSH1 0x1 SLOAD PUSH1 0x1 PUSH1 0x1 PUSH1 0xA0 SHL SUB SWAP5 PUSH1 0x24 CALLDATALOAD SWAP3 SWAP1 SWAP2 SWAP1 DUP7 DUP3 AND ISZERO PUSH2 0x36E JUMPI DUP7 AND SWAP2 DUP3 ISZERO PUSH2 0x35E JUMPI DUP3 PUSH0 MSTORE PUSH1 0x20 SWAP7 PUSH1 0x2 DUP9 MSTORE DUP1 DUP7 PUSH0 KECCAK256 SLOAD AND PUSH2 0x34E JUMPI DUP5 ISZERO ISZERO SWAP3 DUP4 DUP1 PUSH2 0x339 JUMPI JUMPDEST PUSH2 0x329 JUMPI DUP1 PUSH23 0x3D602D80600A3D3981F3363D3D373D3D3D363D73000000 PUSH3 0xFFFFFF PUSH15 0x5AF43D82803E903D91602B57FD5BF3 SWAP4 PUSH1 0x88 SHR AND OR PUSH0 MSTORE PUSH15 0xFFFFFFFFFFFFFFFFFFFFFFFFFFFFFF NOT SWAP1 PUSH1 0x78 SHL AND OR DUP9 MSTORE PUSH1 0x37 PUSH1 0x9 PUSH0 CREATE AND SWAP6 DUP7 ISZERO PUSH2 0x31B JUMPI DUP7 EXTCODESIZE ISZERO PUSH2 0x317 JUMPI DUP6 MLOAD PUSH4 0x189ACDBD PUSH1 0xE3 SHL DUP2 MSTORE DUP2 DUP2 ADD DUP6 SWAP1 MSTORE PUSH0 DUP2 PUSH1 0x24 DUP2 DUP4 DUP13 GAS CALL DUP1 ISZERO PUSH2 0x30D JUMPI SWAP2 DUP7 SWAP4 SWAP2 DUP7 SWAP6 SWAP4 PUSH2 0x2D7 JUMPI JUMPDEST POP DUP5 DUP3 MSTORE PUSH1 0x2 DUP11 MSTORE DUP8 DUP3 KECCAK256 DUP1 SLOAD PUSH1 0x1 PUSH1 0x1 PUSH1 0xA0 SHL SUB NOT SWAP1 DUP2 AND DUP12 OR SWAP1 SWAP2 SSTORE SWAP3 PUSH2 0x28D JUMPI JUMPDEST POP POP POP POP POP PUSH32 0x4A3920CE64F1F4F94C7D183CC35DE5DF87C9B0B30DE1C886F490B495CB8791C8 DUP6 DUP5 MLOAD DUP7 DUP2 MSTORE LOG3 MLOAD SWAP1 DUP2 MSTORE RETURN JUMPDEST PUSH32 0x352813B8D042518A94ED321D9DC289E197F2C4808F289E723BB13E59559F1633 SWAP3 DUP5 DUP4 MSTORE PUSH1 0x3 DUP12 MSTORE DUP6 DUP10 DUP5 KECCAK256 SWAP2 DUP3 SLOAD AND OR SWAP1 SSTORE DUP5 DUP3 MSTORE DUP10 MSTORE DUP3 DUP8 DUP3 KECCAK256 SSTORE DUP1 LOG3 DUP1 DUP3 PUSH0 DUP1 DUP1 PUSH2 0x25A JUMP JUMPDEST SWAP3 SWAP5 POP SWAP3 POP POP PUSH8 0xFFFFFFFFFFFFFFFF DUP2 GT PUSH2 0x2FA JUMPI DUP6 MSTORE DUP3 SWAP2 DUP5 SWAP2 PUSH0 SWAP1 DUP2 PUSH2 0x236 JUMP JUMPDEST PUSH1 0x41 DUP3 PUSH4 0x4E487B71 PUSH1 0xE0 SHL PUSH0 MSTORE MSTORE PUSH1 0x24 PUSH0 REVERT JUMPDEST DUP8 MLOAD RETURNDATASIZE PUSH0 DUP3 RETURNDATACOPY RETURNDATASIZE SWAP1 REVERT JUMPDEST PUSH0 DUP1 REVERT JUMPDEST DUP6 MLOAD PUSH4 0xB06EBF3D PUSH1 0xE0 SHL DUP2 MSTORE REVERT JUMPDEST DUP7 MLOAD PUSH4 0x1F2C68C1 PUSH1 0xE3 SHL DUP2 MSTORE DUP9 SWAP1 REVERT JUMPDEST POP DUP6 PUSH0 MSTORE PUSH1 0x3 DUP10 MSTORE DUP2 DUP8 PUSH0 KECCAK256 SLOAD AND ISZERO ISZERO PUSH2 0x1A2 JUMP JUMPDEST DUP6 MLOAD PUSH4 0x4F109875 PUSH1 0xE0 SHL DUP2 MSTORE DUP8 SWAP1 REVERT JUMPDEST DUP5 MLOAD PUSH4 0xD92E233D PUSH1 0xE0 SHL DUP2 MSTORE DUP7 SWAP1 REVERT JUMPDEST DUP5 MLOAD PUSH4 0x40DDE935 PUSH1 0xE0 SHL DUP2 MSTORE DUP7 SWAP1 REVERT JUMPDEST POP SWAP1 CALLVALUE PUSH2 0x317 JUMPI PUSH1 0x20 CALLDATASIZE PUSH1 0x3 NOT ADD SLT PUSH2 0x317 JUMPI PUSH1 0x20 SWAP2 PUSH1 0x1 PUSH1 0x1 PUSH1 0xA0 SHL SUB PUSH2 0x3A4 PUSH2 0x73D JUMP JUMPDEST AND PUSH0 MSTORE DUP3 MSTORE DUP1 PUSH0 KECCAK256 SLOAD SWAP1 MLOAD SWAP1 DUP2 MSTORE RETURN JUMPDEST POP SWAP1 CALLVALUE PUSH2 0x317 JUMPI PUSH1 0x20 CALLDATASIZE PUSH1 0x3 NOT ADD SLT PUSH2 0x317 JUMPI PUSH1 0x20 SWAP2 CALLDATALOAD PUSH0 MSTORE PUSH1 0x3 DUP3 MSTORE PUSH1 0x1 DUP1 PUSH1 0xA0 SHL SUB DUP2 PUSH0 KECCAK256 SLOAD AND SWAP1 MLOAD SWAP1 DUP2 MSTORE RETURN JUMPDEST DUP3 CALLVALUE PUSH2 0x317 JUMPI PUSH0 CALLDATASIZE PUSH1 0x3 NOT ADD SLT PUSH2 0x317 JUMPI PUSH1 0x1 SLOAD SWAP1 MLOAD PUSH1 0x1 PUSH1 0x1 PUSH1 0xA0 SHL SUB SWAP1 SWAP2 AND DUP2 MSTORE PUSH1 0x20 SWAP1 RETURN JUMPDEST DUP3 CALLVALUE PUSH2 0x317 JUMPI PUSH0 CALLDATASIZE PUSH1 0x3 NOT ADD SLT PUSH2 0x317 JUMPI PUSH0 SLOAD SWAP1 MLOAD PUSH1 0x1 PUSH1 0x1 PUSH1 0xA0 SHL SUB SWAP1 SWAP2 AND DUP2 MSTORE PUSH1 0x20 SWAP1 RETURN JUMPDEST POP SWAP1 CALLVALUE PUSH2 0x317 JUMPI PUSH1 0x20 CALLDATASIZE PUSH1 0x3 NOT ADD SLT PUSH2 0x317 JUMPI DUP2 CALLDATALOAD PUSH0 SWAP1 DUP2 MSTORE PUSH1 0x3 PUSH1 0x20 MSTORE DUP2 SWAP1 KECCAK256 SLOAD PUSH1 0x1 PUSH1 0x1 PUSH1 0xA0 SHL SUB SWAP1 DUP2 AND DUP1 ISZERO PUSH2 0x492 JUMPI PUSH0 MSTORE PUSH1 0x2 PUSH1 0x20 MSTORE DUP2 PUSH0 KECCAK256 SLOAD AND SWAP1 DUP2 ISZERO PUSH2 0x483 JUMPI PUSH1 0x20 SWAP3 POP MLOAD SWAP1 DUP2 MSTORE RETURN JUMPDEST MLOAD PUSH4 0xDEE790FB PUSH1 0xE0 SHL DUP2 MSTORE SWAP1 POP REVERT JUMPDEST POP POP MLOAD PUSH4 0x7A93ADF7 PUSH1 0xE1 SHL DUP2 MSTORE REVERT JUMPDEST POP SWAP1 CALLVALUE PUSH2 0x317 JUMPI PUSH0 CALLDATASIZE PUSH1 0x3 NOT ADD SLT PUSH2 0x317 JUMPI CALLER PUSH0 MSTORE DUP2 PUSH1 0x20 MSTORE DUP1 PUSH0 KECCAK256 SLOAD SWAP2 DUP3 ISZERO PUSH2 0x514 JUMPI SWAP1 PUSH0 SWAP2 DUP4 DUP4 MSTORE PUSH1 0x3 PUSH1 0x20 MSTORE DUP2 DUP4 KECCAK256 PUSH1 0x1 PUSH1 0x1 PUSH1 0x60 SHL SUB PUSH1 0xA0 SHL DUP2 SLOAD AND SWAP1 SSTORE CALLER DUP4 MSTORE PUSH1 0x20 MSTORE DUP2 KECCAK256 SSTORE CALLER SWAP1 PUSH32 0xAFA425487C9AFA00A971354B7196FE3CFCDA1835BF4C2A1027B6F21F28889762 PUSH0 DUP1 LOG3 STOP JUMPDEST SWAP1 MLOAD PUSH4 0x7A93ADF7 PUSH1 0xE1 SHL DUP2 MSTORE REVERT JUMPDEST CALLVALUE PUSH2 0x317 JUMPI PUSH0 CALLDATASIZE PUSH1 0x3 NOT ADD SLT PUSH2 0x317 JUMPI PUSH2 0x53A PUSH2 0x753 JUMP JUMPDEST PUSH0 DUP1 SLOAD PUSH1 0x1 PUSH1 0x1 PUSH1 0xA0 SHL SUB NOT DUP2 AND DUP3 SSTORE PUSH1 0x1 PUSH1 0x1 PUSH1 0xA0 SHL SUB AND PUSH32 0x8BE0079C531659141344CD1FD0A4F28419497F9722A3DAAFE3B4186F6B6457E0 DUP3 DUP1 LOG3 STOP JUMPDEST DUP3 CALLVALUE PUSH2 0x317 JUMPI PUSH1 0x20 CALLDATASIZE PUSH1 0x3 NOT ADD SLT PUSH2 0x317 JUMPI PUSH1 0x20 SWAP1 PUSH1 0x1 PUSH1 0x1 PUSH1 0xA0 SHL SUB DUP1 PUSH2 0x59F PUSH2 0x73D JUMP JUMPDEST AND PUSH0 MSTORE PUSH1 0x2 DUP4 MSTORE DUP2 PUSH0 KECCAK256 SLOAD AND SWAP1 MLOAD SWAP1 DUP2 MSTORE RETURN JUMPDEST POP CALLVALUE PUSH2 0x317 JUMPI PUSH1 0x20 CALLDATASIZE PUSH1 0x3 NOT ADD SLT PUSH2 0x317 JUMPI PUSH2 0x5CC PUSH2 0x73D JUMP JUMPDEST PUSH2 0x5D4 PUSH2 0x753 JUMP JUMPDEST PUSH1 0x1 PUSH1 0x1 PUSH1 0xA0 SHL SUB AND SWAP2 DUP3 ISZERO PUSH2 0x61D JUMPI PUSH1 0x1 DUP1 SLOAD PUSH1 0x1 PUSH1 0x1 PUSH1 0xA0 SHL SUB NOT AND DUP5 OR SWAP1 SSTORE DUP3 PUSH32 0xB3113C226E7A2D90BB0324C2C6AF9FC8F012EB7A61F4004619548B54ACF2EB04 PUSH0 DUP1 LOG2 STOP JUMPDEST MLOAD PUSH4 0xD92E233D PUSH1 0xE0 SHL DUP2 MSTORE REVERT JUMPDEST POP SWAP1 CALLVALUE PUSH2 0x317 JUMPI PUSH1 0x20 CALLDATASIZE PUSH1 0x3 NOT ADD SLT PUSH2 0x317 JUMPI DUP2 CALLDATALOAD SWAP1 DUP2 ISZERO PUSH2 0x6DD JUMPI PUSH0 DUP3 DUP2 MSTORE PUSH1 0x3 PUSH1 0x20 MSTORE DUP2 SWAP1 KECCAK256 SLOAD PUSH1 0x1 PUSH1 0x1 PUSH1 0xA0 SHL SUB AND PUSH2 0x6CE JUMPI CALLER PUSH0 MSTORE DUP3 PUSH1 0x20 MSTORE DUP1 PUSH0 KECCAK256 SLOAD PUSH2 0x6BF JUMPI DUP2 SWAP3 DUP3 PUSH0 MSTORE PUSH1 0x3 PUSH1 0x20 MSTORE DUP2 PUSH0 KECCAK256 CALLER PUSH1 0x1 PUSH1 0x1 PUSH1 0x60 SHL SUB PUSH1 0xA0 SHL DUP3 SLOAD AND OR SWAP1 SSTORE CALLER PUSH0 MSTORE PUSH1 0x20 MSTORE PUSH0 KECCAK256 SSTORE CALLER SWAP1 PUSH32 0x352813B8D042518A94ED321D9DC289E197F2C4808F289E723BB13E59559F1633 PUSH0 DUP1 LOG3 STOP JUMPDEST MLOAD PUSH4 0x34B3FB37 PUSH1 0xE2 SHL DUP2 MSTORE SWAP1 POP REVERT JUMPDEST MLOAD PUSH4 0x1F2C68C1 PUSH1 0xE3 SHL DUP2 MSTORE SWAP1 POP REVERT JUMPDEST MLOAD PUSH4 0x7A93ADF7 PUSH1 0xE1 SHL DUP2 MSTORE SWAP1 POP REVERT JUMPDEST SWAP1 POP DUP3 CALLVALUE PUSH2 0x317 JUMPI PUSH1 0x20 CALLDATASIZE PUSH1 0x3 NOT ADD SLT PUSH2 0x317 JUMPI PUSH1 0x1 PUSH1 0x1 PUSH1 0xA0 SHL SUB DUP1 PUSH2 0x711 PUSH2 0x73D JUMP JUMPDEST AND PUSH0 MSTORE PUSH1 0x2 PUSH1 0x20 MSTORE DUP2 PUSH0 KECCAK256 SLOAD AND SWAP2 DUP3 ISZERO PUSH2 0x72F JUMPI PUSH1 0x20 DUP4 DUP4 MLOAD SWAP1 DUP2 MSTORE RETURN JUMPDEST PUSH4 0xDEE790FB PUSH1 0xE0 SHL DUP2 MSTORE DUP4 SWAP1 REVERT JUMPDEST PUSH1 0x4 CALLDATALOAD SWAP1 PUSH1 0x1 PUSH1 0x1 PUSH1 0xA0 SHL SUB DUP3 AND DUP3 SUB PUSH2 0x317 JUMPI JUMP JUMPDEST PUSH0 SLOAD PUSH1 0x1 PUSH1 0x1 PUSH1 0xA0 SHL SUB AND CALLER SUB PUSH2 0x766 JUMPI JUMP JUMPDEST PUSH1 0x40 MLOAD PUSH4 0x118CDAA7 PUSH1 0xE0 SHL DUP2 MSTORE CALLER PUSH1 0x4 DUP3 ADD MSTORE PUSH1 0x24 SWAP1 REVERT INVALID LOG2 PUSH5 0x6970667358 0x22 SLT KECCAK256 DUP14 0xB9 0x29 PUSH23 0x1920A0A2933AB2C3C92587CDE191EFE0ED9237BAFD01F6 SDIV SUB PUSH25 0x816F64736F6C63430008180033000000000000000000000000 "
				},
				"gasEstimates": {
					"creation": {
						"codeDepositCost": "394400",
						"executionCost": "infinite",
						"totalCost": "infinite"
					},
					"external": {
						"createWallet(address,uint256)": "infinite",
						"fidToOwner(uint256)": "2575",
						"getOwnerByFid(uint256)": "2465",
						"getVault(address)": "2455",
						"getVaultByFid(uint256)": "4733",
						"linkFarcasterId(uint256)": "52546",
						"owner()": "2469",
						"ownerToFid(address)": "2664",
						"ownerToVault(address)": "2495",
						"renounceOwnership()": "28149",
						"setUserVaultImplementation(address)": "27834",
						"transferOwnership(address)": "28463",
						"unlinkFarcasterId()": "33338",
						"userVaultImplementation()": "2492"
					}
				},
				"methodIdentifiers": {
					"createWallet(address,uint256)": "f247d217",
					"fidToOwner(uint256)": "c8b6a983",
					"getOwnerByFid(uint256)": "7b9cf4f3",
					"getVault(address)": "0eb9af38",
					"getVaultByFid(uint256)": "8a62bb16",
					"linkFarcasterId(uint256)": "1c576575",
					"owner()": "8da5cb5b",
					"ownerToFid(address)": "e2cc3d2f",
					"ownerToVault(address)": "5cf25981",
					"renounceOwnership()": "715018a6",
					"setUserVaultImplementation(address)": "35598a02",
					"transferOwnership(address)": "f2fde38b",
					"unlinkFarcasterId()": "820b3d53",
					"userVaultImplementation()": "a6e7d83f"
				}
			},
			"storageLayout": {
				"storage": [
					{
						"astId": 8,
						"contract": "src/Contract Architecture/Core Infrastructure/WalletManager.sol:WalletManager",
						"label": "_owner",
						"offset": 0,
						"slot": "0",
						"type": "t_address"
					},
					{
						"astId": 739,
						"contract": "src/Contract Architecture/Core Infrastructure/WalletManager.sol:WalletManager",
						"label": "userVaultImplementation",
						"offset": 0,
						"slot": "1",
						"type": "t_address"
					},
					{
						"astId": 744,
						"contract": "src/Contract Architecture/Core Infrastructure/WalletManager.sol:WalletManager",
						"label": "ownerToVault",
						"offset": 0,
						"slot": "2",
						"type": "t_mapping(t_address,t_address)"
					},
					{
						"astId": 749,
						"contract": "src/Contract Architecture/Core Infrastructure/WalletManager.sol:WalletManager",
						"label": "fidToOwner",
						"offset": 0,
						"slot": "3",
						"type": "t_mapping(t_uint256,t_address)"
					},
					{
						"astId": 754,
						"contract": "src/Contract Architecture/Core Infrastructure/WalletManager.sol:WalletManager",
						"label": "ownerToFid",
						"offset": 0,
						"slot": "4",
						"type": "t_mapping(t_address,t_uint256)"
					}
				],
				"types": {
					"t_address": {
						"encoding": "inplace",
						"label": "address",
						"numberOfBytes": "20"
					},
					"t_mapping(t_address,t_address)": {
						"encoding": "mapping",
						"key": "t_address",
						"label": "mapping(address => address)",
						"numberOfBytes": "32",
						"value": "t_address"
					},
					"t_mapping(t_address,t_uint256)": {
						"encoding": "mapping",
						"key": "t_address",
						"label": "mapping(address => uint256)",
						"numberOfBytes": "32",
						"value": "t_uint256"
					},
					"t_mapping(t_uint256,t_address)": {
						"encoding": "mapping",
						"key": "t_uint256",
						"label": "mapping(uint256 => address)",
						"numberOfBytes": "32",
						"value": "t_address"
					},
					"t_uint256": {
						"encoding": "inplace",
						"label": "uint256",
						"numberOfBytes": "32"
					}
				}
			},
			"userdoc": {
				"events": {
					"FidLinked(uint256,address)": {
						"notice": "Emitted when a FID is linked to an owner."
					},
					"FidUnlinked(uint256,address)": {
						"notice": "Emitted when a FID is unlinked from its owner."
					},
					"UserVaultImplementationUpdated(address)": {
						"notice": "Emitted when the UserVault implementation is updated."
					},
					"WalletCreated(address,uint256,address)": {
						"notice": "Emitted when a new vault is created for an owner."
					}
				},
				"kind": "user",
				"methods": {
					"createWallet(address,uint256)": {
						"notice": "Create a vault for `owner_` and (optionally) link a Farcaster FID."
					},
					"fidToOwner(uint256)": {
						"notice": "Farcaster FID -> Owner address (1:1)."
					},
					"getOwnerByFid(uint256)": {
						"notice": "Get an owner by FID (returns address(0) if not linked)."
					},
					"getVault(address)": {
						"notice": "Get a vault by owner. Reverts if none exists."
					},
					"getVaultByFid(uint256)": {
						"notice": "Get a vault by FID (reverts if FID not linked or vault missing)."
					},
					"linkFarcasterId(uint256)": {
						"notice": "Link a Farcaster FID to msg.sender. Each FID and owner can be linked only once."
					},
					"ownerToFid(address)": {
						"notice": "Owner -> FID (0 when not linked)."
					},
					"ownerToVault(address)": {
						"notice": "Owner -> Vault address (1:1)."
					},
					"setUserVaultImplementation(address)": {
						"notice": "Update the UserVault implementation used by future clones."
					},
					"unlinkFarcasterId()": {
						"notice": "Unlink the FID currently tied to msg.sender."
					},
					"userVaultImplementation()": {
						"notice": "UserVault implementation to be cloned for each new user."
					}
				},
				"version": 1
			}
		}
	}
}