{
	"src/Contract Architecture/Governance & Configuration/ModuleRegistry.sol": {
		"ModuleRegistry": {
			"abi": [
				{
					"anonymous": false,
					"inputs": [
						{
							"indexed": true,
							"internalType": "address",
							"name": "module",
							"type": "address"
						}
					],
					"name": "ModuleRegistered",
					"type": "event"
				},
				{
					"anonymous": false,
					"inputs": [
						{
							"indexed": true,
							"internalType": "address",
							"name": "module",
							"type": "address"
						}
					],
					"name": "ModuleRemoved",
					"type": "event"
				},
				{
					"inputs": [
						{
							"internalType": "address",
							"name": "module",
							"type": "address"
						}
					],
					"name": "isModule",
					"outputs": [
						{
							"internalType": "bool",
							"name": "",
							"type": "bool"
						}
					],
					"stateMutability": "view",
					"type": "function"
				},
				{
					"inputs": [
						{
							"internalType": "address",
							"name": "",
							"type": "address"
						}
					],
					"name": "modules",
					"outputs": [
						{
							"internalType": "bool",
							"name": "",
							"type": "bool"
						}
					],
					"stateMutability": "view",
					"type": "function"
				},
				{
					"inputs": [
						{
							"internalType": "address",
							"name": "module",
							"type": "address"
						}
					],
					"name": "registerModule",
					"outputs": [],
					"stateMutability": "nonpayable",
					"type": "function"
				},
				{
					"inputs": [
						{
							"internalType": "address",
							"name": "module",
							"type": "address"
						}
					],
					"name": "removeModule",
					"outputs": [],
					"stateMutability": "nonpayable",
					"type": "function"
				}
			],
			"devdoc": {
				"kind": "dev",
				"methods": {},
				"title": "ModuleRegistry",
				"version": 1
			},
			"evm": {
				"assembly": "    /* \"src/Contract Architecture/Governance & Configuration/ModuleRegistry.sol\":164:849  contract ModuleRegistry {... */\n  0x80\n  dup1\n  0x40\n  mstore\n  jumpi(tag_1, callvalue)\n  dataSize(sub_0)\n  swap1\n  dup2\n  dataOffset(sub_0)\n  dup3\n  codecopy\n  return\ntag_1:\n  0x00\n  dup1\n  revert\nstop\n\nsub_0: assembly {\n        /* \"src/Contract Architecture/Governance & Configuration/ModuleRegistry.sol\":164:849  contract ModuleRegistry {... */\n      0x80\n      dup1\n      0x40\n      mstore\n      jumpi(tag_1, iszero(lt(calldatasize, 0x04)))\n      0x00\n      dup1\n      revert\n    tag_1:\n      shr(0xe0, calldataload(0x00))\n      swap1\n      dup2\n      0x42f6e389\n      eq\n      tag_3\n      jumpi\n      pop\n      dup1\n      0xa0632461\n      eq\n      tag_5\n      jumpi\n      dup1\n      0xa8ee49fe\n      eq\n      tag_7\n      jumpi\n      0xad64ae4b\n      eq\n      tag_9\n      jumpi\n      0x00\n      dup1\n      revert\n    tag_9:\n      jumpi(tag_15, callvalue)\n      jumpi(tag_15, slt(add(not(0x03), calldatasize), 0x20))\n      calldataload(0x04)\n      sub(shl(0xa0, 0x01), 0x01)\n      dup2\n      and\n      swap1\n      dup2\n      swap1\n      sub\n      tag_15\n      jumpi\n      dup1\n      0x00\n      mstore\n      mstore(0x20, 0x00)\n      jumpi(tag_17, and(sload(keccak256(0x00, 0x40)), 0xff))\n      dup1\n      0x00\n      mstore\n      mstore(0x20, 0x00)\n      keccak256(0x00, 0x40)\n        /* \"src/Contract Architecture/Governance & Configuration/ModuleRegistry.sol\":492:496  true */\n      0x01\n        /* \"src/Contract Architecture/Governance & Configuration/ModuleRegistry.sol\":164:849  contract ModuleRegistry {... */\n      not(0xff)\n      dup3\n      sload\n      and\n      or\n      swap1\n      sstore\n        /* \"src/Contract Architecture/Governance & Configuration/ModuleRegistry.sol\":511:535  ModuleRegistered(module) */\n      0x0961fbae397458c42f3f186eaabee4a989aafde93ac5d8d122cff462423a241e\n        /* \"src/Contract Architecture/Governance & Configuration/ModuleRegistry.sol\":164:849  contract ModuleRegistry {... */\n      0x00\n        /* \"src/Contract Architecture/Governance & Configuration/ModuleRegistry.sol\":511:535  ModuleRegistered(module) */\n      dup1\n      log2\n        /* \"src/Contract Architecture/Governance & Configuration/ModuleRegistry.sol\":164:849  contract ModuleRegistry {... */\n      stop\n    tag_17:\n      mload(0x40)\n      shl(0xe5, 0x461bcd)\n      dup2\n      mstore\n      0x20\n      0x04\n      dup3\n      add\n      mstore\n      0x22\n      0x24\n      dup3\n      add\n      mstore\n      0x4d6f64756c6552656769737472793a20616c7265616479207265676973746572\n      0x44\n      dup3\n      add\n      mstore\n      shl(0xf2, 0x1959)\n      0x64\n      dup3\n      add\n      mstore\n      0x84\n      swap1\n      revert\n    tag_15:\n      0x00\n      dup1\n      revert\n    tag_7:\n      jumpi(tag_15, callvalue)\n      jumpi(tag_15, slt(add(not(0x03), calldatasize), 0x20))\n      calldataload(0x04)\n      sub(shl(0xa0, 0x01), 0x01)\n      dup2\n      and\n      swap1\n      dup2\n      swap1\n      sub\n      tag_15\n      jumpi\n      0x00\n      mstore\n      mstore(0x20, 0x00)\n      0x20\n      and(sload(keccak256(0x00, 0x40)), 0xff)\n      mload(0x40)\n      swap1\n      iszero\n      iszero\n      dup2\n      mstore\n      return\n    tag_5:\n      jumpi(tag_15, callvalue)\n      jumpi(tag_15, slt(add(not(0x03), calldatasize), 0x20))\n      calldataload(0x04)\n      sub(shl(0xa0, 0x01), 0x01)\n      dup2\n      and\n      swap1\n      dup2\n      swap1\n      sub\n      tag_15\n      jumpi\n      dup1\n      0x00\n      mstore\n      mstore(0x20, 0x00)\n      jumpi(tag_31, iszero(and(sload(keccak256(0x00, 0x40)), 0xff)))\n      dup1\n      0x00\n      mstore\n      mstore(0x20, 0x00)\n      keccak256(0x00, 0x40)\n      not(0xff)\n      dup2\n      sload\n      and\n      swap1\n      sstore\n        /* \"src/Contract Architecture/Governance & Configuration/ModuleRegistry.sol\":711:732  ModuleRemoved(module) */\n      0x0a1ee69f55c33d8467c69ca59ce2007a737a88603d75392972520bf67cb513b8\n        /* \"src/Contract Architecture/Governance & Configuration/ModuleRegistry.sol\":164:849  contract ModuleRegistry {... */\n      0x00\n        /* \"src/Contract Architecture/Governance & Configuration/ModuleRegistry.sol\":711:732  ModuleRemoved(module) */\n      dup1\n      log2\n        /* \"src/Contract Architecture/Governance & Configuration/ModuleRegistry.sol\":164:849  contract ModuleRegistry {... */\n      stop\n    tag_31:\n      mload(0x40)\n      shl(0xe5, 0x461bcd)\n      dup2\n      mstore\n      0x20\n      0x04\n      dup3\n      add\n      mstore\n      0x1e\n      0x24\n      dup3\n      add\n      mstore\n      0x4d6f64756c6552656769737472793a206e6f7420726567697374657265640000\n      0x44\n      dup3\n      add\n      mstore\n      0x64\n      swap1\n      revert\n    tag_3:\n      jumpi(tag_15, callvalue)\n      jumpi(tag_15, slt(add(not(0x03), calldatasize), 0x20))\n      calldataload(0x04)\n      sub(shl(0xa0, 0x01), 0x01)\n      dup2\n      and\n      swap2\n      swap1\n      dup3\n      swap1\n      sub\n      tag_15\n      jumpi\n      0x20\n      swap2\n      0x00\n      mstore\n      0x00\n      dup3\n      mstore\n      iszero(iszero(and(sload(keccak256(0x00, 0x40)), 0xff)))\n      dup2\n      mstore\n      return\n\n    auxdata: 0xa2646970667358221220084c735467932b2e2927381dee319e7086370a9e2a0985cec8bc82e5d16785e764736f6c634300081a0033\n}\n",
				"bytecode": {
					"linkReferences": {},
					"object": "6080806040523460155761027c908161001a8239f35b5f80fdfe6080806040526004361015610012575f80fd5b5f3560e01c90816342f6e3891461020957508063a063246114610151578063a8ee49fe146101115763ad64ae4b14610048575f80fd5b3461010d57602036600319011261010d576004356001600160a01b0381169081900361010d57805f525f60205260ff60405f2054166100bd57805f525f60205260405f20600160ff198254161790557f0961fbae397458c42f3f186eaabee4a989aafde93ac5d8d122cff462423a241e5f80a2005b60405162461bcd60e51b815260206004820152602260248201527f4d6f64756c6552656769737472793a20616c7265616479207265676973746572604482015261195960f21b6064820152608490fd5b5f80fd5b3461010d57602036600319011261010d576004356001600160a01b0381169081900361010d575f525f602052602060ff60405f2054166040519015158152f35b3461010d57602036600319011261010d576004356001600160a01b0381169081900361010d57805f525f60205260ff60405f205416156101c457805f525f60205260405f2060ff1981541690557f0a1ee69f55c33d8467c69ca59ce2007a737a88603d75392972520bf67cb513b85f80a2005b60405162461bcd60e51b815260206004820152601e60248201527f4d6f64756c6552656769737472793a206e6f74207265676973746572656400006044820152606490fd5b3461010d57602036600319011261010d576004356001600160a01b038116919082900361010d576020915f525f825260ff60405f20541615158152f3fea2646970667358221220084c735467932b2e2927381dee319e7086370a9e2a0985cec8bc82e5d16785e764736f6c634300081a0033",
					"opcodes": "PUSH1 0x80 DUP1 PUSH1 0x40 MSTORE CALLVALUE PUSH1 0x15 JUMPI PUSH2 0x27C SWAP1 DUP2 PUSH2 0x1A DUP3 CODECOPY RETURN JUMPDEST PUSH0 DUP1 REVERT INVALID PUSH1 0x80 DUP1 PUSH1 0x40 MSTORE PUSH1 0x4 CALLDATASIZE LT ISZERO PUSH2 0x12 JUMPI PUSH0 DUP1 REVERT JUMPDEST PUSH0 CALLDATALOAD PUSH1 0xE0 SHR SWAP1 DUP2 PUSH4 0x42F6E389 EQ PUSH2 0x209 JUMPI POP DUP1 PUSH4 0xA0632461 EQ PUSH2 0x151 JUMPI DUP1 PUSH4 0xA8EE49FE EQ PUSH2 0x111 JUMPI PUSH4 0xAD64AE4B EQ PUSH2 0x48 JUMPI PUSH0 DUP1 REVERT JUMPDEST CALLVALUE PUSH2 0x10D JUMPI PUSH1 0x20 CALLDATASIZE PUSH1 0x3 NOT ADD SLT PUSH2 0x10D JUMPI PUSH1 0x4 CALLDATALOAD PUSH1 0x1 PUSH1 0x1 PUSH1 0xA0 SHL SUB DUP2 AND SWAP1 DUP2 SWAP1 SUB PUSH2 0x10D JUMPI DUP1 PUSH0 MSTORE PUSH0 PUSH1 0x20 MSTORE PUSH1 0xFF PUSH1 0x40 PUSH0 KECCAK256 SLOAD AND PUSH2 0xBD JUMPI DUP1 PUSH0 MSTORE PUSH0 PUSH1 0x20 MSTORE PUSH1 0x40 PUSH0 KECCAK256 PUSH1 0x1 PUSH1 0xFF NOT DUP3 SLOAD AND OR SWAP1 SSTORE PUSH32 0x961FBAE397458C42F3F186EAABEE4A989AAFDE93AC5D8D122CFF462423A241E PUSH0 DUP1 LOG2 STOP JUMPDEST PUSH1 0x40 MLOAD PUSH3 0x461BCD PUSH1 0xE5 SHL DUP2 MSTORE PUSH1 0x20 PUSH1 0x4 DUP3 ADD MSTORE PUSH1 0x22 PUSH1 0x24 DUP3 ADD MSTORE PUSH32 0x4D6F64756C6552656769737472793A20616C7265616479207265676973746572 PUSH1 0x44 DUP3 ADD MSTORE PUSH2 0x1959 PUSH1 0xF2 SHL PUSH1 0x64 DUP3 ADD MSTORE PUSH1 0x84 SWAP1 REVERT JUMPDEST PUSH0 DUP1 REVERT JUMPDEST CALLVALUE PUSH2 0x10D JUMPI PUSH1 0x20 CALLDATASIZE PUSH1 0x3 NOT ADD SLT PUSH2 0x10D JUMPI PUSH1 0x4 CALLDATALOAD PUSH1 0x1 PUSH1 0x1 PUSH1 0xA0 SHL SUB DUP2 AND SWAP1 DUP2 SWAP1 SUB PUSH2 0x10D JUMPI PUSH0 MSTORE PUSH0 PUSH1 0x20 MSTORE PUSH1 0x20 PUSH1 0xFF PUSH1 0x40 PUSH0 KECCAK256 SLOAD AND PUSH1 0x40 MLOAD SWAP1 ISZERO ISZERO DUP2 MSTORE RETURN JUMPDEST CALLVALUE PUSH2 0x10D JUMPI PUSH1 0x20 CALLDATASIZE PUSH1 0x3 NOT ADD SLT PUSH2 0x10D JUMPI PUSH1 0x4 CALLDATALOAD PUSH1 0x1 PUSH1 0x1 PUSH1 0xA0 SHL SUB DUP2 AND SWAP1 DUP2 SWAP1 SUB PUSH2 0x10D JUMPI DUP1 PUSH0 MSTORE PUSH0 PUSH1 0x20 MSTORE PUSH1 0xFF PUSH1 0x40 PUSH0 KECCAK256 SLOAD AND ISZERO PUSH2 0x1C4 JUMPI DUP1 PUSH0 MSTORE PUSH0 PUSH1 0x20 MSTORE PUSH1 0x40 PUSH0 KECCAK256 PUSH1 0xFF NOT DUP2 SLOAD AND SWAP1 SSTORE PUSH32 0xA1EE69F55C33D8467C69CA59CE2007A737A88603D75392972520BF67CB513B8 PUSH0 DUP1 LOG2 STOP JUMPDEST PUSH1 0x40 MLOAD PUSH3 0x461BCD PUSH1 0xE5 SHL DUP2 MSTORE PUSH1 0x20 PUSH1 0x4 DUP3 ADD MSTORE PUSH1 0x1E PUSH1 0x24 DUP3 ADD MSTORE PUSH32 0x4D6F64756C6552656769737472793A206E6F7420726567697374657265640000 PUSH1 0x44 DUP3 ADD MSTORE PUSH1 0x64 SWAP1 REVERT JUMPDEST CALLVALUE PUSH2 0x10D JUMPI PUSH1 0x20 CALLDATASIZE PUSH1 0x3 NOT ADD SLT PUSH2 0x10D JUMPI PUSH1 0x4 CALLDATALOAD PUSH1 0x1 PUSH1 0x1 PUSH1 0xA0 SHL SUB DUP2 AND SWAP2 SWAP1 DUP3 SWAP1 SUB PUSH2 0x10D JUMPI PUSH1 0x20 SWAP2 PUSH0 MSTORE PUSH0 DUP3 MSTORE PUSH1 0xFF PUSH1 0x40 PUSH0 KECCAK256 SLOAD AND ISZERO ISZERO DUP2 MSTORE RETURN INVALID LOG2 PUSH5 0x6970667358 0x22 SLT KECCAK256 ADDMOD 0x4C PUSH20 0x5467932B2E2927381DEE319E7086370A9E2A0985 0xCE 0xC8 0xBC DUP3 0xE5 0xD1 PUSH8 0x85E764736F6C6343 STOP ADDMOD BYTE STOP CALLER "
				},
				"gasEstimates": {
					"creation": {
						"codeDepositCost": "127200",
						"executionCost": "178",
						"totalCost": "127378"
					},
					"external": {
						"isModule(address)": "2373",
						"modules(address)": "2422",
						"registerModule(address)": "27844",
						"removeModule(address)": "27800"
					}
				},
				"methodIdentifiers": {
					"isModule(address)": "42f6e389",
					"modules(address)": "a8ee49fe",
					"registerModule(address)": "ad64ae4b",
					"removeModule(address)": "a0632461"
				}
			},
			"storageLayout": {
				"storage": [
					{
						"astId": 6,
						"contract": "src/Contract Architecture/Governance & Configuration/ModuleRegistry.sol:ModuleRegistry",
						"label": "modules",
						"offset": 0,
						"slot": "0",
						"type": "t_mapping(t_address,t_bool)"
					}
				],
				"types": {
					"t_address": {
						"encoding": "inplace",
						"label": "address",
						"numberOfBytes": "20"
					},
					"t_bool": {
						"encoding": "inplace",
						"label": "bool",
						"numberOfBytes": "1"
					},
					"t_mapping(t_address,t_bool)": {
						"encoding": "mapping",
						"key": "t_address",
						"label": "mapping(address => bool)",
						"numberOfBytes": "32",
						"value": "t_bool"
					}
				}
			},
			"userdoc": {
				"kind": "user",
				"methods": {},
				"notice": "Registry of whitelisted modules that ActionExecutor can call.",
				"version": 1
			}
		}
	}
}