{
	"src/Contract Architecture/Core Infrastructure/ActionExecutor_flattened.sol": {
		"ActionExecutor": {
			"abi": [
				{
					"inputs": [],
					"stateMutability": "nonpayable",
					"type": "constructor"
				},
				{
					"inputs": [],
					"name": "ECDSAInvalidSignature",
					"type": "error"
				},
				{
					"inputs": [
						{
							"internalType": "uint256",
							"name": "length",
							"type": "uint256"
						}
					],
					"name": "ECDSAInvalidSignatureLength",
					"type": "error"
				},
				{
					"inputs": [
						{
							"internalType": "bytes32",
							"name": "s",
							"type": "bytes32"
						}
					],
					"name": "ECDSAInvalidSignatureS",
					"type": "error"
				},
				{
					"inputs": [],
					"name": "ExecutionFailed",
					"type": "error"
				},
				{
					"inputs": [],
					"name": "InvalidSigner",
					"type": "error"
				},
				{
					"inputs": [],
					"name": "ModuleAlreadyRegistered",
					"type": "error"
				},
				{
					"inputs": [],
					"name": "ModuleNotFound",
					"type": "error"
				},
				{
					"inputs": [],
					"name": "ModuleNotRegistered",
					"type": "error"
				},
				{
					"inputs": [
						{
							"internalType": "address",
							"name": "owner",
							"type": "address"
						}
					],
					"name": "OwnableInvalidOwner",
					"type": "error"
				},
				{
					"inputs": [
						{
							"internalType": "address",
							"name": "account",
							"type": "address"
						}
					],
					"name": "OwnableUnauthorizedAccount",
					"type": "error"
				},
				{
					"inputs": [],
					"name": "SignatureExpired",
					"type": "error"
				},
				{
					"inputs": [],
					"name": "ZeroAddress",
					"type": "error"
				},
				{
					"anonymous": false,
					"inputs": [
						{
							"indexed": true,
							"internalType": "address",
							"name": "vault",
							"type": "address"
						},
						{
							"indexed": true,
							"internalType": "address",
							"name": "owner",
							"type": "address"
						},
						{
							"indexed": true,
							"internalType": "bytes32",
							"name": "moduleId",
							"type": "bytes32"
						},
						{
							"indexed": false,
							"internalType": "address",
							"name": "module",
							"type": "address"
						},
						{
							"indexed": false,
							"internalType": "uint256",
							"name": "value",
							"type": "uint256"
						},
						{
							"indexed": false,
							"internalType": "bytes",
							"name": "data",
							"type": "bytes"
						},
						{
							"indexed": false,
							"internalType": "bytes",
							"name": "result",
							"type": "bytes"
						}
					],
					"name": "ActionExecuted",
					"type": "event"
				},
				{
					"anonymous": false,
					"inputs": [
						{
							"indexed": true,
							"internalType": "bytes32",
							"name": "moduleId",
							"type": "bytes32"
						},
						{
							"indexed": true,
							"internalType": "address",
							"name": "module",
							"type": "address"
						}
					],
					"name": "ModuleRegistered",
					"type": "event"
				},
				{
					"anonymous": false,
					"inputs": [
						{
							"indexed": true,
							"internalType": "bytes32",
							"name": "moduleId",
							"type": "bytes32"
						},
						{
							"indexed": true,
							"internalType": "address",
							"name": "module",
							"type": "address"
						}
					],
					"name": "ModuleUnregistered",
					"type": "event"
				},
				{
					"anonymous": false,
					"inputs": [
						{
							"indexed": true,
							"internalType": "address",
							"name": "previousOwner",
							"type": "address"
						},
						{
							"indexed": true,
							"internalType": "address",
							"name": "newOwner",
							"type": "address"
						}
					],
					"name": "OwnershipTransferred",
					"type": "event"
				},
				{
					"inputs": [],
					"name": "ACTION_TYPEHASH",
					"outputs": [
						{
							"internalType": "bytes32",
							"name": "",
							"type": "bytes32"
						}
					],
					"stateMutability": "view",
					"type": "function"
				},
				{
					"inputs": [],
					"name": "DOMAIN_SEPARATOR",
					"outputs": [
						{
							"internalType": "bytes32",
							"name": "",
							"type": "bytes32"
						}
					],
					"stateMutability": "view",
					"type": "function"
				},
				{
					"inputs": [
						{
							"internalType": "bytes32",
							"name": "moduleId",
							"type": "bytes32"
						},
						{
							"internalType": "address",
							"name": "vault",
							"type": "address"
						},
						{
							"internalType": "uint256",
							"name": "value",
							"type": "uint256"
						},
						{
							"internalType": "bytes",
							"name": "data",
							"type": "bytes"
						}
					],
					"name": "executeModuleActionByOwner",
					"outputs": [
						{
							"internalType": "bytes",
							"name": "",
							"type": "bytes"
						}
					],
					"stateMutability": "nonpayable",
					"type": "function"
				},
				{
					"inputs": [
						{
							"internalType": "bytes32",
							"name": "moduleId",
							"type": "bytes32"
						},
						{
							"internalType": "address",
							"name": "vault",
							"type": "address"
						},
						{
							"internalType": "uint256",
							"name": "value",
							"type": "uint256"
						},
						{
							"internalType": "bytes",
							"name": "data",
							"type": "bytes"
						},
						{
							"internalType": "uint256",
							"name": "deadline",
							"type": "uint256"
						},
						{
							"internalType": "bytes",
							"name": "sig",
							"type": "bytes"
						}
					],
					"name": "executeModuleActionWithSig",
					"outputs": [
						{
							"internalType": "bytes",
							"name": "result",
							"type": "bytes"
						}
					],
					"stateMutability": "nonpayable",
					"type": "function"
				},
				{
					"inputs": [
						{
							"internalType": "bytes32",
							"name": "moduleId",
							"type": "bytes32"
						}
					],
					"name": "getModule",
					"outputs": [
						{
							"internalType": "address",
							"name": "",
							"type": "address"
						}
					],
					"stateMutability": "view",
					"type": "function"
				},
				{
					"inputs": [
						{
							"internalType": "address",
							"name": "vault",
							"type": "address"
						}
					],
					"name": "getNonce",
					"outputs": [
						{
							"internalType": "uint256",
							"name": "",
							"type": "uint256"
						}
					],
					"stateMutability": "view",
					"type": "function"
				},
				{
					"inputs": [
						{
							"internalType": "bytes32",
							"name": "",
							"type": "bytes32"
						}
					],
					"name": "modules",
					"outputs": [
						{
							"internalType": "address",
							"name": "",
							"type": "address"
						}
					],
					"stateMutability": "view",
					"type": "function"
				},
				{
					"inputs": [
						{
							"internalType": "address",
							"name": "",
							"type": "address"
						}
					],
					"name": "nonces",
					"outputs": [
						{
							"internalType": "uint256",
							"name": "",
							"type": "uint256"
						}
					],
					"stateMutability": "view",
					"type": "function"
				},
				{
					"inputs": [],
					"name": "owner",
					"outputs": [
						{
							"internalType": "address",
							"name": "",
							"type": "address"
						}
					],
					"stateMutability": "view",
					"type": "function"
				},
				{
					"inputs": [
						{
							"internalType": "bytes32",
							"name": "moduleId",
							"type": "bytes32"
						},
						{
							"internalType": "address",
							"name": "module",
							"type": "address"
						}
					],
					"name": "registerModule",
					"outputs": [],
					"stateMutability": "nonpayable",
					"type": "function"
				},
				{
					"inputs": [],
					"name": "renounceOwnership",
					"outputs": [],
					"stateMutability": "nonpayable",
					"type": "function"
				},
				{
					"inputs": [
						{
							"internalType": "address",
							"name": "newOwner",
							"type": "address"
						}
					],
					"name": "transferOwnership",
					"outputs": [],
					"stateMutability": "nonpayable",
					"type": "function"
				},
				{
					"inputs": [
						{
							"internalType": "bytes32",
							"name": "moduleId",
							"type": "bytes32"
						}
					],
					"name": "unregisterModule",
					"outputs": [],
					"stateMutability": "nonpayable",
					"type": "function"
				}
			],
			"devdoc": {
				"errors": {
					"ECDSAInvalidSignature()": [
						{
							"details": "The signature derives the `address(0)`."
						}
					],
					"ECDSAInvalidSignatureLength(uint256)": [
						{
							"details": "The signature has an invalid length."
						}
					],
					"ECDSAInvalidSignatureS(bytes32)": [
						{
							"details": "The signature has an S value that is in the upper half order."
						}
					],
					"OwnableInvalidOwner(address)": [
						{
							"details": "The owner is not a valid owner account. (eg. `address(0)`)"
						}
					],
					"OwnableUnauthorizedAccount(address)": [
						{
							"details": "The caller account is not authorized to perform an operation."
						}
					]
				},
				"kind": "dev",
				"methods": {
					"executeModuleActionWithSig(bytes32,address,uint256,bytes,uint256,bytes)": {
						"params": {
							"data": "Calldata to pass to module (executed from vault context)",
							"deadline": "Timestamp after which the signature is invalid",
							"moduleId": "Registered module id (bytes32)",
							"sig": "EIP-191 signature (65 bytes) from vault owner approving this action",
							"value": "ETH value to forward from vault to module (in wei)",
							"vault": "Address of the UserVault clone"
						}
					},
					"owner()": {
						"details": "Returns the address of the current owner."
					},
					"renounceOwnership()": {
						"details": "Leaves the contract without owner. It will not be possible to call `onlyOwner` functions. Can only be called by the current owner. NOTE: Renouncing ownership will leave the contract without an owner, thereby disabling any functionality that is only available to the owner."
					},
					"transferOwnership(address)": {
						"details": "Transfers ownership of the contract to a new account (`newOwner`). Can only be called by the current owner."
					}
				},
				"version": 1
			},
			"evm": {
				"assembly": "    /* \"src/Contract Architecture/Core Infrastructure/ActionExecutor_flattened.sol\":13355:19258  contract ActionExecutor is Ownable {... */\n  0xa0\n  0x40\n  swap1\n  dup1\n  dup3\n  mstore\n  jumpi(tag_2, callvalue)\n    /* \"src/Contract Architecture/Core Infrastructure/ActionExecutor_flattened.sol\":14461:14471  msg.sender */\n  caller\n    /* \"src/Contract Architecture/Core Infrastructure/ActionExecutor_flattened.sol\":2235:2261  initialOwner == address(0) */\n  iszero\n    /* \"src/Contract Architecture/Core Infrastructure/ActionExecutor_flattened.sol\":2231:2326  if (initialOwner == address(0)) {... */\n  tag_4\n  jumpi\n  pop\n    /* \"src/Contract Architecture/Core Infrastructure/ActionExecutor_flattened.sol\":2259:2260  0 */\n  0x00\n    /* \"src/Contract Architecture/Core Infrastructure/ActionExecutor_flattened.sol\":13355:19258  contract ActionExecutor is Ownable {... */\n  dup1\n  sload\n    /* \"src/Contract Architecture/Core Infrastructure/ActionExecutor_flattened.sol\":14461:14471  msg.sender */\n  caller\n  not(sub(shl(0xa0, 0x01), 0x01))\n    /* \"src/Contract Architecture/Core Infrastructure/ActionExecutor_flattened.sol\":13355:19258  contract ActionExecutor is Ownable {... */\n  dup3\n  and\n  dup2\n  or\n  dup4\n  sstore\n    /* \"src/Contract Architecture/Core Infrastructure/ActionExecutor_flattened.sol\":14461:14471  msg.sender */\n  swap2\n  sub(shl(0xa0, 0x01), 0x01)\n    /* \"src/Contract Architecture/Core Infrastructure/ActionExecutor_flattened.sol\":13355:19258  contract ActionExecutor is Ownable {... */\n  swap1\n  swap2\n  and\n  swap1\n    /* \"src/Contract Architecture/Core Infrastructure/ActionExecutor_flattened.sol\":4014:4054  OwnershipTransferred(oldOwner, newOwner) */\n  0x8be0079c531659141344cd1fd0a4f28419497f9722a3daafe3b4186f6b6457e0\n  swap1\n    /* \"src/Contract Architecture/Core Infrastructure/ActionExecutor_flattened.sol\":2259:2260  0 */\n  dup1\n    /* \"src/Contract Architecture/Core Infrastructure/ActionExecutor_flattened.sol\":4014:4054  OwnershipTransferred(oldOwner, newOwner) */\n  log3\n    /* \"src/Contract Architecture/Core Infrastructure/ActionExecutor_flattened.sol\":13355:19258  contract ActionExecutor is Ownable {... */\n  0x0e\n  0x20\n  dup3\n  mload\n  tag_6\n  dup2\n  tag_1\n  jump\t// in\ntag_6:\n  dup3\n  dup2\n  mstore\n  add\n  shl(0x91, 0x20b1ba34b7b722bc32b1baba37b9)\n  dup2\n  mstore\n    /* \"src/Contract Architecture/Core Infrastructure/ActionExecutor_flattened.sol\":14833:14867  keccak256(bytes(\"ActionExecutor\")) */\n  keccak256\n    /* \"src/Contract Architecture/Core Infrastructure/ActionExecutor_flattened.sol\":13355:19258  contract ActionExecutor is Ownable {... */\n  0x01\n  0x20\n  dup4\n  mload\n  tag_7\n  dup2\n  tag_1\n  jump\t// in\ntag_7:\n  dup3\n  dup2\n  mstore\n  add\n  shl(0xf8, 0x31)\n  dup2\n  mstore\n    /* \"src/Contract Architecture/Core Infrastructure/ActionExecutor_flattened.sol\":14885:14906  keccak256(bytes(\"1\")) */\n  keccak256\n    /* \"src/Contract Architecture/Core Infrastructure/ActionExecutor_flattened.sol\":13355:19258  contract ActionExecutor is Ownable {... */\n  dup3\n  mload\n    /* \"src/Contract Architecture/Core Infrastructure/ActionExecutor_flattened.sol\":14612:14976  abi.encode(... */\n  swap1\n    /* \"src/Contract Architecture/Core Infrastructure/ActionExecutor_flattened.sol\":13355:19258  contract ActionExecutor is Ownable {... */\n  0x20\n    /* \"src/Contract Architecture/Core Infrastructure/ActionExecutor_flattened.sol\":14612:14976  abi.encode(... */\n  dup3\n  add\n    /* \"src/Contract Architecture/Core Infrastructure/ActionExecutor_flattened.sol\":13355:19258  contract ActionExecutor is Ownable {... */\n  swap3\n    /* \"src/Contract Architecture/Core Infrastructure/ActionExecutor_flattened.sol\":14720:14815  keccak256(\"EIP712Domain(string name,string version,uint256 chainId,address verifyingContract)\") */\n  0x8b73c3c69bb8fe3d512ecc4cf759cc79239f7b179b0ffacaa9a75d522b39400f\n    /* \"src/Contract Architecture/Core Infrastructure/ActionExecutor_flattened.sol\":13355:19258  contract ActionExecutor is Ownable {... */\n  dup5\n  mstore\n  dup5\n  dup4\n  add\n  mstore\n  0x60\n  dup3\n  add\n  mstore\n    /* \"src/Contract Architecture/Core Infrastructure/ActionExecutor_flattened.sol\":14508:14561  assembly {... */\n  chainid\n    /* \"src/Contract Architecture/Core Infrastructure/ActionExecutor_flattened.sol\":13355:19258  contract ActionExecutor is Ownable {... */\n  0x80\n  dup3\n  add\n  mstore\n    /* \"src/Contract Architecture/Core Infrastructure/ActionExecutor_flattened.sol\":14957:14961  this */\n  address\n    /* \"src/Contract Architecture/Core Infrastructure/ActionExecutor_flattened.sol\":13355:19258  contract ActionExecutor is Ownable {... */\n  0xa0\n  dup3\n  add\n  mstore\n  0xa0\n    /* \"src/Contract Architecture/Core Infrastructure/ActionExecutor_flattened.sol\":14612:14976  abi.encode(... */\n  dup2\n  mstore\n    /* \"src/Contract Architecture/Core Infrastructure/ActionExecutor_flattened.sol\":13355:19258  contract ActionExecutor is Ownable {... */\n  0xc0\n  dup2\n  add\n  swap3\n  dup2\n  dup5\n  lt\n  0x01\n  dup1\n  0x40\n  shl\n  sub\n  dup6\n  gt\n  or\n  tag_8\n  jumpi\n  dup4\n  swap1\n  mstore\n  mload\n    /* \"src/Contract Architecture/Core Infrastructure/ActionExecutor_flattened.sol\":14589:14986  keccak256(... */\n  swap1\n  keccak256\n    /* \"src/Contract Architecture/Core Infrastructure/ActionExecutor_flattened.sol\":13355:19258  contract ActionExecutor is Ownable {... */\n  0x80\n    /* \"src/Contract Architecture/Core Infrastructure/ActionExecutor_flattened.sol\":14570:14986  DOMAIN_SEPARATOR = keccak256(... */\n  mstore\n    /* \"src/Contract Architecture/Core Infrastructure/ActionExecutor_flattened.sol\":13355:19258  contract ActionExecutor is Ownable {... */\n  dataSize(sub_0)\n  swap1\n  dup2\n  dataOffset(sub_0)\n  dup3\n  codecopy\n  mload(0x80)\n  dup2\n  assignImmutable(\"0x370d4a29255586406ab90f2fe1a237739249ae659f6973b0316c9bd15a3e8f14\")\n  return\ntag_8:\n  shl(0xe0, 0x4e487b71)\n    /* \"src/Contract Architecture/Core Infrastructure/ActionExecutor_flattened.sol\":2259:2260  0 */\n  0x00\n    /* \"src/Contract Architecture/Core Infrastructure/ActionExecutor_flattened.sol\":13355:19258  contract ActionExecutor is Ownable {... */\n  mstore\n  mstore(0x04, 0x41)\n  0x24\n    /* \"src/Contract Architecture/Core Infrastructure/ActionExecutor_flattened.sol\":2259:2260  0 */\n  0x00\n    /* \"src/Contract Architecture/Core Infrastructure/ActionExecutor_flattened.sol\":13355:19258  contract ActionExecutor is Ownable {... */\n  revert\n    /* \"src/Contract Architecture/Core Infrastructure/ActionExecutor_flattened.sol\":2231:2326  if (initialOwner == address(0)) {... */\ntag_4:\n  shl(0xe0, 0x1e4fbdf7)\n    /* \"src/Contract Architecture/Core Infrastructure/ActionExecutor_flattened.sol\":2284:2315  OwnableInvalidOwner(address(0)) */\n  dup2\n  mstore\n    /* \"src/Contract Architecture/Core Infrastructure/ActionExecutor_flattened.sol\":2259:2260  0 */\n  0x00\n    /* \"src/Contract Architecture/Core Infrastructure/ActionExecutor_flattened.sol\":2284:2315  OwnableInvalidOwner(address(0)) */\n  0x04\n  dup3\n  add\n    /* \"src/Contract Architecture/Core Infrastructure/ActionExecutor_flattened.sol\":13355:19258  contract ActionExecutor is Ownable {... */\n  mstore\n  0x24\n  swap1\n    /* \"src/Contract Architecture/Core Infrastructure/ActionExecutor_flattened.sol\":2284:2315  OwnableInvalidOwner(address(0)) */\n  revert\n    /* \"src/Contract Architecture/Core Infrastructure/ActionExecutor_flattened.sol\":13355:19258  contract ActionExecutor is Ownable {... */\ntag_2:\n  0x00\n  dup1\n  revert\ntag_1:\n  0x40\n  dup2\n  add\n  swap1\n  dup2\n  lt\n  sub(shl(0x40, 0x01), 0x01)\n  dup3\n  gt\n  or\n  tag_8\n  jumpi\n  0x40\n  mstore\n  jump\t// out\nstop\n\nsub_0: assembly {\n        /* \"src/Contract Architecture/Core Infrastructure/ActionExecutor_flattened.sol\":13355:19258  contract ActionExecutor is Ownable {... */\n      mstore(0x40, 0x80)\n      jumpi(tag_43, iszero(lt(calldatasize, 0x04)))\n      0x00\n      dup1\n      revert\n    tag_43:\n      shr(0xe0, calldataload(0x00))\n      dup1\n      0x16ca96f4\n      eq\n      tag_45\n      jumpi\n      dup1\n      0x2d0335ab\n      eq\n      tag_59\n      jumpi\n      dup1\n      0x2dac633b\n      eq\n      tag_49\n      jumpi\n      dup1\n      0x3595945d\n      eq\n      tag_51\n      jumpi\n      dup1\n      0x3644e515\n      eq\n      tag_53\n      jumpi\n      dup1\n      0x5a35b84a\n      eq\n      tag_55\n      jumpi\n      dup1\n      0x715018a6\n      eq\n      tag_57\n      jumpi\n      dup1\n      0x7ecebe00\n      eq\n      tag_59\n      jumpi\n      dup1\n      0x85acd641\n      eq\n      tag_67\n      jumpi\n      dup1\n      0x8da5cb5b\n      eq\n      tag_63\n      jumpi\n      dup1\n      0xa78e922b\n      eq\n      tag_65\n      jumpi\n      dup1\n      0xb0b6cc1a\n      eq\n      tag_67\n      jumpi\n      0xf2fde38b\n      eq\n      tag_69\n      jumpi\n      0x00\n      dup1\n      revert\n    tag_69:\n      tag_20\n      jump\t// in\n    tag_67:\n      tag_16\n      jump\t// in\n    tag_65:\n      tag_18\n      jump\t// in\n    tag_63:\n      tag_17\n      jump\t// in\n    tag_59:\n      tag_9\n      jump\t// in\n    tag_57:\n      tag_14\n      jump\t// in\n    tag_55:\n      tag_13\n      jump\t// in\n    tag_53:\n      tag_12\n      jump\t// in\n    tag_51:\n      tag_11\n      jump\t// in\n    tag_49:\n      tag_10\n      jump\t// in\n    tag_45:\n      tag_7\n      jump\t// in\n    tag_2:\n      sub(shl(0xa0, 0x01), 0x01)\n      dup2\n      and\n      sub\n      tag_71\n      jumpi\n      jump\t// out\n    tag_71:\n      0x00\n      dup1\n      revert\n    tag_3:\n      swap2\n      dup2\n      0x1f\n      dup5\n      add\n      slt\n      iszero\n      tag_71\n      jumpi\n      dup3\n      calldataload\n      swap2\n      0xffffffffffffffff\n      dup4\n      gt\n      tag_71\n      jumpi\n      0x20\n      dup4\n      dup2\n      dup7\n      add\n      swap6\n      add\n      add\n      gt\n      tag_71\n      jumpi\n      jump\t// out\n    tag_4:\n      0x00\n    tag_79:\n      dup4\n      dup2\n      lt\n      tag_80\n      jumpi\n      pop\n      pop\n      0x00\n      swap2\n      add\n      mstore\n      jump\t// out\n    tag_80:\n      dup2\n      dup2\n      add\n      mload\n      dup4\n      dup3\n      add\n      mstore\n      0x20\n      add\n      jump(tag_79)\n    tag_5:\n      swap1\n      0x20\n      swap2\n      tag_82\n      dup2\n      mload\n      dup1\n      swap3\n      dup2\n      dup6\n      mstore\n      dup6\n      dup1\n      dup7\n      add\n      swap2\n      add\n      tag_4\n      jump\t// in\n    tag_82:\n      0x1f\n      add\n      not(0x1f)\n      and\n      add\n      add\n      swap1\n      jump\t// out\n    tag_6:\n      swap1\n      0x20\n      tag_83\n      swap3\n      dup2\n      dup2\n      mstore\n      add\n      swap1\n      tag_5\n      jump\t// in\n    tag_83:\n      swap1\n      jump\t// out\n    tag_7:\n      jumpi(tag_71, callvalue)\n      jumpi(tag_71, slt(add(not(0x03), calldatasize), 0xc0))\n      tag_88\n      calldataload(0x24)\n      tag_2\n      jump\t// in\n    tag_88:\n      calldataload(0x44)\n      0xffffffffffffffff\n      calldataload(0x64)\n      dup2\n      dup2\n      gt\n      tag_71\n      jumpi\n      tag_91\n      swap1\n      calldatasize\n      swap1\n      0x04\n      add\n      tag_3\n      jump\t// in\n    tag_91:\n      swap3\n      swap1\n      swap2\n      calldataload(0xa4)\n      swap1\n      dup2\n      gt\n      tag_71\n      jumpi\n      tag_94\n      swap1\n      calldatasize\n      swap1\n      0x04\n      add\n      tag_3\n      jump\t// in\n    tag_94:\n        /* \"src/Contract Architecture/Core Infrastructure/ActionExecutor_flattened.sol\":16461:16478  modules[moduleId] */\n      tag_95\n      tag_96\n        /* \"src/Contract Architecture/Core Infrastructure/ActionExecutor_flattened.sol\":13355:19258  contract ActionExecutor is Ownable {... */\n      mstore(0x00, calldataload(0x04))\n        /* \"src/Contract Architecture/Core Infrastructure/ActionExecutor_flattened.sol\":18278:18285  modules */\n      0x01\n        /* \"src/Contract Architecture/Core Infrastructure/ActionExecutor_flattened.sol\":13355:19258  contract ActionExecutor is Ownable {... */\n      0x20\n      mstore\n      keccak256(0x00, 0x40)\n      swap1\n      jump\n        /* \"src/Contract Architecture/Core Infrastructure/ActionExecutor_flattened.sol\":16461:16478  modules[moduleId] */\n    tag_96:\n        /* \"src/Contract Architecture/Core Infrastructure/ActionExecutor_flattened.sol\":13355:19258  contract ActionExecutor is Ownable {... */\n      sload\n      sub(shl(0xa0, 0x01), 0x01)\n      and\n      swap1\n      jump\n        /* \"src/Contract Architecture/Core Infrastructure/ActionExecutor_flattened.sol\":16461:16478  modules[moduleId] */\n    tag_95:\n        /* \"src/Contract Architecture/Core Infrastructure/ActionExecutor_flattened.sol\":13355:19258  contract ActionExecutor is Ownable {... */\n      swap1\n      sub(shl(0xa0, 0x01), 0x01)\n      dup3\n      and\n        /* \"src/Contract Architecture/Core Infrastructure/ActionExecutor_flattened.sol\":16492:16512  module == address(0) */\n      iszero\n        /* \"src/Contract Architecture/Core Infrastructure/ActionExecutor_flattened.sol\":16488:16542  if (module == address(0)) revert ModuleNotRegistered() */\n      tag_97\n      jumpi\n        /* \"src/Contract Architecture/Core Infrastructure/ActionExecutor_flattened.sol\":13355:19258  contract ActionExecutor is Ownable {... */\n      and(sub(shl(0xa0, 0x01), 0x01), calldataload(0x24))\n        /* \"src/Contract Architecture/Core Infrastructure/ActionExecutor_flattened.sol\":16556:16575  vault == address(0) */\n      iszero\n        /* \"src/Contract Architecture/Core Infrastructure/ActionExecutor_flattened.sol\":16552:16597  if (vault == address(0)) revert ZeroAddress() */\n      tag_99\n      jumpi\n        /* \"src/Contract Architecture/Core Infrastructure/ActionExecutor_flattened.sol\":13355:19258  contract ActionExecutor is Ownable {... */\n      calldataload(0x84)\n        /* \"src/Contract Architecture/Core Infrastructure/ActionExecutor_flattened.sol\":16611:16626  block.timestamp */\n      timestamp\n        /* \"src/Contract Architecture/Core Infrastructure/ActionExecutor_flattened.sol\":16611:16637  block.timestamp > deadline */\n      gt\n        /* \"src/Contract Architecture/Core Infrastructure/ActionExecutor_flattened.sol\":16607:16664  if (block.timestamp > deadline) revert SignatureExpired() */\n      tag_101\n      jumpi\n      sub(shl(0xa0, 0x01), 0x01)\n        /* \"src/Contract Architecture/Core Infrastructure/ActionExecutor_flattened.sol\":13355:19258  contract ActionExecutor is Ownable {... */\n      calldataload(0x24)\n      and\n      0x00\n      swap1\n      dup2\n      mstore\n        /* \"src/Contract Architecture/Core Infrastructure/ActionExecutor_flattened.sol\":16718:16724  nonces */\n      0x02\n        /* \"src/Contract Architecture/Core Infrastructure/ActionExecutor_flattened.sol\":13355:19258  contract ActionExecutor is Ownable {... */\n      0x20\n      mstore\n      0x40\n      swap1\n      keccak256\n        /* \"src/Contract Architecture/Core Infrastructure/ActionExecutor_flattened.sol\":17008:17027  digest.recover(sig) */\n      tag_103\n      swap2\n        /* \"src/Contract Architecture/Core Infrastructure/ActionExecutor_flattened.sol\":13355:19258  contract ActionExecutor is Ownable {... */\n      swap1\n      tag_104\n      swap1\n      sload\n      swap5\n      tag_106\n      calldatasize\n      dup11\n      dup11\n      tag_25\n      jump\t// in\n    tag_106:\n      dup1\n      mload\n      0x20\n      swap2\n      dup3\n      add\n        /* \"src/Contract Architecture/Core Infrastructure/ActionExecutor_flattened.sol\":16824:16839  keccak256(data) */\n      keccak256\n        /* \"src/Contract Architecture/Core Infrastructure/ActionExecutor_flattened.sol\":13355:19258  contract ActionExecutor is Ownable {... */\n      0x40\n      dup1\n      mload\n        /* \"src/Contract Architecture/Core Infrastructure/ActionExecutor_flattened.sol\":14325:14432  keccak256(\"Action(address vault,bytes32 moduleId,uint256 value,bytes data,uint256 nonce,uint256 deadline)\") */\n      0x2eaaf47f5d8d55bbdfc0070d3bf4e5c48f0e169aeb82b023197c8b2c69c6a338\n        /* \"src/Contract Architecture/Core Infrastructure/ActionExecutor_flattened.sol\":16772:16857  abi.encode(ACTION_TYPEHASH, vault, moduleId, value, keccak256(data), nonce, deadline) */\n      swap4\n      dup2\n      add\n        /* \"src/Contract Architecture/Core Infrastructure/ActionExecutor_flattened.sol\":13355:19258  contract ActionExecutor is Ownable {... */\n      swap4\n      dup5\n      mstore\n      and(sub(shl(0xa0, 0x01), 0x01), calldataload(0x24))\n      swap2\n      dup2\n      add\n      swap2\n      swap1\n      swap2\n      mstore\n      calldataload(0x04)\n      0x60\n      dup3\n      add\n      mstore\n      0x80\n      dup2\n      add\n      dup11\n      swap1\n      mstore\n      0xa0\n      dup2\n      add\n      swap2\n      swap1\n      swap2\n      mstore\n      0xc0\n      dup2\n      add\n      dup9\n      swap1\n      mstore\n      calldataload(0x84)\n      0xe0\n      dup1\n      dup4\n      add\n      swap2\n      swap1\n      swap2\n      mstore\n        /* \"src/Contract Architecture/Core Infrastructure/ActionExecutor_flattened.sol\":16772:16857  abi.encode(ACTION_TYPEHASH, vault, moduleId, value, keccak256(data), nonce, deadline) */\n      dup2\n      mstore\n      not(0x1f)\n      swap2\n      swap1\n      tag_108\n        /* \"src/Contract Architecture/Core Infrastructure/ActionExecutor_flattened.sol\":13355:19258  contract ActionExecutor is Ownable {... */\n      0x0100\n      dup3\n        /* \"src/Contract Architecture/Core Infrastructure/ActionExecutor_flattened.sol\":16772:16857  abi.encode(ACTION_TYPEHASH, vault, moduleId, value, keccak256(data), nonce, deadline) */\n      tag_23\n      jump\t// in\n    tag_108:\n        /* \"src/Contract Architecture/Core Infrastructure/ActionExecutor_flattened.sol\":13355:19258  contract ActionExecutor is Ownable {... */\n      mload\n        /* \"src/Contract Architecture/Core Infrastructure/ActionExecutor_flattened.sol\":16762:16858  keccak256(abi.encode(ACTION_TYPEHASH, vault, moduleId, value, keccak256(data), nonce, deadline)) */\n      swap1\n      keccak256\n        /* \"src/Contract Architecture/Core Infrastructure/ActionExecutor_flattened.sol\":13355:19258  contract ActionExecutor is Ownable {... */\n      mload(0x40)\n      shl(0xf0, 0x1901)\n      0x20\n        /* \"src/Contract Architecture/Core Infrastructure/ActionExecutor_flattened.sol\":16895:16953  abi.encodePacked(\"\\x19\\x01\", DOMAIN_SEPARATOR, structHash) */\n      dup3\n      add\n        /* \"src/Contract Architecture/Core Infrastructure/ActionExecutor_flattened.sol\":13355:19258  contract ActionExecutor is Ownable {... */\n      swap1\n      dup2\n      mstore\n        /* \"src/Contract Architecture/Core Infrastructure/ActionExecutor_flattened.sol\":16924:16940  DOMAIN_SEPARATOR */\n      immutable(\"0x370d4a29255586406ab90f2fe1a237739249ae659f6973b0316c9bd15a3e8f14\")\n        /* \"src/Contract Architecture/Core Infrastructure/ActionExecutor_flattened.sol\":13355:19258  contract ActionExecutor is Ownable {... */\n      0x22\n      dup4\n      add\n      mstore\n      0x42\n      dup3\n      add\n      swap3\n      swap1\n      swap3\n      mstore\n      0x62\n        /* \"src/Contract Architecture/Core Infrastructure/ActionExecutor_flattened.sol\":16895:16953  abi.encodePacked(\"\\x19\\x01\", DOMAIN_SEPARATOR, structHash) */\n      swap3\n      dup4\n      add\n      dup2\n      mstore\n      swap1\n      swap2\n      tag_109\n      swap1\n        /* \"src/Contract Architecture/Core Infrastructure/ActionExecutor_flattened.sol\":13355:19258  contract ActionExecutor is Ownable {... */\n      dup3\n        /* \"src/Contract Architecture/Core Infrastructure/ActionExecutor_flattened.sol\":16895:16953  abi.encodePacked(\"\\x19\\x01\", DOMAIN_SEPARATOR, structHash) */\n      tag_23\n      jump\t// in\n    tag_109:\n        /* \"src/Contract Architecture/Core Infrastructure/ActionExecutor_flattened.sol\":13355:19258  contract ActionExecutor is Ownable {... */\n      mload\n        /* \"src/Contract Architecture/Core Infrastructure/ActionExecutor_flattened.sol\":16885:16954  keccak256(abi.encodePacked(\"\\x19\\x01\", DOMAIN_SEPARATOR, structHash)) */\n      swap1\n      keccak256\n        /* \"src/Contract Architecture/Core Infrastructure/ActionExecutor_flattened.sol\":13355:19258  contract ActionExecutor is Ownable {... */\n      swap3\n      calldatasize\n      swap2\n      tag_25\n      jump\t// in\n    tag_104:\n        /* \"src/Contract Architecture/Core Infrastructure/ActionExecutor_flattened.sol\":17008:17027  digest.recover(sig) */\n      swap1\n      tag_37\n      jump\t// in\n    tag_103:\n        /* \"src/Contract Architecture/Core Infrastructure/ActionExecutor_flattened.sol\":13355:19258  contract ActionExecutor is Ownable {... */\n      mload(0x40)\n      shl(0xe0, 0x8da5cb5b)\n        /* \"src/Contract Architecture/Core Infrastructure/ActionExecutor_flattened.sol\":17105:17130  IUserVault(vault).owner() */\n      dup2\n      mstore\n        /* \"src/Contract Architecture/Core Infrastructure/ActionExecutor_flattened.sol\":13355:19258  contract ActionExecutor is Ownable {... */\n      swap3\n      swap1\n      0x20\n      dup5\n      0x04\n      dup2\n      and(sub(shl(0xa0, 0x01), 0x01), calldataload(0x24))\n        /* \"src/Contract Architecture/Core Infrastructure/ActionExecutor_flattened.sol\":17105:17130  IUserVault(vault).owner() */\n      gas\n      staticcall\n      swap4\n      dup5\n      iszero\n      tag_111\n      jumpi\n      0x00\n      swap5\n      tag_113\n      jumpi\n        /* \"src/Contract Architecture/Core Infrastructure/ActionExecutor_flattened.sol\":13355:19258  contract ActionExecutor is Ownable {... */\n    tag_114:\n      pop\n      sub(shl(0xa0, 0x01), 0x01)\n      and\n      swap3\n        /* \"src/Contract Architecture/Core Infrastructure/ActionExecutor_flattened.sol\":17144:17164  signer == address(0) */\n      dup4\n      iszero\n      swap1\n        /* \"src/Contract Architecture/Core Infrastructure/ActionExecutor_flattened.sol\":17144:17188  signer == address(0) || signer != vaultOwner */\n      dup2\n      iszero\n      tag_115\n      jumpi\n        /* \"src/Contract Architecture/Core Infrastructure/ActionExecutor_flattened.sol\":13355:19258  contract ActionExecutor is Ownable {... */\n    tag_116:\n        /* \"src/Contract Architecture/Core Infrastructure/ActionExecutor_flattened.sol\":17140:17212  if (signer == address(0) || signer != vaultOwner) revert InvalidSigner() */\n      pop\n      tag_117\n      jumpi\n        /* \"src/Contract Architecture/Core Infrastructure/ActionExecutor_flattened.sol\":17266:17275  nonce + 1 */\n      tag_119\n      swap1\n      tag_30\n      jump\t// in\n    tag_119:\n      sub(shl(0xa0, 0x01), 0x01)\n        /* \"src/Contract Architecture/Core Infrastructure/ActionExecutor_flattened.sol\":13355:19258  contract ActionExecutor is Ownable {... */\n      calldataload(0x24)\n      and\n      0x00\n      swap1\n      dup2\n      mstore\n        /* \"src/Contract Architecture/Core Infrastructure/ActionExecutor_flattened.sol\":16718:16724  nonces */\n      0x02\n        /* \"src/Contract Architecture/Core Infrastructure/ActionExecutor_flattened.sol\":13355:19258  contract ActionExecutor is Ownable {... */\n      0x20\n      mstore\n      0x40\n      swap1\n      keccak256\n      sstore\n      mload(0x40)\n      shl(0xe0, 0x9e5d4c49)\n        /* \"src/Contract Architecture/Core Infrastructure/ActionExecutor_flattened.sol\":17401:17451  IUserVault(vault).executeCall(module, value, data) */\n      dup2\n      mstore\n      0x00\n        /* \"src/Contract Architecture/Core Infrastructure/ActionExecutor_flattened.sol\":13355:19258  contract ActionExecutor is Ownable {... */\n      dup2\n      dup1\n        /* \"src/Contract Architecture/Core Infrastructure/ActionExecutor_flattened.sol\":17401:17451  IUserVault(vault).executeCall(module, value, data) */\n      tag_121\n      dup10\n      dup10\n      dup10\n      dup9\n        /* \"src/Contract Architecture/Core Infrastructure/ActionExecutor_flattened.sol\":13355:19258  contract ActionExecutor is Ownable {... */\n      0x04\n        /* \"src/Contract Architecture/Core Infrastructure/ActionExecutor_flattened.sol\":17401:17451  IUserVault(vault).executeCall(module, value, data) */\n      dup7\n      add\n      tag_33\n      jump\t// in\n    tag_121:\n      sub\n        /* \"src/Contract Architecture/Core Infrastructure/ActionExecutor_flattened.sol\":13355:19258  contract ActionExecutor is Ownable {... */\n      dup2\n      dup4\n      and(sub(shl(0xa0, 0x01), 0x01), calldataload(0x24))\n        /* \"src/Contract Architecture/Core Infrastructure/ActionExecutor_flattened.sol\":17401:17451  IUserVault(vault).executeCall(module, value, data) */\n      gas\n      call\n      0x00\n      swap2\n      dup2\n      tag_122\n      jumpi\n        /* \"src/Contract Architecture/Core Infrastructure/ActionExecutor_flattened.sol\":13355:19258  contract ActionExecutor is Ownable {... */\n    tag_123:\n      pop\n        /* \"src/Contract Architecture/Core Infrastructure/ActionExecutor_flattened.sol\":17397:17784  try IUserVault(vault).executeCall(module, value, data) returns (bytes memory r) {... */\n      tag_124\n      jumpi\n        /* \"src/Contract Architecture/Core Infrastructure/ActionExecutor_flattened.sol\":17510:17784  catch (bytes memory reason) {... */\n      tag_126\n      tag_34\n      jump\t// in\n    tag_126:\n        /* \"src/Contract Architecture/Core Infrastructure/ActionExecutor_flattened.sol\":13355:19258  contract ActionExecutor is Ownable {... */\n      dup1\n      mload\n        /* \"src/Contract Architecture/Core Infrastructure/ActionExecutor_flattened.sol\":17598:17615  reason.length > 0 */\n      swap1\n      dup2\n        /* \"src/Contract Architecture/Core Infrastructure/ActionExecutor_flattened.sol\":17594:17736  if (reason.length > 0) {... */\n      tag_127\n      jumpi\n        /* \"src/Contract Architecture/Core Infrastructure/ActionExecutor_flattened.sol\":13355:19258  contract ActionExecutor is Ownable {... */\n      mload(0x40)\n      shl(0xe2, 0x2b3f6d11)\n        /* \"src/Contract Architecture/Core Infrastructure/ActionExecutor_flattened.sol\":17756:17773  ExecutionFailed() */\n      dup2\n      mstore\n        /* \"src/Contract Architecture/Core Infrastructure/ActionExecutor_flattened.sol\":13355:19258  contract ActionExecutor is Ownable {... */\n      0x04\n      swap1\n        /* \"src/Contract Architecture/Core Infrastructure/ActionExecutor_flattened.sol\":17756:17773  ExecutionFailed() */\n      revert\n        /* \"src/Contract Architecture/Core Infrastructure/ActionExecutor_flattened.sol\":17594:17736  if (reason.length > 0) {... */\n    tag_127:\n        /* \"src/Contract Architecture/Core Infrastructure/ActionExecutor_flattened.sol\":13355:19258  contract ActionExecutor is Ownable {... */\n      0x20\n        /* \"src/Contract Architecture/Core Infrastructure/ActionExecutor_flattened.sol\":17635:17722  assembly {... */\n      add\n      revert\n        /* \"src/Contract Architecture/Core Infrastructure/ActionExecutor_flattened.sol\":17397:17784  try IUserVault(vault).executeCall(module, value, data) returns (bytes memory r) {... */\n    tag_124:\n        /* \"src/Contract Architecture/Core Infrastructure/ActionExecutor_flattened.sol\":13355:19258  contract ActionExecutor is Ownable {... */\n      mload(0x40)\n      tag_129\n      swap7\n        /* \"src/Contract Architecture/Core Infrastructure/ActionExecutor_flattened.sol\":17491:17498  res = r */\n      swap2\n      swap6\n        /* \"src/Contract Architecture/Core Infrastructure/ActionExecutor_flattened.sol\":13355:19258  contract ActionExecutor is Ownable {... */\n      calldataload(0x04)\n      swap6\n      and(sub(shl(0xa0, 0x01), 0x01), calldataload(0x24))\n      swap5\n        /* \"src/Contract Architecture/Core Infrastructure/ActionExecutor_flattened.sol\":17799:17864  ActionExecuted(vault, signer, moduleId, module, value, data, res) */\n      0xbdc4e709cee662270d6b1f3b98b847541936a3762b56f7229d50448d83476e24\n      swap5\n        /* \"src/Contract Architecture/Core Infrastructure/ActionExecutor_flattened.sol\":13355:19258  contract ActionExecutor is Ownable {... */\n      dup5\n      swap4\n        /* \"src/Contract Architecture/Core Infrastructure/ActionExecutor_flattened.sol\":17799:17864  ActionExecuted(vault, signer, moduleId, module, value, data, res) */\n      tag_130\n      swap4\n        /* \"src/Contract Architecture/Core Infrastructure/ActionExecutor_flattened.sol\":17491:17498  res = r */\n      dup12\n      swap4\n        /* \"src/Contract Architecture/Core Infrastructure/ActionExecutor_flattened.sol\":13355:19258  contract ActionExecutor is Ownable {... */\n      dup7\n        /* \"src/Contract Architecture/Core Infrastructure/ActionExecutor_flattened.sol\":17799:17864  ActionExecuted(vault, signer, moduleId, module, value, data, res) */\n      tag_35\n      jump\t// in\n    tag_130:\n      sub\n      swap1\n      log4\n        /* \"src/Contract Architecture/Core Infrastructure/ActionExecutor_flattened.sol\":13355:19258  contract ActionExecutor is Ownable {... */\n      mload(0x40)\n      swap2\n      dup3\n      swap2\n      dup3\n      tag_6\n      jump\t// in\n    tag_129:\n      sub\n      swap1\n      return\n        /* \"src/Contract Architecture/Core Infrastructure/ActionExecutor_flattened.sol\":17401:17451  IUserVault(vault).executeCall(module, value, data) */\n    tag_122:\n      tag_131\n      swap2\n      swap3\n      pop\n      returndatasize\n      dup1\n      0x00\n      dup4\n      returndatacopy\n      tag_132\n      dup2\n      dup4\n      tag_23\n      jump\t// in\n    tag_132:\n      dup2\n      add\n      swap1\n      tag_31\n      jump\t// in\n    tag_131:\n      swap1\n      0x00\n      jump(tag_123)\n        /* \"src/Contract Architecture/Core Infrastructure/ActionExecutor_flattened.sol\":17140:17212  if (signer == address(0) || signer != vaultOwner) revert InvalidSigner() */\n    tag_117:\n        /* \"src/Contract Architecture/Core Infrastructure/ActionExecutor_flattened.sol\":13355:19258  contract ActionExecutor is Ownable {... */\n      mload(0x40)\n      shl(0xe2, 0x20578759)\n        /* \"src/Contract Architecture/Core Infrastructure/ActionExecutor_flattened.sol\":17197:17212  InvalidSigner() */\n      dup2\n      mstore\n        /* \"src/Contract Architecture/Core Infrastructure/ActionExecutor_flattened.sol\":13355:19258  contract ActionExecutor is Ownable {... */\n      0x04\n      swap1\n        /* \"src/Contract Architecture/Core Infrastructure/ActionExecutor_flattened.sol\":17197:17212  InvalidSigner() */\n      revert\n        /* \"src/Contract Architecture/Core Infrastructure/ActionExecutor_flattened.sol\":17144:17188  signer == address(0) || signer != vaultOwner */\n    tag_115:\n      sub(shl(0xa0, 0x01), 0x01)\n        /* \"src/Contract Architecture/Core Infrastructure/ActionExecutor_flattened.sol\":13355:19258  contract ActionExecutor is Ownable {... */\n      and\n        /* \"src/Contract Architecture/Core Infrastructure/ActionExecutor_flattened.sol\":17168:17188  signer != vaultOwner */\n      dup5\n      eq\n      iszero\n      swap1\n      pop\n        /* \"src/Contract Architecture/Core Infrastructure/ActionExecutor_flattened.sol\":17144:17188  signer == address(0) || signer != vaultOwner */\n      0x00\n      jump(tag_116)\n        /* \"src/Contract Architecture/Core Infrastructure/ActionExecutor_flattened.sol\":17105:17130  IUserVault(vault).owner() */\n    tag_113:\n      tag_133\n      swap2\n      swap5\n      pop\n        /* \"src/Contract Architecture/Core Infrastructure/ActionExecutor_flattened.sol\":13355:19258  contract ActionExecutor is Ownable {... */\n      0x20\n        /* \"src/Contract Architecture/Core Infrastructure/ActionExecutor_flattened.sol\":17105:17130  IUserVault(vault).owner() */\n      returndatasize\n        /* \"src/Contract Architecture/Core Infrastructure/ActionExecutor_flattened.sol\":13355:19258  contract ActionExecutor is Ownable {... */\n      0x20\n        /* \"src/Contract Architecture/Core Infrastructure/ActionExecutor_flattened.sol\":17105:17130  IUserVault(vault).owner() */\n      gt\n      tag_134\n      jumpi\n    tag_135:\n      tag_136\n      dup2\n      dup4\n      tag_23\n      jump\t// in\n    tag_136:\n      dup2\n      add\n      swap1\n      tag_28\n      jump\t// in\n    tag_133:\n      swap3\n      0x00\n      jump(tag_114)\n    tag_134:\n      pop\n      returndatasize\n      jump(tag_135)\n    tag_111:\n      tag_29\n      jump\t// in\n        /* \"src/Contract Architecture/Core Infrastructure/ActionExecutor_flattened.sol\":16607:16664  if (block.timestamp > deadline) revert SignatureExpired() */\n    tag_101:\n        /* \"src/Contract Architecture/Core Infrastructure/ActionExecutor_flattened.sol\":13355:19258  contract ActionExecutor is Ownable {... */\n      mload(0x40)\n      shl(0xe0, 0x0819bdcd)\n        /* \"src/Contract Architecture/Core Infrastructure/ActionExecutor_flattened.sol\":16646:16664  SignatureExpired() */\n      dup2\n      mstore\n        /* \"src/Contract Architecture/Core Infrastructure/ActionExecutor_flattened.sol\":13355:19258  contract ActionExecutor is Ownable {... */\n      0x04\n      swap1\n        /* \"src/Contract Architecture/Core Infrastructure/ActionExecutor_flattened.sol\":16646:16664  SignatureExpired() */\n      revert\n        /* \"src/Contract Architecture/Core Infrastructure/ActionExecutor_flattened.sol\":16552:16597  if (vault == address(0)) revert ZeroAddress() */\n    tag_99:\n        /* \"src/Contract Architecture/Core Infrastructure/ActionExecutor_flattened.sol\":13355:19258  contract ActionExecutor is Ownable {... */\n      mload(0x40)\n      shl(0xe0, 0xd92e233d)\n        /* \"src/Contract Architecture/Core Infrastructure/ActionExecutor_flattened.sol\":16584:16597  ZeroAddress() */\n      dup2\n      mstore\n        /* \"src/Contract Architecture/Core Infrastructure/ActionExecutor_flattened.sol\":13355:19258  contract ActionExecutor is Ownable {... */\n      0x04\n      swap1\n        /* \"src/Contract Architecture/Core Infrastructure/ActionExecutor_flattened.sol\":16584:16597  ZeroAddress() */\n      revert\n        /* \"src/Contract Architecture/Core Infrastructure/ActionExecutor_flattened.sol\":16488:16542  if (module == address(0)) revert ModuleNotRegistered() */\n    tag_97:\n        /* \"src/Contract Architecture/Core Infrastructure/ActionExecutor_flattened.sol\":13355:19258  contract ActionExecutor is Ownable {... */\n      mload(0x40)\n      shl(0xe1, 0x4e25774f)\n        /* \"src/Contract Architecture/Core Infrastructure/ActionExecutor_flattened.sol\":16521:16542  ModuleNotRegistered() */\n      dup2\n      mstore\n        /* \"src/Contract Architecture/Core Infrastructure/ActionExecutor_flattened.sol\":13355:19258  contract ActionExecutor is Ownable {... */\n      0x04\n      swap1\n        /* \"src/Contract Architecture/Core Infrastructure/ActionExecutor_flattened.sol\":16521:16542  ModuleNotRegistered() */\n      revert\n        /* \"src/Contract Architecture/Core Infrastructure/ActionExecutor_flattened.sol\":13355:19258  contract ActionExecutor is Ownable {... */\n    tag_9:\n      jumpi(tag_71, callvalue)\n      jumpi(tag_71, slt(add(not(0x03), calldatasize), 0x20))\n      calldataload(0x04)\n      tag_141\n      dup2\n      tag_2\n      jump\t// in\n    tag_141:\n      0x01\n      dup1\n      0xa0\n      shl\n      sub\n      and\n      0x00\n      mstore\n        /* \"src/Contract Architecture/Core Infrastructure/ActionExecutor_flattened.sol\":19236:19242  nonces */\n      0x02\n        /* \"src/Contract Architecture/Core Infrastructure/ActionExecutor_flattened.sol\":13355:19258  contract ActionExecutor is Ownable {... */\n      0x20\n      mstore\n      0x20\n      sload(keccak256(0x00, 0x40))\n      mload(0x40)\n      swap1\n      dup2\n      mstore\n      return\n    tag_10:\n      jumpi(tag_71, callvalue)\n      jumpi(tag_71, slt(add(not(0x03), calldatasize), 0x80))\n      0x04\n      calldataload(0x24)\n      dup2\n      calldataload\n      tag_146\n      dup3\n      tag_2\n      jump\t// in\n    tag_146:\n      calldataload(0x44)\n      swap2\n      calldataload(0x64)\n      0xffffffffffffffff\n      dup2\n      gt\n      tag_71\n      jumpi\n      tag_149\n      swap1\n      calldatasize\n      swap1\n      dup7\n      add\n      tag_3\n      jump\t// in\n    tag_149:\n        /* \"src/Contract Architecture/Core Infrastructure/ActionExecutor_flattened.sol\":2462:2524  modifier onlyOwner() {... */\n      swap4\n      swap1\n      swap2\n      tag_150\n      tag_38\n      jump\t// in\n    tag_150:\n        /* \"src/Contract Architecture/Core Infrastructure/ActionExecutor_flattened.sol\":18278:18295  modules[moduleId] */\n      tag_151\n      tag_96\n      dup6\n        /* \"src/Contract Architecture/Core Infrastructure/ActionExecutor_flattened.sol\":13355:19258  contract ActionExecutor is Ownable {... */\n      0x00\n      mstore\n        /* \"src/Contract Architecture/Core Infrastructure/ActionExecutor_flattened.sol\":18278:18285  modules */\n      0x01\n        /* \"src/Contract Architecture/Core Infrastructure/ActionExecutor_flattened.sol\":13355:19258  contract ActionExecutor is Ownable {... */\n      0x20\n      mstore\n      keccak256(0x00, 0x40)\n      swap1\n      jump\n        /* \"src/Contract Architecture/Core Infrastructure/ActionExecutor_flattened.sol\":18278:18295  modules[moduleId] */\n    tag_151:\n        /* \"src/Contract Architecture/Core Infrastructure/ActionExecutor_flattened.sol\":13355:19258  contract ActionExecutor is Ownable {... */\n      swap1\n      sub(shl(0xa0, 0x01), 0x01)\n      swap1\n      dup2\n      dup4\n      and\n        /* \"src/Contract Architecture/Core Infrastructure/ActionExecutor_flattened.sol\":18309:18329  module == address(0) */\n      iszero\n        /* \"src/Contract Architecture/Core Infrastructure/ActionExecutor_flattened.sol\":18305:18359  if (module == address(0)) revert ModuleNotRegistered() */\n      tag_153\n      jumpi\n        /* \"src/Contract Architecture/Core Infrastructure/ActionExecutor_flattened.sol\":13355:19258  contract ActionExecutor is Ownable {... */\n      and\n        /* \"src/Contract Architecture/Core Infrastructure/ActionExecutor_flattened.sol\":18373:18392  vault == address(0) */\n      swap3\n      dup4\n      iszero\n        /* \"src/Contract Architecture/Core Infrastructure/ActionExecutor_flattened.sol\":18369:18414  if (vault == address(0)) revert ZeroAddress() */\n      tag_155\n      jumpi\n        /* \"src/Contract Architecture/Core Infrastructure/ActionExecutor_flattened.sol\":13355:19258  contract ActionExecutor is Ownable {... */\n      dup3\n      0x00\n      dup4\n      dup10\n        /* \"src/Contract Architecture/Core Infrastructure/ActionExecutor_flattened.sol\":18455:18505  IUserVault(vault).executeCall(module, value, data) */\n      tag_157\n        /* \"src/Contract Architecture/Core Infrastructure/ActionExecutor_flattened.sol\":13355:19258  contract ActionExecutor is Ownable {... */\n      dup11\n      dup7\n      mload(0x40)\n      swap7\n      dup8\n      swap6\n      dup7\n      swap6\n      shl(0xe0, 0x9e5d4c49)\n        /* \"src/Contract Architecture/Core Infrastructure/ActionExecutor_flattened.sol\":18455:18505  IUserVault(vault).executeCall(module, value, data) */\n      dup8\n      mstore\n      dup7\n      add\n      tag_33\n      jump\t// in\n    tag_157:\n      sub\n      dup2\n      dup4\n      dup10\n      gas\n      call\n      0x00\n      swap2\n      dup2\n      tag_158\n      jumpi\n        /* \"src/Contract Architecture/Core Infrastructure/ActionExecutor_flattened.sol\":13355:19258  contract ActionExecutor is Ownable {... */\n    tag_159:\n      pop\n        /* \"src/Contract Architecture/Core Infrastructure/ActionExecutor_flattened.sol\":18451:18796  try IUserVault(vault).executeCall(module, value, data) returns (bytes memory r) {... */\n      tag_160\n      jumpi\n        /* \"src/Contract Architecture/Core Infrastructure/ActionExecutor_flattened.sol\":18564:18796  catch (bytes memory reason) {... */\n      dup8\n      tag_162\n      tag_34\n      jump\t// in\n    tag_162:\n        /* \"src/Contract Architecture/Core Infrastructure/ActionExecutor_flattened.sol\":13355:19258  contract ActionExecutor is Ownable {... */\n      dup1\n      mload\n        /* \"src/Contract Architecture/Core Infrastructure/ActionExecutor_flattened.sol\":18610:18627  reason.length > 0 */\n      swap1\n      dup2\n        /* \"src/Contract Architecture/Core Infrastructure/ActionExecutor_flattened.sol\":18606:18748  if (reason.length > 0) {... */\n      tag_127\n      jumpi\n        /* \"src/Contract Architecture/Core Infrastructure/ActionExecutor_flattened.sol\":13355:19258  contract ActionExecutor is Ownable {... */\n      mload(0x40)\n      shl(0xe2, 0x2b3f6d11)\n        /* \"src/Contract Architecture/Core Infrastructure/ActionExecutor_flattened.sol\":18768:18785  ExecutionFailed() */\n      dup2\n      mstore\n        /* \"src/Contract Architecture/Core Infrastructure/ActionExecutor_flattened.sol\":13355:19258  contract ActionExecutor is Ownable {... */\n      dup4\n      swap1\n        /* \"src/Contract Architecture/Core Infrastructure/ActionExecutor_flattened.sol\":18768:18785  ExecutionFailed() */\n      revert\n        /* \"src/Contract Architecture/Core Infrastructure/ActionExecutor_flattened.sol\":18451:18796  try IUserVault(vault).executeCall(module, value, data) returns (bytes memory r) {... */\n    tag_160:\n        /* \"src/Contract Architecture/Core Infrastructure/ActionExecutor_flattened.sol\":13355:19258  contract ActionExecutor is Ownable {... */\n      tag_129\n        /* \"src/Contract Architecture/Core Infrastructure/ActionExecutor_flattened.sol\":18545:18552  res = r */\n      swap8\n      pop\n      swap2\n        /* \"src/Contract Architecture/Core Infrastructure/ActionExecutor_flattened.sol\":18890:18959  ActionExecuted(vault, address(0), moduleId, module, value, data, res) */\n      tag_130\n      0x00\n        /* \"src/Contract Architecture/Core Infrastructure/ActionExecutor_flattened.sol\":18545:18552  res = r */\n      swap6\n      swap5\n      swap3\n        /* \"src/Contract Architecture/Core Infrastructure/ActionExecutor_flattened.sol\":18890:18959  ActionExecuted(vault, address(0), moduleId, module, value, data, res) */\n      0xbdc4e709cee662270d6b1f3b98b847541936a3762b56f7229d50448d83476e24\n        /* \"src/Contract Architecture/Core Infrastructure/ActionExecutor_flattened.sol\":18545:18552  res = r */\n      swap5\n        /* \"src/Contract Architecture/Core Infrastructure/ActionExecutor_flattened.sol\":18451:18796  try IUserVault(vault).executeCall(module, value, data) returns (bytes memory r) {... */\n      swap9\n      dup10\n      swap2\n        /* \"src/Contract Architecture/Core Infrastructure/ActionExecutor_flattened.sol\":13355:19258  contract ActionExecutor is Ownable {... */\n      mload(0x40)\n        /* \"src/Contract Architecture/Core Infrastructure/ActionExecutor_flattened.sol\":18890:18959  ActionExecuted(vault, address(0), moduleId, module, value, data, res) */\n      swap6\n      dup7\n      swap6\n      dup7\n      tag_35\n      jump\t// in\n        /* \"src/Contract Architecture/Core Infrastructure/ActionExecutor_flattened.sol\":18455:18505  IUserVault(vault).executeCall(module, value, data) */\n    tag_158:\n      tag_167\n      swap2\n      swap3\n      pop\n      returndatasize\n      dup1\n      0x00\n      dup4\n      returndatacopy\n      tag_132\n      dup2\n      dup4\n      tag_23\n      jump\t// in\n    tag_167:\n      swap1\n      0x00\n      jump(tag_159)\n        /* \"src/Contract Architecture/Core Infrastructure/ActionExecutor_flattened.sol\":18369:18414  if (vault == address(0)) revert ZeroAddress() */\n    tag_155:\n        /* \"src/Contract Architecture/Core Infrastructure/ActionExecutor_flattened.sol\":13355:19258  contract ActionExecutor is Ownable {... */\n      mload(0x40)\n      shl(0xe0, 0xd92e233d)\n        /* \"src/Contract Architecture/Core Infrastructure/ActionExecutor_flattened.sol\":18401:18414  ZeroAddress() */\n      dup2\n      mstore\n        /* \"src/Contract Architecture/Core Infrastructure/ActionExecutor_flattened.sol\":13355:19258  contract ActionExecutor is Ownable {... */\n      dup8\n      swap1\n        /* \"src/Contract Architecture/Core Infrastructure/ActionExecutor_flattened.sol\":18401:18414  ZeroAddress() */\n      revert\n        /* \"src/Contract Architecture/Core Infrastructure/ActionExecutor_flattened.sol\":18305:18359  if (module == address(0)) revert ModuleNotRegistered() */\n    tag_153:\n        /* \"src/Contract Architecture/Core Infrastructure/ActionExecutor_flattened.sol\":13355:19258  contract ActionExecutor is Ownable {... */\n      mload(0x40)\n      shl(0xe1, 0x4e25774f)\n        /* \"src/Contract Architecture/Core Infrastructure/ActionExecutor_flattened.sol\":18338:18359  ModuleNotRegistered() */\n      dup2\n      mstore\n        /* \"src/Contract Architecture/Core Infrastructure/ActionExecutor_flattened.sol\":13355:19258  contract ActionExecutor is Ownable {... */\n      dup9\n      swap1\n        /* \"src/Contract Architecture/Core Infrastructure/ActionExecutor_flattened.sol\":18338:18359  ModuleNotRegistered() */\n      revert\n        /* \"src/Contract Architecture/Core Infrastructure/ActionExecutor_flattened.sol\":13355:19258  contract ActionExecutor is Ownable {... */\n    tag_11:\n      jumpi(tag_71, callvalue)\n      jumpi(tag_71, slt(add(not(0x03), calldatasize), 0x20))\n      calldataload(0x04)\n        /* \"src/Contract Architecture/Core Infrastructure/ActionExecutor_flattened.sol\":2462:2524  modifier onlyOwner() {... */\n      tag_173\n      tag_38\n      jump\t// in\n    tag_173:\n      0x00\n        /* \"src/Contract Architecture/Core Infrastructure/ActionExecutor_flattened.sol\":13355:19258  contract ActionExecutor is Ownable {... */\n      dup2\n      dup2\n      mstore\n        /* \"src/Contract Architecture/Core Infrastructure/ActionExecutor_flattened.sol\":15439:15446  modules */\n      0x01\n        /* \"src/Contract Architecture/Core Infrastructure/ActionExecutor_flattened.sol\":13355:19258  contract ActionExecutor is Ownable {... */\n      0x20\n      mstore\n      0x40\n      swap1\n      keccak256\n      sload\n      sub(shl(0xa0, 0x01), 0x01)\n      and\n      swap1\n        /* \"src/Contract Architecture/Core Infrastructure/ActionExecutor_flattened.sol\":15470:15487  mod == address(0) */\n      dup2\n      iszero\n        /* \"src/Contract Architecture/Core Infrastructure/ActionExecutor_flattened.sol\":15466:15512  if (mod == address(0)) revert ModuleNotFound() */\n      tag_174\n      jumpi\n      0x00\n        /* \"src/Contract Architecture/Core Infrastructure/ActionExecutor_flattened.sol\":13355:19258  contract ActionExecutor is Ownable {... */\n      dup2\n      dup2\n      mstore\n        /* \"src/Contract Architecture/Core Infrastructure/ActionExecutor_flattened.sol\":15439:15446  modules */\n      0x01\n        /* \"src/Contract Architecture/Core Infrastructure/ActionExecutor_flattened.sol\":13355:19258  contract ActionExecutor is Ownable {... */\n      0x20\n      mstore\n      0x40\n      dup2\n      keccak256\n      dup1\n      sload\n      not(sub(shl(0xa0, 0x01), 0x01))\n      and\n      swap1\n      sstore\n        /* \"src/Contract Architecture/Core Infrastructure/ActionExecutor_flattened.sol\":15561:15594  ModuleUnregistered(moduleId, mod) */\n      0xc631c273472e359a1548940daca1e146b3b6bf7582363a16e11b9f570783baee\n      swap1\n      dup1\n      log3\n        /* \"src/Contract Architecture/Core Infrastructure/ActionExecutor_flattened.sol\":13355:19258  contract ActionExecutor is Ownable {... */\n      stop\n        /* \"src/Contract Architecture/Core Infrastructure/ActionExecutor_flattened.sol\":15466:15512  if (mod == address(0)) revert ModuleNotFound() */\n    tag_174:\n        /* \"src/Contract Architecture/Core Infrastructure/ActionExecutor_flattened.sol\":13355:19258  contract ActionExecutor is Ownable {... */\n      mload(0x40)\n      shl(0xe2, 0x1c94b023)\n        /* \"src/Contract Architecture/Core Infrastructure/ActionExecutor_flattened.sol\":15496:15512  ModuleNotFound() */\n      dup2\n      mstore\n        /* \"src/Contract Architecture/Core Infrastructure/ActionExecutor_flattened.sol\":13355:19258  contract ActionExecutor is Ownable {... */\n      0x04\n      swap1\n        /* \"src/Contract Architecture/Core Infrastructure/ActionExecutor_flattened.sol\":15496:15512  ModuleNotFound() */\n      revert\n        /* \"src/Contract Architecture/Core Infrastructure/ActionExecutor_flattened.sol\":13355:19258  contract ActionExecutor is Ownable {... */\n    tag_12:\n      jumpi(tag_71, callvalue)\n      jumpi(tag_71, slt(add(not(0x03), calldatasize), 0x00))\n      0x20\n      mload(0x40)\n        /* \"src/Contract Architecture/Core Infrastructure/ActionExecutor_flattened.sol\":14120:14161  bytes32 public immutable DOMAIN_SEPARATOR */\n      immutable(\"0x370d4a29255586406ab90f2fe1a237739249ae659f6973b0316c9bd15a3e8f14\")\n        /* \"src/Contract Architecture/Core Infrastructure/ActionExecutor_flattened.sol\":13355:19258  contract ActionExecutor is Ownable {... */\n      dup2\n      mstore\n      return\n    tag_13:\n      jumpi(tag_71, callvalue)\n      jumpi(tag_71, slt(add(not(0x03), calldatasize), 0x00))\n      0x20\n      mload(0x40)\n        /* \"src/Contract Architecture/Core Infrastructure/ActionExecutor_flattened.sol\":14325:14432  keccak256(\"Action(address vault,bytes32 moduleId,uint256 value,bytes data,uint256 nonce,uint256 deadline)\") */\n      0x2eaaf47f5d8d55bbdfc0070d3bf4e5c48f0e169aeb82b023197c8b2c69c6a338\n        /* \"src/Contract Architecture/Core Infrastructure/ActionExecutor_flattened.sol\":13355:19258  contract ActionExecutor is Ownable {... */\n      dup2\n      mstore\n      return\n    tag_14:\n      jumpi(tag_71, callvalue)\n      jumpi(tag_71, slt(add(not(0x03), calldatasize), 0x00))\n        /* \"src/Contract Architecture/Core Infrastructure/ActionExecutor_flattened.sol\":2462:2524  modifier onlyOwner() {... */\n      tag_188\n      tag_38\n      jump\t// in\n    tag_188:\n        /* \"src/Contract Architecture/Core Infrastructure/ActionExecutor_flattened.sol\":13355:19258  contract ActionExecutor is Ownable {... */\n      0x00\n      dup1\n      sload\n      not(sub(shl(0xa0, 0x01), 0x01))\n      dup2\n      and\n      dup3\n      sstore\n      sub(shl(0xa0, 0x01), 0x01)\n      and\n        /* \"src/Contract Architecture/Core Infrastructure/ActionExecutor_flattened.sol\":4014:4054  OwnershipTransferred(oldOwner, newOwner) */\n      0x8be0079c531659141344cd1fd0a4f28419497f9722a3daafe3b4186f6b6457e0\n        /* \"src/Contract Architecture/Core Infrastructure/ActionExecutor_flattened.sol\":13355:19258  contract ActionExecutor is Ownable {... */\n      dup3\n      dup1\n        /* \"src/Contract Architecture/Core Infrastructure/ActionExecutor_flattened.sol\":4014:4054  OwnershipTransferred(oldOwner, newOwner) */\n      log3\n        /* \"src/Contract Architecture/Core Infrastructure/ActionExecutor_flattened.sol\":13355:19258  contract ActionExecutor is Ownable {... */\n      stop\n    tag_16:\n      jumpi(tag_71, callvalue)\n      jumpi(tag_71, slt(add(not(0x03), calldatasize), 0x20))\n      mstore(0x00, calldataload(0x04))\n        /* \"src/Contract Architecture/Core Infrastructure/ActionExecutor_flattened.sol\":19124:19131  modules */\n      0x01\n        /* \"src/Contract Architecture/Core Infrastructure/ActionExecutor_flattened.sol\":13355:19258  contract ActionExecutor is Ownable {... */\n      0x20\n      mstore\n      0x20\n      0x01\n      dup1\n      0xa0\n      shl\n      sub\n      sload(keccak256(0x00, 0x40))\n      and\n      mload(0x40)\n      swap1\n      dup2\n      mstore\n      return\n    tag_17:\n      jumpi(tag_71, callvalue)\n      jumpi(tag_71, slt(add(not(0x03), calldatasize), 0x00))\n      sload(0x00)\n      mload(0x40)\n      sub(shl(0xa0, 0x01), 0x01)\n      swap1\n      swap2\n      and\n      dup2\n      mstore\n      0x20\n      swap1\n      return\n    tag_18:\n      jumpi(tag_71, callvalue)\n      jumpi(tag_71, slt(add(not(0x03), calldatasize), 0x40))\n      calldataload(0x24)\n      calldataload(0x04)\n      tag_201\n      dup3\n      tag_2\n      jump\t// in\n    tag_201:\n        /* \"src/Contract Architecture/Core Infrastructure/ActionExecutor_flattened.sol\":2462:2524  modifier onlyOwner() {... */\n      tag_202\n      tag_38\n      jump\t// in\n    tag_202:\n      sub(shl(0xa0, 0x01), 0x01)\n        /* \"src/Contract Architecture/Core Infrastructure/ActionExecutor_flattened.sol\":13355:19258  contract ActionExecutor is Ownable {... */\n      dup3\n      dup2\n      and\n      swap3\n      swap1\n        /* \"src/Contract Architecture/Core Infrastructure/ActionExecutor_flattened.sol\":15133:15153  module == address(0) */\n      dup4\n      iszero\n        /* \"src/Contract Architecture/Core Infrastructure/ActionExecutor_flattened.sol\":15129:15175  if (module == address(0)) revert ZeroAddress() */\n      tag_99\n      jumpi\n      0x00\n        /* \"src/Contract Architecture/Core Infrastructure/ActionExecutor_flattened.sol\":13355:19258  contract ActionExecutor is Ownable {... */\n      dup4\n      dup2\n      mstore\n        /* \"src/Contract Architecture/Core Infrastructure/ActionExecutor_flattened.sol\":15189:15196  modules */\n      0x01\n        /* \"src/Contract Architecture/Core Infrastructure/ActionExecutor_flattened.sol\":13355:19258  contract ActionExecutor is Ownable {... */\n      0x20\n      mstore\n      0x40\n      swap1\n      keccak256\n      sload\n      and\n      sub(shl(0xa0, 0x01), 0x01)\n      and\n        /* \"src/Contract Architecture/Core Infrastructure/ActionExecutor_flattened.sol\":15185:15254  if (modules[moduleId] != address(0)) revert ModuleAlreadyRegistered() */\n      tag_206\n      jumpi\n        /* \"src/Contract Architecture/Core Infrastructure/ActionExecutor_flattened.sol\":15264:15290  modules[moduleId] = module */\n      tag_208\n        /* \"src/Contract Architecture/Core Infrastructure/ActionExecutor_flattened.sol\":15264:15281  modules[moduleId] */\n      swap1\n      tag_209\n      dup4\n        /* \"src/Contract Architecture/Core Infrastructure/ActionExecutor_flattened.sol\":13355:19258  contract ActionExecutor is Ownable {... */\n      0x00\n      mstore\n        /* \"src/Contract Architecture/Core Infrastructure/ActionExecutor_flattened.sol\":18278:18285  modules */\n      0x01\n        /* \"src/Contract Architecture/Core Infrastructure/ActionExecutor_flattened.sol\":13355:19258  contract ActionExecutor is Ownable {... */\n      0x20\n      mstore\n      keccak256(0x00, 0x40)\n      swap1\n      jump\n        /* \"src/Contract Architecture/Core Infrastructure/ActionExecutor_flattened.sol\":15264:15281  modules[moduleId] */\n    tag_209:\n        /* \"src/Contract Architecture/Core Infrastructure/ActionExecutor_flattened.sol\":13355:19258  contract ActionExecutor is Ownable {... */\n      dup1\n      sload\n      not(sub(shl(0xa0, 0x01), 0x01))\n      and\n      sub(shl(0xa0, 0x01), 0x01)\n      swap1\n      swap3\n      and\n      swap2\n      swap1\n      swap2\n      or\n      swap1\n      sstore\n      jump\n        /* \"src/Contract Architecture/Core Infrastructure/ActionExecutor_flattened.sol\":15264:15290  modules[moduleId] = module */\n    tag_208:\n        /* \"src/Contract Architecture/Core Infrastructure/ActionExecutor_flattened.sol\":15305:15339  ModuleRegistered(moduleId, module) */\n      0xd63be02155b46636309fb0a4a79647c60971aecaad53cbc83aad90cd75fd9d54\n      0x00\n      dup1\n      log3\n        /* \"src/Contract Architecture/Core Infrastructure/ActionExecutor_flattened.sol\":13355:19258  contract ActionExecutor is Ownable {... */\n      stop\n        /* \"src/Contract Architecture/Core Infrastructure/ActionExecutor_flattened.sol\":15185:15254  if (modules[moduleId] != address(0)) revert ModuleAlreadyRegistered() */\n    tag_206:\n        /* \"src/Contract Architecture/Core Infrastructure/ActionExecutor_flattened.sol\":13355:19258  contract ActionExecutor is Ownable {... */\n      mload(0x40)\n      shl(0xe0, 0x95b0718d)\n        /* \"src/Contract Architecture/Core Infrastructure/ActionExecutor_flattened.sol\":15229:15254  ModuleAlreadyRegistered() */\n      dup2\n      mstore\n        /* \"src/Contract Architecture/Core Infrastructure/ActionExecutor_flattened.sol\":13355:19258  contract ActionExecutor is Ownable {... */\n      0x04\n      swap1\n        /* \"src/Contract Architecture/Core Infrastructure/ActionExecutor_flattened.sol\":15229:15254  ModuleAlreadyRegistered() */\n      revert\n        /* \"src/Contract Architecture/Core Infrastructure/ActionExecutor_flattened.sol\":13355:19258  contract ActionExecutor is Ownable {... */\n    tag_20:\n      jumpi(tag_71, callvalue)\n      jumpi(tag_71, slt(add(not(0x03), calldatasize), 0x20))\n      calldataload(0x04)\n      tag_214\n      dup2\n      tag_2\n      jump\t// in\n    tag_214:\n        /* \"src/Contract Architecture/Core Infrastructure/ActionExecutor_flattened.sol\":2462:2524  modifier onlyOwner() {... */\n      tag_215\n      tag_38\n      jump\t// in\n    tag_215:\n      sub(shl(0xa0, 0x01), 0x01)\n        /* \"src/Contract Architecture/Core Infrastructure/ActionExecutor_flattened.sol\":13355:19258  contract ActionExecutor is Ownable {... */\n      swap1\n      dup2\n      and\n      swap1\n        /* \"src/Contract Architecture/Core Infrastructure/ActionExecutor_flattened.sol\":3589:3611  newOwner == address(0) */\n      dup2\n      iszero\n        /* \"src/Contract Architecture/Core Infrastructure/ActionExecutor_flattened.sol\":3585:3676  if (newOwner == address(0)) {... */\n      tag_216\n      jumpi\n        /* \"src/Contract Architecture/Core Infrastructure/ActionExecutor_flattened.sol\":3966:3972  _owner */\n      0x00\n        /* \"src/Contract Architecture/Core Infrastructure/ActionExecutor_flattened.sol\":13355:19258  contract ActionExecutor is Ownable {... */\n      sload\n      dup3\n      shl(0xa0, 0xffffffffffffffffffffffff)\n      dup3\n      and\n      or\n        /* \"src/Contract Architecture/Core Infrastructure/ActionExecutor_flattened.sol\":3966:3972  _owner */\n      0x00\n        /* \"src/Contract Architecture/Core Infrastructure/ActionExecutor_flattened.sol\":13355:19258  contract ActionExecutor is Ownable {... */\n      sstore\n      and\n        /* \"src/Contract Architecture/Core Infrastructure/ActionExecutor_flattened.sol\":4014:4054  OwnershipTransferred(oldOwner, newOwner) */\n      0x8be0079c531659141344cd1fd0a4f28419497f9722a3daafe3b4186f6b6457e0\n        /* \"src/Contract Architecture/Core Infrastructure/ActionExecutor_flattened.sol\":3966:3972  _owner */\n      0x00\n        /* \"src/Contract Architecture/Core Infrastructure/ActionExecutor_flattened.sol\":4014:4054  OwnershipTransferred(oldOwner, newOwner) */\n      dup1\n      log3\n        /* \"src/Contract Architecture/Core Infrastructure/ActionExecutor_flattened.sol\":13355:19258  contract ActionExecutor is Ownable {... */\n      stop\n        /* \"src/Contract Architecture/Core Infrastructure/ActionExecutor_flattened.sol\":3585:3676  if (newOwner == address(0)) {... */\n    tag_216:\n        /* \"src/Contract Architecture/Core Infrastructure/ActionExecutor_flattened.sol\":13355:19258  contract ActionExecutor is Ownable {... */\n      mload(0x40)\n      shl(0xe0, 0x1e4fbdf7)\n        /* \"src/Contract Architecture/Core Infrastructure/ActionExecutor_flattened.sol\":3634:3665  OwnableInvalidOwner(address(0)) */\n      dup2\n      mstore\n      0x00\n        /* \"src/Contract Architecture/Core Infrastructure/ActionExecutor_flattened.sol\":13355:19258  contract ActionExecutor is Ownable {... */\n      0x04\n        /* \"src/Contract Architecture/Core Infrastructure/ActionExecutor_flattened.sol\":3634:3665  OwnableInvalidOwner(address(0)) */\n      dup3\n      add\n        /* \"src/Contract Architecture/Core Infrastructure/ActionExecutor_flattened.sol\":13355:19258  contract ActionExecutor is Ownable {... */\n      mstore\n      0x24\n      swap1\n        /* \"src/Contract Architecture/Core Infrastructure/ActionExecutor_flattened.sol\":3634:3665  OwnableInvalidOwner(address(0)) */\n      revert\n        /* \"src/Contract Architecture/Core Infrastructure/ActionExecutor_flattened.sol\":13355:19258  contract ActionExecutor is Ownable {... */\n    tag_22:\n      mstore(0x00, shl(0xe0, 0x4e487b71))\n      mstore(0x04, 0x41)\n      revert(0x00, 0x24)\n    tag_23:\n      swap1\n      0x1f\n      dup1\n      not\n      swap2\n      add\n      and\n      dup2\n      add\n      swap1\n      dup2\n      lt\n      0xffffffffffffffff\n      dup3\n      gt\n      or\n      tag_218\n      jumpi\n      0x40\n      mstore\n      jump\t// out\n    tag_218:\n      tag_22\n      jump\t// in\n    tag_24:\n      0xffffffffffffffff\n      dup2\n      gt\n      tag_218\n      jumpi\n      0x1f\n      add\n      not(0x1f)\n      and\n      0x20\n      add\n      swap1\n      jump\t// out\n    tag_25:\n      swap3\n      swap2\n      swap3\n      tag_222\n      dup3\n      tag_24\n      jump\t// in\n    tag_222:\n      swap2\n      tag_223\n      mload(0x40)\n      swap4\n      dup5\n      tag_23\n      jump\t// in\n    tag_223:\n      dup3\n      swap5\n      dup2\n      dup5\n      mstore\n      dup2\n      dup4\n      add\n      gt\n      tag_71\n      jumpi\n      dup3\n      dup2\n      0x20\n      swap4\n      dup5\n      0x00\n      swap7\n      add\n      calldatacopy\n      add\n      add\n      mstore\n      jump\t// out\n    tag_28:\n      swap1\n      dup2\n      0x20\n      swap2\n      sub\n      slt\n      tag_71\n      jumpi\n      mload\n      tag_83\n      dup2\n      tag_2\n      jump\t// in\n    tag_29:\n      mload(0x40)\n      returndatasize\n      0x00\n      dup3\n      returndatacopy\n      returndatasize\n      swap1\n      revert\n    tag_30:\n      swap1\n        /* \"src/Contract Architecture/Core Infrastructure/ActionExecutor_flattened.sol\":16461:16468  modules */\n      0x01\n        /* \"src/Contract Architecture/Core Infrastructure/ActionExecutor_flattened.sol\":13355:19258  contract ActionExecutor is Ownable {... */\n      dup3\n      add\n      dup1\n      swap3\n      gt\n      tag_229\n      jumpi\n      jump\t// out\n    tag_229:\n      mstore(0x00, shl(0xe0, 0x4e487b71))\n      mstore(0x04, 0x11)\n      revert(0x00, 0x24)\n    tag_31:\n      0x20\n      dup2\n      dup4\n      sub\n      slt\n      tag_71\n      jumpi\n      dup1\n      mload\n      swap1\n      0xffffffffffffffff\n      dup3\n      gt\n      tag_71\n      jumpi\n      add\n      dup2\n      0x1f\n      dup3\n      add\n      slt\n      iszero\n      tag_71\n      jumpi\n      dup1\n      mload\n      tag_237\n      dup2\n      tag_24\n      jump\t// in\n    tag_237:\n      swap3\n      tag_238\n      mload(0x40)\n      swap5\n      dup6\n      tag_23\n      jump\t// in\n    tag_238:\n      dup2\n      dup5\n      mstore\n      0x20\n      dup3\n      dup5\n      add\n      add\n      gt\n      tag_71\n      jumpi\n      tag_83\n      swap2\n      0x20\n      dup1\n      dup6\n      add\n      swap2\n      add\n      tag_4\n      jump\t// in\n    tag_32:\n      swap1\n      dup1\n      0x20\n      swap4\n      swap3\n      dup2\n      dup5\n      mstore\n      dup5\n      dup5\n      add\n      calldatacopy\n      0x00\n      dup3\n      dup3\n      add\n      dup5\n      add\n      mstore\n      0x1f\n      add\n      not(0x1f)\n      and\n      add\n      add\n      swap1\n      jump\t// out\n    tag_33:\n      tag_83\n      swap5\n      swap3\n      0x60\n      swap3\n      0x01\n      dup1\n      0xa0\n      shl\n      sub\n      and\n      dup3\n      mstore\n      0x20\n      dup3\n      add\n      mstore\n      dup2\n      0x40\n      dup3\n      add\n      mstore\n      add\n      swap2\n      tag_32\n      jump\t// in\n    tag_34:\n      jumpi(tag_243, iszero(returndatasize))\n      returndatasize\n      swap1\n      tag_245\n      dup3\n      tag_24\n      jump\t// in\n    tag_245:\n      swap2\n      tag_246\n      mload(0x40)\n      swap4\n      dup5\n      tag_23\n      jump\t// in\n    tag_246:\n      dup3\n      mstore\n      returndatasize\n      0x00\n      0x20\n      dup5\n      add\n      returndatacopy\n      jump\t// out\n    tag_243:\n      0x60\n      swap1\n      jump\t// out\n    tag_35:\n      swap4\n      tag_248\n      swap3\n      tag_83\n      swap7\n      swap5\n      swap3\n      0x01\n      dup1\n      0xa0\n      shl\n      sub\n      and\n      dup7\n      mstore\n      0x20\n      dup7\n      add\n      mstore\n      0x80\n      0x40\n      dup7\n      add\n      mstore\n      0x80\n      dup6\n      add\n      swap2\n      tag_32\n      jump\t// in\n    tag_248:\n      swap2\n      0x60\n      dup2\n      dup5\n      sub\n      swap2\n      add\n      mstore\n      tag_5\n      jump\t// in\n        /* \"src/Contract Architecture/Core Infrastructure/ActionExecutor_flattened.sol\":7811:8066  function recover(bytes32 hash, bytes memory signature) internal pure returns (address) {... */\n    tag_37:\n        /* \"src/Contract Architecture/Core Infrastructure/ActionExecutor_flattened.sol\":8024:8032  errorArg */\n      tag_83\n        /* \"src/Contract Architecture/Core Infrastructure/ActionExecutor_flattened.sol\":7811:8066  function recover(bytes32 hash, bytes memory signature) internal pure returns (address) {... */\n      swap2\n        /* \"src/Contract Architecture/Core Infrastructure/ActionExecutor_flattened.sol\":7968:7995  tryRecover(hash, signature) */\n      tag_251\n        /* \"src/Contract Architecture/Core Infrastructure/ActionExecutor_flattened.sol\":7811:8066  function recover(bytes32 hash, bytes memory signature) internal pure returns (address) {... */\n      swap2\n        /* \"src/Contract Architecture/Core Infrastructure/ActionExecutor_flattened.sol\":7968:7995  tryRecover(hash, signature) */\n      tag_39\n      jump\t// in\n    tag_251:\n        /* \"src/Contract Architecture/Core Infrastructure/ActionExecutor_flattened.sol\":8024:8032  errorArg */\n      swap1\n      swap3\n      swap2\n      swap3\n      tag_41\n      jump\t// in\n        /* \"src/Contract Architecture/Core Infrastructure/ActionExecutor_flattened.sol\":2758:2920  function _checkOwner() internal view virtual {... */\n    tag_38:\n        /* \"src/Contract Architecture/Core Infrastructure/ActionExecutor_flattened.sol\":2672:2678  _owner */\n      0x00\n        /* \"src/Contract Architecture/Core Infrastructure/ActionExecutor_flattened.sol\":13355:19258  contract ActionExecutor is Ownable {... */\n      sload\n      sub(shl(0xa0, 0x01), 0x01)\n      and\n        /* \"src/Contract Architecture/Core Infrastructure/ActionExecutor_flattened.sol\":757:767  msg.sender */\n      caller\n        /* \"src/Contract Architecture/Core Infrastructure/ActionExecutor_flattened.sol\":2817:2840  owner() != _msgSender() */\n      sub\n        /* \"src/Contract Architecture/Core Infrastructure/ActionExecutor_flattened.sol\":2813:2914  if (owner() != _msgSender()) {... */\n      tag_252\n      jumpi\n        /* \"src/Contract Architecture/Core Infrastructure/ActionExecutor_flattened.sol\":2758:2920  function _checkOwner() internal view virtual {... */\n      jump\t// out\n        /* \"src/Contract Architecture/Core Infrastructure/ActionExecutor_flattened.sol\":2813:2914  if (owner() != _msgSender()) {... */\n    tag_252:\n        /* \"src/Contract Architecture/Core Infrastructure/ActionExecutor_flattened.sol\":13355:19258  contract ActionExecutor is Ownable {... */\n      mload(0x40)\n      shl(0xe0, 0x118cdaa7)\n        /* \"src/Contract Architecture/Core Infrastructure/ActionExecutor_flattened.sol\":2863:2903  OwnableUnauthorizedAccount(_msgSender()) */\n      dup2\n      mstore\n        /* \"src/Contract Architecture/Core Infrastructure/ActionExecutor_flattened.sol\":757:767  msg.sender */\n      caller\n        /* \"src/Contract Architecture/Core Infrastructure/ActionExecutor_flattened.sol\":2863:2903  OwnableUnauthorizedAccount(_msgSender()) */\n      0x04\n      dup3\n      add\n        /* \"src/Contract Architecture/Core Infrastructure/ActionExecutor_flattened.sol\":13355:19258  contract ActionExecutor is Ownable {... */\n      mstore\n      0x24\n      swap1\n        /* \"src/Contract Architecture/Core Infrastructure/ActionExecutor_flattened.sol\":2863:2903  OwnableUnauthorizedAccount(_msgSender()) */\n      revert\n        /* \"src/Contract Architecture/Core Infrastructure/ActionExecutor_flattened.sol\":6226:7004  function tryRecover(... */\n    tag_39:\n        /* \"src/Contract Architecture/Core Infrastructure/ActionExecutor_flattened.sol\":13355:19258  contract ActionExecutor is Ownable {... */\n      dup2\n      mload\n      swap2\n        /* \"src/Contract Architecture/Core Infrastructure/ActionExecutor_flattened.sol\":6226:7004  function tryRecover(... */\n      swap1\n        /* \"src/Contract Architecture/Core Infrastructure/ActionExecutor_flattened.sol\":6416:6418  65 */\n      0x41\n        /* \"src/Contract Architecture/Core Infrastructure/ActionExecutor_flattened.sol\":6396:6418  signature.length == 65 */\n      dup4\n      sub\n        /* \"src/Contract Architecture/Core Infrastructure/ActionExecutor_flattened.sol\":6416:6418  65 */\n      tag_254\n      jumpi\n        /* \"src/Contract Architecture/Core Infrastructure/ActionExecutor_flattened.sol\":6848:6873  tryRecover(hash, v, r, s) */\n      tag_256\n        /* \"src/Contract Architecture/Core Infrastructure/ActionExecutor_flattened.sol\":6632:6828  assembly (\"memory-safe\") {... */\n      swap3\n      pop\n      0x20\n      dup3\n      add\n      mload\n      swap1\n      0x60\n      0x40\n      dup5\n      add\n      mload\n      swap4\n      add\n      mload\n      0x00\n      byte\n        /* \"src/Contract Architecture/Core Infrastructure/ActionExecutor_flattened.sol\":6848:6873  tryRecover(hash, v, r, s) */\n      swap1\n      tag_42\n      jump\t// in\n    tag_256:\n        /* \"src/Contract Architecture/Core Infrastructure/ActionExecutor_flattened.sol\":6841:6873  return tryRecover(hash, v, r, s) */\n      swap2\n      swap3\n      swap1\n      swap2\n      swap1\n      jump\t// out\n        /* \"src/Contract Architecture/Core Infrastructure/ActionExecutor_flattened.sol\":6392:6998  if (signature.length == 65) {... */\n    tag_254:\n        /* \"src/Contract Architecture/Core Infrastructure/ActionExecutor_flattened.sol\":6904:6987  return (address(0), RecoverError.InvalidSignatureLength, bytes32(signature.length)) */\n      pop\n      pop\n        /* \"src/Contract Architecture/Core Infrastructure/ActionExecutor_flattened.sol\":6920:6921  0 */\n      0x00\n        /* \"src/Contract Architecture/Core Infrastructure/ActionExecutor_flattened.sol\":6904:6987  return (address(0), RecoverError.InvalidSignatureLength, bytes32(signature.length)) */\n      swap2\n        /* \"src/Contract Architecture/Core Infrastructure/ActionExecutor_flattened.sol\":6924:6959  RecoverError.InvalidSignatureLength */\n      0x02\n        /* \"src/Contract Architecture/Core Infrastructure/ActionExecutor_flattened.sol\":6904:6987  return (address(0), RecoverError.InvalidSignatureLength, bytes32(signature.length)) */\n      swap2\n      swap1\n      jump\t// out\n        /* \"src/Contract Architecture/Core Infrastructure/ActionExecutor_flattened.sol\":13355:19258  contract ActionExecutor is Ownable {... */\n    tag_40:\n      0x04\n      gt\n      iszero\n      tag_257\n      jumpi\n      jump\t// out\n    tag_257:\n      mstore(0x00, shl(0xe0, 0x4e487b71))\n      mstore(0x04, 0x21)\n      revert(0x00, 0x24)\n        /* \"src/Contract Architecture/Core Infrastructure/ActionExecutor_flattened.sol\":11377:11909  function _throwError(RecoverError error, bytes32 errorArg) private pure {... */\n    tag_41:\n        /* \"src/Contract Architecture/Core Infrastructure/ActionExecutor_flattened.sol\":13355:19258  contract ActionExecutor is Ownable {... */\n      tag_259\n      dup2\n      tag_40\n      jump\t// in\n    tag_259:\n        /* \"src/Contract Architecture/Core Infrastructure/ActionExecutor_flattened.sol\":11463:11492  error == RecoverError.NoError */\n      dup1\n      tag_260\n      jumpi\n        /* \"src/Contract Architecture/Core Infrastructure/ActionExecutor_flattened.sol\":11508:11515  return; */\n      pop\n      pop\n      jump\t// out\n        /* \"src/Contract Architecture/Core Infrastructure/ActionExecutor_flattened.sol\":11459:11903  if (error == RecoverError.NoError) {... */\n    tag_260:\n        /* \"src/Contract Architecture/Core Infrastructure/ActionExecutor_flattened.sol\":13355:19258  contract ActionExecutor is Ownable {... */\n      tag_262\n      dup2\n      tag_40\n      jump\t// in\n    tag_262:\n        /* \"src/Contract Architecture/Core Infrastructure/ActionExecutor_flattened.sol\":11568:11597  RecoverError.InvalidSignature */\n      0x01\n        /* \"src/Contract Architecture/Core Infrastructure/ActionExecutor_flattened.sol\":11559:11597  error == RecoverError.InvalidSignature */\n      dup2\n      sub\n        /* \"src/Contract Architecture/Core Infrastructure/ActionExecutor_flattened.sol\":11568:11597  RecoverError.InvalidSignature */\n      tag_263\n      jumpi\n        /* \"src/Contract Architecture/Core Infrastructure/ActionExecutor_flattened.sol\":13355:19258  contract ActionExecutor is Ownable {... */\n      mload(0x40)\n      shl(0xe0, 0xf645eedf)\n        /* \"src/Contract Architecture/Core Infrastructure/ActionExecutor_flattened.sol\":11620:11643  ECDSAInvalidSignature() */\n      dup2\n      mstore\n      0x04\n      swap1\n      revert\n        /* \"src/Contract Architecture/Core Infrastructure/ActionExecutor_flattened.sol\":11555:11903  if (error == RecoverError.InvalidSignature) {... */\n    tag_263:\n        /* \"src/Contract Architecture/Core Infrastructure/ActionExecutor_flattened.sol\":13355:19258  contract ActionExecutor is Ownable {... */\n      tag_265\n      dup2\n      tag_40\n      jump\t// in\n    tag_265:\n        /* \"src/Contract Architecture/Core Infrastructure/ActionExecutor_flattened.sol\":11673:11708  RecoverError.InvalidSignatureLength */\n      0x02\n        /* \"src/Contract Architecture/Core Infrastructure/ActionExecutor_flattened.sol\":11664:11708  error == RecoverError.InvalidSignatureLength */\n      dup2\n      sub\n        /* \"src/Contract Architecture/Core Infrastructure/ActionExecutor_flattened.sol\":11673:11708  RecoverError.InvalidSignatureLength */\n      tag_266\n      jumpi\n        /* \"src/Contract Architecture/Core Infrastructure/ActionExecutor_flattened.sol\":13355:19258  contract ActionExecutor is Ownable {... */\n      mload(0x40)\n      shl(0xe0, 0xfce698f7)\n        /* \"src/Contract Architecture/Core Infrastructure/ActionExecutor_flattened.sol\":11731:11777  ECDSAInvalidSignatureLength(uint256(errorArg)) */\n      dup2\n      mstore\n      0x04\n      dup2\n      add\n        /* \"src/Contract Architecture/Core Infrastructure/ActionExecutor_flattened.sol\":13355:19258  contract ActionExecutor is Ownable {... */\n      dup4\n      swap1\n      mstore\n      0x24\n      swap1\n        /* \"src/Contract Architecture/Core Infrastructure/ActionExecutor_flattened.sol\":11731:11777  ECDSAInvalidSignatureLength(uint256(errorArg)) */\n      revert\n        /* \"src/Contract Architecture/Core Infrastructure/ActionExecutor_flattened.sol\":11660:11903  if (error == RecoverError.InvalidSignatureLength) {... */\n    tag_266:\n        /* \"src/Contract Architecture/Core Infrastructure/ActionExecutor_flattened.sol\":13355:19258  contract ActionExecutor is Ownable {... */\n      dup1\n      tag_269\n        /* \"src/Contract Architecture/Core Infrastructure/ActionExecutor_flattened.sol\":11807:11837  RecoverError.InvalidSignatureS */\n      0x03\n        /* \"src/Contract Architecture/Core Infrastructure/ActionExecutor_flattened.sol\":13355:19258  contract ActionExecutor is Ownable {... */\n      swap3\n      tag_40\n      jump\t// in\n    tag_269:\n        /* \"src/Contract Architecture/Core Infrastructure/ActionExecutor_flattened.sol\":11798:11837  error == RecoverError.InvalidSignatureS */\n      eq\n        /* \"src/Contract Architecture/Core Infrastructure/ActionExecutor_flattened.sol\":11794:11903  if (error == RecoverError.InvalidSignatureS) {... */\n      tag_270\n      jumpi\n        /* \"src/Contract Architecture/Core Infrastructure/ActionExecutor_flattened.sol\":11660:11903  if (error == RecoverError.InvalidSignatureLength) {... */\n      pop\n        /* \"src/Contract Architecture/Core Infrastructure/ActionExecutor_flattened.sol\":11377:11909  function _throwError(RecoverError error, bytes32 errorArg) private pure {... */\n      jump\t// out\n        /* \"src/Contract Architecture/Core Infrastructure/ActionExecutor_flattened.sol\":11794:11903  if (error == RecoverError.InvalidSignatureS) {... */\n    tag_270:\n        /* \"src/Contract Architecture/Core Infrastructure/ActionExecutor_flattened.sol\":13355:19258  contract ActionExecutor is Ownable {... */\n      mload(0x40)\n      shl(0xe2, 0x35e2f383)\n        /* \"src/Contract Architecture/Core Infrastructure/ActionExecutor_flattened.sol\":11860:11892  ECDSAInvalidSignatureS(errorArg) */\n      dup2\n      mstore\n      0x04\n      dup2\n      add\n        /* \"src/Contract Architecture/Core Infrastructure/ActionExecutor_flattened.sol\":13355:19258  contract ActionExecutor is Ownable {... */\n      swap2\n      swap1\n      swap2\n      mstore\n      0x24\n      swap1\n        /* \"src/Contract Architecture/Core Infrastructure/ActionExecutor_flattened.sol\":11731:11777  ECDSAInvalidSignatureLength(uint256(errorArg)) */\n      revert\n        /* \"src/Contract Architecture/Core Infrastructure/ActionExecutor_flattened.sol\":9300:10851  function tryRecover(... */\n    tag_42:\n      swap2\n      swap1\n        /* \"src/Contract Architecture/Core Infrastructure/ActionExecutor_flattened.sol\":10380:10446  0x7FFFFFFFFFFFFFFFFFFFFFFFFFFFFFFF5D576E7357A4501DDFE92F46681B20A0 */\n      0x7fffffffffffffffffffffffffffffff5d576e7357a4501ddfe92f46681b20a0\n        /* \"src/Contract Architecture/Core Infrastructure/ActionExecutor_flattened.sol\":10367:10446  uint256(s) > 0x7FFFFFFFFFFFFFFFFFFFFFFFFFFFFFFF5D576E7357A4501DDFE92F46681B20A0 */\n      dup5\n      gt\n        /* \"src/Contract Architecture/Core Infrastructure/ActionExecutor_flattened.sol\":10363:10527  if (uint256(s) > 0x7FFFFFFFFFFFFFFFFFFFFFFFFFFFFFFF5D576E7357A4501DDFE92F46681B20A0) {... */\n      tag_273\n      jumpi\n        /* \"src/Contract Architecture/Core Infrastructure/ActionExecutor_flattened.sol\":13355:19258  contract ActionExecutor is Ownable {... */\n      swap2\n      0x20\n      swap4\n      0x80\n      swap3\n      0xff\n      0x00\n      swap6\n      mload(0x40)\n      swap5\n      dup6\n      mstore\n      and\n      dup7\n      dup5\n      add\n      mstore\n      0x40\n      dup4\n      add\n      mstore\n      0x60\n      dup3\n      add\n      mstore\n        /* \"src/Contract Architecture/Core Infrastructure/ActionExecutor_flattened.sol\":10638:10662  ecrecover(hash, v, r, s) */\n      dup3\n      dup1\n      mstore\n      0x01\n      gas\n      staticcall\n      iszero\n      tag_111\n      jumpi\n      mload(0x00)\n      sub(shl(0xa0, 0x01), 0x01)\n        /* \"src/Contract Architecture/Core Infrastructure/ActionExecutor_flattened.sol\":13355:19258  contract ActionExecutor is Ownable {... */\n      dup2\n      and\n        /* \"src/Contract Architecture/Core Infrastructure/ActionExecutor_flattened.sol\":10676:10696  signer == address(0) */\n      iszero\n        /* \"src/Contract Architecture/Core Infrastructure/ActionExecutor_flattened.sol\":10672:10785  if (signer == address(0)) {... */\n      tag_277\n      jumpi\n        /* \"src/Contract Architecture/Core Infrastructure/ActionExecutor_flattened.sol\":10795:10844  return (signer, RecoverError.NoError, bytes32(0)) */\n      swap1\n      0x00\n      swap1\n      0x00\n        /* \"src/Contract Architecture/Core Infrastructure/ActionExecutor_flattened.sol\":9300:10851  function tryRecover(... */\n      swap1\n      jump\t// out\n        /* \"src/Contract Architecture/Core Infrastructure/ActionExecutor_flattened.sol\":10672:10785  if (signer == address(0)) {... */\n    tag_277:\n        /* \"src/Contract Architecture/Core Infrastructure/ActionExecutor_flattened.sol\":10712:10774  return (address(0), RecoverError.InvalidSignature, bytes32(0)) */\n      pop\n      0x00\n      swap1\n        /* \"src/Contract Architecture/Core Infrastructure/ActionExecutor_flattened.sol\":10638:10662  ecrecover(hash, v, r, s) */\n      0x01\n        /* \"src/Contract Architecture/Core Infrastructure/ActionExecutor_flattened.sol\":10712:10774  return (address(0), RecoverError.InvalidSignature, bytes32(0)) */\n      swap1\n      0x00\n      swap1\n      jump\t// out\n        /* \"src/Contract Architecture/Core Infrastructure/ActionExecutor_flattened.sol\":10363:10527  if (uint256(s) > 0x7FFFFFFFFFFFFFFFFFFFFFFFFFFFFFFF5D576E7357A4501DDFE92F46681B20A0) {... */\n    tag_273:\n        /* \"src/Contract Architecture/Core Infrastructure/ActionExecutor_flattened.sol\":10462:10516  return (address(0), RecoverError.InvalidSignatureS, s) */\n      pop\n      pop\n      pop\n        /* \"src/Contract Architecture/Core Infrastructure/ActionExecutor_flattened.sol\":10478:10479  0 */\n      0x00\n        /* \"src/Contract Architecture/Core Infrastructure/ActionExecutor_flattened.sol\":10462:10516  return (address(0), RecoverError.InvalidSignatureS, s) */\n      swap2\n        /* \"src/Contract Architecture/Core Infrastructure/ActionExecutor_flattened.sol\":10482:10512  RecoverError.InvalidSignatureS */\n      0x03\n        /* \"src/Contract Architecture/Core Infrastructure/ActionExecutor_flattened.sol\":10462:10516  return (address(0), RecoverError.InvalidSignatureS, s) */\n      swap2\n      swap1\n      jump\t// out\n\n    auxdata: 0xa2646970667358221220e1d9110eb0e69e093629ba22bc0fb281d0e929889102c06e97df30a314b0015964736f6c63430008180033\n}\n",
				"bytecode": {
					"linkReferences": {},
					"object": "60a06040908082523461014257331561012d57505f8054336001600160a01b0319821681178355916001600160a01b03909116907f8be0079c531659141344cd1fd0a4f28419497f9722a3daafe3b4186f6b6457e09080a3600e6020825161006681610146565b828152016d20b1ba34b7b722bc32b1baba37b960911b81522060016020835161008e81610146565b82815201603160f81b81522082519060208201927f8b73c3c69bb8fe3d512ecc4cf759cc79239f7b179b0ffacaa9a75d522b39400f84528483015260608201524660808201523060a082015260a0815260c081019281841060018060401b0385111761011957839052519020608052610d69908161016282396080518181816102ec01526107520152f35b634e487b7160e01b5f52604160045260245ffd5b631e4fbdf760e01b81525f6004820152602490fd5b5f80fd5b604081019081106001600160401b038211176101195760405256fe60806040526004361015610011575f80fd5b5f3560e01c806316ca96f4146100da5780632d0335ab146100bc5780632dac633b146100d55780633595945d146100d05780633644e515146100cb5780635a35b84a146100c6578063715018a6146100c15780637ecebe00146100bc57806385acd641146100ad5780638da5cb5b146100b7578063a78e922b146100b2578063b0b6cc1a146100ad5763f2fde38b146100a8575f80fd5b610923565b610806565b61085f565b610838565b610522565b6107af565b610775565b61073b565b6106ae565b61055d565b61017c565b6001600160a01b038116036100f057565b5f80fd5b9181601f840112156100f05782359167ffffffffffffffff83116100f057602083818601950101116100f057565b5f5b8381106101335750505f910152565b8181015183820152602001610124565b9060209161015c81518092818552858086019101610122565b601f01601f1916010190565b906020610179928181520190610143565b90565b346100f05760c03660031901126100f0576101986024356100df565b60443567ffffffffffffffff6064358181116100f0576101bc9036906004016100f4565b92909160a4359081116100f0576101d79036906004016100f4565b6101fb6101ee6004355f52600160205260405f2090565b546001600160a01b031690565b906001600160a01b03821615610510576024356001600160a01b0316156104fe5760843542116104ec576001600160a01b03602435165f90815260026020526040902061033c9190610336905494610254368a8a610a08565b8051602091820120604080517f2eaaf47f5d8d55bbdfc0070d3bf4e5c48f0e169aeb82b023197c8b2c69c6a3389381019384526024356001600160a01b0316918101919091526004356060820152608081018a905260a081019190915260c0810188905260843560e0808301919091528152601f1991906102d7610100826109c5565b51902060405161190160f01b602082019081527f00000000000000000000000000000000000000000000000000000000000000006022830152604282019290925260629283018152909161032b90826109c5565b519020923691610a08565b90610b8b565b604051638da5cb5b60e01b815292906020846004816024356001600160a01b03165afa9384156104e7575f946104b6575b506001600160a01b03169283159081156104a2575b506104905761039090610a5e565b6001600160a01b03602435165f90815260026020526040902055604051639e5d4c4960e01b81525f81806103ca8989898860048601610aff565b0381836024356001600160a01b03165af15f918161046c575b5061040f576103f0610b23565b8051908161040a57604051632b3f6d1160e21b8152600490fd5b602001fd5b604051610468969195600435956024356001600160a01b0316947fbdc4e709cee662270d6b1f3b98b847541936a3762b56f7229d50448d83476e24948493610459938b9386610b52565b0390a460405191829182610168565b0390f35b6104899192503d805f833e61048181836109c5565b810190610a80565b905f6103e3565b604051632057875960e21b8152600490fd5b6001600160a01b031684141590505f610382565b6104d991945060203d6020116104e0575b6104d181836109c5565b810190610a3e565b925f61036d565b503d6104c7565b610a53565b604051630819bdcd60e01b8152600490fd5b60405163d92e233d60e01b8152600490fd5b604051634e25774f60e11b8152600490fd5b346100f05760203660031901126100f05760043561053f816100df565b60018060a01b03165f526002602052602060405f2054604051908152f35b346100f05760803660031901126100f0576004602435813561057e826100df565b6044359160643567ffffffffffffffff81116100f0576105a190369086016100f4565b9390916105ac610ba1565b6105c16101ee855f52600160205260405f2090565b906001600160a01b03908183161561069d571692831561068c57825f83896105fd8a866040519687958695639e5d4c4960e01b87528601610aff565b038183895af15f9181610670575b506106325787610619610b23565b8051908161040a57604051632b3f6d1160e21b81528390fd5b6104689750916104595f9594927fbdc4e709cee662270d6b1f3b98b847541936a3762b56f7229d50448d83476e249498899160405195869586610b52565b6106859192503d805f833e61048181836109c5565b905f61060b565b60405163d92e233d60e01b81528790fd5b604051634e25774f60e11b81528890fd5b346100f05760203660031901126100f0576004356106ca610ba1565b5f818152600160205260409020546001600160a01b0316908115610729575f81815260016020526040812080546001600160a01b03191690557fc631c273472e359a1548940daca1e146b3b6bf7582363a16e11b9f570783baee9080a3005b604051631c94b02360e21b8152600490fd5b346100f0575f3660031901126100f05760206040517f00000000000000000000000000000000000000000000000000000000000000008152f35b346100f0575f3660031901126100f05760206040517f2eaaf47f5d8d55bbdfc0070d3bf4e5c48f0e169aeb82b023197c8b2c69c6a3388152f35b346100f0575f3660031901126100f0576107c7610ba1565b5f80546001600160a01b0319811682556001600160a01b03167f8be0079c531659141344cd1fd0a4f28419497f9722a3daafe3b4186f6b6457e08280a3005b346100f05760203660031901126100f0576004355f526001602052602060018060a01b0360405f205416604051908152f35b346100f0575f3660031901126100f0575f546040516001600160a01b039091168152602090f35b346100f05760403660031901126100f05760243560043561087f826100df565b610887610ba1565b6001600160a01b03828116929083156104fe575f83815260016020526040902054166001600160a01b0316610911576108eb906108cc835f52600160205260405f2090565b80546001600160a01b0319166001600160a01b03909216919091179055565b7fd63be02155b46636309fb0a4a79647c60971aecaad53cbc83aad90cd75fd9d545f80a3005b6040516395b0718d60e01b8152600490fd5b346100f05760203660031901126100f057600435610940816100df565b610948610ba1565b6001600160a01b03908116908115610999575f54826bffffffffffffffffffffffff60a01b8216175f55167f8be0079c531659141344cd1fd0a4f28419497f9722a3daafe3b4186f6b6457e05f80a3005b604051631e4fbdf760e01b81525f6004820152602490fd5b634e487b7160e01b5f52604160045260245ffd5b90601f8019910116810190811067ffffffffffffffff8211176109e757604052565b6109b1565b67ffffffffffffffff81116109e757601f01601f191660200190565b929192610a14826109ec565b91610a2260405193846109c5565b8294818452818301116100f0578281602093845f960137010152565b908160209103126100f05751610179816100df565b6040513d5f823e3d90fd5b9060018201809211610a6c57565b634e487b7160e01b5f52601160045260245ffd5b6020818303126100f05780519067ffffffffffffffff82116100f0570181601f820112156100f0578051610ab3816109ec565b92610ac160405194856109c5565b818452602082840101116100f0576101799160208085019101610122565b908060209392818452848401375f828201840152601f01601f1916010190565b610179949260609260018060a01b0316825260208201528160408201520191610adf565b3d15610b4d573d90610b34826109ec565b91610b4260405193846109c5565b82523d5f602084013e565b606090565b93610b7d9261017996949260018060a01b031686526020860152608060408601526080850191610adf565b916060818403910152610143565b61017991610b9891610bcc565b90929192610c24565b5f546001600160a01b03163303610bb457565b60405163118cdaa760e01b8152336004820152602490fd5b8151919060418303610bfc57610bf59250602082015190606060408401519301515f1a90610cb1565b9192909190565b50505f9160029190565b60041115610c1057565b634e487b7160e01b5f52602160045260245ffd5b610c2d81610c06565b80610c36575050565b610c3f81610c06565b60018103610c595760405163f645eedf60e01b8152600490fd5b610c6281610c06565b60028103610c835760405163fce698f760e01b815260048101839052602490fd5b80610c8f600392610c06565b14610c975750565b6040516335e2f38360e21b81526004810191909152602490fd5b91907f7fffffffffffffffffffffffffffffff5d576e7357a4501ddfe92f46681b20a08411610d28579160209360809260ff5f9560405194855216868401526040830152606082015282805260015afa156104e7575f516001600160a01b03811615610d1e57905f905f90565b505f906001905f90565b5050505f916003919056fea2646970667358221220e1d9110eb0e69e093629ba22bc0fb281d0e929889102c06e97df30a314b0015964736f6c63430008180033",
					"opcodes": "PUSH1 0xA0 PUSH1 0x40 SWAP1 DUP1 DUP3 MSTORE CALLVALUE PUSH2 0x142 JUMPI CALLER ISZERO PUSH2 0x12D JUMPI POP PUSH0 DUP1 SLOAD CALLER PUSH1 0x1 PUSH1 0x1 PUSH1 0xA0 SHL SUB NOT DUP3 AND DUP2 OR DUP4 SSTORE SWAP2 PUSH1 0x1 PUSH1 0x1 PUSH1 0xA0 SHL SUB SWAP1 SWAP2 AND SWAP1 PUSH32 0x8BE0079C531659141344CD1FD0A4F28419497F9722A3DAAFE3B4186F6B6457E0 SWAP1 DUP1 LOG3 PUSH1 0xE PUSH1 0x20 DUP3 MLOAD PUSH2 0x66 DUP2 PUSH2 0x146 JUMP JUMPDEST DUP3 DUP2 MSTORE ADD PUSH14 0x20B1BA34B7B722BC32B1BABA37B9 PUSH1 0x91 SHL DUP2 MSTORE KECCAK256 PUSH1 0x1 PUSH1 0x20 DUP4 MLOAD PUSH2 0x8E DUP2 PUSH2 0x146 JUMP JUMPDEST DUP3 DUP2 MSTORE ADD PUSH1 0x31 PUSH1 0xF8 SHL DUP2 MSTORE KECCAK256 DUP3 MLOAD SWAP1 PUSH1 0x20 DUP3 ADD SWAP3 PUSH32 0x8B73C3C69BB8FE3D512ECC4CF759CC79239F7B179B0FFACAA9A75D522B39400F DUP5 MSTORE DUP5 DUP4 ADD MSTORE PUSH1 0x60 DUP3 ADD MSTORE CHAINID PUSH1 0x80 DUP3 ADD MSTORE ADDRESS PUSH1 0xA0 DUP3 ADD MSTORE PUSH1 0xA0 DUP2 MSTORE PUSH1 0xC0 DUP2 ADD SWAP3 DUP2 DUP5 LT PUSH1 0x1 DUP1 PUSH1 0x40 SHL SUB DUP6 GT OR PUSH2 0x119 JUMPI DUP4 SWAP1 MSTORE MLOAD SWAP1 KECCAK256 PUSH1 0x80 MSTORE PUSH2 0xD69 SWAP1 DUP2 PUSH2 0x162 DUP3 CODECOPY PUSH1 0x80 MLOAD DUP2 DUP2 DUP2 PUSH2 0x2EC ADD MSTORE PUSH2 0x752 ADD MSTORE RETURN JUMPDEST PUSH4 0x4E487B71 PUSH1 0xE0 SHL PUSH0 MSTORE PUSH1 0x41 PUSH1 0x4 MSTORE PUSH1 0x24 PUSH0 REVERT JUMPDEST PUSH4 0x1E4FBDF7 PUSH1 0xE0 SHL DUP2 MSTORE PUSH0 PUSH1 0x4 DUP3 ADD MSTORE PUSH1 0x24 SWAP1 REVERT JUMPDEST PUSH0 DUP1 REVERT JUMPDEST PUSH1 0x40 DUP2 ADD SWAP1 DUP2 LT PUSH1 0x1 PUSH1 0x1 PUSH1 0x40 SHL SUB DUP3 GT OR PUSH2 0x119 JUMPI PUSH1 0x40 MSTORE JUMP INVALID PUSH1 0x80 PUSH1 0x40 MSTORE PUSH1 0x4 CALLDATASIZE LT ISZERO PUSH2 0x11 JUMPI PUSH0 DUP1 REVERT JUMPDEST PUSH0 CALLDATALOAD PUSH1 0xE0 SHR DUP1 PUSH4 0x16CA96F4 EQ PUSH2 0xDA JUMPI DUP1 PUSH4 0x2D0335AB EQ PUSH2 0xBC JUMPI DUP1 PUSH4 0x2DAC633B EQ PUSH2 0xD5 JUMPI DUP1 PUSH4 0x3595945D EQ PUSH2 0xD0 JUMPI DUP1 PUSH4 0x3644E515 EQ PUSH2 0xCB JUMPI DUP1 PUSH4 0x5A35B84A EQ PUSH2 0xC6 JUMPI DUP1 PUSH4 0x715018A6 EQ PUSH2 0xC1 JUMPI DUP1 PUSH4 0x7ECEBE00 EQ PUSH2 0xBC JUMPI DUP1 PUSH4 0x85ACD641 EQ PUSH2 0xAD JUMPI DUP1 PUSH4 0x8DA5CB5B EQ PUSH2 0xB7 JUMPI DUP1 PUSH4 0xA78E922B EQ PUSH2 0xB2 JUMPI DUP1 PUSH4 0xB0B6CC1A EQ PUSH2 0xAD JUMPI PUSH4 0xF2FDE38B EQ PUSH2 0xA8 JUMPI PUSH0 DUP1 REVERT JUMPDEST PUSH2 0x923 JUMP JUMPDEST PUSH2 0x806 JUMP JUMPDEST PUSH2 0x85F JUMP JUMPDEST PUSH2 0x838 JUMP JUMPDEST PUSH2 0x522 JUMP JUMPDEST PUSH2 0x7AF JUMP JUMPDEST PUSH2 0x775 JUMP JUMPDEST PUSH2 0x73B JUMP JUMPDEST PUSH2 0x6AE JUMP JUMPDEST PUSH2 0x55D JUMP JUMPDEST PUSH2 0x17C JUMP JUMPDEST PUSH1 0x1 PUSH1 0x1 PUSH1 0xA0 SHL SUB DUP2 AND SUB PUSH2 0xF0 JUMPI JUMP JUMPDEST PUSH0 DUP1 REVERT JUMPDEST SWAP2 DUP2 PUSH1 0x1F DUP5 ADD SLT ISZERO PUSH2 0xF0 JUMPI DUP3 CALLDATALOAD SWAP2 PUSH8 0xFFFFFFFFFFFFFFFF DUP4 GT PUSH2 0xF0 JUMPI PUSH1 0x20 DUP4 DUP2 DUP7 ADD SWAP6 ADD ADD GT PUSH2 0xF0 JUMPI JUMP JUMPDEST PUSH0 JUMPDEST DUP4 DUP2 LT PUSH2 0x133 JUMPI POP POP PUSH0 SWAP2 ADD MSTORE JUMP JUMPDEST DUP2 DUP2 ADD MLOAD DUP4 DUP3 ADD MSTORE PUSH1 0x20 ADD PUSH2 0x124 JUMP JUMPDEST SWAP1 PUSH1 0x20 SWAP2 PUSH2 0x15C DUP2 MLOAD DUP1 SWAP3 DUP2 DUP6 MSTORE DUP6 DUP1 DUP7 ADD SWAP2 ADD PUSH2 0x122 JUMP JUMPDEST PUSH1 0x1F ADD PUSH1 0x1F NOT AND ADD ADD SWAP1 JUMP JUMPDEST SWAP1 PUSH1 0x20 PUSH2 0x179 SWAP3 DUP2 DUP2 MSTORE ADD SWAP1 PUSH2 0x143 JUMP JUMPDEST SWAP1 JUMP JUMPDEST CALLVALUE PUSH2 0xF0 JUMPI PUSH1 0xC0 CALLDATASIZE PUSH1 0x3 NOT ADD SLT PUSH2 0xF0 JUMPI PUSH2 0x198 PUSH1 0x24 CALLDATALOAD PUSH2 0xDF JUMP JUMPDEST PUSH1 0x44 CALLDATALOAD PUSH8 0xFFFFFFFFFFFFFFFF PUSH1 0x64 CALLDATALOAD DUP2 DUP2 GT PUSH2 0xF0 JUMPI PUSH2 0x1BC SWAP1 CALLDATASIZE SWAP1 PUSH1 0x4 ADD PUSH2 0xF4 JUMP JUMPDEST SWAP3 SWAP1 SWAP2 PUSH1 0xA4 CALLDATALOAD SWAP1 DUP2 GT PUSH2 0xF0 JUMPI PUSH2 0x1D7 SWAP1 CALLDATASIZE SWAP1 PUSH1 0x4 ADD PUSH2 0xF4 JUMP JUMPDEST PUSH2 0x1FB PUSH2 0x1EE PUSH1 0x4 CALLDATALOAD PUSH0 MSTORE PUSH1 0x1 PUSH1 0x20 MSTORE PUSH1 0x40 PUSH0 KECCAK256 SWAP1 JUMP JUMPDEST SLOAD PUSH1 0x1 PUSH1 0x1 PUSH1 0xA0 SHL SUB AND SWAP1 JUMP JUMPDEST SWAP1 PUSH1 0x1 PUSH1 0x1 PUSH1 0xA0 SHL SUB DUP3 AND ISZERO PUSH2 0x510 JUMPI PUSH1 0x24 CALLDATALOAD PUSH1 0x1 PUSH1 0x1 PUSH1 0xA0 SHL SUB AND ISZERO PUSH2 0x4FE JUMPI PUSH1 0x84 CALLDATALOAD TIMESTAMP GT PUSH2 0x4EC JUMPI PUSH1 0x1 PUSH1 0x1 PUSH1 0xA0 SHL SUB PUSH1 0x24 CALLDATALOAD AND PUSH0 SWAP1 DUP2 MSTORE PUSH1 0x2 PUSH1 0x20 MSTORE PUSH1 0x40 SWAP1 KECCAK256 PUSH2 0x33C SWAP2 SWAP1 PUSH2 0x336 SWAP1 SLOAD SWAP5 PUSH2 0x254 CALLDATASIZE DUP11 DUP11 PUSH2 0xA08 JUMP JUMPDEST DUP1 MLOAD PUSH1 0x20 SWAP2 DUP3 ADD KECCAK256 PUSH1 0x40 DUP1 MLOAD PUSH32 0x2EAAF47F5D8D55BBDFC0070D3BF4E5C48F0E169AEB82B023197C8B2C69C6A338 SWAP4 DUP2 ADD SWAP4 DUP5 MSTORE PUSH1 0x24 CALLDATALOAD PUSH1 0x1 PUSH1 0x1 PUSH1 0xA0 SHL SUB AND SWAP2 DUP2 ADD SWAP2 SWAP1 SWAP2 MSTORE PUSH1 0x4 CALLDATALOAD PUSH1 0x60 DUP3 ADD MSTORE PUSH1 0x80 DUP2 ADD DUP11 SWAP1 MSTORE PUSH1 0xA0 DUP2 ADD SWAP2 SWAP1 SWAP2 MSTORE PUSH1 0xC0 DUP2 ADD DUP9 SWAP1 MSTORE PUSH1 0x84 CALLDATALOAD PUSH1 0xE0 DUP1 DUP4 ADD SWAP2 SWAP1 SWAP2 MSTORE DUP2 MSTORE PUSH1 0x1F NOT SWAP2 SWAP1 PUSH2 0x2D7 PUSH2 0x100 DUP3 PUSH2 0x9C5 JUMP JUMPDEST MLOAD SWAP1 KECCAK256 PUSH1 0x40 MLOAD PUSH2 0x1901 PUSH1 0xF0 SHL PUSH1 0x20 DUP3 ADD SWAP1 DUP2 MSTORE PUSH32 0x0 PUSH1 0x22 DUP4 ADD MSTORE PUSH1 0x42 DUP3 ADD SWAP3 SWAP1 SWAP3 MSTORE PUSH1 0x62 SWAP3 DUP4 ADD DUP2 MSTORE SWAP1 SWAP2 PUSH2 0x32B SWAP1 DUP3 PUSH2 0x9C5 JUMP JUMPDEST MLOAD SWAP1 KECCAK256 SWAP3 CALLDATASIZE SWAP2 PUSH2 0xA08 JUMP JUMPDEST SWAP1 PUSH2 0xB8B JUMP JUMPDEST PUSH1 0x40 MLOAD PUSH4 0x8DA5CB5B PUSH1 0xE0 SHL DUP2 MSTORE SWAP3 SWAP1 PUSH1 0x20 DUP5 PUSH1 0x4 DUP2 PUSH1 0x24 CALLDATALOAD PUSH1 0x1 PUSH1 0x1 PUSH1 0xA0 SHL SUB AND GAS STATICCALL SWAP4 DUP5 ISZERO PUSH2 0x4E7 JUMPI PUSH0 SWAP5 PUSH2 0x4B6 JUMPI JUMPDEST POP PUSH1 0x1 PUSH1 0x1 PUSH1 0xA0 SHL SUB AND SWAP3 DUP4 ISZERO SWAP1 DUP2 ISZERO PUSH2 0x4A2 JUMPI JUMPDEST POP PUSH2 0x490 JUMPI PUSH2 0x390 SWAP1 PUSH2 0xA5E JUMP JUMPDEST PUSH1 0x1 PUSH1 0x1 PUSH1 0xA0 SHL SUB PUSH1 0x24 CALLDATALOAD AND PUSH0 SWAP1 DUP2 MSTORE PUSH1 0x2 PUSH1 0x20 MSTORE PUSH1 0x40 SWAP1 KECCAK256 SSTORE PUSH1 0x40 MLOAD PUSH4 0x9E5D4C49 PUSH1 0xE0 SHL DUP2 MSTORE PUSH0 DUP2 DUP1 PUSH2 0x3CA DUP10 DUP10 DUP10 DUP9 PUSH1 0x4 DUP7 ADD PUSH2 0xAFF JUMP JUMPDEST SUB DUP2 DUP4 PUSH1 0x24 CALLDATALOAD PUSH1 0x1 PUSH1 0x1 PUSH1 0xA0 SHL SUB AND GAS CALL PUSH0 SWAP2 DUP2 PUSH2 0x46C JUMPI JUMPDEST POP PUSH2 0x40F JUMPI PUSH2 0x3F0 PUSH2 0xB23 JUMP JUMPDEST DUP1 MLOAD SWAP1 DUP2 PUSH2 0x40A JUMPI PUSH1 0x40 MLOAD PUSH4 0x2B3F6D11 PUSH1 0xE2 SHL DUP2 MSTORE PUSH1 0x4 SWAP1 REVERT JUMPDEST PUSH1 0x20 ADD REVERT JUMPDEST PUSH1 0x40 MLOAD PUSH2 0x468 SWAP7 SWAP2 SWAP6 PUSH1 0x4 CALLDATALOAD SWAP6 PUSH1 0x24 CALLDATALOAD PUSH1 0x1 PUSH1 0x1 PUSH1 0xA0 SHL SUB AND SWAP5 PUSH32 0xBDC4E709CEE662270D6B1F3B98B847541936A3762B56F7229D50448D83476E24 SWAP5 DUP5 SWAP4 PUSH2 0x459 SWAP4 DUP12 SWAP4 DUP7 PUSH2 0xB52 JUMP JUMPDEST SUB SWAP1 LOG4 PUSH1 0x40 MLOAD SWAP2 DUP3 SWAP2 DUP3 PUSH2 0x168 JUMP JUMPDEST SUB SWAP1 RETURN JUMPDEST PUSH2 0x489 SWAP2 SWAP3 POP RETURNDATASIZE DUP1 PUSH0 DUP4 RETURNDATACOPY PUSH2 0x481 DUP2 DUP4 PUSH2 0x9C5 JUMP JUMPDEST DUP2 ADD SWAP1 PUSH2 0xA80 JUMP JUMPDEST SWAP1 PUSH0 PUSH2 0x3E3 JUMP JUMPDEST PUSH1 0x40 MLOAD PUSH4 0x20578759 PUSH1 0xE2 SHL DUP2 MSTORE PUSH1 0x4 SWAP1 REVERT JUMPDEST PUSH1 0x1 PUSH1 0x1 PUSH1 0xA0 SHL SUB AND DUP5 EQ ISZERO SWAP1 POP PUSH0 PUSH2 0x382 JUMP JUMPDEST PUSH2 0x4D9 SWAP2 SWAP5 POP PUSH1 0x20 RETURNDATASIZE PUSH1 0x20 GT PUSH2 0x4E0 JUMPI JUMPDEST PUSH2 0x4D1 DUP2 DUP4 PUSH2 0x9C5 JUMP JUMPDEST DUP2 ADD SWAP1 PUSH2 0xA3E JUMP JUMPDEST SWAP3 PUSH0 PUSH2 0x36D JUMP JUMPDEST POP RETURNDATASIZE PUSH2 0x4C7 JUMP JUMPDEST PUSH2 0xA53 JUMP JUMPDEST PUSH1 0x40 MLOAD PUSH4 0x819BDCD PUSH1 0xE0 SHL DUP2 MSTORE PUSH1 0x4 SWAP1 REVERT JUMPDEST PUSH1 0x40 MLOAD PUSH4 0xD92E233D PUSH1 0xE0 SHL DUP2 MSTORE PUSH1 0x4 SWAP1 REVERT JUMPDEST PUSH1 0x40 MLOAD PUSH4 0x4E25774F PUSH1 0xE1 SHL DUP2 MSTORE PUSH1 0x4 SWAP1 REVERT JUMPDEST CALLVALUE PUSH2 0xF0 JUMPI PUSH1 0x20 CALLDATASIZE PUSH1 0x3 NOT ADD SLT PUSH2 0xF0 JUMPI PUSH1 0x4 CALLDATALOAD PUSH2 0x53F DUP2 PUSH2 0xDF JUMP JUMPDEST PUSH1 0x1 DUP1 PUSH1 0xA0 SHL SUB AND PUSH0 MSTORE PUSH1 0x2 PUSH1 0x20 MSTORE PUSH1 0x20 PUSH1 0x40 PUSH0 KECCAK256 SLOAD PUSH1 0x40 MLOAD SWAP1 DUP2 MSTORE RETURN JUMPDEST CALLVALUE PUSH2 0xF0 JUMPI PUSH1 0x80 CALLDATASIZE PUSH1 0x3 NOT ADD SLT PUSH2 0xF0 JUMPI PUSH1 0x4 PUSH1 0x24 CALLDATALOAD DUP2 CALLDATALOAD PUSH2 0x57E DUP3 PUSH2 0xDF JUMP JUMPDEST PUSH1 0x44 CALLDATALOAD SWAP2 PUSH1 0x64 CALLDATALOAD PUSH8 0xFFFFFFFFFFFFFFFF DUP2 GT PUSH2 0xF0 JUMPI PUSH2 0x5A1 SWAP1 CALLDATASIZE SWAP1 DUP7 ADD PUSH2 0xF4 JUMP JUMPDEST SWAP4 SWAP1 SWAP2 PUSH2 0x5AC PUSH2 0xBA1 JUMP JUMPDEST PUSH2 0x5C1 PUSH2 0x1EE DUP6 PUSH0 MSTORE PUSH1 0x1 PUSH1 0x20 MSTORE PUSH1 0x40 PUSH0 KECCAK256 SWAP1 JUMP JUMPDEST SWAP1 PUSH1 0x1 PUSH1 0x1 PUSH1 0xA0 SHL SUB SWAP1 DUP2 DUP4 AND ISZERO PUSH2 0x69D JUMPI AND SWAP3 DUP4 ISZERO PUSH2 0x68C JUMPI DUP3 PUSH0 DUP4 DUP10 PUSH2 0x5FD DUP11 DUP7 PUSH1 0x40 MLOAD SWAP7 DUP8 SWAP6 DUP7 SWAP6 PUSH4 0x9E5D4C49 PUSH1 0xE0 SHL DUP8 MSTORE DUP7 ADD PUSH2 0xAFF JUMP JUMPDEST SUB DUP2 DUP4 DUP10 GAS CALL PUSH0 SWAP2 DUP2 PUSH2 0x670 JUMPI JUMPDEST POP PUSH2 0x632 JUMPI DUP8 PUSH2 0x619 PUSH2 0xB23 JUMP JUMPDEST DUP1 MLOAD SWAP1 DUP2 PUSH2 0x40A JUMPI PUSH1 0x40 MLOAD PUSH4 0x2B3F6D11 PUSH1 0xE2 SHL DUP2 MSTORE DUP4 SWAP1 REVERT JUMPDEST PUSH2 0x468 SWAP8 POP SWAP2 PUSH2 0x459 PUSH0 SWAP6 SWAP5 SWAP3 PUSH32 0xBDC4E709CEE662270D6B1F3B98B847541936A3762B56F7229D50448D83476E24 SWAP5 SWAP9 DUP10 SWAP2 PUSH1 0x40 MLOAD SWAP6 DUP7 SWAP6 DUP7 PUSH2 0xB52 JUMP JUMPDEST PUSH2 0x685 SWAP2 SWAP3 POP RETURNDATASIZE DUP1 PUSH0 DUP4 RETURNDATACOPY PUSH2 0x481 DUP2 DUP4 PUSH2 0x9C5 JUMP JUMPDEST SWAP1 PUSH0 PUSH2 0x60B JUMP JUMPDEST PUSH1 0x40 MLOAD PUSH4 0xD92E233D PUSH1 0xE0 SHL DUP2 MSTORE DUP8 SWAP1 REVERT JUMPDEST PUSH1 0x40 MLOAD PUSH4 0x4E25774F PUSH1 0xE1 SHL DUP2 MSTORE DUP9 SWAP1 REVERT JUMPDEST CALLVALUE PUSH2 0xF0 JUMPI PUSH1 0x20 CALLDATASIZE PUSH1 0x3 NOT ADD SLT PUSH2 0xF0 JUMPI PUSH1 0x4 CALLDATALOAD PUSH2 0x6CA PUSH2 0xBA1 JUMP JUMPDEST PUSH0 DUP2 DUP2 MSTORE PUSH1 0x1 PUSH1 0x20 MSTORE PUSH1 0x40 SWAP1 KECCAK256 SLOAD PUSH1 0x1 PUSH1 0x1 PUSH1 0xA0 SHL SUB AND SWAP1 DUP2 ISZERO PUSH2 0x729 JUMPI PUSH0 DUP2 DUP2 MSTORE PUSH1 0x1 PUSH1 0x20 MSTORE PUSH1 0x40 DUP2 KECCAK256 DUP1 SLOAD PUSH1 0x1 PUSH1 0x1 PUSH1 0xA0 SHL SUB NOT AND SWAP1 SSTORE PUSH32 0xC631C273472E359A1548940DACA1E146B3B6BF7582363A16E11B9F570783BAEE SWAP1 DUP1 LOG3 STOP JUMPDEST PUSH1 0x40 MLOAD PUSH4 0x1C94B023 PUSH1 0xE2 SHL DUP2 MSTORE PUSH1 0x4 SWAP1 REVERT JUMPDEST CALLVALUE PUSH2 0xF0 JUMPI PUSH0 CALLDATASIZE PUSH1 0x3 NOT ADD SLT PUSH2 0xF0 JUMPI PUSH1 0x20 PUSH1 0x40 MLOAD PUSH32 0x0 DUP2 MSTORE RETURN JUMPDEST CALLVALUE PUSH2 0xF0 JUMPI PUSH0 CALLDATASIZE PUSH1 0x3 NOT ADD SLT PUSH2 0xF0 JUMPI PUSH1 0x20 PUSH1 0x40 MLOAD PUSH32 0x2EAAF47F5D8D55BBDFC0070D3BF4E5C48F0E169AEB82B023197C8B2C69C6A338 DUP2 MSTORE RETURN JUMPDEST CALLVALUE PUSH2 0xF0 JUMPI PUSH0 CALLDATASIZE PUSH1 0x3 NOT ADD SLT PUSH2 0xF0 JUMPI PUSH2 0x7C7 PUSH2 0xBA1 JUMP JUMPDEST PUSH0 DUP1 SLOAD PUSH1 0x1 PUSH1 0x1 PUSH1 0xA0 SHL SUB NOT DUP2 AND DUP3 SSTORE PUSH1 0x1 PUSH1 0x1 PUSH1 0xA0 SHL SUB AND PUSH32 0x8BE0079C531659141344CD1FD0A4F28419497F9722A3DAAFE3B4186F6B6457E0 DUP3 DUP1 LOG3 STOP JUMPDEST CALLVALUE PUSH2 0xF0 JUMPI PUSH1 0x20 CALLDATASIZE PUSH1 0x3 NOT ADD SLT PUSH2 0xF0 JUMPI PUSH1 0x4 CALLDATALOAD PUSH0 MSTORE PUSH1 0x1 PUSH1 0x20 MSTORE PUSH1 0x20 PUSH1 0x1 DUP1 PUSH1 0xA0 SHL SUB PUSH1 0x40 PUSH0 KECCAK256 SLOAD AND PUSH1 0x40 MLOAD SWAP1 DUP2 MSTORE RETURN JUMPDEST CALLVALUE PUSH2 0xF0 JUMPI PUSH0 CALLDATASIZE PUSH1 0x3 NOT ADD SLT PUSH2 0xF0 JUMPI PUSH0 SLOAD PUSH1 0x40 MLOAD PUSH1 0x1 PUSH1 0x1 PUSH1 0xA0 SHL SUB SWAP1 SWAP2 AND DUP2 MSTORE PUSH1 0x20 SWAP1 RETURN JUMPDEST CALLVALUE PUSH2 0xF0 JUMPI PUSH1 0x40 CALLDATASIZE PUSH1 0x3 NOT ADD SLT PUSH2 0xF0 JUMPI PUSH1 0x24 CALLDATALOAD PUSH1 0x4 CALLDATALOAD PUSH2 0x87F DUP3 PUSH2 0xDF JUMP JUMPDEST PUSH2 0x887 PUSH2 0xBA1 JUMP JUMPDEST PUSH1 0x1 PUSH1 0x1 PUSH1 0xA0 SHL SUB DUP3 DUP2 AND SWAP3 SWAP1 DUP4 ISZERO PUSH2 0x4FE JUMPI PUSH0 DUP4 DUP2 MSTORE PUSH1 0x1 PUSH1 0x20 MSTORE PUSH1 0x40 SWAP1 KECCAK256 SLOAD AND PUSH1 0x1 PUSH1 0x1 PUSH1 0xA0 SHL SUB AND PUSH2 0x911 JUMPI PUSH2 0x8EB SWAP1 PUSH2 0x8CC DUP4 PUSH0 MSTORE PUSH1 0x1 PUSH1 0x20 MSTORE PUSH1 0x40 PUSH0 KECCAK256 SWAP1 JUMP JUMPDEST DUP1 SLOAD PUSH1 0x1 PUSH1 0x1 PUSH1 0xA0 SHL SUB NOT AND PUSH1 0x1 PUSH1 0x1 PUSH1 0xA0 SHL SUB SWAP1 SWAP3 AND SWAP2 SWAP1 SWAP2 OR SWAP1 SSTORE JUMP JUMPDEST PUSH32 0xD63BE02155B46636309FB0A4A79647C60971AECAAD53CBC83AAD90CD75FD9D54 PUSH0 DUP1 LOG3 STOP JUMPDEST PUSH1 0x40 MLOAD PUSH4 0x95B0718D PUSH1 0xE0 SHL DUP2 MSTORE PUSH1 0x4 SWAP1 REVERT JUMPDEST CALLVALUE PUSH2 0xF0 JUMPI PUSH1 0x20 CALLDATASIZE PUSH1 0x3 NOT ADD SLT PUSH2 0xF0 JUMPI PUSH1 0x4 CALLDATALOAD PUSH2 0x940 DUP2 PUSH2 0xDF JUMP JUMPDEST PUSH2 0x948 PUSH2 0xBA1 JUMP JUMPDEST PUSH1 0x1 PUSH1 0x1 PUSH1 0xA0 SHL SUB SWAP1 DUP2 AND SWAP1 DUP2 ISZERO PUSH2 0x999 JUMPI PUSH0 SLOAD DUP3 PUSH12 0xFFFFFFFFFFFFFFFFFFFFFFFF PUSH1 0xA0 SHL DUP3 AND OR PUSH0 SSTORE AND PUSH32 0x8BE0079C531659141344CD1FD0A4F28419497F9722A3DAAFE3B4186F6B6457E0 PUSH0 DUP1 LOG3 STOP JUMPDEST PUSH1 0x40 MLOAD PUSH4 0x1E4FBDF7 PUSH1 0xE0 SHL DUP2 MSTORE PUSH0 PUSH1 0x4 DUP3 ADD MSTORE PUSH1 0x24 SWAP1 REVERT JUMPDEST PUSH4 0x4E487B71 PUSH1 0xE0 SHL PUSH0 MSTORE PUSH1 0x41 PUSH1 0x4 MSTORE PUSH1 0x24 PUSH0 REVERT JUMPDEST SWAP1 PUSH1 0x1F DUP1 NOT SWAP2 ADD AND DUP2 ADD SWAP1 DUP2 LT PUSH8 0xFFFFFFFFFFFFFFFF DUP3 GT OR PUSH2 0x9E7 JUMPI PUSH1 0x40 MSTORE JUMP JUMPDEST PUSH2 0x9B1 JUMP JUMPDEST PUSH8 0xFFFFFFFFFFFFFFFF DUP2 GT PUSH2 0x9E7 JUMPI PUSH1 0x1F ADD PUSH1 0x1F NOT AND PUSH1 0x20 ADD SWAP1 JUMP JUMPDEST SWAP3 SWAP2 SWAP3 PUSH2 0xA14 DUP3 PUSH2 0x9EC JUMP JUMPDEST SWAP2 PUSH2 0xA22 PUSH1 0x40 MLOAD SWAP4 DUP5 PUSH2 0x9C5 JUMP JUMPDEST DUP3 SWAP5 DUP2 DUP5 MSTORE DUP2 DUP4 ADD GT PUSH2 0xF0 JUMPI DUP3 DUP2 PUSH1 0x20 SWAP4 DUP5 PUSH0 SWAP7 ADD CALLDATACOPY ADD ADD MSTORE JUMP JUMPDEST SWAP1 DUP2 PUSH1 0x20 SWAP2 SUB SLT PUSH2 0xF0 JUMPI MLOAD PUSH2 0x179 DUP2 PUSH2 0xDF JUMP JUMPDEST PUSH1 0x40 MLOAD RETURNDATASIZE PUSH0 DUP3 RETURNDATACOPY RETURNDATASIZE SWAP1 REVERT JUMPDEST SWAP1 PUSH1 0x1 DUP3 ADD DUP1 SWAP3 GT PUSH2 0xA6C JUMPI JUMP JUMPDEST PUSH4 0x4E487B71 PUSH1 0xE0 SHL PUSH0 MSTORE PUSH1 0x11 PUSH1 0x4 MSTORE PUSH1 0x24 PUSH0 REVERT JUMPDEST PUSH1 0x20 DUP2 DUP4 SUB SLT PUSH2 0xF0 JUMPI DUP1 MLOAD SWAP1 PUSH8 0xFFFFFFFFFFFFFFFF DUP3 GT PUSH2 0xF0 JUMPI ADD DUP2 PUSH1 0x1F DUP3 ADD SLT ISZERO PUSH2 0xF0 JUMPI DUP1 MLOAD PUSH2 0xAB3 DUP2 PUSH2 0x9EC JUMP JUMPDEST SWAP3 PUSH2 0xAC1 PUSH1 0x40 MLOAD SWAP5 DUP6 PUSH2 0x9C5 JUMP JUMPDEST DUP2 DUP5 MSTORE PUSH1 0x20 DUP3 DUP5 ADD ADD GT PUSH2 0xF0 JUMPI PUSH2 0x179 SWAP2 PUSH1 0x20 DUP1 DUP6 ADD SWAP2 ADD PUSH2 0x122 JUMP JUMPDEST SWAP1 DUP1 PUSH1 0x20 SWAP4 SWAP3 DUP2 DUP5 MSTORE DUP5 DUP5 ADD CALLDATACOPY PUSH0 DUP3 DUP3 ADD DUP5 ADD MSTORE PUSH1 0x1F ADD PUSH1 0x1F NOT AND ADD ADD SWAP1 JUMP JUMPDEST PUSH2 0x179 SWAP5 SWAP3 PUSH1 0x60 SWAP3 PUSH1 0x1 DUP1 PUSH1 0xA0 SHL SUB AND DUP3 MSTORE PUSH1 0x20 DUP3 ADD MSTORE DUP2 PUSH1 0x40 DUP3 ADD MSTORE ADD SWAP2 PUSH2 0xADF JUMP JUMPDEST RETURNDATASIZE ISZERO PUSH2 0xB4D JUMPI RETURNDATASIZE SWAP1 PUSH2 0xB34 DUP3 PUSH2 0x9EC JUMP JUMPDEST SWAP2 PUSH2 0xB42 PUSH1 0x40 MLOAD SWAP4 DUP5 PUSH2 0x9C5 JUMP JUMPDEST DUP3 MSTORE RETURNDATASIZE PUSH0 PUSH1 0x20 DUP5 ADD RETURNDATACOPY JUMP JUMPDEST PUSH1 0x60 SWAP1 JUMP JUMPDEST SWAP4 PUSH2 0xB7D SWAP3 PUSH2 0x179 SWAP7 SWAP5 SWAP3 PUSH1 0x1 DUP1 PUSH1 0xA0 SHL SUB AND DUP7 MSTORE PUSH1 0x20 DUP7 ADD MSTORE PUSH1 0x80 PUSH1 0x40 DUP7 ADD MSTORE PUSH1 0x80 DUP6 ADD SWAP2 PUSH2 0xADF JUMP JUMPDEST SWAP2 PUSH1 0x60 DUP2 DUP5 SUB SWAP2 ADD MSTORE PUSH2 0x143 JUMP JUMPDEST PUSH2 0x179 SWAP2 PUSH2 0xB98 SWAP2 PUSH2 0xBCC JUMP JUMPDEST SWAP1 SWAP3 SWAP2 SWAP3 PUSH2 0xC24 JUMP JUMPDEST PUSH0 SLOAD PUSH1 0x1 PUSH1 0x1 PUSH1 0xA0 SHL SUB AND CALLER SUB PUSH2 0xBB4 JUMPI JUMP JUMPDEST PUSH1 0x40 MLOAD PUSH4 0x118CDAA7 PUSH1 0xE0 SHL DUP2 MSTORE CALLER PUSH1 0x4 DUP3 ADD MSTORE PUSH1 0x24 SWAP1 REVERT JUMPDEST DUP2 MLOAD SWAP2 SWAP1 PUSH1 0x41 DUP4 SUB PUSH2 0xBFC JUMPI PUSH2 0xBF5 SWAP3 POP PUSH1 0x20 DUP3 ADD MLOAD SWAP1 PUSH1 0x60 PUSH1 0x40 DUP5 ADD MLOAD SWAP4 ADD MLOAD PUSH0 BYTE SWAP1 PUSH2 0xCB1 JUMP JUMPDEST SWAP2 SWAP3 SWAP1 SWAP2 SWAP1 JUMP JUMPDEST POP POP PUSH0 SWAP2 PUSH1 0x2 SWAP2 SWAP1 JUMP JUMPDEST PUSH1 0x4 GT ISZERO PUSH2 0xC10 JUMPI JUMP JUMPDEST PUSH4 0x4E487B71 PUSH1 0xE0 SHL PUSH0 MSTORE PUSH1 0x21 PUSH1 0x4 MSTORE PUSH1 0x24 PUSH0 REVERT JUMPDEST PUSH2 0xC2D DUP2 PUSH2 0xC06 JUMP JUMPDEST DUP1 PUSH2 0xC36 JUMPI POP POP JUMP JUMPDEST PUSH2 0xC3F DUP2 PUSH2 0xC06 JUMP JUMPDEST PUSH1 0x1 DUP2 SUB PUSH2 0xC59 JUMPI PUSH1 0x40 MLOAD PUSH4 0xF645EEDF PUSH1 0xE0 SHL DUP2 MSTORE PUSH1 0x4 SWAP1 REVERT JUMPDEST PUSH2 0xC62 DUP2 PUSH2 0xC06 JUMP JUMPDEST PUSH1 0x2 DUP2 SUB PUSH2 0xC83 JUMPI PUSH1 0x40 MLOAD PUSH4 0xFCE698F7 PUSH1 0xE0 SHL DUP2 MSTORE PUSH1 0x4 DUP2 ADD DUP4 SWAP1 MSTORE PUSH1 0x24 SWAP1 REVERT JUMPDEST DUP1 PUSH2 0xC8F PUSH1 0x3 SWAP3 PUSH2 0xC06 JUMP JUMPDEST EQ PUSH2 0xC97 JUMPI POP JUMP JUMPDEST PUSH1 0x40 MLOAD PUSH4 0x35E2F383 PUSH1 0xE2 SHL DUP2 MSTORE PUSH1 0x4 DUP2 ADD SWAP2 SWAP1 SWAP2 MSTORE PUSH1 0x24 SWAP1 REVERT JUMPDEST SWAP2 SWAP1 PUSH32 0x7FFFFFFFFFFFFFFFFFFFFFFFFFFFFFFF5D576E7357A4501DDFE92F46681B20A0 DUP5 GT PUSH2 0xD28 JUMPI SWAP2 PUSH1 0x20 SWAP4 PUSH1 0x80 SWAP3 PUSH1 0xFF PUSH0 SWAP6 PUSH1 0x40 MLOAD SWAP5 DUP6 MSTORE AND DUP7 DUP5 ADD MSTORE PUSH1 0x40 DUP4 ADD MSTORE PUSH1 0x60 DUP3 ADD MSTORE DUP3 DUP1 MSTORE PUSH1 0x1 GAS STATICCALL ISZERO PUSH2 0x4E7 JUMPI PUSH0 MLOAD PUSH1 0x1 PUSH1 0x1 PUSH1 0xA0 SHL SUB DUP2 AND ISZERO PUSH2 0xD1E JUMPI SWAP1 PUSH0 SWAP1 PUSH0 SWAP1 JUMP JUMPDEST POP PUSH0 SWAP1 PUSH1 0x1 SWAP1 PUSH0 SWAP1 JUMP JUMPDEST POP POP POP PUSH0 SWAP2 PUSH1 0x3 SWAP2 SWAP1 JUMP INVALID LOG2 PUSH5 0x6970667358 0x22 SLT KECCAK256 0xE1 0xD9 GT 0xE 0xB0 0xE6 SWAP15 MULMOD CALLDATASIZE 0x29 0xBA 0x22 0xBC 0xF 0xB2 DUP2 0xD0 0xE9 0x29 DUP9 SWAP2 MUL 0xC0 PUSH15 0x97DF30A314B0015964736F6C634300 ADDMOD XOR STOP CALLER "
				},
				"gasEstimates": {
					"creation": {
						"codeDepositCost": "686600",
						"executionCost": "infinite",
						"totalCost": "infinite"
					},
					"external": {
						"ACTION_TYPEHASH()": "267",
						"DOMAIN_SEPARATOR()": "infinite",
						"executeModuleActionByOwner(bytes32,address,uint256,bytes)": "infinite",
						"executeModuleActionWithSig(bytes32,address,uint256,bytes,uint256,bytes)": "infinite",
						"getModule(bytes32)": "2519",
						"getNonce(address)": "2429",
						"modules(bytes32)": "2585",
						"nonces(address)": "2561",
						"owner()": "2481",
						"registerModule(bytes32,address)": "30708",
						"renounceOwnership()": "28186",
						"transferOwnership(address)": "28409",
						"unregisterModule(bytes32)": "30380"
					}
				},
				"methodIdentifiers": {
					"ACTION_TYPEHASH()": "5a35b84a",
					"DOMAIN_SEPARATOR()": "3644e515",
					"executeModuleActionByOwner(bytes32,address,uint256,bytes)": "2dac633b",
					"executeModuleActionWithSig(bytes32,address,uint256,bytes,uint256,bytes)": "16ca96f4",
					"getModule(bytes32)": "85acd641",
					"getNonce(address)": "2d0335ab",
					"modules(bytes32)": "b0b6cc1a",
					"nonces(address)": "7ecebe00",
					"owner()": "8da5cb5b",
					"registerModule(bytes32,address)": "a78e922b",
					"renounceOwnership()": "715018a6",
					"transferOwnership(address)": "f2fde38b",
					"unregisterModule(bytes32)": "3595945d"
				}
			},
			"storageLayout": {
				"storage": [
					{
						"astId": 35,
						"contract": "src/Contract Architecture/Core Infrastructure/ActionExecutor_flattened.sol:ActionExecutor",
						"label": "_owner",
						"offset": 0,
						"slot": "0",
						"type": "t_address"
					},
					{
						"astId": 593,
						"contract": "src/Contract Architecture/Core Infrastructure/ActionExecutor_flattened.sol:ActionExecutor",
						"label": "modules",
						"offset": 0,
						"slot": "1",
						"type": "t_mapping(t_bytes32,t_address)"
					},
					{
						"astId": 598,
						"contract": "src/Contract Architecture/Core Infrastructure/ActionExecutor_flattened.sol:ActionExecutor",
						"label": "nonces",
						"offset": 0,
						"slot": "2",
						"type": "t_mapping(t_address,t_uint256)"
					}
				],
				"types": {
					"t_address": {
						"encoding": "inplace",
						"label": "address",
						"numberOfBytes": "20"
					},
					"t_bytes32": {
						"encoding": "inplace",
						"label": "bytes32",
						"numberOfBytes": "32"
					},
					"t_mapping(t_address,t_uint256)": {
						"encoding": "mapping",
						"key": "t_address",
						"label": "mapping(address => uint256)",
						"numberOfBytes": "32",
						"value": "t_uint256"
					},
					"t_mapping(t_bytes32,t_address)": {
						"encoding": "mapping",
						"key": "t_bytes32",
						"label": "mapping(bytes32 => address)",
						"numberOfBytes": "32",
						"value": "t_address"
					},
					"t_uint256": {
						"encoding": "inplace",
						"label": "uint256",
						"numberOfBytes": "32"
					}
				}
			},
			"userdoc": {
				"events": {
					"ModuleRegistered(bytes32,address)": {
						"notice": "========== EVENTS =========="
					}
				},
				"kind": "user",
				"methods": {
					"DOMAIN_SEPARATOR()": {
						"notice": "EIP-712 domain separator parameters"
					},
					"executeModuleActionByOwner(bytes32,address,uint256,bytes)": {
						"notice": "Admin fallback: owner of this contract can execute module actions directly (no signature). Useful for governance-driven or emergency operations."
					},
					"executeModuleActionWithSig(bytes32,address,uint256,bytes,uint256,bytes)": {
						"notice": "Execute a registered module's action on behalf of user vault, authorized by owner's signature."
					},
					"getModule(bytes32)": {
						"notice": "========== HELPERS / VIEWS =========="
					},
					"modules(bytes32)": {
						"notice": "========== MODULE REGISTRY ========== moduleId => moduleAddress"
					},
					"nonces(address)": {
						"notice": "========== NONCES ========== vault => nonce"
					},
					"registerModule(bytes32,address)": {
						"notice": "========== MODULE ADMIN =========="
					}
				},
				"version": 1
			}
		}
	}
}