{
	"src/Contract Architecture/Core Infrastructure/RaindropEscrow.sol": {
		"RaindropEscrow": {
			"abi": [
				{
					"inputs": [
						{
							"internalType": "address",
							"name": "_feeRecipient",
							"type": "address"
						}
					],
					"stateMutability": "nonpayable",
					"type": "constructor"
				},
				{
					"inputs": [
						{
							"internalType": "address",
							"name": "owner",
							"type": "address"
						}
					],
					"name": "OwnableInvalidOwner",
					"type": "error"
				},
				{
					"inputs": [
						{
							"internalType": "address",
							"name": "account",
							"type": "address"
						}
					],
					"name": "OwnableUnauthorizedAccount",
					"type": "error"
				},
				{
					"inputs": [
						{
							"internalType": "address",
							"name": "token",
							"type": "address"
						}
					],
					"name": "SafeERC20FailedOperation",
					"type": "error"
				},
				{
					"anonymous": false,
					"inputs": [
						{
							"indexed": true,
							"internalType": "address",
							"name": "previousOwner",
							"type": "address"
						},
						{
							"indexed": true,
							"internalType": "address",
							"name": "newOwner",
							"type": "address"
						}
					],
					"name": "OwnershipTransferred",
					"type": "event"
				},
				{
					"anonymous": false,
					"inputs": [
						{
							"indexed": true,
							"internalType": "string",
							"name": "raindropId",
							"type": "string"
						},
						{
							"indexed": false,
							"internalType": "uint256",
							"name": "participantCount",
							"type": "uint256"
						}
					],
					"name": "ParticipantsUpdated",
					"type": "event"
				},
				{
					"anonymous": false,
					"inputs": [
						{
							"indexed": true,
							"internalType": "string",
							"name": "raindropId",
							"type": "string"
						},
						{
							"indexed": true,
							"internalType": "address",
							"name": "host",
							"type": "address"
						},
						{
							"indexed": false,
							"internalType": "uint256",
							"name": "refundAmount",
							"type": "uint256"
						}
					],
					"name": "RaindropCancelled",
					"type": "event"
				},
				{
					"anonymous": false,
					"inputs": [
						{
							"indexed": true,
							"internalType": "string",
							"name": "raindropId",
							"type": "string"
						},
						{
							"indexed": true,
							"internalType": "address",
							"name": "host",
							"type": "address"
						},
						{
							"indexed": true,
							"internalType": "address",
							"name": "token",
							"type": "address"
						},
						{
							"indexed": false,
							"internalType": "uint256",
							"name": "totalAmount",
							"type": "uint256"
						},
						{
							"indexed": false,
							"internalType": "uint256",
							"name": "scheduledTime",
							"type": "uint256"
						}
					],
					"name": "RaindropCreated",
					"type": "event"
				},
				{
					"anonymous": false,
					"inputs": [
						{
							"indexed": true,
							"internalType": "string",
							"name": "raindropId",
							"type": "string"
						},
						{
							"indexed": false,
							"internalType": "uint256",
							"name": "participantCount",
							"type": "uint256"
						},
						{
							"indexed": false,
							"internalType": "uint256",
							"name": "amountPerParticipant",
							"type": "uint256"
						},
						{
							"indexed": false,
							"internalType": "uint256",
							"name": "totalDistributed",
							"type": "uint256"
						}
					],
					"name": "RaindropExecuted",
					"type": "event"
				},
				{
					"inputs": [],
					"name": "MAX_PARTICIPANTS",
					"outputs": [
						{
							"internalType": "uint256",
							"name": "",
							"type": "uint256"
						}
					],
					"stateMutability": "view",
					"type": "function"
				},
				{
					"inputs": [],
					"name": "MIN_AMOUNT_PER_PARTICIPANT",
					"outputs": [
						{
							"internalType": "uint256",
							"name": "",
							"type": "uint256"
						}
					],
					"stateMutability": "view",
					"type": "function"
				},
				{
					"inputs": [
						{
							"internalType": "string",
							"name": "raindropId",
							"type": "string"
						}
					],
					"name": "cancelRaindrop",
					"outputs": [],
					"stateMutability": "nonpayable",
					"type": "function"
				},
				{
					"inputs": [
						{
							"internalType": "string",
							"name": "raindropId",
							"type": "string"
						},
						{
							"internalType": "address",
							"name": "token",
							"type": "address"
						},
						{
							"internalType": "uint256",
							"name": "totalAmount",
							"type": "uint256"
						},
						{
							"internalType": "uint256",
							"name": "scheduledTime",
							"type": "uint256"
						}
					],
					"name": "createRaindrop",
					"outputs": [],
					"stateMutability": "nonpayable",
					"type": "function"
				},
				{
					"inputs": [
						{
							"internalType": "address",
							"name": "token",
							"type": "address"
						},
						{
							"internalType": "uint256",
							"name": "amount",
							"type": "uint256"
						}
					],
					"name": "emergencyRecoverToken",
					"outputs": [],
					"stateMutability": "nonpayable",
					"type": "function"
				},
				{
					"inputs": [
						{
							"internalType": "string",
							"name": "raindropId",
							"type": "string"
						}
					],
					"name": "executeRaindrop",
					"outputs": [],
					"stateMutability": "nonpayable",
					"type": "function"
				},
				{
					"inputs": [],
					"name": "feeRecipient",
					"outputs": [
						{
							"internalType": "address",
							"name": "",
							"type": "address"
						}
					],
					"stateMutability": "view",
					"type": "function"
				},
				{
					"inputs": [
						{
							"internalType": "string",
							"name": "raindropId",
							"type": "string"
						}
					],
					"name": "getParticipants",
					"outputs": [
						{
							"internalType": "address[]",
							"name": "",
							"type": "address[]"
						}
					],
					"stateMutability": "view",
					"type": "function"
				},
				{
					"inputs": [
						{
							"internalType": "string",
							"name": "raindropId",
							"type": "string"
						}
					],
					"name": "getRaindropDetails",
					"outputs": [
						{
							"internalType": "address",
							"name": "host",
							"type": "address"
						},
						{
							"internalType": "address",
							"name": "token",
							"type": "address"
						},
						{
							"internalType": "uint256",
							"name": "totalAmount",
							"type": "uint256"
						},
						{
							"internalType": "uint256",
							"name": "scheduledTime",
							"type": "uint256"
						},
						{
							"internalType": "bool",
							"name": "executed",
							"type": "bool"
						},
						{
							"internalType": "bool",
							"name": "cancelled",
							"type": "bool"
						},
						{
							"internalType": "uint256",
							"name": "participantCount",
							"type": "uint256"
						}
					],
					"stateMutability": "view",
					"type": "function"
				},
				{
					"inputs": [],
					"name": "owner",
					"outputs": [
						{
							"internalType": "address",
							"name": "",
							"type": "address"
						}
					],
					"stateMutability": "view",
					"type": "function"
				},
				{
					"inputs": [],
					"name": "platformFeeBps",
					"outputs": [
						{
							"internalType": "uint256",
							"name": "",
							"type": "uint256"
						}
					],
					"stateMutability": "view",
					"type": "function"
				},
				{
					"inputs": [
						{
							"internalType": "string",
							"name": "",
							"type": "string"
						}
					],
					"name": "raindropExists",
					"outputs": [
						{
							"internalType": "bool",
							"name": "",
							"type": "bool"
						}
					],
					"stateMutability": "view",
					"type": "function"
				},
				{
					"inputs": [
						{
							"internalType": "string",
							"name": "",
							"type": "string"
						}
					],
					"name": "raindrops",
					"outputs": [
						{
							"internalType": "string",
							"name": "raindropId",
							"type": "string"
						},
						{
							"internalType": "address",
							"name": "host",
							"type": "address"
						},
						{
							"internalType": "address",
							"name": "token",
							"type": "address"
						},
						{
							"internalType": "uint256",
							"name": "totalAmount",
							"type": "uint256"
						},
						{
							"internalType": "uint256",
							"name": "scheduledTime",
							"type": "uint256"
						},
						{
							"internalType": "bool",
							"name": "executed",
							"type": "bool"
						},
						{
							"internalType": "bool",
							"name": "cancelled",
							"type": "bool"
						},
						{
							"internalType": "uint256",
							"name": "participantCount",
							"type": "uint256"
						}
					],
					"stateMutability": "view",
					"type": "function"
				},
				{
					"inputs": [],
					"name": "renounceOwnership",
					"outputs": [],
					"stateMutability": "nonpayable",
					"type": "function"
				},
				{
					"inputs": [
						{
							"internalType": "address",
							"name": "newOwner",
							"type": "address"
						}
					],
					"name": "transferOwnership",
					"outputs": [],
					"stateMutability": "nonpayable",
					"type": "function"
				},
				{
					"inputs": [
						{
							"internalType": "address",
							"name": "newFeeRecipient",
							"type": "address"
						}
					],
					"name": "updateFeeRecipient",
					"outputs": [],
					"stateMutability": "nonpayable",
					"type": "function"
				},
				{
					"inputs": [
						{
							"internalType": "string",
							"name": "raindropId",
							"type": "string"
						},
						{
							"internalType": "address[]",
							"name": "participants",
							"type": "address[]"
						}
					],
					"name": "updateParticipants",
					"outputs": [],
					"stateMutability": "nonpayable",
					"type": "function"
				},
				{
					"inputs": [
						{
							"internalType": "uint256",
							"name": "newFeeBps",
							"type": "uint256"
						}
					],
					"name": "updatePlatformFee",
					"outputs": [],
					"stateMutability": "nonpayable",
					"type": "function"
				}
			],
			"devdoc": {
				"details": "Smart contract for escrowing tokens and executing batch transfers for raindrops Solves multiple issues: 1. Funds are locked at scheduling time (no balance changes during 24h window) 2. Batch transfers in single transaction (gas optimization) 3. Atomic execution (all or nothing, or partial with rollback) 4. Participant limits and validation",
				"errors": {
					"OwnableInvalidOwner(address)": [
						{
							"details": "The owner is not a valid owner account. (eg. `address(0)`)"
						}
					],
					"OwnableUnauthorizedAccount(address)": [
						{
							"details": "The caller account is not authorized to perform an operation."
						}
					],
					"SafeERC20FailedOperation(address)": [
						{
							"details": "An operation with an ERC-20 token failed."
						}
					]
				},
				"kind": "dev",
				"methods": {
					"cancelRaindrop(string)": {
						"details": "Cancel a raindrop and refund tokens to host",
						"params": {
							"raindropId": "The raindrop to cancel"
						}
					},
					"createRaindrop(string,address,uint256,uint256)": {
						"details": "Create and fund a raindrop escrow",
						"params": {
							"raindropId": "Unique identifier for the raindrop",
							"scheduledTime": "When the raindrop should execute (timestamp)",
							"token": "Token address to distribute",
							"totalAmount": "Total amount to distribute"
						}
					},
					"emergencyRecoverToken(address,uint256)": {
						"details": "Emergency function to recover stuck tokens (only owner)"
					},
					"executeRaindrop(string)": {
						"details": "Execute the raindrop batch transfer",
						"params": {
							"raindropId": "The raindrop to execute"
						}
					},
					"getParticipants(string)": {
						"details": "Get participants list"
					},
					"getRaindropDetails(string)": {
						"details": "Get raindrop details"
					},
					"owner()": {
						"details": "Returns the address of the current owner."
					},
					"renounceOwnership()": {
						"details": "Leaves the contract without owner. It will not be possible to call `onlyOwner` functions. Can only be called by the current owner. NOTE: Renouncing ownership will leave the contract without an owner, thereby disabling any functionality that is only available to the owner."
					},
					"transferOwnership(address)": {
						"details": "Transfers ownership of the contract to a new account (`newOwner`). Can only be called by the current owner."
					},
					"updateFeeRecipient(address)": {
						"details": "Update fee recipient (only owner)"
					},
					"updateParticipants(string,address[])": {
						"details": "Update participants list (can be called multiple times before execution)",
						"params": {
							"participants": "Array of participant addresses",
							"raindropId": "The raindrop to update"
						}
					},
					"updatePlatformFee(uint256)": {
						"details": "Update platform fee (only owner)"
					}
				},
				"title": "RaindropEscrow",
				"version": 1
			},
			"evm": {
				"assembly": "    /* \"src/Contract Architecture/Core Infrastructure/RaindropEscrow.sol\":696:10498  contract RaindropEscrow is ReentrancyGuard, Ownable(msg.sender) {... */\n  0x80\n  jumpi(tag_7, callvalue)\n  0x1f\n  bytecodeSize\n  codesize\n  dup2\n  swap1\n  sub\n  swap2\n  dup3\n  add\n  not(0x1f)\n  and\n  dup4\n  add\n  swap2\n  sub(shl(0x40, 0x01), 0x01)\n  dup4\n  gt\n  dup5\n  dup5\n  lt\n  or\n  tag_3\n  jumpi\n  dup1\n  dup5\n  swap3\n  0x20\n  swap5\n  0x40\n  mstore\n  dup4\n  codecopy\n  dup2\n  add\n  sub\n  slt\n  tag_7\n  jumpi\n  mload\n  sub(shl(0xa0, 0x01), 0x01)\n  dup2\n  and\n  swap1\n  dup2\n  swap1\n  sub\n  tag_7\n  jumpi\n    /* \"@openzeppelin/contracts/security/ReentrancyGuard.sol\":1716:1717  1 */\n  0x01\n  0x00\n    /* \"src/Contract Architecture/Core Infrastructure/RaindropEscrow.sol\":696:10498  contract RaindropEscrow is ReentrancyGuard, Ownable(msg.sender) {... */\n  sstore\n    /* \"src/Contract Architecture/Core Infrastructure/RaindropEscrow.sol\":748:758  msg.sender */\n  caller\n    /* \"@openzeppelin/contracts/access/Ownable.sol\":1273:1299  initialOwner == address(0) */\n  iszero\n    /* \"@openzeppelin/contracts/access/Ownable.sol\":1269:1364  if (initialOwner == address(0)) {... */\n  tag_9\n  jumpi\n    /* \"@openzeppelin/contracts/security/ReentrancyGuard.sol\":1716:1717  1 */\n  0x01\n    /* \"src/Contract Architecture/Core Infrastructure/RaindropEscrow.sol\":696:10498  contract RaindropEscrow is ReentrancyGuard, Ownable(msg.sender) {... */\n  dup1\n  sload\n    /* \"src/Contract Architecture/Core Infrastructure/RaindropEscrow.sol\":748:758  msg.sender */\n  caller\n  not(sub(shl(0xa0, 0x01), 0x01))\n    /* \"src/Contract Architecture/Core Infrastructure/RaindropEscrow.sol\":696:10498  contract RaindropEscrow is ReentrancyGuard, Ownable(msg.sender) {... */\n  dup3\n  and\n  dup2\n  or\n  swap1\n  swap3\n  sstore\n  mload(0x40)\n  swap3\n  swap2\n    /* \"src/Contract Architecture/Core Infrastructure/RaindropEscrow.sol\":748:758  msg.sender */\n  swap1\n  sub(shl(0xa0, 0x01), 0x01)\n    /* \"src/Contract Architecture/Core Infrastructure/RaindropEscrow.sol\":696:10498  contract RaindropEscrow is ReentrancyGuard, Ownable(msg.sender) {... */\n  and\n    /* \"@openzeppelin/contracts/access/Ownable.sol\":3052:3092  OwnershipTransferred(oldOwner, newOwner) */\n  0x8be0079c531659141344cd1fd0a4f28419497f9722a3daafe3b4186f6b6457e0\n  0x00\n  dup1\n  log3\n    /* \"src/Contract Architecture/Core Infrastructure/RaindropEscrow.sol\":1146:1148  10 */\n  0x0a\n  0x02\n    /* \"src/Contract Architecture/Core Infrastructure/RaindropEscrow.sol\":696:10498  contract RaindropEscrow is ReentrancyGuard, Ownable(msg.sender) {... */\n  sstore\n    /* \"src/Contract Architecture/Core Infrastructure/RaindropEscrow.sol\":2263:2291  feeRecipient = _feeRecipient */\n  0x03\n    /* \"src/Contract Architecture/Core Infrastructure/RaindropEscrow.sol\":696:10498  contract RaindropEscrow is ReentrancyGuard, Ownable(msg.sender) {... */\n  dup1\n  sload\n  not(sub(shl(0xa0, 0x01), 0x01))\n  and\n  swap2\n  swap1\n  swap2\n  or\n  swap1\n  sstore\n  dataSize(sub_0)\n  swap1\n  dup2\n  dataOffset(sub_0)\n  dup3\n  codecopy\n  return\n    /* \"@openzeppelin/contracts/access/Ownable.sol\":1269:1364  if (initialOwner == address(0)) {... */\ntag_9:\n    /* \"@openzeppelin/contracts/access/Ownable.sol\":1322:1353  OwnableInvalidOwner(address(0)) */\n  mstore(0x00, shl(0xe0, 0x1e4fbdf7))\n  0x00\n  0x04\n    /* \"src/Contract Architecture/Core Infrastructure/RaindropEscrow.sol\":696:10498  contract RaindropEscrow is ReentrancyGuard, Ownable(msg.sender) {... */\n  mstore\n  0x24\n  0x00\n    /* \"@openzeppelin/contracts/access/Ownable.sol\":1322:1353  OwnableInvalidOwner(address(0)) */\n  revert\n    /* \"src/Contract Architecture/Core Infrastructure/RaindropEscrow.sol\":696:10498  contract RaindropEscrow is ReentrancyGuard, Ownable(msg.sender) {... */\ntag_7:\n  0x00\n  dup1\n  revert\ntag_3:\n  mstore(0x00, shl(0xe0, 0x4e487b71))\n  mstore(0x04, 0x41)\n  revert(0x00, 0x24)\nstop\n\nsub_0: assembly {\n        /* \"src/Contract Architecture/Core Infrastructure/RaindropEscrow.sol\":696:10498  contract RaindropEscrow is ReentrancyGuard, Ownable(msg.sender) {... */\n      mstore(0x40, 0x80)\n      jumpi(tag_19, iszero(lt(calldatasize, 0x04)))\n      0x00\n      dup1\n      revert\n    tag_19:\n      shr(0xe0, calldataload(0x00))\n      dup1\n      0x02749be7\n      eq\n      tag_21\n      jumpi\n      dup1\n      0x0d12cba2\n      eq\n      tag_23\n      jumpi\n      dup1\n      0x22dcd13e\n      eq\n      tag_25\n      jumpi\n      dup1\n      0x46904840\n      eq\n      tag_27\n      jumpi\n      dup1\n      0x4898ba63\n      eq\n      tag_29\n      jumpi\n      dup1\n      0x6b0db1fa\n      eq\n      tag_31\n      jumpi\n      dup1\n      0x715018a6\n      eq\n      tag_33\n      jumpi\n      dup1\n      0x72521d47\n      eq\n      tag_35\n      jumpi\n      dup1\n      0x79020194\n      eq\n      tag_37\n      jumpi\n      dup1\n      0x7e90def7\n      eq\n      tag_39\n      jumpi\n      dup1\n      0x8da5cb5b\n      eq\n      tag_41\n      jumpi\n      dup1\n      0x9a43dc0c\n      eq\n      tag_43\n      jumpi\n      dup1\n      0x9b0f14b5\n      eq\n      tag_45\n      jumpi\n      dup1\n      0xaa0b5988\n      eq\n      tag_47\n      jumpi\n      dup1\n      0xb28a9d6f\n      eq\n      tag_49\n      jumpi\n      dup1\n      0xf160d369\n      eq\n      tag_51\n      jumpi\n      dup1\n      0xf2fde38b\n      eq\n      tag_53\n      jumpi\n      0xf3baf070\n      eq\n      tag_55\n      jumpi\n      0x00\n      dup1\n      revert\n    tag_55:\n      jumpi(tag_59, callvalue)\n      jumpi(tag_59, slt(add(not(0x03), calldatasize), 0x00))\n      0x20\n      mload(0x40)\n        /* \"src/Contract Architecture/Core Infrastructure/RaindropEscrow.sol\":898:905  1000000 */\n      0x0f4240\n        /* \"src/Contract Architecture/Core Infrastructure/RaindropEscrow.sol\":696:10498  contract RaindropEscrow is ReentrancyGuard, Ownable(msg.sender) {... */\n      dup2\n      mstore\n      return\n    tag_59:\n      0x00\n      dup1\n      revert\n    tag_53:\n      jumpi(tag_59, callvalue)\n      jumpi(tag_59, slt(add(not(0x03), calldatasize), 0x20))\n      tag_65\n      tag_2\n      jump\t// in\n    tag_65:\n        /* \"@openzeppelin/contracts/access/Ownable.sol\":1500:1562  modifier onlyOwner() {... */\n      tag_66\n      tag_16\n      jump\t// in\n    tag_66:\n      sub(shl(0xa0, 0x01), 0x01)\n        /* \"src/Contract Architecture/Core Infrastructure/RaindropEscrow.sol\":696:10498  contract RaindropEscrow is ReentrancyGuard, Ownable(msg.sender) {... */\n      and\n        /* \"@openzeppelin/contracts/access/Ownable.sol\":2627:2649  newOwner == address(0) */\n      dup1\n      iszero\n        /* \"@openzeppelin/contracts/access/Ownable.sol\":2623:2714  if (newOwner == address(0)) {... */\n      tag_67\n      jumpi\n        /* \"@openzeppelin/contracts/access/Ownable.sol\":3004:3010  _owner */\n      0x01\n        /* \"src/Contract Architecture/Core Infrastructure/RaindropEscrow.sol\":696:10498  contract RaindropEscrow is ReentrancyGuard, Ownable(msg.sender) {... */\n      dup1\n      sload\n      not(sub(shl(0xa0, 0x01), 0x01))\n      dup2\n      and\n      dup4\n      or\n      swap1\n      swap2\n      sstore\n      sub(shl(0xa0, 0x01), 0x01)\n      and\n        /* \"@openzeppelin/contracts/access/Ownable.sol\":3052:3092  OwnershipTransferred(oldOwner, newOwner) */\n      0x8be0079c531659141344cd1fd0a4f28419497f9722a3daafe3b4186f6b6457e0\n      0x00\n      dup1\n      log3\n        /* \"src/Contract Architecture/Core Infrastructure/RaindropEscrow.sol\":696:10498  contract RaindropEscrow is ReentrancyGuard, Ownable(msg.sender) {... */\n      stop\n        /* \"@openzeppelin/contracts/access/Ownable.sol\":2623:2714  if (newOwner == address(0)) {... */\n    tag_67:\n        /* \"@openzeppelin/contracts/access/Ownable.sol\":2672:2703  OwnableInvalidOwner(address(0)) */\n      shl(0xe0, 0x1e4fbdf7)\n        /* \"src/Contract Architecture/Core Infrastructure/RaindropEscrow.sol\":696:10498  contract RaindropEscrow is ReentrancyGuard, Ownable(msg.sender) {... */\n      0x00\n        /* \"@openzeppelin/contracts/access/Ownable.sol\":2672:2703  OwnableInvalidOwner(address(0)) */\n      mstore\n        /* \"src/Contract Architecture/Core Infrastructure/RaindropEscrow.sol\":696:10498  contract RaindropEscrow is ReentrancyGuard, Ownable(msg.sender) {... */\n      mstore(0x04, 0x00)\n      0x24\n      0x00\n        /* \"@openzeppelin/contracts/access/Ownable.sol\":2672:2703  OwnableInvalidOwner(address(0)) */\n      revert\n        /* \"src/Contract Architecture/Core Infrastructure/RaindropEscrow.sol\":696:10498  contract RaindropEscrow is ReentrancyGuard, Ownable(msg.sender) {... */\n    tag_51:\n      jumpi(tag_59, callvalue)\n      jumpi(tag_59, slt(add(not(0x03), calldatasize), 0x20))\n      tag_73\n      tag_2\n      jump\t// in\n    tag_73:\n        /* \"@openzeppelin/contracts/access/Ownable.sol\":1500:1562  modifier onlyOwner() {... */\n      tag_74\n      tag_16\n      jump\t// in\n    tag_74:\n      sub(shl(0xa0, 0x01), 0x01)\n        /* \"src/Contract Architecture/Core Infrastructure/RaindropEscrow.sol\":696:10498  contract RaindropEscrow is ReentrancyGuard, Ownable(msg.sender) {... */\n      and\n        /* \"src/Contract Architecture/Core Infrastructure/RaindropEscrow.sol\":10169:10198  newFeeRecipient != address(0) */\n      dup1\n      iszero\n        /* \"src/Contract Architecture/Core Infrastructure/RaindropEscrow.sol\":696:10498  contract RaindropEscrow is ReentrancyGuard, Ownable(msg.sender) {... */\n      tag_75\n      jumpi\n      shl(0xa0, 0xffffffffffffffffffffffff)\n        /* \"src/Contract Architecture/Core Infrastructure/RaindropEscrow.sol\":10228:10258  feeRecipient = newFeeRecipient */\n      0x03\n        /* \"src/Contract Architecture/Core Infrastructure/RaindropEscrow.sol\":696:10498  contract RaindropEscrow is ReentrancyGuard, Ownable(msg.sender) {... */\n      sload\n      and\n      or\n        /* \"src/Contract Architecture/Core Infrastructure/RaindropEscrow.sol\":10228:10258  feeRecipient = newFeeRecipient */\n      0x03\n        /* \"src/Contract Architecture/Core Infrastructure/RaindropEscrow.sol\":696:10498  contract RaindropEscrow is ReentrancyGuard, Ownable(msg.sender) {... */\n      sstore\n      0x00\n      dup1\n      return\n    tag_75:\n      mload(0x40)\n      shl(0xe5, 0x461bcd)\n      dup2\n      mstore\n      0x20\n      0x04\n      dup3\n      add\n      mstore\n      0x0f\n      0x24\n      dup3\n      add\n      mstore\n      shl(0x88, 0x496e76616c69642061646472657373)\n      0x44\n      dup3\n      add\n      mstore\n      0x64\n      swap1\n      revert\n    tag_49:\n      jumpi(tag_59, callvalue)\n      0x20\n      dup1\n      tag_79\n      calldatasize\n      tag_4\n      jump\t// in\n    tag_79:\n      mload(0x40)\n      swap3\n      dup2\n      dup5\n      swap3\n      mload\n      swap2\n      dup3\n      swap2\n      add\n      dup4\n      mcopy\n      dup2\n      add\n      0x04\n      dup2\n      mstore\n      sub\n      add\n      swap1\n      keccak256\n      mload(0x40)\n      swap1\n      0x00\n      swap2\n      dup2\n      sload\n      tag_80\n      dup2\n      tag_5\n      jump\t// in\n    tag_80:\n      dup1\n      dup4\n      mstore\n      0x20\n      dup4\n      add\n      swap2\n      0x01\n      dup2\n      and\n      swap1\n      dup2\n      iszero\n      tag_81\n      jumpi\n      pop\n      0x01\n      eq\n      tag_83\n      jumpi\n    tag_84:\n      pop\n      tag_85\n      dup3\n      0x0120\n      swap5\n      swap6\n      sub\n      dup4\n      tag_3\n      jump\t// in\n    tag_85:\n      0x01\n      dup1\n      0xa0\n      shl\n      sub\n      0x01\n        /* \"src/Contract Architecture/Core Infrastructure/RaindropEscrow.sol\":1512:1556  mapping(string => Raindrop) public raindrops */\n      dup6\n      add\n        /* \"src/Contract Architecture/Core Infrastructure/RaindropEscrow.sol\":696:10498  contract RaindropEscrow is ReentrancyGuard, Ownable(msg.sender) {... */\n      sload\n      and\n      swap4\n      0xff\n      0x01\n      dup1\n      0xa0\n      shl\n      sub\n        /* \"src/Contract Architecture/Core Infrastructure/RaindropEscrow.sol\":1512:1556  mapping(string => Raindrop) public raindrops */\n      0x02\n      dup4\n      add\n        /* \"src/Contract Architecture/Core Infrastructure/RaindropEscrow.sol\":696:10498  contract RaindropEscrow is ReentrancyGuard, Ownable(msg.sender) {... */\n      sload\n      and\n        /* \"src/Contract Architecture/Core Infrastructure/RaindropEscrow.sol\":1512:1556  mapping(string => Raindrop) public raindrops */\n      swap2\n      0x03\n      dup2\n      add\n        /* \"src/Contract Architecture/Core Infrastructure/RaindropEscrow.sol\":696:10498  contract RaindropEscrow is ReentrancyGuard, Ownable(msg.sender) {... */\n      sload\n      0x04\n        /* \"src/Contract Architecture/Core Infrastructure/RaindropEscrow.sol\":1512:1556  mapping(string => Raindrop) public raindrops */\n      dup3\n      add\n        /* \"src/Contract Architecture/Core Infrastructure/RaindropEscrow.sol\":696:10498  contract RaindropEscrow is ReentrancyGuard, Ownable(msg.sender) {... */\n      sload\n        /* \"src/Contract Architecture/Core Infrastructure/RaindropEscrow.sol\":1512:1556  mapping(string => Raindrop) public raindrops */\n      swap1\n      0x06\n      0x05\n      dup5\n      add\n        /* \"src/Contract Architecture/Core Infrastructure/RaindropEscrow.sol\":696:10498  contract RaindropEscrow is ReentrancyGuard, Ownable(msg.sender) {... */\n      sload\n        /* \"src/Contract Architecture/Core Infrastructure/RaindropEscrow.sol\":1512:1556  mapping(string => Raindrop) public raindrops */\n      swap4\n      add\n        /* \"src/Contract Architecture/Core Infrastructure/RaindropEscrow.sol\":696:10498  contract RaindropEscrow is ReentrancyGuard, Ownable(msg.sender) {... */\n      sload\n      swap5\n      mload(0x40)\n      swap10\n      dup11\n      swap9\n      0x0100\n      dup11\n      mstore\n      mload\n      dup1\n      swap9\n      dup2\n      0x0100\n      dup13\n      add\n      mstore\n      dup12\n      dup12\n      add\n      mcopy\n      0x00\n      dup10\n      dup10\n      add\n      dup12\n      add\n      mstore\n      0x20\n      dup10\n      add\n      mstore\n      0x40\n      dup9\n      add\n      mstore\n      0x60\n      dup8\n      add\n      mstore\n      0x80\n      dup7\n      add\n      mstore\n      dup1\n      dup3\n      and\n      iszero\n      iszero\n      0xa0\n      dup7\n      add\n      mstore\n      0x08\n      shr\n      and\n      iszero\n      iszero\n      0xc0\n      dup5\n      add\n      mstore\n      0xe0\n      dup4\n      add\n      mstore\n      0x1f\n      add\n      not(0x1f)\n      and\n      dup2\n      add\n      sub\n      add\n      swap1\n      return\n    tag_83:\n      swap4\n      pop\n      dup3\n      0x00\n      mstore\n      keccak256(0x00, 0x20)\n      0x00\n      swap1\n    tag_86:\n      dup6\n      dup3\n      lt\n      tag_87\n      jumpi\n      pop\n      dup3\n      add\n      0x20\n      add\n      swap4\n      pop\n      tag_85\n      jump(tag_84)\n    tag_87:\n      0x01\n      dup2\n      0x20\n      swap3\n      sload\n      dup4\n      dup6\n      dup9\n      add\n      add\n      mstore\n      add\n      swap2\n      add\n      swap1\n      jump(tag_86)\n    tag_81:\n      not(0xff)\n      and\n      dup4\n      mstore\n      pop\n      iszero\n      iszero\n      0x05\n      shl\n      dup3\n      add\n      0x20\n      add\n      swap4\n      pop\n      tag_85\n      jump(tag_84)\n    tag_47:\n      jumpi(tag_59, callvalue)\n      jumpi(tag_59, slt(add(not(0x03), calldatasize), 0x20))\n      calldataload(0x04)\n        /* \"@openzeppelin/contracts/access/Ownable.sol\":1500:1562  modifier onlyOwner() {... */\n      tag_93\n      tag_16\n      jump\t// in\n    tag_93:\n        /* \"src/Contract Architecture/Core Infrastructure/RaindropEscrow.sol\":9938:9941  100 */\n      0x64\n        /* \"src/Contract Architecture/Core Infrastructure/RaindropEscrow.sol\":9925:9941  newFeeBps <= 100 */\n      dup2\n      gt\n        /* \"src/Contract Architecture/Core Infrastructure/RaindropEscrow.sol\":696:10498  contract RaindropEscrow is ReentrancyGuard, Ownable(msg.sender) {... */\n      tag_94\n      jumpi\n        /* \"src/Contract Architecture/Core Infrastructure/RaindropEscrow.sol\":9978:10004  platformFeeBps = newFeeBps */\n      0x02\n        /* \"src/Contract Architecture/Core Infrastructure/RaindropEscrow.sol\":696:10498  contract RaindropEscrow is ReentrancyGuard, Ownable(msg.sender) {... */\n      sstore\n      stop\n    tag_94:\n      mload(0x40)\n      shl(0xe5, 0x461bcd)\n      dup2\n      mstore\n      0x20\n      0x04\n      dup3\n      add\n      mstore\n      0x0c\n      0x24\n      dup3\n      add\n      mstore\n      shl(0xa3, 0x08ccaca40e8dede40d0d2ced)\n      0x44\n      dup3\n      add\n      mstore\n        /* \"src/Contract Architecture/Core Infrastructure/RaindropEscrow.sol\":9938:9941  100 */\n      0x64\n      swap1\n        /* \"src/Contract Architecture/Core Infrastructure/RaindropEscrow.sol\":696:10498  contract RaindropEscrow is ReentrancyGuard, Ownable(msg.sender) {... */\n      revert\n    tag_45:\n      jumpi(tag_59, callvalue)\n      jumpi(tag_59, slt(add(not(0x03), calldatasize), 0x20))\n      calldataload(0x04)\n      sub(shl(0x40, 0x01), 0x01)\n      dup2\n      gt\n      tag_59\n      jumpi\n      tag_102\n      swap1\n      calldatasize\n      swap1\n      0x04\n      add\n      tag_1\n      jump\t// in\n    tag_102:\n        /* \"@openzeppelin/contracts/security/ReentrancyGuard.sol\":2227:2330  modifier nonReentrant() {... */\n      swap1\n      tag_103\n      tag_15\n      jump\t// in\n    tag_103:\n        /* \"src/Contract Architecture/Core Infrastructure/RaindropEscrow.sol\":8075:8137  require(raindropExists[raindropId], \"Raindrop does not exist\") */\n      tag_104\n        /* \"src/Contract Architecture/Core Infrastructure/RaindropEscrow.sol\":696:10498  contract RaindropEscrow is ReentrancyGuard, Ownable(msg.sender) {... */\n      0xff\n      mload(0x40)\n      dup5\n      dup5\n      dup3\n      calldatacopy\n      0x20\n      dup2\n      dup7\n      dup2\n      add\n        /* \"src/Contract Architecture/Core Infrastructure/RaindropEscrow.sol\":8083:8097  raindropExists */\n      0x05\n        /* \"src/Contract Architecture/Core Infrastructure/RaindropEscrow.sol\":696:10498  contract RaindropEscrow is ReentrancyGuard, Ownable(msg.sender) {... */\n      dup2\n      mstore\n      sub\n      add\n      swap1\n      keccak256\n      sload\n      and\n        /* \"src/Contract Architecture/Core Infrastructure/RaindropEscrow.sol\":8075:8137  require(raindropExists[raindropId], \"Raindrop does not exist\") */\n      tag_7\n      jump\t// in\n    tag_104:\n        /* \"src/Contract Architecture/Core Infrastructure/RaindropEscrow.sol\":696:10498  contract RaindropEscrow is ReentrancyGuard, Ownable(msg.sender) {... */\n      mload(0x40)\n      dup3\n      dup3\n      dup3\n      calldatacopy\n      0x04\n      dup4\n      dup3\n      add\n      swap1\n      dup2\n      mstore\n      dup2\n      swap1\n      sub\n      0x20\n      add\n      swap1\n      keccak256\n        /* \"src/Contract Architecture/Core Infrastructure/RaindropEscrow.sol\":8237:8250  raindrop.host */\n      0x01\n      dup2\n      add\n        /* \"src/Contract Architecture/Core Infrastructure/RaindropEscrow.sol\":696:10498  contract RaindropEscrow is ReentrancyGuard, Ownable(msg.sender) {... */\n      dup1\n      sload\n      sub(shl(0xa0, 0x01), 0x01)\n      and\n      swap4\n        /* \"src/Contract Architecture/Core Infrastructure/RaindropEscrow.sol\":8223:8233  msg.sender */\n      caller\n        /* \"src/Contract Architecture/Core Infrastructure/RaindropEscrow.sol\":8223:8250  msg.sender == raindrop.host */\n      dup6\n      eq\n        /* \"src/Contract Architecture/Core Infrastructure/RaindropEscrow.sol\":8223:8275  msg.sender == raindrop.host || msg.sender == owner() */\n      dup1\n      iszero\n      tag_105\n      jumpi\n        /* \"src/Contract Architecture/Core Infrastructure/RaindropEscrow.sol\":696:10498  contract RaindropEscrow is ReentrancyGuard, Ownable(msg.sender) {... */\n    tag_106:\n        /* \"src/Contract Architecture/Core Infrastructure/RaindropEscrow.sol\":8215:8294  require(msg.sender == raindrop.host || msg.sender == owner(), \"Not authorized\") */\n      tag_107\n      swap1\n      tag_8\n      jump\t// in\n    tag_107:\n        /* \"src/Contract Architecture/Core Infrastructure/RaindropEscrow.sol\":8083:8097  raindropExists */\n      0x05\n        /* \"src/Contract Architecture/Core Infrastructure/RaindropEscrow.sol\":8313:8330  raindrop.executed */\n      dup4\n      add\n        /* \"src/Contract Architecture/Core Infrastructure/RaindropEscrow.sol\":696:10498  contract RaindropEscrow is ReentrancyGuard, Ownable(msg.sender) {... */\n      swap2\n      dup3\n      sload\n        /* \"src/Contract Architecture/Core Infrastructure/RaindropEscrow.sol\":8304:8360  require(!raindrop.executed, \"Raindrop already executed\") */\n      tag_108\n        /* \"src/Contract Architecture/Core Infrastructure/RaindropEscrow.sol\":696:10498  contract RaindropEscrow is ReentrancyGuard, Ownable(msg.sender) {... */\n      0xff\n      dup3\n      and\n        /* \"src/Contract Architecture/Core Infrastructure/RaindropEscrow.sol\":8312:8330  !raindrop.executed */\n      iszero\n        /* \"src/Contract Architecture/Core Infrastructure/RaindropEscrow.sol\":8304:8360  require(!raindrop.executed, \"Raindrop already executed\") */\n      tag_9\n      jump\t// in\n    tag_108:\n        /* \"src/Contract Architecture/Core Infrastructure/RaindropEscrow.sol\":696:10498  contract RaindropEscrow is ReentrancyGuard, Ownable(msg.sender) {... */\n      0xff\n      dup2\n      0x08\n      shr\n      and\n      tag_109\n      jumpi\n        /* \"src/Contract Architecture/Core Infrastructure/RaindropEscrow.sol\":8596:8662  RaindropCancelled(raindropId, raindrop.host, raindrop.totalAmount) */\n      0x16b1484adf14ddc11ad828089c5f7ac1932ae15cac0fd6100804b92746616b04\n        /* \"src/Contract Architecture/Core Infrastructure/RaindropEscrow.sol\":696:10498  contract RaindropEscrow is ReentrancyGuard, Ownable(msg.sender) {... */\n      swap5\n      0x20\n      swap5\n      0x0100\n        /* \"src/Contract Architecture/Core Infrastructure/RaindropEscrow.sol\":8559:8579  raindrop.totalAmount */\n      tag_111\n        /* \"src/Contract Architecture/Core Infrastructure/RaindropEscrow.sol\":696:10498  contract RaindropEscrow is ReentrancyGuard, Ownable(msg.sender) {... */\n      swap4\n      not(0xff00)\n      and\n      or\n      swap1\n      sstore\n        /* \"src/Contract Architecture/Core Infrastructure/RaindropEscrow.sol\":8559:8579  raindrop.totalAmount */\n      0x03\n        /* \"src/Contract Architecture/Core Infrastructure/RaindropEscrow.sol\":696:10498  contract RaindropEscrow is ReentrancyGuard, Ownable(msg.sender) {... */\n      0x01\n      dup1\n      0xa0\n      shl\n      sub\n        /* \"src/Contract Architecture/Core Infrastructure/RaindropEscrow.sol\":8515:8529  raindrop.token */\n      0x02\n      dup4\n      add\n        /* \"src/Contract Architecture/Core Infrastructure/RaindropEscrow.sol\":696:10498  contract RaindropEscrow is ReentrancyGuard, Ownable(msg.sender) {... */\n      sload\n      and\n        /* \"src/Contract Architecture/Core Infrastructure/RaindropEscrow.sol\":8559:8579  raindrop.totalAmount */\n      swap2\n      add\n        /* \"src/Contract Architecture/Core Infrastructure/RaindropEscrow.sol\":696:10498  contract RaindropEscrow is ReentrancyGuard, Ownable(msg.sender) {... */\n      swap8\n      dup9\n      sload\n        /* \"src/Contract Architecture/Core Infrastructure/RaindropEscrow.sol\":8559:8579  raindrop.totalAmount */\n      swap2\n      tag_17\n      jump\t// in\n    tag_111:\n        /* \"src/Contract Architecture/Core Infrastructure/RaindropEscrow.sol\":696:10498  contract RaindropEscrow is ReentrancyGuard, Ownable(msg.sender) {... */\n      0x01\n      dup1\n      0xa0\n      shl\n      sub\n      swap1\n      sload\n      and\n      swap5\n      sload\n        /* \"src/Contract Architecture/Core Infrastructure/RaindropEscrow.sol\":8596:8662  RaindropCancelled(raindropId, raindrop.host, raindrop.totalAmount) */\n      swap4\n        /* \"src/Contract Architecture/Core Infrastructure/RaindropEscrow.sol\":696:10498  contract RaindropEscrow is ReentrancyGuard, Ownable(msg.sender) {... */\n      dup2\n      mload(0x40)\n      swap3\n      dup4\n      swap3\n      dup4\n      calldatacopy\n      dup2\n      add\n      0x00\n      dup2\n      mstore\n      sub\n      swap1\n      keccak256\n      swap3\n      mload(0x40)\n      swap1\n      dup2\n      mstore\n        /* \"src/Contract Architecture/Core Infrastructure/RaindropEscrow.sol\":8596:8662  RaindropCancelled(raindropId, raindrop.host, raindrop.totalAmount) */\n      log3\n        /* \"src/Contract Architecture/Core Infrastructure/RaindropEscrow.sol\":8237:8250  raindrop.host */\n      0x01\n        /* \"src/Contract Architecture/Core Infrastructure/RaindropEscrow.sol\":696:10498  contract RaindropEscrow is ReentrancyGuard, Ownable(msg.sender) {... */\n      0x00\n      sstore\n      stop\n    tag_109:\n      mload(0x40)\n      shl(0xe5, 0x461bcd)\n      dup2\n      mstore\n      0x20\n      0x04\n      dup3\n      add\n      mstore\n      0x1a\n      0x24\n      dup3\n      add\n      mstore\n      0x5261696e64726f7020616c72656164792063616e63656c6c6564000000000000\n      0x44\n      dup3\n      add\n      mstore\n      0x64\n      swap1\n      revert\n        /* \"src/Contract Architecture/Core Infrastructure/RaindropEscrow.sol\":8223:8275  msg.sender == raindrop.host || msg.sender == owner() */\n    tag_105:\n      pop\n        /* \"src/Contract Architecture/Core Infrastructure/RaindropEscrow.sol\":696:10498  contract RaindropEscrow is ReentrancyGuard, Ownable(msg.sender) {... */\n      and(sub(shl(0xa0, 0x01), 0x01), sload(0x01))\n        /* \"src/Contract Architecture/Core Infrastructure/RaindropEscrow.sol\":8223:8233  msg.sender */\n      caller\n        /* \"src/Contract Architecture/Core Infrastructure/RaindropEscrow.sol\":8254:8275  msg.sender == owner() */\n      eq\n        /* \"src/Contract Architecture/Core Infrastructure/RaindropEscrow.sol\":8223:8275  msg.sender == raindrop.host || msg.sender == owner() */\n      jump(tag_106)\n        /* \"src/Contract Architecture/Core Infrastructure/RaindropEscrow.sol\":696:10498  contract RaindropEscrow is ReentrancyGuard, Ownable(msg.sender) {... */\n    tag_43:\n      jumpi(tag_59, callvalue)\n      jumpi(tag_59, slt(add(not(0x03), calldatasize), 0x20))\n      calldataload(0x04)\n      sub(shl(0x40, 0x01), 0x01)\n      dup2\n      gt\n      tag_59\n      jumpi\n      tag_118\n      swap1\n      calldatasize\n      swap1\n      0x04\n      add\n      tag_1\n      jump\t// in\n    tag_118:\n        /* \"@openzeppelin/contracts/security/ReentrancyGuard.sol\":2227:2330  modifier nonReentrant() {... */\n      tag_119\n      tag_15\n      jump\t// in\n    tag_119:\n        /* \"src/Contract Architecture/Core Infrastructure/RaindropEscrow.sol\":5957:6019  require(raindropExists[raindropId], \"Raindrop does not exist\") */\n      tag_120\n        /* \"src/Contract Architecture/Core Infrastructure/RaindropEscrow.sol\":696:10498  contract RaindropEscrow is ReentrancyGuard, Ownable(msg.sender) {... */\n      0xff\n      mload(0x40)\n      dup4\n      dup6\n      dup3\n      calldatacopy\n      0x20\n      dup2\n      dup6\n      dup2\n      add\n        /* \"src/Contract Architecture/Core Infrastructure/RaindropEscrow.sol\":5965:5979  raindropExists */\n      0x05\n        /* \"src/Contract Architecture/Core Infrastructure/RaindropEscrow.sol\":696:10498  contract RaindropEscrow is ReentrancyGuard, Ownable(msg.sender) {... */\n      dup2\n      mstore\n      sub\n      add\n      swap1\n      keccak256\n      sload\n      and\n        /* \"src/Contract Architecture/Core Infrastructure/RaindropEscrow.sol\":5957:6019  require(raindropExists[raindropId], \"Raindrop does not exist\") */\n      tag_7\n      jump\t// in\n    tag_120:\n        /* \"src/Contract Architecture/Core Infrastructure/RaindropEscrow.sol\":696:10498  contract RaindropEscrow is ReentrancyGuard, Ownable(msg.sender) {... */\n      mload(0x40)\n      dup2\n      dup4\n      dup3\n      calldatacopy\n      0x20\n      dup2\n      dup4\n      dup2\n      add\n      0x04\n      dup2\n      mstore\n      sub\n      add\n      swap1\n      keccak256\n        /* \"src/Contract Architecture/Core Infrastructure/RaindropEscrow.sol\":6119:6132  raindrop.host */\n      swap1\n      0x01\n      dup3\n      add\n        /* \"src/Contract Architecture/Core Infrastructure/RaindropEscrow.sol\":696:10498  contract RaindropEscrow is ReentrancyGuard, Ownable(msg.sender) {... */\n      swap1\n      0x01\n      dup1\n      0xa0\n      shl\n      sub\n      dup3\n      sload\n      and\n        /* \"src/Contract Architecture/Core Infrastructure/RaindropEscrow.sol\":6105:6115  msg.sender */\n      caller\n        /* \"src/Contract Architecture/Core Infrastructure/RaindropEscrow.sol\":6105:6132  msg.sender == raindrop.host */\n      eq\n        /* \"src/Contract Architecture/Core Infrastructure/RaindropEscrow.sol\":6105:6157  msg.sender == raindrop.host || msg.sender == owner() */\n      dup1\n      iszero\n      tag_121\n      jumpi\n        /* \"src/Contract Architecture/Core Infrastructure/RaindropEscrow.sol\":696:10498  contract RaindropEscrow is ReentrancyGuard, Ownable(msg.sender) {... */\n    tag_122:\n        /* \"src/Contract Architecture/Core Infrastructure/RaindropEscrow.sol\":6097:6176  require(msg.sender == raindrop.host || msg.sender == owner(), \"Not authorized\") */\n      tag_123\n      swap1\n      tag_8\n      jump\t// in\n    tag_123:\n        /* \"src/Contract Architecture/Core Infrastructure/RaindropEscrow.sol\":5965:5979  raindropExists */\n      0x05\n        /* \"src/Contract Architecture/Core Infrastructure/RaindropEscrow.sol\":6195:6212  raindrop.executed */\n      dup4\n      add\n        /* \"src/Contract Architecture/Core Infrastructure/RaindropEscrow.sol\":696:10498  contract RaindropEscrow is ReentrancyGuard, Ownable(msg.sender) {... */\n      swap4\n      dup5\n      sload\n      swap5\n        /* \"src/Contract Architecture/Core Infrastructure/RaindropEscrow.sol\":6186:6242  require(!raindrop.executed, \"Raindrop already executed\") */\n      tag_124\n        /* \"src/Contract Architecture/Core Infrastructure/RaindropEscrow.sol\":696:10498  contract RaindropEscrow is ReentrancyGuard, Ownable(msg.sender) {... */\n      0xff\n      dup8\n      and\n        /* \"src/Contract Architecture/Core Infrastructure/RaindropEscrow.sol\":6194:6212  !raindrop.executed */\n      iszero\n        /* \"src/Contract Architecture/Core Infrastructure/RaindropEscrow.sol\":6186:6242  require(!raindrop.executed, \"Raindrop already executed\") */\n      tag_9\n      jump\t// in\n    tag_124:\n        /* \"src/Contract Architecture/Core Infrastructure/RaindropEscrow.sol\":6252:6302  require(!raindrop.cancelled, \"Raindrop cancelled\") */\n      tag_125\n        /* \"src/Contract Architecture/Core Infrastructure/RaindropEscrow.sol\":696:10498  contract RaindropEscrow is ReentrancyGuard, Ownable(msg.sender) {... */\n      0xff\n      dup8\n      0x08\n      shr\n      and\n        /* \"src/Contract Architecture/Core Infrastructure/RaindropEscrow.sol\":6260:6279  !raindrop.cancelled */\n      iszero\n        /* \"src/Contract Architecture/Core Infrastructure/RaindropEscrow.sol\":6252:6302  require(!raindrop.cancelled, \"Raindrop cancelled\") */\n      tag_10\n      jump\t// in\n    tag_125:\n        /* \"src/Contract Architecture/Core Infrastructure/RaindropEscrow.sol\":696:10498  contract RaindropEscrow is ReentrancyGuard, Ownable(msg.sender) {... */\n      0x04\n        /* \"src/Contract Architecture/Core Infrastructure/RaindropEscrow.sol\":6339:6361  raindrop.scheduledTime */\n      dup6\n      add\n        /* \"src/Contract Architecture/Core Infrastructure/RaindropEscrow.sol\":696:10498  contract RaindropEscrow is ReentrancyGuard, Ownable(msg.sender) {... */\n      sload\n        /* \"src/Contract Architecture/Core Infrastructure/RaindropEscrow.sol\":6320:6335  block.timestamp */\n      timestamp\n        /* \"src/Contract Architecture/Core Infrastructure/RaindropEscrow.sol\":6320:6361  block.timestamp >= raindrop.scheduledTime */\n      lt\n        /* \"src/Contract Architecture/Core Infrastructure/RaindropEscrow.sol\":696:10498  contract RaindropEscrow is ReentrancyGuard, Ownable(msg.sender) {... */\n      tag_126\n      jumpi\n        /* \"src/Contract Architecture/Core Infrastructure/RaindropEscrow.sol\":6404:6429  raindrop.participantCount */\n      0x06\n      dup6\n      add\n        /* \"src/Contract Architecture/Core Infrastructure/RaindropEscrow.sol\":696:10498  contract RaindropEscrow is ReentrancyGuard, Ownable(msg.sender) {... */\n      swap1\n      dup2\n      sload\n        /* \"src/Contract Architecture/Core Infrastructure/RaindropEscrow.sol\":6404:6433  raindrop.participantCount > 0 */\n      swap7\n      dup8\n      iszero\n        /* \"src/Contract Architecture/Core Infrastructure/RaindropEscrow.sol\":696:10498  contract RaindropEscrow is ReentrancyGuard, Ownable(msg.sender) {... */\n      tag_128\n      jumpi\n        /* \"src/Contract Architecture/Core Infrastructure/RaindropEscrow.sol\":6119:6132  raindrop.host */\n      0x01\n        /* \"src/Contract Architecture/Core Infrastructure/RaindropEscrow.sol\":696:10498  contract RaindropEscrow is ReentrancyGuard, Ownable(msg.sender) {... */\n      swap1\n      0xff\n      swap8\n      swap6\n      swap8\n      not\n      and\n      or\n      swap1\n      sstore\n        /* \"src/Contract Architecture/Core Infrastructure/RaindropEscrow.sol\":6801:6821  raindrop.totalAmount */\n      0x03\n      dup4\n      add\n        /* \"src/Contract Architecture/Core Infrastructure/RaindropEscrow.sol\":696:10498  contract RaindropEscrow is ReentrancyGuard, Ownable(msg.sender) {... */\n      sload\n      swap5\n        /* \"src/Contract Architecture/Core Infrastructure/RaindropEscrow.sol\":6884:6918  raindrop.totalAmount - platformFee */\n      tag_130\n        /* \"src/Contract Architecture/Core Infrastructure/RaindropEscrow.sol\":6842:6847  10000 */\n      0x2710\n        /* \"src/Contract Architecture/Core Infrastructure/RaindropEscrow.sol\":6801:6838  raindrop.totalAmount * platformFeeBps */\n      tag_131\n        /* \"src/Contract Architecture/Core Infrastructure/RaindropEscrow.sol\":6824:6838  platformFeeBps */\n      0x02\n        /* \"src/Contract Architecture/Core Infrastructure/RaindropEscrow.sol\":696:10498  contract RaindropEscrow is ReentrancyGuard, Ownable(msg.sender) {... */\n      sload\n        /* \"src/Contract Architecture/Core Infrastructure/RaindropEscrow.sol\":6801:6838  raindrop.totalAmount * platformFeeBps */\n      dup10\n      tag_12\n      jump\t// in\n    tag_131:\n        /* \"src/Contract Architecture/Core Infrastructure/RaindropEscrow.sol\":696:10498  contract RaindropEscrow is ReentrancyGuard, Ownable(msg.sender) {... */\n      div\n        /* \"src/Contract Architecture/Core Infrastructure/RaindropEscrow.sol\":6884:6918  raindrop.totalAmount - platformFee */\n      dup1\n      swap8\n      tag_14\n      jump\t// in\n    tag_130:\n        /* \"src/Contract Architecture/Core Infrastructure/RaindropEscrow.sol\":6958:7003  totalToDistribute / raindrop.participantCount */\n      swap2\n        /* \"src/Contract Architecture/Core Infrastructure/RaindropEscrow.sol\":7107:7138  totalToDistribute - distributed */\n      tag_132\n        /* \"src/Contract Architecture/Core Infrastructure/RaindropEscrow.sol\":7031:7079  amountPerParticipant * raindrop.participantCount */\n      tag_133\n        /* \"src/Contract Architecture/Core Infrastructure/RaindropEscrow.sol\":6958:7003  totalToDistribute / raindrop.participantCount */\n      tag_134\n      dup11\n      dup7\n      tag_13\n      jump\t// in\n    tag_134:\n        /* \"src/Contract Architecture/Core Infrastructure/RaindropEscrow.sol\":7031:7079  amountPerParticipant * raindrop.participantCount */\n      swap10\n      dup11\n      tag_12\n      jump\t// in\n    tag_133:\n        /* \"src/Contract Architecture/Core Infrastructure/RaindropEscrow.sol\":7107:7138  totalToDistribute - distributed */\n      dup5\n      tag_14\n      jump\t// in\n    tag_132:\n        /* \"src/Contract Architecture/Core Infrastructure/RaindropEscrow.sol\":6824:6838  platformFeeBps */\n      0x02\n        /* \"src/Contract Architecture/Core Infrastructure/RaindropEscrow.sol\":7171:7185  raindrop.token */\n      dup7\n      add\n        /* \"src/Contract Architecture/Core Infrastructure/RaindropEscrow.sol\":696:10498  contract RaindropEscrow is ReentrancyGuard, Ownable(msg.sender) {... */\n      sload\n      sub(shl(0xa0, 0x01), 0x01)\n      and\n      swap7\n      0x08\n        /* \"src/Contract Architecture/Core Infrastructure/RaindropEscrow.sol\":7335:7359  raindrop.participantList */\n      swap1\n      swap7\n      add\n      swap6\n        /* \"src/Contract Architecture/Core Infrastructure/RaindropEscrow.sol\":696:10498  contract RaindropEscrow is ReentrancyGuard, Ownable(msg.sender) {... */\n      swap1\n      0x00\n        /* \"src/Contract Architecture/Core Infrastructure/RaindropEscrow.sol\":7294:7297  i++ */\n    tag_135:\n        /* \"src/Contract Architecture/Core Infrastructure/RaindropEscrow.sol\":696:10498  contract RaindropEscrow is ReentrancyGuard, Ownable(msg.sender) {... */\n      dup4\n      sload\n        /* \"src/Contract Architecture/Core Infrastructure/RaindropEscrow.sol\":7263:7292  i < raindrop.participantCount */\n      dup2\n      lt\n      iszero\n      tag_136\n      jumpi\n        /* \"src/Contract Architecture/Core Infrastructure/RaindropEscrow.sol\":7335:7362  raindrop.participantList[i] */\n      dup1\n        /* \"src/Contract Architecture/Core Infrastructure/RaindropEscrow.sol\":7408:7428  amountPerParticipant */\n      tag_138\n        /* \"src/Contract Architecture/Core Infrastructure/RaindropEscrow.sol\":7335:7362  raindrop.participantList[i] */\n      dup13\n      tag_139\n        /* \"src/Contract Architecture/Core Infrastructure/RaindropEscrow.sol\":6119:6132  raindrop.host */\n      0x01\n        /* \"src/Contract Architecture/Core Infrastructure/RaindropEscrow.sol\":7335:7362  raindrop.participantList[i] */\n      swap5\n      dup13\n      tag_11\n      jump\t// in\n    tag_139:\n        /* \"src/Contract Architecture/Core Infrastructure/RaindropEscrow.sol\":696:10498  contract RaindropEscrow is ReentrancyGuard, Ownable(msg.sender) {... */\n      dup6\n      dup1\n      0xa0\n      shl\n      sub\n      swap2\n      sload\n      swap1\n        /* \"src/Contract Architecture/Core Infrastructure/RaindropEscrow.sol\":6801:6821  raindrop.totalAmount */\n      0x03\n        /* \"src/Contract Architecture/Core Infrastructure/RaindropEscrow.sol\":696:10498  contract RaindropEscrow is ReentrancyGuard, Ownable(msg.sender) {... */\n      shl\n      shr\n      and\n        /* \"src/Contract Architecture/Core Infrastructure/RaindropEscrow.sol\":7408:7428  amountPerParticipant */\n      dup13\n      tag_17\n      jump\t// in\n    tag_138:\n        /* \"src/Contract Architecture/Core Infrastructure/RaindropEscrow.sol\":696:10498  contract RaindropEscrow is ReentrancyGuard, Ownable(msg.sender) {... */\n      add\n        /* \"src/Contract Architecture/Core Infrastructure/RaindropEscrow.sol\":7248:7261  uint256 i = 0 */\n      jump(tag_135)\n        /* \"src/Contract Architecture/Core Infrastructure/RaindropEscrow.sol\":7263:7292  i < raindrop.participantCount */\n    tag_136:\n      pop\n        /* \"src/Contract Architecture/Core Infrastructure/RaindropEscrow.sol\":696:10498  contract RaindropEscrow is ReentrancyGuard, Ownable(msg.sender) {... */\n      0x60\n        /* \"src/Contract Architecture/Core Infrastructure/RaindropEscrow.sol\":7263:7292  i < raindrop.participantCount */\n      swap7\n      pop\n        /* \"src/Contract Architecture/Core Infrastructure/RaindropEscrow.sol\":7762:7858  RaindropExecuted(raindropId, raindrop.participantCount, amountPerParticipant, totalToDistribute) */\n      0xe56eba28928c6808ff8d65117cc1d7ba272e42f06114b621406245fe7e42fff2\n        /* \"src/Contract Architecture/Core Infrastructure/RaindropEscrow.sol\":7263:7292  i < raindrop.participantCount */\n      swap8\n      dup11\n      swap10\n        /* \"src/Contract Architecture/Core Infrastructure/RaindropEscrow.sol\":7487:7502  platformFee > 0 */\n      dup1\n        /* \"src/Contract Architecture/Core Infrastructure/RaindropEscrow.sol\":7483:7574  if (platformFee > 0) {... */\n      tag_140\n      jumpi\n        /* \"src/Contract Architecture/Core Infrastructure/RaindropEscrow.sol\":7243:7440  for (uint256 i = 0; i < raindrop.participantCount; i++) {... */\n    tag_141:\n        /* \"src/Contract Architecture/Core Infrastructure/RaindropEscrow.sol\":7651:7670  remainingAmount > 0 */\n      pop\n      dup2\n        /* \"src/Contract Architecture/Core Infrastructure/RaindropEscrow.sol\":7647:7747  if (remainingAmount > 0) {... */\n      tag_142\n      jumpi\n        /* \"src/Contract Architecture/Core Infrastructure/RaindropEscrow.sol\":7243:7440  for (uint256 i = 0; i < raindrop.participantCount; i++) {... */\n    tag_143:\n        /* \"src/Contract Architecture/Core Infrastructure/RaindropEscrow.sol\":696:10498  contract RaindropEscrow is ReentrancyGuard, Ownable(msg.sender) {... */\n      pop\n      pop\n      pop\n      sload\n        /* \"src/Contract Architecture/Core Infrastructure/RaindropEscrow.sol\":7762:7858  RaindropExecuted(raindropId, raindrop.participantCount, amountPerParticipant, totalToDistribute) */\n      swap3\n        /* \"src/Contract Architecture/Core Infrastructure/RaindropEscrow.sol\":696:10498  contract RaindropEscrow is ReentrancyGuard, Ownable(msg.sender) {... */\n      dup2\n      mload(0x40)\n      swap3\n      dup4\n      swap3\n      dup4\n      calldatacopy\n      dup2\n      add\n      0x00\n      dup2\n      mstore\n      sub\n      swap1\n      keccak256\n      swap5\n      mload(0x40)\n      swap3\n      dup4\n      mstore\n      0x20\n      dup4\n      add\n      mstore\n      0x40\n      dup3\n      add\n      mstore\n        /* \"src/Contract Architecture/Core Infrastructure/RaindropEscrow.sol\":7762:7858  RaindropExecuted(raindropId, raindrop.participantCount, amountPerParticipant, totalToDistribute) */\n      log2\n        /* \"src/Contract Architecture/Core Infrastructure/RaindropEscrow.sol\":6119:6132  raindrop.host */\n      0x01\n        /* \"src/Contract Architecture/Core Infrastructure/RaindropEscrow.sol\":696:10498  contract RaindropEscrow is ReentrancyGuard, Ownable(msg.sender) {... */\n      0x00\n      sstore\n      stop\n        /* \"src/Contract Architecture/Core Infrastructure/RaindropEscrow.sol\":7647:7747  if (remainingAmount > 0) {... */\n    tag_142:\n        /* \"src/Contract Architecture/Core Infrastructure/RaindropEscrow.sol\":696:10498  contract RaindropEscrow is ReentrancyGuard, Ownable(msg.sender) {... */\n      swap2\n      sload\n        /* \"src/Contract Architecture/Core Infrastructure/RaindropEscrow.sol\":7720:7735  remainingAmount */\n      tag_144\n      swap3\n      sub(shl(0xa0, 0x01), 0x01)\n        /* \"src/Contract Architecture/Core Infrastructure/RaindropEscrow.sol\":696:10498  contract RaindropEscrow is ReentrancyGuard, Ownable(msg.sender) {... */\n      swap1\n      swap2\n      and\n      swap1\n        /* \"src/Contract Architecture/Core Infrastructure/RaindropEscrow.sol\":7720:7735  remainingAmount */\n      tag_17\n      jump\t// in\n    tag_144:\n        /* \"src/Contract Architecture/Core Infrastructure/RaindropEscrow.sol\":7647:7747  if (remainingAmount > 0) {... */\n      dup8\n      dup1\n      dup1\n      jump(tag_143)\n        /* \"src/Contract Architecture/Core Infrastructure/RaindropEscrow.sol\":7483:7574  if (platformFee > 0) {... */\n    tag_140:\n        /* \"src/Contract Architecture/Core Infrastructure/RaindropEscrow.sol\":6801:6821  raindrop.totalAmount */\n      0x03\n        /* \"src/Contract Architecture/Core Infrastructure/RaindropEscrow.sol\":696:10498  contract RaindropEscrow is ReentrancyGuard, Ownable(msg.sender) {... */\n      sload\n        /* \"src/Contract Architecture/Core Infrastructure/RaindropEscrow.sol\":7551:7562  platformFee */\n      tag_145\n      swap2\n        /* \"src/Contract Architecture/Core Infrastructure/RaindropEscrow.sol\":696:10498  contract RaindropEscrow is ReentrancyGuard, Ownable(msg.sender) {... */\n      swap1\n      sub(shl(0xa0, 0x01), 0x01)\n      and\n        /* \"src/Contract Architecture/Core Infrastructure/RaindropEscrow.sol\":7551:7562  platformFee */\n      dup4\n      tag_17\n      jump\t// in\n    tag_145:\n        /* \"src/Contract Architecture/Core Infrastructure/RaindropEscrow.sol\":7483:7574  if (platformFee > 0) {... */\n      dup11\n      jump(tag_141)\n        /* \"src/Contract Architecture/Core Infrastructure/RaindropEscrow.sol\":696:10498  contract RaindropEscrow is ReentrancyGuard, Ownable(msg.sender) {... */\n    tag_128:\n      mload(0x40)\n      shl(0xe5, 0x461bcd)\n      dup2\n      mstore\n      0x20\n      0x04\n      dup3\n      add\n      mstore\n      0x0f\n      0x24\n      dup3\n      add\n      mstore\n      shl(0x88, 0x4e6f207061727469636970616e7473)\n      0x44\n      dup3\n      add\n      mstore\n      0x64\n      swap1\n      revert\n    tag_126:\n      mload(0x40)\n      shl(0xe5, 0x461bcd)\n      dup2\n      mstore\n      0x20\n      0x04\n      dup3\n      add\n      mstore\n      0x14\n      0x24\n      dup3\n      add\n      mstore\n      shl(0x60, 0x546f6f206561726c7920746f2065786563757465)\n      0x44\n      dup3\n      add\n      mstore\n      0x64\n      swap1\n      revert\n        /* \"src/Contract Architecture/Core Infrastructure/RaindropEscrow.sol\":6105:6157  msg.sender == raindrop.host || msg.sender == owner() */\n    tag_121:\n      pop\n        /* \"src/Contract Architecture/Core Infrastructure/RaindropEscrow.sol\":696:10498  contract RaindropEscrow is ReentrancyGuard, Ownable(msg.sender) {... */\n      and(sub(shl(0xa0, 0x01), 0x01), sload(0x01))\n        /* \"src/Contract Architecture/Core Infrastructure/RaindropEscrow.sol\":6105:6115  msg.sender */\n      caller\n        /* \"src/Contract Architecture/Core Infrastructure/RaindropEscrow.sol\":6136:6157  msg.sender == owner() */\n      eq\n        /* \"src/Contract Architecture/Core Infrastructure/RaindropEscrow.sol\":6105:6157  msg.sender == raindrop.host || msg.sender == owner() */\n      jump(tag_122)\n        /* \"src/Contract Architecture/Core Infrastructure/RaindropEscrow.sol\":696:10498  contract RaindropEscrow is ReentrancyGuard, Ownable(msg.sender) {... */\n    tag_41:\n      jumpi(tag_59, callvalue)\n      jumpi(tag_59, slt(add(not(0x03), calldatasize), 0x00))\n      sload(0x01)\n      mload(0x40)\n      sub(shl(0xa0, 0x01), 0x01)\n      swap1\n      swap2\n      and\n      dup2\n      mstore\n      0x20\n      swap1\n      return\n    tag_39:\n      jumpi(tag_59, callvalue)\n      jumpi(tag_59, slt(add(not(0x03), calldatasize), 0x20))\n      calldataload(0x04)\n      sub(shl(0x40, 0x01), 0x01)\n      dup2\n      gt\n      tag_59\n      jumpi\n      0x20\n      tag_156\n        /* \"src/Contract Architecture/Core Infrastructure/RaindropEscrow.sol\":9731:9768  raindrops[raindropId].participantList */\n      0x08\n        /* \"src/Contract Architecture/Core Infrastructure/RaindropEscrow.sol\":696:10498  contract RaindropEscrow is ReentrancyGuard, Ownable(msg.sender) {... */\n      swap3\n      calldatasize\n      swap1\n      0x04\n      add\n      tag_1\n      jump\t// in\n    tag_156:\n      swap2\n      swap1\n        /* \"src/Contract Architecture/Core Infrastructure/RaindropEscrow.sol\":9652:9714  require(raindropExists[raindropId], \"Raindrop does not exist\") */\n      tag_157\n        /* \"src/Contract Architecture/Core Infrastructure/RaindropEscrow.sol\":696:10498  contract RaindropEscrow is ReentrancyGuard, Ownable(msg.sender) {... */\n      0xff\n      mload(0x40)\n      dup6\n      dup5\n      dup3\n      calldatacopy\n      dup5\n      dup2\n      dup8\n      dup2\n      add\n        /* \"src/Contract Architecture/Core Infrastructure/RaindropEscrow.sol\":9660:9674  raindropExists */\n      0x05\n        /* \"src/Contract Architecture/Core Infrastructure/RaindropEscrow.sol\":696:10498  contract RaindropEscrow is ReentrancyGuard, Ownable(msg.sender) {... */\n      dup2\n      mstore\n      sub\n      add\n      swap1\n      keccak256\n      sload\n      and\n        /* \"src/Contract Architecture/Core Infrastructure/RaindropEscrow.sol\":9652:9714  require(raindropExists[raindropId], \"Raindrop does not exist\") */\n      tag_7\n      jump\t// in\n    tag_157:\n        /* \"src/Contract Architecture/Core Infrastructure/RaindropEscrow.sol\":696:10498  contract RaindropEscrow is ReentrancyGuard, Ownable(msg.sender) {... */\n      dup3\n      mload(0x40)\n      swap4\n      dup5\n      swap3\n      dup4\n      calldatacopy\n      dup2\n      add\n      0x04\n      dup2\n      mstore\n      sub\n      add\n      swap1\n      keccak256\n        /* \"src/Contract Architecture/Core Infrastructure/RaindropEscrow.sol\":9731:9768  raindrops[raindropId].participantList */\n      add\n        /* \"src/Contract Architecture/Core Infrastructure/RaindropEscrow.sol\":696:10498  contract RaindropEscrow is ReentrancyGuard, Ownable(msg.sender) {... */\n      mload(0x40)\n      dup1\n      0x20\n      dup4\n      sload\n      swap2\n      dup3\n      dup2\n      mstore\n      add\n      swap1\n      dup2\n      swap4\n      0x00\n      mstore\n      keccak256(0x00, 0x20)\n      swap1\n      0x00\n    tag_158:\n      dup2\n      dup2\n      lt\n      tag_159\n      jumpi\n      pop\n      pop\n      pop\n      dup2\n      tag_161\n      swap2\n      sub\n      dup3\n      tag_3\n      jump\t// in\n    tag_161:\n      mload(0x40)\n      swap2\n      dup3\n      swap2\n      0x20\n      dup4\n      add\n      swap1\n      0x20\n      dup5\n      mstore\n      mload\n      dup1\n      swap2\n      mstore\n      0x40\n      dup4\n      add\n      swap2\n      swap1\n      0x00\n    tag_162:\n      dup2\n      dup2\n      lt\n      tag_163\n      jumpi\n      pop\n      pop\n      pop\n      sub\n      swap1\n      return\n    tag_163:\n      dup3\n      mload\n      sub(shl(0xa0, 0x01), 0x01)\n      and\n      dup5\n      mstore\n      dup6\n      swap5\n      pop\n      0x20\n      swap4\n      dup5\n      add\n      swap4\n      swap1\n      swap3\n      add\n      swap2\n      0x01\n      add\n      jump(tag_162)\n    tag_159:\n      dup3\n      sload\n      sub(shl(0xa0, 0x01), 0x01)\n      and\n      dup5\n      mstore\n      0x20\n      swap1\n      swap4\n      add\n      swap3\n      0x01\n      swap3\n      dup4\n      add\n      swap3\n      add\n      jump(tag_158)\n    tag_37:\n      jumpi(tag_59, callvalue)\n      jumpi(tag_59, slt(add(not(0x03), calldatasize), 0x40))\n        /* \"src/Contract Architecture/Core Infrastructure/RaindropEscrow.sol\":10482:10488  amount */\n      tag_169\n        /* \"src/Contract Architecture/Core Infrastructure/RaindropEscrow.sol\":696:10498  contract RaindropEscrow is ReentrancyGuard, Ownable(msg.sender) {... */\n      tag_170\n      tag_2\n      jump\t// in\n    tag_170:\n        /* \"@openzeppelin/contracts/access/Ownable.sol\":1500:1562  modifier onlyOwner() {... */\n      tag_171\n      tag_16\n      jump\t// in\n    tag_171:\n        /* \"src/Contract Architecture/Core Infrastructure/RaindropEscrow.sol\":696:10498  contract RaindropEscrow is ReentrancyGuard, Ownable(msg.sender) {... */\n      sload(0x01)\n      calldataload(0x24)\n      swap2\n      sub(shl(0xa0, 0x01), 0x01)\n      swap2\n      dup3\n      and\n      swap2\n      and\n        /* \"src/Contract Architecture/Core Infrastructure/RaindropEscrow.sol\":10482:10488  amount */\n      tag_17\n      jump\t// in\n    tag_169:\n        /* \"src/Contract Architecture/Core Infrastructure/RaindropEscrow.sol\":696:10498  contract RaindropEscrow is ReentrancyGuard, Ownable(msg.sender) {... */\n      stop\n    tag_35:\n      jumpi(tag_59, callvalue)\n      jumpi(tag_59, slt(add(not(0x03), calldatasize), 0x20))\n      calldataload(0x04)\n      sub(shl(0x40, 0x01), 0x01)\n      dup2\n      gt\n      tag_59\n      jumpi\n      0x20\n      tag_178\n      0xe0\n      swap3\n      calldatasize\n      swap1\n      0x04\n      add\n      tag_1\n      jump\t// in\n    tag_178:\n      swap2\n      swap1\n        /* \"src/Contract Architecture/Core Infrastructure/RaindropEscrow.sol\":9069:9131  require(raindropExists[raindropId], \"Raindrop does not exist\") */\n      tag_179\n        /* \"src/Contract Architecture/Core Infrastructure/RaindropEscrow.sol\":696:10498  contract RaindropEscrow is ReentrancyGuard, Ownable(msg.sender) {... */\n      0xff\n      mload(0x40)\n      dup6\n      dup5\n      dup3\n      calldatacopy\n      dup5\n      dup2\n      dup8\n      dup2\n      add\n        /* \"src/Contract Architecture/Core Infrastructure/RaindropEscrow.sol\":9077:9091  raindropExists */\n      0x05\n        /* \"src/Contract Architecture/Core Infrastructure/RaindropEscrow.sol\":696:10498  contract RaindropEscrow is ReentrancyGuard, Ownable(msg.sender) {... */\n      dup2\n      mstore\n      sub\n      add\n      swap1\n      keccak256\n      sload\n      and\n        /* \"src/Contract Architecture/Core Infrastructure/RaindropEscrow.sol\":9069:9131  require(raindropExists[raindropId], \"Raindrop does not exist\") */\n      tag_7\n      jump\t// in\n    tag_179:\n        /* \"src/Contract Architecture/Core Infrastructure/RaindropEscrow.sol\":696:10498  contract RaindropEscrow is ReentrancyGuard, Ownable(msg.sender) {... */\n      dup3\n      mload(0x40)\n      swap4\n      dup5\n      swap3\n      dup4\n      calldatacopy\n      dup2\n      add\n      0x04\n      dup2\n      mstore\n      sub\n      add\n      swap1\n      keccak256\n      0x01\n      dup1\n      0xa0\n      shl\n      sub\n        /* \"src/Contract Architecture/Core Infrastructure/RaindropEscrow.sol\":9230:9243  raindrop.host */\n      0x01\n      dup3\n      add\n        /* \"src/Contract Architecture/Core Infrastructure/RaindropEscrow.sol\":696:10498  contract RaindropEscrow is ReentrancyGuard, Ownable(msg.sender) {... */\n      sload\n      and\n      swap1\n      0xff\n      0x01\n      dup1\n      0xa0\n      shl\n      sub\n        /* \"src/Contract Architecture/Core Infrastructure/RaindropEscrow.sol\":9257:9271  raindrop.token */\n      0x02\n      dup4\n      add\n        /* \"src/Contract Architecture/Core Infrastructure/RaindropEscrow.sol\":696:10498  contract RaindropEscrow is ReentrancyGuard, Ownable(msg.sender) {... */\n      sload\n      and\n        /* \"src/Contract Architecture/Core Infrastructure/RaindropEscrow.sol\":9285:9305  raindrop.totalAmount */\n      swap2\n      0x03\n      dup2\n      add\n        /* \"src/Contract Architecture/Core Infrastructure/RaindropEscrow.sol\":696:10498  contract RaindropEscrow is ReentrancyGuard, Ownable(msg.sender) {... */\n      sload\n      0x04\n        /* \"src/Contract Architecture/Core Infrastructure/RaindropEscrow.sol\":9319:9341  raindrop.scheduledTime */\n      dup3\n      add\n        /* \"src/Contract Architecture/Core Infrastructure/RaindropEscrow.sol\":696:10498  contract RaindropEscrow is ReentrancyGuard, Ownable(msg.sender) {... */\n      sload\n        /* \"src/Contract Architecture/Core Infrastructure/RaindropEscrow.sol\":9355:9372  raindrop.executed */\n      swap1\n        /* \"src/Contract Architecture/Core Infrastructure/RaindropEscrow.sol\":9418:9443  raindrop.participantCount */\n      0x06\n        /* \"src/Contract Architecture/Core Infrastructure/RaindropEscrow.sol\":9077:9091  raindropExists */\n      0x05\n        /* \"src/Contract Architecture/Core Infrastructure/RaindropEscrow.sol\":9355:9372  raindrop.executed */\n      dup5\n      add\n        /* \"src/Contract Architecture/Core Infrastructure/RaindropEscrow.sol\":696:10498  contract RaindropEscrow is ReentrancyGuard, Ownable(msg.sender) {... */\n      sload\n        /* \"src/Contract Architecture/Core Infrastructure/RaindropEscrow.sol\":9418:9443  raindrop.participantCount */\n      swap4\n      add\n        /* \"src/Contract Architecture/Core Infrastructure/RaindropEscrow.sol\":696:10498  contract RaindropEscrow is ReentrancyGuard, Ownable(msg.sender) {... */\n      sload\n      swap5\n      mload(0x40)\n      swap7\n      dup8\n      mstore\n      0x20\n      dup8\n      add\n      mstore\n      0x40\n      dup7\n      add\n      mstore\n      0x60\n      dup6\n      add\n      mstore\n      dup2\n      dup2\n      and\n      iszero\n      iszero\n      0x80\n      dup6\n      add\n      mstore\n      0x08\n      shr\n      and\n      iszero\n      iszero\n      0xa0\n      dup4\n      add\n      mstore\n      0xc0\n      dup3\n      add\n      mstore\n      return\n    tag_33:\n      jumpi(tag_59, callvalue)\n      jumpi(tag_59, slt(add(not(0x03), calldatasize), 0x00))\n        /* \"@openzeppelin/contracts/access/Ownable.sol\":1500:1562  modifier onlyOwner() {... */\n      tag_184\n      tag_16\n      jump\t// in\n    tag_184:\n        /* \"@openzeppelin/contracts/access/Ownable.sol\":3004:3010  _owner */\n      0x01\n        /* \"src/Contract Architecture/Core Infrastructure/RaindropEscrow.sol\":696:10498  contract RaindropEscrow is ReentrancyGuard, Ownable(msg.sender) {... */\n      dup1\n      sload\n      not(sub(shl(0xa0, 0x01), 0x01))\n      dup2\n      and\n      swap1\n      swap2\n      sstore\n      0x00\n      swap1\n      sub(shl(0xa0, 0x01), 0x01)\n      and\n        /* \"@openzeppelin/contracts/access/Ownable.sol\":3052:3092  OwnershipTransferred(oldOwner, newOwner) */\n      0x8be0079c531659141344cd1fd0a4f28419497f9722a3daafe3b4186f6b6457e0\n        /* \"src/Contract Architecture/Core Infrastructure/RaindropEscrow.sol\":696:10498  contract RaindropEscrow is ReentrancyGuard, Ownable(msg.sender) {... */\n      dup3\n      dup1\n        /* \"@openzeppelin/contracts/access/Ownable.sol\":3052:3092  OwnershipTransferred(oldOwner, newOwner) */\n      log3\n        /* \"src/Contract Architecture/Core Infrastructure/RaindropEscrow.sol\":696:10498  contract RaindropEscrow is ReentrancyGuard, Ownable(msg.sender) {... */\n      stop\n    tag_31:\n      jumpi(tag_59, callvalue)\n      jumpi(tag_59, slt(add(not(0x03), calldatasize), 0x40))\n      calldataload(0x04)\n      sub(shl(0x40, 0x01), 0x01)\n      dup2\n      gt\n      tag_59\n      jumpi\n      tag_191\n      swap1\n      calldatasize\n      swap1\n      0x04\n      add\n      tag_1\n      jump\t// in\n    tag_191:\n      swap1\n      calldataload(0x24)\n      swap1\n      sub(shl(0x40, 0x01), 0x01)\n      dup3\n      gt\n      tag_59\n      jumpi\n      calldatasize\n      0x23\n      dup4\n      add\n      slt\n      iszero\n      tag_59\n      jumpi\n      dup2\n      0x04\n      add\n      calldataload\n      sub(shl(0x40, 0x01), 0x01)\n      dup2\n      gt\n      tag_59\n      jumpi\n      calldatasize\n      0x24\n      dup3\n      0x05\n      shl\n      dup6\n      add\n      add\n      gt\n      tag_59\n      jumpi\n        /* \"src/Contract Architecture/Core Infrastructure/RaindropEscrow.sol\":4095:4157  require(raindropExists[raindropId], \"Raindrop does not exist\") */\n      tag_200\n        /* \"src/Contract Architecture/Core Infrastructure/RaindropEscrow.sol\":696:10498  contract RaindropEscrow is ReentrancyGuard, Ownable(msg.sender) {... */\n      0xff\n      mload(0x40)\n      dup7\n      dup6\n      dup3\n      calldatacopy\n      0x20\n      dup2\n      dup9\n      dup2\n      add\n      0x05\n      dup2\n      mstore\n      sub\n      add\n      swap1\n      keccak256\n      sload\n      and\n        /* \"src/Contract Architecture/Core Infrastructure/RaindropEscrow.sol\":4095:4157  require(raindropExists[raindropId], \"Raindrop does not exist\") */\n      tag_7\n      jump\t// in\n    tag_200:\n        /* \"src/Contract Architecture/Core Infrastructure/RaindropEscrow.sol\":696:10498  contract RaindropEscrow is ReentrancyGuard, Ownable(msg.sender) {... */\n      mload(0x40)\n      dup5\n      dup4\n      dup3\n      calldatacopy\n      0x20\n      dup2\n      dup7\n      dup2\n      add\n      0x04\n      dup2\n      mstore\n      sub\n      add\n      swap1\n      keccak256\n        /* \"src/Contract Architecture/Core Infrastructure/RaindropEscrow.sol\":4257:4270  raindrop.host */\n      swap3\n      0x01\n      dup5\n      add\n        /* \"src/Contract Architecture/Core Infrastructure/RaindropEscrow.sol\":696:10498  contract RaindropEscrow is ReentrancyGuard, Ownable(msg.sender) {... */\n      swap1\n      0x01\n      dup1\n      0xa0\n      shl\n      sub\n      dup3\n      sload\n      and\n        /* \"src/Contract Architecture/Core Infrastructure/RaindropEscrow.sol\":4243:4253  msg.sender */\n      caller\n        /* \"src/Contract Architecture/Core Infrastructure/RaindropEscrow.sol\":4243:4270  msg.sender == raindrop.host */\n      eq\n        /* \"src/Contract Architecture/Core Infrastructure/RaindropEscrow.sol\":4243:4295  msg.sender == raindrop.host || msg.sender == owner() */\n      dup1\n      iszero\n      tag_201\n      jumpi\n        /* \"src/Contract Architecture/Core Infrastructure/RaindropEscrow.sol\":696:10498  contract RaindropEscrow is ReentrancyGuard, Ownable(msg.sender) {... */\n    tag_202:\n        /* \"src/Contract Architecture/Core Infrastructure/RaindropEscrow.sol\":4235:4314  require(msg.sender == raindrop.host || msg.sender == owner(), \"Not authorized\") */\n      tag_203\n      swap1\n      tag_8\n      jump\t// in\n    tag_203:\n        /* \"src/Contract Architecture/Core Infrastructure/RaindropEscrow.sol\":4390:4440  require(!raindrop.cancelled, \"Raindrop cancelled\") */\n      tag_204\n        /* \"src/Contract Architecture/Core Infrastructure/RaindropEscrow.sol\":696:10498  contract RaindropEscrow is ReentrancyGuard, Ownable(msg.sender) {... */\n      0xff\n      0x05\n        /* \"src/Contract Architecture/Core Infrastructure/RaindropEscrow.sol\":4333:4350  raindrop.executed */\n      dup8\n      add\n        /* \"src/Contract Architecture/Core Infrastructure/RaindropEscrow.sol\":696:10498  contract RaindropEscrow is ReentrancyGuard, Ownable(msg.sender) {... */\n      sload\n        /* \"src/Contract Architecture/Core Infrastructure/RaindropEscrow.sol\":4324:4380  require(!raindrop.executed, \"Raindrop already executed\") */\n      tag_205\n        /* \"src/Contract Architecture/Core Infrastructure/RaindropEscrow.sol\":696:10498  contract RaindropEscrow is ReentrancyGuard, Ownable(msg.sender) {... */\n      dup3\n      dup3\n      and\n        /* \"src/Contract Architecture/Core Infrastructure/RaindropEscrow.sol\":4332:4350  !raindrop.executed */\n      iszero\n        /* \"src/Contract Architecture/Core Infrastructure/RaindropEscrow.sol\":4324:4380  require(!raindrop.executed, \"Raindrop already executed\") */\n      tag_9\n      jump\t// in\n    tag_205:\n        /* \"src/Contract Architecture/Core Infrastructure/RaindropEscrow.sol\":696:10498  contract RaindropEscrow is ReentrancyGuard, Ownable(msg.sender) {... */\n      0x08\n      shr\n      and\n        /* \"src/Contract Architecture/Core Infrastructure/RaindropEscrow.sol\":4398:4417  !raindrop.cancelled */\n      iszero\n        /* \"src/Contract Architecture/Core Infrastructure/RaindropEscrow.sol\":4390:4440  require(!raindrop.cancelled, \"Raindrop cancelled\") */\n      tag_10\n      jump\t// in\n    tag_204:\n        /* \"src/Contract Architecture/Core Infrastructure/RaindropEscrow.sol\":898:905  1000000 */\n      0x0f4240\n        /* \"src/Contract Architecture/Core Infrastructure/RaindropEscrow.sol\":4458:4497  participants.length <= MAX_PARTICIPANTS */\n      dup4\n      gt\n        /* \"src/Contract Architecture/Core Infrastructure/RaindropEscrow.sol\":696:10498  contract RaindropEscrow is ReentrancyGuard, Ownable(msg.sender) {... */\n      tag_206\n      jumpi\n      0x08\n        /* \"src/Contract Architecture/Core Infrastructure/RaindropEscrow.sol\":4597:4621  raindrop.participantList */\n      dup6\n      add\n      swap6\n        /* \"src/Contract Architecture/Core Infrastructure/RaindropEscrow.sol\":4578:4591  uint256 i = 0 */\n      swap4\n      swap5\n        /* \"src/Contract Architecture/Core Infrastructure/RaindropEscrow.sol\":4649:4670  raindrop.participants */\n      0x07\n      dup2\n      add\n      swap5\n        /* \"src/Contract Architecture/Core Infrastructure/RaindropEscrow.sol\":696:10498  contract RaindropEscrow is ReentrancyGuard, Ownable(msg.sender) {... */\n      0x00\n        /* \"src/Contract Architecture/Core Infrastructure/RaindropEscrow.sol\":4630:4633  i++ */\n    tag_208:\n        /* \"src/Contract Architecture/Core Infrastructure/RaindropEscrow.sol\":696:10498  contract RaindropEscrow is ReentrancyGuard, Ownable(msg.sender) {... */\n      dup9\n      sload\n        /* \"src/Contract Architecture/Core Infrastructure/RaindropEscrow.sol\":4593:4628  i < raindrop.participantList.length */\n      dup2\n      lt\n      iszero\n      tag_209\n      jumpi\n        /* \"src/Contract Architecture/Core Infrastructure/RaindropEscrow.sol\":4671:4698  raindrop.participantList[i] */\n      dup1\n      tag_211\n        /* \"src/Contract Architecture/Core Infrastructure/RaindropEscrow.sol\":4257:4270  raindrop.host */\n      0x01\n        /* \"src/Contract Architecture/Core Infrastructure/RaindropEscrow.sol\":4671:4698  raindrop.participantList[i] */\n      swap3\n      dup12\n      tag_11\n      jump\t// in\n    tag_211:\n        /* \"src/Contract Architecture/Core Infrastructure/RaindropEscrow.sol\":696:10498  contract RaindropEscrow is ReentrancyGuard, Ownable(msg.sender) {... */\n      dup4\n      dup1\n      0xa0\n      shl\n      sub\n      swap2\n      sload\n      swap1\n      0x03\n      shl\n      shr\n      and\n      dup3\n      dup1\n      0xa0\n      shl\n      sub\n      and\n      0x00\n      mstore\n      dup8\n      0x20\n      mstore\n      keccak256(0x00, 0x40)\n      not(0xff)\n      dup2\n      sload\n      and\n      swap1\n      sstore\n      add\n        /* \"src/Contract Architecture/Core Infrastructure/RaindropEscrow.sol\":4578:4591  uint256 i = 0 */\n      jump(tag_208)\n        /* \"src/Contract Architecture/Core Infrastructure/RaindropEscrow.sol\":4593:4628  i < raindrop.participantList.length */\n    tag_209:\n      pop\n      swap1\n      swap2\n      swap3\n      swap5\n      swap4\n      swap6\n        /* \"src/Contract Architecture/Core Infrastructure/RaindropEscrow.sol\":696:10498  contract RaindropEscrow is ReentrancyGuard, Ownable(msg.sender) {... */\n      dup8\n      sload\n      0x00\n      dup10\n      sstore\n      dup1\n      tag_212\n      jumpi\n        /* \"src/Contract Architecture/Core Infrastructure/RaindropEscrow.sol\":4573:4718  for (uint256 i = 0; i < raindrop.participantList.length; i++) {... */\n    tag_213:\n        /* \"src/Contract Architecture/Core Infrastructure/RaindropEscrow.sol\":4806:4819  uint256 i = 0 */\n      pop\n        /* \"src/Contract Architecture/Core Infrastructure/RaindropEscrow.sol\":696:10498  contract RaindropEscrow is ReentrancyGuard, Ownable(msg.sender) {... */\n      0x00\n        /* \"src/Contract Architecture/Core Infrastructure/RaindropEscrow.sol\":4846:4849  i++ */\n    tag_214:\n        /* \"src/Contract Architecture/Core Infrastructure/RaindropEscrow.sol\":4821:4844  i < participants.length */\n      dup8\n      dup2\n      lt\n      iszero\n      tag_215\n      jumpi\n        /* \"src/Contract Architecture/Core Infrastructure/RaindropEscrow.sol\":696:10498  contract RaindropEscrow is ReentrancyGuard, Ownable(msg.sender) {... */\n      0x24\n      0x05\n      dup3\n      swap1\n      shl\n      dup7\n      add\n      add\n      calldataload\n      sub(shl(0xa0, 0x01), 0x01)\n      dup2\n      and\n      swap2\n      swap1\n      dup3\n      swap1\n      sub\n      tag_59\n      jumpi\n        /* \"src/Contract Architecture/Core Infrastructure/RaindropEscrow.sol\":4924:4949  participant != address(0) */\n      dup2\n      iszero\n        /* \"src/Contract Architecture/Core Infrastructure/RaindropEscrow.sol\":696:10498  contract RaindropEscrow is ReentrancyGuard, Ownable(msg.sender) {... */\n      tag_219\n      jumpi\n      dup8\n      sload\n      sub(shl(0xa0, 0x01), 0x01)\n      and\n        /* \"src/Contract Architecture/Core Infrastructure/RaindropEscrow.sol\":5003:5031  participant != raindrop.host */\n      dup3\n      eq\n        /* \"src/Contract Architecture/Core Infrastructure/RaindropEscrow.sol\":696:10498  contract RaindropEscrow is ReentrancyGuard, Ownable(msg.sender) {... */\n      tag_221\n      jumpi\n      dup2\n      0x00\n      mstore\n      dup7\n      0x20\n      mstore\n      and(sload(keccak256(0x00, 0x40)), 0xff)\n        /* \"src/Contract Architecture/Core Infrastructure/RaindropEscrow.sol\":5093:5128  !raindrop.participants[participant] */\n      iszero\n        /* \"src/Contract Architecture/Core Infrastructure/RaindropEscrow.sol\":5089:5264  if (!raindrop.participants[participant]) {... */\n      tag_223\n      jumpi\n        /* \"src/Contract Architecture/Core Infrastructure/RaindropEscrow.sol\":4846:4849  i++ */\n    tag_224:\n        /* \"src/Contract Architecture/Core Infrastructure/RaindropEscrow.sol\":4257:4270  raindrop.host */\n      0x01\n        /* \"src/Contract Architecture/Core Infrastructure/RaindropEscrow.sol\":4846:4849  i++ */\n      swap2\n      pop\n        /* \"src/Contract Architecture/Core Infrastructure/RaindropEscrow.sol\":696:10498  contract RaindropEscrow is ReentrancyGuard, Ownable(msg.sender) {... */\n      add\n        /* \"src/Contract Architecture/Core Infrastructure/RaindropEscrow.sol\":4806:4819  uint256 i = 0 */\n      jump(tag_214)\n        /* \"src/Contract Architecture/Core Infrastructure/RaindropEscrow.sol\":5089:5264  if (!raindrop.participants[participant]) {... */\n    tag_223:\n        /* \"src/Contract Architecture/Core Infrastructure/RaindropEscrow.sol\":696:10498  contract RaindropEscrow is ReentrancyGuard, Ownable(msg.sender) {... */\n      dup2\n      0x00\n      mstore\n      dup7\n      0x20\n      mstore\n      keccak256(0x00, 0x40)\n        /* \"src/Contract Architecture/Core Infrastructure/RaindropEscrow.sol\":4257:4270  raindrop.host */\n      0x01\n        /* \"src/Contract Architecture/Core Infrastructure/RaindropEscrow.sol\":696:10498  contract RaindropEscrow is ReentrancyGuard, Ownable(msg.sender) {... */\n      not(0xff)\n      dup3\n      sload\n      and\n      or\n      swap1\n      sstore\n      dup10\n      sload\n      swap2\n      0x010000000000000000\n      dup4\n      lt\n      iszero\n      tag_225\n      jumpi\n      tag_227\n      dup4\n        /* \"src/Contract Architecture/Core Infrastructure/RaindropEscrow.sol\":4257:4270  raindrop.host */\n      0x01\n        /* \"src/Contract Architecture/Core Infrastructure/RaindropEscrow.sol\":696:10498  contract RaindropEscrow is ReentrancyGuard, Ownable(msg.sender) {... */\n      dup1\n      swap6\n      add\n      dup14\n      sstore\n      dup13\n      tag_11\n      jump\t// in\n    tag_227:\n      dup2\n      swap3\n      swap2\n      sload\n      swap1\n      0x03\n      shl\n      swap2\n      dup3\n      shl\n      swap2\n      dup6\n      dup1\n      0xa0\n      shl\n      sub\n      swap1\n      shl\n      not\n      and\n      or\n      swap1\n      sstore\n        /* \"src/Contract Architecture/Core Infrastructure/RaindropEscrow.sol\":5089:5264  if (!raindrop.participants[participant]) {... */\n      jump(tag_224)\n        /* \"src/Contract Architecture/Core Infrastructure/RaindropEscrow.sol\":696:10498  contract RaindropEscrow is ReentrancyGuard, Ownable(msg.sender) {... */\n    tag_225:\n      mstore(0x00, shl(0xe0, 0x4e487b71))\n      mstore(0x04, 0x41)\n      revert(0x00, 0x24)\n    tag_221:\n      mload(0x40)\n      shl(0xe5, 0x461bcd)\n      dup2\n      mstore\n      0x20\n      0x04\n      dup3\n      add\n      mstore\n      0x1a\n      0x24\n      dup3\n      add\n      mstore\n      0x486f73742063616e6e6f74206265207061727469636970616e74000000000000\n      0x44\n      dup3\n      add\n      mstore\n      0x64\n      swap1\n      revert\n    tag_219:\n      mload(0x40)\n      shl(0xe5, 0x461bcd)\n      dup2\n      mstore\n      0x20\n      0x04\n      dup3\n      add\n      mstore\n      0x1b\n      0x24\n      dup3\n      add\n      mstore\n      0x496e76616c6964207061727469636970616e7420616464726573730000000000\n      0x44\n      dup3\n      add\n      mstore\n      0x64\n      swap1\n      revert\n        /* \"src/Contract Architecture/Core Infrastructure/RaindropEscrow.sol\":4821:4844  i < participants.length */\n    tag_215:\n      pop\n      dup8\n        /* \"src/Contract Architecture/Core Infrastructure/RaindropEscrow.sol\":696:10498  contract RaindropEscrow is ReentrancyGuard, Ownable(msg.sender) {... */\n      sload\n        /* \"src/Contract Architecture/Core Infrastructure/RaindropEscrow.sol\":5284:5309  raindrop.participantCount */\n      dup4\n      dup2\n      0x06\n      dup2\n      swap7\n      add\n        /* \"src/Contract Architecture/Core Infrastructure/RaindropEscrow.sol\":696:10498  contract RaindropEscrow is ReentrancyGuard, Ownable(msg.sender) {... */\n      sstore\n        /* \"src/Contract Architecture/Core Infrastructure/RaindropEscrow.sol\":5409:5438  raindrop.participantCount > 0 */\n      dup2\n        /* \"src/Contract Architecture/Core Infrastructure/RaindropEscrow.sol\":5405:5673  if (raindrop.participantCount > 0) {... */\n      tag_228\n      jumpi\n        /* \"src/Contract Architecture/Core Infrastructure/RaindropEscrow.sol\":4801:5274  for (uint256 i = 0; i < participants.length; i++) {... */\n    tag_229:\n        /* \"src/Contract Architecture/Core Infrastructure/RaindropEscrow.sol\":5688:5746  ParticipantsUpdated(raindropId, raindrop.participantCount) */\n      pop\n      0x33413169b586f09864fc3649ce426faf08ff20ff0580328a11860e98ab66a014\n        /* \"src/Contract Architecture/Core Infrastructure/RaindropEscrow.sol\":696:10498  contract RaindropEscrow is ReentrancyGuard, Ownable(msg.sender) {... */\n      0x20\n        /* \"src/Contract Architecture/Core Infrastructure/RaindropEscrow.sol\":5688:5746  ParticipantsUpdated(raindropId, raindrop.participantCount) */\n      dup5\n      dup5\n        /* \"src/Contract Architecture/Core Infrastructure/RaindropEscrow.sol\":696:10498  contract RaindropEscrow is ReentrancyGuard, Ownable(msg.sender) {... */\n      dup2\n      mload(0x40)\n      swap3\n      dup4\n      swap3\n      dup4\n      calldatacopy\n      dup2\n      add\n      0x00\n      dup2\n      mstore\n      sub\n      swap1\n      keccak256\n      swap3\n      mload(0x40)\n      swap1\n      dup2\n      mstore\n        /* \"src/Contract Architecture/Core Infrastructure/RaindropEscrow.sol\":5688:5746  ParticipantsUpdated(raindropId, raindrop.participantCount) */\n      log2\n        /* \"src/Contract Architecture/Core Infrastructure/RaindropEscrow.sol\":696:10498  contract RaindropEscrow is ReentrancyGuard, Ownable(msg.sender) {... */\n      stop\n        /* \"src/Contract Architecture/Core Infrastructure/RaindropEscrow.sol\":5405:5673  if (raindrop.participantCount > 0) {... */\n    tag_228:\n        /* \"src/Contract Architecture/Core Infrastructure/RaindropEscrow.sol\":1030:1033  100 */\n      0x64\n        /* \"src/Contract Architecture/Core Infrastructure/RaindropEscrow.sol\":5485:5505  raindrop.totalAmount */\n      swap2\n        /* \"src/Contract Architecture/Core Infrastructure/RaindropEscrow.sol\":696:10498  contract RaindropEscrow is ReentrancyGuard, Ownable(msg.sender) {... */\n      0x03\n        /* \"src/Contract Architecture/Core Infrastructure/RaindropEscrow.sol\":5485:5533  raindrop.totalAmount / raindrop.participantCount */\n      tag_230\n        /* \"src/Contract Architecture/Core Infrastructure/RaindropEscrow.sol\":5485:5505  raindrop.totalAmount */\n      swap3\n      add\n        /* \"src/Contract Architecture/Core Infrastructure/RaindropEscrow.sol\":696:10498  contract RaindropEscrow is ReentrancyGuard, Ownable(msg.sender) {... */\n      sload\n        /* \"src/Contract Architecture/Core Infrastructure/RaindropEscrow.sol\":5485:5533  raindrop.totalAmount / raindrop.participantCount */\n      tag_13\n      jump\t// in\n    tag_230:\n        /* \"src/Contract Architecture/Core Infrastructure/RaindropEscrow.sol\":5555:5605  amountPerParticipant >= MIN_AMOUNT_PER_PARTICIPANT */\n      lt\n        /* \"src/Contract Architecture/Core Infrastructure/RaindropEscrow.sol\":696:10498  contract RaindropEscrow is ReentrancyGuard, Ownable(msg.sender) {... */\n      tag_231\n      jumpi\n        /* \"src/Contract Architecture/Core Infrastructure/RaindropEscrow.sol\":5405:5673  if (raindrop.participantCount > 0) {... */\n      dup3\n      dup5\n      jump(tag_229)\n        /* \"src/Contract Architecture/Core Infrastructure/RaindropEscrow.sol\":696:10498  contract RaindropEscrow is ReentrancyGuard, Ownable(msg.sender) {... */\n    tag_231:\n        /* \"src/Contract Architecture/Core Infrastructure/RaindropEscrow.sol\":1030:1033  100 */\n      0x64\n        /* \"src/Contract Architecture/Core Infrastructure/RaindropEscrow.sol\":696:10498  contract RaindropEscrow is ReentrancyGuard, Ownable(msg.sender) {... */\n      mload(0x40)\n      shl(0xe5, 0x461bcd)\n      dup2\n      mstore\n      0x20\n      0x04\n      dup3\n      add\n      mstore\n      0x20\n      0x24\n      dup3\n      add\n      mstore\n      0x416d6f756e7420706572207061727469636970616e7420746f6f20736d616c6c\n      0x44\n      dup3\n      add\n      mstore\n      revert\n    tag_212:\n      tag_233\n      swap1\n      dup10\n      0x00\n      mstore\n      keccak256(0x00, 0x20)\n      swap1\n      dup2\n      add\n      swap1\n      tag_6\n      jump\t// in\n    tag_233:\n      dup9\n      jump(tag_213)\n    tag_206:\n      mload(0x40)\n      shl(0xe5, 0x461bcd)\n      dup2\n      mstore\n      0x20\n      0x04\n      dup3\n      add\n      mstore\n      0x15\n      0x24\n      dup3\n      add\n      mstore\n      shl(0x58, 0x546f6f206d616e79207061727469636970616e7473)\n      0x44\n      dup3\n      add\n      mstore\n      0x64\n      swap1\n      revert\n        /* \"src/Contract Architecture/Core Infrastructure/RaindropEscrow.sol\":4243:4295  msg.sender == raindrop.host || msg.sender == owner() */\n    tag_201:\n      pop\n        /* \"src/Contract Architecture/Core Infrastructure/RaindropEscrow.sol\":696:10498  contract RaindropEscrow is ReentrancyGuard, Ownable(msg.sender) {... */\n      and(sub(shl(0xa0, 0x01), 0x01), sload(0x01))\n        /* \"src/Contract Architecture/Core Infrastructure/RaindropEscrow.sol\":4243:4253  msg.sender */\n      caller\n        /* \"src/Contract Architecture/Core Infrastructure/RaindropEscrow.sol\":4274:4295  msg.sender == owner() */\n      eq\n        /* \"src/Contract Architecture/Core Infrastructure/RaindropEscrow.sol\":4243:4295  msg.sender == raindrop.host || msg.sender == owner() */\n      jump(tag_202)\n        /* \"src/Contract Architecture/Core Infrastructure/RaindropEscrow.sol\":696:10498  contract RaindropEscrow is ReentrancyGuard, Ownable(msg.sender) {... */\n    tag_29:\n      jumpi(tag_59, callvalue)\n      jumpi(tag_59, slt(add(not(0x03), calldatasize), 0x00))\n      0x20\n      mload(0x40)\n        /* \"src/Contract Architecture/Core Infrastructure/RaindropEscrow.sol\":1030:1033  100 */\n      0x64\n        /* \"src/Contract Architecture/Core Infrastructure/RaindropEscrow.sol\":696:10498  contract RaindropEscrow is ReentrancyGuard, Ownable(msg.sender) {... */\n      dup2\n      mstore\n      return\n    tag_27:\n      jumpi(tag_59, callvalue)\n      jumpi(tag_59, slt(add(not(0x03), calldatasize), 0x00))\n        /* \"src/Contract Architecture/Core Infrastructure/RaindropEscrow.sol\":1154:1181  address public feeRecipient */\n      0x03\n        /* \"src/Contract Architecture/Core Infrastructure/RaindropEscrow.sol\":696:10498  contract RaindropEscrow is ReentrancyGuard, Ownable(msg.sender) {... */\n      sload\n      mload(0x40)\n      sub(shl(0xa0, 0x01), 0x01)\n      swap1\n      swap2\n      and\n      dup2\n      mstore\n      0x20\n      swap1\n      return\n    tag_25:\n      jumpi(tag_59, callvalue)\n      jumpi(tag_59, slt(add(not(0x03), calldatasize), 0x00))\n      0x20\n        /* \"src/Contract Architecture/Core Infrastructure/RaindropEscrow.sol\":1114:1148  uint256 public platformFeeBps = 10 */\n      0x02\n        /* \"src/Contract Architecture/Core Infrastructure/RaindropEscrow.sol\":696:10498  contract RaindropEscrow is ReentrancyGuard, Ownable(msg.sender) {... */\n      sload\n      mload(0x40)\n      swap1\n      dup2\n      mstore\n      return\n    tag_23:\n      jumpi(tag_59, callvalue)\n      0x20\n      0xff\n      dup2\n      dup1\n      tag_248\n      calldatasize\n      tag_4\n      jump\t// in\n    tag_248:\n      mload(0x40)\n      swap3\n      dup2\n      dup5\n      swap3\n      mload\n      swap2\n      dup3\n      swap2\n      add\n      dup4\n      mcopy\n      dup2\n      add\n        /* \"src/Contract Architecture/Core Infrastructure/RaindropEscrow.sol\":1562:1607  mapping(string => bool) public raindropExists */\n      0x05\n        /* \"src/Contract Architecture/Core Infrastructure/RaindropEscrow.sol\":696:10498  contract RaindropEscrow is ReentrancyGuard, Ownable(msg.sender) {... */\n      dup2\n      mstore\n      sub\n      add\n      swap1\n      keccak256\n      sload\n      and\n      mload(0x40)\n      swap1\n      iszero\n      iszero\n      dup2\n      mstore\n      return\n    tag_21:\n      jumpi(tag_59, callvalue)\n      jumpi(tag_59, slt(add(not(0x03), calldatasize), 0x80))\n      calldataload(0x04)\n      sub(shl(0x40, 0x01), 0x01)\n      dup2\n      gt\n      tag_59\n      jumpi\n      tag_255\n      swap1\n      calldatasize\n      swap1\n      0x04\n      add\n      tag_1\n      jump\t// in\n    tag_255:\n      calldataload(0x24)\n      sub(shl(0xa0, 0x01), 0x01)\n      dup2\n      and\n      swap3\n      swap1\n      dup4\n      swap1\n      sub\n      tag_59\n      jumpi\n      calldataload(0x44)\n      swap2\n      calldataload(0x64)\n        /* \"@openzeppelin/contracts/security/ReentrancyGuard.sol\":2227:2330  modifier nonReentrant() {... */\n      swap2\n      tag_258\n      tag_15\n      jump\t// in\n    tag_258:\n        /* \"src/Contract Architecture/Core Infrastructure/RaindropEscrow.sol\":696:10498  contract RaindropEscrow is ReentrancyGuard, Ownable(msg.sender) {... */\n      0xff\n      mload(0x40)\n      dup4\n      dup4\n      dup3\n      calldatacopy\n      0x20\n      dup2\n      dup6\n      dup2\n      add\n        /* \"src/Contract Architecture/Core Infrastructure/RaindropEscrow.sol\":2790:2804  raindropExists */\n      0x05\n        /* \"src/Contract Architecture/Core Infrastructure/RaindropEscrow.sol\":696:10498  contract RaindropEscrow is ReentrancyGuard, Ownable(msg.sender) {... */\n      dup2\n      mstore\n      sub\n      add\n      swap1\n      keccak256\n      sload\n      and\n      tag_259\n      jumpi\n        /* \"src/Contract Architecture/Core Infrastructure/RaindropEscrow.sol\":2862:2881  token != address(0) */\n      dup5\n      iszero\n        /* \"src/Contract Architecture/Core Infrastructure/RaindropEscrow.sol\":696:10498  contract RaindropEscrow is ReentrancyGuard, Ownable(msg.sender) {... */\n      tag_261\n      jumpi\n        /* \"src/Contract Architecture/Core Infrastructure/RaindropEscrow.sol\":2925:2940  totalAmount > 0 */\n      dup4\n      iszero\n        /* \"src/Contract Architecture/Core Infrastructure/RaindropEscrow.sol\":696:10498  contract RaindropEscrow is ReentrancyGuard, Ownable(msg.sender) {... */\n      tag_263\n      jumpi\n        /* \"src/Contract Architecture/Core Infrastructure/RaindropEscrow.sol\":3008:3023  block.timestamp */\n      timestamp\n        /* \"src/Contract Architecture/Core Infrastructure/RaindropEscrow.sol\":2992:3023  scheduledTime > block.timestamp */\n      dup4\n      gt\n        /* \"src/Contract Architecture/Core Infrastructure/RaindropEscrow.sol\":696:10498  contract RaindropEscrow is ReentrancyGuard, Ownable(msg.sender) {... */\n      iszero\n      tag_265\n      jumpi\n        /* \"@openzeppelin/contracts/token/ERC20/utils/SafeERC20.sol\":1745:1798  abi.encodeCall(token.transferFrom, (from, to, value)) */\n      tag_267\n        /* \"src/Contract Architecture/Core Infrastructure/RaindropEscrow.sol\":696:10498  contract RaindropEscrow is ReentrancyGuard, Ownable(msg.sender) {... */\n      mload(0x40)\n      shl(0xe0, 0x23b872dd)\n      0x20\n        /* \"@openzeppelin/contracts/token/ERC20/utils/SafeERC20.sol\":1745:1798  abi.encodeCall(token.transferFrom, (from, to, value)) */\n      dup3\n      add\n      mstore\n        /* \"src/Contract Architecture/Core Infrastructure/RaindropEscrow.sol\":3139:3149  msg.sender */\n      caller\n        /* \"src/Contract Architecture/Core Infrastructure/RaindropEscrow.sol\":696:10498  contract RaindropEscrow is ReentrancyGuard, Ownable(msg.sender) {... */\n      0x24\n        /* \"@openzeppelin/contracts/token/ERC20/utils/SafeERC20.sol\":1745:1798  abi.encodeCall(token.transferFrom, (from, to, value)) */\n      dup3\n      add\n        /* \"src/Contract Architecture/Core Infrastructure/RaindropEscrow.sol\":696:10498  contract RaindropEscrow is ReentrancyGuard, Ownable(msg.sender) {... */\n      mstore\n        /* \"src/Contract Architecture/Core Infrastructure/RaindropEscrow.sol\":3159:3163  this */\n      address\n        /* \"src/Contract Architecture/Core Infrastructure/RaindropEscrow.sol\":696:10498  contract RaindropEscrow is ReentrancyGuard, Ownable(msg.sender) {... */\n      0x44\n      dup3\n      add\n      mstore\n      dup6\n      0x64\n      dup3\n      add\n      mstore\n      0x64\n        /* \"@openzeppelin/contracts/token/ERC20/utils/SafeERC20.sol\":1745:1798  abi.encodeCall(token.transferFrom, (from, to, value)) */\n      dup2\n      mstore\n      tag_268\n      0x84\n      dup3\n      tag_3\n      jump\t// in\n    tag_268:\n      dup7\n      tag_18\n      jump\t// in\n    tag_267:\n        /* \"src/Contract Architecture/Core Infrastructure/RaindropEscrow.sol\":696:10498  contract RaindropEscrow is ReentrancyGuard, Ownable(msg.sender) {... */\n      mload(0x40)\n      dup3\n      dup3\n      dup3\n      calldatacopy\n      0x20\n      dup2\n      dup5\n      dup2\n      add\n      0x04\n      dup2\n      mstore\n      sub\n      add\n      swap1\n      keccak256\n      sub(shl(0x40, 0x01), 0x01)\n      dup4\n      gt\n      tag_225\n      jumpi\n      tag_271\n      dup2\n      sload\n      tag_5\n      jump\t// in\n    tag_271:\n      0x1f\n      dup2\n      gt\n      tag_272\n      jumpi\n    tag_273:\n      pop\n      dup3\n      0x00\n      0x1f\n      dup3\n      gt\n      0x01\n      eq\n      tag_274\n      jumpi\n      swap2\n        /* \"src/Contract Architecture/Core Infrastructure/RaindropEscrow.sol\":3579:3607  newRaindrop.participantCount */\n      0x06\n        /* \"src/Contract Architecture/Core Infrastructure/RaindropEscrow.sol\":696:10498  contract RaindropEscrow is ReentrancyGuard, Ownable(msg.sender) {... */\n      swap2\n      0x00\n      swap4\n      dup5\n      swap2\n      tag_276\n      jumpi\n    tag_277:\n      pop\n      dup6\n      0x01\n      shl\n      swap1\n      dup5\n      not\n      dup8\n      0x03\n      shl\n      shr\n      not\n      and\n      or\n      dup2\n      sstore\n    tag_278:\n      0x01\n        /* \"src/Contract Architecture/Core Infrastructure/RaindropEscrow.sol\":3330:3346  newRaindrop.host */\n      dup2\n      add\n        /* \"src/Contract Architecture/Core Infrastructure/RaindropEscrow.sol\":696:10498  contract RaindropEscrow is ReentrancyGuard, Ownable(msg.sender) {... */\n      dup1\n      sload\n      not(sub(shl(0xa0, 0x01), 0x01))\n      swap1\n      dup2\n      and\n        /* \"src/Contract Architecture/Core Infrastructure/RaindropEscrow.sol\":3139:3149  msg.sender */\n      caller\n        /* \"src/Contract Architecture/Core Infrastructure/RaindropEscrow.sol\":696:10498  contract RaindropEscrow is ReentrancyGuard, Ownable(msg.sender) {... */\n      or\n      swap1\n      swap2\n      sstore\n        /* \"src/Contract Architecture/Core Infrastructure/RaindropEscrow.sol\":3369:3386  newRaindrop.token */\n      0x02\n      dup3\n      add\n        /* \"src/Contract Architecture/Core Infrastructure/RaindropEscrow.sol\":696:10498  contract RaindropEscrow is ReentrancyGuard, Ownable(msg.sender) {... */\n      dup1\n      sload\n      swap1\n      swap2\n      and\n      dup10\n      or\n      swap1\n      sstore\n        /* \"src/Contract Architecture/Core Infrastructure/RaindropEscrow.sol\":3404:3427  newRaindrop.totalAmount */\n      0x03\n      dup2\n      add\n        /* \"src/Contract Architecture/Core Infrastructure/RaindropEscrow.sol\":696:10498  contract RaindropEscrow is ReentrancyGuard, Ownable(msg.sender) {... */\n      dup8\n      swap1\n      sstore\n      0x04\n        /* \"src/Contract Architecture/Core Infrastructure/RaindropEscrow.sol\":3451:3476  newRaindrop.scheduledTime */\n      dup2\n      add\n        /* \"src/Contract Architecture/Core Infrastructure/RaindropEscrow.sol\":696:10498  contract RaindropEscrow is ReentrancyGuard, Ownable(msg.sender) {... */\n      dup7\n      swap1\n      sstore\n        /* \"src/Contract Architecture/Core Infrastructure/RaindropEscrow.sol\":2790:2804  raindropExists */\n      0x05\n        /* \"src/Contract Architecture/Core Infrastructure/RaindropEscrow.sol\":3502:3522  newRaindrop.executed */\n      dup2\n      add\n        /* \"src/Contract Architecture/Core Infrastructure/RaindropEscrow.sol\":696:10498  contract RaindropEscrow is ReentrancyGuard, Ownable(msg.sender) {... */\n      dup1\n      sload\n      not(0xffff)\n      and\n      swap1\n      sstore\n        /* \"src/Contract Architecture/Core Infrastructure/RaindropEscrow.sol\":3579:3607  newRaindrop.participantCount */\n      add\n        /* \"src/Contract Architecture/Core Infrastructure/RaindropEscrow.sol\":696:10498  contract RaindropEscrow is ReentrancyGuard, Ownable(msg.sender) {... */\n      sstore\n      mload(0x40)\n      dup3\n      dup3\n      dup3\n      calldatacopy\n      0x20\n      dup2\n      dup5\n      dup2\n      add\n        /* \"src/Contract Architecture/Core Infrastructure/RaindropEscrow.sol\":2790:2804  raindropExists */\n      0x05\n        /* \"src/Contract Architecture/Core Infrastructure/RaindropEscrow.sol\":696:10498  contract RaindropEscrow is ReentrancyGuard, Ownable(msg.sender) {... */\n      dup2\n      mstore\n      sub\n      add\n      swap1\n      keccak256\n      0x01\n      not(0xff)\n      dup3\n      sload\n      and\n      or\n      swap1\n      sstore\n      dup2\n      mload(0x40)\n      swap3\n      dup4\n      swap3\n      dup4\n      calldatacopy\n      dup2\n      add\n      0x00\n      dup2\n      mstore\n      sub\n      swap1\n      keccak256\n      swap1\n      mload(0x40)\n      swap3\n      dup4\n      mstore\n      0x20\n      dup4\n      add\n      mstore\n        /* \"src/Contract Architecture/Core Infrastructure/RaindropEscrow.sol\":3671:3745  RaindropCreated(raindropId, msg.sender, token, totalAmount, scheduledTime) */\n      0x04c9d53d935621250c2a973ca08a8ba1828a8ae00d5e5a57c23344069a08f35f\n        /* \"src/Contract Architecture/Core Infrastructure/RaindropEscrow.sol\":696:10498  contract RaindropEscrow is ReentrancyGuard, Ownable(msg.sender) {... */\n      0x40\n        /* \"src/Contract Architecture/Core Infrastructure/RaindropEscrow.sol\":3139:3149  msg.sender */\n      caller\n        /* \"src/Contract Architecture/Core Infrastructure/RaindropEscrow.sol\":3671:3745  RaindropCreated(raindropId, msg.sender, token, totalAmount, scheduledTime) */\n      swap4\n      log4\n        /* \"src/Contract Architecture/Core Infrastructure/RaindropEscrow.sol\":696:10498  contract RaindropEscrow is ReentrancyGuard, Ownable(msg.sender) {... */\n      sstore(0x00, 0x01)\n      stop\n    tag_276:\n      swap1\n      pop\n      dup5\n      add\n      calldataload\n      dup10\n      jump(tag_277)\n    tag_274:\n      0x00\n      dup4\n      dup2\n      mstore\n      0x20\n      dup2\n      keccak256\n      swap3\n      pop\n      dup6\n      swap1\n      not(0x1f)\n      dup3\n      and\n      swap1\n    tag_279:\n      dup2\n      dup2\n      lt\n      tag_280\n      jumpi\n      pop\n      swap2\n        /* \"src/Contract Architecture/Core Infrastructure/RaindropEscrow.sol\":3579:3607  newRaindrop.participantCount */\n      0x06\n        /* \"src/Contract Architecture/Core Infrastructure/RaindropEscrow.sol\":696:10498  contract RaindropEscrow is ReentrancyGuard, Ownable(msg.sender) {... */\n      swap4\n      swap2\n      0x00\n      swap6\n      swap4\n      lt\n      tag_282\n      jumpi\n    tag_283:\n      pop\n      pop\n      0x01\n      dup6\n      dup2\n      shl\n      add\n      dup2\n      sstore\n      jump(tag_278)\n    tag_282:\n      dup5\n      not\n      0xf8\n      dup9\n      0x03\n      shl\n      and\n      shr\n      not\n      swap1\n      dup7\n      add\n      calldataload\n      and\n      swap1\n      sstore\n      dup9\n      dup1\n      jump(tag_283)\n    tag_280:\n      dup7\n      dup5\n      add\n      calldataload\n      dup6\n      sstore\n      0x01\n      swap1\n      swap5\n      add\n      swap4\n      0x20\n      swap4\n      dup5\n      add\n      swap4\n      dup9\n      swap4\n      pop\n      add\n      jump(tag_279)\n    tag_272:\n      tag_284\n      swap1\n      dup3\n      0x00\n      mstore\n      keccak256(0x00, 0x20)\n      0x1f\n      dup7\n      add\n        /* \"src/Contract Architecture/Core Infrastructure/RaindropEscrow.sol\":2790:2804  raindropExists */\n      0x05\n        /* \"src/Contract Architecture/Core Infrastructure/RaindropEscrow.sol\":696:10498  contract RaindropEscrow is ReentrancyGuard, Ownable(msg.sender) {... */\n      shr\n      dup2\n      add\n      swap2\n      0x20\n      dup8\n      lt\n      tag_285\n      jumpi\n    tag_286:\n      0x1f\n      add\n        /* \"src/Contract Architecture/Core Infrastructure/RaindropEscrow.sol\":2790:2804  raindropExists */\n      0x05\n        /* \"src/Contract Architecture/Core Infrastructure/RaindropEscrow.sol\":696:10498  contract RaindropEscrow is ReentrancyGuard, Ownable(msg.sender) {... */\n      shr\n      add\n      swap1\n      tag_6\n      jump\t// in\n    tag_284:\n      dup7\n      jump(tag_273)\n    tag_285:\n      swap1\n      swap2\n      pop\n      dup2\n      swap1\n      jump(tag_286)\n    tag_265:\n      0x64\n      mload(0x40)\n      shl(0xe5, 0x461bcd)\n      dup2\n      mstore\n      0x20\n      0x04\n      dup3\n      add\n      mstore\n      0x20\n      0x24\n      dup3\n      add\n      mstore\n      0x5363686564756c65642074696d65206d75737420626520696e20667574757265\n      0x44\n      dup3\n      add\n      mstore\n      revert\n    tag_263:\n      mload(0x40)\n      shl(0xe5, 0x461bcd)\n      dup2\n      mstore\n      0x20\n      0x04\n      dup3\n      add\n      mstore\n      0x1d\n      0x24\n      dup3\n      add\n      mstore\n      0x416d6f756e74206d7573742062652067726561746572207468616e2030000000\n      0x44\n      dup3\n      add\n      mstore\n      0x64\n      swap1\n      revert\n    tag_261:\n      mload(0x40)\n      shl(0xe5, 0x461bcd)\n      dup2\n      mstore\n      0x20\n      0x04\n      dup3\n      add\n      mstore\n      0x15\n      0x24\n      dup3\n      add\n      mstore\n      shl(0x58, 0x496e76616c696420746f6b656e2061646472657373)\n      0x44\n      dup3\n      add\n      mstore\n      0x64\n      swap1\n      revert\n    tag_259:\n      mload(0x40)\n      shl(0xe5, 0x461bcd)\n      dup2\n      mstore\n      0x20\n      0x04\n      dup3\n      add\n      mstore\n      0x17\n      0x24\n      dup3\n      add\n      mstore\n      0x5261696e64726f7020616c726561647920657869737473000000000000000000\n      0x44\n      dup3\n      add\n      mstore\n      0x64\n      swap1\n      revert\n    tag_1:\n      swap2\n      dup2\n      0x1f\n      dup5\n      add\n      slt\n      iszero\n      tag_59\n      jumpi\n      dup3\n      calldataload\n      swap2\n      sub(shl(0x40, 0x01), 0x01)\n      dup4\n      gt\n      tag_59\n      jumpi\n      0x20\n      dup4\n      dup2\n      dup7\n      add\n      swap6\n      add\n      add\n      gt\n      tag_59\n      jumpi\n      jump\t// out\n    tag_2:\n      calldataload(0x04)\n      swap1\n      sub(shl(0xa0, 0x01), 0x01)\n      dup3\n      and\n      dup3\n      sub\n      tag_59\n      jumpi\n      jump\t// out\n    tag_3:\n      swap1\n      0x1f\n        /* \"@openzeppelin/contracts/token/ERC20/utils/SafeERC20.sol\":1745:1798  abi.encodeCall(token.transferFrom, (from, to, value)) */\n      dup1\n      not\n        /* \"src/Contract Architecture/Core Infrastructure/RaindropEscrow.sol\":696:10498  contract RaindropEscrow is ReentrancyGuard, Ownable(msg.sender) {... */\n      swap2\n      add\n      and\n      dup2\n      add\n      swap1\n      dup2\n      lt\n      sub(shl(0x40, 0x01), 0x01)\n      dup3\n      gt\n      or\n      tag_225\n      jumpi\n      0x40\n      mstore\n      jump\t// out\n    tag_4:\n      0x20\n      not(0x03)\n      dup3\n      add\n      slt\n      tag_59\n      jumpi\n      calldataload(0x04)\n      sub(shl(0x40, 0x01), 0x01)\n      dup2\n      gt\n      tag_59\n      jumpi\n      dup2\n      0x23\n      dup3\n      add\n      slt\n      iszero\n      tag_59\n      jumpi\n      dup1\n      0x04\n      add\n      calldataload\n      swap1\n      sub(shl(0x40, 0x01), 0x01)\n      dup3\n      gt\n      tag_225\n      jumpi\n      mload(0x40)\n      swap3\n      tag_305\n        /* \"@openzeppelin/contracts/token/ERC20/utils/SafeERC20.sol\":1745:1798  abi.encodeCall(token.transferFrom, (from, to, value)) */\n      0x1f\n        /* \"src/Contract Architecture/Core Infrastructure/RaindropEscrow.sol\":696:10498  contract RaindropEscrow is ReentrancyGuard, Ownable(msg.sender) {... */\n      dup5\n      add\n      not(0x1f)\n      and\n      0x20\n      add\n      dup6\n      tag_3\n      jump\t// in\n    tag_305:\n      dup3\n      dup5\n      mstore\n      0x24\n      dup4\n      dup4\n      add\n      add\n      gt\n      tag_59\n      jumpi\n      dup2\n      0x00\n      swap3\n      0x24\n      0x20\n      swap4\n      add\n      dup4\n      dup7\n      add\n      calldatacopy\n      dup4\n      add\n      add\n      mstore\n      swap1\n      jump\t// out\n    tag_5:\n      swap1\n      0x01\n      dup3\n      dup2\n      shr\n      swap3\n      and\n      dup1\n      iszero\n      tag_308\n      jumpi\n    tag_309:\n      0x20\n      dup4\n      lt\n      eq\n      tag_310\n      jumpi\n      jump\t// out\n    tag_310:\n      mstore(0x00, shl(0xe0, 0x4e487b71))\n      mstore(0x04, 0x22)\n      revert(0x00, 0x24)\n    tag_308:\n      swap2\n      0x7f\n      and\n      swap2\n      jump(tag_309)\n    tag_6:\n      dup2\n      dup2\n      lt\n      tag_313\n      jumpi\n      pop\n      pop\n      jump\t// out\n    tag_313:\n      0x00\n      dup2\n      sstore\n      0x01\n      add\n      jump(tag_6)\n    tag_7:\n      iszero\n      tag_315\n      jumpi\n      jump\t// out\n    tag_315:\n      mload(0x40)\n      shl(0xe5, 0x461bcd)\n      dup2\n      mstore\n      0x20\n      0x04\n      dup3\n      add\n      mstore\n      0x17\n      0x24\n      dup3\n      add\n      mstore\n      0x5261696e64726f7020646f6573206e6f74206578697374000000000000000000\n      0x44\n      dup3\n      add\n      mstore\n      0x64\n      swap1\n      revert\n    tag_8:\n      iszero\n      tag_317\n      jumpi\n      jump\t// out\n    tag_317:\n      mload(0x40)\n      shl(0xe5, 0x461bcd)\n      dup2\n      mstore\n      0x20\n      0x04\n      dup3\n      add\n      mstore\n      0x0e\n      0x24\n      dup3\n      add\n      mstore\n      shl(0x92, 0x139bdd08185d5d1a1bdc9a5e9959)\n      0x44\n      dup3\n      add\n      mstore\n      0x64\n      swap1\n      revert\n    tag_9:\n      iszero\n      tag_319\n      jumpi\n      jump\t// out\n    tag_319:\n      mload(0x40)\n      shl(0xe5, 0x461bcd)\n      dup2\n      mstore\n      0x20\n      0x04\n      dup3\n      add\n      mstore\n      0x19\n      0x24\n      dup3\n      add\n      mstore\n      0x5261696e64726f7020616c726561647920657865637574656400000000000000\n      0x44\n      dup3\n      add\n      mstore\n      0x64\n      swap1\n      revert\n    tag_10:\n      iszero\n      tag_321\n      jumpi\n      jump\t// out\n    tag_321:\n      mload(0x40)\n      shl(0xe5, 0x461bcd)\n      dup2\n      mstore\n      0x20\n      0x04\n      dup3\n      add\n      mstore\n      0x12\n      0x24\n      dup3\n      add\n      mstore\n      shl(0x72, 0x14985a5b991c9bdc0818d85b98d95b1b1959)\n      0x44\n      dup3\n      add\n      mstore\n      0x64\n      swap1\n      revert\n    tag_11:\n      dup1\n      sload\n      dup3\n      lt\n      iszero\n      tag_323\n      jumpi\n      0x00\n      mstore\n      keccak256(0x00, 0x20)\n      add\n      swap1\n      0x00\n      swap1\n      jump\t// out\n    tag_323:\n      mstore(0x00, shl(0xe0, 0x4e487b71))\n      mstore(0x04, 0x32)\n      revert(0x00, 0x24)\n    tag_12:\n      dup2\n      dup2\n      mul\n      swap3\n      swap2\n      dup2\n      iszero\n      swap2\n      dup5\n      div\n      eq\n      or\n      iszero\n      tag_325\n      jumpi\n      jump\t// out\n    tag_325:\n      mstore(0x00, shl(0xe0, 0x4e487b71))\n      mstore(0x04, 0x11)\n      revert(0x00, 0x24)\n    tag_13:\n      dup2\n      iszero\n      tag_327\n      jumpi\n      div\n      swap1\n      jump\t// out\n    tag_327:\n      mstore(0x00, shl(0xe0, 0x4e487b71))\n      mstore(0x04, 0x12)\n      revert(0x00, 0x24)\n    tag_14:\n      swap2\n      swap1\n      dup3\n      sub\n      swap2\n      dup3\n      gt\n      tag_325\n      jumpi\n      jump\t// out\n        /* \"@openzeppelin/contracts/security/ReentrancyGuard.sol\":2336:2623  function _nonReentrantBefore() private {... */\n    tag_15:\n        /* \"@openzeppelin/contracts/security/ReentrancyGuard.sol\":1759:1760  2 */\n      0x02\n        /* \"@openzeppelin/contracts/security/ReentrancyGuard.sol\":2468:2475  _status */\n      0x00\n        /* \"src/Contract Architecture/Core Infrastructure/RaindropEscrow.sol\":696:10498  contract RaindropEscrow is ReentrancyGuard, Ownable(msg.sender) {... */\n      sload\n        /* \"@openzeppelin/contracts/security/ReentrancyGuard.sol\":2468:2487  _status != _ENTERED */\n      eq\n        /* \"@openzeppelin/contracts/security/ReentrancyGuard.sol\":1759:1760  2 */\n      tag_331\n      jumpi\n      0x02\n        /* \"@openzeppelin/contracts/security/ReentrancyGuard.sol\":2468:2475  _status */\n      0x00\n        /* \"src/Contract Architecture/Core Infrastructure/RaindropEscrow.sol\":696:10498  contract RaindropEscrow is ReentrancyGuard, Ownable(msg.sender) {... */\n      sstore\n        /* \"@openzeppelin/contracts/security/ReentrancyGuard.sol\":2336:2623  function _nonReentrantBefore() private {... */\n      jump\t// out\n        /* \"@openzeppelin/contracts/security/ReentrancyGuard.sol\":1759:1760  2 */\n    tag_331:\n        /* \"src/Contract Architecture/Core Infrastructure/RaindropEscrow.sol\":696:10498  contract RaindropEscrow is ReentrancyGuard, Ownable(msg.sender) {... */\n      mload(0x40)\n      shl(0xe5, 0x461bcd)\n        /* \"@openzeppelin/contracts/security/ReentrancyGuard.sol\":1759:1760  2 */\n      dup2\n      mstore\n      0x20\n      0x04\n      dup3\n      add\n      mstore\n      0x1f\n      0x24\n      dup3\n      add\n        /* \"src/Contract Architecture/Core Infrastructure/RaindropEscrow.sol\":696:10498  contract RaindropEscrow is ReentrancyGuard, Ownable(msg.sender) {... */\n      mstore\n        /* \"@openzeppelin/contracts/security/ReentrancyGuard.sol\":1759:1760  2 */\n      0x5265656e7472616e637947756172643a207265656e7472616e742063616c6c00\n        /* \"src/Contract Architecture/Core Infrastructure/RaindropEscrow.sol\":696:10498  contract RaindropEscrow is ReentrancyGuard, Ownable(msg.sender) {... */\n      0x44\n      dup3\n      add\n        /* \"@openzeppelin/contracts/security/ReentrancyGuard.sol\":1759:1760  2 */\n      mstore\n      0x64\n      swap1\n      revert\n        /* \"@openzeppelin/contracts/access/Ownable.sol\":1796:1958  function _checkOwner() internal view virtual {... */\n    tag_16:\n        /* \"src/Contract Architecture/Core Infrastructure/RaindropEscrow.sol\":696:10498  contract RaindropEscrow is ReentrancyGuard, Ownable(msg.sender) {... */\n      and(sub(shl(0xa0, 0x01), 0x01), sload(0x01))\n        /* \"@openzeppelin/contracts/utils/Context.sol\":735:745  msg.sender */\n      caller\n        /* \"@openzeppelin/contracts/access/Ownable.sol\":1855:1878  owner() != _msgSender() */\n      sub\n        /* \"@openzeppelin/contracts/access/Ownable.sol\":1851:1952  if (owner() != _msgSender()) {... */\n      tag_333\n      jumpi\n        /* \"@openzeppelin/contracts/access/Ownable.sol\":1796:1958  function _checkOwner() internal view virtual {... */\n      jump\t// out\n        /* \"@openzeppelin/contracts/access/Ownable.sol\":1851:1952  if (owner() != _msgSender()) {... */\n    tag_333:\n        /* \"@openzeppelin/contracts/access/Ownable.sol\":1901:1941  OwnableUnauthorizedAccount(_msgSender()) */\n      mstore(0x00, shl(0xe0, 0x118cdaa7))\n        /* \"@openzeppelin/contracts/utils/Context.sol\":735:745  msg.sender */\n      caller\n        /* \"@openzeppelin/contracts/access/Ownable.sol\":1901:1941  OwnableUnauthorizedAccount(_msgSender()) */\n      0x04\n        /* \"src/Contract Architecture/Core Infrastructure/RaindropEscrow.sol\":696:10498  contract RaindropEscrow is ReentrancyGuard, Ownable(msg.sender) {... */\n      mstore\n      0x24\n      0x00\n        /* \"@openzeppelin/contracts/access/Ownable.sol\":1901:1941  OwnableUnauthorizedAccount(_msgSender()) */\n      revert\n        /* \"@openzeppelin/contracts/token/ERC20/utils/SafeERC20.sol\":1219:1379  function safeTransfer(IERC20 token, address to, uint256 value) internal {... */\n    tag_17:\n        /* \"src/Contract Architecture/Core Infrastructure/RaindropEscrow.sol\":696:10498  contract RaindropEscrow is ReentrancyGuard, Ownable(msg.sender) {... */\n      mload(0x40)\n      shl(0xe0, 0xa9059cbb)\n        /* \"@openzeppelin/contracts/token/ERC20/utils/SafeERC20.sol\":1328:1371  abi.encodeCall(token.transfer, (to, value)) */\n      0x20\n      dup3\n      add\n      mstore\n      sub(shl(0xa0, 0x01), 0x01)\n        /* \"src/Contract Architecture/Core Infrastructure/RaindropEscrow.sol\":696:10498  contract RaindropEscrow is ReentrancyGuard, Ownable(msg.sender) {... */\n      swap1\n      swap3\n      and\n        /* \"@openzeppelin/contracts/token/ERC20/utils/SafeERC20.sol\":1328:1371  abi.encodeCall(token.transfer, (to, value)) */\n      0x24\n      dup4\n      add\n        /* \"src/Contract Architecture/Core Infrastructure/RaindropEscrow.sol\":696:10498  contract RaindropEscrow is ReentrancyGuard, Ownable(msg.sender) {... */\n      mstore\n      0x44\n      dup1\n      dup4\n      add\n      swap4\n      swap1\n      swap4\n      mstore\n        /* \"@openzeppelin/contracts/token/ERC20/utils/SafeERC20.sol\":1328:1371  abi.encodeCall(token.transfer, (to, value)) */\n      swap2\n      dup2\n      mstore\n      tag_335\n      swap2\n      tag_336\n      0x64\n        /* \"src/Contract Architecture/Core Infrastructure/RaindropEscrow.sol\":696:10498  contract RaindropEscrow is ReentrancyGuard, Ownable(msg.sender) {... */\n      dup4\n        /* \"@openzeppelin/contracts/token/ERC20/utils/SafeERC20.sol\":1328:1371  abi.encodeCall(token.transfer, (to, value)) */\n      tag_3\n      jump\t// in\n    tag_336:\n      tag_18\n      jump\t// in\n    tag_335:\n        /* \"@openzeppelin/contracts/token/ERC20/utils/SafeERC20.sol\":1219:1379  function safeTransfer(IERC20 token, address to, uint256 value) internal {... */\n      jump\t// out\n        /* \"@openzeppelin/contracts/token/ERC20/utils/SafeERC20.sol\":8370:9090  function _callOptionalReturn(IERC20 token, bytes memory data) private {... */\n    tag_18:\n      swap1\n      0x00\n        /* \"@openzeppelin/contracts/token/ERC20/utils/SafeERC20.sol\":8507:8928  assembly (\"memory-safe\") {... */\n      0x20\n        /* \"@openzeppelin/contracts/token/ERC20/utils/SafeERC20.sol\":8370:9090  function _callOptionalReturn(IERC20 token, bytes memory data) private {... */\n      swap2\n        /* \"@openzeppelin/contracts/token/ERC20/utils/SafeERC20.sol\":8507:8928  assembly (\"memory-safe\") {... */\n      dup3\n      dup2\n      mload\n      swap2\n      add\n      dup3\n      dup6\n      gas\n      call\n      iszero\n      tag_337\n      jumpi\n      mload(0x00)\n      returndatasize\n        /* \"@openzeppelin/contracts/token/ERC20/utils/SafeERC20.sol\":8942:8957  returnSize == 0 */\n      tag_339\n      jumpi\n      pop\n      sub(shl(0xa0, 0x01), 0x01)\n        /* \"src/Contract Architecture/Core Infrastructure/RaindropEscrow.sol\":696:10498  contract RaindropEscrow is ReentrancyGuard, Ownable(msg.sender) {... */\n      dup2\n      and\n        /* \"@openzeppelin/contracts/token/ERC20/utils/SafeERC20.sol\":8960:8986  address(token).code.length */\n      extcodesize\n        /* \"@openzeppelin/contracts/token/ERC20/utils/SafeERC20.sol\":8960:8991  address(token).code.length == 0 */\n      iszero\n        /* \"@openzeppelin/contracts/token/ERC20/utils/SafeERC20.sol\":8942:9010  returnSize == 0 ? address(token).code.length == 0 : returnValue != 1 */\n    tag_341:\n        /* \"@openzeppelin/contracts/token/ERC20/utils/SafeERC20.sol\":8938:9084  if (returnSize == 0 ? address(token).code.length == 0 : returnValue != 1) {... */\n      tag_342\n      jumpi\n        /* \"@openzeppelin/contracts/token/ERC20/utils/SafeERC20.sol\":8370:9090  function _callOptionalReturn(IERC20 token, bytes memory data) private {... */\n      pop\n      jump\t// out\n        /* \"@openzeppelin/contracts/token/ERC20/utils/SafeERC20.sol\":8938:9084  if (returnSize == 0 ? address(token).code.length == 0 : returnValue != 1) {... */\n    tag_342:\n      shl(0xe0, 0x5274afe7)\n      0x00\n        /* \"@openzeppelin/contracts/token/ERC20/utils/SafeERC20.sol\":9033:9073  SafeERC20FailedOperation(address(token)) */\n      swap1\n      dup2\n      mstore\n      sub(shl(0xa0, 0x01), 0x01)\n        /* \"src/Contract Architecture/Core Infrastructure/RaindropEscrow.sol\":696:10498  contract RaindropEscrow is ReentrancyGuard, Ownable(msg.sender) {... */\n      swap2\n      swap1\n      swap2\n      and\n        /* \"@openzeppelin/contracts/token/ERC20/utils/SafeERC20.sol\":9033:9073  SafeERC20FailedOperation(address(token)) */\n      0x04\n        /* \"src/Contract Architecture/Core Infrastructure/RaindropEscrow.sol\":696:10498  contract RaindropEscrow is ReentrancyGuard, Ownable(msg.sender) {... */\n      mstore\n      0x24\n      swap1\n        /* \"@openzeppelin/contracts/token/ERC20/utils/SafeERC20.sol\":9033:9073  SafeERC20FailedOperation(address(token)) */\n      revert\n        /* \"@openzeppelin/contracts/token/ERC20/utils/SafeERC20.sol\":8942:9010  returnSize == 0 ? address(token).code.length == 0 : returnValue != 1 */\n    tag_339:\n        /* \"@openzeppelin/contracts/token/ERC20/utils/SafeERC20.sol\":9009:9010  1 */\n      0x01\n        /* \"@openzeppelin/contracts/token/ERC20/utils/SafeERC20.sol\":8994:9010  returnValue != 1 */\n      eq\n      iszero\n        /* \"@openzeppelin/contracts/token/ERC20/utils/SafeERC20.sol\":8942:9010  returnSize == 0 ? address(token).code.length == 0 : returnValue != 1 */\n      jump(tag_341)\n        /* \"@openzeppelin/contracts/token/ERC20/utils/SafeERC20.sol\":8507:8928  assembly (\"memory-safe\") {... */\n    tag_337:\n      mload(0x40)\n      returndatasize\n      0x00\n      dup3\n      returndatacopy\n      returndatasize\n      swap1\n      revert\n\n    auxdata: 0xa2646970667358221220475a17a08a9e05ba2f40714eb90ce3c799f6756bf195b4c506f3344d3ebab75964736f6c634300081a0033\n}\n",
				"bytecode": {
					"linkReferences": {},
					"object": "6080346100db57601f61174538819003918201601f19168301916001600160401b038311848410176100df578084926020946040528339810103126100db57516001600160a01b038116908190036100db5760015f5533156100c85760018054336001600160a01b0319821681179092556040519291906001600160a01b03167f8be0079c531659141344cd1fd0a4f28419497f9722a3daafe3b4186f6b6457e05f80a3600a600255600380546001600160a01b03191691909117905561165190816100f48239f35b631e4fbdf760e01b5f525f60045260245ffd5b5f80fd5b634e487b7160e01b5f52604160045260245ffdfe60806040526004361015610011575f80fd5b5f3560e01c806302749be714610eb65780630d12cba214610e7e57806322dcd13e14610e615780634690484014610e395780634898ba6314610e1e5780636b0db1fa14610a56578063715018a6146109fb57806372521d471461092d57806379020194146108ee5780637e90def7146107eb5780638da5cb5b146107c35780639a43dc0c146105375780639b0f14b5146103b1578063aa0b598814610354578063b28a9d6f14610209578063f160d36914610186578063f2fde38b146101005763f3baf070146100df575f80fd5b346100fc575f3660031901126100fc576020604051620f42408152f35b5f80fd5b346100fc5760203660031901126100fc5761011961126f565b61012161154f565b6001600160a01b0316801561017357600180546001600160a01b0319811683179091556001600160a01b03167f8be0079c531659141344cd1fd0a4f28419497f9722a3daafe3b4186f6b6457e05f80a3005b631e4fbdf760e01b5f525f60045260245ffd5b346100fc5760203660031901126100fc5761019f61126f565b6101a761154f565b6001600160a01b031680156101d2576bffffffffffffffffffffffff60a01b60035416176003555f80f35b60405162461bcd60e51b815260206004820152600f60248201526e496e76616c6964206164647265737360881b6044820152606490fd5b346100fc5760208061021a366112a6565b604051928184925191829101835e81016004815203019020604051905f9181546102438161131c565b8083526020830191600181169081156103395750600114610300575b506102708261012094950383611285565b60018060a01b036001850154169360ff60018060a01b036002830154169160038101546004820154906006600584015493015494604051998a986101008a52518098816101008c01528b8b015e5f8989018b01526020890152604088015260608701526080860152808216151560a086015260081c16151560c084015260e0830152601f01601f19168101030190f35b9350825f5260205f205f905b85821061032357508201602001935061027061025f565b600181602092548385880101520191019061030c565b60ff1916835250151560051b8201602001935061027061025f565b346100fc5760203660031901126100fc5760043561037061154f565b6064811161037d57600255005b60405162461bcd60e51b815260206004820152600c60248201526b08ccaca40e8dede40d0d2ced60a31b6044820152606490fd5b346100fc5760203660031901126100fc576004356001600160401b0381116100fc576103e1903690600401611242565b906103ea6114fb565b61040b60ff604051848482376020818681016005815203019020541661136a565b60405182828237600483820190815281900360200190206001810180546001600160a01b0316933385148015610523575b610445906113b6565b6005830191825461045960ff8216156113f3565b60ff8160081c166104de577f16b1484adf14ddc11ad828089c5f7ac1932ae15cac0fd6100804b92746616b04946020946101006104b29361ff001916179055600360018060a01b03600283015416910197885491611576565b60018060a01b0390541694549381604051928392833781015f815203902092604051908152a360015f55005b60405162461bcd60e51b815260206004820152601a60248201527f5261696e64726f7020616c72656164792063616e63656c6c65640000000000006044820152606490fd5b506001546001600160a01b0316331461043c565b346100fc5760203660031901126100fc576004356001600160401b0381116100fc57610567903690600401611242565b61056f6114fb565b61059060ff604051838582376020818581016005815203019020541661136a565b60405181838237602081838101600481520301902090600182019060018060a01b03825416331480156107af575b6105c7906113b6565b60058301938454946105dc60ff8716156113f3565b6105ec60ff8760081c161561143f565b60048501544210610773576006850190815496871561073c5760019060ff979597191617905560038301549461063261271061062a600254896114a9565b0480976114ee565b9161065061064a6106438a866114d0565b998a6114a9565b846114ee565b60028601546001600160a01b031696600890960195905f5b835481101561069c57806106968c6106826001948c611480565b858060a01b0391549060031b1c168c611576565b01610668565b50606096507fe56eba28928c6808ff8d65117cc1d7ba272e42f06114b621406245fe7e42fff2978a998061071f575b5081610700575b505050549281604051928392833781015f81520390209460405192835260208301526040820152a260015f55005b9154610717926001600160a01b0390911690611576565b8780806106d2565b60035461073691906001600160a01b031683611576565b8a6106cb565b60405162461bcd60e51b815260206004820152600f60248201526e4e6f207061727469636970616e747360881b6044820152606490fd5b60405162461bcd60e51b8152602060048201526014602482015273546f6f206561726c7920746f206578656375746560601b6044820152606490fd5b506001546001600160a01b031633146105be565b346100fc575f3660031901126100fc576001546040516001600160a01b039091168152602090f35b346100fc5760203660031901126100fc576004356001600160401b0381116100fc57602061081f6008923690600401611242565b919061084160ff6040518584823784818781016005815203019020541661136a565b8260405193849283378101600481520301902001604051806020835491828152019081935f5260205f20905f5b8181106108cf5750505081610884910382611285565b604051918291602083019060208452518091526040830191905f5b8181106108ad575050500390f35b82516001600160a01b031684528594506020938401939092019160010161089f565b82546001600160a01b031684526020909301926001928301920161086e565b346100fc5760403660031901126100fc5761092b61090a61126f565b61091261154f565b600154602435916001600160a01b039182169116611576565b005b346100fc5760203660031901126100fc576004356001600160401b0381116100fc57602061096160e0923690600401611242565b919061098360ff6040518584823784818781016005815203019020541661136a565b8260405193849283378101600481520301902060018060a01b036001820154169060ff60018060a01b0360028301541691600381015460048201549060066005840154930154946040519687526020870152604086015260608501528181161515608085015260081c16151560a083015260c0820152f35b346100fc575f3660031901126100fc57610a1361154f565b600180546001600160a01b031981169091555f906001600160a01b03167f8be0079c531659141344cd1fd0a4f28419497f9722a3daafe3b4186f6b6457e08280a3005b346100fc5760403660031901126100fc576004356001600160401b0381116100fc57610a86903690600401611242565b90602435906001600160401b0382116100fc57366023830112156100fc5781600401356001600160401b0381116100fc573660248260051b850101116100fc57610ae760ff604051868582376020818881016005815203019020541661136a565b60405184838237602081868101600481520301902092600184019060018060a01b0382541633148015610e0a575b610b1e906113b6565b610b3e60ff6005870154610b34828216156113f3565b60081c161561143f565b620f42408311610dcd576008850195939460078101945f5b8854811015610b995780610b6c6001928b611480565b838060a01b0391549060031b1c16828060a01b03165f528760205260405f2060ff19815416905501610b56565b5090919294939587545f895580610db3575b505f5b87811015610d01576024600582901b860101356001600160a01b03811691908290036100fc578115610cbc5787546001600160a01b03168214610c7757815f528660205260ff60405f20541615610c0a575b6001915001610bae565b815f528660205260405f20600160ff1982541617905589549168010000000000000000831015610c6357610c458360018095018d558c611480565b819291549060031b91821b91858060a01b03901b1916179055610c00565b634e487b7160e01b5f52604160045260245ffd5b60405162461bcd60e51b815260206004820152601a60248201527f486f73742063616e6e6f74206265207061727469636970616e740000000000006044820152606490fd5b60405162461bcd60e51b815260206004820152601b60248201527f496e76616c6964207061727469636970616e74206164647265737300000000006044820152606490fd5b508754838160068196015581610d53575b507f33413169b586f09864fc3649ce426faf08ff20ff0580328a11860e98ab66a0146020848481604051928392833781015f815203902092604051908152a2005b6064916003610d639201546114d0565b10610d6f578284610d12565b606460405162461bcd60e51b815260206004820152602060248201527f416d6f756e7420706572207061727469636970616e7420746f6f20736d616c6c6044820152fd5b610dc790895f5260205f2090810190611354565b88610bab565b60405162461bcd60e51b8152602060048201526015602482015274546f6f206d616e79207061727469636970616e747360581b6044820152606490fd5b506001546001600160a01b03163314610b15565b346100fc575f3660031901126100fc57602060405160648152f35b346100fc575f3660031901126100fc576003546040516001600160a01b039091168152602090f35b346100fc575f3660031901126100fc576020600254604051908152f35b346100fc57602060ff8180610e92366112a6565b604051928184925191829101835e8101600581520301902054166040519015158152f35b346100fc5760803660031901126100fc576004356001600160401b0381116100fc57610ee6903690600401611242565b6024356001600160a01b03811692908390036100fc576044359160643591610f0c6114fb565b60ff60405183838237602081858101600581520301902054166111fd5784156111c057831561117b574283111561113757610f776040516323b872dd60e01b602082015233602482015230604482015285606482015260648152610f71608482611285565b866115b8565b6040518282823760208184810160048152030190206001600160401b038311610c6357610fa4815461131c565b601f81116110fc575b50825f601f821160011461109057916006915f938491611085575b508560011b9084198760031b1c19161781555b6001810180546001600160a01b0319908116331790915560028201805490911689179055600381018790556004810186905560058101805461ffff191690550155604051828282376020818481016005815203019020600160ff1982541617905581604051928392833781015f81520390209060405192835260208301527f04c9d53d935621250c2a973ca08a8ba1828a8ae00d5e5a57c23344069a08f35f60403393a460015f55005b905084013589610fc8565b5f8381526020812092508590601f198216905b8181106110e1575091600693915f9593106110c8575b5050600185811b018155610fdb565b841960f88860031b161c199086013516905588806110b9565b868401358555600190940193602093840193889350016110a3565b61112790825f5260205f20601f860160051c8101916020871061112d575b601f0160051c0190611354565b86610fad565b909150819061111a565b606460405162461bcd60e51b815260206004820152602060248201527f5363686564756c65642074696d65206d75737420626520696e206675747572656044820152fd5b60405162461bcd60e51b815260206004820152601d60248201527f416d6f756e74206d7573742062652067726561746572207468616e20300000006044820152606490fd5b60405162461bcd60e51b8152602060048201526015602482015274496e76616c696420746f6b656e206164647265737360581b6044820152606490fd5b60405162461bcd60e51b815260206004820152601760248201527f5261696e64726f7020616c7265616479206578697374730000000000000000006044820152606490fd5b9181601f840112156100fc578235916001600160401b0383116100fc57602083818601950101116100fc57565b600435906001600160a01b03821682036100fc57565b90601f801991011681019081106001600160401b03821117610c6357604052565b60206003198201126100fc576004356001600160401b0381116100fc57816023820112156100fc578060040135906001600160401b038211610c6357604051926112fa601f8401601f191660200185611285565b828452602483830101116100fc57815f92602460209301838601378301015290565b90600182811c9216801561134a575b602083101461133657565b634e487b7160e01b5f52602260045260245ffd5b91607f169161132b565b81811061135f575050565b5f8155600101611354565b1561137157565b60405162461bcd60e51b815260206004820152601760248201527f5261696e64726f7020646f6573206e6f742065786973740000000000000000006044820152606490fd5b156113bd57565b60405162461bcd60e51b815260206004820152600e60248201526d139bdd08185d5d1a1bdc9a5e995960921b6044820152606490fd5b156113fa57565b60405162461bcd60e51b815260206004820152601960248201527f5261696e64726f7020616c7265616479206578656375746564000000000000006044820152606490fd5b1561144657565b60405162461bcd60e51b815260206004820152601260248201527114985a5b991c9bdc0818d85b98d95b1b195960721b6044820152606490fd5b8054821015611495575f5260205f2001905f90565b634e487b7160e01b5f52603260045260245ffd5b818102929181159184041417156114bc57565b634e487b7160e01b5f52601160045260245ffd5b81156114da570490565b634e487b7160e01b5f52601260045260245ffd5b919082039182116114bc57565b60025f541461150a5760025f55565b60405162461bcd60e51b815260206004820152601f60248201527f5265656e7472616e637947756172643a207265656e7472616e742063616c6c006044820152606490fd5b6001546001600160a01b0316330361156357565b63118cdaa760e01b5f523360045260245ffd5b60405163a9059cbb60e01b60208201526001600160a01b0390921660248301526044808301939093529181526115b6916115b1606483611285565b6115b8565b565b905f602091828151910182855af115611610575f513d61160757506001600160a01b0381163b155b6115e75750565b635274afe760e01b5f9081526001600160a01b0391909116600452602490fd5b600114156115e0565b6040513d5f823e3d90fdfea2646970667358221220475a17a08a9e05ba2f40714eb90ce3c799f6756bf195b4c506f3344d3ebab75964736f6c634300081a0033",
					"opcodes": "PUSH1 0x80 CALLVALUE PUSH2 0xDB JUMPI PUSH1 0x1F PUSH2 0x1745 CODESIZE DUP2 SWAP1 SUB SWAP2 DUP3 ADD PUSH1 0x1F NOT AND DUP4 ADD SWAP2 PUSH1 0x1 PUSH1 0x1 PUSH1 0x40 SHL SUB DUP4 GT DUP5 DUP5 LT OR PUSH2 0xDF JUMPI DUP1 DUP5 SWAP3 PUSH1 0x20 SWAP5 PUSH1 0x40 MSTORE DUP4 CODECOPY DUP2 ADD SUB SLT PUSH2 0xDB JUMPI MLOAD PUSH1 0x1 PUSH1 0x1 PUSH1 0xA0 SHL SUB DUP2 AND SWAP1 DUP2 SWAP1 SUB PUSH2 0xDB JUMPI PUSH1 0x1 PUSH0 SSTORE CALLER ISZERO PUSH2 0xC8 JUMPI PUSH1 0x1 DUP1 SLOAD CALLER PUSH1 0x1 PUSH1 0x1 PUSH1 0xA0 SHL SUB NOT DUP3 AND DUP2 OR SWAP1 SWAP3 SSTORE PUSH1 0x40 MLOAD SWAP3 SWAP2 SWAP1 PUSH1 0x1 PUSH1 0x1 PUSH1 0xA0 SHL SUB AND PUSH32 0x8BE0079C531659141344CD1FD0A4F28419497F9722A3DAAFE3B4186F6B6457E0 PUSH0 DUP1 LOG3 PUSH1 0xA PUSH1 0x2 SSTORE PUSH1 0x3 DUP1 SLOAD PUSH1 0x1 PUSH1 0x1 PUSH1 0xA0 SHL SUB NOT AND SWAP2 SWAP1 SWAP2 OR SWAP1 SSTORE PUSH2 0x1651 SWAP1 DUP2 PUSH2 0xF4 DUP3 CODECOPY RETURN JUMPDEST PUSH4 0x1E4FBDF7 PUSH1 0xE0 SHL PUSH0 MSTORE PUSH0 PUSH1 0x4 MSTORE PUSH1 0x24 PUSH0 REVERT JUMPDEST PUSH0 DUP1 REVERT JUMPDEST PUSH4 0x4E487B71 PUSH1 0xE0 SHL PUSH0 MSTORE PUSH1 0x41 PUSH1 0x4 MSTORE PUSH1 0x24 PUSH0 REVERT INVALID PUSH1 0x80 PUSH1 0x40 MSTORE PUSH1 0x4 CALLDATASIZE LT ISZERO PUSH2 0x11 JUMPI PUSH0 DUP1 REVERT JUMPDEST PUSH0 CALLDATALOAD PUSH1 0xE0 SHR DUP1 PUSH4 0x2749BE7 EQ PUSH2 0xEB6 JUMPI DUP1 PUSH4 0xD12CBA2 EQ PUSH2 0xE7E JUMPI DUP1 PUSH4 0x22DCD13E EQ PUSH2 0xE61 JUMPI DUP1 PUSH4 0x46904840 EQ PUSH2 0xE39 JUMPI DUP1 PUSH4 0x4898BA63 EQ PUSH2 0xE1E JUMPI DUP1 PUSH4 0x6B0DB1FA EQ PUSH2 0xA56 JUMPI DUP1 PUSH4 0x715018A6 EQ PUSH2 0x9FB JUMPI DUP1 PUSH4 0x72521D47 EQ PUSH2 0x92D JUMPI DUP1 PUSH4 0x79020194 EQ PUSH2 0x8EE JUMPI DUP1 PUSH4 0x7E90DEF7 EQ PUSH2 0x7EB JUMPI DUP1 PUSH4 0x8DA5CB5B EQ PUSH2 0x7C3 JUMPI DUP1 PUSH4 0x9A43DC0C EQ PUSH2 0x537 JUMPI DUP1 PUSH4 0x9B0F14B5 EQ PUSH2 0x3B1 JUMPI DUP1 PUSH4 0xAA0B5988 EQ PUSH2 0x354 JUMPI DUP1 PUSH4 0xB28A9D6F EQ PUSH2 0x209 JUMPI DUP1 PUSH4 0xF160D369 EQ PUSH2 0x186 JUMPI DUP1 PUSH4 0xF2FDE38B EQ PUSH2 0x100 JUMPI PUSH4 0xF3BAF070 EQ PUSH2 0xDF JUMPI PUSH0 DUP1 REVERT JUMPDEST CALLVALUE PUSH2 0xFC JUMPI PUSH0 CALLDATASIZE PUSH1 0x3 NOT ADD SLT PUSH2 0xFC JUMPI PUSH1 0x20 PUSH1 0x40 MLOAD PUSH3 0xF4240 DUP2 MSTORE RETURN JUMPDEST PUSH0 DUP1 REVERT JUMPDEST CALLVALUE PUSH2 0xFC JUMPI PUSH1 0x20 CALLDATASIZE PUSH1 0x3 NOT ADD SLT PUSH2 0xFC JUMPI PUSH2 0x119 PUSH2 0x126F JUMP JUMPDEST PUSH2 0x121 PUSH2 0x154F JUMP JUMPDEST PUSH1 0x1 PUSH1 0x1 PUSH1 0xA0 SHL SUB AND DUP1 ISZERO PUSH2 0x173 JUMPI PUSH1 0x1 DUP1 SLOAD PUSH1 0x1 PUSH1 0x1 PUSH1 0xA0 SHL SUB NOT DUP2 AND DUP4 OR SWAP1 SWAP2 SSTORE PUSH1 0x1 PUSH1 0x1 PUSH1 0xA0 SHL SUB AND PUSH32 0x8BE0079C531659141344CD1FD0A4F28419497F9722A3DAAFE3B4186F6B6457E0 PUSH0 DUP1 LOG3 STOP JUMPDEST PUSH4 0x1E4FBDF7 PUSH1 0xE0 SHL PUSH0 MSTORE PUSH0 PUSH1 0x4 MSTORE PUSH1 0x24 PUSH0 REVERT JUMPDEST CALLVALUE PUSH2 0xFC JUMPI PUSH1 0x20 CALLDATASIZE PUSH1 0x3 NOT ADD SLT PUSH2 0xFC JUMPI PUSH2 0x19F PUSH2 0x126F JUMP JUMPDEST PUSH2 0x1A7 PUSH2 0x154F JUMP JUMPDEST PUSH1 0x1 PUSH1 0x1 PUSH1 0xA0 SHL SUB AND DUP1 ISZERO PUSH2 0x1D2 JUMPI PUSH12 0xFFFFFFFFFFFFFFFFFFFFFFFF PUSH1 0xA0 SHL PUSH1 0x3 SLOAD AND OR PUSH1 0x3 SSTORE PUSH0 DUP1 RETURN JUMPDEST PUSH1 0x40 MLOAD PUSH3 0x461BCD PUSH1 0xE5 SHL DUP2 MSTORE PUSH1 0x20 PUSH1 0x4 DUP3 ADD MSTORE PUSH1 0xF PUSH1 0x24 DUP3 ADD MSTORE PUSH15 0x496E76616C69642061646472657373 PUSH1 0x88 SHL PUSH1 0x44 DUP3 ADD MSTORE PUSH1 0x64 SWAP1 REVERT JUMPDEST CALLVALUE PUSH2 0xFC JUMPI PUSH1 0x20 DUP1 PUSH2 0x21A CALLDATASIZE PUSH2 0x12A6 JUMP JUMPDEST PUSH1 0x40 MLOAD SWAP3 DUP2 DUP5 SWAP3 MLOAD SWAP2 DUP3 SWAP2 ADD DUP4 MCOPY DUP2 ADD PUSH1 0x4 DUP2 MSTORE SUB ADD SWAP1 KECCAK256 PUSH1 0x40 MLOAD SWAP1 PUSH0 SWAP2 DUP2 SLOAD PUSH2 0x243 DUP2 PUSH2 0x131C JUMP JUMPDEST DUP1 DUP4 MSTORE PUSH1 0x20 DUP4 ADD SWAP2 PUSH1 0x1 DUP2 AND SWAP1 DUP2 ISZERO PUSH2 0x339 JUMPI POP PUSH1 0x1 EQ PUSH2 0x300 JUMPI JUMPDEST POP PUSH2 0x270 DUP3 PUSH2 0x120 SWAP5 SWAP6 SUB DUP4 PUSH2 0x1285 JUMP JUMPDEST PUSH1 0x1 DUP1 PUSH1 0xA0 SHL SUB PUSH1 0x1 DUP6 ADD SLOAD AND SWAP4 PUSH1 0xFF PUSH1 0x1 DUP1 PUSH1 0xA0 SHL SUB PUSH1 0x2 DUP4 ADD SLOAD AND SWAP2 PUSH1 0x3 DUP2 ADD SLOAD PUSH1 0x4 DUP3 ADD SLOAD SWAP1 PUSH1 0x6 PUSH1 0x5 DUP5 ADD SLOAD SWAP4 ADD SLOAD SWAP5 PUSH1 0x40 MLOAD SWAP10 DUP11 SWAP9 PUSH2 0x100 DUP11 MSTORE MLOAD DUP1 SWAP9 DUP2 PUSH2 0x100 DUP13 ADD MSTORE DUP12 DUP12 ADD MCOPY PUSH0 DUP10 DUP10 ADD DUP12 ADD MSTORE PUSH1 0x20 DUP10 ADD MSTORE PUSH1 0x40 DUP9 ADD MSTORE PUSH1 0x60 DUP8 ADD MSTORE PUSH1 0x80 DUP7 ADD MSTORE DUP1 DUP3 AND ISZERO ISZERO PUSH1 0xA0 DUP7 ADD MSTORE PUSH1 0x8 SHR AND ISZERO ISZERO PUSH1 0xC0 DUP5 ADD MSTORE PUSH1 0xE0 DUP4 ADD MSTORE PUSH1 0x1F ADD PUSH1 0x1F NOT AND DUP2 ADD SUB ADD SWAP1 RETURN JUMPDEST SWAP4 POP DUP3 PUSH0 MSTORE PUSH1 0x20 PUSH0 KECCAK256 PUSH0 SWAP1 JUMPDEST DUP6 DUP3 LT PUSH2 0x323 JUMPI POP DUP3 ADD PUSH1 0x20 ADD SWAP4 POP PUSH2 0x270 PUSH2 0x25F JUMP JUMPDEST PUSH1 0x1 DUP2 PUSH1 0x20 SWAP3 SLOAD DUP4 DUP6 DUP9 ADD ADD MSTORE ADD SWAP2 ADD SWAP1 PUSH2 0x30C JUMP JUMPDEST PUSH1 0xFF NOT AND DUP4 MSTORE POP ISZERO ISZERO PUSH1 0x5 SHL DUP3 ADD PUSH1 0x20 ADD SWAP4 POP PUSH2 0x270 PUSH2 0x25F JUMP JUMPDEST CALLVALUE PUSH2 0xFC JUMPI PUSH1 0x20 CALLDATASIZE PUSH1 0x3 NOT ADD SLT PUSH2 0xFC JUMPI PUSH1 0x4 CALLDATALOAD PUSH2 0x370 PUSH2 0x154F JUMP JUMPDEST PUSH1 0x64 DUP2 GT PUSH2 0x37D JUMPI PUSH1 0x2 SSTORE STOP JUMPDEST PUSH1 0x40 MLOAD PUSH3 0x461BCD PUSH1 0xE5 SHL DUP2 MSTORE PUSH1 0x20 PUSH1 0x4 DUP3 ADD MSTORE PUSH1 0xC PUSH1 0x24 DUP3 ADD MSTORE PUSH12 0x8CCACA40E8DEDE40D0D2CED PUSH1 0xA3 SHL PUSH1 0x44 DUP3 ADD MSTORE PUSH1 0x64 SWAP1 REVERT JUMPDEST CALLVALUE PUSH2 0xFC JUMPI PUSH1 0x20 CALLDATASIZE PUSH1 0x3 NOT ADD SLT PUSH2 0xFC JUMPI PUSH1 0x4 CALLDATALOAD PUSH1 0x1 PUSH1 0x1 PUSH1 0x40 SHL SUB DUP2 GT PUSH2 0xFC JUMPI PUSH2 0x3E1 SWAP1 CALLDATASIZE SWAP1 PUSH1 0x4 ADD PUSH2 0x1242 JUMP JUMPDEST SWAP1 PUSH2 0x3EA PUSH2 0x14FB JUMP JUMPDEST PUSH2 0x40B PUSH1 0xFF PUSH1 0x40 MLOAD DUP5 DUP5 DUP3 CALLDATACOPY PUSH1 0x20 DUP2 DUP7 DUP2 ADD PUSH1 0x5 DUP2 MSTORE SUB ADD SWAP1 KECCAK256 SLOAD AND PUSH2 0x136A JUMP JUMPDEST PUSH1 0x40 MLOAD DUP3 DUP3 DUP3 CALLDATACOPY PUSH1 0x4 DUP4 DUP3 ADD SWAP1 DUP2 MSTORE DUP2 SWAP1 SUB PUSH1 0x20 ADD SWAP1 KECCAK256 PUSH1 0x1 DUP2 ADD DUP1 SLOAD PUSH1 0x1 PUSH1 0x1 PUSH1 0xA0 SHL SUB AND SWAP4 CALLER DUP6 EQ DUP1 ISZERO PUSH2 0x523 JUMPI JUMPDEST PUSH2 0x445 SWAP1 PUSH2 0x13B6 JUMP JUMPDEST PUSH1 0x5 DUP4 ADD SWAP2 DUP3 SLOAD PUSH2 0x459 PUSH1 0xFF DUP3 AND ISZERO PUSH2 0x13F3 JUMP JUMPDEST PUSH1 0xFF DUP2 PUSH1 0x8 SHR AND PUSH2 0x4DE JUMPI PUSH32 0x16B1484ADF14DDC11AD828089C5F7AC1932AE15CAC0FD6100804B92746616B04 SWAP5 PUSH1 0x20 SWAP5 PUSH2 0x100 PUSH2 0x4B2 SWAP4 PUSH2 0xFF00 NOT AND OR SWAP1 SSTORE PUSH1 0x3 PUSH1 0x1 DUP1 PUSH1 0xA0 SHL SUB PUSH1 0x2 DUP4 ADD SLOAD AND SWAP2 ADD SWAP8 DUP9 SLOAD SWAP2 PUSH2 0x1576 JUMP JUMPDEST PUSH1 0x1 DUP1 PUSH1 0xA0 SHL SUB SWAP1 SLOAD AND SWAP5 SLOAD SWAP4 DUP2 PUSH1 0x40 MLOAD SWAP3 DUP4 SWAP3 DUP4 CALLDATACOPY DUP2 ADD PUSH0 DUP2 MSTORE SUB SWAP1 KECCAK256 SWAP3 PUSH1 0x40 MLOAD SWAP1 DUP2 MSTORE LOG3 PUSH1 0x1 PUSH0 SSTORE STOP JUMPDEST PUSH1 0x40 MLOAD PUSH3 0x461BCD PUSH1 0xE5 SHL DUP2 MSTORE PUSH1 0x20 PUSH1 0x4 DUP3 ADD MSTORE PUSH1 0x1A PUSH1 0x24 DUP3 ADD MSTORE PUSH32 0x5261696E64726F7020616C72656164792063616E63656C6C6564000000000000 PUSH1 0x44 DUP3 ADD MSTORE PUSH1 0x64 SWAP1 REVERT JUMPDEST POP PUSH1 0x1 SLOAD PUSH1 0x1 PUSH1 0x1 PUSH1 0xA0 SHL SUB AND CALLER EQ PUSH2 0x43C JUMP JUMPDEST CALLVALUE PUSH2 0xFC JUMPI PUSH1 0x20 CALLDATASIZE PUSH1 0x3 NOT ADD SLT PUSH2 0xFC JUMPI PUSH1 0x4 CALLDATALOAD PUSH1 0x1 PUSH1 0x1 PUSH1 0x40 SHL SUB DUP2 GT PUSH2 0xFC JUMPI PUSH2 0x567 SWAP1 CALLDATASIZE SWAP1 PUSH1 0x4 ADD PUSH2 0x1242 JUMP JUMPDEST PUSH2 0x56F PUSH2 0x14FB JUMP JUMPDEST PUSH2 0x590 PUSH1 0xFF PUSH1 0x40 MLOAD DUP4 DUP6 DUP3 CALLDATACOPY PUSH1 0x20 DUP2 DUP6 DUP2 ADD PUSH1 0x5 DUP2 MSTORE SUB ADD SWAP1 KECCAK256 SLOAD AND PUSH2 0x136A JUMP JUMPDEST PUSH1 0x40 MLOAD DUP2 DUP4 DUP3 CALLDATACOPY PUSH1 0x20 DUP2 DUP4 DUP2 ADD PUSH1 0x4 DUP2 MSTORE SUB ADD SWAP1 KECCAK256 SWAP1 PUSH1 0x1 DUP3 ADD SWAP1 PUSH1 0x1 DUP1 PUSH1 0xA0 SHL SUB DUP3 SLOAD AND CALLER EQ DUP1 ISZERO PUSH2 0x7AF JUMPI JUMPDEST PUSH2 0x5C7 SWAP1 PUSH2 0x13B6 JUMP JUMPDEST PUSH1 0x5 DUP4 ADD SWAP4 DUP5 SLOAD SWAP5 PUSH2 0x5DC PUSH1 0xFF DUP8 AND ISZERO PUSH2 0x13F3 JUMP JUMPDEST PUSH2 0x5EC PUSH1 0xFF DUP8 PUSH1 0x8 SHR AND ISZERO PUSH2 0x143F JUMP JUMPDEST PUSH1 0x4 DUP6 ADD SLOAD TIMESTAMP LT PUSH2 0x773 JUMPI PUSH1 0x6 DUP6 ADD SWAP1 DUP2 SLOAD SWAP7 DUP8 ISZERO PUSH2 0x73C JUMPI PUSH1 0x1 SWAP1 PUSH1 0xFF SWAP8 SWAP6 SWAP8 NOT AND OR SWAP1 SSTORE PUSH1 0x3 DUP4 ADD SLOAD SWAP5 PUSH2 0x632 PUSH2 0x2710 PUSH2 0x62A PUSH1 0x2 SLOAD DUP10 PUSH2 0x14A9 JUMP JUMPDEST DIV DUP1 SWAP8 PUSH2 0x14EE JUMP JUMPDEST SWAP2 PUSH2 0x650 PUSH2 0x64A PUSH2 0x643 DUP11 DUP7 PUSH2 0x14D0 JUMP JUMPDEST SWAP10 DUP11 PUSH2 0x14A9 JUMP JUMPDEST DUP5 PUSH2 0x14EE JUMP JUMPDEST PUSH1 0x2 DUP7 ADD SLOAD PUSH1 0x1 PUSH1 0x1 PUSH1 0xA0 SHL SUB AND SWAP7 PUSH1 0x8 SWAP1 SWAP7 ADD SWAP6 SWAP1 PUSH0 JUMPDEST DUP4 SLOAD DUP2 LT ISZERO PUSH2 0x69C JUMPI DUP1 PUSH2 0x696 DUP13 PUSH2 0x682 PUSH1 0x1 SWAP5 DUP13 PUSH2 0x1480 JUMP JUMPDEST DUP6 DUP1 PUSH1 0xA0 SHL SUB SWAP2 SLOAD SWAP1 PUSH1 0x3 SHL SHR AND DUP13 PUSH2 0x1576 JUMP JUMPDEST ADD PUSH2 0x668 JUMP JUMPDEST POP PUSH1 0x60 SWAP7 POP PUSH32 0xE56EBA28928C6808FF8D65117CC1D7BA272E42F06114B621406245FE7E42FFF2 SWAP8 DUP11 SWAP10 DUP1 PUSH2 0x71F JUMPI JUMPDEST POP DUP2 PUSH2 0x700 JUMPI JUMPDEST POP POP POP SLOAD SWAP3 DUP2 PUSH1 0x40 MLOAD SWAP3 DUP4 SWAP3 DUP4 CALLDATACOPY DUP2 ADD PUSH0 DUP2 MSTORE SUB SWAP1 KECCAK256 SWAP5 PUSH1 0x40 MLOAD SWAP3 DUP4 MSTORE PUSH1 0x20 DUP4 ADD MSTORE PUSH1 0x40 DUP3 ADD MSTORE LOG2 PUSH1 0x1 PUSH0 SSTORE STOP JUMPDEST SWAP2 SLOAD PUSH2 0x717 SWAP3 PUSH1 0x1 PUSH1 0x1 PUSH1 0xA0 SHL SUB SWAP1 SWAP2 AND SWAP1 PUSH2 0x1576 JUMP JUMPDEST DUP8 DUP1 DUP1 PUSH2 0x6D2 JUMP JUMPDEST PUSH1 0x3 SLOAD PUSH2 0x736 SWAP2 SWAP1 PUSH1 0x1 PUSH1 0x1 PUSH1 0xA0 SHL SUB AND DUP4 PUSH2 0x1576 JUMP JUMPDEST DUP11 PUSH2 0x6CB JUMP JUMPDEST PUSH1 0x40 MLOAD PUSH3 0x461BCD PUSH1 0xE5 SHL DUP2 MSTORE PUSH1 0x20 PUSH1 0x4 DUP3 ADD MSTORE PUSH1 0xF PUSH1 0x24 DUP3 ADD MSTORE PUSH15 0x4E6F207061727469636970616E7473 PUSH1 0x88 SHL PUSH1 0x44 DUP3 ADD MSTORE PUSH1 0x64 SWAP1 REVERT JUMPDEST PUSH1 0x40 MLOAD PUSH3 0x461BCD PUSH1 0xE5 SHL DUP2 MSTORE PUSH1 0x20 PUSH1 0x4 DUP3 ADD MSTORE PUSH1 0x14 PUSH1 0x24 DUP3 ADD MSTORE PUSH20 0x546F6F206561726C7920746F2065786563757465 PUSH1 0x60 SHL PUSH1 0x44 DUP3 ADD MSTORE PUSH1 0x64 SWAP1 REVERT JUMPDEST POP PUSH1 0x1 SLOAD PUSH1 0x1 PUSH1 0x1 PUSH1 0xA0 SHL SUB AND CALLER EQ PUSH2 0x5BE JUMP JUMPDEST CALLVALUE PUSH2 0xFC JUMPI PUSH0 CALLDATASIZE PUSH1 0x3 NOT ADD SLT PUSH2 0xFC JUMPI PUSH1 0x1 SLOAD PUSH1 0x40 MLOAD PUSH1 0x1 PUSH1 0x1 PUSH1 0xA0 SHL SUB SWAP1 SWAP2 AND DUP2 MSTORE PUSH1 0x20 SWAP1 RETURN JUMPDEST CALLVALUE PUSH2 0xFC JUMPI PUSH1 0x20 CALLDATASIZE PUSH1 0x3 NOT ADD SLT PUSH2 0xFC JUMPI PUSH1 0x4 CALLDATALOAD PUSH1 0x1 PUSH1 0x1 PUSH1 0x40 SHL SUB DUP2 GT PUSH2 0xFC JUMPI PUSH1 0x20 PUSH2 0x81F PUSH1 0x8 SWAP3 CALLDATASIZE SWAP1 PUSH1 0x4 ADD PUSH2 0x1242 JUMP JUMPDEST SWAP2 SWAP1 PUSH2 0x841 PUSH1 0xFF PUSH1 0x40 MLOAD DUP6 DUP5 DUP3 CALLDATACOPY DUP5 DUP2 DUP8 DUP2 ADD PUSH1 0x5 DUP2 MSTORE SUB ADD SWAP1 KECCAK256 SLOAD AND PUSH2 0x136A JUMP JUMPDEST DUP3 PUSH1 0x40 MLOAD SWAP4 DUP5 SWAP3 DUP4 CALLDATACOPY DUP2 ADD PUSH1 0x4 DUP2 MSTORE SUB ADD SWAP1 KECCAK256 ADD PUSH1 0x40 MLOAD DUP1 PUSH1 0x20 DUP4 SLOAD SWAP2 DUP3 DUP2 MSTORE ADD SWAP1 DUP2 SWAP4 PUSH0 MSTORE PUSH1 0x20 PUSH0 KECCAK256 SWAP1 PUSH0 JUMPDEST DUP2 DUP2 LT PUSH2 0x8CF JUMPI POP POP POP DUP2 PUSH2 0x884 SWAP2 SUB DUP3 PUSH2 0x1285 JUMP JUMPDEST PUSH1 0x40 MLOAD SWAP2 DUP3 SWAP2 PUSH1 0x20 DUP4 ADD SWAP1 PUSH1 0x20 DUP5 MSTORE MLOAD DUP1 SWAP2 MSTORE PUSH1 0x40 DUP4 ADD SWAP2 SWAP1 PUSH0 JUMPDEST DUP2 DUP2 LT PUSH2 0x8AD JUMPI POP POP POP SUB SWAP1 RETURN JUMPDEST DUP3 MLOAD PUSH1 0x1 PUSH1 0x1 PUSH1 0xA0 SHL SUB AND DUP5 MSTORE DUP6 SWAP5 POP PUSH1 0x20 SWAP4 DUP5 ADD SWAP4 SWAP1 SWAP3 ADD SWAP2 PUSH1 0x1 ADD PUSH2 0x89F JUMP JUMPDEST DUP3 SLOAD PUSH1 0x1 PUSH1 0x1 PUSH1 0xA0 SHL SUB AND DUP5 MSTORE PUSH1 0x20 SWAP1 SWAP4 ADD SWAP3 PUSH1 0x1 SWAP3 DUP4 ADD SWAP3 ADD PUSH2 0x86E JUMP JUMPDEST CALLVALUE PUSH2 0xFC JUMPI PUSH1 0x40 CALLDATASIZE PUSH1 0x3 NOT ADD SLT PUSH2 0xFC JUMPI PUSH2 0x92B PUSH2 0x90A PUSH2 0x126F JUMP JUMPDEST PUSH2 0x912 PUSH2 0x154F JUMP JUMPDEST PUSH1 0x1 SLOAD PUSH1 0x24 CALLDATALOAD SWAP2 PUSH1 0x1 PUSH1 0x1 PUSH1 0xA0 SHL SUB SWAP2 DUP3 AND SWAP2 AND PUSH2 0x1576 JUMP JUMPDEST STOP JUMPDEST CALLVALUE PUSH2 0xFC JUMPI PUSH1 0x20 CALLDATASIZE PUSH1 0x3 NOT ADD SLT PUSH2 0xFC JUMPI PUSH1 0x4 CALLDATALOAD PUSH1 0x1 PUSH1 0x1 PUSH1 0x40 SHL SUB DUP2 GT PUSH2 0xFC JUMPI PUSH1 0x20 PUSH2 0x961 PUSH1 0xE0 SWAP3 CALLDATASIZE SWAP1 PUSH1 0x4 ADD PUSH2 0x1242 JUMP JUMPDEST SWAP2 SWAP1 PUSH2 0x983 PUSH1 0xFF PUSH1 0x40 MLOAD DUP6 DUP5 DUP3 CALLDATACOPY DUP5 DUP2 DUP8 DUP2 ADD PUSH1 0x5 DUP2 MSTORE SUB ADD SWAP1 KECCAK256 SLOAD AND PUSH2 0x136A JUMP JUMPDEST DUP3 PUSH1 0x40 MLOAD SWAP4 DUP5 SWAP3 DUP4 CALLDATACOPY DUP2 ADD PUSH1 0x4 DUP2 MSTORE SUB ADD SWAP1 KECCAK256 PUSH1 0x1 DUP1 PUSH1 0xA0 SHL SUB PUSH1 0x1 DUP3 ADD SLOAD AND SWAP1 PUSH1 0xFF PUSH1 0x1 DUP1 PUSH1 0xA0 SHL SUB PUSH1 0x2 DUP4 ADD SLOAD AND SWAP2 PUSH1 0x3 DUP2 ADD SLOAD PUSH1 0x4 DUP3 ADD SLOAD SWAP1 PUSH1 0x6 PUSH1 0x5 DUP5 ADD SLOAD SWAP4 ADD SLOAD SWAP5 PUSH1 0x40 MLOAD SWAP7 DUP8 MSTORE PUSH1 0x20 DUP8 ADD MSTORE PUSH1 0x40 DUP7 ADD MSTORE PUSH1 0x60 DUP6 ADD MSTORE DUP2 DUP2 AND ISZERO ISZERO PUSH1 0x80 DUP6 ADD MSTORE PUSH1 0x8 SHR AND ISZERO ISZERO PUSH1 0xA0 DUP4 ADD MSTORE PUSH1 0xC0 DUP3 ADD MSTORE RETURN JUMPDEST CALLVALUE PUSH2 0xFC JUMPI PUSH0 CALLDATASIZE PUSH1 0x3 NOT ADD SLT PUSH2 0xFC JUMPI PUSH2 0xA13 PUSH2 0x154F JUMP JUMPDEST PUSH1 0x1 DUP1 SLOAD PUSH1 0x1 PUSH1 0x1 PUSH1 0xA0 SHL SUB NOT DUP2 AND SWAP1 SWAP2 SSTORE PUSH0 SWAP1 PUSH1 0x1 PUSH1 0x1 PUSH1 0xA0 SHL SUB AND PUSH32 0x8BE0079C531659141344CD1FD0A4F28419497F9722A3DAAFE3B4186F6B6457E0 DUP3 DUP1 LOG3 STOP JUMPDEST CALLVALUE PUSH2 0xFC JUMPI PUSH1 0x40 CALLDATASIZE PUSH1 0x3 NOT ADD SLT PUSH2 0xFC JUMPI PUSH1 0x4 CALLDATALOAD PUSH1 0x1 PUSH1 0x1 PUSH1 0x40 SHL SUB DUP2 GT PUSH2 0xFC JUMPI PUSH2 0xA86 SWAP1 CALLDATASIZE SWAP1 PUSH1 0x4 ADD PUSH2 0x1242 JUMP JUMPDEST SWAP1 PUSH1 0x24 CALLDATALOAD SWAP1 PUSH1 0x1 PUSH1 0x1 PUSH1 0x40 SHL SUB DUP3 GT PUSH2 0xFC JUMPI CALLDATASIZE PUSH1 0x23 DUP4 ADD SLT ISZERO PUSH2 0xFC JUMPI DUP2 PUSH1 0x4 ADD CALLDATALOAD PUSH1 0x1 PUSH1 0x1 PUSH1 0x40 SHL SUB DUP2 GT PUSH2 0xFC JUMPI CALLDATASIZE PUSH1 0x24 DUP3 PUSH1 0x5 SHL DUP6 ADD ADD GT PUSH2 0xFC JUMPI PUSH2 0xAE7 PUSH1 0xFF PUSH1 0x40 MLOAD DUP7 DUP6 DUP3 CALLDATACOPY PUSH1 0x20 DUP2 DUP9 DUP2 ADD PUSH1 0x5 DUP2 MSTORE SUB ADD SWAP1 KECCAK256 SLOAD AND PUSH2 0x136A JUMP JUMPDEST PUSH1 0x40 MLOAD DUP5 DUP4 DUP3 CALLDATACOPY PUSH1 0x20 DUP2 DUP7 DUP2 ADD PUSH1 0x4 DUP2 MSTORE SUB ADD SWAP1 KECCAK256 SWAP3 PUSH1 0x1 DUP5 ADD SWAP1 PUSH1 0x1 DUP1 PUSH1 0xA0 SHL SUB DUP3 SLOAD AND CALLER EQ DUP1 ISZERO PUSH2 0xE0A JUMPI JUMPDEST PUSH2 0xB1E SWAP1 PUSH2 0x13B6 JUMP JUMPDEST PUSH2 0xB3E PUSH1 0xFF PUSH1 0x5 DUP8 ADD SLOAD PUSH2 0xB34 DUP3 DUP3 AND ISZERO PUSH2 0x13F3 JUMP JUMPDEST PUSH1 0x8 SHR AND ISZERO PUSH2 0x143F JUMP JUMPDEST PUSH3 0xF4240 DUP4 GT PUSH2 0xDCD JUMPI PUSH1 0x8 DUP6 ADD SWAP6 SWAP4 SWAP5 PUSH1 0x7 DUP2 ADD SWAP5 PUSH0 JUMPDEST DUP9 SLOAD DUP2 LT ISZERO PUSH2 0xB99 JUMPI DUP1 PUSH2 0xB6C PUSH1 0x1 SWAP3 DUP12 PUSH2 0x1480 JUMP JUMPDEST DUP4 DUP1 PUSH1 0xA0 SHL SUB SWAP2 SLOAD SWAP1 PUSH1 0x3 SHL SHR AND DUP3 DUP1 PUSH1 0xA0 SHL SUB AND PUSH0 MSTORE DUP8 PUSH1 0x20 MSTORE PUSH1 0x40 PUSH0 KECCAK256 PUSH1 0xFF NOT DUP2 SLOAD AND SWAP1 SSTORE ADD PUSH2 0xB56 JUMP JUMPDEST POP SWAP1 SWAP2 SWAP3 SWAP5 SWAP4 SWAP6 DUP8 SLOAD PUSH0 DUP10 SSTORE DUP1 PUSH2 0xDB3 JUMPI JUMPDEST POP PUSH0 JUMPDEST DUP8 DUP2 LT ISZERO PUSH2 0xD01 JUMPI PUSH1 0x24 PUSH1 0x5 DUP3 SWAP1 SHL DUP7 ADD ADD CALLDATALOAD PUSH1 0x1 PUSH1 0x1 PUSH1 0xA0 SHL SUB DUP2 AND SWAP2 SWAP1 DUP3 SWAP1 SUB PUSH2 0xFC JUMPI DUP2 ISZERO PUSH2 0xCBC JUMPI DUP8 SLOAD PUSH1 0x1 PUSH1 0x1 PUSH1 0xA0 SHL SUB AND DUP3 EQ PUSH2 0xC77 JUMPI DUP2 PUSH0 MSTORE DUP7 PUSH1 0x20 MSTORE PUSH1 0xFF PUSH1 0x40 PUSH0 KECCAK256 SLOAD AND ISZERO PUSH2 0xC0A JUMPI JUMPDEST PUSH1 0x1 SWAP2 POP ADD PUSH2 0xBAE JUMP JUMPDEST DUP2 PUSH0 MSTORE DUP7 PUSH1 0x20 MSTORE PUSH1 0x40 PUSH0 KECCAK256 PUSH1 0x1 PUSH1 0xFF NOT DUP3 SLOAD AND OR SWAP1 SSTORE DUP10 SLOAD SWAP2 PUSH9 0x10000000000000000 DUP4 LT ISZERO PUSH2 0xC63 JUMPI PUSH2 0xC45 DUP4 PUSH1 0x1 DUP1 SWAP6 ADD DUP14 SSTORE DUP13 PUSH2 0x1480 JUMP JUMPDEST DUP2 SWAP3 SWAP2 SLOAD SWAP1 PUSH1 0x3 SHL SWAP2 DUP3 SHL SWAP2 DUP6 DUP1 PUSH1 0xA0 SHL SUB SWAP1 SHL NOT AND OR SWAP1 SSTORE PUSH2 0xC00 JUMP JUMPDEST PUSH4 0x4E487B71 PUSH1 0xE0 SHL PUSH0 MSTORE PUSH1 0x41 PUSH1 0x4 MSTORE PUSH1 0x24 PUSH0 REVERT JUMPDEST PUSH1 0x40 MLOAD PUSH3 0x461BCD PUSH1 0xE5 SHL DUP2 MSTORE PUSH1 0x20 PUSH1 0x4 DUP3 ADD MSTORE PUSH1 0x1A PUSH1 0x24 DUP3 ADD MSTORE PUSH32 0x486F73742063616E6E6F74206265207061727469636970616E74000000000000 PUSH1 0x44 DUP3 ADD MSTORE PUSH1 0x64 SWAP1 REVERT JUMPDEST PUSH1 0x40 MLOAD PUSH3 0x461BCD PUSH1 0xE5 SHL DUP2 MSTORE PUSH1 0x20 PUSH1 0x4 DUP3 ADD MSTORE PUSH1 0x1B PUSH1 0x24 DUP3 ADD MSTORE PUSH32 0x496E76616C6964207061727469636970616E7420616464726573730000000000 PUSH1 0x44 DUP3 ADD MSTORE PUSH1 0x64 SWAP1 REVERT JUMPDEST POP DUP8 SLOAD DUP4 DUP2 PUSH1 0x6 DUP2 SWAP7 ADD SSTORE DUP2 PUSH2 0xD53 JUMPI JUMPDEST POP PUSH32 0x33413169B586F09864FC3649CE426FAF08FF20FF0580328A11860E98AB66A014 PUSH1 0x20 DUP5 DUP5 DUP2 PUSH1 0x40 MLOAD SWAP3 DUP4 SWAP3 DUP4 CALLDATACOPY DUP2 ADD PUSH0 DUP2 MSTORE SUB SWAP1 KECCAK256 SWAP3 PUSH1 0x40 MLOAD SWAP1 DUP2 MSTORE LOG2 STOP JUMPDEST PUSH1 0x64 SWAP2 PUSH1 0x3 PUSH2 0xD63 SWAP3 ADD SLOAD PUSH2 0x14D0 JUMP JUMPDEST LT PUSH2 0xD6F JUMPI DUP3 DUP5 PUSH2 0xD12 JUMP JUMPDEST PUSH1 0x64 PUSH1 0x40 MLOAD PUSH3 0x461BCD PUSH1 0xE5 SHL DUP2 MSTORE PUSH1 0x20 PUSH1 0x4 DUP3 ADD MSTORE PUSH1 0x20 PUSH1 0x24 DUP3 ADD MSTORE PUSH32 0x416D6F756E7420706572207061727469636970616E7420746F6F20736D616C6C PUSH1 0x44 DUP3 ADD MSTORE REVERT JUMPDEST PUSH2 0xDC7 SWAP1 DUP10 PUSH0 MSTORE PUSH1 0x20 PUSH0 KECCAK256 SWAP1 DUP2 ADD SWAP1 PUSH2 0x1354 JUMP JUMPDEST DUP9 PUSH2 0xBAB JUMP JUMPDEST PUSH1 0x40 MLOAD PUSH3 0x461BCD PUSH1 0xE5 SHL DUP2 MSTORE PUSH1 0x20 PUSH1 0x4 DUP3 ADD MSTORE PUSH1 0x15 PUSH1 0x24 DUP3 ADD MSTORE PUSH21 0x546F6F206D616E79207061727469636970616E7473 PUSH1 0x58 SHL PUSH1 0x44 DUP3 ADD MSTORE PUSH1 0x64 SWAP1 REVERT JUMPDEST POP PUSH1 0x1 SLOAD PUSH1 0x1 PUSH1 0x1 PUSH1 0xA0 SHL SUB AND CALLER EQ PUSH2 0xB15 JUMP JUMPDEST CALLVALUE PUSH2 0xFC JUMPI PUSH0 CALLDATASIZE PUSH1 0x3 NOT ADD SLT PUSH2 0xFC JUMPI PUSH1 0x20 PUSH1 0x40 MLOAD PUSH1 0x64 DUP2 MSTORE RETURN JUMPDEST CALLVALUE PUSH2 0xFC JUMPI PUSH0 CALLDATASIZE PUSH1 0x3 NOT ADD SLT PUSH2 0xFC JUMPI PUSH1 0x3 SLOAD PUSH1 0x40 MLOAD PUSH1 0x1 PUSH1 0x1 PUSH1 0xA0 SHL SUB SWAP1 SWAP2 AND DUP2 MSTORE PUSH1 0x20 SWAP1 RETURN JUMPDEST CALLVALUE PUSH2 0xFC JUMPI PUSH0 CALLDATASIZE PUSH1 0x3 NOT ADD SLT PUSH2 0xFC JUMPI PUSH1 0x20 PUSH1 0x2 SLOAD PUSH1 0x40 MLOAD SWAP1 DUP2 MSTORE RETURN JUMPDEST CALLVALUE PUSH2 0xFC JUMPI PUSH1 0x20 PUSH1 0xFF DUP2 DUP1 PUSH2 0xE92 CALLDATASIZE PUSH2 0x12A6 JUMP JUMPDEST PUSH1 0x40 MLOAD SWAP3 DUP2 DUP5 SWAP3 MLOAD SWAP2 DUP3 SWAP2 ADD DUP4 MCOPY DUP2 ADD PUSH1 0x5 DUP2 MSTORE SUB ADD SWAP1 KECCAK256 SLOAD AND PUSH1 0x40 MLOAD SWAP1 ISZERO ISZERO DUP2 MSTORE RETURN JUMPDEST CALLVALUE PUSH2 0xFC JUMPI PUSH1 0x80 CALLDATASIZE PUSH1 0x3 NOT ADD SLT PUSH2 0xFC JUMPI PUSH1 0x4 CALLDATALOAD PUSH1 0x1 PUSH1 0x1 PUSH1 0x40 SHL SUB DUP2 GT PUSH2 0xFC JUMPI PUSH2 0xEE6 SWAP1 CALLDATASIZE SWAP1 PUSH1 0x4 ADD PUSH2 0x1242 JUMP JUMPDEST PUSH1 0x24 CALLDATALOAD PUSH1 0x1 PUSH1 0x1 PUSH1 0xA0 SHL SUB DUP2 AND SWAP3 SWAP1 DUP4 SWAP1 SUB PUSH2 0xFC JUMPI PUSH1 0x44 CALLDATALOAD SWAP2 PUSH1 0x64 CALLDATALOAD SWAP2 PUSH2 0xF0C PUSH2 0x14FB JUMP JUMPDEST PUSH1 0xFF PUSH1 0x40 MLOAD DUP4 DUP4 DUP3 CALLDATACOPY PUSH1 0x20 DUP2 DUP6 DUP2 ADD PUSH1 0x5 DUP2 MSTORE SUB ADD SWAP1 KECCAK256 SLOAD AND PUSH2 0x11FD JUMPI DUP5 ISZERO PUSH2 0x11C0 JUMPI DUP4 ISZERO PUSH2 0x117B JUMPI TIMESTAMP DUP4 GT ISZERO PUSH2 0x1137 JUMPI PUSH2 0xF77 PUSH1 0x40 MLOAD PUSH4 0x23B872DD PUSH1 0xE0 SHL PUSH1 0x20 DUP3 ADD MSTORE CALLER PUSH1 0x24 DUP3 ADD MSTORE ADDRESS PUSH1 0x44 DUP3 ADD MSTORE DUP6 PUSH1 0x64 DUP3 ADD MSTORE PUSH1 0x64 DUP2 MSTORE PUSH2 0xF71 PUSH1 0x84 DUP3 PUSH2 0x1285 JUMP JUMPDEST DUP7 PUSH2 0x15B8 JUMP JUMPDEST PUSH1 0x40 MLOAD DUP3 DUP3 DUP3 CALLDATACOPY PUSH1 0x20 DUP2 DUP5 DUP2 ADD PUSH1 0x4 DUP2 MSTORE SUB ADD SWAP1 KECCAK256 PUSH1 0x1 PUSH1 0x1 PUSH1 0x40 SHL SUB DUP4 GT PUSH2 0xC63 JUMPI PUSH2 0xFA4 DUP2 SLOAD PUSH2 0x131C JUMP JUMPDEST PUSH1 0x1F DUP2 GT PUSH2 0x10FC JUMPI JUMPDEST POP DUP3 PUSH0 PUSH1 0x1F DUP3 GT PUSH1 0x1 EQ PUSH2 0x1090 JUMPI SWAP2 PUSH1 0x6 SWAP2 PUSH0 SWAP4 DUP5 SWAP2 PUSH2 0x1085 JUMPI JUMPDEST POP DUP6 PUSH1 0x1 SHL SWAP1 DUP5 NOT DUP8 PUSH1 0x3 SHL SHR NOT AND OR DUP2 SSTORE JUMPDEST PUSH1 0x1 DUP2 ADD DUP1 SLOAD PUSH1 0x1 PUSH1 0x1 PUSH1 0xA0 SHL SUB NOT SWAP1 DUP2 AND CALLER OR SWAP1 SWAP2 SSTORE PUSH1 0x2 DUP3 ADD DUP1 SLOAD SWAP1 SWAP2 AND DUP10 OR SWAP1 SSTORE PUSH1 0x3 DUP2 ADD DUP8 SWAP1 SSTORE PUSH1 0x4 DUP2 ADD DUP7 SWAP1 SSTORE PUSH1 0x5 DUP2 ADD DUP1 SLOAD PUSH2 0xFFFF NOT AND SWAP1 SSTORE ADD SSTORE PUSH1 0x40 MLOAD DUP3 DUP3 DUP3 CALLDATACOPY PUSH1 0x20 DUP2 DUP5 DUP2 ADD PUSH1 0x5 DUP2 MSTORE SUB ADD SWAP1 KECCAK256 PUSH1 0x1 PUSH1 0xFF NOT DUP3 SLOAD AND OR SWAP1 SSTORE DUP2 PUSH1 0x40 MLOAD SWAP3 DUP4 SWAP3 DUP4 CALLDATACOPY DUP2 ADD PUSH0 DUP2 MSTORE SUB SWAP1 KECCAK256 SWAP1 PUSH1 0x40 MLOAD SWAP3 DUP4 MSTORE PUSH1 0x20 DUP4 ADD MSTORE PUSH32 0x4C9D53D935621250C2A973CA08A8BA1828A8AE00D5E5A57C23344069A08F35F PUSH1 0x40 CALLER SWAP4 LOG4 PUSH1 0x1 PUSH0 SSTORE STOP JUMPDEST SWAP1 POP DUP5 ADD CALLDATALOAD DUP10 PUSH2 0xFC8 JUMP JUMPDEST PUSH0 DUP4 DUP2 MSTORE PUSH1 0x20 DUP2 KECCAK256 SWAP3 POP DUP6 SWAP1 PUSH1 0x1F NOT DUP3 AND SWAP1 JUMPDEST DUP2 DUP2 LT PUSH2 0x10E1 JUMPI POP SWAP2 PUSH1 0x6 SWAP4 SWAP2 PUSH0 SWAP6 SWAP4 LT PUSH2 0x10C8 JUMPI JUMPDEST POP POP PUSH1 0x1 DUP6 DUP2 SHL ADD DUP2 SSTORE PUSH2 0xFDB JUMP JUMPDEST DUP5 NOT PUSH1 0xF8 DUP9 PUSH1 0x3 SHL AND SHR NOT SWAP1 DUP7 ADD CALLDATALOAD AND SWAP1 SSTORE DUP9 DUP1 PUSH2 0x10B9 JUMP JUMPDEST DUP7 DUP5 ADD CALLDATALOAD DUP6 SSTORE PUSH1 0x1 SWAP1 SWAP5 ADD SWAP4 PUSH1 0x20 SWAP4 DUP5 ADD SWAP4 DUP9 SWAP4 POP ADD PUSH2 0x10A3 JUMP JUMPDEST PUSH2 0x1127 SWAP1 DUP3 PUSH0 MSTORE PUSH1 0x20 PUSH0 KECCAK256 PUSH1 0x1F DUP7 ADD PUSH1 0x5 SHR DUP2 ADD SWAP2 PUSH1 0x20 DUP8 LT PUSH2 0x112D JUMPI JUMPDEST PUSH1 0x1F ADD PUSH1 0x5 SHR ADD SWAP1 PUSH2 0x1354 JUMP JUMPDEST DUP7 PUSH2 0xFAD JUMP JUMPDEST SWAP1 SWAP2 POP DUP2 SWAP1 PUSH2 0x111A JUMP JUMPDEST PUSH1 0x64 PUSH1 0x40 MLOAD PUSH3 0x461BCD PUSH1 0xE5 SHL DUP2 MSTORE PUSH1 0x20 PUSH1 0x4 DUP3 ADD MSTORE PUSH1 0x20 PUSH1 0x24 DUP3 ADD MSTORE PUSH32 0x5363686564756C65642074696D65206D75737420626520696E20667574757265 PUSH1 0x44 DUP3 ADD MSTORE REVERT JUMPDEST PUSH1 0x40 MLOAD PUSH3 0x461BCD PUSH1 0xE5 SHL DUP2 MSTORE PUSH1 0x20 PUSH1 0x4 DUP3 ADD MSTORE PUSH1 0x1D PUSH1 0x24 DUP3 ADD MSTORE PUSH32 0x416D6F756E74206D7573742062652067726561746572207468616E2030000000 PUSH1 0x44 DUP3 ADD MSTORE PUSH1 0x64 SWAP1 REVERT JUMPDEST PUSH1 0x40 MLOAD PUSH3 0x461BCD PUSH1 0xE5 SHL DUP2 MSTORE PUSH1 0x20 PUSH1 0x4 DUP3 ADD MSTORE PUSH1 0x15 PUSH1 0x24 DUP3 ADD MSTORE PUSH21 0x496E76616C696420746F6B656E2061646472657373 PUSH1 0x58 SHL PUSH1 0x44 DUP3 ADD MSTORE PUSH1 0x64 SWAP1 REVERT JUMPDEST PUSH1 0x40 MLOAD PUSH3 0x461BCD PUSH1 0xE5 SHL DUP2 MSTORE PUSH1 0x20 PUSH1 0x4 DUP3 ADD MSTORE PUSH1 0x17 PUSH1 0x24 DUP3 ADD MSTORE PUSH32 0x5261696E64726F7020616C726561647920657869737473000000000000000000 PUSH1 0x44 DUP3 ADD MSTORE PUSH1 0x64 SWAP1 REVERT JUMPDEST SWAP2 DUP2 PUSH1 0x1F DUP5 ADD SLT ISZERO PUSH2 0xFC JUMPI DUP3 CALLDATALOAD SWAP2 PUSH1 0x1 PUSH1 0x1 PUSH1 0x40 SHL SUB DUP4 GT PUSH2 0xFC JUMPI PUSH1 0x20 DUP4 DUP2 DUP7 ADD SWAP6 ADD ADD GT PUSH2 0xFC JUMPI JUMP JUMPDEST PUSH1 0x4 CALLDATALOAD SWAP1 PUSH1 0x1 PUSH1 0x1 PUSH1 0xA0 SHL SUB DUP3 AND DUP3 SUB PUSH2 0xFC JUMPI JUMP JUMPDEST SWAP1 PUSH1 0x1F DUP1 NOT SWAP2 ADD AND DUP2 ADD SWAP1 DUP2 LT PUSH1 0x1 PUSH1 0x1 PUSH1 0x40 SHL SUB DUP3 GT OR PUSH2 0xC63 JUMPI PUSH1 0x40 MSTORE JUMP JUMPDEST PUSH1 0x20 PUSH1 0x3 NOT DUP3 ADD SLT PUSH2 0xFC JUMPI PUSH1 0x4 CALLDATALOAD PUSH1 0x1 PUSH1 0x1 PUSH1 0x40 SHL SUB DUP2 GT PUSH2 0xFC JUMPI DUP2 PUSH1 0x23 DUP3 ADD SLT ISZERO PUSH2 0xFC JUMPI DUP1 PUSH1 0x4 ADD CALLDATALOAD SWAP1 PUSH1 0x1 PUSH1 0x1 PUSH1 0x40 SHL SUB DUP3 GT PUSH2 0xC63 JUMPI PUSH1 0x40 MLOAD SWAP3 PUSH2 0x12FA PUSH1 0x1F DUP5 ADD PUSH1 0x1F NOT AND PUSH1 0x20 ADD DUP6 PUSH2 0x1285 JUMP JUMPDEST DUP3 DUP5 MSTORE PUSH1 0x24 DUP4 DUP4 ADD ADD GT PUSH2 0xFC JUMPI DUP2 PUSH0 SWAP3 PUSH1 0x24 PUSH1 0x20 SWAP4 ADD DUP4 DUP7 ADD CALLDATACOPY DUP4 ADD ADD MSTORE SWAP1 JUMP JUMPDEST SWAP1 PUSH1 0x1 DUP3 DUP2 SHR SWAP3 AND DUP1 ISZERO PUSH2 0x134A JUMPI JUMPDEST PUSH1 0x20 DUP4 LT EQ PUSH2 0x1336 JUMPI JUMP JUMPDEST PUSH4 0x4E487B71 PUSH1 0xE0 SHL PUSH0 MSTORE PUSH1 0x22 PUSH1 0x4 MSTORE PUSH1 0x24 PUSH0 REVERT JUMPDEST SWAP2 PUSH1 0x7F AND SWAP2 PUSH2 0x132B JUMP JUMPDEST DUP2 DUP2 LT PUSH2 0x135F JUMPI POP POP JUMP JUMPDEST PUSH0 DUP2 SSTORE PUSH1 0x1 ADD PUSH2 0x1354 JUMP JUMPDEST ISZERO PUSH2 0x1371 JUMPI JUMP JUMPDEST PUSH1 0x40 MLOAD PUSH3 0x461BCD PUSH1 0xE5 SHL DUP2 MSTORE PUSH1 0x20 PUSH1 0x4 DUP3 ADD MSTORE PUSH1 0x17 PUSH1 0x24 DUP3 ADD MSTORE PUSH32 0x5261696E64726F7020646F6573206E6F74206578697374000000000000000000 PUSH1 0x44 DUP3 ADD MSTORE PUSH1 0x64 SWAP1 REVERT JUMPDEST ISZERO PUSH2 0x13BD JUMPI JUMP JUMPDEST PUSH1 0x40 MLOAD PUSH3 0x461BCD PUSH1 0xE5 SHL DUP2 MSTORE PUSH1 0x20 PUSH1 0x4 DUP3 ADD MSTORE PUSH1 0xE PUSH1 0x24 DUP3 ADD MSTORE PUSH14 0x139BDD08185D5D1A1BDC9A5E9959 PUSH1 0x92 SHL PUSH1 0x44 DUP3 ADD MSTORE PUSH1 0x64 SWAP1 REVERT JUMPDEST ISZERO PUSH2 0x13FA JUMPI JUMP JUMPDEST PUSH1 0x40 MLOAD PUSH3 0x461BCD PUSH1 0xE5 SHL DUP2 MSTORE PUSH1 0x20 PUSH1 0x4 DUP3 ADD MSTORE PUSH1 0x19 PUSH1 0x24 DUP3 ADD MSTORE PUSH32 0x5261696E64726F7020616C726561647920657865637574656400000000000000 PUSH1 0x44 DUP3 ADD MSTORE PUSH1 0x64 SWAP1 REVERT JUMPDEST ISZERO PUSH2 0x1446 JUMPI JUMP JUMPDEST PUSH1 0x40 MLOAD PUSH3 0x461BCD PUSH1 0xE5 SHL DUP2 MSTORE PUSH1 0x20 PUSH1 0x4 DUP3 ADD MSTORE PUSH1 0x12 PUSH1 0x24 DUP3 ADD MSTORE PUSH18 0x14985A5B991C9BDC0818D85B98D95B1B1959 PUSH1 0x72 SHL PUSH1 0x44 DUP3 ADD MSTORE PUSH1 0x64 SWAP1 REVERT JUMPDEST DUP1 SLOAD DUP3 LT ISZERO PUSH2 0x1495 JUMPI PUSH0 MSTORE PUSH1 0x20 PUSH0 KECCAK256 ADD SWAP1 PUSH0 SWAP1 JUMP JUMPDEST PUSH4 0x4E487B71 PUSH1 0xE0 SHL PUSH0 MSTORE PUSH1 0x32 PUSH1 0x4 MSTORE PUSH1 0x24 PUSH0 REVERT JUMPDEST DUP2 DUP2 MUL SWAP3 SWAP2 DUP2 ISZERO SWAP2 DUP5 DIV EQ OR ISZERO PUSH2 0x14BC JUMPI JUMP JUMPDEST PUSH4 0x4E487B71 PUSH1 0xE0 SHL PUSH0 MSTORE PUSH1 0x11 PUSH1 0x4 MSTORE PUSH1 0x24 PUSH0 REVERT JUMPDEST DUP2 ISZERO PUSH2 0x14DA JUMPI DIV SWAP1 JUMP JUMPDEST PUSH4 0x4E487B71 PUSH1 0xE0 SHL PUSH0 MSTORE PUSH1 0x12 PUSH1 0x4 MSTORE PUSH1 0x24 PUSH0 REVERT JUMPDEST SWAP2 SWAP1 DUP3 SUB SWAP2 DUP3 GT PUSH2 0x14BC JUMPI JUMP JUMPDEST PUSH1 0x2 PUSH0 SLOAD EQ PUSH2 0x150A JUMPI PUSH1 0x2 PUSH0 SSTORE JUMP JUMPDEST PUSH1 0x40 MLOAD PUSH3 0x461BCD PUSH1 0xE5 SHL DUP2 MSTORE PUSH1 0x20 PUSH1 0x4 DUP3 ADD MSTORE PUSH1 0x1F PUSH1 0x24 DUP3 ADD MSTORE PUSH32 0x5265656E7472616E637947756172643A207265656E7472616E742063616C6C00 PUSH1 0x44 DUP3 ADD MSTORE PUSH1 0x64 SWAP1 REVERT JUMPDEST PUSH1 0x1 SLOAD PUSH1 0x1 PUSH1 0x1 PUSH1 0xA0 SHL SUB AND CALLER SUB PUSH2 0x1563 JUMPI JUMP JUMPDEST PUSH4 0x118CDAA7 PUSH1 0xE0 SHL PUSH0 MSTORE CALLER PUSH1 0x4 MSTORE PUSH1 0x24 PUSH0 REVERT JUMPDEST PUSH1 0x40 MLOAD PUSH4 0xA9059CBB PUSH1 0xE0 SHL PUSH1 0x20 DUP3 ADD MSTORE PUSH1 0x1 PUSH1 0x1 PUSH1 0xA0 SHL SUB SWAP1 SWAP3 AND PUSH1 0x24 DUP4 ADD MSTORE PUSH1 0x44 DUP1 DUP4 ADD SWAP4 SWAP1 SWAP4 MSTORE SWAP2 DUP2 MSTORE PUSH2 0x15B6 SWAP2 PUSH2 0x15B1 PUSH1 0x64 DUP4 PUSH2 0x1285 JUMP JUMPDEST PUSH2 0x15B8 JUMP JUMPDEST JUMP JUMPDEST SWAP1 PUSH0 PUSH1 0x20 SWAP2 DUP3 DUP2 MLOAD SWAP2 ADD DUP3 DUP6 GAS CALL ISZERO PUSH2 0x1610 JUMPI PUSH0 MLOAD RETURNDATASIZE PUSH2 0x1607 JUMPI POP PUSH1 0x1 PUSH1 0x1 PUSH1 0xA0 SHL SUB DUP2 AND EXTCODESIZE ISZERO JUMPDEST PUSH2 0x15E7 JUMPI POP JUMP JUMPDEST PUSH4 0x5274AFE7 PUSH1 0xE0 SHL PUSH0 SWAP1 DUP2 MSTORE PUSH1 0x1 PUSH1 0x1 PUSH1 0xA0 SHL SUB SWAP2 SWAP1 SWAP2 AND PUSH1 0x4 MSTORE PUSH1 0x24 SWAP1 REVERT JUMPDEST PUSH1 0x1 EQ ISZERO PUSH2 0x15E0 JUMP JUMPDEST PUSH1 0x40 MLOAD RETURNDATASIZE PUSH0 DUP3 RETURNDATACOPY RETURNDATASIZE SWAP1 REVERT INVALID LOG2 PUSH5 0x6970667358 0x22 SLT KECCAK256 SELFBALANCE GAS OR LOG0 DUP11 SWAP15 SDIV 0xBA 0x2F BLOCKHASH PUSH18 0x4EB90CE3C799F6756BF195B4C506F3344D3E 0xBA 0xB7 MSIZE PUSH5 0x736F6C6343 STOP ADDMOD BYTE STOP CALLER "
				},
				"gasEstimates": {
					"creation": {
						"codeDepositCost": "1142600",
						"executionCost": "infinite",
						"totalCost": "infinite"
					},
					"external": {
						"MAX_PARTICIPANTS()": "516",
						"MIN_AMOUNT_PER_PARTICIPANT()": "233",
						"cancelRaindrop(string)": "infinite",
						"createRaindrop(string,address,uint256,uint256)": "infinite",
						"emergencyRecoverToken(address,uint256)": "infinite",
						"executeRaindrop(string)": "infinite",
						"feeRecipient()": "2338",
						"getParticipants(string)": "infinite",
						"getRaindropDetails(string)": "infinite",
						"owner()": "2492",
						"platformFeeBps()": "2292",
						"raindropExists(string)": "infinite",
						"raindrops(string)": "infinite",
						"renounceOwnership()": "28184",
						"transferOwnership(address)": "28515",
						"updateFeeRecipient(address)": "26951",
						"updateParticipants(string,address[])": "infinite",
						"updatePlatformFee(uint256)": "24702"
					}
				},
				"methodIdentifiers": {
					"MAX_PARTICIPANTS()": "f3baf070",
					"MIN_AMOUNT_PER_PARTICIPANT()": "4898ba63",
					"cancelRaindrop(string)": "9b0f14b5",
					"createRaindrop(string,address,uint256,uint256)": "02749be7",
					"emergencyRecoverToken(address,uint256)": "79020194",
					"executeRaindrop(string)": "9a43dc0c",
					"feeRecipient()": "46904840",
					"getParticipants(string)": "7e90def7",
					"getRaindropDetails(string)": "72521d47",
					"owner()": "8da5cb5b",
					"platformFeeBps()": "22dcd13e",
					"raindropExists(string)": "0d12cba2",
					"raindrops(string)": "b28a9d6f",
					"renounceOwnership()": "715018a6",
					"transferOwnership(address)": "f2fde38b",
					"updateFeeRecipient(address)": "f160d369",
					"updateParticipants(string,address[])": "6b0db1fa",
					"updatePlatformFee(uint256)": "aa0b5988"
				}
			},
			"storageLayout": {
				"storage": [
					{
						"astId": 248,
						"contract": "src/Contract Architecture/Core Infrastructure/RaindropEscrow.sol:RaindropEscrow",
						"label": "_status",
						"offset": 0,
						"slot": "0",
						"type": "t_uint256"
					},
					{
						"astId": 8,
						"contract": "src/Contract Architecture/Core Infrastructure/RaindropEscrow.sol:RaindropEscrow",
						"label": "_owner",
						"offset": 0,
						"slot": "1",
						"type": "t_address"
					},
					{
						"astId": 912,
						"contract": "src/Contract Architecture/Core Infrastructure/RaindropEscrow.sol:RaindropEscrow",
						"label": "platformFeeBps",
						"offset": 0,
						"slot": "2",
						"type": "t_uint256"
					},
					{
						"astId": 914,
						"contract": "src/Contract Architecture/Core Infrastructure/RaindropEscrow.sol:RaindropEscrow",
						"label": "feeRecipient",
						"offset": 0,
						"slot": "3",
						"type": "t_address"
					},
					{
						"astId": 943,
						"contract": "src/Contract Architecture/Core Infrastructure/RaindropEscrow.sol:RaindropEscrow",
						"label": "raindrops",
						"offset": 0,
						"slot": "4",
						"type": "t_mapping(t_string_memory_ptr,t_struct(Raindrop)938_storage)"
					},
					{
						"astId": 947,
						"contract": "src/Contract Architecture/Core Infrastructure/RaindropEscrow.sol:RaindropEscrow",
						"label": "raindropExists",
						"offset": 0,
						"slot": "5",
						"type": "t_mapping(t_string_memory_ptr,t_bool)"
					}
				],
				"types": {
					"t_address": {
						"encoding": "inplace",
						"label": "address",
						"numberOfBytes": "20"
					},
					"t_array(t_address)dyn_storage": {
						"base": "t_address",
						"encoding": "dynamic_array",
						"label": "address[]",
						"numberOfBytes": "32"
					},
					"t_bool": {
						"encoding": "inplace",
						"label": "bool",
						"numberOfBytes": "1"
					},
					"t_mapping(t_address,t_bool)": {
						"encoding": "mapping",
						"key": "t_address",
						"label": "mapping(address => bool)",
						"numberOfBytes": "32",
						"value": "t_bool"
					},
					"t_mapping(t_string_memory_ptr,t_bool)": {
						"encoding": "mapping",
						"key": "t_string_memory_ptr",
						"label": "mapping(string => bool)",
						"numberOfBytes": "32",
						"value": "t_bool"
					},
					"t_mapping(t_string_memory_ptr,t_struct(Raindrop)938_storage)": {
						"encoding": "mapping",
						"key": "t_string_memory_ptr",
						"label": "mapping(string => struct RaindropEscrow.Raindrop)",
						"numberOfBytes": "32",
						"value": "t_struct(Raindrop)938_storage"
					},
					"t_string_memory_ptr": {
						"encoding": "bytes",
						"label": "string",
						"numberOfBytes": "32"
					},
					"t_string_storage": {
						"encoding": "bytes",
						"label": "string",
						"numberOfBytes": "32"
					},
					"t_struct(Raindrop)938_storage": {
						"encoding": "inplace",
						"label": "struct RaindropEscrow.Raindrop",
						"members": [
							{
								"astId": 916,
								"contract": "src/Contract Architecture/Core Infrastructure/RaindropEscrow.sol:RaindropEscrow",
								"label": "raindropId",
								"offset": 0,
								"slot": "0",
								"type": "t_string_storage"
							},
							{
								"astId": 918,
								"contract": "src/Contract Architecture/Core Infrastructure/RaindropEscrow.sol:RaindropEscrow",
								"label": "host",
								"offset": 0,
								"slot": "1",
								"type": "t_address"
							},
							{
								"astId": 920,
								"contract": "src/Contract Architecture/Core Infrastructure/RaindropEscrow.sol:RaindropEscrow",
								"label": "token",
								"offset": 0,
								"slot": "2",
								"type": "t_address"
							},
							{
								"astId": 922,
								"contract": "src/Contract Architecture/Core Infrastructure/RaindropEscrow.sol:RaindropEscrow",
								"label": "totalAmount",
								"offset": 0,
								"slot": "3",
								"type": "t_uint256"
							},
							{
								"astId": 924,
								"contract": "src/Contract Architecture/Core Infrastructure/RaindropEscrow.sol:RaindropEscrow",
								"label": "scheduledTime",
								"offset": 0,
								"slot": "4",
								"type": "t_uint256"
							},
							{
								"astId": 926,
								"contract": "src/Contract Architecture/Core Infrastructure/RaindropEscrow.sol:RaindropEscrow",
								"label": "executed",
								"offset": 0,
								"slot": "5",
								"type": "t_bool"
							},
							{
								"astId": 928,
								"contract": "src/Contract Architecture/Core Infrastructure/RaindropEscrow.sol:RaindropEscrow",
								"label": "cancelled",
								"offset": 1,
								"slot": "5",
								"type": "t_bool"
							},
							{
								"astId": 930,
								"contract": "src/Contract Architecture/Core Infrastructure/RaindropEscrow.sol:RaindropEscrow",
								"label": "participantCount",
								"offset": 0,
								"slot": "6",
								"type": "t_uint256"
							},
							{
								"astId": 934,
								"contract": "src/Contract Architecture/Core Infrastructure/RaindropEscrow.sol:RaindropEscrow",
								"label": "participants",
								"offset": 0,
								"slot": "7",
								"type": "t_mapping(t_address,t_bool)"
							},
							{
								"astId": 937,
								"contract": "src/Contract Architecture/Core Infrastructure/RaindropEscrow.sol:RaindropEscrow",
								"label": "participantList",
								"offset": 0,
								"slot": "8",
								"type": "t_array(t_address)dyn_storage"
							}
						],
						"numberOfBytes": "288"
					},
					"t_uint256": {
						"encoding": "inplace",
						"label": "uint256",
						"numberOfBytes": "32"
					}
				}
			},
			"userdoc": {
				"kind": "user",
				"methods": {},
				"version": 1
			}
		}
	}
}