{
	"src/Contract Architecture/Core Infrastructure/PermitManager.sol": {
		"PermitManager": {
			"abi": [
				{
					"inputs": [],
					"stateMutability": "nonpayable",
					"type": "constructor"
				},
				{
					"anonymous": false,
					"inputs": [
						{
							"indexed": true,
							"internalType": "address",
							"name": "user",
							"type": "address"
						},
						{
							"indexed": true,
							"internalType": "address",
							"name": "target",
							"type": "address"
						},
						{
							"indexed": false,
							"internalType": "uint256",
							"name": "nonce",
							"type": "uint256"
						}
					],
					"name": "PermitUsed",
					"type": "event"
				},
				{
					"inputs": [],
					"name": "DOMAIN_SEPARATOR",
					"outputs": [
						{
							"internalType": "bytes32",
							"name": "",
							"type": "bytes32"
						}
					],
					"stateMutability": "view",
					"type": "function"
				},
				{
					"inputs": [],
					"name": "PERMIT_TYPEHASH",
					"outputs": [
						{
							"internalType": "bytes32",
							"name": "",
							"type": "bytes32"
						}
					],
					"stateMutability": "view",
					"type": "function"
				},
				{
					"inputs": [
						{
							"internalType": "address",
							"name": "user",
							"type": "address"
						},
						{
							"internalType": "address",
							"name": "target",
							"type": "address"
						},
						{
							"internalType": "bytes",
							"name": "data",
							"type": "bytes"
						},
						{
							"internalType": "uint256",
							"name": "nonce",
							"type": "uint256"
						},
						{
							"internalType": "uint256",
							"name": "deadline",
							"type": "uint256"
						},
						{
							"internalType": "uint8",
							"name": "v",
							"type": "uint8"
						},
						{
							"internalType": "bytes32",
							"name": "r",
							"type": "bytes32"
						},
						{
							"internalType": "bytes32",
							"name": "s",
							"type": "bytes32"
						}
					],
					"name": "usePermit",
					"outputs": [],
					"stateMutability": "nonpayable",
					"type": "function"
				},
				{
					"inputs": [
						{
							"internalType": "address",
							"name": "",
							"type": "address"
						},
						{
							"internalType": "uint256",
							"name": "",
							"type": "uint256"
						}
					],
					"name": "usedNonces",
					"outputs": [
						{
							"internalType": "bool",
							"name": "",
							"type": "bool"
						}
					],
					"stateMutability": "view",
					"type": "function"
				}
			],
			"devdoc": {
				"kind": "dev",
				"methods": {
					"usePermit(address,address,bytes,uint256,uint256,uint8,bytes32,bytes32)": {
						"params": {
							"data": "Arbitrary call data authorized by the user",
							"deadline": "Expiry timestamp for the permit",
							"nonce": "The nonce to prevent replay attacks",
							"r": "Signature r",
							"s": "Signature s",
							"target": "The contract authorized to be called",
							"user": "The signer of the permit",
							"v": "Signature v"
						}
					}
				},
				"title": "PermitManager",
				"version": 1
			},
			"evm": {
				"assembly": "    /* \"src/Contract Architecture/Core Infrastructure/PermitManager.sol\":305:2801  contract PermitManager {... */\n  mstore(0x40, 0xa0)\n  jumpi(tag_2, callvalue)\n  mload(0x40)\n  tag_4\n  0x40\n  dup3\n  tag_1\n  jump\t// in\ntag_4:\n  0x0d\n  dup2\n  mstore\n  shl(0x99, 0x2832b936b4ba26b0b730b3b2b9)\n  0x20\n  swap1\n  swap2\n  add\n  mstore\n  0x40\n  dup1\n  mload\n    /* \"src/Contract Architecture/Core Infrastructure/PermitManager.sol\":1153:1186  keccak256(bytes(\"PermitManager\")) */\n  0x9b4dc591cd05bec977ed67abb81318d2d79fd2e167e60003b0c05348a02010cf\n  swap2\n    /* \"src/Contract Architecture/Core Infrastructure/PermitManager.sol\":305:2801  contract PermitManager {... */\n  tag_5\n  swap1\n  dup3\n  tag_1\n  jump\t// in\ntag_5:\n  0x01\n  dup2\n  mstore\n  0x20\n  dup2\n  add\n  swap1\n  shl(0xf8, 0x31)\n  dup3\n  mstore\n  mload\n    /* \"src/Contract Architecture/Core Infrastructure/PermitManager.sol\":1204:1225  keccak256(bytes(\"1\")) */\n  swap1\n  keccak256\n    /* \"src/Contract Architecture/Core Infrastructure/PermitManager.sol\":305:2801  contract PermitManager {... */\n  mload(0x40)\n    /* \"src/Contract Architecture/Core Infrastructure/PermitManager.sol\":1012:1295  abi.encode(... */\n  swap1\n    /* \"src/Contract Architecture/Core Infrastructure/PermitManager.sol\":305:2801  contract PermitManager {... */\n  0x20\n    /* \"src/Contract Architecture/Core Infrastructure/PermitManager.sol\":1012:1295  abi.encode(... */\n  dup3\n  add\n    /* \"src/Contract Architecture/Core Infrastructure/PermitManager.sol\":305:2801  contract PermitManager {... */\n  swap3\n    /* \"src/Contract Architecture/Core Infrastructure/PermitManager.sol\":1040:1135  keccak256(\"EIP712Domain(string name,string version,uint256 chainId,address verifyingContract)\") */\n  0x8b73c3c69bb8fe3d512ecc4cf759cc79239f7b179b0ffacaa9a75d522b39400f\n    /* \"src/Contract Architecture/Core Infrastructure/PermitManager.sol\":305:2801  contract PermitManager {... */\n  dup5\n  mstore\n  0x40\n  dup4\n  add\n  mstore\n  0x60\n  dup3\n  add\n  mstore\n    /* \"src/Contract Architecture/Core Infrastructure/PermitManager.sol\":907:960  assembly {... */\n  chainid\n    /* \"src/Contract Architecture/Core Infrastructure/PermitManager.sol\":305:2801  contract PermitManager {... */\n  0x80\n  dup3\n  add\n  mstore\n    /* \"src/Contract Architecture/Core Infrastructure/PermitManager.sol\":1276:1280  this */\n  address\n    /* \"src/Contract Architecture/Core Infrastructure/PermitManager.sol\":305:2801  contract PermitManager {... */\n  0xa0\n  dup3\n  add\n  mstore\n  0xa0\n    /* \"src/Contract Architecture/Core Infrastructure/PermitManager.sol\":1012:1295  abi.encode(... */\n  dup2\n  mstore\n  tag_6\n  0xc0\n  dup3\n  tag_1\n  jump\t// in\ntag_6:\n    /* \"src/Contract Architecture/Core Infrastructure/PermitManager.sol\":305:2801  contract PermitManager {... */\n  mload\n    /* \"src/Contract Architecture/Core Infrastructure/PermitManager.sol\":989:1305  keccak256(... */\n  swap1\n  keccak256\n    /* \"src/Contract Architecture/Core Infrastructure/PermitManager.sol\":305:2801  contract PermitManager {... */\n  0x80\n    /* \"src/Contract Architecture/Core Infrastructure/PermitManager.sol\":970:1305  DOMAIN_SEPARATOR = keccak256(... */\n  mstore\n    /* \"src/Contract Architecture/Core Infrastructure/PermitManager.sol\":305:2801  contract PermitManager {... */\n  mload(0x40)\n  dataSize(sub_0)\n  swap1\n  dup2\n  dataOffset(sub_0)\n  dup3\n  codecopy\n  mload(0x80)\n  dup2\n  assignImmutable(\"0x7f8b6b088b6d74c2852fc86c796dca07b44eed6fb3daf5e6b59f7c364db14528\")\n  return\ntag_2:\n  0x00\n  dup1\n  revert\ntag_1:\n  0x1f\n  swap1\n  swap2\n  add\n  not(0x1f)\n  and\n  dup2\n  add\n  swap1\n  sub(shl(0x40, 0x01), 0x01)\n  dup3\n  gt\n  swap1\n  dup3\n  lt\n  or\n  tag_7\n  jumpi\n  0x40\n  mstore\n  jump\t// out\ntag_7:\n  mstore(0x00, shl(0xe0, 0x4e487b71))\n  mstore(0x04, 0x41)\n  revert(0x00, 0x24)\nstop\n\nsub_0: assembly {\n        /* \"src/Contract Architecture/Core Infrastructure/PermitManager.sol\":305:2801  contract PermitManager {... */\n      0x80\n      dup1\n      0x40\n      mstore\n      jumpi(tag_4, iszero(lt(calldatasize, 0x04)))\n      0x00\n      dup1\n      revert\n    tag_4:\n      shr(0xe0, calldataload(0x00))\n      swap1\n      dup2\n      0x30adf81f\n      eq\n      tag_6\n      jumpi\n      pop\n      dup1\n      0x3644e515\n      eq\n      tag_8\n      jumpi\n      dup1\n      0x45955d84\n      eq\n      tag_10\n      jumpi\n      0x6a8a6894\n      eq\n      tag_12\n      jumpi\n      0x00\n      dup1\n      revert\n    tag_12:\n      jumpi(tag_16, callvalue)\n      jumpi(tag_16, slt(add(not(0x03), calldatasize), 0x40))\n      sub(shl(0xa0, 0x01), 0x01)\n      tag_18\n      tag_1\n      jump\t// in\n    tag_18:\n      and\n      0x00\n      mstore\n      mstore(0x20, 0x00)\n      keccak256(0x00, 0x40)\n      mstore(0x00, calldataload(0x24))\n      0x20\n      mstore\n      0x20\n      and(sload(keccak256(0x00, 0x40)), 0xff)\n      mload(0x40)\n      swap1\n      iszero\n      iszero\n      dup2\n      mstore\n      return\n    tag_16:\n      0x00\n      dup1\n      revert\n    tag_10:\n      jumpi(tag_16, callvalue)\n      jumpi(tag_16, slt(add(not(0x03), calldatasize), 0x0100))\n      tag_23\n      tag_1\n      jump\t// in\n    tag_23:\n      calldataload(0x24)\n      sub(shl(0xa0, 0x01), 0x01)\n      dup2\n      and\n      swap2\n      swap1\n      dup3\n      dup2\n      sub\n      tag_16\n      jumpi\n      calldataload(0x44)\n      0xffffffffffffffff\n      dup2\n      gt\n      tag_16\n      jumpi\n      calldatasize\n      0x23\n      dup3\n      add\n      slt\n      iszero\n      tag_16\n      jumpi\n      dup1\n      0x04\n      add\n      calldataload\n      swap1\n      0xffffffffffffffff\n      dup3\n      gt\n      tag_16\n      jumpi\n      0x24\n      dup2\n      add\n      swap1\n      0x24\n      dup4\n      calldatasize\n      swap3\n      add\n      add\n      gt\n      tag_16\n      jumpi\n      calldataload(0x64)\n      swap1\n      calldataload(0x84)\n      calldataload(0xa4)\n      swap6\n      0xff\n      dup8\n      and\n      dup1\n      swap8\n      sub\n      tag_16\n      jumpi\n        /* \"src/Contract Architecture/Core Infrastructure/PermitManager.sol\":1999:2014  block.timestamp */\n      dup2\n      timestamp\n        /* \"src/Contract Architecture/Core Infrastructure/PermitManager.sol\":1999:2026  block.timestamp <= deadline */\n      gt\n        /* \"src/Contract Architecture/Core Infrastructure/PermitManager.sol\":305:2801  contract PermitManager {... */\n      tag_36\n      jumpi\n      0x01\n      dup1\n      0xa0\n      shl\n      sub\n      and\n      swap6\n      dup7\n      0x00\n      mstore\n      mstore(0x20, 0x00)\n      keccak256(0x00, 0x40)\n      dup5\n      0x00\n      mstore\n      0x20\n      mstore\n      jumpi(tag_38, and(sload(keccak256(0x00, 0x40)), 0xff))\n      0x80\n      0x00\n      swap2\n      0x20\n      swap4\n      tag_40\n      dup9\n      tag_3\n      jump\t// in\n    tag_40:\n      tag_41\n      mload(0x40)\n      swap2\n      dup3\n      tag_2\n      jump\t// in\n    tag_41:\n      dup9\n      dup2\n      mstore\n      dup6\n      dup2\n      add\n      swap1\n      dup10\n      dup9\n      dup4\n      calldatacopy\n      dup6\n      dup8\n      dup12\n      dup4\n      add\n      add\n      mstore\n      mload\n        /* \"src/Contract Architecture/Core Infrastructure/PermitManager.sol\":2246:2261  keccak256(data) */\n      swap1\n      keccak256\n        /* \"src/Contract Architecture/Core Infrastructure/PermitManager.sol\":305:2801  contract PermitManager {... */\n      swap1\n      mload(0x40)\n        /* \"src/Contract Architecture/Core Infrastructure/PermitManager.sol\":2155:2312  abi.encode(... */\n      swap1\n      dup7\n      dup3\n      add\n        /* \"src/Contract Architecture/Core Infrastructure/PermitManager.sol\":305:2801  contract PermitManager {... */\n      swap3\n        /* \"src/Contract Architecture/Core Infrastructure/PermitManager.sol\":677:767  keccak256(\"Permit(address user,address target,bytes data,uint256 nonce,uint256 deadline)\") */\n      0x3f0f14f4ff3aee22ffaa8ea13baa68e18aa7fbdf31e4551f3bcd788c50024f2a\n        /* \"src/Contract Architecture/Core Infrastructure/PermitManager.sol\":305:2801  contract PermitManager {... */\n      dup5\n      mstore\n      dup13\n      0x40\n      dup5\n      add\n      mstore\n      dup14\n      0x60\n      dup5\n      add\n      mstore\n      dup6\n      dup4\n      add\n      mstore\n      dup9\n      0xa0\n      dup4\n      add\n      mstore\n      0xc0\n      dup3\n      add\n      mstore\n      0xc0\n        /* \"src/Contract Architecture/Core Infrastructure/PermitManager.sol\":2155:2312  abi.encode(... */\n      dup2\n      mstore\n      tag_42\n        /* \"src/Contract Architecture/Core Infrastructure/PermitManager.sol\":305:2801  contract PermitManager {... */\n      0xe0\n        /* \"src/Contract Architecture/Core Infrastructure/PermitManager.sol\":2155:2312  abi.encode(... */\n      dup3\n      tag_2\n      jump\t// in\n    tag_42:\n        /* \"src/Contract Architecture/Core Infrastructure/PermitManager.sol\":305:2801  contract PermitManager {... */\n      mload\n        /* \"src/Contract Architecture/Core Infrastructure/PermitManager.sol\":2145:2313  keccak256(abi.encode(... */\n      swap1\n      keccak256\n        /* \"src/Contract Architecture/Core Infrastructure/PermitManager.sol\":305:2801  contract PermitManager {... */\n      mload(0x40)\n        /* \"src/Contract Architecture/Core Infrastructure/PermitManager.sol\":2351:2409  abi.encodePacked(\"\\x19\\x01\", DOMAIN_SEPARATOR, structHash) */\n      dup6\n      dup2\n      add\n        /* \"src/Contract Architecture/Core Infrastructure/PermitManager.sol\":305:2801  contract PermitManager {... */\n      swap2\n      shl(0xf0, 0x1901)\n      dup4\n      mstore\n        /* \"src/Contract Architecture/Core Infrastructure/PermitManager.sol\":2380:2396  DOMAIN_SEPARATOR */\n      immutable(\"0x7f8b6b088b6d74c2852fc86c796dca07b44eed6fb3daf5e6b59f7c364db14528\")\n        /* \"src/Contract Architecture/Core Infrastructure/PermitManager.sol\":305:2801  contract PermitManager {... */\n      0x22\n      dup4\n      add\n      mstore\n      0x42\n      dup3\n      add\n      mstore\n      0x42\n        /* \"src/Contract Architecture/Core Infrastructure/PermitManager.sol\":2351:2409  abi.encodePacked(\"\\x19\\x01\", DOMAIN_SEPARATOR, structHash) */\n      dup2\n      mstore\n      tag_43\n      0x62\n      dup3\n      tag_2\n      jump\t// in\n    tag_43:\n        /* \"src/Contract Architecture/Core Infrastructure/PermitManager.sol\":305:2801  contract PermitManager {... */\n      mload\n        /* \"src/Contract Architecture/Core Infrastructure/PermitManager.sol\":2341:2410  keccak256(abi.encodePacked(\"\\x19\\x01\", DOMAIN_SEPARATOR, structHash)) */\n      swap1\n      keccak256\n        /* \"src/Contract Architecture/Core Infrastructure/PermitManager.sol\":305:2801  contract PermitManager {... */\n      swap1\n      mload(0x40)\n      swap2\n      dup3\n      mstore\n      dup5\n      dup3\n      add\n      mstore\n      calldataload(0xc4)\n      0x40\n      dup3\n      add\n      mstore\n      calldataload(0xe4)\n      0x60\n      dup3\n      add\n      mstore\n        /* \"src/Contract Architecture/Core Infrastructure/PermitManager.sol\":2440:2466  ecrecover(digest, v, r, s) */\n      dup3\n      dup1\n      mstore\n        /* \"src/Contract Architecture/Core Infrastructure/PermitManager.sol\":305:2801  contract PermitManager {... */\n      0x01\n        /* \"src/Contract Architecture/Core Infrastructure/PermitManager.sol\":2440:2466  ecrecover(digest, v, r, s) */\n      gas\n      staticcall\n      iszero\n      tag_44\n      jumpi\n        /* \"src/Contract Architecture/Core Infrastructure/PermitManager.sol\":305:2801  contract PermitManager {... */\n      0x00\n        /* \"src/Contract Architecture/Core Infrastructure/PermitManager.sol\":2440:2466  ecrecover(digest, v, r, s) */\n      mload\n      sub(shl(0xa0, 0x01), 0x01)\n        /* \"src/Contract Architecture/Core Infrastructure/PermitManager.sol\":305:2801  contract PermitManager {... */\n      and\n        /* \"src/Contract Architecture/Core Infrastructure/PermitManager.sol\":2484:2507  recovered != address(0) */\n      dup1\n      iszero\n      iszero\n      swap1\n      dup7\n      swap1\n      dup3\n        /* \"src/Contract Architecture/Core Infrastructure/PermitManager.sol\":2484:2528  recovered != address(0) && recovered == user */\n      tag_46\n      jumpi\n        /* \"src/Contract Architecture/Core Infrastructure/PermitManager.sol\":305:2801  contract PermitManager {... */\n    tag_47:\n      pop\n      pop\n      iszero\n      tag_48\n      jumpi\n      0x00\n      swap6\n      dup6\n        /* \"src/Contract Architecture/Core Infrastructure/PermitManager.sol\":2615:2646  PermitUsed(user, target, nonce) */\n      0x1de9b1f4277253dc9ecd0dcf53c796ecb43ff6fa66d9f49e0ac00c8ed2dd4326\n        /* \"src/Contract Architecture/Core Infrastructure/PermitManager.sol\":305:2801  contract PermitManager {... */\n      0x20\n      dup10\n      swap9\n      swap6\n      dup10\n      swap7\n      dup8\n      mstore\n      dup7\n      dup3\n      mstore\n      0x40\n      dup8\n      keccak256\n      dup2\n      dup9\n      mstore\n      dup3\n      mstore\n      0x40\n      dup8\n      keccak256\n      0x01\n      not(0xff)\n      dup3\n      sload\n      and\n      or\n      swap1\n      sstore\n      mload(0x40)\n      swap1\n      dup2\n      mstore\n        /* \"src/Contract Architecture/Core Infrastructure/PermitManager.sol\":2615:2646  PermitUsed(user, target, nonce) */\n      log3\n        /* \"src/Contract Architecture/Core Infrastructure/PermitManager.sol\":305:2801  contract PermitManager {... */\n      dup3\n      mload(0x40)\n      swap4\n      dup5\n      swap3\n      dup4\n      calldatacopy\n      dup2\n      add\n      dup3\n      dup2\n      mstore\n        /* \"src/Contract Architecture/Core Infrastructure/PermitManager.sol\":2733:2750  target.call(data) */\n      sub\n      swap3\n      gas\n      call\n        /* \"src/Contract Architecture/Core Infrastructure/PermitManager.sol\":305:2801  contract PermitManager {... */\n      jumpi(tag_50, iszero(returndatasize))\n      returndatasize\n      swap1\n      tag_52\n      dup3\n      tag_3\n      jump\t// in\n    tag_52:\n      swap2\n      tag_53\n      mload(0x40)\n      swap4\n      dup5\n      tag_2\n      jump\t// in\n    tag_53:\n      dup3\n      mstore\n      returndatasize\n      0x00\n      0x20\n      dup5\n      add\n      returndatacopy\n    tag_54:\n      iszero\n      tag_55\n      jumpi\n      stop\n    tag_55:\n      0x44\n      0x20\n      swap2\n      mload(0x40)\n      swap3\n      dup4\n      swap2\n      shl(0xe5, 0x461bcd)\n      dup4\n      mstore\n      dup2\n      0x04\n      dup5\n      add\n      mstore\n      dup1\n      mload\n      swap2\n      dup3\n      swap2\n      dup3\n      0x24\n      dup7\n      add\n      mstore\n      add\n      dup5\n      dup5\n      add\n      mcopy\n      0x00\n      dup3\n      dup3\n      add\n      dup5\n      add\n      mstore\n      0x1f\n      add\n      not(0x1f)\n      and\n      dup2\n      add\n      sub\n      add\n      swap1\n      revert\n    tag_50:\n      0x60\n      swap1\n      jump(tag_54)\n    tag_48:\n      mload(0x40)\n      shl(0xe5, 0x461bcd)\n      dup2\n      mstore\n      0x20\n      0x04\n      dup3\n      add\n      mstore\n      0x19\n      0x24\n      dup3\n      add\n      mstore\n      0x5065726d69743a20696e76616c6964207369676e617475726500000000000000\n      0x44\n      dup3\n      add\n      mstore\n      0x64\n      swap1\n      revert\n        /* \"src/Contract Architecture/Core Infrastructure/PermitManager.sol\":2484:2528  recovered != address(0) && recovered == user */\n    tag_46:\n        /* \"src/Contract Architecture/Core Infrastructure/PermitManager.sol\":2511:2528  recovered == user */\n      eq\n      swap1\n      pop\n        /* \"src/Contract Architecture/Core Infrastructure/PermitManager.sol\":2484:2528  recovered != address(0) && recovered == user */\n      dup6\n      dup9\n      jump(tag_47)\n        /* \"src/Contract Architecture/Core Infrastructure/PermitManager.sol\":2440:2466  ecrecover(digest, v, r, s) */\n    tag_44:\n        /* \"src/Contract Architecture/Core Infrastructure/PermitManager.sol\":305:2801  contract PermitManager {... */\n      mload(0x40)\n      returndatasize\n      0x00\n      dup3\n      returndatacopy\n      returndatasize\n      swap1\n      revert\n    tag_38:\n      mload(0x40)\n      shl(0xe5, 0x461bcd)\n      dup2\n      mstore\n      0x20\n      0x04\n      dup3\n      add\n      mstore\n      0x14\n      0x24\n      dup3\n      add\n      mstore\n      shl(0x62, 0x14195c9b5a5d0e88185b1c9958591e481d5cd959)\n      0x44\n      dup3\n      add\n      mstore\n      0x64\n      swap1\n      revert\n    tag_36:\n      mload(0x40)\n      shl(0xe5, 0x461bcd)\n      dup2\n      mstore\n      0x20\n      0x04\n      dup3\n      add\n      mstore\n      0x0f\n      0x24\n      dup3\n      add\n      mstore\n      shl(0x8a, 0x14195c9b5a5d0e88195e1c1a5c9959)\n      0x44\n      dup3\n      add\n      mstore\n      0x64\n      swap1\n      revert\n    tag_8:\n      jumpi(tag_16, callvalue)\n      jumpi(tag_16, slt(add(not(0x03), calldatasize), 0x00))\n      0x20\n      mload(0x40)\n        /* \"src/Contract Architecture/Core Infrastructure/PermitManager.sol\":532:573  bytes32 public immutable DOMAIN_SEPARATOR */\n      immutable(\"0x7f8b6b088b6d74c2852fc86c796dca07b44eed6fb3daf5e6b59f7c364db14528\")\n        /* \"src/Contract Architecture/Core Infrastructure/PermitManager.sol\":305:2801  contract PermitManager {... */\n      dup2\n      mstore\n      return\n    tag_6:\n      jumpi(tag_16, callvalue)\n      jumpi(tag_16, slt(add(not(0x03), calldatasize), 0x00))\n      dup1\n        /* \"src/Contract Architecture/Core Infrastructure/PermitManager.sol\":677:767  keccak256(\"Permit(address user,address target,bytes data,uint256 nonce,uint256 deadline)\") */\n      0x3f0f14f4ff3aee22ffaa8ea13baa68e18aa7fbdf31e4551f3bcd788c50024f2a\n        /* \"src/Contract Architecture/Core Infrastructure/PermitManager.sol\":305:2801  contract PermitManager {... */\n      0x20\n      swap3\n      mstore\n      return\n    tag_1:\n      calldataload(0x04)\n      swap1\n      sub(shl(0xa0, 0x01), 0x01)\n      dup3\n      and\n      dup3\n      sub\n      tag_16\n      jumpi\n      jump\t// out\n    tag_2:\n      swap1\n      0x1f\n        /* \"src/Contract Architecture/Core Infrastructure/PermitManager.sol\":2155:2312  abi.encode(... */\n      dup1\n      not\n        /* \"src/Contract Architecture/Core Infrastructure/PermitManager.sol\":305:2801  contract PermitManager {... */\n      swap2\n      add\n      and\n      dup2\n      add\n      swap1\n      dup2\n      lt\n      0xffffffffffffffff\n      dup3\n      gt\n      or\n      tag_67\n      jumpi\n      0x40\n      mstore\n      jump\t// out\n    tag_67:\n      mstore(0x00, shl(0xe0, 0x4e487b71))\n      mstore(0x04, 0x41)\n      revert(0x00, 0x24)\n    tag_3:\n      0xffffffffffffffff\n      dup2\n      gt\n      tag_67\n      jumpi\n      0x1f\n      add\n      not(0x1f)\n      and\n      0x20\n      add\n      swap1\n      jump\t// out\n\n    auxdata: 0xa264697066735822122036951182521b961172aa7331f678c483cc2e5a387c7bb09652b3ab42fadf2b3364736f6c634300081a0033\n}\n",
				"bytecode": {
					"linkReferences": {},
					"object": "60a0604052346100eb576040516100176040826100ef565b600d81526c2832b936b4ba26b0b730b3b2b960991b602090910152604080517f9b4dc591cd05bec977ed67abb81318d2d79fd2e167e60003b0c05348a02010cf9161006290826100ef565b600181526020810190603160f81b82525190206040519060208201927f8b73c3c69bb8fe3d512ecc4cf759cc79239f7b179b0ffacaa9a75d522b39400f8452604083015260608201524660808201523060a082015260a081526100c660c0826100ef565b51902060805260405161051b908161012782396080518181816101e601526104220152f35b5f80fd5b601f909101601f19168101906001600160401b0382119082101761011257604052565b634e487b7160e01b5f52604160045260245ffdfe6080806040526004361015610012575f80fd5b5f3560e01c90816330adf81f14610445575080633644e5151461040b57806345955d841461009457636a8a689414610048575f80fd5b34610090576040366003190112610090576001600160a01b0361006961047d565b165f525f60205260405f206024355f52602052602060ff60405f2054166040519015158152f35b5f80fd5b3461009057610100366003190112610090576100ae61047d565b6024356001600160a01b03811691908281036100905760443567ffffffffffffffff811161009057366023820112156100905780600401359067ffffffffffffffff82116100905760248101906024833692010111610090576064359060843560a4359560ff8716809703610090578142116103d45760018060a01b031695865f525f60205260405f20845f5260205260ff60405f2054166103985760805f9160209361015a886104c9565b6101676040519182610493565b888152858101908988833785878b830101525190209060405190868201927f3f0f14f4ff3aee22ffaa8ea13baa68e18aa7fbdf31e4551f3bcd788c50024f2a84528c60408401528d6060840152858301528860a083015260c082015260c081526101d260e082610493565b5190206040518581019161190160f01b83527f0000000000000000000000000000000000000000000000000000000000000000602283015260428201526042815261021e606282610493565b519020906040519182528482015260c435604082015260e435606082015282805260015afa1561038d575f516001600160a01b031680151590869082610383575b50501561033e575f95857f1de9b1f4277253dc9ecd0dcf53c796ecb43ff6fa66d9f49e0ac00c8ed2dd432660208998958996875286825260408720818852825260408720600160ff19825416179055604051908152a3826040519384928337810182815203925af13d15610336573d906102d8826104c9565b916102e66040519384610493565b82523d5f602084013e5b156102f757005b604460209160405192839162461bcd60e51b83528160048401528051918291826024860152018484015e5f828201840152601f01601f19168101030190fd5b6060906102f0565b60405162461bcd60e51b815260206004820152601960248201527f5065726d69743a20696e76616c6964207369676e6174757265000000000000006044820152606490fd5b149050858861025f565b6040513d5f823e3d90fd5b60405162461bcd60e51b815260206004820152601460248201527314195c9b5a5d0e88185b1c9958591e481d5cd95960621b6044820152606490fd5b60405162461bcd60e51b815260206004820152600f60248201526e14195c9b5a5d0e88195e1c1a5c9959608a1b6044820152606490fd5b34610090575f3660031901126100905760206040517f00000000000000000000000000000000000000000000000000000000000000008152f35b34610090575f36600319011261009057807f3f0f14f4ff3aee22ffaa8ea13baa68e18aa7fbdf31e4551f3bcd788c50024f2a60209252f35b600435906001600160a01b038216820361009057565b90601f8019910116810190811067ffffffffffffffff8211176104b557604052565b634e487b7160e01b5f52604160045260245ffd5b67ffffffffffffffff81116104b557601f01601f19166020019056fea264697066735822122036951182521b961172aa7331f678c483cc2e5a387c7bb09652b3ab42fadf2b3364736f6c634300081a0033",
					"opcodes": "PUSH1 0xA0 PUSH1 0x40 MSTORE CALLVALUE PUSH2 0xEB JUMPI PUSH1 0x40 MLOAD PUSH2 0x17 PUSH1 0x40 DUP3 PUSH2 0xEF JUMP JUMPDEST PUSH1 0xD DUP2 MSTORE PUSH13 0x2832B936B4BA26B0B730B3B2B9 PUSH1 0x99 SHL PUSH1 0x20 SWAP1 SWAP2 ADD MSTORE PUSH1 0x40 DUP1 MLOAD PUSH32 0x9B4DC591CD05BEC977ED67ABB81318D2D79FD2E167E60003B0C05348A02010CF SWAP2 PUSH2 0x62 SWAP1 DUP3 PUSH2 0xEF JUMP JUMPDEST PUSH1 0x1 DUP2 MSTORE PUSH1 0x20 DUP2 ADD SWAP1 PUSH1 0x31 PUSH1 0xF8 SHL DUP3 MSTORE MLOAD SWAP1 KECCAK256 PUSH1 0x40 MLOAD SWAP1 PUSH1 0x20 DUP3 ADD SWAP3 PUSH32 0x8B73C3C69BB8FE3D512ECC4CF759CC79239F7B179B0FFACAA9A75D522B39400F DUP5 MSTORE PUSH1 0x40 DUP4 ADD MSTORE PUSH1 0x60 DUP3 ADD MSTORE CHAINID PUSH1 0x80 DUP3 ADD MSTORE ADDRESS PUSH1 0xA0 DUP3 ADD MSTORE PUSH1 0xA0 DUP2 MSTORE PUSH2 0xC6 PUSH1 0xC0 DUP3 PUSH2 0xEF JUMP JUMPDEST MLOAD SWAP1 KECCAK256 PUSH1 0x80 MSTORE PUSH1 0x40 MLOAD PUSH2 0x51B SWAP1 DUP2 PUSH2 0x127 DUP3 CODECOPY PUSH1 0x80 MLOAD DUP2 DUP2 DUP2 PUSH2 0x1E6 ADD MSTORE PUSH2 0x422 ADD MSTORE RETURN JUMPDEST PUSH0 DUP1 REVERT JUMPDEST PUSH1 0x1F SWAP1 SWAP2 ADD PUSH1 0x1F NOT AND DUP2 ADD SWAP1 PUSH1 0x1 PUSH1 0x1 PUSH1 0x40 SHL SUB DUP3 GT SWAP1 DUP3 LT OR PUSH2 0x112 JUMPI PUSH1 0x40 MSTORE JUMP JUMPDEST PUSH4 0x4E487B71 PUSH1 0xE0 SHL PUSH0 MSTORE PUSH1 0x41 PUSH1 0x4 MSTORE PUSH1 0x24 PUSH0 REVERT INVALID PUSH1 0x80 DUP1 PUSH1 0x40 MSTORE PUSH1 0x4 CALLDATASIZE LT ISZERO PUSH2 0x12 JUMPI PUSH0 DUP1 REVERT JUMPDEST PUSH0 CALLDATALOAD PUSH1 0xE0 SHR SWAP1 DUP2 PUSH4 0x30ADF81F EQ PUSH2 0x445 JUMPI POP DUP1 PUSH4 0x3644E515 EQ PUSH2 0x40B JUMPI DUP1 PUSH4 0x45955D84 EQ PUSH2 0x94 JUMPI PUSH4 0x6A8A6894 EQ PUSH2 0x48 JUMPI PUSH0 DUP1 REVERT JUMPDEST CALLVALUE PUSH2 0x90 JUMPI PUSH1 0x40 CALLDATASIZE PUSH1 0x3 NOT ADD SLT PUSH2 0x90 JUMPI PUSH1 0x1 PUSH1 0x1 PUSH1 0xA0 SHL SUB PUSH2 0x69 PUSH2 0x47D JUMP JUMPDEST AND PUSH0 MSTORE PUSH0 PUSH1 0x20 MSTORE PUSH1 0x40 PUSH0 KECCAK256 PUSH1 0x24 CALLDATALOAD PUSH0 MSTORE PUSH1 0x20 MSTORE PUSH1 0x20 PUSH1 0xFF PUSH1 0x40 PUSH0 KECCAK256 SLOAD AND PUSH1 0x40 MLOAD SWAP1 ISZERO ISZERO DUP2 MSTORE RETURN JUMPDEST PUSH0 DUP1 REVERT JUMPDEST CALLVALUE PUSH2 0x90 JUMPI PUSH2 0x100 CALLDATASIZE PUSH1 0x3 NOT ADD SLT PUSH2 0x90 JUMPI PUSH2 0xAE PUSH2 0x47D JUMP JUMPDEST PUSH1 0x24 CALLDATALOAD PUSH1 0x1 PUSH1 0x1 PUSH1 0xA0 SHL SUB DUP2 AND SWAP2 SWAP1 DUP3 DUP2 SUB PUSH2 0x90 JUMPI PUSH1 0x44 CALLDATALOAD PUSH8 0xFFFFFFFFFFFFFFFF DUP2 GT PUSH2 0x90 JUMPI CALLDATASIZE PUSH1 0x23 DUP3 ADD SLT ISZERO PUSH2 0x90 JUMPI DUP1 PUSH1 0x4 ADD CALLDATALOAD SWAP1 PUSH8 0xFFFFFFFFFFFFFFFF DUP3 GT PUSH2 0x90 JUMPI PUSH1 0x24 DUP2 ADD SWAP1 PUSH1 0x24 DUP4 CALLDATASIZE SWAP3 ADD ADD GT PUSH2 0x90 JUMPI PUSH1 0x64 CALLDATALOAD SWAP1 PUSH1 0x84 CALLDATALOAD PUSH1 0xA4 CALLDATALOAD SWAP6 PUSH1 0xFF DUP8 AND DUP1 SWAP8 SUB PUSH2 0x90 JUMPI DUP2 TIMESTAMP GT PUSH2 0x3D4 JUMPI PUSH1 0x1 DUP1 PUSH1 0xA0 SHL SUB AND SWAP6 DUP7 PUSH0 MSTORE PUSH0 PUSH1 0x20 MSTORE PUSH1 0x40 PUSH0 KECCAK256 DUP5 PUSH0 MSTORE PUSH1 0x20 MSTORE PUSH1 0xFF PUSH1 0x40 PUSH0 KECCAK256 SLOAD AND PUSH2 0x398 JUMPI PUSH1 0x80 PUSH0 SWAP2 PUSH1 0x20 SWAP4 PUSH2 0x15A DUP9 PUSH2 0x4C9 JUMP JUMPDEST PUSH2 0x167 PUSH1 0x40 MLOAD SWAP2 DUP3 PUSH2 0x493 JUMP JUMPDEST DUP9 DUP2 MSTORE DUP6 DUP2 ADD SWAP1 DUP10 DUP9 DUP4 CALLDATACOPY DUP6 DUP8 DUP12 DUP4 ADD ADD MSTORE MLOAD SWAP1 KECCAK256 SWAP1 PUSH1 0x40 MLOAD SWAP1 DUP7 DUP3 ADD SWAP3 PUSH32 0x3F0F14F4FF3AEE22FFAA8EA13BAA68E18AA7FBDF31E4551F3BCD788C50024F2A DUP5 MSTORE DUP13 PUSH1 0x40 DUP5 ADD MSTORE DUP14 PUSH1 0x60 DUP5 ADD MSTORE DUP6 DUP4 ADD MSTORE DUP9 PUSH1 0xA0 DUP4 ADD MSTORE PUSH1 0xC0 DUP3 ADD MSTORE PUSH1 0xC0 DUP2 MSTORE PUSH2 0x1D2 PUSH1 0xE0 DUP3 PUSH2 0x493 JUMP JUMPDEST MLOAD SWAP1 KECCAK256 PUSH1 0x40 MLOAD DUP6 DUP2 ADD SWAP2 PUSH2 0x1901 PUSH1 0xF0 SHL DUP4 MSTORE PUSH32 0x0 PUSH1 0x22 DUP4 ADD MSTORE PUSH1 0x42 DUP3 ADD MSTORE PUSH1 0x42 DUP2 MSTORE PUSH2 0x21E PUSH1 0x62 DUP3 PUSH2 0x493 JUMP JUMPDEST MLOAD SWAP1 KECCAK256 SWAP1 PUSH1 0x40 MLOAD SWAP2 DUP3 MSTORE DUP5 DUP3 ADD MSTORE PUSH1 0xC4 CALLDATALOAD PUSH1 0x40 DUP3 ADD MSTORE PUSH1 0xE4 CALLDATALOAD PUSH1 0x60 DUP3 ADD MSTORE DUP3 DUP1 MSTORE PUSH1 0x1 GAS STATICCALL ISZERO PUSH2 0x38D JUMPI PUSH0 MLOAD PUSH1 0x1 PUSH1 0x1 PUSH1 0xA0 SHL SUB AND DUP1 ISZERO ISZERO SWAP1 DUP7 SWAP1 DUP3 PUSH2 0x383 JUMPI JUMPDEST POP POP ISZERO PUSH2 0x33E JUMPI PUSH0 SWAP6 DUP6 PUSH32 0x1DE9B1F4277253DC9ECD0DCF53C796ECB43FF6FA66D9F49E0AC00C8ED2DD4326 PUSH1 0x20 DUP10 SWAP9 SWAP6 DUP10 SWAP7 DUP8 MSTORE DUP7 DUP3 MSTORE PUSH1 0x40 DUP8 KECCAK256 DUP2 DUP9 MSTORE DUP3 MSTORE PUSH1 0x40 DUP8 KECCAK256 PUSH1 0x1 PUSH1 0xFF NOT DUP3 SLOAD AND OR SWAP1 SSTORE PUSH1 0x40 MLOAD SWAP1 DUP2 MSTORE LOG3 DUP3 PUSH1 0x40 MLOAD SWAP4 DUP5 SWAP3 DUP4 CALLDATACOPY DUP2 ADD DUP3 DUP2 MSTORE SUB SWAP3 GAS CALL RETURNDATASIZE ISZERO PUSH2 0x336 JUMPI RETURNDATASIZE SWAP1 PUSH2 0x2D8 DUP3 PUSH2 0x4C9 JUMP JUMPDEST SWAP2 PUSH2 0x2E6 PUSH1 0x40 MLOAD SWAP4 DUP5 PUSH2 0x493 JUMP JUMPDEST DUP3 MSTORE RETURNDATASIZE PUSH0 PUSH1 0x20 DUP5 ADD RETURNDATACOPY JUMPDEST ISZERO PUSH2 0x2F7 JUMPI STOP JUMPDEST PUSH1 0x44 PUSH1 0x20 SWAP2 PUSH1 0x40 MLOAD SWAP3 DUP4 SWAP2 PUSH3 0x461BCD PUSH1 0xE5 SHL DUP4 MSTORE DUP2 PUSH1 0x4 DUP5 ADD MSTORE DUP1 MLOAD SWAP2 DUP3 SWAP2 DUP3 PUSH1 0x24 DUP7 ADD MSTORE ADD DUP5 DUP5 ADD MCOPY PUSH0 DUP3 DUP3 ADD DUP5 ADD MSTORE PUSH1 0x1F ADD PUSH1 0x1F NOT AND DUP2 ADD SUB ADD SWAP1 REVERT JUMPDEST PUSH1 0x60 SWAP1 PUSH2 0x2F0 JUMP JUMPDEST PUSH1 0x40 MLOAD PUSH3 0x461BCD PUSH1 0xE5 SHL DUP2 MSTORE PUSH1 0x20 PUSH1 0x4 DUP3 ADD MSTORE PUSH1 0x19 PUSH1 0x24 DUP3 ADD MSTORE PUSH32 0x5065726D69743A20696E76616C6964207369676E617475726500000000000000 PUSH1 0x44 DUP3 ADD MSTORE PUSH1 0x64 SWAP1 REVERT JUMPDEST EQ SWAP1 POP DUP6 DUP9 PUSH2 0x25F JUMP JUMPDEST PUSH1 0x40 MLOAD RETURNDATASIZE PUSH0 DUP3 RETURNDATACOPY RETURNDATASIZE SWAP1 REVERT JUMPDEST PUSH1 0x40 MLOAD PUSH3 0x461BCD PUSH1 0xE5 SHL DUP2 MSTORE PUSH1 0x20 PUSH1 0x4 DUP3 ADD MSTORE PUSH1 0x14 PUSH1 0x24 DUP3 ADD MSTORE PUSH20 0x14195C9B5A5D0E88185B1C9958591E481D5CD959 PUSH1 0x62 SHL PUSH1 0x44 DUP3 ADD MSTORE PUSH1 0x64 SWAP1 REVERT JUMPDEST PUSH1 0x40 MLOAD PUSH3 0x461BCD PUSH1 0xE5 SHL DUP2 MSTORE PUSH1 0x20 PUSH1 0x4 DUP3 ADD MSTORE PUSH1 0xF PUSH1 0x24 DUP3 ADD MSTORE PUSH15 0x14195C9B5A5D0E88195E1C1A5C9959 PUSH1 0x8A SHL PUSH1 0x44 DUP3 ADD MSTORE PUSH1 0x64 SWAP1 REVERT JUMPDEST CALLVALUE PUSH2 0x90 JUMPI PUSH0 CALLDATASIZE PUSH1 0x3 NOT ADD SLT PUSH2 0x90 JUMPI PUSH1 0x20 PUSH1 0x40 MLOAD PUSH32 0x0 DUP2 MSTORE RETURN JUMPDEST CALLVALUE PUSH2 0x90 JUMPI PUSH0 CALLDATASIZE PUSH1 0x3 NOT ADD SLT PUSH2 0x90 JUMPI DUP1 PUSH32 0x3F0F14F4FF3AEE22FFAA8EA13BAA68E18AA7FBDF31E4551F3BCD788C50024F2A PUSH1 0x20 SWAP3 MSTORE RETURN JUMPDEST PUSH1 0x4 CALLDATALOAD SWAP1 PUSH1 0x1 PUSH1 0x1 PUSH1 0xA0 SHL SUB DUP3 AND DUP3 SUB PUSH2 0x90 JUMPI JUMP JUMPDEST SWAP1 PUSH1 0x1F DUP1 NOT SWAP2 ADD AND DUP2 ADD SWAP1 DUP2 LT PUSH8 0xFFFFFFFFFFFFFFFF DUP3 GT OR PUSH2 0x4B5 JUMPI PUSH1 0x40 MSTORE JUMP JUMPDEST PUSH4 0x4E487B71 PUSH1 0xE0 SHL PUSH0 MSTORE PUSH1 0x41 PUSH1 0x4 MSTORE PUSH1 0x24 PUSH0 REVERT JUMPDEST PUSH8 0xFFFFFFFFFFFFFFFF DUP2 GT PUSH2 0x4B5 JUMPI PUSH1 0x1F ADD PUSH1 0x1F NOT AND PUSH1 0x20 ADD SWAP1 JUMP INVALID LOG2 PUSH5 0x6970667358 0x22 SLT KECCAK256 CALLDATASIZE SWAP6 GT DUP3 MSTORE SHL SWAP7 GT PUSH19 0xAA7331F678C483CC2E5A387C7BB09652B3AB42 STATICCALL 0xDF 0x2B CALLER PUSH5 0x736F6C6343 STOP ADDMOD BYTE STOP CALLER "
				},
				"gasEstimates": {
					"creation": {
						"codeDepositCost": "261400",
						"executionCost": "infinite",
						"totalCost": "infinite"
					},
					"external": {
						"DOMAIN_SEPARATOR()": "infinite",
						"PERMIT_TYPEHASH()": "148",
						"usePermit(address,address,bytes,uint256,uint256,uint8,bytes32,bytes32)": "infinite",
						"usedNonces(address,uint256)": "2544"
					}
				},
				"methodIdentifiers": {
					"DOMAIN_SEPARATOR()": "3644e515",
					"PERMIT_TYPEHASH()": "30adf81f",
					"usePermit(address,address,bytes,uint256,uint256,uint8,bytes32,bytes32)": "45955d84",
					"usedNonces(address,uint256)": "6a8a6894"
				}
			},
			"storageLayout": {
				"storage": [
					{
						"astId": 9,
						"contract": "src/Contract Architecture/Core Infrastructure/PermitManager.sol:PermitManager",
						"label": "usedNonces",
						"offset": 0,
						"slot": "0",
						"type": "t_mapping(t_address,t_mapping(t_uint256,t_bool))"
					}
				],
				"types": {
					"t_address": {
						"encoding": "inplace",
						"label": "address",
						"numberOfBytes": "20"
					},
					"t_bool": {
						"encoding": "inplace",
						"label": "bool",
						"numberOfBytes": "1"
					},
					"t_mapping(t_address,t_mapping(t_uint256,t_bool))": {
						"encoding": "mapping",
						"key": "t_address",
						"label": "mapping(address => mapping(uint256 => bool))",
						"numberOfBytes": "32",
						"value": "t_mapping(t_uint256,t_bool)"
					},
					"t_mapping(t_uint256,t_bool)": {
						"encoding": "mapping",
						"key": "t_uint256",
						"label": "mapping(uint256 => bool)",
						"numberOfBytes": "32",
						"value": "t_bool"
					},
					"t_uint256": {
						"encoding": "inplace",
						"label": "uint256",
						"numberOfBytes": "32"
					}
				}
			},
			"userdoc": {
				"kind": "user",
				"methods": {
					"DOMAIN_SEPARATOR()": {
						"notice": "Domain separator for EIP-712"
					},
					"PERMIT_TYPEHASH()": {
						"notice": "Typehash for the Permit struct"
					},
					"usePermit(address,address,bytes,uint256,uint256,uint8,bytes32,bytes32)": {
						"notice": "Validates an EIP-712 permit signature and marks it as used."
					},
					"usedNonces(address,uint256)": {
						"notice": "Mapping of used nonces for replay protection: user => nonce => used"
					}
				},
				"notice": "Manages EIP-712 signature-based permissions for secure offchain-triggered actions.         Users can sign typed data authorizing the ActionExecutor (or other contracts) to perform specific actions.",
				"version": 1
			}
		}
	}
}