{
	"src/Contract Architecture/Governance & Configuration/OracleAdapter.sol": {
		"OracleAdapter": {
			"abi": [
				{
					"anonymous": false,
					"inputs": [
						{
							"indexed": true,
							"internalType": "bytes32",
							"name": "pair",
							"type": "bytes32"
						},
						{
							"indexed": false,
							"internalType": "address",
							"name": "feed",
							"type": "address"
						}
					],
					"name": "OracleRegistered",
					"type": "event"
				},
				{
					"inputs": [
						{
							"internalType": "bytes32",
							"name": "",
							"type": "bytes32"
						}
					],
					"name": "feeds",
					"outputs": [
						{
							"internalType": "address",
							"name": "",
							"type": "address"
						}
					],
					"stateMutability": "view",
					"type": "function"
				},
				{
					"inputs": [
						{
							"internalType": "string",
							"name": "pair",
							"type": "string"
						}
					],
					"name": "getOracle",
					"outputs": [
						{
							"internalType": "address",
							"name": "",
							"type": "address"
						}
					],
					"stateMutability": "view",
					"type": "function"
				},
				{
					"inputs": [
						{
							"internalType": "string",
							"name": "pair",
							"type": "string"
						}
					],
					"name": "getPrice",
					"outputs": [
						{
							"internalType": "int256",
							"name": "",
							"type": "int256"
						}
					],
					"stateMutability": "view",
					"type": "function"
				},
				{
					"inputs": [
						{
							"internalType": "string",
							"name": "pair",
							"type": "string"
						},
						{
							"internalType": "address",
							"name": "feed",
							"type": "address"
						}
					],
					"name": "registerOracle",
					"outputs": [],
					"stateMutability": "nonpayable",
					"type": "function"
				}
			],
			"devdoc": {
				"kind": "dev",
				"methods": {},
				"title": "OracleAdapter",
				"version": 1
			},
			"evm": {
				"assembly": "    /* \"src/Contract Architecture/Governance & Configuration/OracleAdapter.sol\":190:1063  contract OracleAdapter {... */\n  0x80\n  dup1\n  0x40\n  mstore\n  jumpi(tag_1, callvalue)\n  dataSize(sub_0)\n  swap1\n  dup2\n  dataOffset(sub_0)\n  dup3\n  codecopy\n  return\ntag_1:\n  0x00\n  dup1\n  revert\nstop\n\nsub_0: assembly {\n        /* \"src/Contract Architecture/Governance & Configuration/OracleAdapter.sol\":190:1063  contract OracleAdapter {... */\n      mstore(0x40, 0x80)\n      jumpi(tag_5, iszero(lt(calldatasize, 0x04)))\n      0x00\n      dup1\n      revert\n    tag_5:\n      shr(0xe0, calldataload(0x00))\n      dup1\n      0x524f3889\n      eq\n      tag_7\n      jumpi\n      dup1\n      0x7f59ea07\n      eq\n      tag_9\n      jumpi\n      dup1\n      0xa9daf6ad\n      eq\n      tag_11\n      jumpi\n      0xe90f1a43\n      eq\n      tag_13\n      jumpi\n      0x00\n      dup1\n      revert\n    tag_13:\n      jumpi(tag_17, callvalue)\n      jumpi(tag_17, slt(add(not(0x03), calldatasize), 0x20))\n      mstore(0x00, calldataload(0x04))\n      mstore(0x20, 0x00)\n      0x20\n      0x01\n      dup1\n      0xa0\n      shl\n      sub\n      sload(keccak256(0x00, 0x40))\n      and\n      mload(0x40)\n      swap1\n      dup2\n      mstore\n      return\n    tag_17:\n      0x00\n      dup1\n      revert\n    tag_11:\n      jumpi(tag_17, callvalue)\n      jumpi(tag_17, slt(add(not(0x03), calldatasize), 0x20))\n      calldataload(0x04)\n      0xffffffffffffffff\n      dup2\n      gt\n      tag_17\n      jumpi\n      tag_25\n      tag_26\n      0x20\n      swap3\n      calldatasize\n      swap1\n      0x04\n      add\n      tag_1\n      jump\t// in\n    tag_26:\n      swap1\n      tag_4\n      jump\t// in\n    tag_25:\n      mload(0x40)\n      sub(shl(0xa0, 0x01), 0x01)\n      swap1\n      swap2\n      and\n      dup2\n      mstore\n      return\n    tag_9:\n      jumpi(tag_17, callvalue)\n      jumpi(tag_17, slt(add(not(0x03), calldatasize), 0x40))\n      calldataload(0x04)\n      0xffffffffffffffff\n      dup2\n      gt\n      tag_17\n      jumpi\n      tag_33\n      swap1\n      calldatasize\n      swap1\n      0x04\n      add\n      tag_1\n      jump\t// in\n    tag_33:\n      calldataload(0x24)\n      sub(shl(0xa0, 0x01), 0x01)\n      dup2\n      and\n      swap3\n      swap2\n      swap1\n      dup4\n      swap1\n      sub\n      tag_17\n      jumpi\n        /* \"src/Contract Architecture/Governance & Configuration/OracleAdapter.sol\":533:561  OracleRegistered(hash, feed) */\n      0x89aa026552393defedbee4dc56d3dae8131f70d9087bc00c6a8a562c8a74dd28\n        /* \"src/Contract Architecture/Governance & Configuration/OracleAdapter.sol\":190:1063  contract OracleAdapter {... */\n      swap2\n      0x20\n      swap2\n        /* \"src/Contract Architecture/Governance & Configuration/OracleAdapter.sol\":467:489  abi.encodePacked(pair) */\n      tag_36\n        /* \"src/Contract Architecture/Governance & Configuration/OracleAdapter.sol\":190:1063  contract OracleAdapter {... */\n      dup4\n      mload(0x40)\n        /* \"src/Contract Architecture/Governance & Configuration/OracleAdapter.sol\":467:489  abi.encodePacked(pair) */\n      dup4\n      dup2\n      swap5\n      dup4\n      dup4\n      add\n        /* \"src/Contract Architecture/Governance & Configuration/OracleAdapter.sol\":190:1063  contract OracleAdapter {... */\n      swap7\n      dup8\n      calldatacopy\n      dup2\n      add\n      0x00\n      dup4\n      dup3\n      add\n      mstore\n        /* \"src/Contract Architecture/Governance & Configuration/OracleAdapter.sol\":467:489  abi.encodePacked(pair) */\n      sub\n      add\n      not(0x1f)\n      dup2\n      add\n      dup4\n      mstore\n      dup3\n      tag_2\n      jump\t// in\n    tag_36:\n        /* \"src/Contract Architecture/Governance & Configuration/OracleAdapter.sol\":190:1063  contract OracleAdapter {... */\n      mload\n        /* \"src/Contract Architecture/Governance & Configuration/OracleAdapter.sol\":457:490  keccak256(abi.encodePacked(pair)) */\n      swap1\n      keccak256\n        /* \"src/Contract Architecture/Governance & Configuration/OracleAdapter.sol\":190:1063  contract OracleAdapter {... */\n      swap3\n      dup4\n      0x00\n      mstore\n      0x00\n      dup3\n      mstore\n      keccak256(0x00, 0x40)\n      dup2\n      shl(0xa0, 0xffffffffffffffffffffffff)\n      dup3\n      sload\n      and\n      or\n      swap1\n      sstore\n      mload(0x40)\n      swap1\n      dup2\n      mstore\n        /* \"src/Contract Architecture/Governance & Configuration/OracleAdapter.sol\":533:561  OracleRegistered(hash, feed) */\n      log2\n        /* \"src/Contract Architecture/Governance & Configuration/OracleAdapter.sol\":190:1063  contract OracleAdapter {... */\n      stop\n    tag_7:\n      jumpi(tag_17, callvalue)\n      jumpi(tag_17, slt(add(not(0x03), calldatasize), 0x20))\n      calldataload(0x04)\n      0xffffffffffffffff\n      dup2\n      gt\n      tag_17\n      jumpi\n      tag_43\n        /* \"src/Contract Architecture/Governance & Configuration/OracleAdapter.sol\":869:884  getOracle(pair) */\n      tag_44\n        /* \"src/Contract Architecture/Governance & Configuration/OracleAdapter.sol\":190:1063  contract OracleAdapter {... */\n      swap2\n      calldatasize\n      swap1\n      0x04\n      add\n      tag_1\n      jump\t// in\n    tag_43:\n      sub(shl(0xa0, 0x01), 0x01)\n      swap3\n      swap2\n        /* \"src/Contract Architecture/Governance & Configuration/OracleAdapter.sol\":869:884  getOracle(pair) */\n      tag_4\n      jump\t// in\n    tag_44:\n        /* \"src/Contract Architecture/Governance & Configuration/OracleAdapter.sol\":190:1063  contract OracleAdapter {... */\n      and\n        /* \"src/Contract Architecture/Governance & Configuration/OracleAdapter.sol\":902:920  feed != address(0) */\n      dup1\n      iszero\n        /* \"src/Contract Architecture/Governance & Configuration/OracleAdapter.sol\":190:1063  contract OracleAdapter {... */\n      tag_45\n      jumpi\n        /* \"src/Contract Architecture/Governance & Configuration/OracleAdapter.sol\":986:1031  AggregatorV3Interface(feed).latestRoundData() */\n      0xa0\n        /* \"src/Contract Architecture/Governance & Configuration/OracleAdapter.sol\":190:1063  contract OracleAdapter {... */\n      0x04\n      swap2\n      mload(0x40)\n      swap3\n      dup4\n      dup1\n      swap3\n      shl(0xe2, 0x3fabe5a3)\n        /* \"src/Contract Architecture/Governance & Configuration/OracleAdapter.sol\":986:1031  AggregatorV3Interface(feed).latestRoundData() */\n      dup3\n      mstore\n      gas\n      staticcall\n      dup1\n      iszero\n      tag_47\n      jumpi\n        /* \"src/Contract Architecture/Governance & Configuration/OracleAdapter.sol\":190:1063  contract OracleAdapter {... */\n      0x00\n        /* \"src/Contract Architecture/Governance & Configuration/OracleAdapter.sol\":986:1031  AggregatorV3Interface(feed).latestRoundData() */\n      swap1\n      tag_49\n      jumpi\n        /* \"src/Contract Architecture/Governance & Configuration/OracleAdapter.sol\":190:1063  contract OracleAdapter {... */\n    tag_50:\n      0x20\n      swap1\n      mload(0x40)\n      swap1\n      dup2\n      mstore\n      return\n        /* \"src/Contract Architecture/Governance & Configuration/OracleAdapter.sol\":986:1031  AggregatorV3Interface(feed).latestRoundData() */\n    tag_49:\n      pop\n      0xa0\n      dup2\n      jumpi(tag_51, gt(0xa0, returndatasize))\n    tag_52:\n      dup2\n      tag_53\n      0xa0\n      swap4\n      dup4\n      tag_2\n      jump\t// in\n    tag_53:\n      dup2\n      add\n        /* \"src/Contract Architecture/Governance & Configuration/OracleAdapter.sol\":190:1063  contract OracleAdapter {... */\n      sub\n      slt\n      tag_17\n      jumpi\n      dup1\n      tag_56\n      0x20\n      swap3\n      tag_3\n      jump\t// in\n    tag_56:\n      pop\n      tag_57\n      0x80\n      dup4\n      dup4\n      add\n      mload\n      swap3\n      add\n      tag_3\n      jump\t// in\n    tag_57:\n      pop\n        /* \"src/Contract Architecture/Governance & Configuration/OracleAdapter.sol\":986:1031  AggregatorV3Interface(feed).latestRoundData() */\n      jump(tag_50)\n    tag_51:\n      returndatasize\n      swap2\n      pop\n      jump(tag_52)\n    tag_47:\n        /* \"src/Contract Architecture/Governance & Configuration/OracleAdapter.sol\":190:1063  contract OracleAdapter {... */\n      mload(0x40)\n      returndatasize\n      0x00\n      dup3\n      returndatacopy\n      returndatasize\n      swap1\n      revert\n    tag_45:\n      mload(0x40)\n      shl(0xe5, 0x461bcd)\n      dup2\n      mstore\n      0x20\n      0x04\n      dup3\n      add\n      mstore\n      0x1b\n      0x24\n      dup3\n      add\n      mstore\n      0x4f7261636c65416461707465723a2066656564206e6f74207365740000000000\n      0x44\n      dup3\n      add\n      mstore\n      0x64\n      swap1\n      revert\n    tag_1:\n      swap2\n      dup2\n      0x1f\n      dup5\n      add\n      slt\n      iszero\n      tag_17\n      jumpi\n      dup3\n      calldataload\n      swap2\n      0xffffffffffffffff\n      dup4\n      gt\n      tag_17\n      jumpi\n      0x20\n      dup4\n      dup2\n      dup7\n      add\n      swap6\n      add\n      add\n      gt\n      tag_17\n      jumpi\n      jump\t// out\n    tag_2:\n      swap1\n      0x1f\n        /* \"src/Contract Architecture/Governance & Configuration/OracleAdapter.sol\":467:489  abi.encodePacked(pair) */\n      dup1\n      not\n        /* \"src/Contract Architecture/Governance & Configuration/OracleAdapter.sol\":190:1063  contract OracleAdapter {... */\n      swap2\n      add\n      and\n      dup2\n      add\n      swap1\n      dup2\n      lt\n      0xffffffffffffffff\n      dup3\n      gt\n      or\n      tag_64\n      jumpi\n      0x40\n      mstore\n      jump\t// out\n    tag_64:\n      mstore(0x00, shl(0xe0, 0x4e487b71))\n      mstore(0x04, 0x41)\n      revert(0x00, 0x24)\n    tag_3:\n      mload\n      swap1\n      0xffffffffffffffffffff\n      dup3\n      and\n      dup3\n      sub\n      tag_17\n      jumpi\n      jump\t// out\n        /* \"src/Contract Architecture/Governance & Configuration/OracleAdapter.sol\":574:709  function getOracle(string calldata pair) public view returns (address) {... */\n    tag_4:\n      swap1\n        /* \"src/Contract Architecture/Governance & Configuration/OracleAdapter.sol\":678:700  abi.encodePacked(pair) */\n      tag_68\n      0x20\n        /* \"src/Contract Architecture/Governance & Configuration/OracleAdapter.sol\":190:1063  contract OracleAdapter {... */\n      mload(0x40)\n        /* \"src/Contract Architecture/Governance & Configuration/OracleAdapter.sol\":678:700  abi.encodePacked(pair) */\n      dup4\n      dup2\n      swap5\n      dup4\n      dup4\n      add\n        /* \"src/Contract Architecture/Governance & Configuration/OracleAdapter.sol\":190:1063  contract OracleAdapter {... */\n      swap7\n      dup8\n      calldatacopy\n      dup2\n      add\n      0x00\n      dup4\n      dup3\n      add\n      mstore\n        /* \"src/Contract Architecture/Governance & Configuration/OracleAdapter.sol\":678:700  abi.encodePacked(pair) */\n      sub\n      add\n        /* \"src/Contract Architecture/Governance & Configuration/OracleAdapter.sol\":467:489  abi.encodePacked(pair) */\n      not(0x1f)\n        /* \"src/Contract Architecture/Governance & Configuration/OracleAdapter.sol\":678:700  abi.encodePacked(pair) */\n      dup2\n      add\n      dup4\n      mstore\n      dup3\n      tag_2\n      jump\t// in\n    tag_68:\n        /* \"src/Contract Architecture/Governance & Configuration/OracleAdapter.sol\":190:1063  contract OracleAdapter {... */\n      mload\n        /* \"src/Contract Architecture/Governance & Configuration/OracleAdapter.sol\":668:701  keccak256(abi.encodePacked(pair)) */\n      swap1\n      keccak256\n      0x00\n        /* \"src/Contract Architecture/Governance & Configuration/OracleAdapter.sol\":190:1063  contract OracleAdapter {... */\n      swap1\n      dup2\n      mstore\n        /* \"src/Contract Architecture/Governance & Configuration/OracleAdapter.sol\":678:700  abi.encodePacked(pair) */\n      0x20\n        /* \"src/Contract Architecture/Governance & Configuration/OracleAdapter.sol\":190:1063  contract OracleAdapter {... */\n      dup2\n      swap1\n      mstore\n      0x40\n      swap1\n      keccak256\n      sload\n      sub(shl(0xa0, 0x01), 0x01)\n      and\n      swap1\n        /* \"src/Contract Architecture/Governance & Configuration/OracleAdapter.sol\":574:709  function getOracle(string calldata pair) public view returns (address) {... */\n      jump\t// out\n\n    auxdata: 0xa264697066735822122033e7fb946425b3dba3b7abc7118c17e6ae3c6d453b172ae54382fcfa0fd9deef64736f6c634300081a0033\n}\n",
				"bytecode": {
					"linkReferences": {},
					"object": "60808060405234601557610396908161001a8239f35b5f80fdfe60806040526004361015610011575f80fd5b5f3560e01c8063524f3889146101895780637f59ea07146100c8578063a9daf6ad1461007a5763e90f1a4314610045575f80fd5b34610076576020366003190112610076576004355f525f602052602060018060a01b0360405f205416604051908152f35b5f80fd5b346100765760203660031901126100765760043567ffffffffffffffff8111610076576100b66100b060209236906004016102a0565b9061031b565b6040516001600160a01b039091168152f35b346100765760403660031901126100765760043567ffffffffffffffff8111610076576100f99036906004016102a0565b6024356001600160a01b038116929190839003610076577f89aa026552393defedbee4dc56d3dae8131f70d9087bc00c6a8a562c8a74dd289160209161015b8360405183819483830196873781015f838201520301601f1981018352826102ce565b51902092835f525f825260405f20816bffffffffffffffffffffffff60a01b825416179055604051908152a2005b346100765760203660031901126100765760043567ffffffffffffffff8111610076576101bd6101cc9136906004016102a0565b6001600160a01b03929161031b565b16801561025b5760a060049160405192838092633fabe5a360e21b82525afa8015610250575f90610203575b602090604051908152f35b5060a0813d60a011610248575b8161021d60a093836102ce565b810103126100765780610231602092610304565b506102426080838301519201610304565b506101f8565b3d9150610210565b6040513d5f823e3d90fd5b60405162461bcd60e51b815260206004820152601b60248201527f4f7261636c65416461707465723a2066656564206e6f742073657400000000006044820152606490fd5b9181601f840112156100765782359167ffffffffffffffff8311610076576020838186019501011161007657565b90601f8019910116810190811067ffffffffffffffff8211176102f057604052565b634e487b7160e01b5f52604160045260245ffd5b519069ffffffffffffffffffff8216820361007657565b90610343602060405183819483830196873781015f838201520301601f1981018352826102ce565b5190205f908152602081905260409020546001600160a01b03169056fea264697066735822122033e7fb946425b3dba3b7abc7118c17e6ae3c6d453b172ae54382fcfa0fd9deef64736f6c634300081a0033",
					"opcodes": "PUSH1 0x80 DUP1 PUSH1 0x40 MSTORE CALLVALUE PUSH1 0x15 JUMPI PUSH2 0x396 SWAP1 DUP2 PUSH2 0x1A DUP3 CODECOPY RETURN JUMPDEST PUSH0 DUP1 REVERT INVALID PUSH1 0x80 PUSH1 0x40 MSTORE PUSH1 0x4 CALLDATASIZE LT ISZERO PUSH2 0x11 JUMPI PUSH0 DUP1 REVERT JUMPDEST PUSH0 CALLDATALOAD PUSH1 0xE0 SHR DUP1 PUSH4 0x524F3889 EQ PUSH2 0x189 JUMPI DUP1 PUSH4 0x7F59EA07 EQ PUSH2 0xC8 JUMPI DUP1 PUSH4 0xA9DAF6AD EQ PUSH2 0x7A JUMPI PUSH4 0xE90F1A43 EQ PUSH2 0x45 JUMPI PUSH0 DUP1 REVERT JUMPDEST CALLVALUE PUSH2 0x76 JUMPI PUSH1 0x20 CALLDATASIZE PUSH1 0x3 NOT ADD SLT PUSH2 0x76 JUMPI PUSH1 0x4 CALLDATALOAD PUSH0 MSTORE PUSH0 PUSH1 0x20 MSTORE PUSH1 0x20 PUSH1 0x1 DUP1 PUSH1 0xA0 SHL SUB PUSH1 0x40 PUSH0 KECCAK256 SLOAD AND PUSH1 0x40 MLOAD SWAP1 DUP2 MSTORE RETURN JUMPDEST PUSH0 DUP1 REVERT JUMPDEST CALLVALUE PUSH2 0x76 JUMPI PUSH1 0x20 CALLDATASIZE PUSH1 0x3 NOT ADD SLT PUSH2 0x76 JUMPI PUSH1 0x4 CALLDATALOAD PUSH8 0xFFFFFFFFFFFFFFFF DUP2 GT PUSH2 0x76 JUMPI PUSH2 0xB6 PUSH2 0xB0 PUSH1 0x20 SWAP3 CALLDATASIZE SWAP1 PUSH1 0x4 ADD PUSH2 0x2A0 JUMP JUMPDEST SWAP1 PUSH2 0x31B JUMP JUMPDEST PUSH1 0x40 MLOAD PUSH1 0x1 PUSH1 0x1 PUSH1 0xA0 SHL SUB SWAP1 SWAP2 AND DUP2 MSTORE RETURN JUMPDEST CALLVALUE PUSH2 0x76 JUMPI PUSH1 0x40 CALLDATASIZE PUSH1 0x3 NOT ADD SLT PUSH2 0x76 JUMPI PUSH1 0x4 CALLDATALOAD PUSH8 0xFFFFFFFFFFFFFFFF DUP2 GT PUSH2 0x76 JUMPI PUSH2 0xF9 SWAP1 CALLDATASIZE SWAP1 PUSH1 0x4 ADD PUSH2 0x2A0 JUMP JUMPDEST PUSH1 0x24 CALLDATALOAD PUSH1 0x1 PUSH1 0x1 PUSH1 0xA0 SHL SUB DUP2 AND SWAP3 SWAP2 SWAP1 DUP4 SWAP1 SUB PUSH2 0x76 JUMPI PUSH32 0x89AA026552393DEFEDBEE4DC56D3DAE8131F70D9087BC00C6A8A562C8A74DD28 SWAP2 PUSH1 0x20 SWAP2 PUSH2 0x15B DUP4 PUSH1 0x40 MLOAD DUP4 DUP2 SWAP5 DUP4 DUP4 ADD SWAP7 DUP8 CALLDATACOPY DUP2 ADD PUSH0 DUP4 DUP3 ADD MSTORE SUB ADD PUSH1 0x1F NOT DUP2 ADD DUP4 MSTORE DUP3 PUSH2 0x2CE JUMP JUMPDEST MLOAD SWAP1 KECCAK256 SWAP3 DUP4 PUSH0 MSTORE PUSH0 DUP3 MSTORE PUSH1 0x40 PUSH0 KECCAK256 DUP2 PUSH12 0xFFFFFFFFFFFFFFFFFFFFFFFF PUSH1 0xA0 SHL DUP3 SLOAD AND OR SWAP1 SSTORE PUSH1 0x40 MLOAD SWAP1 DUP2 MSTORE LOG2 STOP JUMPDEST CALLVALUE PUSH2 0x76 JUMPI PUSH1 0x20 CALLDATASIZE PUSH1 0x3 NOT ADD SLT PUSH2 0x76 JUMPI PUSH1 0x4 CALLDATALOAD PUSH8 0xFFFFFFFFFFFFFFFF DUP2 GT PUSH2 0x76 JUMPI PUSH2 0x1BD PUSH2 0x1CC SWAP2 CALLDATASIZE SWAP1 PUSH1 0x4 ADD PUSH2 0x2A0 JUMP JUMPDEST PUSH1 0x1 PUSH1 0x1 PUSH1 0xA0 SHL SUB SWAP3 SWAP2 PUSH2 0x31B JUMP JUMPDEST AND DUP1 ISZERO PUSH2 0x25B JUMPI PUSH1 0xA0 PUSH1 0x4 SWAP2 PUSH1 0x40 MLOAD SWAP3 DUP4 DUP1 SWAP3 PUSH4 0x3FABE5A3 PUSH1 0xE2 SHL DUP3 MSTORE GAS STATICCALL DUP1 ISZERO PUSH2 0x250 JUMPI PUSH0 SWAP1 PUSH2 0x203 JUMPI JUMPDEST PUSH1 0x20 SWAP1 PUSH1 0x40 MLOAD SWAP1 DUP2 MSTORE RETURN JUMPDEST POP PUSH1 0xA0 DUP2 RETURNDATASIZE PUSH1 0xA0 GT PUSH2 0x248 JUMPI JUMPDEST DUP2 PUSH2 0x21D PUSH1 0xA0 SWAP4 DUP4 PUSH2 0x2CE JUMP JUMPDEST DUP2 ADD SUB SLT PUSH2 0x76 JUMPI DUP1 PUSH2 0x231 PUSH1 0x20 SWAP3 PUSH2 0x304 JUMP JUMPDEST POP PUSH2 0x242 PUSH1 0x80 DUP4 DUP4 ADD MLOAD SWAP3 ADD PUSH2 0x304 JUMP JUMPDEST POP PUSH2 0x1F8 JUMP JUMPDEST RETURNDATASIZE SWAP2 POP PUSH2 0x210 JUMP JUMPDEST PUSH1 0x40 MLOAD RETURNDATASIZE PUSH0 DUP3 RETURNDATACOPY RETURNDATASIZE SWAP1 REVERT JUMPDEST PUSH1 0x40 MLOAD PUSH3 0x461BCD PUSH1 0xE5 SHL DUP2 MSTORE PUSH1 0x20 PUSH1 0x4 DUP3 ADD MSTORE PUSH1 0x1B PUSH1 0x24 DUP3 ADD MSTORE PUSH32 0x4F7261636C65416461707465723A2066656564206E6F74207365740000000000 PUSH1 0x44 DUP3 ADD MSTORE PUSH1 0x64 SWAP1 REVERT JUMPDEST SWAP2 DUP2 PUSH1 0x1F DUP5 ADD SLT ISZERO PUSH2 0x76 JUMPI DUP3 CALLDATALOAD SWAP2 PUSH8 0xFFFFFFFFFFFFFFFF DUP4 GT PUSH2 0x76 JUMPI PUSH1 0x20 DUP4 DUP2 DUP7 ADD SWAP6 ADD ADD GT PUSH2 0x76 JUMPI JUMP JUMPDEST SWAP1 PUSH1 0x1F DUP1 NOT SWAP2 ADD AND DUP2 ADD SWAP1 DUP2 LT PUSH8 0xFFFFFFFFFFFFFFFF DUP3 GT OR PUSH2 0x2F0 JUMPI PUSH1 0x40 MSTORE JUMP JUMPDEST PUSH4 0x4E487B71 PUSH1 0xE0 SHL PUSH0 MSTORE PUSH1 0x41 PUSH1 0x4 MSTORE PUSH1 0x24 PUSH0 REVERT JUMPDEST MLOAD SWAP1 PUSH10 0xFFFFFFFFFFFFFFFFFFFF DUP3 AND DUP3 SUB PUSH2 0x76 JUMPI JUMP JUMPDEST SWAP1 PUSH2 0x343 PUSH1 0x20 PUSH1 0x40 MLOAD DUP4 DUP2 SWAP5 DUP4 DUP4 ADD SWAP7 DUP8 CALLDATACOPY DUP2 ADD PUSH0 DUP4 DUP3 ADD MSTORE SUB ADD PUSH1 0x1F NOT DUP2 ADD DUP4 MSTORE DUP3 PUSH2 0x2CE JUMP JUMPDEST MLOAD SWAP1 KECCAK256 PUSH0 SWAP1 DUP2 MSTORE PUSH1 0x20 DUP2 SWAP1 MSTORE PUSH1 0x40 SWAP1 KECCAK256 SLOAD PUSH1 0x1 PUSH1 0x1 PUSH1 0xA0 SHL SUB AND SWAP1 JUMP INVALID LOG2 PUSH5 0x6970667358 0x22 SLT KECCAK256 CALLER 0xE7 0xFB SWAP5 PUSH5 0x25B3DBA3B7 0xAB 0xC7 GT DUP13 OR 0xE6 0xAE EXTCODECOPY PUSH14 0x453B172AE54382FCFA0FD9DEEF64 PUSH20 0x6F6C634300081A00330000000000000000000000 "
				},
				"gasEstimates": {
					"creation": {
						"codeDepositCost": "183600",
						"executionCost": "233",
						"totalCost": "183833"
					},
					"external": {
						"feeds(bytes32)": "2393",
						"getOracle(string)": "infinite",
						"getPrice(string)": "infinite",
						"registerOracle(string,address)": "infinite"
					}
				},
				"methodIdentifiers": {
					"feeds(bytes32)": "e90f1a43",
					"getOracle(string)": "a9daf6ad",
					"getPrice(string)": "524f3889",
					"registerOracle(string,address)": "7f59ea07"
				}
			},
			"storageLayout": {
				"storage": [
					{
						"astId": 6,
						"contract": "src/Contract Architecture/Governance & Configuration/OracleAdapter.sol:OracleAdapter",
						"label": "feeds",
						"offset": 0,
						"slot": "0",
						"type": "t_mapping(t_bytes32,t_address)"
					}
				],
				"types": {
					"t_address": {
						"encoding": "inplace",
						"label": "address",
						"numberOfBytes": "20"
					},
					"t_bytes32": {
						"encoding": "inplace",
						"label": "bytes32",
						"numberOfBytes": "32"
					},
					"t_mapping(t_bytes32,t_address)": {
						"encoding": "mapping",
						"key": "t_bytes32",
						"label": "mapping(bytes32 => address)",
						"numberOfBytes": "32",
						"value": "t_address"
					}
				}
			},
			"userdoc": {
				"kind": "user",
				"methods": {},
				"notice": "Provides price data to modules from different oracle sources (Chainlink, Uniswap, etc.).",
				"version": 1
			}
		}
	}
}