{
	"src/Contract Architecture/P2P & Social Transfers/RandomnessProvider.sol": {
		"RandomnessProvider": {
			"abi": [
				{
					"inputs": [
						{
							"internalType": "address",
							"name": "vrfCoordinator",
							"type": "address"
						},
						{
							"internalType": "bytes32",
							"name": "_keyHash",
							"type": "bytes32"
						},
						{
							"internalType": "uint64",
							"name": "_subscriptionId",
							"type": "uint64"
						}
					],
					"stateMutability": "nonpayable",
					"type": "constructor"
				},
				{
					"inputs": [
						{
							"internalType": "address",
							"name": "have",
							"type": "address"
						},
						{
							"internalType": "address",
							"name": "want",
							"type": "address"
						}
					],
					"name": "OnlyCoordinatorCanFulfill",
					"type": "error"
				},
				{
					"anonymous": false,
					"inputs": [
						{
							"indexed": true,
							"internalType": "uint256",
							"name": "requestId",
							"type": "uint256"
						},
						{
							"indexed": false,
							"internalType": "uint256[]",
							"name": "randomWords",
							"type": "uint256[]"
						},
						{
							"indexed": true,
							"internalType": "address",
							"name": "caller",
							"type": "address"
						}
					],
					"name": "RandomnessFulfilled",
					"type": "event"
				},
				{
					"anonymous": false,
					"inputs": [
						{
							"indexed": true,
							"internalType": "uint256",
							"name": "requestId",
							"type": "uint256"
						},
						{
							"indexed": true,
							"internalType": "address",
							"name": "caller",
							"type": "address"
						}
					],
					"name": "RandomnessRequested",
					"type": "event"
				},
				{
					"inputs": [],
					"name": "callbackGasLimit",
					"outputs": [
						{
							"internalType": "uint32",
							"name": "",
							"type": "uint32"
						}
					],
					"stateMutability": "view",
					"type": "function"
				},
				{
					"inputs": [],
					"name": "keyHash",
					"outputs": [
						{
							"internalType": "bytes32",
							"name": "",
							"type": "bytes32"
						}
					],
					"stateMutability": "view",
					"type": "function"
				},
				{
					"inputs": [
						{
							"internalType": "uint256",
							"name": "requestId",
							"type": "uint256"
						},
						{
							"internalType": "uint256[]",
							"name": "randomWords",
							"type": "uint256[]"
						}
					],
					"name": "rawFulfillRandomWords",
					"outputs": [],
					"stateMutability": "nonpayable",
					"type": "function"
				},
				{
					"inputs": [],
					"name": "requestConfirmations",
					"outputs": [
						{
							"internalType": "uint16",
							"name": "",
							"type": "uint16"
						}
					],
					"stateMutability": "view",
					"type": "function"
				},
				{
					"inputs": [
						{
							"internalType": "uint32",
							"name": "numWords",
							"type": "uint32"
						}
					],
					"name": "requestRandomness",
					"outputs": [
						{
							"internalType": "uint256",
							"name": "requestId",
							"type": "uint256"
						}
					],
					"stateMutability": "nonpayable",
					"type": "function"
				},
				{
					"inputs": [
						{
							"internalType": "uint256",
							"name": "",
							"type": "uint256"
						}
					],
					"name": "requestToCaller",
					"outputs": [
						{
							"internalType": "address",
							"name": "",
							"type": "address"
						}
					],
					"stateMutability": "view",
					"type": "function"
				},
				{
					"inputs": [],
					"name": "subscriptionId",
					"outputs": [
						{
							"internalType": "uint64",
							"name": "",
							"type": "uint64"
						}
					],
					"stateMutability": "view",
					"type": "function"
				}
			],
			"devdoc": {
				"kind": "dev",
				"methods": {},
				"title": "RandomnessProvider",
				"version": 1
			},
			"evm": {
				"assembly": "    /* \"src/Contract Architecture/P2P & Social Transfers/RandomnessProvider.sol\":336:2142  contract RandomnessProvider is VRFConsumerBaseV2 {... */\n  0xa0\n  jumpi(tag_9, callvalue)\n  0x1f\n  bytecodeSize\n  codesize\n  dup2\n  swap1\n  sub\n  swap2\n  dup3\n  add\n  not(0x1f)\n  and\n  dup4\n  add\n  swap2\n  sub(shl(0x40, 0x01), 0x01)\n  dup4\n  gt\n  dup5\n  dup5\n  lt\n  or\n  tag_3\n  jumpi\n  dup1\n  dup5\n  swap3\n  0x60\n  swap5\n  0x40\n  mstore\n  dup4\n  codecopy\n  dup2\n  add\n  sub\n  slt\n  tag_9\n  jumpi\n  dup1\n  mload\n  sub(shl(0xa0, 0x01), 0x01)\n  dup2\n  and\n  swap1\n  dup2\n  dup2\n  sub\n  tag_9\n  jumpi\n  0x20\n  dup4\n  add\n  mload\n  0x40\n  swap1\n  swap4\n  add\n  mload\n  swap1\n  sub(shl(0x40, 0x01), 0x01)\n  dup3\n  and\n  dup3\n  sub\n  tag_9\n  jumpi\n    /* \"@chainlink/contracts/src/v0.8/VRFConsumerBaseV2.sol\":5599:5631  vrfCoordinator = _vrfCoordinator */\n  0x80\n  mstore\n    /* \"src/Contract Architecture/P2P & Social Transfers/RandomnessProvider.sol\":336:2142  contract RandomnessProvider is VRFConsumerBaseV2 {... */\n  0x0300030d40\n  not(0xffffffffffff)\n    /* \"src/Contract Architecture/P2P & Social Transfers/RandomnessProvider.sol\":530:536  200000 */\n  0x02\n    /* \"src/Contract Architecture/P2P & Social Transfers/RandomnessProvider.sol\":336:2142  contract RandomnessProvider is VRFConsumerBaseV2 {... */\n  sload\n  and\n  or\n    /* \"src/Contract Architecture/P2P & Social Transfers/RandomnessProvider.sol\":530:536  200000 */\n  0x02\n    /* \"src/Contract Architecture/P2P & Social Transfers/RandomnessProvider.sol\":336:2142  contract RandomnessProvider is VRFConsumerBaseV2 {... */\n  sstore\n  sload(0x00)\n  swap3\n  0x01\n  sstore\n  sub(shl(0xe0, 0x01), shl(0xa0, 0x01))\n  swap1\n  0xa0\n  shl\n  and\n  swap2\n  shl(0xe0, 0xffffffff)\n  and\n  or\n  or\n  0x00\n  sstore\n  mload(0x40)\n  dataSize(sub_0)\n  swap1\n  dup2\n  dataOffset(sub_0)\n  dup3\n  codecopy\n    /* \"@chainlink/contracts/src/v0.8/VRFConsumerBaseV2.sol\":5599:5631  vrfCoordinator = _vrfCoordinator */\n  0x80\n    /* \"src/Contract Architecture/P2P & Social Transfers/RandomnessProvider.sol\":336:2142  contract RandomnessProvider is VRFConsumerBaseV2 {... */\n  mload\n  dup2\n  assignImmutable(\"0x1a192fabce13988b84994d4296e6cdc418d55e2f1d7f942188d4040b94fc57ac\")\n  return\ntag_9:\n  0x00\n  dup1\n  revert\ntag_3:\n  mstore(0x00, shl(0xe0, 0x4e487b71))\n  mstore(0x04, 0x41)\n  revert(0x00, 0x24)\nstop\n\nsub_0: assembly {\n        /* \"src/Contract Architecture/P2P & Social Transfers/RandomnessProvider.sol\":336:2142  contract RandomnessProvider is VRFConsumerBaseV2 {... */\n      0x80\n      dup1\n      0x40\n      mstore\n      jumpi(tag_3, iszero(lt(calldatasize, 0x04)))\n      0x00\n      dup1\n      revert\n    tag_3:\n      shr(0xe0, calldataload(0x00))\n      swap1\n      dup2\n      0x09c1ba2e\n      eq\n      tag_5\n      jumpi\n      pop\n      dup1\n      0x1fe543e3\n      eq\n      tag_7\n      jumpi\n      dup1\n      0x24f74697\n      eq\n      tag_9\n      jumpi\n      dup1\n      0x61728f39\n      eq\n      tag_11\n      jumpi\n      dup1\n      0x811ee32a\n      eq\n      tag_13\n      jumpi\n      dup1\n      0xad1339ea\n      eq\n      tag_15\n      jumpi\n      0xb0fb162f\n      eq\n      tag_17\n      jumpi\n      0x00\n      dup1\n      revert\n    tag_17:\n      jumpi(tag_21, callvalue)\n      jumpi(tag_21, slt(add(not(0x03), calldatasize), 0x00))\n      0x20\n      0xffff\n        /* \"src/Contract Architecture/P2P & Social Transfers/RandomnessProvider.sol\":542:580  uint16 public requestConfirmations = 3 */\n      0x02\n        /* \"src/Contract Architecture/P2P & Social Transfers/RandomnessProvider.sol\":336:2142  contract RandomnessProvider is VRFConsumerBaseV2 {... */\n      sload\n      dup3\n      shr\n      and\n      mload(0x40)\n      swap1\n      dup2\n      mstore\n      return\n    tag_21:\n      0x00\n      dup1\n      revert\n    tag_15:\n      jumpi(tag_21, callvalue)\n      jumpi(tag_21, slt(add(not(0x03), calldatasize), 0x20))\n      mstore(0x00, calldataload(0x04))\n        /* \"src/Contract Architecture/P2P & Social Transfers/RandomnessProvider.sol\":587:637  mapping(uint256 => address) public requestToCaller */\n      0x03\n        /* \"src/Contract Architecture/P2P & Social Transfers/RandomnessProvider.sol\":336:2142  contract RandomnessProvider is VRFConsumerBaseV2 {... */\n      0x20\n      mstore\n      0x20\n      0x01\n      dup1\n      0xa0\n      shl\n      sub\n      sload(keccak256(0x00, 0x40))\n      and\n      mload(0x40)\n      swap1\n      dup2\n      mstore\n      return\n    tag_13:\n      jumpi(tag_21, callvalue)\n      jumpi(tag_21, slt(add(not(0x03), calldatasize), 0x20))\n      calldataload(0x04)\n      0xffffffff\n      dup2\n      and\n      dup1\n      swap2\n      sub\n      tag_21\n      jumpi\n      0x20\n      0xffffffff\n      swap2\n        /* \"src/Contract Architecture/P2P & Social Transfers/RandomnessProvider.sol\":1207:1382  COORDINATOR.requestRandomWords(... */\n      0xa4\n        /* \"src/Contract Architecture/P2P & Social Transfers/RandomnessProvider.sol\":336:2142  contract RandomnessProvider is VRFConsumerBaseV2 {... */\n      sload(0x00)\n      0x00\n        /* \"src/Contract Architecture/P2P & Social Transfers/RandomnessProvider.sol\":1251:1258  keyHash */\n      0x01\n        /* \"src/Contract Architecture/P2P & Social Transfers/RandomnessProvider.sol\":336:2142  contract RandomnessProvider is VRFConsumerBaseV2 {... */\n      sload\n      swap2\n        /* \"src/Contract Architecture/P2P & Social Transfers/RandomnessProvider.sol\":1300:1320  requestConfirmations */\n      0x02\n        /* \"src/Contract Architecture/P2P & Social Transfers/RandomnessProvider.sol\":336:2142  contract RandomnessProvider is VRFConsumerBaseV2 {... */\n      sload\n      swap5\n      mload(0x40)\n      swap8\n      dup9\n      swap7\n      dup8\n      swap6\n      shl(0xe4, 0x05d3b1d3)\n        /* \"src/Contract Architecture/P2P & Social Transfers/RandomnessProvider.sol\":1207:1382  COORDINATOR.requestRandomWords(... */\n      dup8\n      mstore\n        /* \"src/Contract Architecture/P2P & Social Transfers/RandomnessProvider.sol\":336:2142  contract RandomnessProvider is VRFConsumerBaseV2 {... */\n      0x04\n        /* \"src/Contract Architecture/P2P & Social Transfers/RandomnessProvider.sol\":1207:1382  COORDINATOR.requestRandomWords(... */\n      dup8\n      add\n        /* \"src/Contract Architecture/P2P & Social Transfers/RandomnessProvider.sol\":336:2142  contract RandomnessProvider is VRFConsumerBaseV2 {... */\n      mstore\n      0xffffffffffffffff\n      dup5\n      0xa0\n      shr\n      and\n      0x24\n      dup8\n      add\n      mstore\n      0xffff\n      dup2\n      dup11\n      shr\n      and\n      0x44\n      dup8\n      add\n      mstore\n      and\n      0x64\n      dup6\n      add\n      mstore\n      0x84\n      dup5\n      add\n      mstore\n      0x01\n      dup1\n      0xa0\n      shl\n      sub\n      and\n        /* \"src/Contract Architecture/P2P & Social Transfers/RandomnessProvider.sol\":1207:1382  COORDINATOR.requestRandomWords(... */\n      gas\n      call\n      dup1\n      iszero\n      tag_33\n      jumpi\n        /* \"src/Contract Architecture/P2P & Social Transfers/RandomnessProvider.sol\":336:2142  contract RandomnessProvider is VRFConsumerBaseV2 {... */\n      0x00\n        /* \"src/Contract Architecture/P2P & Social Transfers/RandomnessProvider.sol\":1207:1382  COORDINATOR.requestRandomWords(... */\n      swap1\n      tag_35\n      jumpi\n        /* \"src/Contract Architecture/P2P & Social Transfers/RandomnessProvider.sol\":336:2142  contract RandomnessProvider is VRFConsumerBaseV2 {... */\n    tag_36:\n      dup1\n      0x20\n      swap2\n      0x00\n      mstore\n        /* \"src/Contract Architecture/P2P & Social Transfers/RandomnessProvider.sol\":1393:1408  requestToCaller */\n      0x03\n        /* \"src/Contract Architecture/P2P & Social Transfers/RandomnessProvider.sol\":336:2142  contract RandomnessProvider is VRFConsumerBaseV2 {... */\n      dup3\n      mstore\n      keccak256(0x00, 0x40)\n        /* \"src/Contract Architecture/P2P & Social Transfers/RandomnessProvider.sol\":1422:1432  msg.sender */\n      caller\n        /* \"src/Contract Architecture/P2P & Social Transfers/RandomnessProvider.sol\":336:2142  contract RandomnessProvider is VRFConsumerBaseV2 {... */\n      shl(0xa0, 0xffffffffffffffffffffffff)\n      dup3\n      sload\n      and\n      or\n      swap1\n      sstore\n      mload(0x40)\n        /* \"src/Contract Architecture/P2P & Social Transfers/RandomnessProvider.sol\":1422:1432  msg.sender */\n      swap1\n      caller\n        /* \"src/Contract Architecture/P2P & Social Transfers/RandomnessProvider.sol\":1447:1489  RandomnessRequested(requestId, msg.sender) */\n      dup2\n      0x28f521cf7abd0044cba5bb040c5217ff69a4e5865f5262905018698e68fe7d00\n        /* \"src/Contract Architecture/P2P & Social Transfers/RandomnessProvider.sol\":336:2142  contract RandomnessProvider is VRFConsumerBaseV2 {... */\n      0x00\n        /* \"src/Contract Architecture/P2P & Social Transfers/RandomnessProvider.sol\":1447:1489  RandomnessRequested(requestId, msg.sender) */\n      dup1\n      log3\n        /* \"src/Contract Architecture/P2P & Social Transfers/RandomnessProvider.sol\":336:2142  contract RandomnessProvider is VRFConsumerBaseV2 {... */\n      dup2\n      mstore\n      return\n        /* \"src/Contract Architecture/P2P & Social Transfers/RandomnessProvider.sol\":1207:1382  COORDINATOR.requestRandomWords(... */\n    tag_35:\n      pop\n        /* \"src/Contract Architecture/P2P & Social Transfers/RandomnessProvider.sol\":336:2142  contract RandomnessProvider is VRFConsumerBaseV2 {... */\n      0x20\n        /* \"src/Contract Architecture/P2P & Social Transfers/RandomnessProvider.sol\":1207:1382  COORDINATOR.requestRandomWords(... */\n      dup2\n      returndatasize\n        /* \"src/Contract Architecture/P2P & Social Transfers/RandomnessProvider.sol\":336:2142  contract RandomnessProvider is VRFConsumerBaseV2 {... */\n      0x20\n        /* \"src/Contract Architecture/P2P & Social Transfers/RandomnessProvider.sol\":1207:1382  COORDINATOR.requestRandomWords(... */\n      gt\n      tag_37\n      jumpi\n    tag_38:\n      dup2\n      tag_39\n        /* \"src/Contract Architecture/P2P & Social Transfers/RandomnessProvider.sol\":336:2142  contract RandomnessProvider is VRFConsumerBaseV2 {... */\n      0x20\n        /* \"src/Contract Architecture/P2P & Social Transfers/RandomnessProvider.sol\":1207:1382  COORDINATOR.requestRandomWords(... */\n      swap4\n      dup4\n      tag_1\n      jump\t// in\n    tag_39:\n      dup2\n      add\n        /* \"src/Contract Architecture/P2P & Social Transfers/RandomnessProvider.sol\":336:2142  contract RandomnessProvider is VRFConsumerBaseV2 {... */\n      sub\n      slt\n      tag_21\n      jumpi\n      0x20\n      swap1\n      mload\n        /* \"src/Contract Architecture/P2P & Social Transfers/RandomnessProvider.sol\":1207:1382  COORDINATOR.requestRandomWords(... */\n      jump(tag_36)\n    tag_37:\n      returndatasize\n      swap2\n      pop\n      jump(tag_38)\n    tag_33:\n        /* \"src/Contract Architecture/P2P & Social Transfers/RandomnessProvider.sol\":336:2142  contract RandomnessProvider is VRFConsumerBaseV2 {... */\n      mload(0x40)\n      returndatasize\n      0x00\n      dup3\n      returndatacopy\n      returndatasize\n      swap1\n      revert\n    tag_11:\n      jumpi(tag_21, callvalue)\n      jumpi(tag_21, slt(add(not(0x03), calldatasize), 0x00))\n      0x20\n        /* \"src/Contract Architecture/P2P & Social Transfers/RandomnessProvider.sol\":469:491  bytes32 public keyHash */\n      0x01\n        /* \"src/Contract Architecture/P2P & Social Transfers/RandomnessProvider.sol\":336:2142  contract RandomnessProvider is VRFConsumerBaseV2 {... */\n      sload\n      mload(0x40)\n      swap1\n      dup2\n      mstore\n      return\n    tag_9:\n      jumpi(tag_21, callvalue)\n      jumpi(tag_21, slt(add(not(0x03), calldatasize), 0x00))\n      0x20\n      0xffffffff\n        /* \"src/Contract Architecture/P2P & Social Transfers/RandomnessProvider.sol\":497:536  uint32 public callbackGasLimit = 200000 */\n      0x02\n        /* \"src/Contract Architecture/P2P & Social Transfers/RandomnessProvider.sol\":336:2142  contract RandomnessProvider is VRFConsumerBaseV2 {... */\n      sload\n      and\n      mload(0x40)\n      swap1\n      dup2\n      mstore\n      return\n    tag_7:\n      jumpi(tag_21, callvalue)\n      jumpi(tag_21, slt(add(not(0x03), calldatasize), 0x40))\n      calldataload(0x04)\n      calldataload(0x24)\n      0xffffffffffffffff\n      dup2\n      gt\n      tag_21\n      jumpi\n      calldatasize\n      0x23\n      dup3\n      add\n      slt\n      iszero\n      tag_21\n      jumpi\n      dup1\n      0x04\n      add\n      calldataload\n      swap1\n      0xffffffffffffffff\n      dup3\n      gt\n      tag_75\n      jumpi\n      dup2\n      0x05\n      shl\n      mload(0x40)\n      swap3\n      tag_60\n      0x20\n      dup4\n      add\n      dup6\n      tag_1\n      jump\t// in\n    tag_60:\n      dup4\n      mstore\n      0x24\n      0x20\n      dup5\n      add\n      swap2\n      dup4\n      add\n      add\n      swap2\n      calldatasize\n      dup4\n      gt\n      tag_21\n      jumpi\n      0x24\n      add\n      swap1\n    tag_63:\n      dup3\n      dup3\n      lt\n      tag_64\n      jumpi\n      pop\n      pop\n        /* \"@chainlink/contracts/src/v0.8/VRFConsumerBaseV2.sol\":6731:6745  vrfCoordinator */\n      immutable(\"0x1a192fabce13988b84994d4296e6cdc418d55e2f1d7f942188d4040b94fc57ac\")\n      sub(shl(0xa0, 0x01), 0x01)\n        /* \"src/Contract Architecture/P2P & Social Transfers/RandomnessProvider.sol\":336:2142  contract RandomnessProvider is VRFConsumerBaseV2 {... */\n      and\n      swap1\n      pop\n        /* \"@chainlink/contracts/src/v0.8/VRFConsumerBaseV2.sol\":6717:6727  msg.sender */\n      caller\n        /* \"@chainlink/contracts/src/v0.8/VRFConsumerBaseV2.sol\":6717:6745  msg.sender != vrfCoordinator */\n      dup2\n      swap1\n      sub\n        /* \"@chainlink/contracts/src/v0.8/VRFConsumerBaseV2.sol\":6713:6822  if (msg.sender != vrfCoordinator) {... */\n      tag_66\n      jumpi\n      pop\n        /* \"src/Contract Architecture/P2P & Social Transfers/RandomnessProvider.sol\":336:2142  contract RandomnessProvider is VRFConsumerBaseV2 {... */\n      0x00\n      dup3\n      dup2\n      mstore\n        /* \"src/Contract Architecture/P2P & Social Transfers/RandomnessProvider.sol\":1624:1639  requestToCaller */\n      0x03\n        /* \"src/Contract Architecture/P2P & Social Transfers/RandomnessProvider.sol\":336:2142  contract RandomnessProvider is VRFConsumerBaseV2 {... */\n      0x20\n      mstore\n      0x40\n      swap1\n      keccak256\n      sload\n      sub(shl(0xa0, 0x01), 0x01)\n      and\n        /* \"src/Contract Architecture/P2P & Social Transfers/RandomnessProvider.sol\":1668:1688  caller != address(0) */\n      dup1\n      iszero\n        /* \"src/Contract Architecture/P2P & Social Transfers/RandomnessProvider.sol\":336:2142  contract RandomnessProvider is VRFConsumerBaseV2 {... */\n      tag_68\n      jumpi\n      dup3\n      0x00\n      tag_70\n        /* \"src/Contract Architecture/P2P & Social Transfers/RandomnessProvider.sol\":1971:2058  abi.encodeWithSignature(\"receiveRandomness(uint256,uint256[])\", requestId, randomWords) */\n      tag_71\n        /* \"src/Contract Architecture/P2P & Social Transfers/RandomnessProvider.sol\":336:2142  contract RandomnessProvider is VRFConsumerBaseV2 {... */\n      dup3\n      swap7\n      swap6\n      dup6\n      dup5\n      swap8\n        /* \"src/Contract Architecture/P2P & Social Transfers/RandomnessProvider.sol\":1746:1797  RandomnessFulfilled(requestId, randomWords, caller) */\n      0x09a25a7192f51d336dcb9827403360b0a21163b04b38de4178e800d96f6f0fdc\n        /* \"src/Contract Architecture/P2P & Social Transfers/RandomnessProvider.sol\":336:2142  contract RandomnessProvider is VRFConsumerBaseV2 {... */\n      mload(0x40)\n      0x20\n      dup2\n      mstore\n      dup1\n      tag_72\n      0x20\n      dup3\n      add\n      dup8\n      tag_2\n      jump\t// in\n    tag_72:\n        /* \"src/Contract Architecture/P2P & Social Transfers/RandomnessProvider.sol\":1746:1797  RandomnessFulfilled(requestId, randomWords, caller) */\n      sub\n      swap1\n      log3\n        /* \"src/Contract Architecture/P2P & Social Transfers/RandomnessProvider.sol\":336:2142  contract RandomnessProvider is VRFConsumerBaseV2 {... */\n      mload(0x40)\n        /* \"src/Contract Architecture/P2P & Social Transfers/RandomnessProvider.sol\":1971:2058  abi.encodeWithSignature(\"receiveRandomness(uint256,uint256[])\", requestId, randomWords) */\n      swap3\n      dup4\n      swap2\n        /* \"src/Contract Architecture/P2P & Social Transfers/RandomnessProvider.sol\":336:2142  contract RandomnessProvider is VRFConsumerBaseV2 {... */\n      0x20\n        /* \"src/Contract Architecture/P2P & Social Transfers/RandomnessProvider.sol\":1971:2058  abi.encodeWithSignature(\"receiveRandomness(uint256,uint256[])\", requestId, randomWords) */\n      dup4\n      add\n      swap7\n      shl(0xe0, 0x37f9c70d)\n      dup9\n      mstore\n        /* \"src/Contract Architecture/P2P & Social Transfers/RandomnessProvider.sol\":336:2142  contract RandomnessProvider is VRFConsumerBaseV2 {... */\n      0x24\n        /* \"src/Contract Architecture/P2P & Social Transfers/RandomnessProvider.sol\":1971:2058  abi.encodeWithSignature(\"receiveRandomness(uint256,uint256[])\", requestId, randomWords) */\n      dup5\n      add\n        /* \"src/Contract Architecture/P2P & Social Transfers/RandomnessProvider.sol\":336:2142  contract RandomnessProvider is VRFConsumerBaseV2 {... */\n      mstore\n      0x40\n      0x44\n      dup5\n      add\n      mstore\n      0x64\n      dup4\n      add\n      swap1\n      tag_2\n      jump\t// in\n    tag_70:\n        /* \"src/Contract Architecture/P2P & Social Transfers/RandomnessProvider.sol\":1971:2058  abi.encodeWithSignature(\"receiveRandomness(uint256,uint256[])\", requestId, randomWords) */\n      sub\n      not(0x1f)\n      dup2\n      add\n      dup4\n      mstore\n      dup3\n      tag_1\n      jump\t// in\n    tag_71:\n        /* \"src/Contract Architecture/P2P & Social Transfers/RandomnessProvider.sol\":1946:2068  caller.call(... */\n      mload\n      swap3\n      gas\n      call\n        /* \"src/Contract Architecture/P2P & Social Transfers/RandomnessProvider.sol\":336:2142  contract RandomnessProvider is VRFConsumerBaseV2 {... */\n      jumpi(tag_73, iszero(returndatasize))\n      returndatasize\n      0xffffffffffffffff\n      dup2\n      gt\n      tag_75\n      jumpi\n      mload(0x40)\n      swap1\n      tag_77\n        /* \"src/Contract Architecture/P2P & Social Transfers/RandomnessProvider.sol\":1971:2058  abi.encodeWithSignature(\"receiveRandomness(uint256,uint256[])\", requestId, randomWords) */\n      0x1f\n        /* \"src/Contract Architecture/P2P & Social Transfers/RandomnessProvider.sol\":336:2142  contract RandomnessProvider is VRFConsumerBaseV2 {... */\n      dup3\n      add\n      not(0x1f)\n      and\n      0x20\n      add\n      dup4\n      tag_1\n      jump\t// in\n    tag_77:\n      dup2\n      mstore\n      0x00\n      0x20\n      returndatasize\n      swap3\n      add\n      returndatacopy\n    tag_78:\n      iszero\n      tag_79\n      jumpi\n      stop\n    tag_79:\n      mload(0x40)\n      shl(0xe5, 0x461bcd)\n      dup2\n      mstore\n      0x20\n      0x04\n      dup3\n      add\n      mstore\n      0x23\n      0x24\n      dup3\n      add\n      mstore\n      0x52616e646f6d6e65737350726f76696465723a2063616c6c6261636b20666169\n      0x44\n      dup3\n      add\n      mstore\n      shl(0xea, 0x1b1959)\n      0x64\n      dup3\n      add\n      mstore\n      0x84\n      swap1\n      revert\n    tag_75:\n      mstore(0x00, shl(0xe0, 0x4e487b71))\n      mstore(0x04, 0x41)\n      revert(0x00, 0x24)\n    tag_73:\n      jump(tag_78)\n    tag_68:\n      mload(0x40)\n      shl(0xe5, 0x461bcd)\n      dup2\n      mstore\n      0x20\n      0x04\n      dup3\n      add\n      mstore\n      0x25\n      0x24\n      dup3\n      add\n      mstore\n      0x52616e646f6d6e65737350726f76696465723a20696e76616c69642072657175\n      0x44\n      dup3\n      add\n      mstore\n      shl(0xda, 0x195cdd1259)\n      0x64\n      dup3\n      add\n      mstore\n      0x84\n      swap1\n      revert\n        /* \"@chainlink/contracts/src/v0.8/VRFConsumerBaseV2.sol\":6713:6822  if (msg.sender != vrfCoordinator) {... */\n    tag_66:\n        /* \"@chainlink/contracts/src/v0.8/VRFConsumerBaseV2.sol\":6762:6815  OnlyCoordinatorCanFulfill(msg.sender, vrfCoordinator) */\n      shl(0xe2, 0x073e64fd)\n        /* \"src/Contract Architecture/P2P & Social Transfers/RandomnessProvider.sol\":336:2142  contract RandomnessProvider is VRFConsumerBaseV2 {... */\n      0x00\n        /* \"@chainlink/contracts/src/v0.8/VRFConsumerBaseV2.sol\":6762:6815  OnlyCoordinatorCanFulfill(msg.sender, vrfCoordinator) */\n      mstore\n        /* \"@chainlink/contracts/src/v0.8/VRFConsumerBaseV2.sol\":6717:6727  msg.sender */\n      caller\n        /* \"src/Contract Architecture/P2P & Social Transfers/RandomnessProvider.sol\":336:2142  contract RandomnessProvider is VRFConsumerBaseV2 {... */\n      0x04\n      mstore\n      0x24\n      mstore\n      0x44\n      0x00\n        /* \"@chainlink/contracts/src/v0.8/VRFConsumerBaseV2.sol\":6762:6815  OnlyCoordinatorCanFulfill(msg.sender, vrfCoordinator) */\n      revert\n        /* \"src/Contract Architecture/P2P & Social Transfers/RandomnessProvider.sol\":336:2142  contract RandomnessProvider is VRFConsumerBaseV2 {... */\n    tag_64:\n      dup2\n      calldataload\n      dup2\n      mstore\n      0x20\n      swap2\n      dup3\n      add\n      swap2\n      add\n      jump(tag_63)\n    tag_5:\n      jumpi(tag_21, callvalue)\n      jumpi(tag_21, slt(add(not(0x03), calldatasize), 0x00))\n      0x20\n      swap1\n      and(shr(0xa0, sload(0x00)), 0xffffffffffffffff)\n      dup2\n      mstore\n      return\n    tag_1:\n      swap1\n      0x1f\n        /* \"src/Contract Architecture/P2P & Social Transfers/RandomnessProvider.sol\":1971:2058  abi.encodeWithSignature(\"receiveRandomness(uint256,uint256[])\", requestId, randomWords) */\n      dup1\n      not\n        /* \"src/Contract Architecture/P2P & Social Transfers/RandomnessProvider.sol\":336:2142  contract RandomnessProvider is VRFConsumerBaseV2 {... */\n      swap2\n      add\n      and\n      dup2\n      add\n      swap1\n      dup2\n      lt\n      0xffffffffffffffff\n      dup3\n      gt\n      or\n      tag_75\n      jumpi\n      0x40\n      mstore\n      jump\t// out\n    tag_2:\n      swap1\n      0x20\n      dup1\n      dup4\n      mload\n      swap3\n      dup4\n      dup2\n      mstore\n      add\n      swap3\n      add\n      swap1\n      0x00\n    tag_87:\n      dup2\n      dup2\n      lt\n      tag_88\n      jumpi\n      pop\n      pop\n      pop\n      swap1\n      jump\t// out\n    tag_88:\n      dup3\n      mload\n      dup5\n      mstore\n      0x20\n      swap4\n      dup5\n      add\n      swap4\n      swap1\n      swap3\n      add\n      swap2\n      0x01\n      add\n      jump(tag_87)\n\n    auxdata: 0xa264697066735822122089df05e22b08e25b1b12c6cefc698268aa2acc25480acab35451cd71aadf606b64736f6c634300081a0033\n}\n",
				"bytecode": {
					"linkReferences": {},
					"object": "60a0346100c357601f61062438819003918201601f19168301916001600160401b038311848410176100c7578084926060946040528339810103126100c35780516001600160a01b038116908181036100c3576020830151604090930151906001600160401b03821682036100c357608052640300030d4065ffffffffffff1960025416176002555f5492600155600160a01b600160e01b039060a01b169163ffffffff60e01b1617175f5560405161054890816100dc8239608051816102a10152f35b5f80fd5b634e487b7160e01b5f52604160045260245ffdfe6080806040526004361015610012575f80fd5b5f3560e01c90816309c1ba2e14610497575080631fe543e31461022257806324f74697146101ff57806361728f39146101e2578063811ee32a146100c2578063ad1339ea146100905763b0fb162f14610069575f80fd5b3461008c575f36600319011261008c57602061ffff600254821c16604051908152f35b5f80fd5b3461008c57602036600319011261008c576004355f526003602052602060018060a01b0360405f205416604051908152f35b3461008c57602036600319011261008c5760043563ffffffff811680910361008c57602063ffffffff9160a45f545f600154916002549460405197889687956305d3b1d360e41b8752600487015267ffffffffffffffff8460a01c16602487015261ffff818a1c166044870152166064850152608484015260018060a01b03165af180156101d7575f906101a4575b806020915f526003825260405f20336bffffffffffffffffffffffff60a01b8254161790556040519033817f28f521cf7abd0044cba5bb040c5217ff69a4e5865f5262905018698e68fe7d005f80a38152f35b506020813d6020116101cf575b816101be602093836104bd565b8101031261008c5760209051610151565b3d91506101b1565b6040513d5f823e3d90fd5b3461008c575f36600319011261008c576020600154604051908152f35b3461008c575f36600319011261008c57602063ffffffff60025416604051908152f35b3461008c57604036600319011261008c5760043560243567ffffffffffffffff811161008c573660238201121561008c5780600401359067ffffffffffffffff8211610405578160051b6040519261027d60208301856104bd565b8352602460208401918301019136831161008c57602401905b8282106104875750507f00000000000000000000000000000000000000000000000000000000000000006001600160a01b031690503381900361047157505f828152600360205260409020546001600160a01b0316801561041e57825f6103636103718296958584977f09a25a7192f51d336dcb9827403360b0a21163b04b38de4178e800d96f6f0fdc604051602081528061033560208201876104df565b0390a360405192839160208301966337f9c70d60e01b885260248401526040604484015260648301906104df565b03601f1981018352826104bd565b51925af13d15610419573d67ffffffffffffffff811161040557604051906103a3601f8201601f1916602001836104bd565b81525f60203d92013e5b156103b457005b60405162461bcd60e51b815260206004820152602360248201527f52616e646f6d6e65737350726f76696465723a2063616c6c6261636b206661696044820152621b195960ea1b6064820152608490fd5b634e487b7160e01b5f52604160045260245ffd5b6103ad565b60405162461bcd60e51b815260206004820152602560248201527f52616e646f6d6e65737350726f76696465723a20696e76616c69642072657175604482015264195cdd125960da1b6064820152608490fd5b63073e64fd60e21b5f523360045260245260445ffd5b8135815260209182019101610296565b3461008c575f36600319011261008c5760209067ffffffffffffffff5f5460a01c168152f35b90601f8019910116810190811067ffffffffffffffff82111761040557604052565b90602080835192838152019201905f5b8181106104fc5750505090565b82518452602093840193909201916001016104ef56fea264697066735822122089df05e22b08e25b1b12c6cefc698268aa2acc25480acab35451cd71aadf606b64736f6c634300081a0033",
					"opcodes": "PUSH1 0xA0 CALLVALUE PUSH2 0xC3 JUMPI PUSH1 0x1F PUSH2 0x624 CODESIZE DUP2 SWAP1 SUB SWAP2 DUP3 ADD PUSH1 0x1F NOT AND DUP4 ADD SWAP2 PUSH1 0x1 PUSH1 0x1 PUSH1 0x40 SHL SUB DUP4 GT DUP5 DUP5 LT OR PUSH2 0xC7 JUMPI DUP1 DUP5 SWAP3 PUSH1 0x60 SWAP5 PUSH1 0x40 MSTORE DUP4 CODECOPY DUP2 ADD SUB SLT PUSH2 0xC3 JUMPI DUP1 MLOAD PUSH1 0x1 PUSH1 0x1 PUSH1 0xA0 SHL SUB DUP2 AND SWAP1 DUP2 DUP2 SUB PUSH2 0xC3 JUMPI PUSH1 0x20 DUP4 ADD MLOAD PUSH1 0x40 SWAP1 SWAP4 ADD MLOAD SWAP1 PUSH1 0x1 PUSH1 0x1 PUSH1 0x40 SHL SUB DUP3 AND DUP3 SUB PUSH2 0xC3 JUMPI PUSH1 0x80 MSTORE PUSH5 0x300030D40 PUSH6 0xFFFFFFFFFFFF NOT PUSH1 0x2 SLOAD AND OR PUSH1 0x2 SSTORE PUSH0 SLOAD SWAP3 PUSH1 0x1 SSTORE PUSH1 0x1 PUSH1 0xA0 SHL PUSH1 0x1 PUSH1 0xE0 SHL SUB SWAP1 PUSH1 0xA0 SHL AND SWAP2 PUSH4 0xFFFFFFFF PUSH1 0xE0 SHL AND OR OR PUSH0 SSTORE PUSH1 0x40 MLOAD PUSH2 0x548 SWAP1 DUP2 PUSH2 0xDC DUP3 CODECOPY PUSH1 0x80 MLOAD DUP2 PUSH2 0x2A1 ADD MSTORE RETURN JUMPDEST PUSH0 DUP1 REVERT JUMPDEST PUSH4 0x4E487B71 PUSH1 0xE0 SHL PUSH0 MSTORE PUSH1 0x41 PUSH1 0x4 MSTORE PUSH1 0x24 PUSH0 REVERT INVALID PUSH1 0x80 DUP1 PUSH1 0x40 MSTORE PUSH1 0x4 CALLDATASIZE LT ISZERO PUSH2 0x12 JUMPI PUSH0 DUP1 REVERT JUMPDEST PUSH0 CALLDATALOAD PUSH1 0xE0 SHR SWAP1 DUP2 PUSH4 0x9C1BA2E EQ PUSH2 0x497 JUMPI POP DUP1 PUSH4 0x1FE543E3 EQ PUSH2 0x222 JUMPI DUP1 PUSH4 0x24F74697 EQ PUSH2 0x1FF JUMPI DUP1 PUSH4 0x61728F39 EQ PUSH2 0x1E2 JUMPI DUP1 PUSH4 0x811EE32A EQ PUSH2 0xC2 JUMPI DUP1 PUSH4 0xAD1339EA EQ PUSH2 0x90 JUMPI PUSH4 0xB0FB162F EQ PUSH2 0x69 JUMPI PUSH0 DUP1 REVERT JUMPDEST CALLVALUE PUSH2 0x8C JUMPI PUSH0 CALLDATASIZE PUSH1 0x3 NOT ADD SLT PUSH2 0x8C JUMPI PUSH1 0x20 PUSH2 0xFFFF PUSH1 0x2 SLOAD DUP3 SHR AND PUSH1 0x40 MLOAD SWAP1 DUP2 MSTORE RETURN JUMPDEST PUSH0 DUP1 REVERT JUMPDEST CALLVALUE PUSH2 0x8C JUMPI PUSH1 0x20 CALLDATASIZE PUSH1 0x3 NOT ADD SLT PUSH2 0x8C JUMPI PUSH1 0x4 CALLDATALOAD PUSH0 MSTORE PUSH1 0x3 PUSH1 0x20 MSTORE PUSH1 0x20 PUSH1 0x1 DUP1 PUSH1 0xA0 SHL SUB PUSH1 0x40 PUSH0 KECCAK256 SLOAD AND PUSH1 0x40 MLOAD SWAP1 DUP2 MSTORE RETURN JUMPDEST CALLVALUE PUSH2 0x8C JUMPI PUSH1 0x20 CALLDATASIZE PUSH1 0x3 NOT ADD SLT PUSH2 0x8C JUMPI PUSH1 0x4 CALLDATALOAD PUSH4 0xFFFFFFFF DUP2 AND DUP1 SWAP2 SUB PUSH2 0x8C JUMPI PUSH1 0x20 PUSH4 0xFFFFFFFF SWAP2 PUSH1 0xA4 PUSH0 SLOAD PUSH0 PUSH1 0x1 SLOAD SWAP2 PUSH1 0x2 SLOAD SWAP5 PUSH1 0x40 MLOAD SWAP8 DUP9 SWAP7 DUP8 SWAP6 PUSH4 0x5D3B1D3 PUSH1 0xE4 SHL DUP8 MSTORE PUSH1 0x4 DUP8 ADD MSTORE PUSH8 0xFFFFFFFFFFFFFFFF DUP5 PUSH1 0xA0 SHR AND PUSH1 0x24 DUP8 ADD MSTORE PUSH2 0xFFFF DUP2 DUP11 SHR AND PUSH1 0x44 DUP8 ADD MSTORE AND PUSH1 0x64 DUP6 ADD MSTORE PUSH1 0x84 DUP5 ADD MSTORE PUSH1 0x1 DUP1 PUSH1 0xA0 SHL SUB AND GAS CALL DUP1 ISZERO PUSH2 0x1D7 JUMPI PUSH0 SWAP1 PUSH2 0x1A4 JUMPI JUMPDEST DUP1 PUSH1 0x20 SWAP2 PUSH0 MSTORE PUSH1 0x3 DUP3 MSTORE PUSH1 0x40 PUSH0 KECCAK256 CALLER PUSH12 0xFFFFFFFFFFFFFFFFFFFFFFFF PUSH1 0xA0 SHL DUP3 SLOAD AND OR SWAP1 SSTORE PUSH1 0x40 MLOAD SWAP1 CALLER DUP2 PUSH32 0x28F521CF7ABD0044CBA5BB040C5217FF69A4E5865F5262905018698E68FE7D00 PUSH0 DUP1 LOG3 DUP2 MSTORE RETURN JUMPDEST POP PUSH1 0x20 DUP2 RETURNDATASIZE PUSH1 0x20 GT PUSH2 0x1CF JUMPI JUMPDEST DUP2 PUSH2 0x1BE PUSH1 0x20 SWAP4 DUP4 PUSH2 0x4BD JUMP JUMPDEST DUP2 ADD SUB SLT PUSH2 0x8C JUMPI PUSH1 0x20 SWAP1 MLOAD PUSH2 0x151 JUMP JUMPDEST RETURNDATASIZE SWAP2 POP PUSH2 0x1B1 JUMP JUMPDEST PUSH1 0x40 MLOAD RETURNDATASIZE PUSH0 DUP3 RETURNDATACOPY RETURNDATASIZE SWAP1 REVERT JUMPDEST CALLVALUE PUSH2 0x8C JUMPI PUSH0 CALLDATASIZE PUSH1 0x3 NOT ADD SLT PUSH2 0x8C JUMPI PUSH1 0x20 PUSH1 0x1 SLOAD PUSH1 0x40 MLOAD SWAP1 DUP2 MSTORE RETURN JUMPDEST CALLVALUE PUSH2 0x8C JUMPI PUSH0 CALLDATASIZE PUSH1 0x3 NOT ADD SLT PUSH2 0x8C JUMPI PUSH1 0x20 PUSH4 0xFFFFFFFF PUSH1 0x2 SLOAD AND PUSH1 0x40 MLOAD SWAP1 DUP2 MSTORE RETURN JUMPDEST CALLVALUE PUSH2 0x8C JUMPI PUSH1 0x40 CALLDATASIZE PUSH1 0x3 NOT ADD SLT PUSH2 0x8C JUMPI PUSH1 0x4 CALLDATALOAD PUSH1 0x24 CALLDATALOAD PUSH8 0xFFFFFFFFFFFFFFFF DUP2 GT PUSH2 0x8C JUMPI CALLDATASIZE PUSH1 0x23 DUP3 ADD SLT ISZERO PUSH2 0x8C JUMPI DUP1 PUSH1 0x4 ADD CALLDATALOAD SWAP1 PUSH8 0xFFFFFFFFFFFFFFFF DUP3 GT PUSH2 0x405 JUMPI DUP2 PUSH1 0x5 SHL PUSH1 0x40 MLOAD SWAP3 PUSH2 0x27D PUSH1 0x20 DUP4 ADD DUP6 PUSH2 0x4BD JUMP JUMPDEST DUP4 MSTORE PUSH1 0x24 PUSH1 0x20 DUP5 ADD SWAP2 DUP4 ADD ADD SWAP2 CALLDATASIZE DUP4 GT PUSH2 0x8C JUMPI PUSH1 0x24 ADD SWAP1 JUMPDEST DUP3 DUP3 LT PUSH2 0x487 JUMPI POP POP PUSH32 0x0 PUSH1 0x1 PUSH1 0x1 PUSH1 0xA0 SHL SUB AND SWAP1 POP CALLER DUP2 SWAP1 SUB PUSH2 0x471 JUMPI POP PUSH0 DUP3 DUP2 MSTORE PUSH1 0x3 PUSH1 0x20 MSTORE PUSH1 0x40 SWAP1 KECCAK256 SLOAD PUSH1 0x1 PUSH1 0x1 PUSH1 0xA0 SHL SUB AND DUP1 ISZERO PUSH2 0x41E JUMPI DUP3 PUSH0 PUSH2 0x363 PUSH2 0x371 DUP3 SWAP7 SWAP6 DUP6 DUP5 SWAP8 PUSH32 0x9A25A7192F51D336DCB9827403360B0A21163B04B38DE4178E800D96F6F0FDC PUSH1 0x40 MLOAD PUSH1 0x20 DUP2 MSTORE DUP1 PUSH2 0x335 PUSH1 0x20 DUP3 ADD DUP8 PUSH2 0x4DF JUMP JUMPDEST SUB SWAP1 LOG3 PUSH1 0x40 MLOAD SWAP3 DUP4 SWAP2 PUSH1 0x20 DUP4 ADD SWAP7 PUSH4 0x37F9C70D PUSH1 0xE0 SHL DUP9 MSTORE PUSH1 0x24 DUP5 ADD MSTORE PUSH1 0x40 PUSH1 0x44 DUP5 ADD MSTORE PUSH1 0x64 DUP4 ADD SWAP1 PUSH2 0x4DF JUMP JUMPDEST SUB PUSH1 0x1F NOT DUP2 ADD DUP4 MSTORE DUP3 PUSH2 0x4BD JUMP JUMPDEST MLOAD SWAP3 GAS CALL RETURNDATASIZE ISZERO PUSH2 0x419 JUMPI RETURNDATASIZE PUSH8 0xFFFFFFFFFFFFFFFF DUP2 GT PUSH2 0x405 JUMPI PUSH1 0x40 MLOAD SWAP1 PUSH2 0x3A3 PUSH1 0x1F DUP3 ADD PUSH1 0x1F NOT AND PUSH1 0x20 ADD DUP4 PUSH2 0x4BD JUMP JUMPDEST DUP2 MSTORE PUSH0 PUSH1 0x20 RETURNDATASIZE SWAP3 ADD RETURNDATACOPY JUMPDEST ISZERO PUSH2 0x3B4 JUMPI STOP JUMPDEST PUSH1 0x40 MLOAD PUSH3 0x461BCD PUSH1 0xE5 SHL DUP2 MSTORE PUSH1 0x20 PUSH1 0x4 DUP3 ADD MSTORE PUSH1 0x23 PUSH1 0x24 DUP3 ADD MSTORE PUSH32 0x52616E646F6D6E65737350726F76696465723A2063616C6C6261636B20666169 PUSH1 0x44 DUP3 ADD MSTORE PUSH3 0x1B1959 PUSH1 0xEA SHL PUSH1 0x64 DUP3 ADD MSTORE PUSH1 0x84 SWAP1 REVERT JUMPDEST PUSH4 0x4E487B71 PUSH1 0xE0 SHL PUSH0 MSTORE PUSH1 0x41 PUSH1 0x4 MSTORE PUSH1 0x24 PUSH0 REVERT JUMPDEST PUSH2 0x3AD JUMP JUMPDEST PUSH1 0x40 MLOAD PUSH3 0x461BCD PUSH1 0xE5 SHL DUP2 MSTORE PUSH1 0x20 PUSH1 0x4 DUP3 ADD MSTORE PUSH1 0x25 PUSH1 0x24 DUP3 ADD MSTORE PUSH32 0x52616E646F6D6E65737350726F76696465723A20696E76616C69642072657175 PUSH1 0x44 DUP3 ADD MSTORE PUSH5 0x195CDD1259 PUSH1 0xDA SHL PUSH1 0x64 DUP3 ADD MSTORE PUSH1 0x84 SWAP1 REVERT JUMPDEST PUSH4 0x73E64FD PUSH1 0xE2 SHL PUSH0 MSTORE CALLER PUSH1 0x4 MSTORE PUSH1 0x24 MSTORE PUSH1 0x44 PUSH0 REVERT JUMPDEST DUP2 CALLDATALOAD DUP2 MSTORE PUSH1 0x20 SWAP2 DUP3 ADD SWAP2 ADD PUSH2 0x296 JUMP JUMPDEST CALLVALUE PUSH2 0x8C JUMPI PUSH0 CALLDATASIZE PUSH1 0x3 NOT ADD SLT PUSH2 0x8C JUMPI PUSH1 0x20 SWAP1 PUSH8 0xFFFFFFFFFFFFFFFF PUSH0 SLOAD PUSH1 0xA0 SHR AND DUP2 MSTORE RETURN JUMPDEST SWAP1 PUSH1 0x1F DUP1 NOT SWAP2 ADD AND DUP2 ADD SWAP1 DUP2 LT PUSH8 0xFFFFFFFFFFFFFFFF DUP3 GT OR PUSH2 0x405 JUMPI PUSH1 0x40 MSTORE JUMP JUMPDEST SWAP1 PUSH1 0x20 DUP1 DUP4 MLOAD SWAP3 DUP4 DUP2 MSTORE ADD SWAP3 ADD SWAP1 PUSH0 JUMPDEST DUP2 DUP2 LT PUSH2 0x4FC JUMPI POP POP POP SWAP1 JUMP JUMPDEST DUP3 MLOAD DUP5 MSTORE PUSH1 0x20 SWAP4 DUP5 ADD SWAP4 SWAP1 SWAP3 ADD SWAP2 PUSH1 0x1 ADD PUSH2 0x4EF JUMP INVALID LOG2 PUSH5 0x6970667358 0x22 SLT KECCAK256 DUP10 0xDF SDIV 0xE2 0x2B ADDMOD 0xE2 JUMPDEST SHL SLT 0xC6 0xCE 0xFC PUSH10 0x8268AA2ACC25480ACAB3 SLOAD MLOAD 0xCD PUSH18 0xAADF606B64736F6C634300081A0033000000 "
				},
				"gasEstimates": {
					"creation": {
						"codeDepositCost": "270400",
						"executionCost": "infinite",
						"totalCost": "infinite"
					},
					"external": {
						"callbackGasLimit()": "2306",
						"keyHash()": "2322",
						"rawFulfillRandomWords(uint256,uint256[])": "infinite",
						"requestConfirmations()": "2397",
						"requestRandomness(uint32)": "infinite",
						"requestToCaller(uint256)": "2449",
						"subscriptionId()": "2259"
					},
					"internal": {
						"fulfillRandomWords(uint256,uint256[] memory)": "infinite"
					}
				},
				"methodIdentifiers": {
					"callbackGasLimit()": "24f74697",
					"keyHash()": "61728f39",
					"rawFulfillRandomWords(uint256,uint256[])": "1fe543e3",
					"requestConfirmations()": "b0fb162f",
					"requestRandomness(uint32)": "811ee32a",
					"requestToCaller(uint256)": "ad1339ea",
					"subscriptionId()": "09c1ba2e"
				}
			},
			"storageLayout": {
				"storage": [
					{
						"astId": 163,
						"contract": "src/Contract Architecture/P2P & Social Transfers/RandomnessProvider.sol:RandomnessProvider",
						"label": "COORDINATOR",
						"offset": 0,
						"slot": "0",
						"type": "t_contract(VRFCoordinatorV2Interface)153"
					},
					{
						"astId": 165,
						"contract": "src/Contract Architecture/P2P & Social Transfers/RandomnessProvider.sol:RandomnessProvider",
						"label": "subscriptionId",
						"offset": 20,
						"slot": "0",
						"type": "t_uint64"
					},
					{
						"astId": 167,
						"contract": "src/Contract Architecture/P2P & Social Transfers/RandomnessProvider.sol:RandomnessProvider",
						"label": "keyHash",
						"offset": 0,
						"slot": "1",
						"type": "t_bytes32"
					},
					{
						"astId": 170,
						"contract": "src/Contract Architecture/P2P & Social Transfers/RandomnessProvider.sol:RandomnessProvider",
						"label": "callbackGasLimit",
						"offset": 0,
						"slot": "2",
						"type": "t_uint32"
					},
					{
						"astId": 173,
						"contract": "src/Contract Architecture/P2P & Social Transfers/RandomnessProvider.sol:RandomnessProvider",
						"label": "requestConfirmations",
						"offset": 4,
						"slot": "2",
						"type": "t_uint16"
					},
					{
						"astId": 177,
						"contract": "src/Contract Architecture/P2P & Social Transfers/RandomnessProvider.sol:RandomnessProvider",
						"label": "requestToCaller",
						"offset": 0,
						"slot": "3",
						"type": "t_mapping(t_uint256,t_address)"
					}
				],
				"types": {
					"t_address": {
						"encoding": "inplace",
						"label": "address",
						"numberOfBytes": "20"
					},
					"t_bytes32": {
						"encoding": "inplace",
						"label": "bytes32",
						"numberOfBytes": "32"
					},
					"t_contract(VRFCoordinatorV2Interface)153": {
						"encoding": "inplace",
						"label": "contract VRFCoordinatorV2Interface",
						"numberOfBytes": "20"
					},
					"t_mapping(t_uint256,t_address)": {
						"encoding": "mapping",
						"key": "t_uint256",
						"label": "mapping(uint256 => address)",
						"numberOfBytes": "32",
						"value": "t_address"
					},
					"t_uint16": {
						"encoding": "inplace",
						"label": "uint16",
						"numberOfBytes": "2"
					},
					"t_uint256": {
						"encoding": "inplace",
						"label": "uint256",
						"numberOfBytes": "32"
					},
					"t_uint32": {
						"encoding": "inplace",
						"label": "uint32",
						"numberOfBytes": "4"
					},
					"t_uint64": {
						"encoding": "inplace",
						"label": "uint64",
						"numberOfBytes": "8"
					}
				}
			},
			"userdoc": {
				"kind": "user",
				"methods": {},
				"notice": "Wrapper around Chainlink VRF to provide secure randomness to other modules/contracts.",
				"version": 1
			}
		}
	}
}