{
	"src/Contract Architecture/Core Infrastructure/PermitManager.sol": {
		"PermitManager": {
			"abi": [
				{
					"inputs": [],
					"stateMutability": "nonpayable",
					"type": "constructor"
				},
				{
					"anonymous": false,
					"inputs": [
						{
							"indexed": true,
							"internalType": "address",
							"name": "user",
							"type": "address"
						},
						{
							"indexed": true,
							"internalType": "address",
							"name": "target",
							"type": "address"
						},
						{
							"indexed": false,
							"internalType": "uint256",
							"name": "nonce",
							"type": "uint256"
						}
					],
					"name": "PermitUsed",
					"type": "event"
				},
				{
					"inputs": [],
					"name": "DOMAIN_SEPARATOR",
					"outputs": [
						{
							"internalType": "bytes32",
							"name": "",
							"type": "bytes32"
						}
					],
					"stateMutability": "view",
					"type": "function"
				},
				{
					"inputs": [],
					"name": "PERMIT_TYPEHASH",
					"outputs": [
						{
							"internalType": "bytes32",
							"name": "",
							"type": "bytes32"
						}
					],
					"stateMutability": "view",
					"type": "function"
				},
				{
					"inputs": [
						{
							"internalType": "address",
							"name": "user",
							"type": "address"
						},
						{
							"internalType": "address",
							"name": "target",
							"type": "address"
						},
						{
							"internalType": "bytes",
							"name": "data",
							"type": "bytes"
						},
						{
							"internalType": "uint256",
							"name": "nonce",
							"type": "uint256"
						},
						{
							"internalType": "uint256",
							"name": "deadline",
							"type": "uint256"
						},
						{
							"internalType": "uint8",
							"name": "v",
							"type": "uint8"
						},
						{
							"internalType": "bytes32",
							"name": "r",
							"type": "bytes32"
						},
						{
							"internalType": "bytes32",
							"name": "s",
							"type": "bytes32"
						}
					],
					"name": "usePermit",
					"outputs": [],
					"stateMutability": "nonpayable",
					"type": "function"
				},
				{
					"inputs": [
						{
							"internalType": "address",
							"name": "",
							"type": "address"
						},
						{
							"internalType": "uint256",
							"name": "",
							"type": "uint256"
						}
					],
					"name": "usedNonces",
					"outputs": [
						{
							"internalType": "bool",
							"name": "",
							"type": "bool"
						}
					],
					"stateMutability": "view",
					"type": "function"
				}
			],
			"devdoc": {
				"kind": "dev",
				"methods": {
					"usePermit(address,address,bytes,uint256,uint256,uint8,bytes32,bytes32)": {
						"params": {
							"data": "Arbitrary call data authorized by the user",
							"deadline": "Expiry timestamp for the permit",
							"nonce": "The nonce to prevent replay attacks",
							"r": "Signature r",
							"s": "Signature s",
							"target": "The contract authorized to be called",
							"user": "The signer of the permit",
							"v": "Signature v"
						}
					}
				},
				"title": "PermitManager",
				"version": 1
			},
			"evm": {
				"assembly": "    /* \"src/Contract Architecture/Core Infrastructure/PermitManager.sol\":351:2847  contract PermitManager {... */\n  0xa0\n  dup1\n  0x40\n  mstore\n  jumpi(tag_2, callvalue)\n  0x20\n  dup2\n  tag_4\n  0x0d\n  swap4\n  tag_1\n  jump\t// in\ntag_4:\n  dup3\n  dup2\n  mstore\n  add\n  shl(0x99, 0x2832b936b4ba26b0b730b3b2b9)\n  dup2\n  mstore\n    /* \"src/Contract Architecture/Core Infrastructure/PermitManager.sol\":1199:1232  keccak256(bytes(\"PermitManager\")) */\n  keccak256\n    /* \"src/Contract Architecture/Core Infrastructure/PermitManager.sol\":351:2847  contract PermitManager {... */\n  0x01\n  0x20\n  mload(0x40)\n  tag_5\n  dup2\n  tag_1\n  jump\t// in\ntag_5:\n  dup3\n  dup2\n  mstore\n  add\n  shl(0xf8, 0x31)\n  dup2\n  mstore\n    /* \"src/Contract Architecture/Core Infrastructure/PermitManager.sol\":1250:1271  keccak256(bytes(\"1\")) */\n  keccak256\n    /* \"src/Contract Architecture/Core Infrastructure/PermitManager.sol\":351:2847  contract PermitManager {... */\n  swap1\n  mload(0x40)\n    /* \"src/Contract Architecture/Core Infrastructure/PermitManager.sol\":1058:1341  abi.encode(... */\n  swap2\n    /* \"src/Contract Architecture/Core Infrastructure/PermitManager.sol\":351:2847  contract PermitManager {... */\n  0x20\n    /* \"src/Contract Architecture/Core Infrastructure/PermitManager.sol\":1058:1341  abi.encode(... */\n  dup4\n  add\n    /* \"src/Contract Architecture/Core Infrastructure/PermitManager.sol\":351:2847  contract PermitManager {... */\n  swap2\n    /* \"src/Contract Architecture/Core Infrastructure/PermitManager.sol\":1086:1181  keccak256(\"EIP712Domain(string name,string version,uint256 chainId,address verifyingContract)\") */\n  0x8b73c3c69bb8fe3d512ecc4cf759cc79239f7b179b0ffacaa9a75d522b39400f\n    /* \"src/Contract Architecture/Core Infrastructure/PermitManager.sol\":351:2847  contract PermitManager {... */\n  dup4\n  mstore\n  0x40\n  dup5\n  add\n  mstore\n  0x60\n  dup4\n  add\n  mstore\n    /* \"src/Contract Architecture/Core Infrastructure/PermitManager.sol\":953:1006  assembly {... */\n  chainid\n    /* \"src/Contract Architecture/Core Infrastructure/PermitManager.sol\":351:2847  contract PermitManager {... */\n  0x80\n  dup4\n  add\n  mstore\n    /* \"src/Contract Architecture/Core Infrastructure/PermitManager.sol\":1322:1326  this */\n  address\n    /* \"src/Contract Architecture/Core Infrastructure/PermitManager.sol\":351:2847  contract PermitManager {... */\n  0xa0\n  dup4\n  add\n  mstore\n  0xa0\n    /* \"src/Contract Architecture/Core Infrastructure/PermitManager.sol\":1058:1341  abi.encode(... */\n  dup3\n  mstore\n    /* \"src/Contract Architecture/Core Infrastructure/PermitManager.sol\":351:2847  contract PermitManager {... */\n  0xc0\n  dup3\n  add\n  swap2\n  dup1\n  dup4\n  lt\n  0x01\n  dup1\n  0x40\n  shl\n  sub\n  dup5\n  gt\n  or\n  tag_6\n  jumpi\n  dup3\n  0x40\n  mstore\n  mload\n    /* \"src/Contract Architecture/Core Infrastructure/PermitManager.sol\":1035:1351  keccak256(... */\n  swap1\n  keccak256\n    /* \"src/Contract Architecture/Core Infrastructure/PermitManager.sol\":351:2847  contract PermitManager {... */\n  0x80\n    /* \"src/Contract Architecture/Core Infrastructure/PermitManager.sol\":1016:1351  DOMAIN_SEPARATOR = keccak256(... */\n  mstore\n    /* \"src/Contract Architecture/Core Infrastructure/PermitManager.sol\":351:2847  contract PermitManager {... */\n  dataSize(sub_0)\n  swap1\n  dup2\n  dataOffset(sub_0)\n  dup3\n  codecopy\n  mload(0x80)\n  dup2\n  assignImmutable(\"0x7f8b6b088b6d74c2852fc86c796dca07b44eed6fb3daf5e6b59f7c364db14528\")\n  return\ntag_6:\n  mstore(0x00, shl(0xe0, 0x4e487b71))\n  mstore(0x04, 0x41)\n  revert(0x00, 0x24)\ntag_2:\n  0x00\n  dup1\n  revert\ntag_1:\n  0x40\n  dup2\n  add\n  swap1\n  dup2\n  lt\n  sub(shl(0x40, 0x01), 0x01)\n  dup3\n  gt\n  or\n  tag_6\n  jumpi\n  0x40\n  mstore\n  jump\t// out\nstop\n\nsub_0: assembly {\n        /* \"src/Contract Architecture/Core Infrastructure/PermitManager.sol\":351:2847  contract PermitManager {... */\n      0x80\n      0x40\n      swap1\n      dup1\n      dup3\n      mstore\n      0x04\n      dup1\n      calldatasize\n      lt\n      iszero\n      tag_6\n      jumpi\n      0x00\n      dup1\n      revert\n    tag_6:\n      shr(0xe0, calldataload(0x00))\n      swap2\n      dup3\n      0x30adf81f\n      eq\n      tag_8\n      jumpi\n      pop\n      dup2\n      0x3644e515\n      eq\n      tag_10\n      jumpi\n      dup2\n      0x45955d84\n      eq\n      tag_12\n      jumpi\n      pop\n      0x6a8a6894\n      eq\n      tag_14\n      jumpi\n      0x00\n      dup1\n      revert\n    tag_14:\n      jumpi(tag_18, callvalue)\n      dup1\n      add(calldatasize, not(0x03))\n      slt\n      tag_18\n      jumpi\n      0x20\n      swap1\n      sub(shl(0xa0, 0x01), 0x01)\n      tag_20\n      tag_1\n      jump\t// in\n    tag_20:\n      and\n      0x00\n      mstore\n      0x00\n      dup3\n      mstore\n      dup1\n      0x00\n      keccak256\n      mstore(0x00, calldataload(0x24))\n      dup3\n      mstore\n      0xff\n      dup2\n      0x00\n      keccak256\n      sload\n      and\n      swap1\n      mload\n      swap1\n      iszero\n      iszero\n      dup2\n      mstore\n      return\n    tag_18:\n      0x00\n      dup1\n      revert\n    tag_12:\n      dup3\n      jumpi(tag_18, callvalue)\n      jumpi(tag_18, slt(add(not(0x03), calldatasize), 0x0100))\n      tag_25\n      tag_1\n      jump\t// in\n    tag_25:\n      sub(shl(0xa0, 0x01), 0x01)\n      0x24\n      dup1\n      calldataload\n      dup3\n      dup2\n      and\n      swap5\n      swap2\n      swap4\n      dup6\n      dup3\n      sub\n      tag_18\n      jumpi\n      0x44\n      swap6\n      dup7\n      calldataload\n      swap1\n      0xffffffffffffffff\n      swap3\n      dup4\n      dup4\n      gt\n      tag_18\n      jumpi\n      calldatasize\n      0x23\n      dup5\n      add\n      slt\n      iszero\n      tag_18\n      jumpi\n      dup3\n      dup11\n      add\n      calldataload\n      swap4\n      dup5\n      gt\n      tag_18\n      jumpi\n      dup8\n      dup4\n      add\n      swap3\n      dup9\n      dup6\n      calldatasize\n      swap3\n      add\n      add\n      gt\n      tag_18\n      jumpi\n      calldataload(0x64)\n      calldataload(0x84)\n      swap8\n      calldataload(0xa4)\n      swap3\n      0xff\n      dup5\n      and\n      dup1\n      swap5\n      sub\n      tag_18\n      jumpi\n        /* \"src/Contract Architecture/Core Infrastructure/PermitManager.sol\":2045:2060  block.timestamp */\n      dup10\n      timestamp\n        /* \"src/Contract Architecture/Core Infrastructure/PermitManager.sol\":2045:2072  block.timestamp <= deadline */\n      gt\n        /* \"src/Contract Architecture/Core Infrastructure/PermitManager.sol\":351:2847  contract PermitManager {... */\n      tag_38\n      jumpi\n      dup2\n      and\n      swap3\n      dup4\n      0x00\n      mstore\n      0x20\n      swap10\n      0x00\n      dup12\n      mstore\n      dup10\n      0x00\n      keccak256\n      dup5\n      0x00\n      mstore\n      dup12\n      mstore\n      0xff\n      dup11\n      0x00\n      keccak256\n      sload\n      and\n      tag_40\n      jumpi\n      0x80\n      dup12\n      swap3\n      dup12\n      0x00\n      swap4\n      dup11\n      dup13\n      dup7\n      dup9\n      tag_42\n      dup4\n      tag_5\n      jump\t// in\n    tag_42:\n      swap3\n      tag_43\n      dup8\n      mload\n      swap5\n      dup6\n      tag_4\n      jump\t// in\n    tag_43:\n      dup1\n      dup5\n      mstore\n      dup1\n      dup3\n      dup6\n      add\n      swap6\n      dup7\n      calldatacopy\n      dup4\n      add\n      add\n      mstore\n      mload\n        /* \"src/Contract Architecture/Core Infrastructure/PermitManager.sol\":2292:2307  keccak256(data) */\n      swap1\n      keccak256\n        /* \"src/Contract Architecture/Core Infrastructure/PermitManager.sol\":351:2847  contract PermitManager {... */\n      swap1\n      dup3\n      mload\n        /* \"src/Contract Architecture/Core Infrastructure/PermitManager.sol\":2201:2358  abi.encode(... */\n      swap2\n      dup11\n      dup9\n      dup5\n      add\n        /* \"src/Contract Architecture/Core Infrastructure/PermitManager.sol\":351:2847  contract PermitManager {... */\n      swap5\n        /* \"src/Contract Architecture/Core Infrastructure/PermitManager.sol\":723:813  keccak256(\"Permit(address user,address target,bytes data,uint256 nonce,uint256 deadline)\") */\n      0x3f0f14f4ff3aee22ffaa8ea13baa68e18aa7fbdf31e4551f3bcd788c50024f2a\n        /* \"src/Contract Architecture/Core Infrastructure/PermitManager.sol\":351:2847  contract PermitManager {... */\n      dup7\n      mstore\n      dup5\n      add\n      mstore\n      dup12\n      0x60\n      dup5\n      add\n      mstore\n      dup6\n      dup4\n      add\n      mstore\n      dup9\n      0xa0\n      dup4\n      add\n      mstore\n      0xc0\n      dup3\n      add\n      mstore\n      0xc0\n        /* \"src/Contract Architecture/Core Infrastructure/PermitManager.sol\":2201:2358  abi.encode(... */\n      dup2\n      mstore\n      tag_44\n      dup2\n      tag_2\n      jump\t// in\n    tag_44:\n        /* \"src/Contract Architecture/Core Infrastructure/PermitManager.sol\":351:2847  contract PermitManager {... */\n      mload\n        /* \"src/Contract Architecture/Core Infrastructure/PermitManager.sol\":2191:2359  keccak256(abi.encode(... */\n      swap1\n      keccak256\n        /* \"src/Contract Architecture/Core Infrastructure/PermitManager.sol\":351:2847  contract PermitManager {... */\n      dup13\n      mload\n        /* \"src/Contract Architecture/Core Infrastructure/PermitManager.sol\":2397:2455  abi.encodePacked(\"\\x19\\x01\", DOMAIN_SEPARATOR, structHash) */\n      dup6\n      dup2\n      add\n        /* \"src/Contract Architecture/Core Infrastructure/PermitManager.sol\":351:2847  contract PermitManager {... */\n      swap2\n      shl(0xf0, 0x1901)\n      dup4\n      mstore\n        /* \"src/Contract Architecture/Core Infrastructure/PermitManager.sol\":2426:2442  DOMAIN_SEPARATOR */\n      immutable(\"0x7f8b6b088b6d74c2852fc86c796dca07b44eed6fb3daf5e6b59f7c364db14528\")\n        /* \"src/Contract Architecture/Core Infrastructure/PermitManager.sol\":351:2847  contract PermitManager {... */\n      0x22\n      dup4\n      add\n      mstore\n      0x42\n      dup3\n      add\n      mstore\n      0x42\n        /* \"src/Contract Architecture/Core Infrastructure/PermitManager.sol\":2397:2455  abi.encodePacked(\"\\x19\\x01\", DOMAIN_SEPARATOR, structHash) */\n      dup2\n      mstore\n      tag_45\n      dup2\n      tag_3\n      jump\t// in\n    tag_45:\n        /* \"src/Contract Architecture/Core Infrastructure/PermitManager.sol\":351:2847  contract PermitManager {... */\n      mload\n        /* \"src/Contract Architecture/Core Infrastructure/PermitManager.sol\":2387:2456  keccak256(abi.encodePacked(\"\\x19\\x01\", DOMAIN_SEPARATOR, structHash)) */\n      swap1\n      keccak256\n        /* \"src/Contract Architecture/Core Infrastructure/PermitManager.sol\":351:2847  contract PermitManager {... */\n      swap1\n      dup13\n      mload\n      swap2\n      dup3\n      mstore\n      dup5\n      dup3\n      add\n      mstore\n      calldataload(0xc4)\n      dup13\n      dup3\n      add\n      mstore\n      calldataload(0xe4)\n      0x60\n      dup3\n      add\n      mstore\n        /* \"src/Contract Architecture/Core Infrastructure/PermitManager.sol\":2486:2512  ecrecover(digest, v, r, s) */\n      dup3\n      dup1\n      mstore\n        /* \"src/Contract Architecture/Core Infrastructure/PermitManager.sol\":351:2847  contract PermitManager {... */\n      0x01\n        /* \"src/Contract Architecture/Core Infrastructure/PermitManager.sol\":2486:2512  ecrecover(digest, v, r, s) */\n      gas\n      staticcall\n      iszero\n      tag_46\n      jumpi\n        /* \"src/Contract Architecture/Core Infrastructure/PermitManager.sol\":351:2847  contract PermitManager {... */\n      0x00\n        /* \"src/Contract Architecture/Core Infrastructure/PermitManager.sol\":2486:2512  ecrecover(digest, v, r, s) */\n      mload\n        /* \"src/Contract Architecture/Core Infrastructure/PermitManager.sol\":351:2847  contract PermitManager {... */\n      and\n        /* \"src/Contract Architecture/Core Infrastructure/PermitManager.sol\":2530:2553  recovered != address(0) */\n      dup3\n      dup2\n      iszero\n      iszero\n        /* \"src/Contract Architecture/Core Infrastructure/PermitManager.sol\":2530:2574  recovered != address(0) && recovered == user */\n      swap2\n      dup3\n      tag_48\n      jumpi\n        /* \"src/Contract Architecture/Core Infrastructure/PermitManager.sol\":351:2847  contract PermitManager {... */\n    tag_49:\n      pop\n      pop\n      iszero\n      tag_50\n      jumpi\n      swap3\n      0x00\n      swap6\n      swap4\n      swap3\n      dup3\n        /* \"src/Contract Architecture/Core Infrastructure/PermitManager.sol\":2661:2692  PermitUsed(user, target, nonce) */\n      0x1de9b1f4277253dc9ecd0dcf53c796ecb43ff6fa66d9f49e0ac00c8ed2dd4326\n        /* \"src/Contract Architecture/Core Infrastructure/PermitManager.sol\":351:2847  contract PermitManager {... */\n      dup11\n      dup10\n      swap9\n      swap7\n      dup10\n      swap7\n      dup8\n      mstore\n      dup7\n      dup3\n      mstore\n      dup12\n      dup8\n      keccak256\n      dup2\n      dup9\n      mstore\n      dup3\n      mstore\n      dup12\n      dup8\n      keccak256\n      0x01\n      not(0xff)\n      dup3\n      sload\n      and\n      or\n      swap1\n      sstore\n      dup12\n      mload\n      swap1\n      dup2\n      mstore\n        /* \"src/Contract Architecture/Core Infrastructure/PermitManager.sol\":2661:2692  PermitUsed(user, target, nonce) */\n      log3\n        /* \"src/Contract Architecture/Core Infrastructure/PermitManager.sol\":351:2847  contract PermitManager {... */\n      dup3\n      dup8\n      mload\n      swap4\n      dup5\n      swap3\n      dup4\n      calldatacopy\n      dup2\n      add\n      dup3\n      dup2\n      mstore\n        /* \"src/Contract Architecture/Core Infrastructure/PermitManager.sol\":2779:2796  target.call(data) */\n      sub\n      swap3\n      gas\n      call\n      swap1\n        /* \"src/Contract Architecture/Core Infrastructure/PermitManager.sol\":351:2847  contract PermitManager {... */\n      jumpi(tag_52, iszero(returndatasize))\n      returndatasize\n      swap2\n      tag_54\n      dup4\n      tag_5\n      jump\t// in\n    tag_54:\n      swap3\n      tag_55\n      dup4\n      mload\n      swap5\n      dup6\n      tag_4\n      jump\t// in\n    tag_55:\n      dup4\n      mstore\n      returndatasize\n      0x00\n      dup6\n      dup6\n      add\n      returndatacopy\n    tag_56:\n      iszero\n      tag_57\n      jumpi\n      stop\n    tag_57:\n      mload\n      shl(0xe5, 0x461bcd)\n      dup2\n      mstore\n      swap5\n      dup6\n      add\n      dup3\n      swap1\n      mstore\n      dup1\n      mload\n      swap3\n      dup6\n      add\n      dup4\n      swap1\n      mstore\n      dup5\n      swap3\n      swap2\n      swap1\n      0x00\n    tag_59:\n      dup4\n      dup2\n      lt\n      tag_60\n      jumpi\n      pop\n      pop\n      0x00\n      dup4\n      dup4\n      add\n      dup6\n      add\n      mstore\n      pop\n      0x1f\n      add\n      not(0x1f)\n      and\n      dup2\n      add\n      sub\n      add\n      swap1\n      revert\n    tag_60:\n      dup2\n      dup2\n      add\n      dup4\n      add\n      mload\n      dup8\n      dup3\n      add\n      dup8\n      add\n      mstore\n      dup7\n      swap5\n      pop\n      dup3\n      add\n      jump(tag_59)\n    tag_52:\n      0x60\n      swap2\n      jump(tag_56)\n    tag_50:\n      dup7\n      mload\n      shl(0xe5, 0x461bcd)\n      dup2\n      mstore\n      dup1\n      dup13\n      add\n      dup10\n      swap1\n      mstore\n      0x19\n      dup2\n      dup12\n      add\n      mstore\n      0x5065726d69743a20696e76616c6964207369676e617475726500000000000000\n      dup2\n      dup13\n      add\n      mstore\n      0x64\n      swap1\n      revert\n        /* \"src/Contract Architecture/Core Infrastructure/PermitManager.sol\":2530:2574  recovered != address(0) && recovered == user */\n    tag_48:\n        /* \"src/Contract Architecture/Core Infrastructure/PermitManager.sol\":2557:2574  recovered == user */\n      eq\n      swap1\n      pop\n        /* \"src/Contract Architecture/Core Infrastructure/PermitManager.sol\":2530:2574  recovered != address(0) && recovered == user */\n      dup3\n      dup14\n      jump(tag_49)\n        /* \"src/Contract Architecture/Core Infrastructure/PermitManager.sol\":2486:2512  ecrecover(digest, v, r, s) */\n    tag_46:\n        /* \"src/Contract Architecture/Core Infrastructure/PermitManager.sol\":351:2847  contract PermitManager {... */\n      dup8\n      mload\n      returndatasize\n      0x00\n      dup3\n      returndatacopy\n      returndatasize\n      swap1\n      revert\n    tag_40:\n      pop\n      dup9\n      mload\n      shl(0xe5, 0x461bcd)\n      dup2\n      mstore\n      dup1\n      dup15\n      add\n      dup12\n      swap1\n      mstore\n      0x14\n      dup2\n      dup14\n      add\n      mstore\n      shl(0x62, 0x14195c9b5a5d0e88185b1c9958591e481d5cd959)\n      dup2\n      dup15\n      add\n      mstore\n      0x64\n      swap1\n      revert\n    tag_38:\n      dup9\n      mload\n      shl(0xe5, 0x461bcd)\n      dup2\n      mstore\n      0x20\n      dup2\n      dup16\n      add\n      mstore\n      0x0f\n      dup2\n      dup14\n      add\n      mstore\n      shl(0x8a, 0x14195c9b5a5d0e88195e1c1a5c9959)\n      dup2\n      dup15\n      add\n      mstore\n      0x64\n      swap1\n      revert\n    tag_10:\n      dup3\n      jumpi(tag_18, callvalue)\n      jumpi(tag_18, slt(add(not(0x03), calldatasize), 0x00))\n      0x20\n      swap1\n      mload\n        /* \"src/Contract Architecture/Core Infrastructure/PermitManager.sol\":578:619  bytes32 public immutable DOMAIN_SEPARATOR */\n      immutable(\"0x7f8b6b088b6d74c2852fc86c796dca07b44eed6fb3daf5e6b59f7c364db14528\")\n        /* \"src/Contract Architecture/Core Infrastructure/PermitManager.sol\":351:2847  contract PermitManager {... */\n      dup2\n      mstore\n      return\n    tag_8:\n      jumpi(tag_18, callvalue)\n      jumpi(tag_18, slt(add(not(0x03), calldatasize), 0x00))\n      dup1\n        /* \"src/Contract Architecture/Core Infrastructure/PermitManager.sol\":723:813  keccak256(\"Permit(address user,address target,bytes data,uint256 nonce,uint256 deadline)\") */\n      0x3f0f14f4ff3aee22ffaa8ea13baa68e18aa7fbdf31e4551f3bcd788c50024f2a\n        /* \"src/Contract Architecture/Core Infrastructure/PermitManager.sol\":351:2847  contract PermitManager {... */\n      0x20\n      swap3\n      mstore\n      return\n    tag_1:\n      calldataload(0x04)\n      swap1\n      sub(shl(0xa0, 0x01), 0x01)\n      dup3\n      and\n      dup3\n      sub\n      tag_18\n      jumpi\n      jump\t// out\n    tag_2:\n      0xe0\n      dup2\n      add\n      swap1\n      dup2\n      lt\n      0xffffffffffffffff\n      dup3\n      gt\n      or\n      tag_72\n      jumpi\n      0x40\n      mstore\n      jump\t// out\n    tag_72:\n      mstore(0x00, shl(0xe0, 0x4e487b71))\n      mstore(0x04, 0x41)\n      revert(0x00, 0x24)\n    tag_3:\n      0x80\n      dup2\n      add\n      swap1\n      dup2\n      lt\n      0xffffffffffffffff\n      dup3\n      gt\n      or\n      tag_72\n      jumpi\n      0x40\n      mstore\n      jump\t// out\n    tag_4:\n      swap1\n      0x1f\n        /* \"src/Contract Architecture/Core Infrastructure/PermitManager.sol\":2201:2358  abi.encode(... */\n      dup1\n      not\n        /* \"src/Contract Architecture/Core Infrastructure/PermitManager.sol\":351:2847  contract PermitManager {... */\n      swap2\n      add\n      and\n      dup2\n      add\n      swap1\n      dup2\n      lt\n      0xffffffffffffffff\n      dup3\n      gt\n      or\n      tag_72\n      jumpi\n      0x40\n      mstore\n      jump\t// out\n    tag_5:\n      0xffffffffffffffff\n      dup2\n      gt\n      tag_72\n      jumpi\n      0x1f\n      add\n      not(0x1f)\n      and\n      0x20\n      add\n      swap1\n      jump\t// out\n\n    auxdata: 0xa2646970667358221220bc163b4b372cc4d0819bdc0a7429389630a6dbf2b9a60bfb67ffff4e2dffe40264736f6c63430008180033\n}\n",
				"bytecode": {
					"linkReferences": {},
					"object": "60a080604052346100e357602081610018600d936100e7565b828152016c2832b936b4ba26b0b730b3b2b960991b81522060016020604051610040816100e7565b82815201603160f81b815220906040519160208301917f8b73c3c69bb8fe3d512ecc4cf759cc79239f7b179b0ffacaa9a75d522b39400f8352604084015260608301524660808301523060a083015260a0825260c082019180831060018060401b038411176100cf578260405251902060805261053a908161010382396080518181816101d501526104090152f35b634e487b7160e01b5f52604160045260245ffd5b5f80fd5b604081019081106001600160401b038211176100cf5760405256fe6080604090808252600480361015610015575f80fd5b5f3560e01c91826330adf81f1461042c575081633644e515146103f257816345955d84146100935750636a8a68941461004c575f80fd5b3461008f578060031936011261008f576020906001600160a01b0361006f610464565b165f525f8252805f206024355f52825260ff815f20541690519015158152f35b5f80fd5b823461008f5761010036600319011261008f576100ae610464565b6001600160a01b036024803582811694919385820361008f5760449586359067ffffffffffffffff9283831161008f573660238401121561008f57828a013593841161008f57878301928885369201011161008f576064356084359760a4359260ff841680940361008f578942116103bf57811692835f526020995f8b52895f20845f528b5260ff8a5f2054166103865760808b928b5f938a8c8688610153836104e8565b92610160875194856104c6565b8084528082850195863783010152519020908251918a888401947f3f0f14f4ff3aee22ffaa8ea13baa68e18aa7fbdf31e4551f3bcd788c50024f2a86528401528b6060840152858301528860a083015260c082015260c081526101c28161047a565b5190208c518581019161190160f01b83527f0000000000000000000000000000000000000000000000000000000000000000602283015260428201526042815261020b816104aa565b519020908c519182528482015260c4358c82015260e435606082015282805260015afa1561037c575f5116828115159182610372575b50501561033157925f959392827f1de9b1f4277253dc9ecd0dcf53c796ecb43ff6fa66d9f49e0ac00c8ed2dd43268a899896899687528682528b872081885282528b8720600160ff198254161790558b51908152a38287519384928337810182815203925af1903d15610329573d916102b9836104e8565b926102c6835194856104c6565b83523d5f8585013e5b156102d657005b5162461bcd60e51b81529485018290528051928501839052849291905f5b8381106103135750505f83830185015250601f01601f19168101030190fd5b81810183015187820187015286945082016102f4565b6060916102cf565b865162461bcd60e51b8152808c018990526019818b01527f5065726d69743a20696e76616c6964207369676e617475726500000000000000818c0152606490fd5b149050828d610241565b87513d5f823e3d90fd5b50885162461bcd60e51b8152808e018b90526014818d01527314195c9b5a5d0e88185b1c9958591e481d5cd95960621b818e0152606490fd5b885162461bcd60e51b81526020818f0152600f818d01526e14195c9b5a5d0e88195e1c1a5c9959608a1b818e0152606490fd5b823461008f575f36600319011261008f57602090517f00000000000000000000000000000000000000000000000000000000000000008152f35b3461008f575f36600319011261008f57807f3f0f14f4ff3aee22ffaa8ea13baa68e18aa7fbdf31e4551f3bcd788c50024f2a60209252f35b600435906001600160a01b038216820361008f57565b60e0810190811067ffffffffffffffff82111761049657604052565b634e487b7160e01b5f52604160045260245ffd5b6080810190811067ffffffffffffffff82111761049657604052565b90601f8019910116810190811067ffffffffffffffff82111761049657604052565b67ffffffffffffffff811161049657601f01601f19166020019056fea2646970667358221220bc163b4b372cc4d0819bdc0a7429389630a6dbf2b9a60bfb67ffff4e2dffe40264736f6c63430008180033",
					"opcodes": "PUSH1 0xA0 DUP1 PUSH1 0x40 MSTORE CALLVALUE PUSH2 0xE3 JUMPI PUSH1 0x20 DUP2 PUSH2 0x18 PUSH1 0xD SWAP4 PUSH2 0xE7 JUMP JUMPDEST DUP3 DUP2 MSTORE ADD PUSH13 0x2832B936B4BA26B0B730B3B2B9 PUSH1 0x99 SHL DUP2 MSTORE KECCAK256 PUSH1 0x1 PUSH1 0x20 PUSH1 0x40 MLOAD PUSH2 0x40 DUP2 PUSH2 0xE7 JUMP JUMPDEST DUP3 DUP2 MSTORE ADD PUSH1 0x31 PUSH1 0xF8 SHL DUP2 MSTORE KECCAK256 SWAP1 PUSH1 0x40 MLOAD SWAP2 PUSH1 0x20 DUP4 ADD SWAP2 PUSH32 0x8B73C3C69BB8FE3D512ECC4CF759CC79239F7B179B0FFACAA9A75D522B39400F DUP4 MSTORE PUSH1 0x40 DUP5 ADD MSTORE PUSH1 0x60 DUP4 ADD MSTORE CHAINID PUSH1 0x80 DUP4 ADD MSTORE ADDRESS PUSH1 0xA0 DUP4 ADD MSTORE PUSH1 0xA0 DUP3 MSTORE PUSH1 0xC0 DUP3 ADD SWAP2 DUP1 DUP4 LT PUSH1 0x1 DUP1 PUSH1 0x40 SHL SUB DUP5 GT OR PUSH2 0xCF JUMPI DUP3 PUSH1 0x40 MSTORE MLOAD SWAP1 KECCAK256 PUSH1 0x80 MSTORE PUSH2 0x53A SWAP1 DUP2 PUSH2 0x103 DUP3 CODECOPY PUSH1 0x80 MLOAD DUP2 DUP2 DUP2 PUSH2 0x1D5 ADD MSTORE PUSH2 0x409 ADD MSTORE RETURN JUMPDEST PUSH4 0x4E487B71 PUSH1 0xE0 SHL PUSH0 MSTORE PUSH1 0x41 PUSH1 0x4 MSTORE PUSH1 0x24 PUSH0 REVERT JUMPDEST PUSH0 DUP1 REVERT JUMPDEST PUSH1 0x40 DUP2 ADD SWAP1 DUP2 LT PUSH1 0x1 PUSH1 0x1 PUSH1 0x40 SHL SUB DUP3 GT OR PUSH2 0xCF JUMPI PUSH1 0x40 MSTORE JUMP INVALID PUSH1 0x80 PUSH1 0x40 SWAP1 DUP1 DUP3 MSTORE PUSH1 0x4 DUP1 CALLDATASIZE LT ISZERO PUSH2 0x15 JUMPI PUSH0 DUP1 REVERT JUMPDEST PUSH0 CALLDATALOAD PUSH1 0xE0 SHR SWAP2 DUP3 PUSH4 0x30ADF81F EQ PUSH2 0x42C JUMPI POP DUP2 PUSH4 0x3644E515 EQ PUSH2 0x3F2 JUMPI DUP2 PUSH4 0x45955D84 EQ PUSH2 0x93 JUMPI POP PUSH4 0x6A8A6894 EQ PUSH2 0x4C JUMPI PUSH0 DUP1 REVERT JUMPDEST CALLVALUE PUSH2 0x8F JUMPI DUP1 PUSH1 0x3 NOT CALLDATASIZE ADD SLT PUSH2 0x8F JUMPI PUSH1 0x20 SWAP1 PUSH1 0x1 PUSH1 0x1 PUSH1 0xA0 SHL SUB PUSH2 0x6F PUSH2 0x464 JUMP JUMPDEST AND PUSH0 MSTORE PUSH0 DUP3 MSTORE DUP1 PUSH0 KECCAK256 PUSH1 0x24 CALLDATALOAD PUSH0 MSTORE DUP3 MSTORE PUSH1 0xFF DUP2 PUSH0 KECCAK256 SLOAD AND SWAP1 MLOAD SWAP1 ISZERO ISZERO DUP2 MSTORE RETURN JUMPDEST PUSH0 DUP1 REVERT JUMPDEST DUP3 CALLVALUE PUSH2 0x8F JUMPI PUSH2 0x100 CALLDATASIZE PUSH1 0x3 NOT ADD SLT PUSH2 0x8F JUMPI PUSH2 0xAE PUSH2 0x464 JUMP JUMPDEST PUSH1 0x1 PUSH1 0x1 PUSH1 0xA0 SHL SUB PUSH1 0x24 DUP1 CALLDATALOAD DUP3 DUP2 AND SWAP5 SWAP2 SWAP4 DUP6 DUP3 SUB PUSH2 0x8F JUMPI PUSH1 0x44 SWAP6 DUP7 CALLDATALOAD SWAP1 PUSH8 0xFFFFFFFFFFFFFFFF SWAP3 DUP4 DUP4 GT PUSH2 0x8F JUMPI CALLDATASIZE PUSH1 0x23 DUP5 ADD SLT ISZERO PUSH2 0x8F JUMPI DUP3 DUP11 ADD CALLDATALOAD SWAP4 DUP5 GT PUSH2 0x8F JUMPI DUP8 DUP4 ADD SWAP3 DUP9 DUP6 CALLDATASIZE SWAP3 ADD ADD GT PUSH2 0x8F JUMPI PUSH1 0x64 CALLDATALOAD PUSH1 0x84 CALLDATALOAD SWAP8 PUSH1 0xA4 CALLDATALOAD SWAP3 PUSH1 0xFF DUP5 AND DUP1 SWAP5 SUB PUSH2 0x8F JUMPI DUP10 TIMESTAMP GT PUSH2 0x3BF JUMPI DUP2 AND SWAP3 DUP4 PUSH0 MSTORE PUSH1 0x20 SWAP10 PUSH0 DUP12 MSTORE DUP10 PUSH0 KECCAK256 DUP5 PUSH0 MSTORE DUP12 MSTORE PUSH1 0xFF DUP11 PUSH0 KECCAK256 SLOAD AND PUSH2 0x386 JUMPI PUSH1 0x80 DUP12 SWAP3 DUP12 PUSH0 SWAP4 DUP11 DUP13 DUP7 DUP9 PUSH2 0x153 DUP4 PUSH2 0x4E8 JUMP JUMPDEST SWAP3 PUSH2 0x160 DUP8 MLOAD SWAP5 DUP6 PUSH2 0x4C6 JUMP JUMPDEST DUP1 DUP5 MSTORE DUP1 DUP3 DUP6 ADD SWAP6 DUP7 CALLDATACOPY DUP4 ADD ADD MSTORE MLOAD SWAP1 KECCAK256 SWAP1 DUP3 MLOAD SWAP2 DUP11 DUP9 DUP5 ADD SWAP5 PUSH32 0x3F0F14F4FF3AEE22FFAA8EA13BAA68E18AA7FBDF31E4551F3BCD788C50024F2A DUP7 MSTORE DUP5 ADD MSTORE DUP12 PUSH1 0x60 DUP5 ADD MSTORE DUP6 DUP4 ADD MSTORE DUP9 PUSH1 0xA0 DUP4 ADD MSTORE PUSH1 0xC0 DUP3 ADD MSTORE PUSH1 0xC0 DUP2 MSTORE PUSH2 0x1C2 DUP2 PUSH2 0x47A JUMP JUMPDEST MLOAD SWAP1 KECCAK256 DUP13 MLOAD DUP6 DUP2 ADD SWAP2 PUSH2 0x1901 PUSH1 0xF0 SHL DUP4 MSTORE PUSH32 0x0 PUSH1 0x22 DUP4 ADD MSTORE PUSH1 0x42 DUP3 ADD MSTORE PUSH1 0x42 DUP2 MSTORE PUSH2 0x20B DUP2 PUSH2 0x4AA JUMP JUMPDEST MLOAD SWAP1 KECCAK256 SWAP1 DUP13 MLOAD SWAP2 DUP3 MSTORE DUP5 DUP3 ADD MSTORE PUSH1 0xC4 CALLDATALOAD DUP13 DUP3 ADD MSTORE PUSH1 0xE4 CALLDATALOAD PUSH1 0x60 DUP3 ADD MSTORE DUP3 DUP1 MSTORE PUSH1 0x1 GAS STATICCALL ISZERO PUSH2 0x37C JUMPI PUSH0 MLOAD AND DUP3 DUP2 ISZERO ISZERO SWAP2 DUP3 PUSH2 0x372 JUMPI JUMPDEST POP POP ISZERO PUSH2 0x331 JUMPI SWAP3 PUSH0 SWAP6 SWAP4 SWAP3 DUP3 PUSH32 0x1DE9B1F4277253DC9ECD0DCF53C796ECB43FF6FA66D9F49E0AC00C8ED2DD4326 DUP11 DUP10 SWAP9 SWAP7 DUP10 SWAP7 DUP8 MSTORE DUP7 DUP3 MSTORE DUP12 DUP8 KECCAK256 DUP2 DUP9 MSTORE DUP3 MSTORE DUP12 DUP8 KECCAK256 PUSH1 0x1 PUSH1 0xFF NOT DUP3 SLOAD AND OR SWAP1 SSTORE DUP12 MLOAD SWAP1 DUP2 MSTORE LOG3 DUP3 DUP8 MLOAD SWAP4 DUP5 SWAP3 DUP4 CALLDATACOPY DUP2 ADD DUP3 DUP2 MSTORE SUB SWAP3 GAS CALL SWAP1 RETURNDATASIZE ISZERO PUSH2 0x329 JUMPI RETURNDATASIZE SWAP2 PUSH2 0x2B9 DUP4 PUSH2 0x4E8 JUMP JUMPDEST SWAP3 PUSH2 0x2C6 DUP4 MLOAD SWAP5 DUP6 PUSH2 0x4C6 JUMP JUMPDEST DUP4 MSTORE RETURNDATASIZE PUSH0 DUP6 DUP6 ADD RETURNDATACOPY JUMPDEST ISZERO PUSH2 0x2D6 JUMPI STOP JUMPDEST MLOAD PUSH3 0x461BCD PUSH1 0xE5 SHL DUP2 MSTORE SWAP5 DUP6 ADD DUP3 SWAP1 MSTORE DUP1 MLOAD SWAP3 DUP6 ADD DUP4 SWAP1 MSTORE DUP5 SWAP3 SWAP2 SWAP1 PUSH0 JUMPDEST DUP4 DUP2 LT PUSH2 0x313 JUMPI POP POP PUSH0 DUP4 DUP4 ADD DUP6 ADD MSTORE POP PUSH1 0x1F ADD PUSH1 0x1F NOT AND DUP2 ADD SUB ADD SWAP1 REVERT JUMPDEST DUP2 DUP2 ADD DUP4 ADD MLOAD DUP8 DUP3 ADD DUP8 ADD MSTORE DUP7 SWAP5 POP DUP3 ADD PUSH2 0x2F4 JUMP JUMPDEST PUSH1 0x60 SWAP2 PUSH2 0x2CF JUMP JUMPDEST DUP7 MLOAD PUSH3 0x461BCD PUSH1 0xE5 SHL DUP2 MSTORE DUP1 DUP13 ADD DUP10 SWAP1 MSTORE PUSH1 0x19 DUP2 DUP12 ADD MSTORE PUSH32 0x5065726D69743A20696E76616C6964207369676E617475726500000000000000 DUP2 DUP13 ADD MSTORE PUSH1 0x64 SWAP1 REVERT JUMPDEST EQ SWAP1 POP DUP3 DUP14 PUSH2 0x241 JUMP JUMPDEST DUP8 MLOAD RETURNDATASIZE PUSH0 DUP3 RETURNDATACOPY RETURNDATASIZE SWAP1 REVERT JUMPDEST POP DUP9 MLOAD PUSH3 0x461BCD PUSH1 0xE5 SHL DUP2 MSTORE DUP1 DUP15 ADD DUP12 SWAP1 MSTORE PUSH1 0x14 DUP2 DUP14 ADD MSTORE PUSH20 0x14195C9B5A5D0E88185B1C9958591E481D5CD959 PUSH1 0x62 SHL DUP2 DUP15 ADD MSTORE PUSH1 0x64 SWAP1 REVERT JUMPDEST DUP9 MLOAD PUSH3 0x461BCD PUSH1 0xE5 SHL DUP2 MSTORE PUSH1 0x20 DUP2 DUP16 ADD MSTORE PUSH1 0xF DUP2 DUP14 ADD MSTORE PUSH15 0x14195C9B5A5D0E88195E1C1A5C9959 PUSH1 0x8A SHL DUP2 DUP15 ADD MSTORE PUSH1 0x64 SWAP1 REVERT JUMPDEST DUP3 CALLVALUE PUSH2 0x8F JUMPI PUSH0 CALLDATASIZE PUSH1 0x3 NOT ADD SLT PUSH2 0x8F JUMPI PUSH1 0x20 SWAP1 MLOAD PUSH32 0x0 DUP2 MSTORE RETURN JUMPDEST CALLVALUE PUSH2 0x8F JUMPI PUSH0 CALLDATASIZE PUSH1 0x3 NOT ADD SLT PUSH2 0x8F JUMPI DUP1 PUSH32 0x3F0F14F4FF3AEE22FFAA8EA13BAA68E18AA7FBDF31E4551F3BCD788C50024F2A PUSH1 0x20 SWAP3 MSTORE RETURN JUMPDEST PUSH1 0x4 CALLDATALOAD SWAP1 PUSH1 0x1 PUSH1 0x1 PUSH1 0xA0 SHL SUB DUP3 AND DUP3 SUB PUSH2 0x8F JUMPI JUMP JUMPDEST PUSH1 0xE0 DUP2 ADD SWAP1 DUP2 LT PUSH8 0xFFFFFFFFFFFFFFFF DUP3 GT OR PUSH2 0x496 JUMPI PUSH1 0x40 MSTORE JUMP JUMPDEST PUSH4 0x4E487B71 PUSH1 0xE0 SHL PUSH0 MSTORE PUSH1 0x41 PUSH1 0x4 MSTORE PUSH1 0x24 PUSH0 REVERT JUMPDEST PUSH1 0x80 DUP2 ADD SWAP1 DUP2 LT PUSH8 0xFFFFFFFFFFFFFFFF DUP3 GT OR PUSH2 0x496 JUMPI PUSH1 0x40 MSTORE JUMP JUMPDEST SWAP1 PUSH1 0x1F DUP1 NOT SWAP2 ADD AND DUP2 ADD SWAP1 DUP2 LT PUSH8 0xFFFFFFFFFFFFFFFF DUP3 GT OR PUSH2 0x496 JUMPI PUSH1 0x40 MSTORE JUMP JUMPDEST PUSH8 0xFFFFFFFFFFFFFFFF DUP2 GT PUSH2 0x496 JUMPI PUSH1 0x1F ADD PUSH1 0x1F NOT AND PUSH1 0x20 ADD SWAP1 JUMP INVALID LOG2 PUSH5 0x6970667358 0x22 SLT KECCAK256 0xBC AND EXTCODESIZE 0x4B CALLDATACOPY 0x2C 0xC4 0xD0 DUP2 SWAP12 0xDC EXP PUSH21 0x29389630A6DBF2B9A60BFB67FFFF4E2DFFE4026473 PUSH16 0x6C634300081800330000000000000000 "
				},
				"gasEstimates": {
					"creation": {
						"codeDepositCost": "267600",
						"executionCost": "infinite",
						"totalCost": "infinite"
					},
					"external": {
						"DOMAIN_SEPARATOR()": "infinite",
						"PERMIT_TYPEHASH()": "157",
						"usePermit(address,address,bytes,uint256,uint256,uint8,bytes32,bytes32)": "infinite",
						"usedNonces(address,uint256)": "2558"
					}
				},
				"methodIdentifiers": {
					"DOMAIN_SEPARATOR()": "3644e515",
					"PERMIT_TYPEHASH()": "30adf81f",
					"usePermit(address,address,bytes,uint256,uint256,uint8,bytes32,bytes32)": "45955d84",
					"usedNonces(address,uint256)": "6a8a6894"
				}
			},
			"storageLayout": {
				"storage": [
					{
						"astId": 9,
						"contract": "src/Contract Architecture/Core Infrastructure/PermitManager.sol:PermitManager",
						"label": "usedNonces",
						"offset": 0,
						"slot": "0",
						"type": "t_mapping(t_address,t_mapping(t_uint256,t_bool))"
					}
				],
				"types": {
					"t_address": {
						"encoding": "inplace",
						"label": "address",
						"numberOfBytes": "20"
					},
					"t_bool": {
						"encoding": "inplace",
						"label": "bool",
						"numberOfBytes": "1"
					},
					"t_mapping(t_address,t_mapping(t_uint256,t_bool))": {
						"encoding": "mapping",
						"key": "t_address",
						"label": "mapping(address => mapping(uint256 => bool))",
						"numberOfBytes": "32",
						"value": "t_mapping(t_uint256,t_bool)"
					},
					"t_mapping(t_uint256,t_bool)": {
						"encoding": "mapping",
						"key": "t_uint256",
						"label": "mapping(uint256 => bool)",
						"numberOfBytes": "32",
						"value": "t_bool"
					},
					"t_uint256": {
						"encoding": "inplace",
						"label": "uint256",
						"numberOfBytes": "32"
					}
				}
			},
			"userdoc": {
				"kind": "user",
				"methods": {
					"DOMAIN_SEPARATOR()": {
						"notice": "Domain separator for EIP-712"
					},
					"PERMIT_TYPEHASH()": {
						"notice": "Typehash for the Permit struct"
					},
					"usePermit(address,address,bytes,uint256,uint256,uint8,bytes32,bytes32)": {
						"notice": "Validates an EIP-712 permit signature and marks it as used."
					},
					"usedNonces(address,uint256)": {
						"notice": "Mapping of used nonces for replay protection: user => nonce => used"
					}
				},
				"notice": "Manages EIP-712 signature-based permissions for secure offchain-triggered actions.         Users can sign typed data authorizing the ActionExecutor (or other contracts) to perform specific actions. CA:0x3280DA07A699B0061dB5e0109c72D05fD72aC991",
				"version": 1
			}
		}
	}
}