{
	"src/Contract Architecture/P2P & Social Transfers/GiveawayManager.sol": {
		"GiveawayManager": {
			"abi": [
				{
					"inputs": [
						{
							"internalType": "address",
							"name": "_randomnessProvider",
							"type": "address"
						},
						{
							"internalType": "address",
							"name": "_eligibilityVerifier",
							"type": "address"
						}
					],
					"stateMutability": "nonpayable",
					"type": "constructor"
				},
				{
					"inputs": [
						{
							"internalType": "address",
							"name": "owner",
							"type": "address"
						}
					],
					"name": "OwnableInvalidOwner",
					"type": "error"
				},
				{
					"inputs": [
						{
							"internalType": "address",
							"name": "account",
							"type": "address"
						}
					],
					"name": "OwnableUnauthorizedAccount",
					"type": "error"
				},
				{
					"inputs": [
						{
							"internalType": "address",
							"name": "token",
							"type": "address"
						}
					],
					"name": "SafeERC20FailedOperation",
					"type": "error"
				},
				{
					"anonymous": false,
					"inputs": [
						{
							"indexed": true,
							"internalType": "uint256",
							"name": "id",
							"type": "uint256"
						}
					],
					"name": "Cancelled",
					"type": "event"
				},
				{
					"anonymous": false,
					"inputs": [
						{
							"indexed": true,
							"internalType": "uint256",
							"name": "id",
							"type": "uint256"
						},
						{
							"indexed": true,
							"internalType": "address",
							"name": "winner",
							"type": "address"
						},
						{
							"indexed": false,
							"internalType": "uint256",
							"name": "amount",
							"type": "uint256"
						}
					],
					"name": "Claimed",
					"type": "event"
				},
				{
					"anonymous": false,
					"inputs": [
						{
							"indexed": true,
							"internalType": "address",
							"name": "verifier",
							"type": "address"
						}
					],
					"name": "EligibilityVerifierUpdated",
					"type": "event"
				},
				{
					"anonymous": false,
					"inputs": [
						{
							"indexed": true,
							"internalType": "uint256",
							"name": "id",
							"type": "uint256"
						},
						{
							"indexed": true,
							"internalType": "address",
							"name": "user",
							"type": "address"
						}
					],
					"name": "Entered",
					"type": "event"
				},
				{
					"anonymous": false,
					"inputs": [
						{
							"indexed": true,
							"internalType": "uint256",
							"name": "id",
							"type": "uint256"
						},
						{
							"indexed": true,
							"internalType": "address",
							"name": "creator",
							"type": "address"
						},
						{
							"indexed": true,
							"internalType": "address",
							"name": "token",
							"type": "address"
						},
						{
							"indexed": false,
							"internalType": "uint256",
							"name": "amount",
							"type": "uint256"
						},
						{
							"indexed": false,
							"internalType": "uint64",
							"name": "startTime",
							"type": "uint64"
						},
						{
							"indexed": false,
							"internalType": "uint64",
							"name": "endTime",
							"type": "uint64"
						},
						{
							"indexed": false,
							"internalType": "uint32",
							"name": "maxWinners",
							"type": "uint32"
						}
					],
					"name": "GiveawayCreated",
					"type": "event"
				},
				{
					"anonymous": false,
					"inputs": [
						{
							"indexed": true,
							"internalType": "address",
							"name": "previousOwner",
							"type": "address"
						},
						{
							"indexed": true,
							"internalType": "address",
							"name": "newOwner",
							"type": "address"
						}
					],
					"name": "OwnershipTransferred",
					"type": "event"
				},
				{
					"anonymous": false,
					"inputs": [
						{
							"indexed": true,
							"internalType": "uint256",
							"name": "id",
							"type": "uint256"
						},
						{
							"indexed": false,
							"internalType": "uint256",
							"name": "randomWord",
							"type": "uint256"
						}
					],
					"name": "RandomnessFulfilled",
					"type": "event"
				},
				{
					"anonymous": false,
					"inputs": [
						{
							"indexed": true,
							"internalType": "address",
							"name": "provider",
							"type": "address"
						}
					],
					"name": "RandomnessProviderUpdated",
					"type": "event"
				},
				{
					"anonymous": false,
					"inputs": [
						{
							"indexed": true,
							"internalType": "uint256",
							"name": "id",
							"type": "uint256"
						},
						{
							"indexed": false,
							"internalType": "bytes32",
							"name": "reqId",
							"type": "bytes32"
						}
					],
					"name": "RandomnessRequested",
					"type": "event"
				},
				{
					"anonymous": false,
					"inputs": [
						{
							"indexed": true,
							"internalType": "uint256",
							"name": "id",
							"type": "uint256"
						},
						{
							"indexed": true,
							"internalType": "address",
							"name": "to",
							"type": "address"
						},
						{
							"indexed": false,
							"internalType": "uint256",
							"name": "amount",
							"type": "uint256"
						}
					],
					"name": "RemainderSwept",
					"type": "event"
				},
				{
					"anonymous": false,
					"inputs": [
						{
							"indexed": true,
							"internalType": "uint256",
							"name": "id",
							"type": "uint256"
						},
						{
							"indexed": false,
							"internalType": "uint32",
							"name": "winnersCount",
							"type": "uint32"
						},
						{
							"indexed": false,
							"internalType": "uint96",
							"name": "perWinner",
							"type": "uint96"
						},
						{
							"indexed": false,
							"internalType": "uint96",
							"name": "remainder",
							"type": "uint96"
						}
					],
					"name": "WinnersFinalized",
					"type": "event"
				},
				{
					"inputs": [],
					"name": "NATIVE",
					"outputs": [
						{
							"internalType": "address",
							"name": "",
							"type": "address"
						}
					],
					"stateMutability": "view",
					"type": "function"
				},
				{
					"inputs": [
						{
							"internalType": "address",
							"name": "token",
							"type": "address"
						},
						{
							"internalType": "uint256",
							"name": "amount",
							"type": "uint256"
						},
						{
							"internalType": "uint64",
							"name": "startTime",
							"type": "uint64"
						},
						{
							"internalType": "uint64",
							"name": "endTime",
							"type": "uint64"
						},
						{
							"internalType": "uint32",
							"name": "maxWinners",
							"type": "uint32"
						}
					],
					"name": "createGiveaway",
					"outputs": [
						{
							"internalType": "uint256",
							"name": "id",
							"type": "uint256"
						}
					],
					"stateMutability": "payable",
					"type": "function"
				},
				{
					"inputs": [],
					"name": "eligibilityVerifier",
					"outputs": [
						{
							"internalType": "contract IEligibilityVerifier",
							"name": "",
							"type": "address"
						}
					],
					"stateMutability": "view",
					"type": "function"
				},
				{
					"inputs": [
						{
							"internalType": "uint256",
							"name": "id",
							"type": "uint256"
						}
					],
					"name": "enterGiveaway",
					"outputs": [],
					"stateMutability": "nonpayable",
					"type": "function"
				},
				{
					"inputs": [
						{
							"internalType": "uint256",
							"name": "",
							"type": "uint256"
						}
					],
					"name": "giveaways",
					"outputs": [
						{
							"internalType": "address",
							"name": "creator",
							"type": "address"
						},
						{
							"internalType": "address",
							"name": "token",
							"type": "address"
						},
						{
							"internalType": "uint256",
							"name": "totalAmount",
							"type": "uint256"
						},
						{
							"internalType": "uint64",
							"name": "startTime",
							"type": "uint64"
						},
						{
							"internalType": "uint64",
							"name": "endTime",
							"type": "uint64"
						},
						{
							"internalType": "uint32",
							"name": "maxWinners",
							"type": "uint32"
						},
						{
							"internalType": "bool",
							"name": "drawn",
							"type": "bool"
						},
						{
							"internalType": "bool",
							"name": "cancelled",
							"type": "bool"
						},
						{
							"internalType": "uint256",
							"name": "randomWord",
							"type": "uint256"
						},
						{
							"internalType": "uint32",
							"name": "winnersCount",
							"type": "uint32"
						},
						{
							"internalType": "uint32",
							"name": "claims",
							"type": "uint32"
						},
						{
							"internalType": "uint96",
							"name": "perWinner",
							"type": "uint96"
						},
						{
							"internalType": "uint96",
							"name": "remainder",
							"type": "uint96"
						}
					],
					"stateMutability": "view",
					"type": "function"
				},
				{
					"inputs": [
						{
							"internalType": "uint256",
							"name": "",
							"type": "uint256"
						},
						{
							"internalType": "address",
							"name": "",
							"type": "address"
						}
					],
					"name": "hasClaimed",
					"outputs": [
						{
							"internalType": "bool",
							"name": "",
							"type": "bool"
						}
					],
					"stateMutability": "view",
					"type": "function"
				},
				{
					"inputs": [
						{
							"internalType": "uint256",
							"name": "",
							"type": "uint256"
						},
						{
							"internalType": "address",
							"name": "",
							"type": "address"
						}
					],
					"name": "hasEntered",
					"outputs": [
						{
							"internalType": "bool",
							"name": "",
							"type": "bool"
						}
					],
					"stateMutability": "view",
					"type": "function"
				},
				{
					"inputs": [
						{
							"internalType": "uint256",
							"name": "",
							"type": "uint256"
						},
						{
							"internalType": "address",
							"name": "",
							"type": "address"
						}
					],
					"name": "isWinner",
					"outputs": [
						{
							"internalType": "bool",
							"name": "",
							"type": "bool"
						}
					],
					"stateMutability": "view",
					"type": "function"
				},
				{
					"inputs": [],
					"name": "nextGiveawayId",
					"outputs": [
						{
							"internalType": "uint256",
							"name": "",
							"type": "uint256"
						}
					],
					"stateMutability": "view",
					"type": "function"
				},
				{
					"inputs": [],
					"name": "owner",
					"outputs": [
						{
							"internalType": "address",
							"name": "",
							"type": "address"
						}
					],
					"stateMutability": "view",
					"type": "function"
				},
				{
					"inputs": [
						{
							"internalType": "uint256",
							"name": "",
							"type": "uint256"
						},
						{
							"internalType": "uint256",
							"name": "",
							"type": "uint256"
						}
					],
					"name": "participants",
					"outputs": [
						{
							"internalType": "address",
							"name": "",
							"type": "address"
						}
					],
					"stateMutability": "view",
					"type": "function"
				},
				{
					"inputs": [],
					"name": "randomnessProvider",
					"outputs": [
						{
							"internalType": "contract IRandomnessProvider",
							"name": "",
							"type": "address"
						}
					],
					"stateMutability": "view",
					"type": "function"
				},
				{
					"inputs": [],
					"name": "renounceOwnership",
					"outputs": [],
					"stateMutability": "nonpayable",
					"type": "function"
				},
				{
					"inputs": [
						{
							"internalType": "address",
							"name": "_v",
							"type": "address"
						}
					],
					"name": "setEligibilityVerifier",
					"outputs": [],
					"stateMutability": "nonpayable",
					"type": "function"
				},
				{
					"inputs": [
						{
							"internalType": "address",
							"name": "_p",
							"type": "address"
						}
					],
					"name": "setRandomnessProvider",
					"outputs": [],
					"stateMutability": "nonpayable",
					"type": "function"
				},
				{
					"inputs": [
						{
							"internalType": "address",
							"name": "newOwner",
							"type": "address"
						}
					],
					"name": "transferOwnership",
					"outputs": [],
					"stateMutability": "nonpayable",
					"type": "function"
				},
				{
					"inputs": [
						{
							"internalType": "uint256",
							"name": "",
							"type": "uint256"
						},
						{
							"internalType": "uint256",
							"name": "",
							"type": "uint256"
						}
					],
					"name": "winners",
					"outputs": [
						{
							"internalType": "address",
							"name": "",
							"type": "address"
						}
					],
					"stateMutability": "view",
					"type": "function"
				}
			],
			"devdoc": {
				"errors": {
					"OwnableInvalidOwner(address)": [
						{
							"details": "The owner is not a valid owner account. (eg. `address(0)`)"
						}
					],
					"OwnableUnauthorizedAccount(address)": [
						{
							"details": "The caller account is not authorized to perform an operation."
						}
					],
					"SafeERC20FailedOperation(address)": [
						{
							"details": "An operation with an ERC-20 token failed."
						}
					]
				},
				"kind": "dev",
				"methods": {
					"owner()": {
						"details": "Returns the address of the current owner."
					},
					"renounceOwnership()": {
						"details": "Leaves the contract without owner. It will not be possible to call `onlyOwner` functions. Can only be called by the current owner. NOTE: Renouncing ownership will leave the contract without an owner, thereby disabling any functionality that is only available to the owner."
					},
					"transferOwnership(address)": {
						"details": "Transfers ownership of the contract to a new account (`newOwner`). Can only be called by the current owner."
					}
				},
				"version": 1
			},
			"evm": {
				"assembly": "    /* \"src/Contract Architecture/P2P & Social Transfers/GiveawayManager.sol\":1512:7089  contract GiveawayManager is Ownable, ReentrancyGuard {... */\n  0x80\n  jumpi(tag_6, callvalue)\n  0x1f\n  bytecodeSize\n  codesize\n  dup2\n  swap1\n  sub\n  swap2\n  dup3\n  add\n  not(0x1f)\n  and\n  dup4\n  add\n  swap2\n  sub(shl(0x40, 0x01), 0x01)\n  dup4\n  gt\n  dup5\n  dup5\n  lt\n  or\n  tag_4\n  jumpi\n  dup1\n  dup5\n  swap3\n  0x40\n  swap5\n  dup6\n  mstore\n  dup4\n  codecopy\n  dup2\n  add\n  sub\n  slt\n  tag_6\n  jumpi\n  tag_8\n  0x20\n  tag_9\n  dup4\n  tag_1\n  jump\t// in\ntag_9:\n  swap3\n  add\n  tag_1\n  jump\t// in\ntag_8:\n    /* \"src/Contract Architecture/P2P & Social Transfers/GiveawayManager.sol\":4072:4082  msg.sender */\n  caller\n    /* \"@openzeppelin/contracts/access/Ownable.sol\":1273:1299  initialOwner == address(0) */\n  iszero\n    /* \"@openzeppelin/contracts/access/Ownable.sol\":1269:1364  if (initialOwner == address(0)) {... */\n  tag_10\n  jumpi\n  0x00\n    /* \"src/Contract Architecture/P2P & Social Transfers/GiveawayManager.sol\":1512:7089  contract GiveawayManager is Ownable, ReentrancyGuard {... */\n  dup1\n  sload\n    /* \"src/Contract Architecture/P2P & Social Transfers/GiveawayManager.sol\":4072:4082  msg.sender */\n  caller\n  not(sub(shl(0xa0, 0x01), 0x01))\n    /* \"src/Contract Architecture/P2P & Social Transfers/GiveawayManager.sol\":1512:7089  contract GiveawayManager is Ownable, ReentrancyGuard {... */\n  dup3\n  and\n  dup2\n  or\n  dup4\n  sstore\n  mload(0x40)\n  swap5\n  swap3\n    /* \"src/Contract Architecture/P2P & Social Transfers/GiveawayManager.sol\":4072:4082  msg.sender */\n  swap1\n  swap2\n  sub(shl(0xa0, 0x01), 0x01)\n    /* \"src/Contract Architecture/P2P & Social Transfers/GiveawayManager.sol\":1512:7089  contract GiveawayManager is Ownable, ReentrancyGuard {... */\n  and\n  swap1\n    /* \"@openzeppelin/contracts/access/Ownable.sol\":3052:3092  OwnershipTransferred(oldOwner, newOwner) */\n  0x8be0079c531659141344cd1fd0a4f28419497f9722a3daafe3b4186f6b6457e0\n  swap1\n  dup1\n  log3\n    /* \"@openzeppelin/contracts/security/ReentrancyGuard.sol\":1716:1717  1 */\n  0x01\n  dup1\n  sstore\n  sub(shl(0xa0, 0x01), 0x01)\n    /* \"src/Contract Architecture/P2P & Social Transfers/GiveawayManager.sol\":1512:7089  contract GiveawayManager is Ownable, ReentrancyGuard {... */\n  and\n  dup1\n    /* \"src/Contract Architecture/P2P & Social Transfers/GiveawayManager.sol\":4094:4284  if (_randomnessProvider != address(0)) {... */\n  tag_12\n  jumpi\ntag_13:\n  pop\n  sub(shl(0xa0, 0x01), 0x01)\n    /* \"src/Contract Architecture/P2P & Social Transfers/GiveawayManager.sol\":1512:7089  contract GiveawayManager is Ownable, ReentrancyGuard {... */\n  and\n  dup1\n    /* \"src/Contract Architecture/P2P & Social Transfers/GiveawayManager.sol\":4293:4489  if (_eligibilityVerifier != address(0)) {... */\n  tag_14\n  jumpi\ntag_15:\n    /* \"src/Contract Architecture/P2P & Social Transfers/GiveawayManager.sol\":1512:7089  contract GiveawayManager is Ownable, ReentrancyGuard {... */\n  pop\n  dataSize(sub_0)\n  swap1\n  dup2\n  dataOffset(sub_0)\n  dup3\n  codecopy\n  return\n    /* \"src/Contract Architecture/P2P & Social Transfers/GiveawayManager.sol\":4293:4489  if (_eligibilityVerifier != address(0)) {... */\ntag_14:\n    /* \"src/Contract Architecture/P2P & Social Transfers/GiveawayManager.sol\":4347:4411  eligibilityVerifier = IEligibilityVerifier(_eligibilityVerifier) */\n  0x03\n    /* \"src/Contract Architecture/P2P & Social Transfers/GiveawayManager.sol\":1512:7089  contract GiveawayManager is Ownable, ReentrancyGuard {... */\n  dup1\n  sload\n  not(sub(shl(0xa0, 0x01), 0x01))\n  and\n  dup3\n  or\n  swap1\n  sstore\n    /* \"src/Contract Architecture/P2P & Social Transfers/GiveawayManager.sol\":4430:4478  EligibilityVerifierUpdated(_eligibilityVerifier) */\n  0x523584dd19b074bf12112a06b4ccfc2c91696564a12a6d76cdaa62c87da72868\n  0x00\n  dup1\n  log2\n    /* \"src/Contract Architecture/P2P & Social Transfers/GiveawayManager.sol\":4293:4489  if (_eligibilityVerifier != address(0)) {... */\n  0x00\n  jump(tag_15)\n    /* \"src/Contract Architecture/P2P & Social Transfers/GiveawayManager.sol\":4094:4284  if (_randomnessProvider != address(0)) {... */\ntag_12:\n    /* \"src/Contract Architecture/P2P & Social Transfers/GiveawayManager.sol\":4147:4208  randomnessProvider = IRandomnessProvider(_randomnessProvider) */\n  0x02\n    /* \"src/Contract Architecture/P2P & Social Transfers/GiveawayManager.sol\":1512:7089  contract GiveawayManager is Ownable, ReentrancyGuard {... */\n  dup1\n  sload\n  not(sub(shl(0xa0, 0x01), 0x01))\n  and\n  dup3\n  or\n  swap1\n  sstore\n    /* \"src/Contract Architecture/P2P & Social Transfers/GiveawayManager.sol\":4227:4273  RandomnessProviderUpdated(_randomnessProvider) */\n  0x87b050f471f7331bfd8fc9347cd54894f2ae6663e3339e49ca0d8b2dbe792eb2\n  0x00\n  dup1\n  log2\n    /* \"src/Contract Architecture/P2P & Social Transfers/GiveawayManager.sol\":4094:4284  if (_randomnessProvider != address(0)) {... */\n  0x00\n  jump(tag_13)\n    /* \"@openzeppelin/contracts/access/Ownable.sol\":1269:1364  if (initialOwner == address(0)) {... */\ntag_10:\n    /* \"@openzeppelin/contracts/access/Ownable.sol\":1322:1353  OwnableInvalidOwner(address(0)) */\n  mstore(0x00, shl(0xe0, 0x1e4fbdf7))\n  0x00\n  0x04\n    /* \"src/Contract Architecture/P2P & Social Transfers/GiveawayManager.sol\":1512:7089  contract GiveawayManager is Ownable, ReentrancyGuard {... */\n  mstore\n  0x24\n  0x00\n    /* \"@openzeppelin/contracts/access/Ownable.sol\":1322:1353  OwnableInvalidOwner(address(0)) */\n  revert\n    /* \"src/Contract Architecture/P2P & Social Transfers/GiveawayManager.sol\":1512:7089  contract GiveawayManager is Ownable, ReentrancyGuard {... */\ntag_6:\n  0x00\n  dup1\n  revert\ntag_4:\n  mstore(0x00, shl(0xe0, 0x4e487b71))\n  mstore(0x04, 0x41)\n  revert(0x00, 0x24)\ntag_1:\n  mload\n  swap1\n  sub(shl(0xa0, 0x01), 0x01)\n  dup3\n  and\n  dup3\n  sub\n  tag_6\n  jumpi\n  jump\t// out\nstop\n\nsub_0: assembly {\n        /* \"src/Contract Architecture/P2P & Social Transfers/GiveawayManager.sol\":1512:7089  contract GiveawayManager is Ownable, ReentrancyGuard {... */\n      mstore(0x40, 0x80)\n      jumpi(tag_8, iszero(lt(calldatasize, 0x04)))\n      0x00\n      dup1\n      revert\n    tag_8:\n      shr(0xe0, calldataload(0x00))\n      dup1\n      0x073c74f3\n      eq\n      tag_10\n      jumpi\n      dup1\n      0x0efc8865\n      eq\n      tag_12\n      jumpi\n      dup1\n      0x193f453e\n      eq\n      tag_14\n      jumpi\n      dup1\n      0x2e1352c3\n      eq\n      tag_16\n      jumpi\n      dup1\n      0x3e06df3d\n      eq\n      tag_18\n      jumpi\n      dup1\n      0x6ac56ac0\n      eq\n      tag_20\n      jumpi\n      dup1\n      0x715018a6\n      eq\n      tag_22\n      jumpi\n      dup1\n      0x81fb1fb4\n      eq\n      tag_24\n      jumpi\n      dup1\n      0x873f6f9e\n      eq\n      tag_26\n      jumpi\n      dup1\n      0x8da5cb5b\n      eq\n      tag_28\n      jumpi\n      dup1\n      0xa0cf0aea\n      eq\n      tag_30\n      jumpi\n      dup1\n      0xa14ea2b8\n      eq\n      tag_32\n      jumpi\n      dup1\n      0xb15fbc14\n      eq\n      tag_34\n      jumpi\n      dup1\n      0xbdd415af\n      eq\n      tag_36\n      jumpi\n      dup1\n      0xce9bf5ac\n      eq\n      tag_38\n      jumpi\n      dup1\n      0xe6414e37\n      eq\n      tag_40\n      jumpi\n      0xf2fde38b\n      eq\n      tag_42\n      jumpi\n      0x00\n      dup1\n      revert\n    tag_42:\n      jumpi(tag_46, callvalue)\n      jumpi(tag_46, slt(add(not(0x03), calldatasize), 0x20))\n      tag_48\n      tag_2\n      jump\t// in\n    tag_48:\n        /* \"@openzeppelin/contracts/access/Ownable.sol\":1500:1562  modifier onlyOwner() {... */\n      tag_49\n      tag_7\n      jump\t// in\n    tag_49:\n      sub(shl(0xa0, 0x01), 0x01)\n        /* \"src/Contract Architecture/P2P & Social Transfers/GiveawayManager.sol\":1512:7089  contract GiveawayManager is Ownable, ReentrancyGuard {... */\n      and\n        /* \"@openzeppelin/contracts/access/Ownable.sol\":2627:2649  newOwner == address(0) */\n      dup1\n      iszero\n        /* \"@openzeppelin/contracts/access/Ownable.sol\":2623:2714  if (newOwner == address(0)) {... */\n      tag_50\n      jumpi\n        /* \"src/Contract Architecture/P2P & Social Transfers/GiveawayManager.sol\":1512:7089  contract GiveawayManager is Ownable, ReentrancyGuard {... */\n      0x00\n      dup1\n      sload\n      not(sub(shl(0xa0, 0x01), 0x01))\n      dup2\n      and\n      dup4\n      or\n      dup3\n      sstore\n      sub(shl(0xa0, 0x01), 0x01)\n      and\n      swap1\n        /* \"@openzeppelin/contracts/access/Ownable.sol\":3052:3092  OwnershipTransferred(oldOwner, newOwner) */\n      0x8be0079c531659141344cd1fd0a4f28419497f9722a3daafe3b4186f6b6457e0\n      swap1\n        /* \"src/Contract Architecture/P2P & Social Transfers/GiveawayManager.sol\":1512:7089  contract GiveawayManager is Ownable, ReentrancyGuard {... */\n      dup1\n        /* \"@openzeppelin/contracts/access/Ownable.sol\":3052:3092  OwnershipTransferred(oldOwner, newOwner) */\n      log3\n        /* \"src/Contract Architecture/P2P & Social Transfers/GiveawayManager.sol\":1512:7089  contract GiveawayManager is Ownable, ReentrancyGuard {... */\n      stop\n        /* \"@openzeppelin/contracts/access/Ownable.sol\":2623:2714  if (newOwner == address(0)) {... */\n    tag_50:\n        /* \"@openzeppelin/contracts/access/Ownable.sol\":2672:2703  OwnableInvalidOwner(address(0)) */\n      shl(0xe0, 0x1e4fbdf7)\n        /* \"src/Contract Architecture/P2P & Social Transfers/GiveawayManager.sol\":1512:7089  contract GiveawayManager is Ownable, ReentrancyGuard {... */\n      0x00\n        /* \"@openzeppelin/contracts/access/Ownable.sol\":2672:2703  OwnableInvalidOwner(address(0)) */\n      mstore\n        /* \"src/Contract Architecture/P2P & Social Transfers/GiveawayManager.sol\":1512:7089  contract GiveawayManager is Ownable, ReentrancyGuard {... */\n      mstore(0x04, 0x00)\n      0x24\n      0x00\n        /* \"@openzeppelin/contracts/access/Ownable.sol\":2672:2703  OwnableInvalidOwner(address(0)) */\n      revert\n        /* \"src/Contract Architecture/P2P & Social Transfers/GiveawayManager.sol\":1512:7089  contract GiveawayManager is Ownable, ReentrancyGuard {... */\n    tag_46:\n      0x00\n      dup1\n      revert\n    tag_40:\n      jumpi(tag_46, callvalue)\n      jumpi(tag_46, slt(add(not(0x03), calldatasize), 0x20))\n      tag_56\n      tag_2\n      jump\t// in\n    tag_56:\n        /* \"@openzeppelin/contracts/access/Ownable.sol\":1500:1562  modifier onlyOwner() {... */\n      tag_57\n      tag_7\n      jump\t// in\n    tag_57:\n        /* \"src/Contract Architecture/P2P & Social Transfers/GiveawayManager.sol\":4776:4822  eligibilityVerifier = IEligibilityVerifier(_v) */\n      0x03\n        /* \"src/Contract Architecture/P2P & Social Transfers/GiveawayManager.sol\":1512:7089  contract GiveawayManager is Ownable, ReentrancyGuard {... */\n      dup1\n      sload\n      not(sub(shl(0xa0, 0x01), 0x01))\n      and\n      sub(shl(0xa0, 0x01), 0x01)\n      swap3\n      swap1\n      swap3\n      and\n      swap2\n      dup3\n      or\n      swap1\n      sstore\n        /* \"src/Contract Architecture/P2P & Social Transfers/GiveawayManager.sol\":4837:4867  EligibilityVerifierUpdated(_v) */\n      0x523584dd19b074bf12112a06b4ccfc2c91696564a12a6d76cdaa62c87da72868\n      0x00\n      dup1\n      log2\n        /* \"src/Contract Architecture/P2P & Social Transfers/GiveawayManager.sol\":1512:7089  contract GiveawayManager is Ownable, ReentrancyGuard {... */\n      stop\n    tag_38:\n      jumpi(tag_46, callvalue)\n      jumpi(tag_46, slt(add(not(0x03), calldatasize), 0x00))\n        /* \"src/Contract Architecture/P2P & Social Transfers/GiveawayManager.sol\":1684:1729  IRandomnessProvider public randomnessProvider */\n      0x02\n        /* \"src/Contract Architecture/P2P & Social Transfers/GiveawayManager.sol\":1512:7089  contract GiveawayManager is Ownable, ReentrancyGuard {... */\n      sload\n      mload(0x40)\n      sub(shl(0xa0, 0x01), 0x01)\n      swap1\n      swap2\n      and\n      dup2\n      mstore\n      0x20\n      swap1\n      return\n    tag_36:\n      jumpi(tag_46, callvalue)\n      jumpi(tag_46, slt(add(not(0x03), calldatasize), 0x40))\n      tag_66\n      tag_1\n      jump\t// in\n    tag_66:\n      mstore(0x00, calldataload(0x04))\n        /* \"src/Contract Architecture/P2P & Social Transfers/GiveawayManager.sol\":3104:3164  mapping(uint256 => mapping(address => bool)) public isWinner */\n      0x09\n        /* \"src/Contract Architecture/P2P & Social Transfers/GiveawayManager.sol\":1512:7089  contract GiveawayManager is Ownable, ReentrancyGuard {... */\n      0x20\n      mstore\n      keccak256(0x00, 0x40)\n        /* \"src/Contract Architecture/P2P & Social Transfers/GiveawayManager.sol\":3104:3164  mapping(uint256 => mapping(address => bool)) public isWinner */\n      swap1\n        /* \"src/Contract Architecture/P2P & Social Transfers/GiveawayManager.sol\":1512:7089  contract GiveawayManager is Ownable, ReentrancyGuard {... */\n      0x01\n      dup1\n      0xa0\n      shl\n      sub\n      and\n      0x00\n      mstore\n      0x20\n      mstore\n      0x20\n      and(sload(keccak256(0x00, 0x40)), 0xff)\n      mload(0x40)\n      swap1\n      iszero\n      iszero\n      dup2\n      mstore\n      return\n    tag_34:\n      jumpi(tag_46, callvalue)\n      jumpi(tag_46, slt(add(not(0x03), calldatasize), 0x20))\n      tag_71\n      tag_2\n      jump\t// in\n    tag_71:\n        /* \"@openzeppelin/contracts/access/Ownable.sol\":1500:1562  modifier onlyOwner() {... */\n      tag_72\n      tag_7\n      jump\t// in\n    tag_72:\n        /* \"src/Contract Architecture/P2P & Social Transfers/GiveawayManager.sol\":4602:4646  randomnessProvider = IRandomnessProvider(_p) */\n      0x02\n        /* \"src/Contract Architecture/P2P & Social Transfers/GiveawayManager.sol\":1512:7089  contract GiveawayManager is Ownable, ReentrancyGuard {... */\n      dup1\n      sload\n      not(sub(shl(0xa0, 0x01), 0x01))\n      and\n      sub(shl(0xa0, 0x01), 0x01)\n      swap3\n      swap1\n      swap3\n      and\n      swap2\n      dup3\n      or\n      swap1\n      sstore\n        /* \"src/Contract Architecture/P2P & Social Transfers/GiveawayManager.sol\":4661:4690  RandomnessProviderUpdated(_p) */\n      0x87b050f471f7331bfd8fc9347cd54894f2ae6663e3339e49ca0d8b2dbe792eb2\n      0x00\n      dup1\n      log2\n        /* \"src/Contract Architecture/P2P & Social Transfers/GiveawayManager.sol\":1512:7089  contract GiveawayManager is Ownable, ReentrancyGuard {... */\n      stop\n    tag_32:\n      jumpi(tag_46, callvalue)\n      jumpi(tag_46, slt(add(not(0x03), calldatasize), 0x00))\n        /* \"src/Contract Architecture/P2P & Social Transfers/GiveawayManager.sol\":1771:1818  IEligibilityVerifier public eligibilityVerifier */\n      0x03\n        /* \"src/Contract Architecture/P2P & Social Transfers/GiveawayManager.sol\":1512:7089  contract GiveawayManager is Ownable, ReentrancyGuard {... */\n      sload\n      mload(0x40)\n      sub(shl(0xa0, 0x01), 0x01)\n      swap1\n      swap2\n      and\n      dup2\n      mstore\n      0x20\n      swap1\n      return\n    tag_30:\n      jumpi(tag_46, callvalue)\n      jumpi(tag_46, slt(add(not(0x03), calldatasize), 0x00))\n      0x20\n      mload(0x40)\n      0x00\n      dup2\n      mstore\n      return\n    tag_28:\n      jumpi(tag_46, callvalue)\n      jumpi(tag_46, slt(add(not(0x03), calldatasize), 0x00))\n      sload(0x00)\n      mload(0x40)\n      sub(shl(0xa0, 0x01), 0x01)\n      swap1\n      swap2\n      and\n      dup2\n      mstore\n      0x20\n      swap1\n      return\n    tag_26:\n      jumpi(tag_46, callvalue)\n      jumpi(tag_46, slt(add(not(0x03), calldatasize), 0x40))\n      tag_89\n      tag_1\n      jump\t// in\n    tag_89:\n      mstore(0x00, calldataload(0x04))\n        /* \"src/Contract Architecture/P2P & Social Transfers/GiveawayManager.sol\":3170:3232  mapping(uint256 => mapping(address => bool)) public hasClaimed */\n      0x0a\n        /* \"src/Contract Architecture/P2P & Social Transfers/GiveawayManager.sol\":1512:7089  contract GiveawayManager is Ownable, ReentrancyGuard {... */\n      0x20\n      mstore\n      keccak256(0x00, 0x40)\n        /* \"src/Contract Architecture/P2P & Social Transfers/GiveawayManager.sol\":3170:3232  mapping(uint256 => mapping(address => bool)) public hasClaimed */\n      swap1\n        /* \"src/Contract Architecture/P2P & Social Transfers/GiveawayManager.sol\":1512:7089  contract GiveawayManager is Ownable, ReentrancyGuard {... */\n      0x01\n      dup1\n      0xa0\n      shl\n      sub\n      and\n      0x00\n      mstore\n      0x20\n      mstore\n      0x20\n      and(sload(keccak256(0x00, 0x40)), 0xff)\n      mload(0x40)\n      swap1\n      iszero\n      iszero\n      dup2\n      mstore\n      return\n    tag_24:\n      jumpi(tag_46, callvalue)\n      tag_92\n      calldatasize\n      tag_3\n      jump\t// in\n    tag_92:\n      swap1\n      0x00\n      mstore\n        /* \"src/Contract Architecture/P2P & Social Transfers/GiveawayManager.sol\":2896:2945  mapping(uint256 => address[]) public participants */\n      0x06\n        /* \"src/Contract Architecture/P2P & Social Transfers/GiveawayManager.sol\":1512:7089  contract GiveawayManager is Ownable, ReentrancyGuard {... */\n      0x20\n      mstore\n      keccak256(0x00, 0x40)\n      dup1\n      sload\n        /* \"src/Contract Architecture/P2P & Social Transfers/GiveawayManager.sol\":2896:2945  mapping(uint256 => address[]) public participants */\n      dup3\n      lt\n      iszero\n      tag_46\n      jumpi\n        /* \"src/Contract Architecture/P2P & Social Transfers/GiveawayManager.sol\":1512:7089  contract GiveawayManager is Ownable, ReentrancyGuard {... */\n      0x20\n        /* \"src/Contract Architecture/P2P & Social Transfers/GiveawayManager.sol\":2896:2945  mapping(uint256 => address[]) public participants */\n      swap2\n      tag_95\n      swap2\n      tag_4\n      jump\t// in\n    tag_95:\n        /* \"src/Contract Architecture/P2P & Social Transfers/GiveawayManager.sol\":1512:7089  contract GiveawayManager is Ownable, ReentrancyGuard {... */\n      swap1\n      sload\n      mload(0x40)\n      0x03\n      swap3\n      swap1\n      swap3\n      shl\n      shr\n      sub(shl(0xa0, 0x01), 0x01)\n      and\n      dup2\n      mstore\n      return\n    tag_22:\n      jumpi(tag_46, callvalue)\n      jumpi(tag_46, slt(add(not(0x03), calldatasize), 0x00))\n        /* \"@openzeppelin/contracts/access/Ownable.sol\":1500:1562  modifier onlyOwner() {... */\n      tag_100\n      tag_7\n      jump\t// in\n    tag_100:\n        /* \"src/Contract Architecture/P2P & Social Transfers/GiveawayManager.sol\":1512:7089  contract GiveawayManager is Ownable, ReentrancyGuard {... */\n      0x00\n      dup1\n      sload\n      not(sub(shl(0xa0, 0x01), 0x01))\n      dup2\n      and\n      dup3\n      sstore\n      sub(shl(0xa0, 0x01), 0x01)\n      and\n        /* \"@openzeppelin/contracts/access/Ownable.sol\":3052:3092  OwnershipTransferred(oldOwner, newOwner) */\n      0x8be0079c531659141344cd1fd0a4f28419497f9722a3daafe3b4186f6b6457e0\n        /* \"src/Contract Architecture/P2P & Social Transfers/GiveawayManager.sol\":1512:7089  contract GiveawayManager is Ownable, ReentrancyGuard {... */\n      dup3\n      dup1\n        /* \"@openzeppelin/contracts/access/Ownable.sol\":3052:3092  OwnershipTransferred(oldOwner, newOwner) */\n      log3\n        /* \"src/Contract Architecture/P2P & Social Transfers/GiveawayManager.sol\":1512:7089  contract GiveawayManager is Ownable, ReentrancyGuard {... */\n      stop\n    tag_20:\n      jumpi(tag_46, callvalue)\n      jumpi(tag_46, slt(add(not(0x03), calldatasize), 0x00))\n      0x20\n      sload(0x04)\n      mload(0x40)\n      swap1\n      dup2\n      mstore\n      return\n    tag_18:\n      jumpi(tag_46, callvalue)\n      jumpi(tag_46, slt(add(not(0x03), calldatasize), 0x20))\n      mstore(0x00, calldataload(0x04))\n        /* \"src/Contract Architecture/P2P & Social Transfers/GiveawayManager.sol\":2824:2869  mapping(uint256 => Giveaway) public giveaways */\n      0x05\n        /* \"src/Contract Architecture/P2P & Social Transfers/GiveawayManager.sol\":1512:7089  contract GiveawayManager is Ownable, ReentrancyGuard {... */\n      0x20\n      mstore\n      0x01a0\n      keccak256(0x00, 0x40)\n      0x01\n      dup1\n      0xa0\n      shl\n      sub\n      dup2\n      sload\n      and\n      swap1\n      0x01\n      dup1\n      0xa0\n      shl\n      sub\n      0x01\n        /* \"src/Contract Architecture/P2P & Social Transfers/GiveawayManager.sol\":2824:2869  mapping(uint256 => Giveaway) public giveaways */\n      dup3\n      add\n        /* \"src/Contract Architecture/P2P & Social Transfers/GiveawayManager.sol\":1512:7089  contract GiveawayManager is Ownable, ReentrancyGuard {... */\n      sload\n      and\n        /* \"src/Contract Architecture/P2P & Social Transfers/GiveawayManager.sol\":2824:2869  mapping(uint256 => Giveaway) public giveaways */\n      swap1\n        /* \"src/Contract Architecture/P2P & Social Transfers/GiveawayManager.sol\":1512:7089  contract GiveawayManager is Ownable, ReentrancyGuard {... */\n      0xff\n        /* \"src/Contract Architecture/P2P & Social Transfers/GiveawayManager.sol\":2824:2869  mapping(uint256 => Giveaway) public giveaways */\n      0x02\n      dup3\n      add\n        /* \"src/Contract Architecture/P2P & Social Transfers/GiveawayManager.sol\":1512:7089  contract GiveawayManager is Ownable, ReentrancyGuard {... */\n      sload\n        /* \"src/Contract Architecture/P2P & Social Transfers/GiveawayManager.sol\":2824:2869  mapping(uint256 => Giveaway) public giveaways */\n      0x03\n      dup4\n      add\n        /* \"src/Contract Architecture/P2P & Social Transfers/GiveawayManager.sol\":1512:7089  contract GiveawayManager is Ownable, ReentrancyGuard {... */\n      sload\n        /* \"src/Contract Architecture/P2P & Social Transfers/GiveawayManager.sol\":2824:2869  mapping(uint256 => Giveaway) public giveaways */\n      swap1\n      0x05\n        /* \"src/Contract Architecture/P2P & Social Transfers/GiveawayManager.sol\":1512:7089  contract GiveawayManager is Ownable, ReentrancyGuard {... */\n      0x04\n        /* \"src/Contract Architecture/P2P & Social Transfers/GiveawayManager.sol\":2824:2869  mapping(uint256 => Giveaway) public giveaways */\n      dup6\n      add\n        /* \"src/Contract Architecture/P2P & Social Transfers/GiveawayManager.sol\":1512:7089  contract GiveawayManager is Ownable, ReentrancyGuard {... */\n      sload\n        /* \"src/Contract Architecture/P2P & Social Transfers/GiveawayManager.sol\":2824:2869  mapping(uint256 => Giveaway) public giveaways */\n      swap5\n      add\n        /* \"src/Contract Architecture/P2P & Social Transfers/GiveawayManager.sol\":1512:7089  contract GiveawayManager is Ownable, ReentrancyGuard {... */\n      sload\n      swap5\n      mload(0x40)\n      swap7\n      dup8\n      mstore\n      0x20\n      dup8\n      add\n      mstore\n      0x40\n      dup7\n      add\n      mstore\n      sub(shl(0x40, 0x01), 0x01)\n      dup2\n      and\n      0x60\n      dup7\n      add\n      mstore\n      sub(shl(0x40, 0x01), 0x01)\n      dup2\n      0x40\n      shr\n      and\n      0x80\n      dup7\n      add\n      mstore\n      0xffffffff\n      dup2\n      0x80\n      shr\n      and\n      0xa0\n      dup7\n      add\n      mstore\n      dup2\n      dup2\n      0xa0\n      shr\n      and\n      iszero\n      iszero\n      0xc0\n      dup7\n      add\n      mstore\n      0xa8\n      shr\n      and\n      iszero\n      iszero\n      0xe0\n      dup5\n      add\n      mstore\n      0x0100\n      dup4\n      add\n      mstore\n      0xffffffff\n      dup2\n      and\n      0x0120\n      dup4\n      add\n      mstore\n      0xffffffff\n      dup2\n      0x20\n      shr\n      and\n      0x0140\n      dup4\n      add\n      mstore\n      sub(shl(0x60, 0x01), 0x01)\n      dup2\n      0x40\n      shr\n      and\n      0x0160\n      dup4\n      add\n      mstore\n      0xa0\n      shr\n      0x0180\n      dup3\n      add\n      mstore\n      return\n    tag_16:\n      jumpi(tag_46, slt(add(not(0x03), calldatasize), 0xa0))\n      tag_111\n      tag_2\n      jump\t// in\n    tag_111:\n      calldataload(0x24)\n      calldataload(0x44)\n      sub(shl(0x40, 0x01), 0x01)\n      dup2\n      and\n      swap2\n      dup3\n      dup3\n      sub\n      tag_46\n      jumpi\n      calldataload(0x64)\n      swap4\n      sub(shl(0x40, 0x01), 0x01)\n      dup6\n      and\n      dup1\n      swap6\n      sub\n      tag_46\n      jumpi\n      calldataload(0x84)\n      swap3\n      0xffffffff\n      dup5\n      and\n      dup1\n      swap5\n      sub\n      tag_46\n      jumpi\n        /* \"src/Contract Architecture/P2P & Social Transfers/GiveawayManager.sol\":5251:5261  amount > 0 */\n      swap4\n      dup3\n      iszero\n        /* \"src/Contract Architecture/P2P & Social Transfers/GiveawayManager.sol\":1512:7089  contract GiveawayManager is Ownable, ReentrancyGuard {... */\n      tag_118\n      jumpi\n      0x01\n        /* \"src/Contract Architecture/P2P & Social Transfers/GiveawayManager.sol\":5292:5307  maxWinners >= 1 */\n      dup5\n      lt\n        /* \"src/Contract Architecture/P2P & Social Transfers/GiveawayManager.sol\":1512:7089  contract GiveawayManager is Ownable, ReentrancyGuard {... */\n      tag_120\n      jumpi\n        /* \"src/Contract Architecture/P2P & Social Transfers/GiveawayManager.sol\":5339:5351  endTime == 0 */\n      dup6\n      iszero\n        /* \"src/Contract Architecture/P2P & Social Transfers/GiveawayManager.sol\":5339:5374  endTime == 0 || endTime > startTime */\n      dup1\n      iszero\n      tag_122\n      jumpi\n        /* \"src/Contract Architecture/P2P & Social Transfers/GiveawayManager.sol\":1512:7089  contract GiveawayManager is Ownable, ReentrancyGuard {... */\n    tag_123:\n      iszero\n      tag_124\n      jumpi\n        /* \"src/Contract Architecture/P2P & Social Transfers/GiveawayManager.sol\":5397:5411  startTime == 0 */\n      iszero\n        /* \"src/Contract Architecture/P2P & Social Transfers/GiveawayManager.sol\":5393:5448  if (startTime == 0) startTime = uint64(block.timestamp) */\n      tag_126\n      jumpi\n        /* \"src/Contract Architecture/P2P & Social Transfers/GiveawayManager.sol\":1512:7089  contract GiveawayManager is Ownable, ReentrancyGuard {... */\n    tag_127:\n      sub(shl(0xa0, 0x01), 0x01)\n      and\n      swap2\n        /* \"src/Contract Architecture/P2P & Social Transfers/GiveawayManager.sol\":5485:5500  token == NATIVE */\n      dup3\n        /* \"src/Contract Architecture/P2P & Social Transfers/GiveawayManager.sol\":1512:7089  contract GiveawayManager is Ownable, ReentrancyGuard {... */\n      tag_128\n      jumpi\n        /* \"src/Contract Architecture/P2P & Social Transfers/GiveawayManager.sol\":5524:5533  msg.value */\n      dup2\n      callvalue\n        /* \"src/Contract Architecture/P2P & Social Transfers/GiveawayManager.sol\":5524:5543  msg.value == amount */\n      sub\n        /* \"src/Contract Architecture/P2P & Social Transfers/GiveawayManager.sol\":1512:7089  contract GiveawayManager is Ownable, ReentrancyGuard {... */\n      tag_130\n      jumpi\n        /* \"src/Contract Architecture/P2P & Social Transfers/GiveawayManager.sol\":5481:5711  if (token == NATIVE) {... */\n    tag_132:\n        /* \"src/Contract Architecture/P2P & Social Transfers/GiveawayManager.sol\":1512:7089  contract GiveawayManager is Ownable, ReentrancyGuard {... */\n      sload(0x04)\n      swap5\n      not(0x00)\n      dup7\n      eq\n      tag_133\n      jumpi\n      0x01\n      0x20\n      swap7\n      add\n      swap5\n      dup6\n      0x04\n      sstore\n      0x00\n      dup1\n      dup1\n      dup9\n      0xffffffff\n        /* \"src/Contract Architecture/P2P & Social Transfers/GiveawayManager.sol\":5752:5761  giveaways */\n      0x05\n        /* \"src/Contract Architecture/P2P & Social Transfers/GiveawayManager.sol\":1512:7089  contract GiveawayManager is Ownable, ReentrancyGuard {... */\n      mload(0x40)\n      tag_135\n      dup2\n      tag_5\n      jump\t// in\n    tag_135:\n        /* \"src/Contract Architecture/P2P & Social Transfers/GiveawayManager.sol\":5800:5810  msg.sender */\n      caller\n        /* \"src/Contract Architecture/P2P & Social Transfers/GiveawayManager.sol\":1512:7089  contract GiveawayManager is Ownable, ReentrancyGuard {... */\n      dup2\n      mstore\n        /* \"src/Contract Architecture/P2P & Social Transfers/GiveawayManager.sol\":5768:6167  Giveaway({... */\n      dup14\n      dup2\n      add\n        /* \"src/Contract Architecture/P2P & Social Transfers/GiveawayManager.sol\":1512:7089  contract GiveawayManager is Ownable, ReentrancyGuard {... */\n      dup13\n      dup2\n      mstore\n      0x40\n        /* \"src/Contract Architecture/P2P & Social Transfers/GiveawayManager.sol\":5768:6167  Giveaway({... */\n      dup3\n      add\n        /* \"src/Contract Architecture/P2P & Social Transfers/GiveawayManager.sol\":1512:7089  contract GiveawayManager is Ownable, ReentrancyGuard {... */\n      swap9\n      dup13\n      dup11\n      mstore\n      sub(shl(0x40, 0x01), 0x01)\n      0x60\n        /* \"src/Contract Architecture/P2P & Social Transfers/GiveawayManager.sol\":5768:6167  Giveaway({... */\n      dup5\n      add\n        /* \"src/Contract Architecture/P2P & Social Transfers/GiveawayManager.sol\":1512:7089  contract GiveawayManager is Ownable, ReentrancyGuard {... */\n      swap2\n      and\n      swap10\n      dup11\n      dup3\n      mstore\n      0x80\n        /* \"src/Contract Architecture/P2P & Social Transfers/GiveawayManager.sol\":5768:6167  Giveaway({... */\n      dup5\n      add\n        /* \"src/Contract Architecture/P2P & Social Transfers/GiveawayManager.sol\":1512:7089  contract GiveawayManager is Ownable, ReentrancyGuard {... */\n      swap1\n      dup13\n      dup3\n      mstore\n        /* \"src/Contract Architecture/P2P & Social Transfers/GiveawayManager.sol\":5768:6167  Giveaway({... */\n      dup14\n        /* \"src/Contract Architecture/P2P & Social Transfers/GiveawayManager.sol\":1512:7089  contract GiveawayManager is Ownable, ReentrancyGuard {... */\n      0xa0\n        /* \"src/Contract Architecture/P2P & Social Transfers/GiveawayManager.sol\":5768:6167  Giveaway({... */\n      dup7\n      add\n        /* \"src/Contract Architecture/P2P & Social Transfers/GiveawayManager.sol\":1512:7089  contract GiveawayManager is Ownable, ReentrancyGuard {... */\n      swap1\n      dup2\n      mstore\n        /* \"src/Contract Architecture/P2P & Social Transfers/GiveawayManager.sol\":5768:6167  Giveaway({... */\n      0xc0\n      dup7\n      add\n        /* \"src/Contract Architecture/P2P & Social Transfers/GiveawayManager.sol\":1512:7089  contract GiveawayManager is Ownable, ReentrancyGuard {... */\n      swap1\n      dup11\n      dup3\n      mstore\n      0xe0\n        /* \"src/Contract Architecture/P2P & Social Transfers/GiveawayManager.sol\":5768:6167  Giveaway({... */\n      dup8\n      add\n        /* \"src/Contract Architecture/P2P & Social Transfers/GiveawayManager.sol\":1512:7089  contract GiveawayManager is Ownable, ReentrancyGuard {... */\n      swap3\n      dup12\n      dup5\n      mstore\n        /* \"src/Contract Architecture/P2P & Social Transfers/GiveawayManager.sol\":5768:6167  Giveaway({... */\n      0x0100\n      dup9\n      add\n        /* \"src/Contract Architecture/P2P & Social Transfers/GiveawayManager.sol\":1512:7089  contract GiveawayManager is Ownable, ReentrancyGuard {... */\n      swap7\n      dup13\n      dup9\n      mstore\n        /* \"src/Contract Architecture/P2P & Social Transfers/GiveawayManager.sol\":5768:6167  Giveaway({... */\n      0x0120\n      dup10\n      add\n        /* \"src/Contract Architecture/P2P & Social Transfers/GiveawayManager.sol\":1512:7089  contract GiveawayManager is Ownable, ReentrancyGuard {... */\n      swap15\n      dup16\n      mstore\n        /* \"src/Contract Architecture/P2P & Social Transfers/GiveawayManager.sol\":5768:6167  Giveaway({... */\n      0x0140\n      dup10\n      add\n        /* \"src/Contract Architecture/P2P & Social Transfers/GiveawayManager.sol\":1512:7089  contract GiveawayManager is Ownable, ReentrancyGuard {... */\n      swap14\n      dup15\n      mstore\n        /* \"src/Contract Architecture/P2P & Social Transfers/GiveawayManager.sol\":5768:6167  Giveaway({... */\n      0x0160\n      dup10\n      add\n        /* \"src/Contract Architecture/P2P & Social Transfers/GiveawayManager.sol\":1512:7089  contract GiveawayManager is Ownable, ReentrancyGuard {... */\n      swap12\n      dup14\n      dup14\n      mstore\n        /* \"src/Contract Architecture/P2P & Social Transfers/GiveawayManager.sol\":5768:6167  Giveaway({... */\n      0x0180\n      dup11\n      add\n        /* \"src/Contract Architecture/P2P & Social Transfers/GiveawayManager.sol\":1512:7089  contract GiveawayManager is Ownable, ReentrancyGuard {... */\n      swap14\n      dup15\n      mstore\n      0x00\n      mstore\n      0x20\n      dup11\n      swap1\n      mstore\n      keccak256(0x00, 0x40)\n      swap9\n      0x01\n      dup1\n      0xa0\n      shl\n      sub\n      swap1\n      0x01\n      dup1\n      0xa0\n      shl\n      sub\n      swap1\n      mload\n      and\n      and\n      shl(0xa0, sub(shl(0x60, 0x01), 0x01))\n      dup11\n      sload\n      and\n      or\n      dup10\n      sstore\n      0x01\n      dup1\n      0xa0\n      shl\n      sub\n      swap1\n      mload\n      and\n      0x01\n      dup10\n      add\n      swap1\n      0x01\n      dup1\n      0xa0\n      shl\n      sub\n      and\n      shl(0xa0, sub(shl(0x60, 0x01), 0x01))\n      dup3\n      sload\n      and\n      or\n      swap1\n      sstore\n      mload\n      0x02\n      dup9\n      add\n      sstore\n      sub(shl(0x40, 0x01), 0x01)\n      0x03\n      dup9\n      add\n      swap6\n      mload\n      and\n      swap1\n      0xffffffffffffffff0000000000000000\n      dup7\n      sload\n      swap6\n      mload\n      0x40\n      shl\n      and\n      swap1\n      dup11\n      0x80\n      shl\n      swap1\n      mload\n      0x80\n      shl\n      and\n      swap3\n      mload\n      iszero\n      iszero\n      0xa0\n      shl\n      swap4\n      shl(0xa8, 0xff)\n      swap1\n      mload\n      iszero\n      iszero\n      0xa8\n      shl\n      and\n      swap5\n      not(shl(0xa8, 0xff))\n      swap3\n      not(shl(0xa0, 0xff))\n      swap2\n      shl(0xa0, sub(shl(0x60, 0x01), 0x01))\n      and\n      or\n      and\n      or\n      and\n      or\n      swap1\n      shl(0xa0, 0xff)\n      and\n      or\n      or\n      swap1\n      sstore\n      mload\n      0x04\n      dup3\n      add\n      sstore\n      add\n      swap5\n      mload\n      and\n      swap3\n      0xffffffffffffffffffffffff0000000000000000\n      0xffffffff00000000\n      dup7\n      sload\n      swap3\n      mload\n      dup15\n      shl\n      and\n      swap3\n      mload\n      0x40\n      shl\n      and\n      swap3\n      shl(0xa0, sub(shl(0x60, 0x01), 0x01))\n      swap1\n      mload\n      0xa0\n      shl\n      and\n      swap4\n      0x01\n      dup1\n      0xa0\n      shl\n      sub\n      swap2\n      shl(0xa0, sub(shl(0x60, 0x01), 0x01))\n      and\n      or\n      and\n      or\n      or\n      or\n      swap1\n      sstore\n      mload(0x40)\n      swap4\n      dup5\n      mstore\n      dup7\n      dup5\n      add\n      mstore\n      0x40\n      dup4\n      add\n      mstore\n      0x60\n      dup3\n      add\n      mstore\n        /* \"src/Contract Architecture/P2P & Social Transfers/GiveawayManager.sol\":5800:5810  msg.sender */\n      dup3\n        /* \"src/Contract Architecture/P2P & Social Transfers/GiveawayManager.sol\":6183:6261  GiveawayCreated(id, msg.sender, token, amount, startTime, endTime, maxWinners) */\n      0x962c97b71f3c7f35b27f4570b64d7b71858ecd66da4ad735b2b15ad782cc69d7\n        /* \"src/Contract Architecture/P2P & Social Transfers/GiveawayManager.sol\":1512:7089  contract GiveawayManager is Ownable, ReentrancyGuard {... */\n      0x80\n        /* \"src/Contract Architecture/P2P & Social Transfers/GiveawayManager.sol\":5800:5810  msg.sender */\n      caller\n        /* \"src/Contract Architecture/P2P & Social Transfers/GiveawayManager.sol\":6183:6261  GiveawayCreated(id, msg.sender, token, amount, startTime, endTime, maxWinners) */\n      swap4\n      log4\n        /* \"src/Contract Architecture/P2P & Social Transfers/GiveawayManager.sol\":1512:7089  contract GiveawayManager is Ownable, ReentrancyGuard {... */\n      mload(0x40)\n      swap1\n      dup2\n      mstore\n      return\n    tag_133:\n      mstore(0x00, shl(0xe0, 0x4e487b71))\n      mstore(0x04, 0x11)\n      revert(0x00, 0x24)\n    tag_130:\n      mload(0x40)\n      shl(0xe5, 0x461bcd)\n      dup2\n      mstore\n      0x20\n      0x04\n      dup3\n      add\n      mstore\n      0x09\n      0x24\n      dup3\n      add\n      mstore\n      shl(0xb8, 0x6261642076616c7565)\n      0x44\n      dup3\n      add\n      mstore\n      0x64\n      swap1\n      revert\n        /* \"src/Contract Architecture/P2P & Social Transfers/GiveawayManager.sol\":5481:5711  if (token == NATIVE) {... */\n    tag_128:\n        /* \"src/Contract Architecture/P2P & Social Transfers/GiveawayManager.sol\":1512:7089  contract GiveawayManager is Ownable, ReentrancyGuard {... */\n      0x20\n      0x00\n      mload(0x40)\n        /* \"@openzeppelin/contracts/token/ERC20/utils/SafeERC20.sol\":1745:1798  abi.encodeCall(token.transferFrom, (from, to, value)) */\n      dup3\n      dup2\n      add\n        /* \"src/Contract Architecture/P2P & Social Transfers/GiveawayManager.sol\":1512:7089  contract GiveawayManager is Ownable, ReentrancyGuard {... */\n      swap1\n      shl(0xe0, 0x23b872dd)\n        /* \"@openzeppelin/contracts/token/ERC20/utils/SafeERC20.sol\":1745:1798  abi.encodeCall(token.transferFrom, (from, to, value)) */\n      dup3\n      mstore\n        /* \"src/Contract Architecture/P2P & Social Transfers/GiveawayManager.sol\":5619:5629  msg.sender */\n      caller\n        /* \"src/Contract Architecture/P2P & Social Transfers/GiveawayManager.sol\":1512:7089  contract GiveawayManager is Ownable, ReentrancyGuard {... */\n      0x24\n        /* \"@openzeppelin/contracts/token/ERC20/utils/SafeERC20.sol\":1745:1798  abi.encodeCall(token.transferFrom, (from, to, value)) */\n      dup3\n      add\n        /* \"src/Contract Architecture/P2P & Social Transfers/GiveawayManager.sol\":1512:7089  contract GiveawayManager is Ownable, ReentrancyGuard {... */\n      mstore\n        /* \"src/Contract Architecture/P2P & Social Transfers/GiveawayManager.sol\":5639:5643  this */\n      address\n        /* \"src/Contract Architecture/P2P & Social Transfers/GiveawayManager.sol\":1512:7089  contract GiveawayManager is Ownable, ReentrancyGuard {... */\n      0x44\n      dup3\n      add\n      mstore\n      dup6\n      0x64\n      dup3\n      add\n      mstore\n      0x64\n        /* \"@openzeppelin/contracts/token/ERC20/utils/SafeERC20.sol\":1745:1798  abi.encodeCall(token.transferFrom, (from, to, value)) */\n      dup2\n      mstore\n      tag_136\n        /* \"src/Contract Architecture/P2P & Social Transfers/GiveawayManager.sol\":1512:7089  contract GiveawayManager is Ownable, ReentrancyGuard {... */\n      0x84\n        /* \"@openzeppelin/contracts/token/ERC20/utils/SafeERC20.sol\":1745:1798  abi.encodeCall(token.transferFrom, (from, to, value)) */\n      dup3\n      tag_6\n      jump\t// in\n    tag_136:\n        /* \"@openzeppelin/contracts/token/ERC20/utils/SafeERC20.sol\":8507:8928  assembly (\"memory-safe\") {... */\n      mload\n      swap1\n      dup3\n      dup8\n      gas\n      call\n      iszero\n      tag_137\n      jumpi\n        /* \"src/Contract Architecture/P2P & Social Transfers/GiveawayManager.sol\":1512:7089  contract GiveawayManager is Ownable, ReentrancyGuard {... */\n      0x00\n        /* \"@openzeppelin/contracts/token/ERC20/utils/SafeERC20.sol\":8507:8928  assembly (\"memory-safe\") {... */\n      mload\n      returndatasize\n        /* \"@openzeppelin/contracts/token/ERC20/utils/SafeERC20.sol\":8942:8957  returnSize == 0 */\n      tag_139\n      jumpi\n        /* \"@openzeppelin/contracts/token/ERC20/utils/SafeERC20.sol\":8960:8986  address(token).code.length */\n      pop\n      dup3\n      extcodesize\n        /* \"@openzeppelin/contracts/token/ERC20/utils/SafeERC20.sol\":8960:8991  address(token).code.length == 0 */\n      iszero\n        /* \"@openzeppelin/contracts/token/ERC20/utils/SafeERC20.sol\":8942:9010  returnSize == 0 ? address(token).code.length == 0 : returnValue != 1 */\n    tag_141:\n        /* \"@openzeppelin/contracts/token/ERC20/utils/SafeERC20.sol\":8938:9084  if (returnSize == 0 ? address(token).code.length == 0 : returnValue != 1) {... */\n      tag_142\n      jumpi\n        /* \"src/Contract Architecture/P2P & Social Transfers/GiveawayManager.sol\":5675:5684  msg.value */\n      callvalue\n        /* \"src/Contract Architecture/P2P & Social Transfers/GiveawayManager.sol\":1512:7089  contract GiveawayManager is Ownable, ReentrancyGuard {... */\n      iszero\n        /* \"src/Contract Architecture/P2P & Social Transfers/GiveawayManager.sol\":5481:5711  if (token == NATIVE) {... */\n      tag_132\n        /* \"src/Contract Architecture/P2P & Social Transfers/GiveawayManager.sol\":1512:7089  contract GiveawayManager is Ownable, ReentrancyGuard {... */\n      jumpi\n      mload(0x40)\n      shl(0xe5, 0x461bcd)\n      dup2\n      mstore\n      0x20\n      0x04\n      dup3\n      add\n      mstore\n      0x06\n      0x24\n      dup3\n      add\n      mstore\n      shl(0xd3, 0x0dcde40cae8d)\n      0x44\n      dup3\n      add\n      mstore\n      0x64\n      swap1\n      revert\n        /* \"@openzeppelin/contracts/token/ERC20/utils/SafeERC20.sol\":8938:9084  if (returnSize == 0 ? address(token).code.length == 0 : returnValue != 1) {... */\n    tag_142:\n        /* \"@openzeppelin/contracts/token/ERC20/utils/SafeERC20.sol\":9033:9073  SafeERC20FailedOperation(address(token)) */\n      dup3\n      shl(0xe0, 0x5274afe7)\n        /* \"src/Contract Architecture/P2P & Social Transfers/GiveawayManager.sol\":1512:7089  contract GiveawayManager is Ownable, ReentrancyGuard {... */\n      0x00\n        /* \"@openzeppelin/contracts/token/ERC20/utils/SafeERC20.sol\":9033:9073  SafeERC20FailedOperation(address(token)) */\n      mstore\n        /* \"src/Contract Architecture/P2P & Social Transfers/GiveawayManager.sol\":1512:7089  contract GiveawayManager is Ownable, ReentrancyGuard {... */\n      0x04\n      mstore\n      0x24\n      0x00\n        /* \"@openzeppelin/contracts/token/ERC20/utils/SafeERC20.sol\":9033:9073  SafeERC20FailedOperation(address(token)) */\n      revert\n        /* \"@openzeppelin/contracts/token/ERC20/utils/SafeERC20.sol\":8942:9010  returnSize == 0 ? address(token).code.length == 0 : returnValue != 1 */\n    tag_139:\n        /* \"src/Contract Architecture/P2P & Social Transfers/GiveawayManager.sol\":1512:7089  contract GiveawayManager is Ownable, ReentrancyGuard {... */\n      0x01\n        /* \"@openzeppelin/contracts/token/ERC20/utils/SafeERC20.sol\":8994:9010  returnValue != 1 */\n      eq\n      iszero\n        /* \"@openzeppelin/contracts/token/ERC20/utils/SafeERC20.sol\":8942:9010  returnSize == 0 ? address(token).code.length == 0 : returnValue != 1 */\n      jump(tag_141)\n        /* \"@openzeppelin/contracts/token/ERC20/utils/SafeERC20.sol\":8507:8928  assembly (\"memory-safe\") {... */\n    tag_137:\n        /* \"src/Contract Architecture/P2P & Social Transfers/GiveawayManager.sol\":1512:7089  contract GiveawayManager is Ownable, ReentrancyGuard {... */\n      0x40\n        /* \"@openzeppelin/contracts/token/ERC20/utils/SafeERC20.sol\":8507:8928  assembly (\"memory-safe\") {... */\n      mload\n      returndatasize\n        /* \"src/Contract Architecture/P2P & Social Transfers/GiveawayManager.sol\":1512:7089  contract GiveawayManager is Ownable, ReentrancyGuard {... */\n      0x00\n        /* \"@openzeppelin/contracts/token/ERC20/utils/SafeERC20.sol\":8507:8928  assembly (\"memory-safe\") {... */\n      dup3\n      returndatacopy\n      returndatasize\n      swap1\n      revert\n        /* \"src/Contract Architecture/P2P & Social Transfers/GiveawayManager.sol\":5393:5448  if (startTime == 0) startTime = uint64(block.timestamp) */\n    tag_126:\n        /* \"src/Contract Architecture/P2P & Social Transfers/GiveawayManager.sol\":5432:5447  block.timestamp */\n      timestamp\n      sub(shl(0x40, 0x01), 0x01)\n        /* \"src/Contract Architecture/P2P & Social Transfers/GiveawayManager.sol\":1512:7089  contract GiveawayManager is Ownable, ReentrancyGuard {... */\n      and\n      swap4\n      pop\n        /* \"src/Contract Architecture/P2P & Social Transfers/GiveawayManager.sol\":5393:5448  if (startTime == 0) startTime = uint64(block.timestamp) */\n      jump(tag_127)\n        /* \"src/Contract Architecture/P2P & Social Transfers/GiveawayManager.sol\":1512:7089  contract GiveawayManager is Ownable, ReentrancyGuard {... */\n    tag_124:\n      0x64\n      mload(0x40)\n      shl(0xe5, 0x461bcd)\n      dup2\n      mstore\n      0x20\n      0x04\n      dup3\n      add\n      mstore\n      0x04\n      0x24\n      dup3\n      add\n      mstore\n      shl(0xe0, 0x74696d65)\n      0x44\n      dup3\n      add\n      mstore\n      revert\n        /* \"src/Contract Architecture/P2P & Social Transfers/GiveawayManager.sol\":5339:5374  endTime == 0 || endTime > startTime */\n    tag_122:\n        /* \"src/Contract Architecture/P2P & Social Transfers/GiveawayManager.sol\":5355:5374  endTime > startTime */\n      pop\n      dup1\n      dup7\n      gt\n        /* \"src/Contract Architecture/P2P & Social Transfers/GiveawayManager.sol\":5339:5374  endTime == 0 || endTime > startTime */\n      jump(tag_123)\n        /* \"src/Contract Architecture/P2P & Social Transfers/GiveawayManager.sol\":1512:7089  contract GiveawayManager is Ownable, ReentrancyGuard {... */\n    tag_120:\n      mload(0x40)\n      shl(0xe5, 0x461bcd)\n      dup2\n      mstore\n      0x20\n      0x04\n      dup3\n      add\n      mstore\n      0x09\n      0x24\n      dup3\n      add\n      mstore\n      shl(0xbc, 0x077696e6e6572733d3)\n      0x44\n      dup3\n      add\n      mstore\n      0x64\n      swap1\n      revert\n    tag_118:\n      mload(0x40)\n      shl(0xe5, 0x461bcd)\n      dup2\n      mstore\n      0x20\n      0x04\n      dup3\n      add\n      mstore\n      0x08\n      0x24\n      dup3\n      add\n      mstore\n      shl(0xc4, 0x0616d6f756e743d3)\n      0x44\n      dup3\n      add\n      mstore\n      0x64\n      swap1\n      revert\n    tag_14:\n      jumpi(tag_46, callvalue)\n      jumpi(tag_46, slt(add(not(0x03), calldatasize), 0x20))\n      calldataload(0x04)\n      dup1\n      0x00\n      mstore\n        /* \"src/Contract Architecture/P2P & Social Transfers/GiveawayManager.sol\":6378:6387  giveaways */\n      0x05\n        /* \"src/Contract Architecture/P2P & Social Transfers/GiveawayManager.sol\":1512:7089  contract GiveawayManager is Ownable, ReentrancyGuard {... */\n      0x20\n      mstore\n      keccak256(0x00, 0x40)\n      mload(0x40)\n      tag_150\n      dup2\n      tag_5\n      jump\t// in\n    tag_150:\n      0x01\n      dup1\n      0xa0\n      shl\n      sub\n      dup3\n      sload\n      and\n      dup1\n      dup3\n      mstore\n      0x01\n      dup1\n      0xa0\n      shl\n      sub\n      0x01\n      dup5\n      add\n      sload\n      and\n      0x20\n      dup4\n      add\n      mstore\n      0x02\n      dup4\n      add\n      sload\n      0x40\n      dup4\n      add\n      mstore\n      0x03\n      dup4\n      add\n      sload\n      0x60\n      dup4\n      add\n      swap2\n      sub(shl(0x40, 0x01), 0x01)\n      dup3\n      and\n      dup4\n      mstore\n      0x80\n      dup5\n      add\n      swap4\n      sub(shl(0x40, 0x01), 0x01)\n      dup4\n      0x40\n      shr\n      and\n      dup6\n      mstore\n      0xffffffff\n      dup4\n      0x80\n      shr\n      and\n      0xa0\n      dup3\n      add\n      mstore\n      0x0180\n        /* \"src/Contract Architecture/P2P & Social Transfers/GiveawayManager.sol\":6378:6387  giveaways */\n      0x05\n        /* \"src/Contract Architecture/P2P & Social Transfers/GiveawayManager.sol\":1512:7089  contract GiveawayManager is Ownable, ReentrancyGuard {... */\n      0xc0\n      dup4\n      add\n      swap8\n      0xff\n      dup7\n      0xa0\n      shr\n      and\n      iszero\n      iszero\n      dup10\n      mstore\n      0xff\n      0xe0\n      dup6\n      add\n      swap7\n      0xa8\n      shr\n      and\n      iszero\n      iszero\n      dup7\n      mstore\n      0x04\n      dup2\n      add\n      sload\n      0x0100\n      dup6\n      add\n      mstore\n      add\n      sload\n      0xffffffff\n      dup2\n      and\n      0x0120\n      dup5\n      add\n      mstore\n      0xffffffff\n      dup2\n      0x20\n      shr\n      and\n      0x0140\n      dup5\n      add\n      mstore\n      sub(shl(0x60, 0x01), 0x01)\n      dup2\n      0x40\n      shr\n      and\n      0x0160\n      dup5\n      add\n      mstore\n      0xa0\n      shr\n      swap2\n      add\n      mstore\n        /* \"src/Contract Architecture/P2P & Social Transfers/GiveawayManager.sol\":6409:6432  g.creator != address(0) */\n      iszero\n        /* \"src/Contract Architecture/P2P & Social Transfers/GiveawayManager.sol\":1512:7089  contract GiveawayManager is Ownable, ReentrancyGuard {... */\n      tag_151\n      jumpi\n      mload\n      tag_153\n      jumpi\n      mload\n      sub(shl(0x40, 0x01), 0x01)\n      and\n        /* \"src/Contract Architecture/P2P & Social Transfers/GiveawayManager.sol\":6508:6523  block.timestamp */\n      timestamp\n        /* \"src/Contract Architecture/P2P & Social Transfers/GiveawayManager.sol\":6508:6538  block.timestamp >= g.startTime */\n      lt\n        /* \"src/Contract Architecture/P2P & Social Transfers/GiveawayManager.sol\":1512:7089  contract GiveawayManager is Ownable, ReentrancyGuard {... */\n      tag_155\n      jumpi\n      mload\n      sub(shl(0x40, 0x01), 0x01)\n      and\n      dup1\n        /* \"src/Contract Architecture/P2P & Social Transfers/GiveawayManager.sol\":6564:6630  if (g.endTime != 0) require(block.timestamp <= g.endTime, \"ended\") */\n      tag_157\n      jumpi\n        /* \"src/Contract Architecture/P2P & Social Transfers/GiveawayManager.sol\":1512:7089  contract GiveawayManager is Ownable, ReentrancyGuard {... */\n    tag_158:\n      pop\n      mload\n      tag_159\n      jumpi\n      and(sub(shl(0xa0, 0x01), 0x01), sload(0x03))\n      dup1\n        /* \"src/Contract Architecture/P2P & Social Transfers/GiveawayManager.sol\":6717:6859  if (address(eligibilityVerifier) != address(0)) {... */\n      tag_161\n      jumpi\n        /* \"src/Contract Architecture/P2P & Social Transfers/GiveawayManager.sol\":1512:7089  contract GiveawayManager is Ownable, ReentrancyGuard {... */\n    tag_162:\n      pop\n      0x00\n      dup2\n      dup2\n      mstore\n        /* \"src/Contract Architecture/P2P & Social Transfers/GiveawayManager.sol\":6878:6888  hasEntered */\n      0x07\n        /* \"src/Contract Architecture/P2P & Social Transfers/GiveawayManager.sol\":1512:7089  contract GiveawayManager is Ownable, ReentrancyGuard {... */\n      0x20\n      swap1\n      dup2\n      mstore\n      0x40\n      dup1\n      dup4\n      keccak256\n        /* \"src/Contract Architecture/P2P & Social Transfers/GiveawayManager.sol\":6893:6903  msg.sender */\n      caller\n        /* \"src/Contract Architecture/P2P & Social Transfers/GiveawayManager.sol\":1512:7089  contract GiveawayManager is Ownable, ReentrancyGuard {... */\n      dup5\n      mstore\n      swap1\n      swap2\n      mstore\n      swap1\n      keccak256\n      sload\n      0xff\n      and\n      tag_163\n      jumpi\n      0x00\n      dup2\n      dup2\n      mstore\n        /* \"src/Contract Architecture/P2P & Social Transfers/GiveawayManager.sol\":6878:6888  hasEntered */\n      0x07\n        /* \"src/Contract Architecture/P2P & Social Transfers/GiveawayManager.sol\":1512:7089  contract GiveawayManager is Ownable, ReentrancyGuard {... */\n      0x20\n      swap1\n      dup2\n      mstore\n      0x40\n      dup1\n      dup4\n      keccak256\n        /* \"src/Contract Architecture/P2P & Social Transfers/GiveawayManager.sol\":6893:6903  msg.sender */\n      caller\n        /* \"src/Contract Architecture/P2P & Social Transfers/GiveawayManager.sol\":1512:7089  contract GiveawayManager is Ownable, ReentrancyGuard {... */\n      dup5\n      mstore\n      dup3\n      mstore\n      dup1\n      dup4\n      keccak256\n      dup1\n      sload\n      not(0xff)\n      and\n      0x01\n      or\n      swap1\n      sstore\n      dup4\n      dup4\n      mstore\n        /* \"src/Contract Architecture/P2P & Social Transfers/GiveawayManager.sol\":6969:6981  participants */\n      0x06\n        /* \"src/Contract Architecture/P2P & Social Transfers/GiveawayManager.sol\":1512:7089  contract GiveawayManager is Ownable, ReentrancyGuard {... */\n      swap1\n      swap2\n      mstore\n      swap1\n      keccak256\n      dup1\n      sload\n      0x010000000000000000\n      dup2\n      lt\n      iszero\n      tag_165\n      jumpi\n      tag_167\n      swap2\n      0x01\n      dup3\n      add\n      dup2\n      sstore\n      tag_4\n      jump\t// in\n    tag_167:\n      dup2\n      sload\n      sub(shl(0xa0, 0x01), 0x01)\n      0x03\n      swap3\n      swap1\n      swap3\n      shl\n      swap2\n      dup3\n      shl\n      not\n      and\n        /* \"src/Contract Architecture/P2P & Social Transfers/GiveawayManager.sol\":6893:6903  msg.sender */\n      caller\n        /* \"src/Contract Architecture/P2P & Social Transfers/GiveawayManager.sol\":1512:7089  contract GiveawayManager is Ownable, ReentrancyGuard {... */\n      swap2\n      dup3\n      swap1\n      shl\n      or\n      swap1\n      swap2\n      sstore\n        /* \"src/Contract Architecture/P2P & Social Transfers/GiveawayManager.sol\":6893:6903  msg.sender */\n      swap1\n        /* \"src/Contract Architecture/P2P & Social Transfers/GiveawayManager.sol\":7018:7041  Entered(id, msg.sender) */\n      0xb6fd8c45cc3179470a3187d092b90e5c003137b502dee828ed4aba08d714cec6\n      0x00\n      dup1\n      log3\n        /* \"src/Contract Architecture/P2P & Social Transfers/GiveawayManager.sol\":1512:7089  contract GiveawayManager is Ownable, ReentrancyGuard {... */\n      stop\n    tag_165:\n      mstore(0x00, shl(0xe0, 0x4e487b71))\n      mstore(0x04, 0x41)\n      revert(0x00, 0x24)\n    tag_163:\n      mload(0x40)\n      shl(0xe5, 0x461bcd)\n      dup2\n      mstore\n      0x20\n      0x04\n      dup3\n      add\n      mstore\n        /* \"src/Contract Architecture/P2P & Social Transfers/GiveawayManager.sol\":6878:6888  hasEntered */\n      0x07\n        /* \"src/Contract Architecture/P2P & Social Transfers/GiveawayManager.sol\":1512:7089  contract GiveawayManager is Ownable, ReentrancyGuard {... */\n      0x24\n      dup3\n      add\n      mstore\n      shl(0xc8, 0x616c7265616479)\n      0x44\n      dup3\n      add\n      mstore\n      0x64\n      swap1\n      revert\n        /* \"src/Contract Architecture/P2P & Social Transfers/GiveawayManager.sol\":6717:6859  if (address(eligibilityVerifier) != address(0)) {... */\n    tag_161:\n        /* \"src/Contract Architecture/P2P & Social Transfers/GiveawayManager.sol\":1512:7089  contract GiveawayManager is Ownable, ReentrancyGuard {... */\n      0x20\n        /* \"src/Contract Architecture/P2P & Social Transfers/GiveawayManager.sol\":6787:6833  eligibilityVerifier.isEligible(id, msg.sender) */\n      0x44\n        /* \"src/Contract Architecture/P2P & Social Transfers/GiveawayManager.sol\":1512:7089  contract GiveawayManager is Ownable, ReentrancyGuard {... */\n      swap2\n      mload(0x40)\n      swap3\n      dup4\n      dup1\n      swap3\n      shl(0xe9, 0x2c9707)\n        /* \"src/Contract Architecture/P2P & Social Transfers/GiveawayManager.sol\":6787:6833  eligibilityVerifier.isEligible(id, msg.sender) */\n      dup3\n      mstore\n      dup7\n        /* \"src/Contract Architecture/P2P & Social Transfers/GiveawayManager.sol\":1512:7089  contract GiveawayManager is Ownable, ReentrancyGuard {... */\n      0x04\n        /* \"src/Contract Architecture/P2P & Social Transfers/GiveawayManager.sol\":6787:6833  eligibilityVerifier.isEligible(id, msg.sender) */\n      dup4\n      add\n        /* \"src/Contract Architecture/P2P & Social Transfers/GiveawayManager.sol\":1512:7089  contract GiveawayManager is Ownable, ReentrancyGuard {... */\n      mstore\n        /* \"src/Contract Architecture/P2P & Social Transfers/GiveawayManager.sol\":6822:6832  msg.sender */\n      caller\n        /* \"src/Contract Architecture/P2P & Social Transfers/GiveawayManager.sol\":1512:7089  contract GiveawayManager is Ownable, ReentrancyGuard {... */\n      0x24\n      dup4\n      add\n      mstore\n        /* \"src/Contract Architecture/P2P & Social Transfers/GiveawayManager.sol\":6787:6833  eligibilityVerifier.isEligible(id, msg.sender) */\n      gas\n      staticcall\n      swap1\n      dup2\n      iszero\n      tag_137\n      jumpi\n        /* \"src/Contract Architecture/P2P & Social Transfers/GiveawayManager.sol\":1512:7089  contract GiveawayManager is Ownable, ReentrancyGuard {... */\n      0x00\n        /* \"src/Contract Architecture/P2P & Social Transfers/GiveawayManager.sol\":6787:6833  eligibilityVerifier.isEligible(id, msg.sender) */\n      swap2\n      tag_170\n      jumpi\n        /* \"src/Contract Architecture/P2P & Social Transfers/GiveawayManager.sol\":6717:6859  if (address(eligibilityVerifier) != address(0)) {... */\n    tag_171:\n        /* \"src/Contract Architecture/P2P & Social Transfers/GiveawayManager.sol\":1512:7089  contract GiveawayManager is Ownable, ReentrancyGuard {... */\n      pop\n      iszero\n      tag_172\n      jumpi\n        /* \"src/Contract Architecture/P2P & Social Transfers/GiveawayManager.sol\":6717:6859  if (address(eligibilityVerifier) != address(0)) {... */\n      dup2\n      jump(tag_162)\n        /* \"src/Contract Architecture/P2P & Social Transfers/GiveawayManager.sol\":1512:7089  contract GiveawayManager is Ownable, ReentrancyGuard {... */\n    tag_172:\n      mload(0x40)\n      shl(0xe5, 0x461bcd)\n      dup2\n      mstore\n      0x20\n      0x04\n      dup3\n      add\n      mstore\n      0x0a\n      0x24\n      dup3\n      add\n      mstore\n      shl(0xb0, 0x696e656c696769626c65)\n        /* \"src/Contract Architecture/P2P & Social Transfers/GiveawayManager.sol\":6787:6833  eligibilityVerifier.isEligible(id, msg.sender) */\n      0x44\n        /* \"src/Contract Architecture/P2P & Social Transfers/GiveawayManager.sol\":1512:7089  contract GiveawayManager is Ownable, ReentrancyGuard {... */\n      dup3\n      add\n      mstore\n      0x64\n      swap1\n      revert\n        /* \"src/Contract Architecture/P2P & Social Transfers/GiveawayManager.sol\":6787:6833  eligibilityVerifier.isEligible(id, msg.sender) */\n    tag_170:\n      swap1\n      pop\n        /* \"src/Contract Architecture/P2P & Social Transfers/GiveawayManager.sol\":1512:7089  contract GiveawayManager is Ownable, ReentrancyGuard {... */\n      0x20\n        /* \"src/Contract Architecture/P2P & Social Transfers/GiveawayManager.sol\":6787:6833  eligibilityVerifier.isEligible(id, msg.sender) */\n      dup2\n      returndatasize\n        /* \"src/Contract Architecture/P2P & Social Transfers/GiveawayManager.sol\":1512:7089  contract GiveawayManager is Ownable, ReentrancyGuard {... */\n      0x20\n        /* \"src/Contract Architecture/P2P & Social Transfers/GiveawayManager.sol\":6787:6833  eligibilityVerifier.isEligible(id, msg.sender) */\n      gt\n      tag_174\n      jumpi\n    tag_175:\n      dup2\n      tag_176\n        /* \"src/Contract Architecture/P2P & Social Transfers/GiveawayManager.sol\":1512:7089  contract GiveawayManager is Ownable, ReentrancyGuard {... */\n      0x20\n        /* \"src/Contract Architecture/P2P & Social Transfers/GiveawayManager.sol\":6787:6833  eligibilityVerifier.isEligible(id, msg.sender) */\n      swap4\n      dup4\n      tag_6\n      jump\t// in\n    tag_176:\n      dup2\n      add\n        /* \"src/Contract Architecture/P2P & Social Transfers/GiveawayManager.sol\":1512:7089  contract GiveawayManager is Ownable, ReentrancyGuard {... */\n      sub\n      slt\n      tag_46\n      jumpi\n      mload\n      dup1\n      iszero\n      iszero\n      dup2\n      sub\n      tag_46\n      jumpi\n        /* \"src/Contract Architecture/P2P & Social Transfers/GiveawayManager.sol\":6787:6833  eligibilityVerifier.isEligible(id, msg.sender) */\n      dup3\n      jump(tag_171)\n    tag_174:\n      returndatasize\n      swap2\n      pop\n      jump(tag_175)\n        /* \"src/Contract Architecture/P2P & Social Transfers/GiveawayManager.sol\":1512:7089  contract GiveawayManager is Ownable, ReentrancyGuard {... */\n    tag_159:\n      mload(0x40)\n      shl(0xe5, 0x461bcd)\n      dup2\n      mstore\n      0x20\n      0x04\n      dup3\n      add\n      mstore\n      0x0d\n      0x24\n      dup3\n      add\n      mstore\n      shl(0x99, 0x30b63932b0b23c90323930bbb7)\n      0x44\n      dup3\n      add\n      mstore\n      0x64\n      swap1\n      revert\n        /* \"src/Contract Architecture/P2P & Social Transfers/GiveawayManager.sol\":6564:6630  if (g.endTime != 0) require(block.timestamp <= g.endTime, \"ended\") */\n    tag_157:\n        /* \"src/Contract Architecture/P2P & Social Transfers/GiveawayManager.sol\":6508:6523  block.timestamp */\n      timestamp\n        /* \"src/Contract Architecture/P2P & Social Transfers/GiveawayManager.sol\":6592:6620  block.timestamp <= g.endTime */\n      gt\n        /* \"src/Contract Architecture/P2P & Social Transfers/GiveawayManager.sol\":1512:7089  contract GiveawayManager is Ownable, ReentrancyGuard {... */\n      tag_181\n      jumpi\n        /* \"src/Contract Architecture/P2P & Social Transfers/GiveawayManager.sol\":6564:6630  if (g.endTime != 0) require(block.timestamp <= g.endTime, \"ended\") */\n      dup3\n      jump(tag_158)\n        /* \"src/Contract Architecture/P2P & Social Transfers/GiveawayManager.sol\":1512:7089  contract GiveawayManager is Ownable, ReentrancyGuard {... */\n    tag_181:\n      mload(0x40)\n      shl(0xe5, 0x461bcd)\n      dup2\n      mstore\n      0x20\n      0x04\n      dup3\n      add\n      mstore\n        /* \"src/Contract Architecture/P2P & Social Transfers/GiveawayManager.sol\":6378:6387  giveaways */\n      0x05\n        /* \"src/Contract Architecture/P2P & Social Transfers/GiveawayManager.sol\":1512:7089  contract GiveawayManager is Ownable, ReentrancyGuard {... */\n      0x24\n      dup3\n      add\n      mstore\n      shl(0xda, 0x195b991959)\n      0x44\n      dup3\n      add\n      mstore\n      0x64\n      swap1\n      revert\n    tag_155:\n      mload(0x40)\n      shl(0xe5, 0x461bcd)\n      dup2\n      mstore\n      0x20\n      0x04\n      dup3\n      add\n      mstore\n      0x0b\n      0x24\n      dup3\n      add\n      mstore\n      shl(0xaa, 0x1b9bdd081cdd185c9d1959)\n      0x44\n      dup3\n      add\n      mstore\n      0x64\n      swap1\n      revert\n    tag_153:\n      mload(0x40)\n      shl(0xe5, 0x461bcd)\n      dup2\n      mstore\n      0x20\n      0x04\n      dup3\n      add\n      mstore\n      0x09\n      0x24\n      dup3\n      add\n      mstore\n      shl(0xba, 0x18d85b98d95b1b1959)\n      0x44\n      dup3\n      add\n      mstore\n      0x64\n      swap1\n      revert\n    tag_151:\n      mload(0x40)\n      shl(0xe5, 0x461bcd)\n      dup2\n      mstore\n      0x20\n      0x04\n      dup3\n      add\n      mstore\n      0x09\n      0x24\n      dup3\n      add\n      mstore\n      shl(0xba, 0x1b9bdd08199bdd5b99)\n      0x44\n      dup3\n      add\n      mstore\n      0x64\n      swap1\n      revert\n    tag_12:\n      jumpi(tag_46, callvalue)\n      tag_185\n      calldatasize\n      tag_3\n      jump\t// in\n    tag_185:\n      swap1\n      0x00\n      mstore\n        /* \"src/Contract Architecture/P2P & Social Transfers/GiveawayManager.sol\":3054:3098  mapping(uint256 => address[]) public winners */\n      0x08\n        /* \"src/Contract Architecture/P2P & Social Transfers/GiveawayManager.sol\":1512:7089  contract GiveawayManager is Ownable, ReentrancyGuard {... */\n      0x20\n      mstore\n      keccak256(0x00, 0x40)\n      dup1\n      sload\n        /* \"src/Contract Architecture/P2P & Social Transfers/GiveawayManager.sol\":3054:3098  mapping(uint256 => address[]) public winners */\n      dup3\n      lt\n      iszero\n      tag_46\n      jumpi\n        /* \"src/Contract Architecture/P2P & Social Transfers/GiveawayManager.sol\":1512:7089  contract GiveawayManager is Ownable, ReentrancyGuard {... */\n      0x20\n        /* \"src/Contract Architecture/P2P & Social Transfers/GiveawayManager.sol\":3054:3098  mapping(uint256 => address[]) public winners */\n      swap2\n      tag_95\n      swap2\n      tag_4\n      jump\t// in\n        /* \"src/Contract Architecture/P2P & Social Transfers/GiveawayManager.sol\":1512:7089  contract GiveawayManager is Ownable, ReentrancyGuard {... */\n    tag_10:\n      jumpi(tag_46, callvalue)\n      jumpi(tag_46, slt(add(not(0x03), calldatasize), 0x40))\n      tag_193\n      tag_1\n      jump\t// in\n    tag_193:\n      mstore(0x00, calldataload(0x04))\n        /* \"src/Contract Architecture/P2P & Social Transfers/GiveawayManager.sol\":2951:3013  mapping(uint256 => mapping(address => bool)) public hasEntered */\n      0x07\n        /* \"src/Contract Architecture/P2P & Social Transfers/GiveawayManager.sol\":1512:7089  contract GiveawayManager is Ownable, ReentrancyGuard {... */\n      0x20\n      mstore\n      keccak256(0x00, 0x40)\n        /* \"src/Contract Architecture/P2P & Social Transfers/GiveawayManager.sol\":2951:3013  mapping(uint256 => mapping(address => bool)) public hasEntered */\n      swap1\n        /* \"src/Contract Architecture/P2P & Social Transfers/GiveawayManager.sol\":1512:7089  contract GiveawayManager is Ownable, ReentrancyGuard {... */\n      0x01\n      dup1\n      0xa0\n      shl\n      sub\n      and\n      0x00\n      mstore\n      0x20\n      mstore\n      0x20\n      and(sload(keccak256(0x00, 0x40)), 0xff)\n      mload(0x40)\n      swap1\n      iszero\n      iszero\n      dup2\n      mstore\n      return\n    tag_1:\n      calldataload(0x24)\n      swap1\n      sub(shl(0xa0, 0x01), 0x01)\n      dup3\n      and\n      dup3\n      sub\n      tag_46\n      jumpi\n      jump\t// out\n    tag_2:\n      calldataload(0x04)\n      swap1\n      sub(shl(0xa0, 0x01), 0x01)\n      dup3\n      and\n      dup3\n      sub\n      tag_46\n      jumpi\n      jump\t// out\n    tag_3:\n      0x40\n      swap1\n      not(0x03)\n      add\n      slt\n      tag_46\n      jumpi\n      calldataload(0x04)\n      swap1\n      calldataload(0x24)\n      swap1\n      jump\t// out\n    tag_4:\n      dup1\n      sload\n      dup3\n      lt\n      iszero\n      tag_200\n      jumpi\n      0x00\n      mstore\n      keccak256(0x00, 0x20)\n      add\n      swap1\n      0x00\n      swap1\n      jump\t// out\n    tag_200:\n      mstore(0x00, shl(0xe0, 0x4e487b71))\n      mstore(0x04, 0x32)\n      revert(0x00, 0x24)\n    tag_5:\n      0x01a0\n      dup2\n      add\n      swap1\n      dup2\n      lt\n      sub(shl(0x40, 0x01), 0x01)\n      dup3\n      gt\n      or\n      tag_165\n      jumpi\n      0x40\n      mstore\n      jump\t// out\n    tag_6:\n      swap1\n      0x1f\n      dup1\n      not\n      swap2\n      add\n      and\n      dup2\n      add\n      swap1\n      dup2\n      lt\n      sub(shl(0x40, 0x01), 0x01)\n      dup3\n      gt\n      or\n      tag_165\n      jumpi\n      0x40\n      mstore\n      jump\t// out\n        /* \"@openzeppelin/contracts/access/Ownable.sol\":1796:1958  function _checkOwner() internal view virtual {... */\n    tag_7:\n        /* \"@openzeppelin/contracts/access/Ownable.sol\":1710:1716  _owner */\n      0x00\n        /* \"src/Contract Architecture/P2P & Social Transfers/GiveawayManager.sol\":1512:7089  contract GiveawayManager is Ownable, ReentrancyGuard {... */\n      sload\n      sub(shl(0xa0, 0x01), 0x01)\n      and\n        /* \"@openzeppelin/contracts/utils/Context.sol\":735:745  msg.sender */\n      caller\n        /* \"@openzeppelin/contracts/access/Ownable.sol\":1855:1878  owner() != _msgSender() */\n      sub\n        /* \"@openzeppelin/contracts/access/Ownable.sol\":1851:1952  if (owner() != _msgSender()) {... */\n      tag_206\n      jumpi\n        /* \"@openzeppelin/contracts/access/Ownable.sol\":1796:1958  function _checkOwner() internal view virtual {... */\n      jump\t// out\n        /* \"@openzeppelin/contracts/access/Ownable.sol\":1851:1952  if (owner() != _msgSender()) {... */\n    tag_206:\n        /* \"@openzeppelin/contracts/access/Ownable.sol\":1901:1941  OwnableUnauthorizedAccount(_msgSender()) */\n      shl(0xe0, 0x118cdaa7)\n        /* \"@openzeppelin/contracts/access/Ownable.sol\":1710:1716  _owner */\n      0x00\n        /* \"@openzeppelin/contracts/access/Ownable.sol\":1901:1941  OwnableUnauthorizedAccount(_msgSender()) */\n      mstore\n        /* \"@openzeppelin/contracts/utils/Context.sol\":735:745  msg.sender */\n      caller\n        /* \"@openzeppelin/contracts/access/Ownable.sol\":1901:1941  OwnableUnauthorizedAccount(_msgSender()) */\n      0x04\n        /* \"src/Contract Architecture/P2P & Social Transfers/GiveawayManager.sol\":1512:7089  contract GiveawayManager is Ownable, ReentrancyGuard {... */\n      mstore\n      0x24\n        /* \"@openzeppelin/contracts/access/Ownable.sol\":1710:1716  _owner */\n      0x00\n        /* \"@openzeppelin/contracts/access/Ownable.sol\":1901:1941  OwnableUnauthorizedAccount(_msgSender()) */\n      revert\n\n    auxdata: 0xa2646970667358221220c95868233aac021db50fdaeb9d20b25d35839abf2354a57d2d74d394050c20b764736f6c634300081a0033\n}\n",
				"bytecode": {
					"linkReferences": {},
					"object": "60803461015b57601f61100b38819003918201601f19168301916001600160401b0383118484101761015f57808492604094855283398101031261015b57610052602061004b83610173565b9201610173565b3315610148575f8054336001600160a01b0319821681178355604051949290916001600160a01b0316907f8be0079c531659141344cd1fd0a4f28419497f9722a3daafe3b4186f6b6457e09080a3600180556001600160a01b03168061010c575b506001600160a01b0316806100d0575b50610e8390816101888239f35b600380546001600160a01b031916821790557f523584dd19b074bf12112a06b4ccfc2c91696564a12a6d76cdaa62c87da728685f80a25f6100c3565b600280546001600160a01b031916821790557f87b050f471f7331bfd8fc9347cd54894f2ae6663e3339e49ca0d8b2dbe792eb25f80a25f6100b3565b631e4fbdf760e01b5f525f60045260245ffd5b5f80fd5b634e487b7160e01b5f52604160045260245ffd5b51906001600160a01b038216820361015b5756fe60806040526004361015610011575f80fd5b5f3560e01c8063073c74f314610d365780630efc886514610d07578063193f453e1461092b5780632e1352c3146104f45780633e06df3d146104085780636ac56ac0146103eb578063715018a61461039457806381fb1fb41461034c578063873f6f9e146103035780638da5cb5b146102dc578063a0cf0aea146102c2578063a14ea2b81461029a578063b15fbc1414610234578063bdd415af146101eb578063ce9bf5ac146101c3578063e6414e371461015d5763f2fde38b146100d4575f80fd5b34610159576020366003190112610159576100ed610d95565b6100f5610e27565b6001600160a01b03168015610146575f80546001600160a01b03198116831782556001600160a01b0316907f8be0079c531659141344cd1fd0a4f28419497f9722a3daafe3b4186f6b6457e09080a3005b631e4fbdf760e01b5f525f60045260245ffd5b5f80fd5b3461015957602036600319011261015957610176610d95565b61017e610e27565b600380546001600160a01b0319166001600160a01b039290921691821790557f523584dd19b074bf12112a06b4ccfc2c91696564a12a6d76cdaa62c87da728685f80a2005b34610159575f366003190112610159576002546040516001600160a01b039091168152602090f35b3461015957604036600319011261015957610204610d7f565b6004355f52600960205260405f209060018060a01b03165f52602052602060ff60405f2054166040519015158152f35b346101595760203660031901126101595761024d610d95565b610255610e27565b600280546001600160a01b0319166001600160a01b039290921691821790557f87b050f471f7331bfd8fc9347cd54894f2ae6663e3339e49ca0d8b2dbe792eb25f80a2005b34610159575f366003190112610159576003546040516001600160a01b039091168152602090f35b34610159575f3660031901126101595760206040515f8152f35b34610159575f366003190112610159575f546040516001600160a01b039091168152602090f35b346101595760403660031901126101595761031c610d7f565b6004355f52600a60205260405f209060018060a01b03165f52602052602060ff60405f2054166040519015158152f35b346101595761035a36610dab565b905f52600660205260405f2080548210156101595760209161037b91610dc1565b905460405160039290921b1c6001600160a01b03168152f35b34610159575f366003190112610159576103ac610e27565b5f80546001600160a01b0319811682556001600160a01b03167f8be0079c531659141344cd1fd0a4f28419497f9722a3daafe3b4186f6b6457e08280a3005b34610159575f366003190112610159576020600454604051908152f35b34610159576020366003190112610159576004355f5260056020526101a060405f2060018060a01b038154169060018060a01b036001820154169060ff60028201546003830154906005600485015494015494604051968752602087015260408601526001600160401b03811660608601526001600160401b038160401c16608086015263ffffffff8160801c1660a0860152818160a01c16151560c086015260a81c16151560e084015261010083015263ffffffff811661012083015263ffffffff8160201c166101408301526001600160601b038160401c1661016083015260a01c610180820152f35b60a036600319011261015957610508610d95565b6024356044356001600160401b0381169182820361015957606435936001600160401b038516809503610159576084359263ffffffff8416809403610159579382156108fb57600184106108ca57851580156108c1575b156108965715610885575b6001600160a01b031691826107da578134036107a9575b600454945f1986146107955760016020960194856004555f80808863ffffffff60056040516105af81610dea565b3381528d81018c815260408201988c8a526001600160401b03606084019116998a825260808401908c82528d60a0860190815260c08601908a825260e08701928b84526101008801968c885261012089019e8f5261014089019d8e5261016089019b8d8d526101808a019d8e525f5260208a905260405f209860018060a01b039060018060a01b03905116166001600160601b0360a01b8a541617895560018060a01b03905116600189019060018060a01b03166001600160601b0360a01b8254161790555160028801556001600160401b0360038801955116906fffffffffffffffff00000000000000008654955160401b16908a60801b905160801b169251151560a01b9360ff60a81b9051151560a81b169460ff60a81b199260ff60a01b19916001600160601b0360a01b1617161716179060ff60a01b1617179055516004820155019451169273ffffffffffffffffffffffff000000000000000067ffffffff00000000865492518e1b16925160401b16926001600160601b0360a01b905160a01b169360018060a01b03916001600160601b0360a01b16171617171790556040519384528684015260408301526060820152827f962c97b71f3c7f35b27f4570b64d7b71858ecd66da4ad735b2b15ad782cc69d760803393a4604051908152f35b634e487b7160e01b5f52601160045260245ffd5b60405162461bcd60e51b81526020600482015260096024820152686261642076616c756560b81b6044820152606490fd5b60205f604051828101906323b872dd60e01b82523360248201523060448201528560648201526064815261080f608482610e06565b519082875af11561087a575f513d6108715750823b155b61085e5734156105815760405162461bcd60e51b81526020600482015260066024820152650dcde40cae8d60d31b6044820152606490fd5b82635274afe760e01b5f5260045260245ffd5b60011415610826565b6040513d5f823e3d90fd5b426001600160401b0316935061056a565b606460405162461bcd60e51b815260206004820152600460248201526374696d6560e01b6044820152fd5b5080861161055f565b60405162461bcd60e51b8152602060048201526009602482015268077696e6e6572733d360bc1b6044820152606490fd5b60405162461bcd60e51b81526020600482015260086024820152670616d6f756e743d360c41b6044820152606490fd5b3461015957602036600319011261015957600435805f52600560205260405f2060405161095781610dea565b60018060a01b0382541680825260018060a01b03600184015416602083015260028301546040830152600383015460608301916001600160401b038216835260808401936001600160401b038360401c16855263ffffffff8360801c1660a0820152610180600560c083019760ff8660a01c161515895260ff60e085019660a81c16151586526004810154610100850152015463ffffffff811661012084015263ffffffff8160201c166101408401526001600160601b038160401c1661016084015260a01c91015215610cd65751610ca557516001600160401b03164210610c7257516001600160401b031680610c39575b5051610c04576003546001600160a01b031680610b5a575b505f81815260076020908152604080832033845290915290205460ff16610b2b575f8181526007602090815260408083203384528252808320805460ff1916600117905583835260069091529020805468010000000000000000811015610b1757610ad291600182018155610dc1565b81546001600160a01b0360039290921b91821b1916339182901b17909155907fb6fd8c45cc3179470a3187d092b90e5c003137b502dee828ed4aba08d714cec65f80a3005b634e487b7160e01b5f52604160045260245ffd5b60405162461bcd60e51b8152602060048201526007602482015266616c726561647960c81b6044820152606490fd5b602060449160405192838092622c970760e91b82528660048301523360248301525afa90811561087a575f91610bc9575b5015610b975781610a62565b60405162461bcd60e51b815260206004820152600a602482015269696e656c696769626c6560b01b6044820152606490fd5b90506020813d602011610bfc575b81610be460209383610e06565b81010312610159575180151581036101595782610b8b565b3d9150610bd7565b60405162461bcd60e51b815260206004820152600d60248201526c30b63932b0b23c90323930bbb760991b6044820152606490fd5b4211610c455782610a4a565b60405162461bcd60e51b8152602060048201526005602482015264195b99195960da1b6044820152606490fd5b60405162461bcd60e51b815260206004820152600b60248201526a1b9bdd081cdd185c9d195960aa1b6044820152606490fd5b60405162461bcd60e51b815260206004820152600960248201526818d85b98d95b1b195960ba1b6044820152606490fd5b60405162461bcd60e51b81526020600482015260096024820152681b9bdd08199bdd5b9960ba1b6044820152606490fd5b3461015957610d1536610dab565b905f52600860205260405f2080548210156101595760209161037b91610dc1565b3461015957604036600319011261015957610d4f610d7f565b6004355f52600760205260405f209060018060a01b03165f52602052602060ff60405f2054166040519015158152f35b602435906001600160a01b038216820361015957565b600435906001600160a01b038216820361015957565b6040906003190112610159576004359060243590565b8054821015610dd6575f5260205f2001905f90565b634e487b7160e01b5f52603260045260245ffd5b6101a081019081106001600160401b03821117610b1757604052565b90601f801991011681019081106001600160401b03821117610b1757604052565b5f546001600160a01b03163303610e3a57565b63118cdaa760e01b5f523360045260245ffdfea2646970667358221220c95868233aac021db50fdaeb9d20b25d35839abf2354a57d2d74d394050c20b764736f6c634300081a0033",
					"opcodes": "PUSH1 0x80 CALLVALUE PUSH2 0x15B JUMPI PUSH1 0x1F PUSH2 0x100B CODESIZE DUP2 SWAP1 SUB SWAP2 DUP3 ADD PUSH1 0x1F NOT AND DUP4 ADD SWAP2 PUSH1 0x1 PUSH1 0x1 PUSH1 0x40 SHL SUB DUP4 GT DUP5 DUP5 LT OR PUSH2 0x15F JUMPI DUP1 DUP5 SWAP3 PUSH1 0x40 SWAP5 DUP6 MSTORE DUP4 CODECOPY DUP2 ADD SUB SLT PUSH2 0x15B JUMPI PUSH2 0x52 PUSH1 0x20 PUSH2 0x4B DUP4 PUSH2 0x173 JUMP JUMPDEST SWAP3 ADD PUSH2 0x173 JUMP JUMPDEST CALLER ISZERO PUSH2 0x148 JUMPI PUSH0 DUP1 SLOAD CALLER PUSH1 0x1 PUSH1 0x1 PUSH1 0xA0 SHL SUB NOT DUP3 AND DUP2 OR DUP4 SSTORE PUSH1 0x40 MLOAD SWAP5 SWAP3 SWAP1 SWAP2 PUSH1 0x1 PUSH1 0x1 PUSH1 0xA0 SHL SUB AND SWAP1 PUSH32 0x8BE0079C531659141344CD1FD0A4F28419497F9722A3DAAFE3B4186F6B6457E0 SWAP1 DUP1 LOG3 PUSH1 0x1 DUP1 SSTORE PUSH1 0x1 PUSH1 0x1 PUSH1 0xA0 SHL SUB AND DUP1 PUSH2 0x10C JUMPI JUMPDEST POP PUSH1 0x1 PUSH1 0x1 PUSH1 0xA0 SHL SUB AND DUP1 PUSH2 0xD0 JUMPI JUMPDEST POP PUSH2 0xE83 SWAP1 DUP2 PUSH2 0x188 DUP3 CODECOPY RETURN JUMPDEST PUSH1 0x3 DUP1 SLOAD PUSH1 0x1 PUSH1 0x1 PUSH1 0xA0 SHL SUB NOT AND DUP3 OR SWAP1 SSTORE PUSH32 0x523584DD19B074BF12112A06B4CCFC2C91696564A12A6D76CDAA62C87DA72868 PUSH0 DUP1 LOG2 PUSH0 PUSH2 0xC3 JUMP JUMPDEST PUSH1 0x2 DUP1 SLOAD PUSH1 0x1 PUSH1 0x1 PUSH1 0xA0 SHL SUB NOT AND DUP3 OR SWAP1 SSTORE PUSH32 0x87B050F471F7331BFD8FC9347CD54894F2AE6663E3339E49CA0D8B2DBE792EB2 PUSH0 DUP1 LOG2 PUSH0 PUSH2 0xB3 JUMP JUMPDEST PUSH4 0x1E4FBDF7 PUSH1 0xE0 SHL PUSH0 MSTORE PUSH0 PUSH1 0x4 MSTORE PUSH1 0x24 PUSH0 REVERT JUMPDEST PUSH0 DUP1 REVERT JUMPDEST PUSH4 0x4E487B71 PUSH1 0xE0 SHL PUSH0 MSTORE PUSH1 0x41 PUSH1 0x4 MSTORE PUSH1 0x24 PUSH0 REVERT JUMPDEST MLOAD SWAP1 PUSH1 0x1 PUSH1 0x1 PUSH1 0xA0 SHL SUB DUP3 AND DUP3 SUB PUSH2 0x15B JUMPI JUMP INVALID PUSH1 0x80 PUSH1 0x40 MSTORE PUSH1 0x4 CALLDATASIZE LT ISZERO PUSH2 0x11 JUMPI PUSH0 DUP1 REVERT JUMPDEST PUSH0 CALLDATALOAD PUSH1 0xE0 SHR DUP1 PUSH4 0x73C74F3 EQ PUSH2 0xD36 JUMPI DUP1 PUSH4 0xEFC8865 EQ PUSH2 0xD07 JUMPI DUP1 PUSH4 0x193F453E EQ PUSH2 0x92B JUMPI DUP1 PUSH4 0x2E1352C3 EQ PUSH2 0x4F4 JUMPI DUP1 PUSH4 0x3E06DF3D EQ PUSH2 0x408 JUMPI DUP1 PUSH4 0x6AC56AC0 EQ PUSH2 0x3EB JUMPI DUP1 PUSH4 0x715018A6 EQ PUSH2 0x394 JUMPI DUP1 PUSH4 0x81FB1FB4 EQ PUSH2 0x34C JUMPI DUP1 PUSH4 0x873F6F9E EQ PUSH2 0x303 JUMPI DUP1 PUSH4 0x8DA5CB5B EQ PUSH2 0x2DC JUMPI DUP1 PUSH4 0xA0CF0AEA EQ PUSH2 0x2C2 JUMPI DUP1 PUSH4 0xA14EA2B8 EQ PUSH2 0x29A JUMPI DUP1 PUSH4 0xB15FBC14 EQ PUSH2 0x234 JUMPI DUP1 PUSH4 0xBDD415AF EQ PUSH2 0x1EB JUMPI DUP1 PUSH4 0xCE9BF5AC EQ PUSH2 0x1C3 JUMPI DUP1 PUSH4 0xE6414E37 EQ PUSH2 0x15D JUMPI PUSH4 0xF2FDE38B EQ PUSH2 0xD4 JUMPI PUSH0 DUP1 REVERT JUMPDEST CALLVALUE PUSH2 0x159 JUMPI PUSH1 0x20 CALLDATASIZE PUSH1 0x3 NOT ADD SLT PUSH2 0x159 JUMPI PUSH2 0xED PUSH2 0xD95 JUMP JUMPDEST PUSH2 0xF5 PUSH2 0xE27 JUMP JUMPDEST PUSH1 0x1 PUSH1 0x1 PUSH1 0xA0 SHL SUB AND DUP1 ISZERO PUSH2 0x146 JUMPI PUSH0 DUP1 SLOAD PUSH1 0x1 PUSH1 0x1 PUSH1 0xA0 SHL SUB NOT DUP2 AND DUP4 OR DUP3 SSTORE PUSH1 0x1 PUSH1 0x1 PUSH1 0xA0 SHL SUB AND SWAP1 PUSH32 0x8BE0079C531659141344CD1FD0A4F28419497F9722A3DAAFE3B4186F6B6457E0 SWAP1 DUP1 LOG3 STOP JUMPDEST PUSH4 0x1E4FBDF7 PUSH1 0xE0 SHL PUSH0 MSTORE PUSH0 PUSH1 0x4 MSTORE PUSH1 0x24 PUSH0 REVERT JUMPDEST PUSH0 DUP1 REVERT JUMPDEST CALLVALUE PUSH2 0x159 JUMPI PUSH1 0x20 CALLDATASIZE PUSH1 0x3 NOT ADD SLT PUSH2 0x159 JUMPI PUSH2 0x176 PUSH2 0xD95 JUMP JUMPDEST PUSH2 0x17E PUSH2 0xE27 JUMP JUMPDEST PUSH1 0x3 DUP1 SLOAD PUSH1 0x1 PUSH1 0x1 PUSH1 0xA0 SHL SUB NOT AND PUSH1 0x1 PUSH1 0x1 PUSH1 0xA0 SHL SUB SWAP3 SWAP1 SWAP3 AND SWAP2 DUP3 OR SWAP1 SSTORE PUSH32 0x523584DD19B074BF12112A06B4CCFC2C91696564A12A6D76CDAA62C87DA72868 PUSH0 DUP1 LOG2 STOP JUMPDEST CALLVALUE PUSH2 0x159 JUMPI PUSH0 CALLDATASIZE PUSH1 0x3 NOT ADD SLT PUSH2 0x159 JUMPI PUSH1 0x2 SLOAD PUSH1 0x40 MLOAD PUSH1 0x1 PUSH1 0x1 PUSH1 0xA0 SHL SUB SWAP1 SWAP2 AND DUP2 MSTORE PUSH1 0x20 SWAP1 RETURN JUMPDEST CALLVALUE PUSH2 0x159 JUMPI PUSH1 0x40 CALLDATASIZE PUSH1 0x3 NOT ADD SLT PUSH2 0x159 JUMPI PUSH2 0x204 PUSH2 0xD7F JUMP JUMPDEST PUSH1 0x4 CALLDATALOAD PUSH0 MSTORE PUSH1 0x9 PUSH1 0x20 MSTORE PUSH1 0x40 PUSH0 KECCAK256 SWAP1 PUSH1 0x1 DUP1 PUSH1 0xA0 SHL SUB AND PUSH0 MSTORE PUSH1 0x20 MSTORE PUSH1 0x20 PUSH1 0xFF PUSH1 0x40 PUSH0 KECCAK256 SLOAD AND PUSH1 0x40 MLOAD SWAP1 ISZERO ISZERO DUP2 MSTORE RETURN JUMPDEST CALLVALUE PUSH2 0x159 JUMPI PUSH1 0x20 CALLDATASIZE PUSH1 0x3 NOT ADD SLT PUSH2 0x159 JUMPI PUSH2 0x24D PUSH2 0xD95 JUMP JUMPDEST PUSH2 0x255 PUSH2 0xE27 JUMP JUMPDEST PUSH1 0x2 DUP1 SLOAD PUSH1 0x1 PUSH1 0x1 PUSH1 0xA0 SHL SUB NOT AND PUSH1 0x1 PUSH1 0x1 PUSH1 0xA0 SHL SUB SWAP3 SWAP1 SWAP3 AND SWAP2 DUP3 OR SWAP1 SSTORE PUSH32 0x87B050F471F7331BFD8FC9347CD54894F2AE6663E3339E49CA0D8B2DBE792EB2 PUSH0 DUP1 LOG2 STOP JUMPDEST CALLVALUE PUSH2 0x159 JUMPI PUSH0 CALLDATASIZE PUSH1 0x3 NOT ADD SLT PUSH2 0x159 JUMPI PUSH1 0x3 SLOAD PUSH1 0x40 MLOAD PUSH1 0x1 PUSH1 0x1 PUSH1 0xA0 SHL SUB SWAP1 SWAP2 AND DUP2 MSTORE PUSH1 0x20 SWAP1 RETURN JUMPDEST CALLVALUE PUSH2 0x159 JUMPI PUSH0 CALLDATASIZE PUSH1 0x3 NOT ADD SLT PUSH2 0x159 JUMPI PUSH1 0x20 PUSH1 0x40 MLOAD PUSH0 DUP2 MSTORE RETURN JUMPDEST CALLVALUE PUSH2 0x159 JUMPI PUSH0 CALLDATASIZE PUSH1 0x3 NOT ADD SLT PUSH2 0x159 JUMPI PUSH0 SLOAD PUSH1 0x40 MLOAD PUSH1 0x1 PUSH1 0x1 PUSH1 0xA0 SHL SUB SWAP1 SWAP2 AND DUP2 MSTORE PUSH1 0x20 SWAP1 RETURN JUMPDEST CALLVALUE PUSH2 0x159 JUMPI PUSH1 0x40 CALLDATASIZE PUSH1 0x3 NOT ADD SLT PUSH2 0x159 JUMPI PUSH2 0x31C PUSH2 0xD7F JUMP JUMPDEST PUSH1 0x4 CALLDATALOAD PUSH0 MSTORE PUSH1 0xA PUSH1 0x20 MSTORE PUSH1 0x40 PUSH0 KECCAK256 SWAP1 PUSH1 0x1 DUP1 PUSH1 0xA0 SHL SUB AND PUSH0 MSTORE PUSH1 0x20 MSTORE PUSH1 0x20 PUSH1 0xFF PUSH1 0x40 PUSH0 KECCAK256 SLOAD AND PUSH1 0x40 MLOAD SWAP1 ISZERO ISZERO DUP2 MSTORE RETURN JUMPDEST CALLVALUE PUSH2 0x159 JUMPI PUSH2 0x35A CALLDATASIZE PUSH2 0xDAB JUMP JUMPDEST SWAP1 PUSH0 MSTORE PUSH1 0x6 PUSH1 0x20 MSTORE PUSH1 0x40 PUSH0 KECCAK256 DUP1 SLOAD DUP3 LT ISZERO PUSH2 0x159 JUMPI PUSH1 0x20 SWAP2 PUSH2 0x37B SWAP2 PUSH2 0xDC1 JUMP JUMPDEST SWAP1 SLOAD PUSH1 0x40 MLOAD PUSH1 0x3 SWAP3 SWAP1 SWAP3 SHL SHR PUSH1 0x1 PUSH1 0x1 PUSH1 0xA0 SHL SUB AND DUP2 MSTORE RETURN JUMPDEST CALLVALUE PUSH2 0x159 JUMPI PUSH0 CALLDATASIZE PUSH1 0x3 NOT ADD SLT PUSH2 0x159 JUMPI PUSH2 0x3AC PUSH2 0xE27 JUMP JUMPDEST PUSH0 DUP1 SLOAD PUSH1 0x1 PUSH1 0x1 PUSH1 0xA0 SHL SUB NOT DUP2 AND DUP3 SSTORE PUSH1 0x1 PUSH1 0x1 PUSH1 0xA0 SHL SUB AND PUSH32 0x8BE0079C531659141344CD1FD0A4F28419497F9722A3DAAFE3B4186F6B6457E0 DUP3 DUP1 LOG3 STOP JUMPDEST CALLVALUE PUSH2 0x159 JUMPI PUSH0 CALLDATASIZE PUSH1 0x3 NOT ADD SLT PUSH2 0x159 JUMPI PUSH1 0x20 PUSH1 0x4 SLOAD PUSH1 0x40 MLOAD SWAP1 DUP2 MSTORE RETURN JUMPDEST CALLVALUE PUSH2 0x159 JUMPI PUSH1 0x20 CALLDATASIZE PUSH1 0x3 NOT ADD SLT PUSH2 0x159 JUMPI PUSH1 0x4 CALLDATALOAD PUSH0 MSTORE PUSH1 0x5 PUSH1 0x20 MSTORE PUSH2 0x1A0 PUSH1 0x40 PUSH0 KECCAK256 PUSH1 0x1 DUP1 PUSH1 0xA0 SHL SUB DUP2 SLOAD AND SWAP1 PUSH1 0x1 DUP1 PUSH1 0xA0 SHL SUB PUSH1 0x1 DUP3 ADD SLOAD AND SWAP1 PUSH1 0xFF PUSH1 0x2 DUP3 ADD SLOAD PUSH1 0x3 DUP4 ADD SLOAD SWAP1 PUSH1 0x5 PUSH1 0x4 DUP6 ADD SLOAD SWAP5 ADD SLOAD SWAP5 PUSH1 0x40 MLOAD SWAP7 DUP8 MSTORE PUSH1 0x20 DUP8 ADD MSTORE PUSH1 0x40 DUP7 ADD MSTORE PUSH1 0x1 PUSH1 0x1 PUSH1 0x40 SHL SUB DUP2 AND PUSH1 0x60 DUP7 ADD MSTORE PUSH1 0x1 PUSH1 0x1 PUSH1 0x40 SHL SUB DUP2 PUSH1 0x40 SHR AND PUSH1 0x80 DUP7 ADD MSTORE PUSH4 0xFFFFFFFF DUP2 PUSH1 0x80 SHR AND PUSH1 0xA0 DUP7 ADD MSTORE DUP2 DUP2 PUSH1 0xA0 SHR AND ISZERO ISZERO PUSH1 0xC0 DUP7 ADD MSTORE PUSH1 0xA8 SHR AND ISZERO ISZERO PUSH1 0xE0 DUP5 ADD MSTORE PUSH2 0x100 DUP4 ADD MSTORE PUSH4 0xFFFFFFFF DUP2 AND PUSH2 0x120 DUP4 ADD MSTORE PUSH4 0xFFFFFFFF DUP2 PUSH1 0x20 SHR AND PUSH2 0x140 DUP4 ADD MSTORE PUSH1 0x1 PUSH1 0x1 PUSH1 0x60 SHL SUB DUP2 PUSH1 0x40 SHR AND PUSH2 0x160 DUP4 ADD MSTORE PUSH1 0xA0 SHR PUSH2 0x180 DUP3 ADD MSTORE RETURN JUMPDEST PUSH1 0xA0 CALLDATASIZE PUSH1 0x3 NOT ADD SLT PUSH2 0x159 JUMPI PUSH2 0x508 PUSH2 0xD95 JUMP JUMPDEST PUSH1 0x24 CALLDATALOAD PUSH1 0x44 CALLDATALOAD PUSH1 0x1 PUSH1 0x1 PUSH1 0x40 SHL SUB DUP2 AND SWAP2 DUP3 DUP3 SUB PUSH2 0x159 JUMPI PUSH1 0x64 CALLDATALOAD SWAP4 PUSH1 0x1 PUSH1 0x1 PUSH1 0x40 SHL SUB DUP6 AND DUP1 SWAP6 SUB PUSH2 0x159 JUMPI PUSH1 0x84 CALLDATALOAD SWAP3 PUSH4 0xFFFFFFFF DUP5 AND DUP1 SWAP5 SUB PUSH2 0x159 JUMPI SWAP4 DUP3 ISZERO PUSH2 0x8FB JUMPI PUSH1 0x1 DUP5 LT PUSH2 0x8CA JUMPI DUP6 ISZERO DUP1 ISZERO PUSH2 0x8C1 JUMPI JUMPDEST ISZERO PUSH2 0x896 JUMPI ISZERO PUSH2 0x885 JUMPI JUMPDEST PUSH1 0x1 PUSH1 0x1 PUSH1 0xA0 SHL SUB AND SWAP2 DUP3 PUSH2 0x7DA JUMPI DUP2 CALLVALUE SUB PUSH2 0x7A9 JUMPI JUMPDEST PUSH1 0x4 SLOAD SWAP5 PUSH0 NOT DUP7 EQ PUSH2 0x795 JUMPI PUSH1 0x1 PUSH1 0x20 SWAP7 ADD SWAP5 DUP6 PUSH1 0x4 SSTORE PUSH0 DUP1 DUP1 DUP9 PUSH4 0xFFFFFFFF PUSH1 0x5 PUSH1 0x40 MLOAD PUSH2 0x5AF DUP2 PUSH2 0xDEA JUMP JUMPDEST CALLER DUP2 MSTORE DUP14 DUP2 ADD DUP13 DUP2 MSTORE PUSH1 0x40 DUP3 ADD SWAP9 DUP13 DUP11 MSTORE PUSH1 0x1 PUSH1 0x1 PUSH1 0x40 SHL SUB PUSH1 0x60 DUP5 ADD SWAP2 AND SWAP10 DUP11 DUP3 MSTORE PUSH1 0x80 DUP5 ADD SWAP1 DUP13 DUP3 MSTORE DUP14 PUSH1 0xA0 DUP7 ADD SWAP1 DUP2 MSTORE PUSH1 0xC0 DUP7 ADD SWAP1 DUP11 DUP3 MSTORE PUSH1 0xE0 DUP8 ADD SWAP3 DUP12 DUP5 MSTORE PUSH2 0x100 DUP9 ADD SWAP7 DUP13 DUP9 MSTORE PUSH2 0x120 DUP10 ADD SWAP15 DUP16 MSTORE PUSH2 0x140 DUP10 ADD SWAP14 DUP15 MSTORE PUSH2 0x160 DUP10 ADD SWAP12 DUP14 DUP14 MSTORE PUSH2 0x180 DUP11 ADD SWAP14 DUP15 MSTORE PUSH0 MSTORE PUSH1 0x20 DUP11 SWAP1 MSTORE PUSH1 0x40 PUSH0 KECCAK256 SWAP9 PUSH1 0x1 DUP1 PUSH1 0xA0 SHL SUB SWAP1 PUSH1 0x1 DUP1 PUSH1 0xA0 SHL SUB SWAP1 MLOAD AND AND PUSH1 0x1 PUSH1 0x1 PUSH1 0x60 SHL SUB PUSH1 0xA0 SHL DUP11 SLOAD AND OR DUP10 SSTORE PUSH1 0x1 DUP1 PUSH1 0xA0 SHL SUB SWAP1 MLOAD AND PUSH1 0x1 DUP10 ADD SWAP1 PUSH1 0x1 DUP1 PUSH1 0xA0 SHL SUB AND PUSH1 0x1 PUSH1 0x1 PUSH1 0x60 SHL SUB PUSH1 0xA0 SHL DUP3 SLOAD AND OR SWAP1 SSTORE MLOAD PUSH1 0x2 DUP9 ADD SSTORE PUSH1 0x1 PUSH1 0x1 PUSH1 0x40 SHL SUB PUSH1 0x3 DUP9 ADD SWAP6 MLOAD AND SWAP1 PUSH16 0xFFFFFFFFFFFFFFFF0000000000000000 DUP7 SLOAD SWAP6 MLOAD PUSH1 0x40 SHL AND SWAP1 DUP11 PUSH1 0x80 SHL SWAP1 MLOAD PUSH1 0x80 SHL AND SWAP3 MLOAD ISZERO ISZERO PUSH1 0xA0 SHL SWAP4 PUSH1 0xFF PUSH1 0xA8 SHL SWAP1 MLOAD ISZERO ISZERO PUSH1 0xA8 SHL AND SWAP5 PUSH1 0xFF PUSH1 0xA8 SHL NOT SWAP3 PUSH1 0xFF PUSH1 0xA0 SHL NOT SWAP2 PUSH1 0x1 PUSH1 0x1 PUSH1 0x60 SHL SUB PUSH1 0xA0 SHL AND OR AND OR AND OR SWAP1 PUSH1 0xFF PUSH1 0xA0 SHL AND OR OR SWAP1 SSTORE MLOAD PUSH1 0x4 DUP3 ADD SSTORE ADD SWAP5 MLOAD AND SWAP3 PUSH20 0xFFFFFFFFFFFFFFFFFFFFFFFF0000000000000000 PUSH8 0xFFFFFFFF00000000 DUP7 SLOAD SWAP3 MLOAD DUP15 SHL AND SWAP3 MLOAD PUSH1 0x40 SHL AND SWAP3 PUSH1 0x1 PUSH1 0x1 PUSH1 0x60 SHL SUB PUSH1 0xA0 SHL SWAP1 MLOAD PUSH1 0xA0 SHL AND SWAP4 PUSH1 0x1 DUP1 PUSH1 0xA0 SHL SUB SWAP2 PUSH1 0x1 PUSH1 0x1 PUSH1 0x60 SHL SUB PUSH1 0xA0 SHL AND OR AND OR OR OR SWAP1 SSTORE PUSH1 0x40 MLOAD SWAP4 DUP5 MSTORE DUP7 DUP5 ADD MSTORE PUSH1 0x40 DUP4 ADD MSTORE PUSH1 0x60 DUP3 ADD MSTORE DUP3 PUSH32 0x962C97B71F3C7F35B27F4570B64D7B71858ECD66DA4AD735B2B15AD782CC69D7 PUSH1 0x80 CALLER SWAP4 LOG4 PUSH1 0x40 MLOAD SWAP1 DUP2 MSTORE RETURN JUMPDEST PUSH4 0x4E487B71 PUSH1 0xE0 SHL PUSH0 MSTORE PUSH1 0x11 PUSH1 0x4 MSTORE PUSH1 0x24 PUSH0 REVERT JUMPDEST PUSH1 0x40 MLOAD PUSH3 0x461BCD PUSH1 0xE5 SHL DUP2 MSTORE PUSH1 0x20 PUSH1 0x4 DUP3 ADD MSTORE PUSH1 0x9 PUSH1 0x24 DUP3 ADD MSTORE PUSH9 0x6261642076616C7565 PUSH1 0xB8 SHL PUSH1 0x44 DUP3 ADD MSTORE PUSH1 0x64 SWAP1 REVERT JUMPDEST PUSH1 0x20 PUSH0 PUSH1 0x40 MLOAD DUP3 DUP2 ADD SWAP1 PUSH4 0x23B872DD PUSH1 0xE0 SHL DUP3 MSTORE CALLER PUSH1 0x24 DUP3 ADD MSTORE ADDRESS PUSH1 0x44 DUP3 ADD MSTORE DUP6 PUSH1 0x64 DUP3 ADD MSTORE PUSH1 0x64 DUP2 MSTORE PUSH2 0x80F PUSH1 0x84 DUP3 PUSH2 0xE06 JUMP JUMPDEST MLOAD SWAP1 DUP3 DUP8 GAS CALL ISZERO PUSH2 0x87A JUMPI PUSH0 MLOAD RETURNDATASIZE PUSH2 0x871 JUMPI POP DUP3 EXTCODESIZE ISZERO JUMPDEST PUSH2 0x85E JUMPI CALLVALUE ISZERO PUSH2 0x581 JUMPI PUSH1 0x40 MLOAD PUSH3 0x461BCD PUSH1 0xE5 SHL DUP2 MSTORE PUSH1 0x20 PUSH1 0x4 DUP3 ADD MSTORE PUSH1 0x6 PUSH1 0x24 DUP3 ADD MSTORE PUSH6 0xDCDE40CAE8D PUSH1 0xD3 SHL PUSH1 0x44 DUP3 ADD MSTORE PUSH1 0x64 SWAP1 REVERT JUMPDEST DUP3 PUSH4 0x5274AFE7 PUSH1 0xE0 SHL PUSH0 MSTORE PUSH1 0x4 MSTORE PUSH1 0x24 PUSH0 REVERT JUMPDEST PUSH1 0x1 EQ ISZERO PUSH2 0x826 JUMP JUMPDEST PUSH1 0x40 MLOAD RETURNDATASIZE PUSH0 DUP3 RETURNDATACOPY RETURNDATASIZE SWAP1 REVERT JUMPDEST TIMESTAMP PUSH1 0x1 PUSH1 0x1 PUSH1 0x40 SHL SUB AND SWAP4 POP PUSH2 0x56A JUMP JUMPDEST PUSH1 0x64 PUSH1 0x40 MLOAD PUSH3 0x461BCD PUSH1 0xE5 SHL DUP2 MSTORE PUSH1 0x20 PUSH1 0x4 DUP3 ADD MSTORE PUSH1 0x4 PUSH1 0x24 DUP3 ADD MSTORE PUSH4 0x74696D65 PUSH1 0xE0 SHL PUSH1 0x44 DUP3 ADD MSTORE REVERT JUMPDEST POP DUP1 DUP7 GT PUSH2 0x55F JUMP JUMPDEST PUSH1 0x40 MLOAD PUSH3 0x461BCD PUSH1 0xE5 SHL DUP2 MSTORE PUSH1 0x20 PUSH1 0x4 DUP3 ADD MSTORE PUSH1 0x9 PUSH1 0x24 DUP3 ADD MSTORE PUSH9 0x77696E6E6572733D3 PUSH1 0xBC SHL PUSH1 0x44 DUP3 ADD MSTORE PUSH1 0x64 SWAP1 REVERT JUMPDEST PUSH1 0x40 MLOAD PUSH3 0x461BCD PUSH1 0xE5 SHL DUP2 MSTORE PUSH1 0x20 PUSH1 0x4 DUP3 ADD MSTORE PUSH1 0x8 PUSH1 0x24 DUP3 ADD MSTORE PUSH8 0x616D6F756E743D3 PUSH1 0xC4 SHL PUSH1 0x44 DUP3 ADD MSTORE PUSH1 0x64 SWAP1 REVERT JUMPDEST CALLVALUE PUSH2 0x159 JUMPI PUSH1 0x20 CALLDATASIZE PUSH1 0x3 NOT ADD SLT PUSH2 0x159 JUMPI PUSH1 0x4 CALLDATALOAD DUP1 PUSH0 MSTORE PUSH1 0x5 PUSH1 0x20 MSTORE PUSH1 0x40 PUSH0 KECCAK256 PUSH1 0x40 MLOAD PUSH2 0x957 DUP2 PUSH2 0xDEA JUMP JUMPDEST PUSH1 0x1 DUP1 PUSH1 0xA0 SHL SUB DUP3 SLOAD AND DUP1 DUP3 MSTORE PUSH1 0x1 DUP1 PUSH1 0xA0 SHL SUB PUSH1 0x1 DUP5 ADD SLOAD AND PUSH1 0x20 DUP4 ADD MSTORE PUSH1 0x2 DUP4 ADD SLOAD PUSH1 0x40 DUP4 ADD MSTORE PUSH1 0x3 DUP4 ADD SLOAD PUSH1 0x60 DUP4 ADD SWAP2 PUSH1 0x1 PUSH1 0x1 PUSH1 0x40 SHL SUB DUP3 AND DUP4 MSTORE PUSH1 0x80 DUP5 ADD SWAP4 PUSH1 0x1 PUSH1 0x1 PUSH1 0x40 SHL SUB DUP4 PUSH1 0x40 SHR AND DUP6 MSTORE PUSH4 0xFFFFFFFF DUP4 PUSH1 0x80 SHR AND PUSH1 0xA0 DUP3 ADD MSTORE PUSH2 0x180 PUSH1 0x5 PUSH1 0xC0 DUP4 ADD SWAP8 PUSH1 0xFF DUP7 PUSH1 0xA0 SHR AND ISZERO ISZERO DUP10 MSTORE PUSH1 0xFF PUSH1 0xE0 DUP6 ADD SWAP7 PUSH1 0xA8 SHR AND ISZERO ISZERO DUP7 MSTORE PUSH1 0x4 DUP2 ADD SLOAD PUSH2 0x100 DUP6 ADD MSTORE ADD SLOAD PUSH4 0xFFFFFFFF DUP2 AND PUSH2 0x120 DUP5 ADD MSTORE PUSH4 0xFFFFFFFF DUP2 PUSH1 0x20 SHR AND PUSH2 0x140 DUP5 ADD MSTORE PUSH1 0x1 PUSH1 0x1 PUSH1 0x60 SHL SUB DUP2 PUSH1 0x40 SHR AND PUSH2 0x160 DUP5 ADD MSTORE PUSH1 0xA0 SHR SWAP2 ADD MSTORE ISZERO PUSH2 0xCD6 JUMPI MLOAD PUSH2 0xCA5 JUMPI MLOAD PUSH1 0x1 PUSH1 0x1 PUSH1 0x40 SHL SUB AND TIMESTAMP LT PUSH2 0xC72 JUMPI MLOAD PUSH1 0x1 PUSH1 0x1 PUSH1 0x40 SHL SUB AND DUP1 PUSH2 0xC39 JUMPI JUMPDEST POP MLOAD PUSH2 0xC04 JUMPI PUSH1 0x3 SLOAD PUSH1 0x1 PUSH1 0x1 PUSH1 0xA0 SHL SUB AND DUP1 PUSH2 0xB5A JUMPI JUMPDEST POP PUSH0 DUP2 DUP2 MSTORE PUSH1 0x7 PUSH1 0x20 SWAP1 DUP2 MSTORE PUSH1 0x40 DUP1 DUP4 KECCAK256 CALLER DUP5 MSTORE SWAP1 SWAP2 MSTORE SWAP1 KECCAK256 SLOAD PUSH1 0xFF AND PUSH2 0xB2B JUMPI PUSH0 DUP2 DUP2 MSTORE PUSH1 0x7 PUSH1 0x20 SWAP1 DUP2 MSTORE PUSH1 0x40 DUP1 DUP4 KECCAK256 CALLER DUP5 MSTORE DUP3 MSTORE DUP1 DUP4 KECCAK256 DUP1 SLOAD PUSH1 0xFF NOT AND PUSH1 0x1 OR SWAP1 SSTORE DUP4 DUP4 MSTORE PUSH1 0x6 SWAP1 SWAP2 MSTORE SWAP1 KECCAK256 DUP1 SLOAD PUSH9 0x10000000000000000 DUP2 LT ISZERO PUSH2 0xB17 JUMPI PUSH2 0xAD2 SWAP2 PUSH1 0x1 DUP3 ADD DUP2 SSTORE PUSH2 0xDC1 JUMP JUMPDEST DUP2 SLOAD PUSH1 0x1 PUSH1 0x1 PUSH1 0xA0 SHL SUB PUSH1 0x3 SWAP3 SWAP1 SWAP3 SHL SWAP2 DUP3 SHL NOT AND CALLER SWAP2 DUP3 SWAP1 SHL OR SWAP1 SWAP2 SSTORE SWAP1 PUSH32 0xB6FD8C45CC3179470A3187D092B90E5C003137B502DEE828ED4ABA08D714CEC6 PUSH0 DUP1 LOG3 STOP JUMPDEST PUSH4 0x4E487B71 PUSH1 0xE0 SHL PUSH0 MSTORE PUSH1 0x41 PUSH1 0x4 MSTORE PUSH1 0x24 PUSH0 REVERT JUMPDEST PUSH1 0x40 MLOAD PUSH3 0x461BCD PUSH1 0xE5 SHL DUP2 MSTORE PUSH1 0x20 PUSH1 0x4 DUP3 ADD MSTORE PUSH1 0x7 PUSH1 0x24 DUP3 ADD MSTORE PUSH7 0x616C7265616479 PUSH1 0xC8 SHL PUSH1 0x44 DUP3 ADD MSTORE PUSH1 0x64 SWAP1 REVERT JUMPDEST PUSH1 0x20 PUSH1 0x44 SWAP2 PUSH1 0x40 MLOAD SWAP3 DUP4 DUP1 SWAP3 PUSH3 0x2C9707 PUSH1 0xE9 SHL DUP3 MSTORE DUP7 PUSH1 0x4 DUP4 ADD MSTORE CALLER PUSH1 0x24 DUP4 ADD MSTORE GAS STATICCALL SWAP1 DUP2 ISZERO PUSH2 0x87A JUMPI PUSH0 SWAP2 PUSH2 0xBC9 JUMPI JUMPDEST POP ISZERO PUSH2 0xB97 JUMPI DUP2 PUSH2 0xA62 JUMP JUMPDEST PUSH1 0x40 MLOAD PUSH3 0x461BCD PUSH1 0xE5 SHL DUP2 MSTORE PUSH1 0x20 PUSH1 0x4 DUP3 ADD MSTORE PUSH1 0xA PUSH1 0x24 DUP3 ADD MSTORE PUSH10 0x696E656C696769626C65 PUSH1 0xB0 SHL PUSH1 0x44 DUP3 ADD MSTORE PUSH1 0x64 SWAP1 REVERT JUMPDEST SWAP1 POP PUSH1 0x20 DUP2 RETURNDATASIZE PUSH1 0x20 GT PUSH2 0xBFC JUMPI JUMPDEST DUP2 PUSH2 0xBE4 PUSH1 0x20 SWAP4 DUP4 PUSH2 0xE06 JUMP JUMPDEST DUP2 ADD SUB SLT PUSH2 0x159 JUMPI MLOAD DUP1 ISZERO ISZERO DUP2 SUB PUSH2 0x159 JUMPI DUP3 PUSH2 0xB8B JUMP JUMPDEST RETURNDATASIZE SWAP2 POP PUSH2 0xBD7 JUMP JUMPDEST PUSH1 0x40 MLOAD PUSH3 0x461BCD PUSH1 0xE5 SHL DUP2 MSTORE PUSH1 0x20 PUSH1 0x4 DUP3 ADD MSTORE PUSH1 0xD PUSH1 0x24 DUP3 ADD MSTORE PUSH13 0x30B63932B0B23C90323930BBB7 PUSH1 0x99 SHL PUSH1 0x44 DUP3 ADD MSTORE PUSH1 0x64 SWAP1 REVERT JUMPDEST TIMESTAMP GT PUSH2 0xC45 JUMPI DUP3 PUSH2 0xA4A JUMP JUMPDEST PUSH1 0x40 MLOAD PUSH3 0x461BCD PUSH1 0xE5 SHL DUP2 MSTORE PUSH1 0x20 PUSH1 0x4 DUP3 ADD MSTORE PUSH1 0x5 PUSH1 0x24 DUP3 ADD MSTORE PUSH5 0x195B991959 PUSH1 0xDA SHL PUSH1 0x44 DUP3 ADD MSTORE PUSH1 0x64 SWAP1 REVERT JUMPDEST PUSH1 0x40 MLOAD PUSH3 0x461BCD PUSH1 0xE5 SHL DUP2 MSTORE PUSH1 0x20 PUSH1 0x4 DUP3 ADD MSTORE PUSH1 0xB PUSH1 0x24 DUP3 ADD MSTORE PUSH11 0x1B9BDD081CDD185C9D1959 PUSH1 0xAA SHL PUSH1 0x44 DUP3 ADD MSTORE PUSH1 0x64 SWAP1 REVERT JUMPDEST PUSH1 0x40 MLOAD PUSH3 0x461BCD PUSH1 0xE5 SHL DUP2 MSTORE PUSH1 0x20 PUSH1 0x4 DUP3 ADD MSTORE PUSH1 0x9 PUSH1 0x24 DUP3 ADD MSTORE PUSH9 0x18D85B98D95B1B1959 PUSH1 0xBA SHL PUSH1 0x44 DUP3 ADD MSTORE PUSH1 0x64 SWAP1 REVERT JUMPDEST PUSH1 0x40 MLOAD PUSH3 0x461BCD PUSH1 0xE5 SHL DUP2 MSTORE PUSH1 0x20 PUSH1 0x4 DUP3 ADD MSTORE PUSH1 0x9 PUSH1 0x24 DUP3 ADD MSTORE PUSH9 0x1B9BDD08199BDD5B99 PUSH1 0xBA SHL PUSH1 0x44 DUP3 ADD MSTORE PUSH1 0x64 SWAP1 REVERT JUMPDEST CALLVALUE PUSH2 0x159 JUMPI PUSH2 0xD15 CALLDATASIZE PUSH2 0xDAB JUMP JUMPDEST SWAP1 PUSH0 MSTORE PUSH1 0x8 PUSH1 0x20 MSTORE PUSH1 0x40 PUSH0 KECCAK256 DUP1 SLOAD DUP3 LT ISZERO PUSH2 0x159 JUMPI PUSH1 0x20 SWAP2 PUSH2 0x37B SWAP2 PUSH2 0xDC1 JUMP JUMPDEST CALLVALUE PUSH2 0x159 JUMPI PUSH1 0x40 CALLDATASIZE PUSH1 0x3 NOT ADD SLT PUSH2 0x159 JUMPI PUSH2 0xD4F PUSH2 0xD7F JUMP JUMPDEST PUSH1 0x4 CALLDATALOAD PUSH0 MSTORE PUSH1 0x7 PUSH1 0x20 MSTORE PUSH1 0x40 PUSH0 KECCAK256 SWAP1 PUSH1 0x1 DUP1 PUSH1 0xA0 SHL SUB AND PUSH0 MSTORE PUSH1 0x20 MSTORE PUSH1 0x20 PUSH1 0xFF PUSH1 0x40 PUSH0 KECCAK256 SLOAD AND PUSH1 0x40 MLOAD SWAP1 ISZERO ISZERO DUP2 MSTORE RETURN JUMPDEST PUSH1 0x24 CALLDATALOAD SWAP1 PUSH1 0x1 PUSH1 0x1 PUSH1 0xA0 SHL SUB DUP3 AND DUP3 SUB PUSH2 0x159 JUMPI JUMP JUMPDEST PUSH1 0x4 CALLDATALOAD SWAP1 PUSH1 0x1 PUSH1 0x1 PUSH1 0xA0 SHL SUB DUP3 AND DUP3 SUB PUSH2 0x159 JUMPI JUMP JUMPDEST PUSH1 0x40 SWAP1 PUSH1 0x3 NOT ADD SLT PUSH2 0x159 JUMPI PUSH1 0x4 CALLDATALOAD SWAP1 PUSH1 0x24 CALLDATALOAD SWAP1 JUMP JUMPDEST DUP1 SLOAD DUP3 LT ISZERO PUSH2 0xDD6 JUMPI PUSH0 MSTORE PUSH1 0x20 PUSH0 KECCAK256 ADD SWAP1 PUSH0 SWAP1 JUMP JUMPDEST PUSH4 0x4E487B71 PUSH1 0xE0 SHL PUSH0 MSTORE PUSH1 0x32 PUSH1 0x4 MSTORE PUSH1 0x24 PUSH0 REVERT JUMPDEST PUSH2 0x1A0 DUP2 ADD SWAP1 DUP2 LT PUSH1 0x1 PUSH1 0x1 PUSH1 0x40 SHL SUB DUP3 GT OR PUSH2 0xB17 JUMPI PUSH1 0x40 MSTORE JUMP JUMPDEST SWAP1 PUSH1 0x1F DUP1 NOT SWAP2 ADD AND DUP2 ADD SWAP1 DUP2 LT PUSH1 0x1 PUSH1 0x1 PUSH1 0x40 SHL SUB DUP3 GT OR PUSH2 0xB17 JUMPI PUSH1 0x40 MSTORE JUMP JUMPDEST PUSH0 SLOAD PUSH1 0x1 PUSH1 0x1 PUSH1 0xA0 SHL SUB AND CALLER SUB PUSH2 0xE3A JUMPI JUMP JUMPDEST PUSH4 0x118CDAA7 PUSH1 0xE0 SHL PUSH0 MSTORE CALLER PUSH1 0x4 MSTORE PUSH1 0x24 PUSH0 REVERT INVALID LOG2 PUSH5 0x6970667358 0x22 SLT KECCAK256 0xC9 PC PUSH9 0x233AAC021DB50FDAEB SWAP14 KECCAK256 0xB2 TSTORE CALLDATALOAD DUP4 SWAP11 0xBF 0x23 SLOAD 0xA5 PUSH30 0x2D74D394050C20B764736F6C634300081A00330000000000000000000000 "
				},
				"gasEstimates": {
					"creation": {
						"codeDepositCost": "743000",
						"executionCost": "infinite",
						"totalCost": "infinite"
					},
					"external": {
						"NATIVE()": "364",
						"createGiveaway(address,uint256,uint64,uint64,uint32)": "infinite",
						"eligibilityVerifier()": "2514",
						"enterGiveaway(uint256)": "infinite",
						"giveaways(uint256)": "13336",
						"hasClaimed(uint256,address)": "2653",
						"hasEntered(uint256,address)": "2477",
						"isWinner(uint256,address)": "2763",
						"nextGiveawayId()": "2358",
						"owner()": "2469",
						"participants(uint256,uint256)": "6882",
						"randomnessProvider()": "2580",
						"renounceOwnership()": "28174",
						"setEligibilityVerifier(address)": "28086",
						"setRandomnessProvider(address)": "28020",
						"transferOwnership(address)": "28511",
						"winners(uint256,uint256)": "6750"
					}
				},
				"methodIdentifiers": {
					"NATIVE()": "a0cf0aea",
					"createGiveaway(address,uint256,uint64,uint64,uint32)": "2e1352c3",
					"eligibilityVerifier()": "a14ea2b8",
					"enterGiveaway(uint256)": "193f453e",
					"giveaways(uint256)": "3e06df3d",
					"hasClaimed(uint256,address)": "873f6f9e",
					"hasEntered(uint256,address)": "073c74f3",
					"isWinner(uint256,address)": "bdd415af",
					"nextGiveawayId()": "6ac56ac0",
					"owner()": "8da5cb5b",
					"participants(uint256,uint256)": "81fb1fb4",
					"randomnessProvider()": "ce9bf5ac",
					"renounceOwnership()": "715018a6",
					"setEligibilityVerifier(address)": "e6414e37",
					"setRandomnessProvider(address)": "b15fbc14",
					"transferOwnership(address)": "f2fde38b",
					"winners(uint256,uint256)": "0efc8865"
				}
			},
			"storageLayout": {
				"storage": [
					{
						"astId": 8,
						"contract": "src/Contract Architecture/P2P & Social Transfers/GiveawayManager.sol:GiveawayManager",
						"label": "_owner",
						"offset": 0,
						"slot": "0",
						"type": "t_address"
					},
					{
						"astId": 248,
						"contract": "src/Contract Architecture/P2P & Social Transfers/GiveawayManager.sol:GiveawayManager",
						"label": "_status",
						"offset": 0,
						"slot": "1",
						"type": "t_uint256"
					},
					{
						"astId": 933,
						"contract": "src/Contract Architecture/P2P & Social Transfers/GiveawayManager.sol:GiveawayManager",
						"label": "randomnessProvider",
						"offset": 0,
						"slot": "2",
						"type": "t_contract(IRandomnessProvider)916"
					},
					{
						"astId": 936,
						"contract": "src/Contract Architecture/P2P & Social Transfers/GiveawayManager.sol:GiveawayManager",
						"label": "eligibilityVerifier",
						"offset": 0,
						"slot": "3",
						"type": "t_contract(IEligibilityVerifier)907"
					},
					{
						"astId": 973,
						"contract": "src/Contract Architecture/P2P & Social Transfers/GiveawayManager.sol:GiveawayManager",
						"label": "nextGiveawayId",
						"offset": 0,
						"slot": "4",
						"type": "t_uint256"
					},
					{
						"astId": 978,
						"contract": "src/Contract Architecture/P2P & Social Transfers/GiveawayManager.sol:GiveawayManager",
						"label": "giveaways",
						"offset": 0,
						"slot": "5",
						"type": "t_mapping(t_uint256,t_struct(Giveaway)971_storage)"
					},
					{
						"astId": 983,
						"contract": "src/Contract Architecture/P2P & Social Transfers/GiveawayManager.sol:GiveawayManager",
						"label": "participants",
						"offset": 0,
						"slot": "6",
						"type": "t_mapping(t_uint256,t_array(t_address)dyn_storage)"
					},
					{
						"astId": 989,
						"contract": "src/Contract Architecture/P2P & Social Transfers/GiveawayManager.sol:GiveawayManager",
						"label": "hasEntered",
						"offset": 0,
						"slot": "7",
						"type": "t_mapping(t_uint256,t_mapping(t_address,t_bool))"
					},
					{
						"astId": 994,
						"contract": "src/Contract Architecture/P2P & Social Transfers/GiveawayManager.sol:GiveawayManager",
						"label": "winners",
						"offset": 0,
						"slot": "8",
						"type": "t_mapping(t_uint256,t_array(t_address)dyn_storage)"
					},
					{
						"astId": 1000,
						"contract": "src/Contract Architecture/P2P & Social Transfers/GiveawayManager.sol:GiveawayManager",
						"label": "isWinner",
						"offset": 0,
						"slot": "9",
						"type": "t_mapping(t_uint256,t_mapping(t_address,t_bool))"
					},
					{
						"astId": 1006,
						"contract": "src/Contract Architecture/P2P & Social Transfers/GiveawayManager.sol:GiveawayManager",
						"label": "hasClaimed",
						"offset": 0,
						"slot": "10",
						"type": "t_mapping(t_uint256,t_mapping(t_address,t_bool))"
					}
				],
				"types": {
					"t_address": {
						"encoding": "inplace",
						"label": "address",
						"numberOfBytes": "20"
					},
					"t_array(t_address)dyn_storage": {
						"base": "t_address",
						"encoding": "dynamic_array",
						"label": "address[]",
						"numberOfBytes": "32"
					},
					"t_bool": {
						"encoding": "inplace",
						"label": "bool",
						"numberOfBytes": "1"
					},
					"t_contract(IEligibilityVerifier)907": {
						"encoding": "inplace",
						"label": "contract IEligibilityVerifier",
						"numberOfBytes": "20"
					},
					"t_contract(IRandomnessProvider)916": {
						"encoding": "inplace",
						"label": "contract IRandomnessProvider",
						"numberOfBytes": "20"
					},
					"t_mapping(t_address,t_bool)": {
						"encoding": "mapping",
						"key": "t_address",
						"label": "mapping(address => bool)",
						"numberOfBytes": "32",
						"value": "t_bool"
					},
					"t_mapping(t_uint256,t_array(t_address)dyn_storage)": {
						"encoding": "mapping",
						"key": "t_uint256",
						"label": "mapping(uint256 => address[])",
						"numberOfBytes": "32",
						"value": "t_array(t_address)dyn_storage"
					},
					"t_mapping(t_uint256,t_mapping(t_address,t_bool))": {
						"encoding": "mapping",
						"key": "t_uint256",
						"label": "mapping(uint256 => mapping(address => bool))",
						"numberOfBytes": "32",
						"value": "t_mapping(t_address,t_bool)"
					},
					"t_mapping(t_uint256,t_struct(Giveaway)971_storage)": {
						"encoding": "mapping",
						"key": "t_uint256",
						"label": "mapping(uint256 => struct GiveawayManager.Giveaway)",
						"numberOfBytes": "32",
						"value": "t_struct(Giveaway)971_storage"
					},
					"t_struct(Giveaway)971_storage": {
						"encoding": "inplace",
						"label": "struct GiveawayManager.Giveaway",
						"members": [
							{
								"astId": 946,
								"contract": "src/Contract Architecture/P2P & Social Transfers/GiveawayManager.sol:GiveawayManager",
								"label": "creator",
								"offset": 0,
								"slot": "0",
								"type": "t_address"
							},
							{
								"astId": 948,
								"contract": "src/Contract Architecture/P2P & Social Transfers/GiveawayManager.sol:GiveawayManager",
								"label": "token",
								"offset": 0,
								"slot": "1",
								"type": "t_address"
							},
							{
								"astId": 950,
								"contract": "src/Contract Architecture/P2P & Social Transfers/GiveawayManager.sol:GiveawayManager",
								"label": "totalAmount",
								"offset": 0,
								"slot": "2",
								"type": "t_uint256"
							},
							{
								"astId": 952,
								"contract": "src/Contract Architecture/P2P & Social Transfers/GiveawayManager.sol:GiveawayManager",
								"label": "startTime",
								"offset": 0,
								"slot": "3",
								"type": "t_uint64"
							},
							{
								"astId": 954,
								"contract": "src/Contract Architecture/P2P & Social Transfers/GiveawayManager.sol:GiveawayManager",
								"label": "endTime",
								"offset": 8,
								"slot": "3",
								"type": "t_uint64"
							},
							{
								"astId": 956,
								"contract": "src/Contract Architecture/P2P & Social Transfers/GiveawayManager.sol:GiveawayManager",
								"label": "maxWinners",
								"offset": 16,
								"slot": "3",
								"type": "t_uint32"
							},
							{
								"astId": 958,
								"contract": "src/Contract Architecture/P2P & Social Transfers/GiveawayManager.sol:GiveawayManager",
								"label": "drawn",
								"offset": 20,
								"slot": "3",
								"type": "t_bool"
							},
							{
								"astId": 960,
								"contract": "src/Contract Architecture/P2P & Social Transfers/GiveawayManager.sol:GiveawayManager",
								"label": "cancelled",
								"offset": 21,
								"slot": "3",
								"type": "t_bool"
							},
							{
								"astId": 962,
								"contract": "src/Contract Architecture/P2P & Social Transfers/GiveawayManager.sol:GiveawayManager",
								"label": "randomWord",
								"offset": 0,
								"slot": "4",
								"type": "t_uint256"
							},
							{
								"astId": 964,
								"contract": "src/Contract Architecture/P2P & Social Transfers/GiveawayManager.sol:GiveawayManager",
								"label": "winnersCount",
								"offset": 0,
								"slot": "5",
								"type": "t_uint32"
							},
							{
								"astId": 966,
								"contract": "src/Contract Architecture/P2P & Social Transfers/GiveawayManager.sol:GiveawayManager",
								"label": "claims",
								"offset": 4,
								"slot": "5",
								"type": "t_uint32"
							},
							{
								"astId": 968,
								"contract": "src/Contract Architecture/P2P & Social Transfers/GiveawayManager.sol:GiveawayManager",
								"label": "perWinner",
								"offset": 8,
								"slot": "5",
								"type": "t_uint96"
							},
							{
								"astId": 970,
								"contract": "src/Contract Architecture/P2P & Social Transfers/GiveawayManager.sol:GiveawayManager",
								"label": "remainder",
								"offset": 20,
								"slot": "5",
								"type": "t_uint96"
							}
						],
						"numberOfBytes": "192"
					},
					"t_uint256": {
						"encoding": "inplace",
						"label": "uint256",
						"numberOfBytes": "32"
					},
					"t_uint32": {
						"encoding": "inplace",
						"label": "uint32",
						"numberOfBytes": "4"
					},
					"t_uint64": {
						"encoding": "inplace",
						"label": "uint64",
						"numberOfBytes": "8"
					},
					"t_uint96": {
						"encoding": "inplace",
						"label": "uint96",
						"numberOfBytes": "12"
					}
				}
			},
			"userdoc": {
				"kind": "user",
				"methods": {
					"createGiveaway(address,uint256,uint64,uint64,uint32)": {
						"notice": "Create a giveaway. For ERC20, prior approve is required. For native, send `amount` as msg.value."
					}
				},
				"version": 1
			}
		}
	}
}