{
	"data": {
		"bytecode": {
			"linkReferences": {},
			"object": "60a060405234610149573315610136575f8054336001600160a01b0319821681178355916001600160a01b03909116907f8be0079c531659141344cd1fd0a4f28419497f9722a3daafe3b4186f6b6457e09080a360405161006160408261014d565b600e81526d20b1ba34b7b722bc32b1baba37b960911b602090910152604080517f3f44aa184ab6fa31533dfbf9ef3cd970e5d63a4acb4cfad9d1d294daaac5bd92916100ad908261014d565b600181526020810190603160f81b82525190206040519060208201927f8b73c3c69bb8fe3d512ecc4cf759cc79239f7b179b0ffacaa9a75d522b39400f8452604083015260608201524660808201523060a082015260a0815261011160c08261014d565b519020608052604051610cda90816101858239608051818181610433015261095a0152f35b631e4fbdf760e01b5f525f60045260245ffd5b5f80fd5b601f909101601f19168101906001600160401b0382119082101761017057604052565b634e487b7160e01b5f52604160045260245ffdfe60806040526004361015610011575f80fd5b5f3560e01c806316ca96f4146100da5780632d0335ab146100bc5780632dac633b146100d55780633595945d146100d05780633644e515146100cb5780635a35b84a146100c6578063715018a6146100c15780637ecebe00146100bc57806385acd641146100ad5780638da5cb5b146100b7578063a78e922b146100b2578063b0b6cc1a146100ad5763f2fde38b146100a8575f80fd5b6105f3565b6104e7565b610540565b610519565b6101e4565b610490565b610456565b61041c565b610392565b61021f565b61015a565b6001600160a01b038116036100f057565b5f80fd5b9181601f840112156100f05782359167ffffffffffffffff83116100f057602083818601950101116100f057565b805180835260209291819084018484015e5f828201840152601f01601f1916010190565b906020610157928181520190610122565b90565b346100f05760c03660031901126100f05760243560043561017a826100df565b6044359160643567ffffffffffffffff81116100f05761019e9036906004016100f4565b60a4359391608435919067ffffffffffffffff86116100f0576101e0966101cc6101d49736906004016100f4565b96909561085a565b60405191829182610146565b0390f35b346100f05760203660031901126100f057600435610201816100df565b60018060a01b03165f526002602052602060405f2054604051908152f35b346100f05760803660031901126100f05760243560043561023f826100df565b6044359060643567ffffffffffffffff81116100f0576102639036906004016100f4565b929061026d610b28565b61028f610282845f52600160205260405f2090565b546001600160a01b031690565b946001600160a01b03861615610383576001600160a01b031690811561037457604051639e5d4c4960e01b8152925f84806102d08986868d600486016107ce565b038183875af15f9481610350575b50610307576102eb6107f2565b8051908161030257632b3f6d1160e21b5f5260045ffd5b602001fd5b6101e0966103417fbdc4e709cee662270d6b1f3b98b847541936a3762b56f7229d50448d83476e24935f9698899160405195869586610821565b0390a460405191829182610146565b61036d9195503d805f833e6103658183610690565b81019061074b565b935f6102de565b63d92e233d60e01b5f5260045ffd5b634e25774f60e11b5f5260045ffd5b346100f05760203660031901126100f0576004356103ae610b28565b5f818152600160205260409020546001600160a01b031690811561040d575f81815260016020526040812080546001600160a01b03191690557fc631c273472e359a1548940daca1e146b3b6bf7582363a16e11b9f570783baee9080a3005b631c94b02360e21b5f5260045ffd5b346100f0575f3660031901126100f05760206040517f00000000000000000000000000000000000000000000000000000000000000008152f35b346100f0575f3660031901126100f05760206040517f2eaaf47f5d8d55bbdfc0070d3bf4e5c48f0e169aeb82b023197c8b2c69c6a3388152f35b346100f0575f3660031901126100f0576104a8610b28565b5f80546001600160a01b0319811682556001600160a01b03167f8be0079c531659141344cd1fd0a4f28419497f9722a3daafe3b4186f6b6457e08280a3005b346100f05760203660031901126100f0576004355f526001602052602060018060a01b0360405f205416604051908152f35b346100f0575f3660031901126100f0575f546040516001600160a01b039091168152602090f35b346100f05760403660031901126100f057602435600435610560826100df565b610568610b28565b6001600160a01b038216918215610374575f828152600160205260409020546001600160a01b03166105e4575f82815260016020526040902080546001600160a01b0319166001600160a01b039092169190911790557fd63be02155b46636309fb0a4a79647c60971aecaad53cbc83aad90cd75fd9d545f80a3005b6395b0718d60e01b5f5260045ffd5b346100f05760203660031901126100f057600435610610816100df565b610618610b28565b6001600160a01b03168015610669575f80546001600160a01b03198116831782556001600160a01b0316907f8be0079c531659141344cd1fd0a4f28419497f9722a3daafe3b4186f6b6457e09080a3005b631e4fbdf760e01b5f525f60045260245ffd5b634e487b7160e01b5f52604160045260245ffd5b90601f8019910116810190811067ffffffffffffffff8211176106b257604052565b61067c565b67ffffffffffffffff81116106b257601f01601f191660200190565b9291926106df826106b7565b916106ed6040519384610690565b8294818452818301116100f0578281602093845f960137010152565b908160209103126100f05751610157816100df565b6040513d5f823e3d90fd5b906001820180921161073757565b634e487b7160e01b5f52601160045260245ffd5b6020818303126100f05780519067ffffffffffffffff82116100f0570181601f820112156100f05780519061077f826106b7565b9261078d6040519485610690565b828452602083830101116100f057815f9260208093018386015e8301015290565b908060209392818452848401375f828201840152601f01601f1916010190565b610157949260609260018060a01b03168252602082015281604082015201916107ae565b3d1561081c573d90610803826106b7565b916108116040519384610690565b82523d5f602084013e565b606090565b9361084c9261015796949260018060a01b0316865260208601526080604086015260808501916107ae565b916060818403910152610122565b95939690610873610282885f52600160205260405f2090565b916001600160a01b03831615610383576001600160a01b03821695861561037457874211610b03576001600160a01b0383165f90815260026020526040902085905480998b8d366108c4918c6106d3565b80519060200120916040519384936020850196610933948b899260c094919796959260e08501987f2eaaf47f5d8d55bbdfc0070d3bf4e5c48f0e169aeb82b023197c8b2c69c6a338865260018060a01b0316602086015260408501526060840152608083015260a08201520152565b03601f19810182526109459082610690565b51902060405161190160f01b602082019081527f00000000000000000000000000000000000000000000000000000000000000006022830152604280830193909352918152610995606282610690565b5190209136906109a4926106d3565b6109ad91610b12565b604051638da5cb5b60e01b815296908780885a92600491602094fa978815610afe575f98610acd575b506001600160a01b0316968715908115610ab9575b50610aaa576109fc610a1791610729565b6001600160a01b039092165f90815260026020526040902090565b55604051639e5d4c4960e01b81525f8180610a388b888888600486016107ce565b038183895af15f9181610a8e575b50610a53576102eb6107f2565b7fbdc4e709cee662270d6b1f3b98b847541936a3762b56f7229d50448d83476e2493610a889198899160405195869586610821565b0390a490565b610aa39192503d805f833e6103658183610690565b905f610a46565b632057875960e21b5f5260045ffd5b6001600160a01b031688141590505f6109eb565b610af091985060203d602011610af7575b610ae88183610690565b810190610709565b965f6109d6565b503d610ade565b61071e565b630819bdcd60e01b5f5260045ffd5b61015791610b1f91610b4e565b90929192610ba6565b5f546001600160a01b03163303610b3b57565b63118cdaa760e01b5f523360045260245ffd5b8151919060418303610b7e57610b779250602082015190606060408401519301515f1a90610c22565b9192909190565b50505f9160029190565b60041115610b9257565b634e487b7160e01b5f52602160045260245ffd5b610baf81610b88565b80610bb8575050565b610bc181610b88565b60018103610bd85763f645eedf60e01b5f5260045ffd5b610be181610b88565b60028103610bfc575063fce698f760e01b5f5260045260245ffd5b80610c08600392610b88565b14610c105750565b6335e2f38360e21b5f5260045260245ffd5b91907f7fffffffffffffffffffffffffffffff5d576e7357a4501ddfe92f46681b20a08411610c99579160209360809260ff5f9560405194855216868401526040830152606082015282805260015afa15610afe575f516001600160a01b03811615610c8f57905f905f90565b505f906001905f90565b5050505f916003919056fea264697066735822122034a328f87b3a63947259b2c4e5c2bbe764b580391ea91f9cf31ad7be6ae6dc3264736f6c634300081a0033",
			"opcodes": "PUSH1 0xA0 PUSH1 0x40 MSTORE CALLVALUE PUSH2 0x149 JUMPI CALLER ISZERO PUSH2 0x136 JUMPI PUSH0 DUP1 SLOAD CALLER PUSH1 0x1 PUSH1 0x1 PUSH1 0xA0 SHL SUB NOT DUP3 AND DUP2 OR DUP4 SSTORE SWAP2 PUSH1 0x1 PUSH1 0x1 PUSH1 0xA0 SHL SUB SWAP1 SWAP2 AND SWAP1 PUSH32 0x8BE0079C531659141344CD1FD0A4F28419497F9722A3DAAFE3B4186F6B6457E0 SWAP1 DUP1 LOG3 PUSH1 0x40 MLOAD PUSH2 0x61 PUSH1 0x40 DUP3 PUSH2 0x14D JUMP JUMPDEST PUSH1 0xE DUP2 MSTORE PUSH14 0x20B1BA34B7B722BC32B1BABA37B9 PUSH1 0x91 SHL PUSH1 0x20 SWAP1 SWAP2 ADD MSTORE PUSH1 0x40 DUP1 MLOAD PUSH32 0x3F44AA184AB6FA31533DFBF9EF3CD970E5D63A4ACB4CFAD9D1D294DAAAC5BD92 SWAP2 PUSH2 0xAD SWAP1 DUP3 PUSH2 0x14D JUMP JUMPDEST PUSH1 0x1 DUP2 MSTORE PUSH1 0x20 DUP2 ADD SWAP1 PUSH1 0x31 PUSH1 0xF8 SHL DUP3 MSTORE MLOAD SWAP1 KECCAK256 PUSH1 0x40 MLOAD SWAP1 PUSH1 0x20 DUP3 ADD SWAP3 PUSH32 0x8B73C3C69BB8FE3D512ECC4CF759CC79239F7B179B0FFACAA9A75D522B39400F DUP5 MSTORE PUSH1 0x40 DUP4 ADD MSTORE PUSH1 0x60 DUP3 ADD MSTORE CHAINID PUSH1 0x80 DUP3 ADD MSTORE ADDRESS PUSH1 0xA0 DUP3 ADD MSTORE PUSH1 0xA0 DUP2 MSTORE PUSH2 0x111 PUSH1 0xC0 DUP3 PUSH2 0x14D JUMP JUMPDEST MLOAD SWAP1 KECCAK256 PUSH1 0x80 MSTORE PUSH1 0x40 MLOAD PUSH2 0xCDA SWAP1 DUP2 PUSH2 0x185 DUP3 CODECOPY PUSH1 0x80 MLOAD DUP2 DUP2 DUP2 PUSH2 0x433 ADD MSTORE PUSH2 0x95A ADD MSTORE RETURN JUMPDEST PUSH4 0x1E4FBDF7 PUSH1 0xE0 SHL PUSH0 MSTORE PUSH0 PUSH1 0x4 MSTORE PUSH1 0x24 PUSH0 REVERT JUMPDEST PUSH0 DUP1 REVERT JUMPDEST PUSH1 0x1F SWAP1 SWAP2 ADD PUSH1 0x1F NOT AND DUP2 ADD SWAP1 PUSH1 0x1 PUSH1 0x1 PUSH1 0x40 SHL SUB DUP3 GT SWAP1 DUP3 LT OR PUSH2 0x170 JUMPI PUSH1 0x40 MSTORE JUMP JUMPDEST PUSH4 0x4E487B71 PUSH1 0xE0 SHL PUSH0 MSTORE PUSH1 0x41 PUSH1 0x4 MSTORE PUSH1 0x24 PUSH0 REVERT INVALID PUSH1 0x80 PUSH1 0x40 MSTORE PUSH1 0x4 CALLDATASIZE LT ISZERO PUSH2 0x11 JUMPI PUSH0 DUP1 REVERT JUMPDEST PUSH0 CALLDATALOAD PUSH1 0xE0 SHR DUP1 PUSH4 0x16CA96F4 EQ PUSH2 0xDA JUMPI DUP1 PUSH4 0x2D0335AB EQ PUSH2 0xBC JUMPI DUP1 PUSH4 0x2DAC633B EQ PUSH2 0xD5 JUMPI DUP1 PUSH4 0x3595945D EQ PUSH2 0xD0 JUMPI DUP1 PUSH4 0x3644E515 EQ PUSH2 0xCB JUMPI DUP1 PUSH4 0x5A35B84A EQ PUSH2 0xC6 JUMPI DUP1 PUSH4 0x715018A6 EQ PUSH2 0xC1 JUMPI DUP1 PUSH4 0x7ECEBE00 EQ PUSH2 0xBC JUMPI DUP1 PUSH4 0x85ACD641 EQ PUSH2 0xAD JUMPI DUP1 PUSH4 0x8DA5CB5B EQ PUSH2 0xB7 JUMPI DUP1 PUSH4 0xA78E922B EQ PUSH2 0xB2 JUMPI DUP1 PUSH4 0xB0B6CC1A EQ PUSH2 0xAD JUMPI PUSH4 0xF2FDE38B EQ PUSH2 0xA8 JUMPI PUSH0 DUP1 REVERT JUMPDEST PUSH2 0x5F3 JUMP JUMPDEST PUSH2 0x4E7 JUMP JUMPDEST PUSH2 0x540 JUMP JUMPDEST PUSH2 0x519 JUMP JUMPDEST PUSH2 0x1E4 JUMP JUMPDEST PUSH2 0x490 JUMP JUMPDEST PUSH2 0x456 JUMP JUMPDEST PUSH2 0x41C JUMP JUMPDEST PUSH2 0x392 JUMP JUMPDEST PUSH2 0x21F JUMP JUMPDEST PUSH2 0x15A JUMP JUMPDEST PUSH1 0x1 PUSH1 0x1 PUSH1 0xA0 SHL SUB DUP2 AND SUB PUSH2 0xF0 JUMPI JUMP JUMPDEST PUSH0 DUP1 REVERT JUMPDEST SWAP2 DUP2 PUSH1 0x1F DUP5 ADD SLT ISZERO PUSH2 0xF0 JUMPI DUP3 CALLDATALOAD SWAP2 PUSH8 0xFFFFFFFFFFFFFFFF DUP4 GT PUSH2 0xF0 JUMPI PUSH1 0x20 DUP4 DUP2 DUP7 ADD SWAP6 ADD ADD GT PUSH2 0xF0 JUMPI JUMP JUMPDEST DUP1 MLOAD DUP1 DUP4 MSTORE PUSH1 0x20 SWAP3 SWAP2 DUP2 SWAP1 DUP5 ADD DUP5 DUP5 ADD MCOPY PUSH0 DUP3 DUP3 ADD DUP5 ADD MSTORE PUSH1 0x1F ADD PUSH1 0x1F NOT AND ADD ADD SWAP1 JUMP JUMPDEST SWAP1 PUSH1 0x20 PUSH2 0x157 SWAP3 DUP2 DUP2 MSTORE ADD SWAP1 PUSH2 0x122 JUMP JUMPDEST SWAP1 JUMP JUMPDEST CALLVALUE PUSH2 0xF0 JUMPI PUSH1 0xC0 CALLDATASIZE PUSH1 0x3 NOT ADD SLT PUSH2 0xF0 JUMPI PUSH1 0x24 CALLDATALOAD PUSH1 0x4 CALLDATALOAD PUSH2 0x17A DUP3 PUSH2 0xDF JUMP JUMPDEST PUSH1 0x44 CALLDATALOAD SWAP2 PUSH1 0x64 CALLDATALOAD PUSH8 0xFFFFFFFFFFFFFFFF DUP2 GT PUSH2 0xF0 JUMPI PUSH2 0x19E SWAP1 CALLDATASIZE SWAP1 PUSH1 0x4 ADD PUSH2 0xF4 JUMP JUMPDEST PUSH1 0xA4 CALLDATALOAD SWAP4 SWAP2 PUSH1 0x84 CALLDATALOAD SWAP2 SWAP1 PUSH8 0xFFFFFFFFFFFFFFFF DUP7 GT PUSH2 0xF0 JUMPI PUSH2 0x1E0 SWAP7 PUSH2 0x1CC PUSH2 0x1D4 SWAP8 CALLDATASIZE SWAP1 PUSH1 0x4 ADD PUSH2 0xF4 JUMP JUMPDEST SWAP7 SWAP1 SWAP6 PUSH2 0x85A JUMP JUMPDEST PUSH1 0x40 MLOAD SWAP2 DUP3 SWAP2 DUP3 PUSH2 0x146 JUMP JUMPDEST SUB SWAP1 RETURN JUMPDEST CALLVALUE PUSH2 0xF0 JUMPI PUSH1 0x20 CALLDATASIZE PUSH1 0x3 NOT ADD SLT PUSH2 0xF0 JUMPI PUSH1 0x4 CALLDATALOAD PUSH2 0x201 DUP2 PUSH2 0xDF JUMP JUMPDEST PUSH1 0x1 DUP1 PUSH1 0xA0 SHL SUB AND PUSH0 MSTORE PUSH1 0x2 PUSH1 0x20 MSTORE PUSH1 0x20 PUSH1 0x40 PUSH0 KECCAK256 SLOAD PUSH1 0x40 MLOAD SWAP1 DUP2 MSTORE RETURN JUMPDEST CALLVALUE PUSH2 0xF0 JUMPI PUSH1 0x80 CALLDATASIZE PUSH1 0x3 NOT ADD SLT PUSH2 0xF0 JUMPI PUSH1 0x24 CALLDATALOAD PUSH1 0x4 CALLDATALOAD PUSH2 0x23F DUP3 PUSH2 0xDF JUMP JUMPDEST PUSH1 0x44 CALLDATALOAD SWAP1 PUSH1 0x64 CALLDATALOAD PUSH8 0xFFFFFFFFFFFFFFFF DUP2 GT PUSH2 0xF0 JUMPI PUSH2 0x263 SWAP1 CALLDATASIZE SWAP1 PUSH1 0x4 ADD PUSH2 0xF4 JUMP JUMPDEST SWAP3 SWAP1 PUSH2 0x26D PUSH2 0xB28 JUMP JUMPDEST PUSH2 0x28F PUSH2 0x282 DUP5 PUSH0 MSTORE PUSH1 0x1 PUSH1 0x20 MSTORE PUSH1 0x40 PUSH0 KECCAK256 SWAP1 JUMP JUMPDEST SLOAD PUSH1 0x1 PUSH1 0x1 PUSH1 0xA0 SHL SUB AND SWAP1 JUMP JUMPDEST SWAP5 PUSH1 0x1 PUSH1 0x1 PUSH1 0xA0 SHL SUB DUP7 AND ISZERO PUSH2 0x383 JUMPI PUSH1 0x1 PUSH1 0x1 PUSH1 0xA0 SHL SUB AND SWAP1 DUP2 ISZERO PUSH2 0x374 JUMPI PUSH1 0x40 MLOAD PUSH4 0x9E5D4C49 PUSH1 0xE0 SHL DUP2 MSTORE SWAP3 PUSH0 DUP5 DUP1 PUSH2 0x2D0 DUP10 DUP7 DUP7 DUP14 PUSH1 0x4 DUP7 ADD PUSH2 0x7CE JUMP JUMPDEST SUB DUP2 DUP4 DUP8 GAS CALL PUSH0 SWAP5 DUP2 PUSH2 0x350 JUMPI JUMPDEST POP PUSH2 0x307 JUMPI PUSH2 0x2EB PUSH2 0x7F2 JUMP JUMPDEST DUP1 MLOAD SWAP1 DUP2 PUSH2 0x302 JUMPI PUSH4 0x2B3F6D11 PUSH1 0xE2 SHL PUSH0 MSTORE PUSH1 0x4 PUSH0 REVERT JUMPDEST PUSH1 0x20 ADD REVERT JUMPDEST PUSH2 0x1E0 SWAP7 PUSH2 0x341 PUSH32 0xBDC4E709CEE662270D6B1F3B98B847541936A3762B56F7229D50448D83476E24 SWAP4 PUSH0 SWAP7 SWAP9 DUP10 SWAP2 PUSH1 0x40 MLOAD SWAP6 DUP7 SWAP6 DUP7 PUSH2 0x821 JUMP JUMPDEST SUB SWAP1 LOG4 PUSH1 0x40 MLOAD SWAP2 DUP3 SWAP2 DUP3 PUSH2 0x146 JUMP JUMPDEST PUSH2 0x36D SWAP2 SWAP6 POP RETURNDATASIZE DUP1 PUSH0 DUP4 RETURNDATACOPY PUSH2 0x365 DUP2 DUP4 PUSH2 0x690 JUMP JUMPDEST DUP2 ADD SWAP1 PUSH2 0x74B JUMP JUMPDEST SWAP4 PUSH0 PUSH2 0x2DE JUMP JUMPDEST PUSH4 0xD92E233D PUSH1 0xE0 SHL PUSH0 MSTORE PUSH1 0x4 PUSH0 REVERT JUMPDEST PUSH4 0x4E25774F PUSH1 0xE1 SHL PUSH0 MSTORE PUSH1 0x4 PUSH0 REVERT JUMPDEST CALLVALUE PUSH2 0xF0 JUMPI PUSH1 0x20 CALLDATASIZE PUSH1 0x3 NOT ADD SLT PUSH2 0xF0 JUMPI PUSH1 0x4 CALLDATALOAD PUSH2 0x3AE PUSH2 0xB28 JUMP JUMPDEST PUSH0 DUP2 DUP2 MSTORE PUSH1 0x1 PUSH1 0x20 MSTORE PUSH1 0x40 SWAP1 KECCAK256 SLOAD PUSH1 0x1 PUSH1 0x1 PUSH1 0xA0 SHL SUB AND SWAP1 DUP2 ISZERO PUSH2 0x40D JUMPI PUSH0 DUP2 DUP2 MSTORE PUSH1 0x1 PUSH1 0x20 MSTORE PUSH1 0x40 DUP2 KECCAK256 DUP1 SLOAD PUSH1 0x1 PUSH1 0x1 PUSH1 0xA0 SHL SUB NOT AND SWAP1 SSTORE PUSH32 0xC631C273472E359A1548940DACA1E146B3B6BF7582363A16E11B9F570783BAEE SWAP1 DUP1 LOG3 STOP JUMPDEST PUSH4 0x1C94B023 PUSH1 0xE2 SHL PUSH0 MSTORE PUSH1 0x4 PUSH0 REVERT JUMPDEST CALLVALUE PUSH2 0xF0 JUMPI PUSH0 CALLDATASIZE PUSH1 0x3 NOT ADD SLT PUSH2 0xF0 JUMPI PUSH1 0x20 PUSH1 0x40 MLOAD PUSH32 0x0 DUP2 MSTORE RETURN JUMPDEST CALLVALUE PUSH2 0xF0 JUMPI PUSH0 CALLDATASIZE PUSH1 0x3 NOT ADD SLT PUSH2 0xF0 JUMPI PUSH1 0x20 PUSH1 0x40 MLOAD PUSH32 0x2EAAF47F5D8D55BBDFC0070D3BF4E5C48F0E169AEB82B023197C8B2C69C6A338 DUP2 MSTORE RETURN JUMPDEST CALLVALUE PUSH2 0xF0 JUMPI PUSH0 CALLDATASIZE PUSH1 0x3 NOT ADD SLT PUSH2 0xF0 JUMPI PUSH2 0x4A8 PUSH2 0xB28 JUMP JUMPDEST PUSH0 DUP1 SLOAD PUSH1 0x1 PUSH1 0x1 PUSH1 0xA0 SHL SUB NOT DUP2 AND DUP3 SSTORE PUSH1 0x1 PUSH1 0x1 PUSH1 0xA0 SHL SUB AND PUSH32 0x8BE0079C531659141344CD1FD0A4F28419497F9722A3DAAFE3B4186F6B6457E0 DUP3 DUP1 LOG3 STOP JUMPDEST CALLVALUE PUSH2 0xF0 JUMPI PUSH1 0x20 CALLDATASIZE PUSH1 0x3 NOT ADD SLT PUSH2 0xF0 JUMPI PUSH1 0x4 CALLDATALOAD PUSH0 MSTORE PUSH1 0x1 PUSH1 0x20 MSTORE PUSH1 0x20 PUSH1 0x1 DUP1 PUSH1 0xA0 SHL SUB PUSH1 0x40 PUSH0 KECCAK256 SLOAD AND PUSH1 0x40 MLOAD SWAP1 DUP2 MSTORE RETURN JUMPDEST CALLVALUE PUSH2 0xF0 JUMPI PUSH0 CALLDATASIZE PUSH1 0x3 NOT ADD SLT PUSH2 0xF0 JUMPI PUSH0 SLOAD PUSH1 0x40 MLOAD PUSH1 0x1 PUSH1 0x1 PUSH1 0xA0 SHL SUB SWAP1 SWAP2 AND DUP2 MSTORE PUSH1 0x20 SWAP1 RETURN JUMPDEST CALLVALUE PUSH2 0xF0 JUMPI PUSH1 0x40 CALLDATASIZE PUSH1 0x3 NOT ADD SLT PUSH2 0xF0 JUMPI PUSH1 0x24 CALLDATALOAD PUSH1 0x4 CALLDATALOAD PUSH2 0x560 DUP3 PUSH2 0xDF JUMP JUMPDEST PUSH2 0x568 PUSH2 0xB28 JUMP JUMPDEST PUSH1 0x1 PUSH1 0x1 PUSH1 0xA0 SHL SUB DUP3 AND SWAP2 DUP3 ISZERO PUSH2 0x374 JUMPI PUSH0 DUP3 DUP2 MSTORE PUSH1 0x1 PUSH1 0x20 MSTORE PUSH1 0x40 SWAP1 KECCAK256 SLOAD PUSH1 0x1 PUSH1 0x1 PUSH1 0xA0 SHL SUB AND PUSH2 0x5E4 JUMPI PUSH0 DUP3 DUP2 MSTORE PUSH1 0x1 PUSH1 0x20 MSTORE PUSH1 0x40 SWAP1 KECCAK256 DUP1 SLOAD PUSH1 0x1 PUSH1 0x1 PUSH1 0xA0 SHL SUB NOT AND PUSH1 0x1 PUSH1 0x1 PUSH1 0xA0 SHL SUB SWAP1 SWAP3 AND SWAP2 SWAP1 SWAP2 OR SWAP1 SSTORE PUSH32 0xD63BE02155B46636309FB0A4A79647C60971AECAAD53CBC83AAD90CD75FD9D54 PUSH0 DUP1 LOG3 STOP JUMPDEST PUSH4 0x95B0718D PUSH1 0xE0 SHL PUSH0 MSTORE PUSH1 0x4 PUSH0 REVERT JUMPDEST CALLVALUE PUSH2 0xF0 JUMPI PUSH1 0x20 CALLDATASIZE PUSH1 0x3 NOT ADD SLT PUSH2 0xF0 JUMPI PUSH1 0x4 CALLDATALOAD PUSH2 0x610 DUP2 PUSH2 0xDF JUMP JUMPDEST PUSH2 0x618 PUSH2 0xB28 JUMP JUMPDEST PUSH1 0x1 PUSH1 0x1 PUSH1 0xA0 SHL SUB AND DUP1 ISZERO PUSH2 0x669 JUMPI PUSH0 DUP1 SLOAD PUSH1 0x1 PUSH1 0x1 PUSH1 0xA0 SHL SUB NOT DUP2 AND DUP4 OR DUP3 SSTORE PUSH1 0x1 PUSH1 0x1 PUSH1 0xA0 SHL SUB AND SWAP1 PUSH32 0x8BE0079C531659141344CD1FD0A4F28419497F9722A3DAAFE3B4186F6B6457E0 SWAP1 DUP1 LOG3 STOP JUMPDEST PUSH4 0x1E4FBDF7 PUSH1 0xE0 SHL PUSH0 MSTORE PUSH0 PUSH1 0x4 MSTORE PUSH1 0x24 PUSH0 REVERT JUMPDEST PUSH4 0x4E487B71 PUSH1 0xE0 SHL PUSH0 MSTORE PUSH1 0x41 PUSH1 0x4 MSTORE PUSH1 0x24 PUSH0 REVERT JUMPDEST SWAP1 PUSH1 0x1F DUP1 NOT SWAP2 ADD AND DUP2 ADD SWAP1 DUP2 LT PUSH8 0xFFFFFFFFFFFFFFFF DUP3 GT OR PUSH2 0x6B2 JUMPI PUSH1 0x40 MSTORE JUMP JUMPDEST PUSH2 0x67C JUMP JUMPDEST PUSH8 0xFFFFFFFFFFFFFFFF DUP2 GT PUSH2 0x6B2 JUMPI PUSH1 0x1F ADD PUSH1 0x1F NOT AND PUSH1 0x20 ADD SWAP1 JUMP JUMPDEST SWAP3 SWAP2 SWAP3 PUSH2 0x6DF DUP3 PUSH2 0x6B7 JUMP JUMPDEST SWAP2 PUSH2 0x6ED PUSH1 0x40 MLOAD SWAP4 DUP5 PUSH2 0x690 JUMP JUMPDEST DUP3 SWAP5 DUP2 DUP5 MSTORE DUP2 DUP4 ADD GT PUSH2 0xF0 JUMPI DUP3 DUP2 PUSH1 0x20 SWAP4 DUP5 PUSH0 SWAP7 ADD CALLDATACOPY ADD ADD MSTORE JUMP JUMPDEST SWAP1 DUP2 PUSH1 0x20 SWAP2 SUB SLT PUSH2 0xF0 JUMPI MLOAD PUSH2 0x157 DUP2 PUSH2 0xDF JUMP JUMPDEST PUSH1 0x40 MLOAD RETURNDATASIZE PUSH0 DUP3 RETURNDATACOPY RETURNDATASIZE SWAP1 REVERT JUMPDEST SWAP1 PUSH1 0x1 DUP3 ADD DUP1 SWAP3 GT PUSH2 0x737 JUMPI JUMP JUMPDEST PUSH4 0x4E487B71 PUSH1 0xE0 SHL PUSH0 MSTORE PUSH1 0x11 PUSH1 0x4 MSTORE PUSH1 0x24 PUSH0 REVERT JUMPDEST PUSH1 0x20 DUP2 DUP4 SUB SLT PUSH2 0xF0 JUMPI DUP1 MLOAD SWAP1 PUSH8 0xFFFFFFFFFFFFFFFF DUP3 GT PUSH2 0xF0 JUMPI ADD DUP2 PUSH1 0x1F DUP3 ADD SLT ISZERO PUSH2 0xF0 JUMPI DUP1 MLOAD SWAP1 PUSH2 0x77F DUP3 PUSH2 0x6B7 JUMP JUMPDEST SWAP3 PUSH2 0x78D PUSH1 0x40 MLOAD SWAP5 DUP6 PUSH2 0x690 JUMP JUMPDEST DUP3 DUP5 MSTORE PUSH1 0x20 DUP4 DUP4 ADD ADD GT PUSH2 0xF0 JUMPI DUP2 PUSH0 SWAP3 PUSH1 0x20 DUP1 SWAP4 ADD DUP4 DUP7 ADD MCOPY DUP4 ADD ADD MSTORE SWAP1 JUMP JUMPDEST SWAP1 DUP1 PUSH1 0x20 SWAP4 SWAP3 DUP2 DUP5 MSTORE DUP5 DUP5 ADD CALLDATACOPY PUSH0 DUP3 DUP3 ADD DUP5 ADD MSTORE PUSH1 0x1F ADD PUSH1 0x1F NOT AND ADD ADD SWAP1 JUMP JUMPDEST PUSH2 0x157 SWAP5 SWAP3 PUSH1 0x60 SWAP3 PUSH1 0x1 DUP1 PUSH1 0xA0 SHL SUB AND DUP3 MSTORE PUSH1 0x20 DUP3 ADD MSTORE DUP2 PUSH1 0x40 DUP3 ADD MSTORE ADD SWAP2 PUSH2 0x7AE JUMP JUMPDEST RETURNDATASIZE ISZERO PUSH2 0x81C JUMPI RETURNDATASIZE SWAP1 PUSH2 0x803 DUP3 PUSH2 0x6B7 JUMP JUMPDEST SWAP2 PUSH2 0x811 PUSH1 0x40 MLOAD SWAP4 DUP5 PUSH2 0x690 JUMP JUMPDEST DUP3 MSTORE RETURNDATASIZE PUSH0 PUSH1 0x20 DUP5 ADD RETURNDATACOPY JUMP JUMPDEST PUSH1 0x60 SWAP1 JUMP JUMPDEST SWAP4 PUSH2 0x84C SWAP3 PUSH2 0x157 SWAP7 SWAP5 SWAP3 PUSH1 0x1 DUP1 PUSH1 0xA0 SHL SUB AND DUP7 MSTORE PUSH1 0x20 DUP7 ADD MSTORE PUSH1 0x80 PUSH1 0x40 DUP7 ADD MSTORE PUSH1 0x80 DUP6 ADD SWAP2 PUSH2 0x7AE JUMP JUMPDEST SWAP2 PUSH1 0x60 DUP2 DUP5 SUB SWAP2 ADD MSTORE PUSH2 0x122 JUMP JUMPDEST SWAP6 SWAP4 SWAP7 SWAP1 PUSH2 0x873 PUSH2 0x282 DUP9 PUSH0 MSTORE PUSH1 0x1 PUSH1 0x20 MSTORE PUSH1 0x40 PUSH0 KECCAK256 SWAP1 JUMP JUMPDEST SWAP2 PUSH1 0x1 PUSH1 0x1 PUSH1 0xA0 SHL SUB DUP4 AND ISZERO PUSH2 0x383 JUMPI PUSH1 0x1 PUSH1 0x1 PUSH1 0xA0 SHL SUB DUP3 AND SWAP6 DUP7 ISZERO PUSH2 0x374 JUMPI DUP8 TIMESTAMP GT PUSH2 0xB03 JUMPI PUSH1 0x1 PUSH1 0x1 PUSH1 0xA0 SHL SUB DUP4 AND PUSH0 SWAP1 DUP2 MSTORE PUSH1 0x2 PUSH1 0x20 MSTORE PUSH1 0x40 SWAP1 KECCAK256 DUP6 SWAP1 SLOAD DUP1 SWAP10 DUP12 DUP14 CALLDATASIZE PUSH2 0x8C4 SWAP2 DUP13 PUSH2 0x6D3 JUMP JUMPDEST DUP1 MLOAD SWAP1 PUSH1 0x20 ADD KECCAK256 SWAP2 PUSH1 0x40 MLOAD SWAP4 DUP5 SWAP4 PUSH1 0x20 DUP6 ADD SWAP7 PUSH2 0x933 SWAP5 DUP12 DUP10 SWAP3 PUSH1 0xC0 SWAP5 SWAP2 SWAP8 SWAP7 SWAP6 SWAP3 PUSH1 0xE0 DUP6 ADD SWAP9 PUSH32 0x2EAAF47F5D8D55BBDFC0070D3BF4E5C48F0E169AEB82B023197C8B2C69C6A338 DUP7 MSTORE PUSH1 0x1 DUP1 PUSH1 0xA0 SHL SUB AND PUSH1 0x20 DUP7 ADD MSTORE PUSH1 0x40 DUP6 ADD MSTORE PUSH1 0x60 DUP5 ADD MSTORE PUSH1 0x80 DUP4 ADD MSTORE PUSH1 0xA0 DUP3 ADD MSTORE ADD MSTORE JUMP JUMPDEST SUB PUSH1 0x1F NOT DUP2 ADD DUP3 MSTORE PUSH2 0x945 SWAP1 DUP3 PUSH2 0x690 JUMP JUMPDEST MLOAD SWAP1 KECCAK256 PUSH1 0x40 MLOAD PUSH2 0x1901 PUSH1 0xF0 SHL PUSH1 0x20 DUP3 ADD SWAP1 DUP2 MSTORE PUSH32 0x0 PUSH1 0x22 DUP4 ADD MSTORE PUSH1 0x42 DUP1 DUP4 ADD SWAP4 SWAP1 SWAP4 MSTORE SWAP2 DUP2 MSTORE PUSH2 0x995 PUSH1 0x62 DUP3 PUSH2 0x690 JUMP JUMPDEST MLOAD SWAP1 KECCAK256 SWAP2 CALLDATASIZE SWAP1 PUSH2 0x9A4 SWAP3 PUSH2 0x6D3 JUMP JUMPDEST PUSH2 0x9AD SWAP2 PUSH2 0xB12 JUMP JUMPDEST PUSH1 0x40 MLOAD PUSH4 0x8DA5CB5B PUSH1 0xE0 SHL DUP2 MSTORE SWAP7 SWAP1 DUP8 DUP1 DUP9 GAS SWAP3 PUSH1 0x4 SWAP2 PUSH1 0x20 SWAP5 STATICCALL SWAP8 DUP9 ISZERO PUSH2 0xAFE JUMPI PUSH0 SWAP9 PUSH2 0xACD JUMPI JUMPDEST POP PUSH1 0x1 PUSH1 0x1 PUSH1 0xA0 SHL SUB AND SWAP7 DUP8 ISZERO SWAP1 DUP2 ISZERO PUSH2 0xAB9 JUMPI JUMPDEST POP PUSH2 0xAAA JUMPI PUSH2 0x9FC PUSH2 0xA17 SWAP2 PUSH2 0x729 JUMP JUMPDEST PUSH1 0x1 PUSH1 0x1 PUSH1 0xA0 SHL SUB SWAP1 SWAP3 AND PUSH0 SWAP1 DUP2 MSTORE PUSH1 0x2 PUSH1 0x20 MSTORE PUSH1 0x40 SWAP1 KECCAK256 SWAP1 JUMP JUMPDEST SSTORE PUSH1 0x40 MLOAD PUSH4 0x9E5D4C49 PUSH1 0xE0 SHL DUP2 MSTORE PUSH0 DUP2 DUP1 PUSH2 0xA38 DUP12 DUP9 DUP9 DUP9 PUSH1 0x4 DUP7 ADD PUSH2 0x7CE JUMP JUMPDEST SUB DUP2 DUP4 DUP10 GAS CALL PUSH0 SWAP2 DUP2 PUSH2 0xA8E JUMPI JUMPDEST POP PUSH2 0xA53 JUMPI PUSH2 0x2EB PUSH2 0x7F2 JUMP JUMPDEST PUSH32 0xBDC4E709CEE662270D6B1F3B98B847541936A3762B56F7229D50448D83476E24 SWAP4 PUSH2 0xA88 SWAP2 SWAP9 DUP10 SWAP2 PUSH1 0x40 MLOAD SWAP6 DUP7 SWAP6 DUP7 PUSH2 0x821 JUMP JUMPDEST SUB SWAP1 LOG4 SWAP1 JUMP JUMPDEST PUSH2 0xAA3 SWAP2 SWAP3 POP RETURNDATASIZE DUP1 PUSH0 DUP4 RETURNDATACOPY PUSH2 0x365 DUP2 DUP4 PUSH2 0x690 JUMP JUMPDEST SWAP1 PUSH0 PUSH2 0xA46 JUMP JUMPDEST PUSH4 0x20578759 PUSH1 0xE2 SHL PUSH0 MSTORE PUSH1 0x4 PUSH0 REVERT JUMPDEST PUSH1 0x1 PUSH1 0x1 PUSH1 0xA0 SHL SUB AND DUP9 EQ ISZERO SWAP1 POP PUSH0 PUSH2 0x9EB JUMP JUMPDEST PUSH2 0xAF0 SWAP2 SWAP9 POP PUSH1 0x20 RETURNDATASIZE PUSH1 0x20 GT PUSH2 0xAF7 JUMPI JUMPDEST PUSH2 0xAE8 DUP2 DUP4 PUSH2 0x690 JUMP JUMPDEST DUP2 ADD SWAP1 PUSH2 0x709 JUMP JUMPDEST SWAP7 PUSH0 PUSH2 0x9D6 JUMP JUMPDEST POP RETURNDATASIZE PUSH2 0xADE JUMP JUMPDEST PUSH2 0x71E JUMP JUMPDEST PUSH4 0x819BDCD PUSH1 0xE0 SHL PUSH0 MSTORE PUSH1 0x4 PUSH0 REVERT JUMPDEST PUSH2 0x157 SWAP2 PUSH2 0xB1F SWAP2 PUSH2 0xB4E JUMP JUMPDEST SWAP1 SWAP3 SWAP2 SWAP3 PUSH2 0xBA6 JUMP JUMPDEST PUSH0 SLOAD PUSH1 0x1 PUSH1 0x1 PUSH1 0xA0 SHL SUB AND CALLER SUB PUSH2 0xB3B JUMPI JUMP JUMPDEST PUSH4 0x118CDAA7 PUSH1 0xE0 SHL PUSH0 MSTORE CALLER PUSH1 0x4 MSTORE PUSH1 0x24 PUSH0 REVERT JUMPDEST DUP2 MLOAD SWAP2 SWAP1 PUSH1 0x41 DUP4 SUB PUSH2 0xB7E JUMPI PUSH2 0xB77 SWAP3 POP PUSH1 0x20 DUP3 ADD MLOAD SWAP1 PUSH1 0x60 PUSH1 0x40 DUP5 ADD MLOAD SWAP4 ADD MLOAD PUSH0 BYTE SWAP1 PUSH2 0xC22 JUMP JUMPDEST SWAP2 SWAP3 SWAP1 SWAP2 SWAP1 JUMP JUMPDEST POP POP PUSH0 SWAP2 PUSH1 0x2 SWAP2 SWAP1 JUMP JUMPDEST PUSH1 0x4 GT ISZERO PUSH2 0xB92 JUMPI JUMP JUMPDEST PUSH4 0x4E487B71 PUSH1 0xE0 SHL PUSH0 MSTORE PUSH1 0x21 PUSH1 0x4 MSTORE PUSH1 0x24 PUSH0 REVERT JUMPDEST PUSH2 0xBAF DUP2 PUSH2 0xB88 JUMP JUMPDEST DUP1 PUSH2 0xBB8 JUMPI POP POP JUMP JUMPDEST PUSH2 0xBC1 DUP2 PUSH2 0xB88 JUMP JUMPDEST PUSH1 0x1 DUP2 SUB PUSH2 0xBD8 JUMPI PUSH4 0xF645EEDF PUSH1 0xE0 SHL PUSH0 MSTORE PUSH1 0x4 PUSH0 REVERT JUMPDEST PUSH2 0xBE1 DUP2 PUSH2 0xB88 JUMP JUMPDEST PUSH1 0x2 DUP2 SUB PUSH2 0xBFC JUMPI POP PUSH4 0xFCE698F7 PUSH1 0xE0 SHL PUSH0 MSTORE PUSH1 0x4 MSTORE PUSH1 0x24 PUSH0 REVERT JUMPDEST DUP1 PUSH2 0xC08 PUSH1 0x3 SWAP3 PUSH2 0xB88 JUMP JUMPDEST EQ PUSH2 0xC10 JUMPI POP JUMP JUMPDEST PUSH4 0x35E2F383 PUSH1 0xE2 SHL PUSH0 MSTORE PUSH1 0x4 MSTORE PUSH1 0x24 PUSH0 REVERT JUMPDEST SWAP2 SWAP1 PUSH32 0x7FFFFFFFFFFFFFFFFFFFFFFFFFFFFFFF5D576E7357A4501DDFE92F46681B20A0 DUP5 GT PUSH2 0xC99 JUMPI SWAP2 PUSH1 0x20 SWAP4 PUSH1 0x80 SWAP3 PUSH1 0xFF PUSH0 SWAP6 PUSH1 0x40 MLOAD SWAP5 DUP6 MSTORE AND DUP7 DUP5 ADD MSTORE PUSH1 0x40 DUP4 ADD MSTORE PUSH1 0x60 DUP3 ADD MSTORE DUP3 DUP1 MSTORE PUSH1 0x1 GAS STATICCALL ISZERO PUSH2 0xAFE JUMPI PUSH0 MLOAD PUSH1 0x1 PUSH1 0x1 PUSH1 0xA0 SHL SUB DUP2 AND ISZERO PUSH2 0xC8F JUMPI SWAP1 PUSH0 SWAP1 PUSH0 SWAP1 JUMP JUMPDEST POP PUSH0 SWAP1 PUSH1 0x1 SWAP1 PUSH0 SWAP1 JUMP JUMPDEST POP POP POP PUSH0 SWAP2 PUSH1 0x3 SWAP2 SWAP1 JUMP INVALID LOG2 PUSH5 0x6970667358 0x22 SLT KECCAK256 CALLVALUE LOG3 0x28 0xF8 PUSH28 0x3A63947259B2C4E5C2BBE764B580391EA91F9CF31AD7BE6AE6DC3264 PUSH20 0x6F6C634300081A00330000000000000000000000 "
		},
		"gasEstimates": {
			"creation": {
				"codeDepositCost": "658000",
				"executionCost": "infinite",
				"totalCost": "infinite"
			},
			"external": {
				"ACTION_TYPEHASH()": "267",
				"DOMAIN_SEPARATOR()": "infinite",
				"executeModuleActionByOwner(bytes32,address,uint256,bytes)": "infinite",
				"executeModuleActionWithSig(bytes32,address,uint256,bytes,uint256,bytes)": "infinite",
				"getModule(bytes32)": "2519",
				"getNonce(address)": "2429",
				"modules(bytes32)": "2585",
				"nonces(address)": "2561",
				"owner()": "2481",
				"registerModule(bytes32,address)": "30673",
				"renounceOwnership()": "28186",
				"transferOwnership(address)": "28432",
				"unregisterModule(bytes32)": "30380"
			}
		},
		"methodIdentifiers": {
			"ACTION_TYPEHASH()": "5a35b84a",
			"DOMAIN_SEPARATOR()": "3644e515",
			"executeModuleActionByOwner(bytes32,address,uint256,bytes)": "2dac633b",
			"executeModuleActionWithSig(bytes32,address,uint256,bytes,uint256,bytes)": "16ca96f4",
			"getModule(bytes32)": "85acd641",
			"getNonce(address)": "2d0335ab",
			"modules(bytes32)": "b0b6cc1a",
			"nonces(address)": "7ecebe00",
			"owner()": "8da5cb5b",
			"registerModule(bytes32,address)": "a78e922b",
			"renounceOwnership()": "715018a6",
			"transferOwnership(address)": "f2fde38b",
			"unregisterModule(bytes32)": "3595945d"
		}
	},
	"abi": [
		{
			"inputs": [],
			"stateMutability": "nonpayable",
			"type": "constructor"
		},
		{
			"inputs": [],
			"name": "ECDSAInvalidSignature",
			"type": "error"
		},
		{
			"inputs": [
				{
					"internalType": "uint256",
					"name": "length",
					"type": "uint256"
				}
			],
			"name": "ECDSAInvalidSignatureLength",
			"type": "error"
		},
		{
			"inputs": [
				{
					"internalType": "bytes32",
					"name": "s",
					"type": "bytes32"
				}
			],
			"name": "ECDSAInvalidSignatureS",
			"type": "error"
		},
		{
			"inputs": [],
			"name": "ExecutionFailed",
			"type": "error"
		},
		{
			"inputs": [],
			"name": "InvalidSigner",
			"type": "error"
		},
		{
			"inputs": [],
			"name": "ModuleAlreadyRegistered",
			"type": "error"
		},
		{
			"inputs": [],
			"name": "ModuleNotFound",
			"type": "error"
		},
		{
			"inputs": [],
			"name": "ModuleNotRegistered",
			"type": "error"
		},
		{
			"inputs": [
				{
					"internalType": "address",
					"name": "owner",
					"type": "address"
				}
			],
			"name": "OwnableInvalidOwner",
			"type": "error"
		},
		{
			"inputs": [
				{
					"internalType": "address",
					"name": "account",
					"type": "address"
				}
			],
			"name": "OwnableUnauthorizedAccount",
			"type": "error"
		},
		{
			"inputs": [],
			"name": "SignatureExpired",
			"type": "error"
		},
		{
			"inputs": [],
			"name": "ZeroAddress",
			"type": "error"
		},
		{
			"anonymous": false,
			"inputs": [
				{
					"indexed": true,
					"internalType": "address",
					"name": "vault",
					"type": "address"
				},
				{
					"indexed": true,
					"internalType": "address",
					"name": "owner",
					"type": "address"
				},
				{
					"indexed": true,
					"internalType": "bytes32",
					"name": "moduleId",
					"type": "bytes32"
				},
				{
					"indexed": false,
					"internalType": "address",
					"name": "module",
					"type": "address"
				},
				{
					"indexed": false,
					"internalType": "uint256",
					"name": "value",
					"type": "uint256"
				},
				{
					"indexed": false,
					"internalType": "bytes",
					"name": "data",
					"type": "bytes"
				},
				{
					"indexed": false,
					"internalType": "bytes",
					"name": "result",
					"type": "bytes"
				}
			],
			"name": "ActionExecuted",
			"type": "event"
		},
		{
			"anonymous": false,
			"inputs": [
				{
					"indexed": true,
					"internalType": "bytes32",
					"name": "moduleId",
					"type": "bytes32"
				},
				{
					"indexed": true,
					"internalType": "address",
					"name": "module",
					"type": "address"
				}
			],
			"name": "ModuleRegistered",
			"type": "event"
		},
		{
			"anonymous": false,
			"inputs": [
				{
					"indexed": true,
					"internalType": "bytes32",
					"name": "moduleId",
					"type": "bytes32"
				},
				{
					"indexed": true,
					"internalType": "address",
					"name": "module",
					"type": "address"
				}
			],
			"name": "ModuleUnregistered",
			"type": "event"
		},
		{
			"anonymous": false,
			"inputs": [
				{
					"indexed": true,
					"internalType": "address",
					"name": "previousOwner",
					"type": "address"
				},
				{
					"indexed": true,
					"internalType": "address",
					"name": "newOwner",
					"type": "address"
				}
			],
			"name": "OwnershipTransferred",
			"type": "event"
		},
		{
			"inputs": [],
			"name": "ACTION_TYPEHASH",
			"outputs": [
				{
					"internalType": "bytes32",
					"name": "",
					"type": "bytes32"
				}
			],
			"stateMutability": "view",
			"type": "function"
		},
		{
			"inputs": [],
			"name": "DOMAIN_SEPARATOR",
			"outputs": [
				{
					"internalType": "bytes32",
					"name": "",
					"type": "bytes32"
				}
			],
			"stateMutability": "view",
			"type": "function"
		},
		{
			"inputs": [
				{
					"internalType": "bytes32",
					"name": "moduleId",
					"type": "bytes32"
				},
				{
					"internalType": "address",
					"name": "vault",
					"type": "address"
				},
				{
					"internalType": "uint256",
					"name": "value",
					"type": "uint256"
				},
				{
					"internalType": "bytes",
					"name": "data",
					"type": "bytes"
				}
			],
			"name": "executeModuleActionByOwner",
			"outputs": [
				{
					"internalType": "bytes",
					"name": "",
					"type": "bytes"
				}
			],
			"stateMutability": "nonpayable",
			"type": "function"
		},
		{
			"inputs": [
				{
					"internalType": "bytes32",
					"name": "moduleId",
					"type": "bytes32"
				},
				{
					"internalType": "address",
					"name": "vault",
					"type": "address"
				},
				{
					"internalType": "uint256",
					"name": "value",
					"type": "uint256"
				},
				{
					"internalType": "bytes",
					"name": "data",
					"type": "bytes"
				},
				{
					"internalType": "uint256",
					"name": "deadline",
					"type": "uint256"
				},
				{
					"internalType": "bytes",
					"name": "sig",
					"type": "bytes"
				}
			],
			"name": "executeModuleActionWithSig",
			"outputs": [
				{
					"internalType": "bytes",
					"name": "result",
					"type": "bytes"
				}
			],
			"stateMutability": "nonpayable",
			"type": "function"
		},
		{
			"inputs": [
				{
					"internalType": "bytes32",
					"name": "moduleId",
					"type": "bytes32"
				}
			],
			"name": "getModule",
			"outputs": [
				{
					"internalType": "address",
					"name": "",
					"type": "address"
				}
			],
			"stateMutability": "view",
			"type": "function"
		},
		{
			"inputs": [
				{
					"internalType": "address",
					"name": "vault",
					"type": "address"
				}
			],
			"name": "getNonce",
			"outputs": [
				{
					"internalType": "uint256",
					"name": "",
					"type": "uint256"
				}
			],
			"stateMutability": "view",
			"type": "function"
		},
		{
			"inputs": [
				{
					"internalType": "bytes32",
					"name": "",
					"type": "bytes32"
				}
			],
			"name": "modules",
			"outputs": [
				{
					"internalType": "address",
					"name": "",
					"type": "address"
				}
			],
			"stateMutability": "view",
			"type": "function"
		},
		{
			"inputs": [
				{
					"internalType": "address",
					"name": "",
					"type": "address"
				}
			],
			"name": "nonces",
			"outputs": [
				{
					"internalType": "uint256",
					"name": "",
					"type": "uint256"
				}
			],
			"stateMutability": "view",
			"type": "function"
		},
		{
			"inputs": [],
			"name": "owner",
			"outputs": [
				{
					"internalType": "address",
					"name": "",
					"type": "address"
				}
			],
			"stateMutability": "view",
			"type": "function"
		},
		{
			"inputs": [
				{
					"internalType": "bytes32",
					"name": "moduleId",
					"type": "bytes32"
				},
				{
					"internalType": "address",
					"name": "module",
					"type": "address"
				}
			],
			"name": "registerModule",
			"outputs": [],
			"stateMutability": "nonpayable",
			"type": "function"
		},
		{
			"inputs": [],
			"name": "renounceOwnership",
			"outputs": [],
			"stateMutability": "nonpayable",
			"type": "function"
		},
		{
			"inputs": [
				{
					"internalType": "address",
					"name": "newOwner",
					"type": "address"
				}
			],
			"name": "transferOwnership",
			"outputs": [],
			"stateMutability": "nonpayable",
			"type": "function"
		},
		{
			"inputs": [
				{
					"internalType": "bytes32",
					"name": "moduleId",
					"type": "bytes32"
				}
			],
			"name": "unregisterModule",
			"outputs": [],
			"stateMutability": "nonpayable",
			"type": "function"
		}
	]
}