{
	"data": {
		"bytecode": {
			"linkReferences": {},
			"object": "60803461010157601f610f6b38819003918201601f19168301916001600160401b038311848410176101055780849260209460405283398101031261010157516001600160a01b038116908190036101015733156100ee575f8054336001600160a01b0319821681178355604051939290916001600160a01b0316907f8be0079c531659141344cd1fd0a4f28419497f9722a3daafe3b4186f6b6457e09080a3806100b2575b50610e51908161011a8239f35b600180546001600160a01b031916821790557fd6ceddf6d2a22f21c7c81675c518004eff43bc5c8a6fc32a0b748e69d58671cd5f80a25f6100a5565b631e4fbdf760e01b5f525f60045260245ffd5b5f80fd5b634e487b7160e01b5f52604160045260245ffdfe6080604052600436101561001a575b3615610018575f80fd5b005b5f3560e01c8063096d945b1461074f5780630a333a0f1461068e5780634d2ee433146105f757806354ec98411461056c57806364914f9c146104aa578063715018a6146104535780637b1039991461042b5780638a63ba8e146103a15780638da5cb5b1461037a578063a91ee0dc14610314578063c4142fb61461024f578063da9233241461017b578063ed2f21f5146101415763f2fde38b0361000e573461013d57602036600319011261013d576100d1610848565b6100d9610d5d565b6001600160a01b0316801561012a575f80546001600160a01b03198116831782556001600160a01b0316907f8be0079c531659141344cd1fd0a4f28419497f9722a3daafe3b4186f6b6457e09080a3005b631e4fbdf760e01b5f525f60045260245ffd5b5f80fd5b3461013d575f36600319011261013d5760206040517f55f7c72f49dbbb427cb91ebfe0101eab873e187659de9f9561496ae24a17ecdf8152f35b6101843661090d565b91929082841480610246575b61019990610b0b565b5f925f5b85811061022657506101b08434146109b6565b845f5b8181106101dc57508460405191825260208201525f80516020610ddc83398151915260403392a2005b61021e5f808080896102006101fa8860019a8b8060a01b03946109ee565b35610bf8565b1661020c878a8c6109ee565b35905af1610218610a8e565b50610acd565b0185906101b3565b9361023f6001916102388785876109ee565b3590610b46565b940161019d565b50831515610190565b6102583661090d565b9192908284148061030b575b61026d90610b0b565b5f925f5b8581106102f257506102848434146109b6565b845f5b8181106102b057508460405191825260208201525f80516020610ddc83398151915260403392a2005b6102ea5f808080896102d36102ce8860019a8b8060a01b03946109ee565b610a12565b166102df811515610a26565b61020c878a8c6109ee565b018590610287565b936103046001916102388785876109ee565b9401610271565b50831515610264565b3461013d57602036600319011261013d5761032d610848565b610335610d5d565b600180546001600160a01b0319166001600160a01b039290921691821790557fd6ceddf6d2a22f21c7c81675c518004eff43bc5c8a6fc32a0b748e69d58671cd5f80a2005b3461013d575f36600319011261013d575f546040516001600160a01b039091168152602090f35b6103aa36610815565b90916103b783151561095b565b6103c1838361098f565b916103cd8334146109b6565b835f5b8181106103f957508360405191825260208201525f80516020610ddc83398151915260403392a2005b6104235f80808087896104186101fa8960019b8c8060a01b03946109ee565b165af1610218610a8e565b0184906103d0565b3461013d575f36600319011261013d576001546040516001600160a01b039091168152602090f35b3461013d575f36600319011261013d5761046b610d5d565b5f80546001600160a01b0319811682556001600160a01b03167f8be0079c531659141344cd1fd0a4f28419497f9722a3daafe3b4186f6b6457e08280a3005b3461013d576104b83661085e565b9391929084841480610563575b6104ce90610b0b565b5f925f5b85811061054a57506001600160a01b0316946104f084303389610b53565b5f5b85811061051d575050505060405191825260208201525f80516020610dfc83398151915260403392a3005b806105446105316101fa6001948a896109ee565b61053c8386886109ee565b35908a610b9e565b016104f2565b9361055c600191610238878a876109ee565b94016104d2565b508315156104c5565b3461013d5761057a366108c5565b92909161058883151561095b565b610592838561098f565b6001600160a01b03909216936105aa83303388610b53565b5f5b8481106105d65750505060405191825260208201525f80516020610dfc83398151915260403392a3005b806105f1836105eb6101fa6001958a896109ee565b89610b9e565b016105ac565b3461013d57610605366108c5565b92909161061383151561095b565b61061d838561098f565b6001600160a01b039092169361063583303388610b53565b5f5b8481106106615750505060405191825260208201525f80516020610dfc83398151915260403392a3005b80610688836106766102ce6001958a896109ee565b6105eb858060a01b0382161515610a26565b01610637565b3461013d5761069c3661085e565b9391929084841480610746575b6106b290610b0b565b5f925f5b85811061072d57506001600160a01b0316946106d484303389610b53565b5f5b858110610701575050505060405191825260208201525f80516020610dfc83398151915260403392a3005b806107276107156102ce6001948a896109ee565b610531848060a01b0382161515610a26565b016106d6565b9361073f600191610238878a876109ee565b94016106b6565b508315156106a9565b61075836610815565b909161076583151561095b565b61076f838361098f565b9161077b8334146109b6565b835f5b8181106107a757508360405191825260208201525f80516020610ddc83398151915260403392a2005b6107dc5f80808087896107c66102ce8960019b8c8060a01b03946109ee565b166107d2811515610a26565b5af1610218610a8e565b01849061077e565b9181601f8401121561013d5782359167ffffffffffffffff831161013d576020808501948460051b01011161013d57565b604060031982011261013d576004359067ffffffffffffffff821161013d57610840916004016107e4565b909160243590565b600435906001600160a01b038216820361013d57565b90606060031983011261013d576004356001600160a01b038116810361013d579160243567ffffffffffffffff811161013d578161089e916004016107e4565b929092916044359067ffffffffffffffff821161013d576108c1916004016107e4565b9091565b90606060031983011261013d576004356001600160a01b038116810361013d57916024359067ffffffffffffffff821161013d57610905916004016107e4565b909160443590565b604060031982011261013d5760043567ffffffffffffffff811161013d5781610938916004016107e4565b929092916024359067ffffffffffffffff821161013d576108c1916004016107e4565b1561096257565b60405162461bcd60e51b8152602060048201526005602482015264656d70747960d81b6044820152606490fd5b818102929181159184041417156109a257565b634e487b7160e01b5f52601160045260245ffd5b156109bd57565b60405162461bcd60e51b8152602060048201526009602482015268189859081d1bdd185b60ba1b6044820152606490fd5b91908110156109fe5760051b0190565b634e487b7160e01b5f52603260045260245ffd5b356001600160a01b038116810361013d5790565b15610a2d57565b606460405162461bcd60e51b81526020600482015260046024820152630746f3d360e41b6044820152fd5b90601f8019910116810190811067ffffffffffffffff821117610a7a57604052565b634e487b7160e01b5f52604160045260245ffd5b3d15610ac8573d9067ffffffffffffffff8211610a7a5760405191610abd601f8201601f191660200184610a58565b82523d5f602084013e565b606090565b15610ad457565b60405162461bcd60e51b815260206004820152600f60248201526e195d1a081cd95b990819985a5b1959608a1b6044820152606490fd5b15610b1257565b60405162461bcd60e51b815260206004820152600c60248201526b0d8cadc40dad2e6dac2e8c6d60a31b6044820152606490fd5b919082018092116109a257565b6040516323b872dd60e01b60208201526001600160a01b039283166024820152929091166044830152606480830193909352918152610b9c91610b97608483610a58565b610d83565b565b60405163a9059cbb60e01b60208201526001600160a01b039092166024830152604480830193909352918152610b9c91610b97606483610a58565b9081602091031261013d57516001600160a01b038116810361013d5790565b6001549091906001600160a01b03168015610d25576040516345315d8b60e11b81526004810184905292602084602481855afa938415610cf9575f94610d04575b506001600160a01b03841615610c93575b50506001600160a01b03821615610c5d57565b60405162461bcd60e51b815260206004820152600e60248201526d199a59081b9bdd081b1a5b9ad95960921b6044820152606490fd5b602091929350602460405180948193637b9cf4f360e01b835260048301525afa908115610cf9575f91610cca575b50905f80610c4a565b610cec915060203d602011610cf2575b610ce48183610a58565b810190610bd9565b5f610cc1565b503d610cda565b6040513d5f823e3d90fd5b610d1e91945060203d602011610cf257610ce48183610a58565b925f610c39565b60405162461bcd60e51b815260206004820152601060248201526f1c9959da5cdd1c9e481b9bdd081cd95d60821b6044820152606490fd5b5f546001600160a01b03163303610d7057565b63118cdaa760e01b5f523360045260245ffd5b905f602091828151910182855af115610cf9575f513d610dd257506001600160a01b0381163b155b610db25750565b635274afe760e01b5f9081526001600160a01b0391909116600452602490fd5b60011415610dab56fe4b0923ae89d0714ec69a1fa8beba63b80231bd63fe6a324ea5e059c9390df7e593eaa469388f609b8b0878fd3b9a6f4eb03976a48189e62f980563bc9d76c926a2646970667358221220c11336b5a23ee4041fe2c89a70839709c63ce40be53a5f5572b193e5aa2a798c64736f6c634300081a0033",
			"opcodes": "PUSH1 0x80 CALLVALUE PUSH2 0x101 JUMPI PUSH1 0x1F PUSH2 0xF6B CODESIZE DUP2 SWAP1 SUB SWAP2 DUP3 ADD PUSH1 0x1F NOT AND DUP4 ADD SWAP2 PUSH1 0x1 PUSH1 0x1 PUSH1 0x40 SHL SUB DUP4 GT DUP5 DUP5 LT OR PUSH2 0x105 JUMPI DUP1 DUP5 SWAP3 PUSH1 0x20 SWAP5 PUSH1 0x40 MSTORE DUP4 CODECOPY DUP2 ADD SUB SLT PUSH2 0x101 JUMPI MLOAD PUSH1 0x1 PUSH1 0x1 PUSH1 0xA0 SHL SUB DUP2 AND SWAP1 DUP2 SWAP1 SUB PUSH2 0x101 JUMPI CALLER ISZERO PUSH2 0xEE JUMPI PUSH0 DUP1 SLOAD CALLER PUSH1 0x1 PUSH1 0x1 PUSH1 0xA0 SHL SUB NOT DUP3 AND DUP2 OR DUP4 SSTORE PUSH1 0x40 MLOAD SWAP4 SWAP3 SWAP1 SWAP2 PUSH1 0x1 PUSH1 0x1 PUSH1 0xA0 SHL SUB AND SWAP1 PUSH32 0x8BE0079C531659141344CD1FD0A4F28419497F9722A3DAAFE3B4186F6B6457E0 SWAP1 DUP1 LOG3 DUP1 PUSH2 0xB2 JUMPI JUMPDEST POP PUSH2 0xE51 SWAP1 DUP2 PUSH2 0x11A DUP3 CODECOPY RETURN JUMPDEST PUSH1 0x1 DUP1 SLOAD PUSH1 0x1 PUSH1 0x1 PUSH1 0xA0 SHL SUB NOT AND DUP3 OR SWAP1 SSTORE PUSH32 0xD6CEDDF6D2A22F21C7C81675C518004EFF43BC5C8A6FC32A0B748E69D58671CD PUSH0 DUP1 LOG2 PUSH0 PUSH2 0xA5 JUMP JUMPDEST PUSH4 0x1E4FBDF7 PUSH1 0xE0 SHL PUSH0 MSTORE PUSH0 PUSH1 0x4 MSTORE PUSH1 0x24 PUSH0 REVERT JUMPDEST PUSH0 DUP1 REVERT JUMPDEST PUSH4 0x4E487B71 PUSH1 0xE0 SHL PUSH0 MSTORE PUSH1 0x41 PUSH1 0x4 MSTORE PUSH1 0x24 PUSH0 REVERT INVALID PUSH1 0x80 PUSH1 0x40 MSTORE PUSH1 0x4 CALLDATASIZE LT ISZERO PUSH2 0x1A JUMPI JUMPDEST CALLDATASIZE ISZERO PUSH2 0x18 JUMPI PUSH0 DUP1 REVERT JUMPDEST STOP JUMPDEST PUSH0 CALLDATALOAD PUSH1 0xE0 SHR DUP1 PUSH4 0x96D945B EQ PUSH2 0x74F JUMPI DUP1 PUSH4 0xA333A0F EQ PUSH2 0x68E JUMPI DUP1 PUSH4 0x4D2EE433 EQ PUSH2 0x5F7 JUMPI DUP1 PUSH4 0x54EC9841 EQ PUSH2 0x56C JUMPI DUP1 PUSH4 0x64914F9C EQ PUSH2 0x4AA JUMPI DUP1 PUSH4 0x715018A6 EQ PUSH2 0x453 JUMPI DUP1 PUSH4 0x7B103999 EQ PUSH2 0x42B JUMPI DUP1 PUSH4 0x8A63BA8E EQ PUSH2 0x3A1 JUMPI DUP1 PUSH4 0x8DA5CB5B EQ PUSH2 0x37A JUMPI DUP1 PUSH4 0xA91EE0DC EQ PUSH2 0x314 JUMPI DUP1 PUSH4 0xC4142FB6 EQ PUSH2 0x24F JUMPI DUP1 PUSH4 0xDA923324 EQ PUSH2 0x17B JUMPI DUP1 PUSH4 0xED2F21F5 EQ PUSH2 0x141 JUMPI PUSH4 0xF2FDE38B SUB PUSH2 0xE JUMPI CALLVALUE PUSH2 0x13D JUMPI PUSH1 0x20 CALLDATASIZE PUSH1 0x3 NOT ADD SLT PUSH2 0x13D JUMPI PUSH2 0xD1 PUSH2 0x848 JUMP JUMPDEST PUSH2 0xD9 PUSH2 0xD5D JUMP JUMPDEST PUSH1 0x1 PUSH1 0x1 PUSH1 0xA0 SHL SUB AND DUP1 ISZERO PUSH2 0x12A JUMPI PUSH0 DUP1 SLOAD PUSH1 0x1 PUSH1 0x1 PUSH1 0xA0 SHL SUB NOT DUP2 AND DUP4 OR DUP3 SSTORE PUSH1 0x1 PUSH1 0x1 PUSH1 0xA0 SHL SUB AND SWAP1 PUSH32 0x8BE0079C531659141344CD1FD0A4F28419497F9722A3DAAFE3B4186F6B6457E0 SWAP1 DUP1 LOG3 STOP JUMPDEST PUSH4 0x1E4FBDF7 PUSH1 0xE0 SHL PUSH0 MSTORE PUSH0 PUSH1 0x4 MSTORE PUSH1 0x24 PUSH0 REVERT JUMPDEST PUSH0 DUP1 REVERT JUMPDEST CALLVALUE PUSH2 0x13D JUMPI PUSH0 CALLDATASIZE PUSH1 0x3 NOT ADD SLT PUSH2 0x13D JUMPI PUSH1 0x20 PUSH1 0x40 MLOAD PUSH32 0x55F7C72F49DBBB427CB91EBFE0101EAB873E187659DE9F9561496AE24A17ECDF DUP2 MSTORE RETURN JUMPDEST PUSH2 0x184 CALLDATASIZE PUSH2 0x90D JUMP JUMPDEST SWAP2 SWAP3 SWAP1 DUP3 DUP5 EQ DUP1 PUSH2 0x246 JUMPI JUMPDEST PUSH2 0x199 SWAP1 PUSH2 0xB0B JUMP JUMPDEST PUSH0 SWAP3 PUSH0 JUMPDEST DUP6 DUP2 LT PUSH2 0x226 JUMPI POP PUSH2 0x1B0 DUP5 CALLVALUE EQ PUSH2 0x9B6 JUMP JUMPDEST DUP5 PUSH0 JUMPDEST DUP2 DUP2 LT PUSH2 0x1DC JUMPI POP DUP5 PUSH1 0x40 MLOAD SWAP2 DUP3 MSTORE PUSH1 0x20 DUP3 ADD MSTORE PUSH0 DUP1 MLOAD PUSH1 0x20 PUSH2 0xDDC DUP4 CODECOPY DUP2 MLOAD SWAP2 MSTORE PUSH1 0x40 CALLER SWAP3 LOG2 STOP JUMPDEST PUSH2 0x21E PUSH0 DUP1 DUP1 DUP1 DUP10 PUSH2 0x200 PUSH2 0x1FA DUP9 PUSH1 0x1 SWAP11 DUP12 DUP1 PUSH1 0xA0 SHL SUB SWAP5 PUSH2 0x9EE JUMP JUMPDEST CALLDATALOAD PUSH2 0xBF8 JUMP JUMPDEST AND PUSH2 0x20C DUP8 DUP11 DUP13 PUSH2 0x9EE JUMP JUMPDEST CALLDATALOAD SWAP1 GAS CALL PUSH2 0x218 PUSH2 0xA8E JUMP JUMPDEST POP PUSH2 0xACD JUMP JUMPDEST ADD DUP6 SWAP1 PUSH2 0x1B3 JUMP JUMPDEST SWAP4 PUSH2 0x23F PUSH1 0x1 SWAP2 PUSH2 0x238 DUP8 DUP6 DUP8 PUSH2 0x9EE JUMP JUMPDEST CALLDATALOAD SWAP1 PUSH2 0xB46 JUMP JUMPDEST SWAP5 ADD PUSH2 0x19D JUMP JUMPDEST POP DUP4 ISZERO ISZERO PUSH2 0x190 JUMP JUMPDEST PUSH2 0x258 CALLDATASIZE PUSH2 0x90D JUMP JUMPDEST SWAP2 SWAP3 SWAP1 DUP3 DUP5 EQ DUP1 PUSH2 0x30B JUMPI JUMPDEST PUSH2 0x26D SWAP1 PUSH2 0xB0B JUMP JUMPDEST PUSH0 SWAP3 PUSH0 JUMPDEST DUP6 DUP2 LT PUSH2 0x2F2 JUMPI POP PUSH2 0x284 DUP5 CALLVALUE EQ PUSH2 0x9B6 JUMP JUMPDEST DUP5 PUSH0 JUMPDEST DUP2 DUP2 LT PUSH2 0x2B0 JUMPI POP DUP5 PUSH1 0x40 MLOAD SWAP2 DUP3 MSTORE PUSH1 0x20 DUP3 ADD MSTORE PUSH0 DUP1 MLOAD PUSH1 0x20 PUSH2 0xDDC DUP4 CODECOPY DUP2 MLOAD SWAP2 MSTORE PUSH1 0x40 CALLER SWAP3 LOG2 STOP JUMPDEST PUSH2 0x2EA PUSH0 DUP1 DUP1 DUP1 DUP10 PUSH2 0x2D3 PUSH2 0x2CE DUP9 PUSH1 0x1 SWAP11 DUP12 DUP1 PUSH1 0xA0 SHL SUB SWAP5 PUSH2 0x9EE JUMP JUMPDEST PUSH2 0xA12 JUMP JUMPDEST AND PUSH2 0x2DF DUP2 ISZERO ISZERO PUSH2 0xA26 JUMP JUMPDEST PUSH2 0x20C DUP8 DUP11 DUP13 PUSH2 0x9EE JUMP JUMPDEST ADD DUP6 SWAP1 PUSH2 0x287 JUMP JUMPDEST SWAP4 PUSH2 0x304 PUSH1 0x1 SWAP2 PUSH2 0x238 DUP8 DUP6 DUP8 PUSH2 0x9EE JUMP JUMPDEST SWAP5 ADD PUSH2 0x271 JUMP JUMPDEST POP DUP4 ISZERO ISZERO PUSH2 0x264 JUMP JUMPDEST CALLVALUE PUSH2 0x13D JUMPI PUSH1 0x20 CALLDATASIZE PUSH1 0x3 NOT ADD SLT PUSH2 0x13D JUMPI PUSH2 0x32D PUSH2 0x848 JUMP JUMPDEST PUSH2 0x335 PUSH2 0xD5D JUMP JUMPDEST PUSH1 0x1 DUP1 SLOAD PUSH1 0x1 PUSH1 0x1 PUSH1 0xA0 SHL SUB NOT AND PUSH1 0x1 PUSH1 0x1 PUSH1 0xA0 SHL SUB SWAP3 SWAP1 SWAP3 AND SWAP2 DUP3 OR SWAP1 SSTORE PUSH32 0xD6CEDDF6D2A22F21C7C81675C518004EFF43BC5C8A6FC32A0B748E69D58671CD PUSH0 DUP1 LOG2 STOP JUMPDEST CALLVALUE PUSH2 0x13D JUMPI PUSH0 CALLDATASIZE PUSH1 0x3 NOT ADD SLT PUSH2 0x13D JUMPI PUSH0 SLOAD PUSH1 0x40 MLOAD PUSH1 0x1 PUSH1 0x1 PUSH1 0xA0 SHL SUB SWAP1 SWAP2 AND DUP2 MSTORE PUSH1 0x20 SWAP1 RETURN JUMPDEST PUSH2 0x3AA CALLDATASIZE PUSH2 0x815 JUMP JUMPDEST SWAP1 SWAP2 PUSH2 0x3B7 DUP4 ISZERO ISZERO PUSH2 0x95B JUMP JUMPDEST PUSH2 0x3C1 DUP4 DUP4 PUSH2 0x98F JUMP JUMPDEST SWAP2 PUSH2 0x3CD DUP4 CALLVALUE EQ PUSH2 0x9B6 JUMP JUMPDEST DUP4 PUSH0 JUMPDEST DUP2 DUP2 LT PUSH2 0x3F9 JUMPI POP DUP4 PUSH1 0x40 MLOAD SWAP2 DUP3 MSTORE PUSH1 0x20 DUP3 ADD MSTORE PUSH0 DUP1 MLOAD PUSH1 0x20 PUSH2 0xDDC DUP4 CODECOPY DUP2 MLOAD SWAP2 MSTORE PUSH1 0x40 CALLER SWAP3 LOG2 STOP JUMPDEST PUSH2 0x423 PUSH0 DUP1 DUP1 DUP1 DUP8 DUP10 PUSH2 0x418 PUSH2 0x1FA DUP10 PUSH1 0x1 SWAP12 DUP13 DUP1 PUSH1 0xA0 SHL SUB SWAP5 PUSH2 0x9EE JUMP JUMPDEST AND GAS CALL PUSH2 0x218 PUSH2 0xA8E JUMP JUMPDEST ADD DUP5 SWAP1 PUSH2 0x3D0 JUMP JUMPDEST CALLVALUE PUSH2 0x13D JUMPI PUSH0 CALLDATASIZE PUSH1 0x3 NOT ADD SLT PUSH2 0x13D JUMPI PUSH1 0x1 SLOAD PUSH1 0x40 MLOAD PUSH1 0x1 PUSH1 0x1 PUSH1 0xA0 SHL SUB SWAP1 SWAP2 AND DUP2 MSTORE PUSH1 0x20 SWAP1 RETURN JUMPDEST CALLVALUE PUSH2 0x13D JUMPI PUSH0 CALLDATASIZE PUSH1 0x3 NOT ADD SLT PUSH2 0x13D JUMPI PUSH2 0x46B PUSH2 0xD5D JUMP JUMPDEST PUSH0 DUP1 SLOAD PUSH1 0x1 PUSH1 0x1 PUSH1 0xA0 SHL SUB NOT DUP2 AND DUP3 SSTORE PUSH1 0x1 PUSH1 0x1 PUSH1 0xA0 SHL SUB AND PUSH32 0x8BE0079C531659141344CD1FD0A4F28419497F9722A3DAAFE3B4186F6B6457E0 DUP3 DUP1 LOG3 STOP JUMPDEST CALLVALUE PUSH2 0x13D JUMPI PUSH2 0x4B8 CALLDATASIZE PUSH2 0x85E JUMP JUMPDEST SWAP4 SWAP2 SWAP3 SWAP1 DUP5 DUP5 EQ DUP1 PUSH2 0x563 JUMPI JUMPDEST PUSH2 0x4CE SWAP1 PUSH2 0xB0B JUMP JUMPDEST PUSH0 SWAP3 PUSH0 JUMPDEST DUP6 DUP2 LT PUSH2 0x54A JUMPI POP PUSH1 0x1 PUSH1 0x1 PUSH1 0xA0 SHL SUB AND SWAP5 PUSH2 0x4F0 DUP5 ADDRESS CALLER DUP10 PUSH2 0xB53 JUMP JUMPDEST PUSH0 JUMPDEST DUP6 DUP2 LT PUSH2 0x51D JUMPI POP POP POP POP PUSH1 0x40 MLOAD SWAP2 DUP3 MSTORE PUSH1 0x20 DUP3 ADD MSTORE PUSH0 DUP1 MLOAD PUSH1 0x20 PUSH2 0xDFC DUP4 CODECOPY DUP2 MLOAD SWAP2 MSTORE PUSH1 0x40 CALLER SWAP3 LOG3 STOP JUMPDEST DUP1 PUSH2 0x544 PUSH2 0x531 PUSH2 0x1FA PUSH1 0x1 SWAP5 DUP11 DUP10 PUSH2 0x9EE JUMP JUMPDEST PUSH2 0x53C DUP4 DUP7 DUP9 PUSH2 0x9EE JUMP JUMPDEST CALLDATALOAD SWAP1 DUP11 PUSH2 0xB9E JUMP JUMPDEST ADD PUSH2 0x4F2 JUMP JUMPDEST SWAP4 PUSH2 0x55C PUSH1 0x1 SWAP2 PUSH2 0x238 DUP8 DUP11 DUP8 PUSH2 0x9EE JUMP JUMPDEST SWAP5 ADD PUSH2 0x4D2 JUMP JUMPDEST POP DUP4 ISZERO ISZERO PUSH2 0x4C5 JUMP JUMPDEST CALLVALUE PUSH2 0x13D JUMPI PUSH2 0x57A CALLDATASIZE PUSH2 0x8C5 JUMP JUMPDEST SWAP3 SWAP1 SWAP2 PUSH2 0x588 DUP4 ISZERO ISZERO PUSH2 0x95B JUMP JUMPDEST PUSH2 0x592 DUP4 DUP6 PUSH2 0x98F JUMP JUMPDEST PUSH1 0x1 PUSH1 0x1 PUSH1 0xA0 SHL SUB SWAP1 SWAP3 AND SWAP4 PUSH2 0x5AA DUP4 ADDRESS CALLER DUP9 PUSH2 0xB53 JUMP JUMPDEST PUSH0 JUMPDEST DUP5 DUP2 LT PUSH2 0x5D6 JUMPI POP POP POP PUSH1 0x40 MLOAD SWAP2 DUP3 MSTORE PUSH1 0x20 DUP3 ADD MSTORE PUSH0 DUP1 MLOAD PUSH1 0x20 PUSH2 0xDFC DUP4 CODECOPY DUP2 MLOAD SWAP2 MSTORE PUSH1 0x40 CALLER SWAP3 LOG3 STOP JUMPDEST DUP1 PUSH2 0x5F1 DUP4 PUSH2 0x5EB PUSH2 0x1FA PUSH1 0x1 SWAP6 DUP11 DUP10 PUSH2 0x9EE JUMP JUMPDEST DUP10 PUSH2 0xB9E JUMP JUMPDEST ADD PUSH2 0x5AC JUMP JUMPDEST CALLVALUE PUSH2 0x13D JUMPI PUSH2 0x605 CALLDATASIZE PUSH2 0x8C5 JUMP JUMPDEST SWAP3 SWAP1 SWAP2 PUSH2 0x613 DUP4 ISZERO ISZERO PUSH2 0x95B JUMP JUMPDEST PUSH2 0x61D DUP4 DUP6 PUSH2 0x98F JUMP JUMPDEST PUSH1 0x1 PUSH1 0x1 PUSH1 0xA0 SHL SUB SWAP1 SWAP3 AND SWAP4 PUSH2 0x635 DUP4 ADDRESS CALLER DUP9 PUSH2 0xB53 JUMP JUMPDEST PUSH0 JUMPDEST DUP5 DUP2 LT PUSH2 0x661 JUMPI POP POP POP PUSH1 0x40 MLOAD SWAP2 DUP3 MSTORE PUSH1 0x20 DUP3 ADD MSTORE PUSH0 DUP1 MLOAD PUSH1 0x20 PUSH2 0xDFC DUP4 CODECOPY DUP2 MLOAD SWAP2 MSTORE PUSH1 0x40 CALLER SWAP3 LOG3 STOP JUMPDEST DUP1 PUSH2 0x688 DUP4 PUSH2 0x676 PUSH2 0x2CE PUSH1 0x1 SWAP6 DUP11 DUP10 PUSH2 0x9EE JUMP JUMPDEST PUSH2 0x5EB DUP6 DUP1 PUSH1 0xA0 SHL SUB DUP3 AND ISZERO ISZERO PUSH2 0xA26 JUMP JUMPDEST ADD PUSH2 0x637 JUMP JUMPDEST CALLVALUE PUSH2 0x13D JUMPI PUSH2 0x69C CALLDATASIZE PUSH2 0x85E JUMP JUMPDEST SWAP4 SWAP2 SWAP3 SWAP1 DUP5 DUP5 EQ DUP1 PUSH2 0x746 JUMPI JUMPDEST PUSH2 0x6B2 SWAP1 PUSH2 0xB0B JUMP JUMPDEST PUSH0 SWAP3 PUSH0 JUMPDEST DUP6 DUP2 LT PUSH2 0x72D JUMPI POP PUSH1 0x1 PUSH1 0x1 PUSH1 0xA0 SHL SUB AND SWAP5 PUSH2 0x6D4 DUP5 ADDRESS CALLER DUP10 PUSH2 0xB53 JUMP JUMPDEST PUSH0 JUMPDEST DUP6 DUP2 LT PUSH2 0x701 JUMPI POP POP POP POP PUSH1 0x40 MLOAD SWAP2 DUP3 MSTORE PUSH1 0x20 DUP3 ADD MSTORE PUSH0 DUP1 MLOAD PUSH1 0x20 PUSH2 0xDFC DUP4 CODECOPY DUP2 MLOAD SWAP2 MSTORE PUSH1 0x40 CALLER SWAP3 LOG3 STOP JUMPDEST DUP1 PUSH2 0x727 PUSH2 0x715 PUSH2 0x2CE PUSH1 0x1 SWAP5 DUP11 DUP10 PUSH2 0x9EE JUMP JUMPDEST PUSH2 0x531 DUP5 DUP1 PUSH1 0xA0 SHL SUB DUP3 AND ISZERO ISZERO PUSH2 0xA26 JUMP JUMPDEST ADD PUSH2 0x6D6 JUMP JUMPDEST SWAP4 PUSH2 0x73F PUSH1 0x1 SWAP2 PUSH2 0x238 DUP8 DUP11 DUP8 PUSH2 0x9EE JUMP JUMPDEST SWAP5 ADD PUSH2 0x6B6 JUMP JUMPDEST POP DUP4 ISZERO ISZERO PUSH2 0x6A9 JUMP JUMPDEST PUSH2 0x758 CALLDATASIZE PUSH2 0x815 JUMP JUMPDEST SWAP1 SWAP2 PUSH2 0x765 DUP4 ISZERO ISZERO PUSH2 0x95B JUMP JUMPDEST PUSH2 0x76F DUP4 DUP4 PUSH2 0x98F JUMP JUMPDEST SWAP2 PUSH2 0x77B DUP4 CALLVALUE EQ PUSH2 0x9B6 JUMP JUMPDEST DUP4 PUSH0 JUMPDEST DUP2 DUP2 LT PUSH2 0x7A7 JUMPI POP DUP4 PUSH1 0x40 MLOAD SWAP2 DUP3 MSTORE PUSH1 0x20 DUP3 ADD MSTORE PUSH0 DUP1 MLOAD PUSH1 0x20 PUSH2 0xDDC DUP4 CODECOPY DUP2 MLOAD SWAP2 MSTORE PUSH1 0x40 CALLER SWAP3 LOG2 STOP JUMPDEST PUSH2 0x7DC PUSH0 DUP1 DUP1 DUP1 DUP8 DUP10 PUSH2 0x7C6 PUSH2 0x2CE DUP10 PUSH1 0x1 SWAP12 DUP13 DUP1 PUSH1 0xA0 SHL SUB SWAP5 PUSH2 0x9EE JUMP JUMPDEST AND PUSH2 0x7D2 DUP2 ISZERO ISZERO PUSH2 0xA26 JUMP JUMPDEST GAS CALL PUSH2 0x218 PUSH2 0xA8E JUMP JUMPDEST ADD DUP5 SWAP1 PUSH2 0x77E JUMP JUMPDEST SWAP2 DUP2 PUSH1 0x1F DUP5 ADD SLT ISZERO PUSH2 0x13D JUMPI DUP3 CALLDATALOAD SWAP2 PUSH8 0xFFFFFFFFFFFFFFFF DUP4 GT PUSH2 0x13D JUMPI PUSH1 0x20 DUP1 DUP6 ADD SWAP5 DUP5 PUSH1 0x5 SHL ADD ADD GT PUSH2 0x13D JUMPI JUMP JUMPDEST PUSH1 0x40 PUSH1 0x3 NOT DUP3 ADD SLT PUSH2 0x13D JUMPI PUSH1 0x4 CALLDATALOAD SWAP1 PUSH8 0xFFFFFFFFFFFFFFFF DUP3 GT PUSH2 0x13D JUMPI PUSH2 0x840 SWAP2 PUSH1 0x4 ADD PUSH2 0x7E4 JUMP JUMPDEST SWAP1 SWAP2 PUSH1 0x24 CALLDATALOAD SWAP1 JUMP JUMPDEST PUSH1 0x4 CALLDATALOAD SWAP1 PUSH1 0x1 PUSH1 0x1 PUSH1 0xA0 SHL SUB DUP3 AND DUP3 SUB PUSH2 0x13D JUMPI JUMP JUMPDEST SWAP1 PUSH1 0x60 PUSH1 0x3 NOT DUP4 ADD SLT PUSH2 0x13D JUMPI PUSH1 0x4 CALLDATALOAD PUSH1 0x1 PUSH1 0x1 PUSH1 0xA0 SHL SUB DUP2 AND DUP2 SUB PUSH2 0x13D JUMPI SWAP2 PUSH1 0x24 CALLDATALOAD PUSH8 0xFFFFFFFFFFFFFFFF DUP2 GT PUSH2 0x13D JUMPI DUP2 PUSH2 0x89E SWAP2 PUSH1 0x4 ADD PUSH2 0x7E4 JUMP JUMPDEST SWAP3 SWAP1 SWAP3 SWAP2 PUSH1 0x44 CALLDATALOAD SWAP1 PUSH8 0xFFFFFFFFFFFFFFFF DUP3 GT PUSH2 0x13D JUMPI PUSH2 0x8C1 SWAP2 PUSH1 0x4 ADD PUSH2 0x7E4 JUMP JUMPDEST SWAP1 SWAP2 JUMP JUMPDEST SWAP1 PUSH1 0x60 PUSH1 0x3 NOT DUP4 ADD SLT PUSH2 0x13D JUMPI PUSH1 0x4 CALLDATALOAD PUSH1 0x1 PUSH1 0x1 PUSH1 0xA0 SHL SUB DUP2 AND DUP2 SUB PUSH2 0x13D JUMPI SWAP2 PUSH1 0x24 CALLDATALOAD SWAP1 PUSH8 0xFFFFFFFFFFFFFFFF DUP3 GT PUSH2 0x13D JUMPI PUSH2 0x905 SWAP2 PUSH1 0x4 ADD PUSH2 0x7E4 JUMP JUMPDEST SWAP1 SWAP2 PUSH1 0x44 CALLDATALOAD SWAP1 JUMP JUMPDEST PUSH1 0x40 PUSH1 0x3 NOT DUP3 ADD SLT PUSH2 0x13D JUMPI PUSH1 0x4 CALLDATALOAD PUSH8 0xFFFFFFFFFFFFFFFF DUP2 GT PUSH2 0x13D JUMPI DUP2 PUSH2 0x938 SWAP2 PUSH1 0x4 ADD PUSH2 0x7E4 JUMP JUMPDEST SWAP3 SWAP1 SWAP3 SWAP2 PUSH1 0x24 CALLDATALOAD SWAP1 PUSH8 0xFFFFFFFFFFFFFFFF DUP3 GT PUSH2 0x13D JUMPI PUSH2 0x8C1 SWAP2 PUSH1 0x4 ADD PUSH2 0x7E4 JUMP JUMPDEST ISZERO PUSH2 0x962 JUMPI JUMP JUMPDEST PUSH1 0x40 MLOAD PUSH3 0x461BCD PUSH1 0xE5 SHL DUP2 MSTORE PUSH1 0x20 PUSH1 0x4 DUP3 ADD MSTORE PUSH1 0x5 PUSH1 0x24 DUP3 ADD MSTORE PUSH5 0x656D707479 PUSH1 0xD8 SHL PUSH1 0x44 DUP3 ADD MSTORE PUSH1 0x64 SWAP1 REVERT JUMPDEST DUP2 DUP2 MUL SWAP3 SWAP2 DUP2 ISZERO SWAP2 DUP5 DIV EQ OR ISZERO PUSH2 0x9A2 JUMPI JUMP JUMPDEST PUSH4 0x4E487B71 PUSH1 0xE0 SHL PUSH0 MSTORE PUSH1 0x11 PUSH1 0x4 MSTORE PUSH1 0x24 PUSH0 REVERT JUMPDEST ISZERO PUSH2 0x9BD JUMPI JUMP JUMPDEST PUSH1 0x40 MLOAD PUSH3 0x461BCD PUSH1 0xE5 SHL DUP2 MSTORE PUSH1 0x20 PUSH1 0x4 DUP3 ADD MSTORE PUSH1 0x9 PUSH1 0x24 DUP3 ADD MSTORE PUSH9 0x189859081D1BDD185B PUSH1 0xBA SHL PUSH1 0x44 DUP3 ADD MSTORE PUSH1 0x64 SWAP1 REVERT JUMPDEST SWAP2 SWAP1 DUP2 LT ISZERO PUSH2 0x9FE JUMPI PUSH1 0x5 SHL ADD SWAP1 JUMP JUMPDEST PUSH4 0x4E487B71 PUSH1 0xE0 SHL PUSH0 MSTORE PUSH1 0x32 PUSH1 0x4 MSTORE PUSH1 0x24 PUSH0 REVERT JUMPDEST CALLDATALOAD PUSH1 0x1 PUSH1 0x1 PUSH1 0xA0 SHL SUB DUP2 AND DUP2 SUB PUSH2 0x13D JUMPI SWAP1 JUMP JUMPDEST ISZERO PUSH2 0xA2D JUMPI JUMP JUMPDEST PUSH1 0x64 PUSH1 0x40 MLOAD PUSH3 0x461BCD PUSH1 0xE5 SHL DUP2 MSTORE PUSH1 0x20 PUSH1 0x4 DUP3 ADD MSTORE PUSH1 0x4 PUSH1 0x24 DUP3 ADD MSTORE PUSH4 0x746F3D3 PUSH1 0xE4 SHL PUSH1 0x44 DUP3 ADD MSTORE REVERT JUMPDEST SWAP1 PUSH1 0x1F DUP1 NOT SWAP2 ADD AND DUP2 ADD SWAP1 DUP2 LT PUSH8 0xFFFFFFFFFFFFFFFF DUP3 GT OR PUSH2 0xA7A JUMPI PUSH1 0x40 MSTORE JUMP JUMPDEST PUSH4 0x4E487B71 PUSH1 0xE0 SHL PUSH0 MSTORE PUSH1 0x41 PUSH1 0x4 MSTORE PUSH1 0x24 PUSH0 REVERT JUMPDEST RETURNDATASIZE ISZERO PUSH2 0xAC8 JUMPI RETURNDATASIZE SWAP1 PUSH8 0xFFFFFFFFFFFFFFFF DUP3 GT PUSH2 0xA7A JUMPI PUSH1 0x40 MLOAD SWAP2 PUSH2 0xABD PUSH1 0x1F DUP3 ADD PUSH1 0x1F NOT AND PUSH1 0x20 ADD DUP5 PUSH2 0xA58 JUMP JUMPDEST DUP3 MSTORE RETURNDATASIZE PUSH0 PUSH1 0x20 DUP5 ADD RETURNDATACOPY JUMP JUMPDEST PUSH1 0x60 SWAP1 JUMP JUMPDEST ISZERO PUSH2 0xAD4 JUMPI JUMP JUMPDEST PUSH1 0x40 MLOAD PUSH3 0x461BCD PUSH1 0xE5 SHL DUP2 MSTORE PUSH1 0x20 PUSH1 0x4 DUP3 ADD MSTORE PUSH1 0xF PUSH1 0x24 DUP3 ADD MSTORE PUSH15 0x195D1A081CD95B990819985A5B1959 PUSH1 0x8A SHL PUSH1 0x44 DUP3 ADD MSTORE PUSH1 0x64 SWAP1 REVERT JUMPDEST ISZERO PUSH2 0xB12 JUMPI JUMP JUMPDEST PUSH1 0x40 MLOAD PUSH3 0x461BCD PUSH1 0xE5 SHL DUP2 MSTORE PUSH1 0x20 PUSH1 0x4 DUP3 ADD MSTORE PUSH1 0xC PUSH1 0x24 DUP3 ADD MSTORE PUSH12 0xD8CADC40DAD2E6DAC2E8C6D PUSH1 0xA3 SHL PUSH1 0x44 DUP3 ADD MSTORE PUSH1 0x64 SWAP1 REVERT JUMPDEST SWAP2 SWAP1 DUP3 ADD DUP1 SWAP3 GT PUSH2 0x9A2 JUMPI JUMP JUMPDEST PUSH1 0x40 MLOAD PUSH4 0x23B872DD PUSH1 0xE0 SHL PUSH1 0x20 DUP3 ADD MSTORE PUSH1 0x1 PUSH1 0x1 PUSH1 0xA0 SHL SUB SWAP3 DUP4 AND PUSH1 0x24 DUP3 ADD MSTORE SWAP3 SWAP1 SWAP2 AND PUSH1 0x44 DUP4 ADD MSTORE PUSH1 0x64 DUP1 DUP4 ADD SWAP4 SWAP1 SWAP4 MSTORE SWAP2 DUP2 MSTORE PUSH2 0xB9C SWAP2 PUSH2 0xB97 PUSH1 0x84 DUP4 PUSH2 0xA58 JUMP JUMPDEST PUSH2 0xD83 JUMP JUMPDEST JUMP JUMPDEST PUSH1 0x40 MLOAD PUSH4 0xA9059CBB PUSH1 0xE0 SHL PUSH1 0x20 DUP3 ADD MSTORE PUSH1 0x1 PUSH1 0x1 PUSH1 0xA0 SHL SUB SWAP1 SWAP3 AND PUSH1 0x24 DUP4 ADD MSTORE PUSH1 0x44 DUP1 DUP4 ADD SWAP4 SWAP1 SWAP4 MSTORE SWAP2 DUP2 MSTORE PUSH2 0xB9C SWAP2 PUSH2 0xB97 PUSH1 0x64 DUP4 PUSH2 0xA58 JUMP JUMPDEST SWAP1 DUP2 PUSH1 0x20 SWAP2 SUB SLT PUSH2 0x13D JUMPI MLOAD PUSH1 0x1 PUSH1 0x1 PUSH1 0xA0 SHL SUB DUP2 AND DUP2 SUB PUSH2 0x13D JUMPI SWAP1 JUMP JUMPDEST PUSH1 0x1 SLOAD SWAP1 SWAP2 SWAP1 PUSH1 0x1 PUSH1 0x1 PUSH1 0xA0 SHL SUB AND DUP1 ISZERO PUSH2 0xD25 JUMPI PUSH1 0x40 MLOAD PUSH4 0x45315D8B PUSH1 0xE1 SHL DUP2 MSTORE PUSH1 0x4 DUP2 ADD DUP5 SWAP1 MSTORE SWAP3 PUSH1 0x20 DUP5 PUSH1 0x24 DUP2 DUP6 GAS STATICCALL SWAP4 DUP5 ISZERO PUSH2 0xCF9 JUMPI PUSH0 SWAP5 PUSH2 0xD04 JUMPI JUMPDEST POP PUSH1 0x1 PUSH1 0x1 PUSH1 0xA0 SHL SUB DUP5 AND ISZERO PUSH2 0xC93 JUMPI JUMPDEST POP POP PUSH1 0x1 PUSH1 0x1 PUSH1 0xA0 SHL SUB DUP3 AND ISZERO PUSH2 0xC5D JUMPI JUMP JUMPDEST PUSH1 0x40 MLOAD PUSH3 0x461BCD PUSH1 0xE5 SHL DUP2 MSTORE PUSH1 0x20 PUSH1 0x4 DUP3 ADD MSTORE PUSH1 0xE PUSH1 0x24 DUP3 ADD MSTORE PUSH14 0x199A59081B9BDD081B1A5B9AD959 PUSH1 0x92 SHL PUSH1 0x44 DUP3 ADD MSTORE PUSH1 0x64 SWAP1 REVERT JUMPDEST PUSH1 0x20 SWAP2 SWAP3 SWAP4 POP PUSH1 0x24 PUSH1 0x40 MLOAD DUP1 SWAP5 DUP2 SWAP4 PUSH4 0x7B9CF4F3 PUSH1 0xE0 SHL DUP4 MSTORE PUSH1 0x4 DUP4 ADD MSTORE GAS STATICCALL SWAP1 DUP2 ISZERO PUSH2 0xCF9 JUMPI PUSH0 SWAP2 PUSH2 0xCCA JUMPI JUMPDEST POP SWAP1 PUSH0 DUP1 PUSH2 0xC4A JUMP JUMPDEST PUSH2 0xCEC SWAP2 POP PUSH1 0x20 RETURNDATASIZE PUSH1 0x20 GT PUSH2 0xCF2 JUMPI JUMPDEST PUSH2 0xCE4 DUP2 DUP4 PUSH2 0xA58 JUMP JUMPDEST DUP2 ADD SWAP1 PUSH2 0xBD9 JUMP JUMPDEST PUSH0 PUSH2 0xCC1 JUMP JUMPDEST POP RETURNDATASIZE PUSH2 0xCDA JUMP JUMPDEST PUSH1 0x40 MLOAD RETURNDATASIZE PUSH0 DUP3 RETURNDATACOPY RETURNDATASIZE SWAP1 REVERT JUMPDEST PUSH2 0xD1E SWAP2 SWAP5 POP PUSH1 0x20 RETURNDATASIZE PUSH1 0x20 GT PUSH2 0xCF2 JUMPI PUSH2 0xCE4 DUP2 DUP4 PUSH2 0xA58 JUMP JUMPDEST SWAP3 PUSH0 PUSH2 0xC39 JUMP JUMPDEST PUSH1 0x40 MLOAD PUSH3 0x461BCD PUSH1 0xE5 SHL DUP2 MSTORE PUSH1 0x20 PUSH1 0x4 DUP3 ADD MSTORE PUSH1 0x10 PUSH1 0x24 DUP3 ADD MSTORE PUSH16 0x1C9959DA5CDD1C9E481B9BDD081CD95D PUSH1 0x82 SHL PUSH1 0x44 DUP3 ADD MSTORE PUSH1 0x64 SWAP1 REVERT JUMPDEST PUSH0 SLOAD PUSH1 0x1 PUSH1 0x1 PUSH1 0xA0 SHL SUB AND CALLER SUB PUSH2 0xD70 JUMPI JUMP JUMPDEST PUSH4 0x118CDAA7 PUSH1 0xE0 SHL PUSH0 MSTORE CALLER PUSH1 0x4 MSTORE PUSH1 0x24 PUSH0 REVERT JUMPDEST SWAP1 PUSH0 PUSH1 0x20 SWAP2 DUP3 DUP2 MLOAD SWAP2 ADD DUP3 DUP6 GAS CALL ISZERO PUSH2 0xCF9 JUMPI PUSH0 MLOAD RETURNDATASIZE PUSH2 0xDD2 JUMPI POP PUSH1 0x1 PUSH1 0x1 PUSH1 0xA0 SHL SUB DUP2 AND EXTCODESIZE ISZERO JUMPDEST PUSH2 0xDB2 JUMPI POP JUMP JUMPDEST PUSH4 0x5274AFE7 PUSH1 0xE0 SHL PUSH0 SWAP1 DUP2 MSTORE PUSH1 0x1 PUSH1 0x1 PUSH1 0xA0 SHL SUB SWAP2 SWAP1 SWAP2 AND PUSH1 0x4 MSTORE PUSH1 0x24 SWAP1 REVERT JUMPDEST PUSH1 0x1 EQ ISZERO PUSH2 0xDAB JUMP INVALID 0x4B MULMOD 0x23 0xAE DUP10 0xD0 PUSH18 0x4EC69A1FA8BEBA63B80231BD63FE6A324EA5 0xE0 MSIZE 0xC9 CODECOPY 0xD 0xF7 0xE5 SWAP4 0xEA LOG4 PUSH10 0x388F609B8B0878FD3B9A PUSH16 0x4EB03976A48189E62F980563BC9D76C9 0x26 LOG2 PUSH5 0x6970667358 0x22 SLT KECCAK256 0xC1 SGT CALLDATASIZE 0xB5 LOG2 RETURNDATACOPY 0xE4 DIV 0x1F 0xE2 0xC8 SWAP11 PUSH17 0x839709C63CE40BE53A5F5572B193E5AA2A PUSH26 0x8C64736F6C634300081A00330000000000000000000000000000 "
		},
		"gasEstimates": {
			"creation": {
				"codeDepositCost": "733000",
				"executionCost": "infinite",
				"totalCost": "infinite"
			},
			"external": {
				"MODULE_ID()": "409",
				"owner()": "2447",
				"registry()": "2404",
				"renounceOwnership()": "28152",
				"sendEtH(address[],uint256[])": "infinite",
				"sendEtHByFid(uint256[],uint256[])": "infinite",
				"sendEtHEqual(address[],uint256)": "infinite",
				"sendEtHEqualByFid(uint256[],uint256)": "infinite",
				"sendToken(address,address[],uint256[])": "infinite",
				"sendTokenByFid(address,uint256[],uint256[])": "infinite",
				"sendTokenEqual(address,address[],uint256)": "infinite",
				"sendTokenEqualByFid(address,uint256[],uint256)": "infinite",
				"setRegistry(address)": "27954",
				"transferOwnership(address)": "28444"
			},
			"internal": {
				"_resolveFid(uint256)": "infinite"
			}
		},
		"methodIdentifiers": {
			"MODULE_ID()": "ed2f21f5",
			"owner()": "8da5cb5b",
			"registry()": "7b103999",
			"renounceOwnership()": "715018a6",
			"sendEtH(address[],uint256[])": "c4142fb6",
			"sendEtHByFid(uint256[],uint256[])": "da923324",
			"sendEtHEqual(address[],uint256)": "096d945b",
			"sendEtHEqualByFid(uint256[],uint256)": "8a63ba8e",
			"sendToken(address,address[],uint256[])": "0a333a0f",
			"sendTokenByFid(address,uint256[],uint256[])": "64914f9c",
			"sendTokenEqual(address,address[],uint256)": "4d2ee433",
			"sendTokenEqualByFid(address,uint256[],uint256)": "54ec9841",
			"setRegistry(address)": "a91ee0dc",
			"transferOwnership(address)": "f2fde38b"
		}
	},
	"abi": [
		{
			"inputs": [
				{
					"internalType": "address",
					"name": "_registry",
					"type": "address"
				}
			],
			"stateMutability": "nonpayable",
			"type": "constructor"
		},
		{
			"inputs": [
				{
					"internalType": "address",
					"name": "owner",
					"type": "address"
				}
			],
			"name": "OwnableInvalidOwner",
			"type": "error"
		},
		{
			"inputs": [
				{
					"internalType": "address",
					"name": "account",
					"type": "address"
				}
			],
			"name": "OwnableUnauthorizedAccount",
			"type": "error"
		},
		{
			"inputs": [
				{
					"internalType": "address",
					"name": "token",
					"type": "address"
				}
			],
			"name": "SafeERC20FailedOperation",
			"type": "error"
		},
		{
			"anonymous": false,
			"inputs": [
				{
					"indexed": true,
					"internalType": "address",
					"name": "vault",
					"type": "address"
				},
				{
					"indexed": false,
					"internalType": "uint256",
					"name": "recipients",
					"type": "uint256"
				},
				{
					"indexed": false,
					"internalType": "uint256",
					"name": "total",
					"type": "uint256"
				}
			],
			"name": "BatchEthSent",
			"type": "event"
		},
		{
			"anonymous": false,
			"inputs": [
				{
					"indexed": true,
					"internalType": "address",
					"name": "vault",
					"type": "address"
				},
				{
					"indexed": true,
					"internalType": "address",
					"name": "token",
					"type": "address"
				},
				{
					"indexed": false,
					"internalType": "uint256",
					"name": "recipients",
					"type": "uint256"
				},
				{
					"indexed": false,
					"internalType": "uint256",
					"name": "total",
					"type": "uint256"
				}
			],
			"name": "BatchTokenSent",
			"type": "event"
		},
		{
			"anonymous": false,
			"inputs": [
				{
					"indexed": true,
					"internalType": "address",
					"name": "previousOwner",
					"type": "address"
				},
				{
					"indexed": true,
					"internalType": "address",
					"name": "newOwner",
					"type": "address"
				}
			],
			"name": "OwnershipTransferred",
			"type": "event"
		},
		{
			"anonymous": false,
			"inputs": [
				{
					"indexed": true,
					"internalType": "address",
					"name": "registry",
					"type": "address"
				}
			],
			"name": "RegistryUpdated",
			"type": "event"
		},
		{
			"inputs": [],
			"name": "MODULE_ID",
			"outputs": [
				{
					"internalType": "bytes32",
					"name": "",
					"type": "bytes32"
				}
			],
			"stateMutability": "view",
			"type": "function"
		},
		{
			"inputs": [],
			"name": "owner",
			"outputs": [
				{
					"internalType": "address",
					"name": "",
					"type": "address"
				}
			],
			"stateMutability": "view",
			"type": "function"
		},
		{
			"inputs": [],
			"name": "registry",
			"outputs": [
				{
					"internalType": "contract IFarcasterRegistry",
					"name": "",
					"type": "address"
				}
			],
			"stateMutability": "view",
			"type": "function"
		},
		{
			"inputs": [],
			"name": "renounceOwnership",
			"outputs": [],
			"stateMutability": "nonpayable",
			"type": "function"
		},
		{
			"inputs": [
				{
					"internalType": "address[]",
					"name": "recipients",
					"type": "address[]"
				},
				{
					"internalType": "uint256[]",
					"name": "amounts",
					"type": "uint256[]"
				}
			],
			"name": "sendEtH",
			"outputs": [],
			"stateMutability": "payable",
			"type": "function"
		},
		{
			"inputs": [
				{
					"internalType": "uint256[]",
					"name": "fids",
					"type": "uint256[]"
				},
				{
					"internalType": "uint256[]",
					"name": "amounts",
					"type": "uint256[]"
				}
			],
			"name": "sendEtHByFid",
			"outputs": [],
			"stateMutability": "payable",
			"type": "function"
		},
		{
			"inputs": [
				{
					"internalType": "address[]",
					"name": "recipients",
					"type": "address[]"
				},
				{
					"internalType": "uint256",
					"name": "amountEach",
					"type": "uint256"
				}
			],
			"name": "sendEtHEqual",
			"outputs": [],
			"stateMutability": "payable",
			"type": "function"
		},
		{
			"inputs": [
				{
					"internalType": "uint256[]",
					"name": "fids",
					"type": "uint256[]"
				},
				{
					"internalType": "uint256",
					"name": "amountEach",
					"type": "uint256"
				}
			],
			"name": "sendEtHEqualByFid",
			"outputs": [],
			"stateMutability": "payable",
			"type": "function"
		},
		{
			"inputs": [
				{
					"internalType": "address",
					"name": "token",
					"type": "address"
				},
				{
					"internalType": "address[]",
					"name": "recipients",
					"type": "address[]"
				},
				{
					"internalType": "uint256[]",
					"name": "amounts",
					"type": "uint256[]"
				}
			],
			"name": "sendToken",
			"outputs": [],
			"stateMutability": "nonpayable",
			"type": "function"
		},
		{
			"inputs": [
				{
					"internalType": "address",
					"name": "token",
					"type": "address"
				},
				{
					"internalType": "uint256[]",
					"name": "fids",
					"type": "uint256[]"
				},
				{
					"internalType": "uint256[]",
					"name": "amounts",
					"type": "uint256[]"
				}
			],
			"name": "sendTokenByFid",
			"outputs": [],
			"stateMutability": "nonpayable",
			"type": "function"
		},
		{
			"inputs": [
				{
					"internalType": "address",
					"name": "token",
					"type": "address"
				},
				{
					"internalType": "address[]",
					"name": "recipients",
					"type": "address[]"
				},
				{
					"internalType": "uint256",
					"name": "amountEach",
					"type": "uint256"
				}
			],
			"name": "sendTokenEqual",
			"outputs": [],
			"stateMutability": "nonpayable",
			"type": "function"
		},
		{
			"inputs": [
				{
					"internalType": "address",
					"name": "token",
					"type": "address"
				},
				{
					"internalType": "uint256[]",
					"name": "fids",
					"type": "uint256[]"
				},
				{
					"internalType": "uint256",
					"name": "amountEach",
					"type": "uint256"
				}
			],
			"name": "sendTokenEqualByFid",
			"outputs": [],
			"stateMutability": "nonpayable",
			"type": "function"
		},
		{
			"inputs": [
				{
					"internalType": "address",
					"name": "_registry",
					"type": "address"
				}
			],
			"name": "setRegistry",
			"outputs": [],
			"stateMutability": "nonpayable",
			"type": "function"
		},
		{
			"inputs": [
				{
					"internalType": "address",
					"name": "newOwner",
					"type": "address"
				}
			],
			"name": "transferOwnership",
			"outputs": [],
			"stateMutability": "nonpayable",
			"type": "function"
		},
		{
			"stateMutability": "payable",
			"type": "receive"
		}
	]
}