{
	"data": {
		"bytecode": {
			"linkReferences": {},
			"object": "608034606f57601f6103c938819003918201601f19168301916001600160401b03831184841017607357808492602094604052833981010312606f57516001600160a01b03811690819003606f575f80546001600160a01b03191691909117905560405161034190816100888239f35b5f80fd5b634e487b7160e01b5f52604160045260245ffdfe6080806040526004361015610012575f80fd5b5f3560e01c9081630c340a241461028757508063342aa8b5146101fe57806389e7577d146100a25780639f30490a1461019a578063a830c45d14610074578063b6aa515b146100df578063bd5274b8146100a25763efc1a9bf14610074575f80fd5b3461009e57602036600319011261009e576004355f526002602052602060405f2054604051908152f35b5f80fd5b3461009e57602036600319011261009e576001600160a01b036100c36102a9565b165f526001602052602060ff60405f2054166040519015158152f35b3461009e57602036600319011261009e576100f86102a9565b5f546001600160a01b038116916101103384146102bf565b6001600160a01b03169182156101555782907f6fadb1c244276388aee22be93b919985a18748c021e5d48553957a48101a25605f80a36001600160a01b031916175f55005b60405162461bcd60e51b815260206004820152601860248201527f426f74436f6e74726f6c6c65723a207a65726f206164647200000000000000006044820152606490fd5b3461009e57604036600319011261009e576004357feb4fe811c14a1bd68ad94ad378bf0be4925bb675842d9fcf3d368b7d53aff70960206024356101e860018060a01b035f541633146102bf565b835f52600282528060405f2055604051908152a2005b3461009e57604036600319011261009e576102176102a9565b6024359081151580920361009e5760207f7b3def6e15f72904d1bfe1a96d14df3f72efdb9a0f77a2f281054755b927b6249161025d60018060a01b035f541633146102bf565b60018060a01b031692835f526001825260405f2060ff1981541660ff8316179055604051908152a2005b3461009e575f36600319011261009e575f546001600160a01b03168152602090f35b600435906001600160a01b038216820361009e57565b156102c657565b60405162461bcd60e51b815260206004820152601b60248201527f426f74436f6e74726f6c6c65723a206e6f7420676f7665726e6f7200000000006044820152606490fdfea2646970667358221220e4fd10dffdbe23f090eca8aba07d4373613130480ca6adb3546ab892a61f770264736f6c634300081a0033",
			"opcodes": "PUSH1 0x80 CALLVALUE PUSH1 0x6F JUMPI PUSH1 0x1F PUSH2 0x3C9 CODESIZE DUP2 SWAP1 SUB SWAP2 DUP3 ADD PUSH1 0x1F NOT AND DUP4 ADD SWAP2 PUSH1 0x1 PUSH1 0x1 PUSH1 0x40 SHL SUB DUP4 GT DUP5 DUP5 LT OR PUSH1 0x73 JUMPI DUP1 DUP5 SWAP3 PUSH1 0x20 SWAP5 PUSH1 0x40 MSTORE DUP4 CODECOPY DUP2 ADD SUB SLT PUSH1 0x6F JUMPI MLOAD PUSH1 0x1 PUSH1 0x1 PUSH1 0xA0 SHL SUB DUP2 AND SWAP1 DUP2 SWAP1 SUB PUSH1 0x6F JUMPI PUSH0 DUP1 SLOAD PUSH1 0x1 PUSH1 0x1 PUSH1 0xA0 SHL SUB NOT AND SWAP2 SWAP1 SWAP2 OR SWAP1 SSTORE PUSH1 0x40 MLOAD PUSH2 0x341 SWAP1 DUP2 PUSH2 0x88 DUP3 CODECOPY RETURN JUMPDEST PUSH0 DUP1 REVERT JUMPDEST PUSH4 0x4E487B71 PUSH1 0xE0 SHL PUSH0 MSTORE PUSH1 0x41 PUSH1 0x4 MSTORE PUSH1 0x24 PUSH0 REVERT INVALID PUSH1 0x80 DUP1 PUSH1 0x40 MSTORE PUSH1 0x4 CALLDATASIZE LT ISZERO PUSH2 0x12 JUMPI PUSH0 DUP1 REVERT JUMPDEST PUSH0 CALLDATALOAD PUSH1 0xE0 SHR SWAP1 DUP2 PUSH4 0xC340A24 EQ PUSH2 0x287 JUMPI POP DUP1 PUSH4 0x342AA8B5 EQ PUSH2 0x1FE JUMPI DUP1 PUSH4 0x89E7577D EQ PUSH2 0xA2 JUMPI DUP1 PUSH4 0x9F30490A EQ PUSH2 0x19A JUMPI DUP1 PUSH4 0xA830C45D EQ PUSH2 0x74 JUMPI DUP1 PUSH4 0xB6AA515B EQ PUSH2 0xDF JUMPI DUP1 PUSH4 0xBD5274B8 EQ PUSH2 0xA2 JUMPI PUSH4 0xEFC1A9BF EQ PUSH2 0x74 JUMPI PUSH0 DUP1 REVERT JUMPDEST CALLVALUE PUSH2 0x9E JUMPI PUSH1 0x20 CALLDATASIZE PUSH1 0x3 NOT ADD SLT PUSH2 0x9E JUMPI PUSH1 0x4 CALLDATALOAD PUSH0 MSTORE PUSH1 0x2 PUSH1 0x20 MSTORE PUSH1 0x20 PUSH1 0x40 PUSH0 KECCAK256 SLOAD PUSH1 0x40 MLOAD SWAP1 DUP2 MSTORE RETURN JUMPDEST PUSH0 DUP1 REVERT JUMPDEST CALLVALUE PUSH2 0x9E JUMPI PUSH1 0x20 CALLDATASIZE PUSH1 0x3 NOT ADD SLT PUSH2 0x9E JUMPI PUSH1 0x1 PUSH1 0x1 PUSH1 0xA0 SHL SUB PUSH2 0xC3 PUSH2 0x2A9 JUMP JUMPDEST AND PUSH0 MSTORE PUSH1 0x1 PUSH1 0x20 MSTORE PUSH1 0x20 PUSH1 0xFF PUSH1 0x40 PUSH0 KECCAK256 SLOAD AND PUSH1 0x40 MLOAD SWAP1 ISZERO ISZERO DUP2 MSTORE RETURN JUMPDEST CALLVALUE PUSH2 0x9E JUMPI PUSH1 0x20 CALLDATASIZE PUSH1 0x3 NOT ADD SLT PUSH2 0x9E JUMPI PUSH2 0xF8 PUSH2 0x2A9 JUMP JUMPDEST PUSH0 SLOAD PUSH1 0x1 PUSH1 0x1 PUSH1 0xA0 SHL SUB DUP2 AND SWAP2 PUSH2 0x110 CALLER DUP5 EQ PUSH2 0x2BF JUMP JUMPDEST PUSH1 0x1 PUSH1 0x1 PUSH1 0xA0 SHL SUB AND SWAP2 DUP3 ISZERO PUSH2 0x155 JUMPI DUP3 SWAP1 PUSH32 0x6FADB1C244276388AEE22BE93B919985A18748C021E5D48553957A48101A2560 PUSH0 DUP1 LOG3 PUSH1 0x1 PUSH1 0x1 PUSH1 0xA0 SHL SUB NOT AND OR PUSH0 SSTORE STOP JUMPDEST PUSH1 0x40 MLOAD PUSH3 0x461BCD PUSH1 0xE5 SHL DUP2 MSTORE PUSH1 0x20 PUSH1 0x4 DUP3 ADD MSTORE PUSH1 0x18 PUSH1 0x24 DUP3 ADD MSTORE PUSH32 0x426F74436F6E74726F6C6C65723A207A65726F20616464720000000000000000 PUSH1 0x44 DUP3 ADD MSTORE PUSH1 0x64 SWAP1 REVERT JUMPDEST CALLVALUE PUSH2 0x9E JUMPI PUSH1 0x40 CALLDATASIZE PUSH1 0x3 NOT ADD SLT PUSH2 0x9E JUMPI PUSH1 0x4 CALLDATALOAD PUSH32 0xEB4FE811C14A1BD68AD94AD378BF0BE4925BB675842D9FCF3D368B7D53AFF709 PUSH1 0x20 PUSH1 0x24 CALLDATALOAD PUSH2 0x1E8 PUSH1 0x1 DUP1 PUSH1 0xA0 SHL SUB PUSH0 SLOAD AND CALLER EQ PUSH2 0x2BF JUMP JUMPDEST DUP4 PUSH0 MSTORE PUSH1 0x2 DUP3 MSTORE DUP1 PUSH1 0x40 PUSH0 KECCAK256 SSTORE PUSH1 0x40 MLOAD SWAP1 DUP2 MSTORE LOG2 STOP JUMPDEST CALLVALUE PUSH2 0x9E JUMPI PUSH1 0x40 CALLDATASIZE PUSH1 0x3 NOT ADD SLT PUSH2 0x9E JUMPI PUSH2 0x217 PUSH2 0x2A9 JUMP JUMPDEST PUSH1 0x24 CALLDATALOAD SWAP1 DUP2 ISZERO ISZERO DUP1 SWAP3 SUB PUSH2 0x9E JUMPI PUSH1 0x20 PUSH32 0x7B3DEF6E15F72904D1BFE1A96D14DF3F72EFDB9A0F77A2F281054755B927B624 SWAP2 PUSH2 0x25D PUSH1 0x1 DUP1 PUSH1 0xA0 SHL SUB PUSH0 SLOAD AND CALLER EQ PUSH2 0x2BF JUMP JUMPDEST PUSH1 0x1 DUP1 PUSH1 0xA0 SHL SUB AND SWAP3 DUP4 PUSH0 MSTORE PUSH1 0x1 DUP3 MSTORE PUSH1 0x40 PUSH0 KECCAK256 PUSH1 0xFF NOT DUP2 SLOAD AND PUSH1 0xFF DUP4 AND OR SWAP1 SSTORE PUSH1 0x40 MLOAD SWAP1 DUP2 MSTORE LOG2 STOP JUMPDEST CALLVALUE PUSH2 0x9E JUMPI PUSH0 CALLDATASIZE PUSH1 0x3 NOT ADD SLT PUSH2 0x9E JUMPI PUSH0 SLOAD PUSH1 0x1 PUSH1 0x1 PUSH1 0xA0 SHL SUB AND DUP2 MSTORE PUSH1 0x20 SWAP1 RETURN JUMPDEST PUSH1 0x4 CALLDATALOAD SWAP1 PUSH1 0x1 PUSH1 0x1 PUSH1 0xA0 SHL SUB DUP3 AND DUP3 SUB PUSH2 0x9E JUMPI JUMP JUMPDEST ISZERO PUSH2 0x2C6 JUMPI JUMP JUMPDEST PUSH1 0x40 MLOAD PUSH3 0x461BCD PUSH1 0xE5 SHL DUP2 MSTORE PUSH1 0x20 PUSH1 0x4 DUP3 ADD MSTORE PUSH1 0x1B PUSH1 0x24 DUP3 ADD MSTORE PUSH32 0x426F74436F6E74726F6C6C65723A206E6F7420676F7665726E6F720000000000 PUSH1 0x44 DUP3 ADD MSTORE PUSH1 0x64 SWAP1 REVERT INVALID LOG2 PUSH5 0x6970667358 0x22 SLT KECCAK256 0xE4 REVERT LT 0xDF REVERT 0xBE 0x23 CREATE SWAP1 0xEC 0xA8 0xAB LOG0 PUSH30 0x4373613130480CA6ADB3546AB892A61F770264736F6C634300081A003300 "
		},
		"gasEstimates": {
			"creation": {
				"codeDepositCost": "166600",
				"executionCost": "infinite",
				"totalCost": "infinite"
			},
			"external": {
				"approvedBots(address)": "2550",
				"getParam(bytes32)": "2472",
				"governor()": "2265",
				"isBotApproved(address)": "2462",
				"setBot(address,bool)": "28153",
				"setParam(bytes32,uint256)": "25948",
				"systemParams(bytes32)": "2409",
				"transferGovernorship(address)": "26167"
			}
		},
		"methodIdentifiers": {
			"approvedBots(address)": "bd5274b8",
			"getParam(bytes32)": "efc1a9bf",
			"governor()": "0c340a24",
			"isBotApproved(address)": "89e7577d",
			"setBot(address,bool)": "342aa8b5",
			"setParam(bytes32,uint256)": "9f30490a",
			"systemParams(bytes32)": "a830c45d",
			"transferGovernorship(address)": "b6aa515b"
		}
	},
	"abi": [
		{
			"inputs": [
				{
					"internalType": "address",
					"name": "_governor",
					"type": "address"
				}
			],
			"stateMutability": "nonpayable",
			"type": "constructor"
		},
		{
			"anonymous": false,
			"inputs": [
				{
					"indexed": true,
					"internalType": "address",
					"name": "bot",
					"type": "address"
				},
				{
					"indexed": false,
					"internalType": "bool",
					"name": "approved",
					"type": "bool"
				}
			],
			"name": "BotApproved",
			"type": "event"
		},
		{
			"anonymous": false,
			"inputs": [
				{
					"indexed": true,
					"internalType": "address",
					"name": "oldGov",
					"type": "address"
				},
				{
					"indexed": true,
					"internalType": "address",
					"name": "newGov",
					"type": "address"
				}
			],
			"name": "GovernorTransferred",
			"type": "event"
		},
		{
			"anonymous": false,
			"inputs": [
				{
					"indexed": true,
					"internalType": "bytes32",
					"name": "key",
					"type": "bytes32"
				},
				{
					"indexed": false,
					"internalType": "uint256",
					"name": "value",
					"type": "uint256"
				}
			],
			"name": "ParamUpdated",
			"type": "event"
		},
		{
			"inputs": [
				{
					"internalType": "address",
					"name": "",
					"type": "address"
				}
			],
			"name": "approvedBots",
			"outputs": [
				{
					"internalType": "bool",
					"name": "",
					"type": "bool"
				}
			],
			"stateMutability": "view",
			"type": "function"
		},
		{
			"inputs": [
				{
					"internalType": "bytes32",
					"name": "key",
					"type": "bytes32"
				}
			],
			"name": "getParam",
			"outputs": [
				{
					"internalType": "uint256",
					"name": "",
					"type": "uint256"
				}
			],
			"stateMutability": "view",
			"type": "function"
		},
		{
			"inputs": [],
			"name": "governor",
			"outputs": [
				{
					"internalType": "address",
					"name": "",
					"type": "address"
				}
			],
			"stateMutability": "view",
			"type": "function"
		},
		{
			"inputs": [
				{
					"internalType": "address",
					"name": "bot",
					"type": "address"
				}
			],
			"name": "isBotApproved",
			"outputs": [
				{
					"internalType": "bool",
					"name": "",
					"type": "bool"
				}
			],
			"stateMutability": "view",
			"type": "function"
		},
		{
			"inputs": [
				{
					"internalType": "address",
					"name": "bot",
					"type": "address"
				},
				{
					"internalType": "bool",
					"name": "approved",
					"type": "bool"
				}
			],
			"name": "setBot",
			"outputs": [],
			"stateMutability": "nonpayable",
			"type": "function"
		},
		{
			"inputs": [
				{
					"internalType": "bytes32",
					"name": "key",
					"type": "bytes32"
				},
				{
					"internalType": "uint256",
					"name": "value",
					"type": "uint256"
				}
			],
			"name": "setParam",
			"outputs": [],
			"stateMutability": "nonpayable",
			"type": "function"
		},
		{
			"inputs": [
				{
					"internalType": "bytes32",
					"name": "",
					"type": "bytes32"
				}
			],
			"name": "systemParams",
			"outputs": [
				{
					"internalType": "uint256",
					"name": "",
					"type": "uint256"
				}
			],
			"stateMutability": "view",
			"type": "function"
		},
		{
			"inputs": [
				{
					"internalType": "address",
					"name": "newGov",
					"type": "address"
				}
			],
			"name": "transferGovernorship",
			"outputs": [],
			"stateMutability": "nonpayable",
			"type": "function"
		}
	]
}