{
	"data": {
		"bytecode": {
			"linkReferences": {},
			"object": "60a060405234610153573315610140575f8054336001600160a01b0319821681178355916001600160a01b03909116907f8be0079c531659141344cd1fd0a4f28419497f9722a3daafe3b4186f6b6457e09080a3604051610061604082610157565b6011815270466172636173746572526567697374727960781b602090910152604080517fc169911cd6cf046bd7315b2062624bb9ddb2c6ada84d52c042a7fd801e6ae54b916100b09082610157565b600181526020810190603160f81b82525190206040519060208201927f8b73c3c69bb8fe3d512ecc4cf759cc79239f7b179b0ffacaa9a75d522b39400f8452604083015260608201524660808201523060a082015260a0815261011460c082610157565b519020608052604051610ee6908161018f82396080518181816102ec015281816105f401526108950152f35b631e4fbdf760e01b5f525f60045260245ffd5b5f80fd5b601f909101601f19168101906001600160401b0382119082101761017a57604052565b634e487b7160e01b5f52604160045260245ffdfe6080806040526004361015610012575f80fd5b5f3560e01c908162bf26f414610993575080631d59e7e8146108b85780633644e5151461087e57806348bb996c1461084457806365af79091461081f578063715018a6146107c857806374e48cba1461069b57806376b3c1be1461035d5780637b9cf4f3146104845780637ecebe00146106635780637fa417b31461063b5780638989a8421461050f5780638a62bb16146104b65780638da5cb5b146104e8578063bf74ae26146104b6578063c8b6a98314610484578063ccb570e314610435578063ddbc4a4b146103fb578063df6244db14610395578063e2cc3d2f1461035d578063e477c7f7146101ee578063f1e023fd146101a15763f2fde38b14610118575f80fd5b3461019d57602036600319011261019d576101316109cb565b610139610c81565b6001600160a01b0316801561018a575f80546001600160a01b03198116831782556001600160a01b0316907f8be0079c531659141344cd1fd0a4f28419497f9722a3daafe3b4186f6b6457e09080a3005b631e4fbdf760e01b5f525f60045260245ffd5b5f80fd5b3461019d57602036600319011261019d576004355f818152600160205260409020546001600160a01b031633036101df576101dd903390610aef565b005b632ef5f69d60e21b5f5260045ffd5b3461019d5760c036600319011261019d576102076109cb565b602435906102136109f7565b606435916001600160a01b03831680840361019d576084359060a4359067ffffffffffffffff821161019d57610250610338923690600401610a0d565b9161025a85610a71565b60018060a01b03861694855f52600460205260405f2054906040519160208301937f7a00a9d047b8532e87561a4cfa9e3cf48a980f4df0d4fa2e76169a8d4d102dd585528860408501528c606085015260018060a01b038b16608085015260a084015260c083015260e082015260e081526102d761010082610a3b565b51902060405161190160f01b602082019081527f00000000000000000000000000000000000000000000000000000000000000006022830152604282019290925261032f81606281015b03601f198101835282610a3b565b51902085610a88565b5f858152600160205260409020546001600160a01b0316036101df576101dd93610ca7565b3461019d57602036600319011261019d576001600160a01b0361037e6109cb565b165f526002602052602060405f2054604051908152f35b3461019d57602036600319011261019d576103ae6109cb565b6103b6610c81565b600580546001600160a01b0319166001600160a01b039290921691821790557f9ba82601182e51f8dd35a545a13e9d8716495ee8d41c4f1b65fc97f97d6619275f80a2005b3461019d575f36600319011261019d5760206040517fa678f94f5bffc40cefaf81a99c9b64a42700e1fc99df73ce4ea5b0edb83c6fae8152f35b3461019d57606036600319011261019d576004356104516109e1565b6104596109f7565b5f838152600160205260409020549091906001600160a01b031633036101df576101dd923390610ca7565b3461019d57602036600319011261019d576004355f526001602052602060018060a01b0360405f205416604051908152f35b3461019d57602036600319011261019d576004355f526003602052602060018060a01b0360405f205416604051908152f35b3461019d575f36600319011261019d575f546040516001600160a01b039091168152602090f35b3461019d5760a036600319011261019d576105286109cb565b6024356105336109f7565b906064359260843567ffffffffffffffff811161019d576101dd9461055f610636923690600401610a0d565b9161056981610a71565b60018060a01b03851690815f52600460205260405f2054906040519160208301937fa678f94f5bffc40cefaf81a99c9b64a42700e1fc99df73ce4ea5b0edb83c6fae8552604084015288606084015260018060a01b038a16608084015260a083015260c082015260c081526105df60e082610a3b565b51902060405161190160f01b602082019081527f00000000000000000000000000000000000000000000000000000000000000006022830152604282019290925261062d8160628101610321565b51902084610a88565b610b5d565b3461019d575f36600319011261019d576005546040516001600160a01b039091168152602090f35b3461019d57602036600319011261019d576001600160a01b036106846109cb565b165f526004602052602060405f2054604051908152f35b3461019d57608036600319011261019d576106b46109cb565b6024356106bf6109f7565b9060643567ffffffffffffffff811161019d576106e0903690600401610a0d565b9060018060a01b03600554169081156107b9576020918391608460405180968195829463469b9b7160e01b845260018060a01b038d1660048501528a602485015260606044850152816064850152848401375f828201840152601f01601f191681010301915afa9081156107ae575f91610773575b5015610764576101dd92610b5d565b636b7a15f560e11b5f5260045ffd5b90506020813d6020116107a6575b8161078e60209383610a3b565b8101031261019d5751801515810361019d5784610755565b3d9150610781565b6040513d5f823e3d90fd5b63d92e233d60e01b5f5260045ffd5b3461019d575f36600319011261019d576107e0610c81565b5f80546001600160a01b0319811682556001600160a01b03167f8be0079c531659141344cd1fd0a4f28419497f9722a3daafe3b4186f6b6457e08280a3005b3461019d57604036600319011261019d576101dd61083b6109e1565b60043533610b5d565b3461019d575f36600319011261019d5760206040517fc21fcd4c1487e99128bcf2100fe7ade08497b3a0531a3075cec218aa56ef21038152f35b3461019d575f36600319011261019d5760206040517f00000000000000000000000000000000000000000000000000000000000000008152f35b3461019d57608036600319011261019d576108d16109cb565b6024359060443560643567ffffffffffffffff811161019d576108fb61096e913690600401610a0d565b9061090584610a71565b60018060a01b03851693845f52600460205260405f2054906040519060208201927fc21fcd4c1487e99128bcf2100fe7ade08497b3a0531a3075cec218aa56ef21038452876040840152896060840152608083015260a082015260a081526102d760c082610a3b565b5f838152600160205260409020546001600160a01b0316036101df576101dd91610aef565b3461019d575f36600319011261019d57807f7a00a9d047b8532e87561a4cfa9e3cf48a980f4df0d4fa2e76169a8d4d102dd560209252f35b600435906001600160a01b038216820361019d57565b602435906001600160a01b038216820361019d57565b604435906001600160a01b038216820361019d57565b9181601f8401121561019d5782359167ffffffffffffffff831161019d576020838186019501011161019d57565b90601f8019910116810190811067ffffffffffffffff821117610a5d57604052565b634e487b7160e01b5f52604160045260245ffd5b4211610a7957565b630819bdcd60e01b5f5260045ffd5b929091610a9492610d7f565b506001600160a01b03168015908115610adb575b50610acc576001600160a01b03165f90815260046020526040902080546001019055565b632057875960e21b5f5260045ffd5b6001600160a01b038316141590505f610aa8565b5f81815260016020908152604080832080546001600160a01b031990811690915560038352818420805490911690556001600160a01b0390941680835260029091529281208190557f40fc318d01f3d2a4260ec6762d8dc27c93240d50d16517be56ffffa806f4940e9080a3565b6001600160a01b03169182156107b9578115610c72575f828152600160205260409020546001600160a01b0316610c6357825f52600260205260405f2054610c54575f82815260016020908152604080832080546001600160a01b03191687179055858352600290915290208290556001600160a01b031680610c08575b60207f3dd7415ea1c3934b25f4a05ee43968c346015575490b276d1e966d862c64816c91604051908152a3565b5f828152600360205260409020546001600160a01b0316610c45575f82815260036020526040902080546001600160a01b03191682179055610bdb565b631bb0ddfb60e01b5f5260045ffd5b6334b3fb3760e21b5f5260045ffd5b631f2c68c160e31b5f5260045ffd5b637a93adf760e11b5f5260045ffd5b5f546001600160a01b03163303610c9457565b63118cdaa760e01b5f523360045260245ffd5b6001600160a01b0390921692919083156107b957835f52600260205260405f2054610c54576001600160a01b039081165f8181526002602081815260408084208490558684526001825280842080546001600160a01b0319168a179055888452918152912084905590937ffb1b10075cb2fabc098c864da78ada292c7b57ddf48e1192434b23719497152692168015610d60575f848152600383526040902080546001600160a01b031916821790555b604051908152a4565b5f848152600383526040902080546001600160a01b0319169055610d57565b9291604103610db257610da581610dae92358095604060208401359301355f1a90610dba565b90929192610e3c565b9190565b505f91508190565b91907f7fffffffffffffffffffffffffffffff5d576e7357a4501ddfe92f46681b20a08411610e31579160209360809260ff5f9560405194855216868401526040830152606082015282805260015afa156107ae575f516001600160a01b03811615610e2757905f905f90565b505f906001905f90565b5050505f9160039190565b6004811015610e9c5780610e4e575050565b60018103610e655763f645eedf60e01b5f5260045ffd5b60028103610e80575063fce698f760e01b5f5260045260245ffd5b600314610e8a5750565b6335e2f38360e21b5f5260045260245ffd5b634e487b7160e01b5f52602160045260245ffdfea26469706673582212207145d52925ade43ab5923276dfff2fe63c7198ed6ba79da23547ef747eaff94964736f6c634300081a0033",
			"opcodes": "PUSH1 0xA0 PUSH1 0x40 MSTORE CALLVALUE PUSH2 0x153 JUMPI CALLER ISZERO PUSH2 0x140 JUMPI PUSH0 DUP1 SLOAD CALLER PUSH1 0x1 PUSH1 0x1 PUSH1 0xA0 SHL SUB NOT DUP3 AND DUP2 OR DUP4 SSTORE SWAP2 PUSH1 0x1 PUSH1 0x1 PUSH1 0xA0 SHL SUB SWAP1 SWAP2 AND SWAP1 PUSH32 0x8BE0079C531659141344CD1FD0A4F28419497F9722A3DAAFE3B4186F6B6457E0 SWAP1 DUP1 LOG3 PUSH1 0x40 MLOAD PUSH2 0x61 PUSH1 0x40 DUP3 PUSH2 0x157 JUMP JUMPDEST PUSH1 0x11 DUP2 MSTORE PUSH17 0x4661726361737465725265676973747279 PUSH1 0x78 SHL PUSH1 0x20 SWAP1 SWAP2 ADD MSTORE PUSH1 0x40 DUP1 MLOAD PUSH32 0xC169911CD6CF046BD7315B2062624BB9DDB2C6ADA84D52C042A7FD801E6AE54B SWAP2 PUSH2 0xB0 SWAP1 DUP3 PUSH2 0x157 JUMP JUMPDEST PUSH1 0x1 DUP2 MSTORE PUSH1 0x20 DUP2 ADD SWAP1 PUSH1 0x31 PUSH1 0xF8 SHL DUP3 MSTORE MLOAD SWAP1 KECCAK256 PUSH1 0x40 MLOAD SWAP1 PUSH1 0x20 DUP3 ADD SWAP3 PUSH32 0x8B73C3C69BB8FE3D512ECC4CF759CC79239F7B179B0FFACAA9A75D522B39400F DUP5 MSTORE PUSH1 0x40 DUP4 ADD MSTORE PUSH1 0x60 DUP3 ADD MSTORE CHAINID PUSH1 0x80 DUP3 ADD MSTORE ADDRESS PUSH1 0xA0 DUP3 ADD MSTORE PUSH1 0xA0 DUP2 MSTORE PUSH2 0x114 PUSH1 0xC0 DUP3 PUSH2 0x157 JUMP JUMPDEST MLOAD SWAP1 KECCAK256 PUSH1 0x80 MSTORE PUSH1 0x40 MLOAD PUSH2 0xEE6 SWAP1 DUP2 PUSH2 0x18F DUP3 CODECOPY PUSH1 0x80 MLOAD DUP2 DUP2 DUP2 PUSH2 0x2EC ADD MSTORE DUP2 DUP2 PUSH2 0x5F4 ADD MSTORE PUSH2 0x895 ADD MSTORE RETURN JUMPDEST PUSH4 0x1E4FBDF7 PUSH1 0xE0 SHL PUSH0 MSTORE PUSH0 PUSH1 0x4 MSTORE PUSH1 0x24 PUSH0 REVERT JUMPDEST PUSH0 DUP1 REVERT JUMPDEST PUSH1 0x1F SWAP1 SWAP2 ADD PUSH1 0x1F NOT AND DUP2 ADD SWAP1 PUSH1 0x1 PUSH1 0x1 PUSH1 0x40 SHL SUB DUP3 GT SWAP1 DUP3 LT OR PUSH2 0x17A JUMPI PUSH1 0x40 MSTORE JUMP JUMPDEST PUSH4 0x4E487B71 PUSH1 0xE0 SHL PUSH0 MSTORE PUSH1 0x41 PUSH1 0x4 MSTORE PUSH1 0x24 PUSH0 REVERT INVALID PUSH1 0x80 DUP1 PUSH1 0x40 MSTORE PUSH1 0x4 CALLDATASIZE LT ISZERO PUSH2 0x12 JUMPI PUSH0 DUP1 REVERT JUMPDEST PUSH0 CALLDATALOAD PUSH1 0xE0 SHR SWAP1 DUP2 PUSH3 0xBF26F4 EQ PUSH2 0x993 JUMPI POP DUP1 PUSH4 0x1D59E7E8 EQ PUSH2 0x8B8 JUMPI DUP1 PUSH4 0x3644E515 EQ PUSH2 0x87E JUMPI DUP1 PUSH4 0x48BB996C EQ PUSH2 0x844 JUMPI DUP1 PUSH4 0x65AF7909 EQ PUSH2 0x81F JUMPI DUP1 PUSH4 0x715018A6 EQ PUSH2 0x7C8 JUMPI DUP1 PUSH4 0x74E48CBA EQ PUSH2 0x69B JUMPI DUP1 PUSH4 0x76B3C1BE EQ PUSH2 0x35D JUMPI DUP1 PUSH4 0x7B9CF4F3 EQ PUSH2 0x484 JUMPI DUP1 PUSH4 0x7ECEBE00 EQ PUSH2 0x663 JUMPI DUP1 PUSH4 0x7FA417B3 EQ PUSH2 0x63B JUMPI DUP1 PUSH4 0x8989A842 EQ PUSH2 0x50F JUMPI DUP1 PUSH4 0x8A62BB16 EQ PUSH2 0x4B6 JUMPI DUP1 PUSH4 0x8DA5CB5B EQ PUSH2 0x4E8 JUMPI DUP1 PUSH4 0xBF74AE26 EQ PUSH2 0x4B6 JUMPI DUP1 PUSH4 0xC8B6A983 EQ PUSH2 0x484 JUMPI DUP1 PUSH4 0xCCB570E3 EQ PUSH2 0x435 JUMPI DUP1 PUSH4 0xDDBC4A4B EQ PUSH2 0x3FB JUMPI DUP1 PUSH4 0xDF6244DB EQ PUSH2 0x395 JUMPI DUP1 PUSH4 0xE2CC3D2F EQ PUSH2 0x35D JUMPI DUP1 PUSH4 0xE477C7F7 EQ PUSH2 0x1EE JUMPI DUP1 PUSH4 0xF1E023FD EQ PUSH2 0x1A1 JUMPI PUSH4 0xF2FDE38B EQ PUSH2 0x118 JUMPI PUSH0 DUP1 REVERT JUMPDEST CALLVALUE PUSH2 0x19D JUMPI PUSH1 0x20 CALLDATASIZE PUSH1 0x3 NOT ADD SLT PUSH2 0x19D JUMPI PUSH2 0x131 PUSH2 0x9CB JUMP JUMPDEST PUSH2 0x139 PUSH2 0xC81 JUMP JUMPDEST PUSH1 0x1 PUSH1 0x1 PUSH1 0xA0 SHL SUB AND DUP1 ISZERO PUSH2 0x18A JUMPI PUSH0 DUP1 SLOAD PUSH1 0x1 PUSH1 0x1 PUSH1 0xA0 SHL SUB NOT DUP2 AND DUP4 OR DUP3 SSTORE PUSH1 0x1 PUSH1 0x1 PUSH1 0xA0 SHL SUB AND SWAP1 PUSH32 0x8BE0079C531659141344CD1FD0A4F28419497F9722A3DAAFE3B4186F6B6457E0 SWAP1 DUP1 LOG3 STOP JUMPDEST PUSH4 0x1E4FBDF7 PUSH1 0xE0 SHL PUSH0 MSTORE PUSH0 PUSH1 0x4 MSTORE PUSH1 0x24 PUSH0 REVERT JUMPDEST PUSH0 DUP1 REVERT JUMPDEST CALLVALUE PUSH2 0x19D JUMPI PUSH1 0x20 CALLDATASIZE PUSH1 0x3 NOT ADD SLT PUSH2 0x19D JUMPI PUSH1 0x4 CALLDATALOAD PUSH0 DUP2 DUP2 MSTORE PUSH1 0x1 PUSH1 0x20 MSTORE PUSH1 0x40 SWAP1 KECCAK256 SLOAD PUSH1 0x1 PUSH1 0x1 PUSH1 0xA0 SHL SUB AND CALLER SUB PUSH2 0x1DF JUMPI PUSH2 0x1DD SWAP1 CALLER SWAP1 PUSH2 0xAEF JUMP JUMPDEST STOP JUMPDEST PUSH4 0x2EF5F69D PUSH1 0xE2 SHL PUSH0 MSTORE PUSH1 0x4 PUSH0 REVERT JUMPDEST CALLVALUE PUSH2 0x19D JUMPI PUSH1 0xC0 CALLDATASIZE PUSH1 0x3 NOT ADD SLT PUSH2 0x19D JUMPI PUSH2 0x207 PUSH2 0x9CB JUMP JUMPDEST PUSH1 0x24 CALLDATALOAD SWAP1 PUSH2 0x213 PUSH2 0x9F7 JUMP JUMPDEST PUSH1 0x64 CALLDATALOAD SWAP2 PUSH1 0x1 PUSH1 0x1 PUSH1 0xA0 SHL SUB DUP4 AND DUP1 DUP5 SUB PUSH2 0x19D JUMPI PUSH1 0x84 CALLDATALOAD SWAP1 PUSH1 0xA4 CALLDATALOAD SWAP1 PUSH8 0xFFFFFFFFFFFFFFFF DUP3 GT PUSH2 0x19D JUMPI PUSH2 0x250 PUSH2 0x338 SWAP3 CALLDATASIZE SWAP1 PUSH1 0x4 ADD PUSH2 0xA0D JUMP JUMPDEST SWAP2 PUSH2 0x25A DUP6 PUSH2 0xA71 JUMP JUMPDEST PUSH1 0x1 DUP1 PUSH1 0xA0 SHL SUB DUP7 AND SWAP5 DUP6 PUSH0 MSTORE PUSH1 0x4 PUSH1 0x20 MSTORE PUSH1 0x40 PUSH0 KECCAK256 SLOAD SWAP1 PUSH1 0x40 MLOAD SWAP2 PUSH1 0x20 DUP4 ADD SWAP4 PUSH32 0x7A00A9D047B8532E87561A4CFA9E3CF48A980F4DF0D4FA2E76169A8D4D102DD5 DUP6 MSTORE DUP9 PUSH1 0x40 DUP6 ADD MSTORE DUP13 PUSH1 0x60 DUP6 ADD MSTORE PUSH1 0x1 DUP1 PUSH1 0xA0 SHL SUB DUP12 AND PUSH1 0x80 DUP6 ADD MSTORE PUSH1 0xA0 DUP5 ADD MSTORE PUSH1 0xC0 DUP4 ADD MSTORE PUSH1 0xE0 DUP3 ADD MSTORE PUSH1 0xE0 DUP2 MSTORE PUSH2 0x2D7 PUSH2 0x100 DUP3 PUSH2 0xA3B JUMP JUMPDEST MLOAD SWAP1 KECCAK256 PUSH1 0x40 MLOAD PUSH2 0x1901 PUSH1 0xF0 SHL PUSH1 0x20 DUP3 ADD SWAP1 DUP2 MSTORE PUSH32 0x0 PUSH1 0x22 DUP4 ADD MSTORE PUSH1 0x42 DUP3 ADD SWAP3 SWAP1 SWAP3 MSTORE PUSH2 0x32F DUP2 PUSH1 0x62 DUP2 ADD JUMPDEST SUB PUSH1 0x1F NOT DUP2 ADD DUP4 MSTORE DUP3 PUSH2 0xA3B JUMP JUMPDEST MLOAD SWAP1 KECCAK256 DUP6 PUSH2 0xA88 JUMP JUMPDEST PUSH0 DUP6 DUP2 MSTORE PUSH1 0x1 PUSH1 0x20 MSTORE PUSH1 0x40 SWAP1 KECCAK256 SLOAD PUSH1 0x1 PUSH1 0x1 PUSH1 0xA0 SHL SUB AND SUB PUSH2 0x1DF JUMPI PUSH2 0x1DD SWAP4 PUSH2 0xCA7 JUMP JUMPDEST CALLVALUE PUSH2 0x19D JUMPI PUSH1 0x20 CALLDATASIZE PUSH1 0x3 NOT ADD SLT PUSH2 0x19D JUMPI PUSH1 0x1 PUSH1 0x1 PUSH1 0xA0 SHL SUB PUSH2 0x37E PUSH2 0x9CB JUMP JUMPDEST AND PUSH0 MSTORE PUSH1 0x2 PUSH1 0x20 MSTORE PUSH1 0x20 PUSH1 0x40 PUSH0 KECCAK256 SLOAD PUSH1 0x40 MLOAD SWAP1 DUP2 MSTORE RETURN JUMPDEST CALLVALUE PUSH2 0x19D JUMPI PUSH1 0x20 CALLDATASIZE PUSH1 0x3 NOT ADD SLT PUSH2 0x19D JUMPI PUSH2 0x3AE PUSH2 0x9CB JUMP JUMPDEST PUSH2 0x3B6 PUSH2 0xC81 JUMP JUMPDEST PUSH1 0x5 DUP1 SLOAD PUSH1 0x1 PUSH1 0x1 PUSH1 0xA0 SHL SUB NOT AND PUSH1 0x1 PUSH1 0x1 PUSH1 0xA0 SHL SUB SWAP3 SWAP1 SWAP3 AND SWAP2 DUP3 OR SWAP1 SSTORE PUSH32 0x9BA82601182E51F8DD35A545A13E9D8716495EE8D41C4F1B65FC97F97D661927 PUSH0 DUP1 LOG2 STOP JUMPDEST CALLVALUE PUSH2 0x19D JUMPI PUSH0 CALLDATASIZE PUSH1 0x3 NOT ADD SLT PUSH2 0x19D JUMPI PUSH1 0x20 PUSH1 0x40 MLOAD PUSH32 0xA678F94F5BFFC40CEFAF81A99C9B64A42700E1FC99DF73CE4EA5B0EDB83C6FAE DUP2 MSTORE RETURN JUMPDEST CALLVALUE PUSH2 0x19D JUMPI PUSH1 0x60 CALLDATASIZE PUSH1 0x3 NOT ADD SLT PUSH2 0x19D JUMPI PUSH1 0x4 CALLDATALOAD PUSH2 0x451 PUSH2 0x9E1 JUMP JUMPDEST PUSH2 0x459 PUSH2 0x9F7 JUMP JUMPDEST PUSH0 DUP4 DUP2 MSTORE PUSH1 0x1 PUSH1 0x20 MSTORE PUSH1 0x40 SWAP1 KECCAK256 SLOAD SWAP1 SWAP2 SWAP1 PUSH1 0x1 PUSH1 0x1 PUSH1 0xA0 SHL SUB AND CALLER SUB PUSH2 0x1DF JUMPI PUSH2 0x1DD SWAP3 CALLER SWAP1 PUSH2 0xCA7 JUMP JUMPDEST CALLVALUE PUSH2 0x19D JUMPI PUSH1 0x20 CALLDATASIZE PUSH1 0x3 NOT ADD SLT PUSH2 0x19D JUMPI PUSH1 0x4 CALLDATALOAD PUSH0 MSTORE PUSH1 0x1 PUSH1 0x20 MSTORE PUSH1 0x20 PUSH1 0x1 DUP1 PUSH1 0xA0 SHL SUB PUSH1 0x40 PUSH0 KECCAK256 SLOAD AND PUSH1 0x40 MLOAD SWAP1 DUP2 MSTORE RETURN JUMPDEST CALLVALUE PUSH2 0x19D JUMPI PUSH1 0x20 CALLDATASIZE PUSH1 0x3 NOT ADD SLT PUSH2 0x19D JUMPI PUSH1 0x4 CALLDATALOAD PUSH0 MSTORE PUSH1 0x3 PUSH1 0x20 MSTORE PUSH1 0x20 PUSH1 0x1 DUP1 PUSH1 0xA0 SHL SUB PUSH1 0x40 PUSH0 KECCAK256 SLOAD AND PUSH1 0x40 MLOAD SWAP1 DUP2 MSTORE RETURN JUMPDEST CALLVALUE PUSH2 0x19D JUMPI PUSH0 CALLDATASIZE PUSH1 0x3 NOT ADD SLT PUSH2 0x19D JUMPI PUSH0 SLOAD PUSH1 0x40 MLOAD PUSH1 0x1 PUSH1 0x1 PUSH1 0xA0 SHL SUB SWAP1 SWAP2 AND DUP2 MSTORE PUSH1 0x20 SWAP1 RETURN JUMPDEST CALLVALUE PUSH2 0x19D JUMPI PUSH1 0xA0 CALLDATASIZE PUSH1 0x3 NOT ADD SLT PUSH2 0x19D JUMPI PUSH2 0x528 PUSH2 0x9CB JUMP JUMPDEST PUSH1 0x24 CALLDATALOAD PUSH2 0x533 PUSH2 0x9F7 JUMP JUMPDEST SWAP1 PUSH1 0x64 CALLDATALOAD SWAP3 PUSH1 0x84 CALLDATALOAD PUSH8 0xFFFFFFFFFFFFFFFF DUP2 GT PUSH2 0x19D JUMPI PUSH2 0x1DD SWAP5 PUSH2 0x55F PUSH2 0x636 SWAP3 CALLDATASIZE SWAP1 PUSH1 0x4 ADD PUSH2 0xA0D JUMP JUMPDEST SWAP2 PUSH2 0x569 DUP2 PUSH2 0xA71 JUMP JUMPDEST PUSH1 0x1 DUP1 PUSH1 0xA0 SHL SUB DUP6 AND SWAP1 DUP2 PUSH0 MSTORE PUSH1 0x4 PUSH1 0x20 MSTORE PUSH1 0x40 PUSH0 KECCAK256 SLOAD SWAP1 PUSH1 0x40 MLOAD SWAP2 PUSH1 0x20 DUP4 ADD SWAP4 PUSH32 0xA678F94F5BFFC40CEFAF81A99C9B64A42700E1FC99DF73CE4EA5B0EDB83C6FAE DUP6 MSTORE PUSH1 0x40 DUP5 ADD MSTORE DUP9 PUSH1 0x60 DUP5 ADD MSTORE PUSH1 0x1 DUP1 PUSH1 0xA0 SHL SUB DUP11 AND PUSH1 0x80 DUP5 ADD MSTORE PUSH1 0xA0 DUP4 ADD MSTORE PUSH1 0xC0 DUP3 ADD MSTORE PUSH1 0xC0 DUP2 MSTORE PUSH2 0x5DF PUSH1 0xE0 DUP3 PUSH2 0xA3B JUMP JUMPDEST MLOAD SWAP1 KECCAK256 PUSH1 0x40 MLOAD PUSH2 0x1901 PUSH1 0xF0 SHL PUSH1 0x20 DUP3 ADD SWAP1 DUP2 MSTORE PUSH32 0x0 PUSH1 0x22 DUP4 ADD MSTORE PUSH1 0x42 DUP3 ADD SWAP3 SWAP1 SWAP3 MSTORE PUSH2 0x62D DUP2 PUSH1 0x62 DUP2 ADD PUSH2 0x321 JUMP JUMPDEST MLOAD SWAP1 KECCAK256 DUP5 PUSH2 0xA88 JUMP JUMPDEST PUSH2 0xB5D JUMP JUMPDEST CALLVALUE PUSH2 0x19D JUMPI PUSH0 CALLDATASIZE PUSH1 0x3 NOT ADD SLT PUSH2 0x19D JUMPI PUSH1 0x5 SLOAD PUSH1 0x40 MLOAD PUSH1 0x1 PUSH1 0x1 PUSH1 0xA0 SHL SUB SWAP1 SWAP2 AND DUP2 MSTORE PUSH1 0x20 SWAP1 RETURN JUMPDEST CALLVALUE PUSH2 0x19D JUMPI PUSH1 0x20 CALLDATASIZE PUSH1 0x3 NOT ADD SLT PUSH2 0x19D JUMPI PUSH1 0x1 PUSH1 0x1 PUSH1 0xA0 SHL SUB PUSH2 0x684 PUSH2 0x9CB JUMP JUMPDEST AND PUSH0 MSTORE PUSH1 0x4 PUSH1 0x20 MSTORE PUSH1 0x20 PUSH1 0x40 PUSH0 KECCAK256 SLOAD PUSH1 0x40 MLOAD SWAP1 DUP2 MSTORE RETURN JUMPDEST CALLVALUE PUSH2 0x19D JUMPI PUSH1 0x80 CALLDATASIZE PUSH1 0x3 NOT ADD SLT PUSH2 0x19D JUMPI PUSH2 0x6B4 PUSH2 0x9CB JUMP JUMPDEST PUSH1 0x24 CALLDATALOAD PUSH2 0x6BF PUSH2 0x9F7 JUMP JUMPDEST SWAP1 PUSH1 0x64 CALLDATALOAD PUSH8 0xFFFFFFFFFFFFFFFF DUP2 GT PUSH2 0x19D JUMPI PUSH2 0x6E0 SWAP1 CALLDATASIZE SWAP1 PUSH1 0x4 ADD PUSH2 0xA0D JUMP JUMPDEST SWAP1 PUSH1 0x1 DUP1 PUSH1 0xA0 SHL SUB PUSH1 0x5 SLOAD AND SWAP1 DUP2 ISZERO PUSH2 0x7B9 JUMPI PUSH1 0x20 SWAP2 DUP4 SWAP2 PUSH1 0x84 PUSH1 0x40 MLOAD DUP1 SWAP7 DUP2 SWAP6 DUP3 SWAP5 PUSH4 0x469B9B71 PUSH1 0xE0 SHL DUP5 MSTORE PUSH1 0x1 DUP1 PUSH1 0xA0 SHL SUB DUP14 AND PUSH1 0x4 DUP6 ADD MSTORE DUP11 PUSH1 0x24 DUP6 ADD MSTORE PUSH1 0x60 PUSH1 0x44 DUP6 ADD MSTORE DUP2 PUSH1 0x64 DUP6 ADD MSTORE DUP5 DUP5 ADD CALLDATACOPY PUSH0 DUP3 DUP3 ADD DUP5 ADD MSTORE PUSH1 0x1F ADD PUSH1 0x1F NOT AND DUP2 ADD SUB ADD SWAP2 GAS STATICCALL SWAP1 DUP2 ISZERO PUSH2 0x7AE JUMPI PUSH0 SWAP2 PUSH2 0x773 JUMPI JUMPDEST POP ISZERO PUSH2 0x764 JUMPI PUSH2 0x1DD SWAP3 PUSH2 0xB5D JUMP JUMPDEST PUSH4 0x6B7A15F5 PUSH1 0xE1 SHL PUSH0 MSTORE PUSH1 0x4 PUSH0 REVERT JUMPDEST SWAP1 POP PUSH1 0x20 DUP2 RETURNDATASIZE PUSH1 0x20 GT PUSH2 0x7A6 JUMPI JUMPDEST DUP2 PUSH2 0x78E PUSH1 0x20 SWAP4 DUP4 PUSH2 0xA3B JUMP JUMPDEST DUP2 ADD SUB SLT PUSH2 0x19D JUMPI MLOAD DUP1 ISZERO ISZERO DUP2 SUB PUSH2 0x19D JUMPI DUP5 PUSH2 0x755 JUMP JUMPDEST RETURNDATASIZE SWAP2 POP PUSH2 0x781 JUMP JUMPDEST PUSH1 0x40 MLOAD RETURNDATASIZE PUSH0 DUP3 RETURNDATACOPY RETURNDATASIZE SWAP1 REVERT JUMPDEST PUSH4 0xD92E233D PUSH1 0xE0 SHL PUSH0 MSTORE PUSH1 0x4 PUSH0 REVERT JUMPDEST CALLVALUE PUSH2 0x19D JUMPI PUSH0 CALLDATASIZE PUSH1 0x3 NOT ADD SLT PUSH2 0x19D JUMPI PUSH2 0x7E0 PUSH2 0xC81 JUMP JUMPDEST PUSH0 DUP1 SLOAD PUSH1 0x1 PUSH1 0x1 PUSH1 0xA0 SHL SUB NOT DUP2 AND DUP3 SSTORE PUSH1 0x1 PUSH1 0x1 PUSH1 0xA0 SHL SUB AND PUSH32 0x8BE0079C531659141344CD1FD0A4F28419497F9722A3DAAFE3B4186F6B6457E0 DUP3 DUP1 LOG3 STOP JUMPDEST CALLVALUE PUSH2 0x19D JUMPI PUSH1 0x40 CALLDATASIZE PUSH1 0x3 NOT ADD SLT PUSH2 0x19D JUMPI PUSH2 0x1DD PUSH2 0x83B PUSH2 0x9E1 JUMP JUMPDEST PUSH1 0x4 CALLDATALOAD CALLER PUSH2 0xB5D JUMP JUMPDEST CALLVALUE PUSH2 0x19D JUMPI PUSH0 CALLDATASIZE PUSH1 0x3 NOT ADD SLT PUSH2 0x19D JUMPI PUSH1 0x20 PUSH1 0x40 MLOAD PUSH32 0xC21FCD4C1487E99128BCF2100FE7ADE08497B3A0531A3075CEC218AA56EF2103 DUP2 MSTORE RETURN JUMPDEST CALLVALUE PUSH2 0x19D JUMPI PUSH0 CALLDATASIZE PUSH1 0x3 NOT ADD SLT PUSH2 0x19D JUMPI PUSH1 0x20 PUSH1 0x40 MLOAD PUSH32 0x0 DUP2 MSTORE RETURN JUMPDEST CALLVALUE PUSH2 0x19D JUMPI PUSH1 0x80 CALLDATASIZE PUSH1 0x3 NOT ADD SLT PUSH2 0x19D JUMPI PUSH2 0x8D1 PUSH2 0x9CB JUMP JUMPDEST PUSH1 0x24 CALLDATALOAD SWAP1 PUSH1 0x44 CALLDATALOAD PUSH1 0x64 CALLDATALOAD PUSH8 0xFFFFFFFFFFFFFFFF DUP2 GT PUSH2 0x19D JUMPI PUSH2 0x8FB PUSH2 0x96E SWAP2 CALLDATASIZE SWAP1 PUSH1 0x4 ADD PUSH2 0xA0D JUMP JUMPDEST SWAP1 PUSH2 0x905 DUP5 PUSH2 0xA71 JUMP JUMPDEST PUSH1 0x1 DUP1 PUSH1 0xA0 SHL SUB DUP6 AND SWAP4 DUP5 PUSH0 MSTORE PUSH1 0x4 PUSH1 0x20 MSTORE PUSH1 0x40 PUSH0 KECCAK256 SLOAD SWAP1 PUSH1 0x40 MLOAD SWAP1 PUSH1 0x20 DUP3 ADD SWAP3 PUSH32 0xC21FCD4C1487E99128BCF2100FE7ADE08497B3A0531A3075CEC218AA56EF2103 DUP5 MSTORE DUP8 PUSH1 0x40 DUP5 ADD MSTORE DUP10 PUSH1 0x60 DUP5 ADD MSTORE PUSH1 0x80 DUP4 ADD MSTORE PUSH1 0xA0 DUP3 ADD MSTORE PUSH1 0xA0 DUP2 MSTORE PUSH2 0x2D7 PUSH1 0xC0 DUP3 PUSH2 0xA3B JUMP JUMPDEST PUSH0 DUP4 DUP2 MSTORE PUSH1 0x1 PUSH1 0x20 MSTORE PUSH1 0x40 SWAP1 KECCAK256 SLOAD PUSH1 0x1 PUSH1 0x1 PUSH1 0xA0 SHL SUB AND SUB PUSH2 0x1DF JUMPI PUSH2 0x1DD SWAP2 PUSH2 0xAEF JUMP JUMPDEST CALLVALUE PUSH2 0x19D JUMPI PUSH0 CALLDATASIZE PUSH1 0x3 NOT ADD SLT PUSH2 0x19D JUMPI DUP1 PUSH32 0x7A00A9D047B8532E87561A4CFA9E3CF48A980F4DF0D4FA2E76169A8D4D102DD5 PUSH1 0x20 SWAP3 MSTORE RETURN JUMPDEST PUSH1 0x4 CALLDATALOAD SWAP1 PUSH1 0x1 PUSH1 0x1 PUSH1 0xA0 SHL SUB DUP3 AND DUP3 SUB PUSH2 0x19D JUMPI JUMP JUMPDEST PUSH1 0x24 CALLDATALOAD SWAP1 PUSH1 0x1 PUSH1 0x1 PUSH1 0xA0 SHL SUB DUP3 AND DUP3 SUB PUSH2 0x19D JUMPI JUMP JUMPDEST PUSH1 0x44 CALLDATALOAD SWAP1 PUSH1 0x1 PUSH1 0x1 PUSH1 0xA0 SHL SUB DUP3 AND DUP3 SUB PUSH2 0x19D JUMPI JUMP JUMPDEST SWAP2 DUP2 PUSH1 0x1F DUP5 ADD SLT ISZERO PUSH2 0x19D JUMPI DUP3 CALLDATALOAD SWAP2 PUSH8 0xFFFFFFFFFFFFFFFF DUP4 GT PUSH2 0x19D JUMPI PUSH1 0x20 DUP4 DUP2 DUP7 ADD SWAP6 ADD ADD GT PUSH2 0x19D JUMPI JUMP JUMPDEST SWAP1 PUSH1 0x1F DUP1 NOT SWAP2 ADD AND DUP2 ADD SWAP1 DUP2 LT PUSH8 0xFFFFFFFFFFFFFFFF DUP3 GT OR PUSH2 0xA5D JUMPI PUSH1 0x40 MSTORE JUMP JUMPDEST PUSH4 0x4E487B71 PUSH1 0xE0 SHL PUSH0 MSTORE PUSH1 0x41 PUSH1 0x4 MSTORE PUSH1 0x24 PUSH0 REVERT JUMPDEST TIMESTAMP GT PUSH2 0xA79 JUMPI JUMP JUMPDEST PUSH4 0x819BDCD PUSH1 0xE0 SHL PUSH0 MSTORE PUSH1 0x4 PUSH0 REVERT JUMPDEST SWAP3 SWAP1 SWAP2 PUSH2 0xA94 SWAP3 PUSH2 0xD7F JUMP JUMPDEST POP PUSH1 0x1 PUSH1 0x1 PUSH1 0xA0 SHL SUB AND DUP1 ISZERO SWAP1 DUP2 ISZERO PUSH2 0xADB JUMPI JUMPDEST POP PUSH2 0xACC JUMPI PUSH1 0x1 PUSH1 0x1 PUSH1 0xA0 SHL SUB AND PUSH0 SWAP1 DUP2 MSTORE PUSH1 0x4 PUSH1 0x20 MSTORE PUSH1 0x40 SWAP1 KECCAK256 DUP1 SLOAD PUSH1 0x1 ADD SWAP1 SSTORE JUMP JUMPDEST PUSH4 0x20578759 PUSH1 0xE2 SHL PUSH0 MSTORE PUSH1 0x4 PUSH0 REVERT JUMPDEST PUSH1 0x1 PUSH1 0x1 PUSH1 0xA0 SHL SUB DUP4 AND EQ ISZERO SWAP1 POP PUSH0 PUSH2 0xAA8 JUMP JUMPDEST PUSH0 DUP2 DUP2 MSTORE PUSH1 0x1 PUSH1 0x20 SWAP1 DUP2 MSTORE PUSH1 0x40 DUP1 DUP4 KECCAK256 DUP1 SLOAD PUSH1 0x1 PUSH1 0x1 PUSH1 0xA0 SHL SUB NOT SWAP1 DUP2 AND SWAP1 SWAP2 SSTORE PUSH1 0x3 DUP4 MSTORE DUP2 DUP5 KECCAK256 DUP1 SLOAD SWAP1 SWAP2 AND SWAP1 SSTORE PUSH1 0x1 PUSH1 0x1 PUSH1 0xA0 SHL SUB SWAP1 SWAP5 AND DUP1 DUP4 MSTORE PUSH1 0x2 SWAP1 SWAP2 MSTORE SWAP3 DUP2 KECCAK256 DUP2 SWAP1 SSTORE PUSH32 0x40FC318D01F3D2A4260EC6762D8DC27C93240D50D16517BE56FFFFA806F4940E SWAP1 DUP1 LOG3 JUMP JUMPDEST PUSH1 0x1 PUSH1 0x1 PUSH1 0xA0 SHL SUB AND SWAP2 DUP3 ISZERO PUSH2 0x7B9 JUMPI DUP2 ISZERO PUSH2 0xC72 JUMPI PUSH0 DUP3 DUP2 MSTORE PUSH1 0x1 PUSH1 0x20 MSTORE PUSH1 0x40 SWAP1 KECCAK256 SLOAD PUSH1 0x1 PUSH1 0x1 PUSH1 0xA0 SHL SUB AND PUSH2 0xC63 JUMPI DUP3 PUSH0 MSTORE PUSH1 0x2 PUSH1 0x20 MSTORE PUSH1 0x40 PUSH0 KECCAK256 SLOAD PUSH2 0xC54 JUMPI PUSH0 DUP3 DUP2 MSTORE PUSH1 0x1 PUSH1 0x20 SWAP1 DUP2 MSTORE PUSH1 0x40 DUP1 DUP4 KECCAK256 DUP1 SLOAD PUSH1 0x1 PUSH1 0x1 PUSH1 0xA0 SHL SUB NOT AND DUP8 OR SWAP1 SSTORE DUP6 DUP4 MSTORE PUSH1 0x2 SWAP1 SWAP2 MSTORE SWAP1 KECCAK256 DUP3 SWAP1 SSTORE PUSH1 0x1 PUSH1 0x1 PUSH1 0xA0 SHL SUB AND DUP1 PUSH2 0xC08 JUMPI JUMPDEST PUSH1 0x20 PUSH32 0x3DD7415EA1C3934B25F4A05EE43968C346015575490B276D1E966D862C64816C SWAP2 PUSH1 0x40 MLOAD SWAP1 DUP2 MSTORE LOG3 JUMP JUMPDEST PUSH0 DUP3 DUP2 MSTORE PUSH1 0x3 PUSH1 0x20 MSTORE PUSH1 0x40 SWAP1 KECCAK256 SLOAD PUSH1 0x1 PUSH1 0x1 PUSH1 0xA0 SHL SUB AND PUSH2 0xC45 JUMPI PUSH0 DUP3 DUP2 MSTORE PUSH1 0x3 PUSH1 0x20 MSTORE PUSH1 0x40 SWAP1 KECCAK256 DUP1 SLOAD PUSH1 0x1 PUSH1 0x1 PUSH1 0xA0 SHL SUB NOT AND DUP3 OR SWAP1 SSTORE PUSH2 0xBDB JUMP JUMPDEST PUSH4 0x1BB0DDFB PUSH1 0xE0 SHL PUSH0 MSTORE PUSH1 0x4 PUSH0 REVERT JUMPDEST PUSH4 0x34B3FB37 PUSH1 0xE2 SHL PUSH0 MSTORE PUSH1 0x4 PUSH0 REVERT JUMPDEST PUSH4 0x1F2C68C1 PUSH1 0xE3 SHL PUSH0 MSTORE PUSH1 0x4 PUSH0 REVERT JUMPDEST PUSH4 0x7A93ADF7 PUSH1 0xE1 SHL PUSH0 MSTORE PUSH1 0x4 PUSH0 REVERT JUMPDEST PUSH0 SLOAD PUSH1 0x1 PUSH1 0x1 PUSH1 0xA0 SHL SUB AND CALLER SUB PUSH2 0xC94 JUMPI JUMP JUMPDEST PUSH4 0x118CDAA7 PUSH1 0xE0 SHL PUSH0 MSTORE CALLER PUSH1 0x4 MSTORE PUSH1 0x24 PUSH0 REVERT JUMPDEST PUSH1 0x1 PUSH1 0x1 PUSH1 0xA0 SHL SUB SWAP1 SWAP3 AND SWAP3 SWAP2 SWAP1 DUP4 ISZERO PUSH2 0x7B9 JUMPI DUP4 PUSH0 MSTORE PUSH1 0x2 PUSH1 0x20 MSTORE PUSH1 0x40 PUSH0 KECCAK256 SLOAD PUSH2 0xC54 JUMPI PUSH1 0x1 PUSH1 0x1 PUSH1 0xA0 SHL SUB SWAP1 DUP2 AND PUSH0 DUP2 DUP2 MSTORE PUSH1 0x2 PUSH1 0x20 DUP2 DUP2 MSTORE PUSH1 0x40 DUP1 DUP5 KECCAK256 DUP5 SWAP1 SSTORE DUP7 DUP5 MSTORE PUSH1 0x1 DUP3 MSTORE DUP1 DUP5 KECCAK256 DUP1 SLOAD PUSH1 0x1 PUSH1 0x1 PUSH1 0xA0 SHL SUB NOT AND DUP11 OR SWAP1 SSTORE DUP9 DUP5 MSTORE SWAP2 DUP2 MSTORE SWAP2 KECCAK256 DUP5 SWAP1 SSTORE SWAP1 SWAP4 PUSH32 0xFB1B10075CB2FABC098C864DA78ADA292C7B57DDF48E1192434B237194971526 SWAP3 AND DUP1 ISZERO PUSH2 0xD60 JUMPI PUSH0 DUP5 DUP2 MSTORE PUSH1 0x3 DUP4 MSTORE PUSH1 0x40 SWAP1 KECCAK256 DUP1 SLOAD PUSH1 0x1 PUSH1 0x1 PUSH1 0xA0 SHL SUB NOT AND DUP3 OR SWAP1 SSTORE JUMPDEST PUSH1 0x40 MLOAD SWAP1 DUP2 MSTORE LOG4 JUMP JUMPDEST PUSH0 DUP5 DUP2 MSTORE PUSH1 0x3 DUP4 MSTORE PUSH1 0x40 SWAP1 KECCAK256 DUP1 SLOAD PUSH1 0x1 PUSH1 0x1 PUSH1 0xA0 SHL SUB NOT AND SWAP1 SSTORE PUSH2 0xD57 JUMP JUMPDEST SWAP3 SWAP2 PUSH1 0x41 SUB PUSH2 0xDB2 JUMPI PUSH2 0xDA5 DUP2 PUSH2 0xDAE SWAP3 CALLDATALOAD DUP1 SWAP6 PUSH1 0x40 PUSH1 0x20 DUP5 ADD CALLDATALOAD SWAP4 ADD CALLDATALOAD PUSH0 BYTE SWAP1 PUSH2 0xDBA JUMP JUMPDEST SWAP1 SWAP3 SWAP2 SWAP3 PUSH2 0xE3C JUMP JUMPDEST SWAP2 SWAP1 JUMP JUMPDEST POP PUSH0 SWAP2 POP DUP2 SWAP1 JUMP JUMPDEST SWAP2 SWAP1 PUSH32 0x7FFFFFFFFFFFFFFFFFFFFFFFFFFFFFFF5D576E7357A4501DDFE92F46681B20A0 DUP5 GT PUSH2 0xE31 JUMPI SWAP2 PUSH1 0x20 SWAP4 PUSH1 0x80 SWAP3 PUSH1 0xFF PUSH0 SWAP6 PUSH1 0x40 MLOAD SWAP5 DUP6 MSTORE AND DUP7 DUP5 ADD MSTORE PUSH1 0x40 DUP4 ADD MSTORE PUSH1 0x60 DUP3 ADD MSTORE DUP3 DUP1 MSTORE PUSH1 0x1 GAS STATICCALL ISZERO PUSH2 0x7AE JUMPI PUSH0 MLOAD PUSH1 0x1 PUSH1 0x1 PUSH1 0xA0 SHL SUB DUP2 AND ISZERO PUSH2 0xE27 JUMPI SWAP1 PUSH0 SWAP1 PUSH0 SWAP1 JUMP JUMPDEST POP PUSH0 SWAP1 PUSH1 0x1 SWAP1 PUSH0 SWAP1 JUMP JUMPDEST POP POP POP PUSH0 SWAP2 PUSH1 0x3 SWAP2 SWAP1 JUMP JUMPDEST PUSH1 0x4 DUP2 LT ISZERO PUSH2 0xE9C JUMPI DUP1 PUSH2 0xE4E JUMPI POP POP JUMP JUMPDEST PUSH1 0x1 DUP2 SUB PUSH2 0xE65 JUMPI PUSH4 0xF645EEDF PUSH1 0xE0 SHL PUSH0 MSTORE PUSH1 0x4 PUSH0 REVERT JUMPDEST PUSH1 0x2 DUP2 SUB PUSH2 0xE80 JUMPI POP PUSH4 0xFCE698F7 PUSH1 0xE0 SHL PUSH0 MSTORE PUSH1 0x4 MSTORE PUSH1 0x24 PUSH0 REVERT JUMPDEST PUSH1 0x3 EQ PUSH2 0xE8A JUMPI POP JUMP JUMPDEST PUSH4 0x35E2F383 PUSH1 0xE2 SHL PUSH0 MSTORE PUSH1 0x4 MSTORE PUSH1 0x24 PUSH0 REVERT JUMPDEST PUSH4 0x4E487B71 PUSH1 0xE0 SHL PUSH0 MSTORE PUSH1 0x21 PUSH1 0x4 MSTORE PUSH1 0x24 PUSH0 REVERT INVALID LOG2 PUSH5 0x6970667358 0x22 SLT KECCAK256 PUSH18 0x45D52925ADE43AB5923276DFFF2FE63C7198 0xED PUSH12 0xA79DA23547EF747EAFF94964 PUSH20 0x6F6C634300081A00330000000000000000000000 "
		},
		"gasEstimates": {
			"creation": {
				"codeDepositCost": "762800",
				"executionCost": "infinite",
				"totalCost": "infinite"
			},
			"external": {
				"DOMAIN_SEPARATOR()": "infinite",
				"LINK_TYPEHASH()": "527",
				"TRANSFER_TYPEHASH()": "148",
				"UNLINK_TYPEHASH()": "219",
				"fidToOwner(uint256)": "2669",
				"fidToVault(uint256)": "2647",
				"getFidByOwner(address)": "2560",
				"getOwnerByFid(uint256)": "2515",
				"getVaultByFid(uint256)": "2603",
				"link(uint256,address)": "79573",
				"linkWithProof(address,uint256,address,bytes)": "infinite",
				"linkWithSig(address,uint256,address,uint256,bytes)": "infinite",
				"nonces(address)": "2604",
				"owner()": "2565",
				"ownerToFid(address)": "2824",
				"proofVerifier()": "2500",
				"renounceOwnership()": "28160",
				"setProofVerifier(address)": "28160",
				"transfer(uint256,address,address)": "83177",
				"transferOwnership(address)": "28651",
				"transferWithSig(address,uint256,address,address,uint256,bytes)": "infinite",
				"unlink(uint256)": "58027",
				"unlinkWithSig(address,uint256,uint256,bytes)": "infinite"
			},
			"internal": {
				"_checkDeadline(uint256)": "42",
				"_hashLink(address,uint256,address,uint256,uint256)": "infinite",
				"_hashTransfer(address,uint256,address,address,uint256,uint256)": "infinite",
				"_hashUnlink(address,uint256,uint256,uint256)": "infinite",
				"_link(address,uint256,address)": "infinite",
				"_recover(bytes32,bytes calldata)": "infinite",
				"_transfer(uint256,address,address,address)": "infinite",
				"_unlink(uint256,address)": "55208",
				"_verifyAndBump(address,bytes32,bytes calldata)": "infinite"
			}
		},
		"methodIdentifiers": {
			"DOMAIN_SEPARATOR()": "3644e515",
			"LINK_TYPEHASH()": "ddbc4a4b",
			"TRANSFER_TYPEHASH()": "00bf26f4",
			"UNLINK_TYPEHASH()": "48bb996c",
			"fidToOwner(uint256)": "c8b6a983",
			"fidToVault(uint256)": "bf74ae26",
			"getFidByOwner(address)": "76b3c1be",
			"getOwnerByFid(uint256)": "7b9cf4f3",
			"getVaultByFid(uint256)": "8a62bb16",
			"link(uint256,address)": "65af7909",
			"linkWithProof(address,uint256,address,bytes)": "74e48cba",
			"linkWithSig(address,uint256,address,uint256,bytes)": "8989a842",
			"nonces(address)": "7ecebe00",
			"owner()": "8da5cb5b",
			"ownerToFid(address)": "e2cc3d2f",
			"proofVerifier()": "7fa417b3",
			"renounceOwnership()": "715018a6",
			"setProofVerifier(address)": "df6244db",
			"transfer(uint256,address,address)": "ccb570e3",
			"transferOwnership(address)": "f2fde38b",
			"transferWithSig(address,uint256,address,address,uint256,bytes)": "e477c7f7",
			"unlink(uint256)": "f1e023fd",
			"unlinkWithSig(address,uint256,uint256,bytes)": "1d59e7e8"
		}
	},
	"abi": [
		{
			"inputs": [],
			"stateMutability": "nonpayable",
			"type": "constructor"
		},
		{
			"inputs": [],
			"name": "ECDSAInvalidSignature",
			"type": "error"
		},
		{
			"inputs": [
				{
					"internalType": "uint256",
					"name": "length",
					"type": "uint256"
				}
			],
			"name": "ECDSAInvalidSignatureLength",
			"type": "error"
		},
		{
			"inputs": [
				{
					"internalType": "bytes32",
					"name": "s",
					"type": "bytes32"
				}
			],
			"name": "ECDSAInvalidSignatureS",
			"type": "error"
		},
		{
			"inputs": [],
			"name": "FidAlreadyLinked",
			"type": "error"
		},
		{
			"inputs": [],
			"name": "FidNotLinked",
			"type": "error"
		},
		{
			"inputs": [],
			"name": "InvalidSigner",
			"type": "error"
		},
		{
			"inputs": [],
			"name": "NotFidOwner",
			"type": "error"
		},
		{
			"inputs": [
				{
					"internalType": "address",
					"name": "owner",
					"type": "address"
				}
			],
			"name": "OwnableInvalidOwner",
			"type": "error"
		},
		{
			"inputs": [
				{
					"internalType": "address",
					"name": "account",
					"type": "address"
				}
			],
			"name": "OwnableUnauthorizedAccount",
			"type": "error"
		},
		{
			"inputs": [],
			"name": "OwnerAlreadyLinked",
			"type": "error"
		},
		{
			"inputs": [],
			"name": "SignatureExpired",
			"type": "error"
		},
		{
			"inputs": [],
			"name": "VaultAlreadySet",
			"type": "error"
		},
		{
			"inputs": [],
			"name": "VerifierRejected",
			"type": "error"
		},
		{
			"inputs": [],
			"name": "ZeroAddress",
			"type": "error"
		},
		{
			"anonymous": false,
			"inputs": [
				{
					"indexed": true,
					"internalType": "uint256",
					"name": "fid",
					"type": "uint256"
				},
				{
					"indexed": true,
					"internalType": "address",
					"name": "owner",
					"type": "address"
				},
				{
					"indexed": false,
					"internalType": "address",
					"name": "vault",
					"type": "address"
				}
			],
			"name": "Linked",
			"type": "event"
		},
		{
			"anonymous": false,
			"inputs": [
				{
					"indexed": true,
					"internalType": "address",
					"name": "previousOwner",
					"type": "address"
				},
				{
					"indexed": true,
					"internalType": "address",
					"name": "newOwner",
					"type": "address"
				}
			],
			"name": "OwnershipTransferred",
			"type": "event"
		},
		{
			"anonymous": false,
			"inputs": [
				{
					"indexed": true,
					"internalType": "address",
					"name": "verifier",
					"type": "address"
				}
			],
			"name": "ProofVerifierUpdated",
			"type": "event"
		},
		{
			"anonymous": false,
			"inputs": [
				{
					"indexed": true,
					"internalType": "uint256",
					"name": "fid",
					"type": "uint256"
				},
				{
					"indexed": true,
					"internalType": "address",
					"name": "oldOwner",
					"type": "address"
				},
				{
					"indexed": true,
					"internalType": "address",
					"name": "newOwner",
					"type": "address"
				},
				{
					"indexed": false,
					"internalType": "address",
					"name": "newVault",
					"type": "address"
				}
			],
			"name": "Transferred",
			"type": "event"
		},
		{
			"anonymous": false,
			"inputs": [
				{
					"indexed": true,
					"internalType": "uint256",
					"name": "fid",
					"type": "uint256"
				},
				{
					"indexed": true,
					"internalType": "address",
					"name": "owner",
					"type": "address"
				}
			],
			"name": "Unlinked",
			"type": "event"
		},
		{
			"inputs": [],
			"name": "DOMAIN_SEPARATOR",
			"outputs": [
				{
					"internalType": "bytes32",
					"name": "",
					"type": "bytes32"
				}
			],
			"stateMutability": "view",
			"type": "function"
		},
		{
			"inputs": [],
			"name": "LINK_TYPEHASH",
			"outputs": [
				{
					"internalType": "bytes32",
					"name": "",
					"type": "bytes32"
				}
			],
			"stateMutability": "view",
			"type": "function"
		},
		{
			"inputs": [],
			"name": "TRANSFER_TYPEHASH",
			"outputs": [
				{
					"internalType": "bytes32",
					"name": "",
					"type": "bytes32"
				}
			],
			"stateMutability": "view",
			"type": "function"
		},
		{
			"inputs": [],
			"name": "UNLINK_TYPEHASH",
			"outputs": [
				{
					"internalType": "bytes32",
					"name": "",
					"type": "bytes32"
				}
			],
			"stateMutability": "view",
			"type": "function"
		},
		{
			"inputs": [
				{
					"internalType": "uint256",
					"name": "",
					"type": "uint256"
				}
			],
			"name": "fidToOwner",
			"outputs": [
				{
					"internalType": "address",
					"name": "",
					"type": "address"
				}
			],
			"stateMutability": "view",
			"type": "function"
		},
		{
			"inputs": [
				{
					"internalType": "uint256",
					"name": "",
					"type": "uint256"
				}
			],
			"name": "fidToVault",
			"outputs": [
				{
					"internalType": "address",
					"name": "",
					"type": "address"
				}
			],
			"stateMutability": "view",
			"type": "function"
		},
		{
			"inputs": [
				{
					"internalType": "address",
					"name": "owner_",
					"type": "address"
				}
			],
			"name": "getFidByOwner",
			"outputs": [
				{
					"internalType": "uint256",
					"name": "",
					"type": "uint256"
				}
			],
			"stateMutability": "view",
			"type": "function"
		},
		{
			"inputs": [
				{
					"internalType": "uint256",
					"name": "fid",
					"type": "uint256"
				}
			],
			"name": "getOwnerByFid",
			"outputs": [
				{
					"internalType": "address",
					"name": "",
					"type": "address"
				}
			],
			"stateMutability": "view",
			"type": "function"
		},
		{
			"inputs": [
				{
					"internalType": "uint256",
					"name": "fid",
					"type": "uint256"
				}
			],
			"name": "getVaultByFid",
			"outputs": [
				{
					"internalType": "address",
					"name": "",
					"type": "address"
				}
			],
			"stateMutability": "view",
			"type": "function"
		},
		{
			"inputs": [
				{
					"internalType": "uint256",
					"name": "fid",
					"type": "uint256"
				},
				{
					"internalType": "address",
					"name": "vault",
					"type": "address"
				}
			],
			"name": "link",
			"outputs": [],
			"stateMutability": "nonpayable",
			"type": "function"
		},
		{
			"inputs": [
				{
					"internalType": "address",
					"name": "owner_",
					"type": "address"
				},
				{
					"internalType": "uint256",
					"name": "fid",
					"type": "uint256"
				},
				{
					"internalType": "address",
					"name": "vault",
					"type": "address"
				},
				{
					"internalType": "bytes",
					"name": "proof",
					"type": "bytes"
				}
			],
			"name": "linkWithProof",
			"outputs": [],
			"stateMutability": "nonpayable",
			"type": "function"
		},
		{
			"inputs": [
				{
					"internalType": "address",
					"name": "owner_",
					"type": "address"
				},
				{
					"internalType": "uint256",
					"name": "fid",
					"type": "uint256"
				},
				{
					"internalType": "address",
					"name": "vault",
					"type": "address"
				},
				{
					"internalType": "uint256",
					"name": "deadline",
					"type": "uint256"
				},
				{
					"internalType": "bytes",
					"name": "sig",
					"type": "bytes"
				}
			],
			"name": "linkWithSig",
			"outputs": [],
			"stateMutability": "nonpayable",
			"type": "function"
		},
		{
			"inputs": [
				{
					"internalType": "address",
					"name": "",
					"type": "address"
				}
			],
			"name": "nonces",
			"outputs": [
				{
					"internalType": "uint256",
					"name": "",
					"type": "uint256"
				}
			],
			"stateMutability": "view",
			"type": "function"
		},
		{
			"inputs": [],
			"name": "owner",
			"outputs": [
				{
					"internalType": "address",
					"name": "",
					"type": "address"
				}
			],
			"stateMutability": "view",
			"type": "function"
		},
		{
			"inputs": [
				{
					"internalType": "address",
					"name": "",
					"type": "address"
				}
			],
			"name": "ownerToFid",
			"outputs": [
				{
					"internalType": "uint256",
					"name": "",
					"type": "uint256"
				}
			],
			"stateMutability": "view",
			"type": "function"
		},
		{
			"inputs": [],
			"name": "proofVerifier",
			"outputs": [
				{
					"internalType": "contract IFarcasterProofVerifier",
					"name": "",
					"type": "address"
				}
			],
			"stateMutability": "view",
			"type": "function"
		},
		{
			"inputs": [],
			"name": "renounceOwnership",
			"outputs": [],
			"stateMutability": "nonpayable",
			"type": "function"
		},
		{
			"inputs": [
				{
					"internalType": "address",
					"name": "verifier",
					"type": "address"
				}
			],
			"name": "setProofVerifier",
			"outputs": [],
			"stateMutability": "nonpayable",
			"type": "function"
		},
		{
			"inputs": [
				{
					"internalType": "uint256",
					"name": "fid",
					"type": "uint256"
				},
				{
					"internalType": "address",
					"name": "newOwner",
					"type": "address"
				},
				{
					"internalType": "address",
					"name": "newVault",
					"type": "address"
				}
			],
			"name": "transfer",
			"outputs": [],
			"stateMutability": "nonpayable",
			"type": "function"
		},
		{
			"inputs": [
				{
					"internalType": "address",
					"name": "newOwner",
					"type": "address"
				}
			],
			"name": "transferOwnership",
			"outputs": [],
			"stateMutability": "nonpayable",
			"type": "function"
		},
		{
			"inputs": [
				{
					"internalType": "address",
					"name": "owner_",
					"type": "address"
				},
				{
					"internalType": "uint256",
					"name": "fid",
					"type": "uint256"
				},
				{
					"internalType": "address",
					"name": "newOwner",
					"type": "address"
				},
				{
					"internalType": "address",
					"name": "newVault",
					"type": "address"
				},
				{
					"internalType": "uint256",
					"name": "deadline",
					"type": "uint256"
				},
				{
					"internalType": "bytes",
					"name": "sig",
					"type": "bytes"
				}
			],
			"name": "transferWithSig",
			"outputs": [],
			"stateMutability": "nonpayable",
			"type": "function"
		},
		{
			"inputs": [
				{
					"internalType": "uint256",
					"name": "fid",
					"type": "uint256"
				}
			],
			"name": "unlink",
			"outputs": [],
			"stateMutability": "nonpayable",
			"type": "function"
		},
		{
			"inputs": [
				{
					"internalType": "address",
					"name": "owner_",
					"type": "address"
				},
				{
					"internalType": "uint256",
					"name": "fid",
					"type": "uint256"
				},
				{
					"internalType": "uint256",
					"name": "deadline",
					"type": "uint256"
				},
				{
					"internalType": "bytes",
					"name": "sig",
					"type": "bytes"
				}
			],
			"name": "unlinkWithSig",
			"outputs": [],
			"stateMutability": "nonpayable",
			"type": "function"
		}
	]
}