{
	"data": {
		"bytecode": {
			"linkReferences": {},
			"object": "60a06040908082523461015357331561013e57505f8054336001600160a01b0319821681178355916001600160a01b03909116907f8be0079c531659141344cd1fd0a4f28419497f9722a3daafe3b4186f6b6457e09080a360116020825161006681610157565b8281520170466172636173746572526567697374727960781b81522060016020835161009181610157565b82815201603160f81b81522082519060208201927f8b73c3c69bb8fe3d512ecc4cf759cc79239f7b179b0ffacaa9a75d522b39400f84528483015260608201524660808201523060a082015260a0815260c081019281841060018060401b0385111761012a57839052519020608052610fb8908161017382396080518181816102ee01528181610619015281816108d801526109c90152f35b634e487b7160e01b5f52604160045260245ffd5b631e4fbdf760e01b81525f6004820152602490fd5b5f80fd5b604081019081106001600160401b0382111761012a5760405256fe608060409080825260049081361015610016575f80fd5b5f3560e01c908162bf26f414610a48575080631d59e7e8146108fb5780633644e515146108c157806348bb996c1461088757806365af790914610862578063715018a61461080b57806374e48cba146106df57806376b3c1be146103785780637b9cf4f3146104b05780637ecebe00146106a95780637fa417b3146106815780638989a842146105375780638a62bb16146104e05780638da5cb5b14610510578063bf74ae26146104e0578063c8b6a983146104b0578063ccb570e31461044f578063ddbc4a4b14610415578063df6244db146103af578063e2cc3d2f14610378578063e477c7f7146101f5578063f1e023fd146101a65763f2fde38b1461011c575f80fd5b346101a25760203660031901126101a257610135610a80565b9061013e610d49565b6001600160a01b0391821692831561018c5750505f54826001600160601b0360a01b8216175f55167f8be0079c531659141344cd1fd0a4f28419497f9722a3daafe3b4186f6b6457e05f80a3005b905f6024925191631e4fbdf760e01b8352820152fd5b5f80fd5b5090346101a25760203660031901126101a25781355f8181526001602052829020549091906001600160a01b031633036101e6576101e43383610b9c565b005b51632ef5f69d60e21b81529050fd5b5090346101a25760c03660031901126101a257610210610a80565b6024359061021c610aac565b606435939092906001600160a01b03808616908187036101a2576084359167ffffffffffffffff60a4358181116101a25761025a9036908c01610ac2565b92909161026686610b26565b89858a1696875f528d602052885f20548951948860208701947f7a00a9d047b8532e87561a4cfa9e3cf48a980f4df0d4fa2e76169a8d4d102dd586528b8d8901528d606089015216608087015260a086015260c085015260e084015260e0835261010083019183831090831117610365578188528251902061190160f01b61012084019081527f0000000000000000000000000000000000000000000000000000000000000000610122850152610142909301526042815261033993929190610330606282610af0565b51902088610b40565b835f526001602052825f2054160361035657506101e49450610d74565b51632ef5f69d60e21b81528590fd5b60418d634e487b7160e01b5f525260245ffd5b82346101a25760203660031901126101a2576020906001600160a01b0361039d610a80565b165f5260028252805f20549051908152f35b346101a25760203660031901126101a2576103c8610a80565b6103d0610d49565b600580546001600160a01b0319166001600160a01b039290921691821790557f9ba82601182e51f8dd35a545a13e9d8716495ee8d41c4f1b65fc97f97d6619275f80a2005b82346101a2575f3660031901126101a257602090517fa678f94f5bffc40cefaf81a99c9b64a42700e1fc99df73ce4ea5b0edb83c6fae8152f35b5090346101a25760603660031901126101a257813561046c610a96565b90610475610aac565b5f8281526001602052849020549093906001600160a01b031633036104a157506101e493503390610d74565b51632ef5f69d60e21b81528490fd5b5090346101a25760203660031901126101a257602091355f526001825260018060a01b03815f2054169051908152f35b5090346101a25760203660031901126101a257602091355f526003825260018060a01b03815f2054169051908152f35b82346101a2575f3660031901126101a2575f5490516001600160a01b039091168152602090f35b5090346101a25760a03660031901126101a257610552610a80565b6024359061055e610aac565b926064359460843567ffffffffffffffff908181116101a2576105849036908401610ac2565b97909361059082610b26565b60018060a01b039384871692835f5281602052825f205483519660208801957fa678f94f5bffc40cefaf81a99c9b64a42700e1fc99df73ce4ea5b0edb83c6fae8752858901528a60608901528b16608088015260a087015260c086015260c0855260e08501938585109085111761066e57508290528251902061190160f01b61010084019081527f000000000000000000000000000000000000000000000000000000000000000061010285015261012290930152604281526101e4966106699390929091610660606282610af0565b51902084610b40565b610c07565b604190634e487b7160e01b5f525260245ffd5b82346101a2575f3660031901126101a25760055490516001600160a01b039091168152602090f35b5090346101a25760203660031901126101a2576020916001600160a01b036106cf610a80565b165f528252805f20549051908152f35b5090346101a25760803660031901126101a2576106fa610a80565b60243590610706610aac565b9260643567ffffffffffffffff81116101a2576107269036908701610ac2565b9060018060a01b038781600554169182156107fc5790608460209493928688519788968795869463469b9b7160e01b86528d16908501528c602485015260606044850152816064850152848401375f828201840152601f01601f191681010301915afa9081156107f2575f916107b7575b50156107a857506101e49350610c07565b51636b7a15f560e11b81528490fd5b90506020813d6020116107ea575b816107d260209383610af0565b810103126101a2575180151581036101a2575f610797565b3d91506107c5565b82513d5f823e3d90fd5b50845163d92e233d60e01b8152fd5b346101a2575f3660031901126101a257610823610d49565b5f80546001600160a01b0319811682556001600160a01b03167f8be0079c531659141344cd1fd0a4f28419497f9722a3daafe3b4186f6b6457e08280a3005b5090346101a2573660031901126101a2576101e49061087f610a96565b903533610c07565b82346101a2575f3660031901126101a257602090517fc21fcd4c1487e99128bcf2100fe7ade08497b3a0531a3075cec218aa56ef21038152f35b82346101a2575f3660031901126101a257602090517f00000000000000000000000000000000000000000000000000000000000000008152f35b5090346101a25760803660031901126101a257610916610a80565b906024359067ffffffffffffffff6044356064358281116101a25761093e9036908801610ac2565b9061094883610b26565b60018060a01b039283881694855f5289602052865f205487519260208401917fc21fcd4c1487e99128bcf2100fe7ade08497b3a0531a3075cec218aa56ef21038352888a8601528a6060860152608085015260a084015260a0835260c083019183831090831117610a35578188528251902061190160f01b60e084019081527f000000000000000000000000000000000000000000000000000000000000000060e28501526101029093015260428152610a0a93929190610330606282610af0565b835f526001602052825f20541603610a26576101e48383610b9c565b51632ef5f69d60e21b81528390fd5b60418b634e487b7160e01b5f525260245ffd5b346101a2575f3660031901126101a257807f7a00a9d047b8532e87561a4cfa9e3cf48a980f4df0d4fa2e76169a8d4d102dd560209252f35b600435906001600160a01b03821682036101a257565b602435906001600160a01b03821682036101a257565b604435906001600160a01b03821682036101a257565b9181601f840112156101a25782359167ffffffffffffffff83116101a257602083818601950101116101a257565b90601f8019910116810190811067ffffffffffffffff821117610b1257604052565b634e487b7160e01b5f52604160045260245ffd5b4211610b2e57565b604051630819bdcd60e01b8152600490fd5b929091610b4c92610e37565b506001600160a01b03919082168015908115610b8f575b50610b7d57165f52600460205260405f2060018154019055565b604051632057875960e21b8152600490fd5b905082821614155f610b63565b90815f52600160205260405f206001600160601b0360a01b90818154169055600360205260405f2090815416905560018060a01b031690815f5260026020525f60408120557f40fc318d01f3d2a4260ec6762d8dc27c93240d50d16517be56ffffa806f4940e5f80a3565b6001600160a01b0390811692908315610d37578215610d2557825f526020916001835260409082825f205416610d1457855f5260028452815f2054610d0357845f526001845282825f20916001600160601b0360a01b928884825416179055875f526002865286845f2055169283610ca6575b5050519081527f3dd7415ea1c3934b25f4a05ee43968c346015575490b276d1e966d862c64816c9190a3565b855f5260038552825f205416610cf2575f85815260038552828120805490921684179091557f3dd7415ea1c3934b25f4a05ee43968c346015575490b276d1e966d862c64816c90610c7a565b8151631bb0ddfb60e01b8152600490fd5b81516334b3fb3760e21b8152600490fd5b8151631f2c68c160e31b8152600490fd5b604051637a93adf760e11b8152600490fd5b60405163d92e233d60e01b8152600490fd5b5f546001600160a01b03163303610d5c57565b60405163118cdaa760e01b8152336004820152602490fd5b6001600160a01b03928316939091908415610d3757845f5260209160028352604090815f2054610d035790857ffb1b10075cb2fabc098c864da78ada292c7b57ddf48e1192434b2371949715269493921695865f52600284525f82812055855f5260018452815f20926001600160601b0360a01b938985825416179055885f526002855286835f205516918215155f14610e2257855f526003845282825f20918254161790555b51908152a4565b855f5260038452815f20908154169055610e1b565b9291604103610e6a57610e5d81610e6692358095604060208401359301355f1a90610e72565b90929192610eff565b9190565b505f91508190565b91907f7fffffffffffffffffffffffffffffff5d576e7357a4501ddfe92f46681b20a08411610ef4579160209360809260ff5f9560405194855216868401526040830152606082015282805260015afa15610ee9575f516001600160a01b03811615610edf57905f905f90565b505f906001905f90565b6040513d5f823e3d90fd5b5050505f9160039190565b6004811015610f6e5780610f11575050565b60018103610f2b5760405163f645eedf60e01b8152600490fd5b60028103610f4c5760405163fce698f760e01b815260048101839052602490fd5b600314610f565750565b602490604051906335e2f38360e21b82526004820152fd5b634e487b7160e01b5f52602160045260245ffdfea264697066735822122098e3cef18d799b5548b0b5e1b4e1fa051a1a0f421b4eb79e8633bca2c4f342a764736f6c63430008180033",
			"opcodes": "PUSH1 0xA0 PUSH1 0x40 SWAP1 DUP1 DUP3 MSTORE CALLVALUE PUSH2 0x153 JUMPI CALLER ISZERO PUSH2 0x13E JUMPI POP PUSH0 DUP1 SLOAD CALLER PUSH1 0x1 PUSH1 0x1 PUSH1 0xA0 SHL SUB NOT DUP3 AND DUP2 OR DUP4 SSTORE SWAP2 PUSH1 0x1 PUSH1 0x1 PUSH1 0xA0 SHL SUB SWAP1 SWAP2 AND SWAP1 PUSH32 0x8BE0079C531659141344CD1FD0A4F28419497F9722A3DAAFE3B4186F6B6457E0 SWAP1 DUP1 LOG3 PUSH1 0x11 PUSH1 0x20 DUP3 MLOAD PUSH2 0x66 DUP2 PUSH2 0x157 JUMP JUMPDEST DUP3 DUP2 MSTORE ADD PUSH17 0x4661726361737465725265676973747279 PUSH1 0x78 SHL DUP2 MSTORE KECCAK256 PUSH1 0x1 PUSH1 0x20 DUP4 MLOAD PUSH2 0x91 DUP2 PUSH2 0x157 JUMP JUMPDEST DUP3 DUP2 MSTORE ADD PUSH1 0x31 PUSH1 0xF8 SHL DUP2 MSTORE KECCAK256 DUP3 MLOAD SWAP1 PUSH1 0x20 DUP3 ADD SWAP3 PUSH32 0x8B73C3C69BB8FE3D512ECC4CF759CC79239F7B179B0FFACAA9A75D522B39400F DUP5 MSTORE DUP5 DUP4 ADD MSTORE PUSH1 0x60 DUP3 ADD MSTORE CHAINID PUSH1 0x80 DUP3 ADD MSTORE ADDRESS PUSH1 0xA0 DUP3 ADD MSTORE PUSH1 0xA0 DUP2 MSTORE PUSH1 0xC0 DUP2 ADD SWAP3 DUP2 DUP5 LT PUSH1 0x1 DUP1 PUSH1 0x40 SHL SUB DUP6 GT OR PUSH2 0x12A JUMPI DUP4 SWAP1 MSTORE MLOAD SWAP1 KECCAK256 PUSH1 0x80 MSTORE PUSH2 0xFB8 SWAP1 DUP2 PUSH2 0x173 DUP3 CODECOPY PUSH1 0x80 MLOAD DUP2 DUP2 DUP2 PUSH2 0x2EE ADD MSTORE DUP2 DUP2 PUSH2 0x619 ADD MSTORE DUP2 DUP2 PUSH2 0x8D8 ADD MSTORE PUSH2 0x9C9 ADD MSTORE RETURN JUMPDEST PUSH4 0x4E487B71 PUSH1 0xE0 SHL PUSH0 MSTORE PUSH1 0x41 PUSH1 0x4 MSTORE PUSH1 0x24 PUSH0 REVERT JUMPDEST PUSH4 0x1E4FBDF7 PUSH1 0xE0 SHL DUP2 MSTORE PUSH0 PUSH1 0x4 DUP3 ADD MSTORE PUSH1 0x24 SWAP1 REVERT JUMPDEST PUSH0 DUP1 REVERT JUMPDEST PUSH1 0x40 DUP2 ADD SWAP1 DUP2 LT PUSH1 0x1 PUSH1 0x1 PUSH1 0x40 SHL SUB DUP3 GT OR PUSH2 0x12A JUMPI PUSH1 0x40 MSTORE JUMP INVALID PUSH1 0x80 PUSH1 0x40 SWAP1 DUP1 DUP3 MSTORE PUSH1 0x4 SWAP1 DUP2 CALLDATASIZE LT ISZERO PUSH2 0x16 JUMPI PUSH0 DUP1 REVERT JUMPDEST PUSH0 CALLDATALOAD PUSH1 0xE0 SHR SWAP1 DUP2 PUSH3 0xBF26F4 EQ PUSH2 0xA48 JUMPI POP DUP1 PUSH4 0x1D59E7E8 EQ PUSH2 0x8FB JUMPI DUP1 PUSH4 0x3644E515 EQ PUSH2 0x8C1 JUMPI DUP1 PUSH4 0x48BB996C EQ PUSH2 0x887 JUMPI DUP1 PUSH4 0x65AF7909 EQ PUSH2 0x862 JUMPI DUP1 PUSH4 0x715018A6 EQ PUSH2 0x80B JUMPI DUP1 PUSH4 0x74E48CBA EQ PUSH2 0x6DF JUMPI DUP1 PUSH4 0x76B3C1BE EQ PUSH2 0x378 JUMPI DUP1 PUSH4 0x7B9CF4F3 EQ PUSH2 0x4B0 JUMPI DUP1 PUSH4 0x7ECEBE00 EQ PUSH2 0x6A9 JUMPI DUP1 PUSH4 0x7FA417B3 EQ PUSH2 0x681 JUMPI DUP1 PUSH4 0x8989A842 EQ PUSH2 0x537 JUMPI DUP1 PUSH4 0x8A62BB16 EQ PUSH2 0x4E0 JUMPI DUP1 PUSH4 0x8DA5CB5B EQ PUSH2 0x510 JUMPI DUP1 PUSH4 0xBF74AE26 EQ PUSH2 0x4E0 JUMPI DUP1 PUSH4 0xC8B6A983 EQ PUSH2 0x4B0 JUMPI DUP1 PUSH4 0xCCB570E3 EQ PUSH2 0x44F JUMPI DUP1 PUSH4 0xDDBC4A4B EQ PUSH2 0x415 JUMPI DUP1 PUSH4 0xDF6244DB EQ PUSH2 0x3AF JUMPI DUP1 PUSH4 0xE2CC3D2F EQ PUSH2 0x378 JUMPI DUP1 PUSH4 0xE477C7F7 EQ PUSH2 0x1F5 JUMPI DUP1 PUSH4 0xF1E023FD EQ PUSH2 0x1A6 JUMPI PUSH4 0xF2FDE38B EQ PUSH2 0x11C JUMPI PUSH0 DUP1 REVERT JUMPDEST CALLVALUE PUSH2 0x1A2 JUMPI PUSH1 0x20 CALLDATASIZE PUSH1 0x3 NOT ADD SLT PUSH2 0x1A2 JUMPI PUSH2 0x135 PUSH2 0xA80 JUMP JUMPDEST SWAP1 PUSH2 0x13E PUSH2 0xD49 JUMP JUMPDEST PUSH1 0x1 PUSH1 0x1 PUSH1 0xA0 SHL SUB SWAP2 DUP3 AND SWAP3 DUP4 ISZERO PUSH2 0x18C JUMPI POP POP PUSH0 SLOAD DUP3 PUSH1 0x1 PUSH1 0x1 PUSH1 0x60 SHL SUB PUSH1 0xA0 SHL DUP3 AND OR PUSH0 SSTORE AND PUSH32 0x8BE0079C531659141344CD1FD0A4F28419497F9722A3DAAFE3B4186F6B6457E0 PUSH0 DUP1 LOG3 STOP JUMPDEST SWAP1 PUSH0 PUSH1 0x24 SWAP3 MLOAD SWAP2 PUSH4 0x1E4FBDF7 PUSH1 0xE0 SHL DUP4 MSTORE DUP3 ADD MSTORE REVERT JUMPDEST PUSH0 DUP1 REVERT JUMPDEST POP SWAP1 CALLVALUE PUSH2 0x1A2 JUMPI PUSH1 0x20 CALLDATASIZE PUSH1 0x3 NOT ADD SLT PUSH2 0x1A2 JUMPI DUP2 CALLDATALOAD PUSH0 DUP2 DUP2 MSTORE PUSH1 0x1 PUSH1 0x20 MSTORE DUP3 SWAP1 KECCAK256 SLOAD SWAP1 SWAP2 SWAP1 PUSH1 0x1 PUSH1 0x1 PUSH1 0xA0 SHL SUB AND CALLER SUB PUSH2 0x1E6 JUMPI PUSH2 0x1E4 CALLER DUP4 PUSH2 0xB9C JUMP JUMPDEST STOP JUMPDEST MLOAD PUSH4 0x2EF5F69D PUSH1 0xE2 SHL DUP2 MSTORE SWAP1 POP REVERT JUMPDEST POP SWAP1 CALLVALUE PUSH2 0x1A2 JUMPI PUSH1 0xC0 CALLDATASIZE PUSH1 0x3 NOT ADD SLT PUSH2 0x1A2 JUMPI PUSH2 0x210 PUSH2 0xA80 JUMP JUMPDEST PUSH1 0x24 CALLDATALOAD SWAP1 PUSH2 0x21C PUSH2 0xAAC JUMP JUMPDEST PUSH1 0x64 CALLDATALOAD SWAP4 SWAP1 SWAP3 SWAP1 PUSH1 0x1 PUSH1 0x1 PUSH1 0xA0 SHL SUB DUP1 DUP7 AND SWAP1 DUP2 DUP8 SUB PUSH2 0x1A2 JUMPI PUSH1 0x84 CALLDATALOAD SWAP2 PUSH8 0xFFFFFFFFFFFFFFFF PUSH1 0xA4 CALLDATALOAD DUP2 DUP2 GT PUSH2 0x1A2 JUMPI PUSH2 0x25A SWAP1 CALLDATASIZE SWAP1 DUP13 ADD PUSH2 0xAC2 JUMP JUMPDEST SWAP3 SWAP1 SWAP2 PUSH2 0x266 DUP7 PUSH2 0xB26 JUMP JUMPDEST DUP10 DUP6 DUP11 AND SWAP7 DUP8 PUSH0 MSTORE DUP14 PUSH1 0x20 MSTORE DUP9 PUSH0 KECCAK256 SLOAD DUP10 MLOAD SWAP5 DUP9 PUSH1 0x20 DUP8 ADD SWAP5 PUSH32 0x7A00A9D047B8532E87561A4CFA9E3CF48A980F4DF0D4FA2E76169A8D4D102DD5 DUP7 MSTORE DUP12 DUP14 DUP10 ADD MSTORE DUP14 PUSH1 0x60 DUP10 ADD MSTORE AND PUSH1 0x80 DUP8 ADD MSTORE PUSH1 0xA0 DUP7 ADD MSTORE PUSH1 0xC0 DUP6 ADD MSTORE PUSH1 0xE0 DUP5 ADD MSTORE PUSH1 0xE0 DUP4 MSTORE PUSH2 0x100 DUP4 ADD SWAP2 DUP4 DUP4 LT SWAP1 DUP4 GT OR PUSH2 0x365 JUMPI DUP2 DUP9 MSTORE DUP3 MLOAD SWAP1 KECCAK256 PUSH2 0x1901 PUSH1 0xF0 SHL PUSH2 0x120 DUP5 ADD SWAP1 DUP2 MSTORE PUSH32 0x0 PUSH2 0x122 DUP6 ADD MSTORE PUSH2 0x142 SWAP1 SWAP4 ADD MSTORE PUSH1 0x42 DUP2 MSTORE PUSH2 0x339 SWAP4 SWAP3 SWAP2 SWAP1 PUSH2 0x330 PUSH1 0x62 DUP3 PUSH2 0xAF0 JUMP JUMPDEST MLOAD SWAP1 KECCAK256 DUP9 PUSH2 0xB40 JUMP JUMPDEST DUP4 PUSH0 MSTORE PUSH1 0x1 PUSH1 0x20 MSTORE DUP3 PUSH0 KECCAK256 SLOAD AND SUB PUSH2 0x356 JUMPI POP PUSH2 0x1E4 SWAP5 POP PUSH2 0xD74 JUMP JUMPDEST MLOAD PUSH4 0x2EF5F69D PUSH1 0xE2 SHL DUP2 MSTORE DUP6 SWAP1 REVERT JUMPDEST PUSH1 0x41 DUP14 PUSH4 0x4E487B71 PUSH1 0xE0 SHL PUSH0 MSTORE MSTORE PUSH1 0x24 PUSH0 REVERT JUMPDEST DUP3 CALLVALUE PUSH2 0x1A2 JUMPI PUSH1 0x20 CALLDATASIZE PUSH1 0x3 NOT ADD SLT PUSH2 0x1A2 JUMPI PUSH1 0x20 SWAP1 PUSH1 0x1 PUSH1 0x1 PUSH1 0xA0 SHL SUB PUSH2 0x39D PUSH2 0xA80 JUMP JUMPDEST AND PUSH0 MSTORE PUSH1 0x2 DUP3 MSTORE DUP1 PUSH0 KECCAK256 SLOAD SWAP1 MLOAD SWAP1 DUP2 MSTORE RETURN JUMPDEST CALLVALUE PUSH2 0x1A2 JUMPI PUSH1 0x20 CALLDATASIZE PUSH1 0x3 NOT ADD SLT PUSH2 0x1A2 JUMPI PUSH2 0x3C8 PUSH2 0xA80 JUMP JUMPDEST PUSH2 0x3D0 PUSH2 0xD49 JUMP JUMPDEST PUSH1 0x5 DUP1 SLOAD PUSH1 0x1 PUSH1 0x1 PUSH1 0xA0 SHL SUB NOT AND PUSH1 0x1 PUSH1 0x1 PUSH1 0xA0 SHL SUB SWAP3 SWAP1 SWAP3 AND SWAP2 DUP3 OR SWAP1 SSTORE PUSH32 0x9BA82601182E51F8DD35A545A13E9D8716495EE8D41C4F1B65FC97F97D661927 PUSH0 DUP1 LOG2 STOP JUMPDEST DUP3 CALLVALUE PUSH2 0x1A2 JUMPI PUSH0 CALLDATASIZE PUSH1 0x3 NOT ADD SLT PUSH2 0x1A2 JUMPI PUSH1 0x20 SWAP1 MLOAD PUSH32 0xA678F94F5BFFC40CEFAF81A99C9B64A42700E1FC99DF73CE4EA5B0EDB83C6FAE DUP2 MSTORE RETURN JUMPDEST POP SWAP1 CALLVALUE PUSH2 0x1A2 JUMPI PUSH1 0x60 CALLDATASIZE PUSH1 0x3 NOT ADD SLT PUSH2 0x1A2 JUMPI DUP2 CALLDATALOAD PUSH2 0x46C PUSH2 0xA96 JUMP JUMPDEST SWAP1 PUSH2 0x475 PUSH2 0xAAC JUMP JUMPDEST PUSH0 DUP3 DUP2 MSTORE PUSH1 0x1 PUSH1 0x20 MSTORE DUP5 SWAP1 KECCAK256 SLOAD SWAP1 SWAP4 SWAP1 PUSH1 0x1 PUSH1 0x1 PUSH1 0xA0 SHL SUB AND CALLER SUB PUSH2 0x4A1 JUMPI POP PUSH2 0x1E4 SWAP4 POP CALLER SWAP1 PUSH2 0xD74 JUMP JUMPDEST MLOAD PUSH4 0x2EF5F69D PUSH1 0xE2 SHL DUP2 MSTORE DUP5 SWAP1 REVERT JUMPDEST POP SWAP1 CALLVALUE PUSH2 0x1A2 JUMPI PUSH1 0x20 CALLDATASIZE PUSH1 0x3 NOT ADD SLT PUSH2 0x1A2 JUMPI PUSH1 0x20 SWAP2 CALLDATALOAD PUSH0 MSTORE PUSH1 0x1 DUP3 MSTORE PUSH1 0x1 DUP1 PUSH1 0xA0 SHL SUB DUP2 PUSH0 KECCAK256 SLOAD AND SWAP1 MLOAD SWAP1 DUP2 MSTORE RETURN JUMPDEST POP SWAP1 CALLVALUE PUSH2 0x1A2 JUMPI PUSH1 0x20 CALLDATASIZE PUSH1 0x3 NOT ADD SLT PUSH2 0x1A2 JUMPI PUSH1 0x20 SWAP2 CALLDATALOAD PUSH0 MSTORE PUSH1 0x3 DUP3 MSTORE PUSH1 0x1 DUP1 PUSH1 0xA0 SHL SUB DUP2 PUSH0 KECCAK256 SLOAD AND SWAP1 MLOAD SWAP1 DUP2 MSTORE RETURN JUMPDEST DUP3 CALLVALUE PUSH2 0x1A2 JUMPI PUSH0 CALLDATASIZE PUSH1 0x3 NOT ADD SLT PUSH2 0x1A2 JUMPI PUSH0 SLOAD SWAP1 MLOAD PUSH1 0x1 PUSH1 0x1 PUSH1 0xA0 SHL SUB SWAP1 SWAP2 AND DUP2 MSTORE PUSH1 0x20 SWAP1 RETURN JUMPDEST POP SWAP1 CALLVALUE PUSH2 0x1A2 JUMPI PUSH1 0xA0 CALLDATASIZE PUSH1 0x3 NOT ADD SLT PUSH2 0x1A2 JUMPI PUSH2 0x552 PUSH2 0xA80 JUMP JUMPDEST PUSH1 0x24 CALLDATALOAD SWAP1 PUSH2 0x55E PUSH2 0xAAC JUMP JUMPDEST SWAP3 PUSH1 0x64 CALLDATALOAD SWAP5 PUSH1 0x84 CALLDATALOAD PUSH8 0xFFFFFFFFFFFFFFFF SWAP1 DUP2 DUP2 GT PUSH2 0x1A2 JUMPI PUSH2 0x584 SWAP1 CALLDATASIZE SWAP1 DUP5 ADD PUSH2 0xAC2 JUMP JUMPDEST SWAP8 SWAP1 SWAP4 PUSH2 0x590 DUP3 PUSH2 0xB26 JUMP JUMPDEST PUSH1 0x1 DUP1 PUSH1 0xA0 SHL SUB SWAP4 DUP5 DUP8 AND SWAP3 DUP4 PUSH0 MSTORE DUP2 PUSH1 0x20 MSTORE DUP3 PUSH0 KECCAK256 SLOAD DUP4 MLOAD SWAP7 PUSH1 0x20 DUP9 ADD SWAP6 PUSH32 0xA678F94F5BFFC40CEFAF81A99C9B64A42700E1FC99DF73CE4EA5B0EDB83C6FAE DUP8 MSTORE DUP6 DUP10 ADD MSTORE DUP11 PUSH1 0x60 DUP10 ADD MSTORE DUP12 AND PUSH1 0x80 DUP9 ADD MSTORE PUSH1 0xA0 DUP8 ADD MSTORE PUSH1 0xC0 DUP7 ADD MSTORE PUSH1 0xC0 DUP6 MSTORE PUSH1 0xE0 DUP6 ADD SWAP4 DUP6 DUP6 LT SWAP1 DUP6 GT OR PUSH2 0x66E JUMPI POP DUP3 SWAP1 MSTORE DUP3 MLOAD SWAP1 KECCAK256 PUSH2 0x1901 PUSH1 0xF0 SHL PUSH2 0x100 DUP5 ADD SWAP1 DUP2 MSTORE PUSH32 0x0 PUSH2 0x102 DUP6 ADD MSTORE PUSH2 0x122 SWAP1 SWAP4 ADD MSTORE PUSH1 0x42 DUP2 MSTORE PUSH2 0x1E4 SWAP7 PUSH2 0x669 SWAP4 SWAP1 SWAP3 SWAP1 SWAP2 PUSH2 0x660 PUSH1 0x62 DUP3 PUSH2 0xAF0 JUMP JUMPDEST MLOAD SWAP1 KECCAK256 DUP5 PUSH2 0xB40 JUMP JUMPDEST PUSH2 0xC07 JUMP JUMPDEST PUSH1 0x41 SWAP1 PUSH4 0x4E487B71 PUSH1 0xE0 SHL PUSH0 MSTORE MSTORE PUSH1 0x24 PUSH0 REVERT JUMPDEST DUP3 CALLVALUE PUSH2 0x1A2 JUMPI PUSH0 CALLDATASIZE PUSH1 0x3 NOT ADD SLT PUSH2 0x1A2 JUMPI PUSH1 0x5 SLOAD SWAP1 MLOAD PUSH1 0x1 PUSH1 0x1 PUSH1 0xA0 SHL SUB SWAP1 SWAP2 AND DUP2 MSTORE PUSH1 0x20 SWAP1 RETURN JUMPDEST POP SWAP1 CALLVALUE PUSH2 0x1A2 JUMPI PUSH1 0x20 CALLDATASIZE PUSH1 0x3 NOT ADD SLT PUSH2 0x1A2 JUMPI PUSH1 0x20 SWAP2 PUSH1 0x1 PUSH1 0x1 PUSH1 0xA0 SHL SUB PUSH2 0x6CF PUSH2 0xA80 JUMP JUMPDEST AND PUSH0 MSTORE DUP3 MSTORE DUP1 PUSH0 KECCAK256 SLOAD SWAP1 MLOAD SWAP1 DUP2 MSTORE RETURN JUMPDEST POP SWAP1 CALLVALUE PUSH2 0x1A2 JUMPI PUSH1 0x80 CALLDATASIZE PUSH1 0x3 NOT ADD SLT PUSH2 0x1A2 JUMPI PUSH2 0x6FA PUSH2 0xA80 JUMP JUMPDEST PUSH1 0x24 CALLDATALOAD SWAP1 PUSH2 0x706 PUSH2 0xAAC JUMP JUMPDEST SWAP3 PUSH1 0x64 CALLDATALOAD PUSH8 0xFFFFFFFFFFFFFFFF DUP2 GT PUSH2 0x1A2 JUMPI PUSH2 0x726 SWAP1 CALLDATASIZE SWAP1 DUP8 ADD PUSH2 0xAC2 JUMP JUMPDEST SWAP1 PUSH1 0x1 DUP1 PUSH1 0xA0 SHL SUB DUP8 DUP2 PUSH1 0x5 SLOAD AND SWAP2 DUP3 ISZERO PUSH2 0x7FC JUMPI SWAP1 PUSH1 0x84 PUSH1 0x20 SWAP5 SWAP4 SWAP3 DUP7 DUP9 MLOAD SWAP8 DUP9 SWAP7 DUP8 SWAP6 DUP7 SWAP5 PUSH4 0x469B9B71 PUSH1 0xE0 SHL DUP7 MSTORE DUP14 AND SWAP1 DUP6 ADD MSTORE DUP13 PUSH1 0x24 DUP6 ADD MSTORE PUSH1 0x60 PUSH1 0x44 DUP6 ADD MSTORE DUP2 PUSH1 0x64 DUP6 ADD MSTORE DUP5 DUP5 ADD CALLDATACOPY PUSH0 DUP3 DUP3 ADD DUP5 ADD MSTORE PUSH1 0x1F ADD PUSH1 0x1F NOT AND DUP2 ADD SUB ADD SWAP2 GAS STATICCALL SWAP1 DUP2 ISZERO PUSH2 0x7F2 JUMPI PUSH0 SWAP2 PUSH2 0x7B7 JUMPI JUMPDEST POP ISZERO PUSH2 0x7A8 JUMPI POP PUSH2 0x1E4 SWAP4 POP PUSH2 0xC07 JUMP JUMPDEST MLOAD PUSH4 0x6B7A15F5 PUSH1 0xE1 SHL DUP2 MSTORE DUP5 SWAP1 REVERT JUMPDEST SWAP1 POP PUSH1 0x20 DUP2 RETURNDATASIZE PUSH1 0x20 GT PUSH2 0x7EA JUMPI JUMPDEST DUP2 PUSH2 0x7D2 PUSH1 0x20 SWAP4 DUP4 PUSH2 0xAF0 JUMP JUMPDEST DUP2 ADD SUB SLT PUSH2 0x1A2 JUMPI MLOAD DUP1 ISZERO ISZERO DUP2 SUB PUSH2 0x1A2 JUMPI PUSH0 PUSH2 0x797 JUMP JUMPDEST RETURNDATASIZE SWAP2 POP PUSH2 0x7C5 JUMP JUMPDEST DUP3 MLOAD RETURNDATASIZE PUSH0 DUP3 RETURNDATACOPY RETURNDATASIZE SWAP1 REVERT JUMPDEST POP DUP5 MLOAD PUSH4 0xD92E233D PUSH1 0xE0 SHL DUP2 MSTORE REVERT JUMPDEST CALLVALUE PUSH2 0x1A2 JUMPI PUSH0 CALLDATASIZE PUSH1 0x3 NOT ADD SLT PUSH2 0x1A2 JUMPI PUSH2 0x823 PUSH2 0xD49 JUMP JUMPDEST PUSH0 DUP1 SLOAD PUSH1 0x1 PUSH1 0x1 PUSH1 0xA0 SHL SUB NOT DUP2 AND DUP3 SSTORE PUSH1 0x1 PUSH1 0x1 PUSH1 0xA0 SHL SUB AND PUSH32 0x8BE0079C531659141344CD1FD0A4F28419497F9722A3DAAFE3B4186F6B6457E0 DUP3 DUP1 LOG3 STOP JUMPDEST POP SWAP1 CALLVALUE PUSH2 0x1A2 JUMPI CALLDATASIZE PUSH1 0x3 NOT ADD SLT PUSH2 0x1A2 JUMPI PUSH2 0x1E4 SWAP1 PUSH2 0x87F PUSH2 0xA96 JUMP JUMPDEST SWAP1 CALLDATALOAD CALLER PUSH2 0xC07 JUMP JUMPDEST DUP3 CALLVALUE PUSH2 0x1A2 JUMPI PUSH0 CALLDATASIZE PUSH1 0x3 NOT ADD SLT PUSH2 0x1A2 JUMPI PUSH1 0x20 SWAP1 MLOAD PUSH32 0xC21FCD4C1487E99128BCF2100FE7ADE08497B3A0531A3075CEC218AA56EF2103 DUP2 MSTORE RETURN JUMPDEST DUP3 CALLVALUE PUSH2 0x1A2 JUMPI PUSH0 CALLDATASIZE PUSH1 0x3 NOT ADD SLT PUSH2 0x1A2 JUMPI PUSH1 0x20 SWAP1 MLOAD PUSH32 0x0 DUP2 MSTORE RETURN JUMPDEST POP SWAP1 CALLVALUE PUSH2 0x1A2 JUMPI PUSH1 0x80 CALLDATASIZE PUSH1 0x3 NOT ADD SLT PUSH2 0x1A2 JUMPI PUSH2 0x916 PUSH2 0xA80 JUMP JUMPDEST SWAP1 PUSH1 0x24 CALLDATALOAD SWAP1 PUSH8 0xFFFFFFFFFFFFFFFF PUSH1 0x44 CALLDATALOAD PUSH1 0x64 CALLDATALOAD DUP3 DUP2 GT PUSH2 0x1A2 JUMPI PUSH2 0x93E SWAP1 CALLDATASIZE SWAP1 DUP9 ADD PUSH2 0xAC2 JUMP JUMPDEST SWAP1 PUSH2 0x948 DUP4 PUSH2 0xB26 JUMP JUMPDEST PUSH1 0x1 DUP1 PUSH1 0xA0 SHL SUB SWAP3 DUP4 DUP9 AND SWAP5 DUP6 PUSH0 MSTORE DUP10 PUSH1 0x20 MSTORE DUP7 PUSH0 KECCAK256 SLOAD DUP8 MLOAD SWAP3 PUSH1 0x20 DUP5 ADD SWAP2 PUSH32 0xC21FCD4C1487E99128BCF2100FE7ADE08497B3A0531A3075CEC218AA56EF2103 DUP4 MSTORE DUP9 DUP11 DUP7 ADD MSTORE DUP11 PUSH1 0x60 DUP7 ADD MSTORE PUSH1 0x80 DUP6 ADD MSTORE PUSH1 0xA0 DUP5 ADD MSTORE PUSH1 0xA0 DUP4 MSTORE PUSH1 0xC0 DUP4 ADD SWAP2 DUP4 DUP4 LT SWAP1 DUP4 GT OR PUSH2 0xA35 JUMPI DUP2 DUP9 MSTORE DUP3 MLOAD SWAP1 KECCAK256 PUSH2 0x1901 PUSH1 0xF0 SHL PUSH1 0xE0 DUP5 ADD SWAP1 DUP2 MSTORE PUSH32 0x0 PUSH1 0xE2 DUP6 ADD MSTORE PUSH2 0x102 SWAP1 SWAP4 ADD MSTORE PUSH1 0x42 DUP2 MSTORE PUSH2 0xA0A SWAP4 SWAP3 SWAP2 SWAP1 PUSH2 0x330 PUSH1 0x62 DUP3 PUSH2 0xAF0 JUMP JUMPDEST DUP4 PUSH0 MSTORE PUSH1 0x1 PUSH1 0x20 MSTORE DUP3 PUSH0 KECCAK256 SLOAD AND SUB PUSH2 0xA26 JUMPI PUSH2 0x1E4 DUP4 DUP4 PUSH2 0xB9C JUMP JUMPDEST MLOAD PUSH4 0x2EF5F69D PUSH1 0xE2 SHL DUP2 MSTORE DUP4 SWAP1 REVERT JUMPDEST PUSH1 0x41 DUP12 PUSH4 0x4E487B71 PUSH1 0xE0 SHL PUSH0 MSTORE MSTORE PUSH1 0x24 PUSH0 REVERT JUMPDEST CALLVALUE PUSH2 0x1A2 JUMPI PUSH0 CALLDATASIZE PUSH1 0x3 NOT ADD SLT PUSH2 0x1A2 JUMPI DUP1 PUSH32 0x7A00A9D047B8532E87561A4CFA9E3CF48A980F4DF0D4FA2E76169A8D4D102DD5 PUSH1 0x20 SWAP3 MSTORE RETURN JUMPDEST PUSH1 0x4 CALLDATALOAD SWAP1 PUSH1 0x1 PUSH1 0x1 PUSH1 0xA0 SHL SUB DUP3 AND DUP3 SUB PUSH2 0x1A2 JUMPI JUMP JUMPDEST PUSH1 0x24 CALLDATALOAD SWAP1 PUSH1 0x1 PUSH1 0x1 PUSH1 0xA0 SHL SUB DUP3 AND DUP3 SUB PUSH2 0x1A2 JUMPI JUMP JUMPDEST PUSH1 0x44 CALLDATALOAD SWAP1 PUSH1 0x1 PUSH1 0x1 PUSH1 0xA0 SHL SUB DUP3 AND DUP3 SUB PUSH2 0x1A2 JUMPI JUMP JUMPDEST SWAP2 DUP2 PUSH1 0x1F DUP5 ADD SLT ISZERO PUSH2 0x1A2 JUMPI DUP3 CALLDATALOAD SWAP2 PUSH8 0xFFFFFFFFFFFFFFFF DUP4 GT PUSH2 0x1A2 JUMPI PUSH1 0x20 DUP4 DUP2 DUP7 ADD SWAP6 ADD ADD GT PUSH2 0x1A2 JUMPI JUMP JUMPDEST SWAP1 PUSH1 0x1F DUP1 NOT SWAP2 ADD AND DUP2 ADD SWAP1 DUP2 LT PUSH8 0xFFFFFFFFFFFFFFFF DUP3 GT OR PUSH2 0xB12 JUMPI PUSH1 0x40 MSTORE JUMP JUMPDEST PUSH4 0x4E487B71 PUSH1 0xE0 SHL PUSH0 MSTORE PUSH1 0x41 PUSH1 0x4 MSTORE PUSH1 0x24 PUSH0 REVERT JUMPDEST TIMESTAMP GT PUSH2 0xB2E JUMPI JUMP JUMPDEST PUSH1 0x40 MLOAD PUSH4 0x819BDCD PUSH1 0xE0 SHL DUP2 MSTORE PUSH1 0x4 SWAP1 REVERT JUMPDEST SWAP3 SWAP1 SWAP2 PUSH2 0xB4C SWAP3 PUSH2 0xE37 JUMP JUMPDEST POP PUSH1 0x1 PUSH1 0x1 PUSH1 0xA0 SHL SUB SWAP2 SWAP1 DUP3 AND DUP1 ISZERO SWAP1 DUP2 ISZERO PUSH2 0xB8F JUMPI JUMPDEST POP PUSH2 0xB7D JUMPI AND PUSH0 MSTORE PUSH1 0x4 PUSH1 0x20 MSTORE PUSH1 0x40 PUSH0 KECCAK256 PUSH1 0x1 DUP2 SLOAD ADD SWAP1 SSTORE JUMP JUMPDEST PUSH1 0x40 MLOAD PUSH4 0x20578759 PUSH1 0xE2 SHL DUP2 MSTORE PUSH1 0x4 SWAP1 REVERT JUMPDEST SWAP1 POP DUP3 DUP3 AND EQ ISZERO PUSH0 PUSH2 0xB63 JUMP JUMPDEST SWAP1 DUP2 PUSH0 MSTORE PUSH1 0x1 PUSH1 0x20 MSTORE PUSH1 0x40 PUSH0 KECCAK256 PUSH1 0x1 PUSH1 0x1 PUSH1 0x60 SHL SUB PUSH1 0xA0 SHL SWAP1 DUP2 DUP2 SLOAD AND SWAP1 SSTORE PUSH1 0x3 PUSH1 0x20 MSTORE PUSH1 0x40 PUSH0 KECCAK256 SWAP1 DUP2 SLOAD AND SWAP1 SSTORE PUSH1 0x1 DUP1 PUSH1 0xA0 SHL SUB AND SWAP1 DUP2 PUSH0 MSTORE PUSH1 0x2 PUSH1 0x20 MSTORE PUSH0 PUSH1 0x40 DUP2 KECCAK256 SSTORE PUSH32 0x40FC318D01F3D2A4260EC6762D8DC27C93240D50D16517BE56FFFFA806F4940E PUSH0 DUP1 LOG3 JUMP JUMPDEST PUSH1 0x1 PUSH1 0x1 PUSH1 0xA0 SHL SUB SWAP1 DUP2 AND SWAP3 SWAP1 DUP4 ISZERO PUSH2 0xD37 JUMPI DUP3 ISZERO PUSH2 0xD25 JUMPI DUP3 PUSH0 MSTORE PUSH1 0x20 SWAP2 PUSH1 0x1 DUP4 MSTORE PUSH1 0x40 SWAP1 DUP3 DUP3 PUSH0 KECCAK256 SLOAD AND PUSH2 0xD14 JUMPI DUP6 PUSH0 MSTORE PUSH1 0x2 DUP5 MSTORE DUP2 PUSH0 KECCAK256 SLOAD PUSH2 0xD03 JUMPI DUP5 PUSH0 MSTORE PUSH1 0x1 DUP5 MSTORE DUP3 DUP3 PUSH0 KECCAK256 SWAP2 PUSH1 0x1 PUSH1 0x1 PUSH1 0x60 SHL SUB PUSH1 0xA0 SHL SWAP3 DUP9 DUP5 DUP3 SLOAD AND OR SWAP1 SSTORE DUP8 PUSH0 MSTORE PUSH1 0x2 DUP7 MSTORE DUP7 DUP5 PUSH0 KECCAK256 SSTORE AND SWAP3 DUP4 PUSH2 0xCA6 JUMPI JUMPDEST POP POP MLOAD SWAP1 DUP2 MSTORE PUSH32 0x3DD7415EA1C3934B25F4A05EE43968C346015575490B276D1E966D862C64816C SWAP2 SWAP1 LOG3 JUMP JUMPDEST DUP6 PUSH0 MSTORE PUSH1 0x3 DUP6 MSTORE DUP3 PUSH0 KECCAK256 SLOAD AND PUSH2 0xCF2 JUMPI PUSH0 DUP6 DUP2 MSTORE PUSH1 0x3 DUP6 MSTORE DUP3 DUP2 KECCAK256 DUP1 SLOAD SWAP1 SWAP3 AND DUP5 OR SWAP1 SWAP2 SSTORE PUSH32 0x3DD7415EA1C3934B25F4A05EE43968C346015575490B276D1E966D862C64816C SWAP1 PUSH2 0xC7A JUMP JUMPDEST DUP2 MLOAD PUSH4 0x1BB0DDFB PUSH1 0xE0 SHL DUP2 MSTORE PUSH1 0x4 SWAP1 REVERT JUMPDEST DUP2 MLOAD PUSH4 0x34B3FB37 PUSH1 0xE2 SHL DUP2 MSTORE PUSH1 0x4 SWAP1 REVERT JUMPDEST DUP2 MLOAD PUSH4 0x1F2C68C1 PUSH1 0xE3 SHL DUP2 MSTORE PUSH1 0x4 SWAP1 REVERT JUMPDEST PUSH1 0x40 MLOAD PUSH4 0x7A93ADF7 PUSH1 0xE1 SHL DUP2 MSTORE PUSH1 0x4 SWAP1 REVERT JUMPDEST PUSH1 0x40 MLOAD PUSH4 0xD92E233D PUSH1 0xE0 SHL DUP2 MSTORE PUSH1 0x4 SWAP1 REVERT JUMPDEST PUSH0 SLOAD PUSH1 0x1 PUSH1 0x1 PUSH1 0xA0 SHL SUB AND CALLER SUB PUSH2 0xD5C JUMPI JUMP JUMPDEST PUSH1 0x40 MLOAD PUSH4 0x118CDAA7 PUSH1 0xE0 SHL DUP2 MSTORE CALLER PUSH1 0x4 DUP3 ADD MSTORE PUSH1 0x24 SWAP1 REVERT JUMPDEST PUSH1 0x1 PUSH1 0x1 PUSH1 0xA0 SHL SUB SWAP3 DUP4 AND SWAP4 SWAP1 SWAP2 SWAP1 DUP5 ISZERO PUSH2 0xD37 JUMPI DUP5 PUSH0 MSTORE PUSH1 0x20 SWAP2 PUSH1 0x2 DUP4 MSTORE PUSH1 0x40 SWAP1 DUP2 PUSH0 KECCAK256 SLOAD PUSH2 0xD03 JUMPI SWAP1 DUP6 PUSH32 0xFB1B10075CB2FABC098C864DA78ADA292C7B57DDF48E1192434B237194971526 SWAP5 SWAP4 SWAP3 AND SWAP6 DUP7 PUSH0 MSTORE PUSH1 0x2 DUP5 MSTORE PUSH0 DUP3 DUP2 KECCAK256 SSTORE DUP6 PUSH0 MSTORE PUSH1 0x1 DUP5 MSTORE DUP2 PUSH0 KECCAK256 SWAP3 PUSH1 0x1 PUSH1 0x1 PUSH1 0x60 SHL SUB PUSH1 0xA0 SHL SWAP4 DUP10 DUP6 DUP3 SLOAD AND OR SWAP1 SSTORE DUP9 PUSH0 MSTORE PUSH1 0x2 DUP6 MSTORE DUP7 DUP4 PUSH0 KECCAK256 SSTORE AND SWAP2 DUP3 ISZERO ISZERO PUSH0 EQ PUSH2 0xE22 JUMPI DUP6 PUSH0 MSTORE PUSH1 0x3 DUP5 MSTORE DUP3 DUP3 PUSH0 KECCAK256 SWAP2 DUP3 SLOAD AND OR SWAP1 SSTORE JUMPDEST MLOAD SWAP1 DUP2 MSTORE LOG4 JUMP JUMPDEST DUP6 PUSH0 MSTORE PUSH1 0x3 DUP5 MSTORE DUP2 PUSH0 KECCAK256 SWAP1 DUP2 SLOAD AND SWAP1 SSTORE PUSH2 0xE1B JUMP JUMPDEST SWAP3 SWAP2 PUSH1 0x41 SUB PUSH2 0xE6A JUMPI PUSH2 0xE5D DUP2 PUSH2 0xE66 SWAP3 CALLDATALOAD DUP1 SWAP6 PUSH1 0x40 PUSH1 0x20 DUP5 ADD CALLDATALOAD SWAP4 ADD CALLDATALOAD PUSH0 BYTE SWAP1 PUSH2 0xE72 JUMP JUMPDEST SWAP1 SWAP3 SWAP2 SWAP3 PUSH2 0xEFF JUMP JUMPDEST SWAP2 SWAP1 JUMP JUMPDEST POP PUSH0 SWAP2 POP DUP2 SWAP1 JUMP JUMPDEST SWAP2 SWAP1 PUSH32 0x7FFFFFFFFFFFFFFFFFFFFFFFFFFFFFFF5D576E7357A4501DDFE92F46681B20A0 DUP5 GT PUSH2 0xEF4 JUMPI SWAP2 PUSH1 0x20 SWAP4 PUSH1 0x80 SWAP3 PUSH1 0xFF PUSH0 SWAP6 PUSH1 0x40 MLOAD SWAP5 DUP6 MSTORE AND DUP7 DUP5 ADD MSTORE PUSH1 0x40 DUP4 ADD MSTORE PUSH1 0x60 DUP3 ADD MSTORE DUP3 DUP1 MSTORE PUSH1 0x1 GAS STATICCALL ISZERO PUSH2 0xEE9 JUMPI PUSH0 MLOAD PUSH1 0x1 PUSH1 0x1 PUSH1 0xA0 SHL SUB DUP2 AND ISZERO PUSH2 0xEDF JUMPI SWAP1 PUSH0 SWAP1 PUSH0 SWAP1 JUMP JUMPDEST POP PUSH0 SWAP1 PUSH1 0x1 SWAP1 PUSH0 SWAP1 JUMP JUMPDEST PUSH1 0x40 MLOAD RETURNDATASIZE PUSH0 DUP3 RETURNDATACOPY RETURNDATASIZE SWAP1 REVERT JUMPDEST POP POP POP PUSH0 SWAP2 PUSH1 0x3 SWAP2 SWAP1 JUMP JUMPDEST PUSH1 0x4 DUP2 LT ISZERO PUSH2 0xF6E JUMPI DUP1 PUSH2 0xF11 JUMPI POP POP JUMP JUMPDEST PUSH1 0x1 DUP2 SUB PUSH2 0xF2B JUMPI PUSH1 0x40 MLOAD PUSH4 0xF645EEDF PUSH1 0xE0 SHL DUP2 MSTORE PUSH1 0x4 SWAP1 REVERT JUMPDEST PUSH1 0x2 DUP2 SUB PUSH2 0xF4C JUMPI PUSH1 0x40 MLOAD PUSH4 0xFCE698F7 PUSH1 0xE0 SHL DUP2 MSTORE PUSH1 0x4 DUP2 ADD DUP4 SWAP1 MSTORE PUSH1 0x24 SWAP1 REVERT JUMPDEST PUSH1 0x3 EQ PUSH2 0xF56 JUMPI POP JUMP JUMPDEST PUSH1 0x24 SWAP1 PUSH1 0x40 MLOAD SWAP1 PUSH4 0x35E2F383 PUSH1 0xE2 SHL DUP3 MSTORE PUSH1 0x4 DUP3 ADD MSTORE REVERT JUMPDEST PUSH4 0x4E487B71 PUSH1 0xE0 SHL PUSH0 MSTORE PUSH1 0x21 PUSH1 0x4 MSTORE PUSH1 0x24 PUSH0 REVERT INVALID LOG2 PUSH5 0x6970667358 0x22 SLT KECCAK256 SWAP9 0xE3 0xCE CALL DUP14 PUSH26 0x9B5548B0B5E1B4E1FA051A1A0F421B4EB79E8633BCA2C4F342A7 PUSH5 0x736F6C6343 STOP ADDMOD XOR STOP CALLER "
		},
		"gasEstimates": {
			"creation": {
				"codeDepositCost": "804800",
				"executionCost": "infinite",
				"totalCost": "infinite"
			},
			"external": {
				"DOMAIN_SEPARATOR()": "infinite",
				"LINK_TYPEHASH()": "542",
				"TRANSFER_TYPEHASH()": "160",
				"UNLINK_TYPEHASH()": "234",
				"fidToOwner(uint256)": "2686",
				"fidToVault(uint256)": "2664",
				"getFidByOwner(address)": "2578",
				"getOwnerByFid(uint256)": "2532",
				"getVaultByFid(uint256)": "2620",
				"link(uint256,address)": "79559",
				"linkWithProof(address,uint256,address,bytes)": "infinite",
				"linkWithSig(address,uint256,address,uint256,bytes)": "infinite",
				"nonces(address)": "2621",
				"owner()": "2580",
				"ownerToFid(address)": "2842",
				"proofVerifier()": "2515",
				"renounceOwnership()": "28172",
				"setProofVerifier(address)": "28172",
				"transfer(uint256,address,address)": "83185",
				"transferOwnership(address)": "28659",
				"transferWithSig(address,uint256,address,address,uint256,bytes)": "infinite",
				"unlink(uint256)": "58024",
				"unlinkWithSig(address,uint256,uint256,bytes)": "infinite"
			},
			"internal": {
				"_checkDeadline(uint256)": "infinite",
				"_hashLink(address,uint256,address,uint256,uint256)": "infinite",
				"_hashTransfer(address,uint256,address,address,uint256,uint256)": "infinite",
				"_hashUnlink(address,uint256,uint256,uint256)": "infinite",
				"_link(address,uint256,address)": "infinite",
				"_recover(bytes32,bytes calldata)": "infinite",
				"_transfer(uint256,address,address,address)": "infinite",
				"_unlink(uint256,address)": "55182",
				"_verifyAndBump(address,bytes32,bytes calldata)": "infinite"
			}
		},
		"methodIdentifiers": {
			"DOMAIN_SEPARATOR()": "3644e515",
			"LINK_TYPEHASH()": "ddbc4a4b",
			"TRANSFER_TYPEHASH()": "00bf26f4",
			"UNLINK_TYPEHASH()": "48bb996c",
			"fidToOwner(uint256)": "c8b6a983",
			"fidToVault(uint256)": "bf74ae26",
			"getFidByOwner(address)": "76b3c1be",
			"getOwnerByFid(uint256)": "7b9cf4f3",
			"getVaultByFid(uint256)": "8a62bb16",
			"link(uint256,address)": "65af7909",
			"linkWithProof(address,uint256,address,bytes)": "74e48cba",
			"linkWithSig(address,uint256,address,uint256,bytes)": "8989a842",
			"nonces(address)": "7ecebe00",
			"owner()": "8da5cb5b",
			"ownerToFid(address)": "e2cc3d2f",
			"proofVerifier()": "7fa417b3",
			"renounceOwnership()": "715018a6",
			"setProofVerifier(address)": "df6244db",
			"transfer(uint256,address,address)": "ccb570e3",
			"transferOwnership(address)": "f2fde38b",
			"transferWithSig(address,uint256,address,address,uint256,bytes)": "e477c7f7",
			"unlink(uint256)": "f1e023fd",
			"unlinkWithSig(address,uint256,uint256,bytes)": "1d59e7e8"
		}
	},
	"abi": [
		{
			"inputs": [],
			"stateMutability": "nonpayable",
			"type": "constructor"
		},
		{
			"inputs": [],
			"name": "ECDSAInvalidSignature",
			"type": "error"
		},
		{
			"inputs": [
				{
					"internalType": "uint256",
					"name": "length",
					"type": "uint256"
				}
			],
			"name": "ECDSAInvalidSignatureLength",
			"type": "error"
		},
		{
			"inputs": [
				{
					"internalType": "bytes32",
					"name": "s",
					"type": "bytes32"
				}
			],
			"name": "ECDSAInvalidSignatureS",
			"type": "error"
		},
		{
			"inputs": [],
			"name": "FidAlreadyLinked",
			"type": "error"
		},
		{
			"inputs": [],
			"name": "FidNotLinked",
			"type": "error"
		},
		{
			"inputs": [],
			"name": "InvalidSigner",
			"type": "error"
		},
		{
			"inputs": [],
			"name": "NotFidOwner",
			"type": "error"
		},
		{
			"inputs": [
				{
					"internalType": "address",
					"name": "owner",
					"type": "address"
				}
			],
			"name": "OwnableInvalidOwner",
			"type": "error"
		},
		{
			"inputs": [
				{
					"internalType": "address",
					"name": "account",
					"type": "address"
				}
			],
			"name": "OwnableUnauthorizedAccount",
			"type": "error"
		},
		{
			"inputs": [],
			"name": "OwnerAlreadyLinked",
			"type": "error"
		},
		{
			"inputs": [],
			"name": "SignatureExpired",
			"type": "error"
		},
		{
			"inputs": [],
			"name": "VaultAlreadySet",
			"type": "error"
		},
		{
			"inputs": [],
			"name": "VerifierRejected",
			"type": "error"
		},
		{
			"inputs": [],
			"name": "ZeroAddress",
			"type": "error"
		},
		{
			"anonymous": false,
			"inputs": [
				{
					"indexed": true,
					"internalType": "uint256",
					"name": "fid",
					"type": "uint256"
				},
				{
					"indexed": true,
					"internalType": "address",
					"name": "owner",
					"type": "address"
				},
				{
					"indexed": false,
					"internalType": "address",
					"name": "vault",
					"type": "address"
				}
			],
			"name": "Linked",
			"type": "event"
		},
		{
			"anonymous": false,
			"inputs": [
				{
					"indexed": true,
					"internalType": "address",
					"name": "previousOwner",
					"type": "address"
				},
				{
					"indexed": true,
					"internalType": "address",
					"name": "newOwner",
					"type": "address"
				}
			],
			"name": "OwnershipTransferred",
			"type": "event"
		},
		{
			"anonymous": false,
			"inputs": [
				{
					"indexed": true,
					"internalType": "address",
					"name": "verifier",
					"type": "address"
				}
			],
			"name": "ProofVerifierUpdated",
			"type": "event"
		},
		{
			"anonymous": false,
			"inputs": [
				{
					"indexed": true,
					"internalType": "uint256",
					"name": "fid",
					"type": "uint256"
				},
				{
					"indexed": true,
					"internalType": "address",
					"name": "oldOwner",
					"type": "address"
				},
				{
					"indexed": true,
					"internalType": "address",
					"name": "newOwner",
					"type": "address"
				},
				{
					"indexed": false,
					"internalType": "address",
					"name": "newVault",
					"type": "address"
				}
			],
			"name": "Transferred",
			"type": "event"
		},
		{
			"anonymous": false,
			"inputs": [
				{
					"indexed": true,
					"internalType": "uint256",
					"name": "fid",
					"type": "uint256"
				},
				{
					"indexed": true,
					"internalType": "address",
					"name": "owner",
					"type": "address"
				}
			],
			"name": "Unlinked",
			"type": "event"
		},
		{
			"inputs": [],
			"name": "DOMAIN_SEPARATOR",
			"outputs": [
				{
					"internalType": "bytes32",
					"name": "",
					"type": "bytes32"
				}
			],
			"stateMutability": "view",
			"type": "function"
		},
		{
			"inputs": [],
			"name": "LINK_TYPEHASH",
			"outputs": [
				{
					"internalType": "bytes32",
					"name": "",
					"type": "bytes32"
				}
			],
			"stateMutability": "view",
			"type": "function"
		},
		{
			"inputs": [],
			"name": "TRANSFER_TYPEHASH",
			"outputs": [
				{
					"internalType": "bytes32",
					"name": "",
					"type": "bytes32"
				}
			],
			"stateMutability": "view",
			"type": "function"
		},
		{
			"inputs": [],
			"name": "UNLINK_TYPEHASH",
			"outputs": [
				{
					"internalType": "bytes32",
					"name": "",
					"type": "bytes32"
				}
			],
			"stateMutability": "view",
			"type": "function"
		},
		{
			"inputs": [
				{
					"internalType": "uint256",
					"name": "",
					"type": "uint256"
				}
			],
			"name": "fidToOwner",
			"outputs": [
				{
					"internalType": "address",
					"name": "",
					"type": "address"
				}
			],
			"stateMutability": "view",
			"type": "function"
		},
		{
			"inputs": [
				{
					"internalType": "uint256",
					"name": "",
					"type": "uint256"
				}
			],
			"name": "fidToVault",
			"outputs": [
				{
					"internalType": "address",
					"name": "",
					"type": "address"
				}
			],
			"stateMutability": "view",
			"type": "function"
		},
		{
			"inputs": [
				{
					"internalType": "address",
					"name": "owner_",
					"type": "address"
				}
			],
			"name": "getFidByOwner",
			"outputs": [
				{
					"internalType": "uint256",
					"name": "",
					"type": "uint256"
				}
			],
			"stateMutability": "view",
			"type": "function"
		},
		{
			"inputs": [
				{
					"internalType": "uint256",
					"name": "fid",
					"type": "uint256"
				}
			],
			"name": "getOwnerByFid",
			"outputs": [
				{
					"internalType": "address",
					"name": "",
					"type": "address"
				}
			],
			"stateMutability": "view",
			"type": "function"
		},
		{
			"inputs": [
				{
					"internalType": "uint256",
					"name": "fid",
					"type": "uint256"
				}
			],
			"name": "getVaultByFid",
			"outputs": [
				{
					"internalType": "address",
					"name": "",
					"type": "address"
				}
			],
			"stateMutability": "view",
			"type": "function"
		},
		{
			"inputs": [
				{
					"internalType": "uint256",
					"name": "fid",
					"type": "uint256"
				},
				{
					"internalType": "address",
					"name": "vault",
					"type": "address"
				}
			],
			"name": "link",
			"outputs": [],
			"stateMutability": "nonpayable",
			"type": "function"
		},
		{
			"inputs": [
				{
					"internalType": "address",
					"name": "owner_",
					"type": "address"
				},
				{
					"internalType": "uint256",
					"name": "fid",
					"type": "uint256"
				},
				{
					"internalType": "address",
					"name": "vault",
					"type": "address"
				},
				{
					"internalType": "bytes",
					"name": "proof",
					"type": "bytes"
				}
			],
			"name": "linkWithProof",
			"outputs": [],
			"stateMutability": "nonpayable",
			"type": "function"
		},
		{
			"inputs": [
				{
					"internalType": "address",
					"name": "owner_",
					"type": "address"
				},
				{
					"internalType": "uint256",
					"name": "fid",
					"type": "uint256"
				},
				{
					"internalType": "address",
					"name": "vault",
					"type": "address"
				},
				{
					"internalType": "uint256",
					"name": "deadline",
					"type": "uint256"
				},
				{
					"internalType": "bytes",
					"name": "sig",
					"type": "bytes"
				}
			],
			"name": "linkWithSig",
			"outputs": [],
			"stateMutability": "nonpayable",
			"type": "function"
		},
		{
			"inputs": [
				{
					"internalType": "address",
					"name": "",
					"type": "address"
				}
			],
			"name": "nonces",
			"outputs": [
				{
					"internalType": "uint256",
					"name": "",
					"type": "uint256"
				}
			],
			"stateMutability": "view",
			"type": "function"
		},
		{
			"inputs": [],
			"name": "owner",
			"outputs": [
				{
					"internalType": "address",
					"name": "",
					"type": "address"
				}
			],
			"stateMutability": "view",
			"type": "function"
		},
		{
			"inputs": [
				{
					"internalType": "address",
					"name": "",
					"type": "address"
				}
			],
			"name": "ownerToFid",
			"outputs": [
				{
					"internalType": "uint256",
					"name": "",
					"type": "uint256"
				}
			],
			"stateMutability": "view",
			"type": "function"
		},
		{
			"inputs": [],
			"name": "proofVerifier",
			"outputs": [
				{
					"internalType": "contract IFarcasterProofVerifier",
					"name": "",
					"type": "address"
				}
			],
			"stateMutability": "view",
			"type": "function"
		},
		{
			"inputs": [],
			"name": "renounceOwnership",
			"outputs": [],
			"stateMutability": "nonpayable",
			"type": "function"
		},
		{
			"inputs": [
				{
					"internalType": "address",
					"name": "verifier",
					"type": "address"
				}
			],
			"name": "setProofVerifier",
			"outputs": [],
			"stateMutability": "nonpayable",
			"type": "function"
		},
		{
			"inputs": [
				{
					"internalType": "uint256",
					"name": "fid",
					"type": "uint256"
				},
				{
					"internalType": "address",
					"name": "newOwner",
					"type": "address"
				},
				{
					"internalType": "address",
					"name": "newVault",
					"type": "address"
				}
			],
			"name": "transfer",
			"outputs": [],
			"stateMutability": "nonpayable",
			"type": "function"
		},
		{
			"inputs": [
				{
					"internalType": "address",
					"name": "newOwner",
					"type": "address"
				}
			],
			"name": "transferOwnership",
			"outputs": [],
			"stateMutability": "nonpayable",
			"type": "function"
		},
		{
			"inputs": [
				{
					"internalType": "address",
					"name": "owner_",
					"type": "address"
				},
				{
					"internalType": "uint256",
					"name": "fid",
					"type": "uint256"
				},
				{
					"internalType": "address",
					"name": "newOwner",
					"type": "address"
				},
				{
					"internalType": "address",
					"name": "newVault",
					"type": "address"
				},
				{
					"internalType": "uint256",
					"name": "deadline",
					"type": "uint256"
				},
				{
					"internalType": "bytes",
					"name": "sig",
					"type": "bytes"
				}
			],
			"name": "transferWithSig",
			"outputs": [],
			"stateMutability": "nonpayable",
			"type": "function"
		},
		{
			"inputs": [
				{
					"internalType": "uint256",
					"name": "fid",
					"type": "uint256"
				}
			],
			"name": "unlink",
			"outputs": [],
			"stateMutability": "nonpayable",
			"type": "function"
		},
		{
			"inputs": [
				{
					"internalType": "address",
					"name": "owner_",
					"type": "address"
				},
				{
					"internalType": "uint256",
					"name": "fid",
					"type": "uint256"
				},
				{
					"internalType": "uint256",
					"name": "deadline",
					"type": "uint256"
				},
				{
					"internalType": "bytes",
					"name": "sig",
					"type": "bytes"
				}
			],
			"name": "unlinkWithSig",
			"outputs": [],
			"stateMutability": "nonpayable",
			"type": "function"
		}
	]
}