{
	"data": {
		"bytecode": {
			"linkReferences": {},
			"object": "60808060405234601557610847908161001a8239f35b5f80fdfe6080806040526004361015610012575f80fd5b5f3560e01c908163013cf08b14610666575080630d61b5191461055557806335facf781461024857806343859632146101f4578063c9d27afe1461007e5763da35c6641461005e575f80fd5b3461007a575f36600319011261007a5760205f54604051908152f35b5f80fd5b3461007a57604036600319011261007a57600435602435908115159182810361007a57815f526001602052600260405f2001544210156101af575f82815260026020908152604080832033845290915290205460ff1661016a575f8281526002602090815260408083203384529091529020805460ff191660011790551561014a57805f526001602052600360405f200161011981546107e2565b90555b6040519182527ff2913dbe661ee2acc4a046d8fbcdc792373bda34c41c6086484b5345e5785e5f60203393a3005b805f526001602052600460405f200161016381546107e2565b905561011c565b60405162461bcd60e51b815260206004820152601960248201527f476f7665726e616e63653a20616c726561647920766f746564000000000000006044820152606490fd5b60405162461bcd60e51b815260206004820152601a60248201527f476f7665726e616e63653a2070726f706f73616c20656e6465640000000000006044820152606490fd5b3461007a57604036600319011261007a576024356001600160a01b038116810361007a576004355f52600260205260405f209060018060a01b03165f52602052602060ff60405f2054166040519015158152f35b3461007a57604036600319011261007a5760043567ffffffffffffffff811161007a573660238201121561007a57806004013567ffffffffffffffff811161007a576024820191602482369201011161007a576102a55f546107e2565b90815f556102b560243542610804565b906040519060c0820182811067ffffffffffffffff82111761054157604090815233835251601f8201601f1916936102f060208601836107c0565b828252828760208401375f602084840101526020840191825260408401908152606084015f815260808501915f835260a08601935f8552885f52600160205260405f209660018060a01b039051166bffffffffffffffffffffffff60a01b88541617875560018701905180519067ffffffffffffffff8211610541576103768354610788565b601f81116104fc575b50918a9795939160209c9795938d90601f831160011461044d5791807f98120a6aaa04295520ab4e01c6c1235dd316e822cc9ff31db7b3f197366d18bd9b9c96949260059896945f92610442575b50508160011b915f199060031b1c19161790555b516002840155516003830155516004820155019051151560ff801983541691161790555f606061041360243542610804565b9280604051956040875281604088015283870137840101528682015260608133958101030190a3604051908152f35b015190505f806103cd565b601f9b9695949392919b19821690835f528c5f20915f5b8181106104c85750917f98120a6aaa04295520ab4e01c6c1235dd316e822cc9ff31db7b3f197366d18bd9c9d849260059a9998979695600195106104b0575b505050811b0190556103e1565b01515f1960f88460031b161c191690555f80806104a3565b939597999b9d9496989a9c5090916020600181928786015181550195019301908f9c9a98969492919d9b999795939d610464565b835f5260205f20601f840160051c81019160208510610537575b601f0160051c01905b81811061052c575061037f565b5f815560010161051f565b9091508190610516565b634e487b7160e01b5f52604160045260245ffd5b3461007a57602036600319011261007a57600435805f52600160205260405f2060028101544210610617576005810190815460ff81166105d2577f948f4a9cd986f1118c3fbd459f7a22b23c0693e1ca3ef06a6a8be5aa7d39cc0392600183600460036020960154910154109260ff1916179055604051908152a2005b60405162461bcd60e51b815260206004820152601c60248201527f476f7665726e616e63653a20616c7265616479206578656375746564000000006044820152606490fd5b60405162461bcd60e51b815260206004820152602160248201527f476f7665726e616e63653a2070726f706f73616c207374696c6c2061637469766044820152606560f81b6064820152608490fd5b3461007a57602036600319011261007a576004355f52600160205260405f209060018060a01b03825416600183015f938154916106a283610788565b9081865260208601936001811690815f1461076b5750600114610731575b50506106d18460e0959603866107c0565b600281015490600381015460ff600560048401549301541692604051978896875260c060208801525180958160c08901528888015e5f868601880152604086015260608501526080840152151560a0830152601f01601f19168101030190f35b9095505f5260205f205f905b8682106107555750840160200194506106d1846106c0565b6001816020925483858a0101520191019061073d565b60ff191685525050151560051b840160200194506106d1846106c0565b90600182811c921680156107b6575b60208310146107a257565b634e487b7160e01b5f52602260045260245ffd5b91607f1691610797565b90601f8019910116810190811067ffffffffffffffff82111761054157604052565b5f1981146107f05760010190565b634e487b7160e01b5f52601160045260245ffd5b919082018092116107f05756fea264697066735822122026be827370e5b3a450d66896123893ddac2df7d7cc3bac6ce042e33f076d342864736f6c634300081a0033",
			"opcodes": "PUSH1 0x80 DUP1 PUSH1 0x40 MSTORE CALLVALUE PUSH1 0x15 JUMPI PUSH2 0x847 SWAP1 DUP2 PUSH2 0x1A DUP3 CODECOPY RETURN JUMPDEST PUSH0 DUP1 REVERT INVALID PUSH1 0x80 DUP1 PUSH1 0x40 MSTORE PUSH1 0x4 CALLDATASIZE LT ISZERO PUSH2 0x12 JUMPI PUSH0 DUP1 REVERT JUMPDEST PUSH0 CALLDATALOAD PUSH1 0xE0 SHR SWAP1 DUP2 PUSH4 0x13CF08B EQ PUSH2 0x666 JUMPI POP DUP1 PUSH4 0xD61B519 EQ PUSH2 0x555 JUMPI DUP1 PUSH4 0x35FACF78 EQ PUSH2 0x248 JUMPI DUP1 PUSH4 0x43859632 EQ PUSH2 0x1F4 JUMPI DUP1 PUSH4 0xC9D27AFE EQ PUSH2 0x7E JUMPI PUSH4 0xDA35C664 EQ PUSH2 0x5E JUMPI PUSH0 DUP1 REVERT JUMPDEST CALLVALUE PUSH2 0x7A JUMPI PUSH0 CALLDATASIZE PUSH1 0x3 NOT ADD SLT PUSH2 0x7A JUMPI PUSH1 0x20 PUSH0 SLOAD PUSH1 0x40 MLOAD SWAP1 DUP2 MSTORE RETURN JUMPDEST PUSH0 DUP1 REVERT JUMPDEST CALLVALUE PUSH2 0x7A JUMPI PUSH1 0x40 CALLDATASIZE PUSH1 0x3 NOT ADD SLT PUSH2 0x7A JUMPI PUSH1 0x4 CALLDATALOAD PUSH1 0x24 CALLDATALOAD SWAP1 DUP2 ISZERO ISZERO SWAP2 DUP3 DUP2 SUB PUSH2 0x7A JUMPI DUP2 PUSH0 MSTORE PUSH1 0x1 PUSH1 0x20 MSTORE PUSH1 0x2 PUSH1 0x40 PUSH0 KECCAK256 ADD SLOAD TIMESTAMP LT ISZERO PUSH2 0x1AF JUMPI PUSH0 DUP3 DUP2 MSTORE PUSH1 0x2 PUSH1 0x20 SWAP1 DUP2 MSTORE PUSH1 0x40 DUP1 DUP4 KECCAK256 CALLER DUP5 MSTORE SWAP1 SWAP2 MSTORE SWAP1 KECCAK256 SLOAD PUSH1 0xFF AND PUSH2 0x16A JUMPI PUSH0 DUP3 DUP2 MSTORE PUSH1 0x2 PUSH1 0x20 SWAP1 DUP2 MSTORE PUSH1 0x40 DUP1 DUP4 KECCAK256 CALLER DUP5 MSTORE SWAP1 SWAP2 MSTORE SWAP1 KECCAK256 DUP1 SLOAD PUSH1 0xFF NOT AND PUSH1 0x1 OR SWAP1 SSTORE ISZERO PUSH2 0x14A JUMPI DUP1 PUSH0 MSTORE PUSH1 0x1 PUSH1 0x20 MSTORE PUSH1 0x3 PUSH1 0x40 PUSH0 KECCAK256 ADD PUSH2 0x119 DUP2 SLOAD PUSH2 0x7E2 JUMP JUMPDEST SWAP1 SSTORE JUMPDEST PUSH1 0x40 MLOAD SWAP2 DUP3 MSTORE PUSH32 0xF2913DBE661EE2ACC4A046D8FBCDC792373BDA34C41C6086484B5345E5785E5F PUSH1 0x20 CALLER SWAP4 LOG3 STOP JUMPDEST DUP1 PUSH0 MSTORE PUSH1 0x1 PUSH1 0x20 MSTORE PUSH1 0x4 PUSH1 0x40 PUSH0 KECCAK256 ADD PUSH2 0x163 DUP2 SLOAD PUSH2 0x7E2 JUMP JUMPDEST SWAP1 SSTORE PUSH2 0x11C JUMP JUMPDEST PUSH1 0x40 MLOAD PUSH3 0x461BCD PUSH1 0xE5 SHL DUP2 MSTORE PUSH1 0x20 PUSH1 0x4 DUP3 ADD MSTORE PUSH1 0x19 PUSH1 0x24 DUP3 ADD MSTORE PUSH32 0x476F7665726E616E63653A20616C726561647920766F74656400000000000000 PUSH1 0x44 DUP3 ADD MSTORE PUSH1 0x64 SWAP1 REVERT JUMPDEST PUSH1 0x40 MLOAD PUSH3 0x461BCD PUSH1 0xE5 SHL DUP2 MSTORE PUSH1 0x20 PUSH1 0x4 DUP3 ADD MSTORE PUSH1 0x1A PUSH1 0x24 DUP3 ADD MSTORE PUSH32 0x476F7665726E616E63653A2070726F706F73616C20656E646564000000000000 PUSH1 0x44 DUP3 ADD MSTORE PUSH1 0x64 SWAP1 REVERT JUMPDEST CALLVALUE PUSH2 0x7A JUMPI PUSH1 0x40 CALLDATASIZE PUSH1 0x3 NOT ADD SLT PUSH2 0x7A JUMPI PUSH1 0x24 CALLDATALOAD PUSH1 0x1 PUSH1 0x1 PUSH1 0xA0 SHL SUB DUP2 AND DUP2 SUB PUSH2 0x7A JUMPI PUSH1 0x4 CALLDATALOAD PUSH0 MSTORE PUSH1 0x2 PUSH1 0x20 MSTORE PUSH1 0x40 PUSH0 KECCAK256 SWAP1 PUSH1 0x1 DUP1 PUSH1 0xA0 SHL SUB AND PUSH0 MSTORE PUSH1 0x20 MSTORE PUSH1 0x20 PUSH1 0xFF PUSH1 0x40 PUSH0 KECCAK256 SLOAD AND PUSH1 0x40 MLOAD SWAP1 ISZERO ISZERO DUP2 MSTORE RETURN JUMPDEST CALLVALUE PUSH2 0x7A JUMPI PUSH1 0x40 CALLDATASIZE PUSH1 0x3 NOT ADD SLT PUSH2 0x7A JUMPI PUSH1 0x4 CALLDATALOAD PUSH8 0xFFFFFFFFFFFFFFFF DUP2 GT PUSH2 0x7A JUMPI CALLDATASIZE PUSH1 0x23 DUP3 ADD SLT ISZERO PUSH2 0x7A JUMPI DUP1 PUSH1 0x4 ADD CALLDATALOAD PUSH8 0xFFFFFFFFFFFFFFFF DUP2 GT PUSH2 0x7A JUMPI PUSH1 0x24 DUP3 ADD SWAP2 PUSH1 0x24 DUP3 CALLDATASIZE SWAP3 ADD ADD GT PUSH2 0x7A JUMPI PUSH2 0x2A5 PUSH0 SLOAD PUSH2 0x7E2 JUMP JUMPDEST SWAP1 DUP2 PUSH0 SSTORE PUSH2 0x2B5 PUSH1 0x24 CALLDATALOAD TIMESTAMP PUSH2 0x804 JUMP JUMPDEST SWAP1 PUSH1 0x40 MLOAD SWAP1 PUSH1 0xC0 DUP3 ADD DUP3 DUP2 LT PUSH8 0xFFFFFFFFFFFFFFFF DUP3 GT OR PUSH2 0x541 JUMPI PUSH1 0x40 SWAP1 DUP2 MSTORE CALLER DUP4 MSTORE MLOAD PUSH1 0x1F DUP3 ADD PUSH1 0x1F NOT AND SWAP4 PUSH2 0x2F0 PUSH1 0x20 DUP7 ADD DUP4 PUSH2 0x7C0 JUMP JUMPDEST DUP3 DUP3 MSTORE DUP3 DUP8 PUSH1 0x20 DUP5 ADD CALLDATACOPY PUSH0 PUSH1 0x20 DUP5 DUP5 ADD ADD MSTORE PUSH1 0x20 DUP5 ADD SWAP2 DUP3 MSTORE PUSH1 0x40 DUP5 ADD SWAP1 DUP2 MSTORE PUSH1 0x60 DUP5 ADD PUSH0 DUP2 MSTORE PUSH1 0x80 DUP6 ADD SWAP2 PUSH0 DUP4 MSTORE PUSH1 0xA0 DUP7 ADD SWAP4 PUSH0 DUP6 MSTORE DUP9 PUSH0 MSTORE PUSH1 0x1 PUSH1 0x20 MSTORE PUSH1 0x40 PUSH0 KECCAK256 SWAP7 PUSH1 0x1 DUP1 PUSH1 0xA0 SHL SUB SWAP1 MLOAD AND PUSH12 0xFFFFFFFFFFFFFFFFFFFFFFFF PUSH1 0xA0 SHL DUP9 SLOAD AND OR DUP8 SSTORE PUSH1 0x1 DUP8 ADD SWAP1 MLOAD DUP1 MLOAD SWAP1 PUSH8 0xFFFFFFFFFFFFFFFF DUP3 GT PUSH2 0x541 JUMPI PUSH2 0x376 DUP4 SLOAD PUSH2 0x788 JUMP JUMPDEST PUSH1 0x1F DUP2 GT PUSH2 0x4FC JUMPI JUMPDEST POP SWAP2 DUP11 SWAP8 SWAP6 SWAP4 SWAP2 PUSH1 0x20 SWAP13 SWAP8 SWAP6 SWAP4 DUP14 SWAP1 PUSH1 0x1F DUP4 GT PUSH1 0x1 EQ PUSH2 0x44D JUMPI SWAP2 DUP1 PUSH32 0x98120A6AAA04295520AB4E01C6C1235DD316E822CC9FF31DB7B3F197366D18BD SWAP12 SWAP13 SWAP7 SWAP5 SWAP3 PUSH1 0x5 SWAP9 SWAP7 SWAP5 PUSH0 SWAP3 PUSH2 0x442 JUMPI JUMPDEST POP POP DUP2 PUSH1 0x1 SHL SWAP2 PUSH0 NOT SWAP1 PUSH1 0x3 SHL SHR NOT AND OR SWAP1 SSTORE JUMPDEST MLOAD PUSH1 0x2 DUP5 ADD SSTORE MLOAD PUSH1 0x3 DUP4 ADD SSTORE MLOAD PUSH1 0x4 DUP3 ADD SSTORE ADD SWAP1 MLOAD ISZERO ISZERO PUSH1 0xFF DUP1 NOT DUP4 SLOAD AND SWAP2 AND OR SWAP1 SSTORE PUSH0 PUSH1 0x60 PUSH2 0x413 PUSH1 0x24 CALLDATALOAD TIMESTAMP PUSH2 0x804 JUMP JUMPDEST SWAP3 DUP1 PUSH1 0x40 MLOAD SWAP6 PUSH1 0x40 DUP8 MSTORE DUP2 PUSH1 0x40 DUP9 ADD MSTORE DUP4 DUP8 ADD CALLDATACOPY DUP5 ADD ADD MSTORE DUP7 DUP3 ADD MSTORE PUSH1 0x60 DUP2 CALLER SWAP6 DUP2 ADD SUB ADD SWAP1 LOG3 PUSH1 0x40 MLOAD SWAP1 DUP2 MSTORE RETURN JUMPDEST ADD MLOAD SWAP1 POP PUSH0 DUP1 PUSH2 0x3CD JUMP JUMPDEST PUSH1 0x1F SWAP12 SWAP7 SWAP6 SWAP5 SWAP4 SWAP3 SWAP2 SWAP12 NOT DUP3 AND SWAP1 DUP4 PUSH0 MSTORE DUP13 PUSH0 KECCAK256 SWAP2 PUSH0 JUMPDEST DUP2 DUP2 LT PUSH2 0x4C8 JUMPI POP SWAP2 PUSH32 0x98120A6AAA04295520AB4E01C6C1235DD316E822CC9FF31DB7B3F197366D18BD SWAP13 SWAP14 DUP5 SWAP3 PUSH1 0x5 SWAP11 SWAP10 SWAP9 SWAP8 SWAP7 SWAP6 PUSH1 0x1 SWAP6 LT PUSH2 0x4B0 JUMPI JUMPDEST POP POP POP DUP2 SHL ADD SWAP1 SSTORE PUSH2 0x3E1 JUMP JUMPDEST ADD MLOAD PUSH0 NOT PUSH1 0xF8 DUP5 PUSH1 0x3 SHL AND SHR NOT AND SWAP1 SSTORE PUSH0 DUP1 DUP1 PUSH2 0x4A3 JUMP JUMPDEST SWAP4 SWAP6 SWAP8 SWAP10 SWAP12 SWAP14 SWAP5 SWAP7 SWAP9 SWAP11 SWAP13 POP SWAP1 SWAP2 PUSH1 0x20 PUSH1 0x1 DUP2 SWAP3 DUP8 DUP7 ADD MLOAD DUP2 SSTORE ADD SWAP6 ADD SWAP4 ADD SWAP1 DUP16 SWAP13 SWAP11 SWAP9 SWAP7 SWAP5 SWAP3 SWAP2 SWAP14 SWAP12 SWAP10 SWAP8 SWAP6 SWAP4 SWAP14 PUSH2 0x464 JUMP JUMPDEST DUP4 PUSH0 MSTORE PUSH1 0x20 PUSH0 KECCAK256 PUSH1 0x1F DUP5 ADD PUSH1 0x5 SHR DUP2 ADD SWAP2 PUSH1 0x20 DUP6 LT PUSH2 0x537 JUMPI JUMPDEST PUSH1 0x1F ADD PUSH1 0x5 SHR ADD SWAP1 JUMPDEST DUP2 DUP2 LT PUSH2 0x52C JUMPI POP PUSH2 0x37F JUMP JUMPDEST PUSH0 DUP2 SSTORE PUSH1 0x1 ADD PUSH2 0x51F JUMP JUMPDEST SWAP1 SWAP2 POP DUP2 SWAP1 PUSH2 0x516 JUMP JUMPDEST PUSH4 0x4E487B71 PUSH1 0xE0 SHL PUSH0 MSTORE PUSH1 0x41 PUSH1 0x4 MSTORE PUSH1 0x24 PUSH0 REVERT JUMPDEST CALLVALUE PUSH2 0x7A JUMPI PUSH1 0x20 CALLDATASIZE PUSH1 0x3 NOT ADD SLT PUSH2 0x7A JUMPI PUSH1 0x4 CALLDATALOAD DUP1 PUSH0 MSTORE PUSH1 0x1 PUSH1 0x20 MSTORE PUSH1 0x40 PUSH0 KECCAK256 PUSH1 0x2 DUP2 ADD SLOAD TIMESTAMP LT PUSH2 0x617 JUMPI PUSH1 0x5 DUP2 ADD SWAP1 DUP2 SLOAD PUSH1 0xFF DUP2 AND PUSH2 0x5D2 JUMPI PUSH32 0x948F4A9CD986F1118C3FBD459F7A22B23C0693E1CA3EF06A6A8BE5AA7D39CC03 SWAP3 PUSH1 0x1 DUP4 PUSH1 0x4 PUSH1 0x3 PUSH1 0x20 SWAP7 ADD SLOAD SWAP2 ADD SLOAD LT SWAP3 PUSH1 0xFF NOT AND OR SWAP1 SSTORE PUSH1 0x40 MLOAD SWAP1 DUP2 MSTORE LOG2 STOP JUMPDEST PUSH1 0x40 MLOAD PUSH3 0x461BCD PUSH1 0xE5 SHL DUP2 MSTORE PUSH1 0x20 PUSH1 0x4 DUP3 ADD MSTORE PUSH1 0x1C PUSH1 0x24 DUP3 ADD MSTORE PUSH32 0x476F7665726E616E63653A20616C726561647920657865637574656400000000 PUSH1 0x44 DUP3 ADD MSTORE PUSH1 0x64 SWAP1 REVERT JUMPDEST PUSH1 0x40 MLOAD PUSH3 0x461BCD PUSH1 0xE5 SHL DUP2 MSTORE PUSH1 0x20 PUSH1 0x4 DUP3 ADD MSTORE PUSH1 0x21 PUSH1 0x24 DUP3 ADD MSTORE PUSH32 0x476F7665726E616E63653A2070726F706F73616C207374696C6C206163746976 PUSH1 0x44 DUP3 ADD MSTORE PUSH1 0x65 PUSH1 0xF8 SHL PUSH1 0x64 DUP3 ADD MSTORE PUSH1 0x84 SWAP1 REVERT JUMPDEST CALLVALUE PUSH2 0x7A JUMPI PUSH1 0x20 CALLDATASIZE PUSH1 0x3 NOT ADD SLT PUSH2 0x7A JUMPI PUSH1 0x4 CALLDATALOAD PUSH0 MSTORE PUSH1 0x1 PUSH1 0x20 MSTORE PUSH1 0x40 PUSH0 KECCAK256 SWAP1 PUSH1 0x1 DUP1 PUSH1 0xA0 SHL SUB DUP3 SLOAD AND PUSH1 0x1 DUP4 ADD PUSH0 SWAP4 DUP2 SLOAD SWAP2 PUSH2 0x6A2 DUP4 PUSH2 0x788 JUMP JUMPDEST SWAP1 DUP2 DUP7 MSTORE PUSH1 0x20 DUP7 ADD SWAP4 PUSH1 0x1 DUP2 AND SWAP1 DUP2 PUSH0 EQ PUSH2 0x76B JUMPI POP PUSH1 0x1 EQ PUSH2 0x731 JUMPI JUMPDEST POP POP PUSH2 0x6D1 DUP5 PUSH1 0xE0 SWAP6 SWAP7 SUB DUP7 PUSH2 0x7C0 JUMP JUMPDEST PUSH1 0x2 DUP2 ADD SLOAD SWAP1 PUSH1 0x3 DUP2 ADD SLOAD PUSH1 0xFF PUSH1 0x5 PUSH1 0x4 DUP5 ADD SLOAD SWAP4 ADD SLOAD AND SWAP3 PUSH1 0x40 MLOAD SWAP8 DUP9 SWAP7 DUP8 MSTORE PUSH1 0xC0 PUSH1 0x20 DUP9 ADD MSTORE MLOAD DUP1 SWAP6 DUP2 PUSH1 0xC0 DUP10 ADD MSTORE DUP9 DUP9 ADD MCOPY PUSH0 DUP7 DUP7 ADD DUP9 ADD MSTORE PUSH1 0x40 DUP7 ADD MSTORE PUSH1 0x60 DUP6 ADD MSTORE PUSH1 0x80 DUP5 ADD MSTORE ISZERO ISZERO PUSH1 0xA0 DUP4 ADD MSTORE PUSH1 0x1F ADD PUSH1 0x1F NOT AND DUP2 ADD SUB ADD SWAP1 RETURN JUMPDEST SWAP1 SWAP6 POP PUSH0 MSTORE PUSH1 0x20 PUSH0 KECCAK256 PUSH0 SWAP1 JUMPDEST DUP7 DUP3 LT PUSH2 0x755 JUMPI POP DUP5 ADD PUSH1 0x20 ADD SWAP5 POP PUSH2 0x6D1 DUP5 PUSH2 0x6C0 JUMP JUMPDEST PUSH1 0x1 DUP2 PUSH1 0x20 SWAP3 SLOAD DUP4 DUP6 DUP11 ADD ADD MSTORE ADD SWAP2 ADD SWAP1 PUSH2 0x73D JUMP JUMPDEST PUSH1 0xFF NOT AND DUP6 MSTORE POP POP ISZERO ISZERO PUSH1 0x5 SHL DUP5 ADD PUSH1 0x20 ADD SWAP5 POP PUSH2 0x6D1 DUP5 PUSH2 0x6C0 JUMP JUMPDEST SWAP1 PUSH1 0x1 DUP3 DUP2 SHR SWAP3 AND DUP1 ISZERO PUSH2 0x7B6 JUMPI JUMPDEST PUSH1 0x20 DUP4 LT EQ PUSH2 0x7A2 JUMPI JUMP JUMPDEST PUSH4 0x4E487B71 PUSH1 0xE0 SHL PUSH0 MSTORE PUSH1 0x22 PUSH1 0x4 MSTORE PUSH1 0x24 PUSH0 REVERT JUMPDEST SWAP2 PUSH1 0x7F AND SWAP2 PUSH2 0x797 JUMP JUMPDEST SWAP1 PUSH1 0x1F DUP1 NOT SWAP2 ADD AND DUP2 ADD SWAP1 DUP2 LT PUSH8 0xFFFFFFFFFFFFFFFF DUP3 GT OR PUSH2 0x541 JUMPI PUSH1 0x40 MSTORE JUMP JUMPDEST PUSH0 NOT DUP2 EQ PUSH2 0x7F0 JUMPI PUSH1 0x1 ADD SWAP1 JUMP JUMPDEST PUSH4 0x4E487B71 PUSH1 0xE0 SHL PUSH0 MSTORE PUSH1 0x11 PUSH1 0x4 MSTORE PUSH1 0x24 PUSH0 REVERT JUMPDEST SWAP2 SWAP1 DUP3 ADD DUP1 SWAP3 GT PUSH2 0x7F0 JUMPI JUMP INVALID LOG2 PUSH5 0x6970667358 0x22 SLT KECCAK256 0x26 0xBE DUP3 PUSH20 0x70E5B3A450D66896123893DDAC2DF7D7CC3BAC6C 0xE0 TIMESTAMP 0xE3 EXTCODEHASH SMOD PUSH14 0x342864736F6C634300081A003300 "
		},
		"gasEstimates": {
			"creation": {
				"codeDepositCost": "423800",
				"executionCost": "468",
				"totalCost": "424268"
			},
			"external": {
				"createProposal(string,uint256)": "infinite",
				"executeProposal(uint256)": "32242",
				"hasVoted(uint256,address)": "2524",
				"proposalCount()": "2362",
				"proposals(uint256)": "infinite",
				"vote(uint256,bool)": "55226"
			}
		},
		"methodIdentifiers": {
			"createProposal(string,uint256)": "35facf78",
			"executeProposal(uint256)": "0d61b519",
			"hasVoted(uint256,address)": "43859632",
			"proposalCount()": "da35c664",
			"proposals(uint256)": "013cf08b",
			"vote(uint256,bool)": "c9d27afe"
		}
	},
	"abi": [
		{
			"anonymous": false,
			"inputs": [
				{
					"indexed": true,
					"internalType": "uint256",
					"name": "id",
					"type": "uint256"
				},
				{
					"indexed": true,
					"internalType": "address",
					"name": "proposer",
					"type": "address"
				},
				{
					"indexed": false,
					"internalType": "string",
					"name": "description",
					"type": "string"
				},
				{
					"indexed": false,
					"internalType": "uint256",
					"name": "deadline",
					"type": "uint256"
				}
			],
			"name": "ProposalCreated",
			"type": "event"
		},
		{
			"anonymous": false,
			"inputs": [
				{
					"indexed": true,
					"internalType": "uint256",
					"name": "id",
					"type": "uint256"
				},
				{
					"indexed": false,
					"internalType": "bool",
					"name": "passed",
					"type": "bool"
				}
			],
			"name": "ProposalExecuted",
			"type": "event"
		},
		{
			"anonymous": false,
			"inputs": [
				{
					"indexed": true,
					"internalType": "uint256",
					"name": "id",
					"type": "uint256"
				},
				{
					"indexed": true,
					"internalType": "address",
					"name": "voter",
					"type": "address"
				},
				{
					"indexed": false,
					"internalType": "bool",
					"name": "support",
					"type": "bool"
				}
			],
			"name": "Voted",
			"type": "event"
		},
		{
			"inputs": [
				{
					"internalType": "string",
					"name": "description",
					"type": "string"
				},
				{
					"internalType": "uint256",
					"name": "duration",
					"type": "uint256"
				}
			],
			"name": "createProposal",
			"outputs": [
				{
					"internalType": "uint256",
					"name": "",
					"type": "uint256"
				}
			],
			"stateMutability": "nonpayable",
			"type": "function"
		},
		{
			"inputs": [
				{
					"internalType": "uint256",
					"name": "id",
					"type": "uint256"
				}
			],
			"name": "executeProposal",
			"outputs": [],
			"stateMutability": "nonpayable",
			"type": "function"
		},
		{
			"inputs": [
				{
					"internalType": "uint256",
					"name": "",
					"type": "uint256"
				},
				{
					"internalType": "address",
					"name": "",
					"type": "address"
				}
			],
			"name": "hasVoted",
			"outputs": [
				{
					"internalType": "bool",
					"name": "",
					"type": "bool"
				}
			],
			"stateMutability": "view",
			"type": "function"
		},
		{
			"inputs": [],
			"name": "proposalCount",
			"outputs": [
				{
					"internalType": "uint256",
					"name": "",
					"type": "uint256"
				}
			],
			"stateMutability": "view",
			"type": "function"
		},
		{
			"inputs": [
				{
					"internalType": "uint256",
					"name": "",
					"type": "uint256"
				}
			],
			"name": "proposals",
			"outputs": [
				{
					"internalType": "address",
					"name": "proposer",
					"type": "address"
				},
				{
					"internalType": "string",
					"name": "description",
					"type": "string"
				},
				{
					"internalType": "uint256",
					"name": "deadline",
					"type": "uint256"
				},
				{
					"internalType": "uint256",
					"name": "yesVotes",
					"type": "uint256"
				},
				{
					"internalType": "uint256",
					"name": "noVotes",
					"type": "uint256"
				},
				{
					"internalType": "bool",
					"name": "executed",
					"type": "bool"
				}
			],
			"stateMutability": "view",
			"type": "function"
		},
		{
			"inputs": [
				{
					"internalType": "uint256",
					"name": "id",
					"type": "uint256"
				},
				{
					"internalType": "bool",
					"name": "support",
					"type": "bool"
				}
			],
			"name": "vote",
			"outputs": [],
			"stateMutability": "nonpayable",
			"type": "function"
		}
	]
}