{
	"data": {
		"bytecode": {
			"linkReferences": {},
			"object": "60803461019457601f610fce38819003918201601f19168301916001600160401b0383118484101761019857808492604094855283398101031261019457610052602061004b836101ac565b92016101ac565b3315610181575f8054336001600160a01b0319821681178355604051949290916001600160a01b0316907f8be0079c531659141344cd1fd0a4f28419497f9722a3daafe3b4186f6b6457e09080a3600180556001600160a01b0316918215158061016f575b156101425750600280546001600160a01b03199081168417909155600380549091166001600160a01b03929092169182179055604051917f3df77beb5db05fcdd70a30fc8adf3f83f9501b68579455adbd100b81809403945f80a27f7aed1d3e8155a07ccf395e44ea3109a0e2d6c9b29bbbe9f142d9790596f4dc805f80a2610e0d90816101c18239f35b62461bcd60e51b81526020600482015260086024820152672d32b937a0b2323960c11b6044820152606490fd5b506001600160a01b03821615156100b7565b631e4fbdf760e01b5f525f60045260245ffd5b5f80fd5b634e487b7160e01b5f52604160045260245ffd5b51906001600160a01b03821682036101945756fe6080806040526004361015610012575f80fd5b5f3560e01c9081632a58b33014610c8d575080633882fcd11461097d578063514fcac7146108d5578063715018a61461087e5780637adbf973146108115780637dc0d1d0146107e95780638da5cb5b146107c2578063a85c38ef14610706578063c0d7865514610699578063ed2f21f51461065f578063ef46e0ca1461015c578063f2fde38b146100d75763f887ea40146100ab575f80fd5b346100d3575f3660031901126100d3576003546040516001600160a01b039091168152602090f35b5f80fd5b346100d35760203660031901126100d3576100f0610ca7565b6100f8610db1565b6001600160a01b03168015610149575f80546001600160a01b03198116831782556001600160a01b0316907f8be0079c531659141344cd1fd0a4f28419497f9722a3daafe3b4186f6b6457e09080a3005b631e4fbdf760e01b5f525f60045260245ffd5b346100d35760403660031901126100d35760043560026001541461061a576002600155805f52600560205260405f209060058201908154926101a360ff8560581c16610cdf565b67ffffffffffffffff8460181c16806105df575b506002805460018301805492840180546040805163cc34929d60e01b81526001600160a01b0396871660048201819052928716602482015299959294919290918a916044918391165afa9788156104c9575f986105ab575b50871561057c5760ff8416156105675761022f6004860154891015610d4d565b600385019761ffff670de0b6b3a764000061024c8b549384610d86565b049560081c168061054d575b505f60209160018060a01b038854169060405190848201926323b872dd60e01b84526024830152306044830152606482015260648152610299608482610cbd565b519082855af1156104c9575f513d6105445750803b155b6105325750805460035460405163095ea7b360e01b81526001600160a01b0391821660048201525f60248201819052909260209284926044928492165af180156104c957610515575b508054600354885460405163095ea7b360e01b81526001600160a01b039283166004820152602481019190915291602091839160449183915f91165af180156104c9576104e8575b5060035490549154845497546040519198909491936001600160a01b0393841693918216929116610100850167ffffffffffffffff8111868210176104d45760409081529085526001600160a01b038a81166020870190815262ffffff60a09c8d1c8116888501908152606089019687526024803560808b019081529e8a019a8b5260c08a019687525f60e08b01908152955163414bf38960e01b81529951851660048b01529251841692890192909252905116604487015292518316606486015298516084850152935160a4840152925160c4830152955190911660e482015293849081905a925f61010492602095f19283156104c9575f93610494575b805460ff60581b1916905554604051838152602094506001600160a01b0390911691907f9b32d7714729bdcd899b9c5460b1ec55a813e10e7a51271f146949e4e19f7b99908590a360018055604051908152f35b92506020843d6020116104c1575b816104af60209383610cbd565b810103126100d3576020935192610440565b3d91506104a2565b6040513d5f823e3d90fd5b634e487b7160e01b5f52604160045260245ffd5b6105099060203d60201161050e575b6105018183610cbd565b810190610d99565b610341565b503d6104f7565b61052d9060203d60201161050e576105018183610cbd565b6102f9565b635274afe760e01b5f5260045260245ffd5b600114156102b0565b61271061055e5f9260209498610d86565b04959150610258565b6105776004860154891115610d4d565b61022f565b60405162461bcd60e51b81526020600482015260076024820152664e6f507269636560c81b6044820152606490fd5b9097506040813d6040116105d7575b816105c760409383610cbd565b810103126100d35751968861020f565b3d91506105ba565b42116105eb57846101b7565b60405162461bcd60e51b8152602060048201526007602482015266115e1c1a5c995960ca1b6044820152606490fd5b60405162461bcd60e51b815260206004820152601f60248201527f5265656e7472616e637947756172643a207265656e7472616e742063616c6c006044820152606490fd5b346100d3575f3660031901126100d35760206040517f6cba96da9509df9ef0ffede51e21a8007b7ad42802bcb8eb8e335baea56540c68152f35b346100d35760203660031901126100d3576106b2610ca7565b6106ba610db1565b6001600160a01b03166106ce811515610d16565b600380546001600160a01b031916821790557f7aed1d3e8155a07ccf395e44ea3109a0e2d6c9b29bbbe9f142d9790596f4dc805f80a2005b346100d35760203660031901126100d3576004355f52600560205261014060405f2060ff60018060a01b038254169160018060a01b0360018201541690600281015462ffffff6003830154916005600485015494015494604051978852602088015260018060a01b038116604088015260a01c166060860152608085015260a0840152818116151560c084015261ffff8160081c1660e084015267ffffffffffffffff8160181c1661010084015260581c161515610120820152f35b346100d3575f3660031901126100d3575f546040516001600160a01b039091168152602090f35b346100d3575f3660031901126100d3576002546040516001600160a01b039091168152602090f35b346100d35760203660031901126100d35761082a610ca7565b610832610db1565b6001600160a01b0316610846811515610d16565b600280546001600160a01b031916821790557f3df77beb5db05fcdd70a30fc8adf3f83f9501b68579455adbd100b81809403945f80a2005b346100d3575f3660031901126100d357610896610db1565b5f80546001600160a01b0319811682556001600160a01b03167f8be0079c531659141344cd1fd0a4f28419497f9722a3daafe3b4186f6b6457e08280a3005b346100d35760203660031901126100d357600435805f52600560205260405f20600581019081549061090c60ff8360581c16610cdf565b546001600160a01b0316330361094d5760ff60581b1916905533907fc0362da6f2ff36b382b34aec0814f6b3cdf89f5ef282a1d1f114d0c0b036d5965f80a3005b60405162461bcd60e51b8152602060048201526008602482015267139bdd15985d5b1d60c21b6044820152606490fd5b346100d3576101003660031901126100d357610997610ca7565b6024356001600160a01b03811691908290036100d3576044359062ffffff82168092036100d3576064359060843560a4358015158091036100d35760c4359161ffff83168093036100d35760e4359367ffffffffffffffff85168095036100d3576001600160a01b03169485151580610c84575b15610c535780151580610c4a575b15610c195761271084116100d3576004545f198114610c05576001019687600455604051986101408a018a811067ffffffffffffffff8211176104d457898789600560209e898e8c976040523383526020830190815260408301898152606084018b815260808501928d845260a0860194855260c086019a8b5260e08601988952610100860197885261012086019960018b525f52602087905260405f209560018060a01b039060018060a01b03905116166001600160601b0360a01b87541617865560018060a01b03905116600186019060018060a01b03166001600160601b0360a01b825416179055600285019160018060a01b039060018060a01b03905116166001600160601b0360a01b8354161782555181549062ffffff60a01b9060a01b169062ffffff60a01b191617905551600383015551600482015501935115159160ff6affffffffffffffff00000062ffff008754935160081b16935160181b169316906affffffffffffffffffffff1916171717825551151581549060ff60581b9060581b169060ff60581b19161790556040519788528988015260408701526060860152608085015260a084015260c083015260e0820152817f41578656ca74aa2bf3922481f2c26cada17ed004b42f3ef4ea6c8ee81aed1d9e6101003393a3604051908152f35b634e487b7160e01b5f52601160045260245ffd5b60405162461bcd60e51b8152602060048201526009602482015268426164506172616d7360b81b6044820152606490fd5b50811515610a19565b60405162461bcd60e51b81526020600482015260096024820152682d32b937aa37b5b2b760b91b6044820152606490fd5b50871515610a0b565b346100d3575f3660031901126100d3576020906004548152f35b600435906001600160a01b03821682036100d357565b90601f8019910116810190811067ffffffffffffffff8211176104d457604052565b15610ce657565b60405162461bcd60e51b8152602060048201526008602482015267496e61637469766560c01b6044820152606490fd5b15610d1d57565b60405162461bcd60e51b81526020600482015260086024820152672d32b937a0b2323960c11b6044820152606490fd5b15610d5457565b60405162461bcd60e51b815260206004820152600a602482015269139bdd14995858da195960b21b6044820152606490fd5b81810292918115918404141715610c0557565b908160209103126100d3575180151581036100d35790565b5f546001600160a01b03163303610dc457565b63118cdaa760e01b5f523360045260245ffdfea26469706673582212203d0fa4d2877d26abe4a741c286f446f638a6fd8f8d9426859856a5b3a5fe3ad864736f6c634300081a0033",
			"opcodes": "PUSH1 0x80 CALLVALUE PUSH2 0x194 JUMPI PUSH1 0x1F PUSH2 0xFCE CODESIZE DUP2 SWAP1 SUB SWAP2 DUP3 ADD PUSH1 0x1F NOT AND DUP4 ADD SWAP2 PUSH1 0x1 PUSH1 0x1 PUSH1 0x40 SHL SUB DUP4 GT DUP5 DUP5 LT OR PUSH2 0x198 JUMPI DUP1 DUP5 SWAP3 PUSH1 0x40 SWAP5 DUP6 MSTORE DUP4 CODECOPY DUP2 ADD SUB SLT PUSH2 0x194 JUMPI PUSH2 0x52 PUSH1 0x20 PUSH2 0x4B DUP4 PUSH2 0x1AC JUMP JUMPDEST SWAP3 ADD PUSH2 0x1AC JUMP JUMPDEST CALLER ISZERO PUSH2 0x181 JUMPI PUSH0 DUP1 SLOAD CALLER PUSH1 0x1 PUSH1 0x1 PUSH1 0xA0 SHL SUB NOT DUP3 AND DUP2 OR DUP4 SSTORE PUSH1 0x40 MLOAD SWAP5 SWAP3 SWAP1 SWAP2 PUSH1 0x1 PUSH1 0x1 PUSH1 0xA0 SHL SUB AND SWAP1 PUSH32 0x8BE0079C531659141344CD1FD0A4F28419497F9722A3DAAFE3B4186F6B6457E0 SWAP1 DUP1 LOG3 PUSH1 0x1 DUP1 SSTORE PUSH1 0x1 PUSH1 0x1 PUSH1 0xA0 SHL SUB AND SWAP2 DUP3 ISZERO ISZERO DUP1 PUSH2 0x16F JUMPI JUMPDEST ISZERO PUSH2 0x142 JUMPI POP PUSH1 0x2 DUP1 SLOAD PUSH1 0x1 PUSH1 0x1 PUSH1 0xA0 SHL SUB NOT SWAP1 DUP2 AND DUP5 OR SWAP1 SWAP2 SSTORE PUSH1 0x3 DUP1 SLOAD SWAP1 SWAP2 AND PUSH1 0x1 PUSH1 0x1 PUSH1 0xA0 SHL SUB SWAP3 SWAP1 SWAP3 AND SWAP2 DUP3 OR SWAP1 SSTORE PUSH1 0x40 MLOAD SWAP2 PUSH32 0x3DF77BEB5DB05FCDD70A30FC8ADF3F83F9501B68579455ADBD100B8180940394 PUSH0 DUP1 LOG2 PUSH32 0x7AED1D3E8155A07CCF395E44EA3109A0E2D6C9B29BBBE9F142D9790596F4DC80 PUSH0 DUP1 LOG2 PUSH2 0xE0D SWAP1 DUP2 PUSH2 0x1C1 DUP3 CODECOPY RETURN JUMPDEST PUSH3 0x461BCD PUSH1 0xE5 SHL DUP2 MSTORE PUSH1 0x20 PUSH1 0x4 DUP3 ADD MSTORE PUSH1 0x8 PUSH1 0x24 DUP3 ADD MSTORE PUSH8 0x2D32B937A0B23239 PUSH1 0xC1 SHL PUSH1 0x44 DUP3 ADD MSTORE PUSH1 0x64 SWAP1 REVERT JUMPDEST POP PUSH1 0x1 PUSH1 0x1 PUSH1 0xA0 SHL SUB DUP3 AND ISZERO ISZERO PUSH2 0xB7 JUMP JUMPDEST PUSH4 0x1E4FBDF7 PUSH1 0xE0 SHL PUSH0 MSTORE PUSH0 PUSH1 0x4 MSTORE PUSH1 0x24 PUSH0 REVERT JUMPDEST PUSH0 DUP1 REVERT JUMPDEST PUSH4 0x4E487B71 PUSH1 0xE0 SHL PUSH0 MSTORE PUSH1 0x41 PUSH1 0x4 MSTORE PUSH1 0x24 PUSH0 REVERT JUMPDEST MLOAD SWAP1 PUSH1 0x1 PUSH1 0x1 PUSH1 0xA0 SHL SUB DUP3 AND DUP3 SUB PUSH2 0x194 JUMPI JUMP INVALID PUSH1 0x80 DUP1 PUSH1 0x40 MSTORE PUSH1 0x4 CALLDATASIZE LT ISZERO PUSH2 0x12 JUMPI PUSH0 DUP1 REVERT JUMPDEST PUSH0 CALLDATALOAD PUSH1 0xE0 SHR SWAP1 DUP2 PUSH4 0x2A58B330 EQ PUSH2 0xC8D JUMPI POP DUP1 PUSH4 0x3882FCD1 EQ PUSH2 0x97D JUMPI DUP1 PUSH4 0x514FCAC7 EQ PUSH2 0x8D5 JUMPI DUP1 PUSH4 0x715018A6 EQ PUSH2 0x87E JUMPI DUP1 PUSH4 0x7ADBF973 EQ PUSH2 0x811 JUMPI DUP1 PUSH4 0x7DC0D1D0 EQ PUSH2 0x7E9 JUMPI DUP1 PUSH4 0x8DA5CB5B EQ PUSH2 0x7C2 JUMPI DUP1 PUSH4 0xA85C38EF EQ PUSH2 0x706 JUMPI DUP1 PUSH4 0xC0D78655 EQ PUSH2 0x699 JUMPI DUP1 PUSH4 0xED2F21F5 EQ PUSH2 0x65F JUMPI DUP1 PUSH4 0xEF46E0CA EQ PUSH2 0x15C JUMPI DUP1 PUSH4 0xF2FDE38B EQ PUSH2 0xD7 JUMPI PUSH4 0xF887EA40 EQ PUSH2 0xAB JUMPI PUSH0 DUP1 REVERT JUMPDEST CALLVALUE PUSH2 0xD3 JUMPI PUSH0 CALLDATASIZE PUSH1 0x3 NOT ADD SLT PUSH2 0xD3 JUMPI PUSH1 0x3 SLOAD PUSH1 0x40 MLOAD PUSH1 0x1 PUSH1 0x1 PUSH1 0xA0 SHL SUB SWAP1 SWAP2 AND DUP2 MSTORE PUSH1 0x20 SWAP1 RETURN JUMPDEST PUSH0 DUP1 REVERT JUMPDEST CALLVALUE PUSH2 0xD3 JUMPI PUSH1 0x20 CALLDATASIZE PUSH1 0x3 NOT ADD SLT PUSH2 0xD3 JUMPI PUSH2 0xF0 PUSH2 0xCA7 JUMP JUMPDEST PUSH2 0xF8 PUSH2 0xDB1 JUMP JUMPDEST PUSH1 0x1 PUSH1 0x1 PUSH1 0xA0 SHL SUB AND DUP1 ISZERO PUSH2 0x149 JUMPI PUSH0 DUP1 SLOAD PUSH1 0x1 PUSH1 0x1 PUSH1 0xA0 SHL SUB NOT DUP2 AND DUP4 OR DUP3 SSTORE PUSH1 0x1 PUSH1 0x1 PUSH1 0xA0 SHL SUB AND SWAP1 PUSH32 0x8BE0079C531659141344CD1FD0A4F28419497F9722A3DAAFE3B4186F6B6457E0 SWAP1 DUP1 LOG3 STOP JUMPDEST PUSH4 0x1E4FBDF7 PUSH1 0xE0 SHL PUSH0 MSTORE PUSH0 PUSH1 0x4 MSTORE PUSH1 0x24 PUSH0 REVERT JUMPDEST CALLVALUE PUSH2 0xD3 JUMPI PUSH1 0x40 CALLDATASIZE PUSH1 0x3 NOT ADD SLT PUSH2 0xD3 JUMPI PUSH1 0x4 CALLDATALOAD PUSH1 0x2 PUSH1 0x1 SLOAD EQ PUSH2 0x61A JUMPI PUSH1 0x2 PUSH1 0x1 SSTORE DUP1 PUSH0 MSTORE PUSH1 0x5 PUSH1 0x20 MSTORE PUSH1 0x40 PUSH0 KECCAK256 SWAP1 PUSH1 0x5 DUP3 ADD SWAP1 DUP2 SLOAD SWAP3 PUSH2 0x1A3 PUSH1 0xFF DUP6 PUSH1 0x58 SHR AND PUSH2 0xCDF JUMP JUMPDEST PUSH8 0xFFFFFFFFFFFFFFFF DUP5 PUSH1 0x18 SHR AND DUP1 PUSH2 0x5DF JUMPI JUMPDEST POP PUSH1 0x2 DUP1 SLOAD PUSH1 0x1 DUP4 ADD DUP1 SLOAD SWAP3 DUP5 ADD DUP1 SLOAD PUSH1 0x40 DUP1 MLOAD PUSH4 0xCC34929D PUSH1 0xE0 SHL DUP2 MSTORE PUSH1 0x1 PUSH1 0x1 PUSH1 0xA0 SHL SUB SWAP7 DUP8 AND PUSH1 0x4 DUP3 ADD DUP2 SWAP1 MSTORE SWAP3 DUP8 AND PUSH1 0x24 DUP3 ADD MSTORE SWAP10 SWAP6 SWAP3 SWAP5 SWAP2 SWAP3 SWAP1 SWAP2 DUP11 SWAP2 PUSH1 0x44 SWAP2 DUP4 SWAP2 AND GAS STATICCALL SWAP8 DUP9 ISZERO PUSH2 0x4C9 JUMPI PUSH0 SWAP9 PUSH2 0x5AB JUMPI JUMPDEST POP DUP8 ISZERO PUSH2 0x57C JUMPI PUSH1 0xFF DUP5 AND ISZERO PUSH2 0x567 JUMPI PUSH2 0x22F PUSH1 0x4 DUP7 ADD SLOAD DUP10 LT ISZERO PUSH2 0xD4D JUMP JUMPDEST PUSH1 0x3 DUP6 ADD SWAP8 PUSH2 0xFFFF PUSH8 0xDE0B6B3A7640000 PUSH2 0x24C DUP12 SLOAD SWAP4 DUP5 PUSH2 0xD86 JUMP JUMPDEST DIV SWAP6 PUSH1 0x8 SHR AND DUP1 PUSH2 0x54D JUMPI JUMPDEST POP PUSH0 PUSH1 0x20 SWAP2 PUSH1 0x1 DUP1 PUSH1 0xA0 SHL SUB DUP9 SLOAD AND SWAP1 PUSH1 0x40 MLOAD SWAP1 DUP5 DUP3 ADD SWAP3 PUSH4 0x23B872DD PUSH1 0xE0 SHL DUP5 MSTORE PUSH1 0x24 DUP4 ADD MSTORE ADDRESS PUSH1 0x44 DUP4 ADD MSTORE PUSH1 0x64 DUP3 ADD MSTORE PUSH1 0x64 DUP2 MSTORE PUSH2 0x299 PUSH1 0x84 DUP3 PUSH2 0xCBD JUMP JUMPDEST MLOAD SWAP1 DUP3 DUP6 GAS CALL ISZERO PUSH2 0x4C9 JUMPI PUSH0 MLOAD RETURNDATASIZE PUSH2 0x544 JUMPI POP DUP1 EXTCODESIZE ISZERO JUMPDEST PUSH2 0x532 JUMPI POP DUP1 SLOAD PUSH1 0x3 SLOAD PUSH1 0x40 MLOAD PUSH4 0x95EA7B3 PUSH1 0xE0 SHL DUP2 MSTORE PUSH1 0x1 PUSH1 0x1 PUSH1 0xA0 SHL SUB SWAP2 DUP3 AND PUSH1 0x4 DUP3 ADD MSTORE PUSH0 PUSH1 0x24 DUP3 ADD DUP2 SWAP1 MSTORE SWAP1 SWAP3 PUSH1 0x20 SWAP3 DUP5 SWAP3 PUSH1 0x44 SWAP3 DUP5 SWAP3 AND GAS CALL DUP1 ISZERO PUSH2 0x4C9 JUMPI PUSH2 0x515 JUMPI JUMPDEST POP DUP1 SLOAD PUSH1 0x3 SLOAD DUP9 SLOAD PUSH1 0x40 MLOAD PUSH4 0x95EA7B3 PUSH1 0xE0 SHL DUP2 MSTORE PUSH1 0x1 PUSH1 0x1 PUSH1 0xA0 SHL SUB SWAP3 DUP4 AND PUSH1 0x4 DUP3 ADD MSTORE PUSH1 0x24 DUP2 ADD SWAP2 SWAP1 SWAP2 MSTORE SWAP2 PUSH1 0x20 SWAP2 DUP4 SWAP2 PUSH1 0x44 SWAP2 DUP4 SWAP2 PUSH0 SWAP2 AND GAS CALL DUP1 ISZERO PUSH2 0x4C9 JUMPI PUSH2 0x4E8 JUMPI JUMPDEST POP PUSH1 0x3 SLOAD SWAP1 SLOAD SWAP2 SLOAD DUP5 SLOAD SWAP8 SLOAD PUSH1 0x40 MLOAD SWAP2 SWAP9 SWAP1 SWAP5 SWAP2 SWAP4 PUSH1 0x1 PUSH1 0x1 PUSH1 0xA0 SHL SUB SWAP4 DUP5 AND SWAP4 SWAP2 DUP3 AND SWAP3 SWAP2 AND PUSH2 0x100 DUP6 ADD PUSH8 0xFFFFFFFFFFFFFFFF DUP2 GT DUP7 DUP3 LT OR PUSH2 0x4D4 JUMPI PUSH1 0x40 SWAP1 DUP2 MSTORE SWAP1 DUP6 MSTORE PUSH1 0x1 PUSH1 0x1 PUSH1 0xA0 SHL SUB DUP11 DUP2 AND PUSH1 0x20 DUP8 ADD SWAP1 DUP2 MSTORE PUSH3 0xFFFFFF PUSH1 0xA0 SWAP13 DUP14 SHR DUP2 AND DUP9 DUP6 ADD SWAP1 DUP2 MSTORE PUSH1 0x60 DUP10 ADD SWAP7 DUP8 MSTORE PUSH1 0x24 DUP1 CALLDATALOAD PUSH1 0x80 DUP12 ADD SWAP1 DUP2 MSTORE SWAP15 DUP11 ADD SWAP11 DUP12 MSTORE PUSH1 0xC0 DUP11 ADD SWAP7 DUP8 MSTORE PUSH0 PUSH1 0xE0 DUP12 ADD SWAP1 DUP2 MSTORE SWAP6 MLOAD PUSH4 0x414BF389 PUSH1 0xE0 SHL DUP2 MSTORE SWAP10 MLOAD DUP6 AND PUSH1 0x4 DUP12 ADD MSTORE SWAP3 MLOAD DUP5 AND SWAP3 DUP10 ADD SWAP3 SWAP1 SWAP3 MSTORE SWAP1 MLOAD AND PUSH1 0x44 DUP8 ADD MSTORE SWAP3 MLOAD DUP4 AND PUSH1 0x64 DUP7 ADD MSTORE SWAP9 MLOAD PUSH1 0x84 DUP6 ADD MSTORE SWAP4 MLOAD PUSH1 0xA4 DUP5 ADD MSTORE SWAP3 MLOAD PUSH1 0xC4 DUP4 ADD MSTORE SWAP6 MLOAD SWAP1 SWAP2 AND PUSH1 0xE4 DUP3 ADD MSTORE SWAP4 DUP5 SWAP1 DUP2 SWAP1 GAS SWAP3 PUSH0 PUSH2 0x104 SWAP3 PUSH1 0x20 SWAP6 CALL SWAP3 DUP4 ISZERO PUSH2 0x4C9 JUMPI PUSH0 SWAP4 PUSH2 0x494 JUMPI JUMPDEST DUP1 SLOAD PUSH1 0xFF PUSH1 0x58 SHL NOT AND SWAP1 SSTORE SLOAD PUSH1 0x40 MLOAD DUP4 DUP2 MSTORE PUSH1 0x20 SWAP5 POP PUSH1 0x1 PUSH1 0x1 PUSH1 0xA0 SHL SUB SWAP1 SWAP2 AND SWAP2 SWAP1 PUSH32 0x9B32D7714729BDCD899B9C5460B1EC55A813E10E7A51271F146949E4E19F7B99 SWAP1 DUP6 SWAP1 LOG3 PUSH1 0x1 DUP1 SSTORE PUSH1 0x40 MLOAD SWAP1 DUP2 MSTORE RETURN JUMPDEST SWAP3 POP PUSH1 0x20 DUP5 RETURNDATASIZE PUSH1 0x20 GT PUSH2 0x4C1 JUMPI JUMPDEST DUP2 PUSH2 0x4AF PUSH1 0x20 SWAP4 DUP4 PUSH2 0xCBD JUMP JUMPDEST DUP2 ADD SUB SLT PUSH2 0xD3 JUMPI PUSH1 0x20 SWAP4 MLOAD SWAP3 PUSH2 0x440 JUMP JUMPDEST RETURNDATASIZE SWAP2 POP PUSH2 0x4A2 JUMP JUMPDEST PUSH1 0x40 MLOAD RETURNDATASIZE PUSH0 DUP3 RETURNDATACOPY RETURNDATASIZE SWAP1 REVERT JUMPDEST PUSH4 0x4E487B71 PUSH1 0xE0 SHL PUSH0 MSTORE PUSH1 0x41 PUSH1 0x4 MSTORE PUSH1 0x24 PUSH0 REVERT JUMPDEST PUSH2 0x509 SWAP1 PUSH1 0x20 RETURNDATASIZE PUSH1 0x20 GT PUSH2 0x50E JUMPI JUMPDEST PUSH2 0x501 DUP2 DUP4 PUSH2 0xCBD JUMP JUMPDEST DUP2 ADD SWAP1 PUSH2 0xD99 JUMP JUMPDEST PUSH2 0x341 JUMP JUMPDEST POP RETURNDATASIZE PUSH2 0x4F7 JUMP JUMPDEST PUSH2 0x52D SWAP1 PUSH1 0x20 RETURNDATASIZE PUSH1 0x20 GT PUSH2 0x50E JUMPI PUSH2 0x501 DUP2 DUP4 PUSH2 0xCBD JUMP JUMPDEST PUSH2 0x2F9 JUMP JUMPDEST PUSH4 0x5274AFE7 PUSH1 0xE0 SHL PUSH0 MSTORE PUSH1 0x4 MSTORE PUSH1 0x24 PUSH0 REVERT JUMPDEST PUSH1 0x1 EQ ISZERO PUSH2 0x2B0 JUMP JUMPDEST PUSH2 0x2710 PUSH2 0x55E PUSH0 SWAP3 PUSH1 0x20 SWAP5 SWAP9 PUSH2 0xD86 JUMP JUMPDEST DIV SWAP6 SWAP2 POP PUSH2 0x258 JUMP JUMPDEST PUSH2 0x577 PUSH1 0x4 DUP7 ADD SLOAD DUP10 GT ISZERO PUSH2 0xD4D JUMP JUMPDEST PUSH2 0x22F JUMP JUMPDEST PUSH1 0x40 MLOAD PUSH3 0x461BCD PUSH1 0xE5 SHL DUP2 MSTORE PUSH1 0x20 PUSH1 0x4 DUP3 ADD MSTORE PUSH1 0x7 PUSH1 0x24 DUP3 ADD MSTORE PUSH7 0x4E6F5072696365 PUSH1 0xC8 SHL PUSH1 0x44 DUP3 ADD MSTORE PUSH1 0x64 SWAP1 REVERT JUMPDEST SWAP1 SWAP8 POP PUSH1 0x40 DUP2 RETURNDATASIZE PUSH1 0x40 GT PUSH2 0x5D7 JUMPI JUMPDEST DUP2 PUSH2 0x5C7 PUSH1 0x40 SWAP4 DUP4 PUSH2 0xCBD JUMP JUMPDEST DUP2 ADD SUB SLT PUSH2 0xD3 JUMPI MLOAD SWAP7 DUP9 PUSH2 0x20F JUMP JUMPDEST RETURNDATASIZE SWAP2 POP PUSH2 0x5BA JUMP JUMPDEST TIMESTAMP GT PUSH2 0x5EB JUMPI DUP5 PUSH2 0x1B7 JUMP JUMPDEST PUSH1 0x40 MLOAD PUSH3 0x461BCD PUSH1 0xE5 SHL DUP2 MSTORE PUSH1 0x20 PUSH1 0x4 DUP3 ADD MSTORE PUSH1 0x7 PUSH1 0x24 DUP3 ADD MSTORE PUSH7 0x115E1C1A5C9959 PUSH1 0xCA SHL PUSH1 0x44 DUP3 ADD MSTORE PUSH1 0x64 SWAP1 REVERT JUMPDEST PUSH1 0x40 MLOAD PUSH3 0x461BCD PUSH1 0xE5 SHL DUP2 MSTORE PUSH1 0x20 PUSH1 0x4 DUP3 ADD MSTORE PUSH1 0x1F PUSH1 0x24 DUP3 ADD MSTORE PUSH32 0x5265656E7472616E637947756172643A207265656E7472616E742063616C6C00 PUSH1 0x44 DUP3 ADD MSTORE PUSH1 0x64 SWAP1 REVERT JUMPDEST CALLVALUE PUSH2 0xD3 JUMPI PUSH0 CALLDATASIZE PUSH1 0x3 NOT ADD SLT PUSH2 0xD3 JUMPI PUSH1 0x20 PUSH1 0x40 MLOAD PUSH32 0x6CBA96DA9509DF9EF0FFEDE51E21A8007B7AD42802BCB8EB8E335BAEA56540C6 DUP2 MSTORE RETURN JUMPDEST CALLVALUE PUSH2 0xD3 JUMPI PUSH1 0x20 CALLDATASIZE PUSH1 0x3 NOT ADD SLT PUSH2 0xD3 JUMPI PUSH2 0x6B2 PUSH2 0xCA7 JUMP JUMPDEST PUSH2 0x6BA PUSH2 0xDB1 JUMP JUMPDEST PUSH1 0x1 PUSH1 0x1 PUSH1 0xA0 SHL SUB AND PUSH2 0x6CE DUP2 ISZERO ISZERO PUSH2 0xD16 JUMP JUMPDEST PUSH1 0x3 DUP1 SLOAD PUSH1 0x1 PUSH1 0x1 PUSH1 0xA0 SHL SUB NOT AND DUP3 OR SWAP1 SSTORE PUSH32 0x7AED1D3E8155A07CCF395E44EA3109A0E2D6C9B29BBBE9F142D9790596F4DC80 PUSH0 DUP1 LOG2 STOP JUMPDEST CALLVALUE PUSH2 0xD3 JUMPI PUSH1 0x20 CALLDATASIZE PUSH1 0x3 NOT ADD SLT PUSH2 0xD3 JUMPI PUSH1 0x4 CALLDATALOAD PUSH0 MSTORE PUSH1 0x5 PUSH1 0x20 MSTORE PUSH2 0x140 PUSH1 0x40 PUSH0 KECCAK256 PUSH1 0xFF PUSH1 0x1 DUP1 PUSH1 0xA0 SHL SUB DUP3 SLOAD AND SWAP2 PUSH1 0x1 DUP1 PUSH1 0xA0 SHL SUB PUSH1 0x1 DUP3 ADD SLOAD AND SWAP1 PUSH1 0x2 DUP2 ADD SLOAD PUSH3 0xFFFFFF PUSH1 0x3 DUP4 ADD SLOAD SWAP2 PUSH1 0x5 PUSH1 0x4 DUP6 ADD SLOAD SWAP5 ADD SLOAD SWAP5 PUSH1 0x40 MLOAD SWAP8 DUP9 MSTORE PUSH1 0x20 DUP9 ADD MSTORE PUSH1 0x1 DUP1 PUSH1 0xA0 SHL SUB DUP2 AND PUSH1 0x40 DUP9 ADD MSTORE PUSH1 0xA0 SHR AND PUSH1 0x60 DUP7 ADD MSTORE PUSH1 0x80 DUP6 ADD MSTORE PUSH1 0xA0 DUP5 ADD MSTORE DUP2 DUP2 AND ISZERO ISZERO PUSH1 0xC0 DUP5 ADD MSTORE PUSH2 0xFFFF DUP2 PUSH1 0x8 SHR AND PUSH1 0xE0 DUP5 ADD MSTORE PUSH8 0xFFFFFFFFFFFFFFFF DUP2 PUSH1 0x18 SHR AND PUSH2 0x100 DUP5 ADD MSTORE PUSH1 0x58 SHR AND ISZERO ISZERO PUSH2 0x120 DUP3 ADD MSTORE RETURN JUMPDEST CALLVALUE PUSH2 0xD3 JUMPI PUSH0 CALLDATASIZE PUSH1 0x3 NOT ADD SLT PUSH2 0xD3 JUMPI PUSH0 SLOAD PUSH1 0x40 MLOAD PUSH1 0x1 PUSH1 0x1 PUSH1 0xA0 SHL SUB SWAP1 SWAP2 AND DUP2 MSTORE PUSH1 0x20 SWAP1 RETURN JUMPDEST CALLVALUE PUSH2 0xD3 JUMPI PUSH0 CALLDATASIZE PUSH1 0x3 NOT ADD SLT PUSH2 0xD3 JUMPI PUSH1 0x2 SLOAD PUSH1 0x40 MLOAD PUSH1 0x1 PUSH1 0x1 PUSH1 0xA0 SHL SUB SWAP1 SWAP2 AND DUP2 MSTORE PUSH1 0x20 SWAP1 RETURN JUMPDEST CALLVALUE PUSH2 0xD3 JUMPI PUSH1 0x20 CALLDATASIZE PUSH1 0x3 NOT ADD SLT PUSH2 0xD3 JUMPI PUSH2 0x82A PUSH2 0xCA7 JUMP JUMPDEST PUSH2 0x832 PUSH2 0xDB1 JUMP JUMPDEST PUSH1 0x1 PUSH1 0x1 PUSH1 0xA0 SHL SUB AND PUSH2 0x846 DUP2 ISZERO ISZERO PUSH2 0xD16 JUMP JUMPDEST PUSH1 0x2 DUP1 SLOAD PUSH1 0x1 PUSH1 0x1 PUSH1 0xA0 SHL SUB NOT AND DUP3 OR SWAP1 SSTORE PUSH32 0x3DF77BEB5DB05FCDD70A30FC8ADF3F83F9501B68579455ADBD100B8180940394 PUSH0 DUP1 LOG2 STOP JUMPDEST CALLVALUE PUSH2 0xD3 JUMPI PUSH0 CALLDATASIZE PUSH1 0x3 NOT ADD SLT PUSH2 0xD3 JUMPI PUSH2 0x896 PUSH2 0xDB1 JUMP JUMPDEST PUSH0 DUP1 SLOAD PUSH1 0x1 PUSH1 0x1 PUSH1 0xA0 SHL SUB NOT DUP2 AND DUP3 SSTORE PUSH1 0x1 PUSH1 0x1 PUSH1 0xA0 SHL SUB AND PUSH32 0x8BE0079C531659141344CD1FD0A4F28419497F9722A3DAAFE3B4186F6B6457E0 DUP3 DUP1 LOG3 STOP JUMPDEST CALLVALUE PUSH2 0xD3 JUMPI PUSH1 0x20 CALLDATASIZE PUSH1 0x3 NOT ADD SLT PUSH2 0xD3 JUMPI PUSH1 0x4 CALLDATALOAD DUP1 PUSH0 MSTORE PUSH1 0x5 PUSH1 0x20 MSTORE PUSH1 0x40 PUSH0 KECCAK256 PUSH1 0x5 DUP2 ADD SWAP1 DUP2 SLOAD SWAP1 PUSH2 0x90C PUSH1 0xFF DUP4 PUSH1 0x58 SHR AND PUSH2 0xCDF JUMP JUMPDEST SLOAD PUSH1 0x1 PUSH1 0x1 PUSH1 0xA0 SHL SUB AND CALLER SUB PUSH2 0x94D JUMPI PUSH1 0xFF PUSH1 0x58 SHL NOT AND SWAP1 SSTORE CALLER SWAP1 PUSH32 0xC0362DA6F2FF36B382B34AEC0814F6B3CDF89F5EF282A1D1F114D0C0B036D596 PUSH0 DUP1 LOG3 STOP JUMPDEST PUSH1 0x40 MLOAD PUSH3 0x461BCD PUSH1 0xE5 SHL DUP2 MSTORE PUSH1 0x20 PUSH1 0x4 DUP3 ADD MSTORE PUSH1 0x8 PUSH1 0x24 DUP3 ADD MSTORE PUSH8 0x139BDD15985D5B1D PUSH1 0xC2 SHL PUSH1 0x44 DUP3 ADD MSTORE PUSH1 0x64 SWAP1 REVERT JUMPDEST CALLVALUE PUSH2 0xD3 JUMPI PUSH2 0x100 CALLDATASIZE PUSH1 0x3 NOT ADD SLT PUSH2 0xD3 JUMPI PUSH2 0x997 PUSH2 0xCA7 JUMP JUMPDEST PUSH1 0x24 CALLDATALOAD PUSH1 0x1 PUSH1 0x1 PUSH1 0xA0 SHL SUB DUP2 AND SWAP2 SWAP1 DUP3 SWAP1 SUB PUSH2 0xD3 JUMPI PUSH1 0x44 CALLDATALOAD SWAP1 PUSH3 0xFFFFFF DUP3 AND DUP1 SWAP3 SUB PUSH2 0xD3 JUMPI PUSH1 0x64 CALLDATALOAD SWAP1 PUSH1 0x84 CALLDATALOAD PUSH1 0xA4 CALLDATALOAD DUP1 ISZERO ISZERO DUP1 SWAP2 SUB PUSH2 0xD3 JUMPI PUSH1 0xC4 CALLDATALOAD SWAP2 PUSH2 0xFFFF DUP4 AND DUP1 SWAP4 SUB PUSH2 0xD3 JUMPI PUSH1 0xE4 CALLDATALOAD SWAP4 PUSH8 0xFFFFFFFFFFFFFFFF DUP6 AND DUP1 SWAP6 SUB PUSH2 0xD3 JUMPI PUSH1 0x1 PUSH1 0x1 PUSH1 0xA0 SHL SUB AND SWAP5 DUP6 ISZERO ISZERO DUP1 PUSH2 0xC84 JUMPI JUMPDEST ISZERO PUSH2 0xC53 JUMPI DUP1 ISZERO ISZERO DUP1 PUSH2 0xC4A JUMPI JUMPDEST ISZERO PUSH2 0xC19 JUMPI PUSH2 0x2710 DUP5 GT PUSH2 0xD3 JUMPI PUSH1 0x4 SLOAD PUSH0 NOT DUP2 EQ PUSH2 0xC05 JUMPI PUSH1 0x1 ADD SWAP7 DUP8 PUSH1 0x4 SSTORE PUSH1 0x40 MLOAD SWAP9 PUSH2 0x140 DUP11 ADD DUP11 DUP2 LT PUSH8 0xFFFFFFFFFFFFFFFF DUP3 GT OR PUSH2 0x4D4 JUMPI DUP10 DUP8 DUP10 PUSH1 0x5 PUSH1 0x20 SWAP15 DUP10 DUP15 DUP13 SWAP8 PUSH1 0x40 MSTORE CALLER DUP4 MSTORE PUSH1 0x20 DUP4 ADD SWAP1 DUP2 MSTORE PUSH1 0x40 DUP4 ADD DUP10 DUP2 MSTORE PUSH1 0x60 DUP5 ADD DUP12 DUP2 MSTORE PUSH1 0x80 DUP6 ADD SWAP3 DUP14 DUP5 MSTORE PUSH1 0xA0 DUP7 ADD SWAP5 DUP6 MSTORE PUSH1 0xC0 DUP7 ADD SWAP11 DUP12 MSTORE PUSH1 0xE0 DUP7 ADD SWAP9 DUP10 MSTORE PUSH2 0x100 DUP7 ADD SWAP8 DUP9 MSTORE PUSH2 0x120 DUP7 ADD SWAP10 PUSH1 0x1 DUP12 MSTORE PUSH0 MSTORE PUSH1 0x20 DUP8 SWAP1 MSTORE PUSH1 0x40 PUSH0 KECCAK256 SWAP6 PUSH1 0x1 DUP1 PUSH1 0xA0 SHL SUB SWAP1 PUSH1 0x1 DUP1 PUSH1 0xA0 SHL SUB SWAP1 MLOAD AND AND PUSH1 0x1 PUSH1 0x1 PUSH1 0x60 SHL SUB PUSH1 0xA0 SHL DUP8 SLOAD AND OR DUP7 SSTORE PUSH1 0x1 DUP1 PUSH1 0xA0 SHL SUB SWAP1 MLOAD AND PUSH1 0x1 DUP7 ADD SWAP1 PUSH1 0x1 DUP1 PUSH1 0xA0 SHL SUB AND PUSH1 0x1 PUSH1 0x1 PUSH1 0x60 SHL SUB PUSH1 0xA0 SHL DUP3 SLOAD AND OR SWAP1 SSTORE PUSH1 0x2 DUP6 ADD SWAP2 PUSH1 0x1 DUP1 PUSH1 0xA0 SHL SUB SWAP1 PUSH1 0x1 DUP1 PUSH1 0xA0 SHL SUB SWAP1 MLOAD AND AND PUSH1 0x1 PUSH1 0x1 PUSH1 0x60 SHL SUB PUSH1 0xA0 SHL DUP4 SLOAD AND OR DUP3 SSTORE MLOAD DUP2 SLOAD SWAP1 PUSH3 0xFFFFFF PUSH1 0xA0 SHL SWAP1 PUSH1 0xA0 SHL AND SWAP1 PUSH3 0xFFFFFF PUSH1 0xA0 SHL NOT AND OR SWAP1 SSTORE MLOAD PUSH1 0x3 DUP4 ADD SSTORE MLOAD PUSH1 0x4 DUP3 ADD SSTORE ADD SWAP4 MLOAD ISZERO ISZERO SWAP2 PUSH1 0xFF PUSH11 0xFFFFFFFFFFFFFFFF000000 PUSH3 0xFFFF00 DUP8 SLOAD SWAP4 MLOAD PUSH1 0x8 SHL AND SWAP4 MLOAD PUSH1 0x18 SHL AND SWAP4 AND SWAP1 PUSH11 0xFFFFFFFFFFFFFFFFFFFFFF NOT AND OR OR OR DUP3 SSTORE MLOAD ISZERO ISZERO DUP2 SLOAD SWAP1 PUSH1 0xFF PUSH1 0x58 SHL SWAP1 PUSH1 0x58 SHL AND SWAP1 PUSH1 0xFF PUSH1 0x58 SHL NOT AND OR SWAP1 SSTORE PUSH1 0x40 MLOAD SWAP8 DUP9 MSTORE DUP10 DUP9 ADD MSTORE PUSH1 0x40 DUP8 ADD MSTORE PUSH1 0x60 DUP7 ADD MSTORE PUSH1 0x80 DUP6 ADD MSTORE PUSH1 0xA0 DUP5 ADD MSTORE PUSH1 0xC0 DUP4 ADD MSTORE PUSH1 0xE0 DUP3 ADD MSTORE DUP2 PUSH32 0x41578656CA74AA2BF3922481F2C26CADA17ED004B42F3EF4EA6C8EE81AED1D9E PUSH2 0x100 CALLER SWAP4 LOG3 PUSH1 0x40 MLOAD SWAP1 DUP2 MSTORE RETURN JUMPDEST PUSH4 0x4E487B71 PUSH1 0xE0 SHL PUSH0 MSTORE PUSH1 0x11 PUSH1 0x4 MSTORE PUSH1 0x24 PUSH0 REVERT JUMPDEST PUSH1 0x40 MLOAD PUSH3 0x461BCD PUSH1 0xE5 SHL DUP2 MSTORE PUSH1 0x20 PUSH1 0x4 DUP3 ADD MSTORE PUSH1 0x9 PUSH1 0x24 DUP3 ADD MSTORE PUSH9 0x426164506172616D73 PUSH1 0xB8 SHL PUSH1 0x44 DUP3 ADD MSTORE PUSH1 0x64 SWAP1 REVERT JUMPDEST POP DUP2 ISZERO ISZERO PUSH2 0xA19 JUMP JUMPDEST PUSH1 0x40 MLOAD PUSH3 0x461BCD PUSH1 0xE5 SHL DUP2 MSTORE PUSH1 0x20 PUSH1 0x4 DUP3 ADD MSTORE PUSH1 0x9 PUSH1 0x24 DUP3 ADD MSTORE PUSH9 0x2D32B937AA37B5B2B7 PUSH1 0xB9 SHL PUSH1 0x44 DUP3 ADD MSTORE PUSH1 0x64 SWAP1 REVERT JUMPDEST POP DUP8 ISZERO ISZERO PUSH2 0xA0B JUMP JUMPDEST CALLVALUE PUSH2 0xD3 JUMPI PUSH0 CALLDATASIZE PUSH1 0x3 NOT ADD SLT PUSH2 0xD3 JUMPI PUSH1 0x20 SWAP1 PUSH1 0x4 SLOAD DUP2 MSTORE RETURN JUMPDEST PUSH1 0x4 CALLDATALOAD SWAP1 PUSH1 0x1 PUSH1 0x1 PUSH1 0xA0 SHL SUB DUP3 AND DUP3 SUB PUSH2 0xD3 JUMPI JUMP JUMPDEST SWAP1 PUSH1 0x1F DUP1 NOT SWAP2 ADD AND DUP2 ADD SWAP1 DUP2 LT PUSH8 0xFFFFFFFFFFFFFFFF DUP3 GT OR PUSH2 0x4D4 JUMPI PUSH1 0x40 MSTORE JUMP JUMPDEST ISZERO PUSH2 0xCE6 JUMPI JUMP JUMPDEST PUSH1 0x40 MLOAD PUSH3 0x461BCD PUSH1 0xE5 SHL DUP2 MSTORE PUSH1 0x20 PUSH1 0x4 DUP3 ADD MSTORE PUSH1 0x8 PUSH1 0x24 DUP3 ADD MSTORE PUSH8 0x496E616374697665 PUSH1 0xC0 SHL PUSH1 0x44 DUP3 ADD MSTORE PUSH1 0x64 SWAP1 REVERT JUMPDEST ISZERO PUSH2 0xD1D JUMPI JUMP JUMPDEST PUSH1 0x40 MLOAD PUSH3 0x461BCD PUSH1 0xE5 SHL DUP2 MSTORE PUSH1 0x20 PUSH1 0x4 DUP3 ADD MSTORE PUSH1 0x8 PUSH1 0x24 DUP3 ADD MSTORE PUSH8 0x2D32B937A0B23239 PUSH1 0xC1 SHL PUSH1 0x44 DUP3 ADD MSTORE PUSH1 0x64 SWAP1 REVERT JUMPDEST ISZERO PUSH2 0xD54 JUMPI JUMP JUMPDEST PUSH1 0x40 MLOAD PUSH3 0x461BCD PUSH1 0xE5 SHL DUP2 MSTORE PUSH1 0x20 PUSH1 0x4 DUP3 ADD MSTORE PUSH1 0xA PUSH1 0x24 DUP3 ADD MSTORE PUSH10 0x139BDD14995858DA1959 PUSH1 0xB2 SHL PUSH1 0x44 DUP3 ADD MSTORE PUSH1 0x64 SWAP1 REVERT JUMPDEST DUP2 DUP2 MUL SWAP3 SWAP2 DUP2 ISZERO SWAP2 DUP5 DIV EQ OR ISZERO PUSH2 0xC05 JUMPI JUMP JUMPDEST SWAP1 DUP2 PUSH1 0x20 SWAP2 SUB SLT PUSH2 0xD3 JUMPI MLOAD DUP1 ISZERO ISZERO DUP2 SUB PUSH2 0xD3 JUMPI SWAP1 JUMP JUMPDEST PUSH0 SLOAD PUSH1 0x1 PUSH1 0x1 PUSH1 0xA0 SHL SUB AND CALLER SUB PUSH2 0xDC4 JUMPI JUMP JUMPDEST PUSH4 0x118CDAA7 PUSH1 0xE0 SHL PUSH0 MSTORE CALLER PUSH1 0x4 MSTORE PUSH1 0x24 PUSH0 REVERT INVALID LOG2 PUSH5 0x6970667358 0x22 SLT KECCAK256 RETURNDATASIZE 0xF LOG4 0xD2 DUP8 PUSH30 0x26ABE4A741C286F446F638A6FD8F8D9426859856A5B3A5FE3AD864736F6C PUSH4 0x4300081A STOP CALLER "
		},
		"gasEstimates": {
			"creation": {
				"codeDepositCost": "719400",
				"executionCost": "infinite",
				"totalCost": "infinite"
			},
			"external": {
				"MODULE_ID()": "351",
				"cancelOrder(uint256)": "28184",
				"executeOrder(uint256,uint256)": "infinite",
				"nextOrderId()": "2248",
				"oracle()": "2390",
				"orders(uint256)": "13302",
				"owner()": "2411",
				"placeOrder(address,address,uint24,uint256,uint256,bool,uint16,uint64)": "218814",
				"renounceOwnership()": "28116",
				"router()": "2541",
				"setOracle(address)": "27889",
				"setRouter(address)": "27977",
				"transferOwnership(address)": "28412"
			}
		},
		"methodIdentifiers": {
			"MODULE_ID()": "ed2f21f5",
			"cancelOrder(uint256)": "514fcac7",
			"executeOrder(uint256,uint256)": "ef46e0ca",
			"nextOrderId()": "2a58b330",
			"oracle()": "7dc0d1d0",
			"orders(uint256)": "a85c38ef",
			"owner()": "8da5cb5b",
			"placeOrder(address,address,uint24,uint256,uint256,bool,uint16,uint64)": "3882fcd1",
			"renounceOwnership()": "715018a6",
			"router()": "f887ea40",
			"setOracle(address)": "7adbf973",
			"setRouter(address)": "c0d78655",
			"transferOwnership(address)": "f2fde38b"
		}
	},
	"abi": [
		{
			"inputs": [
				{
					"internalType": "address",
					"name": "_oracle",
					"type": "address"
				},
				{
					"internalType": "address",
					"name": "_router",
					"type": "address"
				}
			],
			"stateMutability": "nonpayable",
			"type": "constructor"
		},
		{
			"inputs": [
				{
					"internalType": "address",
					"name": "owner",
					"type": "address"
				}
			],
			"name": "OwnableInvalidOwner",
			"type": "error"
		},
		{
			"inputs": [
				{
					"internalType": "address",
					"name": "account",
					"type": "address"
				}
			],
			"name": "OwnableUnauthorizedAccount",
			"type": "error"
		},
		{
			"inputs": [
				{
					"internalType": "address",
					"name": "token",
					"type": "address"
				}
			],
			"name": "SafeERC20FailedOperation",
			"type": "error"
		},
		{
			"anonymous": false,
			"inputs": [
				{
					"indexed": true,
					"internalType": "address",
					"name": "oracle",
					"type": "address"
				}
			],
			"name": "OracleUpdated",
			"type": "event"
		},
		{
			"anonymous": false,
			"inputs": [
				{
					"indexed": true,
					"internalType": "uint256",
					"name": "id",
					"type": "uint256"
				},
				{
					"indexed": true,
					"internalType": "address",
					"name": "vault",
					"type": "address"
				}
			],
			"name": "OrderCancelled",
			"type": "event"
		},
		{
			"anonymous": false,
			"inputs": [
				{
					"indexed": true,
					"internalType": "uint256",
					"name": "id",
					"type": "uint256"
				},
				{
					"indexed": true,
					"internalType": "address",
					"name": "vault",
					"type": "address"
				},
				{
					"indexed": false,
					"internalType": "uint256",
					"name": "amountOut",
					"type": "uint256"
				}
			],
			"name": "OrderExecuted",
			"type": "event"
		},
		{
			"anonymous": false,
			"inputs": [
				{
					"indexed": true,
					"internalType": "uint256",
					"name": "id",
					"type": "uint256"
				},
				{
					"indexed": true,
					"internalType": "address",
					"name": "vault",
					"type": "address"
				},
				{
					"indexed": false,
					"internalType": "address",
					"name": "tokenIn",
					"type": "address"
				},
				{
					"indexed": false,
					"internalType": "address",
					"name": "tokenOut",
					"type": "address"
				},
				{
					"indexed": false,
					"internalType": "uint24",
					"name": "fee",
					"type": "uint24"
				},
				{
					"indexed": false,
					"internalType": "uint256",
					"name": "amountIn",
					"type": "uint256"
				},
				{
					"indexed": false,
					"internalType": "uint256",
					"name": "targetPrice1e18",
					"type": "uint256"
				},
				{
					"indexed": false,
					"internalType": "bool",
					"name": "greaterThan",
					"type": "bool"
				},
				{
					"indexed": false,
					"internalType": "uint16",
					"name": "minOutBips",
					"type": "uint16"
				},
				{
					"indexed": false,
					"internalType": "uint64",
					"name": "expiry",
					"type": "uint64"
				}
			],
			"name": "OrderPlaced",
			"type": "event"
		},
		{
			"anonymous": false,
			"inputs": [
				{
					"indexed": true,
					"internalType": "address",
					"name": "previousOwner",
					"type": "address"
				},
				{
					"indexed": true,
					"internalType": "address",
					"name": "newOwner",
					"type": "address"
				}
			],
			"name": "OwnershipTransferred",
			"type": "event"
		},
		{
			"anonymous": false,
			"inputs": [
				{
					"indexed": true,
					"internalType": "address",
					"name": "router",
					"type": "address"
				}
			],
			"name": "RouterUpdated",
			"type": "event"
		},
		{
			"inputs": [],
			"name": "MODULE_ID",
			"outputs": [
				{
					"internalType": "bytes32",
					"name": "",
					"type": "bytes32"
				}
			],
			"stateMutability": "view",
			"type": "function"
		},
		{
			"inputs": [
				{
					"internalType": "uint256",
					"name": "id",
					"type": "uint256"
				}
			],
			"name": "cancelOrder",
			"outputs": [],
			"stateMutability": "nonpayable",
			"type": "function"
		},
		{
			"inputs": [
				{
					"internalType": "uint256",
					"name": "id",
					"type": "uint256"
				},
				{
					"internalType": "uint256",
					"name": "deadline",
					"type": "uint256"
				}
			],
			"name": "executeOrder",
			"outputs": [
				{
					"internalType": "uint256",
					"name": "amountOut",
					"type": "uint256"
				}
			],
			"stateMutability": "nonpayable",
			"type": "function"
		},
		{
			"inputs": [],
			"name": "nextOrderId",
			"outputs": [
				{
					"internalType": "uint256",
					"name": "",
					"type": "uint256"
				}
			],
			"stateMutability": "view",
			"type": "function"
		},
		{
			"inputs": [],
			"name": "oracle",
			"outputs": [
				{
					"internalType": "contract IOracleManager",
					"name": "",
					"type": "address"
				}
			],
			"stateMutability": "view",
			"type": "function"
		},
		{
			"inputs": [
				{
					"internalType": "uint256",
					"name": "",
					"type": "uint256"
				}
			],
			"name": "orders",
			"outputs": [
				{
					"internalType": "address",
					"name": "vault",
					"type": "address"
				},
				{
					"internalType": "address",
					"name": "tokenIn",
					"type": "address"
				},
				{
					"internalType": "address",
					"name": "tokenOut",
					"type": "address"
				},
				{
					"internalType": "uint24",
					"name": "fee",
					"type": "uint24"
				},
				{
					"internalType": "uint256",
					"name": "amountIn",
					"type": "uint256"
				},
				{
					"internalType": "uint256",
					"name": "targetPrice1e18",
					"type": "uint256"
				},
				{
					"internalType": "bool",
					"name": "greaterThan",
					"type": "bool"
				},
				{
					"internalType": "uint16",
					"name": "minOutBips",
					"type": "uint16"
				},
				{
					"internalType": "uint64",
					"name": "expiry",
					"type": "uint64"
				},
				{
					"internalType": "bool",
					"name": "active",
					"type": "bool"
				}
			],
			"stateMutability": "view",
			"type": "function"
		},
		{
			"inputs": [],
			"name": "owner",
			"outputs": [
				{
					"internalType": "address",
					"name": "",
					"type": "address"
				}
			],
			"stateMutability": "view",
			"type": "function"
		},
		{
			"inputs": [
				{
					"internalType": "address",
					"name": "tokenIn",
					"type": "address"
				},
				{
					"internalType": "address",
					"name": "tokenOut",
					"type": "address"
				},
				{
					"internalType": "uint24",
					"name": "fee",
					"type": "uint24"
				},
				{
					"internalType": "uint256",
					"name": "amountIn",
					"type": "uint256"
				},
				{
					"internalType": "uint256",
					"name": "targetPrice1e18",
					"type": "uint256"
				},
				{
					"internalType": "bool",
					"name": "greaterThan",
					"type": "bool"
				},
				{
					"internalType": "uint16",
					"name": "minOutBips",
					"type": "uint16"
				},
				{
					"internalType": "uint64",
					"name": "expiry",
					"type": "uint64"
				}
			],
			"name": "placeOrder",
			"outputs": [
				{
					"internalType": "uint256",
					"name": "id",
					"type": "uint256"
				}
			],
			"stateMutability": "nonpayable",
			"type": "function"
		},
		{
			"inputs": [],
			"name": "renounceOwnership",
			"outputs": [],
			"stateMutability": "nonpayable",
			"type": "function"
		},
		{
			"inputs": [],
			"name": "router",
			"outputs": [
				{
					"internalType": "contract IUniswapV3Router",
					"name": "",
					"type": "address"
				}
			],
			"stateMutability": "view",
			"type": "function"
		},
		{
			"inputs": [
				{
					"internalType": "address",
					"name": "_oracle",
					"type": "address"
				}
			],
			"name": "setOracle",
			"outputs": [],
			"stateMutability": "nonpayable",
			"type": "function"
		},
		{
			"inputs": [
				{
					"internalType": "address",
					"name": "_router",
					"type": "address"
				}
			],
			"name": "setRouter",
			"outputs": [],
			"stateMutability": "nonpayable",
			"type": "function"
		},
		{
			"inputs": [
				{
					"internalType": "address",
					"name": "newOwner",
					"type": "address"
				}
			],
			"name": "transferOwnership",
			"outputs": [],
			"stateMutability": "nonpayable",
			"type": "function"
		}
	]
}