{
	"data": {
		"bytecode": {
			"linkReferences": {},
			"object": "60803461011257601f6161bc38819003918201601f19168301916001600160401b038311848410176101165780849260209460405283398101031261011257516001600160a01b03811681036101125733156100ff575f8054336001600160a01b0319821681178355916001600160a01b03909116907f8be0079c531659141344cd1fd0a4f28419497f9722a3daafe3b4186f6b6457e09080a36001805560c860089081556103e860095560038054610100600160a81b0319169290911b610100600160a81b031691909117905542600555600a80546001600160a01b031916339081179091556100ef9061012a565b50604051615fe890816101b48239f35b631e4fbdf760e01b5f525f60045260245ffd5b5f80fd5b634e487b7160e01b5f52604160045260245ffd5b6001600160a01b0381165f9081525f8051602061619c833981519152602052604090205460ff166101ae576001600160a01b03165f8181525f8051602061619c83398151915260205260408120805460ff191660011790553391907f2f8788117e7eff1d82e926ec794901d17c78024a50270940304540a733656f0d8180a4600190565b505f9056fe6080806040526004361015610012575f80fd5b5f3560e01c90816301ffc9a7146155235750806305e33dd0146154ab57806308693f3c146154665780630da183d61461544b5780631029191a1461542e57806312c413af14615413578063136d8883146153d557806315571981146153295780631cb1de2f146152985780631edb27e9146151e157806321b86dc2146151c0578063222fa2671461511f578063248a9ca3146150f457806326e127521461502357806329cf655b14613ace5780632a49b428146147db5780632f2ff15d1461479d5780632f4c007f1461466957806332617b701461462f57806333031b0614613e3157806335037e0b14613db557806336568abe14613d715780633937336e14613d095780633d9704ff14613c505780633ec7919314613b7d5780633f4ba83a14613b17578063417257f914613afa57806343425e8814613ace5780634a2021ef146139b35780634bdd45fb1461398b5780635a2db6fb1461353c5780635c975abb1461351a578063605573331461341f578063677bd9ff146131f45780636db3b4dc146131785780636eae429714612fe1578063715018a614612f8a578063755f062914612f5057806377b4a3e714612f165780637c94645414612dae5780637e50898e14612d9057806382c3188c14612d73578063835dc40b14612ce25780638456cb5914612c895780638b8840e014612c515780638da5cb5b14612c2a57806391d1485414612be1578063927fef2e14612ba857806392f012b214612b8c578063950f479714612b545780639e0ffc09146129ae578063a217fddf14612994578063a42dce8014612921578063a75dd115146128c7578063a8cc7f19146128b6578063ab44e635146127d5578063abdce1a414612759578063b1ab13ff1461271e578063b41acdbe146126e6578063b61920c114612682578063bd55022a14612665578063c07d1449146123c6578063c2454af71461232e578063c415b95c14612306578063d0b7830b146121f6578063d547741f146121b1578063d8c39bd714612164578063d911f1981461177e578063e9ca202614611443578063ec979082146104a1578063ed88123014610fb8578063eeca08f014610f9b578063f2fde38b14610f16578063f355f2e714610e51578063f98ce1ba14610533578063fc12524c146104be578063fd69f3c2146104a15763fdd3cdf614610376575f80fd5b3461049d57602036600319011261049d5761038f61558b565b5f546001600160a01b031633141580610465575b610456576001600160a01b03811690811561044757600354600881901c6001600160a01b03169183831461043857600480546001600160a01b03191684179055610100600160a81b031990911660089190911b610100600160a81b0316176003554260058190556040519081527fa16c473a31f9f07338cd1d3ccebda80cefdc0cb743aec539af892abfbf5a534e90602090a3005b63100dac0560e11b5f5260045ffd5b63c1ab6dc160e01b5f5260045ffd5b6361685c2b60e01b5f5260045ffd5b50335f9081527fac33ff75c19e70fe83507db0d683fd3465c996598dc972688b7ace676c89077b602052604090205460ff16156103a3565b5f80fd5b3461049d575f36600319011261049d576020600654604051908152f35b3461049d57602036600319011261049d576004356104da615b54565b60065481101561052457805f52600c602052600560405f2001600160ff198254161790557f0b939016779c3297135b58aed6d343cf103faf818ea07a7c5f87b03a9bd872975f80a2005b639db8d5b160e01b5f5260045ffd5b3461049d5760e036600319011261049d576004356001600160401b03811161049d576105639036906004016156d1565b6024356001600160401b03811161049d576105829036906004016156d1565b6044356001600160401b03811161049d576105a190369060040161573d565b6064356001600160401b03811161049d576105c090369060040161573d565b6084359060a435600881101561049d5760c43593600385101561049d576105e5615b7a565b6105ed615b7a565b5f546001600160a01b031633141580610e2c575b610e1d57610e1084108015610e10575b610e0157865115610df257805160028110908115610de7575b50610dd8578051835103610dc9576003546040516323b872dd60e01b8152336004820152306024820152683635c9adc5dea00000604482015290602090829060649082905f9060081c6001600160a01b03165af1908115610dbe575f91610d8f575b5015610d80576006549361069f856159c6565b600655845f52600c60205260405f209688516001600160401b038111610a5e576106c98954615866565b601f8111610d3b575b50806020601f8211600114610cd8575f91610ccd575b508160011b915f199060031b1c19161788555b805160018901916001600160401b038211610a5e5761071a8354615866565b601f8111610c88575b50602090601f8311600114610c205761075b949392915f9183610c15575b50508160011b915f199060031b1c19161790555b42615970565b6002870190815560038701805461ffff191660ff851617600888901b61ff00161790556005870180546301000000600160b81b0319163360181b6301000000600160b81b03161790554260098801558151600a8801819055683635c9adc5dea00000600689018190555f60078a0155600b8901559097908015610c0157670de0b6b3a7640000049582518015610c0157600f9098019897683635c9adc5dea0000004935f5b8451811015610b3057610813818661599a565b51868c610820848b61599a565b516040519361082e85615694565b8452602084019081528c604085015f815260608601905f82526080870192835260a08701936001855260c088019587875260e08901978852895f5260205260405f2097518051906001600160401b038211610a5e57819061088f8b54615866565b601f8111610ae0575b50602090601f8311600114610a7d575f92610a72575b50508160011b915f199060031b1c19161788555b51805160018901916001600160401b038211610a5e576108e28354615866565b601f8111610a19575b50602090601f83116001146109a7579282610952969360019d9c9b99969360079b99965f9261099c575b50505f19600383901b1c1916908d1b1790555b516002890155516003880155516004870155511515600586019060ff801983541691151516179055565b51600684015551910155885f52601060205260405f20815f5260205261099660405f20604051906109828261565e565b8c82524260208301525f60408301526159d4565b01610800565b015190505f80610915565b90601f19831691845f52815f20925f5b818110610a0157509360019d9c9b99969360079b9996938f93836109529b98106109e9575b505050811b019055610928565b01515f1960f88460031b161c191690555f80806109dc565b929360206001819287860151815501950193016109b7565b835f5260205f20601f840160051c81019160208510610a54575b601f0160051c01905b818110610a4957506108eb565b5f8155600101610a3c565b9091508190610a33565b634e487b7160e01b5f52604160045260245ffd5b015190505f806108ae565b5f8c81528281209350601f198516905b818110610ac85750908460019594939210610ab0575b505050811b0188556108c2565b01515f1960f88460031b161c191690555f8080610aa3565b92936020600181928786015181550195019301610a8d565b9091508a5f5260205f20601f840160051c81019160208510610b26575b90601f859493920160051c01905b818110610b185750610898565b5f8155849350600101610b0b565b9091508190610afd565b50869184918a610b4885610b4384615838565b615a25565b610b5585610b438561584f565b54610b6b6040519660c0885260c08801906155e6565b8681036020880152845180825260208201916020808360051b8301019701925f915b838310610bd45760208a805f80516020615f938339815191528e808e8e610bbe8f8f604086015260608501906157bb565b60808301523360a08301520390a2604051908152f35b9091929397602080610bf2600193601f198682030187528c516155e6565b9a019301930191939290610b8d565b634e487b7160e01b5f52601260045260245ffd5b015190508c80610741565b90601f19831691845f52815f20925f5b818110610c70575091600193918561075b9897969410610c58575b505050811b019055610755565b01515f1960f88460031b161c191690558c8080610c4b565b92936020600181928786015181550195019301610c30565b835f5260205f20601f840160051c81019160208510610cc3575b601f0160051c01905b818110610cb85750610723565b5f8155600101610cab565b9091508190610ca2565b90508a01518b6106e8565b5f8b81528181209250601f198416905b8d828210610d235750509083600194939210610d0b575b5050811b0188556106fb565b8c01515f1960f88460031b161c191690558b80610cff565b60018495602093958493015181550194019201610ce8565b895f5260205f20601f830160051c81019160208410610d76575b601f0160051c01905b818110610d6b57506106d2565b5f8155600101610d5e565b9091508190610d55565b6312171d8360e31b5f5260045ffd5b610db1915060203d602011610db7575b610da981836156b0565b8101906159ae565b8861068c565b503d610d9f565b6040513d5f823e3d90fd5b631fec674760e31b5f5260045ffd5b63dab5b42b60e01b5f5260045ffd5b600a9150118861062a565b630d5003f360e01b5f5260045ffd5b634d84c2e960e01b5f5260045ffd5b506301e133808411610611565b63ea8e4eb560e01b5f5260045ffd5b50335f9081525f80516020615f73833981519152602052604090205460ff1615610601565b3461049d57610e5f366157e6565b915f52600c602052600f60405f2001905f5260205260405f2060066007820154838082115f14610f0c57610e9291615a59565b915b015491670de0b6b3a7640000830292808404670de0b6b3a76400001490151715610ef857610ece610ed392670de0b6b3a764000094615990565b61597d565b046103e58102908082046103e51490151715610ef8576020906103e860405191048152f35b634e487b7160e01b5f52601160045260245ffd5b5060011c91610e94565b3461049d57602036600319011261049d57610f2f61558b565b610f37615b54565b6001600160a01b03168015610f88575f80546001600160a01b03198116831782556001600160a01b0316907f8be0079c531659141344cd1fd0a4f28419497f9722a3daafe3b4186f6b6457e09080a3005b631e4fbdf760e01b5f525f60045260245ffd5b3461049d575f36600319011261049d576020600854604051908152f35b3461049d57610fc6366157c8565b610fd1929192615e52565b610fd9615b7a565b60065484101561052457835f52600c602052600260405f20015442101561143457835f52600c60205260ff600560405f2001541661142557835f52600c602052600a60405f20015482101561141657835f52600c602052600f60405f2001825f5260205260ff600560405f20015416156114075782156113f857835f52600c60205260ff600560405f20015460101c16156113e9575f848152600c60209081526040808320858452600f810190925290912060048101549093919291909182116113da57670de0b6b3a76400006110b0868461597d565b04946127106110c16008548861597d565b04936110cd8588615970565b6003546040516323b872dd60e01b81523360048201523060248201526044810183905291929190602090829060081c6001600160a01b0316815f816064810103925af1908115610dbe575f916113bb575b5015610d8057806010600c920160018060a01b0333165f528060205260405f20865f5260205260405f205415806113ab575b61137f575b60018060a01b0333165f5260205260405f20855f5260205260405f2061117c858254615970565b90556002880161118d858254615970565b90556003880161119e8a8254615970565b9055600781016111af8a8254615970565b9055600881016111c08a8254615970565b9055016111ce868254615970565b90556111dc85600b54615970565b600b55335f52600d6020526111f660405f20918254615970565b9055335f52600d602052600460405f200161121181546159c6565b9055865f52600c602052600f60405f2001825f5260205260405f20611240826006600784015493015492615970565b670de0b6b3a7640000820291808304670de0b6b3a76400001490151715610ef8577faf7c505ee772ec188af7067e1f73db08ab028e3d564273442b907742b9c41fa0976020976112956004936112cd95615990565b9283910155895f526010885260405f20855f52885260405f2090604051926112bc8461565e565b8352428984015260408301526159d4565b6113266040516112dc81615679565b88815283878201523360408201525f60608201528460808201528260a08201524260c0820152335f52600e87526113168160405f20615a66565b885f52600f875260405f20615a66565b60075490611333826159c6565b600755604051935f85528685015260408401526060830152857f976184626638b6c7e51a4ab66b297beb1714b545ce4e867a70d622566573098c60803394a4604051908152a260018055005b61138c3360148401615b37565b335f52600d60205260405f2054611155576113a633615af2565b611155565b506113b68b33615ef6565b611150565b6113d4915060203d602011610db757610da981836156b0565b8a61111e565b63127f08c960e11b5f5260045ffd5b636864aac360e11b5f5260045ffd5b632e11316f60e11b5f5260045ffd5b63f6b715c360e01b5f5260045ffd5b632a71953160e01b5f5260045ffd5b630edca30d60e11b5f5260045ffd5b63262b753160e21b5f5260045ffd5b3461049d5760a036600319011261049d57606435604435600435602435611468615e52565b611470615b7a565b60065482101561052457815f52600c602052600260405f20015442101561143457815f52600c60205260ff600560405f200154166114255782811461176f5783156113f8575f828152600c602090815260408083203384526010018252808320848452909152902054841161176057815f52600c60205260405f2090600f820190805f528160205260405f2091855f5260205260405f2095600783019586549660078901958654986126f28502908582046126f203610ef8576115608b61155a61271061156695048092611544828c615a59565b611553600d8a01918254615970565b905561597d565b92615970565b90615990565b986084358a106117515789101561174257601090611585858454615970565b83556115928a8954615a59565b88550160018060a01b0333165f528060205260405f20855f5260205260405f206115bd858254615a59565b905560018060a01b0333165f5260205260405f20825f5260205260405f206115e6898254615970565b9055600685015490670de0b6b3a7640000820291808304670de0b6b3a76400001490151715610ef85760049161161d915490615990565b94019384556006880154670de0b6b3a7640000810290808204670de0b6b3a76400001490151715610ef8576020986116d160a096600461168361171a957fca95f9f211eceb8cf82eff4e16ae708336f056d94515a268f4b8fd1f5c08ef509b5490615990565b9301928355895f5260108c5260405f20875f528c5260405f20905490670de0b6b3a76400006116b2838961597d565b04604051926116c08461565e565b8352428e84015260408301526159d4565b875f5260108a5260405f20835f528a5260405f20905490670de0b6b3a76400006116fb838c61597d565b04604051926117098461565e565b8352428c84015260408301526159d4565b604051928352878301526040820152846060820152336080820152a260018055604051908152f35b63bb55fd2760e01b5f5260045ffd5b63bb2875c360e01b5f5260045ffd5b633999656760e01b5f5260045ffd5b6302ef184b60e31b5f5260045ffd5b61012036600319011261049d576004356001600160401b03811161049d576117aa9036906004016156d1565b6024356001600160401b03811161049d576117c99036906004016156d1565b6044356001600160401b03811161049d576117e890369060040161573d565b916064356001600160401b03811161049d5761180890369060040161573d565b6084359060a43592600884101561049d5760e4356001600160401b03811161049d576118389036906004016156d1565b956101043594611846615b7a565b341561215557611854615b7a565b5f546001600160a01b031633141580612130575b610e1d57610e1085108015612123575b610e0157825115610df257815160028110908115612118575b50610dd8578151845103610dc95768056bc75e2d631000008610612109576003546040516323b872dd60e01b81523360048201523060248201526044810188905290602090829060081c6001600160a01b0316815f816064810103925af1908115610dbe575f916120ea575b5015610d805760065494611910866159c6565b600655855f52600c60205260405f209784516001600160401b038111610a5e5761193a8a54615866565b601f81116120a5575b50806020601f8211600114612044575f91612039575b508160011b915f199060031b1c19161789555b805160018a01916001600160401b038211610a5e5761198b8354615866565b601f8111611ff4575b50602090601f8311600114611f8d576119ca949392915f9183611f825750508160011b915f199060031b1c191617905542615970565b6002880190815560038801805461ffff191660ff8416176102001790556005880180546301000000600160b81b0319163360181b6301000000600160b81b03161790554260098901558251600a8901819055600689018890555f60078a0155600b89018890559098908015610c0157611a5390670de0b6b3a76400009a999a0497845190615990565b93600f5f9a01995b8451811015611d3d57611a6e818661599a565b51868c611a7b848b61599a565b5160405193611a8985615694565b8452602084019081528c604085015f815260608601905f82526080870192835260a08701936001855260c088019587875260e08901978852895f5260205260405f2097518051906001600160401b038211610a5e578190611aea8b54615866565b601f8111611ced575b50602090601f8311600114611c8a575f92611c7f575b50508160011b915f199060031b1c19161788555b51805160018901916001600160401b038211610a5e57611b3d8354615866565b601f8111611c3a575b50602090601f8311600114611be1579282611bab969360019d9c9b99969360079b99965f9261099c5750505f19600383901b1c1916908d1b179055516002890155516003880155516004870155511515600586019060ff801983541691151516179055565b51600684015551910155885f52601060205260405f20815f52602052611bdb60405f20604051906109828261565e565b01611a5b565b90601f19831691845f52815f20925f5b818110611c2257509360019d9c9b99969360079b9996938f9383611bab9b98106109e957505050811b019055610928565b92936020600181928786015181550195019301611bf1565b835f5260205f20601f840160051c81019160208510611c75575b601f0160051c01905b818110611c6a5750611b46565b5f8155600101611c5d565b9091508190611c54565b015190505f80611b09565b5f8c81528281209350601f198516905b818110611cd55750908460019594939210611cbd575b505050811b018855611b1d565b01515f1960f88460031b161c191690555f8080611cb0565b92936020600181928786015181550195019301611c9a565b9091508a5f5260205f20601f840160051c81019160208510611d33575b90601f859493920160051c01905b818110611d255750611af3565b5f8155849350600101611d18565b9091508190611d0a565b508690848a611d4f84610b4388615838565b611d5d84610b43600261584f565b5494611d746040519360c0855260c08501906155e6565b8381036020850152825180825260208201906020808260051b8501019501915f905b828210611f5157604088018b90528989805f80516020615f938339815191528b808c611dc5606083018e6157bb565b600260808301523360a08301520390a25f818152600c60205260409020601d810180546001600160a01b0319163317905534601e82015560c435601f820155825192906021016001600160401b038411610a5e57611e238154615866565b93601f8511611f0c575b602094508085601f8211600114611eac575f91611ea1575b508160011b915f199060031b1c19161790555b817f5ecba3331a79c832c0833d5f1b33759b26d8743c93f4a1b5402053fcbe29de8460405134815260408682015280611e96339560408301906155e6565b0390a3604051908152f35b905083015186611e45565b5f8481528181209250601f198416905b818110611ef557509083600194939210611edd575b5050811b019055611e58565b8501515f1960f88460031b161c191690558680611ed1565b91928860018192868a015181550194019201611ebc565b815f5260205f20601f820160051c81019560208310611f47575b601f0160051c01945b858110611f3c5750611e2d565b5f8155600101611f2f565b9095508590611f26565b90919295602080611f71600193889e98601f199082030186528a516155e6565b980192019201909291999399611d96565b015190508d80610741565b90601f19831691845f52815f20925f5b818110611fdc57509160019391856119ca9897969410611fc457505050811b019055610755565b01515f1960f88460031b161c191690558d8080610c4b565b92936020600181928786015181550195019301611f9d565b835f5260205f20601f840160051c8101916020851061202f575b601f0160051c01905b8181106120245750611994565b5f8155600101612017565b909150819061200e565b90508601518c611959565b5f8c81528181209250601f198416905b81811061208d57509083600194939210612075575b5050811b01895561196c565b8801515f1960f88460031b161c191690558c80612069565b9192602060018192868d015181550194019201612054565b8a5f5260205f20601f830160051c810191602084106120e0575b601f0160051c01905b8181106120d55750611943565b5f81556001016120c8565b90915081906120bf565b612103915060203d602011610db757610da981836156b0565b896118fd565b63cca3833560e01b5f5260045ffd5b600a91501189611891565b506301e133808511611878565b50335f9081525f80516020615f73833981519152602052604090205460ff1615611868565b63697df94b60e11b5f5260045ffd5b3461049d57604036600319011261049d57600435600381101561049d5761218d6024359161584f565b805482101561049d576020916121a291615576565b90549060031b1c604051908152f35b3461049d57604036600319011261049d576121f46004356121d06155a1565b906121ef6121ea825f526002602052600160405f20015490565b615b95565b615e72565b005b3461049d575f36600319011261049d5761220e615e52565b600a546001600160a01b031633811415806122f2575b610e1d57600b549081156122e3575f600b81905560035460405163a9059cbb60e01b81526001600160a01b0393841660048201526024810185905292602092849260449284929160081c165af1908115610dbe575f916122c4575b5015610d8057600a546040519182526001600160a01b0316907ffc7ad544ff6a06d6499925723d25b6fe70457a42939995b1d3d6f560fe33633390602090a260018055005b6122dd915060203d602011610db757610da981836156b0565b8261227f565b630d00db4d60e31b5f5260045ffd5b505f546001600160a01b0316331415612224565b3461049d575f36600319011261049d57600a546040516001600160a01b039091168152602090f35b3461049d5761234661233f36615819565b9190615838565b805490818311156123bf57815b61235c8361593e565b93808211156123b75761236e91615a59565b5f5b8381106123895760405180612385878261560a565b0390f35b8061239f61239960019385615970565b85615576565b90549060031b1c6123b0828861599a565b5201612370565b50505f61236e565b8291612353565b3461049d576123d4366155d0565b906123dd615e52565b6123e5615b7a565b60065481101561052457805f52600c602052600260405f20015442101561143457805f52600c60205260ff600560405f2001541661142557805f52600c602052600a60405f20015482101561141657805f52600c602052600f60405f2001825f5260205260ff600560405f200154161561140757805f52600c60205260405f2060ff600382015460081c166003811015612651576001036126425760ff601a820154161561263357335f908152601b8201602081905260409091205460ff1661262457601982019182546017820154111561261557335f52601460205260405f2054926124d760188301548095615970565b6009541061260657335f90815260209384526040808220805460ff19166001179055601c8401909452929092208390558154600f9290612516906159c6565b9055335f52601460205260405f2061252f848254615970565b905561253b8433615ef6565b6125da575b60018060a01b0333165f526010810160205260405f20855f5260205260405f2061256b848254615970565b9055845f5201602052600260405f2001612586828254615970565b9055335f52600d602052600460405f20016125a181546159c6565b905560405192835260208301527fba1358e4391d1f20b35776c79553f82c2795e406eb2237bcd294702bf75bd56d60403393a360018055005b6125e73360148301615b37565b335f52600d60205260405f20546125405761260133615af2565b612540565b63b8c6679960e01b5f5260045ffd5b631d28dd2d60e01b5f5260045ffd5b6302e98e0360e31b5f5260045ffd5b636883c16d60e01b5f5260045ffd5b6348c511c960e11b5f5260045ffd5b634e487b7160e01b5f52602160045260245ffd5b3461049d575f36600319011261049d576020600754604051908152f35b3461049d57602036600319011261049d576001600160a01b036126a361558b565b165f52600d60205260a060405f20805490600181015490600281015460046003830154920154926040519485526020850152604084015260608301526080820152f35b3461049d57602036600319011261049d576001600160a01b0361270761558b565b165f526014602052602060405f2054604051908152f35b3461049d576020612751612731366155d0565b905f52600c602052600f60405f2001905f52602052600460405f20015490565b604051908152f35b3461049d57602036600319011261049d576121f461277561558b565b61277d615b54565b7fd486618b282cb35034d59c30c062b5b3822d6cdf87ec459191ce7f5b7b8a48735f5260026020527fd3dccf8d8289b9deee17e361620d7577de7b525dd57f668d5c1bb85ec53112b6546127d090615b95565b615d20565b3461049d57602036600319011261049d5760043560065481101561052457335f9081527fd3dccf8d8289b9deee17e361620d7577de7b525dd57f668d5c1bb85ec53112b5602052604090205460ff1615806128a2575b610e1d57805f52600c60205260ff600560405f20015460101c1661289357805f52600c602052600560405f20016201000062ff0000198254161790557fcd5b0c95d548cdba5f9a45b4210642d0b866a0cc878e0a863855455908c6db656020604051338152a2005b63aa43cb2d60e01b5f5260045ffd5b505f546001600160a01b031633141561282b565b3461049d5761218d61233f36615819565b3461049d576128d5366157e6565b915f52601060205260405f20905f5260205260405f20805482101561049d5760609161290091615800565b50805490600260018201549101549060405192835260208301526040820152f35b3461049d57602036600319011261049d5761293a61558b565b612942615b54565b6001600160a01b0316801561044757600a80546001600160a01b0319811683179091556001600160a01b03167f5d16ad41baeb009cd23eb8f6c7cde5c2e0cd5acf4a33926ab488875c37c37f385f80a3005b3461049d575f36600319011261049d5760206040515f8152f35b3461049d57602036600319011261049d576004356129ca615e52565b60065481101561052457805f52600c60205260405f2090601282019160018060a01b0333165f528260205260405f205415612b4557601381019260018060a01b0333165f528360205260ff60405f205416612b3657600d820154918215612b2757600b0154335f908152602092909252604090912054612a5292612a4d9161597d565b615990565b918215612b2757335f90815260209182526040808220805460ff191660011790556015909252208054612a86908490615970565b905560035460405163a9059cbb60e01b81523360048201526024810184905290602090829060081c6001600160a01b0316815f816044810103925af1908115610dbe575f91612b08575b5015610d80576040519182527fa43a50778aee751dd1829f631ad20e6e54e5b672b014ca07f028797b1fe89c9160203393a360018055005b612b21915060203d602011610db757610da981836156b0565b83612ad0565b630ea1a19b60e21b5f5260045ffd5b630c8d9eab60e31b5f5260045ffd5b63eeec57a160e01b5f5260045ffd5b3461049d57602036600319011261049d576001600160a01b03612b7561558b565b165f526015602052602060405f2054604051908152f35b3461049d575f36600319011261049d576020604051610e108152f35b3461049d57602036600319011261049d57600435612bc4615b54565b6103e88111612bd257600855005b63cd4e616760e01b5f5260045ffd5b3461049d57604036600319011261049d57612bfa6155a1565b6004355f52600260205260405f209060018060a01b03165f52602052602060ff60405f2054166040519015158152f35b3461049d575f36600319011261049d575f546040516001600160a01b039091168152602090f35b3461049d57602036600319011261049d576001600160a01b03612c7261558b565b165f526012602052602060405f2054604051908152f35b3461049d575f36600319011261049d57612ca1615b54565b612ca9615b7a565b600160ff1960035416176003557f62e78cea01bee320cd4e420270b5ea74000d11b0c9f74754ebdbfc544b05a2586020604051338152a1005b3461049d57604036600319011261049d57600435612cfe6155a1565b90600654811015610524575f52600c60205260405f2090600a82015490612d248261593e565b92601001906001600160a01b03165f5b838110612d495760405180612385878261560a565b600190825f528360205260405f20815f5260205260405f2054612d6c828861599a565b5201612d34565b3461049d575f36600319011261049d576020600b54604051908152f35b3461049d575f36600319011261049d5760206040516301e133808152f35b3461049d57612dbc366157e6565b915f52601060205260405f20905f5260205260405f208054908183115f14612f0f57815b612de983615726565b93612df760405195866156b0565b838552601f19612e0685615726565b015f5b818110612ee657505080821115612ede57612e2391615a59565b5f5b838110612e8857846040518091602082016020835281518091526020604084019201905f5b818110612e58575050500390f35b91935091602060606001926040875180518352848101518584015201516040820152019401910191849392612e4a565b80612e9e612e9860019385615970565b85615800565b50600260405191612eae8361565e565b8054835284810154602084015201546040820152612ecc828861599a565b52612ed7818761599a565b5001612e25565b50505f612e23565b602090604051612ef58161565e565b5f81525f838201525f604082015282828a01015201612e09565b8291612de0565b3461049d575f36600319011261049d5760206040517fef485be696bbc0c91ad541bbd553ffb5bd0e18dac30ba76e992dda23cb807a8a8152f35b3461049d575f36600319011261049d5760206040517fdcee1d35c83a32b436264a5c9afd68685c124f3f9097e87804c55410e67fc59a8152f35b3461049d575f36600319011261049d57612fa2615b54565b5f80546001600160a01b0319811682556001600160a01b03167f8be0079c531659141344cd1fd0a4f28419497f9722a3daafe3b4186f6b6457e08280a3005b3461049d57612fef366155d0565b90612ff8615e52565b6006548110156105245781156113f8576003546040516323b872dd60e01b81523360048201523060248201526044810184905290602090829060081c6001600160a01b0316815f816064810103925af1908115610dbe575f91613159575b5015610d8057805f52600c60205260405f2090600b8201613078848254615970565b9055335f90815260128301602081905260409091205415613147575b60018060a01b0333165f5260205260405f206130b1848254615970565b9055600a8201916130c3835485615990565b91600f5f9201915b845481101561311357806001915f5283602052600660405f20016130f0868254615970565b9055805f5283602052600760405f200161310b868254615970565b9055016130cb565b85826040519182527fc733c2813826d31c105dbff518b08258e9e7aeb3eb1c7c7f642d77696faf501d60203393a360018055005b6131543360158501615b37565b613094565b613172915060203d602011610db757610da981836156b0565b83613056565b3461049d57602036600319011261049d576121f461319461558b565b61319c615b54565b7fef485be696bbc0c91ad541bbd553ffb5bd0e18dac30ba76e992dda23cb807a8a5f5260026020527f30d995518b427f5a5863ad73fe356ca50cf70941f42c516830919c845fa58070546131ef90615b95565b615c8d565b3461049d57602036600319011261049d57600435613210615e52565b60065481101561052457805f52600c60205260405f2090600582015460ff811615908115613411575b5061340257601182019160018060a01b0333165f528260205260ff60405f205416612b3657335f908152601082016020908152604080832060048501548085529252909120549081156133f35782612a4d6132fb92600f6133019601815f52806020526132d46007600260405f200154950154835f5282602052670de0b6b3a76400006132cd600460405f2001548861597d565b0490615a59565b915f52602052670de0b6b3a76400006132f4600460405f2001548761597d565b049461597d565b90615970565b9160018060a01b0333165f5260205260405f20600160ff19825416179055335f52600d602052600160405f2001613339838254615970565b9055335f52601260205260405f20613352838254615970565b905560035460405163a9059cbb60e01b81523360048201526024810184905290602090829060081c6001600160a01b0316815f816044810103925af1908115610dbe575f916133d4575b5015610d80576040519182527f4ec90e965519d92681267467f775ada5bd214aa92c0dc93d90a5e880ce9ed02660203393a360018055005b6133ed915060203d602011610db757610da981836156b0565b8361339c565b63843f941b60e01b5f5260045ffd5b6356c5d21d60e01b5f5260045ffd5b60ff915060081c1683613239565b3461049d5761342d366155d0565b600654821015610524575f546001600160a01b0316331415806134e2575b610e1d57815f52600c60205260405f2090600282015442106134d357600582019081549160ff831661289357600a8401548210156134c45760016040938360047fc160a477581cb2155b1578581d805dcc0e6623403811fc2853465045bc0b049297015560ff19161790558151908152336020820152a2005b631387e78360e11b5f5260045ffd5b63123099e160e11b5f5260045ffd5b50335f9081527f8e2c297e756b2a427c5dc4607f639842a8ea6e0f6322302f4ea76306b642cfc2602052604090205460ff161561344b565b3461049d575f36600319011261049d57602060ff600354166040519015158152f35b3461049d5761354a366157c8565b613552615e52565b61355a615b7a565b60065484101561052457835f52600c602052600260405f20015442101561143457835f52600c60205260ff600560405f2001541661142557835f52600c602052600a60405f20015483101561141657835f52600c602052600f60405f2001835f5260205260ff600560405f20015416156114075781156113f8575f848152600c6020908152604080832033845260100182528083208684529091529020548211611760575f848152600c60209081526040808320868452600f810190925290912060048101549192821061397c57670de0b6b3a764000061363b858461597d565b049061271061364c6008548461597d565b0493600c61365a8685615a59565b9160018060a01b0333165f526010810160205260405f20895f5260205260405f20613686898254615a59565b905560028401613697898254615a59565b9055600384016136a8868254615970565b9055600881016136b9868254615970565b9055016136c7868254615970565b90556136d585600b54615970565b600b55875f52600c602052600f60405f2001875f5260205260405f206006600782015491015490878082115f146139725761370f91615a59565b905b670de0b6b3a7640000810290808204670de0b6b3a76400001490151715610ef85760049161373e91615990565b9201918255670de0b6b3a7640000613756878661597d565b04905f828203921281831281169082841390151617610ef857335f52600d602052600360405f200180545f8482019485129112908015821691151617610ef8575f9460209461388a946137f39355338752600d8652600460408820016137bc81546159c6565b90558b875260108652604087208b8852865260408720905491604051926137e28461565e565b8352428784015260408301526159d4565b61384c60405161380281615679565b8a815289858201528560408201523360608201528660808201528860a08201524260c0820152338652600e855261383c8160408820615a66565b8a8652600f855260408620615a66565b60035460405163a9059cbb60e01b815233600482015260248101929092529093849260089290921c6001600160a01b03169183919082906044820190565b03925af1908115610dbe575f91613953575b5015610d80577faf7c505ee772ec188af7067e1f73db08ab028e3d564273442b907742b9c41fa093857f976184626638b6c7e51a4ab66b297beb1714b545ce4e867a70d622566573098c60805f94602097604051818152828a82015286867f33c49da1ff633ff516cc2661d0cd94af11b7b76985b6fe549151782c14db745a60403394a46007549061392d826159c6565b600755604051923384528a84015260408301526060820152a4604051908152a260018055005b61396c915060203d602011610db757610da981836156b0565b8661389c565b5060011c90613711565b636dddf41160e11b5f5260045ffd5b3461049d575f36600319011261049d576004546040516001600160a01b039091168152602090f35b3461049d57604036600319011261049d576004356024356001600160401b03811161049d576139e69036906004016156d1565b60065482101561052457815f52600c60205260ff600560405f2001541615613abf57815f52600c60205260ff600560405f20015460081c16612b36575f828152600c602090815260408083203384526010810183528184206004909101548452909152902054613ab057613aab7ff20590b2cb9af0bb070ad77de2c0b74db291dd43666e7a386ffb0e65974b050a91835f52600c602052600560405f200161010061ff00198254161790556040519182913383526040602084015260408301906155e6565b0390a2005b635a570b3d60e01b5f5260045ffd5b63174b639360e11b5f5260045ffd5b3461049d575f36600319011261049d5760035460405160089190911c6001600160a01b03168152602090f35b3461049d575f36600319011261049d576020600954604051908152f35b3461049d575f36600319011261049d57613b2f615b54565b60035460ff811615613b6e5760ff19166003557f5db9ee0a495bf2e6ff9c91a7834c1ba4fdd244a5e8aa4e537bd38aeae4b073aa6020604051338152a1005b638dfc202b60e01b5f5260045ffd5b3461049d57602036600319011261049d57600435600654811015610524575f52600c602052613bf960405f20600281015460ff600383015416600a83015490600584015491613c17600486015492613c07613be36001613bdc8a61589e565b990161589e565b604051998a996101208b526101208b01906155e6565b9089820360208b01526155e6565b95604088015260608701906157bb565b608085015260ff828116151560a0860152600883901c16151560c085015260e084015260181c6001600160a01b03166101008301520390f35b3461049d57604036600319011261049d57600435613c6c6155a1565b600654821015610524575f918252600c602090815260408084206001600160a01b039390931684526012830182528084205460138401909252832054606093919260ff9091169083151580613cfc575b613cd6575b50604051928352151560208301526040820152f35b613cf5919250600b613cec600d8301548661597d565b91015490615990565b9084613cc1565b50600b8101541515613cbc565b3461049d57602036600319011261049d57600435600654811015610524575f52600c60205260a060405f20600681015490600781015490600c81015460ff600e600d840154930154169260405194855260208501526040840152606083015215156080820152f35b3461049d57604036600319011261049d57613d8a6155a1565b336001600160a01b03821603613da6576121f490600435615e72565b63334bd91960e11b5f5260045ffd5b3461049d57602036600319011261049d576121f4613dd161558b565b613dd9615b54565b7fdcee1d35c83a32b436264a5c9afd68685c124f3f9097e87804c55410e67fc59a5f5260026020527f8e2c297e756b2a427c5dc4607f639842a8ea6e0f6322302f4ea76306b642cfc354613e2c90615b95565b615bcf565b3461049d5761010036600319011261049d576004356001600160401b03811161049d57613e629036906004016156d1565b6024356001600160401b03811161049d57613e819036906004016156d1565b6044356001600160401b03811161049d57613ea090369060040161573d565b916064356001600160401b03811161049d57613ec090369060040161573d565b6084359060a435600881101561049d5760c43595600387101561049d5760e43594613ee9615b7a565b5f546001600160a01b03163314158061460a575b610e1d57610e10851080156145fd575b610e0157805115610df2578151600281109081156145f2575b50610dd8578151845103610dc95768056bc75e2d631000008610612109576003546040516323b872dd60e01b81523360048201523060248201526044810188905290602090829060081c6001600160a01b0316815f816064810103925af1908115610dbe575f916145d3575b5015610d805760065494613fa5866159c6565b600655855f52600c60205260405f209782516001600160401b038111610a5e57613fcf8a54615866565b601f811161458e575b50806020601f821160011461452d575f91614522575b508160011b915f199060031b1c19161789555b805160018a01916001600160401b038211610a5e576140208354615866565b601f81116144dd575b50602090601f831160011461448e5761405f949392915f9183611f825750508160011b915f199060031b1c191617905542615970565b6002880190815560038801805461ffff191660ff86161760088b901b61ff00161790556005880180546301000000600160b81b0319163360181b6301000000600160b81b03161790554260098901558251600a8901819055600689018890555f60078a0155600b89018890559098908015610c01576140ee90670de0b6b3a76400009a999a0497845190615990565b93600f5f9a01995b84518110156143d857614109818661599a565b51868c614116848b61599a565b516040519361412485615694565b8452602084019081528c604085015f815260608601905f82526080870192835260a08701936001855260c088019587875260e08901978852895f5260205260405f2097518051906001600160401b038211610a5e5781906141858b54615866565b601f8111614388575b50602090601f8311600114614325575f9261431a575b50508160011b915f199060031b1c19161788555b51805160018901916001600160401b038211610a5e576141d88354615866565b601f81116142d5575b50602090601f831160011461427c579282614246969360019d9c9b99969360079b99965f9261099c5750505f19600383901b1c1916908d1b179055516002890155516003880155516004870155511515600586019060ff801983541691151516179055565b51600684015551910155885f52601060205260405f20815f5260205261427660405f20604051906109828261565e565b016140f6565b90601f19831691845f52815f20925f5b8181106142bd57509360019d9c9b99969360079b9996938f93836142469b98106109e957505050811b019055610928565b9293602060018192878601518155019501930161428c565b835f5260205f20601f840160051c81019160208510614310575b601f0160051c01905b81811061430557506141e1565b5f81556001016142f8565b90915081906142ef565b015190505f806141a4565b5f8c81528281209350601f198516905b8181106143705750908460019594939210614358575b505050811b0188556141b8565b01515f1960f88460031b161c191690555f808061434b565b92936020600181928786015181550195019301614335565b9091508a5f5260205f20601f840160051c810191602085106143ce575b90601f859493920160051c01905b8181106143c0575061418e565b5f81558493506001016143b3565b90915081906143a5565b50869184918a6143eb85610b4384615838565b6143f885610b438561584f565b5461440e6040519660c0885260c08801906155e6565b8681036020880152845180825260208201916020808360051b8301019701925f915b8383106144615760208a805f80516020615f938339815191528e808e8e610bbe8f8f604086015260608501906157bb565b909192939760208061447f600193601f198682030187528c516155e6565b9a019301930191939290614430565b90601f19831691845f52815f20925f5b8181106144c5575091600193918561405f9897969410611fc457505050811b019055610755565b9293602060018192878601518155019501930161449e565b835f5260205f20601f840160051c81019160208510614518575b601f0160051c01905b81811061450d5750614029565b5f8155600101614500565b90915081906144f7565b90508401518c613fee565b5f8c81528181209250601f198416905b8181106145765750908360019493921061455e575b5050811b018955614001565b8601515f1960f88460031b161c191690558c80614552565b9192602060018192868b01518155019401920161453d565b8a5f5260205f20601f830160051c810191602084106145c9575b601f0160051c01905b8181106145be5750613fd8565b5f81556001016145b1565b90915081906145a8565b6145ec915060203d602011610db757610da981836156b0565b89613f92565b600a91501189613f26565b506301e133808511613f0d565b50335f9081525f80516020615f73833981519152602052604090205460ff1615613efd565b3461049d575f36600319011261049d5760206040517fd486618b282cb35034d59c30c062b5b3822d6cdf87ec459191ce7f5b7b8a48738152f35b3461049d57602036600319011261049d57600435614685615e52565b60065481101561052457805f52600c60205260405f209060058201805460018060a01b038160181c1690813303610e1d5760ff1615613abf57600e840180549460ff861661478e57600601549485156113f85760ff1916600117905560035460405163a9059cbb60e01b81526001600160a01b0392831660048201526024810186905291602091839160449183915f9160081c165af1908115610dbe575f9161476f575b5015610d80575460405192835260181c6001600160a01b0316917f84cf34bf4fd222b829afd4f81d8430050d146a50574fe8d5a5461a987d289eea90602090a360018055005b614788915060203d602011610db757610da981836156b0565b84614729565b63a4f163df60e01b5f5260045ffd5b3461049d57604036600319011261049d576121f46004356147bc6155a1565b906147d66121ea825f526002602052600160405f20015490565b615dd9565b3461049d5761012036600319011261049d576004356001600160401b03811161049d5761480c9036906004016156d1565b6024356001600160401b03811161049d5761482b9036906004016156d1565b6044356001600160401b03811161049d5761484a90369060040161573d565b6064356001600160401b03811161049d5761486990369060040161573d565b6084359060a435600881101561049d576101043593614886615b7a565b61488e615b7a565b5f546001600160a01b031633141580614ffe575b610e1d57610e1084108015614ff1575b610e0157865115610df257805160028110908115614fe6575b50610dd8578051835103610dc95768056bc75e2d631000008510612109576003546040516323b872dd60e01b81523360048201523060248201526044810187905290602090829060081c6001600160a01b0316815f816064810103925af1908115610dbe575f91614fc7575b5015610d80576006549361494a856159c6565b600655845f52600c60205260405f209688516001600160401b038111610a5e576149748954615866565b601f8111614f82575b50806020601f8211600114614f1f575f91614f14575b508160011b915f199060031b1c19161788555b805160018901916001600160401b038211610a5e576149c58354615866565b601f8111614ecf575b50602090601f8311600114614e8057614a04949392915f9183610c155750508160011b915f199060031b1c191617905542615970565b6002870190815560038701805461ffff191660ff8516176101001790556005870180546301000000600160b81b0319163360181b6301000000600160b81b03161790554260098801558151600a8801819055600688018790555f6007890155600b88018790559097908015610c0157614a8d90670de0b6b3a76400009998990496835190615990565b92600f5f9901985b8351811015614d8a57614aa8818561599a565b518a614ab4838961599a565b5160405192614ac284615694565b835260208301908152604083015f8152606084015f815260808501908d825260a08601926001845260c08701948c865260e08801968d8852895f5260205260405f2097518051906001600160401b038211610a5e578190614b238b54615866565b601f8111614d3a575b50602090601f8311600114614cd7575f92614ccc575b50508160011b915f199060031b1c19161788555b51805160018901916001600160401b038211610a5e57614b768354615866565b601f8111614c87575b50602090601f8311600114614c2e579282614be4969360019d9c9b99969360079b99965f9261099c5750505f19600383901b1c1916908d1b179055516002890155516003880155516004870155511515600586019060ff801983541691151516179055565b51600684015551910155875f52601060205260405f20815f52602052614c2860405f2060405190614c148261565e565b8b82524260208301525f60408301526159d4565b01614a95565b90601f19831691845f52815f20925f5b818110614c6f57509360019d9c9b99969360079b9996938f9383614be49b98106109e957505050811b019055610928565b92936020600181928786015181550195019301614c3e565b835f5260205f20601f840160051c81019160208510614cc2575b601f0160051c01905b818110614cb75750614b7f565b5f8155600101614caa565b9091508190614ca1565b015190505f80614b42565b5f8c81528281209350601f198516905b818110614d225750908460019594939210614d0a575b505050811b018855614b56565b01515f1960f88460031b161c191690555f8080614cfd565b92936020600181928786015181550195019301614ce7565b9091508a5f5260205f20601f840160051c81019160208510614d80575b90601f859493920160051c01905b818110614d725750614b2c565b5f8155849350600101614d65565b9091508190614d57565b5082869189614d9c84610b4384615838565b614daa84610b43600161584f565b54614dc06040519560c0875260c08701906155e6565b8581036020870152835180825260208201916020808360051b8301019601925f915b838310614e5357602089805f80516020615f938339815191528d808d614e128e8e604085015260608401906157bb565b600160808301523360a08301520390a2805f52600c8252601a60405f2060c435601782015560e435601882015501600160ff19825416179055604051908152f35b9091929396602080614e71600193601f198682030187528b516155e6565b99019301930191939290614de2565b90601f19831691845f52815f20925f5b818110614eb75750916001939185614a049897969410610c5857505050811b019055610755565b92936020600181928786015181550195019301614e90565b835f5260205f20601f840160051c81019160208510614f0a575b601f0160051c01905b818110614eff57506149ce565b5f8155600101614ef2565b9091508190614ee9565b90508a01518b614993565b5f8b81528181209250601f198416905b8d828210614f6a5750509083600194939210614f52575b5050811b0188556149a6565b8c01515f1960f88460031b161c191690558b80614f46565b60018495602093958493015181550194019201614f2f565b895f5260205f20601f830160051c81019160208410614fbd575b601f0160051c01905b818110614fb2575061497d565b5f8155600101614fa5565b9091508190614f9c565b614fe0915060203d602011610db757610da981836156b0565b88614937565b600a915011886148cb565b506301e1338084116148b2565b50335f9081525f80516020615f73833981519152602052604090205460ff16156148a2565b3461049d57602036600319011261049d57600435600654811015610524575f52600c60205260405f20600a81015461505a8161593e565b905f92600f5f9101905b8281106150d157505f5b8281106150835760405180612385868261560a565b805f5281602052600660405f20015490670de0b6b3a7640000820291808304670de0b6b3a76400001490151715610ef8576150c086600193615990565b6150ca828761599a565b520161506e565b936150ed600191865f5283602052600660405f20015490615970565b9401615064565b3461049d57602036600319011261049d5760206127516004355f526002602052600160405f20015490565b3461049d5761512d366155d0565b90600654811015610524575f52600c602052600f60405f2001905f5260205261519760405f2060028101546003820154600483015460ff600585015416916151a5615183600161517c8861589e565b970161589e565b60405197889760c0895260c08901906155e6565b9087820360208901526155e6565b93604086015260608501526080840152151560a08301520390f35b3461049d57602036600319011261049d576151d9615b54565b600435600955005b3461049d57602036600319011261049d576151fa61558b565b5f608060405161520981615643565b828152826020820152826040820152826060820152015260018060a01b03165f52600d60205260a060405f2060405161524181615643565b81549182825260018101546020830190815260028201549060408401918252608060046003850154946060870195865201549401938452604051948552516020850152516040840152516060830152516080820152f35b3461049d576152a6366155d0565b905f52600f60205260405f2090815481101561049d576152c5916155b7565b508054600182015460028301546003840154600485015460058601546006909601546040805196875260208701959095526001600160a01b039384169486019490945291166060840152608083015260a082019290925260c081019190915260e090f35b3461049d57602036600319011261049d5761534261558b565b61534a615b54565b6001600160a01b0381169081156104475760038054600480546001600160a01b031916600883811c6001600160a01b0316918217909255610100600160a81b031990921693901b610100600160a81b03169290921790554260058190556040519081527fa16c473a31f9f07338cd1d3ccebda80cefdc0cb743aec539af892abfbf5a534e90602090a3005b3461049d575f36600319011261049d576080600b5460018060a01b03600a541660065460075491604051938452602084015260408301526060820152f35b3461049d575f36600319011261049d576020604051601e8152f35b3461049d575f36600319011261049d576020600554604051908152f35b3461049d575f36600319011261049d576020604051600a8152f35b3461049d57604036600319011261049d5761547f61558b565b6001600160a01b03165f908152600e6020526040902080546024359081101561049d576152c5916155b7565b3461049d57602036600319011261049d5760043560165481101561049d5760165481101561550f5760165f527fd833147d7dc355ba459fc788f669e58cfaf9dc25ddcd0702e87d69c7b512428901546040516001600160a01b039091168152602090f35b634e487b7160e01b5f52603260045260245ffd5b3461049d57602036600319011261049d576004359063ffffffff60e01b821680920361049d57602091637965db0b60e01b8114908115615565575b5015158152f35b6301ffc9a760e01b1490508361555e565b805482101561550f575f5260205f2001905f90565b600435906001600160a01b038216820361049d57565b602435906001600160a01b038216820361049d57565b805482101561550f575f52600760205f20910201905f90565b604090600319011261049d576004359060243590565b805180835260209291819084018484015e5f828201840152601f01601f1916010190565b60206040818301928281528451809452019201905f5b81811061562d5750505090565b8251845260209384019390920191600101615620565b60a081019081106001600160401b03821117610a5e57604052565b606081019081106001600160401b03821117610a5e57604052565b60e081019081106001600160401b03821117610a5e57604052565b61010081019081106001600160401b03821117610a5e57604052565b90601f801991011681019081106001600160401b03821117610a5e57604052565b81601f8201121561049d578035906001600160401b038211610a5e5760405192615705601f8401601f1916602001856156b0565b8284526020838301011161049d57815f926020809301838601378301015290565b6001600160401b038111610a5e5760051b60200190565b9080601f8301121561049d57813561575481615726565b9261576260405194856156b0565b81845260208085019260051b8201019183831161049d5760208201905b83821061578e57505050505090565b81356001600160401b03811161049d576020916157b0878480948801016156d1565b81520191019061577f565b9060088210156126515752565b608090600319011261049d5760043590602435906044359060643590565b606090600319011261049d57600435906024359060443590565b805482101561550f575f52600360205f20910201905f90565b604090600319011261049d57600435600881101561049d579060243590565b6008811015612651575f52601160205260405f2090565b6003811015612651575f52601360205260405f2090565b90600182811c92168015615894575b602083101461588057565b634e487b7160e01b5f52602260045260245ffd5b91607f1691615875565b9060405191825f8254926158b184615866565b808452936001811690811561591c57506001146158d8575b506158d6925003836156b0565b565b90505f9291925260205f20905f915b8183106159005750509060206158d6928201015f6158c9565b60209193508060019154838589010152019101909184926158e7565b9050602092506158d694915060ff191682840152151560051b8201015f6158c9565b9061594882615726565b61595560405191826156b0565b8281528092615966601f1991615726565b0190602036910137565b91908201809211610ef857565b81810292918115918404141715610ef857565b8115610c01570490565b805182101561550f5760209160051b010190565b9081602091031261049d5751801515810361049d5790565b5f198114610ef85760010190565b8054600160401b811015610a5e576159f191600182018155615800565b919091615a1257604081600292518455602081015160018501550151910155565b634e487b7160e01b5f525f60045260245ffd5b8054600160401b811015610a5e57615a4291600182018155615576565b819291549060031b91821b915f19901b1916179055565b91908203918211610ef857565b8054600160401b811015610a5e57615a83916001820181556155b7565b919091615a1257805182556020810151600183015560408101516002830180546001600160a01b039283166001600160a01b03199182161790915560608301516003850180549190931691161790556080810151600483015560a0810151600583015560c00151600690910155565b601654600160401b811015610a5e57806001615b1392016016556016615576565b81546001600160a01b0393841660039290921b91821b9390911b1916919091179055565b8054600160401b811015610a5e57615b1391600182018155615576565b5f546001600160a01b03163303615b6757565b63118cdaa760e01b5f523360045260245ffd5b60ff60035416615b8657565b63d93c066560e01b5f5260045ffd5b5f81815260026020908152604080832033845290915290205460ff1615615bb95750565b63e2517d3f60e01b5f523360045260245260445ffd5b6001600160a01b0381165f9081527f8e2c297e756b2a427c5dc4607f639842a8ea6e0f6322302f4ea76306b642cfc2602052604090205460ff16615c88576001600160a01b03165f8181527f8e2c297e756b2a427c5dc4607f639842a8ea6e0f6322302f4ea76306b642cfc260205260408120805460ff191660011790553391907fdcee1d35c83a32b436264a5c9afd68685c124f3f9097e87804c55410e67fc59a905f80516020615f538339815191529080a4600190565b505f90565b6001600160a01b0381165f9081525f80516020615f73833981519152602052604090205460ff16615c88576001600160a01b03165f8181525f80516020615f7383398151915260205260408120805460ff191660011790553391907fef485be696bbc0c91ad541bbd553ffb5bd0e18dac30ba76e992dda23cb807a8a905f80516020615f538339815191529080a4600190565b6001600160a01b0381165f9081527fd3dccf8d8289b9deee17e361620d7577de7b525dd57f668d5c1bb85ec53112b5602052604090205460ff16615c88576001600160a01b03165f8181527fd3dccf8d8289b9deee17e361620d7577de7b525dd57f668d5c1bb85ec53112b560205260408120805460ff191660011790553391907fd486618b282cb35034d59c30c062b5b3822d6cdf87ec459191ce7f5b7b8a4873905f80516020615f538339815191529080a4600190565b5f8181526002602090815260408083206001600160a01b038616845290915290205460ff16615e4c575f8181526002602090815260408083206001600160a01b0395909516808452949091528120805460ff19166001179055339291905f80516020615f538339815191529080a4600190565b50505f90565b600260015414615e63576002600155565b633ee5aeb560e01b5f5260045ffd5b5f8181526002602090815260408083206001600160a01b038616845290915290205460ff1615615e4c575f8181526002602090815260408083206001600160a01b0395909516808452949091528120805460ff19169055339291907ff6391f5c32d9c69d2a47ea670b442974b53935d1edc7fd64eb21e047a839171b9080a4600190565b905f52600c60205260405f20905f906010600a8401549301915b838110615f205750505050600190565b60018060a01b0382165f528260205260405f20815f5260205260405f2054615f4a57600101615f10565b505050505f9056fe2f8788117e7eff1d82e926ec794901d17c78024a50270940304540a733656f0d30d995518b427f5a5863ad73fe356ca50cf70941f42c516830919c845fa5806f74bf668e97161f1fd80fcd26f349d41699f70913de17765803d0880629da0de3a264697066735822122092f91ba5594e2c0accd43f2486178d020f3cde460dda542ce42820faf1edee2c64736f6c634300081a0033ac33ff75c19e70fe83507db0d683fd3465c996598dc972688b7ace676c89077b",
			"opcodes": "PUSH1 0x80 CALLVALUE PUSH2 0x112 JUMPI PUSH1 0x1F PUSH2 0x61BC CODESIZE DUP2 SWAP1 SUB SWAP2 DUP3 ADD PUSH1 0x1F NOT AND DUP4 ADD SWAP2 PUSH1 0x1 PUSH1 0x1 PUSH1 0x40 SHL SUB DUP4 GT DUP5 DUP5 LT OR PUSH2 0x116 JUMPI DUP1 DUP5 SWAP3 PUSH1 0x20 SWAP5 PUSH1 0x40 MSTORE DUP4 CODECOPY DUP2 ADD SUB SLT PUSH2 0x112 JUMPI MLOAD PUSH1 0x1 PUSH1 0x1 PUSH1 0xA0 SHL SUB DUP2 AND DUP2 SUB PUSH2 0x112 JUMPI CALLER ISZERO PUSH2 0xFF JUMPI PUSH0 DUP1 SLOAD CALLER PUSH1 0x1 PUSH1 0x1 PUSH1 0xA0 SHL SUB NOT DUP3 AND DUP2 OR DUP4 SSTORE SWAP2 PUSH1 0x1 PUSH1 0x1 PUSH1 0xA0 SHL SUB SWAP1 SWAP2 AND SWAP1 PUSH32 0x8BE0079C531659141344CD1FD0A4F28419497F9722A3DAAFE3B4186F6B6457E0 SWAP1 DUP1 LOG3 PUSH1 0x1 DUP1 SSTORE PUSH1 0xC8 PUSH1 0x8 SWAP1 DUP2 SSTORE PUSH2 0x3E8 PUSH1 0x9 SSTORE PUSH1 0x3 DUP1 SLOAD PUSH2 0x100 PUSH1 0x1 PUSH1 0xA8 SHL SUB NOT AND SWAP3 SWAP1 SWAP2 SHL PUSH2 0x100 PUSH1 0x1 PUSH1 0xA8 SHL SUB AND SWAP2 SWAP1 SWAP2 OR SWAP1 SSTORE TIMESTAMP PUSH1 0x5 SSTORE PUSH1 0xA DUP1 SLOAD PUSH1 0x1 PUSH1 0x1 PUSH1 0xA0 SHL SUB NOT AND CALLER SWAP1 DUP2 OR SWAP1 SWAP2 SSTORE PUSH2 0xEF SWAP1 PUSH2 0x12A JUMP JUMPDEST POP PUSH1 0x40 MLOAD PUSH2 0x5FE8 SWAP1 DUP2 PUSH2 0x1B4 DUP3 CODECOPY RETURN JUMPDEST PUSH4 0x1E4FBDF7 PUSH1 0xE0 SHL PUSH0 MSTORE PUSH0 PUSH1 0x4 MSTORE PUSH1 0x24 PUSH0 REVERT JUMPDEST PUSH0 DUP1 REVERT JUMPDEST PUSH4 0x4E487B71 PUSH1 0xE0 SHL PUSH0 MSTORE PUSH1 0x41 PUSH1 0x4 MSTORE PUSH1 0x24 PUSH0 REVERT JUMPDEST PUSH1 0x1 PUSH1 0x1 PUSH1 0xA0 SHL SUB DUP2 AND PUSH0 SWAP1 DUP2 MSTORE PUSH0 DUP1 MLOAD PUSH1 0x20 PUSH2 0x619C DUP4 CODECOPY DUP2 MLOAD SWAP2 MSTORE PUSH1 0x20 MSTORE PUSH1 0x40 SWAP1 KECCAK256 SLOAD PUSH1 0xFF AND PUSH2 0x1AE JUMPI PUSH1 0x1 PUSH1 0x1 PUSH1 0xA0 SHL SUB AND PUSH0 DUP2 DUP2 MSTORE PUSH0 DUP1 MLOAD PUSH1 0x20 PUSH2 0x619C DUP4 CODECOPY DUP2 MLOAD SWAP2 MSTORE PUSH1 0x20 MSTORE PUSH1 0x40 DUP2 KECCAK256 DUP1 SLOAD PUSH1 0xFF NOT AND PUSH1 0x1 OR SWAP1 SSTORE CALLER SWAP2 SWAP1 PUSH32 0x2F8788117E7EFF1D82E926EC794901D17C78024A50270940304540A733656F0D DUP2 DUP1 LOG4 PUSH1 0x1 SWAP1 JUMP JUMPDEST POP PUSH0 SWAP1 JUMP INVALID PUSH1 0x80 DUP1 PUSH1 0x40 MSTORE PUSH1 0x4 CALLDATASIZE LT ISZERO PUSH2 0x12 JUMPI PUSH0 DUP1 REVERT JUMPDEST PUSH0 CALLDATALOAD PUSH1 0xE0 SHR SWAP1 DUP2 PUSH4 0x1FFC9A7 EQ PUSH2 0x5523 JUMPI POP DUP1 PUSH4 0x5E33DD0 EQ PUSH2 0x54AB JUMPI DUP1 PUSH4 0x8693F3C EQ PUSH2 0x5466 JUMPI DUP1 PUSH4 0xDA183D6 EQ PUSH2 0x544B JUMPI DUP1 PUSH4 0x1029191A EQ PUSH2 0x542E JUMPI DUP1 PUSH4 0x12C413AF EQ PUSH2 0x5413 JUMPI DUP1 PUSH4 0x136D8883 EQ PUSH2 0x53D5 JUMPI DUP1 PUSH4 0x15571981 EQ PUSH2 0x5329 JUMPI DUP1 PUSH4 0x1CB1DE2F EQ PUSH2 0x5298 JUMPI DUP1 PUSH4 0x1EDB27E9 EQ PUSH2 0x51E1 JUMPI DUP1 PUSH4 0x21B86DC2 EQ PUSH2 0x51C0 JUMPI DUP1 PUSH4 0x222FA267 EQ PUSH2 0x511F JUMPI DUP1 PUSH4 0x248A9CA3 EQ PUSH2 0x50F4 JUMPI DUP1 PUSH4 0x26E12752 EQ PUSH2 0x5023 JUMPI DUP1 PUSH4 0x29CF655B EQ PUSH2 0x3ACE JUMPI DUP1 PUSH4 0x2A49B428 EQ PUSH2 0x47DB JUMPI DUP1 PUSH4 0x2F2FF15D EQ PUSH2 0x479D JUMPI DUP1 PUSH4 0x2F4C007F EQ PUSH2 0x4669 JUMPI DUP1 PUSH4 0x32617B70 EQ PUSH2 0x462F JUMPI DUP1 PUSH4 0x33031B06 EQ PUSH2 0x3E31 JUMPI DUP1 PUSH4 0x35037E0B EQ PUSH2 0x3DB5 JUMPI DUP1 PUSH4 0x36568ABE EQ PUSH2 0x3D71 JUMPI DUP1 PUSH4 0x3937336E EQ PUSH2 0x3D09 JUMPI DUP1 PUSH4 0x3D9704FF EQ PUSH2 0x3C50 JUMPI DUP1 PUSH4 0x3EC79193 EQ PUSH2 0x3B7D JUMPI DUP1 PUSH4 0x3F4BA83A EQ PUSH2 0x3B17 JUMPI DUP1 PUSH4 0x417257F9 EQ PUSH2 0x3AFA JUMPI DUP1 PUSH4 0x43425E88 EQ PUSH2 0x3ACE JUMPI DUP1 PUSH4 0x4A2021EF EQ PUSH2 0x39B3 JUMPI DUP1 PUSH4 0x4BDD45FB EQ PUSH2 0x398B JUMPI DUP1 PUSH4 0x5A2DB6FB EQ PUSH2 0x353C JUMPI DUP1 PUSH4 0x5C975ABB EQ PUSH2 0x351A JUMPI DUP1 PUSH4 0x60557333 EQ PUSH2 0x341F JUMPI DUP1 PUSH4 0x677BD9FF EQ PUSH2 0x31F4 JUMPI DUP1 PUSH4 0x6DB3B4DC EQ PUSH2 0x3178 JUMPI DUP1 PUSH4 0x6EAE4297 EQ PUSH2 0x2FE1 JUMPI DUP1 PUSH4 0x715018A6 EQ PUSH2 0x2F8A JUMPI DUP1 PUSH4 0x755F0629 EQ PUSH2 0x2F50 JUMPI DUP1 PUSH4 0x77B4A3E7 EQ PUSH2 0x2F16 JUMPI DUP1 PUSH4 0x7C946454 EQ PUSH2 0x2DAE JUMPI DUP1 PUSH4 0x7E50898E EQ PUSH2 0x2D90 JUMPI DUP1 PUSH4 0x82C3188C EQ PUSH2 0x2D73 JUMPI DUP1 PUSH4 0x835DC40B EQ PUSH2 0x2CE2 JUMPI DUP1 PUSH4 0x8456CB59 EQ PUSH2 0x2C89 JUMPI DUP1 PUSH4 0x8B8840E0 EQ PUSH2 0x2C51 JUMPI DUP1 PUSH4 0x8DA5CB5B EQ PUSH2 0x2C2A JUMPI DUP1 PUSH4 0x91D14854 EQ PUSH2 0x2BE1 JUMPI DUP1 PUSH4 0x927FEF2E EQ PUSH2 0x2BA8 JUMPI DUP1 PUSH4 0x92F012B2 EQ PUSH2 0x2B8C JUMPI DUP1 PUSH4 0x950F4797 EQ PUSH2 0x2B54 JUMPI DUP1 PUSH4 0x9E0FFC09 EQ PUSH2 0x29AE JUMPI DUP1 PUSH4 0xA217FDDF EQ PUSH2 0x2994 JUMPI DUP1 PUSH4 0xA42DCE80 EQ PUSH2 0x2921 JUMPI DUP1 PUSH4 0xA75DD115 EQ PUSH2 0x28C7 JUMPI DUP1 PUSH4 0xA8CC7F19 EQ PUSH2 0x28B6 JUMPI DUP1 PUSH4 0xAB44E635 EQ PUSH2 0x27D5 JUMPI DUP1 PUSH4 0xABDCE1A4 EQ PUSH2 0x2759 JUMPI DUP1 PUSH4 0xB1AB13FF EQ PUSH2 0x271E JUMPI DUP1 PUSH4 0xB41ACDBE EQ PUSH2 0x26E6 JUMPI DUP1 PUSH4 0xB61920C1 EQ PUSH2 0x2682 JUMPI DUP1 PUSH4 0xBD55022A EQ PUSH2 0x2665 JUMPI DUP1 PUSH4 0xC07D1449 EQ PUSH2 0x23C6 JUMPI DUP1 PUSH4 0xC2454AF7 EQ PUSH2 0x232E JUMPI DUP1 PUSH4 0xC415B95C EQ PUSH2 0x2306 JUMPI DUP1 PUSH4 0xD0B7830B EQ PUSH2 0x21F6 JUMPI DUP1 PUSH4 0xD547741F EQ PUSH2 0x21B1 JUMPI DUP1 PUSH4 0xD8C39BD7 EQ PUSH2 0x2164 JUMPI DUP1 PUSH4 0xD911F198 EQ PUSH2 0x177E JUMPI DUP1 PUSH4 0xE9CA2026 EQ PUSH2 0x1443 JUMPI DUP1 PUSH4 0xEC979082 EQ PUSH2 0x4A1 JUMPI DUP1 PUSH4 0xED881230 EQ PUSH2 0xFB8 JUMPI DUP1 PUSH4 0xEECA08F0 EQ PUSH2 0xF9B JUMPI DUP1 PUSH4 0xF2FDE38B EQ PUSH2 0xF16 JUMPI DUP1 PUSH4 0xF355F2E7 EQ PUSH2 0xE51 JUMPI DUP1 PUSH4 0xF98CE1BA EQ PUSH2 0x533 JUMPI DUP1 PUSH4 0xFC12524C EQ PUSH2 0x4BE JUMPI DUP1 PUSH4 0xFD69F3C2 EQ PUSH2 0x4A1 JUMPI PUSH4 0xFDD3CDF6 EQ PUSH2 0x376 JUMPI PUSH0 DUP1 REVERT JUMPDEST CALLVALUE PUSH2 0x49D JUMPI PUSH1 0x20 CALLDATASIZE PUSH1 0x3 NOT ADD SLT PUSH2 0x49D JUMPI PUSH2 0x38F PUSH2 0x558B JUMP JUMPDEST PUSH0 SLOAD PUSH1 0x1 PUSH1 0x1 PUSH1 0xA0 SHL SUB AND CALLER EQ ISZERO DUP1 PUSH2 0x465 JUMPI JUMPDEST PUSH2 0x456 JUMPI PUSH1 0x1 PUSH1 0x1 PUSH1 0xA0 SHL SUB DUP2 AND SWAP1 DUP2 ISZERO PUSH2 0x447 JUMPI PUSH1 0x3 SLOAD PUSH1 0x8 DUP2 SWAP1 SHR PUSH1 0x1 PUSH1 0x1 PUSH1 0xA0 SHL SUB AND SWAP2 DUP4 DUP4 EQ PUSH2 0x438 JUMPI PUSH1 0x4 DUP1 SLOAD PUSH1 0x1 PUSH1 0x1 PUSH1 0xA0 SHL SUB NOT AND DUP5 OR SWAP1 SSTORE PUSH2 0x100 PUSH1 0x1 PUSH1 0xA8 SHL SUB NOT SWAP1 SWAP2 AND PUSH1 0x8 SWAP2 SWAP1 SWAP2 SHL PUSH2 0x100 PUSH1 0x1 PUSH1 0xA8 SHL SUB AND OR PUSH1 0x3 SSTORE TIMESTAMP PUSH1 0x5 DUP2 SWAP1 SSTORE PUSH1 0x40 MLOAD SWAP1 DUP2 MSTORE PUSH32 0xA16C473A31F9F07338CD1D3CCEBDA80CEFDC0CB743AEC539AF892ABFBF5A534E SWAP1 PUSH1 0x20 SWAP1 LOG3 STOP JUMPDEST PUSH4 0x100DAC05 PUSH1 0xE1 SHL PUSH0 MSTORE PUSH1 0x4 PUSH0 REVERT JUMPDEST PUSH4 0xC1AB6DC1 PUSH1 0xE0 SHL PUSH0 MSTORE PUSH1 0x4 PUSH0 REVERT JUMPDEST PUSH4 0x61685C2B PUSH1 0xE0 SHL PUSH0 MSTORE PUSH1 0x4 PUSH0 REVERT JUMPDEST POP CALLER PUSH0 SWAP1 DUP2 MSTORE PUSH32 0xAC33FF75C19E70FE83507DB0D683FD3465C996598DC972688B7ACE676C89077B PUSH1 0x20 MSTORE PUSH1 0x40 SWAP1 KECCAK256 SLOAD PUSH1 0xFF AND ISZERO PUSH2 0x3A3 JUMP JUMPDEST PUSH0 DUP1 REVERT JUMPDEST CALLVALUE PUSH2 0x49D JUMPI PUSH0 CALLDATASIZE PUSH1 0x3 NOT ADD SLT PUSH2 0x49D JUMPI PUSH1 0x20 PUSH1 0x6 SLOAD PUSH1 0x40 MLOAD SWAP1 DUP2 MSTORE RETURN JUMPDEST CALLVALUE PUSH2 0x49D JUMPI PUSH1 0x20 CALLDATASIZE PUSH1 0x3 NOT ADD SLT PUSH2 0x49D JUMPI PUSH1 0x4 CALLDATALOAD PUSH2 0x4DA PUSH2 0x5B54 JUMP JUMPDEST PUSH1 0x6 SLOAD DUP2 LT ISZERO PUSH2 0x524 JUMPI DUP1 PUSH0 MSTORE PUSH1 0xC PUSH1 0x20 MSTORE PUSH1 0x5 PUSH1 0x40 PUSH0 KECCAK256 ADD PUSH1 0x1 PUSH1 0xFF NOT DUP3 SLOAD AND OR SWAP1 SSTORE PUSH32 0xB939016779C3297135B58AED6D343CF103FAF818EA07A7C5F87B03A9BD87297 PUSH0 DUP1 LOG2 STOP JUMPDEST PUSH4 0x9DB8D5B1 PUSH1 0xE0 SHL PUSH0 MSTORE PUSH1 0x4 PUSH0 REVERT JUMPDEST CALLVALUE PUSH2 0x49D JUMPI PUSH1 0xE0 CALLDATASIZE PUSH1 0x3 NOT ADD SLT PUSH2 0x49D JUMPI PUSH1 0x4 CALLDATALOAD PUSH1 0x1 PUSH1 0x1 PUSH1 0x40 SHL SUB DUP2 GT PUSH2 0x49D JUMPI PUSH2 0x563 SWAP1 CALLDATASIZE SWAP1 PUSH1 0x4 ADD PUSH2 0x56D1 JUMP JUMPDEST PUSH1 0x24 CALLDATALOAD PUSH1 0x1 PUSH1 0x1 PUSH1 0x40 SHL SUB DUP2 GT PUSH2 0x49D JUMPI PUSH2 0x582 SWAP1 CALLDATASIZE SWAP1 PUSH1 0x4 ADD PUSH2 0x56D1 JUMP JUMPDEST PUSH1 0x44 CALLDATALOAD PUSH1 0x1 PUSH1 0x1 PUSH1 0x40 SHL SUB DUP2 GT PUSH2 0x49D JUMPI PUSH2 0x5A1 SWAP1 CALLDATASIZE SWAP1 PUSH1 0x4 ADD PUSH2 0x573D JUMP JUMPDEST PUSH1 0x64 CALLDATALOAD PUSH1 0x1 PUSH1 0x1 PUSH1 0x40 SHL SUB DUP2 GT PUSH2 0x49D JUMPI PUSH2 0x5C0 SWAP1 CALLDATASIZE SWAP1 PUSH1 0x4 ADD PUSH2 0x573D JUMP JUMPDEST PUSH1 0x84 CALLDATALOAD SWAP1 PUSH1 0xA4 CALLDATALOAD PUSH1 0x8 DUP2 LT ISZERO PUSH2 0x49D JUMPI PUSH1 0xC4 CALLDATALOAD SWAP4 PUSH1 0x3 DUP6 LT ISZERO PUSH2 0x49D JUMPI PUSH2 0x5E5 PUSH2 0x5B7A JUMP JUMPDEST PUSH2 0x5ED PUSH2 0x5B7A JUMP JUMPDEST PUSH0 SLOAD PUSH1 0x1 PUSH1 0x1 PUSH1 0xA0 SHL SUB AND CALLER EQ ISZERO DUP1 PUSH2 0xE2C JUMPI JUMPDEST PUSH2 0xE1D JUMPI PUSH2 0xE10 DUP5 LT DUP1 ISZERO PUSH2 0xE10 JUMPI JUMPDEST PUSH2 0xE01 JUMPI DUP7 MLOAD ISZERO PUSH2 0xDF2 JUMPI DUP1 MLOAD PUSH1 0x2 DUP2 LT SWAP1 DUP2 ISZERO PUSH2 0xDE7 JUMPI JUMPDEST POP PUSH2 0xDD8 JUMPI DUP1 MLOAD DUP4 MLOAD SUB PUSH2 0xDC9 JUMPI PUSH1 0x3 SLOAD PUSH1 0x40 MLOAD PUSH4 0x23B872DD PUSH1 0xE0 SHL DUP2 MSTORE CALLER PUSH1 0x4 DUP3 ADD MSTORE ADDRESS PUSH1 0x24 DUP3 ADD MSTORE PUSH9 0x3635C9ADC5DEA00000 PUSH1 0x44 DUP3 ADD MSTORE SWAP1 PUSH1 0x20 SWAP1 DUP3 SWAP1 PUSH1 0x64 SWAP1 DUP3 SWAP1 PUSH0 SWAP1 PUSH1 0x8 SHR PUSH1 0x1 PUSH1 0x1 PUSH1 0xA0 SHL SUB AND GAS CALL SWAP1 DUP2 ISZERO PUSH2 0xDBE JUMPI PUSH0 SWAP2 PUSH2 0xD8F JUMPI JUMPDEST POP ISZERO PUSH2 0xD80 JUMPI PUSH1 0x6 SLOAD SWAP4 PUSH2 0x69F DUP6 PUSH2 0x59C6 JUMP JUMPDEST PUSH1 0x6 SSTORE DUP5 PUSH0 MSTORE PUSH1 0xC PUSH1 0x20 MSTORE PUSH1 0x40 PUSH0 KECCAK256 SWAP7 DUP9 MLOAD PUSH1 0x1 PUSH1 0x1 PUSH1 0x40 SHL SUB DUP2 GT PUSH2 0xA5E JUMPI PUSH2 0x6C9 DUP10 SLOAD PUSH2 0x5866 JUMP JUMPDEST PUSH1 0x1F DUP2 GT PUSH2 0xD3B JUMPI JUMPDEST POP DUP1 PUSH1 0x20 PUSH1 0x1F DUP3 GT PUSH1 0x1 EQ PUSH2 0xCD8 JUMPI PUSH0 SWAP2 PUSH2 0xCCD JUMPI JUMPDEST POP DUP2 PUSH1 0x1 SHL SWAP2 PUSH0 NOT SWAP1 PUSH1 0x3 SHL SHR NOT AND OR DUP9 SSTORE JUMPDEST DUP1 MLOAD PUSH1 0x1 DUP10 ADD SWAP2 PUSH1 0x1 PUSH1 0x1 PUSH1 0x40 SHL SUB DUP3 GT PUSH2 0xA5E JUMPI PUSH2 0x71A DUP4 SLOAD PUSH2 0x5866 JUMP JUMPDEST PUSH1 0x1F DUP2 GT PUSH2 0xC88 JUMPI JUMPDEST POP PUSH1 0x20 SWAP1 PUSH1 0x1F DUP4 GT PUSH1 0x1 EQ PUSH2 0xC20 JUMPI PUSH2 0x75B SWAP5 SWAP4 SWAP3 SWAP2 PUSH0 SWAP2 DUP4 PUSH2 0xC15 JUMPI JUMPDEST POP POP DUP2 PUSH1 0x1 SHL SWAP2 PUSH0 NOT SWAP1 PUSH1 0x3 SHL SHR NOT AND OR SWAP1 SSTORE JUMPDEST TIMESTAMP PUSH2 0x5970 JUMP JUMPDEST PUSH1 0x2 DUP8 ADD SWAP1 DUP2 SSTORE PUSH1 0x3 DUP8 ADD DUP1 SLOAD PUSH2 0xFFFF NOT AND PUSH1 0xFF DUP6 AND OR PUSH1 0x8 DUP9 SWAP1 SHL PUSH2 0xFF00 AND OR SWAP1 SSTORE PUSH1 0x5 DUP8 ADD DUP1 SLOAD PUSH4 0x1000000 PUSH1 0x1 PUSH1 0xB8 SHL SUB NOT AND CALLER PUSH1 0x18 SHL PUSH4 0x1000000 PUSH1 0x1 PUSH1 0xB8 SHL SUB AND OR SWAP1 SSTORE TIMESTAMP PUSH1 0x9 DUP9 ADD SSTORE DUP2 MLOAD PUSH1 0xA DUP9 ADD DUP2 SWAP1 SSTORE PUSH9 0x3635C9ADC5DEA00000 PUSH1 0x6 DUP10 ADD DUP2 SWAP1 SSTORE PUSH0 PUSH1 0x7 DUP11 ADD SSTORE PUSH1 0xB DUP10 ADD SSTORE SWAP1 SWAP8 SWAP1 DUP1 ISZERO PUSH2 0xC01 JUMPI PUSH8 0xDE0B6B3A7640000 DIV SWAP6 DUP3 MLOAD DUP1 ISZERO PUSH2 0xC01 JUMPI PUSH1 0xF SWAP1 SWAP9 ADD SWAP9 SWAP8 PUSH9 0x3635C9ADC5DEA00000 DIV SWAP4 PUSH0 JUMPDEST DUP5 MLOAD DUP2 LT ISZERO PUSH2 0xB30 JUMPI PUSH2 0x813 DUP2 DUP7 PUSH2 0x599A JUMP JUMPDEST MLOAD DUP7 DUP13 PUSH2 0x820 DUP5 DUP12 PUSH2 0x599A JUMP JUMPDEST MLOAD PUSH1 0x40 MLOAD SWAP4 PUSH2 0x82E DUP6 PUSH2 0x5694 JUMP JUMPDEST DUP5 MSTORE PUSH1 0x20 DUP5 ADD SWAP1 DUP2 MSTORE DUP13 PUSH1 0x40 DUP6 ADD PUSH0 DUP2 MSTORE PUSH1 0x60 DUP7 ADD SWAP1 PUSH0 DUP3 MSTORE PUSH1 0x80 DUP8 ADD SWAP3 DUP4 MSTORE PUSH1 0xA0 DUP8 ADD SWAP4 PUSH1 0x1 DUP6 MSTORE PUSH1 0xC0 DUP9 ADD SWAP6 DUP8 DUP8 MSTORE PUSH1 0xE0 DUP10 ADD SWAP8 DUP9 MSTORE DUP10 PUSH0 MSTORE PUSH1 0x20 MSTORE PUSH1 0x40 PUSH0 KECCAK256 SWAP8 MLOAD DUP1 MLOAD SWAP1 PUSH1 0x1 PUSH1 0x1 PUSH1 0x40 SHL SUB DUP3 GT PUSH2 0xA5E JUMPI DUP2 SWAP1 PUSH2 0x88F DUP12 SLOAD PUSH2 0x5866 JUMP JUMPDEST PUSH1 0x1F DUP2 GT PUSH2 0xAE0 JUMPI JUMPDEST POP PUSH1 0x20 SWAP1 PUSH1 0x1F DUP4 GT PUSH1 0x1 EQ PUSH2 0xA7D JUMPI PUSH0 SWAP3 PUSH2 0xA72 JUMPI JUMPDEST POP POP DUP2 PUSH1 0x1 SHL SWAP2 PUSH0 NOT SWAP1 PUSH1 0x3 SHL SHR NOT AND OR DUP9 SSTORE JUMPDEST MLOAD DUP1 MLOAD PUSH1 0x1 DUP10 ADD SWAP2 PUSH1 0x1 PUSH1 0x1 PUSH1 0x40 SHL SUB DUP3 GT PUSH2 0xA5E JUMPI PUSH2 0x8E2 DUP4 SLOAD PUSH2 0x5866 JUMP JUMPDEST PUSH1 0x1F DUP2 GT PUSH2 0xA19 JUMPI JUMPDEST POP PUSH1 0x20 SWAP1 PUSH1 0x1F DUP4 GT PUSH1 0x1 EQ PUSH2 0x9A7 JUMPI SWAP3 DUP3 PUSH2 0x952 SWAP7 SWAP4 PUSH1 0x1 SWAP14 SWAP13 SWAP12 SWAP10 SWAP7 SWAP4 PUSH1 0x7 SWAP12 SWAP10 SWAP7 PUSH0 SWAP3 PUSH2 0x99C JUMPI JUMPDEST POP POP PUSH0 NOT PUSH1 0x3 DUP4 SWAP1 SHL SHR NOT AND SWAP1 DUP14 SHL OR SWAP1 SSTORE JUMPDEST MLOAD PUSH1 0x2 DUP10 ADD SSTORE MLOAD PUSH1 0x3 DUP9 ADD SSTORE MLOAD PUSH1 0x4 DUP8 ADD SSTORE MLOAD ISZERO ISZERO PUSH1 0x5 DUP7 ADD SWAP1 PUSH1 0xFF DUP1 NOT DUP4 SLOAD AND SWAP2 ISZERO ISZERO AND OR SWAP1 SSTORE JUMP JUMPDEST MLOAD PUSH1 0x6 DUP5 ADD SSTORE MLOAD SWAP2 ADD SSTORE DUP9 PUSH0 MSTORE PUSH1 0x10 PUSH1 0x20 MSTORE PUSH1 0x40 PUSH0 KECCAK256 DUP2 PUSH0 MSTORE PUSH1 0x20 MSTORE PUSH2 0x996 PUSH1 0x40 PUSH0 KECCAK256 PUSH1 0x40 MLOAD SWAP1 PUSH2 0x982 DUP3 PUSH2 0x565E JUMP JUMPDEST DUP13 DUP3 MSTORE TIMESTAMP PUSH1 0x20 DUP4 ADD MSTORE PUSH0 PUSH1 0x40 DUP4 ADD MSTORE PUSH2 0x59D4 JUMP JUMPDEST ADD PUSH2 0x800 JUMP JUMPDEST ADD MLOAD SWAP1 POP PUSH0 DUP1 PUSH2 0x915 JUMP JUMPDEST SWAP1 PUSH1 0x1F NOT DUP4 AND SWAP2 DUP5 PUSH0 MSTORE DUP2 PUSH0 KECCAK256 SWAP3 PUSH0 JUMPDEST DUP2 DUP2 LT PUSH2 0xA01 JUMPI POP SWAP4 PUSH1 0x1 SWAP14 SWAP13 SWAP12 SWAP10 SWAP7 SWAP4 PUSH1 0x7 SWAP12 SWAP10 SWAP7 SWAP4 DUP16 SWAP4 DUP4 PUSH2 0x952 SWAP12 SWAP9 LT PUSH2 0x9E9 JUMPI JUMPDEST POP POP POP DUP2 SHL ADD SWAP1 SSTORE PUSH2 0x928 JUMP JUMPDEST ADD MLOAD PUSH0 NOT PUSH1 0xF8 DUP5 PUSH1 0x3 SHL AND SHR NOT AND SWAP1 SSTORE PUSH0 DUP1 DUP1 PUSH2 0x9DC JUMP JUMPDEST SWAP3 SWAP4 PUSH1 0x20 PUSH1 0x1 DUP2 SWAP3 DUP8 DUP7 ADD MLOAD DUP2 SSTORE ADD SWAP6 ADD SWAP4 ADD PUSH2 0x9B7 JUMP JUMPDEST DUP4 PUSH0 MSTORE PUSH1 0x20 PUSH0 KECCAK256 PUSH1 0x1F DUP5 ADD PUSH1 0x5 SHR DUP2 ADD SWAP2 PUSH1 0x20 DUP6 LT PUSH2 0xA54 JUMPI JUMPDEST PUSH1 0x1F ADD PUSH1 0x5 SHR ADD SWAP1 JUMPDEST DUP2 DUP2 LT PUSH2 0xA49 JUMPI POP PUSH2 0x8EB JUMP JUMPDEST PUSH0 DUP2 SSTORE PUSH1 0x1 ADD PUSH2 0xA3C JUMP JUMPDEST SWAP1 SWAP2 POP DUP2 SWAP1 PUSH2 0xA33 JUMP JUMPDEST PUSH4 0x4E487B71 PUSH1 0xE0 SHL PUSH0 MSTORE PUSH1 0x41 PUSH1 0x4 MSTORE PUSH1 0x24 PUSH0 REVERT JUMPDEST ADD MLOAD SWAP1 POP PUSH0 DUP1 PUSH2 0x8AE JUMP JUMPDEST PUSH0 DUP13 DUP2 MSTORE DUP3 DUP2 KECCAK256 SWAP4 POP PUSH1 0x1F NOT DUP6 AND SWAP1 JUMPDEST DUP2 DUP2 LT PUSH2 0xAC8 JUMPI POP SWAP1 DUP5 PUSH1 0x1 SWAP6 SWAP5 SWAP4 SWAP3 LT PUSH2 0xAB0 JUMPI JUMPDEST POP POP POP DUP2 SHL ADD DUP9 SSTORE PUSH2 0x8C2 JUMP JUMPDEST ADD MLOAD PUSH0 NOT PUSH1 0xF8 DUP5 PUSH1 0x3 SHL AND SHR NOT AND SWAP1 SSTORE PUSH0 DUP1 DUP1 PUSH2 0xAA3 JUMP JUMPDEST SWAP3 SWAP4 PUSH1 0x20 PUSH1 0x1 DUP2 SWAP3 DUP8 DUP7 ADD MLOAD DUP2 SSTORE ADD SWAP6 ADD SWAP4 ADD PUSH2 0xA8D JUMP JUMPDEST SWAP1 SWAP2 POP DUP11 PUSH0 MSTORE PUSH1 0x20 PUSH0 KECCAK256 PUSH1 0x1F DUP5 ADD PUSH1 0x5 SHR DUP2 ADD SWAP2 PUSH1 0x20 DUP6 LT PUSH2 0xB26 JUMPI JUMPDEST SWAP1 PUSH1 0x1F DUP6 SWAP5 SWAP4 SWAP3 ADD PUSH1 0x5 SHR ADD SWAP1 JUMPDEST DUP2 DUP2 LT PUSH2 0xB18 JUMPI POP PUSH2 0x898 JUMP JUMPDEST PUSH0 DUP2 SSTORE DUP5 SWAP4 POP PUSH1 0x1 ADD PUSH2 0xB0B JUMP JUMPDEST SWAP1 SWAP2 POP DUP2 SWAP1 PUSH2 0xAFD JUMP JUMPDEST POP DUP7 SWAP2 DUP5 SWAP2 DUP11 PUSH2 0xB48 DUP6 PUSH2 0xB43 DUP5 PUSH2 0x5838 JUMP JUMPDEST PUSH2 0x5A25 JUMP JUMPDEST PUSH2 0xB55 DUP6 PUSH2 0xB43 DUP6 PUSH2 0x584F JUMP JUMPDEST SLOAD PUSH2 0xB6B PUSH1 0x40 MLOAD SWAP7 PUSH1 0xC0 DUP9 MSTORE PUSH1 0xC0 DUP9 ADD SWAP1 PUSH2 0x55E6 JUMP JUMPDEST DUP7 DUP2 SUB PUSH1 0x20 DUP9 ADD MSTORE DUP5 MLOAD DUP1 DUP3 MSTORE PUSH1 0x20 DUP3 ADD SWAP2 PUSH1 0x20 DUP1 DUP4 PUSH1 0x5 SHL DUP4 ADD ADD SWAP8 ADD SWAP3 PUSH0 SWAP2 JUMPDEST DUP4 DUP4 LT PUSH2 0xBD4 JUMPI PUSH1 0x20 DUP11 DUP1 PUSH0 DUP1 MLOAD PUSH1 0x20 PUSH2 0x5F93 DUP4 CODECOPY DUP2 MLOAD SWAP2 MSTORE DUP15 DUP1 DUP15 DUP15 PUSH2 0xBBE DUP16 DUP16 PUSH1 0x40 DUP7 ADD MSTORE PUSH1 0x60 DUP6 ADD SWAP1 PUSH2 0x57BB JUMP JUMPDEST PUSH1 0x80 DUP4 ADD MSTORE CALLER PUSH1 0xA0 DUP4 ADD MSTORE SUB SWAP1 LOG2 PUSH1 0x40 MLOAD SWAP1 DUP2 MSTORE RETURN JUMPDEST SWAP1 SWAP2 SWAP3 SWAP4 SWAP8 PUSH1 0x20 DUP1 PUSH2 0xBF2 PUSH1 0x1 SWAP4 PUSH1 0x1F NOT DUP7 DUP3 SUB ADD DUP8 MSTORE DUP13 MLOAD PUSH2 0x55E6 JUMP JUMPDEST SWAP11 ADD SWAP4 ADD SWAP4 ADD SWAP2 SWAP4 SWAP3 SWAP1 PUSH2 0xB8D JUMP JUMPDEST PUSH4 0x4E487B71 PUSH1 0xE0 SHL PUSH0 MSTORE PUSH1 0x12 PUSH1 0x4 MSTORE PUSH1 0x24 PUSH0 REVERT JUMPDEST ADD MLOAD SWAP1 POP DUP13 DUP1 PUSH2 0x741 JUMP JUMPDEST SWAP1 PUSH1 0x1F NOT DUP4 AND SWAP2 DUP5 PUSH0 MSTORE DUP2 PUSH0 KECCAK256 SWAP3 PUSH0 JUMPDEST DUP2 DUP2 LT PUSH2 0xC70 JUMPI POP SWAP2 PUSH1 0x1 SWAP4 SWAP2 DUP6 PUSH2 0x75B SWAP9 SWAP8 SWAP7 SWAP5 LT PUSH2 0xC58 JUMPI JUMPDEST POP POP POP DUP2 SHL ADD SWAP1 SSTORE PUSH2 0x755 JUMP JUMPDEST ADD MLOAD PUSH0 NOT PUSH1 0xF8 DUP5 PUSH1 0x3 SHL AND SHR NOT AND SWAP1 SSTORE DUP13 DUP1 DUP1 PUSH2 0xC4B JUMP JUMPDEST SWAP3 SWAP4 PUSH1 0x20 PUSH1 0x1 DUP2 SWAP3 DUP8 DUP7 ADD MLOAD DUP2 SSTORE ADD SWAP6 ADD SWAP4 ADD PUSH2 0xC30 JUMP JUMPDEST DUP4 PUSH0 MSTORE PUSH1 0x20 PUSH0 KECCAK256 PUSH1 0x1F DUP5 ADD PUSH1 0x5 SHR DUP2 ADD SWAP2 PUSH1 0x20 DUP6 LT PUSH2 0xCC3 JUMPI JUMPDEST PUSH1 0x1F ADD PUSH1 0x5 SHR ADD SWAP1 JUMPDEST DUP2 DUP2 LT PUSH2 0xCB8 JUMPI POP PUSH2 0x723 JUMP JUMPDEST PUSH0 DUP2 SSTORE PUSH1 0x1 ADD PUSH2 0xCAB JUMP JUMPDEST SWAP1 SWAP2 POP DUP2 SWAP1 PUSH2 0xCA2 JUMP JUMPDEST SWAP1 POP DUP11 ADD MLOAD DUP12 PUSH2 0x6E8 JUMP JUMPDEST PUSH0 DUP12 DUP2 MSTORE DUP2 DUP2 KECCAK256 SWAP3 POP PUSH1 0x1F NOT DUP5 AND SWAP1 JUMPDEST DUP14 DUP3 DUP3 LT PUSH2 0xD23 JUMPI POP POP SWAP1 DUP4 PUSH1 0x1 SWAP5 SWAP4 SWAP3 LT PUSH2 0xD0B JUMPI JUMPDEST POP POP DUP2 SHL ADD DUP9 SSTORE PUSH2 0x6FB JUMP JUMPDEST DUP13 ADD MLOAD PUSH0 NOT PUSH1 0xF8 DUP5 PUSH1 0x3 SHL AND SHR NOT AND SWAP1 SSTORE DUP12 DUP1 PUSH2 0xCFF JUMP JUMPDEST PUSH1 0x1 DUP5 SWAP6 PUSH1 0x20 SWAP4 SWAP6 DUP5 SWAP4 ADD MLOAD DUP2 SSTORE ADD SWAP5 ADD SWAP3 ADD PUSH2 0xCE8 JUMP JUMPDEST DUP10 PUSH0 MSTORE PUSH1 0x20 PUSH0 KECCAK256 PUSH1 0x1F DUP4 ADD PUSH1 0x5 SHR DUP2 ADD SWAP2 PUSH1 0x20 DUP5 LT PUSH2 0xD76 JUMPI JUMPDEST PUSH1 0x1F ADD PUSH1 0x5 SHR ADD SWAP1 JUMPDEST DUP2 DUP2 LT PUSH2 0xD6B JUMPI POP PUSH2 0x6D2 JUMP JUMPDEST PUSH0 DUP2 SSTORE PUSH1 0x1 ADD PUSH2 0xD5E JUMP JUMPDEST SWAP1 SWAP2 POP DUP2 SWAP1 PUSH2 0xD55 JUMP JUMPDEST PUSH4 0x12171D83 PUSH1 0xE3 SHL PUSH0 MSTORE PUSH1 0x4 PUSH0 REVERT JUMPDEST PUSH2 0xDB1 SWAP2 POP PUSH1 0x20 RETURNDATASIZE PUSH1 0x20 GT PUSH2 0xDB7 JUMPI JUMPDEST PUSH2 0xDA9 DUP2 DUP4 PUSH2 0x56B0 JUMP JUMPDEST DUP2 ADD SWAP1 PUSH2 0x59AE JUMP JUMPDEST DUP9 PUSH2 0x68C JUMP JUMPDEST POP RETURNDATASIZE PUSH2 0xD9F JUMP JUMPDEST PUSH1 0x40 MLOAD RETURNDATASIZE PUSH0 DUP3 RETURNDATACOPY RETURNDATASIZE SWAP1 REVERT JUMPDEST PUSH4 0x1FEC6747 PUSH1 0xE3 SHL PUSH0 MSTORE PUSH1 0x4 PUSH0 REVERT JUMPDEST PUSH4 0xDAB5B42B PUSH1 0xE0 SHL PUSH0 MSTORE PUSH1 0x4 PUSH0 REVERT JUMPDEST PUSH1 0xA SWAP2 POP GT DUP9 PUSH2 0x62A JUMP JUMPDEST PUSH4 0xD5003F3 PUSH1 0xE0 SHL PUSH0 MSTORE PUSH1 0x4 PUSH0 REVERT JUMPDEST PUSH4 0x4D84C2E9 PUSH1 0xE0 SHL PUSH0 MSTORE PUSH1 0x4 PUSH0 REVERT JUMPDEST POP PUSH4 0x1E13380 DUP5 GT PUSH2 0x611 JUMP JUMPDEST PUSH4 0xEA8E4EB5 PUSH1 0xE0 SHL PUSH0 MSTORE PUSH1 0x4 PUSH0 REVERT JUMPDEST POP CALLER PUSH0 SWAP1 DUP2 MSTORE PUSH0 DUP1 MLOAD PUSH1 0x20 PUSH2 0x5F73 DUP4 CODECOPY DUP2 MLOAD SWAP2 MSTORE PUSH1 0x20 MSTORE PUSH1 0x40 SWAP1 KECCAK256 SLOAD PUSH1 0xFF AND ISZERO PUSH2 0x601 JUMP JUMPDEST CALLVALUE PUSH2 0x49D JUMPI PUSH2 0xE5F CALLDATASIZE PUSH2 0x57E6 JUMP JUMPDEST SWAP2 PUSH0 MSTORE PUSH1 0xC PUSH1 0x20 MSTORE PUSH1 0xF PUSH1 0x40 PUSH0 KECCAK256 ADD SWAP1 PUSH0 MSTORE PUSH1 0x20 MSTORE PUSH1 0x40 PUSH0 KECCAK256 PUSH1 0x6 PUSH1 0x7 DUP3 ADD SLOAD DUP4 DUP1 DUP3 GT PUSH0 EQ PUSH2 0xF0C JUMPI PUSH2 0xE92 SWAP2 PUSH2 0x5A59 JUMP JUMPDEST SWAP2 JUMPDEST ADD SLOAD SWAP2 PUSH8 0xDE0B6B3A7640000 DUP4 MUL SWAP3 DUP1 DUP5 DIV PUSH8 0xDE0B6B3A7640000 EQ SWAP1 ISZERO OR ISZERO PUSH2 0xEF8 JUMPI PUSH2 0xECE PUSH2 0xED3 SWAP3 PUSH8 0xDE0B6B3A7640000 SWAP5 PUSH2 0x5990 JUMP JUMPDEST PUSH2 0x597D JUMP JUMPDEST DIV PUSH2 0x3E5 DUP2 MUL SWAP1 DUP1 DUP3 DIV PUSH2 0x3E5 EQ SWAP1 ISZERO OR ISZERO PUSH2 0xEF8 JUMPI PUSH1 0x20 SWAP1 PUSH2 0x3E8 PUSH1 0x40 MLOAD SWAP2 DIV DUP2 MSTORE RETURN JUMPDEST PUSH4 0x4E487B71 PUSH1 0xE0 SHL PUSH0 MSTORE PUSH1 0x11 PUSH1 0x4 MSTORE PUSH1 0x24 PUSH0 REVERT JUMPDEST POP PUSH1 0x1 SHR SWAP2 PUSH2 0xE94 JUMP JUMPDEST CALLVALUE PUSH2 0x49D JUMPI PUSH1 0x20 CALLDATASIZE PUSH1 0x3 NOT ADD SLT PUSH2 0x49D JUMPI PUSH2 0xF2F PUSH2 0x558B JUMP JUMPDEST PUSH2 0xF37 PUSH2 0x5B54 JUMP JUMPDEST PUSH1 0x1 PUSH1 0x1 PUSH1 0xA0 SHL SUB AND DUP1 ISZERO PUSH2 0xF88 JUMPI PUSH0 DUP1 SLOAD PUSH1 0x1 PUSH1 0x1 PUSH1 0xA0 SHL SUB NOT DUP2 AND DUP4 OR DUP3 SSTORE PUSH1 0x1 PUSH1 0x1 PUSH1 0xA0 SHL SUB AND SWAP1 PUSH32 0x8BE0079C531659141344CD1FD0A4F28419497F9722A3DAAFE3B4186F6B6457E0 SWAP1 DUP1 LOG3 STOP JUMPDEST PUSH4 0x1E4FBDF7 PUSH1 0xE0 SHL PUSH0 MSTORE PUSH0 PUSH1 0x4 MSTORE PUSH1 0x24 PUSH0 REVERT JUMPDEST CALLVALUE PUSH2 0x49D JUMPI PUSH0 CALLDATASIZE PUSH1 0x3 NOT ADD SLT PUSH2 0x49D JUMPI PUSH1 0x20 PUSH1 0x8 SLOAD PUSH1 0x40 MLOAD SWAP1 DUP2 MSTORE RETURN JUMPDEST CALLVALUE PUSH2 0x49D JUMPI PUSH2 0xFC6 CALLDATASIZE PUSH2 0x57C8 JUMP JUMPDEST PUSH2 0xFD1 SWAP3 SWAP2 SWAP3 PUSH2 0x5E52 JUMP JUMPDEST PUSH2 0xFD9 PUSH2 0x5B7A JUMP JUMPDEST PUSH1 0x6 SLOAD DUP5 LT ISZERO PUSH2 0x524 JUMPI DUP4 PUSH0 MSTORE PUSH1 0xC PUSH1 0x20 MSTORE PUSH1 0x2 PUSH1 0x40 PUSH0 KECCAK256 ADD SLOAD TIMESTAMP LT ISZERO PUSH2 0x1434 JUMPI DUP4 PUSH0 MSTORE PUSH1 0xC PUSH1 0x20 MSTORE PUSH1 0xFF PUSH1 0x5 PUSH1 0x40 PUSH0 KECCAK256 ADD SLOAD AND PUSH2 0x1425 JUMPI DUP4 PUSH0 MSTORE PUSH1 0xC PUSH1 0x20 MSTORE PUSH1 0xA PUSH1 0x40 PUSH0 KECCAK256 ADD SLOAD DUP3 LT ISZERO PUSH2 0x1416 JUMPI DUP4 PUSH0 MSTORE PUSH1 0xC PUSH1 0x20 MSTORE PUSH1 0xF PUSH1 0x40 PUSH0 KECCAK256 ADD DUP3 PUSH0 MSTORE PUSH1 0x20 MSTORE PUSH1 0xFF PUSH1 0x5 PUSH1 0x40 PUSH0 KECCAK256 ADD SLOAD AND ISZERO PUSH2 0x1407 JUMPI DUP3 ISZERO PUSH2 0x13F8 JUMPI DUP4 PUSH0 MSTORE PUSH1 0xC PUSH1 0x20 MSTORE PUSH1 0xFF PUSH1 0x5 PUSH1 0x40 PUSH0 KECCAK256 ADD SLOAD PUSH1 0x10 SHR AND ISZERO PUSH2 0x13E9 JUMPI PUSH0 DUP5 DUP2 MSTORE PUSH1 0xC PUSH1 0x20 SWAP1 DUP2 MSTORE PUSH1 0x40 DUP1 DUP4 KECCAK256 DUP6 DUP5 MSTORE PUSH1 0xF DUP2 ADD SWAP1 SWAP3 MSTORE SWAP1 SWAP2 KECCAK256 PUSH1 0x4 DUP2 ADD SLOAD SWAP1 SWAP4 SWAP2 SWAP3 SWAP2 SWAP1 SWAP2 DUP3 GT PUSH2 0x13DA JUMPI PUSH8 0xDE0B6B3A7640000 PUSH2 0x10B0 DUP7 DUP5 PUSH2 0x597D JUMP JUMPDEST DIV SWAP5 PUSH2 0x2710 PUSH2 0x10C1 PUSH1 0x8 SLOAD DUP9 PUSH2 0x597D JUMP JUMPDEST DIV SWAP4 PUSH2 0x10CD DUP6 DUP9 PUSH2 0x5970 JUMP JUMPDEST PUSH1 0x3 SLOAD PUSH1 0x40 MLOAD PUSH4 0x23B872DD PUSH1 0xE0 SHL DUP2 MSTORE CALLER PUSH1 0x4 DUP3 ADD MSTORE ADDRESS PUSH1 0x24 DUP3 ADD MSTORE PUSH1 0x44 DUP2 ADD DUP4 SWAP1 MSTORE SWAP2 SWAP3 SWAP2 SWAP1 PUSH1 0x20 SWAP1 DUP3 SWAP1 PUSH1 0x8 SHR PUSH1 0x1 PUSH1 0x1 PUSH1 0xA0 SHL SUB AND DUP2 PUSH0 DUP2 PUSH1 0x64 DUP2 ADD SUB SWAP3 GAS CALL SWAP1 DUP2 ISZERO PUSH2 0xDBE JUMPI PUSH0 SWAP2 PUSH2 0x13BB JUMPI JUMPDEST POP ISZERO PUSH2 0xD80 JUMPI DUP1 PUSH1 0x10 PUSH1 0xC SWAP3 ADD PUSH1 0x1 DUP1 PUSH1 0xA0 SHL SUB CALLER AND PUSH0 MSTORE DUP1 PUSH1 0x20 MSTORE PUSH1 0x40 PUSH0 KECCAK256 DUP7 PUSH0 MSTORE PUSH1 0x20 MSTORE PUSH1 0x40 PUSH0 KECCAK256 SLOAD ISZERO DUP1 PUSH2 0x13AB JUMPI JUMPDEST PUSH2 0x137F JUMPI JUMPDEST PUSH1 0x1 DUP1 PUSH1 0xA0 SHL SUB CALLER AND PUSH0 MSTORE PUSH1 0x20 MSTORE PUSH1 0x40 PUSH0 KECCAK256 DUP6 PUSH0 MSTORE PUSH1 0x20 MSTORE PUSH1 0x40 PUSH0 KECCAK256 PUSH2 0x117C DUP6 DUP3 SLOAD PUSH2 0x5970 JUMP JUMPDEST SWAP1 SSTORE PUSH1 0x2 DUP9 ADD PUSH2 0x118D DUP6 DUP3 SLOAD PUSH2 0x5970 JUMP JUMPDEST SWAP1 SSTORE PUSH1 0x3 DUP9 ADD PUSH2 0x119E DUP11 DUP3 SLOAD PUSH2 0x5970 JUMP JUMPDEST SWAP1 SSTORE PUSH1 0x7 DUP2 ADD PUSH2 0x11AF DUP11 DUP3 SLOAD PUSH2 0x5970 JUMP JUMPDEST SWAP1 SSTORE PUSH1 0x8 DUP2 ADD PUSH2 0x11C0 DUP11 DUP3 SLOAD PUSH2 0x5970 JUMP JUMPDEST SWAP1 SSTORE ADD PUSH2 0x11CE DUP7 DUP3 SLOAD PUSH2 0x5970 JUMP JUMPDEST SWAP1 SSTORE PUSH2 0x11DC DUP6 PUSH1 0xB SLOAD PUSH2 0x5970 JUMP JUMPDEST PUSH1 0xB SSTORE CALLER PUSH0 MSTORE PUSH1 0xD PUSH1 0x20 MSTORE PUSH2 0x11F6 PUSH1 0x40 PUSH0 KECCAK256 SWAP2 DUP3 SLOAD PUSH2 0x5970 JUMP JUMPDEST SWAP1 SSTORE CALLER PUSH0 MSTORE PUSH1 0xD PUSH1 0x20 MSTORE PUSH1 0x4 PUSH1 0x40 PUSH0 KECCAK256 ADD PUSH2 0x1211 DUP2 SLOAD PUSH2 0x59C6 JUMP JUMPDEST SWAP1 SSTORE DUP7 PUSH0 MSTORE PUSH1 0xC PUSH1 0x20 MSTORE PUSH1 0xF PUSH1 0x40 PUSH0 KECCAK256 ADD DUP3 PUSH0 MSTORE PUSH1 0x20 MSTORE PUSH1 0x40 PUSH0 KECCAK256 PUSH2 0x1240 DUP3 PUSH1 0x6 PUSH1 0x7 DUP5 ADD SLOAD SWAP4 ADD SLOAD SWAP3 PUSH2 0x5970 JUMP JUMPDEST PUSH8 0xDE0B6B3A7640000 DUP3 MUL SWAP2 DUP1 DUP4 DIV PUSH8 0xDE0B6B3A7640000 EQ SWAP1 ISZERO OR ISZERO PUSH2 0xEF8 JUMPI PUSH32 0xAF7C505EE772EC188AF7067E1F73DB08AB028E3D564273442B907742B9C41FA0 SWAP8 PUSH1 0x20 SWAP8 PUSH2 0x1295 PUSH1 0x4 SWAP4 PUSH2 0x12CD SWAP6 PUSH2 0x5990 JUMP JUMPDEST SWAP3 DUP4 SWAP2 ADD SSTORE DUP10 PUSH0 MSTORE PUSH1 0x10 DUP9 MSTORE PUSH1 0x40 PUSH0 KECCAK256 DUP6 PUSH0 MSTORE DUP9 MSTORE PUSH1 0x40 PUSH0 KECCAK256 SWAP1 PUSH1 0x40 MLOAD SWAP3 PUSH2 0x12BC DUP5 PUSH2 0x565E JUMP JUMPDEST DUP4 MSTORE TIMESTAMP DUP10 DUP5 ADD MSTORE PUSH1 0x40 DUP4 ADD MSTORE PUSH2 0x59D4 JUMP JUMPDEST PUSH2 0x1326 PUSH1 0x40 MLOAD PUSH2 0x12DC DUP2 PUSH2 0x5679 JUMP JUMPDEST DUP9 DUP2 MSTORE DUP4 DUP8 DUP3 ADD MSTORE CALLER PUSH1 0x40 DUP3 ADD MSTORE PUSH0 PUSH1 0x60 DUP3 ADD MSTORE DUP5 PUSH1 0x80 DUP3 ADD MSTORE DUP3 PUSH1 0xA0 DUP3 ADD MSTORE TIMESTAMP PUSH1 0xC0 DUP3 ADD MSTORE CALLER PUSH0 MSTORE PUSH1 0xE DUP8 MSTORE PUSH2 0x1316 DUP2 PUSH1 0x40 PUSH0 KECCAK256 PUSH2 0x5A66 JUMP JUMPDEST DUP9 PUSH0 MSTORE PUSH1 0xF DUP8 MSTORE PUSH1 0x40 PUSH0 KECCAK256 PUSH2 0x5A66 JUMP JUMPDEST PUSH1 0x7 SLOAD SWAP1 PUSH2 0x1333 DUP3 PUSH2 0x59C6 JUMP JUMPDEST PUSH1 0x7 SSTORE PUSH1 0x40 MLOAD SWAP4 PUSH0 DUP6 MSTORE DUP7 DUP6 ADD MSTORE PUSH1 0x40 DUP5 ADD MSTORE PUSH1 0x60 DUP4 ADD MSTORE DUP6 PUSH32 0x976184626638B6C7E51A4AB66B297BEB1714B545CE4E867A70D622566573098C PUSH1 0x80 CALLER SWAP5 LOG4 PUSH1 0x40 MLOAD SWAP1 DUP2 MSTORE LOG2 PUSH1 0x1 DUP1 SSTORE STOP JUMPDEST PUSH2 0x138C CALLER PUSH1 0x14 DUP5 ADD PUSH2 0x5B37 JUMP JUMPDEST CALLER PUSH0 MSTORE PUSH1 0xD PUSH1 0x20 MSTORE PUSH1 0x40 PUSH0 KECCAK256 SLOAD PUSH2 0x1155 JUMPI PUSH2 0x13A6 CALLER PUSH2 0x5AF2 JUMP JUMPDEST PUSH2 0x1155 JUMP JUMPDEST POP PUSH2 0x13B6 DUP12 CALLER PUSH2 0x5EF6 JUMP JUMPDEST PUSH2 0x1150 JUMP JUMPDEST PUSH2 0x13D4 SWAP2 POP PUSH1 0x20 RETURNDATASIZE PUSH1 0x20 GT PUSH2 0xDB7 JUMPI PUSH2 0xDA9 DUP2 DUP4 PUSH2 0x56B0 JUMP JUMPDEST DUP11 PUSH2 0x111E JUMP JUMPDEST PUSH4 0x127F08C9 PUSH1 0xE1 SHL PUSH0 MSTORE PUSH1 0x4 PUSH0 REVERT JUMPDEST PUSH4 0x6864AAC3 PUSH1 0xE1 SHL PUSH0 MSTORE PUSH1 0x4 PUSH0 REVERT JUMPDEST PUSH4 0x2E11316F PUSH1 0xE1 SHL PUSH0 MSTORE PUSH1 0x4 PUSH0 REVERT JUMPDEST PUSH4 0xF6B715C3 PUSH1 0xE0 SHL PUSH0 MSTORE PUSH1 0x4 PUSH0 REVERT JUMPDEST PUSH4 0x2A719531 PUSH1 0xE0 SHL PUSH0 MSTORE PUSH1 0x4 PUSH0 REVERT JUMPDEST PUSH4 0xEDCA30D PUSH1 0xE1 SHL PUSH0 MSTORE PUSH1 0x4 PUSH0 REVERT JUMPDEST PUSH4 0x262B7531 PUSH1 0xE2 SHL PUSH0 MSTORE PUSH1 0x4 PUSH0 REVERT JUMPDEST CALLVALUE PUSH2 0x49D JUMPI PUSH1 0xA0 CALLDATASIZE PUSH1 0x3 NOT ADD SLT PUSH2 0x49D JUMPI PUSH1 0x64 CALLDATALOAD PUSH1 0x44 CALLDATALOAD PUSH1 0x4 CALLDATALOAD PUSH1 0x24 CALLDATALOAD PUSH2 0x1468 PUSH2 0x5E52 JUMP JUMPDEST PUSH2 0x1470 PUSH2 0x5B7A JUMP JUMPDEST PUSH1 0x6 SLOAD DUP3 LT ISZERO PUSH2 0x524 JUMPI DUP2 PUSH0 MSTORE PUSH1 0xC PUSH1 0x20 MSTORE PUSH1 0x2 PUSH1 0x40 PUSH0 KECCAK256 ADD SLOAD TIMESTAMP LT ISZERO PUSH2 0x1434 JUMPI DUP2 PUSH0 MSTORE PUSH1 0xC PUSH1 0x20 MSTORE PUSH1 0xFF PUSH1 0x5 PUSH1 0x40 PUSH0 KECCAK256 ADD SLOAD AND PUSH2 0x1425 JUMPI DUP3 DUP2 EQ PUSH2 0x176F JUMPI DUP4 ISZERO PUSH2 0x13F8 JUMPI PUSH0 DUP3 DUP2 MSTORE PUSH1 0xC PUSH1 0x20 SWAP1 DUP2 MSTORE PUSH1 0x40 DUP1 DUP4 KECCAK256 CALLER DUP5 MSTORE PUSH1 0x10 ADD DUP3 MSTORE DUP1 DUP4 KECCAK256 DUP5 DUP5 MSTORE SWAP1 SWAP2 MSTORE SWAP1 KECCAK256 SLOAD DUP5 GT PUSH2 0x1760 JUMPI DUP2 PUSH0 MSTORE PUSH1 0xC PUSH1 0x20 MSTORE PUSH1 0x40 PUSH0 KECCAK256 SWAP1 PUSH1 0xF DUP3 ADD SWAP1 DUP1 PUSH0 MSTORE DUP2 PUSH1 0x20 MSTORE PUSH1 0x40 PUSH0 KECCAK256 SWAP2 DUP6 PUSH0 MSTORE PUSH1 0x20 MSTORE PUSH1 0x40 PUSH0 KECCAK256 SWAP6 PUSH1 0x7 DUP4 ADD SWAP6 DUP7 SLOAD SWAP7 PUSH1 0x7 DUP10 ADD SWAP6 DUP7 SLOAD SWAP9 PUSH2 0x26F2 DUP6 MUL SWAP1 DUP6 DUP3 DIV PUSH2 0x26F2 SUB PUSH2 0xEF8 JUMPI PUSH2 0x1560 DUP12 PUSH2 0x155A PUSH2 0x2710 PUSH2 0x1566 SWAP6 DIV DUP1 SWAP3 PUSH2 0x1544 DUP3 DUP13 PUSH2 0x5A59 JUMP JUMPDEST PUSH2 0x1553 PUSH1 0xD DUP11 ADD SWAP2 DUP3 SLOAD PUSH2 0x5970 JUMP JUMPDEST SWAP1 SSTORE PUSH2 0x597D JUMP JUMPDEST SWAP3 PUSH2 0x5970 JUMP JUMPDEST SWAP1 PUSH2 0x5990 JUMP JUMPDEST SWAP9 PUSH1 0x84 CALLDATALOAD DUP11 LT PUSH2 0x1751 JUMPI DUP10 LT ISZERO PUSH2 0x1742 JUMPI PUSH1 0x10 SWAP1 PUSH2 0x1585 DUP6 DUP5 SLOAD PUSH2 0x5970 JUMP JUMPDEST DUP4 SSTORE PUSH2 0x1592 DUP11 DUP10 SLOAD PUSH2 0x5A59 JUMP JUMPDEST DUP9 SSTORE ADD PUSH1 0x1 DUP1 PUSH1 0xA0 SHL SUB CALLER AND PUSH0 MSTORE DUP1 PUSH1 0x20 MSTORE PUSH1 0x40 PUSH0 KECCAK256 DUP6 PUSH0 MSTORE PUSH1 0x20 MSTORE PUSH1 0x40 PUSH0 KECCAK256 PUSH2 0x15BD DUP6 DUP3 SLOAD PUSH2 0x5A59 JUMP JUMPDEST SWAP1 SSTORE PUSH1 0x1 DUP1 PUSH1 0xA0 SHL SUB CALLER AND PUSH0 MSTORE PUSH1 0x20 MSTORE PUSH1 0x40 PUSH0 KECCAK256 DUP3 PUSH0 MSTORE PUSH1 0x20 MSTORE PUSH1 0x40 PUSH0 KECCAK256 PUSH2 0x15E6 DUP10 DUP3 SLOAD PUSH2 0x5970 JUMP JUMPDEST SWAP1 SSTORE PUSH1 0x6 DUP6 ADD SLOAD SWAP1 PUSH8 0xDE0B6B3A7640000 DUP3 MUL SWAP2 DUP1 DUP4 DIV PUSH8 0xDE0B6B3A7640000 EQ SWAP1 ISZERO OR ISZERO PUSH2 0xEF8 JUMPI PUSH1 0x4 SWAP2 PUSH2 0x161D SWAP2 SLOAD SWAP1 PUSH2 0x5990 JUMP JUMPDEST SWAP5 ADD SWAP4 DUP5 SSTORE PUSH1 0x6 DUP9 ADD SLOAD PUSH8 0xDE0B6B3A7640000 DUP2 MUL SWAP1 DUP1 DUP3 DIV PUSH8 0xDE0B6B3A7640000 EQ SWAP1 ISZERO OR ISZERO PUSH2 0xEF8 JUMPI PUSH1 0x20 SWAP9 PUSH2 0x16D1 PUSH1 0xA0 SWAP7 PUSH1 0x4 PUSH2 0x1683 PUSH2 0x171A SWAP6 PUSH32 0xCA95F9F211ECEB8CF82EFF4E16AE708336F056D94515A268F4B8FD1F5C08EF50 SWAP12 SLOAD SWAP1 PUSH2 0x5990 JUMP JUMPDEST SWAP4 ADD SWAP3 DUP4 SSTORE DUP10 PUSH0 MSTORE PUSH1 0x10 DUP13 MSTORE PUSH1 0x40 PUSH0 KECCAK256 DUP8 PUSH0 MSTORE DUP13 MSTORE PUSH1 0x40 PUSH0 KECCAK256 SWAP1 SLOAD SWAP1 PUSH8 0xDE0B6B3A7640000 PUSH2 0x16B2 DUP4 DUP10 PUSH2 0x597D JUMP JUMPDEST DIV PUSH1 0x40 MLOAD SWAP3 PUSH2 0x16C0 DUP5 PUSH2 0x565E JUMP JUMPDEST DUP4 MSTORE TIMESTAMP DUP15 DUP5 ADD MSTORE PUSH1 0x40 DUP4 ADD MSTORE PUSH2 0x59D4 JUMP JUMPDEST DUP8 PUSH0 MSTORE PUSH1 0x10 DUP11 MSTORE PUSH1 0x40 PUSH0 KECCAK256 DUP4 PUSH0 MSTORE DUP11 MSTORE PUSH1 0x40 PUSH0 KECCAK256 SWAP1 SLOAD SWAP1 PUSH8 0xDE0B6B3A7640000 PUSH2 0x16FB DUP4 DUP13 PUSH2 0x597D JUMP JUMPDEST DIV PUSH1 0x40 MLOAD SWAP3 PUSH2 0x1709 DUP5 PUSH2 0x565E JUMP JUMPDEST DUP4 MSTORE TIMESTAMP DUP13 DUP5 ADD MSTORE PUSH1 0x40 DUP4 ADD MSTORE PUSH2 0x59D4 JUMP JUMPDEST PUSH1 0x40 MLOAD SWAP3 DUP4 MSTORE DUP8 DUP4 ADD MSTORE PUSH1 0x40 DUP3 ADD MSTORE DUP5 PUSH1 0x60 DUP3 ADD MSTORE CALLER PUSH1 0x80 DUP3 ADD MSTORE LOG2 PUSH1 0x1 DUP1 SSTORE PUSH1 0x40 MLOAD SWAP1 DUP2 MSTORE RETURN JUMPDEST PUSH4 0xBB55FD27 PUSH1 0xE0 SHL PUSH0 MSTORE PUSH1 0x4 PUSH0 REVERT JUMPDEST PUSH4 0xBB2875C3 PUSH1 0xE0 SHL PUSH0 MSTORE PUSH1 0x4 PUSH0 REVERT JUMPDEST PUSH4 0x39996567 PUSH1 0xE0 SHL PUSH0 MSTORE PUSH1 0x4 PUSH0 REVERT JUMPDEST PUSH4 0x2EF184B PUSH1 0xE3 SHL PUSH0 MSTORE PUSH1 0x4 PUSH0 REVERT JUMPDEST PUSH2 0x120 CALLDATASIZE PUSH1 0x3 NOT ADD SLT PUSH2 0x49D JUMPI PUSH1 0x4 CALLDATALOAD PUSH1 0x1 PUSH1 0x1 PUSH1 0x40 SHL SUB DUP2 GT PUSH2 0x49D JUMPI PUSH2 0x17AA SWAP1 CALLDATASIZE SWAP1 PUSH1 0x4 ADD PUSH2 0x56D1 JUMP JUMPDEST PUSH1 0x24 CALLDATALOAD PUSH1 0x1 PUSH1 0x1 PUSH1 0x40 SHL SUB DUP2 GT PUSH2 0x49D JUMPI PUSH2 0x17C9 SWAP1 CALLDATASIZE SWAP1 PUSH1 0x4 ADD PUSH2 0x56D1 JUMP JUMPDEST PUSH1 0x44 CALLDATALOAD PUSH1 0x1 PUSH1 0x1 PUSH1 0x40 SHL SUB DUP2 GT PUSH2 0x49D JUMPI PUSH2 0x17E8 SWAP1 CALLDATASIZE SWAP1 PUSH1 0x4 ADD PUSH2 0x573D JUMP JUMPDEST SWAP2 PUSH1 0x64 CALLDATALOAD PUSH1 0x1 PUSH1 0x1 PUSH1 0x40 SHL SUB DUP2 GT PUSH2 0x49D JUMPI PUSH2 0x1808 SWAP1 CALLDATASIZE SWAP1 PUSH1 0x4 ADD PUSH2 0x573D JUMP JUMPDEST PUSH1 0x84 CALLDATALOAD SWAP1 PUSH1 0xA4 CALLDATALOAD SWAP3 PUSH1 0x8 DUP5 LT ISZERO PUSH2 0x49D JUMPI PUSH1 0xE4 CALLDATALOAD PUSH1 0x1 PUSH1 0x1 PUSH1 0x40 SHL SUB DUP2 GT PUSH2 0x49D JUMPI PUSH2 0x1838 SWAP1 CALLDATASIZE SWAP1 PUSH1 0x4 ADD PUSH2 0x56D1 JUMP JUMPDEST SWAP6 PUSH2 0x104 CALLDATALOAD SWAP5 PUSH2 0x1846 PUSH2 0x5B7A JUMP JUMPDEST CALLVALUE ISZERO PUSH2 0x2155 JUMPI PUSH2 0x1854 PUSH2 0x5B7A JUMP JUMPDEST PUSH0 SLOAD PUSH1 0x1 PUSH1 0x1 PUSH1 0xA0 SHL SUB AND CALLER EQ ISZERO DUP1 PUSH2 0x2130 JUMPI JUMPDEST PUSH2 0xE1D JUMPI PUSH2 0xE10 DUP6 LT DUP1 ISZERO PUSH2 0x2123 JUMPI JUMPDEST PUSH2 0xE01 JUMPI DUP3 MLOAD ISZERO PUSH2 0xDF2 JUMPI DUP2 MLOAD PUSH1 0x2 DUP2 LT SWAP1 DUP2 ISZERO PUSH2 0x2118 JUMPI JUMPDEST POP PUSH2 0xDD8 JUMPI DUP2 MLOAD DUP5 MLOAD SUB PUSH2 0xDC9 JUMPI PUSH9 0x56BC75E2D63100000 DUP7 LT PUSH2 0x2109 JUMPI PUSH1 0x3 SLOAD PUSH1 0x40 MLOAD PUSH4 0x23B872DD PUSH1 0xE0 SHL DUP2 MSTORE CALLER PUSH1 0x4 DUP3 ADD MSTORE ADDRESS PUSH1 0x24 DUP3 ADD MSTORE PUSH1 0x44 DUP2 ADD DUP9 SWAP1 MSTORE SWAP1 PUSH1 0x20 SWAP1 DUP3 SWAP1 PUSH1 0x8 SHR PUSH1 0x1 PUSH1 0x1 PUSH1 0xA0 SHL SUB AND DUP2 PUSH0 DUP2 PUSH1 0x64 DUP2 ADD SUB SWAP3 GAS CALL SWAP1 DUP2 ISZERO PUSH2 0xDBE JUMPI PUSH0 SWAP2 PUSH2 0x20EA JUMPI JUMPDEST POP ISZERO PUSH2 0xD80 JUMPI PUSH1 0x6 SLOAD SWAP5 PUSH2 0x1910 DUP7 PUSH2 0x59C6 JUMP JUMPDEST PUSH1 0x6 SSTORE DUP6 PUSH0 MSTORE PUSH1 0xC PUSH1 0x20 MSTORE PUSH1 0x40 PUSH0 KECCAK256 SWAP8 DUP5 MLOAD PUSH1 0x1 PUSH1 0x1 PUSH1 0x40 SHL SUB DUP2 GT PUSH2 0xA5E JUMPI PUSH2 0x193A DUP11 SLOAD PUSH2 0x5866 JUMP JUMPDEST PUSH1 0x1F DUP2 GT PUSH2 0x20A5 JUMPI JUMPDEST POP DUP1 PUSH1 0x20 PUSH1 0x1F DUP3 GT PUSH1 0x1 EQ PUSH2 0x2044 JUMPI PUSH0 SWAP2 PUSH2 0x2039 JUMPI JUMPDEST POP DUP2 PUSH1 0x1 SHL SWAP2 PUSH0 NOT SWAP1 PUSH1 0x3 SHL SHR NOT AND OR DUP10 SSTORE JUMPDEST DUP1 MLOAD PUSH1 0x1 DUP11 ADD SWAP2 PUSH1 0x1 PUSH1 0x1 PUSH1 0x40 SHL SUB DUP3 GT PUSH2 0xA5E JUMPI PUSH2 0x198B DUP4 SLOAD PUSH2 0x5866 JUMP JUMPDEST PUSH1 0x1F DUP2 GT PUSH2 0x1FF4 JUMPI JUMPDEST POP PUSH1 0x20 SWAP1 PUSH1 0x1F DUP4 GT PUSH1 0x1 EQ PUSH2 0x1F8D JUMPI PUSH2 0x19CA SWAP5 SWAP4 SWAP3 SWAP2 PUSH0 SWAP2 DUP4 PUSH2 0x1F82 JUMPI POP POP DUP2 PUSH1 0x1 SHL SWAP2 PUSH0 NOT SWAP1 PUSH1 0x3 SHL SHR NOT AND OR SWAP1 SSTORE TIMESTAMP PUSH2 0x5970 JUMP JUMPDEST PUSH1 0x2 DUP9 ADD SWAP1 DUP2 SSTORE PUSH1 0x3 DUP9 ADD DUP1 SLOAD PUSH2 0xFFFF NOT AND PUSH1 0xFF DUP5 AND OR PUSH2 0x200 OR SWAP1 SSTORE PUSH1 0x5 DUP9 ADD DUP1 SLOAD PUSH4 0x1000000 PUSH1 0x1 PUSH1 0xB8 SHL SUB NOT AND CALLER PUSH1 0x18 SHL PUSH4 0x1000000 PUSH1 0x1 PUSH1 0xB8 SHL SUB AND OR SWAP1 SSTORE TIMESTAMP PUSH1 0x9 DUP10 ADD SSTORE DUP3 MLOAD PUSH1 0xA DUP10 ADD DUP2 SWAP1 SSTORE PUSH1 0x6 DUP10 ADD DUP9 SWAP1 SSTORE PUSH0 PUSH1 0x7 DUP11 ADD SSTORE PUSH1 0xB DUP10 ADD DUP9 SWAP1 SSTORE SWAP1 SWAP9 SWAP1 DUP1 ISZERO PUSH2 0xC01 JUMPI PUSH2 0x1A53 SWAP1 PUSH8 0xDE0B6B3A7640000 SWAP11 SWAP10 SWAP11 DIV SWAP8 DUP5 MLOAD SWAP1 PUSH2 0x5990 JUMP JUMPDEST SWAP4 PUSH1 0xF PUSH0 SWAP11 ADD SWAP10 JUMPDEST DUP5 MLOAD DUP2 LT ISZERO PUSH2 0x1D3D JUMPI PUSH2 0x1A6E DUP2 DUP7 PUSH2 0x599A JUMP JUMPDEST MLOAD DUP7 DUP13 PUSH2 0x1A7B DUP5 DUP12 PUSH2 0x599A JUMP JUMPDEST MLOAD PUSH1 0x40 MLOAD SWAP4 PUSH2 0x1A89 DUP6 PUSH2 0x5694 JUMP JUMPDEST DUP5 MSTORE PUSH1 0x20 DUP5 ADD SWAP1 DUP2 MSTORE DUP13 PUSH1 0x40 DUP6 ADD PUSH0 DUP2 MSTORE PUSH1 0x60 DUP7 ADD SWAP1 PUSH0 DUP3 MSTORE PUSH1 0x80 DUP8 ADD SWAP3 DUP4 MSTORE PUSH1 0xA0 DUP8 ADD SWAP4 PUSH1 0x1 DUP6 MSTORE PUSH1 0xC0 DUP9 ADD SWAP6 DUP8 DUP8 MSTORE PUSH1 0xE0 DUP10 ADD SWAP8 DUP9 MSTORE DUP10 PUSH0 MSTORE PUSH1 0x20 MSTORE PUSH1 0x40 PUSH0 KECCAK256 SWAP8 MLOAD DUP1 MLOAD SWAP1 PUSH1 0x1 PUSH1 0x1 PUSH1 0x40 SHL SUB DUP3 GT PUSH2 0xA5E JUMPI DUP2 SWAP1 PUSH2 0x1AEA DUP12 SLOAD PUSH2 0x5866 JUMP JUMPDEST PUSH1 0x1F DUP2 GT PUSH2 0x1CED JUMPI JUMPDEST POP PUSH1 0x20 SWAP1 PUSH1 0x1F DUP4 GT PUSH1 0x1 EQ PUSH2 0x1C8A JUMPI PUSH0 SWAP3 PUSH2 0x1C7F JUMPI JUMPDEST POP POP DUP2 PUSH1 0x1 SHL SWAP2 PUSH0 NOT SWAP1 PUSH1 0x3 SHL SHR NOT AND OR DUP9 SSTORE JUMPDEST MLOAD DUP1 MLOAD PUSH1 0x1 DUP10 ADD SWAP2 PUSH1 0x1 PUSH1 0x1 PUSH1 0x40 SHL SUB DUP3 GT PUSH2 0xA5E JUMPI PUSH2 0x1B3D DUP4 SLOAD PUSH2 0x5866 JUMP JUMPDEST PUSH1 0x1F DUP2 GT PUSH2 0x1C3A JUMPI JUMPDEST POP PUSH1 0x20 SWAP1 PUSH1 0x1F DUP4 GT PUSH1 0x1 EQ PUSH2 0x1BE1 JUMPI SWAP3 DUP3 PUSH2 0x1BAB SWAP7 SWAP4 PUSH1 0x1 SWAP14 SWAP13 SWAP12 SWAP10 SWAP7 SWAP4 PUSH1 0x7 SWAP12 SWAP10 SWAP7 PUSH0 SWAP3 PUSH2 0x99C JUMPI POP POP PUSH0 NOT PUSH1 0x3 DUP4 SWAP1 SHL SHR NOT AND SWAP1 DUP14 SHL OR SWAP1 SSTORE MLOAD PUSH1 0x2 DUP10 ADD SSTORE MLOAD PUSH1 0x3 DUP9 ADD SSTORE MLOAD PUSH1 0x4 DUP8 ADD SSTORE MLOAD ISZERO ISZERO PUSH1 0x5 DUP7 ADD SWAP1 PUSH1 0xFF DUP1 NOT DUP4 SLOAD AND SWAP2 ISZERO ISZERO AND OR SWAP1 SSTORE JUMP JUMPDEST MLOAD PUSH1 0x6 DUP5 ADD SSTORE MLOAD SWAP2 ADD SSTORE DUP9 PUSH0 MSTORE PUSH1 0x10 PUSH1 0x20 MSTORE PUSH1 0x40 PUSH0 KECCAK256 DUP2 PUSH0 MSTORE PUSH1 0x20 MSTORE PUSH2 0x1BDB PUSH1 0x40 PUSH0 KECCAK256 PUSH1 0x40 MLOAD SWAP1 PUSH2 0x982 DUP3 PUSH2 0x565E JUMP JUMPDEST ADD PUSH2 0x1A5B JUMP JUMPDEST SWAP1 PUSH1 0x1F NOT DUP4 AND SWAP2 DUP5 PUSH0 MSTORE DUP2 PUSH0 KECCAK256 SWAP3 PUSH0 JUMPDEST DUP2 DUP2 LT PUSH2 0x1C22 JUMPI POP SWAP4 PUSH1 0x1 SWAP14 SWAP13 SWAP12 SWAP10 SWAP7 SWAP4 PUSH1 0x7 SWAP12 SWAP10 SWAP7 SWAP4 DUP16 SWAP4 DUP4 PUSH2 0x1BAB SWAP12 SWAP9 LT PUSH2 0x9E9 JUMPI POP POP POP DUP2 SHL ADD SWAP1 SSTORE PUSH2 0x928 JUMP JUMPDEST SWAP3 SWAP4 PUSH1 0x20 PUSH1 0x1 DUP2 SWAP3 DUP8 DUP7 ADD MLOAD DUP2 SSTORE ADD SWAP6 ADD SWAP4 ADD PUSH2 0x1BF1 JUMP JUMPDEST DUP4 PUSH0 MSTORE PUSH1 0x20 PUSH0 KECCAK256 PUSH1 0x1F DUP5 ADD PUSH1 0x5 SHR DUP2 ADD SWAP2 PUSH1 0x20 DUP6 LT PUSH2 0x1C75 JUMPI JUMPDEST PUSH1 0x1F ADD PUSH1 0x5 SHR ADD SWAP1 JUMPDEST DUP2 DUP2 LT PUSH2 0x1C6A JUMPI POP PUSH2 0x1B46 JUMP JUMPDEST PUSH0 DUP2 SSTORE PUSH1 0x1 ADD PUSH2 0x1C5D JUMP JUMPDEST SWAP1 SWAP2 POP DUP2 SWAP1 PUSH2 0x1C54 JUMP JUMPDEST ADD MLOAD SWAP1 POP PUSH0 DUP1 PUSH2 0x1B09 JUMP JUMPDEST PUSH0 DUP13 DUP2 MSTORE DUP3 DUP2 KECCAK256 SWAP4 POP PUSH1 0x1F NOT DUP6 AND SWAP1 JUMPDEST DUP2 DUP2 LT PUSH2 0x1CD5 JUMPI POP SWAP1 DUP5 PUSH1 0x1 SWAP6 SWAP5 SWAP4 SWAP3 LT PUSH2 0x1CBD JUMPI JUMPDEST POP POP POP DUP2 SHL ADD DUP9 SSTORE PUSH2 0x1B1D JUMP JUMPDEST ADD MLOAD PUSH0 NOT PUSH1 0xF8 DUP5 PUSH1 0x3 SHL AND SHR NOT AND SWAP1 SSTORE PUSH0 DUP1 DUP1 PUSH2 0x1CB0 JUMP JUMPDEST SWAP3 SWAP4 PUSH1 0x20 PUSH1 0x1 DUP2 SWAP3 DUP8 DUP7 ADD MLOAD DUP2 SSTORE ADD SWAP6 ADD SWAP4 ADD PUSH2 0x1C9A JUMP JUMPDEST SWAP1 SWAP2 POP DUP11 PUSH0 MSTORE PUSH1 0x20 PUSH0 KECCAK256 PUSH1 0x1F DUP5 ADD PUSH1 0x5 SHR DUP2 ADD SWAP2 PUSH1 0x20 DUP6 LT PUSH2 0x1D33 JUMPI JUMPDEST SWAP1 PUSH1 0x1F DUP6 SWAP5 SWAP4 SWAP3 ADD PUSH1 0x5 SHR ADD SWAP1 JUMPDEST DUP2 DUP2 LT PUSH2 0x1D25 JUMPI POP PUSH2 0x1AF3 JUMP JUMPDEST PUSH0 DUP2 SSTORE DUP5 SWAP4 POP PUSH1 0x1 ADD PUSH2 0x1D18 JUMP JUMPDEST SWAP1 SWAP2 POP DUP2 SWAP1 PUSH2 0x1D0A JUMP JUMPDEST POP DUP7 SWAP1 DUP5 DUP11 PUSH2 0x1D4F DUP5 PUSH2 0xB43 DUP9 PUSH2 0x5838 JUMP JUMPDEST PUSH2 0x1D5D DUP5 PUSH2 0xB43 PUSH1 0x2 PUSH2 0x584F JUMP JUMPDEST SLOAD SWAP5 PUSH2 0x1D74 PUSH1 0x40 MLOAD SWAP4 PUSH1 0xC0 DUP6 MSTORE PUSH1 0xC0 DUP6 ADD SWAP1 PUSH2 0x55E6 JUMP JUMPDEST DUP4 DUP2 SUB PUSH1 0x20 DUP6 ADD MSTORE DUP3 MLOAD DUP1 DUP3 MSTORE PUSH1 0x20 DUP3 ADD SWAP1 PUSH1 0x20 DUP1 DUP3 PUSH1 0x5 SHL DUP6 ADD ADD SWAP6 ADD SWAP2 PUSH0 SWAP1 JUMPDEST DUP3 DUP3 LT PUSH2 0x1F51 JUMPI PUSH1 0x40 DUP9 ADD DUP12 SWAP1 MSTORE DUP10 DUP10 DUP1 PUSH0 DUP1 MLOAD PUSH1 0x20 PUSH2 0x5F93 DUP4 CODECOPY DUP2 MLOAD SWAP2 MSTORE DUP12 DUP1 DUP13 PUSH2 0x1DC5 PUSH1 0x60 DUP4 ADD DUP15 PUSH2 0x57BB JUMP JUMPDEST PUSH1 0x2 PUSH1 0x80 DUP4 ADD MSTORE CALLER PUSH1 0xA0 DUP4 ADD MSTORE SUB SWAP1 LOG2 PUSH0 DUP2 DUP2 MSTORE PUSH1 0xC PUSH1 0x20 MSTORE PUSH1 0x40 SWAP1 KECCAK256 PUSH1 0x1D DUP2 ADD DUP1 SLOAD PUSH1 0x1 PUSH1 0x1 PUSH1 0xA0 SHL SUB NOT AND CALLER OR SWAP1 SSTORE CALLVALUE PUSH1 0x1E DUP3 ADD SSTORE PUSH1 0xC4 CALLDATALOAD PUSH1 0x1F DUP3 ADD SSTORE DUP3 MLOAD SWAP3 SWAP1 PUSH1 0x21 ADD PUSH1 0x1 PUSH1 0x1 PUSH1 0x40 SHL SUB DUP5 GT PUSH2 0xA5E JUMPI PUSH2 0x1E23 DUP2 SLOAD PUSH2 0x5866 JUMP JUMPDEST SWAP4 PUSH1 0x1F DUP6 GT PUSH2 0x1F0C JUMPI JUMPDEST PUSH1 0x20 SWAP5 POP DUP1 DUP6 PUSH1 0x1F DUP3 GT PUSH1 0x1 EQ PUSH2 0x1EAC JUMPI PUSH0 SWAP2 PUSH2 0x1EA1 JUMPI JUMPDEST POP DUP2 PUSH1 0x1 SHL SWAP2 PUSH0 NOT SWAP1 PUSH1 0x3 SHL SHR NOT AND OR SWAP1 SSTORE JUMPDEST DUP2 PUSH32 0x5ECBA3331A79C832C0833D5F1B33759B26D8743C93F4A1B5402053FCBE29DE84 PUSH1 0x40 MLOAD CALLVALUE DUP2 MSTORE PUSH1 0x40 DUP7 DUP3 ADD MSTORE DUP1 PUSH2 0x1E96 CALLER SWAP6 PUSH1 0x40 DUP4 ADD SWAP1 PUSH2 0x55E6 JUMP JUMPDEST SUB SWAP1 LOG3 PUSH1 0x40 MLOAD SWAP1 DUP2 MSTORE RETURN JUMPDEST SWAP1 POP DUP4 ADD MLOAD DUP7 PUSH2 0x1E45 JUMP JUMPDEST PUSH0 DUP5 DUP2 MSTORE DUP2 DUP2 KECCAK256 SWAP3 POP PUSH1 0x1F NOT DUP5 AND SWAP1 JUMPDEST DUP2 DUP2 LT PUSH2 0x1EF5 JUMPI POP SWAP1 DUP4 PUSH1 0x1 SWAP5 SWAP4 SWAP3 LT PUSH2 0x1EDD JUMPI JUMPDEST POP POP DUP2 SHL ADD SWAP1 SSTORE PUSH2 0x1E58 JUMP JUMPDEST DUP6 ADD MLOAD PUSH0 NOT PUSH1 0xF8 DUP5 PUSH1 0x3 SHL AND SHR NOT AND SWAP1 SSTORE DUP7 DUP1 PUSH2 0x1ED1 JUMP JUMPDEST SWAP2 SWAP3 DUP9 PUSH1 0x1 DUP2 SWAP3 DUP7 DUP11 ADD MLOAD DUP2 SSTORE ADD SWAP5 ADD SWAP3 ADD PUSH2 0x1EBC JUMP JUMPDEST DUP2 PUSH0 MSTORE PUSH1 0x20 PUSH0 KECCAK256 PUSH1 0x1F DUP3 ADD PUSH1 0x5 SHR DUP2 ADD SWAP6 PUSH1 0x20 DUP4 LT PUSH2 0x1F47 JUMPI JUMPDEST PUSH1 0x1F ADD PUSH1 0x5 SHR ADD SWAP5 JUMPDEST DUP6 DUP2 LT PUSH2 0x1F3C JUMPI POP PUSH2 0x1E2D JUMP JUMPDEST PUSH0 DUP2 SSTORE PUSH1 0x1 ADD PUSH2 0x1F2F JUMP JUMPDEST SWAP1 SWAP6 POP DUP6 SWAP1 PUSH2 0x1F26 JUMP JUMPDEST SWAP1 SWAP2 SWAP3 SWAP6 PUSH1 0x20 DUP1 PUSH2 0x1F71 PUSH1 0x1 SWAP4 DUP9 SWAP15 SWAP9 PUSH1 0x1F NOT SWAP1 DUP3 SUB ADD DUP7 MSTORE DUP11 MLOAD PUSH2 0x55E6 JUMP JUMPDEST SWAP9 ADD SWAP3 ADD SWAP3 ADD SWAP1 SWAP3 SWAP2 SWAP10 SWAP4 SWAP10 PUSH2 0x1D96 JUMP JUMPDEST ADD MLOAD SWAP1 POP DUP14 DUP1 PUSH2 0x741 JUMP JUMPDEST SWAP1 PUSH1 0x1F NOT DUP4 AND SWAP2 DUP5 PUSH0 MSTORE DUP2 PUSH0 KECCAK256 SWAP3 PUSH0 JUMPDEST DUP2 DUP2 LT PUSH2 0x1FDC JUMPI POP SWAP2 PUSH1 0x1 SWAP4 SWAP2 DUP6 PUSH2 0x19CA SWAP9 SWAP8 SWAP7 SWAP5 LT PUSH2 0x1FC4 JUMPI POP POP POP DUP2 SHL ADD SWAP1 SSTORE PUSH2 0x755 JUMP JUMPDEST ADD MLOAD PUSH0 NOT PUSH1 0xF8 DUP5 PUSH1 0x3 SHL AND SHR NOT AND SWAP1 SSTORE DUP14 DUP1 DUP1 PUSH2 0xC4B JUMP JUMPDEST SWAP3 SWAP4 PUSH1 0x20 PUSH1 0x1 DUP2 SWAP3 DUP8 DUP7 ADD MLOAD DUP2 SSTORE ADD SWAP6 ADD SWAP4 ADD PUSH2 0x1F9D JUMP JUMPDEST DUP4 PUSH0 MSTORE PUSH1 0x20 PUSH0 KECCAK256 PUSH1 0x1F DUP5 ADD PUSH1 0x5 SHR DUP2 ADD SWAP2 PUSH1 0x20 DUP6 LT PUSH2 0x202F JUMPI JUMPDEST PUSH1 0x1F ADD PUSH1 0x5 SHR ADD SWAP1 JUMPDEST DUP2 DUP2 LT PUSH2 0x2024 JUMPI POP PUSH2 0x1994 JUMP JUMPDEST PUSH0 DUP2 SSTORE PUSH1 0x1 ADD PUSH2 0x2017 JUMP JUMPDEST SWAP1 SWAP2 POP DUP2 SWAP1 PUSH2 0x200E JUMP JUMPDEST SWAP1 POP DUP7 ADD MLOAD DUP13 PUSH2 0x1959 JUMP JUMPDEST PUSH0 DUP13 DUP2 MSTORE DUP2 DUP2 KECCAK256 SWAP3 POP PUSH1 0x1F NOT DUP5 AND SWAP1 JUMPDEST DUP2 DUP2 LT PUSH2 0x208D JUMPI POP SWAP1 DUP4 PUSH1 0x1 SWAP5 SWAP4 SWAP3 LT PUSH2 0x2075 JUMPI JUMPDEST POP POP DUP2 SHL ADD DUP10 SSTORE PUSH2 0x196C JUMP JUMPDEST DUP9 ADD MLOAD PUSH0 NOT PUSH1 0xF8 DUP5 PUSH1 0x3 SHL AND SHR NOT AND SWAP1 SSTORE DUP13 DUP1 PUSH2 0x2069 JUMP JUMPDEST SWAP2 SWAP3 PUSH1 0x20 PUSH1 0x1 DUP2 SWAP3 DUP7 DUP14 ADD MLOAD DUP2 SSTORE ADD SWAP5 ADD SWAP3 ADD PUSH2 0x2054 JUMP JUMPDEST DUP11 PUSH0 MSTORE PUSH1 0x20 PUSH0 KECCAK256 PUSH1 0x1F DUP4 ADD PUSH1 0x5 SHR DUP2 ADD SWAP2 PUSH1 0x20 DUP5 LT PUSH2 0x20E0 JUMPI JUMPDEST PUSH1 0x1F ADD PUSH1 0x5 SHR ADD SWAP1 JUMPDEST DUP2 DUP2 LT PUSH2 0x20D5 JUMPI POP PUSH2 0x1943 JUMP JUMPDEST PUSH0 DUP2 SSTORE PUSH1 0x1 ADD PUSH2 0x20C8 JUMP JUMPDEST SWAP1 SWAP2 POP DUP2 SWAP1 PUSH2 0x20BF JUMP JUMPDEST PUSH2 0x2103 SWAP2 POP PUSH1 0x20 RETURNDATASIZE PUSH1 0x20 GT PUSH2 0xDB7 JUMPI PUSH2 0xDA9 DUP2 DUP4 PUSH2 0x56B0 JUMP JUMPDEST DUP10 PUSH2 0x18FD JUMP JUMPDEST PUSH4 0xCCA38335 PUSH1 0xE0 SHL PUSH0 MSTORE PUSH1 0x4 PUSH0 REVERT JUMPDEST PUSH1 0xA SWAP2 POP GT DUP10 PUSH2 0x1891 JUMP JUMPDEST POP PUSH4 0x1E13380 DUP6 GT PUSH2 0x1878 JUMP JUMPDEST POP CALLER PUSH0 SWAP1 DUP2 MSTORE PUSH0 DUP1 MLOAD PUSH1 0x20 PUSH2 0x5F73 DUP4 CODECOPY DUP2 MLOAD SWAP2 MSTORE PUSH1 0x20 MSTORE PUSH1 0x40 SWAP1 KECCAK256 SLOAD PUSH1 0xFF AND ISZERO PUSH2 0x1868 JUMP JUMPDEST PUSH4 0x697DF94B PUSH1 0xE1 SHL PUSH0 MSTORE PUSH1 0x4 PUSH0 REVERT JUMPDEST CALLVALUE PUSH2 0x49D JUMPI PUSH1 0x40 CALLDATASIZE PUSH1 0x3 NOT ADD SLT PUSH2 0x49D JUMPI PUSH1 0x4 CALLDATALOAD PUSH1 0x3 DUP2 LT ISZERO PUSH2 0x49D JUMPI PUSH2 0x218D PUSH1 0x24 CALLDATALOAD SWAP2 PUSH2 0x584F JUMP JUMPDEST DUP1 SLOAD DUP3 LT ISZERO PUSH2 0x49D JUMPI PUSH1 0x20 SWAP2 PUSH2 0x21A2 SWAP2 PUSH2 0x5576 JUMP JUMPDEST SWAP1 SLOAD SWAP1 PUSH1 0x3 SHL SHR PUSH1 0x40 MLOAD SWAP1 DUP2 MSTORE RETURN JUMPDEST CALLVALUE PUSH2 0x49D JUMPI PUSH1 0x40 CALLDATASIZE PUSH1 0x3 NOT ADD SLT PUSH2 0x49D JUMPI PUSH2 0x21F4 PUSH1 0x4 CALLDATALOAD PUSH2 0x21D0 PUSH2 0x55A1 JUMP JUMPDEST SWAP1 PUSH2 0x21EF PUSH2 0x21EA DUP3 PUSH0 MSTORE PUSH1 0x2 PUSH1 0x20 MSTORE PUSH1 0x1 PUSH1 0x40 PUSH0 KECCAK256 ADD SLOAD SWAP1 JUMP JUMPDEST PUSH2 0x5B95 JUMP JUMPDEST PUSH2 0x5E72 JUMP JUMPDEST STOP JUMPDEST CALLVALUE PUSH2 0x49D JUMPI PUSH0 CALLDATASIZE PUSH1 0x3 NOT ADD SLT PUSH2 0x49D JUMPI PUSH2 0x220E PUSH2 0x5E52 JUMP JUMPDEST PUSH1 0xA SLOAD PUSH1 0x1 PUSH1 0x1 PUSH1 0xA0 SHL SUB AND CALLER DUP2 EQ ISZERO DUP1 PUSH2 0x22F2 JUMPI JUMPDEST PUSH2 0xE1D JUMPI PUSH1 0xB SLOAD SWAP1 DUP2 ISZERO PUSH2 0x22E3 JUMPI PUSH0 PUSH1 0xB DUP2 SWAP1 SSTORE PUSH1 0x3 SLOAD PUSH1 0x40 MLOAD PUSH4 0xA9059CBB PUSH1 0xE0 SHL DUP2 MSTORE PUSH1 0x1 PUSH1 0x1 PUSH1 0xA0 SHL SUB SWAP4 DUP5 AND PUSH1 0x4 DUP3 ADD MSTORE PUSH1 0x24 DUP2 ADD DUP6 SWAP1 MSTORE SWAP3 PUSH1 0x20 SWAP3 DUP5 SWAP3 PUSH1 0x44 SWAP3 DUP5 SWAP3 SWAP2 PUSH1 0x8 SHR AND GAS CALL SWAP1 DUP2 ISZERO PUSH2 0xDBE JUMPI PUSH0 SWAP2 PUSH2 0x22C4 JUMPI JUMPDEST POP ISZERO PUSH2 0xD80 JUMPI PUSH1 0xA SLOAD PUSH1 0x40 MLOAD SWAP2 DUP3 MSTORE PUSH1 0x1 PUSH1 0x1 PUSH1 0xA0 SHL SUB AND SWAP1 PUSH32 0xFC7AD544FF6A06D6499925723D25B6FE70457A42939995B1D3D6F560FE336333 SWAP1 PUSH1 0x20 SWAP1 LOG2 PUSH1 0x1 DUP1 SSTORE STOP JUMPDEST PUSH2 0x22DD SWAP2 POP PUSH1 0x20 RETURNDATASIZE PUSH1 0x20 GT PUSH2 0xDB7 JUMPI PUSH2 0xDA9 DUP2 DUP4 PUSH2 0x56B0 JUMP JUMPDEST DUP3 PUSH2 0x227F JUMP JUMPDEST PUSH4 0xD00DB4D PUSH1 0xE3 SHL PUSH0 MSTORE PUSH1 0x4 PUSH0 REVERT JUMPDEST POP PUSH0 SLOAD PUSH1 0x1 PUSH1 0x1 PUSH1 0xA0 SHL SUB AND CALLER EQ ISZERO PUSH2 0x2224 JUMP JUMPDEST CALLVALUE PUSH2 0x49D JUMPI PUSH0 CALLDATASIZE PUSH1 0x3 NOT ADD SLT PUSH2 0x49D JUMPI PUSH1 0xA SLOAD PUSH1 0x40 MLOAD PUSH1 0x1 PUSH1 0x1 PUSH1 0xA0 SHL SUB SWAP1 SWAP2 AND DUP2 MSTORE PUSH1 0x20 SWAP1 RETURN JUMPDEST CALLVALUE PUSH2 0x49D JUMPI PUSH2 0x2346 PUSH2 0x233F CALLDATASIZE PUSH2 0x5819 JUMP JUMPDEST SWAP2 SWAP1 PUSH2 0x5838 JUMP JUMPDEST DUP1 SLOAD SWAP1 DUP2 DUP4 GT ISZERO PUSH2 0x23BF JUMPI DUP2 JUMPDEST PUSH2 0x235C DUP4 PUSH2 0x593E JUMP JUMPDEST SWAP4 DUP1 DUP3 GT ISZERO PUSH2 0x23B7 JUMPI PUSH2 0x236E SWAP2 PUSH2 0x5A59 JUMP JUMPDEST PUSH0 JUMPDEST DUP4 DUP2 LT PUSH2 0x2389 JUMPI PUSH1 0x40 MLOAD DUP1 PUSH2 0x2385 DUP8 DUP3 PUSH2 0x560A JUMP JUMPDEST SUB SWAP1 RETURN JUMPDEST DUP1 PUSH2 0x239F PUSH2 0x2399 PUSH1 0x1 SWAP4 DUP6 PUSH2 0x5970 JUMP JUMPDEST DUP6 PUSH2 0x5576 JUMP JUMPDEST SWAP1 SLOAD SWAP1 PUSH1 0x3 SHL SHR PUSH2 0x23B0 DUP3 DUP9 PUSH2 0x599A JUMP JUMPDEST MSTORE ADD PUSH2 0x2370 JUMP JUMPDEST POP POP PUSH0 PUSH2 0x236E JUMP JUMPDEST DUP3 SWAP2 PUSH2 0x2353 JUMP JUMPDEST CALLVALUE PUSH2 0x49D JUMPI PUSH2 0x23D4 CALLDATASIZE PUSH2 0x55D0 JUMP JUMPDEST SWAP1 PUSH2 0x23DD PUSH2 0x5E52 JUMP JUMPDEST PUSH2 0x23E5 PUSH2 0x5B7A JUMP JUMPDEST PUSH1 0x6 SLOAD DUP2 LT ISZERO PUSH2 0x524 JUMPI DUP1 PUSH0 MSTORE PUSH1 0xC PUSH1 0x20 MSTORE PUSH1 0x2 PUSH1 0x40 PUSH0 KECCAK256 ADD SLOAD TIMESTAMP LT ISZERO PUSH2 0x1434 JUMPI DUP1 PUSH0 MSTORE PUSH1 0xC PUSH1 0x20 MSTORE PUSH1 0xFF PUSH1 0x5 PUSH1 0x40 PUSH0 KECCAK256 ADD SLOAD AND PUSH2 0x1425 JUMPI DUP1 PUSH0 MSTORE PUSH1 0xC PUSH1 0x20 MSTORE PUSH1 0xA PUSH1 0x40 PUSH0 KECCAK256 ADD SLOAD DUP3 LT ISZERO PUSH2 0x1416 JUMPI DUP1 PUSH0 MSTORE PUSH1 0xC PUSH1 0x20 MSTORE PUSH1 0xF PUSH1 0x40 PUSH0 KECCAK256 ADD DUP3 PUSH0 MSTORE PUSH1 0x20 MSTORE PUSH1 0xFF PUSH1 0x5 PUSH1 0x40 PUSH0 KECCAK256 ADD SLOAD AND ISZERO PUSH2 0x1407 JUMPI DUP1 PUSH0 MSTORE PUSH1 0xC PUSH1 0x20 MSTORE PUSH1 0x40 PUSH0 KECCAK256 PUSH1 0xFF PUSH1 0x3 DUP3 ADD SLOAD PUSH1 0x8 SHR AND PUSH1 0x3 DUP2 LT ISZERO PUSH2 0x2651 JUMPI PUSH1 0x1 SUB PUSH2 0x2642 JUMPI PUSH1 0xFF PUSH1 0x1A DUP3 ADD SLOAD AND ISZERO PUSH2 0x2633 JUMPI CALLER PUSH0 SWAP1 DUP2 MSTORE PUSH1 0x1B DUP3 ADD PUSH1 0x20 DUP2 SWAP1 MSTORE PUSH1 0x40 SWAP1 SWAP2 KECCAK256 SLOAD PUSH1 0xFF AND PUSH2 0x2624 JUMPI PUSH1 0x19 DUP3 ADD SWAP2 DUP3 SLOAD PUSH1 0x17 DUP3 ADD SLOAD GT ISZERO PUSH2 0x2615 JUMPI CALLER PUSH0 MSTORE PUSH1 0x14 PUSH1 0x20 MSTORE PUSH1 0x40 PUSH0 KECCAK256 SLOAD SWAP3 PUSH2 0x24D7 PUSH1 0x18 DUP4 ADD SLOAD DUP1 SWAP6 PUSH2 0x5970 JUMP JUMPDEST PUSH1 0x9 SLOAD LT PUSH2 0x2606 JUMPI CALLER PUSH0 SWAP1 DUP2 MSTORE PUSH1 0x20 SWAP4 DUP5 MSTORE PUSH1 0x40 DUP1 DUP3 KECCAK256 DUP1 SLOAD PUSH1 0xFF NOT AND PUSH1 0x1 OR SWAP1 SSTORE PUSH1 0x1C DUP5 ADD SWAP1 SWAP5 MSTORE SWAP3 SWAP1 SWAP3 KECCAK256 DUP4 SWAP1 SSTORE DUP2 SLOAD PUSH1 0xF SWAP3 SWAP1 PUSH2 0x2516 SWAP1 PUSH2 0x59C6 JUMP JUMPDEST SWAP1 SSTORE CALLER PUSH0 MSTORE PUSH1 0x14 PUSH1 0x20 MSTORE PUSH1 0x40 PUSH0 KECCAK256 PUSH2 0x252F DUP5 DUP3 SLOAD PUSH2 0x5970 JUMP JUMPDEST SWAP1 SSTORE PUSH2 0x253B DUP5 CALLER PUSH2 0x5EF6 JUMP JUMPDEST PUSH2 0x25DA JUMPI JUMPDEST PUSH1 0x1 DUP1 PUSH1 0xA0 SHL SUB CALLER AND PUSH0 MSTORE PUSH1 0x10 DUP2 ADD PUSH1 0x20 MSTORE PUSH1 0x40 PUSH0 KECCAK256 DUP6 PUSH0 MSTORE PUSH1 0x20 MSTORE PUSH1 0x40 PUSH0 KECCAK256 PUSH2 0x256B DUP5 DUP3 SLOAD PUSH2 0x5970 JUMP JUMPDEST SWAP1 SSTORE DUP5 PUSH0 MSTORE ADD PUSH1 0x20 MSTORE PUSH1 0x2 PUSH1 0x40 PUSH0 KECCAK256 ADD PUSH2 0x2586 DUP3 DUP3 SLOAD PUSH2 0x5970 JUMP JUMPDEST SWAP1 SSTORE CALLER PUSH0 MSTORE PUSH1 0xD PUSH1 0x20 MSTORE PUSH1 0x4 PUSH1 0x40 PUSH0 KECCAK256 ADD PUSH2 0x25A1 DUP2 SLOAD PUSH2 0x59C6 JUMP JUMPDEST SWAP1 SSTORE PUSH1 0x40 MLOAD SWAP3 DUP4 MSTORE PUSH1 0x20 DUP4 ADD MSTORE PUSH32 0xBA1358E4391D1F20B35776C79553F82C2795E406EB2237BCD294702BF75BD56D PUSH1 0x40 CALLER SWAP4 LOG3 PUSH1 0x1 DUP1 SSTORE STOP JUMPDEST PUSH2 0x25E7 CALLER PUSH1 0x14 DUP4 ADD PUSH2 0x5B37 JUMP JUMPDEST CALLER PUSH0 MSTORE PUSH1 0xD PUSH1 0x20 MSTORE PUSH1 0x40 PUSH0 KECCAK256 SLOAD PUSH2 0x2540 JUMPI PUSH2 0x2601 CALLER PUSH2 0x5AF2 JUMP JUMPDEST PUSH2 0x2540 JUMP JUMPDEST PUSH4 0xB8C66799 PUSH1 0xE0 SHL PUSH0 MSTORE PUSH1 0x4 PUSH0 REVERT JUMPDEST PUSH4 0x1D28DD2D PUSH1 0xE0 SHL PUSH0 MSTORE PUSH1 0x4 PUSH0 REVERT JUMPDEST PUSH4 0x2E98E03 PUSH1 0xE3 SHL PUSH0 MSTORE PUSH1 0x4 PUSH0 REVERT JUMPDEST PUSH4 0x6883C16D PUSH1 0xE0 SHL PUSH0 MSTORE PUSH1 0x4 PUSH0 REVERT JUMPDEST PUSH4 0x48C511C9 PUSH1 0xE1 SHL PUSH0 MSTORE PUSH1 0x4 PUSH0 REVERT JUMPDEST PUSH4 0x4E487B71 PUSH1 0xE0 SHL PUSH0 MSTORE PUSH1 0x21 PUSH1 0x4 MSTORE PUSH1 0x24 PUSH0 REVERT JUMPDEST CALLVALUE PUSH2 0x49D JUMPI PUSH0 CALLDATASIZE PUSH1 0x3 NOT ADD SLT PUSH2 0x49D JUMPI PUSH1 0x20 PUSH1 0x7 SLOAD PUSH1 0x40 MLOAD SWAP1 DUP2 MSTORE RETURN JUMPDEST CALLVALUE PUSH2 0x49D JUMPI PUSH1 0x20 CALLDATASIZE PUSH1 0x3 NOT ADD SLT PUSH2 0x49D JUMPI PUSH1 0x1 PUSH1 0x1 PUSH1 0xA0 SHL SUB PUSH2 0x26A3 PUSH2 0x558B JUMP JUMPDEST AND PUSH0 MSTORE PUSH1 0xD PUSH1 0x20 MSTORE PUSH1 0xA0 PUSH1 0x40 PUSH0 KECCAK256 DUP1 SLOAD SWAP1 PUSH1 0x1 DUP2 ADD SLOAD SWAP1 PUSH1 0x2 DUP2 ADD SLOAD PUSH1 0x4 PUSH1 0x3 DUP4 ADD SLOAD SWAP3 ADD SLOAD SWAP3 PUSH1 0x40 MLOAD SWAP5 DUP6 MSTORE PUSH1 0x20 DUP6 ADD MSTORE PUSH1 0x40 DUP5 ADD MSTORE PUSH1 0x60 DUP4 ADD MSTORE PUSH1 0x80 DUP3 ADD MSTORE RETURN JUMPDEST CALLVALUE PUSH2 0x49D JUMPI PUSH1 0x20 CALLDATASIZE PUSH1 0x3 NOT ADD SLT PUSH2 0x49D JUMPI PUSH1 0x1 PUSH1 0x1 PUSH1 0xA0 SHL SUB PUSH2 0x2707 PUSH2 0x558B JUMP JUMPDEST AND PUSH0 MSTORE PUSH1 0x14 PUSH1 0x20 MSTORE PUSH1 0x20 PUSH1 0x40 PUSH0 KECCAK256 SLOAD PUSH1 0x40 MLOAD SWAP1 DUP2 MSTORE RETURN JUMPDEST CALLVALUE PUSH2 0x49D JUMPI PUSH1 0x20 PUSH2 0x2751 PUSH2 0x2731 CALLDATASIZE PUSH2 0x55D0 JUMP JUMPDEST SWAP1 PUSH0 MSTORE PUSH1 0xC PUSH1 0x20 MSTORE PUSH1 0xF PUSH1 0x40 PUSH0 KECCAK256 ADD SWAP1 PUSH0 MSTORE PUSH1 0x20 MSTORE PUSH1 0x4 PUSH1 0x40 PUSH0 KECCAK256 ADD SLOAD SWAP1 JUMP JUMPDEST PUSH1 0x40 MLOAD SWAP1 DUP2 MSTORE RETURN JUMPDEST CALLVALUE PUSH2 0x49D JUMPI PUSH1 0x20 CALLDATASIZE PUSH1 0x3 NOT ADD SLT PUSH2 0x49D JUMPI PUSH2 0x21F4 PUSH2 0x2775 PUSH2 0x558B JUMP JUMPDEST PUSH2 0x277D PUSH2 0x5B54 JUMP JUMPDEST PUSH32 0xD486618B282CB35034D59C30C062B5B3822D6CDF87EC459191CE7F5B7B8A4873 PUSH0 MSTORE PUSH1 0x2 PUSH1 0x20 MSTORE PUSH32 0xD3DCCF8D8289B9DEEE17E361620D7577DE7B525DD57F668D5C1BB85EC53112B6 SLOAD PUSH2 0x27D0 SWAP1 PUSH2 0x5B95 JUMP JUMPDEST PUSH2 0x5D20 JUMP JUMPDEST CALLVALUE PUSH2 0x49D JUMPI PUSH1 0x20 CALLDATASIZE PUSH1 0x3 NOT ADD SLT PUSH2 0x49D JUMPI PUSH1 0x4 CALLDATALOAD PUSH1 0x6 SLOAD DUP2 LT ISZERO PUSH2 0x524 JUMPI CALLER PUSH0 SWAP1 DUP2 MSTORE PUSH32 0xD3DCCF8D8289B9DEEE17E361620D7577DE7B525DD57F668D5C1BB85EC53112B5 PUSH1 0x20 MSTORE PUSH1 0x40 SWAP1 KECCAK256 SLOAD PUSH1 0xFF AND ISZERO DUP1 PUSH2 0x28A2 JUMPI JUMPDEST PUSH2 0xE1D JUMPI DUP1 PUSH0 MSTORE PUSH1 0xC PUSH1 0x20 MSTORE PUSH1 0xFF PUSH1 0x5 PUSH1 0x40 PUSH0 KECCAK256 ADD SLOAD PUSH1 0x10 SHR AND PUSH2 0x2893 JUMPI DUP1 PUSH0 MSTORE PUSH1 0xC PUSH1 0x20 MSTORE PUSH1 0x5 PUSH1 0x40 PUSH0 KECCAK256 ADD PUSH3 0x10000 PUSH3 0xFF0000 NOT DUP3 SLOAD AND OR SWAP1 SSTORE PUSH32 0xCD5B0C95D548CDBA5F9A45B4210642D0B866A0CC878E0A863855455908C6DB65 PUSH1 0x20 PUSH1 0x40 MLOAD CALLER DUP2 MSTORE LOG2 STOP JUMPDEST PUSH4 0xAA43CB2D PUSH1 0xE0 SHL PUSH0 MSTORE PUSH1 0x4 PUSH0 REVERT JUMPDEST POP PUSH0 SLOAD PUSH1 0x1 PUSH1 0x1 PUSH1 0xA0 SHL SUB AND CALLER EQ ISZERO PUSH2 0x282B JUMP JUMPDEST CALLVALUE PUSH2 0x49D JUMPI PUSH2 0x218D PUSH2 0x233F CALLDATASIZE PUSH2 0x5819 JUMP JUMPDEST CALLVALUE PUSH2 0x49D JUMPI PUSH2 0x28D5 CALLDATASIZE PUSH2 0x57E6 JUMP JUMPDEST SWAP2 PUSH0 MSTORE PUSH1 0x10 PUSH1 0x20 MSTORE PUSH1 0x40 PUSH0 KECCAK256 SWAP1 PUSH0 MSTORE PUSH1 0x20 MSTORE PUSH1 0x40 PUSH0 KECCAK256 DUP1 SLOAD DUP3 LT ISZERO PUSH2 0x49D JUMPI PUSH1 0x60 SWAP2 PUSH2 0x2900 SWAP2 PUSH2 0x5800 JUMP JUMPDEST POP DUP1 SLOAD SWAP1 PUSH1 0x2 PUSH1 0x1 DUP3 ADD SLOAD SWAP2 ADD SLOAD SWAP1 PUSH1 0x40 MLOAD SWAP3 DUP4 MSTORE PUSH1 0x20 DUP4 ADD MSTORE PUSH1 0x40 DUP3 ADD MSTORE RETURN JUMPDEST CALLVALUE PUSH2 0x49D JUMPI PUSH1 0x20 CALLDATASIZE PUSH1 0x3 NOT ADD SLT PUSH2 0x49D JUMPI PUSH2 0x293A PUSH2 0x558B JUMP JUMPDEST PUSH2 0x2942 PUSH2 0x5B54 JUMP JUMPDEST PUSH1 0x1 PUSH1 0x1 PUSH1 0xA0 SHL SUB AND DUP1 ISZERO PUSH2 0x447 JUMPI PUSH1 0xA DUP1 SLOAD PUSH1 0x1 PUSH1 0x1 PUSH1 0xA0 SHL SUB NOT DUP2 AND DUP4 OR SWAP1 SWAP2 SSTORE PUSH1 0x1 PUSH1 0x1 PUSH1 0xA0 SHL SUB AND PUSH32 0x5D16AD41BAEB009CD23EB8F6C7CDE5C2E0CD5ACF4A33926AB488875C37C37F38 PUSH0 DUP1 LOG3 STOP JUMPDEST CALLVALUE PUSH2 0x49D JUMPI PUSH0 CALLDATASIZE PUSH1 0x3 NOT ADD SLT PUSH2 0x49D JUMPI PUSH1 0x20 PUSH1 0x40 MLOAD PUSH0 DUP2 MSTORE RETURN JUMPDEST CALLVALUE PUSH2 0x49D JUMPI PUSH1 0x20 CALLDATASIZE PUSH1 0x3 NOT ADD SLT PUSH2 0x49D JUMPI PUSH1 0x4 CALLDATALOAD PUSH2 0x29CA PUSH2 0x5E52 JUMP JUMPDEST PUSH1 0x6 SLOAD DUP2 LT ISZERO PUSH2 0x524 JUMPI DUP1 PUSH0 MSTORE PUSH1 0xC PUSH1 0x20 MSTORE PUSH1 0x40 PUSH0 KECCAK256 SWAP1 PUSH1 0x12 DUP3 ADD SWAP2 PUSH1 0x1 DUP1 PUSH1 0xA0 SHL SUB CALLER AND PUSH0 MSTORE DUP3 PUSH1 0x20 MSTORE PUSH1 0x40 PUSH0 KECCAK256 SLOAD ISZERO PUSH2 0x2B45 JUMPI PUSH1 0x13 DUP2 ADD SWAP3 PUSH1 0x1 DUP1 PUSH1 0xA0 SHL SUB CALLER AND PUSH0 MSTORE DUP4 PUSH1 0x20 MSTORE PUSH1 0xFF PUSH1 0x40 PUSH0 KECCAK256 SLOAD AND PUSH2 0x2B36 JUMPI PUSH1 0xD DUP3 ADD SLOAD SWAP2 DUP3 ISZERO PUSH2 0x2B27 JUMPI PUSH1 0xB ADD SLOAD CALLER PUSH0 SWAP1 DUP2 MSTORE PUSH1 0x20 SWAP3 SWAP1 SWAP3 MSTORE PUSH1 0x40 SWAP1 SWAP2 KECCAK256 SLOAD PUSH2 0x2A52 SWAP3 PUSH2 0x2A4D SWAP2 PUSH2 0x597D JUMP JUMPDEST PUSH2 0x5990 JUMP JUMPDEST SWAP2 DUP3 ISZERO PUSH2 0x2B27 JUMPI CALLER PUSH0 SWAP1 DUP2 MSTORE PUSH1 0x20 SWAP2 DUP3 MSTORE PUSH1 0x40 DUP1 DUP3 KECCAK256 DUP1 SLOAD PUSH1 0xFF NOT AND PUSH1 0x1 OR SWAP1 SSTORE PUSH1 0x15 SWAP1 SWAP3 MSTORE KECCAK256 DUP1 SLOAD PUSH2 0x2A86 SWAP1 DUP5 SWAP1 PUSH2 0x5970 JUMP JUMPDEST SWAP1 SSTORE PUSH1 0x3 SLOAD PUSH1 0x40 MLOAD PUSH4 0xA9059CBB PUSH1 0xE0 SHL DUP2 MSTORE CALLER PUSH1 0x4 DUP3 ADD MSTORE PUSH1 0x24 DUP2 ADD DUP5 SWAP1 MSTORE SWAP1 PUSH1 0x20 SWAP1 DUP3 SWAP1 PUSH1 0x8 SHR PUSH1 0x1 PUSH1 0x1 PUSH1 0xA0 SHL SUB AND DUP2 PUSH0 DUP2 PUSH1 0x44 DUP2 ADD SUB SWAP3 GAS CALL SWAP1 DUP2 ISZERO PUSH2 0xDBE JUMPI PUSH0 SWAP2 PUSH2 0x2B08 JUMPI JUMPDEST POP ISZERO PUSH2 0xD80 JUMPI PUSH1 0x40 MLOAD SWAP2 DUP3 MSTORE PUSH32 0xA43A50778AEE751DD1829F631AD20E6E54E5B672B014CA07F028797B1FE89C91 PUSH1 0x20 CALLER SWAP4 LOG3 PUSH1 0x1 DUP1 SSTORE STOP JUMPDEST PUSH2 0x2B21 SWAP2 POP PUSH1 0x20 RETURNDATASIZE PUSH1 0x20 GT PUSH2 0xDB7 JUMPI PUSH2 0xDA9 DUP2 DUP4 PUSH2 0x56B0 JUMP JUMPDEST DUP4 PUSH2 0x2AD0 JUMP JUMPDEST PUSH4 0xEA1A19B PUSH1 0xE2 SHL PUSH0 MSTORE PUSH1 0x4 PUSH0 REVERT JUMPDEST PUSH4 0xC8D9EAB PUSH1 0xE3 SHL PUSH0 MSTORE PUSH1 0x4 PUSH0 REVERT JUMPDEST PUSH4 0xEEEC57A1 PUSH1 0xE0 SHL PUSH0 MSTORE PUSH1 0x4 PUSH0 REVERT JUMPDEST CALLVALUE PUSH2 0x49D JUMPI PUSH1 0x20 CALLDATASIZE PUSH1 0x3 NOT ADD SLT PUSH2 0x49D JUMPI PUSH1 0x1 PUSH1 0x1 PUSH1 0xA0 SHL SUB PUSH2 0x2B75 PUSH2 0x558B JUMP JUMPDEST AND PUSH0 MSTORE PUSH1 0x15 PUSH1 0x20 MSTORE PUSH1 0x20 PUSH1 0x40 PUSH0 KECCAK256 SLOAD PUSH1 0x40 MLOAD SWAP1 DUP2 MSTORE RETURN JUMPDEST CALLVALUE PUSH2 0x49D JUMPI PUSH0 CALLDATASIZE PUSH1 0x3 NOT ADD SLT PUSH2 0x49D JUMPI PUSH1 0x20 PUSH1 0x40 MLOAD PUSH2 0xE10 DUP2 MSTORE RETURN JUMPDEST CALLVALUE PUSH2 0x49D JUMPI PUSH1 0x20 CALLDATASIZE PUSH1 0x3 NOT ADD SLT PUSH2 0x49D JUMPI PUSH1 0x4 CALLDATALOAD PUSH2 0x2BC4 PUSH2 0x5B54 JUMP JUMPDEST PUSH2 0x3E8 DUP2 GT PUSH2 0x2BD2 JUMPI PUSH1 0x8 SSTORE STOP JUMPDEST PUSH4 0xCD4E6167 PUSH1 0xE0 SHL PUSH0 MSTORE PUSH1 0x4 PUSH0 REVERT JUMPDEST CALLVALUE PUSH2 0x49D JUMPI PUSH1 0x40 CALLDATASIZE PUSH1 0x3 NOT ADD SLT PUSH2 0x49D JUMPI PUSH2 0x2BFA PUSH2 0x55A1 JUMP JUMPDEST PUSH1 0x4 CALLDATALOAD PUSH0 MSTORE PUSH1 0x2 PUSH1 0x20 MSTORE PUSH1 0x40 PUSH0 KECCAK256 SWAP1 PUSH1 0x1 DUP1 PUSH1 0xA0 SHL SUB AND PUSH0 MSTORE PUSH1 0x20 MSTORE PUSH1 0x20 PUSH1 0xFF PUSH1 0x40 PUSH0 KECCAK256 SLOAD AND PUSH1 0x40 MLOAD SWAP1 ISZERO ISZERO DUP2 MSTORE RETURN JUMPDEST CALLVALUE PUSH2 0x49D JUMPI PUSH0 CALLDATASIZE PUSH1 0x3 NOT ADD SLT PUSH2 0x49D JUMPI PUSH0 SLOAD PUSH1 0x40 MLOAD PUSH1 0x1 PUSH1 0x1 PUSH1 0xA0 SHL SUB SWAP1 SWAP2 AND DUP2 MSTORE PUSH1 0x20 SWAP1 RETURN JUMPDEST CALLVALUE PUSH2 0x49D JUMPI PUSH1 0x20 CALLDATASIZE PUSH1 0x3 NOT ADD SLT PUSH2 0x49D JUMPI PUSH1 0x1 PUSH1 0x1 PUSH1 0xA0 SHL SUB PUSH2 0x2C72 PUSH2 0x558B JUMP JUMPDEST AND PUSH0 MSTORE PUSH1 0x12 PUSH1 0x20 MSTORE PUSH1 0x20 PUSH1 0x40 PUSH0 KECCAK256 SLOAD PUSH1 0x40 MLOAD SWAP1 DUP2 MSTORE RETURN JUMPDEST CALLVALUE PUSH2 0x49D JUMPI PUSH0 CALLDATASIZE PUSH1 0x3 NOT ADD SLT PUSH2 0x49D JUMPI PUSH2 0x2CA1 PUSH2 0x5B54 JUMP JUMPDEST PUSH2 0x2CA9 PUSH2 0x5B7A JUMP JUMPDEST PUSH1 0x1 PUSH1 0xFF NOT PUSH1 0x3 SLOAD AND OR PUSH1 0x3 SSTORE PUSH32 0x62E78CEA01BEE320CD4E420270B5EA74000D11B0C9F74754EBDBFC544B05A258 PUSH1 0x20 PUSH1 0x40 MLOAD CALLER DUP2 MSTORE LOG1 STOP JUMPDEST CALLVALUE PUSH2 0x49D JUMPI PUSH1 0x40 CALLDATASIZE PUSH1 0x3 NOT ADD SLT PUSH2 0x49D JUMPI PUSH1 0x4 CALLDATALOAD PUSH2 0x2CFE PUSH2 0x55A1 JUMP JUMPDEST SWAP1 PUSH1 0x6 SLOAD DUP2 LT ISZERO PUSH2 0x524 JUMPI PUSH0 MSTORE PUSH1 0xC PUSH1 0x20 MSTORE PUSH1 0x40 PUSH0 KECCAK256 SWAP1 PUSH1 0xA DUP3 ADD SLOAD SWAP1 PUSH2 0x2D24 DUP3 PUSH2 0x593E JUMP JUMPDEST SWAP3 PUSH1 0x10 ADD SWAP1 PUSH1 0x1 PUSH1 0x1 PUSH1 0xA0 SHL SUB AND PUSH0 JUMPDEST DUP4 DUP2 LT PUSH2 0x2D49 JUMPI PUSH1 0x40 MLOAD DUP1 PUSH2 0x2385 DUP8 DUP3 PUSH2 0x560A JUMP JUMPDEST PUSH1 0x1 SWAP1 DUP3 PUSH0 MSTORE DUP4 PUSH1 0x20 MSTORE PUSH1 0x40 PUSH0 KECCAK256 DUP2 PUSH0 MSTORE PUSH1 0x20 MSTORE PUSH1 0x40 PUSH0 KECCAK256 SLOAD PUSH2 0x2D6C DUP3 DUP9 PUSH2 0x599A JUMP JUMPDEST MSTORE ADD PUSH2 0x2D34 JUMP JUMPDEST CALLVALUE PUSH2 0x49D JUMPI PUSH0 CALLDATASIZE PUSH1 0x3 NOT ADD SLT PUSH2 0x49D JUMPI PUSH1 0x20 PUSH1 0xB SLOAD PUSH1 0x40 MLOAD SWAP1 DUP2 MSTORE RETURN JUMPDEST CALLVALUE PUSH2 0x49D JUMPI PUSH0 CALLDATASIZE PUSH1 0x3 NOT ADD SLT PUSH2 0x49D JUMPI PUSH1 0x20 PUSH1 0x40 MLOAD PUSH4 0x1E13380 DUP2 MSTORE RETURN JUMPDEST CALLVALUE PUSH2 0x49D JUMPI PUSH2 0x2DBC CALLDATASIZE PUSH2 0x57E6 JUMP JUMPDEST SWAP2 PUSH0 MSTORE PUSH1 0x10 PUSH1 0x20 MSTORE PUSH1 0x40 PUSH0 KECCAK256 SWAP1 PUSH0 MSTORE PUSH1 0x20 MSTORE PUSH1 0x40 PUSH0 KECCAK256 DUP1 SLOAD SWAP1 DUP2 DUP4 GT PUSH0 EQ PUSH2 0x2F0F JUMPI DUP2 JUMPDEST PUSH2 0x2DE9 DUP4 PUSH2 0x5726 JUMP JUMPDEST SWAP4 PUSH2 0x2DF7 PUSH1 0x40 MLOAD SWAP6 DUP7 PUSH2 0x56B0 JUMP JUMPDEST DUP4 DUP6 MSTORE PUSH1 0x1F NOT PUSH2 0x2E06 DUP6 PUSH2 0x5726 JUMP JUMPDEST ADD PUSH0 JUMPDEST DUP2 DUP2 LT PUSH2 0x2EE6 JUMPI POP POP DUP1 DUP3 GT ISZERO PUSH2 0x2EDE JUMPI PUSH2 0x2E23 SWAP2 PUSH2 0x5A59 JUMP JUMPDEST PUSH0 JUMPDEST DUP4 DUP2 LT PUSH2 0x2E88 JUMPI DUP5 PUSH1 0x40 MLOAD DUP1 SWAP2 PUSH1 0x20 DUP3 ADD PUSH1 0x20 DUP4 MSTORE DUP2 MLOAD DUP1 SWAP2 MSTORE PUSH1 0x20 PUSH1 0x40 DUP5 ADD SWAP3 ADD SWAP1 PUSH0 JUMPDEST DUP2 DUP2 LT PUSH2 0x2E58 JUMPI POP POP POP SUB SWAP1 RETURN JUMPDEST SWAP2 SWAP4 POP SWAP2 PUSH1 0x20 PUSH1 0x60 PUSH1 0x1 SWAP3 PUSH1 0x40 DUP8 MLOAD DUP1 MLOAD DUP4 MSTORE DUP5 DUP2 ADD MLOAD DUP6 DUP5 ADD MSTORE ADD MLOAD PUSH1 0x40 DUP3 ADD MSTORE ADD SWAP5 ADD SWAP2 ADD SWAP2 DUP5 SWAP4 SWAP3 PUSH2 0x2E4A JUMP JUMPDEST DUP1 PUSH2 0x2E9E PUSH2 0x2E98 PUSH1 0x1 SWAP4 DUP6 PUSH2 0x5970 JUMP JUMPDEST DUP6 PUSH2 0x5800 JUMP JUMPDEST POP PUSH1 0x2 PUSH1 0x40 MLOAD SWAP2 PUSH2 0x2EAE DUP4 PUSH2 0x565E JUMP JUMPDEST DUP1 SLOAD DUP4 MSTORE DUP5 DUP2 ADD SLOAD PUSH1 0x20 DUP5 ADD MSTORE ADD SLOAD PUSH1 0x40 DUP3 ADD MSTORE PUSH2 0x2ECC DUP3 DUP9 PUSH2 0x599A JUMP JUMPDEST MSTORE PUSH2 0x2ED7 DUP2 DUP8 PUSH2 0x599A JUMP JUMPDEST POP ADD PUSH2 0x2E25 JUMP JUMPDEST POP POP PUSH0 PUSH2 0x2E23 JUMP JUMPDEST PUSH1 0x20 SWAP1 PUSH1 0x40 MLOAD PUSH2 0x2EF5 DUP2 PUSH2 0x565E JUMP JUMPDEST PUSH0 DUP2 MSTORE PUSH0 DUP4 DUP3 ADD MSTORE PUSH0 PUSH1 0x40 DUP3 ADD MSTORE DUP3 DUP3 DUP11 ADD ADD MSTORE ADD PUSH2 0x2E09 JUMP JUMPDEST DUP3 SWAP2 PUSH2 0x2DE0 JUMP JUMPDEST CALLVALUE PUSH2 0x49D JUMPI PUSH0 CALLDATASIZE PUSH1 0x3 NOT ADD SLT PUSH2 0x49D JUMPI PUSH1 0x20 PUSH1 0x40 MLOAD PUSH32 0xEF485BE696BBC0C91AD541BBD553FFB5BD0E18DAC30BA76E992DDA23CB807A8A DUP2 MSTORE RETURN JUMPDEST CALLVALUE PUSH2 0x49D JUMPI PUSH0 CALLDATASIZE PUSH1 0x3 NOT ADD SLT PUSH2 0x49D JUMPI PUSH1 0x20 PUSH1 0x40 MLOAD PUSH32 0xDCEE1D35C83A32B436264A5C9AFD68685C124F3F9097E87804C55410E67FC59A DUP2 MSTORE RETURN JUMPDEST CALLVALUE PUSH2 0x49D JUMPI PUSH0 CALLDATASIZE PUSH1 0x3 NOT ADD SLT PUSH2 0x49D JUMPI PUSH2 0x2FA2 PUSH2 0x5B54 JUMP JUMPDEST PUSH0 DUP1 SLOAD PUSH1 0x1 PUSH1 0x1 PUSH1 0xA0 SHL SUB NOT DUP2 AND DUP3 SSTORE PUSH1 0x1 PUSH1 0x1 PUSH1 0xA0 SHL SUB AND PUSH32 0x8BE0079C531659141344CD1FD0A4F28419497F9722A3DAAFE3B4186F6B6457E0 DUP3 DUP1 LOG3 STOP JUMPDEST CALLVALUE PUSH2 0x49D JUMPI PUSH2 0x2FEF CALLDATASIZE PUSH2 0x55D0 JUMP JUMPDEST SWAP1 PUSH2 0x2FF8 PUSH2 0x5E52 JUMP JUMPDEST PUSH1 0x6 SLOAD DUP2 LT ISZERO PUSH2 0x524 JUMPI DUP2 ISZERO PUSH2 0x13F8 JUMPI PUSH1 0x3 SLOAD PUSH1 0x40 MLOAD PUSH4 0x23B872DD PUSH1 0xE0 SHL DUP2 MSTORE CALLER PUSH1 0x4 DUP3 ADD MSTORE ADDRESS PUSH1 0x24 DUP3 ADD MSTORE PUSH1 0x44 DUP2 ADD DUP5 SWAP1 MSTORE SWAP1 PUSH1 0x20 SWAP1 DUP3 SWAP1 PUSH1 0x8 SHR PUSH1 0x1 PUSH1 0x1 PUSH1 0xA0 SHL SUB AND DUP2 PUSH0 DUP2 PUSH1 0x64 DUP2 ADD SUB SWAP3 GAS CALL SWAP1 DUP2 ISZERO PUSH2 0xDBE JUMPI PUSH0 SWAP2 PUSH2 0x3159 JUMPI JUMPDEST POP ISZERO PUSH2 0xD80 JUMPI DUP1 PUSH0 MSTORE PUSH1 0xC PUSH1 0x20 MSTORE PUSH1 0x40 PUSH0 KECCAK256 SWAP1 PUSH1 0xB DUP3 ADD PUSH2 0x3078 DUP5 DUP3 SLOAD PUSH2 0x5970 JUMP JUMPDEST SWAP1 SSTORE CALLER PUSH0 SWAP1 DUP2 MSTORE PUSH1 0x12 DUP4 ADD PUSH1 0x20 DUP2 SWAP1 MSTORE PUSH1 0x40 SWAP1 SWAP2 KECCAK256 SLOAD ISZERO PUSH2 0x3147 JUMPI JUMPDEST PUSH1 0x1 DUP1 PUSH1 0xA0 SHL SUB CALLER AND PUSH0 MSTORE PUSH1 0x20 MSTORE PUSH1 0x40 PUSH0 KECCAK256 PUSH2 0x30B1 DUP5 DUP3 SLOAD PUSH2 0x5970 JUMP JUMPDEST SWAP1 SSTORE PUSH1 0xA DUP3 ADD SWAP2 PUSH2 0x30C3 DUP4 SLOAD DUP6 PUSH2 0x5990 JUMP JUMPDEST SWAP2 PUSH1 0xF PUSH0 SWAP3 ADD SWAP2 JUMPDEST DUP5 SLOAD DUP2 LT ISZERO PUSH2 0x3113 JUMPI DUP1 PUSH1 0x1 SWAP2 PUSH0 MSTORE DUP4 PUSH1 0x20 MSTORE PUSH1 0x6 PUSH1 0x40 PUSH0 KECCAK256 ADD PUSH2 0x30F0 DUP7 DUP3 SLOAD PUSH2 0x5970 JUMP JUMPDEST SWAP1 SSTORE DUP1 PUSH0 MSTORE DUP4 PUSH1 0x20 MSTORE PUSH1 0x7 PUSH1 0x40 PUSH0 KECCAK256 ADD PUSH2 0x310B DUP7 DUP3 SLOAD PUSH2 0x5970 JUMP JUMPDEST SWAP1 SSTORE ADD PUSH2 0x30CB JUMP JUMPDEST DUP6 DUP3 PUSH1 0x40 MLOAD SWAP2 DUP3 MSTORE PUSH32 0xC733C2813826D31C105DBFF518B08258E9E7AEB3EB1C7C7F642D77696FAF501D PUSH1 0x20 CALLER SWAP4 LOG3 PUSH1 0x1 DUP1 SSTORE STOP JUMPDEST PUSH2 0x3154 CALLER PUSH1 0x15 DUP6 ADD PUSH2 0x5B37 JUMP JUMPDEST PUSH2 0x3094 JUMP JUMPDEST PUSH2 0x3172 SWAP2 POP PUSH1 0x20 RETURNDATASIZE PUSH1 0x20 GT PUSH2 0xDB7 JUMPI PUSH2 0xDA9 DUP2 DUP4 PUSH2 0x56B0 JUMP JUMPDEST DUP4 PUSH2 0x3056 JUMP JUMPDEST CALLVALUE PUSH2 0x49D JUMPI PUSH1 0x20 CALLDATASIZE PUSH1 0x3 NOT ADD SLT PUSH2 0x49D JUMPI PUSH2 0x21F4 PUSH2 0x3194 PUSH2 0x558B JUMP JUMPDEST PUSH2 0x319C PUSH2 0x5B54 JUMP JUMPDEST PUSH32 0xEF485BE696BBC0C91AD541BBD553FFB5BD0E18DAC30BA76E992DDA23CB807A8A PUSH0 MSTORE PUSH1 0x2 PUSH1 0x20 MSTORE PUSH32 0x30D995518B427F5A5863AD73FE356CA50CF70941F42C516830919C845FA58070 SLOAD PUSH2 0x31EF SWAP1 PUSH2 0x5B95 JUMP JUMPDEST PUSH2 0x5C8D JUMP JUMPDEST CALLVALUE PUSH2 0x49D JUMPI PUSH1 0x20 CALLDATASIZE PUSH1 0x3 NOT ADD SLT PUSH2 0x49D JUMPI PUSH1 0x4 CALLDATALOAD PUSH2 0x3210 PUSH2 0x5E52 JUMP JUMPDEST PUSH1 0x6 SLOAD DUP2 LT ISZERO PUSH2 0x524 JUMPI DUP1 PUSH0 MSTORE PUSH1 0xC PUSH1 0x20 MSTORE PUSH1 0x40 PUSH0 KECCAK256 SWAP1 PUSH1 0x5 DUP3 ADD SLOAD PUSH1 0xFF DUP2 AND ISZERO SWAP1 DUP2 ISZERO PUSH2 0x3411 JUMPI JUMPDEST POP PUSH2 0x3402 JUMPI PUSH1 0x11 DUP3 ADD SWAP2 PUSH1 0x1 DUP1 PUSH1 0xA0 SHL SUB CALLER AND PUSH0 MSTORE DUP3 PUSH1 0x20 MSTORE PUSH1 0xFF PUSH1 0x40 PUSH0 KECCAK256 SLOAD AND PUSH2 0x2B36 JUMPI CALLER PUSH0 SWAP1 DUP2 MSTORE PUSH1 0x10 DUP3 ADD PUSH1 0x20 SWAP1 DUP2 MSTORE PUSH1 0x40 DUP1 DUP4 KECCAK256 PUSH1 0x4 DUP6 ADD SLOAD DUP1 DUP6 MSTORE SWAP3 MSTORE SWAP1 SWAP2 KECCAK256 SLOAD SWAP1 DUP2 ISZERO PUSH2 0x33F3 JUMPI DUP3 PUSH2 0x2A4D PUSH2 0x32FB SWAP3 PUSH1 0xF PUSH2 0x3301 SWAP7 ADD DUP2 PUSH0 MSTORE DUP1 PUSH1 0x20 MSTORE PUSH2 0x32D4 PUSH1 0x7 PUSH1 0x2 PUSH1 0x40 PUSH0 KECCAK256 ADD SLOAD SWAP6 ADD SLOAD DUP4 PUSH0 MSTORE DUP3 PUSH1 0x20 MSTORE PUSH8 0xDE0B6B3A7640000 PUSH2 0x32CD PUSH1 0x4 PUSH1 0x40 PUSH0 KECCAK256 ADD SLOAD DUP9 PUSH2 0x597D JUMP JUMPDEST DIV SWAP1 PUSH2 0x5A59 JUMP JUMPDEST SWAP2 PUSH0 MSTORE PUSH1 0x20 MSTORE PUSH8 0xDE0B6B3A7640000 PUSH2 0x32F4 PUSH1 0x4 PUSH1 0x40 PUSH0 KECCAK256 ADD SLOAD DUP8 PUSH2 0x597D JUMP JUMPDEST DIV SWAP5 PUSH2 0x597D JUMP JUMPDEST SWAP1 PUSH2 0x5970 JUMP JUMPDEST SWAP2 PUSH1 0x1 DUP1 PUSH1 0xA0 SHL SUB CALLER AND PUSH0 MSTORE PUSH1 0x20 MSTORE PUSH1 0x40 PUSH0 KECCAK256 PUSH1 0x1 PUSH1 0xFF NOT DUP3 SLOAD AND OR SWAP1 SSTORE CALLER PUSH0 MSTORE PUSH1 0xD PUSH1 0x20 MSTORE PUSH1 0x1 PUSH1 0x40 PUSH0 KECCAK256 ADD PUSH2 0x3339 DUP4 DUP3 SLOAD PUSH2 0x5970 JUMP JUMPDEST SWAP1 SSTORE CALLER PUSH0 MSTORE PUSH1 0x12 PUSH1 0x20 MSTORE PUSH1 0x40 PUSH0 KECCAK256 PUSH2 0x3352 DUP4 DUP3 SLOAD PUSH2 0x5970 JUMP JUMPDEST SWAP1 SSTORE PUSH1 0x3 SLOAD PUSH1 0x40 MLOAD PUSH4 0xA9059CBB PUSH1 0xE0 SHL DUP2 MSTORE CALLER PUSH1 0x4 DUP3 ADD MSTORE PUSH1 0x24 DUP2 ADD DUP5 SWAP1 MSTORE SWAP1 PUSH1 0x20 SWAP1 DUP3 SWAP1 PUSH1 0x8 SHR PUSH1 0x1 PUSH1 0x1 PUSH1 0xA0 SHL SUB AND DUP2 PUSH0 DUP2 PUSH1 0x44 DUP2 ADD SUB SWAP3 GAS CALL SWAP1 DUP2 ISZERO PUSH2 0xDBE JUMPI PUSH0 SWAP2 PUSH2 0x33D4 JUMPI JUMPDEST POP ISZERO PUSH2 0xD80 JUMPI PUSH1 0x40 MLOAD SWAP2 DUP3 MSTORE PUSH32 0x4EC90E965519D92681267467F775ADA5BD214AA92C0DC93D90A5E880CE9ED026 PUSH1 0x20 CALLER SWAP4 LOG3 PUSH1 0x1 DUP1 SSTORE STOP JUMPDEST PUSH2 0x33ED SWAP2 POP PUSH1 0x20 RETURNDATASIZE PUSH1 0x20 GT PUSH2 0xDB7 JUMPI PUSH2 0xDA9 DUP2 DUP4 PUSH2 0x56B0 JUMP JUMPDEST DUP4 PUSH2 0x339C JUMP JUMPDEST PUSH4 0x843F941B PUSH1 0xE0 SHL PUSH0 MSTORE PUSH1 0x4 PUSH0 REVERT JUMPDEST PUSH4 0x56C5D21D PUSH1 0xE0 SHL PUSH0 MSTORE PUSH1 0x4 PUSH0 REVERT JUMPDEST PUSH1 0xFF SWAP2 POP PUSH1 0x8 SHR AND DUP4 PUSH2 0x3239 JUMP JUMPDEST CALLVALUE PUSH2 0x49D JUMPI PUSH2 0x342D CALLDATASIZE PUSH2 0x55D0 JUMP JUMPDEST PUSH1 0x6 SLOAD DUP3 LT ISZERO PUSH2 0x524 JUMPI PUSH0 SLOAD PUSH1 0x1 PUSH1 0x1 PUSH1 0xA0 SHL SUB AND CALLER EQ ISZERO DUP1 PUSH2 0x34E2 JUMPI JUMPDEST PUSH2 0xE1D JUMPI DUP2 PUSH0 MSTORE PUSH1 0xC PUSH1 0x20 MSTORE PUSH1 0x40 PUSH0 KECCAK256 SWAP1 PUSH1 0x2 DUP3 ADD SLOAD TIMESTAMP LT PUSH2 0x34D3 JUMPI PUSH1 0x5 DUP3 ADD SWAP1 DUP2 SLOAD SWAP2 PUSH1 0xFF DUP4 AND PUSH2 0x2893 JUMPI PUSH1 0xA DUP5 ADD SLOAD DUP3 LT ISZERO PUSH2 0x34C4 JUMPI PUSH1 0x1 PUSH1 0x40 SWAP4 DUP4 PUSH1 0x4 PUSH32 0xC160A477581CB2155B1578581D805DCC0E6623403811FC2853465045BC0B0492 SWAP8 ADD SSTORE PUSH1 0xFF NOT AND OR SWAP1 SSTORE DUP2 MLOAD SWAP1 DUP2 MSTORE CALLER PUSH1 0x20 DUP3 ADD MSTORE LOG2 STOP JUMPDEST PUSH4 0x1387E783 PUSH1 0xE1 SHL PUSH0 MSTORE PUSH1 0x4 PUSH0 REVERT JUMPDEST PUSH4 0x123099E1 PUSH1 0xE1 SHL PUSH0 MSTORE PUSH1 0x4 PUSH0 REVERT JUMPDEST POP CALLER PUSH0 SWAP1 DUP2 MSTORE PUSH32 0x8E2C297E756B2A427C5DC4607F639842A8EA6E0F6322302F4EA76306B642CFC2 PUSH1 0x20 MSTORE PUSH1 0x40 SWAP1 KECCAK256 SLOAD PUSH1 0xFF AND ISZERO PUSH2 0x344B JUMP JUMPDEST CALLVALUE PUSH2 0x49D JUMPI PUSH0 CALLDATASIZE PUSH1 0x3 NOT ADD SLT PUSH2 0x49D JUMPI PUSH1 0x20 PUSH1 0xFF PUSH1 0x3 SLOAD AND PUSH1 0x40 MLOAD SWAP1 ISZERO ISZERO DUP2 MSTORE RETURN JUMPDEST CALLVALUE PUSH2 0x49D JUMPI PUSH2 0x354A CALLDATASIZE PUSH2 0x57C8 JUMP JUMPDEST PUSH2 0x3552 PUSH2 0x5E52 JUMP JUMPDEST PUSH2 0x355A PUSH2 0x5B7A JUMP JUMPDEST PUSH1 0x6 SLOAD DUP5 LT ISZERO PUSH2 0x524 JUMPI DUP4 PUSH0 MSTORE PUSH1 0xC PUSH1 0x20 MSTORE PUSH1 0x2 PUSH1 0x40 PUSH0 KECCAK256 ADD SLOAD TIMESTAMP LT ISZERO PUSH2 0x1434 JUMPI DUP4 PUSH0 MSTORE PUSH1 0xC PUSH1 0x20 MSTORE PUSH1 0xFF PUSH1 0x5 PUSH1 0x40 PUSH0 KECCAK256 ADD SLOAD AND PUSH2 0x1425 JUMPI DUP4 PUSH0 MSTORE PUSH1 0xC PUSH1 0x20 MSTORE PUSH1 0xA PUSH1 0x40 PUSH0 KECCAK256 ADD SLOAD DUP4 LT ISZERO PUSH2 0x1416 JUMPI DUP4 PUSH0 MSTORE PUSH1 0xC PUSH1 0x20 MSTORE PUSH1 0xF PUSH1 0x40 PUSH0 KECCAK256 ADD DUP4 PUSH0 MSTORE PUSH1 0x20 MSTORE PUSH1 0xFF PUSH1 0x5 PUSH1 0x40 PUSH0 KECCAK256 ADD SLOAD AND ISZERO PUSH2 0x1407 JUMPI DUP2 ISZERO PUSH2 0x13F8 JUMPI PUSH0 DUP5 DUP2 MSTORE PUSH1 0xC PUSH1 0x20 SWAP1 DUP2 MSTORE PUSH1 0x40 DUP1 DUP4 KECCAK256 CALLER DUP5 MSTORE PUSH1 0x10 ADD DUP3 MSTORE DUP1 DUP4 KECCAK256 DUP7 DUP5 MSTORE SWAP1 SWAP2 MSTORE SWAP1 KECCAK256 SLOAD DUP3 GT PUSH2 0x1760 JUMPI PUSH0 DUP5 DUP2 MSTORE PUSH1 0xC PUSH1 0x20 SWAP1 DUP2 MSTORE PUSH1 0x40 DUP1 DUP4 KECCAK256 DUP7 DUP5 MSTORE PUSH1 0xF DUP2 ADD SWAP1 SWAP3 MSTORE SWAP1 SWAP2 KECCAK256 PUSH1 0x4 DUP2 ADD SLOAD SWAP2 SWAP3 DUP3 LT PUSH2 0x397C JUMPI PUSH8 0xDE0B6B3A7640000 PUSH2 0x363B DUP6 DUP5 PUSH2 0x597D JUMP JUMPDEST DIV SWAP1 PUSH2 0x2710 PUSH2 0x364C PUSH1 0x8 SLOAD DUP5 PUSH2 0x597D JUMP JUMPDEST DIV SWAP4 PUSH1 0xC PUSH2 0x365A DUP7 DUP6 PUSH2 0x5A59 JUMP JUMPDEST SWAP2 PUSH1 0x1 DUP1 PUSH1 0xA0 SHL SUB CALLER AND PUSH0 MSTORE PUSH1 0x10 DUP2 ADD PUSH1 0x20 MSTORE PUSH1 0x40 PUSH0 KECCAK256 DUP10 PUSH0 MSTORE PUSH1 0x20 MSTORE PUSH1 0x40 PUSH0 KECCAK256 PUSH2 0x3686 DUP10 DUP3 SLOAD PUSH2 0x5A59 JUMP JUMPDEST SWAP1 SSTORE PUSH1 0x2 DUP5 ADD PUSH2 0x3697 DUP10 DUP3 SLOAD PUSH2 0x5A59 JUMP JUMPDEST SWAP1 SSTORE PUSH1 0x3 DUP5 ADD PUSH2 0x36A8 DUP7 DUP3 SLOAD PUSH2 0x5970 JUMP JUMPDEST SWAP1 SSTORE PUSH1 0x8 DUP2 ADD PUSH2 0x36B9 DUP7 DUP3 SLOAD PUSH2 0x5970 JUMP JUMPDEST SWAP1 SSTORE ADD PUSH2 0x36C7 DUP7 DUP3 SLOAD PUSH2 0x5970 JUMP JUMPDEST SWAP1 SSTORE PUSH2 0x36D5 DUP6 PUSH1 0xB SLOAD PUSH2 0x5970 JUMP JUMPDEST PUSH1 0xB SSTORE DUP8 PUSH0 MSTORE PUSH1 0xC PUSH1 0x20 MSTORE PUSH1 0xF PUSH1 0x40 PUSH0 KECCAK256 ADD DUP8 PUSH0 MSTORE PUSH1 0x20 MSTORE PUSH1 0x40 PUSH0 KECCAK256 PUSH1 0x6 PUSH1 0x7 DUP3 ADD SLOAD SWAP2 ADD SLOAD SWAP1 DUP8 DUP1 DUP3 GT PUSH0 EQ PUSH2 0x3972 JUMPI PUSH2 0x370F SWAP2 PUSH2 0x5A59 JUMP JUMPDEST SWAP1 JUMPDEST PUSH8 0xDE0B6B3A7640000 DUP2 MUL SWAP1 DUP1 DUP3 DIV PUSH8 0xDE0B6B3A7640000 EQ SWAP1 ISZERO OR ISZERO PUSH2 0xEF8 JUMPI PUSH1 0x4 SWAP2 PUSH2 0x373E SWAP2 PUSH2 0x5990 JUMP JUMPDEST SWAP3 ADD SWAP2 DUP3 SSTORE PUSH8 0xDE0B6B3A7640000 PUSH2 0x3756 DUP8 DUP7 PUSH2 0x597D JUMP JUMPDEST DIV SWAP1 PUSH0 DUP3 DUP3 SUB SWAP3 SLT DUP2 DUP4 SLT DUP2 AND SWAP1 DUP3 DUP5 SGT SWAP1 ISZERO AND OR PUSH2 0xEF8 JUMPI CALLER PUSH0 MSTORE PUSH1 0xD PUSH1 0x20 MSTORE PUSH1 0x3 PUSH1 0x40 PUSH0 KECCAK256 ADD DUP1 SLOAD PUSH0 DUP5 DUP3 ADD SWAP5 DUP6 SLT SWAP2 SLT SWAP1 DUP1 ISZERO DUP3 AND SWAP2 ISZERO AND OR PUSH2 0xEF8 JUMPI PUSH0 SWAP5 PUSH1 0x20 SWAP5 PUSH2 0x388A SWAP5 PUSH2 0x37F3 SWAP4 SSTORE CALLER DUP8 MSTORE PUSH1 0xD DUP7 MSTORE PUSH1 0x4 PUSH1 0x40 DUP9 KECCAK256 ADD PUSH2 0x37BC DUP2 SLOAD PUSH2 0x59C6 JUMP JUMPDEST SWAP1 SSTORE DUP12 DUP8 MSTORE PUSH1 0x10 DUP7 MSTORE PUSH1 0x40 DUP8 KECCAK256 DUP12 DUP9 MSTORE DUP7 MSTORE PUSH1 0x40 DUP8 KECCAK256 SWAP1 SLOAD SWAP2 PUSH1 0x40 MLOAD SWAP3 PUSH2 0x37E2 DUP5 PUSH2 0x565E JUMP JUMPDEST DUP4 MSTORE TIMESTAMP DUP8 DUP5 ADD MSTORE PUSH1 0x40 DUP4 ADD MSTORE PUSH2 0x59D4 JUMP JUMPDEST PUSH2 0x384C PUSH1 0x40 MLOAD PUSH2 0x3802 DUP2 PUSH2 0x5679 JUMP JUMPDEST DUP11 DUP2 MSTORE DUP10 DUP6 DUP3 ADD MSTORE DUP6 PUSH1 0x40 DUP3 ADD MSTORE CALLER PUSH1 0x60 DUP3 ADD MSTORE DUP7 PUSH1 0x80 DUP3 ADD MSTORE DUP9 PUSH1 0xA0 DUP3 ADD MSTORE TIMESTAMP PUSH1 0xC0 DUP3 ADD MSTORE CALLER DUP7 MSTORE PUSH1 0xE DUP6 MSTORE PUSH2 0x383C DUP2 PUSH1 0x40 DUP9 KECCAK256 PUSH2 0x5A66 JUMP JUMPDEST DUP11 DUP7 MSTORE PUSH1 0xF DUP6 MSTORE PUSH1 0x40 DUP7 KECCAK256 PUSH2 0x5A66 JUMP JUMPDEST PUSH1 0x3 SLOAD PUSH1 0x40 MLOAD PUSH4 0xA9059CBB PUSH1 0xE0 SHL DUP2 MSTORE CALLER PUSH1 0x4 DUP3 ADD MSTORE PUSH1 0x24 DUP2 ADD SWAP3 SWAP1 SWAP3 MSTORE SWAP1 SWAP4 DUP5 SWAP3 PUSH1 0x8 SWAP3 SWAP1 SWAP3 SHR PUSH1 0x1 PUSH1 0x1 PUSH1 0xA0 SHL SUB AND SWAP2 DUP4 SWAP2 SWAP1 DUP3 SWAP1 PUSH1 0x44 DUP3 ADD SWAP1 JUMP JUMPDEST SUB SWAP3 GAS CALL SWAP1 DUP2 ISZERO PUSH2 0xDBE JUMPI PUSH0 SWAP2 PUSH2 0x3953 JUMPI JUMPDEST POP ISZERO PUSH2 0xD80 JUMPI PUSH32 0xAF7C505EE772EC188AF7067E1F73DB08AB028E3D564273442B907742B9C41FA0 SWAP4 DUP6 PUSH32 0x976184626638B6C7E51A4AB66B297BEB1714B545CE4E867A70D622566573098C PUSH1 0x80 PUSH0 SWAP5 PUSH1 0x20 SWAP8 PUSH1 0x40 MLOAD DUP2 DUP2 MSTORE DUP3 DUP11 DUP3 ADD MSTORE DUP7 DUP7 PUSH32 0x33C49DA1FF633FF516CC2661D0CD94AF11B7B76985B6FE549151782C14DB745A PUSH1 0x40 CALLER SWAP5 LOG4 PUSH1 0x7 SLOAD SWAP1 PUSH2 0x392D DUP3 PUSH2 0x59C6 JUMP JUMPDEST PUSH1 0x7 SSTORE PUSH1 0x40 MLOAD SWAP3 CALLER DUP5 MSTORE DUP11 DUP5 ADD MSTORE PUSH1 0x40 DUP4 ADD MSTORE PUSH1 0x60 DUP3 ADD MSTORE LOG4 PUSH1 0x40 MLOAD SWAP1 DUP2 MSTORE LOG2 PUSH1 0x1 DUP1 SSTORE STOP JUMPDEST PUSH2 0x396C SWAP2 POP PUSH1 0x20 RETURNDATASIZE PUSH1 0x20 GT PUSH2 0xDB7 JUMPI PUSH2 0xDA9 DUP2 DUP4 PUSH2 0x56B0 JUMP JUMPDEST DUP7 PUSH2 0x389C JUMP JUMPDEST POP PUSH1 0x1 SHR SWAP1 PUSH2 0x3711 JUMP JUMPDEST PUSH4 0x6DDDF411 PUSH1 0xE1 SHL PUSH0 MSTORE PUSH1 0x4 PUSH0 REVERT JUMPDEST CALLVALUE PUSH2 0x49D JUMPI PUSH0 CALLDATASIZE PUSH1 0x3 NOT ADD SLT PUSH2 0x49D JUMPI PUSH1 0x4 SLOAD PUSH1 0x40 MLOAD PUSH1 0x1 PUSH1 0x1 PUSH1 0xA0 SHL SUB SWAP1 SWAP2 AND DUP2 MSTORE PUSH1 0x20 SWAP1 RETURN JUMPDEST CALLVALUE PUSH2 0x49D JUMPI PUSH1 0x40 CALLDATASIZE PUSH1 0x3 NOT ADD SLT PUSH2 0x49D JUMPI PUSH1 0x4 CALLDATALOAD PUSH1 0x24 CALLDATALOAD PUSH1 0x1 PUSH1 0x1 PUSH1 0x40 SHL SUB DUP2 GT PUSH2 0x49D JUMPI PUSH2 0x39E6 SWAP1 CALLDATASIZE SWAP1 PUSH1 0x4 ADD PUSH2 0x56D1 JUMP JUMPDEST PUSH1 0x6 SLOAD DUP3 LT ISZERO PUSH2 0x524 JUMPI DUP2 PUSH0 MSTORE PUSH1 0xC PUSH1 0x20 MSTORE PUSH1 0xFF PUSH1 0x5 PUSH1 0x40 PUSH0 KECCAK256 ADD SLOAD AND ISZERO PUSH2 0x3ABF JUMPI DUP2 PUSH0 MSTORE PUSH1 0xC PUSH1 0x20 MSTORE PUSH1 0xFF PUSH1 0x5 PUSH1 0x40 PUSH0 KECCAK256 ADD SLOAD PUSH1 0x8 SHR AND PUSH2 0x2B36 JUMPI PUSH0 DUP3 DUP2 MSTORE PUSH1 0xC PUSH1 0x20 SWAP1 DUP2 MSTORE PUSH1 0x40 DUP1 DUP4 KECCAK256 CALLER DUP5 MSTORE PUSH1 0x10 DUP2 ADD DUP4 MSTORE DUP2 DUP5 KECCAK256 PUSH1 0x4 SWAP1 SWAP2 ADD SLOAD DUP5 MSTORE SWAP1 SWAP2 MSTORE SWAP1 KECCAK256 SLOAD PUSH2 0x3AB0 JUMPI PUSH2 0x3AAB PUSH32 0xF20590B2CB9AF0BB070AD77DE2C0B74DB291DD43666E7A386FFB0E65974B050A SWAP2 DUP4 PUSH0 MSTORE PUSH1 0xC PUSH1 0x20 MSTORE PUSH1 0x5 PUSH1 0x40 PUSH0 KECCAK256 ADD PUSH2 0x100 PUSH2 0xFF00 NOT DUP3 SLOAD AND OR SWAP1 SSTORE PUSH1 0x40 MLOAD SWAP2 DUP3 SWAP2 CALLER DUP4 MSTORE PUSH1 0x40 PUSH1 0x20 DUP5 ADD MSTORE PUSH1 0x40 DUP4 ADD SWAP1 PUSH2 0x55E6 JUMP JUMPDEST SUB SWAP1 LOG2 STOP JUMPDEST PUSH4 0x5A570B3D PUSH1 0xE0 SHL PUSH0 MSTORE PUSH1 0x4 PUSH0 REVERT JUMPDEST PUSH4 0x174B6393 PUSH1 0xE1 SHL PUSH0 MSTORE PUSH1 0x4 PUSH0 REVERT JUMPDEST CALLVALUE PUSH2 0x49D JUMPI PUSH0 CALLDATASIZE PUSH1 0x3 NOT ADD SLT PUSH2 0x49D JUMPI PUSH1 0x3 SLOAD PUSH1 0x40 MLOAD PUSH1 0x8 SWAP2 SWAP1 SWAP2 SHR PUSH1 0x1 PUSH1 0x1 PUSH1 0xA0 SHL SUB AND DUP2 MSTORE PUSH1 0x20 SWAP1 RETURN JUMPDEST CALLVALUE PUSH2 0x49D JUMPI PUSH0 CALLDATASIZE PUSH1 0x3 NOT ADD SLT PUSH2 0x49D JUMPI PUSH1 0x20 PUSH1 0x9 SLOAD PUSH1 0x40 MLOAD SWAP1 DUP2 MSTORE RETURN JUMPDEST CALLVALUE PUSH2 0x49D JUMPI PUSH0 CALLDATASIZE PUSH1 0x3 NOT ADD SLT PUSH2 0x49D JUMPI PUSH2 0x3B2F PUSH2 0x5B54 JUMP JUMPDEST PUSH1 0x3 SLOAD PUSH1 0xFF DUP2 AND ISZERO PUSH2 0x3B6E JUMPI PUSH1 0xFF NOT AND PUSH1 0x3 SSTORE PUSH32 0x5DB9EE0A495BF2E6FF9C91A7834C1BA4FDD244A5E8AA4E537BD38AEAE4B073AA PUSH1 0x20 PUSH1 0x40 MLOAD CALLER DUP2 MSTORE LOG1 STOP JUMPDEST PUSH4 0x8DFC202B PUSH1 0xE0 SHL PUSH0 MSTORE PUSH1 0x4 PUSH0 REVERT JUMPDEST CALLVALUE PUSH2 0x49D JUMPI PUSH1 0x20 CALLDATASIZE PUSH1 0x3 NOT ADD SLT PUSH2 0x49D JUMPI PUSH1 0x4 CALLDATALOAD PUSH1 0x6 SLOAD DUP2 LT ISZERO PUSH2 0x524 JUMPI PUSH0 MSTORE PUSH1 0xC PUSH1 0x20 MSTORE PUSH2 0x3BF9 PUSH1 0x40 PUSH0 KECCAK256 PUSH1 0x2 DUP2 ADD SLOAD PUSH1 0xFF PUSH1 0x3 DUP4 ADD SLOAD AND PUSH1 0xA DUP4 ADD SLOAD SWAP1 PUSH1 0x5 DUP5 ADD SLOAD SWAP2 PUSH2 0x3C17 PUSH1 0x4 DUP7 ADD SLOAD SWAP3 PUSH2 0x3C07 PUSH2 0x3BE3 PUSH1 0x1 PUSH2 0x3BDC DUP11 PUSH2 0x589E JUMP JUMPDEST SWAP10 ADD PUSH2 0x589E JUMP JUMPDEST PUSH1 0x40 MLOAD SWAP10 DUP11 SWAP10 PUSH2 0x120 DUP12 MSTORE PUSH2 0x120 DUP12 ADD SWAP1 PUSH2 0x55E6 JUMP JUMPDEST SWAP1 DUP10 DUP3 SUB PUSH1 0x20 DUP12 ADD MSTORE PUSH2 0x55E6 JUMP JUMPDEST SWAP6 PUSH1 0x40 DUP9 ADD MSTORE PUSH1 0x60 DUP8 ADD SWAP1 PUSH2 0x57BB JUMP JUMPDEST PUSH1 0x80 DUP6 ADD MSTORE PUSH1 0xFF DUP3 DUP2 AND ISZERO ISZERO PUSH1 0xA0 DUP7 ADD MSTORE PUSH1 0x8 DUP4 SWAP1 SHR AND ISZERO ISZERO PUSH1 0xC0 DUP6 ADD MSTORE PUSH1 0xE0 DUP5 ADD MSTORE PUSH1 0x18 SHR PUSH1 0x1 PUSH1 0x1 PUSH1 0xA0 SHL SUB AND PUSH2 0x100 DUP4 ADD MSTORE SUB SWAP1 RETURN JUMPDEST CALLVALUE PUSH2 0x49D JUMPI PUSH1 0x40 CALLDATASIZE PUSH1 0x3 NOT ADD SLT PUSH2 0x49D JUMPI PUSH1 0x4 CALLDATALOAD PUSH2 0x3C6C PUSH2 0x55A1 JUMP JUMPDEST PUSH1 0x6 SLOAD DUP3 LT ISZERO PUSH2 0x524 JUMPI PUSH0 SWAP2 DUP3 MSTORE PUSH1 0xC PUSH1 0x20 SWAP1 DUP2 MSTORE PUSH1 0x40 DUP1 DUP5 KECCAK256 PUSH1 0x1 PUSH1 0x1 PUSH1 0xA0 SHL SUB SWAP4 SWAP1 SWAP4 AND DUP5 MSTORE PUSH1 0x12 DUP4 ADD DUP3 MSTORE DUP1 DUP5 KECCAK256 SLOAD PUSH1 0x13 DUP5 ADD SWAP1 SWAP3 MSTORE DUP4 KECCAK256 SLOAD PUSH1 0x60 SWAP4 SWAP2 SWAP3 PUSH1 0xFF SWAP1 SWAP2 AND SWAP1 DUP4 ISZERO ISZERO DUP1 PUSH2 0x3CFC JUMPI JUMPDEST PUSH2 0x3CD6 JUMPI JUMPDEST POP PUSH1 0x40 MLOAD SWAP3 DUP4 MSTORE ISZERO ISZERO PUSH1 0x20 DUP4 ADD MSTORE PUSH1 0x40 DUP3 ADD MSTORE RETURN JUMPDEST PUSH2 0x3CF5 SWAP2 SWAP3 POP PUSH1 0xB PUSH2 0x3CEC PUSH1 0xD DUP4 ADD SLOAD DUP7 PUSH2 0x597D JUMP JUMPDEST SWAP2 ADD SLOAD SWAP1 PUSH2 0x5990 JUMP JUMPDEST SWAP1 DUP5 PUSH2 0x3CC1 JUMP JUMPDEST POP PUSH1 0xB DUP2 ADD SLOAD ISZERO ISZERO PUSH2 0x3CBC JUMP JUMPDEST CALLVALUE PUSH2 0x49D JUMPI PUSH1 0x20 CALLDATASIZE PUSH1 0x3 NOT ADD SLT PUSH2 0x49D JUMPI PUSH1 0x4 CALLDATALOAD PUSH1 0x6 SLOAD DUP2 LT ISZERO PUSH2 0x524 JUMPI PUSH0 MSTORE PUSH1 0xC PUSH1 0x20 MSTORE PUSH1 0xA0 PUSH1 0x40 PUSH0 KECCAK256 PUSH1 0x6 DUP2 ADD SLOAD SWAP1 PUSH1 0x7 DUP2 ADD SLOAD SWAP1 PUSH1 0xC DUP2 ADD SLOAD PUSH1 0xFF PUSH1 0xE PUSH1 0xD DUP5 ADD SLOAD SWAP4 ADD SLOAD AND SWAP3 PUSH1 0x40 MLOAD SWAP5 DUP6 MSTORE PUSH1 0x20 DUP6 ADD MSTORE PUSH1 0x40 DUP5 ADD MSTORE PUSH1 0x60 DUP4 ADD MSTORE ISZERO ISZERO PUSH1 0x80 DUP3 ADD MSTORE RETURN JUMPDEST CALLVALUE PUSH2 0x49D JUMPI PUSH1 0x40 CALLDATASIZE PUSH1 0x3 NOT ADD SLT PUSH2 0x49D JUMPI PUSH2 0x3D8A PUSH2 0x55A1 JUMP JUMPDEST CALLER PUSH1 0x1 PUSH1 0x1 PUSH1 0xA0 SHL SUB DUP3 AND SUB PUSH2 0x3DA6 JUMPI PUSH2 0x21F4 SWAP1 PUSH1 0x4 CALLDATALOAD PUSH2 0x5E72 JUMP JUMPDEST PUSH4 0x334BD919 PUSH1 0xE1 SHL PUSH0 MSTORE PUSH1 0x4 PUSH0 REVERT JUMPDEST CALLVALUE PUSH2 0x49D JUMPI PUSH1 0x20 CALLDATASIZE PUSH1 0x3 NOT ADD SLT PUSH2 0x49D JUMPI PUSH2 0x21F4 PUSH2 0x3DD1 PUSH2 0x558B JUMP JUMPDEST PUSH2 0x3DD9 PUSH2 0x5B54 JUMP JUMPDEST PUSH32 0xDCEE1D35C83A32B436264A5C9AFD68685C124F3F9097E87804C55410E67FC59A PUSH0 MSTORE PUSH1 0x2 PUSH1 0x20 MSTORE PUSH32 0x8E2C297E756B2A427C5DC4607F639842A8EA6E0F6322302F4EA76306B642CFC3 SLOAD PUSH2 0x3E2C SWAP1 PUSH2 0x5B95 JUMP JUMPDEST PUSH2 0x5BCF JUMP JUMPDEST CALLVALUE PUSH2 0x49D JUMPI PUSH2 0x100 CALLDATASIZE PUSH1 0x3 NOT ADD SLT PUSH2 0x49D JUMPI PUSH1 0x4 CALLDATALOAD PUSH1 0x1 PUSH1 0x1 PUSH1 0x40 SHL SUB DUP2 GT PUSH2 0x49D JUMPI PUSH2 0x3E62 SWAP1 CALLDATASIZE SWAP1 PUSH1 0x4 ADD PUSH2 0x56D1 JUMP JUMPDEST PUSH1 0x24 CALLDATALOAD PUSH1 0x1 PUSH1 0x1 PUSH1 0x40 SHL SUB DUP2 GT PUSH2 0x49D JUMPI PUSH2 0x3E81 SWAP1 CALLDATASIZE SWAP1 PUSH1 0x4 ADD PUSH2 0x56D1 JUMP JUMPDEST PUSH1 0x44 CALLDATALOAD PUSH1 0x1 PUSH1 0x1 PUSH1 0x40 SHL SUB DUP2 GT PUSH2 0x49D JUMPI PUSH2 0x3EA0 SWAP1 CALLDATASIZE SWAP1 PUSH1 0x4 ADD PUSH2 0x573D JUMP JUMPDEST SWAP2 PUSH1 0x64 CALLDATALOAD PUSH1 0x1 PUSH1 0x1 PUSH1 0x40 SHL SUB DUP2 GT PUSH2 0x49D JUMPI PUSH2 0x3EC0 SWAP1 CALLDATASIZE SWAP1 PUSH1 0x4 ADD PUSH2 0x573D JUMP JUMPDEST PUSH1 0x84 CALLDATALOAD SWAP1 PUSH1 0xA4 CALLDATALOAD PUSH1 0x8 DUP2 LT ISZERO PUSH2 0x49D JUMPI PUSH1 0xC4 CALLDATALOAD SWAP6 PUSH1 0x3 DUP8 LT ISZERO PUSH2 0x49D JUMPI PUSH1 0xE4 CALLDATALOAD SWAP5 PUSH2 0x3EE9 PUSH2 0x5B7A JUMP JUMPDEST PUSH0 SLOAD PUSH1 0x1 PUSH1 0x1 PUSH1 0xA0 SHL SUB AND CALLER EQ ISZERO DUP1 PUSH2 0x460A JUMPI JUMPDEST PUSH2 0xE1D JUMPI PUSH2 0xE10 DUP6 LT DUP1 ISZERO PUSH2 0x45FD JUMPI JUMPDEST PUSH2 0xE01 JUMPI DUP1 MLOAD ISZERO PUSH2 0xDF2 JUMPI DUP2 MLOAD PUSH1 0x2 DUP2 LT SWAP1 DUP2 ISZERO PUSH2 0x45F2 JUMPI JUMPDEST POP PUSH2 0xDD8 JUMPI DUP2 MLOAD DUP5 MLOAD SUB PUSH2 0xDC9 JUMPI PUSH9 0x56BC75E2D63100000 DUP7 LT PUSH2 0x2109 JUMPI PUSH1 0x3 SLOAD PUSH1 0x40 MLOAD PUSH4 0x23B872DD PUSH1 0xE0 SHL DUP2 MSTORE CALLER PUSH1 0x4 DUP3 ADD MSTORE ADDRESS PUSH1 0x24 DUP3 ADD MSTORE PUSH1 0x44 DUP2 ADD DUP9 SWAP1 MSTORE SWAP1 PUSH1 0x20 SWAP1 DUP3 SWAP1 PUSH1 0x8 SHR PUSH1 0x1 PUSH1 0x1 PUSH1 0xA0 SHL SUB AND DUP2 PUSH0 DUP2 PUSH1 0x64 DUP2 ADD SUB SWAP3 GAS CALL SWAP1 DUP2 ISZERO PUSH2 0xDBE JUMPI PUSH0 SWAP2 PUSH2 0x45D3 JUMPI JUMPDEST POP ISZERO PUSH2 0xD80 JUMPI PUSH1 0x6 SLOAD SWAP5 PUSH2 0x3FA5 DUP7 PUSH2 0x59C6 JUMP JUMPDEST PUSH1 0x6 SSTORE DUP6 PUSH0 MSTORE PUSH1 0xC PUSH1 0x20 MSTORE PUSH1 0x40 PUSH0 KECCAK256 SWAP8 DUP3 MLOAD PUSH1 0x1 PUSH1 0x1 PUSH1 0x40 SHL SUB DUP2 GT PUSH2 0xA5E JUMPI PUSH2 0x3FCF DUP11 SLOAD PUSH2 0x5866 JUMP JUMPDEST PUSH1 0x1F DUP2 GT PUSH2 0x458E JUMPI JUMPDEST POP DUP1 PUSH1 0x20 PUSH1 0x1F DUP3 GT PUSH1 0x1 EQ PUSH2 0x452D JUMPI PUSH0 SWAP2 PUSH2 0x4522 JUMPI JUMPDEST POP DUP2 PUSH1 0x1 SHL SWAP2 PUSH0 NOT SWAP1 PUSH1 0x3 SHL SHR NOT AND OR DUP10 SSTORE JUMPDEST DUP1 MLOAD PUSH1 0x1 DUP11 ADD SWAP2 PUSH1 0x1 PUSH1 0x1 PUSH1 0x40 SHL SUB DUP3 GT PUSH2 0xA5E JUMPI PUSH2 0x4020 DUP4 SLOAD PUSH2 0x5866 JUMP JUMPDEST PUSH1 0x1F DUP2 GT PUSH2 0x44DD JUMPI JUMPDEST POP PUSH1 0x20 SWAP1 PUSH1 0x1F DUP4 GT PUSH1 0x1 EQ PUSH2 0x448E JUMPI PUSH2 0x405F SWAP5 SWAP4 SWAP3 SWAP2 PUSH0 SWAP2 DUP4 PUSH2 0x1F82 JUMPI POP POP DUP2 PUSH1 0x1 SHL SWAP2 PUSH0 NOT SWAP1 PUSH1 0x3 SHL SHR NOT AND OR SWAP1 SSTORE TIMESTAMP PUSH2 0x5970 JUMP JUMPDEST PUSH1 0x2 DUP9 ADD SWAP1 DUP2 SSTORE PUSH1 0x3 DUP9 ADD DUP1 SLOAD PUSH2 0xFFFF NOT AND PUSH1 0xFF DUP7 AND OR PUSH1 0x8 DUP12 SWAP1 SHL PUSH2 0xFF00 AND OR SWAP1 SSTORE PUSH1 0x5 DUP9 ADD DUP1 SLOAD PUSH4 0x1000000 PUSH1 0x1 PUSH1 0xB8 SHL SUB NOT AND CALLER PUSH1 0x18 SHL PUSH4 0x1000000 PUSH1 0x1 PUSH1 0xB8 SHL SUB AND OR SWAP1 SSTORE TIMESTAMP PUSH1 0x9 DUP10 ADD SSTORE DUP3 MLOAD PUSH1 0xA DUP10 ADD DUP2 SWAP1 SSTORE PUSH1 0x6 DUP10 ADD DUP9 SWAP1 SSTORE PUSH0 PUSH1 0x7 DUP11 ADD SSTORE PUSH1 0xB DUP10 ADD DUP9 SWAP1 SSTORE SWAP1 SWAP9 SWAP1 DUP1 ISZERO PUSH2 0xC01 JUMPI PUSH2 0x40EE SWAP1 PUSH8 0xDE0B6B3A7640000 SWAP11 SWAP10 SWAP11 DIV SWAP8 DUP5 MLOAD SWAP1 PUSH2 0x5990 JUMP JUMPDEST SWAP4 PUSH1 0xF PUSH0 SWAP11 ADD SWAP10 JUMPDEST DUP5 MLOAD DUP2 LT ISZERO PUSH2 0x43D8 JUMPI PUSH2 0x4109 DUP2 DUP7 PUSH2 0x599A JUMP JUMPDEST MLOAD DUP7 DUP13 PUSH2 0x4116 DUP5 DUP12 PUSH2 0x599A JUMP JUMPDEST MLOAD PUSH1 0x40 MLOAD SWAP4 PUSH2 0x4124 DUP6 PUSH2 0x5694 JUMP JUMPDEST DUP5 MSTORE PUSH1 0x20 DUP5 ADD SWAP1 DUP2 MSTORE DUP13 PUSH1 0x40 DUP6 ADD PUSH0 DUP2 MSTORE PUSH1 0x60 DUP7 ADD SWAP1 PUSH0 DUP3 MSTORE PUSH1 0x80 DUP8 ADD SWAP3 DUP4 MSTORE PUSH1 0xA0 DUP8 ADD SWAP4 PUSH1 0x1 DUP6 MSTORE PUSH1 0xC0 DUP9 ADD SWAP6 DUP8 DUP8 MSTORE PUSH1 0xE0 DUP10 ADD SWAP8 DUP9 MSTORE DUP10 PUSH0 MSTORE PUSH1 0x20 MSTORE PUSH1 0x40 PUSH0 KECCAK256 SWAP8 MLOAD DUP1 MLOAD SWAP1 PUSH1 0x1 PUSH1 0x1 PUSH1 0x40 SHL SUB DUP3 GT PUSH2 0xA5E JUMPI DUP2 SWAP1 PUSH2 0x4185 DUP12 SLOAD PUSH2 0x5866 JUMP JUMPDEST PUSH1 0x1F DUP2 GT PUSH2 0x4388 JUMPI JUMPDEST POP PUSH1 0x20 SWAP1 PUSH1 0x1F DUP4 GT PUSH1 0x1 EQ PUSH2 0x4325 JUMPI PUSH0 SWAP3 PUSH2 0x431A JUMPI JUMPDEST POP POP DUP2 PUSH1 0x1 SHL SWAP2 PUSH0 NOT SWAP1 PUSH1 0x3 SHL SHR NOT AND OR DUP9 SSTORE JUMPDEST MLOAD DUP1 MLOAD PUSH1 0x1 DUP10 ADD SWAP2 PUSH1 0x1 PUSH1 0x1 PUSH1 0x40 SHL SUB DUP3 GT PUSH2 0xA5E JUMPI PUSH2 0x41D8 DUP4 SLOAD PUSH2 0x5866 JUMP JUMPDEST PUSH1 0x1F DUP2 GT PUSH2 0x42D5 JUMPI JUMPDEST POP PUSH1 0x20 SWAP1 PUSH1 0x1F DUP4 GT PUSH1 0x1 EQ PUSH2 0x427C JUMPI SWAP3 DUP3 PUSH2 0x4246 SWAP7 SWAP4 PUSH1 0x1 SWAP14 SWAP13 SWAP12 SWAP10 SWAP7 SWAP4 PUSH1 0x7 SWAP12 SWAP10 SWAP7 PUSH0 SWAP3 PUSH2 0x99C JUMPI POP POP PUSH0 NOT PUSH1 0x3 DUP4 SWAP1 SHL SHR NOT AND SWAP1 DUP14 SHL OR SWAP1 SSTORE MLOAD PUSH1 0x2 DUP10 ADD SSTORE MLOAD PUSH1 0x3 DUP9 ADD SSTORE MLOAD PUSH1 0x4 DUP8 ADD SSTORE MLOAD ISZERO ISZERO PUSH1 0x5 DUP7 ADD SWAP1 PUSH1 0xFF DUP1 NOT DUP4 SLOAD AND SWAP2 ISZERO ISZERO AND OR SWAP1 SSTORE JUMP JUMPDEST MLOAD PUSH1 0x6 DUP5 ADD SSTORE MLOAD SWAP2 ADD SSTORE DUP9 PUSH0 MSTORE PUSH1 0x10 PUSH1 0x20 MSTORE PUSH1 0x40 PUSH0 KECCAK256 DUP2 PUSH0 MSTORE PUSH1 0x20 MSTORE PUSH2 0x4276 PUSH1 0x40 PUSH0 KECCAK256 PUSH1 0x40 MLOAD SWAP1 PUSH2 0x982 DUP3 PUSH2 0x565E JUMP JUMPDEST ADD PUSH2 0x40F6 JUMP JUMPDEST SWAP1 PUSH1 0x1F NOT DUP4 AND SWAP2 DUP5 PUSH0 MSTORE DUP2 PUSH0 KECCAK256 SWAP3 PUSH0 JUMPDEST DUP2 DUP2 LT PUSH2 0x42BD JUMPI POP SWAP4 PUSH1 0x1 SWAP14 SWAP13 SWAP12 SWAP10 SWAP7 SWAP4 PUSH1 0x7 SWAP12 SWAP10 SWAP7 SWAP4 DUP16 SWAP4 DUP4 PUSH2 0x4246 SWAP12 SWAP9 LT PUSH2 0x9E9 JUMPI POP POP POP DUP2 SHL ADD SWAP1 SSTORE PUSH2 0x928 JUMP JUMPDEST SWAP3 SWAP4 PUSH1 0x20 PUSH1 0x1 DUP2 SWAP3 DUP8 DUP7 ADD MLOAD DUP2 SSTORE ADD SWAP6 ADD SWAP4 ADD PUSH2 0x428C JUMP JUMPDEST DUP4 PUSH0 MSTORE PUSH1 0x20 PUSH0 KECCAK256 PUSH1 0x1F DUP5 ADD PUSH1 0x5 SHR DUP2 ADD SWAP2 PUSH1 0x20 DUP6 LT PUSH2 0x4310 JUMPI JUMPDEST PUSH1 0x1F ADD PUSH1 0x5 SHR ADD SWAP1 JUMPDEST DUP2 DUP2 LT PUSH2 0x4305 JUMPI POP PUSH2 0x41E1 JUMP JUMPDEST PUSH0 DUP2 SSTORE PUSH1 0x1 ADD PUSH2 0x42F8 JUMP JUMPDEST SWAP1 SWAP2 POP DUP2 SWAP1 PUSH2 0x42EF JUMP JUMPDEST ADD MLOAD SWAP1 POP PUSH0 DUP1 PUSH2 0x41A4 JUMP JUMPDEST PUSH0 DUP13 DUP2 MSTORE DUP3 DUP2 KECCAK256 SWAP4 POP PUSH1 0x1F NOT DUP6 AND SWAP1 JUMPDEST DUP2 DUP2 LT PUSH2 0x4370 JUMPI POP SWAP1 DUP5 PUSH1 0x1 SWAP6 SWAP5 SWAP4 SWAP3 LT PUSH2 0x4358 JUMPI JUMPDEST POP POP POP DUP2 SHL ADD DUP9 SSTORE PUSH2 0x41B8 JUMP JUMPDEST ADD MLOAD PUSH0 NOT PUSH1 0xF8 DUP5 PUSH1 0x3 SHL AND SHR NOT AND SWAP1 SSTORE PUSH0 DUP1 DUP1 PUSH2 0x434B JUMP JUMPDEST SWAP3 SWAP4 PUSH1 0x20 PUSH1 0x1 DUP2 SWAP3 DUP8 DUP7 ADD MLOAD DUP2 SSTORE ADD SWAP6 ADD SWAP4 ADD PUSH2 0x4335 JUMP JUMPDEST SWAP1 SWAP2 POP DUP11 PUSH0 MSTORE PUSH1 0x20 PUSH0 KECCAK256 PUSH1 0x1F DUP5 ADD PUSH1 0x5 SHR DUP2 ADD SWAP2 PUSH1 0x20 DUP6 LT PUSH2 0x43CE JUMPI JUMPDEST SWAP1 PUSH1 0x1F DUP6 SWAP5 SWAP4 SWAP3 ADD PUSH1 0x5 SHR ADD SWAP1 JUMPDEST DUP2 DUP2 LT PUSH2 0x43C0 JUMPI POP PUSH2 0x418E JUMP JUMPDEST PUSH0 DUP2 SSTORE DUP5 SWAP4 POP PUSH1 0x1 ADD PUSH2 0x43B3 JUMP JUMPDEST SWAP1 SWAP2 POP DUP2 SWAP1 PUSH2 0x43A5 JUMP JUMPDEST POP DUP7 SWAP2 DUP5 SWAP2 DUP11 PUSH2 0x43EB DUP6 PUSH2 0xB43 DUP5 PUSH2 0x5838 JUMP JUMPDEST PUSH2 0x43F8 DUP6 PUSH2 0xB43 DUP6 PUSH2 0x584F JUMP JUMPDEST SLOAD PUSH2 0x440E PUSH1 0x40 MLOAD SWAP7 PUSH1 0xC0 DUP9 MSTORE PUSH1 0xC0 DUP9 ADD SWAP1 PUSH2 0x55E6 JUMP JUMPDEST DUP7 DUP2 SUB PUSH1 0x20 DUP9 ADD MSTORE DUP5 MLOAD DUP1 DUP3 MSTORE PUSH1 0x20 DUP3 ADD SWAP2 PUSH1 0x20 DUP1 DUP4 PUSH1 0x5 SHL DUP4 ADD ADD SWAP8 ADD SWAP3 PUSH0 SWAP2 JUMPDEST DUP4 DUP4 LT PUSH2 0x4461 JUMPI PUSH1 0x20 DUP11 DUP1 PUSH0 DUP1 MLOAD PUSH1 0x20 PUSH2 0x5F93 DUP4 CODECOPY DUP2 MLOAD SWAP2 MSTORE DUP15 DUP1 DUP15 DUP15 PUSH2 0xBBE DUP16 DUP16 PUSH1 0x40 DUP7 ADD MSTORE PUSH1 0x60 DUP6 ADD SWAP1 PUSH2 0x57BB JUMP JUMPDEST SWAP1 SWAP2 SWAP3 SWAP4 SWAP8 PUSH1 0x20 DUP1 PUSH2 0x447F PUSH1 0x1 SWAP4 PUSH1 0x1F NOT DUP7 DUP3 SUB ADD DUP8 MSTORE DUP13 MLOAD PUSH2 0x55E6 JUMP JUMPDEST SWAP11 ADD SWAP4 ADD SWAP4 ADD SWAP2 SWAP4 SWAP3 SWAP1 PUSH2 0x4430 JUMP JUMPDEST SWAP1 PUSH1 0x1F NOT DUP4 AND SWAP2 DUP5 PUSH0 MSTORE DUP2 PUSH0 KECCAK256 SWAP3 PUSH0 JUMPDEST DUP2 DUP2 LT PUSH2 0x44C5 JUMPI POP SWAP2 PUSH1 0x1 SWAP4 SWAP2 DUP6 PUSH2 0x405F SWAP9 SWAP8 SWAP7 SWAP5 LT PUSH2 0x1FC4 JUMPI POP POP POP DUP2 SHL ADD SWAP1 SSTORE PUSH2 0x755 JUMP JUMPDEST SWAP3 SWAP4 PUSH1 0x20 PUSH1 0x1 DUP2 SWAP3 DUP8 DUP7 ADD MLOAD DUP2 SSTORE ADD SWAP6 ADD SWAP4 ADD PUSH2 0x449E JUMP JUMPDEST DUP4 PUSH0 MSTORE PUSH1 0x20 PUSH0 KECCAK256 PUSH1 0x1F DUP5 ADD PUSH1 0x5 SHR DUP2 ADD SWAP2 PUSH1 0x20 DUP6 LT PUSH2 0x4518 JUMPI JUMPDEST PUSH1 0x1F ADD PUSH1 0x5 SHR ADD SWAP1 JUMPDEST DUP2 DUP2 LT PUSH2 0x450D JUMPI POP PUSH2 0x4029 JUMP JUMPDEST PUSH0 DUP2 SSTORE PUSH1 0x1 ADD PUSH2 0x4500 JUMP JUMPDEST SWAP1 SWAP2 POP DUP2 SWAP1 PUSH2 0x44F7 JUMP JUMPDEST SWAP1 POP DUP5 ADD MLOAD DUP13 PUSH2 0x3FEE JUMP JUMPDEST PUSH0 DUP13 DUP2 MSTORE DUP2 DUP2 KECCAK256 SWAP3 POP PUSH1 0x1F NOT DUP5 AND SWAP1 JUMPDEST DUP2 DUP2 LT PUSH2 0x4576 JUMPI POP SWAP1 DUP4 PUSH1 0x1 SWAP5 SWAP4 SWAP3 LT PUSH2 0x455E JUMPI JUMPDEST POP POP DUP2 SHL ADD DUP10 SSTORE PUSH2 0x4001 JUMP JUMPDEST DUP7 ADD MLOAD PUSH0 NOT PUSH1 0xF8 DUP5 PUSH1 0x3 SHL AND SHR NOT AND SWAP1 SSTORE DUP13 DUP1 PUSH2 0x4552 JUMP JUMPDEST SWAP2 SWAP3 PUSH1 0x20 PUSH1 0x1 DUP2 SWAP3 DUP7 DUP12 ADD MLOAD DUP2 SSTORE ADD SWAP5 ADD SWAP3 ADD PUSH2 0x453D JUMP JUMPDEST DUP11 PUSH0 MSTORE PUSH1 0x20 PUSH0 KECCAK256 PUSH1 0x1F DUP4 ADD PUSH1 0x5 SHR DUP2 ADD SWAP2 PUSH1 0x20 DUP5 LT PUSH2 0x45C9 JUMPI JUMPDEST PUSH1 0x1F ADD PUSH1 0x5 SHR ADD SWAP1 JUMPDEST DUP2 DUP2 LT PUSH2 0x45BE JUMPI POP PUSH2 0x3FD8 JUMP JUMPDEST PUSH0 DUP2 SSTORE PUSH1 0x1 ADD PUSH2 0x45B1 JUMP JUMPDEST SWAP1 SWAP2 POP DUP2 SWAP1 PUSH2 0x45A8 JUMP JUMPDEST PUSH2 0x45EC SWAP2 POP PUSH1 0x20 RETURNDATASIZE PUSH1 0x20 GT PUSH2 0xDB7 JUMPI PUSH2 0xDA9 DUP2 DUP4 PUSH2 0x56B0 JUMP JUMPDEST DUP10 PUSH2 0x3F92 JUMP JUMPDEST PUSH1 0xA SWAP2 POP GT DUP10 PUSH2 0x3F26 JUMP JUMPDEST POP PUSH4 0x1E13380 DUP6 GT PUSH2 0x3F0D JUMP JUMPDEST POP CALLER PUSH0 SWAP1 DUP2 MSTORE PUSH0 DUP1 MLOAD PUSH1 0x20 PUSH2 0x5F73 DUP4 CODECOPY DUP2 MLOAD SWAP2 MSTORE PUSH1 0x20 MSTORE PUSH1 0x40 SWAP1 KECCAK256 SLOAD PUSH1 0xFF AND ISZERO PUSH2 0x3EFD JUMP JUMPDEST CALLVALUE PUSH2 0x49D JUMPI PUSH0 CALLDATASIZE PUSH1 0x3 NOT ADD SLT PUSH2 0x49D JUMPI PUSH1 0x20 PUSH1 0x40 MLOAD PUSH32 0xD486618B282CB35034D59C30C062B5B3822D6CDF87EC459191CE7F5B7B8A4873 DUP2 MSTORE RETURN JUMPDEST CALLVALUE PUSH2 0x49D JUMPI PUSH1 0x20 CALLDATASIZE PUSH1 0x3 NOT ADD SLT PUSH2 0x49D JUMPI PUSH1 0x4 CALLDATALOAD PUSH2 0x4685 PUSH2 0x5E52 JUMP JUMPDEST PUSH1 0x6 SLOAD DUP2 LT ISZERO PUSH2 0x524 JUMPI DUP1 PUSH0 MSTORE PUSH1 0xC PUSH1 0x20 MSTORE PUSH1 0x40 PUSH0 KECCAK256 SWAP1 PUSH1 0x5 DUP3 ADD DUP1 SLOAD PUSH1 0x1 DUP1 PUSH1 0xA0 SHL SUB DUP2 PUSH1 0x18 SHR AND SWAP1 DUP2 CALLER SUB PUSH2 0xE1D JUMPI PUSH1 0xFF AND ISZERO PUSH2 0x3ABF JUMPI PUSH1 0xE DUP5 ADD DUP1 SLOAD SWAP5 PUSH1 0xFF DUP7 AND PUSH2 0x478E JUMPI PUSH1 0x6 ADD SLOAD SWAP5 DUP6 ISZERO PUSH2 0x13F8 JUMPI PUSH1 0xFF NOT AND PUSH1 0x1 OR SWAP1 SSTORE PUSH1 0x3 SLOAD PUSH1 0x40 MLOAD PUSH4 0xA9059CBB PUSH1 0xE0 SHL DUP2 MSTORE PUSH1 0x1 PUSH1 0x1 PUSH1 0xA0 SHL SUB SWAP3 DUP4 AND PUSH1 0x4 DUP3 ADD MSTORE PUSH1 0x24 DUP2 ADD DUP7 SWAP1 MSTORE SWAP2 PUSH1 0x20 SWAP2 DUP4 SWAP2 PUSH1 0x44 SWAP2 DUP4 SWAP2 PUSH0 SWAP2 PUSH1 0x8 SHR AND GAS CALL SWAP1 DUP2 ISZERO PUSH2 0xDBE JUMPI PUSH0 SWAP2 PUSH2 0x476F JUMPI JUMPDEST POP ISZERO PUSH2 0xD80 JUMPI SLOAD PUSH1 0x40 MLOAD SWAP3 DUP4 MSTORE PUSH1 0x18 SHR PUSH1 0x1 PUSH1 0x1 PUSH1 0xA0 SHL SUB AND SWAP2 PUSH32 0x84CF34BF4FD222B829AFD4F81D8430050D146A50574FE8D5A5461A987D289EEA SWAP1 PUSH1 0x20 SWAP1 LOG3 PUSH1 0x1 DUP1 SSTORE STOP JUMPDEST PUSH2 0x4788 SWAP2 POP PUSH1 0x20 RETURNDATASIZE PUSH1 0x20 GT PUSH2 0xDB7 JUMPI PUSH2 0xDA9 DUP2 DUP4 PUSH2 0x56B0 JUMP JUMPDEST DUP5 PUSH2 0x4729 JUMP JUMPDEST PUSH4 0xA4F163DF PUSH1 0xE0 SHL PUSH0 MSTORE PUSH1 0x4 PUSH0 REVERT JUMPDEST CALLVALUE PUSH2 0x49D JUMPI PUSH1 0x40 CALLDATASIZE PUSH1 0x3 NOT ADD SLT PUSH2 0x49D JUMPI PUSH2 0x21F4 PUSH1 0x4 CALLDATALOAD PUSH2 0x47BC PUSH2 0x55A1 JUMP JUMPDEST SWAP1 PUSH2 0x47D6 PUSH2 0x21EA DUP3 PUSH0 MSTORE PUSH1 0x2 PUSH1 0x20 MSTORE PUSH1 0x1 PUSH1 0x40 PUSH0 KECCAK256 ADD SLOAD SWAP1 JUMP JUMPDEST PUSH2 0x5DD9 JUMP JUMPDEST CALLVALUE PUSH2 0x49D JUMPI PUSH2 0x120 CALLDATASIZE PUSH1 0x3 NOT ADD SLT PUSH2 0x49D JUMPI PUSH1 0x4 CALLDATALOAD PUSH1 0x1 PUSH1 0x1 PUSH1 0x40 SHL SUB DUP2 GT PUSH2 0x49D JUMPI PUSH2 0x480C SWAP1 CALLDATASIZE SWAP1 PUSH1 0x4 ADD PUSH2 0x56D1 JUMP JUMPDEST PUSH1 0x24 CALLDATALOAD PUSH1 0x1 PUSH1 0x1 PUSH1 0x40 SHL SUB DUP2 GT PUSH2 0x49D JUMPI PUSH2 0x482B SWAP1 CALLDATASIZE SWAP1 PUSH1 0x4 ADD PUSH2 0x56D1 JUMP JUMPDEST PUSH1 0x44 CALLDATALOAD PUSH1 0x1 PUSH1 0x1 PUSH1 0x40 SHL SUB DUP2 GT PUSH2 0x49D JUMPI PUSH2 0x484A SWAP1 CALLDATASIZE SWAP1 PUSH1 0x4 ADD PUSH2 0x573D JUMP JUMPDEST PUSH1 0x64 CALLDATALOAD PUSH1 0x1 PUSH1 0x1 PUSH1 0x40 SHL SUB DUP2 GT PUSH2 0x49D JUMPI PUSH2 0x4869 SWAP1 CALLDATASIZE SWAP1 PUSH1 0x4 ADD PUSH2 0x573D JUMP JUMPDEST PUSH1 0x84 CALLDATALOAD SWAP1 PUSH1 0xA4 CALLDATALOAD PUSH1 0x8 DUP2 LT ISZERO PUSH2 0x49D JUMPI PUSH2 0x104 CALLDATALOAD SWAP4 PUSH2 0x4886 PUSH2 0x5B7A JUMP JUMPDEST PUSH2 0x488E PUSH2 0x5B7A JUMP JUMPDEST PUSH0 SLOAD PUSH1 0x1 PUSH1 0x1 PUSH1 0xA0 SHL SUB AND CALLER EQ ISZERO DUP1 PUSH2 0x4FFE JUMPI JUMPDEST PUSH2 0xE1D JUMPI PUSH2 0xE10 DUP5 LT DUP1 ISZERO PUSH2 0x4FF1 JUMPI JUMPDEST PUSH2 0xE01 JUMPI DUP7 MLOAD ISZERO PUSH2 0xDF2 JUMPI DUP1 MLOAD PUSH1 0x2 DUP2 LT SWAP1 DUP2 ISZERO PUSH2 0x4FE6 JUMPI JUMPDEST POP PUSH2 0xDD8 JUMPI DUP1 MLOAD DUP4 MLOAD SUB PUSH2 0xDC9 JUMPI PUSH9 0x56BC75E2D63100000 DUP6 LT PUSH2 0x2109 JUMPI PUSH1 0x3 SLOAD PUSH1 0x40 MLOAD PUSH4 0x23B872DD PUSH1 0xE0 SHL DUP2 MSTORE CALLER PUSH1 0x4 DUP3 ADD MSTORE ADDRESS PUSH1 0x24 DUP3 ADD MSTORE PUSH1 0x44 DUP2 ADD DUP8 SWAP1 MSTORE SWAP1 PUSH1 0x20 SWAP1 DUP3 SWAP1 PUSH1 0x8 SHR PUSH1 0x1 PUSH1 0x1 PUSH1 0xA0 SHL SUB AND DUP2 PUSH0 DUP2 PUSH1 0x64 DUP2 ADD SUB SWAP3 GAS CALL SWAP1 DUP2 ISZERO PUSH2 0xDBE JUMPI PUSH0 SWAP2 PUSH2 0x4FC7 JUMPI JUMPDEST POP ISZERO PUSH2 0xD80 JUMPI PUSH1 0x6 SLOAD SWAP4 PUSH2 0x494A DUP6 PUSH2 0x59C6 JUMP JUMPDEST PUSH1 0x6 SSTORE DUP5 PUSH0 MSTORE PUSH1 0xC PUSH1 0x20 MSTORE PUSH1 0x40 PUSH0 KECCAK256 SWAP7 DUP9 MLOAD PUSH1 0x1 PUSH1 0x1 PUSH1 0x40 SHL SUB DUP2 GT PUSH2 0xA5E JUMPI PUSH2 0x4974 DUP10 SLOAD PUSH2 0x5866 JUMP JUMPDEST PUSH1 0x1F DUP2 GT PUSH2 0x4F82 JUMPI JUMPDEST POP DUP1 PUSH1 0x20 PUSH1 0x1F DUP3 GT PUSH1 0x1 EQ PUSH2 0x4F1F JUMPI PUSH0 SWAP2 PUSH2 0x4F14 JUMPI JUMPDEST POP DUP2 PUSH1 0x1 SHL SWAP2 PUSH0 NOT SWAP1 PUSH1 0x3 SHL SHR NOT AND OR DUP9 SSTORE JUMPDEST DUP1 MLOAD PUSH1 0x1 DUP10 ADD SWAP2 PUSH1 0x1 PUSH1 0x1 PUSH1 0x40 SHL SUB DUP3 GT PUSH2 0xA5E JUMPI PUSH2 0x49C5 DUP4 SLOAD PUSH2 0x5866 JUMP JUMPDEST PUSH1 0x1F DUP2 GT PUSH2 0x4ECF JUMPI JUMPDEST POP PUSH1 0x20 SWAP1 PUSH1 0x1F DUP4 GT PUSH1 0x1 EQ PUSH2 0x4E80 JUMPI PUSH2 0x4A04 SWAP5 SWAP4 SWAP3 SWAP2 PUSH0 SWAP2 DUP4 PUSH2 0xC15 JUMPI POP POP DUP2 PUSH1 0x1 SHL SWAP2 PUSH0 NOT SWAP1 PUSH1 0x3 SHL SHR NOT AND OR SWAP1 SSTORE TIMESTAMP PUSH2 0x5970 JUMP JUMPDEST PUSH1 0x2 DUP8 ADD SWAP1 DUP2 SSTORE PUSH1 0x3 DUP8 ADD DUP1 SLOAD PUSH2 0xFFFF NOT AND PUSH1 0xFF DUP6 AND OR PUSH2 0x100 OR SWAP1 SSTORE PUSH1 0x5 DUP8 ADD DUP1 SLOAD PUSH4 0x1000000 PUSH1 0x1 PUSH1 0xB8 SHL SUB NOT AND CALLER PUSH1 0x18 SHL PUSH4 0x1000000 PUSH1 0x1 PUSH1 0xB8 SHL SUB AND OR SWAP1 SSTORE TIMESTAMP PUSH1 0x9 DUP9 ADD SSTORE DUP2 MLOAD PUSH1 0xA DUP9 ADD DUP2 SWAP1 SSTORE PUSH1 0x6 DUP9 ADD DUP8 SWAP1 SSTORE PUSH0 PUSH1 0x7 DUP10 ADD SSTORE PUSH1 0xB DUP9 ADD DUP8 SWAP1 SSTORE SWAP1 SWAP8 SWAP1 DUP1 ISZERO PUSH2 0xC01 JUMPI PUSH2 0x4A8D SWAP1 PUSH8 0xDE0B6B3A7640000 SWAP10 SWAP9 SWAP10 DIV SWAP7 DUP4 MLOAD SWAP1 PUSH2 0x5990 JUMP JUMPDEST SWAP3 PUSH1 0xF PUSH0 SWAP10 ADD SWAP9 JUMPDEST DUP4 MLOAD DUP2 LT ISZERO PUSH2 0x4D8A JUMPI PUSH2 0x4AA8 DUP2 DUP6 PUSH2 0x599A JUMP JUMPDEST MLOAD DUP11 PUSH2 0x4AB4 DUP4 DUP10 PUSH2 0x599A JUMP JUMPDEST MLOAD PUSH1 0x40 MLOAD SWAP3 PUSH2 0x4AC2 DUP5 PUSH2 0x5694 JUMP JUMPDEST DUP4 MSTORE PUSH1 0x20 DUP4 ADD SWAP1 DUP2 MSTORE PUSH1 0x40 DUP4 ADD PUSH0 DUP2 MSTORE PUSH1 0x60 DUP5 ADD PUSH0 DUP2 MSTORE PUSH1 0x80 DUP6 ADD SWAP1 DUP14 DUP3 MSTORE PUSH1 0xA0 DUP7 ADD SWAP3 PUSH1 0x1 DUP5 MSTORE PUSH1 0xC0 DUP8 ADD SWAP5 DUP13 DUP7 MSTORE PUSH1 0xE0 DUP9 ADD SWAP7 DUP14 DUP9 MSTORE DUP10 PUSH0 MSTORE PUSH1 0x20 MSTORE PUSH1 0x40 PUSH0 KECCAK256 SWAP8 MLOAD DUP1 MLOAD SWAP1 PUSH1 0x1 PUSH1 0x1 PUSH1 0x40 SHL SUB DUP3 GT PUSH2 0xA5E JUMPI DUP2 SWAP1 PUSH2 0x4B23 DUP12 SLOAD PUSH2 0x5866 JUMP JUMPDEST PUSH1 0x1F DUP2 GT PUSH2 0x4D3A JUMPI JUMPDEST POP PUSH1 0x20 SWAP1 PUSH1 0x1F DUP4 GT PUSH1 0x1 EQ PUSH2 0x4CD7 JUMPI PUSH0 SWAP3 PUSH2 0x4CCC JUMPI JUMPDEST POP POP DUP2 PUSH1 0x1 SHL SWAP2 PUSH0 NOT SWAP1 PUSH1 0x3 SHL SHR NOT AND OR DUP9 SSTORE JUMPDEST MLOAD DUP1 MLOAD PUSH1 0x1 DUP10 ADD SWAP2 PUSH1 0x1 PUSH1 0x1 PUSH1 0x40 SHL SUB DUP3 GT PUSH2 0xA5E JUMPI PUSH2 0x4B76 DUP4 SLOAD PUSH2 0x5866 JUMP JUMPDEST PUSH1 0x1F DUP2 GT PUSH2 0x4C87 JUMPI JUMPDEST POP PUSH1 0x20 SWAP1 PUSH1 0x1F DUP4 GT PUSH1 0x1 EQ PUSH2 0x4C2E JUMPI SWAP3 DUP3 PUSH2 0x4BE4 SWAP7 SWAP4 PUSH1 0x1 SWAP14 SWAP13 SWAP12 SWAP10 SWAP7 SWAP4 PUSH1 0x7 SWAP12 SWAP10 SWAP7 PUSH0 SWAP3 PUSH2 0x99C JUMPI POP POP PUSH0 NOT PUSH1 0x3 DUP4 SWAP1 SHL SHR NOT AND SWAP1 DUP14 SHL OR SWAP1 SSTORE MLOAD PUSH1 0x2 DUP10 ADD SSTORE MLOAD PUSH1 0x3 DUP9 ADD SSTORE MLOAD PUSH1 0x4 DUP8 ADD SSTORE MLOAD ISZERO ISZERO PUSH1 0x5 DUP7 ADD SWAP1 PUSH1 0xFF DUP1 NOT DUP4 SLOAD AND SWAP2 ISZERO ISZERO AND OR SWAP1 SSTORE JUMP JUMPDEST MLOAD PUSH1 0x6 DUP5 ADD SSTORE MLOAD SWAP2 ADD SSTORE DUP8 PUSH0 MSTORE PUSH1 0x10 PUSH1 0x20 MSTORE PUSH1 0x40 PUSH0 KECCAK256 DUP2 PUSH0 MSTORE PUSH1 0x20 MSTORE PUSH2 0x4C28 PUSH1 0x40 PUSH0 KECCAK256 PUSH1 0x40 MLOAD SWAP1 PUSH2 0x4C14 DUP3 PUSH2 0x565E JUMP JUMPDEST DUP12 DUP3 MSTORE TIMESTAMP PUSH1 0x20 DUP4 ADD MSTORE PUSH0 PUSH1 0x40 DUP4 ADD MSTORE PUSH2 0x59D4 JUMP JUMPDEST ADD PUSH2 0x4A95 JUMP JUMPDEST SWAP1 PUSH1 0x1F NOT DUP4 AND SWAP2 DUP5 PUSH0 MSTORE DUP2 PUSH0 KECCAK256 SWAP3 PUSH0 JUMPDEST DUP2 DUP2 LT PUSH2 0x4C6F JUMPI POP SWAP4 PUSH1 0x1 SWAP14 SWAP13 SWAP12 SWAP10 SWAP7 SWAP4 PUSH1 0x7 SWAP12 SWAP10 SWAP7 SWAP4 DUP16 SWAP4 DUP4 PUSH2 0x4BE4 SWAP12 SWAP9 LT PUSH2 0x9E9 JUMPI POP POP POP DUP2 SHL ADD SWAP1 SSTORE PUSH2 0x928 JUMP JUMPDEST SWAP3 SWAP4 PUSH1 0x20 PUSH1 0x1 DUP2 SWAP3 DUP8 DUP7 ADD MLOAD DUP2 SSTORE ADD SWAP6 ADD SWAP4 ADD PUSH2 0x4C3E JUMP JUMPDEST DUP4 PUSH0 MSTORE PUSH1 0x20 PUSH0 KECCAK256 PUSH1 0x1F DUP5 ADD PUSH1 0x5 SHR DUP2 ADD SWAP2 PUSH1 0x20 DUP6 LT PUSH2 0x4CC2 JUMPI JUMPDEST PUSH1 0x1F ADD PUSH1 0x5 SHR ADD SWAP1 JUMPDEST DUP2 DUP2 LT PUSH2 0x4CB7 JUMPI POP PUSH2 0x4B7F JUMP JUMPDEST PUSH0 DUP2 SSTORE PUSH1 0x1 ADD PUSH2 0x4CAA JUMP JUMPDEST SWAP1 SWAP2 POP DUP2 SWAP1 PUSH2 0x4CA1 JUMP JUMPDEST ADD MLOAD SWAP1 POP PUSH0 DUP1 PUSH2 0x4B42 JUMP JUMPDEST PUSH0 DUP13 DUP2 MSTORE DUP3 DUP2 KECCAK256 SWAP4 POP PUSH1 0x1F NOT DUP6 AND SWAP1 JUMPDEST DUP2 DUP2 LT PUSH2 0x4D22 JUMPI POP SWAP1 DUP5 PUSH1 0x1 SWAP6 SWAP5 SWAP4 SWAP3 LT PUSH2 0x4D0A JUMPI JUMPDEST POP POP POP DUP2 SHL ADD DUP9 SSTORE PUSH2 0x4B56 JUMP JUMPDEST ADD MLOAD PUSH0 NOT PUSH1 0xF8 DUP5 PUSH1 0x3 SHL AND SHR NOT AND SWAP1 SSTORE PUSH0 DUP1 DUP1 PUSH2 0x4CFD JUMP JUMPDEST SWAP3 SWAP4 PUSH1 0x20 PUSH1 0x1 DUP2 SWAP3 DUP8 DUP7 ADD MLOAD DUP2 SSTORE ADD SWAP6 ADD SWAP4 ADD PUSH2 0x4CE7 JUMP JUMPDEST SWAP1 SWAP2 POP DUP11 PUSH0 MSTORE PUSH1 0x20 PUSH0 KECCAK256 PUSH1 0x1F DUP5 ADD PUSH1 0x5 SHR DUP2 ADD SWAP2 PUSH1 0x20 DUP6 LT PUSH2 0x4D80 JUMPI JUMPDEST SWAP1 PUSH1 0x1F DUP6 SWAP5 SWAP4 SWAP3 ADD PUSH1 0x5 SHR ADD SWAP1 JUMPDEST DUP2 DUP2 LT PUSH2 0x4D72 JUMPI POP PUSH2 0x4B2C JUMP JUMPDEST PUSH0 DUP2 SSTORE DUP5 SWAP4 POP PUSH1 0x1 ADD PUSH2 0x4D65 JUMP JUMPDEST SWAP1 SWAP2 POP DUP2 SWAP1 PUSH2 0x4D57 JUMP JUMPDEST POP DUP3 DUP7 SWAP2 DUP10 PUSH2 0x4D9C DUP5 PUSH2 0xB43 DUP5 PUSH2 0x5838 JUMP JUMPDEST PUSH2 0x4DAA DUP5 PUSH2 0xB43 PUSH1 0x1 PUSH2 0x584F JUMP JUMPDEST SLOAD PUSH2 0x4DC0 PUSH1 0x40 MLOAD SWAP6 PUSH1 0xC0 DUP8 MSTORE PUSH1 0xC0 DUP8 ADD SWAP1 PUSH2 0x55E6 JUMP JUMPDEST DUP6 DUP2 SUB PUSH1 0x20 DUP8 ADD MSTORE DUP4 MLOAD DUP1 DUP3 MSTORE PUSH1 0x20 DUP3 ADD SWAP2 PUSH1 0x20 DUP1 DUP4 PUSH1 0x5 SHL DUP4 ADD ADD SWAP7 ADD SWAP3 PUSH0 SWAP2 JUMPDEST DUP4 DUP4 LT PUSH2 0x4E53 JUMPI PUSH1 0x20 DUP10 DUP1 PUSH0 DUP1 MLOAD PUSH1 0x20 PUSH2 0x5F93 DUP4 CODECOPY DUP2 MLOAD SWAP2 MSTORE DUP14 DUP1 DUP14 PUSH2 0x4E12 DUP15 DUP15 PUSH1 0x40 DUP6 ADD MSTORE PUSH1 0x60 DUP5 ADD SWAP1 PUSH2 0x57BB JUMP JUMPDEST PUSH1 0x1 PUSH1 0x80 DUP4 ADD MSTORE CALLER PUSH1 0xA0 DUP4 ADD MSTORE SUB SWAP1 LOG2 DUP1 PUSH0 MSTORE PUSH1 0xC DUP3 MSTORE PUSH1 0x1A PUSH1 0x40 PUSH0 KECCAK256 PUSH1 0xC4 CALLDATALOAD PUSH1 0x17 DUP3 ADD SSTORE PUSH1 0xE4 CALLDATALOAD PUSH1 0x18 DUP3 ADD SSTORE ADD PUSH1 0x1 PUSH1 0xFF NOT DUP3 SLOAD AND OR SWAP1 SSTORE PUSH1 0x40 MLOAD SWAP1 DUP2 MSTORE RETURN JUMPDEST SWAP1 SWAP2 SWAP3 SWAP4 SWAP7 PUSH1 0x20 DUP1 PUSH2 0x4E71 PUSH1 0x1 SWAP4 PUSH1 0x1F NOT DUP7 DUP3 SUB ADD DUP8 MSTORE DUP12 MLOAD PUSH2 0x55E6 JUMP JUMPDEST SWAP10 ADD SWAP4 ADD SWAP4 ADD SWAP2 SWAP4 SWAP3 SWAP1 PUSH2 0x4DE2 JUMP JUMPDEST SWAP1 PUSH1 0x1F NOT DUP4 AND SWAP2 DUP5 PUSH0 MSTORE DUP2 PUSH0 KECCAK256 SWAP3 PUSH0 JUMPDEST DUP2 DUP2 LT PUSH2 0x4EB7 JUMPI POP SWAP2 PUSH1 0x1 SWAP4 SWAP2 DUP6 PUSH2 0x4A04 SWAP9 SWAP8 SWAP7 SWAP5 LT PUSH2 0xC58 JUMPI POP POP POP DUP2 SHL ADD SWAP1 SSTORE PUSH2 0x755 JUMP JUMPDEST SWAP3 SWAP4 PUSH1 0x20 PUSH1 0x1 DUP2 SWAP3 DUP8 DUP7 ADD MLOAD DUP2 SSTORE ADD SWAP6 ADD SWAP4 ADD PUSH2 0x4E90 JUMP JUMPDEST DUP4 PUSH0 MSTORE PUSH1 0x20 PUSH0 KECCAK256 PUSH1 0x1F DUP5 ADD PUSH1 0x5 SHR DUP2 ADD SWAP2 PUSH1 0x20 DUP6 LT PUSH2 0x4F0A JUMPI JUMPDEST PUSH1 0x1F ADD PUSH1 0x5 SHR ADD SWAP1 JUMPDEST DUP2 DUP2 LT PUSH2 0x4EFF JUMPI POP PUSH2 0x49CE JUMP JUMPDEST PUSH0 DUP2 SSTORE PUSH1 0x1 ADD PUSH2 0x4EF2 JUMP JUMPDEST SWAP1 SWAP2 POP DUP2 SWAP1 PUSH2 0x4EE9 JUMP JUMPDEST SWAP1 POP DUP11 ADD MLOAD DUP12 PUSH2 0x4993 JUMP JUMPDEST PUSH0 DUP12 DUP2 MSTORE DUP2 DUP2 KECCAK256 SWAP3 POP PUSH1 0x1F NOT DUP5 AND SWAP1 JUMPDEST DUP14 DUP3 DUP3 LT PUSH2 0x4F6A JUMPI POP POP SWAP1 DUP4 PUSH1 0x1 SWAP5 SWAP4 SWAP3 LT PUSH2 0x4F52 JUMPI JUMPDEST POP POP DUP2 SHL ADD DUP9 SSTORE PUSH2 0x49A6 JUMP JUMPDEST DUP13 ADD MLOAD PUSH0 NOT PUSH1 0xF8 DUP5 PUSH1 0x3 SHL AND SHR NOT AND SWAP1 SSTORE DUP12 DUP1 PUSH2 0x4F46 JUMP JUMPDEST PUSH1 0x1 DUP5 SWAP6 PUSH1 0x20 SWAP4 SWAP6 DUP5 SWAP4 ADD MLOAD DUP2 SSTORE ADD SWAP5 ADD SWAP3 ADD PUSH2 0x4F2F JUMP JUMPDEST DUP10 PUSH0 MSTORE PUSH1 0x20 PUSH0 KECCAK256 PUSH1 0x1F DUP4 ADD PUSH1 0x5 SHR DUP2 ADD SWAP2 PUSH1 0x20 DUP5 LT PUSH2 0x4FBD JUMPI JUMPDEST PUSH1 0x1F ADD PUSH1 0x5 SHR ADD SWAP1 JUMPDEST DUP2 DUP2 LT PUSH2 0x4FB2 JUMPI POP PUSH2 0x497D JUMP JUMPDEST PUSH0 DUP2 SSTORE PUSH1 0x1 ADD PUSH2 0x4FA5 JUMP JUMPDEST SWAP1 SWAP2 POP DUP2 SWAP1 PUSH2 0x4F9C JUMP JUMPDEST PUSH2 0x4FE0 SWAP2 POP PUSH1 0x20 RETURNDATASIZE PUSH1 0x20 GT PUSH2 0xDB7 JUMPI PUSH2 0xDA9 DUP2 DUP4 PUSH2 0x56B0 JUMP JUMPDEST DUP9 PUSH2 0x4937 JUMP JUMPDEST PUSH1 0xA SWAP2 POP GT DUP9 PUSH2 0x48CB JUMP JUMPDEST POP PUSH4 0x1E13380 DUP5 GT PUSH2 0x48B2 JUMP JUMPDEST POP CALLER PUSH0 SWAP1 DUP2 MSTORE PUSH0 DUP1 MLOAD PUSH1 0x20 PUSH2 0x5F73 DUP4 CODECOPY DUP2 MLOAD SWAP2 MSTORE PUSH1 0x20 MSTORE PUSH1 0x40 SWAP1 KECCAK256 SLOAD PUSH1 0xFF AND ISZERO PUSH2 0x48A2 JUMP JUMPDEST CALLVALUE PUSH2 0x49D JUMPI PUSH1 0x20 CALLDATASIZE PUSH1 0x3 NOT ADD SLT PUSH2 0x49D JUMPI PUSH1 0x4 CALLDATALOAD PUSH1 0x6 SLOAD DUP2 LT ISZERO PUSH2 0x524 JUMPI PUSH0 MSTORE PUSH1 0xC PUSH1 0x20 MSTORE PUSH1 0x40 PUSH0 KECCAK256 PUSH1 0xA DUP2 ADD SLOAD PUSH2 0x505A DUP2 PUSH2 0x593E JUMP JUMPDEST SWAP1 PUSH0 SWAP3 PUSH1 0xF PUSH0 SWAP2 ADD SWAP1 JUMPDEST DUP3 DUP2 LT PUSH2 0x50D1 JUMPI POP PUSH0 JUMPDEST DUP3 DUP2 LT PUSH2 0x5083 JUMPI PUSH1 0x40 MLOAD DUP1 PUSH2 0x2385 DUP7 DUP3 PUSH2 0x560A JUMP JUMPDEST DUP1 PUSH0 MSTORE DUP2 PUSH1 0x20 MSTORE PUSH1 0x6 PUSH1 0x40 PUSH0 KECCAK256 ADD SLOAD SWAP1 PUSH8 0xDE0B6B3A7640000 DUP3 MUL SWAP2 DUP1 DUP4 DIV PUSH8 0xDE0B6B3A7640000 EQ SWAP1 ISZERO OR ISZERO PUSH2 0xEF8 JUMPI PUSH2 0x50C0 DUP7 PUSH1 0x1 SWAP4 PUSH2 0x5990 JUMP JUMPDEST PUSH2 0x50CA DUP3 DUP8 PUSH2 0x599A JUMP JUMPDEST MSTORE ADD PUSH2 0x506E JUMP JUMPDEST SWAP4 PUSH2 0x50ED PUSH1 0x1 SWAP2 DUP7 PUSH0 MSTORE DUP4 PUSH1 0x20 MSTORE PUSH1 0x6 PUSH1 0x40 PUSH0 KECCAK256 ADD SLOAD SWAP1 PUSH2 0x5970 JUMP JUMPDEST SWAP5 ADD PUSH2 0x5064 JUMP JUMPDEST CALLVALUE PUSH2 0x49D JUMPI PUSH1 0x20 CALLDATASIZE PUSH1 0x3 NOT ADD SLT PUSH2 0x49D JUMPI PUSH1 0x20 PUSH2 0x2751 PUSH1 0x4 CALLDATALOAD PUSH0 MSTORE PUSH1 0x2 PUSH1 0x20 MSTORE PUSH1 0x1 PUSH1 0x40 PUSH0 KECCAK256 ADD SLOAD SWAP1 JUMP JUMPDEST CALLVALUE PUSH2 0x49D JUMPI PUSH2 0x512D CALLDATASIZE PUSH2 0x55D0 JUMP JUMPDEST SWAP1 PUSH1 0x6 SLOAD DUP2 LT ISZERO PUSH2 0x524 JUMPI PUSH0 MSTORE PUSH1 0xC PUSH1 0x20 MSTORE PUSH1 0xF PUSH1 0x40 PUSH0 KECCAK256 ADD SWAP1 PUSH0 MSTORE PUSH1 0x20 MSTORE PUSH2 0x5197 PUSH1 0x40 PUSH0 KECCAK256 PUSH1 0x2 DUP2 ADD SLOAD PUSH1 0x3 DUP3 ADD SLOAD PUSH1 0x4 DUP4 ADD SLOAD PUSH1 0xFF PUSH1 0x5 DUP6 ADD SLOAD AND SWAP2 PUSH2 0x51A5 PUSH2 0x5183 PUSH1 0x1 PUSH2 0x517C DUP9 PUSH2 0x589E JUMP JUMPDEST SWAP8 ADD PUSH2 0x589E JUMP JUMPDEST PUSH1 0x40 MLOAD SWAP8 DUP9 SWAP8 PUSH1 0xC0 DUP10 MSTORE PUSH1 0xC0 DUP10 ADD SWAP1 PUSH2 0x55E6 JUMP JUMPDEST SWAP1 DUP8 DUP3 SUB PUSH1 0x20 DUP10 ADD MSTORE PUSH2 0x55E6 JUMP JUMPDEST SWAP4 PUSH1 0x40 DUP7 ADD MSTORE PUSH1 0x60 DUP6 ADD MSTORE PUSH1 0x80 DUP5 ADD MSTORE ISZERO ISZERO PUSH1 0xA0 DUP4 ADD MSTORE SUB SWAP1 RETURN JUMPDEST CALLVALUE PUSH2 0x49D JUMPI PUSH1 0x20 CALLDATASIZE PUSH1 0x3 NOT ADD SLT PUSH2 0x49D JUMPI PUSH2 0x51D9 PUSH2 0x5B54 JUMP JUMPDEST PUSH1 0x4 CALLDATALOAD PUSH1 0x9 SSTORE STOP JUMPDEST CALLVALUE PUSH2 0x49D JUMPI PUSH1 0x20 CALLDATASIZE PUSH1 0x3 NOT ADD SLT PUSH2 0x49D JUMPI PUSH2 0x51FA PUSH2 0x558B JUMP JUMPDEST PUSH0 PUSH1 0x80 PUSH1 0x40 MLOAD PUSH2 0x5209 DUP2 PUSH2 0x5643 JUMP JUMPDEST DUP3 DUP2 MSTORE DUP3 PUSH1 0x20 DUP3 ADD MSTORE DUP3 PUSH1 0x40 DUP3 ADD MSTORE DUP3 PUSH1 0x60 DUP3 ADD MSTORE ADD MSTORE PUSH1 0x1 DUP1 PUSH1 0xA0 SHL SUB AND PUSH0 MSTORE PUSH1 0xD PUSH1 0x20 MSTORE PUSH1 0xA0 PUSH1 0x40 PUSH0 KECCAK256 PUSH1 0x40 MLOAD PUSH2 0x5241 DUP2 PUSH2 0x5643 JUMP JUMPDEST DUP2 SLOAD SWAP2 DUP3 DUP3 MSTORE PUSH1 0x1 DUP2 ADD SLOAD PUSH1 0x20 DUP4 ADD SWAP1 DUP2 MSTORE PUSH1 0x2 DUP3 ADD SLOAD SWAP1 PUSH1 0x40 DUP5 ADD SWAP2 DUP3 MSTORE PUSH1 0x80 PUSH1 0x4 PUSH1 0x3 DUP6 ADD SLOAD SWAP5 PUSH1 0x60 DUP8 ADD SWAP6 DUP7 MSTORE ADD SLOAD SWAP5 ADD SWAP4 DUP5 MSTORE PUSH1 0x40 MLOAD SWAP5 DUP6 MSTORE MLOAD PUSH1 0x20 DUP6 ADD MSTORE MLOAD PUSH1 0x40 DUP5 ADD MSTORE MLOAD PUSH1 0x60 DUP4 ADD MSTORE MLOAD PUSH1 0x80 DUP3 ADD MSTORE RETURN JUMPDEST CALLVALUE PUSH2 0x49D JUMPI PUSH2 0x52A6 CALLDATASIZE PUSH2 0x55D0 JUMP JUMPDEST SWAP1 PUSH0 MSTORE PUSH1 0xF PUSH1 0x20 MSTORE PUSH1 0x40 PUSH0 KECCAK256 SWAP1 DUP2 SLOAD DUP2 LT ISZERO PUSH2 0x49D JUMPI PUSH2 0x52C5 SWAP2 PUSH2 0x55B7 JUMP JUMPDEST POP DUP1 SLOAD PUSH1 0x1 DUP3 ADD SLOAD PUSH1 0x2 DUP4 ADD SLOAD PUSH1 0x3 DUP5 ADD SLOAD PUSH1 0x4 DUP6 ADD SLOAD PUSH1 0x5 DUP7 ADD SLOAD PUSH1 0x6 SWAP1 SWAP7 ADD SLOAD PUSH1 0x40 DUP1 MLOAD SWAP7 DUP8 MSTORE PUSH1 0x20 DUP8 ADD SWAP6 SWAP1 SWAP6 MSTORE PUSH1 0x1 PUSH1 0x1 PUSH1 0xA0 SHL SUB SWAP4 DUP5 AND SWAP5 DUP7 ADD SWAP5 SWAP1 SWAP5 MSTORE SWAP2 AND PUSH1 0x60 DUP5 ADD MSTORE PUSH1 0x80 DUP4 ADD MSTORE PUSH1 0xA0 DUP3 ADD SWAP3 SWAP1 SWAP3 MSTORE PUSH1 0xC0 DUP2 ADD SWAP2 SWAP1 SWAP2 MSTORE PUSH1 0xE0 SWAP1 RETURN JUMPDEST CALLVALUE PUSH2 0x49D JUMPI PUSH1 0x20 CALLDATASIZE PUSH1 0x3 NOT ADD SLT PUSH2 0x49D JUMPI PUSH2 0x5342 PUSH2 0x558B JUMP JUMPDEST PUSH2 0x534A PUSH2 0x5B54 JUMP JUMPDEST PUSH1 0x1 PUSH1 0x1 PUSH1 0xA0 SHL SUB DUP2 AND SWAP1 DUP2 ISZERO PUSH2 0x447 JUMPI PUSH1 0x3 DUP1 SLOAD PUSH1 0x4 DUP1 SLOAD PUSH1 0x1 PUSH1 0x1 PUSH1 0xA0 SHL SUB NOT AND PUSH1 0x8 DUP4 DUP2 SHR PUSH1 0x1 PUSH1 0x1 PUSH1 0xA0 SHL SUB AND SWAP2 DUP3 OR SWAP1 SWAP3 SSTORE PUSH2 0x100 PUSH1 0x1 PUSH1 0xA8 SHL SUB NOT SWAP1 SWAP3 AND SWAP4 SWAP1 SHL PUSH2 0x100 PUSH1 0x1 PUSH1 0xA8 SHL SUB AND SWAP3 SWAP1 SWAP3 OR SWAP1 SSTORE TIMESTAMP PUSH1 0x5 DUP2 SWAP1 SSTORE PUSH1 0x40 MLOAD SWAP1 DUP2 MSTORE PUSH32 0xA16C473A31F9F07338CD1D3CCEBDA80CEFDC0CB743AEC539AF892ABFBF5A534E SWAP1 PUSH1 0x20 SWAP1 LOG3 STOP JUMPDEST CALLVALUE PUSH2 0x49D JUMPI PUSH0 CALLDATASIZE PUSH1 0x3 NOT ADD SLT PUSH2 0x49D JUMPI PUSH1 0x80 PUSH1 0xB SLOAD PUSH1 0x1 DUP1 PUSH1 0xA0 SHL SUB PUSH1 0xA SLOAD AND PUSH1 0x6 SLOAD PUSH1 0x7 SLOAD SWAP2 PUSH1 0x40 MLOAD SWAP4 DUP5 MSTORE PUSH1 0x20 DUP5 ADD MSTORE PUSH1 0x40 DUP4 ADD MSTORE PUSH1 0x60 DUP3 ADD MSTORE RETURN JUMPDEST CALLVALUE PUSH2 0x49D JUMPI PUSH0 CALLDATASIZE PUSH1 0x3 NOT ADD SLT PUSH2 0x49D JUMPI PUSH1 0x20 PUSH1 0x40 MLOAD PUSH1 0x1E DUP2 MSTORE RETURN JUMPDEST CALLVALUE PUSH2 0x49D JUMPI PUSH0 CALLDATASIZE PUSH1 0x3 NOT ADD SLT PUSH2 0x49D JUMPI PUSH1 0x20 PUSH1 0x5 SLOAD PUSH1 0x40 MLOAD SWAP1 DUP2 MSTORE RETURN JUMPDEST CALLVALUE PUSH2 0x49D JUMPI PUSH0 CALLDATASIZE PUSH1 0x3 NOT ADD SLT PUSH2 0x49D JUMPI PUSH1 0x20 PUSH1 0x40 MLOAD PUSH1 0xA DUP2 MSTORE RETURN JUMPDEST CALLVALUE PUSH2 0x49D JUMPI PUSH1 0x40 CALLDATASIZE PUSH1 0x3 NOT ADD SLT PUSH2 0x49D JUMPI PUSH2 0x547F PUSH2 0x558B JUMP JUMPDEST PUSH1 0x1 PUSH1 0x1 PUSH1 0xA0 SHL SUB AND PUSH0 SWAP1 DUP2 MSTORE PUSH1 0xE PUSH1 0x20 MSTORE PUSH1 0x40 SWAP1 KECCAK256 DUP1 SLOAD PUSH1 0x24 CALLDATALOAD SWAP1 DUP2 LT ISZERO PUSH2 0x49D JUMPI PUSH2 0x52C5 SWAP2 PUSH2 0x55B7 JUMP JUMPDEST CALLVALUE PUSH2 0x49D JUMPI PUSH1 0x20 CALLDATASIZE PUSH1 0x3 NOT ADD SLT PUSH2 0x49D JUMPI PUSH1 0x4 CALLDATALOAD PUSH1 0x16 SLOAD DUP2 LT ISZERO PUSH2 0x49D JUMPI PUSH1 0x16 SLOAD DUP2 LT ISZERO PUSH2 0x550F JUMPI PUSH1 0x16 PUSH0 MSTORE PUSH32 0xD833147D7DC355BA459FC788F669E58CFAF9DC25DDCD0702E87D69C7B5124289 ADD SLOAD PUSH1 0x40 MLOAD PUSH1 0x1 PUSH1 0x1 PUSH1 0xA0 SHL SUB SWAP1 SWAP2 AND DUP2 MSTORE PUSH1 0x20 SWAP1 RETURN JUMPDEST PUSH4 0x4E487B71 PUSH1 0xE0 SHL PUSH0 MSTORE PUSH1 0x32 PUSH1 0x4 MSTORE PUSH1 0x24 PUSH0 REVERT JUMPDEST CALLVALUE PUSH2 0x49D JUMPI PUSH1 0x20 CALLDATASIZE PUSH1 0x3 NOT ADD SLT PUSH2 0x49D JUMPI PUSH1 0x4 CALLDATALOAD SWAP1 PUSH4 0xFFFFFFFF PUSH1 0xE0 SHL DUP3 AND DUP1 SWAP3 SUB PUSH2 0x49D JUMPI PUSH1 0x20 SWAP2 PUSH4 0x7965DB0B PUSH1 0xE0 SHL DUP2 EQ SWAP1 DUP2 ISZERO PUSH2 0x5565 JUMPI JUMPDEST POP ISZERO ISZERO DUP2 MSTORE RETURN JUMPDEST PUSH4 0x1FFC9A7 PUSH1 0xE0 SHL EQ SWAP1 POP DUP4 PUSH2 0x555E JUMP JUMPDEST DUP1 SLOAD DUP3 LT ISZERO PUSH2 0x550F JUMPI PUSH0 MSTORE PUSH1 0x20 PUSH0 KECCAK256 ADD SWAP1 PUSH0 SWAP1 JUMP JUMPDEST PUSH1 0x4 CALLDATALOAD SWAP1 PUSH1 0x1 PUSH1 0x1 PUSH1 0xA0 SHL SUB DUP3 AND DUP3 SUB PUSH2 0x49D JUMPI JUMP JUMPDEST PUSH1 0x24 CALLDATALOAD SWAP1 PUSH1 0x1 PUSH1 0x1 PUSH1 0xA0 SHL SUB DUP3 AND DUP3 SUB PUSH2 0x49D JUMPI JUMP JUMPDEST DUP1 SLOAD DUP3 LT ISZERO PUSH2 0x550F JUMPI PUSH0 MSTORE PUSH1 0x7 PUSH1 0x20 PUSH0 KECCAK256 SWAP2 MUL ADD SWAP1 PUSH0 SWAP1 JUMP JUMPDEST PUSH1 0x40 SWAP1 PUSH1 0x3 NOT ADD SLT PUSH2 0x49D JUMPI PUSH1 0x4 CALLDATALOAD SWAP1 PUSH1 0x24 CALLDATALOAD SWAP1 JUMP JUMPDEST DUP1 MLOAD DUP1 DUP4 MSTORE PUSH1 0x20 SWAP3 SWAP2 DUP2 SWAP1 DUP5 ADD DUP5 DUP5 ADD MCOPY PUSH0 DUP3 DUP3 ADD DUP5 ADD MSTORE PUSH1 0x1F ADD PUSH1 0x1F NOT AND ADD ADD SWAP1 JUMP JUMPDEST PUSH1 0x20 PUSH1 0x40 DUP2 DUP4 ADD SWAP3 DUP3 DUP2 MSTORE DUP5 MLOAD DUP1 SWAP5 MSTORE ADD SWAP3 ADD SWAP1 PUSH0 JUMPDEST DUP2 DUP2 LT PUSH2 0x562D JUMPI POP POP POP SWAP1 JUMP JUMPDEST DUP3 MLOAD DUP5 MSTORE PUSH1 0x20 SWAP4 DUP5 ADD SWAP4 SWAP1 SWAP3 ADD SWAP2 PUSH1 0x1 ADD PUSH2 0x5620 JUMP JUMPDEST PUSH1 0xA0 DUP2 ADD SWAP1 DUP2 LT PUSH1 0x1 PUSH1 0x1 PUSH1 0x40 SHL SUB DUP3 GT OR PUSH2 0xA5E JUMPI PUSH1 0x40 MSTORE JUMP JUMPDEST PUSH1 0x60 DUP2 ADD SWAP1 DUP2 LT PUSH1 0x1 PUSH1 0x1 PUSH1 0x40 SHL SUB DUP3 GT OR PUSH2 0xA5E JUMPI PUSH1 0x40 MSTORE JUMP JUMPDEST PUSH1 0xE0 DUP2 ADD SWAP1 DUP2 LT PUSH1 0x1 PUSH1 0x1 PUSH1 0x40 SHL SUB DUP3 GT OR PUSH2 0xA5E JUMPI PUSH1 0x40 MSTORE JUMP JUMPDEST PUSH2 0x100 DUP2 ADD SWAP1 DUP2 LT PUSH1 0x1 PUSH1 0x1 PUSH1 0x40 SHL SUB DUP3 GT OR PUSH2 0xA5E JUMPI PUSH1 0x40 MSTORE JUMP JUMPDEST SWAP1 PUSH1 0x1F DUP1 NOT SWAP2 ADD AND DUP2 ADD SWAP1 DUP2 LT PUSH1 0x1 PUSH1 0x1 PUSH1 0x40 SHL SUB DUP3 GT OR PUSH2 0xA5E JUMPI PUSH1 0x40 MSTORE JUMP JUMPDEST DUP2 PUSH1 0x1F DUP3 ADD SLT ISZERO PUSH2 0x49D JUMPI DUP1 CALLDATALOAD SWAP1 PUSH1 0x1 PUSH1 0x1 PUSH1 0x40 SHL SUB DUP3 GT PUSH2 0xA5E JUMPI PUSH1 0x40 MLOAD SWAP3 PUSH2 0x5705 PUSH1 0x1F DUP5 ADD PUSH1 0x1F NOT AND PUSH1 0x20 ADD DUP6 PUSH2 0x56B0 JUMP JUMPDEST DUP3 DUP5 MSTORE PUSH1 0x20 DUP4 DUP4 ADD ADD GT PUSH2 0x49D JUMPI DUP2 PUSH0 SWAP3 PUSH1 0x20 DUP1 SWAP4 ADD DUP4 DUP7 ADD CALLDATACOPY DUP4 ADD ADD MSTORE SWAP1 JUMP JUMPDEST PUSH1 0x1 PUSH1 0x1 PUSH1 0x40 SHL SUB DUP2 GT PUSH2 0xA5E JUMPI PUSH1 0x5 SHL PUSH1 0x20 ADD SWAP1 JUMP JUMPDEST SWAP1 DUP1 PUSH1 0x1F DUP4 ADD SLT ISZERO PUSH2 0x49D JUMPI DUP2 CALLDATALOAD PUSH2 0x5754 DUP2 PUSH2 0x5726 JUMP JUMPDEST SWAP3 PUSH2 0x5762 PUSH1 0x40 MLOAD SWAP5 DUP6 PUSH2 0x56B0 JUMP JUMPDEST DUP2 DUP5 MSTORE PUSH1 0x20 DUP1 DUP6 ADD SWAP3 PUSH1 0x5 SHL DUP3 ADD ADD SWAP2 DUP4 DUP4 GT PUSH2 0x49D JUMPI PUSH1 0x20 DUP3 ADD SWAP1 JUMPDEST DUP4 DUP3 LT PUSH2 0x578E JUMPI POP POP POP POP POP SWAP1 JUMP JUMPDEST DUP2 CALLDATALOAD PUSH1 0x1 PUSH1 0x1 PUSH1 0x40 SHL SUB DUP2 GT PUSH2 0x49D JUMPI PUSH1 0x20 SWAP2 PUSH2 0x57B0 DUP8 DUP5 DUP1 SWAP5 DUP9 ADD ADD PUSH2 0x56D1 JUMP JUMPDEST DUP2 MSTORE ADD SWAP2 ADD SWAP1 PUSH2 0x577F JUMP JUMPDEST SWAP1 PUSH1 0x8 DUP3 LT ISZERO PUSH2 0x2651 JUMPI MSTORE JUMP JUMPDEST PUSH1 0x80 SWAP1 PUSH1 0x3 NOT ADD SLT PUSH2 0x49D JUMPI PUSH1 0x4 CALLDATALOAD SWAP1 PUSH1 0x24 CALLDATALOAD SWAP1 PUSH1 0x44 CALLDATALOAD SWAP1 PUSH1 0x64 CALLDATALOAD SWAP1 JUMP JUMPDEST PUSH1 0x60 SWAP1 PUSH1 0x3 NOT ADD SLT PUSH2 0x49D JUMPI PUSH1 0x4 CALLDATALOAD SWAP1 PUSH1 0x24 CALLDATALOAD SWAP1 PUSH1 0x44 CALLDATALOAD SWAP1 JUMP JUMPDEST DUP1 SLOAD DUP3 LT ISZERO PUSH2 0x550F JUMPI PUSH0 MSTORE PUSH1 0x3 PUSH1 0x20 PUSH0 KECCAK256 SWAP2 MUL ADD SWAP1 PUSH0 SWAP1 JUMP JUMPDEST PUSH1 0x40 SWAP1 PUSH1 0x3 NOT ADD SLT PUSH2 0x49D JUMPI PUSH1 0x4 CALLDATALOAD PUSH1 0x8 DUP2 LT ISZERO PUSH2 0x49D JUMPI SWAP1 PUSH1 0x24 CALLDATALOAD SWAP1 JUMP JUMPDEST PUSH1 0x8 DUP2 LT ISZERO PUSH2 0x2651 JUMPI PUSH0 MSTORE PUSH1 0x11 PUSH1 0x20 MSTORE PUSH1 0x40 PUSH0 KECCAK256 SWAP1 JUMP JUMPDEST PUSH1 0x3 DUP2 LT ISZERO PUSH2 0x2651 JUMPI PUSH0 MSTORE PUSH1 0x13 PUSH1 0x20 MSTORE PUSH1 0x40 PUSH0 KECCAK256 SWAP1 JUMP JUMPDEST SWAP1 PUSH1 0x1 DUP3 DUP2 SHR SWAP3 AND DUP1 ISZERO PUSH2 0x5894 JUMPI JUMPDEST PUSH1 0x20 DUP4 LT EQ PUSH2 0x5880 JUMPI JUMP JUMPDEST PUSH4 0x4E487B71 PUSH1 0xE0 SHL PUSH0 MSTORE PUSH1 0x22 PUSH1 0x4 MSTORE PUSH1 0x24 PUSH0 REVERT JUMPDEST SWAP2 PUSH1 0x7F AND SWAP2 PUSH2 0x5875 JUMP JUMPDEST SWAP1 PUSH1 0x40 MLOAD SWAP2 DUP3 PUSH0 DUP3 SLOAD SWAP3 PUSH2 0x58B1 DUP5 PUSH2 0x5866 JUMP JUMPDEST DUP1 DUP5 MSTORE SWAP4 PUSH1 0x1 DUP2 AND SWAP1 DUP2 ISZERO PUSH2 0x591C JUMPI POP PUSH1 0x1 EQ PUSH2 0x58D8 JUMPI JUMPDEST POP PUSH2 0x58D6 SWAP3 POP SUB DUP4 PUSH2 0x56B0 JUMP JUMPDEST JUMP JUMPDEST SWAP1 POP PUSH0 SWAP3 SWAP2 SWAP3 MSTORE PUSH1 0x20 PUSH0 KECCAK256 SWAP1 PUSH0 SWAP2 JUMPDEST DUP2 DUP4 LT PUSH2 0x5900 JUMPI POP POP SWAP1 PUSH1 0x20 PUSH2 0x58D6 SWAP3 DUP3 ADD ADD PUSH0 PUSH2 0x58C9 JUMP JUMPDEST PUSH1 0x20 SWAP2 SWAP4 POP DUP1 PUSH1 0x1 SWAP2 SLOAD DUP4 DUP6 DUP10 ADD ADD MSTORE ADD SWAP2 ADD SWAP1 SWAP2 DUP5 SWAP3 PUSH2 0x58E7 JUMP JUMPDEST SWAP1 POP PUSH1 0x20 SWAP3 POP PUSH2 0x58D6 SWAP5 SWAP2 POP PUSH1 0xFF NOT AND DUP3 DUP5 ADD MSTORE ISZERO ISZERO PUSH1 0x5 SHL DUP3 ADD ADD PUSH0 PUSH2 0x58C9 JUMP JUMPDEST SWAP1 PUSH2 0x5948 DUP3 PUSH2 0x5726 JUMP JUMPDEST PUSH2 0x5955 PUSH1 0x40 MLOAD SWAP2 DUP3 PUSH2 0x56B0 JUMP JUMPDEST DUP3 DUP2 MSTORE DUP1 SWAP3 PUSH2 0x5966 PUSH1 0x1F NOT SWAP2 PUSH2 0x5726 JUMP JUMPDEST ADD SWAP1 PUSH1 0x20 CALLDATASIZE SWAP2 ADD CALLDATACOPY JUMP JUMPDEST SWAP2 SWAP1 DUP3 ADD DUP1 SWAP3 GT PUSH2 0xEF8 JUMPI JUMP JUMPDEST DUP2 DUP2 MUL SWAP3 SWAP2 DUP2 ISZERO SWAP2 DUP5 DIV EQ OR ISZERO PUSH2 0xEF8 JUMPI JUMP JUMPDEST DUP2 ISZERO PUSH2 0xC01 JUMPI DIV SWAP1 JUMP JUMPDEST DUP1 MLOAD DUP3 LT ISZERO PUSH2 0x550F JUMPI PUSH1 0x20 SWAP2 PUSH1 0x5 SHL ADD ADD SWAP1 JUMP JUMPDEST SWAP1 DUP2 PUSH1 0x20 SWAP2 SUB SLT PUSH2 0x49D JUMPI MLOAD DUP1 ISZERO ISZERO DUP2 SUB PUSH2 0x49D JUMPI SWAP1 JUMP JUMPDEST PUSH0 NOT DUP2 EQ PUSH2 0xEF8 JUMPI PUSH1 0x1 ADD SWAP1 JUMP JUMPDEST DUP1 SLOAD PUSH1 0x1 PUSH1 0x40 SHL DUP2 LT ISZERO PUSH2 0xA5E JUMPI PUSH2 0x59F1 SWAP2 PUSH1 0x1 DUP3 ADD DUP2 SSTORE PUSH2 0x5800 JUMP JUMPDEST SWAP2 SWAP1 SWAP2 PUSH2 0x5A12 JUMPI PUSH1 0x40 DUP2 PUSH1 0x2 SWAP3 MLOAD DUP5 SSTORE PUSH1 0x20 DUP2 ADD MLOAD PUSH1 0x1 DUP6 ADD SSTORE ADD MLOAD SWAP2 ADD SSTORE JUMP JUMPDEST PUSH4 0x4E487B71 PUSH1 0xE0 SHL PUSH0 MSTORE PUSH0 PUSH1 0x4 MSTORE PUSH1 0x24 PUSH0 REVERT JUMPDEST DUP1 SLOAD PUSH1 0x1 PUSH1 0x40 SHL DUP2 LT ISZERO PUSH2 0xA5E JUMPI PUSH2 0x5A42 SWAP2 PUSH1 0x1 DUP3 ADD DUP2 SSTORE PUSH2 0x5576 JUMP JUMPDEST DUP2 SWAP3 SWAP2 SLOAD SWAP1 PUSH1 0x3 SHL SWAP2 DUP3 SHL SWAP2 PUSH0 NOT SWAP1 SHL NOT AND OR SWAP1 SSTORE JUMP JUMPDEST SWAP2 SWAP1 DUP3 SUB SWAP2 DUP3 GT PUSH2 0xEF8 JUMPI JUMP JUMPDEST DUP1 SLOAD PUSH1 0x1 PUSH1 0x40 SHL DUP2 LT ISZERO PUSH2 0xA5E JUMPI PUSH2 0x5A83 SWAP2 PUSH1 0x1 DUP3 ADD DUP2 SSTORE PUSH2 0x55B7 JUMP JUMPDEST SWAP2 SWAP1 SWAP2 PUSH2 0x5A12 JUMPI DUP1 MLOAD DUP3 SSTORE PUSH1 0x20 DUP2 ADD MLOAD PUSH1 0x1 DUP4 ADD SSTORE PUSH1 0x40 DUP2 ADD MLOAD PUSH1 0x2 DUP4 ADD DUP1 SLOAD PUSH1 0x1 PUSH1 0x1 PUSH1 0xA0 SHL SUB SWAP3 DUP4 AND PUSH1 0x1 PUSH1 0x1 PUSH1 0xA0 SHL SUB NOT SWAP2 DUP3 AND OR SWAP1 SWAP2 SSTORE PUSH1 0x60 DUP4 ADD MLOAD PUSH1 0x3 DUP6 ADD DUP1 SLOAD SWAP2 SWAP1 SWAP4 AND SWAP2 AND OR SWAP1 SSTORE PUSH1 0x80 DUP2 ADD MLOAD PUSH1 0x4 DUP4 ADD SSTORE PUSH1 0xA0 DUP2 ADD MLOAD PUSH1 0x5 DUP4 ADD SSTORE PUSH1 0xC0 ADD MLOAD PUSH1 0x6 SWAP1 SWAP2 ADD SSTORE JUMP JUMPDEST PUSH1 0x16 SLOAD PUSH1 0x1 PUSH1 0x40 SHL DUP2 LT ISZERO PUSH2 0xA5E JUMPI DUP1 PUSH1 0x1 PUSH2 0x5B13 SWAP3 ADD PUSH1 0x16 SSTORE PUSH1 0x16 PUSH2 0x5576 JUMP JUMPDEST DUP2 SLOAD PUSH1 0x1 PUSH1 0x1 PUSH1 0xA0 SHL SUB SWAP4 DUP5 AND PUSH1 0x3 SWAP3 SWAP1 SWAP3 SHL SWAP2 DUP3 SHL SWAP4 SWAP1 SWAP2 SHL NOT AND SWAP2 SWAP1 SWAP2 OR SWAP1 SSTORE JUMP JUMPDEST DUP1 SLOAD PUSH1 0x1 PUSH1 0x40 SHL DUP2 LT ISZERO PUSH2 0xA5E JUMPI PUSH2 0x5B13 SWAP2 PUSH1 0x1 DUP3 ADD DUP2 SSTORE PUSH2 0x5576 JUMP JUMPDEST PUSH0 SLOAD PUSH1 0x1 PUSH1 0x1 PUSH1 0xA0 SHL SUB AND CALLER SUB PUSH2 0x5B67 JUMPI JUMP JUMPDEST PUSH4 0x118CDAA7 PUSH1 0xE0 SHL PUSH0 MSTORE CALLER PUSH1 0x4 MSTORE PUSH1 0x24 PUSH0 REVERT JUMPDEST PUSH1 0xFF PUSH1 0x3 SLOAD AND PUSH2 0x5B86 JUMPI JUMP JUMPDEST PUSH4 0xD93C0665 PUSH1 0xE0 SHL PUSH0 MSTORE PUSH1 0x4 PUSH0 REVERT JUMPDEST PUSH0 DUP2 DUP2 MSTORE PUSH1 0x2 PUSH1 0x20 SWAP1 DUP2 MSTORE PUSH1 0x40 DUP1 DUP4 KECCAK256 CALLER DUP5 MSTORE SWAP1 SWAP2 MSTORE SWAP1 KECCAK256 SLOAD PUSH1 0xFF AND ISZERO PUSH2 0x5BB9 JUMPI POP JUMP JUMPDEST PUSH4 0xE2517D3F PUSH1 0xE0 SHL PUSH0 MSTORE CALLER PUSH1 0x4 MSTORE PUSH1 0x24 MSTORE PUSH1 0x44 PUSH0 REVERT JUMPDEST PUSH1 0x1 PUSH1 0x1 PUSH1 0xA0 SHL SUB DUP2 AND PUSH0 SWAP1 DUP2 MSTORE PUSH32 0x8E2C297E756B2A427C5DC4607F639842A8EA6E0F6322302F4EA76306B642CFC2 PUSH1 0x20 MSTORE PUSH1 0x40 SWAP1 KECCAK256 SLOAD PUSH1 0xFF AND PUSH2 0x5C88 JUMPI PUSH1 0x1 PUSH1 0x1 PUSH1 0xA0 SHL SUB AND PUSH0 DUP2 DUP2 MSTORE PUSH32 0x8E2C297E756B2A427C5DC4607F639842A8EA6E0F6322302F4EA76306B642CFC2 PUSH1 0x20 MSTORE PUSH1 0x40 DUP2 KECCAK256 DUP1 SLOAD PUSH1 0xFF NOT AND PUSH1 0x1 OR SWAP1 SSTORE CALLER SWAP2 SWAP1 PUSH32 0xDCEE1D35C83A32B436264A5C9AFD68685C124F3F9097E87804C55410E67FC59A SWAP1 PUSH0 DUP1 MLOAD PUSH1 0x20 PUSH2 0x5F53 DUP4 CODECOPY DUP2 MLOAD SWAP2 MSTORE SWAP1 DUP1 LOG4 PUSH1 0x1 SWAP1 JUMP JUMPDEST POP PUSH0 SWAP1 JUMP JUMPDEST PUSH1 0x1 PUSH1 0x1 PUSH1 0xA0 SHL SUB DUP2 AND PUSH0 SWAP1 DUP2 MSTORE PUSH0 DUP1 MLOAD PUSH1 0x20 PUSH2 0x5F73 DUP4 CODECOPY DUP2 MLOAD SWAP2 MSTORE PUSH1 0x20 MSTORE PUSH1 0x40 SWAP1 KECCAK256 SLOAD PUSH1 0xFF AND PUSH2 0x5C88 JUMPI PUSH1 0x1 PUSH1 0x1 PUSH1 0xA0 SHL SUB AND PUSH0 DUP2 DUP2 MSTORE PUSH0 DUP1 MLOAD PUSH1 0x20 PUSH2 0x5F73 DUP4 CODECOPY DUP2 MLOAD SWAP2 MSTORE PUSH1 0x20 MSTORE PUSH1 0x40 DUP2 KECCAK256 DUP1 SLOAD PUSH1 0xFF NOT AND PUSH1 0x1 OR SWAP1 SSTORE CALLER SWAP2 SWAP1 PUSH32 0xEF485BE696BBC0C91AD541BBD553FFB5BD0E18DAC30BA76E992DDA23CB807A8A SWAP1 PUSH0 DUP1 MLOAD PUSH1 0x20 PUSH2 0x5F53 DUP4 CODECOPY DUP2 MLOAD SWAP2 MSTORE SWAP1 DUP1 LOG4 PUSH1 0x1 SWAP1 JUMP JUMPDEST PUSH1 0x1 PUSH1 0x1 PUSH1 0xA0 SHL SUB DUP2 AND PUSH0 SWAP1 DUP2 MSTORE PUSH32 0xD3DCCF8D8289B9DEEE17E361620D7577DE7B525DD57F668D5C1BB85EC53112B5 PUSH1 0x20 MSTORE PUSH1 0x40 SWAP1 KECCAK256 SLOAD PUSH1 0xFF AND PUSH2 0x5C88 JUMPI PUSH1 0x1 PUSH1 0x1 PUSH1 0xA0 SHL SUB AND PUSH0 DUP2 DUP2 MSTORE PUSH32 0xD3DCCF8D8289B9DEEE17E361620D7577DE7B525DD57F668D5C1BB85EC53112B5 PUSH1 0x20 MSTORE PUSH1 0x40 DUP2 KECCAK256 DUP1 SLOAD PUSH1 0xFF NOT AND PUSH1 0x1 OR SWAP1 SSTORE CALLER SWAP2 SWAP1 PUSH32 0xD486618B282CB35034D59C30C062B5B3822D6CDF87EC459191CE7F5B7B8A4873 SWAP1 PUSH0 DUP1 MLOAD PUSH1 0x20 PUSH2 0x5F53 DUP4 CODECOPY DUP2 MLOAD SWAP2 MSTORE SWAP1 DUP1 LOG4 PUSH1 0x1 SWAP1 JUMP JUMPDEST PUSH0 DUP2 DUP2 MSTORE PUSH1 0x2 PUSH1 0x20 SWAP1 DUP2 MSTORE PUSH1 0x40 DUP1 DUP4 KECCAK256 PUSH1 0x1 PUSH1 0x1 PUSH1 0xA0 SHL SUB DUP7 AND DUP5 MSTORE SWAP1 SWAP2 MSTORE SWAP1 KECCAK256 SLOAD PUSH1 0xFF AND PUSH2 0x5E4C JUMPI PUSH0 DUP2 DUP2 MSTORE PUSH1 0x2 PUSH1 0x20 SWAP1 DUP2 MSTORE PUSH1 0x40 DUP1 DUP4 KECCAK256 PUSH1 0x1 PUSH1 0x1 PUSH1 0xA0 SHL SUB SWAP6 SWAP1 SWAP6 AND DUP1 DUP5 MSTORE SWAP5 SWAP1 SWAP2 MSTORE DUP2 KECCAK256 DUP1 SLOAD PUSH1 0xFF NOT AND PUSH1 0x1 OR SWAP1 SSTORE CALLER SWAP3 SWAP2 SWAP1 PUSH0 DUP1 MLOAD PUSH1 0x20 PUSH2 0x5F53 DUP4 CODECOPY DUP2 MLOAD SWAP2 MSTORE SWAP1 DUP1 LOG4 PUSH1 0x1 SWAP1 JUMP JUMPDEST POP POP PUSH0 SWAP1 JUMP JUMPDEST PUSH1 0x2 PUSH1 0x1 SLOAD EQ PUSH2 0x5E63 JUMPI PUSH1 0x2 PUSH1 0x1 SSTORE JUMP JUMPDEST PUSH4 0x3EE5AEB5 PUSH1 0xE0 SHL PUSH0 MSTORE PUSH1 0x4 PUSH0 REVERT JUMPDEST PUSH0 DUP2 DUP2 MSTORE PUSH1 0x2 PUSH1 0x20 SWAP1 DUP2 MSTORE PUSH1 0x40 DUP1 DUP4 KECCAK256 PUSH1 0x1 PUSH1 0x1 PUSH1 0xA0 SHL SUB DUP7 AND DUP5 MSTORE SWAP1 SWAP2 MSTORE SWAP1 KECCAK256 SLOAD PUSH1 0xFF AND ISZERO PUSH2 0x5E4C JUMPI PUSH0 DUP2 DUP2 MSTORE PUSH1 0x2 PUSH1 0x20 SWAP1 DUP2 MSTORE PUSH1 0x40 DUP1 DUP4 KECCAK256 PUSH1 0x1 PUSH1 0x1 PUSH1 0xA0 SHL SUB SWAP6 SWAP1 SWAP6 AND DUP1 DUP5 MSTORE SWAP5 SWAP1 SWAP2 MSTORE DUP2 KECCAK256 DUP1 SLOAD PUSH1 0xFF NOT AND SWAP1 SSTORE CALLER SWAP3 SWAP2 SWAP1 PUSH32 0xF6391F5C32D9C69D2A47EA670B442974B53935D1EDC7FD64EB21E047A839171B SWAP1 DUP1 LOG4 PUSH1 0x1 SWAP1 JUMP JUMPDEST SWAP1 PUSH0 MSTORE PUSH1 0xC PUSH1 0x20 MSTORE PUSH1 0x40 PUSH0 KECCAK256 SWAP1 PUSH0 SWAP1 PUSH1 0x10 PUSH1 0xA DUP5 ADD SLOAD SWAP4 ADD SWAP2 JUMPDEST DUP4 DUP2 LT PUSH2 0x5F20 JUMPI POP POP POP POP PUSH1 0x1 SWAP1 JUMP JUMPDEST PUSH1 0x1 DUP1 PUSH1 0xA0 SHL SUB DUP3 AND PUSH0 MSTORE DUP3 PUSH1 0x20 MSTORE PUSH1 0x40 PUSH0 KECCAK256 DUP2 PUSH0 MSTORE PUSH1 0x20 MSTORE PUSH1 0x40 PUSH0 KECCAK256 SLOAD PUSH2 0x5F4A JUMPI PUSH1 0x1 ADD PUSH2 0x5F10 JUMP JUMPDEST POP POP POP POP PUSH0 SWAP1 JUMP INVALID 0x2F DUP8 DUP9 GT PUSH31 0x7EFF1D82E926EC794901D17C78024A50270940304540A733656F0D30D99551 DUP12 TIMESTAMP PUSH32 0x5A5863AD73FE356CA50CF70941F42C516830919C845FA5806F74BF668E97161F 0x1F 0xD8 0xF 0xCD 0x26 RETURN BLOBHASH 0xD4 AND SWAP10 0xF7 MULMOD SGT 0xDE OR PUSH23 0x5803D0880629DA0DE3A264697066735822122092F91BA5 MSIZE 0x4E 0x2C EXP 0xCC 0xD4 EXTCODEHASH 0x24 DUP7 OR DUP14 MUL 0xF EXTCODECOPY 0xDE CHAINID 0xD 0xDA SLOAD 0x2C 0xE4 0x28 KECCAK256 STATICCALL CALL 0xED 0xEE 0x2C PUSH5 0x736F6C6343 STOP ADDMOD BYTE STOP CALLER 0xAC CALLER SELFDESTRUCT PUSH22 0xC19E70FE83507DB0D683FD3465C996598DC972688B7A 0xCE PUSH8 0x6C89077B00000000 "
		},
		"gasEstimates": {
			"creation": {
				"codeDepositCost": "4910400",
				"executionCost": "infinite",
				"totalCost": "infinite"
			},
			"external": {
				"AMM_FEE_RATE()": "263",
				"DEFAULT_ADMIN_ROLE()": "1274",
				"MARKET_VALIDATOR_ROLE()": "549",
				"MAX_MARKET_DURATION()": "1033",
				"MAX_OPTIONS()": "219",
				"MIN_MARKET_DURATION()": "1209",
				"QUESTION_CREATOR_ROLE()": "989",
				"QUESTION_RESOLVE_ROLE()": "967",
				"addAMMLiquidity(uint256,uint256)": "infinite",
				"allParticipants(uint256)": "6570",
				"ammSwap(uint256,uint256,uint256,uint256,uint256)": "infinite",
				"bettingToken()": "2883",
				"buyShares(uint256,uint256,uint256,uint256)": "infinite",
				"calculateCurrentPrice(uint256,uint256)": "3705",
				"calculateSellPrice(uint256,uint256,uint256)": "6526",
				"categoryMarkets(uint8,uint256)": "7983",
				"claimFreeShares(uint256,uint256)": "infinite",
				"claimLPRewards(uint256)": "infinite",
				"claimWinnings(uint256)": "infinite",
				"createFreeMarket(string,string,string[],string[],uint256,uint8,uint256,uint256,uint256)": "infinite",
				"createMarket(string,string,string[],string[],uint256,uint8,uint8,uint256)": "infinite",
				"createMarketWithDefaultLiquidity(string,string,string[],string[],uint256,uint8,uint8)": "infinite",
				"createSponsoredMarket(string,string,string[],string[],uint256,uint8,uint256,string,uint256)": "infinite",
				"disputeMarket(uint256,string)": "infinite",
				"feeCollector()": "3666",
				"freeMarketAllowance()": "2828",
				"getBettingToken()": "2597",
				"getLPInfo(uint256,address)": "13912",
				"getMarketCount()": "3928",
				"getMarketFinancials(uint256)": "13456",
				"getMarketInfo(uint256)": "infinite",
				"getMarketOdds(uint256)": "infinite",
				"getMarketOption(uint256,uint256)": "infinite",
				"getMarketsByCategory(uint8,uint256)": "infinite",
				"getPlatformStats()": "8763",
				"getPriceHistory(uint256,uint256,uint256)": "infinite",
				"getRoleAdmin(bytes32)": "2606",
				"getUserPortfolio(address)": "infinite",
				"getUserShares(uint256,address)": "infinite",
				"grantMarketValidatorRole(address)": "36482",
				"grantQuestionCreatorRole(address)": "36062",
				"grantQuestionResolveRole(address)": "35690",
				"grantRole(bytes32,address)": "33661",
				"hasRole(bytes32,address)": "3497",
				"lpRewardsEarned(address)": "3484",
				"marketCount()": "3774",
				"marketTrades(uint256,uint256)": "19711",
				"marketsByType(uint8,uint256)": "8211",
				"owner()": "3269",
				"pause()": "30636",
				"pauseMarket(uint256)": "31497",
				"paused()": "2950",
				"platformFeeRate()": "3818",
				"previousBettingToken()": "2918",
				"priceHistory(uint256,uint256,uint256)": "12206",
				"renounceOwnership()": "28842",
				"renounceRole(bytes32,address)": "29303",
				"resolveMarket(uint256,uint256)": "59734",
				"revokeRole(bytes32,address)": "34704",
				"sellShares(uint256,uint256,uint256,uint256)": "infinite",
				"setFeeCollector(address)": "29314",
				"setFreeMarketAllowance(uint256)": "24621",
				"setPlatformFeeRate(uint256)": "25457",
				"supportsInterface(bytes4)": "270",
				"tokenUpdatedAt()": "2344",
				"totalPlatformFeesCollected()": "3158",
				"totalWinnings(address)": "3374",
				"tradeCount()": "3576",
				"transferOwnership(address)": "29754",
				"unpause()": "28113",
				"updateBettingToken(address)": "78748",
				"updateBettingTokenAddress(address)": "75009",
				"userFreeSharesUsed(address)": "3682",
				"userPortfolios(address)": "12212",
				"userTradeHistory(address,uint256)": "19635",
				"validateMarket(uint256)": "35715",
				"withdrawAdminLiquidity(uint256)": "infinite",
				"withdrawPlatformFees()": "infinite"
			},
			"internal": {
				"_isNewParticipant(address,uint256)": "infinite",
				"calculateNewPrice(uint256,uint256,uint256,bool)": "infinite"
			}
		},
		"methodIdentifiers": {
			"AMM_FEE_RATE()": "12c413af",
			"DEFAULT_ADMIN_ROLE()": "a217fddf",
			"MARKET_VALIDATOR_ROLE()": "32617b70",
			"MAX_MARKET_DURATION()": "7e50898e",
			"MAX_OPTIONS()": "0da183d6",
			"MIN_MARKET_DURATION()": "92f012b2",
			"QUESTION_CREATOR_ROLE()": "77b4a3e7",
			"QUESTION_RESOLVE_ROLE()": "755f0629",
			"addAMMLiquidity(uint256,uint256)": "6eae4297",
			"allParticipants(uint256)": "05e33dd0",
			"ammSwap(uint256,uint256,uint256,uint256,uint256)": "e9ca2026",
			"bettingToken()": "43425e88",
			"buyShares(uint256,uint256,uint256,uint256)": "ed881230",
			"calculateCurrentPrice(uint256,uint256)": "b1ab13ff",
			"calculateSellPrice(uint256,uint256,uint256)": "f355f2e7",
			"categoryMarkets(uint8,uint256)": "a8cc7f19",
			"claimFreeShares(uint256,uint256)": "c07d1449",
			"claimLPRewards(uint256)": "9e0ffc09",
			"claimWinnings(uint256)": "677bd9ff",
			"createFreeMarket(string,string,string[],string[],uint256,uint8,uint256,uint256,uint256)": "2a49b428",
			"createMarket(string,string,string[],string[],uint256,uint8,uint8,uint256)": "33031b06",
			"createMarketWithDefaultLiquidity(string,string,string[],string[],uint256,uint8,uint8)": "f98ce1ba",
			"createSponsoredMarket(string,string,string[],string[],uint256,uint8,uint256,string,uint256)": "d911f198",
			"disputeMarket(uint256,string)": "4a2021ef",
			"feeCollector()": "c415b95c",
			"freeMarketAllowance()": "417257f9",
			"getBettingToken()": "29cf655b",
			"getLPInfo(uint256,address)": "3d9704ff",
			"getMarketCount()": "fd69f3c2",
			"getMarketFinancials(uint256)": "3937336e",
			"getMarketInfo(uint256)": "3ec79193",
			"getMarketOdds(uint256)": "26e12752",
			"getMarketOption(uint256,uint256)": "222fa267",
			"getMarketsByCategory(uint8,uint256)": "c2454af7",
			"getPlatformStats()": "136d8883",
			"getPriceHistory(uint256,uint256,uint256)": "7c946454",
			"getRoleAdmin(bytes32)": "248a9ca3",
			"getUserPortfolio(address)": "1edb27e9",
			"getUserShares(uint256,address)": "835dc40b",
			"grantMarketValidatorRole(address)": "abdce1a4",
			"grantQuestionCreatorRole(address)": "6db3b4dc",
			"grantQuestionResolveRole(address)": "35037e0b",
			"grantRole(bytes32,address)": "2f2ff15d",
			"hasRole(bytes32,address)": "91d14854",
			"lpRewardsEarned(address)": "950f4797",
			"marketCount()": "ec979082",
			"marketTrades(uint256,uint256)": "1cb1de2f",
			"marketsByType(uint8,uint256)": "d8c39bd7",
			"owner()": "8da5cb5b",
			"pause()": "8456cb59",
			"pauseMarket(uint256)": "fc12524c",
			"paused()": "5c975abb",
			"platformFeeRate()": "eeca08f0",
			"previousBettingToken()": "4bdd45fb",
			"priceHistory(uint256,uint256,uint256)": "a75dd115",
			"renounceOwnership()": "715018a6",
			"renounceRole(bytes32,address)": "36568abe",
			"resolveMarket(uint256,uint256)": "60557333",
			"revokeRole(bytes32,address)": "d547741f",
			"sellShares(uint256,uint256,uint256,uint256)": "5a2db6fb",
			"setFeeCollector(address)": "a42dce80",
			"setFreeMarketAllowance(uint256)": "21b86dc2",
			"setPlatformFeeRate(uint256)": "927fef2e",
			"supportsInterface(bytes4)": "01ffc9a7",
			"tokenUpdatedAt()": "1029191a",
			"totalPlatformFeesCollected()": "82c3188c",
			"totalWinnings(address)": "8b8840e0",
			"tradeCount()": "bd55022a",
			"transferOwnership(address)": "f2fde38b",
			"unpause()": "3f4ba83a",
			"updateBettingToken(address)": "fdd3cdf6",
			"updateBettingTokenAddress(address)": "15571981",
			"userFreeSharesUsed(address)": "b41acdbe",
			"userPortfolios(address)": "b61920c1",
			"userTradeHistory(address,uint256)": "08693f3c",
			"validateMarket(uint256)": "ab44e635",
			"withdrawAdminLiquidity(uint256)": "2f4c007f",
			"withdrawPlatformFees()": "d0b7830b"
		}
	},
	"abi": [
		{
			"inputs": [
				{
					"internalType": "address",
					"name": "_bettingToken",
					"type": "address"
				}
			],
			"stateMutability": "nonpayable",
			"type": "constructor"
		},
		{
			"inputs": [],
			"name": "AccessControlBadConfirmation",
			"type": "error"
		},
		{
			"inputs": [
				{
					"internalType": "address",
					"name": "account",
					"type": "address"
				},
				{
					"internalType": "bytes32",
					"name": "neededRole",
					"type": "bytes32"
				}
			],
			"name": "AccessControlUnauthorizedAccount",
			"type": "error"
		},
		{
			"inputs": [],
			"name": "AdminLiquidityAlreadyClaimed",
			"type": "error"
		},
		{
			"inputs": [],
			"name": "AlreadyClaimed",
			"type": "error"
		},
		{
			"inputs": [],
			"name": "AlreadyClaimedFree",
			"type": "error"
		},
		{
			"inputs": [],
			"name": "AmountMustBePositive",
			"type": "error"
		},
		{
			"inputs": [],
			"name": "BadDuration",
			"type": "error"
		},
		{
			"inputs": [],
			"name": "BadOptionCount",
			"type": "error"
		},
		{
			"inputs": [],
			"name": "CannotDisputeIfWon",
			"type": "error"
		},
		{
			"inputs": [],
			"name": "CannotSwapSameOption",
			"type": "error"
		},
		{
			"inputs": [],
			"name": "EmptyQuestion",
			"type": "error"
		},
		{
			"inputs": [],
			"name": "EnforcedPause",
			"type": "error"
		},
		{
			"inputs": [],
			"name": "ExceedsFreeAllowance",
			"type": "error"
		},
		{
			"inputs": [],
			"name": "ExpectedPause",
			"type": "error"
		},
		{
			"inputs": [],
			"name": "FeeTooHigh",
			"type": "error"
		},
		{
			"inputs": [],
			"name": "FreeEntryInactive",
			"type": "error"
		},
		{
			"inputs": [],
			"name": "FreeSlotseFull",
			"type": "error"
		},
		{
			"inputs": [],
			"name": "InsufficientBalance",
			"type": "error"
		},
		{
			"inputs": [],
			"name": "InsufficientLiquidity",
			"type": "error"
		},
		{
			"inputs": [],
			"name": "InsufficientOutput",
			"type": "error"
		},
		{
			"inputs": [],
			"name": "InsufficientShares",
			"type": "error"
		},
		{
			"inputs": [],
			"name": "InvalidInput",
			"type": "error"
		},
		{
			"inputs": [],
			"name": "InvalidMarket",
			"type": "error"
		},
		{
			"inputs": [],
			"name": "InvalidOption",
			"type": "error"
		},
		{
			"inputs": [],
			"name": "InvalidToken",
			"type": "error"
		},
		{
			"inputs": [],
			"name": "InvalidWinningOption",
			"type": "error"
		},
		{
			"inputs": [],
			"name": "LengthMismatch",
			"type": "error"
		},
		{
			"inputs": [],
			"name": "MarketAlreadyResolved",
			"type": "error"
		},
		{
			"inputs": [],
			"name": "MarketEnded",
			"type": "error"
		},
		{
			"inputs": [],
			"name": "MarketNotActive",
			"type": "error"
		},
		{
			"inputs": [],
			"name": "MarketNotEndedYet",
			"type": "error"
		},
		{
			"inputs": [],
			"name": "MarketNotReady",
			"type": "error"
		},
		{
			"inputs": [],
			"name": "MarketNotResolved",
			"type": "error"
		},
		{
			"inputs": [],
			"name": "MarketNotValidated",
			"type": "error"
		},
		{
			"inputs": [],
			"name": "MarketResolvedAlready",
			"type": "error"
		},
		{
			"inputs": [],
			"name": "MinTokensRequired",
			"type": "error"
		},
		{
			"inputs": [],
			"name": "NoFeesToWithdraw",
			"type": "error"
		},
		{
			"inputs": [],
			"name": "NoLPRewards",
			"type": "error"
		},
		{
			"inputs": [],
			"name": "NoWinningShares",
			"type": "error"
		},
		{
			"inputs": [],
			"name": "NotAuthorized",
			"type": "error"
		},
		{
			"inputs": [],
			"name": "NotFreeMarket",
			"type": "error"
		},
		{
			"inputs": [],
			"name": "NotLiquidityProvider",
			"type": "error"
		},
		{
			"inputs": [],
			"name": "OnlyAdminOrOwner",
			"type": "error"
		},
		{
			"inputs": [],
			"name": "OptionInactive",
			"type": "error"
		},
		{
			"inputs": [
				{
					"internalType": "address",
					"name": "owner",
					"type": "address"
				}
			],
			"name": "OwnableInvalidOwner",
			"type": "error"
		},
		{
			"inputs": [
				{
					"internalType": "address",
					"name": "account",
					"type": "address"
				}
			],
			"name": "OwnableUnauthorizedAccount",
			"type": "error"
		},
		{
			"inputs": [],
			"name": "PriceTooHigh",
			"type": "error"
		},
		{
			"inputs": [],
			"name": "PriceTooLow",
			"type": "error"
		},
		{
			"inputs": [],
			"name": "ReentrancyGuardReentrantCall",
			"type": "error"
		},
		{
			"inputs": [],
			"name": "SamePrizeRequired",
			"type": "error"
		},
		{
			"inputs": [],
			"name": "SameToken",
			"type": "error"
		},
		{
			"inputs": [],
			"name": "TransferFailed",
			"type": "error"
		},
		{
			"anonymous": false,
			"inputs": [
				{
					"indexed": true,
					"internalType": "uint256",
					"name": "marketId",
					"type": "uint256"
				},
				{
					"indexed": false,
					"internalType": "uint256",
					"name": "optionIdIn",
					"type": "uint256"
				},
				{
					"indexed": false,
					"internalType": "uint256",
					"name": "optionIdOut",
					"type": "uint256"
				},
				{
					"indexed": false,
					"internalType": "uint256",
					"name": "amountIn",
					"type": "uint256"
				},
				{
					"indexed": false,
					"internalType": "uint256",
					"name": "amountOut",
					"type": "uint256"
				},
				{
					"indexed": false,
					"internalType": "address",
					"name": "trader",
					"type": "address"
				}
			],
			"name": "AMMSwap",
			"type": "event"
		},
		{
			"anonymous": false,
			"inputs": [
				{
					"indexed": true,
					"internalType": "uint256",
					"name": "marketId",
					"type": "uint256"
				},
				{
					"indexed": true,
					"internalType": "address",
					"name": "creator",
					"type": "address"
				},
				{
					"indexed": false,
					"internalType": "uint256",
					"name": "amount",
					"type": "uint256"
				}
			],
			"name": "AdminLiquidityWithdrawn",
			"type": "event"
		},
		{
			"anonymous": false,
			"inputs": [
				{
					"indexed": true,
					"internalType": "address",
					"name": "oldToken",
					"type": "address"
				},
				{
					"indexed": true,
					"internalType": "address",
					"name": "newToken",
					"type": "address"
				},
				{
					"indexed": false,
					"internalType": "uint256",
					"name": "timestamp",
					"type": "uint256"
				}
			],
			"name": "BettingTokenUpdated",
			"type": "event"
		},
		{
			"anonymous": false,
			"inputs": [
				{
					"indexed": true,
					"internalType": "uint256",
					"name": "marketId",
					"type": "uint256"
				},
				{
					"indexed": true,
					"internalType": "address",
					"name": "user",
					"type": "address"
				},
				{
					"indexed": false,
					"internalType": "uint256",
					"name": "amount",
					"type": "uint256"
				}
			],
			"name": "Claimed",
			"type": "event"
		},
		{
			"anonymous": false,
			"inputs": [
				{
					"indexed": true,
					"internalType": "uint256",
					"name": "marketId",
					"type": "uint256"
				},
				{
					"indexed": false,
					"internalType": "uint256",
					"name": "amount",
					"type": "uint256"
				}
			],
			"name": "FeeCollected",
			"type": "event"
		},
		{
			"anonymous": false,
			"inputs": [
				{
					"indexed": true,
					"internalType": "address",
					"name": "oldCollector",
					"type": "address"
				},
				{
					"indexed": true,
					"internalType": "address",
					"name": "newCollector",
					"type": "address"
				}
			],
			"name": "FeeCollectorUpdated",
			"type": "event"
		},
		{
			"anonymous": false,
			"inputs": [
				{
					"indexed": true,
					"internalType": "uint256",
					"name": "marketId",
					"type": "uint256"
				},
				{
					"indexed": true,
					"internalType": "address",
					"name": "user",
					"type": "address"
				},
				{
					"indexed": false,
					"internalType": "uint256",
					"name": "optionId",
					"type": "uint256"
				},
				{
					"indexed": false,
					"internalType": "uint256",
					"name": "shares",
					"type": "uint256"
				}
			],
			"name": "FreeSharesClaimed",
			"type": "event"
		},
		{
			"anonymous": false,
			"inputs": [
				{
					"indexed": true,
					"internalType": "uint256",
					"name": "marketId",
					"type": "uint256"
				},
				{
					"indexed": true,
					"internalType": "address",
					"name": "provider",
					"type": "address"
				},
				{
					"indexed": false,
					"internalType": "uint256",
					"name": "amount",
					"type": "uint256"
				}
			],
			"name": "LPRewardsClaimed",
			"type": "event"
		},
		{
			"anonymous": false,
			"inputs": [
				{
					"indexed": true,
					"internalType": "uint256",
					"name": "marketId",
					"type": "uint256"
				},
				{
					"indexed": true,
					"internalType": "address",
					"name": "provider",
					"type": "address"
				},
				{
					"indexed": false,
					"internalType": "uint256",
					"name": "amount",
					"type": "uint256"
				}
			],
			"name": "LiquidityAdded",
			"type": "event"
		},
		{
			"anonymous": false,
			"inputs": [
				{
					"indexed": true,
					"internalType": "uint256",
					"name": "marketId",
					"type": "uint256"
				},
				{
					"indexed": false,
					"internalType": "string",
					"name": "question",
					"type": "string"
				},
				{
					"indexed": false,
					"internalType": "string[]",
					"name": "options",
					"type": "string[]"
				},
				{
					"indexed": false,
					"internalType": "uint256",
					"name": "endTime",
					"type": "uint256"
				},
				{
					"indexed": false,
					"internalType": "enum PolicastMarketV3.MarketCategory",
					"name": "category",
					"type": "uint8"
				},
				{
					"indexed": false,
					"internalType": "enum PolicastMarketV3.MarketType",
					"name": "marketType",
					"type": "uint8"
				},
				{
					"indexed": false,
					"internalType": "address",
					"name": "creator",
					"type": "address"
				}
			],
			"name": "MarketCreated",
			"type": "event"
		},
		{
			"anonymous": false,
			"inputs": [
				{
					"indexed": true,
					"internalType": "uint256",
					"name": "marketId",
					"type": "uint256"
				},
				{
					"indexed": false,
					"internalType": "address",
					"name": "disputer",
					"type": "address"
				},
				{
					"indexed": false,
					"internalType": "string",
					"name": "reason",
					"type": "string"
				}
			],
			"name": "MarketDisputed",
			"type": "event"
		},
		{
			"anonymous": false,
			"inputs": [
				{
					"indexed": true,
					"internalType": "uint256",
					"name": "marketId",
					"type": "uint256"
				}
			],
			"name": "MarketPaused",
			"type": "event"
		},
		{
			"anonymous": false,
			"inputs": [
				{
					"indexed": true,
					"internalType": "uint256",
					"name": "marketId",
					"type": "uint256"
				},
				{
					"indexed": false,
					"internalType": "uint256",
					"name": "winningOptionId",
					"type": "uint256"
				},
				{
					"indexed": false,
					"internalType": "address",
					"name": "resolver",
					"type": "address"
				}
			],
			"name": "MarketResolved",
			"type": "event"
		},
		{
			"anonymous": false,
			"inputs": [
				{
					"indexed": true,
					"internalType": "uint256",
					"name": "marketId",
					"type": "uint256"
				},
				{
					"indexed": true,
					"internalType": "address",
					"name": "sponsor",
					"type": "address"
				},
				{
					"indexed": false,
					"internalType": "uint256",
					"name": "prizeAmount",
					"type": "uint256"
				},
				{
					"indexed": false,
					"internalType": "string",
					"name": "message",
					"type": "string"
				}
			],
			"name": "MarketSponsored",
			"type": "event"
		},
		{
			"anonymous": false,
			"inputs": [
				{
					"indexed": true,
					"internalType": "uint256",
					"name": "marketId",
					"type": "uint256"
				},
				{
					"indexed": false,
					"internalType": "address",
					"name": "validator",
					"type": "address"
				}
			],
			"name": "MarketValidated",
			"type": "event"
		},
		{
			"anonymous": false,
			"inputs": [
				{
					"indexed": true,
					"internalType": "address",
					"name": "previousOwner",
					"type": "address"
				},
				{
					"indexed": true,
					"internalType": "address",
					"name": "newOwner",
					"type": "address"
				}
			],
			"name": "OwnershipTransferred",
			"type": "event"
		},
		{
			"anonymous": false,
			"inputs": [
				{
					"indexed": false,
					"internalType": "address",
					"name": "account",
					"type": "address"
				}
			],
			"name": "Paused",
			"type": "event"
		},
		{
			"anonymous": false,
			"inputs": [
				{
					"indexed": true,
					"internalType": "address",
					"name": "collector",
					"type": "address"
				},
				{
					"indexed": false,
					"internalType": "uint256",
					"name": "amount",
					"type": "uint256"
				}
			],
			"name": "PlatformFeesWithdrawn",
			"type": "event"
		},
		{
			"anonymous": false,
			"inputs": [
				{
					"indexed": true,
					"internalType": "bytes32",
					"name": "role",
					"type": "bytes32"
				},
				{
					"indexed": true,
					"internalType": "bytes32",
					"name": "previousAdminRole",
					"type": "bytes32"
				},
				{
					"indexed": true,
					"internalType": "bytes32",
					"name": "newAdminRole",
					"type": "bytes32"
				}
			],
			"name": "RoleAdminChanged",
			"type": "event"
		},
		{
			"anonymous": false,
			"inputs": [
				{
					"indexed": true,
					"internalType": "bytes32",
					"name": "role",
					"type": "bytes32"
				},
				{
					"indexed": true,
					"internalType": "address",
					"name": "account",
					"type": "address"
				},
				{
					"indexed": true,
					"internalType": "address",
					"name": "sender",
					"type": "address"
				}
			],
			"name": "RoleGranted",
			"type": "event"
		},
		{
			"anonymous": false,
			"inputs": [
				{
					"indexed": true,
					"internalType": "bytes32",
					"name": "role",
					"type": "bytes32"
				},
				{
					"indexed": true,
					"internalType": "address",
					"name": "account",
					"type": "address"
				},
				{
					"indexed": true,
					"internalType": "address",
					"name": "sender",
					"type": "address"
				}
			],
			"name": "RoleRevoked",
			"type": "event"
		},
		{
			"anonymous": false,
			"inputs": [
				{
					"indexed": true,
					"internalType": "uint256",
					"name": "marketId",
					"type": "uint256"
				},
				{
					"indexed": true,
					"internalType": "uint256",
					"name": "optionId",
					"type": "uint256"
				},
				{
					"indexed": true,
					"internalType": "address",
					"name": "seller",
					"type": "address"
				},
				{
					"indexed": false,
					"internalType": "uint256",
					"name": "quantity",
					"type": "uint256"
				},
				{
					"indexed": false,
					"internalType": "uint256",
					"name": "price",
					"type": "uint256"
				}
			],
			"name": "SharesSold",
			"type": "event"
		},
		{
			"anonymous": false,
			"inputs": [
				{
					"indexed": true,
					"internalType": "uint256",
					"name": "marketId",
					"type": "uint256"
				},
				{
					"indexed": true,
					"internalType": "uint256",
					"name": "optionId",
					"type": "uint256"
				},
				{
					"indexed": true,
					"internalType": "address",
					"name": "buyer",
					"type": "address"
				},
				{
					"indexed": false,
					"internalType": "address",
					"name": "seller",
					"type": "address"
				},
				{
					"indexed": false,
					"internalType": "uint256",
					"name": "price",
					"type": "uint256"
				},
				{
					"indexed": false,
					"internalType": "uint256",
					"name": "quantity",
					"type": "uint256"
				},
				{
					"indexed": false,
					"internalType": "uint256",
					"name": "tradeId",
					"type": "uint256"
				}
			],
			"name": "TradeExecuted",
			"type": "event"
		},
		{
			"anonymous": false,
			"inputs": [
				{
					"indexed": false,
					"internalType": "address",
					"name": "account",
					"type": "address"
				}
			],
			"name": "Unpaused",
			"type": "event"
		},
		{
			"inputs": [],
			"name": "AMM_FEE_RATE",
			"outputs": [
				{
					"internalType": "uint256",
					"name": "",
					"type": "uint256"
				}
			],
			"stateMutability": "view",
			"type": "function"
		},
		{
			"inputs": [],
			"name": "DEFAULT_ADMIN_ROLE",
			"outputs": [
				{
					"internalType": "bytes32",
					"name": "",
					"type": "bytes32"
				}
			],
			"stateMutability": "view",
			"type": "function"
		},
		{
			"inputs": [],
			"name": "MARKET_VALIDATOR_ROLE",
			"outputs": [
				{
					"internalType": "bytes32",
					"name": "",
					"type": "bytes32"
				}
			],
			"stateMutability": "view",
			"type": "function"
		},
		{
			"inputs": [],
			"name": "MAX_MARKET_DURATION",
			"outputs": [
				{
					"internalType": "uint256",
					"name": "",
					"type": "uint256"
				}
			],
			"stateMutability": "view",
			"type": "function"
		},
		{
			"inputs": [],
			"name": "MAX_OPTIONS",
			"outputs": [
				{
					"internalType": "uint256",
					"name": "",
					"type": "uint256"
				}
			],
			"stateMutability": "view",
			"type": "function"
		},
		{
			"inputs": [],
			"name": "MIN_MARKET_DURATION",
			"outputs": [
				{
					"internalType": "uint256",
					"name": "",
					"type": "uint256"
				}
			],
			"stateMutability": "view",
			"type": "function"
		},
		{
			"inputs": [],
			"name": "QUESTION_CREATOR_ROLE",
			"outputs": [
				{
					"internalType": "bytes32",
					"name": "",
					"type": "bytes32"
				}
			],
			"stateMutability": "view",
			"type": "function"
		},
		{
			"inputs": [],
			"name": "QUESTION_RESOLVE_ROLE",
			"outputs": [
				{
					"internalType": "bytes32",
					"name": "",
					"type": "bytes32"
				}
			],
			"stateMutability": "view",
			"type": "function"
		},
		{
			"inputs": [
				{
					"internalType": "uint256",
					"name": "_marketId",
					"type": "uint256"
				},
				{
					"internalType": "uint256",
					"name": "_amount",
					"type": "uint256"
				}
			],
			"name": "addAMMLiquidity",
			"outputs": [],
			"stateMutability": "nonpayable",
			"type": "function"
		},
		{
			"inputs": [
				{
					"internalType": "uint256",
					"name": "",
					"type": "uint256"
				}
			],
			"name": "allParticipants",
			"outputs": [
				{
					"internalType": "address",
					"name": "",
					"type": "address"
				}
			],
			"stateMutability": "view",
			"type": "function"
		},
		{
			"inputs": [
				{
					"internalType": "uint256",
					"name": "_marketId",
					"type": "uint256"
				},
				{
					"internalType": "uint256",
					"name": "_optionIdIn",
					"type": "uint256"
				},
				{
					"internalType": "uint256",
					"name": "_optionIdOut",
					"type": "uint256"
				},
				{
					"internalType": "uint256",
					"name": "_amountIn",
					"type": "uint256"
				},
				{
					"internalType": "uint256",
					"name": "_minAmountOut",
					"type": "uint256"
				}
			],
			"name": "ammSwap",
			"outputs": [
				{
					"internalType": "uint256",
					"name": "amountOut",
					"type": "uint256"
				}
			],
			"stateMutability": "nonpayable",
			"type": "function"
		},
		{
			"inputs": [],
			"name": "bettingToken",
			"outputs": [
				{
					"internalType": "contract IERC20",
					"name": "",
					"type": "address"
				}
			],
			"stateMutability": "view",
			"type": "function"
		},
		{
			"inputs": [
				{
					"internalType": "uint256",
					"name": "_marketId",
					"type": "uint256"
				},
				{
					"internalType": "uint256",
					"name": "_optionId",
					"type": "uint256"
				},
				{
					"internalType": "uint256",
					"name": "_quantity",
					"type": "uint256"
				},
				{
					"internalType": "uint256",
					"name": "_maxPricePerShare",
					"type": "uint256"
				}
			],
			"name": "buyShares",
			"outputs": [],
			"stateMutability": "nonpayable",
			"type": "function"
		},
		{
			"inputs": [
				{
					"internalType": "uint256",
					"name": "_marketId",
					"type": "uint256"
				},
				{
					"internalType": "uint256",
					"name": "_optionId",
					"type": "uint256"
				}
			],
			"name": "calculateCurrentPrice",
			"outputs": [
				{
					"internalType": "uint256",
					"name": "",
					"type": "uint256"
				}
			],
			"stateMutability": "view",
			"type": "function"
		},
		{
			"inputs": [
				{
					"internalType": "uint256",
					"name": "_marketId",
					"type": "uint256"
				},
				{
					"internalType": "uint256",
					"name": "_optionId",
					"type": "uint256"
				},
				{
					"internalType": "uint256",
					"name": "_quantity",
					"type": "uint256"
				}
			],
			"name": "calculateSellPrice",
			"outputs": [
				{
					"internalType": "uint256",
					"name": "",
					"type": "uint256"
				}
			],
			"stateMutability": "view",
			"type": "function"
		},
		{
			"inputs": [
				{
					"internalType": "enum PolicastMarketV3.MarketCategory",
					"name": "",
					"type": "uint8"
				},
				{
					"internalType": "uint256",
					"name": "",
					"type": "uint256"
				}
			],
			"name": "categoryMarkets",
			"outputs": [
				{
					"internalType": "uint256",
					"name": "",
					"type": "uint256"
				}
			],
			"stateMutability": "view",
			"type": "function"
		},
		{
			"inputs": [
				{
					"internalType": "uint256",
					"name": "_marketId",
					"type": "uint256"
				},
				{
					"internalType": "uint256",
					"name": "_optionId",
					"type": "uint256"
				}
			],
			"name": "claimFreeShares",
			"outputs": [],
			"stateMutability": "nonpayable",
			"type": "function"
		},
		{
			"inputs": [
				{
					"internalType": "uint256",
					"name": "_marketId",
					"type": "uint256"
				}
			],
			"name": "claimLPRewards",
			"outputs": [],
			"stateMutability": "nonpayable",
			"type": "function"
		},
		{
			"inputs": [
				{
					"internalType": "uint256",
					"name": "_marketId",
					"type": "uint256"
				}
			],
			"name": "claimWinnings",
			"outputs": [],
			"stateMutability": "nonpayable",
			"type": "function"
		},
		{
			"inputs": [
				{
					"internalType": "string",
					"name": "_question",
					"type": "string"
				},
				{
					"internalType": "string",
					"name": "_description",
					"type": "string"
				},
				{
					"internalType": "string[]",
					"name": "_optionNames",
					"type": "string[]"
				},
				{
					"internalType": "string[]",
					"name": "_optionDescriptions",
					"type": "string[]"
				},
				{
					"internalType": "uint256",
					"name": "_duration",
					"type": "uint256"
				},
				{
					"internalType": "enum PolicastMarketV3.MarketCategory",
					"name": "_category",
					"type": "uint8"
				},
				{
					"internalType": "uint256",
					"name": "_maxFreeParticipants",
					"type": "uint256"
				},
				{
					"internalType": "uint256",
					"name": "_freeSharesPerUser",
					"type": "uint256"
				},
				{
					"internalType": "uint256",
					"name": "_initialLiquidity",
					"type": "uint256"
				}
			],
			"name": "createFreeMarket",
			"outputs": [
				{
					"internalType": "uint256",
					"name": "",
					"type": "uint256"
				}
			],
			"stateMutability": "nonpayable",
			"type": "function"
		},
		{
			"inputs": [
				{
					"internalType": "string",
					"name": "_question",
					"type": "string"
				},
				{
					"internalType": "string",
					"name": "_description",
					"type": "string"
				},
				{
					"internalType": "string[]",
					"name": "_optionNames",
					"type": "string[]"
				},
				{
					"internalType": "string[]",
					"name": "_optionDescriptions",
					"type": "string[]"
				},
				{
					"internalType": "uint256",
					"name": "_duration",
					"type": "uint256"
				},
				{
					"internalType": "enum PolicastMarketV3.MarketCategory",
					"name": "_category",
					"type": "uint8"
				},
				{
					"internalType": "enum PolicastMarketV3.MarketType",
					"name": "_marketType",
					"type": "uint8"
				},
				{
					"internalType": "uint256",
					"name": "_initialLiquidity",
					"type": "uint256"
				}
			],
			"name": "createMarket",
			"outputs": [
				{
					"internalType": "uint256",
					"name": "",
					"type": "uint256"
				}
			],
			"stateMutability": "nonpayable",
			"type": "function"
		},
		{
			"inputs": [
				{
					"internalType": "string",
					"name": "_question",
					"type": "string"
				},
				{
					"internalType": "string",
					"name": "_description",
					"type": "string"
				},
				{
					"internalType": "string[]",
					"name": "_optionNames",
					"type": "string[]"
				},
				{
					"internalType": "string[]",
					"name": "_optionDescriptions",
					"type": "string[]"
				},
				{
					"internalType": "uint256",
					"name": "_duration",
					"type": "uint256"
				},
				{
					"internalType": "enum PolicastMarketV3.MarketCategory",
					"name": "_category",
					"type": "uint8"
				},
				{
					"internalType": "enum PolicastMarketV3.MarketType",
					"name": "_marketType",
					"type": "uint8"
				}
			],
			"name": "createMarketWithDefaultLiquidity",
			"outputs": [
				{
					"internalType": "uint256",
					"name": "",
					"type": "uint256"
				}
			],
			"stateMutability": "nonpayable",
			"type": "function"
		},
		{
			"inputs": [
				{
					"internalType": "string",
					"name": "_question",
					"type": "string"
				},
				{
					"internalType": "string",
					"name": "_description",
					"type": "string"
				},
				{
					"internalType": "string[]",
					"name": "_optionNames",
					"type": "string[]"
				},
				{
					"internalType": "string[]",
					"name": "_optionDescriptions",
					"type": "string[]"
				},
				{
					"internalType": "uint256",
					"name": "_duration",
					"type": "uint256"
				},
				{
					"internalType": "enum PolicastMarketV3.MarketCategory",
					"name": "_category",
					"type": "uint8"
				},
				{
					"internalType": "uint256",
					"name": "_minimumParticipants",
					"type": "uint256"
				},
				{
					"internalType": "string",
					"name": "_sponsorMessage",
					"type": "string"
				},
				{
					"internalType": "uint256",
					"name": "_initialLiquidity",
					"type": "uint256"
				}
			],
			"name": "createSponsoredMarket",
			"outputs": [
				{
					"internalType": "uint256",
					"name": "",
					"type": "uint256"
				}
			],
			"stateMutability": "payable",
			"type": "function"
		},
		{
			"inputs": [
				{
					"internalType": "uint256",
					"name": "_marketId",
					"type": "uint256"
				},
				{
					"internalType": "string",
					"name": "_reason",
					"type": "string"
				}
			],
			"name": "disputeMarket",
			"outputs": [],
			"stateMutability": "nonpayable",
			"type": "function"
		},
		{
			"inputs": [],
			"name": "feeCollector",
			"outputs": [
				{
					"internalType": "address",
					"name": "",
					"type": "address"
				}
			],
			"stateMutability": "view",
			"type": "function"
		},
		{
			"inputs": [],
			"name": "freeMarketAllowance",
			"outputs": [
				{
					"internalType": "uint256",
					"name": "",
					"type": "uint256"
				}
			],
			"stateMutability": "view",
			"type": "function"
		},
		{
			"inputs": [],
			"name": "getBettingToken",
			"outputs": [
				{
					"internalType": "address",
					"name": "",
					"type": "address"
				}
			],
			"stateMutability": "view",
			"type": "function"
		},
		{
			"inputs": [
				{
					"internalType": "uint256",
					"name": "_marketId",
					"type": "uint256"
				},
				{
					"internalType": "address",
					"name": "_lp",
					"type": "address"
				}
			],
			"name": "getLPInfo",
			"outputs": [
				{
					"internalType": "uint256",
					"name": "contribution",
					"type": "uint256"
				},
				{
					"internalType": "bool",
					"name": "rewardsClaimed",
					"type": "bool"
				},
				{
					"internalType": "uint256",
					"name": "estimatedRewards",
					"type": "uint256"
				}
			],
			"stateMutability": "view",
			"type": "function"
		},
		{
			"inputs": [],
			"name": "getMarketCount",
			"outputs": [
				{
					"internalType": "uint256",
					"name": "",
					"type": "uint256"
				}
			],
			"stateMutability": "view",
			"type": "function"
		},
		{
			"inputs": [
				{
					"internalType": "uint256",
					"name": "_marketId",
					"type": "uint256"
				}
			],
			"name": "getMarketFinancials",
			"outputs": [
				{
					"internalType": "uint256",
					"name": "adminInitialLiquidity",
					"type": "uint256"
				},
				{
					"internalType": "uint256",
					"name": "userLiquidity",
					"type": "uint256"
				},
				{
					"internalType": "uint256",
					"name": "platformFeesCollected",
					"type": "uint256"
				},
				{
					"internalType": "uint256",
					"name": "ammFeesCollected",
					"type": "uint256"
				},
				{
					"internalType": "bool",
					"name": "adminLiquidityClaimed",
					"type": "bool"
				}
			],
			"stateMutability": "view",
			"type": "function"
		},
		{
			"inputs": [
				{
					"internalType": "uint256",
					"name": "_marketId",
					"type": "uint256"
				}
			],
			"name": "getMarketInfo",
			"outputs": [
				{
					"internalType": "string",
					"name": "question",
					"type": "string"
				},
				{
					"internalType": "string",
					"name": "description",
					"type": "string"
				},
				{
					"internalType": "uint256",
					"name": "endTime",
					"type": "uint256"
				},
				{
					"internalType": "enum PolicastMarketV3.MarketCategory",
					"name": "category",
					"type": "uint8"
				},
				{
					"internalType": "uint256",
					"name": "optionCount",
					"type": "uint256"
				},
				{
					"internalType": "bool",
					"name": "resolved",
					"type": "bool"
				},
				{
					"internalType": "bool",
					"name": "disputed",
					"type": "bool"
				},
				{
					"internalType": "uint256",
					"name": "winningOptionId",
					"type": "uint256"
				},
				{
					"internalType": "address",
					"name": "creator",
					"type": "address"
				}
			],
			"stateMutability": "view",
			"type": "function"
		},
		{
			"inputs": [
				{
					"internalType": "uint256",
					"name": "_marketId",
					"type": "uint256"
				}
			],
			"name": "getMarketOdds",
			"outputs": [
				{
					"internalType": "uint256[]",
					"name": "",
					"type": "uint256[]"
				}
			],
			"stateMutability": "view",
			"type": "function"
		},
		{
			"inputs": [
				{
					"internalType": "uint256",
					"name": "_marketId",
					"type": "uint256"
				},
				{
					"internalType": "uint256",
					"name": "_optionId",
					"type": "uint256"
				}
			],
			"name": "getMarketOption",
			"outputs": [
				{
					"internalType": "string",
					"name": "name",
					"type": "string"
				},
				{
					"internalType": "string",
					"name": "description",
					"type": "string"
				},
				{
					"internalType": "uint256",
					"name": "totalShares",
					"type": "uint256"
				},
				{
					"internalType": "uint256",
					"name": "totalVolume",
					"type": "uint256"
				},
				{
					"internalType": "uint256",
					"name": "currentPrice",
					"type": "uint256"
				},
				{
					"internalType": "bool",
					"name": "isActive",
					"type": "bool"
				}
			],
			"stateMutability": "view",
			"type": "function"
		},
		{
			"inputs": [
				{
					"internalType": "enum PolicastMarketV3.MarketCategory",
					"name": "_category",
					"type": "uint8"
				},
				{
					"internalType": "uint256",
					"name": "_limit",
					"type": "uint256"
				}
			],
			"name": "getMarketsByCategory",
			"outputs": [
				{
					"internalType": "uint256[]",
					"name": "",
					"type": "uint256[]"
				}
			],
			"stateMutability": "view",
			"type": "function"
		},
		{
			"inputs": [],
			"name": "getPlatformStats",
			"outputs": [
				{
					"internalType": "uint256",
					"name": "totalFeesCollected",
					"type": "uint256"
				},
				{
					"internalType": "address",
					"name": "currentFeeCollector",
					"type": "address"
				},
				{
					"internalType": "uint256",
					"name": "totalMarkets",
					"type": "uint256"
				},
				{
					"internalType": "uint256",
					"name": "totalTrades",
					"type": "uint256"
				}
			],
			"stateMutability": "view",
			"type": "function"
		},
		{
			"inputs": [
				{
					"internalType": "uint256",
					"name": "_marketId",
					"type": "uint256"
				},
				{
					"internalType": "uint256",
					"name": "_optionId",
					"type": "uint256"
				},
				{
					"internalType": "uint256",
					"name": "_limit",
					"type": "uint256"
				}
			],
			"name": "getPriceHistory",
			"outputs": [
				{
					"components": [
						{
							"internalType": "uint256",
							"name": "price",
							"type": "uint256"
						},
						{
							"internalType": "uint256",
							"name": "timestamp",
							"type": "uint256"
						},
						{
							"internalType": "uint256",
							"name": "volume",
							"type": "uint256"
						}
					],
					"internalType": "struct PolicastMarketV3.PricePoint[]",
					"name": "",
					"type": "tuple[]"
				}
			],
			"stateMutability": "view",
			"type": "function"
		},
		{
			"inputs": [
				{
					"internalType": "bytes32",
					"name": "role",
					"type": "bytes32"
				}
			],
			"name": "getRoleAdmin",
			"outputs": [
				{
					"internalType": "bytes32",
					"name": "",
					"type": "bytes32"
				}
			],
			"stateMutability": "view",
			"type": "function"
		},
		{
			"inputs": [
				{
					"internalType": "address",
					"name": "_user",
					"type": "address"
				}
			],
			"name": "getUserPortfolio",
			"outputs": [
				{
					"components": [
						{
							"internalType": "uint256",
							"name": "totalInvested",
							"type": "uint256"
						},
						{
							"internalType": "uint256",
							"name": "totalWinnings",
							"type": "uint256"
						},
						{
							"internalType": "int256",
							"name": "unrealizedPnL",
							"type": "int256"
						},
						{
							"internalType": "int256",
							"name": "realizedPnL",
							"type": "int256"
						},
						{
							"internalType": "uint256",
							"name": "tradeCount",
							"type": "uint256"
						}
					],
					"internalType": "struct PolicastMarketV3.UserPortfolio",
					"name": "",
					"type": "tuple"
				}
			],
			"stateMutability": "view",
			"type": "function"
		},
		{
			"inputs": [
				{
					"internalType": "uint256",
					"name": "_marketId",
					"type": "uint256"
				},
				{
					"internalType": "address",
					"name": "_user",
					"type": "address"
				}
			],
			"name": "getUserShares",
			"outputs": [
				{
					"internalType": "uint256[]",
					"name": "",
					"type": "uint256[]"
				}
			],
			"stateMutability": "view",
			"type": "function"
		},
		{
			"inputs": [
				{
					"internalType": "address",
					"name": "_account",
					"type": "address"
				}
			],
			"name": "grantMarketValidatorRole",
			"outputs": [],
			"stateMutability": "nonpayable",
			"type": "function"
		},
		{
			"inputs": [
				{
					"internalType": "address",
					"name": "_account",
					"type": "address"
				}
			],
			"name": "grantQuestionCreatorRole",
			"outputs": [],
			"stateMutability": "nonpayable",
			"type": "function"
		},
		{
			"inputs": [
				{
					"internalType": "address",
					"name": "_account",
					"type": "address"
				}
			],
			"name": "grantQuestionResolveRole",
			"outputs": [],
			"stateMutability": "nonpayable",
			"type": "function"
		},
		{
			"inputs": [
				{
					"internalType": "bytes32",
					"name": "role",
					"type": "bytes32"
				},
				{
					"internalType": "address",
					"name": "account",
					"type": "address"
				}
			],
			"name": "grantRole",
			"outputs": [],
			"stateMutability": "nonpayable",
			"type": "function"
		},
		{
			"inputs": [
				{
					"internalType": "bytes32",
					"name": "role",
					"type": "bytes32"
				},
				{
					"internalType": "address",
					"name": "account",
					"type": "address"
				}
			],
			"name": "hasRole",
			"outputs": [
				{
					"internalType": "bool",
					"name": "",
					"type": "bool"
				}
			],
			"stateMutability": "view",
			"type": "function"
		},
		{
			"inputs": [
				{
					"internalType": "address",
					"name": "",
					"type": "address"
				}
			],
			"name": "lpRewardsEarned",
			"outputs": [
				{
					"internalType": "uint256",
					"name": "",
					"type": "uint256"
				}
			],
			"stateMutability": "view",
			"type": "function"
		},
		{
			"inputs": [],
			"name": "marketCount",
			"outputs": [
				{
					"internalType": "uint256",
					"name": "",
					"type": "uint256"
				}
			],
			"stateMutability": "view",
			"type": "function"
		},
		{
			"inputs": [
				{
					"internalType": "uint256",
					"name": "",
					"type": "uint256"
				},
				{
					"internalType": "uint256",
					"name": "",
					"type": "uint256"
				}
			],
			"name": "marketTrades",
			"outputs": [
				{
					"internalType": "uint256",
					"name": "marketId",
					"type": "uint256"
				},
				{
					"internalType": "uint256",
					"name": "optionId",
					"type": "uint256"
				},
				{
					"internalType": "address",
					"name": "buyer",
					"type": "address"
				},
				{
					"internalType": "address",
					"name": "seller",
					"type": "address"
				},
				{
					"internalType": "uint256",
					"name": "price",
					"type": "uint256"
				},
				{
					"internalType": "uint256",
					"name": "quantity",
					"type": "uint256"
				},
				{
					"internalType": "uint256",
					"name": "timestamp",
					"type": "uint256"
				}
			],
			"stateMutability": "view",
			"type": "function"
		},
		{
			"inputs": [
				{
					"internalType": "enum PolicastMarketV3.MarketType",
					"name": "",
					"type": "uint8"
				},
				{
					"internalType": "uint256",
					"name": "",
					"type": "uint256"
				}
			],
			"name": "marketsByType",
			"outputs": [
				{
					"internalType": "uint256",
					"name": "",
					"type": "uint256"
				}
			],
			"stateMutability": "view",
			"type": "function"
		},
		{
			"inputs": [],
			"name": "owner",
			"outputs": [
				{
					"internalType": "address",
					"name": "",
					"type": "address"
				}
			],
			"stateMutability": "view",
			"type": "function"
		},
		{
			"inputs": [],
			"name": "pause",
			"outputs": [],
			"stateMutability": "nonpayable",
			"type": "function"
		},
		{
			"inputs": [
				{
					"internalType": "uint256",
					"name": "_marketId",
					"type": "uint256"
				}
			],
			"name": "pauseMarket",
			"outputs": [],
			"stateMutability": "nonpayable",
			"type": "function"
		},
		{
			"inputs": [],
			"name": "paused",
			"outputs": [
				{
					"internalType": "bool",
					"name": "",
					"type": "bool"
				}
			],
			"stateMutability": "view",
			"type": "function"
		},
		{
			"inputs": [],
			"name": "platformFeeRate",
			"outputs": [
				{
					"internalType": "uint256",
					"name": "",
					"type": "uint256"
				}
			],
			"stateMutability": "view",
			"type": "function"
		},
		{
			"inputs": [],
			"name": "previousBettingToken",
			"outputs": [
				{
					"internalType": "address",
					"name": "",
					"type": "address"
				}
			],
			"stateMutability": "view",
			"type": "function"
		},
		{
			"inputs": [
				{
					"internalType": "uint256",
					"name": "",
					"type": "uint256"
				},
				{
					"internalType": "uint256",
					"name": "",
					"type": "uint256"
				},
				{
					"internalType": "uint256",
					"name": "",
					"type": "uint256"
				}
			],
			"name": "priceHistory",
			"outputs": [
				{
					"internalType": "uint256",
					"name": "price",
					"type": "uint256"
				},
				{
					"internalType": "uint256",
					"name": "timestamp",
					"type": "uint256"
				},
				{
					"internalType": "uint256",
					"name": "volume",
					"type": "uint256"
				}
			],
			"stateMutability": "view",
			"type": "function"
		},
		{
			"inputs": [],
			"name": "renounceOwnership",
			"outputs": [],
			"stateMutability": "nonpayable",
			"type": "function"
		},
		{
			"inputs": [
				{
					"internalType": "bytes32",
					"name": "role",
					"type": "bytes32"
				},
				{
					"internalType": "address",
					"name": "callerConfirmation",
					"type": "address"
				}
			],
			"name": "renounceRole",
			"outputs": [],
			"stateMutability": "nonpayable",
			"type": "function"
		},
		{
			"inputs": [
				{
					"internalType": "uint256",
					"name": "_marketId",
					"type": "uint256"
				},
				{
					"internalType": "uint256",
					"name": "_winningOptionId",
					"type": "uint256"
				}
			],
			"name": "resolveMarket",
			"outputs": [],
			"stateMutability": "nonpayable",
			"type": "function"
		},
		{
			"inputs": [
				{
					"internalType": "bytes32",
					"name": "role",
					"type": "bytes32"
				},
				{
					"internalType": "address",
					"name": "account",
					"type": "address"
				}
			],
			"name": "revokeRole",
			"outputs": [],
			"stateMutability": "nonpayable",
			"type": "function"
		},
		{
			"inputs": [
				{
					"internalType": "uint256",
					"name": "_marketId",
					"type": "uint256"
				},
				{
					"internalType": "uint256",
					"name": "_optionId",
					"type": "uint256"
				},
				{
					"internalType": "uint256",
					"name": "_quantity",
					"type": "uint256"
				},
				{
					"internalType": "uint256",
					"name": "_minPricePerShare",
					"type": "uint256"
				}
			],
			"name": "sellShares",
			"outputs": [],
			"stateMutability": "nonpayable",
			"type": "function"
		},
		{
			"inputs": [
				{
					"internalType": "address",
					"name": "_feeCollector",
					"type": "address"
				}
			],
			"name": "setFeeCollector",
			"outputs": [],
			"stateMutability": "nonpayable",
			"type": "function"
		},
		{
			"inputs": [
				{
					"internalType": "uint256",
					"name": "_allowance",
					"type": "uint256"
				}
			],
			"name": "setFreeMarketAllowance",
			"outputs": [],
			"stateMutability": "nonpayable",
			"type": "function"
		},
		{
			"inputs": [
				{
					"internalType": "uint256",
					"name": "_feeRate",
					"type": "uint256"
				}
			],
			"name": "setPlatformFeeRate",
			"outputs": [],
			"stateMutability": "nonpayable",
			"type": "function"
		},
		{
			"inputs": [
				{
					"internalType": "bytes4",
					"name": "interfaceId",
					"type": "bytes4"
				}
			],
			"name": "supportsInterface",
			"outputs": [
				{
					"internalType": "bool",
					"name": "",
					"type": "bool"
				}
			],
			"stateMutability": "view",
			"type": "function"
		},
		{
			"inputs": [],
			"name": "tokenUpdatedAt",
			"outputs": [
				{
					"internalType": "uint256",
					"name": "",
					"type": "uint256"
				}
			],
			"stateMutability": "view",
			"type": "function"
		},
		{
			"inputs": [],
			"name": "totalPlatformFeesCollected",
			"outputs": [
				{
					"internalType": "uint256",
					"name": "",
					"type": "uint256"
				}
			],
			"stateMutability": "view",
			"type": "function"
		},
		{
			"inputs": [
				{
					"internalType": "address",
					"name": "",
					"type": "address"
				}
			],
			"name": "totalWinnings",
			"outputs": [
				{
					"internalType": "uint256",
					"name": "",
					"type": "uint256"
				}
			],
			"stateMutability": "view",
			"type": "function"
		},
		{
			"inputs": [],
			"name": "tradeCount",
			"outputs": [
				{
					"internalType": "uint256",
					"name": "",
					"type": "uint256"
				}
			],
			"stateMutability": "view",
			"type": "function"
		},
		{
			"inputs": [
				{
					"internalType": "address",
					"name": "newOwner",
					"type": "address"
				}
			],
			"name": "transferOwnership",
			"outputs": [],
			"stateMutability": "nonpayable",
			"type": "function"
		},
		{
			"inputs": [],
			"name": "unpause",
			"outputs": [],
			"stateMutability": "nonpayable",
			"type": "function"
		},
		{
			"inputs": [
				{
					"internalType": "address",
					"name": "_newToken",
					"type": "address"
				}
			],
			"name": "updateBettingToken",
			"outputs": [],
			"stateMutability": "nonpayable",
			"type": "function"
		},
		{
			"inputs": [
				{
					"internalType": "address",
					"name": "_newToken",
					"type": "address"
				}
			],
			"name": "updateBettingTokenAddress",
			"outputs": [],
			"stateMutability": "nonpayable",
			"type": "function"
		},
		{
			"inputs": [
				{
					"internalType": "address",
					"name": "",
					"type": "address"
				}
			],
			"name": "userFreeSharesUsed",
			"outputs": [
				{
					"internalType": "uint256",
					"name": "",
					"type": "uint256"
				}
			],
			"stateMutability": "view",
			"type": "function"
		},
		{
			"inputs": [
				{
					"internalType": "address",
					"name": "",
					"type": "address"
				}
			],
			"name": "userPortfolios",
			"outputs": [
				{
					"internalType": "uint256",
					"name": "totalInvested",
					"type": "uint256"
				},
				{
					"internalType": "uint256",
					"name": "totalWinnings",
					"type": "uint256"
				},
				{
					"internalType": "int256",
					"name": "unrealizedPnL",
					"type": "int256"
				},
				{
					"internalType": "int256",
					"name": "realizedPnL",
					"type": "int256"
				},
				{
					"internalType": "uint256",
					"name": "tradeCount",
					"type": "uint256"
				}
			],
			"stateMutability": "view",
			"type": "function"
		},
		{
			"inputs": [
				{
					"internalType": "address",
					"name": "",
					"type": "address"
				},
				{
					"internalType": "uint256",
					"name": "",
					"type": "uint256"
				}
			],
			"name": "userTradeHistory",
			"outputs": [
				{
					"internalType": "uint256",
					"name": "marketId",
					"type": "uint256"
				},
				{
					"internalType": "uint256",
					"name": "optionId",
					"type": "uint256"
				},
				{
					"internalType": "address",
					"name": "buyer",
					"type": "address"
				},
				{
					"internalType": "address",
					"name": "seller",
					"type": "address"
				},
				{
					"internalType": "uint256",
					"name": "price",
					"type": "uint256"
				},
				{
					"internalType": "uint256",
					"name": "quantity",
					"type": "uint256"
				},
				{
					"internalType": "uint256",
					"name": "timestamp",
					"type": "uint256"
				}
			],
			"stateMutability": "view",
			"type": "function"
		},
		{
			"inputs": [
				{
					"internalType": "uint256",
					"name": "_marketId",
					"type": "uint256"
				}
			],
			"name": "validateMarket",
			"outputs": [],
			"stateMutability": "nonpayable",
			"type": "function"
		},
		{
			"inputs": [
				{
					"internalType": "uint256",
					"name": "_marketId",
					"type": "uint256"
				}
			],
			"name": "withdrawAdminLiquidity",
			"outputs": [],
			"stateMutability": "nonpayable",
			"type": "function"
		},
		{
			"inputs": [],
			"name": "withdrawPlatformFees",
			"outputs": [],
			"stateMutability": "nonpayable",
			"type": "function"
		}
	]
}