{
	"data": {
		"bytecode": {
			"linkReferences": {},
			"object": "60803461011257601f61659038819003918201601f19168301916001600160401b038311848410176101165780849260209460405283398101031261011257516001600160a01b03811681036101125733156100ff575f8054336001600160a01b0319821681178355916001600160a01b03909116907f8be0079c531659141344cd1fd0a4f28419497f9722a3daafe3b4186f6b6457e09080a36001805560c860089081556103e860095560038054610100600160a81b0319169290911b610100600160a81b031691909117905542600555600a80546001600160a01b031916339081179091556100ef9061012a565b506040516163bc90816101b48239f35b631e4fbdf760e01b5f525f60045260245ffd5b5f80fd5b634e487b7160e01b5f52604160045260245ffd5b6001600160a01b0381165f9081525f80516020616570833981519152602052604090205460ff166101ae576001600160a01b03165f8181525f8051602061657083398151915260205260408120805460ff191660011790553391907f2f8788117e7eff1d82e926ec794901d17c78024a50270940304540a733656f0d8180a4600190565b505f9056fe6080806040526004361015610012575f80fd5b5f3560e01c90816301ffc9a7146155c25750806305e33dd01461554a578063067b3fe11461551b57806308693f3c146154d65780630da183d6146154bb5780631029191a1461549e57806312c413af14615483578063136d88831461544557806315571981146153995780631cb1de2f146153085780631edb27e91461525157806321b86dc214615230578063222fa2671461518f578063248a9ca31461516457806326e127521461509357806329cf655b14613b3e5780632a49b4281461484b5780632f2ff15d1461480d5780632f4c007f146146d957806332617b701461469f57806333031b0614613ea157806335037e0b14613e2557806336568abe14613de15780633937336e14613d795780633d9704ff14613cc05780633ec7919314613bed5780633f4ba83a14613b87578063417257f914613b6a57806343425e8814613b3e5780634a2021ef14613a235780634bdd45fb146139fb5780635a2db6fb146135ac5780635c975abb1461358a57806360557333146134a2578063677bd9ff146132775780636db3b4dc146131fb5780636eae429714613064578063715018a61461300d578063755f062914612fd357806377b4a3e714612f995780637c94645414612e315780637e50898e14612e1357806382c3188c14612df6578063835dc40b14612d655780638456cb5914612d0c5780638b8840e014612cd45780638da5cb5b14612cad57806391d1485414612c64578063927fef2e14612c2b57806392f012b214612c0f578063950f479714612bd75780639e0ffc0914612a31578063a217fddf14612a17578063a42dce80146129a4578063a75dd1151461294a578063a8cc7f1914612939578063ab44e63514612858578063abdce1a4146127dc578063b1ab13ff146127a1578063b41acdbe14612769578063b61920c114612705578063bd55022a146126e8578063c07d144914612449578063c2454af7146123b1578063c415b95c14612389578063d0b7830b14612279578063d547741f14612234578063d8c39bd7146121e7578063d911f19814611801578063da7295d914611794578063e9ca202614611459578063ec979082146104b7578063ed88123014610fce578063eeca08f014610fb1578063f2fde38b14610f2c578063f355f2e714610e67578063f98ce1ba14610549578063fc12524c146104d4578063fd69f3c2146104b75763fdd3cdf61461038c575f80fd5b346104b35760203660031901126104b3576103a5615640565b5f546001600160a01b03163314158061047b575b61046c576001600160a01b03811690811561045d57600354600881901c6001600160a01b03169183831461044e57600480546001600160a01b03191684179055610100600160a81b031990911660089190911b610100600160a81b0316176003554260058190556040519081527fa16c473a31f9f07338cd1d3ccebda80cefdc0cb743aec539af892abfbf5a534e90602090a3005b63100dac0560e11b5f5260045ffd5b63c1ab6dc160e01b5f5260045ffd5b6361685c2b60e01b5f5260045ffd5b50335f9081527fac33ff75c19e70fe83507db0d683fd3465c996598dc972688b7ace676c89077b602052604090205460ff16156103b9565b5f80fd5b346104b3575f3660031901126104b3576020600654604051908152f35b346104b35760203660031901126104b3576004356104f0615f4e565b60065481101561053a57805f52600c602052600560405f2001600160ff198254161790557f0b939016779c3297135b58aed6d343cf103faf818ea07a7c5f87b03a9bd872975f80a2005b639db8d5b160e01b5f5260045ffd5b346104b35760e03660031901126104b3576004356001600160401b0381116104b357610579903690600401615770565b6024356001600160401b0381116104b357610598903690600401615770565b6044356001600160401b0381116104b3576105b79036906004016157dc565b6064356001600160401b0381116104b3576105d69036906004016157dc565b6084359060a43560088110156104b35760c4359360038510156104b3576105fb615f74565b610603615f74565b5f546001600160a01b031633141580610e42575b610e3357610e1084108015610e26575b610e1757865115610e0857805160028110908115610dfd575b50610dee578051835103610ddf576003546040516323b872dd60e01b8152336004820152306024820152683635c9adc5dea00000604482015290602090829060649082905f9060081c6001600160a01b03165af1908115610dd4575f91610da5575b5015610d9657600654936106b58561592f565b600655845f52600c60205260405f209688516001600160401b038111610a74576106df8954615c9d565b601f8111610d51575b50806020601f8211600114610cee575f91610ce3575b508160011b915f199060031b1c19161788555b805160018901916001600160401b038211610a74576107308354615c9d565b601f8111610c9e575b50602090601f8311600114610c3657610771949392915f9183610c2b575b50508160011b915f199060031b1c19161790555b4261593d565b6002870190815560038701805461ffff191660ff851617600888901b61ff00161790556005870180546301000000600160b81b0319163360181b6301000000600160b81b03161790554260098801558151600a8801819055683635c9adc5dea00000600689018190555f60078a0155600b8901559097908015610c1757670de0b6b3a7640000049582518015610c1757600f9098019897683635c9adc5dea0000004935f5b8451811015610b46576108298186615da7565b51868c610836848b615da7565b516040519361084485615733565b8452602084019081528c604085015f815260608601905f82526080870192835260a08701936001855260c088019587875260e08901978852895f5260205260405f2097518051906001600160401b038211610a745781906108a58b54615c9d565b601f8111610af6575b50602090601f8311600114610a93575f92610a88575b50508160011b915f199060031b1c19161788555b51805160018901916001600160401b038211610a74576108f88354615c9d565b601f8111610a2f575b50602090601f83116001146109bd579282610968969360019d9c9b99969360079b99965f926109b2575b50505f19600383901b1c1916908d1b1790555b516002890155516003880155516004870155511515600586019060ff801983541691151516179055565b51600684015551910155885f52601060205260405f20815f526020526109ac60405f2060405190610998826156fd565b8c82524260208301525f6040830152615dbb565b01610816565b015190505f8061092b565b90601f19831691845f52815f20925f5b818110610a1757509360019d9c9b99969360079b9996938f93836109689b98106109ff575b505050811b01905561093e565b01515f1960f88460031b161c191690555f80806109f2565b929360206001819287860151815501950193016109cd565b835f5260205f20601f840160051c81019160208510610a6a575b601f0160051c01905b818110610a5f5750610901565b5f8155600101610a52565b9091508190610a49565b634e487b7160e01b5f52604160045260245ffd5b015190505f806108c4565b5f8c81528281209350601f198516905b818110610ade5750908460019594939210610ac6575b505050811b0188556108d8565b01515f1960f88460031b161c191690555f8080610ab9565b92936020600181928786015181550195019301610aa3565b9091508a5f5260205f20601f840160051c81019160208510610b3c575b90601f859493920160051c01905b818110610b2e57506108ae565b5f8155849350600101610b21565b9091508190610b13565b50869184918a610b5e85610b59846158d7565b615e0c565b610b6b85610b59856158ee565b54610b816040519660c0885260c0880190615685565b8681036020880152845180825260208201916020808360051b8301019701925f915b838310610bea5760208a805f805160206163678339815191528e808e8e610bd48f8f6040860152606085019061585a565b60808301523360a08301520390a2604051908152f35b9091929397602080610c08600193601f198682030187528c51615685565b9a019301930191939290610ba3565b634e487b7160e01b5f52601260045260245ffd5b015190508c80610757565b90601f19831691845f52815f20925f5b818110610c8657509160019391856107719897969410610c6e575b505050811b01905561076b565b01515f1960f88460031b161c191690558c8080610c61565b92936020600181928786015181550195019301610c46565b835f5260205f20601f840160051c81019160208510610cd9575b601f0160051c01905b818110610cce5750610739565b5f8155600101610cc1565b9091508190610cb8565b90508a01518b6106fe565b5f8b81528181209250601f198416905b8d828210610d395750509083600194939210610d21575b5050811b018855610711565b8c01515f1960f88460031b161c191690558b80610d15565b60018495602093958493015181550194019201610cfe565b895f5260205f20601f830160051c81019160208410610d8c575b601f0160051c01905b818110610d8157506106e8565b5f8155600101610d74565b9091508190610d6b565b6312171d8360e31b5f5260045ffd5b610dc7915060203d602011610dcd575b610dbf818361574f565b81019061594a565b886106a2565b503d610db5565b6040513d5f823e3d90fd5b631fec674760e31b5f5260045ffd5b63dab5b42b60e01b5f5260045ffd5b600a91501188610640565b630d5003f360e01b5f5260045ffd5b634d84c2e960e01b5f5260045ffd5b506301e133808411610627565b63ea8e4eb560e01b5f5260045ffd5b50335f9081525f80516020616327833981519152602052604090205460ff1615610617565b346104b357610e7536615885565b915f52600c602052600f60405f2001905f5260205260405f2060066007820154838082115f14610f2257610ea891615922565b915b015491670de0b6b3a7640000830292808404670de0b6b3a76400001490151715610f0e57610ee4610ee992670de0b6b3a764000094615918565b615905565b046103e58102908082046103e51490151715610f0e576020906103e860405191048152f35b634e487b7160e01b5f52601160045260245ffd5b5060011c91610eaa565b346104b35760203660031901126104b357610f45615640565b610f4d615f4e565b6001600160a01b03168015610f9e575f80546001600160a01b03198116831782556001600160a01b0316907f8be0079c531659141344cd1fd0a4f28419497f9722a3daafe3b4186f6b6457e09080a3005b631e4fbdf760e01b5f525f60045260245ffd5b346104b3575f3660031901126104b3576020600854604051908152f35b346104b357610fdc36615867565b610fe7929192615f2e565b610fef615f74565b60065484101561053a57835f52600c602052600260405f20015442101561144a57835f52600c60205260ff600560405f2001541661143b57835f52600c602052600a60405f20015482101561142c57835f52600c602052600f60405f2001825f5260205260ff600560405f200154161561141d57821561140e57835f52600c60205260ff600560405f20015460101c16156113ff575f848152600c60209081526040808320858452600f810190925290912060048101549093919291909182116113f057670de0b6b3a76400006110c68684615905565b04946127106110d760085488615905565b04936110e3858861593d565b6003546040516323b872dd60e01b81523360048201523060248201526044810183905291929190602090829060081c6001600160a01b0316815f816064810103925af1908115610dd4575f916113d1575b5015610d9657806010600c920160018060a01b0333165f528060205260405f20865f5260205260405f205415806113c1575b611395575b60018060a01b0333165f5260205260405f20855f5260205260405f2061119285825461593d565b9055600288016111a385825461593d565b9055600388016111b48a825461593d565b9055600781016111c58a825461593d565b9055600881016111d68a825461593d565b9055016111e486825461593d565b90556111f285600b5461593d565b600b55335f52600d60205261120c60405f2091825461593d565b9055335f52600d602052600460405f2001611227815461592f565b9055865f52600c602052600f60405f2001825f5260205260405f2061125682600660078401549301549261593d565b670de0b6b3a7640000820291808304670de0b6b3a76400001490151715610f0e577faf7c505ee772ec188af7067e1f73db08ab028e3d564273442b907742b9c41fa0976020976112ab6004936112e395615918565b9283910155895f526010885260405f20855f52885260405f2090604051926112d2846156fd565b835242898401526040830152615dbb565b61133c6040516112f281615718565b88815283878201523360408201525f60608201528460808201528260a08201524260c0820152335f52600e875261132c8160405f20615e40565b885f52600f875260405f20615e40565b600754906113498261592f565b600755604051935f85528685015260408401526060830152857f976184626638b6c7e51a4ab66b297beb1714b545ce4e867a70d622566573098c60803394a4604051908152a260018055005b6113a23360148401615f11565b335f52600d60205260405f205461116b576113bc33615ecc565b61116b565b506113cc8b336162aa565b611166565b6113ea915060203d602011610dcd57610dbf818361574f565b8a611134565b63127f08c960e11b5f5260045ffd5b636864aac360e11b5f5260045ffd5b632e11316f60e11b5f5260045ffd5b63f6b715c360e01b5f5260045ffd5b632a71953160e01b5f5260045ffd5b630edca30d60e11b5f5260045ffd5b63262b753160e21b5f5260045ffd5b346104b35760a03660031901126104b35760643560443560043560243561147e615f2e565b611486615f74565b60065482101561053a57815f52600c602052600260405f20015442101561144a57815f52600c60205260ff600560405f2001541661143b5782811461178557831561140e575f828152600c602090815260408083203384526010018252808320848452909152902054841161177657815f52600c60205260405f2090600f820190805f528160205260405f2091855f5260205260405f2095600783019586549660078901958654986126f28502908582046126f203610f0e576115768b61157061271061157c9504809261155a828c615922565b611569600d8a0191825461593d565b9055615905565b9261593d565b90615918565b986084358a10611767578910156117585760109061159b85845461593d565b83556115a88a8954615922565b88550160018060a01b0333165f528060205260405f20855f5260205260405f206115d3858254615922565b905560018060a01b0333165f5260205260405f20825f5260205260405f206115fc89825461593d565b9055600685015490670de0b6b3a7640000820291808304670de0b6b3a76400001490151715610f0e57600491611633915490615918565b94019384556006880154670de0b6b3a7640000810290808204670de0b6b3a76400001490151715610f0e576020986116e760a0966004611699611730957fca95f9f211eceb8cf82eff4e16ae708336f056d94515a268f4b8fd1f5c08ef509b5490615918565b9301928355895f5260108c5260405f20875f528c5260405f20905490670de0b6b3a76400006116c88389615905565b04604051926116d6846156fd565b8352428e8401526040830152615dbb565b875f5260108a5260405f20835f528a5260405f20905490670de0b6b3a7640000611711838c615905565b046040519261171f846156fd565b8352428c8401526040830152615dbb565b604051928352878301526040820152846060820152336080820152a260018055604051908152f35b63bb55fd2760e01b5f5260045ffd5b63bb2875c360e01b5f5260045ffd5b633999656760e01b5f5260045ffd5b6302ef184b60e31b5f5260045ffd5b346104b35760203660031901126104b35760043560065481101561053a575f52600c602052608060405f2060166014820154910154908181115f146117fa576117dd8282615922565b915b60405192828452816020850152604084015210156060820152f35b5f916117df565b6101203660031901126104b3576004356001600160401b0381116104b35761182d903690600401615770565b6024356001600160401b0381116104b35761184c903690600401615770565b6044356001600160401b0381116104b35761186b9036906004016157dc565b916064356001600160401b0381116104b35761188b9036906004016157dc565b6084359060a4359260088410156104b35760e4356001600160401b0381116104b3576118bb903690600401615770565b9561010435946118c9615f74565b34156121d8576118d7615f74565b5f546001600160a01b0316331415806121b3575b610e3357610e10851080156121a6575b610e1757825115610e085781516002811090811561219b575b50610dee578151845103610ddf5768056bc75e2d63100000861061218c576003546040516323b872dd60e01b81523360048201523060248201526044810188905290602090829060081c6001600160a01b0316815f816064810103925af1908115610dd4575f9161216d575b5015610d9657600654946119938661592f565b600655855f52600c60205260405f209784516001600160401b038111610a74576119bd8a54615c9d565b601f8111612128575b50806020601f82116001146120c7575f916120bc575b508160011b915f199060031b1c19161789555b805160018a01916001600160401b038211610a7457611a0e8354615c9d565b601f8111612077575b50602090601f831160011461201057611a4d949392915f91836120055750508160011b915f199060031b1c19161790554261593d565b6002880190815560038801805461ffff191660ff8416176102001790556005880180546301000000600160b81b0319163360181b6301000000600160b81b03161790554260098901558251600a8901819055600689018890555f60078a0155600b89018890559098908015610c1757611ad690670de0b6b3a76400009a999a0497845190615918565b93600f5f9a01995b8451811015611dc057611af18186615da7565b51868c611afe848b615da7565b5160405193611b0c85615733565b8452602084019081528c604085015f815260608601905f82526080870192835260a08701936001855260c088019587875260e08901978852895f5260205260405f2097518051906001600160401b038211610a74578190611b6d8b54615c9d565b601f8111611d70575b50602090601f8311600114611d0d575f92611d02575b50508160011b915f199060031b1c19161788555b51805160018901916001600160401b038211610a7457611bc08354615c9d565b601f8111611cbd575b50602090601f8311600114611c64579282611c2e969360019d9c9b99969360079b99965f926109b25750505f19600383901b1c1916908d1b179055516002890155516003880155516004870155511515600586019060ff801983541691151516179055565b51600684015551910155885f52601060205260405f20815f52602052611c5e60405f2060405190610998826156fd565b01611ade565b90601f19831691845f52815f20925f5b818110611ca557509360019d9c9b99969360079b9996938f9383611c2e9b98106109ff57505050811b01905561093e565b92936020600181928786015181550195019301611c74565b835f5260205f20601f840160051c81019160208510611cf8575b601f0160051c01905b818110611ced5750611bc9565b5f8155600101611ce0565b9091508190611cd7565b015190505f80611b8c565b5f8c81528281209350601f198516905b818110611d585750908460019594939210611d40575b505050811b018855611ba0565b01515f1960f88460031b161c191690555f8080611d33565b92936020600181928786015181550195019301611d1d565b9091508a5f5260205f20601f840160051c81019160208510611db6575b90601f859493920160051c01905b818110611da85750611b76565b5f8155849350600101611d9b565b9091508190611d8d565b508690848a611dd284610b59886158d7565b611de084610b5960026158ee565b5494611df76040519360c0855260c0850190615685565b8381036020850152825180825260208201906020808260051b8501019501915f905b828210611fd457604088018b90528989805f805160206163678339815191528b808c611e48606083018e61585a565b600260808301523360a08301520390a25f818152600c60205260409020601d810180546001600160a01b0319163317905534601e82015560c435601f820155825192906021016001600160401b038411610a7457611ea68154615c9d565b93601f8511611f8f575b602094508085601f8211600114611f2f575f91611f24575b508160011b915f199060031b1c19161790555b817f5ecba3331a79c832c0833d5f1b33759b26d8743c93f4a1b5402053fcbe29de8460405134815260408682015280611f1933956040830190615685565b0390a3604051908152f35b905083015186611ec8565b5f8481528181209250601f198416905b818110611f7857509083600194939210611f60575b5050811b019055611edb565b8501515f1960f88460031b161c191690558680611f54565b91928860018192868a015181550194019201611f3f565b815f5260205f20601f820160051c81019560208310611fca575b601f0160051c01945b858110611fbf5750611eb0565b5f8155600101611fb2565b9095508590611fa9565b90919295602080611ff4600193889e98601f199082030186528a51615685565b980192019201909291999399611e19565b015190508d80610757565b90601f19831691845f52815f20925f5b81811061205f5750916001939185611a4d989796941061204757505050811b01905561076b565b01515f1960f88460031b161c191690558d8080610c61565b92936020600181928786015181550195019301612020565b835f5260205f20601f840160051c810191602085106120b2575b601f0160051c01905b8181106120a75750611a17565b5f815560010161209a565b9091508190612091565b90508601518c6119dc565b5f8c81528181209250601f198416905b818110612110575090836001949392106120f8575b5050811b0189556119ef565b8801515f1960f88460031b161c191690558c806120ec565b9192602060018192868d0151815501940192016120d7565b8a5f5260205f20601f830160051c81019160208410612163575b601f0160051c01905b81811061215857506119c6565b5f815560010161214b565b9091508190612142565b612186915060203d602011610dcd57610dbf818361574f565b89611980565b63cca3833560e01b5f5260045ffd5b600a91501189611914565b506301e1338085116118fb565b50335f9081525f80516020616327833981519152602052604090205460ff16156118eb565b63697df94b60e11b5f5260045ffd5b346104b35760403660031901126104b35760043560038110156104b357612210602435916158ee565b80548210156104b35760209161222591615615565b90549060031b1c604051908152f35b346104b35760403660031901126104b357612277600435612253615656565b9061227261226d825f526002602052600160405f20015490565b615f8f565b616226565b005b346104b3575f3660031901126104b357612291615f2e565b600a546001600160a01b03163381141580612375575b610e3357600b54908115612366575f600b81905560035460405163a9059cbb60e01b81526001600160a01b0393841660048201526024810185905292602092849260449284929160081c165af1908115610dd4575f91612347575b5015610d9657600a546040519182526001600160a01b0316907ffc7ad544ff6a06d6499925723d25b6fe70457a42939995b1d3d6f560fe33633390602090a260018055005b612360915060203d602011610dcd57610dbf818361574f565b82612302565b630d00db4d60e31b5f5260045ffd5b505f546001600160a01b03163314156122a7565b346104b3575f3660031901126104b357600a546040516001600160a01b039091168152602090f35b346104b3576123c96123c2366158b8565b91906158d7565b8054908183111561244257815b6123df83615d75565b938082111561243a576123f191615922565b5f5b83811061240c576040518061240887826156a9565b0390f35b8061242261241c6001938561593d565b85615615565b90549060031b1c6124338288615da7565b52016123f3565b50505f6123f1565b82916123d6565b346104b3576124573661562a565b90612460615f2e565b612468615f74565b60065481101561053a57805f52600c602052600260405f20015442101561144a57805f52600c60205260ff600560405f2001541661143b57805f52600c602052600a60405f20015482101561142c57805f52600c602052600f60405f2001825f5260205260ff600560405f200154161561141d57805f52600c60205260405f2060ff600382015460081c1660038110156126d4576001036126c55760ff601a82015416156126b657335f908152601b8201602081905260409091205460ff166126a757601982019182546017820154111561269857335f52601460205260405f20549261255a6018830154809561593d565b6009541061268957335f90815260209384526040808220805460ff19166001179055601c8401909452929092208390558154600f92906125999061592f565b9055335f52601460205260405f206125b284825461593d565b90556125be84336162aa565b61265d575b60018060a01b0333165f526010810160205260405f20855f5260205260405f206125ee84825461593d565b9055845f5201602052600260405f200161260982825461593d565b9055335f52600d602052600460405f2001612624815461592f565b905560405192835260208301527fba1358e4391d1f20b35776c79553f82c2795e406eb2237bcd294702bf75bd56d60403393a360018055005b61266a3360148301615f11565b335f52600d60205260405f20546125c35761268433615ecc565b6125c3565b63b8c6679960e01b5f5260045ffd5b631d28dd2d60e01b5f5260045ffd5b6302e98e0360e31b5f5260045ffd5b636883c16d60e01b5f5260045ffd5b6348c511c960e11b5f5260045ffd5b634e487b7160e01b5f52602160045260245ffd5b346104b3575f3660031901126104b3576020600754604051908152f35b346104b35760203660031901126104b3576001600160a01b03612726615640565b165f52600d60205260a060405f20805490600181015490600281015460046003830154920154926040519485526020850152604084015260608301526080820152f35b346104b35760203660031901126104b3576001600160a01b0361278a615640565b165f526014602052602060405f2054604051908152f35b346104b35760206127d46127b43661562a565b905f52600c602052600f60405f2001905f52602052600460405f20015490565b604051908152f35b346104b35760203660031901126104b3576122776127f8615640565b612800615f4e565b7fd486618b282cb35034d59c30c062b5b3822d6cdf87ec459191ce7f5b7b8a48735f5260026020527fd3dccf8d8289b9deee17e361620d7577de7b525dd57f668d5c1bb85ec53112b65461285390615f8f565b6160f4565b346104b35760203660031901126104b35760043560065481101561053a57335f9081527fd3dccf8d8289b9deee17e361620d7577de7b525dd57f668d5c1bb85ec53112b5602052604090205460ff161580612925575b610e3357805f52600c60205260ff600560405f20015460101c1661291657805f52600c602052600560405f20016201000062ff0000198254161790557fcd5b0c95d548cdba5f9a45b4210642d0b866a0cc878e0a863855455908c6db656020604051338152a2005b63aa43cb2d60e01b5f5260045ffd5b505f546001600160a01b03163314156128ae565b346104b3576122106123c2366158b8565b346104b35761295836615885565b915f52601060205260405f20905f5260205260405f2080548210156104b3576060916129839161589f565b50805490600260018201549101549060405192835260208301526040820152f35b346104b35760203660031901126104b3576129bd615640565b6129c5615f4e565b6001600160a01b0316801561045d57600a80546001600160a01b0319811683179091556001600160a01b03167f5d16ad41baeb009cd23eb8f6c7cde5c2e0cd5acf4a33926ab488875c37c37f385f80a3005b346104b3575f3660031901126104b35760206040515f8152f35b346104b35760203660031901126104b357600435612a4d615f2e565b60065481101561053a57805f52600c60205260405f2090601282019160018060a01b0333165f528260205260405f205415612bc857601381019260018060a01b0333165f528360205260ff60405f205416612bb957600d820154918215612baa57600b0154335f908152602092909252604090912054612ad592612ad091615905565b615918565b918215612baa57335f90815260209182526040808220805460ff191660011790556015909252208054612b0990849061593d565b905560035460405163a9059cbb60e01b81523360048201526024810184905290602090829060081c6001600160a01b0316815f816044810103925af1908115610dd4575f91612b8b575b5015610d96576040519182527fa43a50778aee751dd1829f631ad20e6e54e5b672b014ca07f028797b1fe89c9160203393a360018055005b612ba4915060203d602011610dcd57610dbf818361574f565b83612b53565b630ea1a19b60e21b5f5260045ffd5b630c8d9eab60e31b5f5260045ffd5b63eeec57a160e01b5f5260045ffd5b346104b35760203660031901126104b3576001600160a01b03612bf8615640565b165f526015602052602060405f2054604051908152f35b346104b3575f3660031901126104b3576020604051610e108152f35b346104b35760203660031901126104b357600435612c47615f4e565b6103e88111612c5557600855005b63cd4e616760e01b5f5260045ffd5b346104b35760403660031901126104b357612c7d615656565b6004355f52600260205260405f209060018060a01b03165f52602052602060ff60405f2054166040519015158152f35b346104b3575f3660031901126104b3575f546040516001600160a01b039091168152602090f35b346104b35760203660031901126104b3576001600160a01b03612cf5615640565b165f526012602052602060405f2054604051908152f35b346104b3575f3660031901126104b357612d24615f4e565b612d2c615f74565b600160ff1960035416176003557f62e78cea01bee320cd4e420270b5ea74000d11b0c9f74754ebdbfc544b05a2586020604051338152a1005b346104b35760403660031901126104b357600435612d81615656565b9060065481101561053a575f52600c60205260405f2090600a82015490612da782615d75565b92601001906001600160a01b03165f5b838110612dcc576040518061240887826156a9565b600190825f528360205260405f20815f5260205260405f2054612def8288615da7565b5201612db7565b346104b3575f3660031901126104b3576020600b54604051908152f35b346104b3575f3660031901126104b35760206040516301e133808152f35b346104b357612e3f36615885565b915f52601060205260405f20905f5260205260405f208054908183115f14612f9257815b612e6c836157c5565b93612e7a604051958661574f565b838552601f19612e89856157c5565b015f5b818110612f6957505080821115612f6157612ea691615922565b5f5b838110612f0b57846040518091602082016020835281518091526020604084019201905f5b818110612edb575050500390f35b91935091602060606001926040875180518352848101518584015201516040820152019401910191849392612ecd565b80612f21612f1b6001938561593d565b8561589f565b50600260405191612f31836156fd565b8054835284810154602084015201546040820152612f4f8288615da7565b52612f5a8187615da7565b5001612ea8565b50505f612ea6565b602090604051612f78816156fd565b5f81525f838201525f604082015282828a01015201612e8c565b8291612e63565b346104b3575f3660031901126104b35760206040517fef485be696bbc0c91ad541bbd553ffb5bd0e18dac30ba76e992dda23cb807a8a8152f35b346104b3575f3660031901126104b35760206040517fdcee1d35c83a32b436264a5c9afd68685c124f3f9097e87804c55410e67fc59a8152f35b346104b3575f3660031901126104b357613025615f4e565b5f80546001600160a01b0319811682556001600160a01b03167f8be0079c531659141344cd1fd0a4f28419497f9722a3daafe3b4186f6b6457e08280a3005b346104b3576130723661562a565b9061307b615f2e565b60065481101561053a57811561140e576003546040516323b872dd60e01b81523360048201523060248201526044810184905290602090829060081c6001600160a01b0316815f816064810103925af1908115610dd4575f916131dc575b5015610d9657805f52600c60205260405f2090600b82016130fb84825461593d565b9055335f908152601283016020819052604090912054156131ca575b60018060a01b0333165f5260205260405f2061313484825461593d565b9055600a820191613146835485615918565b91600f5f9201915b845481101561319657806001915f5283602052600660405f200161317386825461593d565b9055805f5283602052600760405f200161318e86825461593d565b90550161314e565b85826040519182527fc733c2813826d31c105dbff518b08258e9e7aeb3eb1c7c7f642d77696faf501d60203393a360018055005b6131d73360158501615f11565b613117565b6131f5915060203d602011610dcd57610dbf818361574f565b836130d9565b346104b35760203660031901126104b357612277613217615640565b61321f615f4e565b7fef485be696bbc0c91ad541bbd553ffb5bd0e18dac30ba76e992dda23cb807a8a5f5260026020527f30d995518b427f5a5863ad73fe356ca50cf70941f42c516830919c845fa580705461327290615f8f565b616061565b346104b35760203660031901126104b357600435613293615f2e565b60065481101561053a57805f52600c60205260405f2090600582015460ff811615908115613494575b5061348557601182019160018060a01b0333165f528260205260ff60405f205416612bb957335f908152601082016020908152604080832060048501548085529252909120549081156134765782612ad061337e92600f6133849601815f52806020526133576007600260405f200154950154835f5282602052670de0b6b3a7640000613350600460405f20015488615905565b0490615922565b915f52602052670de0b6b3a7640000613377600460405f20015487615905565b0494615905565b9061593d565b9160018060a01b0333165f5260205260405f20600160ff19825416179055335f52600d602052600160405f20016133bc83825461593d565b9055335f52601260205260405f206133d583825461593d565b905560035460405163a9059cbb60e01b81523360048201526024810184905290602090829060081c6001600160a01b0316815f816044810103925af1908115610dd4575f91613457575b5015610d96576040519182527f4ec90e965519d92681267467f775ada5bd214aa92c0dc93d90a5e880ce9ed02660203393a360018055005b613470915060203d602011610dcd57610dbf818361574f565b8361341f565b63843f941b60e01b5f5260045ffd5b6356c5d21d60e01b5f5260045ffd5b60ff915060081c16836132bc565b346104b3576134b03661562a565b60065482101561053a575f546001600160a01b031633141580613565575b610e3357815f52600c60205260405f20906002820154421061355657600582019081549160ff831661291657600a8401548210156135475760016040938360047fc160a477581cb2155b1578581d805dcc0e6623403811fc2853465045bc0b049297015560ff19161790558151908152336020820152a2005b631387e78360e11b5f5260045ffd5b63123099e160e11b5f5260045ffd5b50335f9081525f80516020616347833981519152602052604090205460ff16156134ce565b346104b3575f3660031901126104b357602060ff600354166040519015158152f35b346104b3576135ba36615867565b6135c2615f2e565b6135ca615f74565b60065484101561053a57835f52600c602052600260405f20015442101561144a57835f52600c60205260ff600560405f2001541661143b57835f52600c602052600a60405f20015483101561142c57835f52600c602052600f60405f2001835f5260205260ff600560405f200154161561141d57811561140e575f848152600c6020908152604080832033845260100182528083208684529091529020548211611776575f848152600c60209081526040808320868452600f81019092529091206004810154919282106139ec57670de0b6b3a76400006136ab8584615905565b04906127106136bc60085484615905565b0493600c6136ca8685615922565b9160018060a01b0333165f526010810160205260405f20895f5260205260405f206136f6898254615922565b905560028401613707898254615922565b90556003840161371886825461593d565b90556008810161372986825461593d565b90550161373786825461593d565b905561374585600b5461593d565b600b55875f52600c602052600f60405f2001875f5260205260405f206006600782015491015490878082115f146139e25761377f91615922565b905b670de0b6b3a7640000810290808204670de0b6b3a76400001490151715610f0e576004916137ae91615918565b9201918255670de0b6b3a76400006137c68786615905565b04905f828203921281831281169082841390151617610f0e57335f52600d602052600360405f200180545f8482019485129112908015821691151617610f0e575f946020946138fa946138639355338752600d86526004604088200161382c815461592f565b90558b875260108652604087208b885286526040872090549160405192613852846156fd565b835242878401526040830152615dbb565b6138bc60405161387281615718565b8a815289858201528560408201523360608201528660808201528860a08201524260c0820152338652600e85526138ac8160408820615e40565b8a8652600f855260408620615e40565b60035460405163a9059cbb60e01b815233600482015260248101929092529093849260089290921c6001600160a01b03169183919082906044820190565b03925af1908115610dd4575f916139c3575b5015610d96577faf7c505ee772ec188af7067e1f73db08ab028e3d564273442b907742b9c41fa093857f976184626638b6c7e51a4ab66b297beb1714b545ce4e867a70d622566573098c60805f94602097604051818152828a82015286867f33c49da1ff633ff516cc2661d0cd94af11b7b76985b6fe549151782c14db745a60403394a46007549061399d8261592f565b600755604051923384528a84015260408301526060820152a4604051908152a260018055005b6139dc915060203d602011610dcd57610dbf818361574f565b8661390c565b5060011c90613781565b636dddf41160e11b5f5260045ffd5b346104b3575f3660031901126104b3576004546040516001600160a01b039091168152602090f35b346104b35760403660031901126104b3576004356024356001600160401b0381116104b357613a56903690600401615770565b60065482101561053a57815f52600c60205260ff600560405f2001541615613b2f57815f52600c60205260ff600560405f20015460081c16612bb9575f828152600c602090815260408083203384526010810183528184206004909101548452909152902054613b2057613b1b7ff20590b2cb9af0bb070ad77de2c0b74db291dd43666e7a386ffb0e65974b050a91835f52600c602052600560405f200161010061ff0019825416179055604051918291338352604060208401526040830190615685565b0390a2005b635a570b3d60e01b5f5260045ffd5b63174b639360e11b5f5260045ffd5b346104b3575f3660031901126104b35760035460405160089190911c6001600160a01b03168152602090f35b346104b3575f3660031901126104b3576020600954604051908152f35b346104b3575f3660031901126104b357613b9f615f4e565b60035460ff811615613bde5760ff19166003557f5db9ee0a495bf2e6ff9c91a7834c1ba4fdd244a5e8aa4e537bd38aeae4b073aa6020604051338152a1005b638dfc202b60e01b5f5260045ffd5b346104b35760203660031901126104b35760043560065481101561053a575f52600c602052613c6960405f20600281015460ff600383015416600a83015490600584015491613c87600486015492613c77613c536001613c4c8a615cd5565b9901615cd5565b604051998a996101208b526101208b0190615685565b9089820360208b0152615685565b956040880152606087019061585a565b608085015260ff828116151560a0860152600883901c16151560c085015260e084015260181c6001600160a01b03166101008301520390f35b346104b35760403660031901126104b357600435613cdc615656565b60065482101561053a575f918252600c602090815260408084206001600160a01b039390931684526012830182528084205460138401909252832054606093919260ff9091169083151580613d6c575b613d46575b50604051928352151560208301526040820152f35b613d65919250600b613d5c600d83015486615905565b91015490615918565b9084613d31565b50600b8101541515613d2c565b346104b35760203660031901126104b35760043560065481101561053a575f52600c60205260a060405f20600681015490600781015490600c81015460ff600e600d840154930154169260405194855260208501526040840152606083015215156080820152f35b346104b35760403660031901126104b357613dfa615656565b336001600160a01b03821603613e165761227790600435616226565b63334bd91960e11b5f5260045ffd5b346104b35760203660031901126104b357612277613e41615640565b613e49615f4e565b7fdcee1d35c83a32b436264a5c9afd68685c124f3f9097e87804c55410e67fc59a5f5260026020527f8e2c297e756b2a427c5dc4607f639842a8ea6e0f6322302f4ea76306b642cfc354613e9c90615f8f565b615fc9565b346104b3576101003660031901126104b3576004356001600160401b0381116104b357613ed2903690600401615770565b6024356001600160401b0381116104b357613ef1903690600401615770565b6044356001600160401b0381116104b357613f109036906004016157dc565b916064356001600160401b0381116104b357613f309036906004016157dc565b6084359060a43560088110156104b35760c4359560038710156104b35760e43594613f59615f74565b5f546001600160a01b03163314158061467a575b610e3357610e108510801561466d575b610e1757805115610e0857815160028110908115614662575b50610dee578151845103610ddf5768056bc75e2d63100000861061218c576003546040516323b872dd60e01b81523360048201523060248201526044810188905290602090829060081c6001600160a01b0316815f816064810103925af1908115610dd4575f91614643575b5015610d9657600654946140158661592f565b600655855f52600c60205260405f209782516001600160401b038111610a745761403f8a54615c9d565b601f81116145fe575b50806020601f821160011461459d575f91614592575b508160011b915f199060031b1c19161789555b805160018a01916001600160401b038211610a74576140908354615c9d565b601f811161454d575b50602090601f83116001146144fe576140cf949392915f91836120055750508160011b915f199060031b1c19161790554261593d565b6002880190815560038801805461ffff191660ff86161760088b901b61ff00161790556005880180546301000000600160b81b0319163360181b6301000000600160b81b03161790554260098901558251600a8901819055600689018890555f60078a0155600b89018890559098908015610c175761415e90670de0b6b3a76400009a999a0497845190615918565b93600f5f9a01995b8451811015614448576141798186615da7565b51868c614186848b615da7565b516040519361419485615733565b8452602084019081528c604085015f815260608601905f82526080870192835260a08701936001855260c088019587875260e08901978852895f5260205260405f2097518051906001600160401b038211610a745781906141f58b54615c9d565b601f81116143f8575b50602090601f8311600114614395575f9261438a575b50508160011b915f199060031b1c19161788555b51805160018901916001600160401b038211610a74576142488354615c9d565b601f8111614345575b50602090601f83116001146142ec5792826142b6969360019d9c9b99969360079b99965f926109b25750505f19600383901b1c1916908d1b179055516002890155516003880155516004870155511515600586019060ff801983541691151516179055565b51600684015551910155885f52601060205260405f20815f526020526142e660405f2060405190610998826156fd565b01614166565b90601f19831691845f52815f20925f5b81811061432d57509360019d9c9b99969360079b9996938f93836142b69b98106109ff57505050811b01905561093e565b929360206001819287860151815501950193016142fc565b835f5260205f20601f840160051c81019160208510614380575b601f0160051c01905b8181106143755750614251565b5f8155600101614368565b909150819061435f565b015190505f80614214565b5f8c81528281209350601f198516905b8181106143e057509084600195949392106143c8575b505050811b018855614228565b01515f1960f88460031b161c191690555f80806143bb565b929360206001819287860151815501950193016143a5565b9091508a5f5260205f20601f840160051c8101916020851061443e575b90601f859493920160051c01905b81811061443057506141fe565b5f8155849350600101614423565b9091508190614415565b50869184918a61445b85610b59846158d7565b61446885610b59856158ee565b5461447e6040519660c0885260c0880190615685565b8681036020880152845180825260208201916020808360051b8301019701925f915b8383106144d15760208a805f805160206163678339815191528e808e8e610bd48f8f6040860152606085019061585a565b90919293976020806144ef600193601f198682030187528c51615685565b9a0193019301919392906144a0565b90601f19831691845f52815f20925f5b81811061453557509160019391856140cf989796941061204757505050811b01905561076b565b9293602060018192878601518155019501930161450e565b835f5260205f20601f840160051c81019160208510614588575b601f0160051c01905b81811061457d5750614099565b5f8155600101614570565b9091508190614567565b90508401518c61405e565b5f8c81528181209250601f198416905b8181106145e6575090836001949392106145ce575b5050811b018955614071565b8601515f1960f88460031b161c191690558c806145c2565b9192602060018192868b0151815501940192016145ad565b8a5f5260205f20601f830160051c81019160208410614639575b601f0160051c01905b81811061462e5750614048565b5f8155600101614621565b9091508190614618565b61465c915060203d602011610dcd57610dbf818361574f565b89614002565b600a91501189613f96565b506301e133808511613f7d565b50335f9081525f80516020616327833981519152602052604090205460ff1615613f6d565b346104b3575f3660031901126104b35760206040517fd486618b282cb35034d59c30c062b5b3822d6cdf87ec459191ce7f5b7b8a48738152f35b346104b35760203660031901126104b3576004356146f5615f2e565b60065481101561053a57805f52600c60205260405f209060058201805460018060a01b038160181c1690813303610e335760ff1615613b2f57600e840180549460ff86166147fe576006015494851561140e5760ff1916600117905560035460405163a9059cbb60e01b81526001600160a01b0392831660048201526024810186905291602091839160449183915f9160081c165af1908115610dd4575f916147df575b5015610d96575460405192835260181c6001600160a01b0316917f84cf34bf4fd222b829afd4f81d8430050d146a50574fe8d5a5461a987d289eea90602090a360018055005b6147f8915060203d602011610dcd57610dbf818361574f565b84614799565b63a4f163df60e01b5f5260045ffd5b346104b35760403660031901126104b35761227760043561482c615656565b9061484661226d825f526002602052600160405f20015490565b6161ad565b346104b3576101203660031901126104b3576004356001600160401b0381116104b35761487c903690600401615770565b6024356001600160401b0381116104b35761489b903690600401615770565b6044356001600160401b0381116104b3576148ba9036906004016157dc565b6064356001600160401b0381116104b3576148d99036906004016157dc565b6084359060a43560088110156104b35761010435936148f6615f74565b6148fe615f74565b5f546001600160a01b03163314158061506e575b610e3357610e1084108015615061575b610e1757865115610e0857805160028110908115615056575b50610dee578051835103610ddf5768056bc75e2d63100000851061218c576003546040516323b872dd60e01b81523360048201523060248201526044810187905290602090829060081c6001600160a01b0316815f816064810103925af1908115610dd4575f91615037575b5015610d9657600654936149ba8561592f565b600655845f52600c60205260405f209688516001600160401b038111610a74576149e48954615c9d565b601f8111614ff2575b50806020601f8211600114614f8f575f91614f84575b508160011b915f199060031b1c19161788555b805160018901916001600160401b038211610a7457614a358354615c9d565b601f8111614f3f575b50602090601f8311600114614ef057614a74949392915f9183610c2b5750508160011b915f199060031b1c19161790554261593d565b6002870190815560038701805461ffff191660ff8516176101001790556005870180546301000000600160b81b0319163360181b6301000000600160b81b03161790554260098801558151600a8801819055600688018790555f6007890155600b88018790559097908015610c1757614afd90670de0b6b3a76400009998990496835190615918565b92600f5f9901985b8351811015614dfa57614b188185615da7565b518a614b248389615da7565b5160405192614b3284615733565b835260208301908152604083015f8152606084015f815260808501908d825260a08601926001845260c08701948c865260e08801968d8852895f5260205260405f2097518051906001600160401b038211610a74578190614b938b54615c9d565b601f8111614daa575b50602090601f8311600114614d47575f92614d3c575b50508160011b915f199060031b1c19161788555b51805160018901916001600160401b038211610a7457614be68354615c9d565b601f8111614cf7575b50602090601f8311600114614c9e579282614c54969360019d9c9b99969360079b99965f926109b25750505f19600383901b1c1916908d1b179055516002890155516003880155516004870155511515600586019060ff801983541691151516179055565b51600684015551910155875f52601060205260405f20815f52602052614c9860405f2060405190614c84826156fd565b8b82524260208301525f6040830152615dbb565b01614b05565b90601f19831691845f52815f20925f5b818110614cdf57509360019d9c9b99969360079b9996938f9383614c549b98106109ff57505050811b01905561093e565b92936020600181928786015181550195019301614cae565b835f5260205f20601f840160051c81019160208510614d32575b601f0160051c01905b818110614d275750614bef565b5f8155600101614d1a565b9091508190614d11565b015190505f80614bb2565b5f8c81528281209350601f198516905b818110614d925750908460019594939210614d7a575b505050811b018855614bc6565b01515f1960f88460031b161c191690555f8080614d6d565b92936020600181928786015181550195019301614d57565b9091508a5f5260205f20601f840160051c81019160208510614df0575b90601f859493920160051c01905b818110614de25750614b9c565b5f8155849350600101614dd5565b9091508190614dc7565b5082869189614e0c84610b59846158d7565b614e1a84610b5960016158ee565b54614e306040519560c0875260c0870190615685565b8581036020870152835180825260208201916020808360051b8301019601925f915b838310614ec357602089805f805160206163678339815191528d808d614e828e8e6040850152606084019061585a565b600160808301523360a08301520390a2805f52600c8252601a60405f2060c435601782015560e435601882015501600160ff19825416179055604051908152f35b9091929396602080614ee1600193601f198682030187528b51615685565b99019301930191939290614e52565b90601f19831691845f52815f20925f5b818110614f275750916001939185614a749897969410610c6e57505050811b01905561076b565b92936020600181928786015181550195019301614f00565b835f5260205f20601f840160051c81019160208510614f7a575b601f0160051c01905b818110614f6f5750614a3e565b5f8155600101614f62565b9091508190614f59565b90508a01518b614a03565b5f8b81528181209250601f198416905b8d828210614fda5750509083600194939210614fc2575b5050811b018855614a16565b8c01515f1960f88460031b161c191690558b80614fb6565b60018495602093958493015181550194019201614f9f565b895f5260205f20601f830160051c8101916020841061502d575b601f0160051c01905b81811061502257506149ed565b5f8155600101615015565b909150819061500c565b615050915060203d602011610dcd57610dbf818361574f565b886149a7565b600a9150118861493b565b506301e133808411614922565b50335f9081525f80516020616327833981519152602052604090205460ff1615614912565b346104b35760203660031901126104b35760043560065481101561053a575f52600c60205260405f20600a8101546150ca81615d75565b905f92600f5f9101905b82811061514157505f5b8281106150f3576040518061240886826156a9565b805f5281602052600660405f20015490670de0b6b3a7640000820291808304670de0b6b3a76400001490151715610f0e5761513086600193615918565b61513a8287615da7565b52016150de565b9361515d600191865f5283602052600660405f2001549061593d565b94016150d4565b346104b35760203660031901126104b35760206127d46004355f526002602052600160405f20015490565b346104b35761519d3661562a565b9060065481101561053a575f52600c602052600f60405f2001905f5260205261520760405f2060028101546003820154600483015460ff600585015416916152156151f360016151ec88615cd5565b9701615cd5565b60405197889760c0895260c0890190615685565b908782036020890152615685565b93604086015260608501526080840152151560a08301520390f35b346104b35760203660031901126104b357615249615f4e565b600435600955005b346104b35760203660031901126104b35761526a615640565b5f6080604051615279816156e2565b828152826020820152826040820152826060820152015260018060a01b03165f52600d60205260a060405f206040516152b1816156e2565b81549182825260018101546020830190815260028201549060408401918252608060046003850154946060870195865201549401938452604051948552516020850152516040840152516060830152516080820152f35b346104b3576153163661562a565b905f52600f60205260405f209081548110156104b3576153359161566c565b508054600182015460028301546003840154600485015460058601546006909601546040805196875260208701959095526001600160a01b039384169486019490945291166060840152608083015260a082019290925260c081019190915260e090f35b346104b35760203660031901126104b3576153b2615640565b6153ba615f4e565b6001600160a01b03811690811561045d5760038054600480546001600160a01b031916600883811c6001600160a01b0316918217909255610100600160a81b031990921693901b610100600160a81b03169290921790554260058190556040519081527fa16c473a31f9f07338cd1d3ccebda80cefdc0cb743aec539af892abfbf5a534e90602090a3005b346104b3575f3660031901126104b3576080600b5460018060a01b03600a541660065460075491604051938452602084015260408301526060820152f35b346104b3575f3660031901126104b3576020604051601e8152f35b346104b3575f3660031901126104b3576020600554604051908152f35b346104b3575f3660031901126104b3576020604051600a8152f35b346104b35760403660031901126104b3576154ef615640565b6001600160a01b03165f908152600e602052604090208054602435908110156104b3576153359161566c565b346104b3576155293661562a565b615531615f2e565b60065482101561053a5761554491615962565b60018055005b346104b35760203660031901126104b3576004356016548110156104b3576016548110156155ae5760165f527fd833147d7dc355ba459fc788f669e58cfaf9dc25ddcd0702e87d69c7b512428901546040516001600160a01b039091168152602090f35b634e487b7160e01b5f52603260045260245ffd5b346104b35760203660031901126104b3576004359063ffffffff60e01b82168092036104b357602091637965db0b60e01b8114908115615604575b5015158152f35b6301ffc9a760e01b149050836155fd565b80548210156155ae575f5260205f2001905f90565b60409060031901126104b3576004359060243590565b600435906001600160a01b03821682036104b357565b602435906001600160a01b03821682036104b357565b80548210156155ae575f52600760205f20910201905f90565b805180835260209291819084018484015e5f828201840152601f01601f1916010190565b60206040818301928281528451809452019201905f5b8181106156cc5750505090565b82518452602093840193909201916001016156bf565b60a081019081106001600160401b03821117610a7457604052565b606081019081106001600160401b03821117610a7457604052565b60e081019081106001600160401b03821117610a7457604052565b61010081019081106001600160401b03821117610a7457604052565b90601f801991011681019081106001600160401b03821117610a7457604052565b81601f820112156104b3578035906001600160401b038211610a7457604051926157a4601f8401601f19166020018561574f565b828452602083830101116104b357815f926020809301838601378301015290565b6001600160401b038111610a745760051b60200190565b9080601f830112156104b35781356157f3816157c5565b92615801604051948561574f565b81845260208085019260051b820101918383116104b35760208201905b83821061582d57505050505090565b81356001600160401b0381116104b35760209161584f87848094880101615770565b81520191019061581e565b9060088210156126d45752565b60809060031901126104b35760043590602435906044359060643590565b60609060031901126104b357600435906024359060443590565b80548210156155ae575f52600360205f20910201905f90565b60409060031901126104b35760043560088110156104b3579060243590565b60088110156126d4575f52601160205260405f2090565b60038110156126d4575f52601360205260405f2090565b81810292918115918404141715610f0e57565b8115610c17570490565b91908203918211610f0e57565b5f198114610f0e5760010190565b91908201809211610f0e57565b908160209103126104b3575180151581036104b35790565b9160018060a01b035f541633141580615c78575b610e3357825f52600c60205260405f20600581015460ff811615908115615c6a575b5061348557600f8101936004820190815495865f5280602052600260405f200154968715615c6057926159ed8798946007870154905f5283602052670de0b6b3a7640000613350600460405f20015488615905565b935f945f93875f996016820180549d8e9a8b91601060116014880197019e019c5b8654119081615c56575b5015615c00578f615a299086615615565b905460039190911b1c6001600160a01b03165f81815260208f9052604090205460ff16615bf6576001600160a01b0381165f90815260208e815260408083208d54808552925290912054908115615bea5790615aa7915f528860205261337e8b612ad08c670de0b6b3a7640000613377600460405f20015487615905565b9081615acf575b5050615ab99061592f565b9e8f90615ac59061592f565b9f508f8f90615a0e565b909e9a8f8f615b6b5f9260209260018060a01b0387168552835260408420600160ff19825416179055858452600d835260016040852001615b1182825461593d565b90558584526012835260408420615b2982825461593d565b905560035460405163a9059cbb60e01b81526001600160a01b038881166004830152602482019390935294859360089290921c90921691839182906044820190565b03925af1908115610dd4575f91615bcc575b5015610d96578f615b8f908e9261593d565b9b615b999061592f565b9f60405190815260207f4ec90e965519d92681267467f775ada5bd214aa92c0dc93d90a5e880ce9ed02691a35f80615aae565b615be4915060203d8111610dcd57610dbf818361574f565b5f615b7d565b505050615ab99061592f565b50615ab99061592f565b989b50965098509b5050505050615c1892965061593d565b905581615c2457505050565b7fbe130cb88dff1cf911f2f81b593549c0e6ac4599c3d81aa18b57d0ec97a2ee399160409182519182526020820152a2565b905081108f615a18565b5050505050915050565b60ff915060081c165f615998565b50335f9081525f80516020616347833981519152602052604090205460ff1615615976565b90600182811c92168015615ccb575b6020831014615cb757565b634e487b7160e01b5f52602260045260245ffd5b91607f1691615cac565b9060405191825f825492615ce884615c9d565b8084529360018116908115615d535750600114615d0f575b50615d0d9250038361574f565b565b90505f9291925260205f20905f915b818310615d37575050906020615d0d928201015f615d00565b6020919350806001915483858901015201910190918492615d1e565b905060209250615d0d94915060ff191682840152151560051b8201015f615d00565b90615d7f826157c5565b615d8c604051918261574f565b8281528092615d9d601f19916157c5565b0190602036910137565b80518210156155ae5760209160051b010190565b8054600160401b811015610a7457615dd89160018201815561589f565b919091615df957604081600292518455602081015160018501550151910155565b634e487b7160e01b5f525f60045260245ffd5b8054600160401b811015610a7457615e2991600182018155615615565b819291549060031b91821b915f19901b1916179055565b8054600160401b811015610a7457615e5d9160018201815561566c565b919091615df957805182556020810151600183015560408101516002830180546001600160a01b039283166001600160a01b03199182161790915560608301516003850180549190931691161790556080810151600483015560a0810151600583015560c00151600690910155565b601654600160401b811015610a7457806001615eed92016016556016615615565b81546001600160a01b0393841660039290921b91821b9390911b1916919091179055565b8054600160401b811015610a7457615eed91600182018155615615565b600260015414615f3f576002600155565b633ee5aeb560e01b5f5260045ffd5b5f546001600160a01b03163303615f6157565b63118cdaa760e01b5f523360045260245ffd5b60ff60035416615f8057565b63d93c066560e01b5f5260045ffd5b5f81815260026020908152604080832033845290915290205460ff1615615fb35750565b63e2517d3f60e01b5f523360045260245260445ffd5b6001600160a01b0381165f9081525f80516020616347833981519152602052604090205460ff1661605c576001600160a01b03165f8181525f8051602061634783398151915260205260408120805460ff191660011790553391907fdcee1d35c83a32b436264a5c9afd68685c124f3f9097e87804c55410e67fc59a905f805160206163078339815191529080a4600190565b505f90565b6001600160a01b0381165f9081525f80516020616327833981519152602052604090205460ff1661605c576001600160a01b03165f8181525f8051602061632783398151915260205260408120805460ff191660011790553391907fef485be696bbc0c91ad541bbd553ffb5bd0e18dac30ba76e992dda23cb807a8a905f805160206163078339815191529080a4600190565b6001600160a01b0381165f9081527fd3dccf8d8289b9deee17e361620d7577de7b525dd57f668d5c1bb85ec53112b5602052604090205460ff1661605c576001600160a01b03165f8181527fd3dccf8d8289b9deee17e361620d7577de7b525dd57f668d5c1bb85ec53112b560205260408120805460ff191660011790553391907fd486618b282cb35034d59c30c062b5b3822d6cdf87ec459191ce7f5b7b8a4873905f805160206163078339815191529080a4600190565b5f8181526002602090815260408083206001600160a01b038616845290915290205460ff16616220575f8181526002602090815260408083206001600160a01b0395909516808452949091528120805460ff19166001179055339291905f805160206163078339815191529080a4600190565b50505f90565b5f8181526002602090815260408083206001600160a01b038616845290915290205460ff1615616220575f8181526002602090815260408083206001600160a01b0395909516808452949091528120805460ff19169055339291907ff6391f5c32d9c69d2a47ea670b442974b53935d1edc7fd64eb21e047a839171b9080a4600190565b905f52600c60205260405f20905f906010600a8401549301915b8381106162d45750505050600190565b60018060a01b0382165f528260205260405f20815f5260205260405f20546162fe576001016162c4565b505050505f9056fe2f8788117e7eff1d82e926ec794901d17c78024a50270940304540a733656f0d30d995518b427f5a5863ad73fe356ca50cf70941f42c516830919c845fa5806f8e2c297e756b2a427c5dc4607f639842a8ea6e0f6322302f4ea76306b642cfc274bf668e97161f1fd80fcd26f349d41699f70913de17765803d0880629da0de3a26469706673582212202c5b092afd2cad3b2ff65884351abd26a78e14da9da272cf42ced654912e261a64736f6c634300081a0033ac33ff75c19e70fe83507db0d683fd3465c996598dc972688b7ace676c89077b",
			"opcodes": "PUSH1 0x80 CALLVALUE PUSH2 0x112 JUMPI PUSH1 0x1F PUSH2 0x6590 CODESIZE DUP2 SWAP1 SUB SWAP2 DUP3 ADD PUSH1 0x1F NOT AND DUP4 ADD SWAP2 PUSH1 0x1 PUSH1 0x1 PUSH1 0x40 SHL SUB DUP4 GT DUP5 DUP5 LT OR PUSH2 0x116 JUMPI DUP1 DUP5 SWAP3 PUSH1 0x20 SWAP5 PUSH1 0x40 MSTORE DUP4 CODECOPY DUP2 ADD SUB SLT PUSH2 0x112 JUMPI MLOAD PUSH1 0x1 PUSH1 0x1 PUSH1 0xA0 SHL SUB DUP2 AND DUP2 SUB PUSH2 0x112 JUMPI CALLER ISZERO PUSH2 0xFF JUMPI PUSH0 DUP1 SLOAD CALLER PUSH1 0x1 PUSH1 0x1 PUSH1 0xA0 SHL SUB NOT DUP3 AND DUP2 OR DUP4 SSTORE SWAP2 PUSH1 0x1 PUSH1 0x1 PUSH1 0xA0 SHL SUB SWAP1 SWAP2 AND SWAP1 PUSH32 0x8BE0079C531659141344CD1FD0A4F28419497F9722A3DAAFE3B4186F6B6457E0 SWAP1 DUP1 LOG3 PUSH1 0x1 DUP1 SSTORE PUSH1 0xC8 PUSH1 0x8 SWAP1 DUP2 SSTORE PUSH2 0x3E8 PUSH1 0x9 SSTORE PUSH1 0x3 DUP1 SLOAD PUSH2 0x100 PUSH1 0x1 PUSH1 0xA8 SHL SUB NOT AND SWAP3 SWAP1 SWAP2 SHL PUSH2 0x100 PUSH1 0x1 PUSH1 0xA8 SHL SUB AND SWAP2 SWAP1 SWAP2 OR SWAP1 SSTORE TIMESTAMP PUSH1 0x5 SSTORE PUSH1 0xA DUP1 SLOAD PUSH1 0x1 PUSH1 0x1 PUSH1 0xA0 SHL SUB NOT AND CALLER SWAP1 DUP2 OR SWAP1 SWAP2 SSTORE PUSH2 0xEF SWAP1 PUSH2 0x12A JUMP JUMPDEST POP PUSH1 0x40 MLOAD PUSH2 0x63BC SWAP1 DUP2 PUSH2 0x1B4 DUP3 CODECOPY RETURN JUMPDEST PUSH4 0x1E4FBDF7 PUSH1 0xE0 SHL PUSH0 MSTORE PUSH0 PUSH1 0x4 MSTORE PUSH1 0x24 PUSH0 REVERT JUMPDEST PUSH0 DUP1 REVERT JUMPDEST PUSH4 0x4E487B71 PUSH1 0xE0 SHL PUSH0 MSTORE PUSH1 0x41 PUSH1 0x4 MSTORE PUSH1 0x24 PUSH0 REVERT JUMPDEST PUSH1 0x1 PUSH1 0x1 PUSH1 0xA0 SHL SUB DUP2 AND PUSH0 SWAP1 DUP2 MSTORE PUSH0 DUP1 MLOAD PUSH1 0x20 PUSH2 0x6570 DUP4 CODECOPY DUP2 MLOAD SWAP2 MSTORE PUSH1 0x20 MSTORE PUSH1 0x40 SWAP1 KECCAK256 SLOAD PUSH1 0xFF AND PUSH2 0x1AE JUMPI PUSH1 0x1 PUSH1 0x1 PUSH1 0xA0 SHL SUB AND PUSH0 DUP2 DUP2 MSTORE PUSH0 DUP1 MLOAD PUSH1 0x20 PUSH2 0x6570 DUP4 CODECOPY DUP2 MLOAD SWAP2 MSTORE PUSH1 0x20 MSTORE PUSH1 0x40 DUP2 KECCAK256 DUP1 SLOAD PUSH1 0xFF NOT AND PUSH1 0x1 OR SWAP1 SSTORE CALLER SWAP2 SWAP1 PUSH32 0x2F8788117E7EFF1D82E926EC794901D17C78024A50270940304540A733656F0D DUP2 DUP1 LOG4 PUSH1 0x1 SWAP1 JUMP JUMPDEST POP PUSH0 SWAP1 JUMP INVALID PUSH1 0x80 DUP1 PUSH1 0x40 MSTORE PUSH1 0x4 CALLDATASIZE LT ISZERO PUSH2 0x12 JUMPI PUSH0 DUP1 REVERT JUMPDEST PUSH0 CALLDATALOAD PUSH1 0xE0 SHR SWAP1 DUP2 PUSH4 0x1FFC9A7 EQ PUSH2 0x55C2 JUMPI POP DUP1 PUSH4 0x5E33DD0 EQ PUSH2 0x554A JUMPI DUP1 PUSH4 0x67B3FE1 EQ PUSH2 0x551B JUMPI DUP1 PUSH4 0x8693F3C EQ PUSH2 0x54D6 JUMPI DUP1 PUSH4 0xDA183D6 EQ PUSH2 0x54BB JUMPI DUP1 PUSH4 0x1029191A EQ PUSH2 0x549E JUMPI DUP1 PUSH4 0x12C413AF EQ PUSH2 0x5483 JUMPI DUP1 PUSH4 0x136D8883 EQ PUSH2 0x5445 JUMPI DUP1 PUSH4 0x15571981 EQ PUSH2 0x5399 JUMPI DUP1 PUSH4 0x1CB1DE2F EQ PUSH2 0x5308 JUMPI DUP1 PUSH4 0x1EDB27E9 EQ PUSH2 0x5251 JUMPI DUP1 PUSH4 0x21B86DC2 EQ PUSH2 0x5230 JUMPI DUP1 PUSH4 0x222FA267 EQ PUSH2 0x518F JUMPI DUP1 PUSH4 0x248A9CA3 EQ PUSH2 0x5164 JUMPI DUP1 PUSH4 0x26E12752 EQ PUSH2 0x5093 JUMPI DUP1 PUSH4 0x29CF655B EQ PUSH2 0x3B3E JUMPI DUP1 PUSH4 0x2A49B428 EQ PUSH2 0x484B JUMPI DUP1 PUSH4 0x2F2FF15D EQ PUSH2 0x480D JUMPI DUP1 PUSH4 0x2F4C007F EQ PUSH2 0x46D9 JUMPI DUP1 PUSH4 0x32617B70 EQ PUSH2 0x469F JUMPI DUP1 PUSH4 0x33031B06 EQ PUSH2 0x3EA1 JUMPI DUP1 PUSH4 0x35037E0B EQ PUSH2 0x3E25 JUMPI DUP1 PUSH4 0x36568ABE EQ PUSH2 0x3DE1 JUMPI DUP1 PUSH4 0x3937336E EQ PUSH2 0x3D79 JUMPI DUP1 PUSH4 0x3D9704FF EQ PUSH2 0x3CC0 JUMPI DUP1 PUSH4 0x3EC79193 EQ PUSH2 0x3BED JUMPI DUP1 PUSH4 0x3F4BA83A EQ PUSH2 0x3B87 JUMPI DUP1 PUSH4 0x417257F9 EQ PUSH2 0x3B6A JUMPI DUP1 PUSH4 0x43425E88 EQ PUSH2 0x3B3E JUMPI DUP1 PUSH4 0x4A2021EF EQ PUSH2 0x3A23 JUMPI DUP1 PUSH4 0x4BDD45FB EQ PUSH2 0x39FB JUMPI DUP1 PUSH4 0x5A2DB6FB EQ PUSH2 0x35AC JUMPI DUP1 PUSH4 0x5C975ABB EQ PUSH2 0x358A JUMPI DUP1 PUSH4 0x60557333 EQ PUSH2 0x34A2 JUMPI DUP1 PUSH4 0x677BD9FF EQ PUSH2 0x3277 JUMPI DUP1 PUSH4 0x6DB3B4DC EQ PUSH2 0x31FB JUMPI DUP1 PUSH4 0x6EAE4297 EQ PUSH2 0x3064 JUMPI DUP1 PUSH4 0x715018A6 EQ PUSH2 0x300D JUMPI DUP1 PUSH4 0x755F0629 EQ PUSH2 0x2FD3 JUMPI DUP1 PUSH4 0x77B4A3E7 EQ PUSH2 0x2F99 JUMPI DUP1 PUSH4 0x7C946454 EQ PUSH2 0x2E31 JUMPI DUP1 PUSH4 0x7E50898E EQ PUSH2 0x2E13 JUMPI DUP1 PUSH4 0x82C3188C EQ PUSH2 0x2DF6 JUMPI DUP1 PUSH4 0x835DC40B EQ PUSH2 0x2D65 JUMPI DUP1 PUSH4 0x8456CB59 EQ PUSH2 0x2D0C JUMPI DUP1 PUSH4 0x8B8840E0 EQ PUSH2 0x2CD4 JUMPI DUP1 PUSH4 0x8DA5CB5B EQ PUSH2 0x2CAD JUMPI DUP1 PUSH4 0x91D14854 EQ PUSH2 0x2C64 JUMPI DUP1 PUSH4 0x927FEF2E EQ PUSH2 0x2C2B JUMPI DUP1 PUSH4 0x92F012B2 EQ PUSH2 0x2C0F JUMPI DUP1 PUSH4 0x950F4797 EQ PUSH2 0x2BD7 JUMPI DUP1 PUSH4 0x9E0FFC09 EQ PUSH2 0x2A31 JUMPI DUP1 PUSH4 0xA217FDDF EQ PUSH2 0x2A17 JUMPI DUP1 PUSH4 0xA42DCE80 EQ PUSH2 0x29A4 JUMPI DUP1 PUSH4 0xA75DD115 EQ PUSH2 0x294A JUMPI DUP1 PUSH4 0xA8CC7F19 EQ PUSH2 0x2939 JUMPI DUP1 PUSH4 0xAB44E635 EQ PUSH2 0x2858 JUMPI DUP1 PUSH4 0xABDCE1A4 EQ PUSH2 0x27DC JUMPI DUP1 PUSH4 0xB1AB13FF EQ PUSH2 0x27A1 JUMPI DUP1 PUSH4 0xB41ACDBE EQ PUSH2 0x2769 JUMPI DUP1 PUSH4 0xB61920C1 EQ PUSH2 0x2705 JUMPI DUP1 PUSH4 0xBD55022A EQ PUSH2 0x26E8 JUMPI DUP1 PUSH4 0xC07D1449 EQ PUSH2 0x2449 JUMPI DUP1 PUSH4 0xC2454AF7 EQ PUSH2 0x23B1 JUMPI DUP1 PUSH4 0xC415B95C EQ PUSH2 0x2389 JUMPI DUP1 PUSH4 0xD0B7830B EQ PUSH2 0x2279 JUMPI DUP1 PUSH4 0xD547741F EQ PUSH2 0x2234 JUMPI DUP1 PUSH4 0xD8C39BD7 EQ PUSH2 0x21E7 JUMPI DUP1 PUSH4 0xD911F198 EQ PUSH2 0x1801 JUMPI DUP1 PUSH4 0xDA7295D9 EQ PUSH2 0x1794 JUMPI DUP1 PUSH4 0xE9CA2026 EQ PUSH2 0x1459 JUMPI DUP1 PUSH4 0xEC979082 EQ PUSH2 0x4B7 JUMPI DUP1 PUSH4 0xED881230 EQ PUSH2 0xFCE JUMPI DUP1 PUSH4 0xEECA08F0 EQ PUSH2 0xFB1 JUMPI DUP1 PUSH4 0xF2FDE38B EQ PUSH2 0xF2C JUMPI DUP1 PUSH4 0xF355F2E7 EQ PUSH2 0xE67 JUMPI DUP1 PUSH4 0xF98CE1BA EQ PUSH2 0x549 JUMPI DUP1 PUSH4 0xFC12524C EQ PUSH2 0x4D4 JUMPI DUP1 PUSH4 0xFD69F3C2 EQ PUSH2 0x4B7 JUMPI PUSH4 0xFDD3CDF6 EQ PUSH2 0x38C JUMPI PUSH0 DUP1 REVERT JUMPDEST CALLVALUE PUSH2 0x4B3 JUMPI PUSH1 0x20 CALLDATASIZE PUSH1 0x3 NOT ADD SLT PUSH2 0x4B3 JUMPI PUSH2 0x3A5 PUSH2 0x5640 JUMP JUMPDEST PUSH0 SLOAD PUSH1 0x1 PUSH1 0x1 PUSH1 0xA0 SHL SUB AND CALLER EQ ISZERO DUP1 PUSH2 0x47B JUMPI JUMPDEST PUSH2 0x46C JUMPI PUSH1 0x1 PUSH1 0x1 PUSH1 0xA0 SHL SUB DUP2 AND SWAP1 DUP2 ISZERO PUSH2 0x45D JUMPI PUSH1 0x3 SLOAD PUSH1 0x8 DUP2 SWAP1 SHR PUSH1 0x1 PUSH1 0x1 PUSH1 0xA0 SHL SUB AND SWAP2 DUP4 DUP4 EQ PUSH2 0x44E JUMPI PUSH1 0x4 DUP1 SLOAD PUSH1 0x1 PUSH1 0x1 PUSH1 0xA0 SHL SUB NOT AND DUP5 OR SWAP1 SSTORE PUSH2 0x100 PUSH1 0x1 PUSH1 0xA8 SHL SUB NOT SWAP1 SWAP2 AND PUSH1 0x8 SWAP2 SWAP1 SWAP2 SHL PUSH2 0x100 PUSH1 0x1 PUSH1 0xA8 SHL SUB AND OR PUSH1 0x3 SSTORE TIMESTAMP PUSH1 0x5 DUP2 SWAP1 SSTORE PUSH1 0x40 MLOAD SWAP1 DUP2 MSTORE PUSH32 0xA16C473A31F9F07338CD1D3CCEBDA80CEFDC0CB743AEC539AF892ABFBF5A534E SWAP1 PUSH1 0x20 SWAP1 LOG3 STOP JUMPDEST PUSH4 0x100DAC05 PUSH1 0xE1 SHL PUSH0 MSTORE PUSH1 0x4 PUSH0 REVERT JUMPDEST PUSH4 0xC1AB6DC1 PUSH1 0xE0 SHL PUSH0 MSTORE PUSH1 0x4 PUSH0 REVERT JUMPDEST PUSH4 0x61685C2B PUSH1 0xE0 SHL PUSH0 MSTORE PUSH1 0x4 PUSH0 REVERT JUMPDEST POP CALLER PUSH0 SWAP1 DUP2 MSTORE PUSH32 0xAC33FF75C19E70FE83507DB0D683FD3465C996598DC972688B7ACE676C89077B PUSH1 0x20 MSTORE PUSH1 0x40 SWAP1 KECCAK256 SLOAD PUSH1 0xFF AND ISZERO PUSH2 0x3B9 JUMP JUMPDEST PUSH0 DUP1 REVERT JUMPDEST CALLVALUE PUSH2 0x4B3 JUMPI PUSH0 CALLDATASIZE PUSH1 0x3 NOT ADD SLT PUSH2 0x4B3 JUMPI PUSH1 0x20 PUSH1 0x6 SLOAD PUSH1 0x40 MLOAD SWAP1 DUP2 MSTORE RETURN JUMPDEST CALLVALUE PUSH2 0x4B3 JUMPI PUSH1 0x20 CALLDATASIZE PUSH1 0x3 NOT ADD SLT PUSH2 0x4B3 JUMPI PUSH1 0x4 CALLDATALOAD PUSH2 0x4F0 PUSH2 0x5F4E JUMP JUMPDEST PUSH1 0x6 SLOAD DUP2 LT ISZERO PUSH2 0x53A JUMPI DUP1 PUSH0 MSTORE PUSH1 0xC PUSH1 0x20 MSTORE PUSH1 0x5 PUSH1 0x40 PUSH0 KECCAK256 ADD PUSH1 0x1 PUSH1 0xFF NOT DUP3 SLOAD AND OR SWAP1 SSTORE PUSH32 0xB939016779C3297135B58AED6D343CF103FAF818EA07A7C5F87B03A9BD87297 PUSH0 DUP1 LOG2 STOP JUMPDEST PUSH4 0x9DB8D5B1 PUSH1 0xE0 SHL PUSH0 MSTORE PUSH1 0x4 PUSH0 REVERT JUMPDEST CALLVALUE PUSH2 0x4B3 JUMPI PUSH1 0xE0 CALLDATASIZE PUSH1 0x3 NOT ADD SLT PUSH2 0x4B3 JUMPI PUSH1 0x4 CALLDATALOAD PUSH1 0x1 PUSH1 0x1 PUSH1 0x40 SHL SUB DUP2 GT PUSH2 0x4B3 JUMPI PUSH2 0x579 SWAP1 CALLDATASIZE SWAP1 PUSH1 0x4 ADD PUSH2 0x5770 JUMP JUMPDEST PUSH1 0x24 CALLDATALOAD PUSH1 0x1 PUSH1 0x1 PUSH1 0x40 SHL SUB DUP2 GT PUSH2 0x4B3 JUMPI PUSH2 0x598 SWAP1 CALLDATASIZE SWAP1 PUSH1 0x4 ADD PUSH2 0x5770 JUMP JUMPDEST PUSH1 0x44 CALLDATALOAD PUSH1 0x1 PUSH1 0x1 PUSH1 0x40 SHL SUB DUP2 GT PUSH2 0x4B3 JUMPI PUSH2 0x5B7 SWAP1 CALLDATASIZE SWAP1 PUSH1 0x4 ADD PUSH2 0x57DC JUMP JUMPDEST PUSH1 0x64 CALLDATALOAD PUSH1 0x1 PUSH1 0x1 PUSH1 0x40 SHL SUB DUP2 GT PUSH2 0x4B3 JUMPI PUSH2 0x5D6 SWAP1 CALLDATASIZE SWAP1 PUSH1 0x4 ADD PUSH2 0x57DC JUMP JUMPDEST PUSH1 0x84 CALLDATALOAD SWAP1 PUSH1 0xA4 CALLDATALOAD PUSH1 0x8 DUP2 LT ISZERO PUSH2 0x4B3 JUMPI PUSH1 0xC4 CALLDATALOAD SWAP4 PUSH1 0x3 DUP6 LT ISZERO PUSH2 0x4B3 JUMPI PUSH2 0x5FB PUSH2 0x5F74 JUMP JUMPDEST PUSH2 0x603 PUSH2 0x5F74 JUMP JUMPDEST PUSH0 SLOAD PUSH1 0x1 PUSH1 0x1 PUSH1 0xA0 SHL SUB AND CALLER EQ ISZERO DUP1 PUSH2 0xE42 JUMPI JUMPDEST PUSH2 0xE33 JUMPI PUSH2 0xE10 DUP5 LT DUP1 ISZERO PUSH2 0xE26 JUMPI JUMPDEST PUSH2 0xE17 JUMPI DUP7 MLOAD ISZERO PUSH2 0xE08 JUMPI DUP1 MLOAD PUSH1 0x2 DUP2 LT SWAP1 DUP2 ISZERO PUSH2 0xDFD JUMPI JUMPDEST POP PUSH2 0xDEE JUMPI DUP1 MLOAD DUP4 MLOAD SUB PUSH2 0xDDF JUMPI PUSH1 0x3 SLOAD PUSH1 0x40 MLOAD PUSH4 0x23B872DD PUSH1 0xE0 SHL DUP2 MSTORE CALLER PUSH1 0x4 DUP3 ADD MSTORE ADDRESS PUSH1 0x24 DUP3 ADD MSTORE PUSH9 0x3635C9ADC5DEA00000 PUSH1 0x44 DUP3 ADD MSTORE SWAP1 PUSH1 0x20 SWAP1 DUP3 SWAP1 PUSH1 0x64 SWAP1 DUP3 SWAP1 PUSH0 SWAP1 PUSH1 0x8 SHR PUSH1 0x1 PUSH1 0x1 PUSH1 0xA0 SHL SUB AND GAS CALL SWAP1 DUP2 ISZERO PUSH2 0xDD4 JUMPI PUSH0 SWAP2 PUSH2 0xDA5 JUMPI JUMPDEST POP ISZERO PUSH2 0xD96 JUMPI PUSH1 0x6 SLOAD SWAP4 PUSH2 0x6B5 DUP6 PUSH2 0x592F JUMP JUMPDEST PUSH1 0x6 SSTORE DUP5 PUSH0 MSTORE PUSH1 0xC PUSH1 0x20 MSTORE PUSH1 0x40 PUSH0 KECCAK256 SWAP7 DUP9 MLOAD PUSH1 0x1 PUSH1 0x1 PUSH1 0x40 SHL SUB DUP2 GT PUSH2 0xA74 JUMPI PUSH2 0x6DF DUP10 SLOAD PUSH2 0x5C9D JUMP JUMPDEST PUSH1 0x1F DUP2 GT PUSH2 0xD51 JUMPI JUMPDEST POP DUP1 PUSH1 0x20 PUSH1 0x1F DUP3 GT PUSH1 0x1 EQ PUSH2 0xCEE JUMPI PUSH0 SWAP2 PUSH2 0xCE3 JUMPI JUMPDEST POP DUP2 PUSH1 0x1 SHL SWAP2 PUSH0 NOT SWAP1 PUSH1 0x3 SHL SHR NOT AND OR DUP9 SSTORE JUMPDEST DUP1 MLOAD PUSH1 0x1 DUP10 ADD SWAP2 PUSH1 0x1 PUSH1 0x1 PUSH1 0x40 SHL SUB DUP3 GT PUSH2 0xA74 JUMPI PUSH2 0x730 DUP4 SLOAD PUSH2 0x5C9D JUMP JUMPDEST PUSH1 0x1F DUP2 GT PUSH2 0xC9E JUMPI JUMPDEST POP PUSH1 0x20 SWAP1 PUSH1 0x1F DUP4 GT PUSH1 0x1 EQ PUSH2 0xC36 JUMPI PUSH2 0x771 SWAP5 SWAP4 SWAP3 SWAP2 PUSH0 SWAP2 DUP4 PUSH2 0xC2B JUMPI JUMPDEST POP POP DUP2 PUSH1 0x1 SHL SWAP2 PUSH0 NOT SWAP1 PUSH1 0x3 SHL SHR NOT AND OR SWAP1 SSTORE JUMPDEST TIMESTAMP PUSH2 0x593D JUMP JUMPDEST PUSH1 0x2 DUP8 ADD SWAP1 DUP2 SSTORE PUSH1 0x3 DUP8 ADD DUP1 SLOAD PUSH2 0xFFFF NOT AND PUSH1 0xFF DUP6 AND OR PUSH1 0x8 DUP9 SWAP1 SHL PUSH2 0xFF00 AND OR SWAP1 SSTORE PUSH1 0x5 DUP8 ADD DUP1 SLOAD PUSH4 0x1000000 PUSH1 0x1 PUSH1 0xB8 SHL SUB NOT AND CALLER PUSH1 0x18 SHL PUSH4 0x1000000 PUSH1 0x1 PUSH1 0xB8 SHL SUB AND OR SWAP1 SSTORE TIMESTAMP PUSH1 0x9 DUP9 ADD SSTORE DUP2 MLOAD PUSH1 0xA DUP9 ADD DUP2 SWAP1 SSTORE PUSH9 0x3635C9ADC5DEA00000 PUSH1 0x6 DUP10 ADD DUP2 SWAP1 SSTORE PUSH0 PUSH1 0x7 DUP11 ADD SSTORE PUSH1 0xB DUP10 ADD SSTORE SWAP1 SWAP8 SWAP1 DUP1 ISZERO PUSH2 0xC17 JUMPI PUSH8 0xDE0B6B3A7640000 DIV SWAP6 DUP3 MLOAD DUP1 ISZERO PUSH2 0xC17 JUMPI PUSH1 0xF SWAP1 SWAP9 ADD SWAP9 SWAP8 PUSH9 0x3635C9ADC5DEA00000 DIV SWAP4 PUSH0 JUMPDEST DUP5 MLOAD DUP2 LT ISZERO PUSH2 0xB46 JUMPI PUSH2 0x829 DUP2 DUP7 PUSH2 0x5DA7 JUMP JUMPDEST MLOAD DUP7 DUP13 PUSH2 0x836 DUP5 DUP12 PUSH2 0x5DA7 JUMP JUMPDEST MLOAD PUSH1 0x40 MLOAD SWAP4 PUSH2 0x844 DUP6 PUSH2 0x5733 JUMP JUMPDEST DUP5 MSTORE PUSH1 0x20 DUP5 ADD SWAP1 DUP2 MSTORE DUP13 PUSH1 0x40 DUP6 ADD PUSH0 DUP2 MSTORE PUSH1 0x60 DUP7 ADD SWAP1 PUSH0 DUP3 MSTORE PUSH1 0x80 DUP8 ADD SWAP3 DUP4 MSTORE PUSH1 0xA0 DUP8 ADD SWAP4 PUSH1 0x1 DUP6 MSTORE PUSH1 0xC0 DUP9 ADD SWAP6 DUP8 DUP8 MSTORE PUSH1 0xE0 DUP10 ADD SWAP8 DUP9 MSTORE DUP10 PUSH0 MSTORE PUSH1 0x20 MSTORE PUSH1 0x40 PUSH0 KECCAK256 SWAP8 MLOAD DUP1 MLOAD SWAP1 PUSH1 0x1 PUSH1 0x1 PUSH1 0x40 SHL SUB DUP3 GT PUSH2 0xA74 JUMPI DUP2 SWAP1 PUSH2 0x8A5 DUP12 SLOAD PUSH2 0x5C9D JUMP JUMPDEST PUSH1 0x1F DUP2 GT PUSH2 0xAF6 JUMPI JUMPDEST POP PUSH1 0x20 SWAP1 PUSH1 0x1F DUP4 GT PUSH1 0x1 EQ PUSH2 0xA93 JUMPI PUSH0 SWAP3 PUSH2 0xA88 JUMPI JUMPDEST POP POP DUP2 PUSH1 0x1 SHL SWAP2 PUSH0 NOT SWAP1 PUSH1 0x3 SHL SHR NOT AND OR DUP9 SSTORE JUMPDEST MLOAD DUP1 MLOAD PUSH1 0x1 DUP10 ADD SWAP2 PUSH1 0x1 PUSH1 0x1 PUSH1 0x40 SHL SUB DUP3 GT PUSH2 0xA74 JUMPI PUSH2 0x8F8 DUP4 SLOAD PUSH2 0x5C9D JUMP JUMPDEST PUSH1 0x1F DUP2 GT PUSH2 0xA2F JUMPI JUMPDEST POP PUSH1 0x20 SWAP1 PUSH1 0x1F DUP4 GT PUSH1 0x1 EQ PUSH2 0x9BD JUMPI SWAP3 DUP3 PUSH2 0x968 SWAP7 SWAP4 PUSH1 0x1 SWAP14 SWAP13 SWAP12 SWAP10 SWAP7 SWAP4 PUSH1 0x7 SWAP12 SWAP10 SWAP7 PUSH0 SWAP3 PUSH2 0x9B2 JUMPI JUMPDEST POP POP PUSH0 NOT PUSH1 0x3 DUP4 SWAP1 SHL SHR NOT AND SWAP1 DUP14 SHL OR SWAP1 SSTORE JUMPDEST MLOAD PUSH1 0x2 DUP10 ADD SSTORE MLOAD PUSH1 0x3 DUP9 ADD SSTORE MLOAD PUSH1 0x4 DUP8 ADD SSTORE MLOAD ISZERO ISZERO PUSH1 0x5 DUP7 ADD SWAP1 PUSH1 0xFF DUP1 NOT DUP4 SLOAD AND SWAP2 ISZERO ISZERO AND OR SWAP1 SSTORE JUMP JUMPDEST MLOAD PUSH1 0x6 DUP5 ADD SSTORE MLOAD SWAP2 ADD SSTORE DUP9 PUSH0 MSTORE PUSH1 0x10 PUSH1 0x20 MSTORE PUSH1 0x40 PUSH0 KECCAK256 DUP2 PUSH0 MSTORE PUSH1 0x20 MSTORE PUSH2 0x9AC PUSH1 0x40 PUSH0 KECCAK256 PUSH1 0x40 MLOAD SWAP1 PUSH2 0x998 DUP3 PUSH2 0x56FD JUMP JUMPDEST DUP13 DUP3 MSTORE TIMESTAMP PUSH1 0x20 DUP4 ADD MSTORE PUSH0 PUSH1 0x40 DUP4 ADD MSTORE PUSH2 0x5DBB JUMP JUMPDEST ADD PUSH2 0x816 JUMP JUMPDEST ADD MLOAD SWAP1 POP PUSH0 DUP1 PUSH2 0x92B JUMP JUMPDEST SWAP1 PUSH1 0x1F NOT DUP4 AND SWAP2 DUP5 PUSH0 MSTORE DUP2 PUSH0 KECCAK256 SWAP3 PUSH0 JUMPDEST DUP2 DUP2 LT PUSH2 0xA17 JUMPI POP SWAP4 PUSH1 0x1 SWAP14 SWAP13 SWAP12 SWAP10 SWAP7 SWAP4 PUSH1 0x7 SWAP12 SWAP10 SWAP7 SWAP4 DUP16 SWAP4 DUP4 PUSH2 0x968 SWAP12 SWAP9 LT PUSH2 0x9FF JUMPI JUMPDEST POP POP POP DUP2 SHL ADD SWAP1 SSTORE PUSH2 0x93E JUMP JUMPDEST ADD MLOAD PUSH0 NOT PUSH1 0xF8 DUP5 PUSH1 0x3 SHL AND SHR NOT AND SWAP1 SSTORE PUSH0 DUP1 DUP1 PUSH2 0x9F2 JUMP JUMPDEST SWAP3 SWAP4 PUSH1 0x20 PUSH1 0x1 DUP2 SWAP3 DUP8 DUP7 ADD MLOAD DUP2 SSTORE ADD SWAP6 ADD SWAP4 ADD PUSH2 0x9CD JUMP JUMPDEST DUP4 PUSH0 MSTORE PUSH1 0x20 PUSH0 KECCAK256 PUSH1 0x1F DUP5 ADD PUSH1 0x5 SHR DUP2 ADD SWAP2 PUSH1 0x20 DUP6 LT PUSH2 0xA6A JUMPI JUMPDEST PUSH1 0x1F ADD PUSH1 0x5 SHR ADD SWAP1 JUMPDEST DUP2 DUP2 LT PUSH2 0xA5F JUMPI POP PUSH2 0x901 JUMP JUMPDEST PUSH0 DUP2 SSTORE PUSH1 0x1 ADD PUSH2 0xA52 JUMP JUMPDEST SWAP1 SWAP2 POP DUP2 SWAP1 PUSH2 0xA49 JUMP JUMPDEST PUSH4 0x4E487B71 PUSH1 0xE0 SHL PUSH0 MSTORE PUSH1 0x41 PUSH1 0x4 MSTORE PUSH1 0x24 PUSH0 REVERT JUMPDEST ADD MLOAD SWAP1 POP PUSH0 DUP1 PUSH2 0x8C4 JUMP JUMPDEST PUSH0 DUP13 DUP2 MSTORE DUP3 DUP2 KECCAK256 SWAP4 POP PUSH1 0x1F NOT DUP6 AND SWAP1 JUMPDEST DUP2 DUP2 LT PUSH2 0xADE JUMPI POP SWAP1 DUP5 PUSH1 0x1 SWAP6 SWAP5 SWAP4 SWAP3 LT PUSH2 0xAC6 JUMPI JUMPDEST POP POP POP DUP2 SHL ADD DUP9 SSTORE PUSH2 0x8D8 JUMP JUMPDEST ADD MLOAD PUSH0 NOT PUSH1 0xF8 DUP5 PUSH1 0x3 SHL AND SHR NOT AND SWAP1 SSTORE PUSH0 DUP1 DUP1 PUSH2 0xAB9 JUMP JUMPDEST SWAP3 SWAP4 PUSH1 0x20 PUSH1 0x1 DUP2 SWAP3 DUP8 DUP7 ADD MLOAD DUP2 SSTORE ADD SWAP6 ADD SWAP4 ADD PUSH2 0xAA3 JUMP JUMPDEST SWAP1 SWAP2 POP DUP11 PUSH0 MSTORE PUSH1 0x20 PUSH0 KECCAK256 PUSH1 0x1F DUP5 ADD PUSH1 0x5 SHR DUP2 ADD SWAP2 PUSH1 0x20 DUP6 LT PUSH2 0xB3C JUMPI JUMPDEST SWAP1 PUSH1 0x1F DUP6 SWAP5 SWAP4 SWAP3 ADD PUSH1 0x5 SHR ADD SWAP1 JUMPDEST DUP2 DUP2 LT PUSH2 0xB2E JUMPI POP PUSH2 0x8AE JUMP JUMPDEST PUSH0 DUP2 SSTORE DUP5 SWAP4 POP PUSH1 0x1 ADD PUSH2 0xB21 JUMP JUMPDEST SWAP1 SWAP2 POP DUP2 SWAP1 PUSH2 0xB13 JUMP JUMPDEST POP DUP7 SWAP2 DUP5 SWAP2 DUP11 PUSH2 0xB5E DUP6 PUSH2 0xB59 DUP5 PUSH2 0x58D7 JUMP JUMPDEST PUSH2 0x5E0C JUMP JUMPDEST PUSH2 0xB6B DUP6 PUSH2 0xB59 DUP6 PUSH2 0x58EE JUMP JUMPDEST SLOAD PUSH2 0xB81 PUSH1 0x40 MLOAD SWAP7 PUSH1 0xC0 DUP9 MSTORE PUSH1 0xC0 DUP9 ADD SWAP1 PUSH2 0x5685 JUMP JUMPDEST DUP7 DUP2 SUB PUSH1 0x20 DUP9 ADD MSTORE DUP5 MLOAD DUP1 DUP3 MSTORE PUSH1 0x20 DUP3 ADD SWAP2 PUSH1 0x20 DUP1 DUP4 PUSH1 0x5 SHL DUP4 ADD ADD SWAP8 ADD SWAP3 PUSH0 SWAP2 JUMPDEST DUP4 DUP4 LT PUSH2 0xBEA JUMPI PUSH1 0x20 DUP11 DUP1 PUSH0 DUP1 MLOAD PUSH1 0x20 PUSH2 0x6367 DUP4 CODECOPY DUP2 MLOAD SWAP2 MSTORE DUP15 DUP1 DUP15 DUP15 PUSH2 0xBD4 DUP16 DUP16 PUSH1 0x40 DUP7 ADD MSTORE PUSH1 0x60 DUP6 ADD SWAP1 PUSH2 0x585A JUMP JUMPDEST PUSH1 0x80 DUP4 ADD MSTORE CALLER PUSH1 0xA0 DUP4 ADD MSTORE SUB SWAP1 LOG2 PUSH1 0x40 MLOAD SWAP1 DUP2 MSTORE RETURN JUMPDEST SWAP1 SWAP2 SWAP3 SWAP4 SWAP8 PUSH1 0x20 DUP1 PUSH2 0xC08 PUSH1 0x1 SWAP4 PUSH1 0x1F NOT DUP7 DUP3 SUB ADD DUP8 MSTORE DUP13 MLOAD PUSH2 0x5685 JUMP JUMPDEST SWAP11 ADD SWAP4 ADD SWAP4 ADD SWAP2 SWAP4 SWAP3 SWAP1 PUSH2 0xBA3 JUMP JUMPDEST PUSH4 0x4E487B71 PUSH1 0xE0 SHL PUSH0 MSTORE PUSH1 0x12 PUSH1 0x4 MSTORE PUSH1 0x24 PUSH0 REVERT JUMPDEST ADD MLOAD SWAP1 POP DUP13 DUP1 PUSH2 0x757 JUMP JUMPDEST SWAP1 PUSH1 0x1F NOT DUP4 AND SWAP2 DUP5 PUSH0 MSTORE DUP2 PUSH0 KECCAK256 SWAP3 PUSH0 JUMPDEST DUP2 DUP2 LT PUSH2 0xC86 JUMPI POP SWAP2 PUSH1 0x1 SWAP4 SWAP2 DUP6 PUSH2 0x771 SWAP9 SWAP8 SWAP7 SWAP5 LT PUSH2 0xC6E JUMPI JUMPDEST POP POP POP DUP2 SHL ADD SWAP1 SSTORE PUSH2 0x76B JUMP JUMPDEST ADD MLOAD PUSH0 NOT PUSH1 0xF8 DUP5 PUSH1 0x3 SHL AND SHR NOT AND SWAP1 SSTORE DUP13 DUP1 DUP1 PUSH2 0xC61 JUMP JUMPDEST SWAP3 SWAP4 PUSH1 0x20 PUSH1 0x1 DUP2 SWAP3 DUP8 DUP7 ADD MLOAD DUP2 SSTORE ADD SWAP6 ADD SWAP4 ADD PUSH2 0xC46 JUMP JUMPDEST DUP4 PUSH0 MSTORE PUSH1 0x20 PUSH0 KECCAK256 PUSH1 0x1F DUP5 ADD PUSH1 0x5 SHR DUP2 ADD SWAP2 PUSH1 0x20 DUP6 LT PUSH2 0xCD9 JUMPI JUMPDEST PUSH1 0x1F ADD PUSH1 0x5 SHR ADD SWAP1 JUMPDEST DUP2 DUP2 LT PUSH2 0xCCE JUMPI POP PUSH2 0x739 JUMP JUMPDEST PUSH0 DUP2 SSTORE PUSH1 0x1 ADD PUSH2 0xCC1 JUMP JUMPDEST SWAP1 SWAP2 POP DUP2 SWAP1 PUSH2 0xCB8 JUMP JUMPDEST SWAP1 POP DUP11 ADD MLOAD DUP12 PUSH2 0x6FE JUMP JUMPDEST PUSH0 DUP12 DUP2 MSTORE DUP2 DUP2 KECCAK256 SWAP3 POP PUSH1 0x1F NOT DUP5 AND SWAP1 JUMPDEST DUP14 DUP3 DUP3 LT PUSH2 0xD39 JUMPI POP POP SWAP1 DUP4 PUSH1 0x1 SWAP5 SWAP4 SWAP3 LT PUSH2 0xD21 JUMPI JUMPDEST POP POP DUP2 SHL ADD DUP9 SSTORE PUSH2 0x711 JUMP JUMPDEST DUP13 ADD MLOAD PUSH0 NOT PUSH1 0xF8 DUP5 PUSH1 0x3 SHL AND SHR NOT AND SWAP1 SSTORE DUP12 DUP1 PUSH2 0xD15 JUMP JUMPDEST PUSH1 0x1 DUP5 SWAP6 PUSH1 0x20 SWAP4 SWAP6 DUP5 SWAP4 ADD MLOAD DUP2 SSTORE ADD SWAP5 ADD SWAP3 ADD PUSH2 0xCFE JUMP JUMPDEST DUP10 PUSH0 MSTORE PUSH1 0x20 PUSH0 KECCAK256 PUSH1 0x1F DUP4 ADD PUSH1 0x5 SHR DUP2 ADD SWAP2 PUSH1 0x20 DUP5 LT PUSH2 0xD8C JUMPI JUMPDEST PUSH1 0x1F ADD PUSH1 0x5 SHR ADD SWAP1 JUMPDEST DUP2 DUP2 LT PUSH2 0xD81 JUMPI POP PUSH2 0x6E8 JUMP JUMPDEST PUSH0 DUP2 SSTORE PUSH1 0x1 ADD PUSH2 0xD74 JUMP JUMPDEST SWAP1 SWAP2 POP DUP2 SWAP1 PUSH2 0xD6B JUMP JUMPDEST PUSH4 0x12171D83 PUSH1 0xE3 SHL PUSH0 MSTORE PUSH1 0x4 PUSH0 REVERT JUMPDEST PUSH2 0xDC7 SWAP2 POP PUSH1 0x20 RETURNDATASIZE PUSH1 0x20 GT PUSH2 0xDCD JUMPI JUMPDEST PUSH2 0xDBF DUP2 DUP4 PUSH2 0x574F JUMP JUMPDEST DUP2 ADD SWAP1 PUSH2 0x594A JUMP JUMPDEST DUP9 PUSH2 0x6A2 JUMP JUMPDEST POP RETURNDATASIZE PUSH2 0xDB5 JUMP JUMPDEST PUSH1 0x40 MLOAD RETURNDATASIZE PUSH0 DUP3 RETURNDATACOPY RETURNDATASIZE SWAP1 REVERT JUMPDEST PUSH4 0x1FEC6747 PUSH1 0xE3 SHL PUSH0 MSTORE PUSH1 0x4 PUSH0 REVERT JUMPDEST PUSH4 0xDAB5B42B PUSH1 0xE0 SHL PUSH0 MSTORE PUSH1 0x4 PUSH0 REVERT JUMPDEST PUSH1 0xA SWAP2 POP GT DUP9 PUSH2 0x640 JUMP JUMPDEST PUSH4 0xD5003F3 PUSH1 0xE0 SHL PUSH0 MSTORE PUSH1 0x4 PUSH0 REVERT JUMPDEST PUSH4 0x4D84C2E9 PUSH1 0xE0 SHL PUSH0 MSTORE PUSH1 0x4 PUSH0 REVERT JUMPDEST POP PUSH4 0x1E13380 DUP5 GT PUSH2 0x627 JUMP JUMPDEST PUSH4 0xEA8E4EB5 PUSH1 0xE0 SHL PUSH0 MSTORE PUSH1 0x4 PUSH0 REVERT JUMPDEST POP CALLER PUSH0 SWAP1 DUP2 MSTORE PUSH0 DUP1 MLOAD PUSH1 0x20 PUSH2 0x6327 DUP4 CODECOPY DUP2 MLOAD SWAP2 MSTORE PUSH1 0x20 MSTORE PUSH1 0x40 SWAP1 KECCAK256 SLOAD PUSH1 0xFF AND ISZERO PUSH2 0x617 JUMP JUMPDEST CALLVALUE PUSH2 0x4B3 JUMPI PUSH2 0xE75 CALLDATASIZE PUSH2 0x5885 JUMP JUMPDEST SWAP2 PUSH0 MSTORE PUSH1 0xC PUSH1 0x20 MSTORE PUSH1 0xF PUSH1 0x40 PUSH0 KECCAK256 ADD SWAP1 PUSH0 MSTORE PUSH1 0x20 MSTORE PUSH1 0x40 PUSH0 KECCAK256 PUSH1 0x6 PUSH1 0x7 DUP3 ADD SLOAD DUP4 DUP1 DUP3 GT PUSH0 EQ PUSH2 0xF22 JUMPI PUSH2 0xEA8 SWAP2 PUSH2 0x5922 JUMP JUMPDEST SWAP2 JUMPDEST ADD SLOAD SWAP2 PUSH8 0xDE0B6B3A7640000 DUP4 MUL SWAP3 DUP1 DUP5 DIV PUSH8 0xDE0B6B3A7640000 EQ SWAP1 ISZERO OR ISZERO PUSH2 0xF0E JUMPI PUSH2 0xEE4 PUSH2 0xEE9 SWAP3 PUSH8 0xDE0B6B3A7640000 SWAP5 PUSH2 0x5918 JUMP JUMPDEST PUSH2 0x5905 JUMP JUMPDEST DIV PUSH2 0x3E5 DUP2 MUL SWAP1 DUP1 DUP3 DIV PUSH2 0x3E5 EQ SWAP1 ISZERO OR ISZERO PUSH2 0xF0E JUMPI PUSH1 0x20 SWAP1 PUSH2 0x3E8 PUSH1 0x40 MLOAD SWAP2 DIV DUP2 MSTORE RETURN JUMPDEST PUSH4 0x4E487B71 PUSH1 0xE0 SHL PUSH0 MSTORE PUSH1 0x11 PUSH1 0x4 MSTORE PUSH1 0x24 PUSH0 REVERT JUMPDEST POP PUSH1 0x1 SHR SWAP2 PUSH2 0xEAA JUMP JUMPDEST CALLVALUE PUSH2 0x4B3 JUMPI PUSH1 0x20 CALLDATASIZE PUSH1 0x3 NOT ADD SLT PUSH2 0x4B3 JUMPI PUSH2 0xF45 PUSH2 0x5640 JUMP JUMPDEST PUSH2 0xF4D PUSH2 0x5F4E JUMP JUMPDEST PUSH1 0x1 PUSH1 0x1 PUSH1 0xA0 SHL SUB AND DUP1 ISZERO PUSH2 0xF9E JUMPI PUSH0 DUP1 SLOAD PUSH1 0x1 PUSH1 0x1 PUSH1 0xA0 SHL SUB NOT DUP2 AND DUP4 OR DUP3 SSTORE PUSH1 0x1 PUSH1 0x1 PUSH1 0xA0 SHL SUB AND SWAP1 PUSH32 0x8BE0079C531659141344CD1FD0A4F28419497F9722A3DAAFE3B4186F6B6457E0 SWAP1 DUP1 LOG3 STOP JUMPDEST PUSH4 0x1E4FBDF7 PUSH1 0xE0 SHL PUSH0 MSTORE PUSH0 PUSH1 0x4 MSTORE PUSH1 0x24 PUSH0 REVERT JUMPDEST CALLVALUE PUSH2 0x4B3 JUMPI PUSH0 CALLDATASIZE PUSH1 0x3 NOT ADD SLT PUSH2 0x4B3 JUMPI PUSH1 0x20 PUSH1 0x8 SLOAD PUSH1 0x40 MLOAD SWAP1 DUP2 MSTORE RETURN JUMPDEST CALLVALUE PUSH2 0x4B3 JUMPI PUSH2 0xFDC CALLDATASIZE PUSH2 0x5867 JUMP JUMPDEST PUSH2 0xFE7 SWAP3 SWAP2 SWAP3 PUSH2 0x5F2E JUMP JUMPDEST PUSH2 0xFEF PUSH2 0x5F74 JUMP JUMPDEST PUSH1 0x6 SLOAD DUP5 LT ISZERO PUSH2 0x53A JUMPI DUP4 PUSH0 MSTORE PUSH1 0xC PUSH1 0x20 MSTORE PUSH1 0x2 PUSH1 0x40 PUSH0 KECCAK256 ADD SLOAD TIMESTAMP LT ISZERO PUSH2 0x144A JUMPI DUP4 PUSH0 MSTORE PUSH1 0xC PUSH1 0x20 MSTORE PUSH1 0xFF PUSH1 0x5 PUSH1 0x40 PUSH0 KECCAK256 ADD SLOAD AND PUSH2 0x143B JUMPI DUP4 PUSH0 MSTORE PUSH1 0xC PUSH1 0x20 MSTORE PUSH1 0xA PUSH1 0x40 PUSH0 KECCAK256 ADD SLOAD DUP3 LT ISZERO PUSH2 0x142C JUMPI DUP4 PUSH0 MSTORE PUSH1 0xC PUSH1 0x20 MSTORE PUSH1 0xF PUSH1 0x40 PUSH0 KECCAK256 ADD DUP3 PUSH0 MSTORE PUSH1 0x20 MSTORE PUSH1 0xFF PUSH1 0x5 PUSH1 0x40 PUSH0 KECCAK256 ADD SLOAD AND ISZERO PUSH2 0x141D JUMPI DUP3 ISZERO PUSH2 0x140E JUMPI DUP4 PUSH0 MSTORE PUSH1 0xC PUSH1 0x20 MSTORE PUSH1 0xFF PUSH1 0x5 PUSH1 0x40 PUSH0 KECCAK256 ADD SLOAD PUSH1 0x10 SHR AND ISZERO PUSH2 0x13FF JUMPI PUSH0 DUP5 DUP2 MSTORE PUSH1 0xC PUSH1 0x20 SWAP1 DUP2 MSTORE PUSH1 0x40 DUP1 DUP4 KECCAK256 DUP6 DUP5 MSTORE PUSH1 0xF DUP2 ADD SWAP1 SWAP3 MSTORE SWAP1 SWAP2 KECCAK256 PUSH1 0x4 DUP2 ADD SLOAD SWAP1 SWAP4 SWAP2 SWAP3 SWAP2 SWAP1 SWAP2 DUP3 GT PUSH2 0x13F0 JUMPI PUSH8 0xDE0B6B3A7640000 PUSH2 0x10C6 DUP7 DUP5 PUSH2 0x5905 JUMP JUMPDEST DIV SWAP5 PUSH2 0x2710 PUSH2 0x10D7 PUSH1 0x8 SLOAD DUP9 PUSH2 0x5905 JUMP JUMPDEST DIV SWAP4 PUSH2 0x10E3 DUP6 DUP9 PUSH2 0x593D JUMP JUMPDEST PUSH1 0x3 SLOAD PUSH1 0x40 MLOAD PUSH4 0x23B872DD PUSH1 0xE0 SHL DUP2 MSTORE CALLER PUSH1 0x4 DUP3 ADD MSTORE ADDRESS PUSH1 0x24 DUP3 ADD MSTORE PUSH1 0x44 DUP2 ADD DUP4 SWAP1 MSTORE SWAP2 SWAP3 SWAP2 SWAP1 PUSH1 0x20 SWAP1 DUP3 SWAP1 PUSH1 0x8 SHR PUSH1 0x1 PUSH1 0x1 PUSH1 0xA0 SHL SUB AND DUP2 PUSH0 DUP2 PUSH1 0x64 DUP2 ADD SUB SWAP3 GAS CALL SWAP1 DUP2 ISZERO PUSH2 0xDD4 JUMPI PUSH0 SWAP2 PUSH2 0x13D1 JUMPI JUMPDEST POP ISZERO PUSH2 0xD96 JUMPI DUP1 PUSH1 0x10 PUSH1 0xC SWAP3 ADD PUSH1 0x1 DUP1 PUSH1 0xA0 SHL SUB CALLER AND PUSH0 MSTORE DUP1 PUSH1 0x20 MSTORE PUSH1 0x40 PUSH0 KECCAK256 DUP7 PUSH0 MSTORE PUSH1 0x20 MSTORE PUSH1 0x40 PUSH0 KECCAK256 SLOAD ISZERO DUP1 PUSH2 0x13C1 JUMPI JUMPDEST PUSH2 0x1395 JUMPI JUMPDEST PUSH1 0x1 DUP1 PUSH1 0xA0 SHL SUB CALLER AND PUSH0 MSTORE PUSH1 0x20 MSTORE PUSH1 0x40 PUSH0 KECCAK256 DUP6 PUSH0 MSTORE PUSH1 0x20 MSTORE PUSH1 0x40 PUSH0 KECCAK256 PUSH2 0x1192 DUP6 DUP3 SLOAD PUSH2 0x593D JUMP JUMPDEST SWAP1 SSTORE PUSH1 0x2 DUP9 ADD PUSH2 0x11A3 DUP6 DUP3 SLOAD PUSH2 0x593D JUMP JUMPDEST SWAP1 SSTORE PUSH1 0x3 DUP9 ADD PUSH2 0x11B4 DUP11 DUP3 SLOAD PUSH2 0x593D JUMP JUMPDEST SWAP1 SSTORE PUSH1 0x7 DUP2 ADD PUSH2 0x11C5 DUP11 DUP3 SLOAD PUSH2 0x593D JUMP JUMPDEST SWAP1 SSTORE PUSH1 0x8 DUP2 ADD PUSH2 0x11D6 DUP11 DUP3 SLOAD PUSH2 0x593D JUMP JUMPDEST SWAP1 SSTORE ADD PUSH2 0x11E4 DUP7 DUP3 SLOAD PUSH2 0x593D JUMP JUMPDEST SWAP1 SSTORE PUSH2 0x11F2 DUP6 PUSH1 0xB SLOAD PUSH2 0x593D JUMP JUMPDEST PUSH1 0xB SSTORE CALLER PUSH0 MSTORE PUSH1 0xD PUSH1 0x20 MSTORE PUSH2 0x120C PUSH1 0x40 PUSH0 KECCAK256 SWAP2 DUP3 SLOAD PUSH2 0x593D JUMP JUMPDEST SWAP1 SSTORE CALLER PUSH0 MSTORE PUSH1 0xD PUSH1 0x20 MSTORE PUSH1 0x4 PUSH1 0x40 PUSH0 KECCAK256 ADD PUSH2 0x1227 DUP2 SLOAD PUSH2 0x592F JUMP JUMPDEST SWAP1 SSTORE DUP7 PUSH0 MSTORE PUSH1 0xC PUSH1 0x20 MSTORE PUSH1 0xF PUSH1 0x40 PUSH0 KECCAK256 ADD DUP3 PUSH0 MSTORE PUSH1 0x20 MSTORE PUSH1 0x40 PUSH0 KECCAK256 PUSH2 0x1256 DUP3 PUSH1 0x6 PUSH1 0x7 DUP5 ADD SLOAD SWAP4 ADD SLOAD SWAP3 PUSH2 0x593D JUMP JUMPDEST PUSH8 0xDE0B6B3A7640000 DUP3 MUL SWAP2 DUP1 DUP4 DIV PUSH8 0xDE0B6B3A7640000 EQ SWAP1 ISZERO OR ISZERO PUSH2 0xF0E JUMPI PUSH32 0xAF7C505EE772EC188AF7067E1F73DB08AB028E3D564273442B907742B9C41FA0 SWAP8 PUSH1 0x20 SWAP8 PUSH2 0x12AB PUSH1 0x4 SWAP4 PUSH2 0x12E3 SWAP6 PUSH2 0x5918 JUMP JUMPDEST SWAP3 DUP4 SWAP2 ADD SSTORE DUP10 PUSH0 MSTORE PUSH1 0x10 DUP9 MSTORE PUSH1 0x40 PUSH0 KECCAK256 DUP6 PUSH0 MSTORE DUP9 MSTORE PUSH1 0x40 PUSH0 KECCAK256 SWAP1 PUSH1 0x40 MLOAD SWAP3 PUSH2 0x12D2 DUP5 PUSH2 0x56FD JUMP JUMPDEST DUP4 MSTORE TIMESTAMP DUP10 DUP5 ADD MSTORE PUSH1 0x40 DUP4 ADD MSTORE PUSH2 0x5DBB JUMP JUMPDEST PUSH2 0x133C PUSH1 0x40 MLOAD PUSH2 0x12F2 DUP2 PUSH2 0x5718 JUMP JUMPDEST DUP9 DUP2 MSTORE DUP4 DUP8 DUP3 ADD MSTORE CALLER PUSH1 0x40 DUP3 ADD MSTORE PUSH0 PUSH1 0x60 DUP3 ADD MSTORE DUP5 PUSH1 0x80 DUP3 ADD MSTORE DUP3 PUSH1 0xA0 DUP3 ADD MSTORE TIMESTAMP PUSH1 0xC0 DUP3 ADD MSTORE CALLER PUSH0 MSTORE PUSH1 0xE DUP8 MSTORE PUSH2 0x132C DUP2 PUSH1 0x40 PUSH0 KECCAK256 PUSH2 0x5E40 JUMP JUMPDEST DUP9 PUSH0 MSTORE PUSH1 0xF DUP8 MSTORE PUSH1 0x40 PUSH0 KECCAK256 PUSH2 0x5E40 JUMP JUMPDEST PUSH1 0x7 SLOAD SWAP1 PUSH2 0x1349 DUP3 PUSH2 0x592F JUMP JUMPDEST PUSH1 0x7 SSTORE PUSH1 0x40 MLOAD SWAP4 PUSH0 DUP6 MSTORE DUP7 DUP6 ADD MSTORE PUSH1 0x40 DUP5 ADD MSTORE PUSH1 0x60 DUP4 ADD MSTORE DUP6 PUSH32 0x976184626638B6C7E51A4AB66B297BEB1714B545CE4E867A70D622566573098C PUSH1 0x80 CALLER SWAP5 LOG4 PUSH1 0x40 MLOAD SWAP1 DUP2 MSTORE LOG2 PUSH1 0x1 DUP1 SSTORE STOP JUMPDEST PUSH2 0x13A2 CALLER PUSH1 0x14 DUP5 ADD PUSH2 0x5F11 JUMP JUMPDEST CALLER PUSH0 MSTORE PUSH1 0xD PUSH1 0x20 MSTORE PUSH1 0x40 PUSH0 KECCAK256 SLOAD PUSH2 0x116B JUMPI PUSH2 0x13BC CALLER PUSH2 0x5ECC JUMP JUMPDEST PUSH2 0x116B JUMP JUMPDEST POP PUSH2 0x13CC DUP12 CALLER PUSH2 0x62AA JUMP JUMPDEST PUSH2 0x1166 JUMP JUMPDEST PUSH2 0x13EA SWAP2 POP PUSH1 0x20 RETURNDATASIZE PUSH1 0x20 GT PUSH2 0xDCD JUMPI PUSH2 0xDBF DUP2 DUP4 PUSH2 0x574F JUMP JUMPDEST DUP11 PUSH2 0x1134 JUMP JUMPDEST PUSH4 0x127F08C9 PUSH1 0xE1 SHL PUSH0 MSTORE PUSH1 0x4 PUSH0 REVERT JUMPDEST PUSH4 0x6864AAC3 PUSH1 0xE1 SHL PUSH0 MSTORE PUSH1 0x4 PUSH0 REVERT JUMPDEST PUSH4 0x2E11316F PUSH1 0xE1 SHL PUSH0 MSTORE PUSH1 0x4 PUSH0 REVERT JUMPDEST PUSH4 0xF6B715C3 PUSH1 0xE0 SHL PUSH0 MSTORE PUSH1 0x4 PUSH0 REVERT JUMPDEST PUSH4 0x2A719531 PUSH1 0xE0 SHL PUSH0 MSTORE PUSH1 0x4 PUSH0 REVERT JUMPDEST PUSH4 0xEDCA30D PUSH1 0xE1 SHL PUSH0 MSTORE PUSH1 0x4 PUSH0 REVERT JUMPDEST PUSH4 0x262B7531 PUSH1 0xE2 SHL PUSH0 MSTORE PUSH1 0x4 PUSH0 REVERT JUMPDEST CALLVALUE PUSH2 0x4B3 JUMPI PUSH1 0xA0 CALLDATASIZE PUSH1 0x3 NOT ADD SLT PUSH2 0x4B3 JUMPI PUSH1 0x64 CALLDATALOAD PUSH1 0x44 CALLDATALOAD PUSH1 0x4 CALLDATALOAD PUSH1 0x24 CALLDATALOAD PUSH2 0x147E PUSH2 0x5F2E JUMP JUMPDEST PUSH2 0x1486 PUSH2 0x5F74 JUMP JUMPDEST PUSH1 0x6 SLOAD DUP3 LT ISZERO PUSH2 0x53A JUMPI DUP2 PUSH0 MSTORE PUSH1 0xC PUSH1 0x20 MSTORE PUSH1 0x2 PUSH1 0x40 PUSH0 KECCAK256 ADD SLOAD TIMESTAMP LT ISZERO PUSH2 0x144A JUMPI DUP2 PUSH0 MSTORE PUSH1 0xC PUSH1 0x20 MSTORE PUSH1 0xFF PUSH1 0x5 PUSH1 0x40 PUSH0 KECCAK256 ADD SLOAD AND PUSH2 0x143B JUMPI DUP3 DUP2 EQ PUSH2 0x1785 JUMPI DUP4 ISZERO PUSH2 0x140E JUMPI PUSH0 DUP3 DUP2 MSTORE PUSH1 0xC PUSH1 0x20 SWAP1 DUP2 MSTORE PUSH1 0x40 DUP1 DUP4 KECCAK256 CALLER DUP5 MSTORE PUSH1 0x10 ADD DUP3 MSTORE DUP1 DUP4 KECCAK256 DUP5 DUP5 MSTORE SWAP1 SWAP2 MSTORE SWAP1 KECCAK256 SLOAD DUP5 GT PUSH2 0x1776 JUMPI DUP2 PUSH0 MSTORE PUSH1 0xC PUSH1 0x20 MSTORE PUSH1 0x40 PUSH0 KECCAK256 SWAP1 PUSH1 0xF DUP3 ADD SWAP1 DUP1 PUSH0 MSTORE DUP2 PUSH1 0x20 MSTORE PUSH1 0x40 PUSH0 KECCAK256 SWAP2 DUP6 PUSH0 MSTORE PUSH1 0x20 MSTORE PUSH1 0x40 PUSH0 KECCAK256 SWAP6 PUSH1 0x7 DUP4 ADD SWAP6 DUP7 SLOAD SWAP7 PUSH1 0x7 DUP10 ADD SWAP6 DUP7 SLOAD SWAP9 PUSH2 0x26F2 DUP6 MUL SWAP1 DUP6 DUP3 DIV PUSH2 0x26F2 SUB PUSH2 0xF0E JUMPI PUSH2 0x1576 DUP12 PUSH2 0x1570 PUSH2 0x2710 PUSH2 0x157C SWAP6 DIV DUP1 SWAP3 PUSH2 0x155A DUP3 DUP13 PUSH2 0x5922 JUMP JUMPDEST PUSH2 0x1569 PUSH1 0xD DUP11 ADD SWAP2 DUP3 SLOAD PUSH2 0x593D JUMP JUMPDEST SWAP1 SSTORE PUSH2 0x5905 JUMP JUMPDEST SWAP3 PUSH2 0x593D JUMP JUMPDEST SWAP1 PUSH2 0x5918 JUMP JUMPDEST SWAP9 PUSH1 0x84 CALLDATALOAD DUP11 LT PUSH2 0x1767 JUMPI DUP10 LT ISZERO PUSH2 0x1758 JUMPI PUSH1 0x10 SWAP1 PUSH2 0x159B DUP6 DUP5 SLOAD PUSH2 0x593D JUMP JUMPDEST DUP4 SSTORE PUSH2 0x15A8 DUP11 DUP10 SLOAD PUSH2 0x5922 JUMP JUMPDEST DUP9 SSTORE ADD PUSH1 0x1 DUP1 PUSH1 0xA0 SHL SUB CALLER AND PUSH0 MSTORE DUP1 PUSH1 0x20 MSTORE PUSH1 0x40 PUSH0 KECCAK256 DUP6 PUSH0 MSTORE PUSH1 0x20 MSTORE PUSH1 0x40 PUSH0 KECCAK256 PUSH2 0x15D3 DUP6 DUP3 SLOAD PUSH2 0x5922 JUMP JUMPDEST SWAP1 SSTORE PUSH1 0x1 DUP1 PUSH1 0xA0 SHL SUB CALLER AND PUSH0 MSTORE PUSH1 0x20 MSTORE PUSH1 0x40 PUSH0 KECCAK256 DUP3 PUSH0 MSTORE PUSH1 0x20 MSTORE PUSH1 0x40 PUSH0 KECCAK256 PUSH2 0x15FC DUP10 DUP3 SLOAD PUSH2 0x593D JUMP JUMPDEST SWAP1 SSTORE PUSH1 0x6 DUP6 ADD SLOAD SWAP1 PUSH8 0xDE0B6B3A7640000 DUP3 MUL SWAP2 DUP1 DUP4 DIV PUSH8 0xDE0B6B3A7640000 EQ SWAP1 ISZERO OR ISZERO PUSH2 0xF0E JUMPI PUSH1 0x4 SWAP2 PUSH2 0x1633 SWAP2 SLOAD SWAP1 PUSH2 0x5918 JUMP JUMPDEST SWAP5 ADD SWAP4 DUP5 SSTORE PUSH1 0x6 DUP9 ADD SLOAD PUSH8 0xDE0B6B3A7640000 DUP2 MUL SWAP1 DUP1 DUP3 DIV PUSH8 0xDE0B6B3A7640000 EQ SWAP1 ISZERO OR ISZERO PUSH2 0xF0E JUMPI PUSH1 0x20 SWAP9 PUSH2 0x16E7 PUSH1 0xA0 SWAP7 PUSH1 0x4 PUSH2 0x1699 PUSH2 0x1730 SWAP6 PUSH32 0xCA95F9F211ECEB8CF82EFF4E16AE708336F056D94515A268F4B8FD1F5C08EF50 SWAP12 SLOAD SWAP1 PUSH2 0x5918 JUMP JUMPDEST SWAP4 ADD SWAP3 DUP4 SSTORE DUP10 PUSH0 MSTORE PUSH1 0x10 DUP13 MSTORE PUSH1 0x40 PUSH0 KECCAK256 DUP8 PUSH0 MSTORE DUP13 MSTORE PUSH1 0x40 PUSH0 KECCAK256 SWAP1 SLOAD SWAP1 PUSH8 0xDE0B6B3A7640000 PUSH2 0x16C8 DUP4 DUP10 PUSH2 0x5905 JUMP JUMPDEST DIV PUSH1 0x40 MLOAD SWAP3 PUSH2 0x16D6 DUP5 PUSH2 0x56FD JUMP JUMPDEST DUP4 MSTORE TIMESTAMP DUP15 DUP5 ADD MSTORE PUSH1 0x40 DUP4 ADD MSTORE PUSH2 0x5DBB JUMP JUMPDEST DUP8 PUSH0 MSTORE PUSH1 0x10 DUP11 MSTORE PUSH1 0x40 PUSH0 KECCAK256 DUP4 PUSH0 MSTORE DUP11 MSTORE PUSH1 0x40 PUSH0 KECCAK256 SWAP1 SLOAD SWAP1 PUSH8 0xDE0B6B3A7640000 PUSH2 0x1711 DUP4 DUP13 PUSH2 0x5905 JUMP JUMPDEST DIV PUSH1 0x40 MLOAD SWAP3 PUSH2 0x171F DUP5 PUSH2 0x56FD JUMP JUMPDEST DUP4 MSTORE TIMESTAMP DUP13 DUP5 ADD MSTORE PUSH1 0x40 DUP4 ADD MSTORE PUSH2 0x5DBB JUMP JUMPDEST PUSH1 0x40 MLOAD SWAP3 DUP4 MSTORE DUP8 DUP4 ADD MSTORE PUSH1 0x40 DUP3 ADD MSTORE DUP5 PUSH1 0x60 DUP3 ADD MSTORE CALLER PUSH1 0x80 DUP3 ADD MSTORE LOG2 PUSH1 0x1 DUP1 SSTORE PUSH1 0x40 MLOAD SWAP1 DUP2 MSTORE RETURN JUMPDEST PUSH4 0xBB55FD27 PUSH1 0xE0 SHL PUSH0 MSTORE PUSH1 0x4 PUSH0 REVERT JUMPDEST PUSH4 0xBB2875C3 PUSH1 0xE0 SHL PUSH0 MSTORE PUSH1 0x4 PUSH0 REVERT JUMPDEST PUSH4 0x39996567 PUSH1 0xE0 SHL PUSH0 MSTORE PUSH1 0x4 PUSH0 REVERT JUMPDEST PUSH4 0x2EF184B PUSH1 0xE3 SHL PUSH0 MSTORE PUSH1 0x4 PUSH0 REVERT JUMPDEST CALLVALUE PUSH2 0x4B3 JUMPI PUSH1 0x20 CALLDATASIZE PUSH1 0x3 NOT ADD SLT PUSH2 0x4B3 JUMPI PUSH1 0x4 CALLDATALOAD PUSH1 0x6 SLOAD DUP2 LT ISZERO PUSH2 0x53A JUMPI PUSH0 MSTORE PUSH1 0xC PUSH1 0x20 MSTORE PUSH1 0x80 PUSH1 0x40 PUSH0 KECCAK256 PUSH1 0x16 PUSH1 0x14 DUP3 ADD SLOAD SWAP2 ADD SLOAD SWAP1 DUP2 DUP2 GT PUSH0 EQ PUSH2 0x17FA JUMPI PUSH2 0x17DD DUP3 DUP3 PUSH2 0x5922 JUMP JUMPDEST SWAP2 JUMPDEST PUSH1 0x40 MLOAD SWAP3 DUP3 DUP5 MSTORE DUP2 PUSH1 0x20 DUP6 ADD MSTORE PUSH1 0x40 DUP5 ADD MSTORE LT ISZERO PUSH1 0x60 DUP3 ADD MSTORE RETURN JUMPDEST PUSH0 SWAP2 PUSH2 0x17DF JUMP JUMPDEST PUSH2 0x120 CALLDATASIZE PUSH1 0x3 NOT ADD SLT PUSH2 0x4B3 JUMPI PUSH1 0x4 CALLDATALOAD PUSH1 0x1 PUSH1 0x1 PUSH1 0x40 SHL SUB DUP2 GT PUSH2 0x4B3 JUMPI PUSH2 0x182D SWAP1 CALLDATASIZE SWAP1 PUSH1 0x4 ADD PUSH2 0x5770 JUMP JUMPDEST PUSH1 0x24 CALLDATALOAD PUSH1 0x1 PUSH1 0x1 PUSH1 0x40 SHL SUB DUP2 GT PUSH2 0x4B3 JUMPI PUSH2 0x184C SWAP1 CALLDATASIZE SWAP1 PUSH1 0x4 ADD PUSH2 0x5770 JUMP JUMPDEST PUSH1 0x44 CALLDATALOAD PUSH1 0x1 PUSH1 0x1 PUSH1 0x40 SHL SUB DUP2 GT PUSH2 0x4B3 JUMPI PUSH2 0x186B SWAP1 CALLDATASIZE SWAP1 PUSH1 0x4 ADD PUSH2 0x57DC JUMP JUMPDEST SWAP2 PUSH1 0x64 CALLDATALOAD PUSH1 0x1 PUSH1 0x1 PUSH1 0x40 SHL SUB DUP2 GT PUSH2 0x4B3 JUMPI PUSH2 0x188B SWAP1 CALLDATASIZE SWAP1 PUSH1 0x4 ADD PUSH2 0x57DC JUMP JUMPDEST PUSH1 0x84 CALLDATALOAD SWAP1 PUSH1 0xA4 CALLDATALOAD SWAP3 PUSH1 0x8 DUP5 LT ISZERO PUSH2 0x4B3 JUMPI PUSH1 0xE4 CALLDATALOAD PUSH1 0x1 PUSH1 0x1 PUSH1 0x40 SHL SUB DUP2 GT PUSH2 0x4B3 JUMPI PUSH2 0x18BB SWAP1 CALLDATASIZE SWAP1 PUSH1 0x4 ADD PUSH2 0x5770 JUMP JUMPDEST SWAP6 PUSH2 0x104 CALLDATALOAD SWAP5 PUSH2 0x18C9 PUSH2 0x5F74 JUMP JUMPDEST CALLVALUE ISZERO PUSH2 0x21D8 JUMPI PUSH2 0x18D7 PUSH2 0x5F74 JUMP JUMPDEST PUSH0 SLOAD PUSH1 0x1 PUSH1 0x1 PUSH1 0xA0 SHL SUB AND CALLER EQ ISZERO DUP1 PUSH2 0x21B3 JUMPI JUMPDEST PUSH2 0xE33 JUMPI PUSH2 0xE10 DUP6 LT DUP1 ISZERO PUSH2 0x21A6 JUMPI JUMPDEST PUSH2 0xE17 JUMPI DUP3 MLOAD ISZERO PUSH2 0xE08 JUMPI DUP2 MLOAD PUSH1 0x2 DUP2 LT SWAP1 DUP2 ISZERO PUSH2 0x219B JUMPI JUMPDEST POP PUSH2 0xDEE JUMPI DUP2 MLOAD DUP5 MLOAD SUB PUSH2 0xDDF JUMPI PUSH9 0x56BC75E2D63100000 DUP7 LT PUSH2 0x218C JUMPI PUSH1 0x3 SLOAD PUSH1 0x40 MLOAD PUSH4 0x23B872DD PUSH1 0xE0 SHL DUP2 MSTORE CALLER PUSH1 0x4 DUP3 ADD MSTORE ADDRESS PUSH1 0x24 DUP3 ADD MSTORE PUSH1 0x44 DUP2 ADD DUP9 SWAP1 MSTORE SWAP1 PUSH1 0x20 SWAP1 DUP3 SWAP1 PUSH1 0x8 SHR PUSH1 0x1 PUSH1 0x1 PUSH1 0xA0 SHL SUB AND DUP2 PUSH0 DUP2 PUSH1 0x64 DUP2 ADD SUB SWAP3 GAS CALL SWAP1 DUP2 ISZERO PUSH2 0xDD4 JUMPI PUSH0 SWAP2 PUSH2 0x216D JUMPI JUMPDEST POP ISZERO PUSH2 0xD96 JUMPI PUSH1 0x6 SLOAD SWAP5 PUSH2 0x1993 DUP7 PUSH2 0x592F JUMP JUMPDEST PUSH1 0x6 SSTORE DUP6 PUSH0 MSTORE PUSH1 0xC PUSH1 0x20 MSTORE PUSH1 0x40 PUSH0 KECCAK256 SWAP8 DUP5 MLOAD PUSH1 0x1 PUSH1 0x1 PUSH1 0x40 SHL SUB DUP2 GT PUSH2 0xA74 JUMPI PUSH2 0x19BD DUP11 SLOAD PUSH2 0x5C9D JUMP JUMPDEST PUSH1 0x1F DUP2 GT PUSH2 0x2128 JUMPI JUMPDEST POP DUP1 PUSH1 0x20 PUSH1 0x1F DUP3 GT PUSH1 0x1 EQ PUSH2 0x20C7 JUMPI PUSH0 SWAP2 PUSH2 0x20BC JUMPI JUMPDEST POP DUP2 PUSH1 0x1 SHL SWAP2 PUSH0 NOT SWAP1 PUSH1 0x3 SHL SHR NOT AND OR DUP10 SSTORE JUMPDEST DUP1 MLOAD PUSH1 0x1 DUP11 ADD SWAP2 PUSH1 0x1 PUSH1 0x1 PUSH1 0x40 SHL SUB DUP3 GT PUSH2 0xA74 JUMPI PUSH2 0x1A0E DUP4 SLOAD PUSH2 0x5C9D JUMP JUMPDEST PUSH1 0x1F DUP2 GT PUSH2 0x2077 JUMPI JUMPDEST POP PUSH1 0x20 SWAP1 PUSH1 0x1F DUP4 GT PUSH1 0x1 EQ PUSH2 0x2010 JUMPI PUSH2 0x1A4D SWAP5 SWAP4 SWAP3 SWAP2 PUSH0 SWAP2 DUP4 PUSH2 0x2005 JUMPI POP POP DUP2 PUSH1 0x1 SHL SWAP2 PUSH0 NOT SWAP1 PUSH1 0x3 SHL SHR NOT AND OR SWAP1 SSTORE TIMESTAMP PUSH2 0x593D JUMP JUMPDEST PUSH1 0x2 DUP9 ADD SWAP1 DUP2 SSTORE PUSH1 0x3 DUP9 ADD DUP1 SLOAD PUSH2 0xFFFF NOT AND PUSH1 0xFF DUP5 AND OR PUSH2 0x200 OR SWAP1 SSTORE PUSH1 0x5 DUP9 ADD DUP1 SLOAD PUSH4 0x1000000 PUSH1 0x1 PUSH1 0xB8 SHL SUB NOT AND CALLER PUSH1 0x18 SHL PUSH4 0x1000000 PUSH1 0x1 PUSH1 0xB8 SHL SUB AND OR SWAP1 SSTORE TIMESTAMP PUSH1 0x9 DUP10 ADD SSTORE DUP3 MLOAD PUSH1 0xA DUP10 ADD DUP2 SWAP1 SSTORE PUSH1 0x6 DUP10 ADD DUP9 SWAP1 SSTORE PUSH0 PUSH1 0x7 DUP11 ADD SSTORE PUSH1 0xB DUP10 ADD DUP9 SWAP1 SSTORE SWAP1 SWAP9 SWAP1 DUP1 ISZERO PUSH2 0xC17 JUMPI PUSH2 0x1AD6 SWAP1 PUSH8 0xDE0B6B3A7640000 SWAP11 SWAP10 SWAP11 DIV SWAP8 DUP5 MLOAD SWAP1 PUSH2 0x5918 JUMP JUMPDEST SWAP4 PUSH1 0xF PUSH0 SWAP11 ADD SWAP10 JUMPDEST DUP5 MLOAD DUP2 LT ISZERO PUSH2 0x1DC0 JUMPI PUSH2 0x1AF1 DUP2 DUP7 PUSH2 0x5DA7 JUMP JUMPDEST MLOAD DUP7 DUP13 PUSH2 0x1AFE DUP5 DUP12 PUSH2 0x5DA7 JUMP JUMPDEST MLOAD PUSH1 0x40 MLOAD SWAP4 PUSH2 0x1B0C DUP6 PUSH2 0x5733 JUMP JUMPDEST DUP5 MSTORE PUSH1 0x20 DUP5 ADD SWAP1 DUP2 MSTORE DUP13 PUSH1 0x40 DUP6 ADD PUSH0 DUP2 MSTORE PUSH1 0x60 DUP7 ADD SWAP1 PUSH0 DUP3 MSTORE PUSH1 0x80 DUP8 ADD SWAP3 DUP4 MSTORE PUSH1 0xA0 DUP8 ADD SWAP4 PUSH1 0x1 DUP6 MSTORE PUSH1 0xC0 DUP9 ADD SWAP6 DUP8 DUP8 MSTORE PUSH1 0xE0 DUP10 ADD SWAP8 DUP9 MSTORE DUP10 PUSH0 MSTORE PUSH1 0x20 MSTORE PUSH1 0x40 PUSH0 KECCAK256 SWAP8 MLOAD DUP1 MLOAD SWAP1 PUSH1 0x1 PUSH1 0x1 PUSH1 0x40 SHL SUB DUP3 GT PUSH2 0xA74 JUMPI DUP2 SWAP1 PUSH2 0x1B6D DUP12 SLOAD PUSH2 0x5C9D JUMP JUMPDEST PUSH1 0x1F DUP2 GT PUSH2 0x1D70 JUMPI JUMPDEST POP PUSH1 0x20 SWAP1 PUSH1 0x1F DUP4 GT PUSH1 0x1 EQ PUSH2 0x1D0D JUMPI PUSH0 SWAP3 PUSH2 0x1D02 JUMPI JUMPDEST POP POP DUP2 PUSH1 0x1 SHL SWAP2 PUSH0 NOT SWAP1 PUSH1 0x3 SHL SHR NOT AND OR DUP9 SSTORE JUMPDEST MLOAD DUP1 MLOAD PUSH1 0x1 DUP10 ADD SWAP2 PUSH1 0x1 PUSH1 0x1 PUSH1 0x40 SHL SUB DUP3 GT PUSH2 0xA74 JUMPI PUSH2 0x1BC0 DUP4 SLOAD PUSH2 0x5C9D JUMP JUMPDEST PUSH1 0x1F DUP2 GT PUSH2 0x1CBD JUMPI JUMPDEST POP PUSH1 0x20 SWAP1 PUSH1 0x1F DUP4 GT PUSH1 0x1 EQ PUSH2 0x1C64 JUMPI SWAP3 DUP3 PUSH2 0x1C2E SWAP7 SWAP4 PUSH1 0x1 SWAP14 SWAP13 SWAP12 SWAP10 SWAP7 SWAP4 PUSH1 0x7 SWAP12 SWAP10 SWAP7 PUSH0 SWAP3 PUSH2 0x9B2 JUMPI POP POP PUSH0 NOT PUSH1 0x3 DUP4 SWAP1 SHL SHR NOT AND SWAP1 DUP14 SHL OR SWAP1 SSTORE MLOAD PUSH1 0x2 DUP10 ADD SSTORE MLOAD PUSH1 0x3 DUP9 ADD SSTORE MLOAD PUSH1 0x4 DUP8 ADD SSTORE MLOAD ISZERO ISZERO PUSH1 0x5 DUP7 ADD SWAP1 PUSH1 0xFF DUP1 NOT DUP4 SLOAD AND SWAP2 ISZERO ISZERO AND OR SWAP1 SSTORE JUMP JUMPDEST MLOAD PUSH1 0x6 DUP5 ADD SSTORE MLOAD SWAP2 ADD SSTORE DUP9 PUSH0 MSTORE PUSH1 0x10 PUSH1 0x20 MSTORE PUSH1 0x40 PUSH0 KECCAK256 DUP2 PUSH0 MSTORE PUSH1 0x20 MSTORE PUSH2 0x1C5E PUSH1 0x40 PUSH0 KECCAK256 PUSH1 0x40 MLOAD SWAP1 PUSH2 0x998 DUP3 PUSH2 0x56FD JUMP JUMPDEST ADD PUSH2 0x1ADE JUMP JUMPDEST SWAP1 PUSH1 0x1F NOT DUP4 AND SWAP2 DUP5 PUSH0 MSTORE DUP2 PUSH0 KECCAK256 SWAP3 PUSH0 JUMPDEST DUP2 DUP2 LT PUSH2 0x1CA5 JUMPI POP SWAP4 PUSH1 0x1 SWAP14 SWAP13 SWAP12 SWAP10 SWAP7 SWAP4 PUSH1 0x7 SWAP12 SWAP10 SWAP7 SWAP4 DUP16 SWAP4 DUP4 PUSH2 0x1C2E SWAP12 SWAP9 LT PUSH2 0x9FF JUMPI POP POP POP DUP2 SHL ADD SWAP1 SSTORE PUSH2 0x93E JUMP JUMPDEST SWAP3 SWAP4 PUSH1 0x20 PUSH1 0x1 DUP2 SWAP3 DUP8 DUP7 ADD MLOAD DUP2 SSTORE ADD SWAP6 ADD SWAP4 ADD PUSH2 0x1C74 JUMP JUMPDEST DUP4 PUSH0 MSTORE PUSH1 0x20 PUSH0 KECCAK256 PUSH1 0x1F DUP5 ADD PUSH1 0x5 SHR DUP2 ADD SWAP2 PUSH1 0x20 DUP6 LT PUSH2 0x1CF8 JUMPI JUMPDEST PUSH1 0x1F ADD PUSH1 0x5 SHR ADD SWAP1 JUMPDEST DUP2 DUP2 LT PUSH2 0x1CED JUMPI POP PUSH2 0x1BC9 JUMP JUMPDEST PUSH0 DUP2 SSTORE PUSH1 0x1 ADD PUSH2 0x1CE0 JUMP JUMPDEST SWAP1 SWAP2 POP DUP2 SWAP1 PUSH2 0x1CD7 JUMP JUMPDEST ADD MLOAD SWAP1 POP PUSH0 DUP1 PUSH2 0x1B8C JUMP JUMPDEST PUSH0 DUP13 DUP2 MSTORE DUP3 DUP2 KECCAK256 SWAP4 POP PUSH1 0x1F NOT DUP6 AND SWAP1 JUMPDEST DUP2 DUP2 LT PUSH2 0x1D58 JUMPI POP SWAP1 DUP5 PUSH1 0x1 SWAP6 SWAP5 SWAP4 SWAP3 LT PUSH2 0x1D40 JUMPI JUMPDEST POP POP POP DUP2 SHL ADD DUP9 SSTORE PUSH2 0x1BA0 JUMP JUMPDEST ADD MLOAD PUSH0 NOT PUSH1 0xF8 DUP5 PUSH1 0x3 SHL AND SHR NOT AND SWAP1 SSTORE PUSH0 DUP1 DUP1 PUSH2 0x1D33 JUMP JUMPDEST SWAP3 SWAP4 PUSH1 0x20 PUSH1 0x1 DUP2 SWAP3 DUP8 DUP7 ADD MLOAD DUP2 SSTORE ADD SWAP6 ADD SWAP4 ADD PUSH2 0x1D1D JUMP JUMPDEST SWAP1 SWAP2 POP DUP11 PUSH0 MSTORE PUSH1 0x20 PUSH0 KECCAK256 PUSH1 0x1F DUP5 ADD PUSH1 0x5 SHR DUP2 ADD SWAP2 PUSH1 0x20 DUP6 LT PUSH2 0x1DB6 JUMPI JUMPDEST SWAP1 PUSH1 0x1F DUP6 SWAP5 SWAP4 SWAP3 ADD PUSH1 0x5 SHR ADD SWAP1 JUMPDEST DUP2 DUP2 LT PUSH2 0x1DA8 JUMPI POP PUSH2 0x1B76 JUMP JUMPDEST PUSH0 DUP2 SSTORE DUP5 SWAP4 POP PUSH1 0x1 ADD PUSH2 0x1D9B JUMP JUMPDEST SWAP1 SWAP2 POP DUP2 SWAP1 PUSH2 0x1D8D JUMP JUMPDEST POP DUP7 SWAP1 DUP5 DUP11 PUSH2 0x1DD2 DUP5 PUSH2 0xB59 DUP9 PUSH2 0x58D7 JUMP JUMPDEST PUSH2 0x1DE0 DUP5 PUSH2 0xB59 PUSH1 0x2 PUSH2 0x58EE JUMP JUMPDEST SLOAD SWAP5 PUSH2 0x1DF7 PUSH1 0x40 MLOAD SWAP4 PUSH1 0xC0 DUP6 MSTORE PUSH1 0xC0 DUP6 ADD SWAP1 PUSH2 0x5685 JUMP JUMPDEST DUP4 DUP2 SUB PUSH1 0x20 DUP6 ADD MSTORE DUP3 MLOAD DUP1 DUP3 MSTORE PUSH1 0x20 DUP3 ADD SWAP1 PUSH1 0x20 DUP1 DUP3 PUSH1 0x5 SHL DUP6 ADD ADD SWAP6 ADD SWAP2 PUSH0 SWAP1 JUMPDEST DUP3 DUP3 LT PUSH2 0x1FD4 JUMPI PUSH1 0x40 DUP9 ADD DUP12 SWAP1 MSTORE DUP10 DUP10 DUP1 PUSH0 DUP1 MLOAD PUSH1 0x20 PUSH2 0x6367 DUP4 CODECOPY DUP2 MLOAD SWAP2 MSTORE DUP12 DUP1 DUP13 PUSH2 0x1E48 PUSH1 0x60 DUP4 ADD DUP15 PUSH2 0x585A JUMP JUMPDEST PUSH1 0x2 PUSH1 0x80 DUP4 ADD MSTORE CALLER PUSH1 0xA0 DUP4 ADD MSTORE SUB SWAP1 LOG2 PUSH0 DUP2 DUP2 MSTORE PUSH1 0xC PUSH1 0x20 MSTORE PUSH1 0x40 SWAP1 KECCAK256 PUSH1 0x1D DUP2 ADD DUP1 SLOAD PUSH1 0x1 PUSH1 0x1 PUSH1 0xA0 SHL SUB NOT AND CALLER OR SWAP1 SSTORE CALLVALUE PUSH1 0x1E DUP3 ADD SSTORE PUSH1 0xC4 CALLDATALOAD PUSH1 0x1F DUP3 ADD SSTORE DUP3 MLOAD SWAP3 SWAP1 PUSH1 0x21 ADD PUSH1 0x1 PUSH1 0x1 PUSH1 0x40 SHL SUB DUP5 GT PUSH2 0xA74 JUMPI PUSH2 0x1EA6 DUP2 SLOAD PUSH2 0x5C9D JUMP JUMPDEST SWAP4 PUSH1 0x1F DUP6 GT PUSH2 0x1F8F JUMPI JUMPDEST PUSH1 0x20 SWAP5 POP DUP1 DUP6 PUSH1 0x1F DUP3 GT PUSH1 0x1 EQ PUSH2 0x1F2F JUMPI PUSH0 SWAP2 PUSH2 0x1F24 JUMPI JUMPDEST POP DUP2 PUSH1 0x1 SHL SWAP2 PUSH0 NOT SWAP1 PUSH1 0x3 SHL SHR NOT AND OR SWAP1 SSTORE JUMPDEST DUP2 PUSH32 0x5ECBA3331A79C832C0833D5F1B33759B26D8743C93F4A1B5402053FCBE29DE84 PUSH1 0x40 MLOAD CALLVALUE DUP2 MSTORE PUSH1 0x40 DUP7 DUP3 ADD MSTORE DUP1 PUSH2 0x1F19 CALLER SWAP6 PUSH1 0x40 DUP4 ADD SWAP1 PUSH2 0x5685 JUMP JUMPDEST SUB SWAP1 LOG3 PUSH1 0x40 MLOAD SWAP1 DUP2 MSTORE RETURN JUMPDEST SWAP1 POP DUP4 ADD MLOAD DUP7 PUSH2 0x1EC8 JUMP JUMPDEST PUSH0 DUP5 DUP2 MSTORE DUP2 DUP2 KECCAK256 SWAP3 POP PUSH1 0x1F NOT DUP5 AND SWAP1 JUMPDEST DUP2 DUP2 LT PUSH2 0x1F78 JUMPI POP SWAP1 DUP4 PUSH1 0x1 SWAP5 SWAP4 SWAP3 LT PUSH2 0x1F60 JUMPI JUMPDEST POP POP DUP2 SHL ADD SWAP1 SSTORE PUSH2 0x1EDB JUMP JUMPDEST DUP6 ADD MLOAD PUSH0 NOT PUSH1 0xF8 DUP5 PUSH1 0x3 SHL AND SHR NOT AND SWAP1 SSTORE DUP7 DUP1 PUSH2 0x1F54 JUMP JUMPDEST SWAP2 SWAP3 DUP9 PUSH1 0x1 DUP2 SWAP3 DUP7 DUP11 ADD MLOAD DUP2 SSTORE ADD SWAP5 ADD SWAP3 ADD PUSH2 0x1F3F JUMP JUMPDEST DUP2 PUSH0 MSTORE PUSH1 0x20 PUSH0 KECCAK256 PUSH1 0x1F DUP3 ADD PUSH1 0x5 SHR DUP2 ADD SWAP6 PUSH1 0x20 DUP4 LT PUSH2 0x1FCA JUMPI JUMPDEST PUSH1 0x1F ADD PUSH1 0x5 SHR ADD SWAP5 JUMPDEST DUP6 DUP2 LT PUSH2 0x1FBF JUMPI POP PUSH2 0x1EB0 JUMP JUMPDEST PUSH0 DUP2 SSTORE PUSH1 0x1 ADD PUSH2 0x1FB2 JUMP JUMPDEST SWAP1 SWAP6 POP DUP6 SWAP1 PUSH2 0x1FA9 JUMP JUMPDEST SWAP1 SWAP2 SWAP3 SWAP6 PUSH1 0x20 DUP1 PUSH2 0x1FF4 PUSH1 0x1 SWAP4 DUP9 SWAP15 SWAP9 PUSH1 0x1F NOT SWAP1 DUP3 SUB ADD DUP7 MSTORE DUP11 MLOAD PUSH2 0x5685 JUMP JUMPDEST SWAP9 ADD SWAP3 ADD SWAP3 ADD SWAP1 SWAP3 SWAP2 SWAP10 SWAP4 SWAP10 PUSH2 0x1E19 JUMP JUMPDEST ADD MLOAD SWAP1 POP DUP14 DUP1 PUSH2 0x757 JUMP JUMPDEST SWAP1 PUSH1 0x1F NOT DUP4 AND SWAP2 DUP5 PUSH0 MSTORE DUP2 PUSH0 KECCAK256 SWAP3 PUSH0 JUMPDEST DUP2 DUP2 LT PUSH2 0x205F JUMPI POP SWAP2 PUSH1 0x1 SWAP4 SWAP2 DUP6 PUSH2 0x1A4D SWAP9 SWAP8 SWAP7 SWAP5 LT PUSH2 0x2047 JUMPI POP POP POP DUP2 SHL ADD SWAP1 SSTORE PUSH2 0x76B JUMP JUMPDEST ADD MLOAD PUSH0 NOT PUSH1 0xF8 DUP5 PUSH1 0x3 SHL AND SHR NOT AND SWAP1 SSTORE DUP14 DUP1 DUP1 PUSH2 0xC61 JUMP JUMPDEST SWAP3 SWAP4 PUSH1 0x20 PUSH1 0x1 DUP2 SWAP3 DUP8 DUP7 ADD MLOAD DUP2 SSTORE ADD SWAP6 ADD SWAP4 ADD PUSH2 0x2020 JUMP JUMPDEST DUP4 PUSH0 MSTORE PUSH1 0x20 PUSH0 KECCAK256 PUSH1 0x1F DUP5 ADD PUSH1 0x5 SHR DUP2 ADD SWAP2 PUSH1 0x20 DUP6 LT PUSH2 0x20B2 JUMPI JUMPDEST PUSH1 0x1F ADD PUSH1 0x5 SHR ADD SWAP1 JUMPDEST DUP2 DUP2 LT PUSH2 0x20A7 JUMPI POP PUSH2 0x1A17 JUMP JUMPDEST PUSH0 DUP2 SSTORE PUSH1 0x1 ADD PUSH2 0x209A JUMP JUMPDEST SWAP1 SWAP2 POP DUP2 SWAP1 PUSH2 0x2091 JUMP JUMPDEST SWAP1 POP DUP7 ADD MLOAD DUP13 PUSH2 0x19DC JUMP JUMPDEST PUSH0 DUP13 DUP2 MSTORE DUP2 DUP2 KECCAK256 SWAP3 POP PUSH1 0x1F NOT DUP5 AND SWAP1 JUMPDEST DUP2 DUP2 LT PUSH2 0x2110 JUMPI POP SWAP1 DUP4 PUSH1 0x1 SWAP5 SWAP4 SWAP3 LT PUSH2 0x20F8 JUMPI JUMPDEST POP POP DUP2 SHL ADD DUP10 SSTORE PUSH2 0x19EF JUMP JUMPDEST DUP9 ADD MLOAD PUSH0 NOT PUSH1 0xF8 DUP5 PUSH1 0x3 SHL AND SHR NOT AND SWAP1 SSTORE DUP13 DUP1 PUSH2 0x20EC JUMP JUMPDEST SWAP2 SWAP3 PUSH1 0x20 PUSH1 0x1 DUP2 SWAP3 DUP7 DUP14 ADD MLOAD DUP2 SSTORE ADD SWAP5 ADD SWAP3 ADD PUSH2 0x20D7 JUMP JUMPDEST DUP11 PUSH0 MSTORE PUSH1 0x20 PUSH0 KECCAK256 PUSH1 0x1F DUP4 ADD PUSH1 0x5 SHR DUP2 ADD SWAP2 PUSH1 0x20 DUP5 LT PUSH2 0x2163 JUMPI JUMPDEST PUSH1 0x1F ADD PUSH1 0x5 SHR ADD SWAP1 JUMPDEST DUP2 DUP2 LT PUSH2 0x2158 JUMPI POP PUSH2 0x19C6 JUMP JUMPDEST PUSH0 DUP2 SSTORE PUSH1 0x1 ADD PUSH2 0x214B JUMP JUMPDEST SWAP1 SWAP2 POP DUP2 SWAP1 PUSH2 0x2142 JUMP JUMPDEST PUSH2 0x2186 SWAP2 POP PUSH1 0x20 RETURNDATASIZE PUSH1 0x20 GT PUSH2 0xDCD JUMPI PUSH2 0xDBF DUP2 DUP4 PUSH2 0x574F JUMP JUMPDEST DUP10 PUSH2 0x1980 JUMP JUMPDEST PUSH4 0xCCA38335 PUSH1 0xE0 SHL PUSH0 MSTORE PUSH1 0x4 PUSH0 REVERT JUMPDEST PUSH1 0xA SWAP2 POP GT DUP10 PUSH2 0x1914 JUMP JUMPDEST POP PUSH4 0x1E13380 DUP6 GT PUSH2 0x18FB JUMP JUMPDEST POP CALLER PUSH0 SWAP1 DUP2 MSTORE PUSH0 DUP1 MLOAD PUSH1 0x20 PUSH2 0x6327 DUP4 CODECOPY DUP2 MLOAD SWAP2 MSTORE PUSH1 0x20 MSTORE PUSH1 0x40 SWAP1 KECCAK256 SLOAD PUSH1 0xFF AND ISZERO PUSH2 0x18EB JUMP JUMPDEST PUSH4 0x697DF94B PUSH1 0xE1 SHL PUSH0 MSTORE PUSH1 0x4 PUSH0 REVERT JUMPDEST CALLVALUE PUSH2 0x4B3 JUMPI PUSH1 0x40 CALLDATASIZE PUSH1 0x3 NOT ADD SLT PUSH2 0x4B3 JUMPI PUSH1 0x4 CALLDATALOAD PUSH1 0x3 DUP2 LT ISZERO PUSH2 0x4B3 JUMPI PUSH2 0x2210 PUSH1 0x24 CALLDATALOAD SWAP2 PUSH2 0x58EE JUMP JUMPDEST DUP1 SLOAD DUP3 LT ISZERO PUSH2 0x4B3 JUMPI PUSH1 0x20 SWAP2 PUSH2 0x2225 SWAP2 PUSH2 0x5615 JUMP JUMPDEST SWAP1 SLOAD SWAP1 PUSH1 0x3 SHL SHR PUSH1 0x40 MLOAD SWAP1 DUP2 MSTORE RETURN JUMPDEST CALLVALUE PUSH2 0x4B3 JUMPI PUSH1 0x40 CALLDATASIZE PUSH1 0x3 NOT ADD SLT PUSH2 0x4B3 JUMPI PUSH2 0x2277 PUSH1 0x4 CALLDATALOAD PUSH2 0x2253 PUSH2 0x5656 JUMP JUMPDEST SWAP1 PUSH2 0x2272 PUSH2 0x226D DUP3 PUSH0 MSTORE PUSH1 0x2 PUSH1 0x20 MSTORE PUSH1 0x1 PUSH1 0x40 PUSH0 KECCAK256 ADD SLOAD SWAP1 JUMP JUMPDEST PUSH2 0x5F8F JUMP JUMPDEST PUSH2 0x6226 JUMP JUMPDEST STOP JUMPDEST CALLVALUE PUSH2 0x4B3 JUMPI PUSH0 CALLDATASIZE PUSH1 0x3 NOT ADD SLT PUSH2 0x4B3 JUMPI PUSH2 0x2291 PUSH2 0x5F2E JUMP JUMPDEST PUSH1 0xA SLOAD PUSH1 0x1 PUSH1 0x1 PUSH1 0xA0 SHL SUB AND CALLER DUP2 EQ ISZERO DUP1 PUSH2 0x2375 JUMPI JUMPDEST PUSH2 0xE33 JUMPI PUSH1 0xB SLOAD SWAP1 DUP2 ISZERO PUSH2 0x2366 JUMPI PUSH0 PUSH1 0xB DUP2 SWAP1 SSTORE PUSH1 0x3 SLOAD PUSH1 0x40 MLOAD PUSH4 0xA9059CBB PUSH1 0xE0 SHL DUP2 MSTORE PUSH1 0x1 PUSH1 0x1 PUSH1 0xA0 SHL SUB SWAP4 DUP5 AND PUSH1 0x4 DUP3 ADD MSTORE PUSH1 0x24 DUP2 ADD DUP6 SWAP1 MSTORE SWAP3 PUSH1 0x20 SWAP3 DUP5 SWAP3 PUSH1 0x44 SWAP3 DUP5 SWAP3 SWAP2 PUSH1 0x8 SHR AND GAS CALL SWAP1 DUP2 ISZERO PUSH2 0xDD4 JUMPI PUSH0 SWAP2 PUSH2 0x2347 JUMPI JUMPDEST POP ISZERO PUSH2 0xD96 JUMPI PUSH1 0xA SLOAD PUSH1 0x40 MLOAD SWAP2 DUP3 MSTORE PUSH1 0x1 PUSH1 0x1 PUSH1 0xA0 SHL SUB AND SWAP1 PUSH32 0xFC7AD544FF6A06D6499925723D25B6FE70457A42939995B1D3D6F560FE336333 SWAP1 PUSH1 0x20 SWAP1 LOG2 PUSH1 0x1 DUP1 SSTORE STOP JUMPDEST PUSH2 0x2360 SWAP2 POP PUSH1 0x20 RETURNDATASIZE PUSH1 0x20 GT PUSH2 0xDCD JUMPI PUSH2 0xDBF DUP2 DUP4 PUSH2 0x574F JUMP JUMPDEST DUP3 PUSH2 0x2302 JUMP JUMPDEST PUSH4 0xD00DB4D PUSH1 0xE3 SHL PUSH0 MSTORE PUSH1 0x4 PUSH0 REVERT JUMPDEST POP PUSH0 SLOAD PUSH1 0x1 PUSH1 0x1 PUSH1 0xA0 SHL SUB AND CALLER EQ ISZERO PUSH2 0x22A7 JUMP JUMPDEST CALLVALUE PUSH2 0x4B3 JUMPI PUSH0 CALLDATASIZE PUSH1 0x3 NOT ADD SLT PUSH2 0x4B3 JUMPI PUSH1 0xA SLOAD PUSH1 0x40 MLOAD PUSH1 0x1 PUSH1 0x1 PUSH1 0xA0 SHL SUB SWAP1 SWAP2 AND DUP2 MSTORE PUSH1 0x20 SWAP1 RETURN JUMPDEST CALLVALUE PUSH2 0x4B3 JUMPI PUSH2 0x23C9 PUSH2 0x23C2 CALLDATASIZE PUSH2 0x58B8 JUMP JUMPDEST SWAP2 SWAP1 PUSH2 0x58D7 JUMP JUMPDEST DUP1 SLOAD SWAP1 DUP2 DUP4 GT ISZERO PUSH2 0x2442 JUMPI DUP2 JUMPDEST PUSH2 0x23DF DUP4 PUSH2 0x5D75 JUMP JUMPDEST SWAP4 DUP1 DUP3 GT ISZERO PUSH2 0x243A JUMPI PUSH2 0x23F1 SWAP2 PUSH2 0x5922 JUMP JUMPDEST PUSH0 JUMPDEST DUP4 DUP2 LT PUSH2 0x240C JUMPI PUSH1 0x40 MLOAD DUP1 PUSH2 0x2408 DUP8 DUP3 PUSH2 0x56A9 JUMP JUMPDEST SUB SWAP1 RETURN JUMPDEST DUP1 PUSH2 0x2422 PUSH2 0x241C PUSH1 0x1 SWAP4 DUP6 PUSH2 0x593D JUMP JUMPDEST DUP6 PUSH2 0x5615 JUMP JUMPDEST SWAP1 SLOAD SWAP1 PUSH1 0x3 SHL SHR PUSH2 0x2433 DUP3 DUP9 PUSH2 0x5DA7 JUMP JUMPDEST MSTORE ADD PUSH2 0x23F3 JUMP JUMPDEST POP POP PUSH0 PUSH2 0x23F1 JUMP JUMPDEST DUP3 SWAP2 PUSH2 0x23D6 JUMP JUMPDEST CALLVALUE PUSH2 0x4B3 JUMPI PUSH2 0x2457 CALLDATASIZE PUSH2 0x562A JUMP JUMPDEST SWAP1 PUSH2 0x2460 PUSH2 0x5F2E JUMP JUMPDEST PUSH2 0x2468 PUSH2 0x5F74 JUMP JUMPDEST PUSH1 0x6 SLOAD DUP2 LT ISZERO PUSH2 0x53A JUMPI DUP1 PUSH0 MSTORE PUSH1 0xC PUSH1 0x20 MSTORE PUSH1 0x2 PUSH1 0x40 PUSH0 KECCAK256 ADD SLOAD TIMESTAMP LT ISZERO PUSH2 0x144A JUMPI DUP1 PUSH0 MSTORE PUSH1 0xC PUSH1 0x20 MSTORE PUSH1 0xFF PUSH1 0x5 PUSH1 0x40 PUSH0 KECCAK256 ADD SLOAD AND PUSH2 0x143B JUMPI DUP1 PUSH0 MSTORE PUSH1 0xC PUSH1 0x20 MSTORE PUSH1 0xA PUSH1 0x40 PUSH0 KECCAK256 ADD SLOAD DUP3 LT ISZERO PUSH2 0x142C JUMPI DUP1 PUSH0 MSTORE PUSH1 0xC PUSH1 0x20 MSTORE PUSH1 0xF PUSH1 0x40 PUSH0 KECCAK256 ADD DUP3 PUSH0 MSTORE PUSH1 0x20 MSTORE PUSH1 0xFF PUSH1 0x5 PUSH1 0x40 PUSH0 KECCAK256 ADD SLOAD AND ISZERO PUSH2 0x141D JUMPI DUP1 PUSH0 MSTORE PUSH1 0xC PUSH1 0x20 MSTORE PUSH1 0x40 PUSH0 KECCAK256 PUSH1 0xFF PUSH1 0x3 DUP3 ADD SLOAD PUSH1 0x8 SHR AND PUSH1 0x3 DUP2 LT ISZERO PUSH2 0x26D4 JUMPI PUSH1 0x1 SUB PUSH2 0x26C5 JUMPI PUSH1 0xFF PUSH1 0x1A DUP3 ADD SLOAD AND ISZERO PUSH2 0x26B6 JUMPI CALLER PUSH0 SWAP1 DUP2 MSTORE PUSH1 0x1B DUP3 ADD PUSH1 0x20 DUP2 SWAP1 MSTORE PUSH1 0x40 SWAP1 SWAP2 KECCAK256 SLOAD PUSH1 0xFF AND PUSH2 0x26A7 JUMPI PUSH1 0x19 DUP3 ADD SWAP2 DUP3 SLOAD PUSH1 0x17 DUP3 ADD SLOAD GT ISZERO PUSH2 0x2698 JUMPI CALLER PUSH0 MSTORE PUSH1 0x14 PUSH1 0x20 MSTORE PUSH1 0x40 PUSH0 KECCAK256 SLOAD SWAP3 PUSH2 0x255A PUSH1 0x18 DUP4 ADD SLOAD DUP1 SWAP6 PUSH2 0x593D JUMP JUMPDEST PUSH1 0x9 SLOAD LT PUSH2 0x2689 JUMPI CALLER PUSH0 SWAP1 DUP2 MSTORE PUSH1 0x20 SWAP4 DUP5 MSTORE PUSH1 0x40 DUP1 DUP3 KECCAK256 DUP1 SLOAD PUSH1 0xFF NOT AND PUSH1 0x1 OR SWAP1 SSTORE PUSH1 0x1C DUP5 ADD SWAP1 SWAP5 MSTORE SWAP3 SWAP1 SWAP3 KECCAK256 DUP4 SWAP1 SSTORE DUP2 SLOAD PUSH1 0xF SWAP3 SWAP1 PUSH2 0x2599 SWAP1 PUSH2 0x592F JUMP JUMPDEST SWAP1 SSTORE CALLER PUSH0 MSTORE PUSH1 0x14 PUSH1 0x20 MSTORE PUSH1 0x40 PUSH0 KECCAK256 PUSH2 0x25B2 DUP5 DUP3 SLOAD PUSH2 0x593D JUMP JUMPDEST SWAP1 SSTORE PUSH2 0x25BE DUP5 CALLER PUSH2 0x62AA JUMP JUMPDEST PUSH2 0x265D JUMPI JUMPDEST PUSH1 0x1 DUP1 PUSH1 0xA0 SHL SUB CALLER AND PUSH0 MSTORE PUSH1 0x10 DUP2 ADD PUSH1 0x20 MSTORE PUSH1 0x40 PUSH0 KECCAK256 DUP6 PUSH0 MSTORE PUSH1 0x20 MSTORE PUSH1 0x40 PUSH0 KECCAK256 PUSH2 0x25EE DUP5 DUP3 SLOAD PUSH2 0x593D JUMP JUMPDEST SWAP1 SSTORE DUP5 PUSH0 MSTORE ADD PUSH1 0x20 MSTORE PUSH1 0x2 PUSH1 0x40 PUSH0 KECCAK256 ADD PUSH2 0x2609 DUP3 DUP3 SLOAD PUSH2 0x593D JUMP JUMPDEST SWAP1 SSTORE CALLER PUSH0 MSTORE PUSH1 0xD PUSH1 0x20 MSTORE PUSH1 0x4 PUSH1 0x40 PUSH0 KECCAK256 ADD PUSH2 0x2624 DUP2 SLOAD PUSH2 0x592F JUMP JUMPDEST SWAP1 SSTORE PUSH1 0x40 MLOAD SWAP3 DUP4 MSTORE PUSH1 0x20 DUP4 ADD MSTORE PUSH32 0xBA1358E4391D1F20B35776C79553F82C2795E406EB2237BCD294702BF75BD56D PUSH1 0x40 CALLER SWAP4 LOG3 PUSH1 0x1 DUP1 SSTORE STOP JUMPDEST PUSH2 0x266A CALLER PUSH1 0x14 DUP4 ADD PUSH2 0x5F11 JUMP JUMPDEST CALLER PUSH0 MSTORE PUSH1 0xD PUSH1 0x20 MSTORE PUSH1 0x40 PUSH0 KECCAK256 SLOAD PUSH2 0x25C3 JUMPI PUSH2 0x2684 CALLER PUSH2 0x5ECC JUMP JUMPDEST PUSH2 0x25C3 JUMP JUMPDEST PUSH4 0xB8C66799 PUSH1 0xE0 SHL PUSH0 MSTORE PUSH1 0x4 PUSH0 REVERT JUMPDEST PUSH4 0x1D28DD2D PUSH1 0xE0 SHL PUSH0 MSTORE PUSH1 0x4 PUSH0 REVERT JUMPDEST PUSH4 0x2E98E03 PUSH1 0xE3 SHL PUSH0 MSTORE PUSH1 0x4 PUSH0 REVERT JUMPDEST PUSH4 0x6883C16D PUSH1 0xE0 SHL PUSH0 MSTORE PUSH1 0x4 PUSH0 REVERT JUMPDEST PUSH4 0x48C511C9 PUSH1 0xE1 SHL PUSH0 MSTORE PUSH1 0x4 PUSH0 REVERT JUMPDEST PUSH4 0x4E487B71 PUSH1 0xE0 SHL PUSH0 MSTORE PUSH1 0x21 PUSH1 0x4 MSTORE PUSH1 0x24 PUSH0 REVERT JUMPDEST CALLVALUE PUSH2 0x4B3 JUMPI PUSH0 CALLDATASIZE PUSH1 0x3 NOT ADD SLT PUSH2 0x4B3 JUMPI PUSH1 0x20 PUSH1 0x7 SLOAD PUSH1 0x40 MLOAD SWAP1 DUP2 MSTORE RETURN JUMPDEST CALLVALUE PUSH2 0x4B3 JUMPI PUSH1 0x20 CALLDATASIZE PUSH1 0x3 NOT ADD SLT PUSH2 0x4B3 JUMPI PUSH1 0x1 PUSH1 0x1 PUSH1 0xA0 SHL SUB PUSH2 0x2726 PUSH2 0x5640 JUMP JUMPDEST AND PUSH0 MSTORE PUSH1 0xD PUSH1 0x20 MSTORE PUSH1 0xA0 PUSH1 0x40 PUSH0 KECCAK256 DUP1 SLOAD SWAP1 PUSH1 0x1 DUP2 ADD SLOAD SWAP1 PUSH1 0x2 DUP2 ADD SLOAD PUSH1 0x4 PUSH1 0x3 DUP4 ADD SLOAD SWAP3 ADD SLOAD SWAP3 PUSH1 0x40 MLOAD SWAP5 DUP6 MSTORE PUSH1 0x20 DUP6 ADD MSTORE PUSH1 0x40 DUP5 ADD MSTORE PUSH1 0x60 DUP4 ADD MSTORE PUSH1 0x80 DUP3 ADD MSTORE RETURN JUMPDEST CALLVALUE PUSH2 0x4B3 JUMPI PUSH1 0x20 CALLDATASIZE PUSH1 0x3 NOT ADD SLT PUSH2 0x4B3 JUMPI PUSH1 0x1 PUSH1 0x1 PUSH1 0xA0 SHL SUB PUSH2 0x278A PUSH2 0x5640 JUMP JUMPDEST AND PUSH0 MSTORE PUSH1 0x14 PUSH1 0x20 MSTORE PUSH1 0x20 PUSH1 0x40 PUSH0 KECCAK256 SLOAD PUSH1 0x40 MLOAD SWAP1 DUP2 MSTORE RETURN JUMPDEST CALLVALUE PUSH2 0x4B3 JUMPI PUSH1 0x20 PUSH2 0x27D4 PUSH2 0x27B4 CALLDATASIZE PUSH2 0x562A JUMP JUMPDEST SWAP1 PUSH0 MSTORE PUSH1 0xC PUSH1 0x20 MSTORE PUSH1 0xF PUSH1 0x40 PUSH0 KECCAK256 ADD SWAP1 PUSH0 MSTORE PUSH1 0x20 MSTORE PUSH1 0x4 PUSH1 0x40 PUSH0 KECCAK256 ADD SLOAD SWAP1 JUMP JUMPDEST PUSH1 0x40 MLOAD SWAP1 DUP2 MSTORE RETURN JUMPDEST CALLVALUE PUSH2 0x4B3 JUMPI PUSH1 0x20 CALLDATASIZE PUSH1 0x3 NOT ADD SLT PUSH2 0x4B3 JUMPI PUSH2 0x2277 PUSH2 0x27F8 PUSH2 0x5640 JUMP JUMPDEST PUSH2 0x2800 PUSH2 0x5F4E JUMP JUMPDEST PUSH32 0xD486618B282CB35034D59C30C062B5B3822D6CDF87EC459191CE7F5B7B8A4873 PUSH0 MSTORE PUSH1 0x2 PUSH1 0x20 MSTORE PUSH32 0xD3DCCF8D8289B9DEEE17E361620D7577DE7B525DD57F668D5C1BB85EC53112B6 SLOAD PUSH2 0x2853 SWAP1 PUSH2 0x5F8F JUMP JUMPDEST PUSH2 0x60F4 JUMP JUMPDEST CALLVALUE PUSH2 0x4B3 JUMPI PUSH1 0x20 CALLDATASIZE PUSH1 0x3 NOT ADD SLT PUSH2 0x4B3 JUMPI PUSH1 0x4 CALLDATALOAD PUSH1 0x6 SLOAD DUP2 LT ISZERO PUSH2 0x53A JUMPI CALLER PUSH0 SWAP1 DUP2 MSTORE PUSH32 0xD3DCCF8D8289B9DEEE17E361620D7577DE7B525DD57F668D5C1BB85EC53112B5 PUSH1 0x20 MSTORE PUSH1 0x40 SWAP1 KECCAK256 SLOAD PUSH1 0xFF AND ISZERO DUP1 PUSH2 0x2925 JUMPI JUMPDEST PUSH2 0xE33 JUMPI DUP1 PUSH0 MSTORE PUSH1 0xC PUSH1 0x20 MSTORE PUSH1 0xFF PUSH1 0x5 PUSH1 0x40 PUSH0 KECCAK256 ADD SLOAD PUSH1 0x10 SHR AND PUSH2 0x2916 JUMPI DUP1 PUSH0 MSTORE PUSH1 0xC PUSH1 0x20 MSTORE PUSH1 0x5 PUSH1 0x40 PUSH0 KECCAK256 ADD PUSH3 0x10000 PUSH3 0xFF0000 NOT DUP3 SLOAD AND OR SWAP1 SSTORE PUSH32 0xCD5B0C95D548CDBA5F9A45B4210642D0B866A0CC878E0A863855455908C6DB65 PUSH1 0x20 PUSH1 0x40 MLOAD CALLER DUP2 MSTORE LOG2 STOP JUMPDEST PUSH4 0xAA43CB2D PUSH1 0xE0 SHL PUSH0 MSTORE PUSH1 0x4 PUSH0 REVERT JUMPDEST POP PUSH0 SLOAD PUSH1 0x1 PUSH1 0x1 PUSH1 0xA0 SHL SUB AND CALLER EQ ISZERO PUSH2 0x28AE JUMP JUMPDEST CALLVALUE PUSH2 0x4B3 JUMPI PUSH2 0x2210 PUSH2 0x23C2 CALLDATASIZE PUSH2 0x58B8 JUMP JUMPDEST CALLVALUE PUSH2 0x4B3 JUMPI PUSH2 0x2958 CALLDATASIZE PUSH2 0x5885 JUMP JUMPDEST SWAP2 PUSH0 MSTORE PUSH1 0x10 PUSH1 0x20 MSTORE PUSH1 0x40 PUSH0 KECCAK256 SWAP1 PUSH0 MSTORE PUSH1 0x20 MSTORE PUSH1 0x40 PUSH0 KECCAK256 DUP1 SLOAD DUP3 LT ISZERO PUSH2 0x4B3 JUMPI PUSH1 0x60 SWAP2 PUSH2 0x2983 SWAP2 PUSH2 0x589F JUMP JUMPDEST POP DUP1 SLOAD SWAP1 PUSH1 0x2 PUSH1 0x1 DUP3 ADD SLOAD SWAP2 ADD SLOAD SWAP1 PUSH1 0x40 MLOAD SWAP3 DUP4 MSTORE PUSH1 0x20 DUP4 ADD MSTORE PUSH1 0x40 DUP3 ADD MSTORE RETURN JUMPDEST CALLVALUE PUSH2 0x4B3 JUMPI PUSH1 0x20 CALLDATASIZE PUSH1 0x3 NOT ADD SLT PUSH2 0x4B3 JUMPI PUSH2 0x29BD PUSH2 0x5640 JUMP JUMPDEST PUSH2 0x29C5 PUSH2 0x5F4E JUMP JUMPDEST PUSH1 0x1 PUSH1 0x1 PUSH1 0xA0 SHL SUB AND DUP1 ISZERO PUSH2 0x45D JUMPI PUSH1 0xA DUP1 SLOAD PUSH1 0x1 PUSH1 0x1 PUSH1 0xA0 SHL SUB NOT DUP2 AND DUP4 OR SWAP1 SWAP2 SSTORE PUSH1 0x1 PUSH1 0x1 PUSH1 0xA0 SHL SUB AND PUSH32 0x5D16AD41BAEB009CD23EB8F6C7CDE5C2E0CD5ACF4A33926AB488875C37C37F38 PUSH0 DUP1 LOG3 STOP JUMPDEST CALLVALUE PUSH2 0x4B3 JUMPI PUSH0 CALLDATASIZE PUSH1 0x3 NOT ADD SLT PUSH2 0x4B3 JUMPI PUSH1 0x20 PUSH1 0x40 MLOAD PUSH0 DUP2 MSTORE RETURN JUMPDEST CALLVALUE PUSH2 0x4B3 JUMPI PUSH1 0x20 CALLDATASIZE PUSH1 0x3 NOT ADD SLT PUSH2 0x4B3 JUMPI PUSH1 0x4 CALLDATALOAD PUSH2 0x2A4D PUSH2 0x5F2E JUMP JUMPDEST PUSH1 0x6 SLOAD DUP2 LT ISZERO PUSH2 0x53A JUMPI DUP1 PUSH0 MSTORE PUSH1 0xC PUSH1 0x20 MSTORE PUSH1 0x40 PUSH0 KECCAK256 SWAP1 PUSH1 0x12 DUP3 ADD SWAP2 PUSH1 0x1 DUP1 PUSH1 0xA0 SHL SUB CALLER AND PUSH0 MSTORE DUP3 PUSH1 0x20 MSTORE PUSH1 0x40 PUSH0 KECCAK256 SLOAD ISZERO PUSH2 0x2BC8 JUMPI PUSH1 0x13 DUP2 ADD SWAP3 PUSH1 0x1 DUP1 PUSH1 0xA0 SHL SUB CALLER AND PUSH0 MSTORE DUP4 PUSH1 0x20 MSTORE PUSH1 0xFF PUSH1 0x40 PUSH0 KECCAK256 SLOAD AND PUSH2 0x2BB9 JUMPI PUSH1 0xD DUP3 ADD SLOAD SWAP2 DUP3 ISZERO PUSH2 0x2BAA JUMPI PUSH1 0xB ADD SLOAD CALLER PUSH0 SWAP1 DUP2 MSTORE PUSH1 0x20 SWAP3 SWAP1 SWAP3 MSTORE PUSH1 0x40 SWAP1 SWAP2 KECCAK256 SLOAD PUSH2 0x2AD5 SWAP3 PUSH2 0x2AD0 SWAP2 PUSH2 0x5905 JUMP JUMPDEST PUSH2 0x5918 JUMP JUMPDEST SWAP2 DUP3 ISZERO PUSH2 0x2BAA JUMPI CALLER PUSH0 SWAP1 DUP2 MSTORE PUSH1 0x20 SWAP2 DUP3 MSTORE PUSH1 0x40 DUP1 DUP3 KECCAK256 DUP1 SLOAD PUSH1 0xFF NOT AND PUSH1 0x1 OR SWAP1 SSTORE PUSH1 0x15 SWAP1 SWAP3 MSTORE KECCAK256 DUP1 SLOAD PUSH2 0x2B09 SWAP1 DUP5 SWAP1 PUSH2 0x593D JUMP JUMPDEST SWAP1 SSTORE PUSH1 0x3 SLOAD PUSH1 0x40 MLOAD PUSH4 0xA9059CBB PUSH1 0xE0 SHL DUP2 MSTORE CALLER PUSH1 0x4 DUP3 ADD MSTORE PUSH1 0x24 DUP2 ADD DUP5 SWAP1 MSTORE SWAP1 PUSH1 0x20 SWAP1 DUP3 SWAP1 PUSH1 0x8 SHR PUSH1 0x1 PUSH1 0x1 PUSH1 0xA0 SHL SUB AND DUP2 PUSH0 DUP2 PUSH1 0x44 DUP2 ADD SUB SWAP3 GAS CALL SWAP1 DUP2 ISZERO PUSH2 0xDD4 JUMPI PUSH0 SWAP2 PUSH2 0x2B8B JUMPI JUMPDEST POP ISZERO PUSH2 0xD96 JUMPI PUSH1 0x40 MLOAD SWAP2 DUP3 MSTORE PUSH32 0xA43A50778AEE751DD1829F631AD20E6E54E5B672B014CA07F028797B1FE89C91 PUSH1 0x20 CALLER SWAP4 LOG3 PUSH1 0x1 DUP1 SSTORE STOP JUMPDEST PUSH2 0x2BA4 SWAP2 POP PUSH1 0x20 RETURNDATASIZE PUSH1 0x20 GT PUSH2 0xDCD JUMPI PUSH2 0xDBF DUP2 DUP4 PUSH2 0x574F JUMP JUMPDEST DUP4 PUSH2 0x2B53 JUMP JUMPDEST PUSH4 0xEA1A19B PUSH1 0xE2 SHL PUSH0 MSTORE PUSH1 0x4 PUSH0 REVERT JUMPDEST PUSH4 0xC8D9EAB PUSH1 0xE3 SHL PUSH0 MSTORE PUSH1 0x4 PUSH0 REVERT JUMPDEST PUSH4 0xEEEC57A1 PUSH1 0xE0 SHL PUSH0 MSTORE PUSH1 0x4 PUSH0 REVERT JUMPDEST CALLVALUE PUSH2 0x4B3 JUMPI PUSH1 0x20 CALLDATASIZE PUSH1 0x3 NOT ADD SLT PUSH2 0x4B3 JUMPI PUSH1 0x1 PUSH1 0x1 PUSH1 0xA0 SHL SUB PUSH2 0x2BF8 PUSH2 0x5640 JUMP JUMPDEST AND PUSH0 MSTORE PUSH1 0x15 PUSH1 0x20 MSTORE PUSH1 0x20 PUSH1 0x40 PUSH0 KECCAK256 SLOAD PUSH1 0x40 MLOAD SWAP1 DUP2 MSTORE RETURN JUMPDEST CALLVALUE PUSH2 0x4B3 JUMPI PUSH0 CALLDATASIZE PUSH1 0x3 NOT ADD SLT PUSH2 0x4B3 JUMPI PUSH1 0x20 PUSH1 0x40 MLOAD PUSH2 0xE10 DUP2 MSTORE RETURN JUMPDEST CALLVALUE PUSH2 0x4B3 JUMPI PUSH1 0x20 CALLDATASIZE PUSH1 0x3 NOT ADD SLT PUSH2 0x4B3 JUMPI PUSH1 0x4 CALLDATALOAD PUSH2 0x2C47 PUSH2 0x5F4E JUMP JUMPDEST PUSH2 0x3E8 DUP2 GT PUSH2 0x2C55 JUMPI PUSH1 0x8 SSTORE STOP JUMPDEST PUSH4 0xCD4E6167 PUSH1 0xE0 SHL PUSH0 MSTORE PUSH1 0x4 PUSH0 REVERT JUMPDEST CALLVALUE PUSH2 0x4B3 JUMPI PUSH1 0x40 CALLDATASIZE PUSH1 0x3 NOT ADD SLT PUSH2 0x4B3 JUMPI PUSH2 0x2C7D PUSH2 0x5656 JUMP JUMPDEST PUSH1 0x4 CALLDATALOAD PUSH0 MSTORE PUSH1 0x2 PUSH1 0x20 MSTORE PUSH1 0x40 PUSH0 KECCAK256 SWAP1 PUSH1 0x1 DUP1 PUSH1 0xA0 SHL SUB AND PUSH0 MSTORE PUSH1 0x20 MSTORE PUSH1 0x20 PUSH1 0xFF PUSH1 0x40 PUSH0 KECCAK256 SLOAD AND PUSH1 0x40 MLOAD SWAP1 ISZERO ISZERO DUP2 MSTORE RETURN JUMPDEST CALLVALUE PUSH2 0x4B3 JUMPI PUSH0 CALLDATASIZE PUSH1 0x3 NOT ADD SLT PUSH2 0x4B3 JUMPI PUSH0 SLOAD PUSH1 0x40 MLOAD PUSH1 0x1 PUSH1 0x1 PUSH1 0xA0 SHL SUB SWAP1 SWAP2 AND DUP2 MSTORE PUSH1 0x20 SWAP1 RETURN JUMPDEST CALLVALUE PUSH2 0x4B3 JUMPI PUSH1 0x20 CALLDATASIZE PUSH1 0x3 NOT ADD SLT PUSH2 0x4B3 JUMPI PUSH1 0x1 PUSH1 0x1 PUSH1 0xA0 SHL SUB PUSH2 0x2CF5 PUSH2 0x5640 JUMP JUMPDEST AND PUSH0 MSTORE PUSH1 0x12 PUSH1 0x20 MSTORE PUSH1 0x20 PUSH1 0x40 PUSH0 KECCAK256 SLOAD PUSH1 0x40 MLOAD SWAP1 DUP2 MSTORE RETURN JUMPDEST CALLVALUE PUSH2 0x4B3 JUMPI PUSH0 CALLDATASIZE PUSH1 0x3 NOT ADD SLT PUSH2 0x4B3 JUMPI PUSH2 0x2D24 PUSH2 0x5F4E JUMP JUMPDEST PUSH2 0x2D2C PUSH2 0x5F74 JUMP JUMPDEST PUSH1 0x1 PUSH1 0xFF NOT PUSH1 0x3 SLOAD AND OR PUSH1 0x3 SSTORE PUSH32 0x62E78CEA01BEE320CD4E420270B5EA74000D11B0C9F74754EBDBFC544B05A258 PUSH1 0x20 PUSH1 0x40 MLOAD CALLER DUP2 MSTORE LOG1 STOP JUMPDEST CALLVALUE PUSH2 0x4B3 JUMPI PUSH1 0x40 CALLDATASIZE PUSH1 0x3 NOT ADD SLT PUSH2 0x4B3 JUMPI PUSH1 0x4 CALLDATALOAD PUSH2 0x2D81 PUSH2 0x5656 JUMP JUMPDEST SWAP1 PUSH1 0x6 SLOAD DUP2 LT ISZERO PUSH2 0x53A JUMPI PUSH0 MSTORE PUSH1 0xC PUSH1 0x20 MSTORE PUSH1 0x40 PUSH0 KECCAK256 SWAP1 PUSH1 0xA DUP3 ADD SLOAD SWAP1 PUSH2 0x2DA7 DUP3 PUSH2 0x5D75 JUMP JUMPDEST SWAP3 PUSH1 0x10 ADD SWAP1 PUSH1 0x1 PUSH1 0x1 PUSH1 0xA0 SHL SUB AND PUSH0 JUMPDEST DUP4 DUP2 LT PUSH2 0x2DCC JUMPI PUSH1 0x40 MLOAD DUP1 PUSH2 0x2408 DUP8 DUP3 PUSH2 0x56A9 JUMP JUMPDEST PUSH1 0x1 SWAP1 DUP3 PUSH0 MSTORE DUP4 PUSH1 0x20 MSTORE PUSH1 0x40 PUSH0 KECCAK256 DUP2 PUSH0 MSTORE PUSH1 0x20 MSTORE PUSH1 0x40 PUSH0 KECCAK256 SLOAD PUSH2 0x2DEF DUP3 DUP9 PUSH2 0x5DA7 JUMP JUMPDEST MSTORE ADD PUSH2 0x2DB7 JUMP JUMPDEST CALLVALUE PUSH2 0x4B3 JUMPI PUSH0 CALLDATASIZE PUSH1 0x3 NOT ADD SLT PUSH2 0x4B3 JUMPI PUSH1 0x20 PUSH1 0xB SLOAD PUSH1 0x40 MLOAD SWAP1 DUP2 MSTORE RETURN JUMPDEST CALLVALUE PUSH2 0x4B3 JUMPI PUSH0 CALLDATASIZE PUSH1 0x3 NOT ADD SLT PUSH2 0x4B3 JUMPI PUSH1 0x20 PUSH1 0x40 MLOAD PUSH4 0x1E13380 DUP2 MSTORE RETURN JUMPDEST CALLVALUE PUSH2 0x4B3 JUMPI PUSH2 0x2E3F CALLDATASIZE PUSH2 0x5885 JUMP JUMPDEST SWAP2 PUSH0 MSTORE PUSH1 0x10 PUSH1 0x20 MSTORE PUSH1 0x40 PUSH0 KECCAK256 SWAP1 PUSH0 MSTORE PUSH1 0x20 MSTORE PUSH1 0x40 PUSH0 KECCAK256 DUP1 SLOAD SWAP1 DUP2 DUP4 GT PUSH0 EQ PUSH2 0x2F92 JUMPI DUP2 JUMPDEST PUSH2 0x2E6C DUP4 PUSH2 0x57C5 JUMP JUMPDEST SWAP4 PUSH2 0x2E7A PUSH1 0x40 MLOAD SWAP6 DUP7 PUSH2 0x574F JUMP JUMPDEST DUP4 DUP6 MSTORE PUSH1 0x1F NOT PUSH2 0x2E89 DUP6 PUSH2 0x57C5 JUMP JUMPDEST ADD PUSH0 JUMPDEST DUP2 DUP2 LT PUSH2 0x2F69 JUMPI POP POP DUP1 DUP3 GT ISZERO PUSH2 0x2F61 JUMPI PUSH2 0x2EA6 SWAP2 PUSH2 0x5922 JUMP JUMPDEST PUSH0 JUMPDEST DUP4 DUP2 LT PUSH2 0x2F0B JUMPI DUP5 PUSH1 0x40 MLOAD DUP1 SWAP2 PUSH1 0x20 DUP3 ADD PUSH1 0x20 DUP4 MSTORE DUP2 MLOAD DUP1 SWAP2 MSTORE PUSH1 0x20 PUSH1 0x40 DUP5 ADD SWAP3 ADD SWAP1 PUSH0 JUMPDEST DUP2 DUP2 LT PUSH2 0x2EDB JUMPI POP POP POP SUB SWAP1 RETURN JUMPDEST SWAP2 SWAP4 POP SWAP2 PUSH1 0x20 PUSH1 0x60 PUSH1 0x1 SWAP3 PUSH1 0x40 DUP8 MLOAD DUP1 MLOAD DUP4 MSTORE DUP5 DUP2 ADD MLOAD DUP6 DUP5 ADD MSTORE ADD MLOAD PUSH1 0x40 DUP3 ADD MSTORE ADD SWAP5 ADD SWAP2 ADD SWAP2 DUP5 SWAP4 SWAP3 PUSH2 0x2ECD JUMP JUMPDEST DUP1 PUSH2 0x2F21 PUSH2 0x2F1B PUSH1 0x1 SWAP4 DUP6 PUSH2 0x593D JUMP JUMPDEST DUP6 PUSH2 0x589F JUMP JUMPDEST POP PUSH1 0x2 PUSH1 0x40 MLOAD SWAP2 PUSH2 0x2F31 DUP4 PUSH2 0x56FD JUMP JUMPDEST DUP1 SLOAD DUP4 MSTORE DUP5 DUP2 ADD SLOAD PUSH1 0x20 DUP5 ADD MSTORE ADD SLOAD PUSH1 0x40 DUP3 ADD MSTORE PUSH2 0x2F4F DUP3 DUP9 PUSH2 0x5DA7 JUMP JUMPDEST MSTORE PUSH2 0x2F5A DUP2 DUP8 PUSH2 0x5DA7 JUMP JUMPDEST POP ADD PUSH2 0x2EA8 JUMP JUMPDEST POP POP PUSH0 PUSH2 0x2EA6 JUMP JUMPDEST PUSH1 0x20 SWAP1 PUSH1 0x40 MLOAD PUSH2 0x2F78 DUP2 PUSH2 0x56FD JUMP JUMPDEST PUSH0 DUP2 MSTORE PUSH0 DUP4 DUP3 ADD MSTORE PUSH0 PUSH1 0x40 DUP3 ADD MSTORE DUP3 DUP3 DUP11 ADD ADD MSTORE ADD PUSH2 0x2E8C JUMP JUMPDEST DUP3 SWAP2 PUSH2 0x2E63 JUMP JUMPDEST CALLVALUE PUSH2 0x4B3 JUMPI PUSH0 CALLDATASIZE PUSH1 0x3 NOT ADD SLT PUSH2 0x4B3 JUMPI PUSH1 0x20 PUSH1 0x40 MLOAD PUSH32 0xEF485BE696BBC0C91AD541BBD553FFB5BD0E18DAC30BA76E992DDA23CB807A8A DUP2 MSTORE RETURN JUMPDEST CALLVALUE PUSH2 0x4B3 JUMPI PUSH0 CALLDATASIZE PUSH1 0x3 NOT ADD SLT PUSH2 0x4B3 JUMPI PUSH1 0x20 PUSH1 0x40 MLOAD PUSH32 0xDCEE1D35C83A32B436264A5C9AFD68685C124F3F9097E87804C55410E67FC59A DUP2 MSTORE RETURN JUMPDEST CALLVALUE PUSH2 0x4B3 JUMPI PUSH0 CALLDATASIZE PUSH1 0x3 NOT ADD SLT PUSH2 0x4B3 JUMPI PUSH2 0x3025 PUSH2 0x5F4E JUMP JUMPDEST PUSH0 DUP1 SLOAD PUSH1 0x1 PUSH1 0x1 PUSH1 0xA0 SHL SUB NOT DUP2 AND DUP3 SSTORE PUSH1 0x1 PUSH1 0x1 PUSH1 0xA0 SHL SUB AND PUSH32 0x8BE0079C531659141344CD1FD0A4F28419497F9722A3DAAFE3B4186F6B6457E0 DUP3 DUP1 LOG3 STOP JUMPDEST CALLVALUE PUSH2 0x4B3 JUMPI PUSH2 0x3072 CALLDATASIZE PUSH2 0x562A JUMP JUMPDEST SWAP1 PUSH2 0x307B PUSH2 0x5F2E JUMP JUMPDEST PUSH1 0x6 SLOAD DUP2 LT ISZERO PUSH2 0x53A JUMPI DUP2 ISZERO PUSH2 0x140E JUMPI PUSH1 0x3 SLOAD PUSH1 0x40 MLOAD PUSH4 0x23B872DD PUSH1 0xE0 SHL DUP2 MSTORE CALLER PUSH1 0x4 DUP3 ADD MSTORE ADDRESS PUSH1 0x24 DUP3 ADD MSTORE PUSH1 0x44 DUP2 ADD DUP5 SWAP1 MSTORE SWAP1 PUSH1 0x20 SWAP1 DUP3 SWAP1 PUSH1 0x8 SHR PUSH1 0x1 PUSH1 0x1 PUSH1 0xA0 SHL SUB AND DUP2 PUSH0 DUP2 PUSH1 0x64 DUP2 ADD SUB SWAP3 GAS CALL SWAP1 DUP2 ISZERO PUSH2 0xDD4 JUMPI PUSH0 SWAP2 PUSH2 0x31DC JUMPI JUMPDEST POP ISZERO PUSH2 0xD96 JUMPI DUP1 PUSH0 MSTORE PUSH1 0xC PUSH1 0x20 MSTORE PUSH1 0x40 PUSH0 KECCAK256 SWAP1 PUSH1 0xB DUP3 ADD PUSH2 0x30FB DUP5 DUP3 SLOAD PUSH2 0x593D JUMP JUMPDEST SWAP1 SSTORE CALLER PUSH0 SWAP1 DUP2 MSTORE PUSH1 0x12 DUP4 ADD PUSH1 0x20 DUP2 SWAP1 MSTORE PUSH1 0x40 SWAP1 SWAP2 KECCAK256 SLOAD ISZERO PUSH2 0x31CA JUMPI JUMPDEST PUSH1 0x1 DUP1 PUSH1 0xA0 SHL SUB CALLER AND PUSH0 MSTORE PUSH1 0x20 MSTORE PUSH1 0x40 PUSH0 KECCAK256 PUSH2 0x3134 DUP5 DUP3 SLOAD PUSH2 0x593D JUMP JUMPDEST SWAP1 SSTORE PUSH1 0xA DUP3 ADD SWAP2 PUSH2 0x3146 DUP4 SLOAD DUP6 PUSH2 0x5918 JUMP JUMPDEST SWAP2 PUSH1 0xF PUSH0 SWAP3 ADD SWAP2 JUMPDEST DUP5 SLOAD DUP2 LT ISZERO PUSH2 0x3196 JUMPI DUP1 PUSH1 0x1 SWAP2 PUSH0 MSTORE DUP4 PUSH1 0x20 MSTORE PUSH1 0x6 PUSH1 0x40 PUSH0 KECCAK256 ADD PUSH2 0x3173 DUP7 DUP3 SLOAD PUSH2 0x593D JUMP JUMPDEST SWAP1 SSTORE DUP1 PUSH0 MSTORE DUP4 PUSH1 0x20 MSTORE PUSH1 0x7 PUSH1 0x40 PUSH0 KECCAK256 ADD PUSH2 0x318E DUP7 DUP3 SLOAD PUSH2 0x593D JUMP JUMPDEST SWAP1 SSTORE ADD PUSH2 0x314E JUMP JUMPDEST DUP6 DUP3 PUSH1 0x40 MLOAD SWAP2 DUP3 MSTORE PUSH32 0xC733C2813826D31C105DBFF518B08258E9E7AEB3EB1C7C7F642D77696FAF501D PUSH1 0x20 CALLER SWAP4 LOG3 PUSH1 0x1 DUP1 SSTORE STOP JUMPDEST PUSH2 0x31D7 CALLER PUSH1 0x15 DUP6 ADD PUSH2 0x5F11 JUMP JUMPDEST PUSH2 0x3117 JUMP JUMPDEST PUSH2 0x31F5 SWAP2 POP PUSH1 0x20 RETURNDATASIZE PUSH1 0x20 GT PUSH2 0xDCD JUMPI PUSH2 0xDBF DUP2 DUP4 PUSH2 0x574F JUMP JUMPDEST DUP4 PUSH2 0x30D9 JUMP JUMPDEST CALLVALUE PUSH2 0x4B3 JUMPI PUSH1 0x20 CALLDATASIZE PUSH1 0x3 NOT ADD SLT PUSH2 0x4B3 JUMPI PUSH2 0x2277 PUSH2 0x3217 PUSH2 0x5640 JUMP JUMPDEST PUSH2 0x321F PUSH2 0x5F4E JUMP JUMPDEST PUSH32 0xEF485BE696BBC0C91AD541BBD553FFB5BD0E18DAC30BA76E992DDA23CB807A8A PUSH0 MSTORE PUSH1 0x2 PUSH1 0x20 MSTORE PUSH32 0x30D995518B427F5A5863AD73FE356CA50CF70941F42C516830919C845FA58070 SLOAD PUSH2 0x3272 SWAP1 PUSH2 0x5F8F JUMP JUMPDEST PUSH2 0x6061 JUMP JUMPDEST CALLVALUE PUSH2 0x4B3 JUMPI PUSH1 0x20 CALLDATASIZE PUSH1 0x3 NOT ADD SLT PUSH2 0x4B3 JUMPI PUSH1 0x4 CALLDATALOAD PUSH2 0x3293 PUSH2 0x5F2E JUMP JUMPDEST PUSH1 0x6 SLOAD DUP2 LT ISZERO PUSH2 0x53A JUMPI DUP1 PUSH0 MSTORE PUSH1 0xC PUSH1 0x20 MSTORE PUSH1 0x40 PUSH0 KECCAK256 SWAP1 PUSH1 0x5 DUP3 ADD SLOAD PUSH1 0xFF DUP2 AND ISZERO SWAP1 DUP2 ISZERO PUSH2 0x3494 JUMPI JUMPDEST POP PUSH2 0x3485 JUMPI PUSH1 0x11 DUP3 ADD SWAP2 PUSH1 0x1 DUP1 PUSH1 0xA0 SHL SUB CALLER AND PUSH0 MSTORE DUP3 PUSH1 0x20 MSTORE PUSH1 0xFF PUSH1 0x40 PUSH0 KECCAK256 SLOAD AND PUSH2 0x2BB9 JUMPI CALLER PUSH0 SWAP1 DUP2 MSTORE PUSH1 0x10 DUP3 ADD PUSH1 0x20 SWAP1 DUP2 MSTORE PUSH1 0x40 DUP1 DUP4 KECCAK256 PUSH1 0x4 DUP6 ADD SLOAD DUP1 DUP6 MSTORE SWAP3 MSTORE SWAP1 SWAP2 KECCAK256 SLOAD SWAP1 DUP2 ISZERO PUSH2 0x3476 JUMPI DUP3 PUSH2 0x2AD0 PUSH2 0x337E SWAP3 PUSH1 0xF PUSH2 0x3384 SWAP7 ADD DUP2 PUSH0 MSTORE DUP1 PUSH1 0x20 MSTORE PUSH2 0x3357 PUSH1 0x7 PUSH1 0x2 PUSH1 0x40 PUSH0 KECCAK256 ADD SLOAD SWAP6 ADD SLOAD DUP4 PUSH0 MSTORE DUP3 PUSH1 0x20 MSTORE PUSH8 0xDE0B6B3A7640000 PUSH2 0x3350 PUSH1 0x4 PUSH1 0x40 PUSH0 KECCAK256 ADD SLOAD DUP9 PUSH2 0x5905 JUMP JUMPDEST DIV SWAP1 PUSH2 0x5922 JUMP JUMPDEST SWAP2 PUSH0 MSTORE PUSH1 0x20 MSTORE PUSH8 0xDE0B6B3A7640000 PUSH2 0x3377 PUSH1 0x4 PUSH1 0x40 PUSH0 KECCAK256 ADD SLOAD DUP8 PUSH2 0x5905 JUMP JUMPDEST DIV SWAP5 PUSH2 0x5905 JUMP JUMPDEST SWAP1 PUSH2 0x593D JUMP JUMPDEST SWAP2 PUSH1 0x1 DUP1 PUSH1 0xA0 SHL SUB CALLER AND PUSH0 MSTORE PUSH1 0x20 MSTORE PUSH1 0x40 PUSH0 KECCAK256 PUSH1 0x1 PUSH1 0xFF NOT DUP3 SLOAD AND OR SWAP1 SSTORE CALLER PUSH0 MSTORE PUSH1 0xD PUSH1 0x20 MSTORE PUSH1 0x1 PUSH1 0x40 PUSH0 KECCAK256 ADD PUSH2 0x33BC DUP4 DUP3 SLOAD PUSH2 0x593D JUMP JUMPDEST SWAP1 SSTORE CALLER PUSH0 MSTORE PUSH1 0x12 PUSH1 0x20 MSTORE PUSH1 0x40 PUSH0 KECCAK256 PUSH2 0x33D5 DUP4 DUP3 SLOAD PUSH2 0x593D JUMP JUMPDEST SWAP1 SSTORE PUSH1 0x3 SLOAD PUSH1 0x40 MLOAD PUSH4 0xA9059CBB PUSH1 0xE0 SHL DUP2 MSTORE CALLER PUSH1 0x4 DUP3 ADD MSTORE PUSH1 0x24 DUP2 ADD DUP5 SWAP1 MSTORE SWAP1 PUSH1 0x20 SWAP1 DUP3 SWAP1 PUSH1 0x8 SHR PUSH1 0x1 PUSH1 0x1 PUSH1 0xA0 SHL SUB AND DUP2 PUSH0 DUP2 PUSH1 0x44 DUP2 ADD SUB SWAP3 GAS CALL SWAP1 DUP2 ISZERO PUSH2 0xDD4 JUMPI PUSH0 SWAP2 PUSH2 0x3457 JUMPI JUMPDEST POP ISZERO PUSH2 0xD96 JUMPI PUSH1 0x40 MLOAD SWAP2 DUP3 MSTORE PUSH32 0x4EC90E965519D92681267467F775ADA5BD214AA92C0DC93D90A5E880CE9ED026 PUSH1 0x20 CALLER SWAP4 LOG3 PUSH1 0x1 DUP1 SSTORE STOP JUMPDEST PUSH2 0x3470 SWAP2 POP PUSH1 0x20 RETURNDATASIZE PUSH1 0x20 GT PUSH2 0xDCD JUMPI PUSH2 0xDBF DUP2 DUP4 PUSH2 0x574F JUMP JUMPDEST DUP4 PUSH2 0x341F JUMP JUMPDEST PUSH4 0x843F941B PUSH1 0xE0 SHL PUSH0 MSTORE PUSH1 0x4 PUSH0 REVERT JUMPDEST PUSH4 0x56C5D21D PUSH1 0xE0 SHL PUSH0 MSTORE PUSH1 0x4 PUSH0 REVERT JUMPDEST PUSH1 0xFF SWAP2 POP PUSH1 0x8 SHR AND DUP4 PUSH2 0x32BC JUMP JUMPDEST CALLVALUE PUSH2 0x4B3 JUMPI PUSH2 0x34B0 CALLDATASIZE PUSH2 0x562A JUMP JUMPDEST PUSH1 0x6 SLOAD DUP3 LT ISZERO PUSH2 0x53A JUMPI PUSH0 SLOAD PUSH1 0x1 PUSH1 0x1 PUSH1 0xA0 SHL SUB AND CALLER EQ ISZERO DUP1 PUSH2 0x3565 JUMPI JUMPDEST PUSH2 0xE33 JUMPI DUP2 PUSH0 MSTORE PUSH1 0xC PUSH1 0x20 MSTORE PUSH1 0x40 PUSH0 KECCAK256 SWAP1 PUSH1 0x2 DUP3 ADD SLOAD TIMESTAMP LT PUSH2 0x3556 JUMPI PUSH1 0x5 DUP3 ADD SWAP1 DUP2 SLOAD SWAP2 PUSH1 0xFF DUP4 AND PUSH2 0x2916 JUMPI PUSH1 0xA DUP5 ADD SLOAD DUP3 LT ISZERO PUSH2 0x3547 JUMPI PUSH1 0x1 PUSH1 0x40 SWAP4 DUP4 PUSH1 0x4 PUSH32 0xC160A477581CB2155B1578581D805DCC0E6623403811FC2853465045BC0B0492 SWAP8 ADD SSTORE PUSH1 0xFF NOT AND OR SWAP1 SSTORE DUP2 MLOAD SWAP1 DUP2 MSTORE CALLER PUSH1 0x20 DUP3 ADD MSTORE LOG2 STOP JUMPDEST PUSH4 0x1387E783 PUSH1 0xE1 SHL PUSH0 MSTORE PUSH1 0x4 PUSH0 REVERT JUMPDEST PUSH4 0x123099E1 PUSH1 0xE1 SHL PUSH0 MSTORE PUSH1 0x4 PUSH0 REVERT JUMPDEST POP CALLER PUSH0 SWAP1 DUP2 MSTORE PUSH0 DUP1 MLOAD PUSH1 0x20 PUSH2 0x6347 DUP4 CODECOPY DUP2 MLOAD SWAP2 MSTORE PUSH1 0x20 MSTORE PUSH1 0x40 SWAP1 KECCAK256 SLOAD PUSH1 0xFF AND ISZERO PUSH2 0x34CE JUMP JUMPDEST CALLVALUE PUSH2 0x4B3 JUMPI PUSH0 CALLDATASIZE PUSH1 0x3 NOT ADD SLT PUSH2 0x4B3 JUMPI PUSH1 0x20 PUSH1 0xFF PUSH1 0x3 SLOAD AND PUSH1 0x40 MLOAD SWAP1 ISZERO ISZERO DUP2 MSTORE RETURN JUMPDEST CALLVALUE PUSH2 0x4B3 JUMPI PUSH2 0x35BA CALLDATASIZE PUSH2 0x5867 JUMP JUMPDEST PUSH2 0x35C2 PUSH2 0x5F2E JUMP JUMPDEST PUSH2 0x35CA PUSH2 0x5F74 JUMP JUMPDEST PUSH1 0x6 SLOAD DUP5 LT ISZERO PUSH2 0x53A JUMPI DUP4 PUSH0 MSTORE PUSH1 0xC PUSH1 0x20 MSTORE PUSH1 0x2 PUSH1 0x40 PUSH0 KECCAK256 ADD SLOAD TIMESTAMP LT ISZERO PUSH2 0x144A JUMPI DUP4 PUSH0 MSTORE PUSH1 0xC PUSH1 0x20 MSTORE PUSH1 0xFF PUSH1 0x5 PUSH1 0x40 PUSH0 KECCAK256 ADD SLOAD AND PUSH2 0x143B JUMPI DUP4 PUSH0 MSTORE PUSH1 0xC PUSH1 0x20 MSTORE PUSH1 0xA PUSH1 0x40 PUSH0 KECCAK256 ADD SLOAD DUP4 LT ISZERO PUSH2 0x142C JUMPI DUP4 PUSH0 MSTORE PUSH1 0xC PUSH1 0x20 MSTORE PUSH1 0xF PUSH1 0x40 PUSH0 KECCAK256 ADD DUP4 PUSH0 MSTORE PUSH1 0x20 MSTORE PUSH1 0xFF PUSH1 0x5 PUSH1 0x40 PUSH0 KECCAK256 ADD SLOAD AND ISZERO PUSH2 0x141D JUMPI DUP2 ISZERO PUSH2 0x140E JUMPI PUSH0 DUP5 DUP2 MSTORE PUSH1 0xC PUSH1 0x20 SWAP1 DUP2 MSTORE PUSH1 0x40 DUP1 DUP4 KECCAK256 CALLER DUP5 MSTORE PUSH1 0x10 ADD DUP3 MSTORE DUP1 DUP4 KECCAK256 DUP7 DUP5 MSTORE SWAP1 SWAP2 MSTORE SWAP1 KECCAK256 SLOAD DUP3 GT PUSH2 0x1776 JUMPI PUSH0 DUP5 DUP2 MSTORE PUSH1 0xC PUSH1 0x20 SWAP1 DUP2 MSTORE PUSH1 0x40 DUP1 DUP4 KECCAK256 DUP7 DUP5 MSTORE PUSH1 0xF DUP2 ADD SWAP1 SWAP3 MSTORE SWAP1 SWAP2 KECCAK256 PUSH1 0x4 DUP2 ADD SLOAD SWAP2 SWAP3 DUP3 LT PUSH2 0x39EC JUMPI PUSH8 0xDE0B6B3A7640000 PUSH2 0x36AB DUP6 DUP5 PUSH2 0x5905 JUMP JUMPDEST DIV SWAP1 PUSH2 0x2710 PUSH2 0x36BC PUSH1 0x8 SLOAD DUP5 PUSH2 0x5905 JUMP JUMPDEST DIV SWAP4 PUSH1 0xC PUSH2 0x36CA DUP7 DUP6 PUSH2 0x5922 JUMP JUMPDEST SWAP2 PUSH1 0x1 DUP1 PUSH1 0xA0 SHL SUB CALLER AND PUSH0 MSTORE PUSH1 0x10 DUP2 ADD PUSH1 0x20 MSTORE PUSH1 0x40 PUSH0 KECCAK256 DUP10 PUSH0 MSTORE PUSH1 0x20 MSTORE PUSH1 0x40 PUSH0 KECCAK256 PUSH2 0x36F6 DUP10 DUP3 SLOAD PUSH2 0x5922 JUMP JUMPDEST SWAP1 SSTORE PUSH1 0x2 DUP5 ADD PUSH2 0x3707 DUP10 DUP3 SLOAD PUSH2 0x5922 JUMP JUMPDEST SWAP1 SSTORE PUSH1 0x3 DUP5 ADD PUSH2 0x3718 DUP7 DUP3 SLOAD PUSH2 0x593D JUMP JUMPDEST SWAP1 SSTORE PUSH1 0x8 DUP2 ADD PUSH2 0x3729 DUP7 DUP3 SLOAD PUSH2 0x593D JUMP JUMPDEST SWAP1 SSTORE ADD PUSH2 0x3737 DUP7 DUP3 SLOAD PUSH2 0x593D JUMP JUMPDEST SWAP1 SSTORE PUSH2 0x3745 DUP6 PUSH1 0xB SLOAD PUSH2 0x593D JUMP JUMPDEST PUSH1 0xB SSTORE DUP8 PUSH0 MSTORE PUSH1 0xC PUSH1 0x20 MSTORE PUSH1 0xF PUSH1 0x40 PUSH0 KECCAK256 ADD DUP8 PUSH0 MSTORE PUSH1 0x20 MSTORE PUSH1 0x40 PUSH0 KECCAK256 PUSH1 0x6 PUSH1 0x7 DUP3 ADD SLOAD SWAP2 ADD SLOAD SWAP1 DUP8 DUP1 DUP3 GT PUSH0 EQ PUSH2 0x39E2 JUMPI PUSH2 0x377F SWAP2 PUSH2 0x5922 JUMP JUMPDEST SWAP1 JUMPDEST PUSH8 0xDE0B6B3A7640000 DUP2 MUL SWAP1 DUP1 DUP3 DIV PUSH8 0xDE0B6B3A7640000 EQ SWAP1 ISZERO OR ISZERO PUSH2 0xF0E JUMPI PUSH1 0x4 SWAP2 PUSH2 0x37AE SWAP2 PUSH2 0x5918 JUMP JUMPDEST SWAP3 ADD SWAP2 DUP3 SSTORE PUSH8 0xDE0B6B3A7640000 PUSH2 0x37C6 DUP8 DUP7 PUSH2 0x5905 JUMP JUMPDEST DIV SWAP1 PUSH0 DUP3 DUP3 SUB SWAP3 SLT DUP2 DUP4 SLT DUP2 AND SWAP1 DUP3 DUP5 SGT SWAP1 ISZERO AND OR PUSH2 0xF0E JUMPI CALLER PUSH0 MSTORE PUSH1 0xD PUSH1 0x20 MSTORE PUSH1 0x3 PUSH1 0x40 PUSH0 KECCAK256 ADD DUP1 SLOAD PUSH0 DUP5 DUP3 ADD SWAP5 DUP6 SLT SWAP2 SLT SWAP1 DUP1 ISZERO DUP3 AND SWAP2 ISZERO AND OR PUSH2 0xF0E JUMPI PUSH0 SWAP5 PUSH1 0x20 SWAP5 PUSH2 0x38FA SWAP5 PUSH2 0x3863 SWAP4 SSTORE CALLER DUP8 MSTORE PUSH1 0xD DUP7 MSTORE PUSH1 0x4 PUSH1 0x40 DUP9 KECCAK256 ADD PUSH2 0x382C DUP2 SLOAD PUSH2 0x592F JUMP JUMPDEST SWAP1 SSTORE DUP12 DUP8 MSTORE PUSH1 0x10 DUP7 MSTORE PUSH1 0x40 DUP8 KECCAK256 DUP12 DUP9 MSTORE DUP7 MSTORE PUSH1 0x40 DUP8 KECCAK256 SWAP1 SLOAD SWAP2 PUSH1 0x40 MLOAD SWAP3 PUSH2 0x3852 DUP5 PUSH2 0x56FD JUMP JUMPDEST DUP4 MSTORE TIMESTAMP DUP8 DUP5 ADD MSTORE PUSH1 0x40 DUP4 ADD MSTORE PUSH2 0x5DBB JUMP JUMPDEST PUSH2 0x38BC PUSH1 0x40 MLOAD PUSH2 0x3872 DUP2 PUSH2 0x5718 JUMP JUMPDEST DUP11 DUP2 MSTORE DUP10 DUP6 DUP3 ADD MSTORE DUP6 PUSH1 0x40 DUP3 ADD MSTORE CALLER PUSH1 0x60 DUP3 ADD MSTORE DUP7 PUSH1 0x80 DUP3 ADD MSTORE DUP9 PUSH1 0xA0 DUP3 ADD MSTORE TIMESTAMP PUSH1 0xC0 DUP3 ADD MSTORE CALLER DUP7 MSTORE PUSH1 0xE DUP6 MSTORE PUSH2 0x38AC DUP2 PUSH1 0x40 DUP9 KECCAK256 PUSH2 0x5E40 JUMP JUMPDEST DUP11 DUP7 MSTORE PUSH1 0xF DUP6 MSTORE PUSH1 0x40 DUP7 KECCAK256 PUSH2 0x5E40 JUMP JUMPDEST PUSH1 0x3 SLOAD PUSH1 0x40 MLOAD PUSH4 0xA9059CBB PUSH1 0xE0 SHL DUP2 MSTORE CALLER PUSH1 0x4 DUP3 ADD MSTORE PUSH1 0x24 DUP2 ADD SWAP3 SWAP1 SWAP3 MSTORE SWAP1 SWAP4 DUP5 SWAP3 PUSH1 0x8 SWAP3 SWAP1 SWAP3 SHR PUSH1 0x1 PUSH1 0x1 PUSH1 0xA0 SHL SUB AND SWAP2 DUP4 SWAP2 SWAP1 DUP3 SWAP1 PUSH1 0x44 DUP3 ADD SWAP1 JUMP JUMPDEST SUB SWAP3 GAS CALL SWAP1 DUP2 ISZERO PUSH2 0xDD4 JUMPI PUSH0 SWAP2 PUSH2 0x39C3 JUMPI JUMPDEST POP ISZERO PUSH2 0xD96 JUMPI PUSH32 0xAF7C505EE772EC188AF7067E1F73DB08AB028E3D564273442B907742B9C41FA0 SWAP4 DUP6 PUSH32 0x976184626638B6C7E51A4AB66B297BEB1714B545CE4E867A70D622566573098C PUSH1 0x80 PUSH0 SWAP5 PUSH1 0x20 SWAP8 PUSH1 0x40 MLOAD DUP2 DUP2 MSTORE DUP3 DUP11 DUP3 ADD MSTORE DUP7 DUP7 PUSH32 0x33C49DA1FF633FF516CC2661D0CD94AF11B7B76985B6FE549151782C14DB745A PUSH1 0x40 CALLER SWAP5 LOG4 PUSH1 0x7 SLOAD SWAP1 PUSH2 0x399D DUP3 PUSH2 0x592F JUMP JUMPDEST PUSH1 0x7 SSTORE PUSH1 0x40 MLOAD SWAP3 CALLER DUP5 MSTORE DUP11 DUP5 ADD MSTORE PUSH1 0x40 DUP4 ADD MSTORE PUSH1 0x60 DUP3 ADD MSTORE LOG4 PUSH1 0x40 MLOAD SWAP1 DUP2 MSTORE LOG2 PUSH1 0x1 DUP1 SSTORE STOP JUMPDEST PUSH2 0x39DC SWAP2 POP PUSH1 0x20 RETURNDATASIZE PUSH1 0x20 GT PUSH2 0xDCD JUMPI PUSH2 0xDBF DUP2 DUP4 PUSH2 0x574F JUMP JUMPDEST DUP7 PUSH2 0x390C JUMP JUMPDEST POP PUSH1 0x1 SHR SWAP1 PUSH2 0x3781 JUMP JUMPDEST PUSH4 0x6DDDF411 PUSH1 0xE1 SHL PUSH0 MSTORE PUSH1 0x4 PUSH0 REVERT JUMPDEST CALLVALUE PUSH2 0x4B3 JUMPI PUSH0 CALLDATASIZE PUSH1 0x3 NOT ADD SLT PUSH2 0x4B3 JUMPI PUSH1 0x4 SLOAD PUSH1 0x40 MLOAD PUSH1 0x1 PUSH1 0x1 PUSH1 0xA0 SHL SUB SWAP1 SWAP2 AND DUP2 MSTORE PUSH1 0x20 SWAP1 RETURN JUMPDEST CALLVALUE PUSH2 0x4B3 JUMPI PUSH1 0x40 CALLDATASIZE PUSH1 0x3 NOT ADD SLT PUSH2 0x4B3 JUMPI PUSH1 0x4 CALLDATALOAD PUSH1 0x24 CALLDATALOAD PUSH1 0x1 PUSH1 0x1 PUSH1 0x40 SHL SUB DUP2 GT PUSH2 0x4B3 JUMPI PUSH2 0x3A56 SWAP1 CALLDATASIZE SWAP1 PUSH1 0x4 ADD PUSH2 0x5770 JUMP JUMPDEST PUSH1 0x6 SLOAD DUP3 LT ISZERO PUSH2 0x53A JUMPI DUP2 PUSH0 MSTORE PUSH1 0xC PUSH1 0x20 MSTORE PUSH1 0xFF PUSH1 0x5 PUSH1 0x40 PUSH0 KECCAK256 ADD SLOAD AND ISZERO PUSH2 0x3B2F JUMPI DUP2 PUSH0 MSTORE PUSH1 0xC PUSH1 0x20 MSTORE PUSH1 0xFF PUSH1 0x5 PUSH1 0x40 PUSH0 KECCAK256 ADD SLOAD PUSH1 0x8 SHR AND PUSH2 0x2BB9 JUMPI PUSH0 DUP3 DUP2 MSTORE PUSH1 0xC PUSH1 0x20 SWAP1 DUP2 MSTORE PUSH1 0x40 DUP1 DUP4 KECCAK256 CALLER DUP5 MSTORE PUSH1 0x10 DUP2 ADD DUP4 MSTORE DUP2 DUP5 KECCAK256 PUSH1 0x4 SWAP1 SWAP2 ADD SLOAD DUP5 MSTORE SWAP1 SWAP2 MSTORE SWAP1 KECCAK256 SLOAD PUSH2 0x3B20 JUMPI PUSH2 0x3B1B PUSH32 0xF20590B2CB9AF0BB070AD77DE2C0B74DB291DD43666E7A386FFB0E65974B050A SWAP2 DUP4 PUSH0 MSTORE PUSH1 0xC PUSH1 0x20 MSTORE PUSH1 0x5 PUSH1 0x40 PUSH0 KECCAK256 ADD PUSH2 0x100 PUSH2 0xFF00 NOT DUP3 SLOAD AND OR SWAP1 SSTORE PUSH1 0x40 MLOAD SWAP2 DUP3 SWAP2 CALLER DUP4 MSTORE PUSH1 0x40 PUSH1 0x20 DUP5 ADD MSTORE PUSH1 0x40 DUP4 ADD SWAP1 PUSH2 0x5685 JUMP JUMPDEST SUB SWAP1 LOG2 STOP JUMPDEST PUSH4 0x5A570B3D PUSH1 0xE0 SHL PUSH0 MSTORE PUSH1 0x4 PUSH0 REVERT JUMPDEST PUSH4 0x174B6393 PUSH1 0xE1 SHL PUSH0 MSTORE PUSH1 0x4 PUSH0 REVERT JUMPDEST CALLVALUE PUSH2 0x4B3 JUMPI PUSH0 CALLDATASIZE PUSH1 0x3 NOT ADD SLT PUSH2 0x4B3 JUMPI PUSH1 0x3 SLOAD PUSH1 0x40 MLOAD PUSH1 0x8 SWAP2 SWAP1 SWAP2 SHR PUSH1 0x1 PUSH1 0x1 PUSH1 0xA0 SHL SUB AND DUP2 MSTORE PUSH1 0x20 SWAP1 RETURN JUMPDEST CALLVALUE PUSH2 0x4B3 JUMPI PUSH0 CALLDATASIZE PUSH1 0x3 NOT ADD SLT PUSH2 0x4B3 JUMPI PUSH1 0x20 PUSH1 0x9 SLOAD PUSH1 0x40 MLOAD SWAP1 DUP2 MSTORE RETURN JUMPDEST CALLVALUE PUSH2 0x4B3 JUMPI PUSH0 CALLDATASIZE PUSH1 0x3 NOT ADD SLT PUSH2 0x4B3 JUMPI PUSH2 0x3B9F PUSH2 0x5F4E JUMP JUMPDEST PUSH1 0x3 SLOAD PUSH1 0xFF DUP2 AND ISZERO PUSH2 0x3BDE JUMPI PUSH1 0xFF NOT AND PUSH1 0x3 SSTORE PUSH32 0x5DB9EE0A495BF2E6FF9C91A7834C1BA4FDD244A5E8AA4E537BD38AEAE4B073AA PUSH1 0x20 PUSH1 0x40 MLOAD CALLER DUP2 MSTORE LOG1 STOP JUMPDEST PUSH4 0x8DFC202B PUSH1 0xE0 SHL PUSH0 MSTORE PUSH1 0x4 PUSH0 REVERT JUMPDEST CALLVALUE PUSH2 0x4B3 JUMPI PUSH1 0x20 CALLDATASIZE PUSH1 0x3 NOT ADD SLT PUSH2 0x4B3 JUMPI PUSH1 0x4 CALLDATALOAD PUSH1 0x6 SLOAD DUP2 LT ISZERO PUSH2 0x53A JUMPI PUSH0 MSTORE PUSH1 0xC PUSH1 0x20 MSTORE PUSH2 0x3C69 PUSH1 0x40 PUSH0 KECCAK256 PUSH1 0x2 DUP2 ADD SLOAD PUSH1 0xFF PUSH1 0x3 DUP4 ADD SLOAD AND PUSH1 0xA DUP4 ADD SLOAD SWAP1 PUSH1 0x5 DUP5 ADD SLOAD SWAP2 PUSH2 0x3C87 PUSH1 0x4 DUP7 ADD SLOAD SWAP3 PUSH2 0x3C77 PUSH2 0x3C53 PUSH1 0x1 PUSH2 0x3C4C DUP11 PUSH2 0x5CD5 JUMP JUMPDEST SWAP10 ADD PUSH2 0x5CD5 JUMP JUMPDEST PUSH1 0x40 MLOAD SWAP10 DUP11 SWAP10 PUSH2 0x120 DUP12 MSTORE PUSH2 0x120 DUP12 ADD SWAP1 PUSH2 0x5685 JUMP JUMPDEST SWAP1 DUP10 DUP3 SUB PUSH1 0x20 DUP12 ADD MSTORE PUSH2 0x5685 JUMP JUMPDEST SWAP6 PUSH1 0x40 DUP9 ADD MSTORE PUSH1 0x60 DUP8 ADD SWAP1 PUSH2 0x585A JUMP JUMPDEST PUSH1 0x80 DUP6 ADD MSTORE PUSH1 0xFF DUP3 DUP2 AND ISZERO ISZERO PUSH1 0xA0 DUP7 ADD MSTORE PUSH1 0x8 DUP4 SWAP1 SHR AND ISZERO ISZERO PUSH1 0xC0 DUP6 ADD MSTORE PUSH1 0xE0 DUP5 ADD MSTORE PUSH1 0x18 SHR PUSH1 0x1 PUSH1 0x1 PUSH1 0xA0 SHL SUB AND PUSH2 0x100 DUP4 ADD MSTORE SUB SWAP1 RETURN JUMPDEST CALLVALUE PUSH2 0x4B3 JUMPI PUSH1 0x40 CALLDATASIZE PUSH1 0x3 NOT ADD SLT PUSH2 0x4B3 JUMPI PUSH1 0x4 CALLDATALOAD PUSH2 0x3CDC PUSH2 0x5656 JUMP JUMPDEST PUSH1 0x6 SLOAD DUP3 LT ISZERO PUSH2 0x53A JUMPI PUSH0 SWAP2 DUP3 MSTORE PUSH1 0xC PUSH1 0x20 SWAP1 DUP2 MSTORE PUSH1 0x40 DUP1 DUP5 KECCAK256 PUSH1 0x1 PUSH1 0x1 PUSH1 0xA0 SHL SUB SWAP4 SWAP1 SWAP4 AND DUP5 MSTORE PUSH1 0x12 DUP4 ADD DUP3 MSTORE DUP1 DUP5 KECCAK256 SLOAD PUSH1 0x13 DUP5 ADD SWAP1 SWAP3 MSTORE DUP4 KECCAK256 SLOAD PUSH1 0x60 SWAP4 SWAP2 SWAP3 PUSH1 0xFF SWAP1 SWAP2 AND SWAP1 DUP4 ISZERO ISZERO DUP1 PUSH2 0x3D6C JUMPI JUMPDEST PUSH2 0x3D46 JUMPI JUMPDEST POP PUSH1 0x40 MLOAD SWAP3 DUP4 MSTORE ISZERO ISZERO PUSH1 0x20 DUP4 ADD MSTORE PUSH1 0x40 DUP3 ADD MSTORE RETURN JUMPDEST PUSH2 0x3D65 SWAP2 SWAP3 POP PUSH1 0xB PUSH2 0x3D5C PUSH1 0xD DUP4 ADD SLOAD DUP7 PUSH2 0x5905 JUMP JUMPDEST SWAP2 ADD SLOAD SWAP1 PUSH2 0x5918 JUMP JUMPDEST SWAP1 DUP5 PUSH2 0x3D31 JUMP JUMPDEST POP PUSH1 0xB DUP2 ADD SLOAD ISZERO ISZERO PUSH2 0x3D2C JUMP JUMPDEST CALLVALUE PUSH2 0x4B3 JUMPI PUSH1 0x20 CALLDATASIZE PUSH1 0x3 NOT ADD SLT PUSH2 0x4B3 JUMPI PUSH1 0x4 CALLDATALOAD PUSH1 0x6 SLOAD DUP2 LT ISZERO PUSH2 0x53A JUMPI PUSH0 MSTORE PUSH1 0xC PUSH1 0x20 MSTORE PUSH1 0xA0 PUSH1 0x40 PUSH0 KECCAK256 PUSH1 0x6 DUP2 ADD SLOAD SWAP1 PUSH1 0x7 DUP2 ADD SLOAD SWAP1 PUSH1 0xC DUP2 ADD SLOAD PUSH1 0xFF PUSH1 0xE PUSH1 0xD DUP5 ADD SLOAD SWAP4 ADD SLOAD AND SWAP3 PUSH1 0x40 MLOAD SWAP5 DUP6 MSTORE PUSH1 0x20 DUP6 ADD MSTORE PUSH1 0x40 DUP5 ADD MSTORE PUSH1 0x60 DUP4 ADD MSTORE ISZERO ISZERO PUSH1 0x80 DUP3 ADD MSTORE RETURN JUMPDEST CALLVALUE PUSH2 0x4B3 JUMPI PUSH1 0x40 CALLDATASIZE PUSH1 0x3 NOT ADD SLT PUSH2 0x4B3 JUMPI PUSH2 0x3DFA PUSH2 0x5656 JUMP JUMPDEST CALLER PUSH1 0x1 PUSH1 0x1 PUSH1 0xA0 SHL SUB DUP3 AND SUB PUSH2 0x3E16 JUMPI PUSH2 0x2277 SWAP1 PUSH1 0x4 CALLDATALOAD PUSH2 0x6226 JUMP JUMPDEST PUSH4 0x334BD919 PUSH1 0xE1 SHL PUSH0 MSTORE PUSH1 0x4 PUSH0 REVERT JUMPDEST CALLVALUE PUSH2 0x4B3 JUMPI PUSH1 0x20 CALLDATASIZE PUSH1 0x3 NOT ADD SLT PUSH2 0x4B3 JUMPI PUSH2 0x2277 PUSH2 0x3E41 PUSH2 0x5640 JUMP JUMPDEST PUSH2 0x3E49 PUSH2 0x5F4E JUMP JUMPDEST PUSH32 0xDCEE1D35C83A32B436264A5C9AFD68685C124F3F9097E87804C55410E67FC59A PUSH0 MSTORE PUSH1 0x2 PUSH1 0x20 MSTORE PUSH32 0x8E2C297E756B2A427C5DC4607F639842A8EA6E0F6322302F4EA76306B642CFC3 SLOAD PUSH2 0x3E9C SWAP1 PUSH2 0x5F8F JUMP JUMPDEST PUSH2 0x5FC9 JUMP JUMPDEST CALLVALUE PUSH2 0x4B3 JUMPI PUSH2 0x100 CALLDATASIZE PUSH1 0x3 NOT ADD SLT PUSH2 0x4B3 JUMPI PUSH1 0x4 CALLDATALOAD PUSH1 0x1 PUSH1 0x1 PUSH1 0x40 SHL SUB DUP2 GT PUSH2 0x4B3 JUMPI PUSH2 0x3ED2 SWAP1 CALLDATASIZE SWAP1 PUSH1 0x4 ADD PUSH2 0x5770 JUMP JUMPDEST PUSH1 0x24 CALLDATALOAD PUSH1 0x1 PUSH1 0x1 PUSH1 0x40 SHL SUB DUP2 GT PUSH2 0x4B3 JUMPI PUSH2 0x3EF1 SWAP1 CALLDATASIZE SWAP1 PUSH1 0x4 ADD PUSH2 0x5770 JUMP JUMPDEST PUSH1 0x44 CALLDATALOAD PUSH1 0x1 PUSH1 0x1 PUSH1 0x40 SHL SUB DUP2 GT PUSH2 0x4B3 JUMPI PUSH2 0x3F10 SWAP1 CALLDATASIZE SWAP1 PUSH1 0x4 ADD PUSH2 0x57DC JUMP JUMPDEST SWAP2 PUSH1 0x64 CALLDATALOAD PUSH1 0x1 PUSH1 0x1 PUSH1 0x40 SHL SUB DUP2 GT PUSH2 0x4B3 JUMPI PUSH2 0x3F30 SWAP1 CALLDATASIZE SWAP1 PUSH1 0x4 ADD PUSH2 0x57DC JUMP JUMPDEST PUSH1 0x84 CALLDATALOAD SWAP1 PUSH1 0xA4 CALLDATALOAD PUSH1 0x8 DUP2 LT ISZERO PUSH2 0x4B3 JUMPI PUSH1 0xC4 CALLDATALOAD SWAP6 PUSH1 0x3 DUP8 LT ISZERO PUSH2 0x4B3 JUMPI PUSH1 0xE4 CALLDATALOAD SWAP5 PUSH2 0x3F59 PUSH2 0x5F74 JUMP JUMPDEST PUSH0 SLOAD PUSH1 0x1 PUSH1 0x1 PUSH1 0xA0 SHL SUB AND CALLER EQ ISZERO DUP1 PUSH2 0x467A JUMPI JUMPDEST PUSH2 0xE33 JUMPI PUSH2 0xE10 DUP6 LT DUP1 ISZERO PUSH2 0x466D JUMPI JUMPDEST PUSH2 0xE17 JUMPI DUP1 MLOAD ISZERO PUSH2 0xE08 JUMPI DUP2 MLOAD PUSH1 0x2 DUP2 LT SWAP1 DUP2 ISZERO PUSH2 0x4662 JUMPI JUMPDEST POP PUSH2 0xDEE JUMPI DUP2 MLOAD DUP5 MLOAD SUB PUSH2 0xDDF JUMPI PUSH9 0x56BC75E2D63100000 DUP7 LT PUSH2 0x218C JUMPI PUSH1 0x3 SLOAD PUSH1 0x40 MLOAD PUSH4 0x23B872DD PUSH1 0xE0 SHL DUP2 MSTORE CALLER PUSH1 0x4 DUP3 ADD MSTORE ADDRESS PUSH1 0x24 DUP3 ADD MSTORE PUSH1 0x44 DUP2 ADD DUP9 SWAP1 MSTORE SWAP1 PUSH1 0x20 SWAP1 DUP3 SWAP1 PUSH1 0x8 SHR PUSH1 0x1 PUSH1 0x1 PUSH1 0xA0 SHL SUB AND DUP2 PUSH0 DUP2 PUSH1 0x64 DUP2 ADD SUB SWAP3 GAS CALL SWAP1 DUP2 ISZERO PUSH2 0xDD4 JUMPI PUSH0 SWAP2 PUSH2 0x4643 JUMPI JUMPDEST POP ISZERO PUSH2 0xD96 JUMPI PUSH1 0x6 SLOAD SWAP5 PUSH2 0x4015 DUP7 PUSH2 0x592F JUMP JUMPDEST PUSH1 0x6 SSTORE DUP6 PUSH0 MSTORE PUSH1 0xC PUSH1 0x20 MSTORE PUSH1 0x40 PUSH0 KECCAK256 SWAP8 DUP3 MLOAD PUSH1 0x1 PUSH1 0x1 PUSH1 0x40 SHL SUB DUP2 GT PUSH2 0xA74 JUMPI PUSH2 0x403F DUP11 SLOAD PUSH2 0x5C9D JUMP JUMPDEST PUSH1 0x1F DUP2 GT PUSH2 0x45FE JUMPI JUMPDEST POP DUP1 PUSH1 0x20 PUSH1 0x1F DUP3 GT PUSH1 0x1 EQ PUSH2 0x459D JUMPI PUSH0 SWAP2 PUSH2 0x4592 JUMPI JUMPDEST POP DUP2 PUSH1 0x1 SHL SWAP2 PUSH0 NOT SWAP1 PUSH1 0x3 SHL SHR NOT AND OR DUP10 SSTORE JUMPDEST DUP1 MLOAD PUSH1 0x1 DUP11 ADD SWAP2 PUSH1 0x1 PUSH1 0x1 PUSH1 0x40 SHL SUB DUP3 GT PUSH2 0xA74 JUMPI PUSH2 0x4090 DUP4 SLOAD PUSH2 0x5C9D JUMP JUMPDEST PUSH1 0x1F DUP2 GT PUSH2 0x454D JUMPI JUMPDEST POP PUSH1 0x20 SWAP1 PUSH1 0x1F DUP4 GT PUSH1 0x1 EQ PUSH2 0x44FE JUMPI PUSH2 0x40CF SWAP5 SWAP4 SWAP3 SWAP2 PUSH0 SWAP2 DUP4 PUSH2 0x2005 JUMPI POP POP DUP2 PUSH1 0x1 SHL SWAP2 PUSH0 NOT SWAP1 PUSH1 0x3 SHL SHR NOT AND OR SWAP1 SSTORE TIMESTAMP PUSH2 0x593D JUMP JUMPDEST PUSH1 0x2 DUP9 ADD SWAP1 DUP2 SSTORE PUSH1 0x3 DUP9 ADD DUP1 SLOAD PUSH2 0xFFFF NOT AND PUSH1 0xFF DUP7 AND OR PUSH1 0x8 DUP12 SWAP1 SHL PUSH2 0xFF00 AND OR SWAP1 SSTORE PUSH1 0x5 DUP9 ADD DUP1 SLOAD PUSH4 0x1000000 PUSH1 0x1 PUSH1 0xB8 SHL SUB NOT AND CALLER PUSH1 0x18 SHL PUSH4 0x1000000 PUSH1 0x1 PUSH1 0xB8 SHL SUB AND OR SWAP1 SSTORE TIMESTAMP PUSH1 0x9 DUP10 ADD SSTORE DUP3 MLOAD PUSH1 0xA DUP10 ADD DUP2 SWAP1 SSTORE PUSH1 0x6 DUP10 ADD DUP9 SWAP1 SSTORE PUSH0 PUSH1 0x7 DUP11 ADD SSTORE PUSH1 0xB DUP10 ADD DUP9 SWAP1 SSTORE SWAP1 SWAP9 SWAP1 DUP1 ISZERO PUSH2 0xC17 JUMPI PUSH2 0x415E SWAP1 PUSH8 0xDE0B6B3A7640000 SWAP11 SWAP10 SWAP11 DIV SWAP8 DUP5 MLOAD SWAP1 PUSH2 0x5918 JUMP JUMPDEST SWAP4 PUSH1 0xF PUSH0 SWAP11 ADD SWAP10 JUMPDEST DUP5 MLOAD DUP2 LT ISZERO PUSH2 0x4448 JUMPI PUSH2 0x4179 DUP2 DUP7 PUSH2 0x5DA7 JUMP JUMPDEST MLOAD DUP7 DUP13 PUSH2 0x4186 DUP5 DUP12 PUSH2 0x5DA7 JUMP JUMPDEST MLOAD PUSH1 0x40 MLOAD SWAP4 PUSH2 0x4194 DUP6 PUSH2 0x5733 JUMP JUMPDEST DUP5 MSTORE PUSH1 0x20 DUP5 ADD SWAP1 DUP2 MSTORE DUP13 PUSH1 0x40 DUP6 ADD PUSH0 DUP2 MSTORE PUSH1 0x60 DUP7 ADD SWAP1 PUSH0 DUP3 MSTORE PUSH1 0x80 DUP8 ADD SWAP3 DUP4 MSTORE PUSH1 0xA0 DUP8 ADD SWAP4 PUSH1 0x1 DUP6 MSTORE PUSH1 0xC0 DUP9 ADD SWAP6 DUP8 DUP8 MSTORE PUSH1 0xE0 DUP10 ADD SWAP8 DUP9 MSTORE DUP10 PUSH0 MSTORE PUSH1 0x20 MSTORE PUSH1 0x40 PUSH0 KECCAK256 SWAP8 MLOAD DUP1 MLOAD SWAP1 PUSH1 0x1 PUSH1 0x1 PUSH1 0x40 SHL SUB DUP3 GT PUSH2 0xA74 JUMPI DUP2 SWAP1 PUSH2 0x41F5 DUP12 SLOAD PUSH2 0x5C9D JUMP JUMPDEST PUSH1 0x1F DUP2 GT PUSH2 0x43F8 JUMPI JUMPDEST POP PUSH1 0x20 SWAP1 PUSH1 0x1F DUP4 GT PUSH1 0x1 EQ PUSH2 0x4395 JUMPI PUSH0 SWAP3 PUSH2 0x438A JUMPI JUMPDEST POP POP DUP2 PUSH1 0x1 SHL SWAP2 PUSH0 NOT SWAP1 PUSH1 0x3 SHL SHR NOT AND OR DUP9 SSTORE JUMPDEST MLOAD DUP1 MLOAD PUSH1 0x1 DUP10 ADD SWAP2 PUSH1 0x1 PUSH1 0x1 PUSH1 0x40 SHL SUB DUP3 GT PUSH2 0xA74 JUMPI PUSH2 0x4248 DUP4 SLOAD PUSH2 0x5C9D JUMP JUMPDEST PUSH1 0x1F DUP2 GT PUSH2 0x4345 JUMPI JUMPDEST POP PUSH1 0x20 SWAP1 PUSH1 0x1F DUP4 GT PUSH1 0x1 EQ PUSH2 0x42EC JUMPI SWAP3 DUP3 PUSH2 0x42B6 SWAP7 SWAP4 PUSH1 0x1 SWAP14 SWAP13 SWAP12 SWAP10 SWAP7 SWAP4 PUSH1 0x7 SWAP12 SWAP10 SWAP7 PUSH0 SWAP3 PUSH2 0x9B2 JUMPI POP POP PUSH0 NOT PUSH1 0x3 DUP4 SWAP1 SHL SHR NOT AND SWAP1 DUP14 SHL OR SWAP1 SSTORE MLOAD PUSH1 0x2 DUP10 ADD SSTORE MLOAD PUSH1 0x3 DUP9 ADD SSTORE MLOAD PUSH1 0x4 DUP8 ADD SSTORE MLOAD ISZERO ISZERO PUSH1 0x5 DUP7 ADD SWAP1 PUSH1 0xFF DUP1 NOT DUP4 SLOAD AND SWAP2 ISZERO ISZERO AND OR SWAP1 SSTORE JUMP JUMPDEST MLOAD PUSH1 0x6 DUP5 ADD SSTORE MLOAD SWAP2 ADD SSTORE DUP9 PUSH0 MSTORE PUSH1 0x10 PUSH1 0x20 MSTORE PUSH1 0x40 PUSH0 KECCAK256 DUP2 PUSH0 MSTORE PUSH1 0x20 MSTORE PUSH2 0x42E6 PUSH1 0x40 PUSH0 KECCAK256 PUSH1 0x40 MLOAD SWAP1 PUSH2 0x998 DUP3 PUSH2 0x56FD JUMP JUMPDEST ADD PUSH2 0x4166 JUMP JUMPDEST SWAP1 PUSH1 0x1F NOT DUP4 AND SWAP2 DUP5 PUSH0 MSTORE DUP2 PUSH0 KECCAK256 SWAP3 PUSH0 JUMPDEST DUP2 DUP2 LT PUSH2 0x432D JUMPI POP SWAP4 PUSH1 0x1 SWAP14 SWAP13 SWAP12 SWAP10 SWAP7 SWAP4 PUSH1 0x7 SWAP12 SWAP10 SWAP7 SWAP4 DUP16 SWAP4 DUP4 PUSH2 0x42B6 SWAP12 SWAP9 LT PUSH2 0x9FF JUMPI POP POP POP DUP2 SHL ADD SWAP1 SSTORE PUSH2 0x93E JUMP JUMPDEST SWAP3 SWAP4 PUSH1 0x20 PUSH1 0x1 DUP2 SWAP3 DUP8 DUP7 ADD MLOAD DUP2 SSTORE ADD SWAP6 ADD SWAP4 ADD PUSH2 0x42FC JUMP JUMPDEST DUP4 PUSH0 MSTORE PUSH1 0x20 PUSH0 KECCAK256 PUSH1 0x1F DUP5 ADD PUSH1 0x5 SHR DUP2 ADD SWAP2 PUSH1 0x20 DUP6 LT PUSH2 0x4380 JUMPI JUMPDEST PUSH1 0x1F ADD PUSH1 0x5 SHR ADD SWAP1 JUMPDEST DUP2 DUP2 LT PUSH2 0x4375 JUMPI POP PUSH2 0x4251 JUMP JUMPDEST PUSH0 DUP2 SSTORE PUSH1 0x1 ADD PUSH2 0x4368 JUMP JUMPDEST SWAP1 SWAP2 POP DUP2 SWAP1 PUSH2 0x435F JUMP JUMPDEST ADD MLOAD SWAP1 POP PUSH0 DUP1 PUSH2 0x4214 JUMP JUMPDEST PUSH0 DUP13 DUP2 MSTORE DUP3 DUP2 KECCAK256 SWAP4 POP PUSH1 0x1F NOT DUP6 AND SWAP1 JUMPDEST DUP2 DUP2 LT PUSH2 0x43E0 JUMPI POP SWAP1 DUP5 PUSH1 0x1 SWAP6 SWAP5 SWAP4 SWAP3 LT PUSH2 0x43C8 JUMPI JUMPDEST POP POP POP DUP2 SHL ADD DUP9 SSTORE PUSH2 0x4228 JUMP JUMPDEST ADD MLOAD PUSH0 NOT PUSH1 0xF8 DUP5 PUSH1 0x3 SHL AND SHR NOT AND SWAP1 SSTORE PUSH0 DUP1 DUP1 PUSH2 0x43BB JUMP JUMPDEST SWAP3 SWAP4 PUSH1 0x20 PUSH1 0x1 DUP2 SWAP3 DUP8 DUP7 ADD MLOAD DUP2 SSTORE ADD SWAP6 ADD SWAP4 ADD PUSH2 0x43A5 JUMP JUMPDEST SWAP1 SWAP2 POP DUP11 PUSH0 MSTORE PUSH1 0x20 PUSH0 KECCAK256 PUSH1 0x1F DUP5 ADD PUSH1 0x5 SHR DUP2 ADD SWAP2 PUSH1 0x20 DUP6 LT PUSH2 0x443E JUMPI JUMPDEST SWAP1 PUSH1 0x1F DUP6 SWAP5 SWAP4 SWAP3 ADD PUSH1 0x5 SHR ADD SWAP1 JUMPDEST DUP2 DUP2 LT PUSH2 0x4430 JUMPI POP PUSH2 0x41FE JUMP JUMPDEST PUSH0 DUP2 SSTORE DUP5 SWAP4 POP PUSH1 0x1 ADD PUSH2 0x4423 JUMP JUMPDEST SWAP1 SWAP2 POP DUP2 SWAP1 PUSH2 0x4415 JUMP JUMPDEST POP DUP7 SWAP2 DUP5 SWAP2 DUP11 PUSH2 0x445B DUP6 PUSH2 0xB59 DUP5 PUSH2 0x58D7 JUMP JUMPDEST PUSH2 0x4468 DUP6 PUSH2 0xB59 DUP6 PUSH2 0x58EE JUMP JUMPDEST SLOAD PUSH2 0x447E PUSH1 0x40 MLOAD SWAP7 PUSH1 0xC0 DUP9 MSTORE PUSH1 0xC0 DUP9 ADD SWAP1 PUSH2 0x5685 JUMP JUMPDEST DUP7 DUP2 SUB PUSH1 0x20 DUP9 ADD MSTORE DUP5 MLOAD DUP1 DUP3 MSTORE PUSH1 0x20 DUP3 ADD SWAP2 PUSH1 0x20 DUP1 DUP4 PUSH1 0x5 SHL DUP4 ADD ADD SWAP8 ADD SWAP3 PUSH0 SWAP2 JUMPDEST DUP4 DUP4 LT PUSH2 0x44D1 JUMPI PUSH1 0x20 DUP11 DUP1 PUSH0 DUP1 MLOAD PUSH1 0x20 PUSH2 0x6367 DUP4 CODECOPY DUP2 MLOAD SWAP2 MSTORE DUP15 DUP1 DUP15 DUP15 PUSH2 0xBD4 DUP16 DUP16 PUSH1 0x40 DUP7 ADD MSTORE PUSH1 0x60 DUP6 ADD SWAP1 PUSH2 0x585A JUMP JUMPDEST SWAP1 SWAP2 SWAP3 SWAP4 SWAP8 PUSH1 0x20 DUP1 PUSH2 0x44EF PUSH1 0x1 SWAP4 PUSH1 0x1F NOT DUP7 DUP3 SUB ADD DUP8 MSTORE DUP13 MLOAD PUSH2 0x5685 JUMP JUMPDEST SWAP11 ADD SWAP4 ADD SWAP4 ADD SWAP2 SWAP4 SWAP3 SWAP1 PUSH2 0x44A0 JUMP JUMPDEST SWAP1 PUSH1 0x1F NOT DUP4 AND SWAP2 DUP5 PUSH0 MSTORE DUP2 PUSH0 KECCAK256 SWAP3 PUSH0 JUMPDEST DUP2 DUP2 LT PUSH2 0x4535 JUMPI POP SWAP2 PUSH1 0x1 SWAP4 SWAP2 DUP6 PUSH2 0x40CF SWAP9 SWAP8 SWAP7 SWAP5 LT PUSH2 0x2047 JUMPI POP POP POP DUP2 SHL ADD SWAP1 SSTORE PUSH2 0x76B JUMP JUMPDEST SWAP3 SWAP4 PUSH1 0x20 PUSH1 0x1 DUP2 SWAP3 DUP8 DUP7 ADD MLOAD DUP2 SSTORE ADD SWAP6 ADD SWAP4 ADD PUSH2 0x450E JUMP JUMPDEST DUP4 PUSH0 MSTORE PUSH1 0x20 PUSH0 KECCAK256 PUSH1 0x1F DUP5 ADD PUSH1 0x5 SHR DUP2 ADD SWAP2 PUSH1 0x20 DUP6 LT PUSH2 0x4588 JUMPI JUMPDEST PUSH1 0x1F ADD PUSH1 0x5 SHR ADD SWAP1 JUMPDEST DUP2 DUP2 LT PUSH2 0x457D JUMPI POP PUSH2 0x4099 JUMP JUMPDEST PUSH0 DUP2 SSTORE PUSH1 0x1 ADD PUSH2 0x4570 JUMP JUMPDEST SWAP1 SWAP2 POP DUP2 SWAP1 PUSH2 0x4567 JUMP JUMPDEST SWAP1 POP DUP5 ADD MLOAD DUP13 PUSH2 0x405E JUMP JUMPDEST PUSH0 DUP13 DUP2 MSTORE DUP2 DUP2 KECCAK256 SWAP3 POP PUSH1 0x1F NOT DUP5 AND SWAP1 JUMPDEST DUP2 DUP2 LT PUSH2 0x45E6 JUMPI POP SWAP1 DUP4 PUSH1 0x1 SWAP5 SWAP4 SWAP3 LT PUSH2 0x45CE JUMPI JUMPDEST POP POP DUP2 SHL ADD DUP10 SSTORE PUSH2 0x4071 JUMP JUMPDEST DUP7 ADD MLOAD PUSH0 NOT PUSH1 0xF8 DUP5 PUSH1 0x3 SHL AND SHR NOT AND SWAP1 SSTORE DUP13 DUP1 PUSH2 0x45C2 JUMP JUMPDEST SWAP2 SWAP3 PUSH1 0x20 PUSH1 0x1 DUP2 SWAP3 DUP7 DUP12 ADD MLOAD DUP2 SSTORE ADD SWAP5 ADD SWAP3 ADD PUSH2 0x45AD JUMP JUMPDEST DUP11 PUSH0 MSTORE PUSH1 0x20 PUSH0 KECCAK256 PUSH1 0x1F DUP4 ADD PUSH1 0x5 SHR DUP2 ADD SWAP2 PUSH1 0x20 DUP5 LT PUSH2 0x4639 JUMPI JUMPDEST PUSH1 0x1F ADD PUSH1 0x5 SHR ADD SWAP1 JUMPDEST DUP2 DUP2 LT PUSH2 0x462E JUMPI POP PUSH2 0x4048 JUMP JUMPDEST PUSH0 DUP2 SSTORE PUSH1 0x1 ADD PUSH2 0x4621 JUMP JUMPDEST SWAP1 SWAP2 POP DUP2 SWAP1 PUSH2 0x4618 JUMP JUMPDEST PUSH2 0x465C SWAP2 POP PUSH1 0x20 RETURNDATASIZE PUSH1 0x20 GT PUSH2 0xDCD JUMPI PUSH2 0xDBF DUP2 DUP4 PUSH2 0x574F JUMP JUMPDEST DUP10 PUSH2 0x4002 JUMP JUMPDEST PUSH1 0xA SWAP2 POP GT DUP10 PUSH2 0x3F96 JUMP JUMPDEST POP PUSH4 0x1E13380 DUP6 GT PUSH2 0x3F7D JUMP JUMPDEST POP CALLER PUSH0 SWAP1 DUP2 MSTORE PUSH0 DUP1 MLOAD PUSH1 0x20 PUSH2 0x6327 DUP4 CODECOPY DUP2 MLOAD SWAP2 MSTORE PUSH1 0x20 MSTORE PUSH1 0x40 SWAP1 KECCAK256 SLOAD PUSH1 0xFF AND ISZERO PUSH2 0x3F6D JUMP JUMPDEST CALLVALUE PUSH2 0x4B3 JUMPI PUSH0 CALLDATASIZE PUSH1 0x3 NOT ADD SLT PUSH2 0x4B3 JUMPI PUSH1 0x20 PUSH1 0x40 MLOAD PUSH32 0xD486618B282CB35034D59C30C062B5B3822D6CDF87EC459191CE7F5B7B8A4873 DUP2 MSTORE RETURN JUMPDEST CALLVALUE PUSH2 0x4B3 JUMPI PUSH1 0x20 CALLDATASIZE PUSH1 0x3 NOT ADD SLT PUSH2 0x4B3 JUMPI PUSH1 0x4 CALLDATALOAD PUSH2 0x46F5 PUSH2 0x5F2E JUMP JUMPDEST PUSH1 0x6 SLOAD DUP2 LT ISZERO PUSH2 0x53A JUMPI DUP1 PUSH0 MSTORE PUSH1 0xC PUSH1 0x20 MSTORE PUSH1 0x40 PUSH0 KECCAK256 SWAP1 PUSH1 0x5 DUP3 ADD DUP1 SLOAD PUSH1 0x1 DUP1 PUSH1 0xA0 SHL SUB DUP2 PUSH1 0x18 SHR AND SWAP1 DUP2 CALLER SUB PUSH2 0xE33 JUMPI PUSH1 0xFF AND ISZERO PUSH2 0x3B2F JUMPI PUSH1 0xE DUP5 ADD DUP1 SLOAD SWAP5 PUSH1 0xFF DUP7 AND PUSH2 0x47FE JUMPI PUSH1 0x6 ADD SLOAD SWAP5 DUP6 ISZERO PUSH2 0x140E JUMPI PUSH1 0xFF NOT AND PUSH1 0x1 OR SWAP1 SSTORE PUSH1 0x3 SLOAD PUSH1 0x40 MLOAD PUSH4 0xA9059CBB PUSH1 0xE0 SHL DUP2 MSTORE PUSH1 0x1 PUSH1 0x1 PUSH1 0xA0 SHL SUB SWAP3 DUP4 AND PUSH1 0x4 DUP3 ADD MSTORE PUSH1 0x24 DUP2 ADD DUP7 SWAP1 MSTORE SWAP2 PUSH1 0x20 SWAP2 DUP4 SWAP2 PUSH1 0x44 SWAP2 DUP4 SWAP2 PUSH0 SWAP2 PUSH1 0x8 SHR AND GAS CALL SWAP1 DUP2 ISZERO PUSH2 0xDD4 JUMPI PUSH0 SWAP2 PUSH2 0x47DF JUMPI JUMPDEST POP ISZERO PUSH2 0xD96 JUMPI SLOAD PUSH1 0x40 MLOAD SWAP3 DUP4 MSTORE PUSH1 0x18 SHR PUSH1 0x1 PUSH1 0x1 PUSH1 0xA0 SHL SUB AND SWAP2 PUSH32 0x84CF34BF4FD222B829AFD4F81D8430050D146A50574FE8D5A5461A987D289EEA SWAP1 PUSH1 0x20 SWAP1 LOG3 PUSH1 0x1 DUP1 SSTORE STOP JUMPDEST PUSH2 0x47F8 SWAP2 POP PUSH1 0x20 RETURNDATASIZE PUSH1 0x20 GT PUSH2 0xDCD JUMPI PUSH2 0xDBF DUP2 DUP4 PUSH2 0x574F JUMP JUMPDEST DUP5 PUSH2 0x4799 JUMP JUMPDEST PUSH4 0xA4F163DF PUSH1 0xE0 SHL PUSH0 MSTORE PUSH1 0x4 PUSH0 REVERT JUMPDEST CALLVALUE PUSH2 0x4B3 JUMPI PUSH1 0x40 CALLDATASIZE PUSH1 0x3 NOT ADD SLT PUSH2 0x4B3 JUMPI PUSH2 0x2277 PUSH1 0x4 CALLDATALOAD PUSH2 0x482C PUSH2 0x5656 JUMP JUMPDEST SWAP1 PUSH2 0x4846 PUSH2 0x226D DUP3 PUSH0 MSTORE PUSH1 0x2 PUSH1 0x20 MSTORE PUSH1 0x1 PUSH1 0x40 PUSH0 KECCAK256 ADD SLOAD SWAP1 JUMP JUMPDEST PUSH2 0x61AD JUMP JUMPDEST CALLVALUE PUSH2 0x4B3 JUMPI PUSH2 0x120 CALLDATASIZE PUSH1 0x3 NOT ADD SLT PUSH2 0x4B3 JUMPI PUSH1 0x4 CALLDATALOAD PUSH1 0x1 PUSH1 0x1 PUSH1 0x40 SHL SUB DUP2 GT PUSH2 0x4B3 JUMPI PUSH2 0x487C SWAP1 CALLDATASIZE SWAP1 PUSH1 0x4 ADD PUSH2 0x5770 JUMP JUMPDEST PUSH1 0x24 CALLDATALOAD PUSH1 0x1 PUSH1 0x1 PUSH1 0x40 SHL SUB DUP2 GT PUSH2 0x4B3 JUMPI PUSH2 0x489B SWAP1 CALLDATASIZE SWAP1 PUSH1 0x4 ADD PUSH2 0x5770 JUMP JUMPDEST PUSH1 0x44 CALLDATALOAD PUSH1 0x1 PUSH1 0x1 PUSH1 0x40 SHL SUB DUP2 GT PUSH2 0x4B3 JUMPI PUSH2 0x48BA SWAP1 CALLDATASIZE SWAP1 PUSH1 0x4 ADD PUSH2 0x57DC JUMP JUMPDEST PUSH1 0x64 CALLDATALOAD PUSH1 0x1 PUSH1 0x1 PUSH1 0x40 SHL SUB DUP2 GT PUSH2 0x4B3 JUMPI PUSH2 0x48D9 SWAP1 CALLDATASIZE SWAP1 PUSH1 0x4 ADD PUSH2 0x57DC JUMP JUMPDEST PUSH1 0x84 CALLDATALOAD SWAP1 PUSH1 0xA4 CALLDATALOAD PUSH1 0x8 DUP2 LT ISZERO PUSH2 0x4B3 JUMPI PUSH2 0x104 CALLDATALOAD SWAP4 PUSH2 0x48F6 PUSH2 0x5F74 JUMP JUMPDEST PUSH2 0x48FE PUSH2 0x5F74 JUMP JUMPDEST PUSH0 SLOAD PUSH1 0x1 PUSH1 0x1 PUSH1 0xA0 SHL SUB AND CALLER EQ ISZERO DUP1 PUSH2 0x506E JUMPI JUMPDEST PUSH2 0xE33 JUMPI PUSH2 0xE10 DUP5 LT DUP1 ISZERO PUSH2 0x5061 JUMPI JUMPDEST PUSH2 0xE17 JUMPI DUP7 MLOAD ISZERO PUSH2 0xE08 JUMPI DUP1 MLOAD PUSH1 0x2 DUP2 LT SWAP1 DUP2 ISZERO PUSH2 0x5056 JUMPI JUMPDEST POP PUSH2 0xDEE JUMPI DUP1 MLOAD DUP4 MLOAD SUB PUSH2 0xDDF JUMPI PUSH9 0x56BC75E2D63100000 DUP6 LT PUSH2 0x218C JUMPI PUSH1 0x3 SLOAD PUSH1 0x40 MLOAD PUSH4 0x23B872DD PUSH1 0xE0 SHL DUP2 MSTORE CALLER PUSH1 0x4 DUP3 ADD MSTORE ADDRESS PUSH1 0x24 DUP3 ADD MSTORE PUSH1 0x44 DUP2 ADD DUP8 SWAP1 MSTORE SWAP1 PUSH1 0x20 SWAP1 DUP3 SWAP1 PUSH1 0x8 SHR PUSH1 0x1 PUSH1 0x1 PUSH1 0xA0 SHL SUB AND DUP2 PUSH0 DUP2 PUSH1 0x64 DUP2 ADD SUB SWAP3 GAS CALL SWAP1 DUP2 ISZERO PUSH2 0xDD4 JUMPI PUSH0 SWAP2 PUSH2 0x5037 JUMPI JUMPDEST POP ISZERO PUSH2 0xD96 JUMPI PUSH1 0x6 SLOAD SWAP4 PUSH2 0x49BA DUP6 PUSH2 0x592F JUMP JUMPDEST PUSH1 0x6 SSTORE DUP5 PUSH0 MSTORE PUSH1 0xC PUSH1 0x20 MSTORE PUSH1 0x40 PUSH0 KECCAK256 SWAP7 DUP9 MLOAD PUSH1 0x1 PUSH1 0x1 PUSH1 0x40 SHL SUB DUP2 GT PUSH2 0xA74 JUMPI PUSH2 0x49E4 DUP10 SLOAD PUSH2 0x5C9D JUMP JUMPDEST PUSH1 0x1F DUP2 GT PUSH2 0x4FF2 JUMPI JUMPDEST POP DUP1 PUSH1 0x20 PUSH1 0x1F DUP3 GT PUSH1 0x1 EQ PUSH2 0x4F8F JUMPI PUSH0 SWAP2 PUSH2 0x4F84 JUMPI JUMPDEST POP DUP2 PUSH1 0x1 SHL SWAP2 PUSH0 NOT SWAP1 PUSH1 0x3 SHL SHR NOT AND OR DUP9 SSTORE JUMPDEST DUP1 MLOAD PUSH1 0x1 DUP10 ADD SWAP2 PUSH1 0x1 PUSH1 0x1 PUSH1 0x40 SHL SUB DUP3 GT PUSH2 0xA74 JUMPI PUSH2 0x4A35 DUP4 SLOAD PUSH2 0x5C9D JUMP JUMPDEST PUSH1 0x1F DUP2 GT PUSH2 0x4F3F JUMPI JUMPDEST POP PUSH1 0x20 SWAP1 PUSH1 0x1F DUP4 GT PUSH1 0x1 EQ PUSH2 0x4EF0 JUMPI PUSH2 0x4A74 SWAP5 SWAP4 SWAP3 SWAP2 PUSH0 SWAP2 DUP4 PUSH2 0xC2B JUMPI POP POP DUP2 PUSH1 0x1 SHL SWAP2 PUSH0 NOT SWAP1 PUSH1 0x3 SHL SHR NOT AND OR SWAP1 SSTORE TIMESTAMP PUSH2 0x593D JUMP JUMPDEST PUSH1 0x2 DUP8 ADD SWAP1 DUP2 SSTORE PUSH1 0x3 DUP8 ADD DUP1 SLOAD PUSH2 0xFFFF NOT AND PUSH1 0xFF DUP6 AND OR PUSH2 0x100 OR SWAP1 SSTORE PUSH1 0x5 DUP8 ADD DUP1 SLOAD PUSH4 0x1000000 PUSH1 0x1 PUSH1 0xB8 SHL SUB NOT AND CALLER PUSH1 0x18 SHL PUSH4 0x1000000 PUSH1 0x1 PUSH1 0xB8 SHL SUB AND OR SWAP1 SSTORE TIMESTAMP PUSH1 0x9 DUP9 ADD SSTORE DUP2 MLOAD PUSH1 0xA DUP9 ADD DUP2 SWAP1 SSTORE PUSH1 0x6 DUP9 ADD DUP8 SWAP1 SSTORE PUSH0 PUSH1 0x7 DUP10 ADD SSTORE PUSH1 0xB DUP9 ADD DUP8 SWAP1 SSTORE SWAP1 SWAP8 SWAP1 DUP1 ISZERO PUSH2 0xC17 JUMPI PUSH2 0x4AFD SWAP1 PUSH8 0xDE0B6B3A7640000 SWAP10 SWAP9 SWAP10 DIV SWAP7 DUP4 MLOAD SWAP1 PUSH2 0x5918 JUMP JUMPDEST SWAP3 PUSH1 0xF PUSH0 SWAP10 ADD SWAP9 JUMPDEST DUP4 MLOAD DUP2 LT ISZERO PUSH2 0x4DFA JUMPI PUSH2 0x4B18 DUP2 DUP6 PUSH2 0x5DA7 JUMP JUMPDEST MLOAD DUP11 PUSH2 0x4B24 DUP4 DUP10 PUSH2 0x5DA7 JUMP JUMPDEST MLOAD PUSH1 0x40 MLOAD SWAP3 PUSH2 0x4B32 DUP5 PUSH2 0x5733 JUMP JUMPDEST DUP4 MSTORE PUSH1 0x20 DUP4 ADD SWAP1 DUP2 MSTORE PUSH1 0x40 DUP4 ADD PUSH0 DUP2 MSTORE PUSH1 0x60 DUP5 ADD PUSH0 DUP2 MSTORE PUSH1 0x80 DUP6 ADD SWAP1 DUP14 DUP3 MSTORE PUSH1 0xA0 DUP7 ADD SWAP3 PUSH1 0x1 DUP5 MSTORE PUSH1 0xC0 DUP8 ADD SWAP5 DUP13 DUP7 MSTORE PUSH1 0xE0 DUP9 ADD SWAP7 DUP14 DUP9 MSTORE DUP10 PUSH0 MSTORE PUSH1 0x20 MSTORE PUSH1 0x40 PUSH0 KECCAK256 SWAP8 MLOAD DUP1 MLOAD SWAP1 PUSH1 0x1 PUSH1 0x1 PUSH1 0x40 SHL SUB DUP3 GT PUSH2 0xA74 JUMPI DUP2 SWAP1 PUSH2 0x4B93 DUP12 SLOAD PUSH2 0x5C9D JUMP JUMPDEST PUSH1 0x1F DUP2 GT PUSH2 0x4DAA JUMPI JUMPDEST POP PUSH1 0x20 SWAP1 PUSH1 0x1F DUP4 GT PUSH1 0x1 EQ PUSH2 0x4D47 JUMPI PUSH0 SWAP3 PUSH2 0x4D3C JUMPI JUMPDEST POP POP DUP2 PUSH1 0x1 SHL SWAP2 PUSH0 NOT SWAP1 PUSH1 0x3 SHL SHR NOT AND OR DUP9 SSTORE JUMPDEST MLOAD DUP1 MLOAD PUSH1 0x1 DUP10 ADD SWAP2 PUSH1 0x1 PUSH1 0x1 PUSH1 0x40 SHL SUB DUP3 GT PUSH2 0xA74 JUMPI PUSH2 0x4BE6 DUP4 SLOAD PUSH2 0x5C9D JUMP JUMPDEST PUSH1 0x1F DUP2 GT PUSH2 0x4CF7 JUMPI JUMPDEST POP PUSH1 0x20 SWAP1 PUSH1 0x1F DUP4 GT PUSH1 0x1 EQ PUSH2 0x4C9E JUMPI SWAP3 DUP3 PUSH2 0x4C54 SWAP7 SWAP4 PUSH1 0x1 SWAP14 SWAP13 SWAP12 SWAP10 SWAP7 SWAP4 PUSH1 0x7 SWAP12 SWAP10 SWAP7 PUSH0 SWAP3 PUSH2 0x9B2 JUMPI POP POP PUSH0 NOT PUSH1 0x3 DUP4 SWAP1 SHL SHR NOT AND SWAP1 DUP14 SHL OR SWAP1 SSTORE MLOAD PUSH1 0x2 DUP10 ADD SSTORE MLOAD PUSH1 0x3 DUP9 ADD SSTORE MLOAD PUSH1 0x4 DUP8 ADD SSTORE MLOAD ISZERO ISZERO PUSH1 0x5 DUP7 ADD SWAP1 PUSH1 0xFF DUP1 NOT DUP4 SLOAD AND SWAP2 ISZERO ISZERO AND OR SWAP1 SSTORE JUMP JUMPDEST MLOAD PUSH1 0x6 DUP5 ADD SSTORE MLOAD SWAP2 ADD SSTORE DUP8 PUSH0 MSTORE PUSH1 0x10 PUSH1 0x20 MSTORE PUSH1 0x40 PUSH0 KECCAK256 DUP2 PUSH0 MSTORE PUSH1 0x20 MSTORE PUSH2 0x4C98 PUSH1 0x40 PUSH0 KECCAK256 PUSH1 0x40 MLOAD SWAP1 PUSH2 0x4C84 DUP3 PUSH2 0x56FD JUMP JUMPDEST DUP12 DUP3 MSTORE TIMESTAMP PUSH1 0x20 DUP4 ADD MSTORE PUSH0 PUSH1 0x40 DUP4 ADD MSTORE PUSH2 0x5DBB JUMP JUMPDEST ADD PUSH2 0x4B05 JUMP JUMPDEST SWAP1 PUSH1 0x1F NOT DUP4 AND SWAP2 DUP5 PUSH0 MSTORE DUP2 PUSH0 KECCAK256 SWAP3 PUSH0 JUMPDEST DUP2 DUP2 LT PUSH2 0x4CDF JUMPI POP SWAP4 PUSH1 0x1 SWAP14 SWAP13 SWAP12 SWAP10 SWAP7 SWAP4 PUSH1 0x7 SWAP12 SWAP10 SWAP7 SWAP4 DUP16 SWAP4 DUP4 PUSH2 0x4C54 SWAP12 SWAP9 LT PUSH2 0x9FF JUMPI POP POP POP DUP2 SHL ADD SWAP1 SSTORE PUSH2 0x93E JUMP JUMPDEST SWAP3 SWAP4 PUSH1 0x20 PUSH1 0x1 DUP2 SWAP3 DUP8 DUP7 ADD MLOAD DUP2 SSTORE ADD SWAP6 ADD SWAP4 ADD PUSH2 0x4CAE JUMP JUMPDEST DUP4 PUSH0 MSTORE PUSH1 0x20 PUSH0 KECCAK256 PUSH1 0x1F DUP5 ADD PUSH1 0x5 SHR DUP2 ADD SWAP2 PUSH1 0x20 DUP6 LT PUSH2 0x4D32 JUMPI JUMPDEST PUSH1 0x1F ADD PUSH1 0x5 SHR ADD SWAP1 JUMPDEST DUP2 DUP2 LT PUSH2 0x4D27 JUMPI POP PUSH2 0x4BEF JUMP JUMPDEST PUSH0 DUP2 SSTORE PUSH1 0x1 ADD PUSH2 0x4D1A JUMP JUMPDEST SWAP1 SWAP2 POP DUP2 SWAP1 PUSH2 0x4D11 JUMP JUMPDEST ADD MLOAD SWAP1 POP PUSH0 DUP1 PUSH2 0x4BB2 JUMP JUMPDEST PUSH0 DUP13 DUP2 MSTORE DUP3 DUP2 KECCAK256 SWAP4 POP PUSH1 0x1F NOT DUP6 AND SWAP1 JUMPDEST DUP2 DUP2 LT PUSH2 0x4D92 JUMPI POP SWAP1 DUP5 PUSH1 0x1 SWAP6 SWAP5 SWAP4 SWAP3 LT PUSH2 0x4D7A JUMPI JUMPDEST POP POP POP DUP2 SHL ADD DUP9 SSTORE PUSH2 0x4BC6 JUMP JUMPDEST ADD MLOAD PUSH0 NOT PUSH1 0xF8 DUP5 PUSH1 0x3 SHL AND SHR NOT AND SWAP1 SSTORE PUSH0 DUP1 DUP1 PUSH2 0x4D6D JUMP JUMPDEST SWAP3 SWAP4 PUSH1 0x20 PUSH1 0x1 DUP2 SWAP3 DUP8 DUP7 ADD MLOAD DUP2 SSTORE ADD SWAP6 ADD SWAP4 ADD PUSH2 0x4D57 JUMP JUMPDEST SWAP1 SWAP2 POP DUP11 PUSH0 MSTORE PUSH1 0x20 PUSH0 KECCAK256 PUSH1 0x1F DUP5 ADD PUSH1 0x5 SHR DUP2 ADD SWAP2 PUSH1 0x20 DUP6 LT PUSH2 0x4DF0 JUMPI JUMPDEST SWAP1 PUSH1 0x1F DUP6 SWAP5 SWAP4 SWAP3 ADD PUSH1 0x5 SHR ADD SWAP1 JUMPDEST DUP2 DUP2 LT PUSH2 0x4DE2 JUMPI POP PUSH2 0x4B9C JUMP JUMPDEST PUSH0 DUP2 SSTORE DUP5 SWAP4 POP PUSH1 0x1 ADD PUSH2 0x4DD5 JUMP JUMPDEST SWAP1 SWAP2 POP DUP2 SWAP1 PUSH2 0x4DC7 JUMP JUMPDEST POP DUP3 DUP7 SWAP2 DUP10 PUSH2 0x4E0C DUP5 PUSH2 0xB59 DUP5 PUSH2 0x58D7 JUMP JUMPDEST PUSH2 0x4E1A DUP5 PUSH2 0xB59 PUSH1 0x1 PUSH2 0x58EE JUMP JUMPDEST SLOAD PUSH2 0x4E30 PUSH1 0x40 MLOAD SWAP6 PUSH1 0xC0 DUP8 MSTORE PUSH1 0xC0 DUP8 ADD SWAP1 PUSH2 0x5685 JUMP JUMPDEST DUP6 DUP2 SUB PUSH1 0x20 DUP8 ADD MSTORE DUP4 MLOAD DUP1 DUP3 MSTORE PUSH1 0x20 DUP3 ADD SWAP2 PUSH1 0x20 DUP1 DUP4 PUSH1 0x5 SHL DUP4 ADD ADD SWAP7 ADD SWAP3 PUSH0 SWAP2 JUMPDEST DUP4 DUP4 LT PUSH2 0x4EC3 JUMPI PUSH1 0x20 DUP10 DUP1 PUSH0 DUP1 MLOAD PUSH1 0x20 PUSH2 0x6367 DUP4 CODECOPY DUP2 MLOAD SWAP2 MSTORE DUP14 DUP1 DUP14 PUSH2 0x4E82 DUP15 DUP15 PUSH1 0x40 DUP6 ADD MSTORE PUSH1 0x60 DUP5 ADD SWAP1 PUSH2 0x585A JUMP JUMPDEST PUSH1 0x1 PUSH1 0x80 DUP4 ADD MSTORE CALLER PUSH1 0xA0 DUP4 ADD MSTORE SUB SWAP1 LOG2 DUP1 PUSH0 MSTORE PUSH1 0xC DUP3 MSTORE PUSH1 0x1A PUSH1 0x40 PUSH0 KECCAK256 PUSH1 0xC4 CALLDATALOAD PUSH1 0x17 DUP3 ADD SSTORE PUSH1 0xE4 CALLDATALOAD PUSH1 0x18 DUP3 ADD SSTORE ADD PUSH1 0x1 PUSH1 0xFF NOT DUP3 SLOAD AND OR SWAP1 SSTORE PUSH1 0x40 MLOAD SWAP1 DUP2 MSTORE RETURN JUMPDEST SWAP1 SWAP2 SWAP3 SWAP4 SWAP7 PUSH1 0x20 DUP1 PUSH2 0x4EE1 PUSH1 0x1 SWAP4 PUSH1 0x1F NOT DUP7 DUP3 SUB ADD DUP8 MSTORE DUP12 MLOAD PUSH2 0x5685 JUMP JUMPDEST SWAP10 ADD SWAP4 ADD SWAP4 ADD SWAP2 SWAP4 SWAP3 SWAP1 PUSH2 0x4E52 JUMP JUMPDEST SWAP1 PUSH1 0x1F NOT DUP4 AND SWAP2 DUP5 PUSH0 MSTORE DUP2 PUSH0 KECCAK256 SWAP3 PUSH0 JUMPDEST DUP2 DUP2 LT PUSH2 0x4F27 JUMPI POP SWAP2 PUSH1 0x1 SWAP4 SWAP2 DUP6 PUSH2 0x4A74 SWAP9 SWAP8 SWAP7 SWAP5 LT PUSH2 0xC6E JUMPI POP POP POP DUP2 SHL ADD SWAP1 SSTORE PUSH2 0x76B JUMP JUMPDEST SWAP3 SWAP4 PUSH1 0x20 PUSH1 0x1 DUP2 SWAP3 DUP8 DUP7 ADD MLOAD DUP2 SSTORE ADD SWAP6 ADD SWAP4 ADD PUSH2 0x4F00 JUMP JUMPDEST DUP4 PUSH0 MSTORE PUSH1 0x20 PUSH0 KECCAK256 PUSH1 0x1F DUP5 ADD PUSH1 0x5 SHR DUP2 ADD SWAP2 PUSH1 0x20 DUP6 LT PUSH2 0x4F7A JUMPI JUMPDEST PUSH1 0x1F ADD PUSH1 0x5 SHR ADD SWAP1 JUMPDEST DUP2 DUP2 LT PUSH2 0x4F6F JUMPI POP PUSH2 0x4A3E JUMP JUMPDEST PUSH0 DUP2 SSTORE PUSH1 0x1 ADD PUSH2 0x4F62 JUMP JUMPDEST SWAP1 SWAP2 POP DUP2 SWAP1 PUSH2 0x4F59 JUMP JUMPDEST SWAP1 POP DUP11 ADD MLOAD DUP12 PUSH2 0x4A03 JUMP JUMPDEST PUSH0 DUP12 DUP2 MSTORE DUP2 DUP2 KECCAK256 SWAP3 POP PUSH1 0x1F NOT DUP5 AND SWAP1 JUMPDEST DUP14 DUP3 DUP3 LT PUSH2 0x4FDA JUMPI POP POP SWAP1 DUP4 PUSH1 0x1 SWAP5 SWAP4 SWAP3 LT PUSH2 0x4FC2 JUMPI JUMPDEST POP POP DUP2 SHL ADD DUP9 SSTORE PUSH2 0x4A16 JUMP JUMPDEST DUP13 ADD MLOAD PUSH0 NOT PUSH1 0xF8 DUP5 PUSH1 0x3 SHL AND SHR NOT AND SWAP1 SSTORE DUP12 DUP1 PUSH2 0x4FB6 JUMP JUMPDEST PUSH1 0x1 DUP5 SWAP6 PUSH1 0x20 SWAP4 SWAP6 DUP5 SWAP4 ADD MLOAD DUP2 SSTORE ADD SWAP5 ADD SWAP3 ADD PUSH2 0x4F9F JUMP JUMPDEST DUP10 PUSH0 MSTORE PUSH1 0x20 PUSH0 KECCAK256 PUSH1 0x1F DUP4 ADD PUSH1 0x5 SHR DUP2 ADD SWAP2 PUSH1 0x20 DUP5 LT PUSH2 0x502D JUMPI JUMPDEST PUSH1 0x1F ADD PUSH1 0x5 SHR ADD SWAP1 JUMPDEST DUP2 DUP2 LT PUSH2 0x5022 JUMPI POP PUSH2 0x49ED JUMP JUMPDEST PUSH0 DUP2 SSTORE PUSH1 0x1 ADD PUSH2 0x5015 JUMP JUMPDEST SWAP1 SWAP2 POP DUP2 SWAP1 PUSH2 0x500C JUMP JUMPDEST PUSH2 0x5050 SWAP2 POP PUSH1 0x20 RETURNDATASIZE PUSH1 0x20 GT PUSH2 0xDCD JUMPI PUSH2 0xDBF DUP2 DUP4 PUSH2 0x574F JUMP JUMPDEST DUP9 PUSH2 0x49A7 JUMP JUMPDEST PUSH1 0xA SWAP2 POP GT DUP9 PUSH2 0x493B JUMP JUMPDEST POP PUSH4 0x1E13380 DUP5 GT PUSH2 0x4922 JUMP JUMPDEST POP CALLER PUSH0 SWAP1 DUP2 MSTORE PUSH0 DUP1 MLOAD PUSH1 0x20 PUSH2 0x6327 DUP4 CODECOPY DUP2 MLOAD SWAP2 MSTORE PUSH1 0x20 MSTORE PUSH1 0x40 SWAP1 KECCAK256 SLOAD PUSH1 0xFF AND ISZERO PUSH2 0x4912 JUMP JUMPDEST CALLVALUE PUSH2 0x4B3 JUMPI PUSH1 0x20 CALLDATASIZE PUSH1 0x3 NOT ADD SLT PUSH2 0x4B3 JUMPI PUSH1 0x4 CALLDATALOAD PUSH1 0x6 SLOAD DUP2 LT ISZERO PUSH2 0x53A JUMPI PUSH0 MSTORE PUSH1 0xC PUSH1 0x20 MSTORE PUSH1 0x40 PUSH0 KECCAK256 PUSH1 0xA DUP2 ADD SLOAD PUSH2 0x50CA DUP2 PUSH2 0x5D75 JUMP JUMPDEST SWAP1 PUSH0 SWAP3 PUSH1 0xF PUSH0 SWAP2 ADD SWAP1 JUMPDEST DUP3 DUP2 LT PUSH2 0x5141 JUMPI POP PUSH0 JUMPDEST DUP3 DUP2 LT PUSH2 0x50F3 JUMPI PUSH1 0x40 MLOAD DUP1 PUSH2 0x2408 DUP7 DUP3 PUSH2 0x56A9 JUMP JUMPDEST DUP1 PUSH0 MSTORE DUP2 PUSH1 0x20 MSTORE PUSH1 0x6 PUSH1 0x40 PUSH0 KECCAK256 ADD SLOAD SWAP1 PUSH8 0xDE0B6B3A7640000 DUP3 MUL SWAP2 DUP1 DUP4 DIV PUSH8 0xDE0B6B3A7640000 EQ SWAP1 ISZERO OR ISZERO PUSH2 0xF0E JUMPI PUSH2 0x5130 DUP7 PUSH1 0x1 SWAP4 PUSH2 0x5918 JUMP JUMPDEST PUSH2 0x513A DUP3 DUP8 PUSH2 0x5DA7 JUMP JUMPDEST MSTORE ADD PUSH2 0x50DE JUMP JUMPDEST SWAP4 PUSH2 0x515D PUSH1 0x1 SWAP2 DUP7 PUSH0 MSTORE DUP4 PUSH1 0x20 MSTORE PUSH1 0x6 PUSH1 0x40 PUSH0 KECCAK256 ADD SLOAD SWAP1 PUSH2 0x593D JUMP JUMPDEST SWAP5 ADD PUSH2 0x50D4 JUMP JUMPDEST CALLVALUE PUSH2 0x4B3 JUMPI PUSH1 0x20 CALLDATASIZE PUSH1 0x3 NOT ADD SLT PUSH2 0x4B3 JUMPI PUSH1 0x20 PUSH2 0x27D4 PUSH1 0x4 CALLDATALOAD PUSH0 MSTORE PUSH1 0x2 PUSH1 0x20 MSTORE PUSH1 0x1 PUSH1 0x40 PUSH0 KECCAK256 ADD SLOAD SWAP1 JUMP JUMPDEST CALLVALUE PUSH2 0x4B3 JUMPI PUSH2 0x519D CALLDATASIZE PUSH2 0x562A JUMP JUMPDEST SWAP1 PUSH1 0x6 SLOAD DUP2 LT ISZERO PUSH2 0x53A JUMPI PUSH0 MSTORE PUSH1 0xC PUSH1 0x20 MSTORE PUSH1 0xF PUSH1 0x40 PUSH0 KECCAK256 ADD SWAP1 PUSH0 MSTORE PUSH1 0x20 MSTORE PUSH2 0x5207 PUSH1 0x40 PUSH0 KECCAK256 PUSH1 0x2 DUP2 ADD SLOAD PUSH1 0x3 DUP3 ADD SLOAD PUSH1 0x4 DUP4 ADD SLOAD PUSH1 0xFF PUSH1 0x5 DUP6 ADD SLOAD AND SWAP2 PUSH2 0x5215 PUSH2 0x51F3 PUSH1 0x1 PUSH2 0x51EC DUP9 PUSH2 0x5CD5 JUMP JUMPDEST SWAP8 ADD PUSH2 0x5CD5 JUMP JUMPDEST PUSH1 0x40 MLOAD SWAP8 DUP9 SWAP8 PUSH1 0xC0 DUP10 MSTORE PUSH1 0xC0 DUP10 ADD SWAP1 PUSH2 0x5685 JUMP JUMPDEST SWAP1 DUP8 DUP3 SUB PUSH1 0x20 DUP10 ADD MSTORE PUSH2 0x5685 JUMP JUMPDEST SWAP4 PUSH1 0x40 DUP7 ADD MSTORE PUSH1 0x60 DUP6 ADD MSTORE PUSH1 0x80 DUP5 ADD MSTORE ISZERO ISZERO PUSH1 0xA0 DUP4 ADD MSTORE SUB SWAP1 RETURN JUMPDEST CALLVALUE PUSH2 0x4B3 JUMPI PUSH1 0x20 CALLDATASIZE PUSH1 0x3 NOT ADD SLT PUSH2 0x4B3 JUMPI PUSH2 0x5249 PUSH2 0x5F4E JUMP JUMPDEST PUSH1 0x4 CALLDATALOAD PUSH1 0x9 SSTORE STOP JUMPDEST CALLVALUE PUSH2 0x4B3 JUMPI PUSH1 0x20 CALLDATASIZE PUSH1 0x3 NOT ADD SLT PUSH2 0x4B3 JUMPI PUSH2 0x526A PUSH2 0x5640 JUMP JUMPDEST PUSH0 PUSH1 0x80 PUSH1 0x40 MLOAD PUSH2 0x5279 DUP2 PUSH2 0x56E2 JUMP JUMPDEST DUP3 DUP2 MSTORE DUP3 PUSH1 0x20 DUP3 ADD MSTORE DUP3 PUSH1 0x40 DUP3 ADD MSTORE DUP3 PUSH1 0x60 DUP3 ADD MSTORE ADD MSTORE PUSH1 0x1 DUP1 PUSH1 0xA0 SHL SUB AND PUSH0 MSTORE PUSH1 0xD PUSH1 0x20 MSTORE PUSH1 0xA0 PUSH1 0x40 PUSH0 KECCAK256 PUSH1 0x40 MLOAD PUSH2 0x52B1 DUP2 PUSH2 0x56E2 JUMP JUMPDEST DUP2 SLOAD SWAP2 DUP3 DUP3 MSTORE PUSH1 0x1 DUP2 ADD SLOAD PUSH1 0x20 DUP4 ADD SWAP1 DUP2 MSTORE PUSH1 0x2 DUP3 ADD SLOAD SWAP1 PUSH1 0x40 DUP5 ADD SWAP2 DUP3 MSTORE PUSH1 0x80 PUSH1 0x4 PUSH1 0x3 DUP6 ADD SLOAD SWAP5 PUSH1 0x60 DUP8 ADD SWAP6 DUP7 MSTORE ADD SLOAD SWAP5 ADD SWAP4 DUP5 MSTORE PUSH1 0x40 MLOAD SWAP5 DUP6 MSTORE MLOAD PUSH1 0x20 DUP6 ADD MSTORE MLOAD PUSH1 0x40 DUP5 ADD MSTORE MLOAD PUSH1 0x60 DUP4 ADD MSTORE MLOAD PUSH1 0x80 DUP3 ADD MSTORE RETURN JUMPDEST CALLVALUE PUSH2 0x4B3 JUMPI PUSH2 0x5316 CALLDATASIZE PUSH2 0x562A JUMP JUMPDEST SWAP1 PUSH0 MSTORE PUSH1 0xF PUSH1 0x20 MSTORE PUSH1 0x40 PUSH0 KECCAK256 SWAP1 DUP2 SLOAD DUP2 LT ISZERO PUSH2 0x4B3 JUMPI PUSH2 0x5335 SWAP2 PUSH2 0x566C JUMP JUMPDEST POP DUP1 SLOAD PUSH1 0x1 DUP3 ADD SLOAD PUSH1 0x2 DUP4 ADD SLOAD PUSH1 0x3 DUP5 ADD SLOAD PUSH1 0x4 DUP6 ADD SLOAD PUSH1 0x5 DUP7 ADD SLOAD PUSH1 0x6 SWAP1 SWAP7 ADD SLOAD PUSH1 0x40 DUP1 MLOAD SWAP7 DUP8 MSTORE PUSH1 0x20 DUP8 ADD SWAP6 SWAP1 SWAP6 MSTORE PUSH1 0x1 PUSH1 0x1 PUSH1 0xA0 SHL SUB SWAP4 DUP5 AND SWAP5 DUP7 ADD SWAP5 SWAP1 SWAP5 MSTORE SWAP2 AND PUSH1 0x60 DUP5 ADD MSTORE PUSH1 0x80 DUP4 ADD MSTORE PUSH1 0xA0 DUP3 ADD SWAP3 SWAP1 SWAP3 MSTORE PUSH1 0xC0 DUP2 ADD SWAP2 SWAP1 SWAP2 MSTORE PUSH1 0xE0 SWAP1 RETURN JUMPDEST CALLVALUE PUSH2 0x4B3 JUMPI PUSH1 0x20 CALLDATASIZE PUSH1 0x3 NOT ADD SLT PUSH2 0x4B3 JUMPI PUSH2 0x53B2 PUSH2 0x5640 JUMP JUMPDEST PUSH2 0x53BA PUSH2 0x5F4E JUMP JUMPDEST PUSH1 0x1 PUSH1 0x1 PUSH1 0xA0 SHL SUB DUP2 AND SWAP1 DUP2 ISZERO PUSH2 0x45D JUMPI PUSH1 0x3 DUP1 SLOAD PUSH1 0x4 DUP1 SLOAD PUSH1 0x1 PUSH1 0x1 PUSH1 0xA0 SHL SUB NOT AND PUSH1 0x8 DUP4 DUP2 SHR PUSH1 0x1 PUSH1 0x1 PUSH1 0xA0 SHL SUB AND SWAP2 DUP3 OR SWAP1 SWAP3 SSTORE PUSH2 0x100 PUSH1 0x1 PUSH1 0xA8 SHL SUB NOT SWAP1 SWAP3 AND SWAP4 SWAP1 SHL PUSH2 0x100 PUSH1 0x1 PUSH1 0xA8 SHL SUB AND SWAP3 SWAP1 SWAP3 OR SWAP1 SSTORE TIMESTAMP PUSH1 0x5 DUP2 SWAP1 SSTORE PUSH1 0x40 MLOAD SWAP1 DUP2 MSTORE PUSH32 0xA16C473A31F9F07338CD1D3CCEBDA80CEFDC0CB743AEC539AF892ABFBF5A534E SWAP1 PUSH1 0x20 SWAP1 LOG3 STOP JUMPDEST CALLVALUE PUSH2 0x4B3 JUMPI PUSH0 CALLDATASIZE PUSH1 0x3 NOT ADD SLT PUSH2 0x4B3 JUMPI PUSH1 0x80 PUSH1 0xB SLOAD PUSH1 0x1 DUP1 PUSH1 0xA0 SHL SUB PUSH1 0xA SLOAD AND PUSH1 0x6 SLOAD PUSH1 0x7 SLOAD SWAP2 PUSH1 0x40 MLOAD SWAP4 DUP5 MSTORE PUSH1 0x20 DUP5 ADD MSTORE PUSH1 0x40 DUP4 ADD MSTORE PUSH1 0x60 DUP3 ADD MSTORE RETURN JUMPDEST CALLVALUE PUSH2 0x4B3 JUMPI PUSH0 CALLDATASIZE PUSH1 0x3 NOT ADD SLT PUSH2 0x4B3 JUMPI PUSH1 0x20 PUSH1 0x40 MLOAD PUSH1 0x1E DUP2 MSTORE RETURN JUMPDEST CALLVALUE PUSH2 0x4B3 JUMPI PUSH0 CALLDATASIZE PUSH1 0x3 NOT ADD SLT PUSH2 0x4B3 JUMPI PUSH1 0x20 PUSH1 0x5 SLOAD PUSH1 0x40 MLOAD SWAP1 DUP2 MSTORE RETURN JUMPDEST CALLVALUE PUSH2 0x4B3 JUMPI PUSH0 CALLDATASIZE PUSH1 0x3 NOT ADD SLT PUSH2 0x4B3 JUMPI PUSH1 0x20 PUSH1 0x40 MLOAD PUSH1 0xA DUP2 MSTORE RETURN JUMPDEST CALLVALUE PUSH2 0x4B3 JUMPI PUSH1 0x40 CALLDATASIZE PUSH1 0x3 NOT ADD SLT PUSH2 0x4B3 JUMPI PUSH2 0x54EF PUSH2 0x5640 JUMP JUMPDEST PUSH1 0x1 PUSH1 0x1 PUSH1 0xA0 SHL SUB AND PUSH0 SWAP1 DUP2 MSTORE PUSH1 0xE PUSH1 0x20 MSTORE PUSH1 0x40 SWAP1 KECCAK256 DUP1 SLOAD PUSH1 0x24 CALLDATALOAD SWAP1 DUP2 LT ISZERO PUSH2 0x4B3 JUMPI PUSH2 0x5335 SWAP2 PUSH2 0x566C JUMP JUMPDEST CALLVALUE PUSH2 0x4B3 JUMPI PUSH2 0x5529 CALLDATASIZE PUSH2 0x562A JUMP JUMPDEST PUSH2 0x5531 PUSH2 0x5F2E JUMP JUMPDEST PUSH1 0x6 SLOAD DUP3 LT ISZERO PUSH2 0x53A JUMPI PUSH2 0x5544 SWAP2 PUSH2 0x5962 JUMP JUMPDEST PUSH1 0x1 DUP1 SSTORE STOP JUMPDEST CALLVALUE PUSH2 0x4B3 JUMPI PUSH1 0x20 CALLDATASIZE PUSH1 0x3 NOT ADD SLT PUSH2 0x4B3 JUMPI PUSH1 0x4 CALLDATALOAD PUSH1 0x16 SLOAD DUP2 LT ISZERO PUSH2 0x4B3 JUMPI PUSH1 0x16 SLOAD DUP2 LT ISZERO PUSH2 0x55AE JUMPI PUSH1 0x16 PUSH0 MSTORE PUSH32 0xD833147D7DC355BA459FC788F669E58CFAF9DC25DDCD0702E87D69C7B5124289 ADD SLOAD PUSH1 0x40 MLOAD PUSH1 0x1 PUSH1 0x1 PUSH1 0xA0 SHL SUB SWAP1 SWAP2 AND DUP2 MSTORE PUSH1 0x20 SWAP1 RETURN JUMPDEST PUSH4 0x4E487B71 PUSH1 0xE0 SHL PUSH0 MSTORE PUSH1 0x32 PUSH1 0x4 MSTORE PUSH1 0x24 PUSH0 REVERT JUMPDEST CALLVALUE PUSH2 0x4B3 JUMPI PUSH1 0x20 CALLDATASIZE PUSH1 0x3 NOT ADD SLT PUSH2 0x4B3 JUMPI PUSH1 0x4 CALLDATALOAD SWAP1 PUSH4 0xFFFFFFFF PUSH1 0xE0 SHL DUP3 AND DUP1 SWAP3 SUB PUSH2 0x4B3 JUMPI PUSH1 0x20 SWAP2 PUSH4 0x7965DB0B PUSH1 0xE0 SHL DUP2 EQ SWAP1 DUP2 ISZERO PUSH2 0x5604 JUMPI JUMPDEST POP ISZERO ISZERO DUP2 MSTORE RETURN JUMPDEST PUSH4 0x1FFC9A7 PUSH1 0xE0 SHL EQ SWAP1 POP DUP4 PUSH2 0x55FD JUMP JUMPDEST DUP1 SLOAD DUP3 LT ISZERO PUSH2 0x55AE JUMPI PUSH0 MSTORE PUSH1 0x20 PUSH0 KECCAK256 ADD SWAP1 PUSH0 SWAP1 JUMP JUMPDEST PUSH1 0x40 SWAP1 PUSH1 0x3 NOT ADD SLT PUSH2 0x4B3 JUMPI PUSH1 0x4 CALLDATALOAD SWAP1 PUSH1 0x24 CALLDATALOAD SWAP1 JUMP JUMPDEST PUSH1 0x4 CALLDATALOAD SWAP1 PUSH1 0x1 PUSH1 0x1 PUSH1 0xA0 SHL SUB DUP3 AND DUP3 SUB PUSH2 0x4B3 JUMPI JUMP JUMPDEST PUSH1 0x24 CALLDATALOAD SWAP1 PUSH1 0x1 PUSH1 0x1 PUSH1 0xA0 SHL SUB DUP3 AND DUP3 SUB PUSH2 0x4B3 JUMPI JUMP JUMPDEST DUP1 SLOAD DUP3 LT ISZERO PUSH2 0x55AE JUMPI PUSH0 MSTORE PUSH1 0x7 PUSH1 0x20 PUSH0 KECCAK256 SWAP2 MUL ADD SWAP1 PUSH0 SWAP1 JUMP JUMPDEST DUP1 MLOAD DUP1 DUP4 MSTORE PUSH1 0x20 SWAP3 SWAP2 DUP2 SWAP1 DUP5 ADD DUP5 DUP5 ADD MCOPY PUSH0 DUP3 DUP3 ADD DUP5 ADD MSTORE PUSH1 0x1F ADD PUSH1 0x1F NOT AND ADD ADD SWAP1 JUMP JUMPDEST PUSH1 0x20 PUSH1 0x40 DUP2 DUP4 ADD SWAP3 DUP3 DUP2 MSTORE DUP5 MLOAD DUP1 SWAP5 MSTORE ADD SWAP3 ADD SWAP1 PUSH0 JUMPDEST DUP2 DUP2 LT PUSH2 0x56CC JUMPI POP POP POP SWAP1 JUMP JUMPDEST DUP3 MLOAD DUP5 MSTORE PUSH1 0x20 SWAP4 DUP5 ADD SWAP4 SWAP1 SWAP3 ADD SWAP2 PUSH1 0x1 ADD PUSH2 0x56BF JUMP JUMPDEST PUSH1 0xA0 DUP2 ADD SWAP1 DUP2 LT PUSH1 0x1 PUSH1 0x1 PUSH1 0x40 SHL SUB DUP3 GT OR PUSH2 0xA74 JUMPI PUSH1 0x40 MSTORE JUMP JUMPDEST PUSH1 0x60 DUP2 ADD SWAP1 DUP2 LT PUSH1 0x1 PUSH1 0x1 PUSH1 0x40 SHL SUB DUP3 GT OR PUSH2 0xA74 JUMPI PUSH1 0x40 MSTORE JUMP JUMPDEST PUSH1 0xE0 DUP2 ADD SWAP1 DUP2 LT PUSH1 0x1 PUSH1 0x1 PUSH1 0x40 SHL SUB DUP3 GT OR PUSH2 0xA74 JUMPI PUSH1 0x40 MSTORE JUMP JUMPDEST PUSH2 0x100 DUP2 ADD SWAP1 DUP2 LT PUSH1 0x1 PUSH1 0x1 PUSH1 0x40 SHL SUB DUP3 GT OR PUSH2 0xA74 JUMPI PUSH1 0x40 MSTORE JUMP JUMPDEST SWAP1 PUSH1 0x1F DUP1 NOT SWAP2 ADD AND DUP2 ADD SWAP1 DUP2 LT PUSH1 0x1 PUSH1 0x1 PUSH1 0x40 SHL SUB DUP3 GT OR PUSH2 0xA74 JUMPI PUSH1 0x40 MSTORE JUMP JUMPDEST DUP2 PUSH1 0x1F DUP3 ADD SLT ISZERO PUSH2 0x4B3 JUMPI DUP1 CALLDATALOAD SWAP1 PUSH1 0x1 PUSH1 0x1 PUSH1 0x40 SHL SUB DUP3 GT PUSH2 0xA74 JUMPI PUSH1 0x40 MLOAD SWAP3 PUSH2 0x57A4 PUSH1 0x1F DUP5 ADD PUSH1 0x1F NOT AND PUSH1 0x20 ADD DUP6 PUSH2 0x574F JUMP JUMPDEST DUP3 DUP5 MSTORE PUSH1 0x20 DUP4 DUP4 ADD ADD GT PUSH2 0x4B3 JUMPI DUP2 PUSH0 SWAP3 PUSH1 0x20 DUP1 SWAP4 ADD DUP4 DUP7 ADD CALLDATACOPY DUP4 ADD ADD MSTORE SWAP1 JUMP JUMPDEST PUSH1 0x1 PUSH1 0x1 PUSH1 0x40 SHL SUB DUP2 GT PUSH2 0xA74 JUMPI PUSH1 0x5 SHL PUSH1 0x20 ADD SWAP1 JUMP JUMPDEST SWAP1 DUP1 PUSH1 0x1F DUP4 ADD SLT ISZERO PUSH2 0x4B3 JUMPI DUP2 CALLDATALOAD PUSH2 0x57F3 DUP2 PUSH2 0x57C5 JUMP JUMPDEST SWAP3 PUSH2 0x5801 PUSH1 0x40 MLOAD SWAP5 DUP6 PUSH2 0x574F JUMP JUMPDEST DUP2 DUP5 MSTORE PUSH1 0x20 DUP1 DUP6 ADD SWAP3 PUSH1 0x5 SHL DUP3 ADD ADD SWAP2 DUP4 DUP4 GT PUSH2 0x4B3 JUMPI PUSH1 0x20 DUP3 ADD SWAP1 JUMPDEST DUP4 DUP3 LT PUSH2 0x582D JUMPI POP POP POP POP POP SWAP1 JUMP JUMPDEST DUP2 CALLDATALOAD PUSH1 0x1 PUSH1 0x1 PUSH1 0x40 SHL SUB DUP2 GT PUSH2 0x4B3 JUMPI PUSH1 0x20 SWAP2 PUSH2 0x584F DUP8 DUP5 DUP1 SWAP5 DUP9 ADD ADD PUSH2 0x5770 JUMP JUMPDEST DUP2 MSTORE ADD SWAP2 ADD SWAP1 PUSH2 0x581E JUMP JUMPDEST SWAP1 PUSH1 0x8 DUP3 LT ISZERO PUSH2 0x26D4 JUMPI MSTORE JUMP JUMPDEST PUSH1 0x80 SWAP1 PUSH1 0x3 NOT ADD SLT PUSH2 0x4B3 JUMPI PUSH1 0x4 CALLDATALOAD SWAP1 PUSH1 0x24 CALLDATALOAD SWAP1 PUSH1 0x44 CALLDATALOAD SWAP1 PUSH1 0x64 CALLDATALOAD SWAP1 JUMP JUMPDEST PUSH1 0x60 SWAP1 PUSH1 0x3 NOT ADD SLT PUSH2 0x4B3 JUMPI PUSH1 0x4 CALLDATALOAD SWAP1 PUSH1 0x24 CALLDATALOAD SWAP1 PUSH1 0x44 CALLDATALOAD SWAP1 JUMP JUMPDEST DUP1 SLOAD DUP3 LT ISZERO PUSH2 0x55AE JUMPI PUSH0 MSTORE PUSH1 0x3 PUSH1 0x20 PUSH0 KECCAK256 SWAP2 MUL ADD SWAP1 PUSH0 SWAP1 JUMP JUMPDEST PUSH1 0x40 SWAP1 PUSH1 0x3 NOT ADD SLT PUSH2 0x4B3 JUMPI PUSH1 0x4 CALLDATALOAD PUSH1 0x8 DUP2 LT ISZERO PUSH2 0x4B3 JUMPI SWAP1 PUSH1 0x24 CALLDATALOAD SWAP1 JUMP JUMPDEST PUSH1 0x8 DUP2 LT ISZERO PUSH2 0x26D4 JUMPI PUSH0 MSTORE PUSH1 0x11 PUSH1 0x20 MSTORE PUSH1 0x40 PUSH0 KECCAK256 SWAP1 JUMP JUMPDEST PUSH1 0x3 DUP2 LT ISZERO PUSH2 0x26D4 JUMPI PUSH0 MSTORE PUSH1 0x13 PUSH1 0x20 MSTORE PUSH1 0x40 PUSH0 KECCAK256 SWAP1 JUMP JUMPDEST DUP2 DUP2 MUL SWAP3 SWAP2 DUP2 ISZERO SWAP2 DUP5 DIV EQ OR ISZERO PUSH2 0xF0E JUMPI JUMP JUMPDEST DUP2 ISZERO PUSH2 0xC17 JUMPI DIV SWAP1 JUMP JUMPDEST SWAP2 SWAP1 DUP3 SUB SWAP2 DUP3 GT PUSH2 0xF0E JUMPI JUMP JUMPDEST PUSH0 NOT DUP2 EQ PUSH2 0xF0E JUMPI PUSH1 0x1 ADD SWAP1 JUMP JUMPDEST SWAP2 SWAP1 DUP3 ADD DUP1 SWAP3 GT PUSH2 0xF0E JUMPI JUMP JUMPDEST SWAP1 DUP2 PUSH1 0x20 SWAP2 SUB SLT PUSH2 0x4B3 JUMPI MLOAD DUP1 ISZERO ISZERO DUP2 SUB PUSH2 0x4B3 JUMPI SWAP1 JUMP JUMPDEST SWAP2 PUSH1 0x1 DUP1 PUSH1 0xA0 SHL SUB PUSH0 SLOAD AND CALLER EQ ISZERO DUP1 PUSH2 0x5C78 JUMPI JUMPDEST PUSH2 0xE33 JUMPI DUP3 PUSH0 MSTORE PUSH1 0xC PUSH1 0x20 MSTORE PUSH1 0x40 PUSH0 KECCAK256 PUSH1 0x5 DUP2 ADD SLOAD PUSH1 0xFF DUP2 AND ISZERO SWAP1 DUP2 ISZERO PUSH2 0x5C6A JUMPI JUMPDEST POP PUSH2 0x3485 JUMPI PUSH1 0xF DUP2 ADD SWAP4 PUSH1 0x4 DUP3 ADD SWAP1 DUP2 SLOAD SWAP6 DUP7 PUSH0 MSTORE DUP1 PUSH1 0x20 MSTORE PUSH1 0x2 PUSH1 0x40 PUSH0 KECCAK256 ADD SLOAD SWAP7 DUP8 ISZERO PUSH2 0x5C60 JUMPI SWAP3 PUSH2 0x59ED DUP8 SWAP9 SWAP5 PUSH1 0x7 DUP8 ADD SLOAD SWAP1 PUSH0 MSTORE DUP4 PUSH1 0x20 MSTORE PUSH8 0xDE0B6B3A7640000 PUSH2 0x3350 PUSH1 0x4 PUSH1 0x40 PUSH0 KECCAK256 ADD SLOAD DUP9 PUSH2 0x5905 JUMP JUMPDEST SWAP4 PUSH0 SWAP5 PUSH0 SWAP4 DUP8 PUSH0 SWAP10 PUSH1 0x16 DUP3 ADD DUP1 SLOAD SWAP14 DUP15 SWAP11 DUP12 SWAP2 PUSH1 0x10 PUSH1 0x11 PUSH1 0x14 DUP9 ADD SWAP8 ADD SWAP15 ADD SWAP13 JUMPDEST DUP7 SLOAD GT SWAP1 DUP2 PUSH2 0x5C56 JUMPI JUMPDEST POP ISZERO PUSH2 0x5C00 JUMPI DUP16 PUSH2 0x5A29 SWAP1 DUP7 PUSH2 0x5615 JUMP JUMPDEST SWAP1 SLOAD PUSH1 0x3 SWAP2 SWAP1 SWAP2 SHL SHR PUSH1 0x1 PUSH1 0x1 PUSH1 0xA0 SHL SUB AND PUSH0 DUP2 DUP2 MSTORE PUSH1 0x20 DUP16 SWAP1 MSTORE PUSH1 0x40 SWAP1 KECCAK256 SLOAD PUSH1 0xFF AND PUSH2 0x5BF6 JUMPI PUSH1 0x1 PUSH1 0x1 PUSH1 0xA0 SHL SUB DUP2 AND PUSH0 SWAP1 DUP2 MSTORE PUSH1 0x20 DUP15 DUP2 MSTORE PUSH1 0x40 DUP1 DUP4 KECCAK256 DUP14 SLOAD DUP1 DUP6 MSTORE SWAP3 MSTORE SWAP1 SWAP2 KECCAK256 SLOAD SWAP1 DUP2 ISZERO PUSH2 0x5BEA JUMPI SWAP1 PUSH2 0x5AA7 SWAP2 PUSH0 MSTORE DUP9 PUSH1 0x20 MSTORE PUSH2 0x337E DUP12 PUSH2 0x2AD0 DUP13 PUSH8 0xDE0B6B3A7640000 PUSH2 0x3377 PUSH1 0x4 PUSH1 0x40 PUSH0 KECCAK256 ADD SLOAD DUP8 PUSH2 0x5905 JUMP JUMPDEST SWAP1 DUP2 PUSH2 0x5ACF JUMPI JUMPDEST POP POP PUSH2 0x5AB9 SWAP1 PUSH2 0x592F JUMP JUMPDEST SWAP15 DUP16 SWAP1 PUSH2 0x5AC5 SWAP1 PUSH2 0x592F JUMP JUMPDEST SWAP16 POP DUP16 DUP16 SWAP1 PUSH2 0x5A0E JUMP JUMPDEST SWAP1 SWAP15 SWAP11 DUP16 DUP16 PUSH2 0x5B6B PUSH0 SWAP3 PUSH1 0x20 SWAP3 PUSH1 0x1 DUP1 PUSH1 0xA0 SHL SUB DUP8 AND DUP6 MSTORE DUP4 MSTORE PUSH1 0x40 DUP5 KECCAK256 PUSH1 0x1 PUSH1 0xFF NOT DUP3 SLOAD AND OR SWAP1 SSTORE DUP6 DUP5 MSTORE PUSH1 0xD DUP4 MSTORE PUSH1 0x1 PUSH1 0x40 DUP6 KECCAK256 ADD PUSH2 0x5B11 DUP3 DUP3 SLOAD PUSH2 0x593D JUMP JUMPDEST SWAP1 SSTORE DUP6 DUP5 MSTORE PUSH1 0x12 DUP4 MSTORE PUSH1 0x40 DUP5 KECCAK256 PUSH2 0x5B29 DUP3 DUP3 SLOAD PUSH2 0x593D JUMP JUMPDEST SWAP1 SSTORE PUSH1 0x3 SLOAD PUSH1 0x40 MLOAD PUSH4 0xA9059CBB PUSH1 0xE0 SHL DUP2 MSTORE PUSH1 0x1 PUSH1 0x1 PUSH1 0xA0 SHL SUB DUP9 DUP2 AND PUSH1 0x4 DUP4 ADD MSTORE PUSH1 0x24 DUP3 ADD SWAP4 SWAP1 SWAP4 MSTORE SWAP5 DUP6 SWAP4 PUSH1 0x8 SWAP3 SWAP1 SWAP3 SHR SWAP1 SWAP3 AND SWAP2 DUP4 SWAP2 DUP3 SWAP1 PUSH1 0x44 DUP3 ADD SWAP1 JUMP JUMPDEST SUB SWAP3 GAS CALL SWAP1 DUP2 ISZERO PUSH2 0xDD4 JUMPI PUSH0 SWAP2 PUSH2 0x5BCC JUMPI JUMPDEST POP ISZERO PUSH2 0xD96 JUMPI DUP16 PUSH2 0x5B8F SWAP1 DUP15 SWAP3 PUSH2 0x593D JUMP JUMPDEST SWAP12 PUSH2 0x5B99 SWAP1 PUSH2 0x592F JUMP JUMPDEST SWAP16 PUSH1 0x40 MLOAD SWAP1 DUP2 MSTORE PUSH1 0x20 PUSH32 0x4EC90E965519D92681267467F775ADA5BD214AA92C0DC93D90A5E880CE9ED026 SWAP2 LOG3 PUSH0 DUP1 PUSH2 0x5AAE JUMP JUMPDEST PUSH2 0x5BE4 SWAP2 POP PUSH1 0x20 RETURNDATASIZE DUP2 GT PUSH2 0xDCD JUMPI PUSH2 0xDBF DUP2 DUP4 PUSH2 0x574F JUMP JUMPDEST PUSH0 PUSH2 0x5B7D JUMP JUMPDEST POP POP POP PUSH2 0x5AB9 SWAP1 PUSH2 0x592F JUMP JUMPDEST POP PUSH2 0x5AB9 SWAP1 PUSH2 0x592F JUMP JUMPDEST SWAP9 SWAP12 POP SWAP7 POP SWAP9 POP SWAP12 POP POP POP POP POP PUSH2 0x5C18 SWAP3 SWAP7 POP PUSH2 0x593D JUMP JUMPDEST SWAP1 SSTORE DUP2 PUSH2 0x5C24 JUMPI POP POP POP JUMP JUMPDEST PUSH32 0xBE130CB88DFF1CF911F2F81B593549C0E6AC4599C3D81AA18B57D0EC97A2EE39 SWAP2 PUSH1 0x40 SWAP2 DUP3 MLOAD SWAP2 DUP3 MSTORE PUSH1 0x20 DUP3 ADD MSTORE LOG2 JUMP JUMPDEST SWAP1 POP DUP2 LT DUP16 PUSH2 0x5A18 JUMP JUMPDEST POP POP POP POP POP SWAP2 POP POP JUMP JUMPDEST PUSH1 0xFF SWAP2 POP PUSH1 0x8 SHR AND PUSH0 PUSH2 0x5998 JUMP JUMPDEST POP CALLER PUSH0 SWAP1 DUP2 MSTORE PUSH0 DUP1 MLOAD PUSH1 0x20 PUSH2 0x6347 DUP4 CODECOPY DUP2 MLOAD SWAP2 MSTORE PUSH1 0x20 MSTORE PUSH1 0x40 SWAP1 KECCAK256 SLOAD PUSH1 0xFF AND ISZERO PUSH2 0x5976 JUMP JUMPDEST SWAP1 PUSH1 0x1 DUP3 DUP2 SHR SWAP3 AND DUP1 ISZERO PUSH2 0x5CCB JUMPI JUMPDEST PUSH1 0x20 DUP4 LT EQ PUSH2 0x5CB7 JUMPI JUMP JUMPDEST PUSH4 0x4E487B71 PUSH1 0xE0 SHL PUSH0 MSTORE PUSH1 0x22 PUSH1 0x4 MSTORE PUSH1 0x24 PUSH0 REVERT JUMPDEST SWAP2 PUSH1 0x7F AND SWAP2 PUSH2 0x5CAC JUMP JUMPDEST SWAP1 PUSH1 0x40 MLOAD SWAP2 DUP3 PUSH0 DUP3 SLOAD SWAP3 PUSH2 0x5CE8 DUP5 PUSH2 0x5C9D JUMP JUMPDEST DUP1 DUP5 MSTORE SWAP4 PUSH1 0x1 DUP2 AND SWAP1 DUP2 ISZERO PUSH2 0x5D53 JUMPI POP PUSH1 0x1 EQ PUSH2 0x5D0F JUMPI JUMPDEST POP PUSH2 0x5D0D SWAP3 POP SUB DUP4 PUSH2 0x574F JUMP JUMPDEST JUMP JUMPDEST SWAP1 POP PUSH0 SWAP3 SWAP2 SWAP3 MSTORE PUSH1 0x20 PUSH0 KECCAK256 SWAP1 PUSH0 SWAP2 JUMPDEST DUP2 DUP4 LT PUSH2 0x5D37 JUMPI POP POP SWAP1 PUSH1 0x20 PUSH2 0x5D0D SWAP3 DUP3 ADD ADD PUSH0 PUSH2 0x5D00 JUMP JUMPDEST PUSH1 0x20 SWAP2 SWAP4 POP DUP1 PUSH1 0x1 SWAP2 SLOAD DUP4 DUP6 DUP10 ADD ADD MSTORE ADD SWAP2 ADD SWAP1 SWAP2 DUP5 SWAP3 PUSH2 0x5D1E JUMP JUMPDEST SWAP1 POP PUSH1 0x20 SWAP3 POP PUSH2 0x5D0D SWAP5 SWAP2 POP PUSH1 0xFF NOT AND DUP3 DUP5 ADD MSTORE ISZERO ISZERO PUSH1 0x5 SHL DUP3 ADD ADD PUSH0 PUSH2 0x5D00 JUMP JUMPDEST SWAP1 PUSH2 0x5D7F DUP3 PUSH2 0x57C5 JUMP JUMPDEST PUSH2 0x5D8C PUSH1 0x40 MLOAD SWAP2 DUP3 PUSH2 0x574F JUMP JUMPDEST DUP3 DUP2 MSTORE DUP1 SWAP3 PUSH2 0x5D9D PUSH1 0x1F NOT SWAP2 PUSH2 0x57C5 JUMP JUMPDEST ADD SWAP1 PUSH1 0x20 CALLDATASIZE SWAP2 ADD CALLDATACOPY JUMP JUMPDEST DUP1 MLOAD DUP3 LT ISZERO PUSH2 0x55AE JUMPI PUSH1 0x20 SWAP2 PUSH1 0x5 SHL ADD ADD SWAP1 JUMP JUMPDEST DUP1 SLOAD PUSH1 0x1 PUSH1 0x40 SHL DUP2 LT ISZERO PUSH2 0xA74 JUMPI PUSH2 0x5DD8 SWAP2 PUSH1 0x1 DUP3 ADD DUP2 SSTORE PUSH2 0x589F JUMP JUMPDEST SWAP2 SWAP1 SWAP2 PUSH2 0x5DF9 JUMPI PUSH1 0x40 DUP2 PUSH1 0x2 SWAP3 MLOAD DUP5 SSTORE PUSH1 0x20 DUP2 ADD MLOAD PUSH1 0x1 DUP6 ADD SSTORE ADD MLOAD SWAP2 ADD SSTORE JUMP JUMPDEST PUSH4 0x4E487B71 PUSH1 0xE0 SHL PUSH0 MSTORE PUSH0 PUSH1 0x4 MSTORE PUSH1 0x24 PUSH0 REVERT JUMPDEST DUP1 SLOAD PUSH1 0x1 PUSH1 0x40 SHL DUP2 LT ISZERO PUSH2 0xA74 JUMPI PUSH2 0x5E29 SWAP2 PUSH1 0x1 DUP3 ADD DUP2 SSTORE PUSH2 0x5615 JUMP JUMPDEST DUP2 SWAP3 SWAP2 SLOAD SWAP1 PUSH1 0x3 SHL SWAP2 DUP3 SHL SWAP2 PUSH0 NOT SWAP1 SHL NOT AND OR SWAP1 SSTORE JUMP JUMPDEST DUP1 SLOAD PUSH1 0x1 PUSH1 0x40 SHL DUP2 LT ISZERO PUSH2 0xA74 JUMPI PUSH2 0x5E5D SWAP2 PUSH1 0x1 DUP3 ADD DUP2 SSTORE PUSH2 0x566C JUMP JUMPDEST SWAP2 SWAP1 SWAP2 PUSH2 0x5DF9 JUMPI DUP1 MLOAD DUP3 SSTORE PUSH1 0x20 DUP2 ADD MLOAD PUSH1 0x1 DUP4 ADD SSTORE PUSH1 0x40 DUP2 ADD MLOAD PUSH1 0x2 DUP4 ADD DUP1 SLOAD PUSH1 0x1 PUSH1 0x1 PUSH1 0xA0 SHL SUB SWAP3 DUP4 AND PUSH1 0x1 PUSH1 0x1 PUSH1 0xA0 SHL SUB NOT SWAP2 DUP3 AND OR SWAP1 SWAP2 SSTORE PUSH1 0x60 DUP4 ADD MLOAD PUSH1 0x3 DUP6 ADD DUP1 SLOAD SWAP2 SWAP1 SWAP4 AND SWAP2 AND OR SWAP1 SSTORE PUSH1 0x80 DUP2 ADD MLOAD PUSH1 0x4 DUP4 ADD SSTORE PUSH1 0xA0 DUP2 ADD MLOAD PUSH1 0x5 DUP4 ADD SSTORE PUSH1 0xC0 ADD MLOAD PUSH1 0x6 SWAP1 SWAP2 ADD SSTORE JUMP JUMPDEST PUSH1 0x16 SLOAD PUSH1 0x1 PUSH1 0x40 SHL DUP2 LT ISZERO PUSH2 0xA74 JUMPI DUP1 PUSH1 0x1 PUSH2 0x5EED SWAP3 ADD PUSH1 0x16 SSTORE PUSH1 0x16 PUSH2 0x5615 JUMP JUMPDEST DUP2 SLOAD PUSH1 0x1 PUSH1 0x1 PUSH1 0xA0 SHL SUB SWAP4 DUP5 AND PUSH1 0x3 SWAP3 SWAP1 SWAP3 SHL SWAP2 DUP3 SHL SWAP4 SWAP1 SWAP2 SHL NOT AND SWAP2 SWAP1 SWAP2 OR SWAP1 SSTORE JUMP JUMPDEST DUP1 SLOAD PUSH1 0x1 PUSH1 0x40 SHL DUP2 LT ISZERO PUSH2 0xA74 JUMPI PUSH2 0x5EED SWAP2 PUSH1 0x1 DUP3 ADD DUP2 SSTORE PUSH2 0x5615 JUMP JUMPDEST PUSH1 0x2 PUSH1 0x1 SLOAD EQ PUSH2 0x5F3F JUMPI PUSH1 0x2 PUSH1 0x1 SSTORE JUMP JUMPDEST PUSH4 0x3EE5AEB5 PUSH1 0xE0 SHL PUSH0 MSTORE PUSH1 0x4 PUSH0 REVERT JUMPDEST PUSH0 SLOAD PUSH1 0x1 PUSH1 0x1 PUSH1 0xA0 SHL SUB AND CALLER SUB PUSH2 0x5F61 JUMPI JUMP JUMPDEST PUSH4 0x118CDAA7 PUSH1 0xE0 SHL PUSH0 MSTORE CALLER PUSH1 0x4 MSTORE PUSH1 0x24 PUSH0 REVERT JUMPDEST PUSH1 0xFF PUSH1 0x3 SLOAD AND PUSH2 0x5F80 JUMPI JUMP JUMPDEST PUSH4 0xD93C0665 PUSH1 0xE0 SHL PUSH0 MSTORE PUSH1 0x4 PUSH0 REVERT JUMPDEST PUSH0 DUP2 DUP2 MSTORE PUSH1 0x2 PUSH1 0x20 SWAP1 DUP2 MSTORE PUSH1 0x40 DUP1 DUP4 KECCAK256 CALLER DUP5 MSTORE SWAP1 SWAP2 MSTORE SWAP1 KECCAK256 SLOAD PUSH1 0xFF AND ISZERO PUSH2 0x5FB3 JUMPI POP JUMP JUMPDEST PUSH4 0xE2517D3F PUSH1 0xE0 SHL PUSH0 MSTORE CALLER PUSH1 0x4 MSTORE PUSH1 0x24 MSTORE PUSH1 0x44 PUSH0 REVERT JUMPDEST PUSH1 0x1 PUSH1 0x1 PUSH1 0xA0 SHL SUB DUP2 AND PUSH0 SWAP1 DUP2 MSTORE PUSH0 DUP1 MLOAD PUSH1 0x20 PUSH2 0x6347 DUP4 CODECOPY DUP2 MLOAD SWAP2 MSTORE PUSH1 0x20 MSTORE PUSH1 0x40 SWAP1 KECCAK256 SLOAD PUSH1 0xFF AND PUSH2 0x605C JUMPI PUSH1 0x1 PUSH1 0x1 PUSH1 0xA0 SHL SUB AND PUSH0 DUP2 DUP2 MSTORE PUSH0 DUP1 MLOAD PUSH1 0x20 PUSH2 0x6347 DUP4 CODECOPY DUP2 MLOAD SWAP2 MSTORE PUSH1 0x20 MSTORE PUSH1 0x40 DUP2 KECCAK256 DUP1 SLOAD PUSH1 0xFF NOT AND PUSH1 0x1 OR SWAP1 SSTORE CALLER SWAP2 SWAP1 PUSH32 0xDCEE1D35C83A32B436264A5C9AFD68685C124F3F9097E87804C55410E67FC59A SWAP1 PUSH0 DUP1 MLOAD PUSH1 0x20 PUSH2 0x6307 DUP4 CODECOPY DUP2 MLOAD SWAP2 MSTORE SWAP1 DUP1 LOG4 PUSH1 0x1 SWAP1 JUMP JUMPDEST POP PUSH0 SWAP1 JUMP JUMPDEST PUSH1 0x1 PUSH1 0x1 PUSH1 0xA0 SHL SUB DUP2 AND PUSH0 SWAP1 DUP2 MSTORE PUSH0 DUP1 MLOAD PUSH1 0x20 PUSH2 0x6327 DUP4 CODECOPY DUP2 MLOAD SWAP2 MSTORE PUSH1 0x20 MSTORE PUSH1 0x40 SWAP1 KECCAK256 SLOAD PUSH1 0xFF AND PUSH2 0x605C JUMPI PUSH1 0x1 PUSH1 0x1 PUSH1 0xA0 SHL SUB AND PUSH0 DUP2 DUP2 MSTORE PUSH0 DUP1 MLOAD PUSH1 0x20 PUSH2 0x6327 DUP4 CODECOPY DUP2 MLOAD SWAP2 MSTORE PUSH1 0x20 MSTORE PUSH1 0x40 DUP2 KECCAK256 DUP1 SLOAD PUSH1 0xFF NOT AND PUSH1 0x1 OR SWAP1 SSTORE CALLER SWAP2 SWAP1 PUSH32 0xEF485BE696BBC0C91AD541BBD553FFB5BD0E18DAC30BA76E992DDA23CB807A8A SWAP1 PUSH0 DUP1 MLOAD PUSH1 0x20 PUSH2 0x6307 DUP4 CODECOPY DUP2 MLOAD SWAP2 MSTORE SWAP1 DUP1 LOG4 PUSH1 0x1 SWAP1 JUMP JUMPDEST PUSH1 0x1 PUSH1 0x1 PUSH1 0xA0 SHL SUB DUP2 AND PUSH0 SWAP1 DUP2 MSTORE PUSH32 0xD3DCCF8D8289B9DEEE17E361620D7577DE7B525DD57F668D5C1BB85EC53112B5 PUSH1 0x20 MSTORE PUSH1 0x40 SWAP1 KECCAK256 SLOAD PUSH1 0xFF AND PUSH2 0x605C JUMPI PUSH1 0x1 PUSH1 0x1 PUSH1 0xA0 SHL SUB AND PUSH0 DUP2 DUP2 MSTORE PUSH32 0xD3DCCF8D8289B9DEEE17E361620D7577DE7B525DD57F668D5C1BB85EC53112B5 PUSH1 0x20 MSTORE PUSH1 0x40 DUP2 KECCAK256 DUP1 SLOAD PUSH1 0xFF NOT AND PUSH1 0x1 OR SWAP1 SSTORE CALLER SWAP2 SWAP1 PUSH32 0xD486618B282CB35034D59C30C062B5B3822D6CDF87EC459191CE7F5B7B8A4873 SWAP1 PUSH0 DUP1 MLOAD PUSH1 0x20 PUSH2 0x6307 DUP4 CODECOPY DUP2 MLOAD SWAP2 MSTORE SWAP1 DUP1 LOG4 PUSH1 0x1 SWAP1 JUMP JUMPDEST PUSH0 DUP2 DUP2 MSTORE PUSH1 0x2 PUSH1 0x20 SWAP1 DUP2 MSTORE PUSH1 0x40 DUP1 DUP4 KECCAK256 PUSH1 0x1 PUSH1 0x1 PUSH1 0xA0 SHL SUB DUP7 AND DUP5 MSTORE SWAP1 SWAP2 MSTORE SWAP1 KECCAK256 SLOAD PUSH1 0xFF AND PUSH2 0x6220 JUMPI PUSH0 DUP2 DUP2 MSTORE PUSH1 0x2 PUSH1 0x20 SWAP1 DUP2 MSTORE PUSH1 0x40 DUP1 DUP4 KECCAK256 PUSH1 0x1 PUSH1 0x1 PUSH1 0xA0 SHL SUB SWAP6 SWAP1 SWAP6 AND DUP1 DUP5 MSTORE SWAP5 SWAP1 SWAP2 MSTORE DUP2 KECCAK256 DUP1 SLOAD PUSH1 0xFF NOT AND PUSH1 0x1 OR SWAP1 SSTORE CALLER SWAP3 SWAP2 SWAP1 PUSH0 DUP1 MLOAD PUSH1 0x20 PUSH2 0x6307 DUP4 CODECOPY DUP2 MLOAD SWAP2 MSTORE SWAP1 DUP1 LOG4 PUSH1 0x1 SWAP1 JUMP JUMPDEST POP POP PUSH0 SWAP1 JUMP JUMPDEST PUSH0 DUP2 DUP2 MSTORE PUSH1 0x2 PUSH1 0x20 SWAP1 DUP2 MSTORE PUSH1 0x40 DUP1 DUP4 KECCAK256 PUSH1 0x1 PUSH1 0x1 PUSH1 0xA0 SHL SUB DUP7 AND DUP5 MSTORE SWAP1 SWAP2 MSTORE SWAP1 KECCAK256 SLOAD PUSH1 0xFF AND ISZERO PUSH2 0x6220 JUMPI PUSH0 DUP2 DUP2 MSTORE PUSH1 0x2 PUSH1 0x20 SWAP1 DUP2 MSTORE PUSH1 0x40 DUP1 DUP4 KECCAK256 PUSH1 0x1 PUSH1 0x1 PUSH1 0xA0 SHL SUB SWAP6 SWAP1 SWAP6 AND DUP1 DUP5 MSTORE SWAP5 SWAP1 SWAP2 MSTORE DUP2 KECCAK256 DUP1 SLOAD PUSH1 0xFF NOT AND SWAP1 SSTORE CALLER SWAP3 SWAP2 SWAP1 PUSH32 0xF6391F5C32D9C69D2A47EA670B442974B53935D1EDC7FD64EB21E047A839171B SWAP1 DUP1 LOG4 PUSH1 0x1 SWAP1 JUMP JUMPDEST SWAP1 PUSH0 MSTORE PUSH1 0xC PUSH1 0x20 MSTORE PUSH1 0x40 PUSH0 KECCAK256 SWAP1 PUSH0 SWAP1 PUSH1 0x10 PUSH1 0xA DUP5 ADD SLOAD SWAP4 ADD SWAP2 JUMPDEST DUP4 DUP2 LT PUSH2 0x62D4 JUMPI POP POP POP POP PUSH1 0x1 SWAP1 JUMP JUMPDEST PUSH1 0x1 DUP1 PUSH1 0xA0 SHL SUB DUP3 AND PUSH0 MSTORE DUP3 PUSH1 0x20 MSTORE PUSH1 0x40 PUSH0 KECCAK256 DUP2 PUSH0 MSTORE PUSH1 0x20 MSTORE PUSH1 0x40 PUSH0 KECCAK256 SLOAD PUSH2 0x62FE JUMPI PUSH1 0x1 ADD PUSH2 0x62C4 JUMP JUMPDEST POP POP POP POP PUSH0 SWAP1 JUMP INVALID 0x2F DUP8 DUP9 GT PUSH31 0x7EFF1D82E926EC794901D17C78024A50270940304540A733656F0D30D99551 DUP12 TIMESTAMP PUSH32 0x5A5863AD73FE356CA50CF70941F42C516830919C845FA5806F8E2C297E756B2A TIMESTAMP PUSH29 0x5DC4607F639842A8EA6E0F6322302F4EA76306B642CFC274BF668E9716 0x1F 0x1F 0xD8 0xF 0xCD 0x26 RETURN BLOBHASH 0xD4 AND SWAP10 0xF7 MULMOD SGT 0xDE OR PUSH23 0x5803D0880629DA0DE3A26469706673582212202C5B092A REVERT 0x2C 0xAD EXTCODESIZE 0x2F 0xF6 PC DUP5 CALLDATALOAD BYTE 0xBD 0x26 0xA7 DUP15 EQ 0xDA SWAP14 LOG2 PUSH19 0xCF42CED654912E261A64736F6C634300081A00 CALLER 0xAC CALLER SELFDESTRUCT PUSH22 0xC19E70FE83507DB0D683FD3465C996598DC972688B7A 0xCE PUSH8 0x6C89077B00000000 "
		},
		"gasEstimates": {
			"creation": {
				"codeDepositCost": "5106400",
				"executionCost": "infinite",
				"totalCost": "infinite"
			},
			"external": {
				"AMM_FEE_RATE()": "285",
				"DEFAULT_ADMIN_ROLE()": "1296",
				"MARKET_VALIDATOR_ROLE()": "571",
				"MAX_MARKET_DURATION()": "1055",
				"MAX_OPTIONS()": "241",
				"MIN_MARKET_DURATION()": "1231",
				"QUESTION_CREATOR_ROLE()": "1011",
				"QUESTION_RESOLVE_ROLE()": "989",
				"addAMMLiquidity(uint256,uint256)": "infinite",
				"allParticipants(uint256)": "6570",
				"ammSwap(uint256,uint256,uint256,uint256,uint256)": "infinite",
				"batchDistributeWinnings(uint256,uint256)": "infinite",
				"bettingToken()": "2905",
				"buyShares(uint256,uint256,uint256,uint256)": "infinite",
				"calculateCurrentPrice(uint256,uint256)": "3727",
				"calculateSellPrice(uint256,uint256,uint256)": "6570",
				"categoryMarkets(uint8,uint256)": "8005",
				"claimFreeShares(uint256,uint256)": "infinite",
				"claimLPRewards(uint256)": "infinite",
				"claimWinnings(uint256)": "infinite",
				"createFreeMarket(string,string,string[],string[],uint256,uint8,uint256,uint256,uint256)": "infinite",
				"createMarket(string,string,string[],string[],uint256,uint8,uint8,uint256)": "infinite",
				"createMarketWithDefaultLiquidity(string,string,string[],string[],uint256,uint8,uint8)": "infinite",
				"createSponsoredMarket(string,string,string[],string[],uint256,uint8,uint256,string,uint256)": "infinite",
				"disputeMarket(uint256,string)": "infinite",
				"feeCollector()": "3688",
				"freeMarketAllowance()": "2850",
				"getBatchDistributionStatus(uint256)": "8237",
				"getBettingToken()": "2619",
				"getLPInfo(uint256,address)": "13934",
				"getMarketCount()": "3972",
				"getMarketFinancials(uint256)": "13478",
				"getMarketInfo(uint256)": "infinite",
				"getMarketOdds(uint256)": "infinite",
				"getMarketOption(uint256,uint256)": "infinite",
				"getMarketsByCategory(uint8,uint256)": "infinite",
				"getPlatformStats()": "8785",
				"getPriceHistory(uint256,uint256,uint256)": "infinite",
				"getRoleAdmin(bytes32)": "2628",
				"getUserPortfolio(address)": "infinite",
				"getUserShares(uint256,address)": "infinite",
				"grantMarketValidatorRole(address)": "36504",
				"grantQuestionCreatorRole(address)": "36084",
				"grantQuestionResolveRole(address)": "35776",
				"grantRole(bytes32,address)": "33683",
				"hasRole(bytes32,address)": "3519",
				"lpRewardsEarned(address)": "3506",
				"marketCount()": "3818",
				"marketTrades(uint256,uint256)": "19733",
				"marketsByType(uint8,uint256)": "8233",
				"owner()": "3291",
				"pause()": "30658",
				"pauseMarket(uint256)": "31541",
				"paused()": "2972",
				"platformFeeRate()": "3862",
				"previousBettingToken()": "2940",
				"priceHistory(uint256,uint256,uint256)": "12228",
				"renounceOwnership()": "28864",
				"renounceRole(bytes32,address)": "29325",
				"resolveMarket(uint256,uint256)": "infinite",
				"revokeRole(bytes32,address)": "34726",
				"sellShares(uint256,uint256,uint256,uint256)": "infinite",
				"setFeeCollector(address)": "29336",
				"setFreeMarketAllowance(uint256)": "24643",
				"setPlatformFeeRate(uint256)": "25479",
				"supportsInterface(bytes4)": "270",
				"tokenUpdatedAt()": "2366",
				"totalPlatformFeesCollected()": "3180",
				"totalWinnings(address)": "3396",
				"tradeCount()": "3598",
				"transferOwnership(address)": "29798",
				"unpause()": "28135",
				"updateBettingToken(address)": "78792",
				"updateBettingTokenAddress(address)": "75031",
				"userFreeSharesUsed(address)": "3704",
				"userPortfolios(address)": "12234",
				"userTradeHistory(address,uint256)": "19657",
				"validateMarket(uint256)": "35737",
				"withdrawAdminLiquidity(uint256)": "infinite",
				"withdrawPlatformFees()": "infinite"
			},
			"internal": {
				"_isNewParticipant(address,uint256)": "infinite",
				"calculateNewPrice(uint256,uint256,uint256,bool)": "infinite"
			}
		},
		"methodIdentifiers": {
			"AMM_FEE_RATE()": "12c413af",
			"DEFAULT_ADMIN_ROLE()": "a217fddf",
			"MARKET_VALIDATOR_ROLE()": "32617b70",
			"MAX_MARKET_DURATION()": "7e50898e",
			"MAX_OPTIONS()": "0da183d6",
			"MIN_MARKET_DURATION()": "92f012b2",
			"QUESTION_CREATOR_ROLE()": "77b4a3e7",
			"QUESTION_RESOLVE_ROLE()": "755f0629",
			"addAMMLiquidity(uint256,uint256)": "6eae4297",
			"allParticipants(uint256)": "05e33dd0",
			"ammSwap(uint256,uint256,uint256,uint256,uint256)": "e9ca2026",
			"batchDistributeWinnings(uint256,uint256)": "067b3fe1",
			"bettingToken()": "43425e88",
			"buyShares(uint256,uint256,uint256,uint256)": "ed881230",
			"calculateCurrentPrice(uint256,uint256)": "b1ab13ff",
			"calculateSellPrice(uint256,uint256,uint256)": "f355f2e7",
			"categoryMarkets(uint8,uint256)": "a8cc7f19",
			"claimFreeShares(uint256,uint256)": "c07d1449",
			"claimLPRewards(uint256)": "9e0ffc09",
			"claimWinnings(uint256)": "677bd9ff",
			"createFreeMarket(string,string,string[],string[],uint256,uint8,uint256,uint256,uint256)": "2a49b428",
			"createMarket(string,string,string[],string[],uint256,uint8,uint8,uint256)": "33031b06",
			"createMarketWithDefaultLiquidity(string,string,string[],string[],uint256,uint8,uint8)": "f98ce1ba",
			"createSponsoredMarket(string,string,string[],string[],uint256,uint8,uint256,string,uint256)": "d911f198",
			"disputeMarket(uint256,string)": "4a2021ef",
			"feeCollector()": "c415b95c",
			"freeMarketAllowance()": "417257f9",
			"getBatchDistributionStatus(uint256)": "da7295d9",
			"getBettingToken()": "29cf655b",
			"getLPInfo(uint256,address)": "3d9704ff",
			"getMarketCount()": "fd69f3c2",
			"getMarketFinancials(uint256)": "3937336e",
			"getMarketInfo(uint256)": "3ec79193",
			"getMarketOdds(uint256)": "26e12752",
			"getMarketOption(uint256,uint256)": "222fa267",
			"getMarketsByCategory(uint8,uint256)": "c2454af7",
			"getPlatformStats()": "136d8883",
			"getPriceHistory(uint256,uint256,uint256)": "7c946454",
			"getRoleAdmin(bytes32)": "248a9ca3",
			"getUserPortfolio(address)": "1edb27e9",
			"getUserShares(uint256,address)": "835dc40b",
			"grantMarketValidatorRole(address)": "abdce1a4",
			"grantQuestionCreatorRole(address)": "6db3b4dc",
			"grantQuestionResolveRole(address)": "35037e0b",
			"grantRole(bytes32,address)": "2f2ff15d",
			"hasRole(bytes32,address)": "91d14854",
			"lpRewardsEarned(address)": "950f4797",
			"marketCount()": "ec979082",
			"marketTrades(uint256,uint256)": "1cb1de2f",
			"marketsByType(uint8,uint256)": "d8c39bd7",
			"owner()": "8da5cb5b",
			"pause()": "8456cb59",
			"pauseMarket(uint256)": "fc12524c",
			"paused()": "5c975abb",
			"platformFeeRate()": "eeca08f0",
			"previousBettingToken()": "4bdd45fb",
			"priceHistory(uint256,uint256,uint256)": "a75dd115",
			"renounceOwnership()": "715018a6",
			"renounceRole(bytes32,address)": "36568abe",
			"resolveMarket(uint256,uint256)": "60557333",
			"revokeRole(bytes32,address)": "d547741f",
			"sellShares(uint256,uint256,uint256,uint256)": "5a2db6fb",
			"setFeeCollector(address)": "a42dce80",
			"setFreeMarketAllowance(uint256)": "21b86dc2",
			"setPlatformFeeRate(uint256)": "927fef2e",
			"supportsInterface(bytes4)": "01ffc9a7",
			"tokenUpdatedAt()": "1029191a",
			"totalPlatformFeesCollected()": "82c3188c",
			"totalWinnings(address)": "8b8840e0",
			"tradeCount()": "bd55022a",
			"transferOwnership(address)": "f2fde38b",
			"unpause()": "3f4ba83a",
			"updateBettingToken(address)": "fdd3cdf6",
			"updateBettingTokenAddress(address)": "15571981",
			"userFreeSharesUsed(address)": "b41acdbe",
			"userPortfolios(address)": "b61920c1",
			"userTradeHistory(address,uint256)": "08693f3c",
			"validateMarket(uint256)": "ab44e635",
			"withdrawAdminLiquidity(uint256)": "2f4c007f",
			"withdrawPlatformFees()": "d0b7830b"
		}
	},
	"abi": [
		{
			"inputs": [
				{
					"internalType": "address",
					"name": "_bettingToken",
					"type": "address"
				}
			],
			"stateMutability": "nonpayable",
			"type": "constructor"
		},
		{
			"inputs": [],
			"name": "AccessControlBadConfirmation",
			"type": "error"
		},
		{
			"inputs": [
				{
					"internalType": "address",
					"name": "account",
					"type": "address"
				},
				{
					"internalType": "bytes32",
					"name": "neededRole",
					"type": "bytes32"
				}
			],
			"name": "AccessControlUnauthorizedAccount",
			"type": "error"
		},
		{
			"inputs": [],
			"name": "AdminLiquidityAlreadyClaimed",
			"type": "error"
		},
		{
			"inputs": [],
			"name": "AlreadyClaimed",
			"type": "error"
		},
		{
			"inputs": [],
			"name": "AlreadyClaimedFree",
			"type": "error"
		},
		{
			"inputs": [],
			"name": "AmountMustBePositive",
			"type": "error"
		},
		{
			"inputs": [],
			"name": "BadDuration",
			"type": "error"
		},
		{
			"inputs": [],
			"name": "BadOptionCount",
			"type": "error"
		},
		{
			"inputs": [],
			"name": "BatchProcessingFailed",
			"type": "error"
		},
		{
			"inputs": [],
			"name": "CannotDisputeIfWon",
			"type": "error"
		},
		{
			"inputs": [],
			"name": "CannotSwapSameOption",
			"type": "error"
		},
		{
			"inputs": [],
			"name": "EmptyQuestion",
			"type": "error"
		},
		{
			"inputs": [],
			"name": "EnforcedPause",
			"type": "error"
		},
		{
			"inputs": [],
			"name": "ExceedsFreeAllowance",
			"type": "error"
		},
		{
			"inputs": [],
			"name": "ExpectedPause",
			"type": "error"
		},
		{
			"inputs": [],
			"name": "FeeTooHigh",
			"type": "error"
		},
		{
			"inputs": [],
			"name": "FreeEntryInactive",
			"type": "error"
		},
		{
			"inputs": [],
			"name": "FreeSlotseFull",
			"type": "error"
		},
		{
			"inputs": [],
			"name": "InsufficientBalance",
			"type": "error"
		},
		{
			"inputs": [],
			"name": "InsufficientLiquidity",
			"type": "error"
		},
		{
			"inputs": [],
			"name": "InsufficientOutput",
			"type": "error"
		},
		{
			"inputs": [],
			"name": "InsufficientShares",
			"type": "error"
		},
		{
			"inputs": [],
			"name": "InvalidInput",
			"type": "error"
		},
		{
			"inputs": [],
			"name": "InvalidMarket",
			"type": "error"
		},
		{
			"inputs": [],
			"name": "InvalidOption",
			"type": "error"
		},
		{
			"inputs": [],
			"name": "InvalidToken",
			"type": "error"
		},
		{
			"inputs": [],
			"name": "InvalidWinningOption",
			"type": "error"
		},
		{
			"inputs": [],
			"name": "LengthMismatch",
			"type": "error"
		},
		{
			"inputs": [],
			"name": "MarketAlreadyResolved",
			"type": "error"
		},
		{
			"inputs": [],
			"name": "MarketEnded",
			"type": "error"
		},
		{
			"inputs": [],
			"name": "MarketNotActive",
			"type": "error"
		},
		{
			"inputs": [],
			"name": "MarketNotEndedYet",
			"type": "error"
		},
		{
			"inputs": [],
			"name": "MarketNotReady",
			"type": "error"
		},
		{
			"inputs": [],
			"name": "MarketNotResolved",
			"type": "error"
		},
		{
			"inputs": [],
			"name": "MarketNotValidated",
			"type": "error"
		},
		{
			"inputs": [],
			"name": "MarketResolvedAlready",
			"type": "error"
		},
		{
			"inputs": [],
			"name": "MinTokensRequired",
			"type": "error"
		},
		{
			"inputs": [],
			"name": "NoFeesToWithdraw",
			"type": "error"
		},
		{
			"inputs": [],
			"name": "NoLPRewards",
			"type": "error"
		},
		{
			"inputs": [],
			"name": "NoWinningShares",
			"type": "error"
		},
		{
			"inputs": [],
			"name": "NotAuthorized",
			"type": "error"
		},
		{
			"inputs": [],
			"name": "NotFreeMarket",
			"type": "error"
		},
		{
			"inputs": [],
			"name": "NotLiquidityProvider",
			"type": "error"
		},
		{
			"inputs": [],
			"name": "OnlyAdminOrOwner",
			"type": "error"
		},
		{
			"inputs": [],
			"name": "OptionInactive",
			"type": "error"
		},
		{
			"inputs": [
				{
					"internalType": "address",
					"name": "owner",
					"type": "address"
				}
			],
			"name": "OwnableInvalidOwner",
			"type": "error"
		},
		{
			"inputs": [
				{
					"internalType": "address",
					"name": "account",
					"type": "address"
				}
			],
			"name": "OwnableUnauthorizedAccount",
			"type": "error"
		},
		{
			"inputs": [],
			"name": "PriceTooHigh",
			"type": "error"
		},
		{
			"inputs": [],
			"name": "PriceTooLow",
			"type": "error"
		},
		{
			"inputs": [],
			"name": "ReentrancyGuardReentrantCall",
			"type": "error"
		},
		{
			"inputs": [],
			"name": "SamePrizeRequired",
			"type": "error"
		},
		{
			"inputs": [],
			"name": "SameToken",
			"type": "error"
		},
		{
			"inputs": [],
			"name": "TransferFailed",
			"type": "error"
		},
		{
			"anonymous": false,
			"inputs": [
				{
					"indexed": true,
					"internalType": "uint256",
					"name": "marketId",
					"type": "uint256"
				},
				{
					"indexed": false,
					"internalType": "uint256",
					"name": "optionIdIn",
					"type": "uint256"
				},
				{
					"indexed": false,
					"internalType": "uint256",
					"name": "optionIdOut",
					"type": "uint256"
				},
				{
					"indexed": false,
					"internalType": "uint256",
					"name": "amountIn",
					"type": "uint256"
				},
				{
					"indexed": false,
					"internalType": "uint256",
					"name": "amountOut",
					"type": "uint256"
				},
				{
					"indexed": false,
					"internalType": "address",
					"name": "trader",
					"type": "address"
				}
			],
			"name": "AMMSwap",
			"type": "event"
		},
		{
			"anonymous": false,
			"inputs": [
				{
					"indexed": true,
					"internalType": "uint256",
					"name": "marketId",
					"type": "uint256"
				},
				{
					"indexed": true,
					"internalType": "address",
					"name": "creator",
					"type": "address"
				},
				{
					"indexed": false,
					"internalType": "uint256",
					"name": "amount",
					"type": "uint256"
				}
			],
			"name": "AdminLiquidityWithdrawn",
			"type": "event"
		},
		{
			"anonymous": false,
			"inputs": [
				{
					"indexed": true,
					"internalType": "uint256",
					"name": "marketId",
					"type": "uint256"
				},
				{
					"indexed": false,
					"internalType": "uint256",
					"name": "totalWinners",
					"type": "uint256"
				},
				{
					"indexed": false,
					"internalType": "uint256",
					"name": "totalAmount",
					"type": "uint256"
				}
			],
			"name": "BatchWinningsDistributed",
			"type": "event"
		},
		{
			"anonymous": false,
			"inputs": [
				{
					"indexed": true,
					"internalType": "address",
					"name": "oldToken",
					"type": "address"
				},
				{
					"indexed": true,
					"internalType": "address",
					"name": "newToken",
					"type": "address"
				},
				{
					"indexed": false,
					"internalType": "uint256",
					"name": "timestamp",
					"type": "uint256"
				}
			],
			"name": "BettingTokenUpdated",
			"type": "event"
		},
		{
			"anonymous": false,
			"inputs": [
				{
					"indexed": true,
					"internalType": "uint256",
					"name": "marketId",
					"type": "uint256"
				},
				{
					"indexed": true,
					"internalType": "address",
					"name": "user",
					"type": "address"
				},
				{
					"indexed": false,
					"internalType": "uint256",
					"name": "amount",
					"type": "uint256"
				}
			],
			"name": "Claimed",
			"type": "event"
		},
		{
			"anonymous": false,
			"inputs": [
				{
					"indexed": true,
					"internalType": "uint256",
					"name": "marketId",
					"type": "uint256"
				},
				{
					"indexed": false,
					"internalType": "uint256",
					"name": "amount",
					"type": "uint256"
				}
			],
			"name": "FeeCollected",
			"type": "event"
		},
		{
			"anonymous": false,
			"inputs": [
				{
					"indexed": true,
					"internalType": "address",
					"name": "oldCollector",
					"type": "address"
				},
				{
					"indexed": true,
					"internalType": "address",
					"name": "newCollector",
					"type": "address"
				}
			],
			"name": "FeeCollectorUpdated",
			"type": "event"
		},
		{
			"anonymous": false,
			"inputs": [
				{
					"indexed": true,
					"internalType": "uint256",
					"name": "marketId",
					"type": "uint256"
				},
				{
					"indexed": true,
					"internalType": "address",
					"name": "user",
					"type": "address"
				},
				{
					"indexed": false,
					"internalType": "uint256",
					"name": "optionId",
					"type": "uint256"
				},
				{
					"indexed": false,
					"internalType": "uint256",
					"name": "shares",
					"type": "uint256"
				}
			],
			"name": "FreeSharesClaimed",
			"type": "event"
		},
		{
			"anonymous": false,
			"inputs": [
				{
					"indexed": true,
					"internalType": "uint256",
					"name": "marketId",
					"type": "uint256"
				},
				{
					"indexed": true,
					"internalType": "address",
					"name": "provider",
					"type": "address"
				},
				{
					"indexed": false,
					"internalType": "uint256",
					"name": "amount",
					"type": "uint256"
				}
			],
			"name": "LPRewardsClaimed",
			"type": "event"
		},
		{
			"anonymous": false,
			"inputs": [
				{
					"indexed": true,
					"internalType": "uint256",
					"name": "marketId",
					"type": "uint256"
				},
				{
					"indexed": true,
					"internalType": "address",
					"name": "provider",
					"type": "address"
				},
				{
					"indexed": false,
					"internalType": "uint256",
					"name": "amount",
					"type": "uint256"
				}
			],
			"name": "LiquidityAdded",
			"type": "event"
		},
		{
			"anonymous": false,
			"inputs": [
				{
					"indexed": true,
					"internalType": "uint256",
					"name": "marketId",
					"type": "uint256"
				},
				{
					"indexed": false,
					"internalType": "string",
					"name": "question",
					"type": "string"
				},
				{
					"indexed": false,
					"internalType": "string[]",
					"name": "options",
					"type": "string[]"
				},
				{
					"indexed": false,
					"internalType": "uint256",
					"name": "endTime",
					"type": "uint256"
				},
				{
					"indexed": false,
					"internalType": "enum PolicastMarketV3.MarketCategory",
					"name": "category",
					"type": "uint8"
				},
				{
					"indexed": false,
					"internalType": "enum PolicastMarketV3.MarketType",
					"name": "marketType",
					"type": "uint8"
				},
				{
					"indexed": false,
					"internalType": "address",
					"name": "creator",
					"type": "address"
				}
			],
			"name": "MarketCreated",
			"type": "event"
		},
		{
			"anonymous": false,
			"inputs": [
				{
					"indexed": true,
					"internalType": "uint256",
					"name": "marketId",
					"type": "uint256"
				},
				{
					"indexed": false,
					"internalType": "address",
					"name": "disputer",
					"type": "address"
				},
				{
					"indexed": false,
					"internalType": "string",
					"name": "reason",
					"type": "string"
				}
			],
			"name": "MarketDisputed",
			"type": "event"
		},
		{
			"anonymous": false,
			"inputs": [
				{
					"indexed": true,
					"internalType": "uint256",
					"name": "marketId",
					"type": "uint256"
				}
			],
			"name": "MarketPaused",
			"type": "event"
		},
		{
			"anonymous": false,
			"inputs": [
				{
					"indexed": true,
					"internalType": "uint256",
					"name": "marketId",
					"type": "uint256"
				},
				{
					"indexed": false,
					"internalType": "uint256",
					"name": "winningOptionId",
					"type": "uint256"
				},
				{
					"indexed": false,
					"internalType": "address",
					"name": "resolver",
					"type": "address"
				}
			],
			"name": "MarketResolved",
			"type": "event"
		},
		{
			"anonymous": false,
			"inputs": [
				{
					"indexed": true,
					"internalType": "uint256",
					"name": "marketId",
					"type": "uint256"
				},
				{
					"indexed": true,
					"internalType": "address",
					"name": "sponsor",
					"type": "address"
				},
				{
					"indexed": false,
					"internalType": "uint256",
					"name": "prizeAmount",
					"type": "uint256"
				},
				{
					"indexed": false,
					"internalType": "string",
					"name": "message",
					"type": "string"
				}
			],
			"name": "MarketSponsored",
			"type": "event"
		},
		{
			"anonymous": false,
			"inputs": [
				{
					"indexed": true,
					"internalType": "uint256",
					"name": "marketId",
					"type": "uint256"
				},
				{
					"indexed": false,
					"internalType": "address",
					"name": "validator",
					"type": "address"
				}
			],
			"name": "MarketValidated",
			"type": "event"
		},
		{
			"anonymous": false,
			"inputs": [
				{
					"indexed": true,
					"internalType": "address",
					"name": "previousOwner",
					"type": "address"
				},
				{
					"indexed": true,
					"internalType": "address",
					"name": "newOwner",
					"type": "address"
				}
			],
			"name": "OwnershipTransferred",
			"type": "event"
		},
		{
			"anonymous": false,
			"inputs": [
				{
					"indexed": false,
					"internalType": "address",
					"name": "account",
					"type": "address"
				}
			],
			"name": "Paused",
			"type": "event"
		},
		{
			"anonymous": false,
			"inputs": [
				{
					"indexed": true,
					"internalType": "address",
					"name": "collector",
					"type": "address"
				},
				{
					"indexed": false,
					"internalType": "uint256",
					"name": "amount",
					"type": "uint256"
				}
			],
			"name": "PlatformFeesWithdrawn",
			"type": "event"
		},
		{
			"anonymous": false,
			"inputs": [
				{
					"indexed": true,
					"internalType": "bytes32",
					"name": "role",
					"type": "bytes32"
				},
				{
					"indexed": true,
					"internalType": "bytes32",
					"name": "previousAdminRole",
					"type": "bytes32"
				},
				{
					"indexed": true,
					"internalType": "bytes32",
					"name": "newAdminRole",
					"type": "bytes32"
				}
			],
			"name": "RoleAdminChanged",
			"type": "event"
		},
		{
			"anonymous": false,
			"inputs": [
				{
					"indexed": true,
					"internalType": "bytes32",
					"name": "role",
					"type": "bytes32"
				},
				{
					"indexed": true,
					"internalType": "address",
					"name": "account",
					"type": "address"
				},
				{
					"indexed": true,
					"internalType": "address",
					"name": "sender",
					"type": "address"
				}
			],
			"name": "RoleGranted",
			"type": "event"
		},
		{
			"anonymous": false,
			"inputs": [
				{
					"indexed": true,
					"internalType": "bytes32",
					"name": "role",
					"type": "bytes32"
				},
				{
					"indexed": true,
					"internalType": "address",
					"name": "account",
					"type": "address"
				},
				{
					"indexed": true,
					"internalType": "address",
					"name": "sender",
					"type": "address"
				}
			],
			"name": "RoleRevoked",
			"type": "event"
		},
		{
			"anonymous": false,
			"inputs": [
				{
					"indexed": true,
					"internalType": "uint256",
					"name": "marketId",
					"type": "uint256"
				},
				{
					"indexed": true,
					"internalType": "uint256",
					"name": "optionId",
					"type": "uint256"
				},
				{
					"indexed": true,
					"internalType": "address",
					"name": "seller",
					"type": "address"
				},
				{
					"indexed": false,
					"internalType": "uint256",
					"name": "quantity",
					"type": "uint256"
				},
				{
					"indexed": false,
					"internalType": "uint256",
					"name": "price",
					"type": "uint256"
				}
			],
			"name": "SharesSold",
			"type": "event"
		},
		{
			"anonymous": false,
			"inputs": [
				{
					"indexed": true,
					"internalType": "uint256",
					"name": "marketId",
					"type": "uint256"
				},
				{
					"indexed": true,
					"internalType": "uint256",
					"name": "optionId",
					"type": "uint256"
				},
				{
					"indexed": true,
					"internalType": "address",
					"name": "buyer",
					"type": "address"
				},
				{
					"indexed": false,
					"internalType": "address",
					"name": "seller",
					"type": "address"
				},
				{
					"indexed": false,
					"internalType": "uint256",
					"name": "price",
					"type": "uint256"
				},
				{
					"indexed": false,
					"internalType": "uint256",
					"name": "quantity",
					"type": "uint256"
				},
				{
					"indexed": false,
					"internalType": "uint256",
					"name": "tradeId",
					"type": "uint256"
				}
			],
			"name": "TradeExecuted",
			"type": "event"
		},
		{
			"anonymous": false,
			"inputs": [
				{
					"indexed": false,
					"internalType": "address",
					"name": "account",
					"type": "address"
				}
			],
			"name": "Unpaused",
			"type": "event"
		},
		{
			"inputs": [],
			"name": "AMM_FEE_RATE",
			"outputs": [
				{
					"internalType": "uint256",
					"name": "",
					"type": "uint256"
				}
			],
			"stateMutability": "view",
			"type": "function"
		},
		{
			"inputs": [],
			"name": "DEFAULT_ADMIN_ROLE",
			"outputs": [
				{
					"internalType": "bytes32",
					"name": "",
					"type": "bytes32"
				}
			],
			"stateMutability": "view",
			"type": "function"
		},
		{
			"inputs": [],
			"name": "MARKET_VALIDATOR_ROLE",
			"outputs": [
				{
					"internalType": "bytes32",
					"name": "",
					"type": "bytes32"
				}
			],
			"stateMutability": "view",
			"type": "function"
		},
		{
			"inputs": [],
			"name": "MAX_MARKET_DURATION",
			"outputs": [
				{
					"internalType": "uint256",
					"name": "",
					"type": "uint256"
				}
			],
			"stateMutability": "view",
			"type": "function"
		},
		{
			"inputs": [],
			"name": "MAX_OPTIONS",
			"outputs": [
				{
					"internalType": "uint256",
					"name": "",
					"type": "uint256"
				}
			],
			"stateMutability": "view",
			"type": "function"
		},
		{
			"inputs": [],
			"name": "MIN_MARKET_DURATION",
			"outputs": [
				{
					"internalType": "uint256",
					"name": "",
					"type": "uint256"
				}
			],
			"stateMutability": "view",
			"type": "function"
		},
		{
			"inputs": [],
			"name": "QUESTION_CREATOR_ROLE",
			"outputs": [
				{
					"internalType": "bytes32",
					"name": "",
					"type": "bytes32"
				}
			],
			"stateMutability": "view",
			"type": "function"
		},
		{
			"inputs": [],
			"name": "QUESTION_RESOLVE_ROLE",
			"outputs": [
				{
					"internalType": "bytes32",
					"name": "",
					"type": "bytes32"
				}
			],
			"stateMutability": "view",
			"type": "function"
		},
		{
			"inputs": [
				{
					"internalType": "uint256",
					"name": "_marketId",
					"type": "uint256"
				},
				{
					"internalType": "uint256",
					"name": "_amount",
					"type": "uint256"
				}
			],
			"name": "addAMMLiquidity",
			"outputs": [],
			"stateMutability": "nonpayable",
			"type": "function"
		},
		{
			"inputs": [
				{
					"internalType": "uint256",
					"name": "",
					"type": "uint256"
				}
			],
			"name": "allParticipants",
			"outputs": [
				{
					"internalType": "address",
					"name": "",
					"type": "address"
				}
			],
			"stateMutability": "view",
			"type": "function"
		},
		{
			"inputs": [
				{
					"internalType": "uint256",
					"name": "_marketId",
					"type": "uint256"
				},
				{
					"internalType": "uint256",
					"name": "_optionIdIn",
					"type": "uint256"
				},
				{
					"internalType": "uint256",
					"name": "_optionIdOut",
					"type": "uint256"
				},
				{
					"internalType": "uint256",
					"name": "_amountIn",
					"type": "uint256"
				},
				{
					"internalType": "uint256",
					"name": "_minAmountOut",
					"type": "uint256"
				}
			],
			"name": "ammSwap",
			"outputs": [
				{
					"internalType": "uint256",
					"name": "amountOut",
					"type": "uint256"
				}
			],
			"stateMutability": "nonpayable",
			"type": "function"
		},
		{
			"inputs": [
				{
					"internalType": "uint256",
					"name": "_marketId",
					"type": "uint256"
				},
				{
					"internalType": "uint256",
					"name": "_batchSize",
					"type": "uint256"
				}
			],
			"name": "batchDistributeWinnings",
			"outputs": [],
			"stateMutability": "nonpayable",
			"type": "function"
		},
		{
			"inputs": [],
			"name": "bettingToken",
			"outputs": [
				{
					"internalType": "contract IERC20",
					"name": "",
					"type": "address"
				}
			],
			"stateMutability": "view",
			"type": "function"
		},
		{
			"inputs": [
				{
					"internalType": "uint256",
					"name": "_marketId",
					"type": "uint256"
				},
				{
					"internalType": "uint256",
					"name": "_optionId",
					"type": "uint256"
				},
				{
					"internalType": "uint256",
					"name": "_quantity",
					"type": "uint256"
				},
				{
					"internalType": "uint256",
					"name": "_maxPricePerShare",
					"type": "uint256"
				}
			],
			"name": "buyShares",
			"outputs": [],
			"stateMutability": "nonpayable",
			"type": "function"
		},
		{
			"inputs": [
				{
					"internalType": "uint256",
					"name": "_marketId",
					"type": "uint256"
				},
				{
					"internalType": "uint256",
					"name": "_optionId",
					"type": "uint256"
				}
			],
			"name": "calculateCurrentPrice",
			"outputs": [
				{
					"internalType": "uint256",
					"name": "",
					"type": "uint256"
				}
			],
			"stateMutability": "view",
			"type": "function"
		},
		{
			"inputs": [
				{
					"internalType": "uint256",
					"name": "_marketId",
					"type": "uint256"
				},
				{
					"internalType": "uint256",
					"name": "_optionId",
					"type": "uint256"
				},
				{
					"internalType": "uint256",
					"name": "_quantity",
					"type": "uint256"
				}
			],
			"name": "calculateSellPrice",
			"outputs": [
				{
					"internalType": "uint256",
					"name": "",
					"type": "uint256"
				}
			],
			"stateMutability": "view",
			"type": "function"
		},
		{
			"inputs": [
				{
					"internalType": "enum PolicastMarketV3.MarketCategory",
					"name": "",
					"type": "uint8"
				},
				{
					"internalType": "uint256",
					"name": "",
					"type": "uint256"
				}
			],
			"name": "categoryMarkets",
			"outputs": [
				{
					"internalType": "uint256",
					"name": "",
					"type": "uint256"
				}
			],
			"stateMutability": "view",
			"type": "function"
		},
		{
			"inputs": [
				{
					"internalType": "uint256",
					"name": "_marketId",
					"type": "uint256"
				},
				{
					"internalType": "uint256",
					"name": "_optionId",
					"type": "uint256"
				}
			],
			"name": "claimFreeShares",
			"outputs": [],
			"stateMutability": "nonpayable",
			"type": "function"
		},
		{
			"inputs": [
				{
					"internalType": "uint256",
					"name": "_marketId",
					"type": "uint256"
				}
			],
			"name": "claimLPRewards",
			"outputs": [],
			"stateMutability": "nonpayable",
			"type": "function"
		},
		{
			"inputs": [
				{
					"internalType": "uint256",
					"name": "_marketId",
					"type": "uint256"
				}
			],
			"name": "claimWinnings",
			"outputs": [],
			"stateMutability": "nonpayable",
			"type": "function"
		},
		{
			"inputs": [
				{
					"internalType": "string",
					"name": "_question",
					"type": "string"
				},
				{
					"internalType": "string",
					"name": "_description",
					"type": "string"
				},
				{
					"internalType": "string[]",
					"name": "_optionNames",
					"type": "string[]"
				},
				{
					"internalType": "string[]",
					"name": "_optionDescriptions",
					"type": "string[]"
				},
				{
					"internalType": "uint256",
					"name": "_duration",
					"type": "uint256"
				},
				{
					"internalType": "enum PolicastMarketV3.MarketCategory",
					"name": "_category",
					"type": "uint8"
				},
				{
					"internalType": "uint256",
					"name": "_maxFreeParticipants",
					"type": "uint256"
				},
				{
					"internalType": "uint256",
					"name": "_freeSharesPerUser",
					"type": "uint256"
				},
				{
					"internalType": "uint256",
					"name": "_initialLiquidity",
					"type": "uint256"
				}
			],
			"name": "createFreeMarket",
			"outputs": [
				{
					"internalType": "uint256",
					"name": "",
					"type": "uint256"
				}
			],
			"stateMutability": "nonpayable",
			"type": "function"
		},
		{
			"inputs": [
				{
					"internalType": "string",
					"name": "_question",
					"type": "string"
				},
				{
					"internalType": "string",
					"name": "_description",
					"type": "string"
				},
				{
					"internalType": "string[]",
					"name": "_optionNames",
					"type": "string[]"
				},
				{
					"internalType": "string[]",
					"name": "_optionDescriptions",
					"type": "string[]"
				},
				{
					"internalType": "uint256",
					"name": "_duration",
					"type": "uint256"
				},
				{
					"internalType": "enum PolicastMarketV3.MarketCategory",
					"name": "_category",
					"type": "uint8"
				},
				{
					"internalType": "enum PolicastMarketV3.MarketType",
					"name": "_marketType",
					"type": "uint8"
				},
				{
					"internalType": "uint256",
					"name": "_initialLiquidity",
					"type": "uint256"
				}
			],
			"name": "createMarket",
			"outputs": [
				{
					"internalType": "uint256",
					"name": "",
					"type": "uint256"
				}
			],
			"stateMutability": "nonpayable",
			"type": "function"
		},
		{
			"inputs": [
				{
					"internalType": "string",
					"name": "_question",
					"type": "string"
				},
				{
					"internalType": "string",
					"name": "_description",
					"type": "string"
				},
				{
					"internalType": "string[]",
					"name": "_optionNames",
					"type": "string[]"
				},
				{
					"internalType": "string[]",
					"name": "_optionDescriptions",
					"type": "string[]"
				},
				{
					"internalType": "uint256",
					"name": "_duration",
					"type": "uint256"
				},
				{
					"internalType": "enum PolicastMarketV3.MarketCategory",
					"name": "_category",
					"type": "uint8"
				},
				{
					"internalType": "enum PolicastMarketV3.MarketType",
					"name": "_marketType",
					"type": "uint8"
				}
			],
			"name": "createMarketWithDefaultLiquidity",
			"outputs": [
				{
					"internalType": "uint256",
					"name": "",
					"type": "uint256"
				}
			],
			"stateMutability": "nonpayable",
			"type": "function"
		},
		{
			"inputs": [
				{
					"internalType": "string",
					"name": "_question",
					"type": "string"
				},
				{
					"internalType": "string",
					"name": "_description",
					"type": "string"
				},
				{
					"internalType": "string[]",
					"name": "_optionNames",
					"type": "string[]"
				},
				{
					"internalType": "string[]",
					"name": "_optionDescriptions",
					"type": "string[]"
				},
				{
					"internalType": "uint256",
					"name": "_duration",
					"type": "uint256"
				},
				{
					"internalType": "enum PolicastMarketV3.MarketCategory",
					"name": "_category",
					"type": "uint8"
				},
				{
					"internalType": "uint256",
					"name": "_minimumParticipants",
					"type": "uint256"
				},
				{
					"internalType": "string",
					"name": "_sponsorMessage",
					"type": "string"
				},
				{
					"internalType": "uint256",
					"name": "_initialLiquidity",
					"type": "uint256"
				}
			],
			"name": "createSponsoredMarket",
			"outputs": [
				{
					"internalType": "uint256",
					"name": "",
					"type": "uint256"
				}
			],
			"stateMutability": "payable",
			"type": "function"
		},
		{
			"inputs": [
				{
					"internalType": "uint256",
					"name": "_marketId",
					"type": "uint256"
				},
				{
					"internalType": "string",
					"name": "_reason",
					"type": "string"
				}
			],
			"name": "disputeMarket",
			"outputs": [],
			"stateMutability": "nonpayable",
			"type": "function"
		},
		{
			"inputs": [],
			"name": "feeCollector",
			"outputs": [
				{
					"internalType": "address",
					"name": "",
					"type": "address"
				}
			],
			"stateMutability": "view",
			"type": "function"
		},
		{
			"inputs": [],
			"name": "freeMarketAllowance",
			"outputs": [
				{
					"internalType": "uint256",
					"name": "",
					"type": "uint256"
				}
			],
			"stateMutability": "view",
			"type": "function"
		},
		{
			"inputs": [
				{
					"internalType": "uint256",
					"name": "_marketId",
					"type": "uint256"
				}
			],
			"name": "getBatchDistributionStatus",
			"outputs": [
				{
					"internalType": "uint256",
					"name": "totalParticipants",
					"type": "uint256"
				},
				{
					"internalType": "uint256",
					"name": "processedParticipants",
					"type": "uint256"
				},
				{
					"internalType": "uint256",
					"name": "remainingParticipants",
					"type": "uint256"
				},
				{
					"internalType": "bool",
					"name": "distributionComplete",
					"type": "bool"
				}
			],
			"stateMutability": "view",
			"type": "function"
		},
		{
			"inputs": [],
			"name": "getBettingToken",
			"outputs": [
				{
					"internalType": "address",
					"name": "",
					"type": "address"
				}
			],
			"stateMutability": "view",
			"type": "function"
		},
		{
			"inputs": [
				{
					"internalType": "uint256",
					"name": "_marketId",
					"type": "uint256"
				},
				{
					"internalType": "address",
					"name": "_lp",
					"type": "address"
				}
			],
			"name": "getLPInfo",
			"outputs": [
				{
					"internalType": "uint256",
					"name": "contribution",
					"type": "uint256"
				},
				{
					"internalType": "bool",
					"name": "rewardsClaimed",
					"type": "bool"
				},
				{
					"internalType": "uint256",
					"name": "estimatedRewards",
					"type": "uint256"
				}
			],
			"stateMutability": "view",
			"type": "function"
		},
		{
			"inputs": [],
			"name": "getMarketCount",
			"outputs": [
				{
					"internalType": "uint256",
					"name": "",
					"type": "uint256"
				}
			],
			"stateMutability": "view",
			"type": "function"
		},
		{
			"inputs": [
				{
					"internalType": "uint256",
					"name": "_marketId",
					"type": "uint256"
				}
			],
			"name": "getMarketFinancials",
			"outputs": [
				{
					"internalType": "uint256",
					"name": "adminInitialLiquidity",
					"type": "uint256"
				},
				{
					"internalType": "uint256",
					"name": "userLiquidity",
					"type": "uint256"
				},
				{
					"internalType": "uint256",
					"name": "platformFeesCollected",
					"type": "uint256"
				},
				{
					"internalType": "uint256",
					"name": "ammFeesCollected",
					"type": "uint256"
				},
				{
					"internalType": "bool",
					"name": "adminLiquidityClaimed",
					"type": "bool"
				}
			],
			"stateMutability": "view",
			"type": "function"
		},
		{
			"inputs": [
				{
					"internalType": "uint256",
					"name": "_marketId",
					"type": "uint256"
				}
			],
			"name": "getMarketInfo",
			"outputs": [
				{
					"internalType": "string",
					"name": "question",
					"type": "string"
				},
				{
					"internalType": "string",
					"name": "description",
					"type": "string"
				},
				{
					"internalType": "uint256",
					"name": "endTime",
					"type": "uint256"
				},
				{
					"internalType": "enum PolicastMarketV3.MarketCategory",
					"name": "category",
					"type": "uint8"
				},
				{
					"internalType": "uint256",
					"name": "optionCount",
					"type": "uint256"
				},
				{
					"internalType": "bool",
					"name": "resolved",
					"type": "bool"
				},
				{
					"internalType": "bool",
					"name": "disputed",
					"type": "bool"
				},
				{
					"internalType": "uint256",
					"name": "winningOptionId",
					"type": "uint256"
				},
				{
					"internalType": "address",
					"name": "creator",
					"type": "address"
				}
			],
			"stateMutability": "view",
			"type": "function"
		},
		{
			"inputs": [
				{
					"internalType": "uint256",
					"name": "_marketId",
					"type": "uint256"
				}
			],
			"name": "getMarketOdds",
			"outputs": [
				{
					"internalType": "uint256[]",
					"name": "",
					"type": "uint256[]"
				}
			],
			"stateMutability": "view",
			"type": "function"
		},
		{
			"inputs": [
				{
					"internalType": "uint256",
					"name": "_marketId",
					"type": "uint256"
				},
				{
					"internalType": "uint256",
					"name": "_optionId",
					"type": "uint256"
				}
			],
			"name": "getMarketOption",
			"outputs": [
				{
					"internalType": "string",
					"name": "name",
					"type": "string"
				},
				{
					"internalType": "string",
					"name": "description",
					"type": "string"
				},
				{
					"internalType": "uint256",
					"name": "totalShares",
					"type": "uint256"
				},
				{
					"internalType": "uint256",
					"name": "totalVolume",
					"type": "uint256"
				},
				{
					"internalType": "uint256",
					"name": "currentPrice",
					"type": "uint256"
				},
				{
					"internalType": "bool",
					"name": "isActive",
					"type": "bool"
				}
			],
			"stateMutability": "view",
			"type": "function"
		},
		{
			"inputs": [
				{
					"internalType": "enum PolicastMarketV3.MarketCategory",
					"name": "_category",
					"type": "uint8"
				},
				{
					"internalType": "uint256",
					"name": "_limit",
					"type": "uint256"
				}
			],
			"name": "getMarketsByCategory",
			"outputs": [
				{
					"internalType": "uint256[]",
					"name": "",
					"type": "uint256[]"
				}
			],
			"stateMutability": "view",
			"type": "function"
		},
		{
			"inputs": [],
			"name": "getPlatformStats",
			"outputs": [
				{
					"internalType": "uint256",
					"name": "totalFeesCollected",
					"type": "uint256"
				},
				{
					"internalType": "address",
					"name": "currentFeeCollector",
					"type": "address"
				},
				{
					"internalType": "uint256",
					"name": "totalMarkets",
					"type": "uint256"
				},
				{
					"internalType": "uint256",
					"name": "totalTrades",
					"type": "uint256"
				}
			],
			"stateMutability": "view",
			"type": "function"
		},
		{
			"inputs": [
				{
					"internalType": "uint256",
					"name": "_marketId",
					"type": "uint256"
				},
				{
					"internalType": "uint256",
					"name": "_optionId",
					"type": "uint256"
				},
				{
					"internalType": "uint256",
					"name": "_limit",
					"type": "uint256"
				}
			],
			"name": "getPriceHistory",
			"outputs": [
				{
					"components": [
						{
							"internalType": "uint256",
							"name": "price",
							"type": "uint256"
						},
						{
							"internalType": "uint256",
							"name": "timestamp",
							"type": "uint256"
						},
						{
							"internalType": "uint256",
							"name": "volume",
							"type": "uint256"
						}
					],
					"internalType": "struct PolicastMarketV3.PricePoint[]",
					"name": "",
					"type": "tuple[]"
				}
			],
			"stateMutability": "view",
			"type": "function"
		},
		{
			"inputs": [
				{
					"internalType": "bytes32",
					"name": "role",
					"type": "bytes32"
				}
			],
			"name": "getRoleAdmin",
			"outputs": [
				{
					"internalType": "bytes32",
					"name": "",
					"type": "bytes32"
				}
			],
			"stateMutability": "view",
			"type": "function"
		},
		{
			"inputs": [
				{
					"internalType": "address",
					"name": "_user",
					"type": "address"
				}
			],
			"name": "getUserPortfolio",
			"outputs": [
				{
					"components": [
						{
							"internalType": "uint256",
							"name": "totalInvested",
							"type": "uint256"
						},
						{
							"internalType": "uint256",
							"name": "totalWinnings",
							"type": "uint256"
						},
						{
							"internalType": "int256",
							"name": "unrealizedPnL",
							"type": "int256"
						},
						{
							"internalType": "int256",
							"name": "realizedPnL",
							"type": "int256"
						},
						{
							"internalType": "uint256",
							"name": "tradeCount",
							"type": "uint256"
						}
					],
					"internalType": "struct PolicastMarketV3.UserPortfolio",
					"name": "",
					"type": "tuple"
				}
			],
			"stateMutability": "view",
			"type": "function"
		},
		{
			"inputs": [
				{
					"internalType": "uint256",
					"name": "_marketId",
					"type": "uint256"
				},
				{
					"internalType": "address",
					"name": "_user",
					"type": "address"
				}
			],
			"name": "getUserShares",
			"outputs": [
				{
					"internalType": "uint256[]",
					"name": "",
					"type": "uint256[]"
				}
			],
			"stateMutability": "view",
			"type": "function"
		},
		{
			"inputs": [
				{
					"internalType": "address",
					"name": "_account",
					"type": "address"
				}
			],
			"name": "grantMarketValidatorRole",
			"outputs": [],
			"stateMutability": "nonpayable",
			"type": "function"
		},
		{
			"inputs": [
				{
					"internalType": "address",
					"name": "_account",
					"type": "address"
				}
			],
			"name": "grantQuestionCreatorRole",
			"outputs": [],
			"stateMutability": "nonpayable",
			"type": "function"
		},
		{
			"inputs": [
				{
					"internalType": "address",
					"name": "_account",
					"type": "address"
				}
			],
			"name": "grantQuestionResolveRole",
			"outputs": [],
			"stateMutability": "nonpayable",
			"type": "function"
		},
		{
			"inputs": [
				{
					"internalType": "bytes32",
					"name": "role",
					"type": "bytes32"
				},
				{
					"internalType": "address",
					"name": "account",
					"type": "address"
				}
			],
			"name": "grantRole",
			"outputs": [],
			"stateMutability": "nonpayable",
			"type": "function"
		},
		{
			"inputs": [
				{
					"internalType": "bytes32",
					"name": "role",
					"type": "bytes32"
				},
				{
					"internalType": "address",
					"name": "account",
					"type": "address"
				}
			],
			"name": "hasRole",
			"outputs": [
				{
					"internalType": "bool",
					"name": "",
					"type": "bool"
				}
			],
			"stateMutability": "view",
			"type": "function"
		},
		{
			"inputs": [
				{
					"internalType": "address",
					"name": "",
					"type": "address"
				}
			],
			"name": "lpRewardsEarned",
			"outputs": [
				{
					"internalType": "uint256",
					"name": "",
					"type": "uint256"
				}
			],
			"stateMutability": "view",
			"type": "function"
		},
		{
			"inputs": [],
			"name": "marketCount",
			"outputs": [
				{
					"internalType": "uint256",
					"name": "",
					"type": "uint256"
				}
			],
			"stateMutability": "view",
			"type": "function"
		},
		{
			"inputs": [
				{
					"internalType": "uint256",
					"name": "",
					"type": "uint256"
				},
				{
					"internalType": "uint256",
					"name": "",
					"type": "uint256"
				}
			],
			"name": "marketTrades",
			"outputs": [
				{
					"internalType": "uint256",
					"name": "marketId",
					"type": "uint256"
				},
				{
					"internalType": "uint256",
					"name": "optionId",
					"type": "uint256"
				},
				{
					"internalType": "address",
					"name": "buyer",
					"type": "address"
				},
				{
					"internalType": "address",
					"name": "seller",
					"type": "address"
				},
				{
					"internalType": "uint256",
					"name": "price",
					"type": "uint256"
				},
				{
					"internalType": "uint256",
					"name": "quantity",
					"type": "uint256"
				},
				{
					"internalType": "uint256",
					"name": "timestamp",
					"type": "uint256"
				}
			],
			"stateMutability": "view",
			"type": "function"
		},
		{
			"inputs": [
				{
					"internalType": "enum PolicastMarketV3.MarketType",
					"name": "",
					"type": "uint8"
				},
				{
					"internalType": "uint256",
					"name": "",
					"type": "uint256"
				}
			],
			"name": "marketsByType",
			"outputs": [
				{
					"internalType": "uint256",
					"name": "",
					"type": "uint256"
				}
			],
			"stateMutability": "view",
			"type": "function"
		},
		{
			"inputs": [],
			"name": "owner",
			"outputs": [
				{
					"internalType": "address",
					"name": "",
					"type": "address"
				}
			],
			"stateMutability": "view",
			"type": "function"
		},
		{
			"inputs": [],
			"name": "pause",
			"outputs": [],
			"stateMutability": "nonpayable",
			"type": "function"
		},
		{
			"inputs": [
				{
					"internalType": "uint256",
					"name": "_marketId",
					"type": "uint256"
				}
			],
			"name": "pauseMarket",
			"outputs": [],
			"stateMutability": "nonpayable",
			"type": "function"
		},
		{
			"inputs": [],
			"name": "paused",
			"outputs": [
				{
					"internalType": "bool",
					"name": "",
					"type": "bool"
				}
			],
			"stateMutability": "view",
			"type": "function"
		},
		{
			"inputs": [],
			"name": "platformFeeRate",
			"outputs": [
				{
					"internalType": "uint256",
					"name": "",
					"type": "uint256"
				}
			],
			"stateMutability": "view",
			"type": "function"
		},
		{
			"inputs": [],
			"name": "previousBettingToken",
			"outputs": [
				{
					"internalType": "address",
					"name": "",
					"type": "address"
				}
			],
			"stateMutability": "view",
			"type": "function"
		},
		{
			"inputs": [
				{
					"internalType": "uint256",
					"name": "",
					"type": "uint256"
				},
				{
					"internalType": "uint256",
					"name": "",
					"type": "uint256"
				},
				{
					"internalType": "uint256",
					"name": "",
					"type": "uint256"
				}
			],
			"name": "priceHistory",
			"outputs": [
				{
					"internalType": "uint256",
					"name": "price",
					"type": "uint256"
				},
				{
					"internalType": "uint256",
					"name": "timestamp",
					"type": "uint256"
				},
				{
					"internalType": "uint256",
					"name": "volume",
					"type": "uint256"
				}
			],
			"stateMutability": "view",
			"type": "function"
		},
		{
			"inputs": [],
			"name": "renounceOwnership",
			"outputs": [],
			"stateMutability": "nonpayable",
			"type": "function"
		},
		{
			"inputs": [
				{
					"internalType": "bytes32",
					"name": "role",
					"type": "bytes32"
				},
				{
					"internalType": "address",
					"name": "callerConfirmation",
					"type": "address"
				}
			],
			"name": "renounceRole",
			"outputs": [],
			"stateMutability": "nonpayable",
			"type": "function"
		},
		{
			"inputs": [
				{
					"internalType": "uint256",
					"name": "_marketId",
					"type": "uint256"
				},
				{
					"internalType": "uint256",
					"name": "_winningOptionId",
					"type": "uint256"
				}
			],
			"name": "resolveMarket",
			"outputs": [],
			"stateMutability": "nonpayable",
			"type": "function"
		},
		{
			"inputs": [
				{
					"internalType": "bytes32",
					"name": "role",
					"type": "bytes32"
				},
				{
					"internalType": "address",
					"name": "account",
					"type": "address"
				}
			],
			"name": "revokeRole",
			"outputs": [],
			"stateMutability": "nonpayable",
			"type": "function"
		},
		{
			"inputs": [
				{
					"internalType": "uint256",
					"name": "_marketId",
					"type": "uint256"
				},
				{
					"internalType": "uint256",
					"name": "_optionId",
					"type": "uint256"
				},
				{
					"internalType": "uint256",
					"name": "_quantity",
					"type": "uint256"
				},
				{
					"internalType": "uint256",
					"name": "_minPricePerShare",
					"type": "uint256"
				}
			],
			"name": "sellShares",
			"outputs": [],
			"stateMutability": "nonpayable",
			"type": "function"
		},
		{
			"inputs": [
				{
					"internalType": "address",
					"name": "_feeCollector",
					"type": "address"
				}
			],
			"name": "setFeeCollector",
			"outputs": [],
			"stateMutability": "nonpayable",
			"type": "function"
		},
		{
			"inputs": [
				{
					"internalType": "uint256",
					"name": "_allowance",
					"type": "uint256"
				}
			],
			"name": "setFreeMarketAllowance",
			"outputs": [],
			"stateMutability": "nonpayable",
			"type": "function"
		},
		{
			"inputs": [
				{
					"internalType": "uint256",
					"name": "_feeRate",
					"type": "uint256"
				}
			],
			"name": "setPlatformFeeRate",
			"outputs": [],
			"stateMutability": "nonpayable",
			"type": "function"
		},
		{
			"inputs": [
				{
					"internalType": "bytes4",
					"name": "interfaceId",
					"type": "bytes4"
				}
			],
			"name": "supportsInterface",
			"outputs": [
				{
					"internalType": "bool",
					"name": "",
					"type": "bool"
				}
			],
			"stateMutability": "view",
			"type": "function"
		},
		{
			"inputs": [],
			"name": "tokenUpdatedAt",
			"outputs": [
				{
					"internalType": "uint256",
					"name": "",
					"type": "uint256"
				}
			],
			"stateMutability": "view",
			"type": "function"
		},
		{
			"inputs": [],
			"name": "totalPlatformFeesCollected",
			"outputs": [
				{
					"internalType": "uint256",
					"name": "",
					"type": "uint256"
				}
			],
			"stateMutability": "view",
			"type": "function"
		},
		{
			"inputs": [
				{
					"internalType": "address",
					"name": "",
					"type": "address"
				}
			],
			"name": "totalWinnings",
			"outputs": [
				{
					"internalType": "uint256",
					"name": "",
					"type": "uint256"
				}
			],
			"stateMutability": "view",
			"type": "function"
		},
		{
			"inputs": [],
			"name": "tradeCount",
			"outputs": [
				{
					"internalType": "uint256",
					"name": "",
					"type": "uint256"
				}
			],
			"stateMutability": "view",
			"type": "function"
		},
		{
			"inputs": [
				{
					"internalType": "address",
					"name": "newOwner",
					"type": "address"
				}
			],
			"name": "transferOwnership",
			"outputs": [],
			"stateMutability": "nonpayable",
			"type": "function"
		},
		{
			"inputs": [],
			"name": "unpause",
			"outputs": [],
			"stateMutability": "nonpayable",
			"type": "function"
		},
		{
			"inputs": [
				{
					"internalType": "address",
					"name": "_newToken",
					"type": "address"
				}
			],
			"name": "updateBettingToken",
			"outputs": [],
			"stateMutability": "nonpayable",
			"type": "function"
		},
		{
			"inputs": [
				{
					"internalType": "address",
					"name": "_newToken",
					"type": "address"
				}
			],
			"name": "updateBettingTokenAddress",
			"outputs": [],
			"stateMutability": "nonpayable",
			"type": "function"
		},
		{
			"inputs": [
				{
					"internalType": "address",
					"name": "",
					"type": "address"
				}
			],
			"name": "userFreeSharesUsed",
			"outputs": [
				{
					"internalType": "uint256",
					"name": "",
					"type": "uint256"
				}
			],
			"stateMutability": "view",
			"type": "function"
		},
		{
			"inputs": [
				{
					"internalType": "address",
					"name": "",
					"type": "address"
				}
			],
			"name": "userPortfolios",
			"outputs": [
				{
					"internalType": "uint256",
					"name": "totalInvested",
					"type": "uint256"
				},
				{
					"internalType": "uint256",
					"name": "totalWinnings",
					"type": "uint256"
				},
				{
					"internalType": "int256",
					"name": "unrealizedPnL",
					"type": "int256"
				},
				{
					"internalType": "int256",
					"name": "realizedPnL",
					"type": "int256"
				},
				{
					"internalType": "uint256",
					"name": "tradeCount",
					"type": "uint256"
				}
			],
			"stateMutability": "view",
			"type": "function"
		},
		{
			"inputs": [
				{
					"internalType": "address",
					"name": "",
					"type": "address"
				},
				{
					"internalType": "uint256",
					"name": "",
					"type": "uint256"
				}
			],
			"name": "userTradeHistory",
			"outputs": [
				{
					"internalType": "uint256",
					"name": "marketId",
					"type": "uint256"
				},
				{
					"internalType": "uint256",
					"name": "optionId",
					"type": "uint256"
				},
				{
					"internalType": "address",
					"name": "buyer",
					"type": "address"
				},
				{
					"internalType": "address",
					"name": "seller",
					"type": "address"
				},
				{
					"internalType": "uint256",
					"name": "price",
					"type": "uint256"
				},
				{
					"internalType": "uint256",
					"name": "quantity",
					"type": "uint256"
				},
				{
					"internalType": "uint256",
					"name": "timestamp",
					"type": "uint256"
				}
			],
			"stateMutability": "view",
			"type": "function"
		},
		{
			"inputs": [
				{
					"internalType": "uint256",
					"name": "_marketId",
					"type": "uint256"
				}
			],
			"name": "validateMarket",
			"outputs": [],
			"stateMutability": "nonpayable",
			"type": "function"
		},
		{
			"inputs": [
				{
					"internalType": "uint256",
					"name": "_marketId",
					"type": "uint256"
				}
			],
			"name": "withdrawAdminLiquidity",
			"outputs": [],
			"stateMutability": "nonpayable",
			"type": "function"
		},
		{
			"inputs": [],
			"name": "withdrawPlatformFees",
			"outputs": [],
			"stateMutability": "nonpayable",
			"type": "function"
		}
	]
}