{
	"data": {
		"bytecode": {
			"linkReferences": {},
			"object": "608080604052346071573315605e575f8054336001600160a01b0319821681178355916001600160a01b03909116907f8be0079c531659141344cd1fd0a4f28419497f9722a3daafe3b4186f6b6457e09080a3610be590816100768239f35b631e4fbdf760e01b5f525f60045260245ffd5b5f80fdfe6080806040526004361015610012575f80fd5b5f3560e01c9081632fba4aa9146105e4575080636815d0df146105bd578063715018a6146105665780638da5cb5b1461053f5780639c03ef5d14610514578063a0cf0aea146104fa578063c740e8f9146103f3578063e098e8441461030d578063efcab8ae1461023c578063f0854de814610172578063f2fde38b146100ed5763f7888aec146100a0575f80fd5b346100e95760403660031901126100e9576100b9610631565b6024356001600160a01b03811681036100e9576100da60ff91604093610aa0565b83519182529091166020820152f35b5f80fd5b346100e95760203660031901126100e957610106610631565b61010e610b89565b6001600160a01b0316801561015f575f80546001600160a01b03198116831782556001600160a01b0316907f8be0079c531659141344cd1fd0a4f28419497f9722a3daafe3b4186f6b6457e09080a3005b631e4fbdf760e01b5f525f60045260245ffd5b346100e95761018036610678565b91905f9061018d84610a15565b9261019785610a15565b945f925b8184106101d7576101bf86866101cd8a6040519485946060865260608601906106bc565b9084820360208601526106bc565b9060408301520390f35b909192936102326001916102206102006101fa6101f58a8989610a47565b610a6b565b88610aa0565b508061020c8a8c610a7f565b5261021b6101f58a8989610a47565b610745565b908161022c898c610a7f565b52610a93565b940192919061019b565b346100e95760403660031901126100e95760043567ffffffffffffffff81116100e95761026d903690600401610647565b60243567ffffffffffffffff81116100e95761028d903690600401610647565b92905f935f5b8481106102a557602086604051908152f35b5f5b8281106102b75750600101610293565b9291909460016102ff81986102f96102ea6102d66101f58c888d610a47565b6102e46101f58b8a8c610a47565b90610aa0565b5061021b6101f58a898b610a47565b90610a93565b9401909591929396506102a7565b346100e95761031b36610678565b909161032682610a15565b92610330836109fd565b9161033e60405193846107dc565b83835261034a846109fd565b602084019490601f19013686375f5b8181106103b85761037c87878760206040519485946040865260408601906106bc565b918483038286015251918281520191905f5b81811061039c575050500390f35b825160ff1684528594506020938401939092019160010161038e565b806103d26103cc6101f56001948689610a47565b85610aa0565b60ff6103de848a610a7f565b911690526103ec828a610a7f565b5201610359565b346100e95760603660031901126100e95761040c610631565b6024356001600160a01b03811691908290036100e95760443565ffffffffffff81168091036100e95761043d610b89565b82156104cc5760207f0c3bdaa6ed090ed87c8e706ce5aa638bf3b37d80f743c5ebb168e3f86be0b44d91604051610473816107ac565b8581528281018281526001600160a01b039586165f8181526001865260409081902093518454935165ffffffffffff60a01b60a09190911b1698166001600160d01b0319909316929092179690961790915551908152a3005b60405162461bcd60e51b81526020600482015260066024820152650466565643d360d41b6044820152606490fd5b346100e9575f3660031901126100e95760206040515f8152f35b346100e95760203660031901126100e9576020610537610532610631565b61082e565b604051908152f35b346100e9575f3660031901126100e9575f546040516001600160a01b039091168152602090f35b346100e9575f3660031901126100e95761057e610b89565b5f80546001600160a01b0319811682556001600160a01b03167f8be0079c531659141344cd1fd0a4f28419497f9722a3daafe3b4186f6b6457e08280a3005b346100e95760403660031901126100e95760206105376105db610631565b60243590610745565b346100e95760203660031901126100e9576040906001600160a01b03610608610631565b165f52600160205265ffffffffffff825f205460018060a01b038116835260a01c166020820152f35b600435906001600160a01b03821682036100e957565b9181601f840112156100e95782359167ffffffffffffffff83116100e9576020808501948460051b0101116100e957565b9060406003198301126100e9576004356001600160a01b03811681036100e957916024359067ffffffffffffffff82116100e9576106b891600401610647565b9091565b90602080835192838152019201905f5b8181106106d95750505090565b82518452602093840193909201916001016106cc565b8181029291811591840414171561070257565b634e487b7160e01b5f52601160045260245ffd5b60ff16604d811161070257600a0a90565b8115610731570490565b634e487b7160e01b5f52601260045260245ffd5b9061074f8261082e565b801580156107a4575b61079d5761078b926107859161077f916001600160a01b03811661078e57506012936106ef565b91610716565b90610727565b90565b61079790610b32565b936106ef565b5050505f90565b508115610758565b6040810190811067ffffffffffffffff8211176107c857604052565b634e487b7160e01b5f52604160045260245ffd5b90601f8019910116810190811067ffffffffffffffff8211176107c857604052565b519069ffffffffffffffffffff821682036100e957565b908160209103126100e9575160ff811681036100e95790565b60018060a01b03165f52600160205260405f206040519061084e826107ac565b549060018060a01b0382169182825265ffffffffffff602083019160a01c168152821561079d5760a060049360405194858092633fabe5a360e21b82525afa908115610971575f935f926109a7575b505f84131561099f5765ffffffffffff81511615159182610982575b505061097c575160405163313ce56760e01b815290602090829060049082906001600160a01b03165afa80156109715760ff915f91610942575b5016601281101561091c576012039060ff82116107025761091661078b92610716565b906106ef565b601281111561093e57601119019060ff82116107025761078561078b92610716565b5090565b610964915060203d60201161096a575b61095c81836107dc565b810190610815565b5f6108f3565b503d610952565b6040513d5f823e3d90fd5b50505f90565b4290810392508211610702575165ffffffffffff16105f806108b9565b505050505f90565b9350905060a0833d60a0116109f5575b816109c460a093836107dc565b810103126100e9576109d5836107fe565b5060208301516109ec6080606086015195016107fe565b5092905f61089d565b3d91506109b7565b67ffffffffffffffff81116107c85760051b60200190565b90610a1f826109fd565b610a2c60405191826107dc565b8281528092610a3d601f19916109fd565b0190602036910137565b9190811015610a575760051b0190565b634e487b7160e01b5f52603260045260245ffd5b356001600160a01b03811681036100e95790565b8051821015610a575760209160051b010190565b9190820180921161070257565b906001600160a01b03811680610ab95750503190601290565b6040516370a0823160e01b81526001600160a01b03909316600484015290929190602090829060249082905afa8015610971575f90610afe575b61078b915092610b32565b506020813d602011610b2a575b81610b18602093836107dc565b810103126100e95761078b9051610af3565b3d9150610b0b565b60405163313ce56760e01b815290602090829060049082906001600160a01b03165afa5f9181610b68575b5061078b5750601290565b610b8291925060203d60201161096a5761095c81836107dc565b905f610b5d565b5f546001600160a01b03163303610b9c57565b63118cdaa760e01b5f523360045260245ffdfea2646970667358221220bbb6077737ce5a1c13aedca41bb52122ed0f6d44e6658cb842fbc377e6be97b364736f6c634300081a0033",
			"opcodes": "PUSH1 0x80 DUP1 PUSH1 0x40 MSTORE CALLVALUE PUSH1 0x71 JUMPI CALLER ISZERO PUSH1 0x5E JUMPI PUSH0 DUP1 SLOAD CALLER PUSH1 0x1 PUSH1 0x1 PUSH1 0xA0 SHL SUB NOT DUP3 AND DUP2 OR DUP4 SSTORE SWAP2 PUSH1 0x1 PUSH1 0x1 PUSH1 0xA0 SHL SUB SWAP1 SWAP2 AND SWAP1 PUSH32 0x8BE0079C531659141344CD1FD0A4F28419497F9722A3DAAFE3B4186F6B6457E0 SWAP1 DUP1 LOG3 PUSH2 0xBE5 SWAP1 DUP2 PUSH2 0x76 DUP3 CODECOPY RETURN JUMPDEST PUSH4 0x1E4FBDF7 PUSH1 0xE0 SHL PUSH0 MSTORE PUSH0 PUSH1 0x4 MSTORE PUSH1 0x24 PUSH0 REVERT JUMPDEST PUSH0 DUP1 REVERT INVALID PUSH1 0x80 DUP1 PUSH1 0x40 MSTORE PUSH1 0x4 CALLDATASIZE LT ISZERO PUSH2 0x12 JUMPI PUSH0 DUP1 REVERT JUMPDEST PUSH0 CALLDATALOAD PUSH1 0xE0 SHR SWAP1 DUP2 PUSH4 0x2FBA4AA9 EQ PUSH2 0x5E4 JUMPI POP DUP1 PUSH4 0x6815D0DF EQ PUSH2 0x5BD JUMPI DUP1 PUSH4 0x715018A6 EQ PUSH2 0x566 JUMPI DUP1 PUSH4 0x8DA5CB5B EQ PUSH2 0x53F JUMPI DUP1 PUSH4 0x9C03EF5D EQ PUSH2 0x514 JUMPI DUP1 PUSH4 0xA0CF0AEA EQ PUSH2 0x4FA JUMPI DUP1 PUSH4 0xC740E8F9 EQ PUSH2 0x3F3 JUMPI DUP1 PUSH4 0xE098E844 EQ PUSH2 0x30D JUMPI DUP1 PUSH4 0xEFCAB8AE EQ PUSH2 0x23C JUMPI DUP1 PUSH4 0xF0854DE8 EQ PUSH2 0x172 JUMPI DUP1 PUSH4 0xF2FDE38B EQ PUSH2 0xED JUMPI PUSH4 0xF7888AEC EQ PUSH2 0xA0 JUMPI PUSH0 DUP1 REVERT JUMPDEST CALLVALUE PUSH2 0xE9 JUMPI PUSH1 0x40 CALLDATASIZE PUSH1 0x3 NOT ADD SLT PUSH2 0xE9 JUMPI PUSH2 0xB9 PUSH2 0x631 JUMP JUMPDEST PUSH1 0x24 CALLDATALOAD PUSH1 0x1 PUSH1 0x1 PUSH1 0xA0 SHL SUB DUP2 AND DUP2 SUB PUSH2 0xE9 JUMPI PUSH2 0xDA PUSH1 0xFF SWAP2 PUSH1 0x40 SWAP4 PUSH2 0xAA0 JUMP JUMPDEST DUP4 MLOAD SWAP2 DUP3 MSTORE SWAP1 SWAP2 AND PUSH1 0x20 DUP3 ADD MSTORE RETURN JUMPDEST PUSH0 DUP1 REVERT JUMPDEST CALLVALUE PUSH2 0xE9 JUMPI PUSH1 0x20 CALLDATASIZE PUSH1 0x3 NOT ADD SLT PUSH2 0xE9 JUMPI PUSH2 0x106 PUSH2 0x631 JUMP JUMPDEST PUSH2 0x10E PUSH2 0xB89 JUMP JUMPDEST PUSH1 0x1 PUSH1 0x1 PUSH1 0xA0 SHL SUB AND DUP1 ISZERO PUSH2 0x15F JUMPI PUSH0 DUP1 SLOAD PUSH1 0x1 PUSH1 0x1 PUSH1 0xA0 SHL SUB NOT DUP2 AND DUP4 OR DUP3 SSTORE PUSH1 0x1 PUSH1 0x1 PUSH1 0xA0 SHL SUB AND SWAP1 PUSH32 0x8BE0079C531659141344CD1FD0A4F28419497F9722A3DAAFE3B4186F6B6457E0 SWAP1 DUP1 LOG3 STOP JUMPDEST PUSH4 0x1E4FBDF7 PUSH1 0xE0 SHL PUSH0 MSTORE PUSH0 PUSH1 0x4 MSTORE PUSH1 0x24 PUSH0 REVERT JUMPDEST CALLVALUE PUSH2 0xE9 JUMPI PUSH2 0x180 CALLDATASIZE PUSH2 0x678 JUMP JUMPDEST SWAP2 SWAP1 PUSH0 SWAP1 PUSH2 0x18D DUP5 PUSH2 0xA15 JUMP JUMPDEST SWAP3 PUSH2 0x197 DUP6 PUSH2 0xA15 JUMP JUMPDEST SWAP5 PUSH0 SWAP3 JUMPDEST DUP2 DUP5 LT PUSH2 0x1D7 JUMPI PUSH2 0x1BF DUP7 DUP7 PUSH2 0x1CD DUP11 PUSH1 0x40 MLOAD SWAP5 DUP6 SWAP5 PUSH1 0x60 DUP7 MSTORE PUSH1 0x60 DUP7 ADD SWAP1 PUSH2 0x6BC JUMP JUMPDEST SWAP1 DUP5 DUP3 SUB PUSH1 0x20 DUP7 ADD MSTORE PUSH2 0x6BC JUMP JUMPDEST SWAP1 PUSH1 0x40 DUP4 ADD MSTORE SUB SWAP1 RETURN JUMPDEST SWAP1 SWAP2 SWAP3 SWAP4 PUSH2 0x232 PUSH1 0x1 SWAP2 PUSH2 0x220 PUSH2 0x200 PUSH2 0x1FA PUSH2 0x1F5 DUP11 DUP10 DUP10 PUSH2 0xA47 JUMP JUMPDEST PUSH2 0xA6B JUMP JUMPDEST DUP9 PUSH2 0xAA0 JUMP JUMPDEST POP DUP1 PUSH2 0x20C DUP11 DUP13 PUSH2 0xA7F JUMP JUMPDEST MSTORE PUSH2 0x21B PUSH2 0x1F5 DUP11 DUP10 DUP10 PUSH2 0xA47 JUMP JUMPDEST PUSH2 0x745 JUMP JUMPDEST SWAP1 DUP2 PUSH2 0x22C DUP10 DUP13 PUSH2 0xA7F JUMP JUMPDEST MSTORE PUSH2 0xA93 JUMP JUMPDEST SWAP5 ADD SWAP3 SWAP2 SWAP1 PUSH2 0x19B JUMP JUMPDEST CALLVALUE PUSH2 0xE9 JUMPI PUSH1 0x40 CALLDATASIZE PUSH1 0x3 NOT ADD SLT PUSH2 0xE9 JUMPI PUSH1 0x4 CALLDATALOAD PUSH8 0xFFFFFFFFFFFFFFFF DUP2 GT PUSH2 0xE9 JUMPI PUSH2 0x26D SWAP1 CALLDATASIZE SWAP1 PUSH1 0x4 ADD PUSH2 0x647 JUMP JUMPDEST PUSH1 0x24 CALLDATALOAD PUSH8 0xFFFFFFFFFFFFFFFF DUP2 GT PUSH2 0xE9 JUMPI PUSH2 0x28D SWAP1 CALLDATASIZE SWAP1 PUSH1 0x4 ADD PUSH2 0x647 JUMP JUMPDEST SWAP3 SWAP1 PUSH0 SWAP4 PUSH0 JUMPDEST DUP5 DUP2 LT PUSH2 0x2A5 JUMPI PUSH1 0x20 DUP7 PUSH1 0x40 MLOAD SWAP1 DUP2 MSTORE RETURN JUMPDEST PUSH0 JUMPDEST DUP3 DUP2 LT PUSH2 0x2B7 JUMPI POP PUSH1 0x1 ADD PUSH2 0x293 JUMP JUMPDEST SWAP3 SWAP2 SWAP1 SWAP5 PUSH1 0x1 PUSH2 0x2FF DUP2 SWAP9 PUSH2 0x2F9 PUSH2 0x2EA PUSH2 0x2D6 PUSH2 0x1F5 DUP13 DUP9 DUP14 PUSH2 0xA47 JUMP JUMPDEST PUSH2 0x2E4 PUSH2 0x1F5 DUP12 DUP11 DUP13 PUSH2 0xA47 JUMP JUMPDEST SWAP1 PUSH2 0xAA0 JUMP JUMPDEST POP PUSH2 0x21B PUSH2 0x1F5 DUP11 DUP10 DUP12 PUSH2 0xA47 JUMP JUMPDEST SWAP1 PUSH2 0xA93 JUMP JUMPDEST SWAP5 ADD SWAP1 SWAP6 SWAP2 SWAP3 SWAP4 SWAP7 POP PUSH2 0x2A7 JUMP JUMPDEST CALLVALUE PUSH2 0xE9 JUMPI PUSH2 0x31B CALLDATASIZE PUSH2 0x678 JUMP JUMPDEST SWAP1 SWAP2 PUSH2 0x326 DUP3 PUSH2 0xA15 JUMP JUMPDEST SWAP3 PUSH2 0x330 DUP4 PUSH2 0x9FD JUMP JUMPDEST SWAP2 PUSH2 0x33E PUSH1 0x40 MLOAD SWAP4 DUP5 PUSH2 0x7DC JUMP JUMPDEST DUP4 DUP4 MSTORE PUSH2 0x34A DUP5 PUSH2 0x9FD JUMP JUMPDEST PUSH1 0x20 DUP5 ADD SWAP5 SWAP1 PUSH1 0x1F NOT ADD CALLDATASIZE DUP7 CALLDATACOPY PUSH0 JUMPDEST DUP2 DUP2 LT PUSH2 0x3B8 JUMPI PUSH2 0x37C DUP8 DUP8 DUP8 PUSH1 0x20 PUSH1 0x40 MLOAD SWAP5 DUP6 SWAP5 PUSH1 0x40 DUP7 MSTORE PUSH1 0x40 DUP7 ADD SWAP1 PUSH2 0x6BC JUMP JUMPDEST SWAP2 DUP5 DUP4 SUB DUP3 DUP7 ADD MSTORE MLOAD SWAP2 DUP3 DUP2 MSTORE ADD SWAP2 SWAP1 PUSH0 JUMPDEST DUP2 DUP2 LT PUSH2 0x39C JUMPI POP POP POP SUB SWAP1 RETURN JUMPDEST DUP3 MLOAD PUSH1 0xFF AND DUP5 MSTORE DUP6 SWAP5 POP PUSH1 0x20 SWAP4 DUP5 ADD SWAP4 SWAP1 SWAP3 ADD SWAP2 PUSH1 0x1 ADD PUSH2 0x38E JUMP JUMPDEST DUP1 PUSH2 0x3D2 PUSH2 0x3CC PUSH2 0x1F5 PUSH1 0x1 SWAP5 DUP7 DUP10 PUSH2 0xA47 JUMP JUMPDEST DUP6 PUSH2 0xAA0 JUMP JUMPDEST PUSH1 0xFF PUSH2 0x3DE DUP5 DUP11 PUSH2 0xA7F JUMP JUMPDEST SWAP2 AND SWAP1 MSTORE PUSH2 0x3EC DUP3 DUP11 PUSH2 0xA7F JUMP JUMPDEST MSTORE ADD PUSH2 0x359 JUMP JUMPDEST CALLVALUE PUSH2 0xE9 JUMPI PUSH1 0x60 CALLDATASIZE PUSH1 0x3 NOT ADD SLT PUSH2 0xE9 JUMPI PUSH2 0x40C PUSH2 0x631 JUMP JUMPDEST PUSH1 0x24 CALLDATALOAD PUSH1 0x1 PUSH1 0x1 PUSH1 0xA0 SHL SUB DUP2 AND SWAP2 SWAP1 DUP3 SWAP1 SUB PUSH2 0xE9 JUMPI PUSH1 0x44 CALLDATALOAD PUSH6 0xFFFFFFFFFFFF DUP2 AND DUP1 SWAP2 SUB PUSH2 0xE9 JUMPI PUSH2 0x43D PUSH2 0xB89 JUMP JUMPDEST DUP3 ISZERO PUSH2 0x4CC JUMPI PUSH1 0x20 PUSH32 0xC3BDAA6ED090ED87C8E706CE5AA638BF3B37D80F743C5EBB168E3F86BE0B44D SWAP2 PUSH1 0x40 MLOAD PUSH2 0x473 DUP2 PUSH2 0x7AC JUMP JUMPDEST DUP6 DUP2 MSTORE DUP3 DUP2 ADD DUP3 DUP2 MSTORE PUSH1 0x1 PUSH1 0x1 PUSH1 0xA0 SHL SUB SWAP6 DUP7 AND PUSH0 DUP2 DUP2 MSTORE PUSH1 0x1 DUP7 MSTORE PUSH1 0x40 SWAP1 DUP2 SWAP1 KECCAK256 SWAP4 MLOAD DUP5 SLOAD SWAP4 MLOAD PUSH6 0xFFFFFFFFFFFF PUSH1 0xA0 SHL PUSH1 0xA0 SWAP2 SWAP1 SWAP2 SHL AND SWAP9 AND PUSH1 0x1 PUSH1 0x1 PUSH1 0xD0 SHL SUB NOT SWAP1 SWAP4 AND SWAP3 SWAP1 SWAP3 OR SWAP7 SWAP1 SWAP7 OR SWAP1 SWAP2 SSTORE MLOAD SWAP1 DUP2 MSTORE LOG3 STOP JUMPDEST PUSH1 0x40 MLOAD PUSH3 0x461BCD PUSH1 0xE5 SHL DUP2 MSTORE PUSH1 0x20 PUSH1 0x4 DUP3 ADD MSTORE PUSH1 0x6 PUSH1 0x24 DUP3 ADD MSTORE PUSH6 0x466565643D3 PUSH1 0xD4 SHL PUSH1 0x44 DUP3 ADD MSTORE PUSH1 0x64 SWAP1 REVERT JUMPDEST CALLVALUE PUSH2 0xE9 JUMPI PUSH0 CALLDATASIZE PUSH1 0x3 NOT ADD SLT PUSH2 0xE9 JUMPI PUSH1 0x20 PUSH1 0x40 MLOAD PUSH0 DUP2 MSTORE RETURN JUMPDEST CALLVALUE PUSH2 0xE9 JUMPI PUSH1 0x20 CALLDATASIZE PUSH1 0x3 NOT ADD SLT PUSH2 0xE9 JUMPI PUSH1 0x20 PUSH2 0x537 PUSH2 0x532 PUSH2 0x631 JUMP JUMPDEST PUSH2 0x82E JUMP JUMPDEST PUSH1 0x40 MLOAD SWAP1 DUP2 MSTORE RETURN JUMPDEST CALLVALUE PUSH2 0xE9 JUMPI PUSH0 CALLDATASIZE PUSH1 0x3 NOT ADD SLT PUSH2 0xE9 JUMPI PUSH0 SLOAD PUSH1 0x40 MLOAD PUSH1 0x1 PUSH1 0x1 PUSH1 0xA0 SHL SUB SWAP1 SWAP2 AND DUP2 MSTORE PUSH1 0x20 SWAP1 RETURN JUMPDEST CALLVALUE PUSH2 0xE9 JUMPI PUSH0 CALLDATASIZE PUSH1 0x3 NOT ADD SLT PUSH2 0xE9 JUMPI PUSH2 0x57E PUSH2 0xB89 JUMP JUMPDEST PUSH0 DUP1 SLOAD PUSH1 0x1 PUSH1 0x1 PUSH1 0xA0 SHL SUB NOT DUP2 AND DUP3 SSTORE PUSH1 0x1 PUSH1 0x1 PUSH1 0xA0 SHL SUB AND PUSH32 0x8BE0079C531659141344CD1FD0A4F28419497F9722A3DAAFE3B4186F6B6457E0 DUP3 DUP1 LOG3 STOP JUMPDEST CALLVALUE PUSH2 0xE9 JUMPI PUSH1 0x40 CALLDATASIZE PUSH1 0x3 NOT ADD SLT PUSH2 0xE9 JUMPI PUSH1 0x20 PUSH2 0x537 PUSH2 0x5DB PUSH2 0x631 JUMP JUMPDEST PUSH1 0x24 CALLDATALOAD SWAP1 PUSH2 0x745 JUMP JUMPDEST CALLVALUE PUSH2 0xE9 JUMPI PUSH1 0x20 CALLDATASIZE PUSH1 0x3 NOT ADD SLT PUSH2 0xE9 JUMPI PUSH1 0x40 SWAP1 PUSH1 0x1 PUSH1 0x1 PUSH1 0xA0 SHL SUB PUSH2 0x608 PUSH2 0x631 JUMP JUMPDEST AND PUSH0 MSTORE PUSH1 0x1 PUSH1 0x20 MSTORE PUSH6 0xFFFFFFFFFFFF DUP3 PUSH0 KECCAK256 SLOAD PUSH1 0x1 DUP1 PUSH1 0xA0 SHL SUB DUP2 AND DUP4 MSTORE PUSH1 0xA0 SHR AND PUSH1 0x20 DUP3 ADD MSTORE RETURN JUMPDEST PUSH1 0x4 CALLDATALOAD SWAP1 PUSH1 0x1 PUSH1 0x1 PUSH1 0xA0 SHL SUB DUP3 AND DUP3 SUB PUSH2 0xE9 JUMPI JUMP JUMPDEST SWAP2 DUP2 PUSH1 0x1F DUP5 ADD SLT ISZERO PUSH2 0xE9 JUMPI DUP3 CALLDATALOAD SWAP2 PUSH8 0xFFFFFFFFFFFFFFFF DUP4 GT PUSH2 0xE9 JUMPI PUSH1 0x20 DUP1 DUP6 ADD SWAP5 DUP5 PUSH1 0x5 SHL ADD ADD GT PUSH2 0xE9 JUMPI JUMP JUMPDEST SWAP1 PUSH1 0x40 PUSH1 0x3 NOT DUP4 ADD SLT PUSH2 0xE9 JUMPI PUSH1 0x4 CALLDATALOAD PUSH1 0x1 PUSH1 0x1 PUSH1 0xA0 SHL SUB DUP2 AND DUP2 SUB PUSH2 0xE9 JUMPI SWAP2 PUSH1 0x24 CALLDATALOAD SWAP1 PUSH8 0xFFFFFFFFFFFFFFFF DUP3 GT PUSH2 0xE9 JUMPI PUSH2 0x6B8 SWAP2 PUSH1 0x4 ADD PUSH2 0x647 JUMP JUMPDEST SWAP1 SWAP2 JUMP JUMPDEST SWAP1 PUSH1 0x20 DUP1 DUP4 MLOAD SWAP3 DUP4 DUP2 MSTORE ADD SWAP3 ADD SWAP1 PUSH0 JUMPDEST DUP2 DUP2 LT PUSH2 0x6D9 JUMPI POP POP POP SWAP1 JUMP JUMPDEST DUP3 MLOAD DUP5 MSTORE PUSH1 0x20 SWAP4 DUP5 ADD SWAP4 SWAP1 SWAP3 ADD SWAP2 PUSH1 0x1 ADD PUSH2 0x6CC JUMP JUMPDEST DUP2 DUP2 MUL SWAP3 SWAP2 DUP2 ISZERO SWAP2 DUP5 DIV EQ OR ISZERO PUSH2 0x702 JUMPI JUMP JUMPDEST PUSH4 0x4E487B71 PUSH1 0xE0 SHL PUSH0 MSTORE PUSH1 0x11 PUSH1 0x4 MSTORE PUSH1 0x24 PUSH0 REVERT JUMPDEST PUSH1 0xFF AND PUSH1 0x4D DUP2 GT PUSH2 0x702 JUMPI PUSH1 0xA EXP SWAP1 JUMP JUMPDEST DUP2 ISZERO PUSH2 0x731 JUMPI DIV SWAP1 JUMP JUMPDEST PUSH4 0x4E487B71 PUSH1 0xE0 SHL PUSH0 MSTORE PUSH1 0x12 PUSH1 0x4 MSTORE PUSH1 0x24 PUSH0 REVERT JUMPDEST SWAP1 PUSH2 0x74F DUP3 PUSH2 0x82E JUMP JUMPDEST DUP1 ISZERO DUP1 ISZERO PUSH2 0x7A4 JUMPI JUMPDEST PUSH2 0x79D JUMPI PUSH2 0x78B SWAP3 PUSH2 0x785 SWAP2 PUSH2 0x77F SWAP2 PUSH1 0x1 PUSH1 0x1 PUSH1 0xA0 SHL SUB DUP2 AND PUSH2 0x78E JUMPI POP PUSH1 0x12 SWAP4 PUSH2 0x6EF JUMP JUMPDEST SWAP2 PUSH2 0x716 JUMP JUMPDEST SWAP1 PUSH2 0x727 JUMP JUMPDEST SWAP1 JUMP JUMPDEST PUSH2 0x797 SWAP1 PUSH2 0xB32 JUMP JUMPDEST SWAP4 PUSH2 0x6EF JUMP JUMPDEST POP POP POP PUSH0 SWAP1 JUMP JUMPDEST POP DUP2 ISZERO PUSH2 0x758 JUMP JUMPDEST PUSH1 0x40 DUP2 ADD SWAP1 DUP2 LT PUSH8 0xFFFFFFFFFFFFFFFF DUP3 GT OR PUSH2 0x7C8 JUMPI PUSH1 0x40 MSTORE JUMP JUMPDEST PUSH4 0x4E487B71 PUSH1 0xE0 SHL PUSH0 MSTORE PUSH1 0x41 PUSH1 0x4 MSTORE PUSH1 0x24 PUSH0 REVERT JUMPDEST SWAP1 PUSH1 0x1F DUP1 NOT SWAP2 ADD AND DUP2 ADD SWAP1 DUP2 LT PUSH8 0xFFFFFFFFFFFFFFFF DUP3 GT OR PUSH2 0x7C8 JUMPI PUSH1 0x40 MSTORE JUMP JUMPDEST MLOAD SWAP1 PUSH10 0xFFFFFFFFFFFFFFFFFFFF DUP3 AND DUP3 SUB PUSH2 0xE9 JUMPI JUMP JUMPDEST SWAP1 DUP2 PUSH1 0x20 SWAP2 SUB SLT PUSH2 0xE9 JUMPI MLOAD PUSH1 0xFF DUP2 AND DUP2 SUB PUSH2 0xE9 JUMPI SWAP1 JUMP JUMPDEST PUSH1 0x1 DUP1 PUSH1 0xA0 SHL SUB AND PUSH0 MSTORE PUSH1 0x1 PUSH1 0x20 MSTORE PUSH1 0x40 PUSH0 KECCAK256 PUSH1 0x40 MLOAD SWAP1 PUSH2 0x84E DUP3 PUSH2 0x7AC JUMP JUMPDEST SLOAD SWAP1 PUSH1 0x1 DUP1 PUSH1 0xA0 SHL SUB DUP3 AND SWAP2 DUP3 DUP3 MSTORE PUSH6 0xFFFFFFFFFFFF PUSH1 0x20 DUP4 ADD SWAP2 PUSH1 0xA0 SHR AND DUP2 MSTORE DUP3 ISZERO PUSH2 0x79D JUMPI PUSH1 0xA0 PUSH1 0x4 SWAP4 PUSH1 0x40 MLOAD SWAP5 DUP6 DUP1 SWAP3 PUSH4 0x3FABE5A3 PUSH1 0xE2 SHL DUP3 MSTORE GAS STATICCALL SWAP1 DUP2 ISZERO PUSH2 0x971 JUMPI PUSH0 SWAP4 PUSH0 SWAP3 PUSH2 0x9A7 JUMPI JUMPDEST POP PUSH0 DUP5 SGT ISZERO PUSH2 0x99F JUMPI PUSH6 0xFFFFFFFFFFFF DUP2 MLOAD AND ISZERO ISZERO SWAP2 DUP3 PUSH2 0x982 JUMPI JUMPDEST POP POP PUSH2 0x97C JUMPI MLOAD PUSH1 0x40 MLOAD PUSH4 0x313CE567 PUSH1 0xE0 SHL DUP2 MSTORE SWAP1 PUSH1 0x20 SWAP1 DUP3 SWAP1 PUSH1 0x4 SWAP1 DUP3 SWAP1 PUSH1 0x1 PUSH1 0x1 PUSH1 0xA0 SHL SUB AND GAS STATICCALL DUP1 ISZERO PUSH2 0x971 JUMPI PUSH1 0xFF SWAP2 PUSH0 SWAP2 PUSH2 0x942 JUMPI JUMPDEST POP AND PUSH1 0x12 DUP2 LT ISZERO PUSH2 0x91C JUMPI PUSH1 0x12 SUB SWAP1 PUSH1 0xFF DUP3 GT PUSH2 0x702 JUMPI PUSH2 0x916 PUSH2 0x78B SWAP3 PUSH2 0x716 JUMP JUMPDEST SWAP1 PUSH2 0x6EF JUMP JUMPDEST PUSH1 0x12 DUP2 GT ISZERO PUSH2 0x93E JUMPI PUSH1 0x11 NOT ADD SWAP1 PUSH1 0xFF DUP3 GT PUSH2 0x702 JUMPI PUSH2 0x785 PUSH2 0x78B SWAP3 PUSH2 0x716 JUMP JUMPDEST POP SWAP1 JUMP JUMPDEST PUSH2 0x964 SWAP2 POP PUSH1 0x20 RETURNDATASIZE PUSH1 0x20 GT PUSH2 0x96A JUMPI JUMPDEST PUSH2 0x95C DUP2 DUP4 PUSH2 0x7DC JUMP JUMPDEST DUP2 ADD SWAP1 PUSH2 0x815 JUMP JUMPDEST PUSH0 PUSH2 0x8F3 JUMP JUMPDEST POP RETURNDATASIZE PUSH2 0x952 JUMP JUMPDEST PUSH1 0x40 MLOAD RETURNDATASIZE PUSH0 DUP3 RETURNDATACOPY RETURNDATASIZE SWAP1 REVERT JUMPDEST POP POP PUSH0 SWAP1 JUMP JUMPDEST TIMESTAMP SWAP1 DUP2 SUB SWAP3 POP DUP3 GT PUSH2 0x702 JUMPI MLOAD PUSH6 0xFFFFFFFFFFFF AND LT PUSH0 DUP1 PUSH2 0x8B9 JUMP JUMPDEST POP POP POP POP PUSH0 SWAP1 JUMP JUMPDEST SWAP4 POP SWAP1 POP PUSH1 0xA0 DUP4 RETURNDATASIZE PUSH1 0xA0 GT PUSH2 0x9F5 JUMPI JUMPDEST DUP2 PUSH2 0x9C4 PUSH1 0xA0 SWAP4 DUP4 PUSH2 0x7DC JUMP JUMPDEST DUP2 ADD SUB SLT PUSH2 0xE9 JUMPI PUSH2 0x9D5 DUP4 PUSH2 0x7FE JUMP JUMPDEST POP PUSH1 0x20 DUP4 ADD MLOAD PUSH2 0x9EC PUSH1 0x80 PUSH1 0x60 DUP7 ADD MLOAD SWAP6 ADD PUSH2 0x7FE JUMP JUMPDEST POP SWAP3 SWAP1 PUSH0 PUSH2 0x89D JUMP JUMPDEST RETURNDATASIZE SWAP2 POP PUSH2 0x9B7 JUMP JUMPDEST PUSH8 0xFFFFFFFFFFFFFFFF DUP2 GT PUSH2 0x7C8 JUMPI PUSH1 0x5 SHL PUSH1 0x20 ADD SWAP1 JUMP JUMPDEST SWAP1 PUSH2 0xA1F DUP3 PUSH2 0x9FD JUMP JUMPDEST PUSH2 0xA2C PUSH1 0x40 MLOAD SWAP2 DUP3 PUSH2 0x7DC JUMP JUMPDEST DUP3 DUP2 MSTORE DUP1 SWAP3 PUSH2 0xA3D PUSH1 0x1F NOT SWAP2 PUSH2 0x9FD JUMP JUMPDEST ADD SWAP1 PUSH1 0x20 CALLDATASIZE SWAP2 ADD CALLDATACOPY JUMP JUMPDEST SWAP2 SWAP1 DUP2 LT ISZERO PUSH2 0xA57 JUMPI PUSH1 0x5 SHL ADD SWAP1 JUMP JUMPDEST PUSH4 0x4E487B71 PUSH1 0xE0 SHL PUSH0 MSTORE PUSH1 0x32 PUSH1 0x4 MSTORE PUSH1 0x24 PUSH0 REVERT JUMPDEST CALLDATALOAD PUSH1 0x1 PUSH1 0x1 PUSH1 0xA0 SHL SUB DUP2 AND DUP2 SUB PUSH2 0xE9 JUMPI SWAP1 JUMP JUMPDEST DUP1 MLOAD DUP3 LT ISZERO PUSH2 0xA57 JUMPI PUSH1 0x20 SWAP2 PUSH1 0x5 SHL ADD ADD SWAP1 JUMP JUMPDEST SWAP2 SWAP1 DUP3 ADD DUP1 SWAP3 GT PUSH2 0x702 JUMPI JUMP JUMPDEST SWAP1 PUSH1 0x1 PUSH1 0x1 PUSH1 0xA0 SHL SUB DUP2 AND DUP1 PUSH2 0xAB9 JUMPI POP POP BALANCE SWAP1 PUSH1 0x12 SWAP1 JUMP JUMPDEST PUSH1 0x40 MLOAD PUSH4 0x70A08231 PUSH1 0xE0 SHL DUP2 MSTORE PUSH1 0x1 PUSH1 0x1 PUSH1 0xA0 SHL SUB SWAP1 SWAP4 AND PUSH1 0x4 DUP5 ADD MSTORE SWAP1 SWAP3 SWAP2 SWAP1 PUSH1 0x20 SWAP1 DUP3 SWAP1 PUSH1 0x24 SWAP1 DUP3 SWAP1 GAS STATICCALL DUP1 ISZERO PUSH2 0x971 JUMPI PUSH0 SWAP1 PUSH2 0xAFE JUMPI JUMPDEST PUSH2 0x78B SWAP2 POP SWAP3 PUSH2 0xB32 JUMP JUMPDEST POP PUSH1 0x20 DUP2 RETURNDATASIZE PUSH1 0x20 GT PUSH2 0xB2A JUMPI JUMPDEST DUP2 PUSH2 0xB18 PUSH1 0x20 SWAP4 DUP4 PUSH2 0x7DC JUMP JUMPDEST DUP2 ADD SUB SLT PUSH2 0xE9 JUMPI PUSH2 0x78B SWAP1 MLOAD PUSH2 0xAF3 JUMP JUMPDEST RETURNDATASIZE SWAP2 POP PUSH2 0xB0B JUMP JUMPDEST PUSH1 0x40 MLOAD PUSH4 0x313CE567 PUSH1 0xE0 SHL DUP2 MSTORE SWAP1 PUSH1 0x20 SWAP1 DUP3 SWAP1 PUSH1 0x4 SWAP1 DUP3 SWAP1 PUSH1 0x1 PUSH1 0x1 PUSH1 0xA0 SHL SUB AND GAS STATICCALL PUSH0 SWAP2 DUP2 PUSH2 0xB68 JUMPI JUMPDEST POP PUSH2 0x78B JUMPI POP PUSH1 0x12 SWAP1 JUMP JUMPDEST PUSH2 0xB82 SWAP2 SWAP3 POP PUSH1 0x20 RETURNDATASIZE PUSH1 0x20 GT PUSH2 0x96A JUMPI PUSH2 0x95C DUP2 DUP4 PUSH2 0x7DC JUMP JUMPDEST SWAP1 PUSH0 PUSH2 0xB5D JUMP JUMPDEST PUSH0 SLOAD PUSH1 0x1 PUSH1 0x1 PUSH1 0xA0 SHL SUB AND CALLER SUB PUSH2 0xB9C JUMPI JUMP JUMPDEST PUSH4 0x118CDAA7 PUSH1 0xE0 SHL PUSH0 MSTORE CALLER PUSH1 0x4 MSTORE PUSH1 0x24 PUSH0 REVERT INVALID LOG2 PUSH5 0x6970667358 0x22 SLT KECCAK256 0xBB 0xB6 SMOD PUSH24 0x37CE5A1C13AEDCA41BB52122ED0F6D44E6658CB842FBC377 0xE6 0xBE SWAP8 0xB3 PUSH5 0x736F6C6343 STOP ADDMOD BYTE STOP CALLER "
		},
		"gasEstimates": {
			"creation": {
				"codeDepositCost": "609000",
				"executionCost": "26449",
				"totalCost": "635449"
			},
			"external": {
				"NATIVE()": "262",
				"balanceOf(address,address)": "infinite",
				"balancesOf(address,address[])": "infinite",
				"feeds(address)": "2446",
				"owner()": "2345",
				"portfolioOf(address,address[])": "infinite",
				"priceUsd1e18(address)": "infinite",
				"renounceOwnership()": "28094",
				"setFeed(address,address,uint48)": "28909",
				"totalValueUsd(address[],address[])": "infinite",
				"transferOwnership(address)": "28390",
				"valueUsd1e18(address,uint256)": "infinite"
			},
			"internal": {
				"_decimals(address)": "infinite"
			}
		},
		"methodIdentifiers": {
			"NATIVE()": "a0cf0aea",
			"balanceOf(address,address)": "f7888aec",
			"balancesOf(address,address[])": "e098e844",
			"feeds(address)": "2fba4aa9",
			"owner()": "8da5cb5b",
			"portfolioOf(address,address[])": "f0854de8",
			"priceUsd1e18(address)": "9c03ef5d",
			"renounceOwnership()": "715018a6",
			"setFeed(address,address,uint48)": "c740e8f9",
			"totalValueUsd(address[],address[])": "efcab8ae",
			"transferOwnership(address)": "f2fde38b",
			"valueUsd1e18(address,uint256)": "6815d0df"
		}
	},
	"abi": [
		{
			"inputs": [],
			"stateMutability": "nonpayable",
			"type": "constructor"
		},
		{
			"inputs": [
				{
					"internalType": "address",
					"name": "owner",
					"type": "address"
				}
			],
			"name": "OwnableInvalidOwner",
			"type": "error"
		},
		{
			"inputs": [
				{
					"internalType": "address",
					"name": "account",
					"type": "address"
				}
			],
			"name": "OwnableUnauthorizedAccount",
			"type": "error"
		},
		{
			"anonymous": false,
			"inputs": [
				{
					"indexed": true,
					"internalType": "address",
					"name": "token",
					"type": "address"
				},
				{
					"indexed": true,
					"internalType": "address",
					"name": "feed",
					"type": "address"
				},
				{
					"indexed": false,
					"internalType": "uint48",
					"name": "heartbeat",
					"type": "uint48"
				}
			],
			"name": "FeedSet",
			"type": "event"
		},
		{
			"anonymous": false,
			"inputs": [
				{
					"indexed": true,
					"internalType": "address",
					"name": "previousOwner",
					"type": "address"
				},
				{
					"indexed": true,
					"internalType": "address",
					"name": "newOwner",
					"type": "address"
				}
			],
			"name": "OwnershipTransferred",
			"type": "event"
		},
		{
			"inputs": [],
			"name": "NATIVE",
			"outputs": [
				{
					"internalType": "address",
					"name": "",
					"type": "address"
				}
			],
			"stateMutability": "view",
			"type": "function"
		},
		{
			"inputs": [
				{
					"internalType": "address",
					"name": "vault",
					"type": "address"
				},
				{
					"internalType": "address",
					"name": "token",
					"type": "address"
				}
			],
			"name": "balanceOf",
			"outputs": [
				{
					"internalType": "uint256",
					"name": "bal",
					"type": "uint256"
				},
				{
					"internalType": "uint8",
					"name": "dec",
					"type": "uint8"
				}
			],
			"stateMutability": "view",
			"type": "function"
		},
		{
			"inputs": [
				{
					"internalType": "address",
					"name": "vault",
					"type": "address"
				},
				{
					"internalType": "address[]",
					"name": "tokens",
					"type": "address[]"
				}
			],
			"name": "balancesOf",
			"outputs": [
				{
					"internalType": "uint256[]",
					"name": "bals",
					"type": "uint256[]"
				},
				{
					"internalType": "uint8[]",
					"name": "decs",
					"type": "uint8[]"
				}
			],
			"stateMutability": "view",
			"type": "function"
		},
		{
			"inputs": [
				{
					"internalType": "address",
					"name": "",
					"type": "address"
				}
			],
			"name": "feeds",
			"outputs": [
				{
					"internalType": "contract AggregatorV3Interface",
					"name": "feed",
					"type": "address"
				},
				{
					"internalType": "uint48",
					"name": "heartbeat",
					"type": "uint48"
				}
			],
			"stateMutability": "view",
			"type": "function"
		},
		{
			"inputs": [],
			"name": "owner",
			"outputs": [
				{
					"internalType": "address",
					"name": "",
					"type": "address"
				}
			],
			"stateMutability": "view",
			"type": "function"
		},
		{
			"inputs": [
				{
					"internalType": "address",
					"name": "vault",
					"type": "address"
				},
				{
					"internalType": "address[]",
					"name": "tokens",
					"type": "address[]"
				}
			],
			"name": "portfolioOf",
			"outputs": [
				{
					"internalType": "uint256[]",
					"name": "bals",
					"type": "uint256[]"
				},
				{
					"internalType": "uint256[]",
					"name": "usdValues",
					"type": "uint256[]"
				},
				{
					"internalType": "uint256",
					"name": "totalUsd1e18",
					"type": "uint256"
				}
			],
			"stateMutability": "view",
			"type": "function"
		},
		{
			"inputs": [
				{
					"internalType": "address",
					"name": "token",
					"type": "address"
				}
			],
			"name": "priceUsd1e18",
			"outputs": [
				{
					"internalType": "uint256",
					"name": "p",
					"type": "uint256"
				}
			],
			"stateMutability": "view",
			"type": "function"
		},
		{
			"inputs": [],
			"name": "renounceOwnership",
			"outputs": [],
			"stateMutability": "nonpayable",
			"type": "function"
		},
		{
			"inputs": [
				{
					"internalType": "address",
					"name": "token",
					"type": "address"
				},
				{
					"internalType": "contract AggregatorV3Interface",
					"name": "feed",
					"type": "address"
				},
				{
					"internalType": "uint48",
					"name": "heartbeat",
					"type": "uint48"
				}
			],
			"name": "setFeed",
			"outputs": [],
			"stateMutability": "nonpayable",
			"type": "function"
		},
		{
			"inputs": [
				{
					"internalType": "address[]",
					"name": "vaults",
					"type": "address[]"
				},
				{
					"internalType": "address[]",
					"name": "tokens",
					"type": "address[]"
				}
			],
			"name": "totalValueUsd",
			"outputs": [
				{
					"internalType": "uint256",
					"name": "totalUsd1e18",
					"type": "uint256"
				}
			],
			"stateMutability": "view",
			"type": "function"
		},
		{
			"inputs": [
				{
					"internalType": "address",
					"name": "newOwner",
					"type": "address"
				}
			],
			"name": "transferOwnership",
			"outputs": [],
			"stateMutability": "nonpayable",
			"type": "function"
		},
		{
			"inputs": [
				{
					"internalType": "address",
					"name": "token",
					"type": "address"
				},
				{
					"internalType": "uint256",
					"name": "balance",
					"type": "uint256"
				}
			],
			"name": "valueUsd1e18",
			"outputs": [
				{
					"internalType": "uint256",
					"name": "",
					"type": "uint256"
				}
			],
			"stateMutability": "view",
			"type": "function"
		}
	]
}