{
	"data": {
		"bytecode": {
			"linkReferences": {},
			"object": "6080346100db57601f61186d38819003918201601f19168301916001600160401b038311848410176100df578084926020946040528339810103126100db57516001600160a01b038116908190036100db5760015f5533156100c85760018054336001600160a01b0319821681179092556040519291906001600160a01b03167f8be0079c531659141344cd1fd0a4f28419497f9722a3daafe3b4186f6b6457e05f80a3600a600255600380546001600160a01b03191691909117905561177990816100f48239f35b631e4fbdf760e01b5f525f60045260245ffd5b5f80fd5b634e487b7160e01b5f52604160045260245ffdfe60806040526004361015610011575f80fd5b5f3560e01c806302749be714610ecf5780630d12cba214610e9757806322dcd13e14610e7a5780634690484014610e525780634898ba6314610e375780636b0db1fa14610a56578063715018a6146109fb57806372521d471461092d57806379020194146108ee5780637e90def7146107eb5780638da5cb5b146107c35780639a43dc0c146105375780639b0f14b5146103b1578063aa0b598814610354578063b28a9d6f14610209578063f160d36914610186578063f2fde38b146101005763f3baf070146100df575f80fd5b346100fc575f3660031901126100fc576020604051620f42408152f35b5f80fd5b346100fc5760203660031901126100fc576101196113a2565b610121611682565b6001600160a01b0316801561017357600180546001600160a01b0319811683179091556001600160a01b03167f8be0079c531659141344cd1fd0a4f28419497f9722a3daafe3b4186f6b6457e05f80a3005b631e4fbdf760e01b5f525f60045260245ffd5b346100fc5760203660031901126100fc5761019f6113a2565b6101a7611682565b6001600160a01b031680156101d2576bffffffffffffffffffffffff60a01b60035416176003555f80f35b60405162461bcd60e51b815260206004820152600f60248201526e496e76616c6964206164647265737360881b6044820152606490fd5b346100fc5760208061021a366113d9565b604051928184925191829101835e81016004815203019020604051905f9181546102438161144f565b8083526020830191600181169081156103395750600114610300575b5061027082610120949503836113b8565b60018060a01b036001850154169360ff60018060a01b036002830154169160038101546004820154906006600584015493015494604051998a986101008a52518098816101008c01528b8b015e5f8989018b01526020890152604088015260608701526080860152808216151560a086015260081c16151560c084015260e0830152601f01601f19168101030190f35b9350825f5260205f205f905b85821061032357508201602001935061027061025f565b600181602092548385880101520191019061030c565b60ff1916835250151560051b8201602001935061027061025f565b346100fc5760203660031901126100fc57600435610370611682565b6064811161037d57600255005b60405162461bcd60e51b815260206004820152600c60248201526b08ccaca40e8dede40d0d2ced60a31b6044820152606490fd5b346100fc5760203660031901126100fc576004356001600160401b0381116100fc576103e1903690600401611375565b906103ea61162e565b61040b60ff60405184848237602081868101600581520301902054166114be565b60405182828237600483820190815281900360200190206001810180546001600160a01b0316933385148015610523575b6104459061150a565b6005830191825461045960ff821615611547565b60ff8160081c166104de577f16b1484adf14ddc11ad828089c5f7ac1932ae15cac0fd6100804b92746616b04946020946101006104b29361ff001916179055600360018060a01b036002830154169101978854916116a9565b60018060a01b0390541694549381604051928392833781015f815203902092604051908152a360015f55005b60405162461bcd60e51b815260206004820152601a60248201527f5261696e64726f7020616c72656164792063616e63656c6c65640000000000006044820152606490fd5b506001546001600160a01b0316331461043c565b346100fc5760203660031901126100fc576004356001600160401b0381116100fc57610567903690600401611375565b61056f61162e565b61059060ff60405183858237602081858101600581520301902054166114be565b60405181838237602081838101600481520301902090600182019060018060a01b03825416331480156107af575b6105c79061150a565b60058301938454946105dc60ff871615611547565b6105ec60ff8760081c1615611593565b60048501544210610773576006850190815496871561073c5760019060ff979597191617905560038301549461063261271061062a600254896115fd565b048097611487565b9161065061064a6106438a86611610565b998a6115fd565b84611487565b60028601546001600160a01b031696600890960195905f5b835481101561069c57806106968c6106826001948c6115d4565b858060a01b0391549060031b1c168c6116a9565b01610668565b50606096507fe56eba28928c6808ff8d65117cc1d7ba272e42f06114b621406245fe7e42fff2978a998061071f575b5081610700575b505050549281604051928392833781015f81520390209460405192835260208301526040820152a260015f55005b9154610717926001600160a01b03909116906116a9565b8780806106d2565b60035461073691906001600160a01b0316836116a9565b8a6106cb565b60405162461bcd60e51b815260206004820152600f60248201526e4e6f207061727469636970616e747360881b6044820152606490fd5b60405162461bcd60e51b8152602060048201526014602482015273546f6f206561726c7920746f206578656375746560601b6044820152606490fd5b506001546001600160a01b031633146105be565b346100fc575f3660031901126100fc576001546040516001600160a01b039091168152602090f35b346100fc5760203660031901126100fc576004356001600160401b0381116100fc57602061081f6008923690600401611375565b919061084160ff604051858482378481878101600581520301902054166114be565b8260405193849283378101600481520301902001604051806020835491828152019081935f5260205f20905f5b8181106108cf57505050816108849103826113b8565b604051918291602083019060208452518091526040830191905f5b8181106108ad575050500390f35b82516001600160a01b031684528594506020938401939092019160010161089f565b82546001600160a01b031684526020909301926001928301920161086e565b346100fc5760403660031901126100fc5761092b61090a6113a2565b610912611682565b600154602435916001600160a01b0391821691166116a9565b005b346100fc5760203660031901126100fc576004356001600160401b0381116100fc57602061096160e0923690600401611375565b919061098360ff604051858482378481878101600581520301902054166114be565b8260405193849283378101600481520301902060018060a01b036001820154169060ff60018060a01b0360028301541691600381015460048201549060066005840154930154946040519687526020870152604086015260608501528181161515608085015260081c16151560a083015260c0820152f35b346100fc575f3660031901126100fc57610a13611682565b600180546001600160a01b031981169091555f906001600160a01b03167f8be0079c531659141344cd1fd0a4f28419497f9722a3daafe3b4186f6b6457e08280a3005b346100fc5760403660031901126100fc576004356001600160401b0381116100fc57610a86903690600401611375565b90602435906001600160401b0382116100fc57366023830112156100fc5781600401356001600160401b0381116100fc573660248260051b850101116100fc57610ae760ff60405186858237602081888101600581520301902054166114be565b60405184838237602081868101600481520301902092600184019060018060a01b0382541633148015610e23575b610b1e9061150a565b610b3e60ff6005870154610b3482821615611547565b60081c1615611593565b620f42408311610de6576008850195939460078101945f5b8854811015610b995780610b6c6001928b6115d4565b838060a01b0391549060031b1c16828060a01b03165f528760205260405f2060ff19815416905501610b56565b5090919294939587545f895580610dcc575b505f5b87811015610d01576024600582901b860101356001600160a01b03811691908290036100fc578115610cbc5787546001600160a01b03168214610c7757815f528660205260ff60405f20541615610c0a575b6001915001610bae565b815f528660205260405f20600160ff1982541617905589549168010000000000000000831015610c6357610c458360018095018d558c6115d4565b819291549060031b91821b91858060a01b03901b1916179055610c00565b634e487b7160e01b5f52604160045260245ffd5b60405162461bcd60e51b815260206004820152601a60248201527f486f73742063616e6e6f74206265207061727469636970616e740000000000006044820152606490fd5b60405162461bcd60e51b815260206004820152601b60248201527f496e76616c6964207061727469636970616e74206164647265737300000000006044820152606490fd5b508754838160068196015581610d53575b507f33413169b586f09864fc3649ce426faf08ff20ff0580328a11860e98ab66a0146020848481604051928392833781015f815203902092604051908152a2005b606491610d776003610d7c930154612710610d70600254836115fd565b0490611487565b611610565b10610d88578284610d12565b606460405162461bcd60e51b815260206004820152602060248201527f416d6f756e7420706572207061727469636970616e7420746f6f20736d616c6c6044820152fd5b610de090895f5260205f20908101906114a8565b88610bab565b60405162461bcd60e51b8152602060048201526015602482015274546f6f206d616e79207061727469636970616e747360581b6044820152606490fd5b506001546001600160a01b03163314610b15565b346100fc575f3660031901126100fc57602060405160648152f35b346100fc575f3660031901126100fc576003546040516001600160a01b039091168152602090f35b346100fc575f3660031901126100fc576020600254604051908152f35b346100fc57602060ff8180610eab366113d9565b604051928184925191829101835e8101600581520301902054166040519015158152f35b346100fc5760803660031901126100fc576004356001600160401b0381116100fc57610eff903690600401611375565b6024356001600160a01b0381169291908390036100fc5760643590604435610f2561162e565b60ff60405183868237602081858101600581520301902054166113305784156112f35780156112ae574283111561126a576040516370a0823160e01b815230600482015290602082602481895afa918215611229575f92611234575b50610fbd90604051906323b872dd60e01b6020830152336024830152306044830152606482015260648152610fb76084826113b8565b866116eb565b6040516370a0823160e01b815230600482015290602082602481895afa8015611229575f906111f5575b610ff19250611487565b9283156111b8576040518282823760208184810160048152030190206001600160401b038311610c6357611025815461144f565b601f811161117d575b50825f601f821160011461111157916006915f938491611106575b508560011b9084198760031b1c19161781555b6001810180546001600160a01b0319908116331790915560028201805490911689179055600381018790556004810186905560058101805461ffff191690550155604051828282376020818481016005815203019020600160ff1982541617905581604051928392833781015f81520390209060405192835260208301527f04c9d53d935621250c2a973ca08a8ba1828a8ae00d5e5a57c23344069a08f35f60403393a460015f55005b905084013589611049565b5f8381526020812092508590601f198216905b818110611162575091600693915f959310611149575b5050600185811b01815561105c565b841960f88860031b161c1990860135169055888061113a565b86840135855560019094019360209384019388935001611124565b6111a890825f5260205f20601f860160051c810191602087106111ae575b601f0160051c01906114a8565b8661102e565b909150819061119b565b60405162461bcd60e51b8152602060048201526015602482015274151bdad95b881d1c985b9cd9995c8819985a5b1959605a1b6044820152606490fd5b506020823d602011611221575b8161120f602093836113b8565b810103126100fc57610ff19151610fe7565b3d9150611202565b6040513d5f823e3d90fd5b9091506020813d602011611262575b81611250602093836113b8565b810103126100fc575190610fbd610f81565b3d9150611243565b606460405162461bcd60e51b815260206004820152602060248201527f5363686564756c65642074696d65206d75737420626520696e206675747572656044820152fd5b60405162461bcd60e51b815260206004820152601d60248201527f416d6f756e74206d7573742062652067726561746572207468616e20300000006044820152606490fd5b60405162461bcd60e51b8152602060048201526015602482015274496e76616c696420746f6b656e206164647265737360581b6044820152606490fd5b60405162461bcd60e51b815260206004820152601760248201527f5261696e64726f7020616c7265616479206578697374730000000000000000006044820152606490fd5b9181601f840112156100fc578235916001600160401b0383116100fc57602083818601950101116100fc57565b600435906001600160a01b03821682036100fc57565b90601f801991011681019081106001600160401b03821117610c6357604052565b60206003198201126100fc576004356001600160401b0381116100fc57816023820112156100fc578060040135906001600160401b038211610c63576040519261142d601f8401601f1916602001856113b8565b828452602483830101116100fc57815f92602460209301838601378301015290565b90600182811c9216801561147d575b602083101461146957565b634e487b7160e01b5f52602260045260245ffd5b91607f169161145e565b9190820391821161149457565b634e487b7160e01b5f52601160045260245ffd5b8181106114b3575050565b5f81556001016114a8565b156114c557565b60405162461bcd60e51b815260206004820152601760248201527f5261696e64726f7020646f6573206e6f742065786973740000000000000000006044820152606490fd5b1561151157565b60405162461bcd60e51b815260206004820152600e60248201526d139bdd08185d5d1a1bdc9a5e995960921b6044820152606490fd5b1561154e57565b60405162461bcd60e51b815260206004820152601960248201527f5261696e64726f7020616c7265616479206578656375746564000000000000006044820152606490fd5b1561159a57565b60405162461bcd60e51b815260206004820152601260248201527114985a5b991c9bdc0818d85b98d95b1b195960721b6044820152606490fd5b80548210156115e9575f5260205f2001905f90565b634e487b7160e01b5f52603260045260245ffd5b8181029291811591840414171561149457565b811561161a570490565b634e487b7160e01b5f52601260045260245ffd5b60025f541461163d5760025f55565b60405162461bcd60e51b815260206004820152601f60248201527f5265656e7472616e637947756172643a207265656e7472616e742063616c6c006044820152606490fd5b6001546001600160a01b0316330361169657565b63118cdaa760e01b5f523360045260245ffd5b60405163a9059cbb60e01b60208201526001600160a01b0390921660248301526044808301939093529181526116e9916116e46064836113b8565b6116eb565b565b905f602091828151910182855af115611229575f513d61173a57506001600160a01b0381163b155b61171a5750565b635274afe760e01b5f9081526001600160a01b0391909116600452602490fd5b6001141561171356fea264697066735822122000402e6136225154cfca43b207878e98124ed002116838944cbd6fe72339ad0c64736f6c634300081a0033",
			"opcodes": "PUSH1 0x80 CALLVALUE PUSH2 0xDB JUMPI PUSH1 0x1F PUSH2 0x186D CODESIZE DUP2 SWAP1 SUB SWAP2 DUP3 ADD PUSH1 0x1F NOT AND DUP4 ADD SWAP2 PUSH1 0x1 PUSH1 0x1 PUSH1 0x40 SHL SUB DUP4 GT DUP5 DUP5 LT OR PUSH2 0xDF JUMPI DUP1 DUP5 SWAP3 PUSH1 0x20 SWAP5 PUSH1 0x40 MSTORE DUP4 CODECOPY DUP2 ADD SUB SLT PUSH2 0xDB JUMPI MLOAD PUSH1 0x1 PUSH1 0x1 PUSH1 0xA0 SHL SUB DUP2 AND SWAP1 DUP2 SWAP1 SUB PUSH2 0xDB JUMPI PUSH1 0x1 PUSH0 SSTORE CALLER ISZERO PUSH2 0xC8 JUMPI PUSH1 0x1 DUP1 SLOAD CALLER PUSH1 0x1 PUSH1 0x1 PUSH1 0xA0 SHL SUB NOT DUP3 AND DUP2 OR SWAP1 SWAP3 SSTORE PUSH1 0x40 MLOAD SWAP3 SWAP2 SWAP1 PUSH1 0x1 PUSH1 0x1 PUSH1 0xA0 SHL SUB AND PUSH32 0x8BE0079C531659141344CD1FD0A4F28419497F9722A3DAAFE3B4186F6B6457E0 PUSH0 DUP1 LOG3 PUSH1 0xA PUSH1 0x2 SSTORE PUSH1 0x3 DUP1 SLOAD PUSH1 0x1 PUSH1 0x1 PUSH1 0xA0 SHL SUB NOT AND SWAP2 SWAP1 SWAP2 OR SWAP1 SSTORE PUSH2 0x1779 SWAP1 DUP2 PUSH2 0xF4 DUP3 CODECOPY RETURN JUMPDEST PUSH4 0x1E4FBDF7 PUSH1 0xE0 SHL PUSH0 MSTORE PUSH0 PUSH1 0x4 MSTORE PUSH1 0x24 PUSH0 REVERT JUMPDEST PUSH0 DUP1 REVERT JUMPDEST PUSH4 0x4E487B71 PUSH1 0xE0 SHL PUSH0 MSTORE PUSH1 0x41 PUSH1 0x4 MSTORE PUSH1 0x24 PUSH0 REVERT INVALID PUSH1 0x80 PUSH1 0x40 MSTORE PUSH1 0x4 CALLDATASIZE LT ISZERO PUSH2 0x11 JUMPI PUSH0 DUP1 REVERT JUMPDEST PUSH0 CALLDATALOAD PUSH1 0xE0 SHR DUP1 PUSH4 0x2749BE7 EQ PUSH2 0xECF JUMPI DUP1 PUSH4 0xD12CBA2 EQ PUSH2 0xE97 JUMPI DUP1 PUSH4 0x22DCD13E EQ PUSH2 0xE7A JUMPI DUP1 PUSH4 0x46904840 EQ PUSH2 0xE52 JUMPI DUP1 PUSH4 0x4898BA63 EQ PUSH2 0xE37 JUMPI DUP1 PUSH4 0x6B0DB1FA EQ PUSH2 0xA56 JUMPI DUP1 PUSH4 0x715018A6 EQ PUSH2 0x9FB JUMPI DUP1 PUSH4 0x72521D47 EQ PUSH2 0x92D JUMPI DUP1 PUSH4 0x79020194 EQ PUSH2 0x8EE JUMPI DUP1 PUSH4 0x7E90DEF7 EQ PUSH2 0x7EB JUMPI DUP1 PUSH4 0x8DA5CB5B EQ PUSH2 0x7C3 JUMPI DUP1 PUSH4 0x9A43DC0C EQ PUSH2 0x537 JUMPI DUP1 PUSH4 0x9B0F14B5 EQ PUSH2 0x3B1 JUMPI DUP1 PUSH4 0xAA0B5988 EQ PUSH2 0x354 JUMPI DUP1 PUSH4 0xB28A9D6F EQ PUSH2 0x209 JUMPI DUP1 PUSH4 0xF160D369 EQ PUSH2 0x186 JUMPI DUP1 PUSH4 0xF2FDE38B EQ PUSH2 0x100 JUMPI PUSH4 0xF3BAF070 EQ PUSH2 0xDF JUMPI PUSH0 DUP1 REVERT JUMPDEST CALLVALUE PUSH2 0xFC JUMPI PUSH0 CALLDATASIZE PUSH1 0x3 NOT ADD SLT PUSH2 0xFC JUMPI PUSH1 0x20 PUSH1 0x40 MLOAD PUSH3 0xF4240 DUP2 MSTORE RETURN JUMPDEST PUSH0 DUP1 REVERT JUMPDEST CALLVALUE PUSH2 0xFC JUMPI PUSH1 0x20 CALLDATASIZE PUSH1 0x3 NOT ADD SLT PUSH2 0xFC JUMPI PUSH2 0x119 PUSH2 0x13A2 JUMP JUMPDEST PUSH2 0x121 PUSH2 0x1682 JUMP JUMPDEST PUSH1 0x1 PUSH1 0x1 PUSH1 0xA0 SHL SUB AND DUP1 ISZERO PUSH2 0x173 JUMPI PUSH1 0x1 DUP1 SLOAD PUSH1 0x1 PUSH1 0x1 PUSH1 0xA0 SHL SUB NOT DUP2 AND DUP4 OR SWAP1 SWAP2 SSTORE PUSH1 0x1 PUSH1 0x1 PUSH1 0xA0 SHL SUB AND PUSH32 0x8BE0079C531659141344CD1FD0A4F28419497F9722A3DAAFE3B4186F6B6457E0 PUSH0 DUP1 LOG3 STOP JUMPDEST PUSH4 0x1E4FBDF7 PUSH1 0xE0 SHL PUSH0 MSTORE PUSH0 PUSH1 0x4 MSTORE PUSH1 0x24 PUSH0 REVERT JUMPDEST CALLVALUE PUSH2 0xFC JUMPI PUSH1 0x20 CALLDATASIZE PUSH1 0x3 NOT ADD SLT PUSH2 0xFC JUMPI PUSH2 0x19F PUSH2 0x13A2 JUMP JUMPDEST PUSH2 0x1A7 PUSH2 0x1682 JUMP JUMPDEST PUSH1 0x1 PUSH1 0x1 PUSH1 0xA0 SHL SUB AND DUP1 ISZERO PUSH2 0x1D2 JUMPI PUSH12 0xFFFFFFFFFFFFFFFFFFFFFFFF PUSH1 0xA0 SHL PUSH1 0x3 SLOAD AND OR PUSH1 0x3 SSTORE PUSH0 DUP1 RETURN JUMPDEST PUSH1 0x40 MLOAD PUSH3 0x461BCD PUSH1 0xE5 SHL DUP2 MSTORE PUSH1 0x20 PUSH1 0x4 DUP3 ADD MSTORE PUSH1 0xF PUSH1 0x24 DUP3 ADD MSTORE PUSH15 0x496E76616C69642061646472657373 PUSH1 0x88 SHL PUSH1 0x44 DUP3 ADD MSTORE PUSH1 0x64 SWAP1 REVERT JUMPDEST CALLVALUE PUSH2 0xFC JUMPI PUSH1 0x20 DUP1 PUSH2 0x21A CALLDATASIZE PUSH2 0x13D9 JUMP JUMPDEST PUSH1 0x40 MLOAD SWAP3 DUP2 DUP5 SWAP3 MLOAD SWAP2 DUP3 SWAP2 ADD DUP4 MCOPY DUP2 ADD PUSH1 0x4 DUP2 MSTORE SUB ADD SWAP1 KECCAK256 PUSH1 0x40 MLOAD SWAP1 PUSH0 SWAP2 DUP2 SLOAD PUSH2 0x243 DUP2 PUSH2 0x144F JUMP JUMPDEST DUP1 DUP4 MSTORE PUSH1 0x20 DUP4 ADD SWAP2 PUSH1 0x1 DUP2 AND SWAP1 DUP2 ISZERO PUSH2 0x339 JUMPI POP PUSH1 0x1 EQ PUSH2 0x300 JUMPI JUMPDEST POP PUSH2 0x270 DUP3 PUSH2 0x120 SWAP5 SWAP6 SUB DUP4 PUSH2 0x13B8 JUMP JUMPDEST PUSH1 0x1 DUP1 PUSH1 0xA0 SHL SUB PUSH1 0x1 DUP6 ADD SLOAD AND SWAP4 PUSH1 0xFF PUSH1 0x1 DUP1 PUSH1 0xA0 SHL SUB PUSH1 0x2 DUP4 ADD SLOAD AND SWAP2 PUSH1 0x3 DUP2 ADD SLOAD PUSH1 0x4 DUP3 ADD SLOAD SWAP1 PUSH1 0x6 PUSH1 0x5 DUP5 ADD SLOAD SWAP4 ADD SLOAD SWAP5 PUSH1 0x40 MLOAD SWAP10 DUP11 SWAP9 PUSH2 0x100 DUP11 MSTORE MLOAD DUP1 SWAP9 DUP2 PUSH2 0x100 DUP13 ADD MSTORE DUP12 DUP12 ADD MCOPY PUSH0 DUP10 DUP10 ADD DUP12 ADD MSTORE PUSH1 0x20 DUP10 ADD MSTORE PUSH1 0x40 DUP9 ADD MSTORE PUSH1 0x60 DUP8 ADD MSTORE PUSH1 0x80 DUP7 ADD MSTORE DUP1 DUP3 AND ISZERO ISZERO PUSH1 0xA0 DUP7 ADD MSTORE PUSH1 0x8 SHR AND ISZERO ISZERO PUSH1 0xC0 DUP5 ADD MSTORE PUSH1 0xE0 DUP4 ADD MSTORE PUSH1 0x1F ADD PUSH1 0x1F NOT AND DUP2 ADD SUB ADD SWAP1 RETURN JUMPDEST SWAP4 POP DUP3 PUSH0 MSTORE PUSH1 0x20 PUSH0 KECCAK256 PUSH0 SWAP1 JUMPDEST DUP6 DUP3 LT PUSH2 0x323 JUMPI POP DUP3 ADD PUSH1 0x20 ADD SWAP4 POP PUSH2 0x270 PUSH2 0x25F JUMP JUMPDEST PUSH1 0x1 DUP2 PUSH1 0x20 SWAP3 SLOAD DUP4 DUP6 DUP9 ADD ADD MSTORE ADD SWAP2 ADD SWAP1 PUSH2 0x30C JUMP JUMPDEST PUSH1 0xFF NOT AND DUP4 MSTORE POP ISZERO ISZERO PUSH1 0x5 SHL DUP3 ADD PUSH1 0x20 ADD SWAP4 POP PUSH2 0x270 PUSH2 0x25F JUMP JUMPDEST CALLVALUE PUSH2 0xFC JUMPI PUSH1 0x20 CALLDATASIZE PUSH1 0x3 NOT ADD SLT PUSH2 0xFC JUMPI PUSH1 0x4 CALLDATALOAD PUSH2 0x370 PUSH2 0x1682 JUMP JUMPDEST PUSH1 0x64 DUP2 GT PUSH2 0x37D JUMPI PUSH1 0x2 SSTORE STOP JUMPDEST PUSH1 0x40 MLOAD PUSH3 0x461BCD PUSH1 0xE5 SHL DUP2 MSTORE PUSH1 0x20 PUSH1 0x4 DUP3 ADD MSTORE PUSH1 0xC PUSH1 0x24 DUP3 ADD MSTORE PUSH12 0x8CCACA40E8DEDE40D0D2CED PUSH1 0xA3 SHL PUSH1 0x44 DUP3 ADD MSTORE PUSH1 0x64 SWAP1 REVERT JUMPDEST CALLVALUE PUSH2 0xFC JUMPI PUSH1 0x20 CALLDATASIZE PUSH1 0x3 NOT ADD SLT PUSH2 0xFC JUMPI PUSH1 0x4 CALLDATALOAD PUSH1 0x1 PUSH1 0x1 PUSH1 0x40 SHL SUB DUP2 GT PUSH2 0xFC JUMPI PUSH2 0x3E1 SWAP1 CALLDATASIZE SWAP1 PUSH1 0x4 ADD PUSH2 0x1375 JUMP JUMPDEST SWAP1 PUSH2 0x3EA PUSH2 0x162E JUMP JUMPDEST PUSH2 0x40B PUSH1 0xFF PUSH1 0x40 MLOAD DUP5 DUP5 DUP3 CALLDATACOPY PUSH1 0x20 DUP2 DUP7 DUP2 ADD PUSH1 0x5 DUP2 MSTORE SUB ADD SWAP1 KECCAK256 SLOAD AND PUSH2 0x14BE JUMP JUMPDEST PUSH1 0x40 MLOAD DUP3 DUP3 DUP3 CALLDATACOPY PUSH1 0x4 DUP4 DUP3 ADD SWAP1 DUP2 MSTORE DUP2 SWAP1 SUB PUSH1 0x20 ADD SWAP1 KECCAK256 PUSH1 0x1 DUP2 ADD DUP1 SLOAD PUSH1 0x1 PUSH1 0x1 PUSH1 0xA0 SHL SUB AND SWAP4 CALLER DUP6 EQ DUP1 ISZERO PUSH2 0x523 JUMPI JUMPDEST PUSH2 0x445 SWAP1 PUSH2 0x150A JUMP JUMPDEST PUSH1 0x5 DUP4 ADD SWAP2 DUP3 SLOAD PUSH2 0x459 PUSH1 0xFF DUP3 AND ISZERO PUSH2 0x1547 JUMP JUMPDEST PUSH1 0xFF DUP2 PUSH1 0x8 SHR AND PUSH2 0x4DE JUMPI PUSH32 0x16B1484ADF14DDC11AD828089C5F7AC1932AE15CAC0FD6100804B92746616B04 SWAP5 PUSH1 0x20 SWAP5 PUSH2 0x100 PUSH2 0x4B2 SWAP4 PUSH2 0xFF00 NOT AND OR SWAP1 SSTORE PUSH1 0x3 PUSH1 0x1 DUP1 PUSH1 0xA0 SHL SUB PUSH1 0x2 DUP4 ADD SLOAD AND SWAP2 ADD SWAP8 DUP9 SLOAD SWAP2 PUSH2 0x16A9 JUMP JUMPDEST PUSH1 0x1 DUP1 PUSH1 0xA0 SHL SUB SWAP1 SLOAD AND SWAP5 SLOAD SWAP4 DUP2 PUSH1 0x40 MLOAD SWAP3 DUP4 SWAP3 DUP4 CALLDATACOPY DUP2 ADD PUSH0 DUP2 MSTORE SUB SWAP1 KECCAK256 SWAP3 PUSH1 0x40 MLOAD SWAP1 DUP2 MSTORE LOG3 PUSH1 0x1 PUSH0 SSTORE STOP JUMPDEST PUSH1 0x40 MLOAD PUSH3 0x461BCD PUSH1 0xE5 SHL DUP2 MSTORE PUSH1 0x20 PUSH1 0x4 DUP3 ADD MSTORE PUSH1 0x1A PUSH1 0x24 DUP3 ADD MSTORE PUSH32 0x5261696E64726F7020616C72656164792063616E63656C6C6564000000000000 PUSH1 0x44 DUP3 ADD MSTORE PUSH1 0x64 SWAP1 REVERT JUMPDEST POP PUSH1 0x1 SLOAD PUSH1 0x1 PUSH1 0x1 PUSH1 0xA0 SHL SUB AND CALLER EQ PUSH2 0x43C JUMP JUMPDEST CALLVALUE PUSH2 0xFC JUMPI PUSH1 0x20 CALLDATASIZE PUSH1 0x3 NOT ADD SLT PUSH2 0xFC JUMPI PUSH1 0x4 CALLDATALOAD PUSH1 0x1 PUSH1 0x1 PUSH1 0x40 SHL SUB DUP2 GT PUSH2 0xFC JUMPI PUSH2 0x567 SWAP1 CALLDATASIZE SWAP1 PUSH1 0x4 ADD PUSH2 0x1375 JUMP JUMPDEST PUSH2 0x56F PUSH2 0x162E JUMP JUMPDEST PUSH2 0x590 PUSH1 0xFF PUSH1 0x40 MLOAD DUP4 DUP6 DUP3 CALLDATACOPY PUSH1 0x20 DUP2 DUP6 DUP2 ADD PUSH1 0x5 DUP2 MSTORE SUB ADD SWAP1 KECCAK256 SLOAD AND PUSH2 0x14BE JUMP JUMPDEST PUSH1 0x40 MLOAD DUP2 DUP4 DUP3 CALLDATACOPY PUSH1 0x20 DUP2 DUP4 DUP2 ADD PUSH1 0x4 DUP2 MSTORE SUB ADD SWAP1 KECCAK256 SWAP1 PUSH1 0x1 DUP3 ADD SWAP1 PUSH1 0x1 DUP1 PUSH1 0xA0 SHL SUB DUP3 SLOAD AND CALLER EQ DUP1 ISZERO PUSH2 0x7AF JUMPI JUMPDEST PUSH2 0x5C7 SWAP1 PUSH2 0x150A JUMP JUMPDEST PUSH1 0x5 DUP4 ADD SWAP4 DUP5 SLOAD SWAP5 PUSH2 0x5DC PUSH1 0xFF DUP8 AND ISZERO PUSH2 0x1547 JUMP JUMPDEST PUSH2 0x5EC PUSH1 0xFF DUP8 PUSH1 0x8 SHR AND ISZERO PUSH2 0x1593 JUMP JUMPDEST PUSH1 0x4 DUP6 ADD SLOAD TIMESTAMP LT PUSH2 0x773 JUMPI PUSH1 0x6 DUP6 ADD SWAP1 DUP2 SLOAD SWAP7 DUP8 ISZERO PUSH2 0x73C JUMPI PUSH1 0x1 SWAP1 PUSH1 0xFF SWAP8 SWAP6 SWAP8 NOT AND OR SWAP1 SSTORE PUSH1 0x3 DUP4 ADD SLOAD SWAP5 PUSH2 0x632 PUSH2 0x2710 PUSH2 0x62A PUSH1 0x2 SLOAD DUP10 PUSH2 0x15FD JUMP JUMPDEST DIV DUP1 SWAP8 PUSH2 0x1487 JUMP JUMPDEST SWAP2 PUSH2 0x650 PUSH2 0x64A PUSH2 0x643 DUP11 DUP7 PUSH2 0x1610 JUMP JUMPDEST SWAP10 DUP11 PUSH2 0x15FD JUMP JUMPDEST DUP5 PUSH2 0x1487 JUMP JUMPDEST PUSH1 0x2 DUP7 ADD SLOAD PUSH1 0x1 PUSH1 0x1 PUSH1 0xA0 SHL SUB AND SWAP7 PUSH1 0x8 SWAP1 SWAP7 ADD SWAP6 SWAP1 PUSH0 JUMPDEST DUP4 SLOAD DUP2 LT ISZERO PUSH2 0x69C JUMPI DUP1 PUSH2 0x696 DUP13 PUSH2 0x682 PUSH1 0x1 SWAP5 DUP13 PUSH2 0x15D4 JUMP JUMPDEST DUP6 DUP1 PUSH1 0xA0 SHL SUB SWAP2 SLOAD SWAP1 PUSH1 0x3 SHL SHR AND DUP13 PUSH2 0x16A9 JUMP JUMPDEST ADD PUSH2 0x668 JUMP JUMPDEST POP PUSH1 0x60 SWAP7 POP PUSH32 0xE56EBA28928C6808FF8D65117CC1D7BA272E42F06114B621406245FE7E42FFF2 SWAP8 DUP11 SWAP10 DUP1 PUSH2 0x71F JUMPI JUMPDEST POP DUP2 PUSH2 0x700 JUMPI JUMPDEST POP POP POP SLOAD SWAP3 DUP2 PUSH1 0x40 MLOAD SWAP3 DUP4 SWAP3 DUP4 CALLDATACOPY DUP2 ADD PUSH0 DUP2 MSTORE SUB SWAP1 KECCAK256 SWAP5 PUSH1 0x40 MLOAD SWAP3 DUP4 MSTORE PUSH1 0x20 DUP4 ADD MSTORE PUSH1 0x40 DUP3 ADD MSTORE LOG2 PUSH1 0x1 PUSH0 SSTORE STOP JUMPDEST SWAP2 SLOAD PUSH2 0x717 SWAP3 PUSH1 0x1 PUSH1 0x1 PUSH1 0xA0 SHL SUB SWAP1 SWAP2 AND SWAP1 PUSH2 0x16A9 JUMP JUMPDEST DUP8 DUP1 DUP1 PUSH2 0x6D2 JUMP JUMPDEST PUSH1 0x3 SLOAD PUSH2 0x736 SWAP2 SWAP1 PUSH1 0x1 PUSH1 0x1 PUSH1 0xA0 SHL SUB AND DUP4 PUSH2 0x16A9 JUMP JUMPDEST DUP11 PUSH2 0x6CB JUMP JUMPDEST PUSH1 0x40 MLOAD PUSH3 0x461BCD PUSH1 0xE5 SHL DUP2 MSTORE PUSH1 0x20 PUSH1 0x4 DUP3 ADD MSTORE PUSH1 0xF PUSH1 0x24 DUP3 ADD MSTORE PUSH15 0x4E6F207061727469636970616E7473 PUSH1 0x88 SHL PUSH1 0x44 DUP3 ADD MSTORE PUSH1 0x64 SWAP1 REVERT JUMPDEST PUSH1 0x40 MLOAD PUSH3 0x461BCD PUSH1 0xE5 SHL DUP2 MSTORE PUSH1 0x20 PUSH1 0x4 DUP3 ADD MSTORE PUSH1 0x14 PUSH1 0x24 DUP3 ADD MSTORE PUSH20 0x546F6F206561726C7920746F2065786563757465 PUSH1 0x60 SHL PUSH1 0x44 DUP3 ADD MSTORE PUSH1 0x64 SWAP1 REVERT JUMPDEST POP PUSH1 0x1 SLOAD PUSH1 0x1 PUSH1 0x1 PUSH1 0xA0 SHL SUB AND CALLER EQ PUSH2 0x5BE JUMP JUMPDEST CALLVALUE PUSH2 0xFC JUMPI PUSH0 CALLDATASIZE PUSH1 0x3 NOT ADD SLT PUSH2 0xFC JUMPI PUSH1 0x1 SLOAD PUSH1 0x40 MLOAD PUSH1 0x1 PUSH1 0x1 PUSH1 0xA0 SHL SUB SWAP1 SWAP2 AND DUP2 MSTORE PUSH1 0x20 SWAP1 RETURN JUMPDEST CALLVALUE PUSH2 0xFC JUMPI PUSH1 0x20 CALLDATASIZE PUSH1 0x3 NOT ADD SLT PUSH2 0xFC JUMPI PUSH1 0x4 CALLDATALOAD PUSH1 0x1 PUSH1 0x1 PUSH1 0x40 SHL SUB DUP2 GT PUSH2 0xFC JUMPI PUSH1 0x20 PUSH2 0x81F PUSH1 0x8 SWAP3 CALLDATASIZE SWAP1 PUSH1 0x4 ADD PUSH2 0x1375 JUMP JUMPDEST SWAP2 SWAP1 PUSH2 0x841 PUSH1 0xFF PUSH1 0x40 MLOAD DUP6 DUP5 DUP3 CALLDATACOPY DUP5 DUP2 DUP8 DUP2 ADD PUSH1 0x5 DUP2 MSTORE SUB ADD SWAP1 KECCAK256 SLOAD AND PUSH2 0x14BE JUMP JUMPDEST DUP3 PUSH1 0x40 MLOAD SWAP4 DUP5 SWAP3 DUP4 CALLDATACOPY DUP2 ADD PUSH1 0x4 DUP2 MSTORE SUB ADD SWAP1 KECCAK256 ADD PUSH1 0x40 MLOAD DUP1 PUSH1 0x20 DUP4 SLOAD SWAP2 DUP3 DUP2 MSTORE ADD SWAP1 DUP2 SWAP4 PUSH0 MSTORE PUSH1 0x20 PUSH0 KECCAK256 SWAP1 PUSH0 JUMPDEST DUP2 DUP2 LT PUSH2 0x8CF JUMPI POP POP POP DUP2 PUSH2 0x884 SWAP2 SUB DUP3 PUSH2 0x13B8 JUMP JUMPDEST PUSH1 0x40 MLOAD SWAP2 DUP3 SWAP2 PUSH1 0x20 DUP4 ADD SWAP1 PUSH1 0x20 DUP5 MSTORE MLOAD DUP1 SWAP2 MSTORE PUSH1 0x40 DUP4 ADD SWAP2 SWAP1 PUSH0 JUMPDEST DUP2 DUP2 LT PUSH2 0x8AD JUMPI POP POP POP SUB SWAP1 RETURN JUMPDEST DUP3 MLOAD PUSH1 0x1 PUSH1 0x1 PUSH1 0xA0 SHL SUB AND DUP5 MSTORE DUP6 SWAP5 POP PUSH1 0x20 SWAP4 DUP5 ADD SWAP4 SWAP1 SWAP3 ADD SWAP2 PUSH1 0x1 ADD PUSH2 0x89F JUMP JUMPDEST DUP3 SLOAD PUSH1 0x1 PUSH1 0x1 PUSH1 0xA0 SHL SUB AND DUP5 MSTORE PUSH1 0x20 SWAP1 SWAP4 ADD SWAP3 PUSH1 0x1 SWAP3 DUP4 ADD SWAP3 ADD PUSH2 0x86E JUMP JUMPDEST CALLVALUE PUSH2 0xFC JUMPI PUSH1 0x40 CALLDATASIZE PUSH1 0x3 NOT ADD SLT PUSH2 0xFC JUMPI PUSH2 0x92B PUSH2 0x90A PUSH2 0x13A2 JUMP JUMPDEST PUSH2 0x912 PUSH2 0x1682 JUMP JUMPDEST PUSH1 0x1 SLOAD PUSH1 0x24 CALLDATALOAD SWAP2 PUSH1 0x1 PUSH1 0x1 PUSH1 0xA0 SHL SUB SWAP2 DUP3 AND SWAP2 AND PUSH2 0x16A9 JUMP JUMPDEST STOP JUMPDEST CALLVALUE PUSH2 0xFC JUMPI PUSH1 0x20 CALLDATASIZE PUSH1 0x3 NOT ADD SLT PUSH2 0xFC JUMPI PUSH1 0x4 CALLDATALOAD PUSH1 0x1 PUSH1 0x1 PUSH1 0x40 SHL SUB DUP2 GT PUSH2 0xFC JUMPI PUSH1 0x20 PUSH2 0x961 PUSH1 0xE0 SWAP3 CALLDATASIZE SWAP1 PUSH1 0x4 ADD PUSH2 0x1375 JUMP JUMPDEST SWAP2 SWAP1 PUSH2 0x983 PUSH1 0xFF PUSH1 0x40 MLOAD DUP6 DUP5 DUP3 CALLDATACOPY DUP5 DUP2 DUP8 DUP2 ADD PUSH1 0x5 DUP2 MSTORE SUB ADD SWAP1 KECCAK256 SLOAD AND PUSH2 0x14BE JUMP JUMPDEST DUP3 PUSH1 0x40 MLOAD SWAP4 DUP5 SWAP3 DUP4 CALLDATACOPY DUP2 ADD PUSH1 0x4 DUP2 MSTORE SUB ADD SWAP1 KECCAK256 PUSH1 0x1 DUP1 PUSH1 0xA0 SHL SUB PUSH1 0x1 DUP3 ADD SLOAD AND SWAP1 PUSH1 0xFF PUSH1 0x1 DUP1 PUSH1 0xA0 SHL SUB PUSH1 0x2 DUP4 ADD SLOAD AND SWAP2 PUSH1 0x3 DUP2 ADD SLOAD PUSH1 0x4 DUP3 ADD SLOAD SWAP1 PUSH1 0x6 PUSH1 0x5 DUP5 ADD SLOAD SWAP4 ADD SLOAD SWAP5 PUSH1 0x40 MLOAD SWAP7 DUP8 MSTORE PUSH1 0x20 DUP8 ADD MSTORE PUSH1 0x40 DUP7 ADD MSTORE PUSH1 0x60 DUP6 ADD MSTORE DUP2 DUP2 AND ISZERO ISZERO PUSH1 0x80 DUP6 ADD MSTORE PUSH1 0x8 SHR AND ISZERO ISZERO PUSH1 0xA0 DUP4 ADD MSTORE PUSH1 0xC0 DUP3 ADD MSTORE RETURN JUMPDEST CALLVALUE PUSH2 0xFC JUMPI PUSH0 CALLDATASIZE PUSH1 0x3 NOT ADD SLT PUSH2 0xFC JUMPI PUSH2 0xA13 PUSH2 0x1682 JUMP JUMPDEST PUSH1 0x1 DUP1 SLOAD PUSH1 0x1 PUSH1 0x1 PUSH1 0xA0 SHL SUB NOT DUP2 AND SWAP1 SWAP2 SSTORE PUSH0 SWAP1 PUSH1 0x1 PUSH1 0x1 PUSH1 0xA0 SHL SUB AND PUSH32 0x8BE0079C531659141344CD1FD0A4F28419497F9722A3DAAFE3B4186F6B6457E0 DUP3 DUP1 LOG3 STOP JUMPDEST CALLVALUE PUSH2 0xFC JUMPI PUSH1 0x40 CALLDATASIZE PUSH1 0x3 NOT ADD SLT PUSH2 0xFC JUMPI PUSH1 0x4 CALLDATALOAD PUSH1 0x1 PUSH1 0x1 PUSH1 0x40 SHL SUB DUP2 GT PUSH2 0xFC JUMPI PUSH2 0xA86 SWAP1 CALLDATASIZE SWAP1 PUSH1 0x4 ADD PUSH2 0x1375 JUMP JUMPDEST SWAP1 PUSH1 0x24 CALLDATALOAD SWAP1 PUSH1 0x1 PUSH1 0x1 PUSH1 0x40 SHL SUB DUP3 GT PUSH2 0xFC JUMPI CALLDATASIZE PUSH1 0x23 DUP4 ADD SLT ISZERO PUSH2 0xFC JUMPI DUP2 PUSH1 0x4 ADD CALLDATALOAD PUSH1 0x1 PUSH1 0x1 PUSH1 0x40 SHL SUB DUP2 GT PUSH2 0xFC JUMPI CALLDATASIZE PUSH1 0x24 DUP3 PUSH1 0x5 SHL DUP6 ADD ADD GT PUSH2 0xFC JUMPI PUSH2 0xAE7 PUSH1 0xFF PUSH1 0x40 MLOAD DUP7 DUP6 DUP3 CALLDATACOPY PUSH1 0x20 DUP2 DUP9 DUP2 ADD PUSH1 0x5 DUP2 MSTORE SUB ADD SWAP1 KECCAK256 SLOAD AND PUSH2 0x14BE JUMP JUMPDEST PUSH1 0x40 MLOAD DUP5 DUP4 DUP3 CALLDATACOPY PUSH1 0x20 DUP2 DUP7 DUP2 ADD PUSH1 0x4 DUP2 MSTORE SUB ADD SWAP1 KECCAK256 SWAP3 PUSH1 0x1 DUP5 ADD SWAP1 PUSH1 0x1 DUP1 PUSH1 0xA0 SHL SUB DUP3 SLOAD AND CALLER EQ DUP1 ISZERO PUSH2 0xE23 JUMPI JUMPDEST PUSH2 0xB1E SWAP1 PUSH2 0x150A JUMP JUMPDEST PUSH2 0xB3E PUSH1 0xFF PUSH1 0x5 DUP8 ADD SLOAD PUSH2 0xB34 DUP3 DUP3 AND ISZERO PUSH2 0x1547 JUMP JUMPDEST PUSH1 0x8 SHR AND ISZERO PUSH2 0x1593 JUMP JUMPDEST PUSH3 0xF4240 DUP4 GT PUSH2 0xDE6 JUMPI PUSH1 0x8 DUP6 ADD SWAP6 SWAP4 SWAP5 PUSH1 0x7 DUP2 ADD SWAP5 PUSH0 JUMPDEST DUP9 SLOAD DUP2 LT ISZERO PUSH2 0xB99 JUMPI DUP1 PUSH2 0xB6C PUSH1 0x1 SWAP3 DUP12 PUSH2 0x15D4 JUMP JUMPDEST DUP4 DUP1 PUSH1 0xA0 SHL SUB SWAP2 SLOAD SWAP1 PUSH1 0x3 SHL SHR AND DUP3 DUP1 PUSH1 0xA0 SHL SUB AND PUSH0 MSTORE DUP8 PUSH1 0x20 MSTORE PUSH1 0x40 PUSH0 KECCAK256 PUSH1 0xFF NOT DUP2 SLOAD AND SWAP1 SSTORE ADD PUSH2 0xB56 JUMP JUMPDEST POP SWAP1 SWAP2 SWAP3 SWAP5 SWAP4 SWAP6 DUP8 SLOAD PUSH0 DUP10 SSTORE DUP1 PUSH2 0xDCC JUMPI JUMPDEST POP PUSH0 JUMPDEST DUP8 DUP2 LT ISZERO PUSH2 0xD01 JUMPI PUSH1 0x24 PUSH1 0x5 DUP3 SWAP1 SHL DUP7 ADD ADD CALLDATALOAD PUSH1 0x1 PUSH1 0x1 PUSH1 0xA0 SHL SUB DUP2 AND SWAP2 SWAP1 DUP3 SWAP1 SUB PUSH2 0xFC JUMPI DUP2 ISZERO PUSH2 0xCBC JUMPI DUP8 SLOAD PUSH1 0x1 PUSH1 0x1 PUSH1 0xA0 SHL SUB AND DUP3 EQ PUSH2 0xC77 JUMPI DUP2 PUSH0 MSTORE DUP7 PUSH1 0x20 MSTORE PUSH1 0xFF PUSH1 0x40 PUSH0 KECCAK256 SLOAD AND ISZERO PUSH2 0xC0A JUMPI JUMPDEST PUSH1 0x1 SWAP2 POP ADD PUSH2 0xBAE JUMP JUMPDEST DUP2 PUSH0 MSTORE DUP7 PUSH1 0x20 MSTORE PUSH1 0x40 PUSH0 KECCAK256 PUSH1 0x1 PUSH1 0xFF NOT DUP3 SLOAD AND OR SWAP1 SSTORE DUP10 SLOAD SWAP2 PUSH9 0x10000000000000000 DUP4 LT ISZERO PUSH2 0xC63 JUMPI PUSH2 0xC45 DUP4 PUSH1 0x1 DUP1 SWAP6 ADD DUP14 SSTORE DUP13 PUSH2 0x15D4 JUMP JUMPDEST DUP2 SWAP3 SWAP2 SLOAD SWAP1 PUSH1 0x3 SHL SWAP2 DUP3 SHL SWAP2 DUP6 DUP1 PUSH1 0xA0 SHL SUB SWAP1 SHL NOT AND OR SWAP1 SSTORE PUSH2 0xC00 JUMP JUMPDEST PUSH4 0x4E487B71 PUSH1 0xE0 SHL PUSH0 MSTORE PUSH1 0x41 PUSH1 0x4 MSTORE PUSH1 0x24 PUSH0 REVERT JUMPDEST PUSH1 0x40 MLOAD PUSH3 0x461BCD PUSH1 0xE5 SHL DUP2 MSTORE PUSH1 0x20 PUSH1 0x4 DUP3 ADD MSTORE PUSH1 0x1A PUSH1 0x24 DUP3 ADD MSTORE PUSH32 0x486F73742063616E6E6F74206265207061727469636970616E74000000000000 PUSH1 0x44 DUP3 ADD MSTORE PUSH1 0x64 SWAP1 REVERT JUMPDEST PUSH1 0x40 MLOAD PUSH3 0x461BCD PUSH1 0xE5 SHL DUP2 MSTORE PUSH1 0x20 PUSH1 0x4 DUP3 ADD MSTORE PUSH1 0x1B PUSH1 0x24 DUP3 ADD MSTORE PUSH32 0x496E76616C6964207061727469636970616E7420616464726573730000000000 PUSH1 0x44 DUP3 ADD MSTORE PUSH1 0x64 SWAP1 REVERT JUMPDEST POP DUP8 SLOAD DUP4 DUP2 PUSH1 0x6 DUP2 SWAP7 ADD SSTORE DUP2 PUSH2 0xD53 JUMPI JUMPDEST POP PUSH32 0x33413169B586F09864FC3649CE426FAF08FF20FF0580328A11860E98AB66A014 PUSH1 0x20 DUP5 DUP5 DUP2 PUSH1 0x40 MLOAD SWAP3 DUP4 SWAP3 DUP4 CALLDATACOPY DUP2 ADD PUSH0 DUP2 MSTORE SUB SWAP1 KECCAK256 SWAP3 PUSH1 0x40 MLOAD SWAP1 DUP2 MSTORE LOG2 STOP JUMPDEST PUSH1 0x64 SWAP2 PUSH2 0xD77 PUSH1 0x3 PUSH2 0xD7C SWAP4 ADD SLOAD PUSH2 0x2710 PUSH2 0xD70 PUSH1 0x2 SLOAD DUP4 PUSH2 0x15FD JUMP JUMPDEST DIV SWAP1 PUSH2 0x1487 JUMP JUMPDEST PUSH2 0x1610 JUMP JUMPDEST LT PUSH2 0xD88 JUMPI DUP3 DUP5 PUSH2 0xD12 JUMP JUMPDEST PUSH1 0x64 PUSH1 0x40 MLOAD PUSH3 0x461BCD PUSH1 0xE5 SHL DUP2 MSTORE PUSH1 0x20 PUSH1 0x4 DUP3 ADD MSTORE PUSH1 0x20 PUSH1 0x24 DUP3 ADD MSTORE PUSH32 0x416D6F756E7420706572207061727469636970616E7420746F6F20736D616C6C PUSH1 0x44 DUP3 ADD MSTORE REVERT JUMPDEST PUSH2 0xDE0 SWAP1 DUP10 PUSH0 MSTORE PUSH1 0x20 PUSH0 KECCAK256 SWAP1 DUP2 ADD SWAP1 PUSH2 0x14A8 JUMP JUMPDEST DUP9 PUSH2 0xBAB JUMP JUMPDEST PUSH1 0x40 MLOAD PUSH3 0x461BCD PUSH1 0xE5 SHL DUP2 MSTORE PUSH1 0x20 PUSH1 0x4 DUP3 ADD MSTORE PUSH1 0x15 PUSH1 0x24 DUP3 ADD MSTORE PUSH21 0x546F6F206D616E79207061727469636970616E7473 PUSH1 0x58 SHL PUSH1 0x44 DUP3 ADD MSTORE PUSH1 0x64 SWAP1 REVERT JUMPDEST POP PUSH1 0x1 SLOAD PUSH1 0x1 PUSH1 0x1 PUSH1 0xA0 SHL SUB AND CALLER EQ PUSH2 0xB15 JUMP JUMPDEST CALLVALUE PUSH2 0xFC JUMPI PUSH0 CALLDATASIZE PUSH1 0x3 NOT ADD SLT PUSH2 0xFC JUMPI PUSH1 0x20 PUSH1 0x40 MLOAD PUSH1 0x64 DUP2 MSTORE RETURN JUMPDEST CALLVALUE PUSH2 0xFC JUMPI PUSH0 CALLDATASIZE PUSH1 0x3 NOT ADD SLT PUSH2 0xFC JUMPI PUSH1 0x3 SLOAD PUSH1 0x40 MLOAD PUSH1 0x1 PUSH1 0x1 PUSH1 0xA0 SHL SUB SWAP1 SWAP2 AND DUP2 MSTORE PUSH1 0x20 SWAP1 RETURN JUMPDEST CALLVALUE PUSH2 0xFC JUMPI PUSH0 CALLDATASIZE PUSH1 0x3 NOT ADD SLT PUSH2 0xFC JUMPI PUSH1 0x20 PUSH1 0x2 SLOAD PUSH1 0x40 MLOAD SWAP1 DUP2 MSTORE RETURN JUMPDEST CALLVALUE PUSH2 0xFC JUMPI PUSH1 0x20 PUSH1 0xFF DUP2 DUP1 PUSH2 0xEAB CALLDATASIZE PUSH2 0x13D9 JUMP JUMPDEST PUSH1 0x40 MLOAD SWAP3 DUP2 DUP5 SWAP3 MLOAD SWAP2 DUP3 SWAP2 ADD DUP4 MCOPY DUP2 ADD PUSH1 0x5 DUP2 MSTORE SUB ADD SWAP1 KECCAK256 SLOAD AND PUSH1 0x40 MLOAD SWAP1 ISZERO ISZERO DUP2 MSTORE RETURN JUMPDEST CALLVALUE PUSH2 0xFC JUMPI PUSH1 0x80 CALLDATASIZE PUSH1 0x3 NOT ADD SLT PUSH2 0xFC JUMPI PUSH1 0x4 CALLDATALOAD PUSH1 0x1 PUSH1 0x1 PUSH1 0x40 SHL SUB DUP2 GT PUSH2 0xFC JUMPI PUSH2 0xEFF SWAP1 CALLDATASIZE SWAP1 PUSH1 0x4 ADD PUSH2 0x1375 JUMP JUMPDEST PUSH1 0x24 CALLDATALOAD PUSH1 0x1 PUSH1 0x1 PUSH1 0xA0 SHL SUB DUP2 AND SWAP3 SWAP2 SWAP1 DUP4 SWAP1 SUB PUSH2 0xFC JUMPI PUSH1 0x64 CALLDATALOAD SWAP1 PUSH1 0x44 CALLDATALOAD PUSH2 0xF25 PUSH2 0x162E JUMP JUMPDEST PUSH1 0xFF PUSH1 0x40 MLOAD DUP4 DUP7 DUP3 CALLDATACOPY PUSH1 0x20 DUP2 DUP6 DUP2 ADD PUSH1 0x5 DUP2 MSTORE SUB ADD SWAP1 KECCAK256 SLOAD AND PUSH2 0x1330 JUMPI DUP5 ISZERO PUSH2 0x12F3 JUMPI DUP1 ISZERO PUSH2 0x12AE JUMPI TIMESTAMP DUP4 GT ISZERO PUSH2 0x126A JUMPI PUSH1 0x40 MLOAD PUSH4 0x70A08231 PUSH1 0xE0 SHL DUP2 MSTORE ADDRESS PUSH1 0x4 DUP3 ADD MSTORE SWAP1 PUSH1 0x20 DUP3 PUSH1 0x24 DUP2 DUP10 GAS STATICCALL SWAP2 DUP3 ISZERO PUSH2 0x1229 JUMPI PUSH0 SWAP3 PUSH2 0x1234 JUMPI JUMPDEST POP PUSH2 0xFBD SWAP1 PUSH1 0x40 MLOAD SWAP1 PUSH4 0x23B872DD PUSH1 0xE0 SHL PUSH1 0x20 DUP4 ADD MSTORE CALLER PUSH1 0x24 DUP4 ADD MSTORE ADDRESS PUSH1 0x44 DUP4 ADD MSTORE PUSH1 0x64 DUP3 ADD MSTORE PUSH1 0x64 DUP2 MSTORE PUSH2 0xFB7 PUSH1 0x84 DUP3 PUSH2 0x13B8 JUMP JUMPDEST DUP7 PUSH2 0x16EB JUMP JUMPDEST PUSH1 0x40 MLOAD PUSH4 0x70A08231 PUSH1 0xE0 SHL DUP2 MSTORE ADDRESS PUSH1 0x4 DUP3 ADD MSTORE SWAP1 PUSH1 0x20 DUP3 PUSH1 0x24 DUP2 DUP10 GAS STATICCALL DUP1 ISZERO PUSH2 0x1229 JUMPI PUSH0 SWAP1 PUSH2 0x11F5 JUMPI JUMPDEST PUSH2 0xFF1 SWAP3 POP PUSH2 0x1487 JUMP JUMPDEST SWAP3 DUP4 ISZERO PUSH2 0x11B8 JUMPI PUSH1 0x40 MLOAD DUP3 DUP3 DUP3 CALLDATACOPY PUSH1 0x20 DUP2 DUP5 DUP2 ADD PUSH1 0x4 DUP2 MSTORE SUB ADD SWAP1 KECCAK256 PUSH1 0x1 PUSH1 0x1 PUSH1 0x40 SHL SUB DUP4 GT PUSH2 0xC63 JUMPI PUSH2 0x1025 DUP2 SLOAD PUSH2 0x144F JUMP JUMPDEST PUSH1 0x1F DUP2 GT PUSH2 0x117D JUMPI JUMPDEST POP DUP3 PUSH0 PUSH1 0x1F DUP3 GT PUSH1 0x1 EQ PUSH2 0x1111 JUMPI SWAP2 PUSH1 0x6 SWAP2 PUSH0 SWAP4 DUP5 SWAP2 PUSH2 0x1106 JUMPI JUMPDEST POP DUP6 PUSH1 0x1 SHL SWAP1 DUP5 NOT DUP8 PUSH1 0x3 SHL SHR NOT AND OR DUP2 SSTORE JUMPDEST PUSH1 0x1 DUP2 ADD DUP1 SLOAD PUSH1 0x1 PUSH1 0x1 PUSH1 0xA0 SHL SUB NOT SWAP1 DUP2 AND CALLER OR SWAP1 SWAP2 SSTORE PUSH1 0x2 DUP3 ADD DUP1 SLOAD SWAP1 SWAP2 AND DUP10 OR SWAP1 SSTORE PUSH1 0x3 DUP2 ADD DUP8 SWAP1 SSTORE PUSH1 0x4 DUP2 ADD DUP7 SWAP1 SSTORE PUSH1 0x5 DUP2 ADD DUP1 SLOAD PUSH2 0xFFFF NOT AND SWAP1 SSTORE ADD SSTORE PUSH1 0x40 MLOAD DUP3 DUP3 DUP3 CALLDATACOPY PUSH1 0x20 DUP2 DUP5 DUP2 ADD PUSH1 0x5 DUP2 MSTORE SUB ADD SWAP1 KECCAK256 PUSH1 0x1 PUSH1 0xFF NOT DUP3 SLOAD AND OR SWAP1 SSTORE DUP2 PUSH1 0x40 MLOAD SWAP3 DUP4 SWAP3 DUP4 CALLDATACOPY DUP2 ADD PUSH0 DUP2 MSTORE SUB SWAP1 KECCAK256 SWAP1 PUSH1 0x40 MLOAD SWAP3 DUP4 MSTORE PUSH1 0x20 DUP4 ADD MSTORE PUSH32 0x4C9D53D935621250C2A973CA08A8BA1828A8AE00D5E5A57C23344069A08F35F PUSH1 0x40 CALLER SWAP4 LOG4 PUSH1 0x1 PUSH0 SSTORE STOP JUMPDEST SWAP1 POP DUP5 ADD CALLDATALOAD DUP10 PUSH2 0x1049 JUMP JUMPDEST PUSH0 DUP4 DUP2 MSTORE PUSH1 0x20 DUP2 KECCAK256 SWAP3 POP DUP6 SWAP1 PUSH1 0x1F NOT DUP3 AND SWAP1 JUMPDEST DUP2 DUP2 LT PUSH2 0x1162 JUMPI POP SWAP2 PUSH1 0x6 SWAP4 SWAP2 PUSH0 SWAP6 SWAP4 LT PUSH2 0x1149 JUMPI JUMPDEST POP POP PUSH1 0x1 DUP6 DUP2 SHL ADD DUP2 SSTORE PUSH2 0x105C JUMP JUMPDEST DUP5 NOT PUSH1 0xF8 DUP9 PUSH1 0x3 SHL AND SHR NOT SWAP1 DUP7 ADD CALLDATALOAD AND SWAP1 SSTORE DUP9 DUP1 PUSH2 0x113A JUMP JUMPDEST DUP7 DUP5 ADD CALLDATALOAD DUP6 SSTORE PUSH1 0x1 SWAP1 SWAP5 ADD SWAP4 PUSH1 0x20 SWAP4 DUP5 ADD SWAP4 DUP9 SWAP4 POP ADD PUSH2 0x1124 JUMP JUMPDEST PUSH2 0x11A8 SWAP1 DUP3 PUSH0 MSTORE PUSH1 0x20 PUSH0 KECCAK256 PUSH1 0x1F DUP7 ADD PUSH1 0x5 SHR DUP2 ADD SWAP2 PUSH1 0x20 DUP8 LT PUSH2 0x11AE JUMPI JUMPDEST PUSH1 0x1F ADD PUSH1 0x5 SHR ADD SWAP1 PUSH2 0x14A8 JUMP JUMPDEST DUP7 PUSH2 0x102E JUMP JUMPDEST SWAP1 SWAP2 POP DUP2 SWAP1 PUSH2 0x119B JUMP JUMPDEST PUSH1 0x40 MLOAD PUSH3 0x461BCD PUSH1 0xE5 SHL DUP2 MSTORE PUSH1 0x20 PUSH1 0x4 DUP3 ADD MSTORE PUSH1 0x15 PUSH1 0x24 DUP3 ADD MSTORE PUSH21 0x151BDAD95B881D1C985B9CD9995C8819985A5B1959 PUSH1 0x5A SHL PUSH1 0x44 DUP3 ADD MSTORE PUSH1 0x64 SWAP1 REVERT JUMPDEST POP PUSH1 0x20 DUP3 RETURNDATASIZE PUSH1 0x20 GT PUSH2 0x1221 JUMPI JUMPDEST DUP2 PUSH2 0x120F PUSH1 0x20 SWAP4 DUP4 PUSH2 0x13B8 JUMP JUMPDEST DUP2 ADD SUB SLT PUSH2 0xFC JUMPI PUSH2 0xFF1 SWAP2 MLOAD PUSH2 0xFE7 JUMP JUMPDEST RETURNDATASIZE SWAP2 POP PUSH2 0x1202 JUMP JUMPDEST PUSH1 0x40 MLOAD RETURNDATASIZE PUSH0 DUP3 RETURNDATACOPY RETURNDATASIZE SWAP1 REVERT JUMPDEST SWAP1 SWAP2 POP PUSH1 0x20 DUP2 RETURNDATASIZE PUSH1 0x20 GT PUSH2 0x1262 JUMPI JUMPDEST DUP2 PUSH2 0x1250 PUSH1 0x20 SWAP4 DUP4 PUSH2 0x13B8 JUMP JUMPDEST DUP2 ADD SUB SLT PUSH2 0xFC JUMPI MLOAD SWAP1 PUSH2 0xFBD PUSH2 0xF81 JUMP JUMPDEST RETURNDATASIZE SWAP2 POP PUSH2 0x1243 JUMP JUMPDEST PUSH1 0x64 PUSH1 0x40 MLOAD PUSH3 0x461BCD PUSH1 0xE5 SHL DUP2 MSTORE PUSH1 0x20 PUSH1 0x4 DUP3 ADD MSTORE PUSH1 0x20 PUSH1 0x24 DUP3 ADD MSTORE PUSH32 0x5363686564756C65642074696D65206D75737420626520696E20667574757265 PUSH1 0x44 DUP3 ADD MSTORE REVERT JUMPDEST PUSH1 0x40 MLOAD PUSH3 0x461BCD PUSH1 0xE5 SHL DUP2 MSTORE PUSH1 0x20 PUSH1 0x4 DUP3 ADD MSTORE PUSH1 0x1D PUSH1 0x24 DUP3 ADD MSTORE PUSH32 0x416D6F756E74206D7573742062652067726561746572207468616E2030000000 PUSH1 0x44 DUP3 ADD MSTORE PUSH1 0x64 SWAP1 REVERT JUMPDEST PUSH1 0x40 MLOAD PUSH3 0x461BCD PUSH1 0xE5 SHL DUP2 MSTORE PUSH1 0x20 PUSH1 0x4 DUP3 ADD MSTORE PUSH1 0x15 PUSH1 0x24 DUP3 ADD MSTORE PUSH21 0x496E76616C696420746F6B656E2061646472657373 PUSH1 0x58 SHL PUSH1 0x44 DUP3 ADD MSTORE PUSH1 0x64 SWAP1 REVERT JUMPDEST PUSH1 0x40 MLOAD PUSH3 0x461BCD PUSH1 0xE5 SHL DUP2 MSTORE PUSH1 0x20 PUSH1 0x4 DUP3 ADD MSTORE PUSH1 0x17 PUSH1 0x24 DUP3 ADD MSTORE PUSH32 0x5261696E64726F7020616C726561647920657869737473000000000000000000 PUSH1 0x44 DUP3 ADD MSTORE PUSH1 0x64 SWAP1 REVERT JUMPDEST SWAP2 DUP2 PUSH1 0x1F DUP5 ADD SLT ISZERO PUSH2 0xFC JUMPI DUP3 CALLDATALOAD SWAP2 PUSH1 0x1 PUSH1 0x1 PUSH1 0x40 SHL SUB DUP4 GT PUSH2 0xFC JUMPI PUSH1 0x20 DUP4 DUP2 DUP7 ADD SWAP6 ADD ADD GT PUSH2 0xFC JUMPI JUMP JUMPDEST PUSH1 0x4 CALLDATALOAD SWAP1 PUSH1 0x1 PUSH1 0x1 PUSH1 0xA0 SHL SUB DUP3 AND DUP3 SUB PUSH2 0xFC JUMPI JUMP JUMPDEST SWAP1 PUSH1 0x1F DUP1 NOT SWAP2 ADD AND DUP2 ADD SWAP1 DUP2 LT PUSH1 0x1 PUSH1 0x1 PUSH1 0x40 SHL SUB DUP3 GT OR PUSH2 0xC63 JUMPI PUSH1 0x40 MSTORE JUMP JUMPDEST PUSH1 0x20 PUSH1 0x3 NOT DUP3 ADD SLT PUSH2 0xFC JUMPI PUSH1 0x4 CALLDATALOAD PUSH1 0x1 PUSH1 0x1 PUSH1 0x40 SHL SUB DUP2 GT PUSH2 0xFC JUMPI DUP2 PUSH1 0x23 DUP3 ADD SLT ISZERO PUSH2 0xFC JUMPI DUP1 PUSH1 0x4 ADD CALLDATALOAD SWAP1 PUSH1 0x1 PUSH1 0x1 PUSH1 0x40 SHL SUB DUP3 GT PUSH2 0xC63 JUMPI PUSH1 0x40 MLOAD SWAP3 PUSH2 0x142D PUSH1 0x1F DUP5 ADD PUSH1 0x1F NOT AND PUSH1 0x20 ADD DUP6 PUSH2 0x13B8 JUMP JUMPDEST DUP3 DUP5 MSTORE PUSH1 0x24 DUP4 DUP4 ADD ADD GT PUSH2 0xFC JUMPI DUP2 PUSH0 SWAP3 PUSH1 0x24 PUSH1 0x20 SWAP4 ADD DUP4 DUP7 ADD CALLDATACOPY DUP4 ADD ADD MSTORE SWAP1 JUMP JUMPDEST SWAP1 PUSH1 0x1 DUP3 DUP2 SHR SWAP3 AND DUP1 ISZERO PUSH2 0x147D JUMPI JUMPDEST PUSH1 0x20 DUP4 LT EQ PUSH2 0x1469 JUMPI JUMP JUMPDEST PUSH4 0x4E487B71 PUSH1 0xE0 SHL PUSH0 MSTORE PUSH1 0x22 PUSH1 0x4 MSTORE PUSH1 0x24 PUSH0 REVERT JUMPDEST SWAP2 PUSH1 0x7F AND SWAP2 PUSH2 0x145E JUMP JUMPDEST SWAP2 SWAP1 DUP3 SUB SWAP2 DUP3 GT PUSH2 0x1494 JUMPI JUMP JUMPDEST PUSH4 0x4E487B71 PUSH1 0xE0 SHL PUSH0 MSTORE PUSH1 0x11 PUSH1 0x4 MSTORE PUSH1 0x24 PUSH0 REVERT JUMPDEST DUP2 DUP2 LT PUSH2 0x14B3 JUMPI POP POP JUMP JUMPDEST PUSH0 DUP2 SSTORE PUSH1 0x1 ADD PUSH2 0x14A8 JUMP JUMPDEST ISZERO PUSH2 0x14C5 JUMPI JUMP JUMPDEST PUSH1 0x40 MLOAD PUSH3 0x461BCD PUSH1 0xE5 SHL DUP2 MSTORE PUSH1 0x20 PUSH1 0x4 DUP3 ADD MSTORE PUSH1 0x17 PUSH1 0x24 DUP3 ADD MSTORE PUSH32 0x5261696E64726F7020646F6573206E6F74206578697374000000000000000000 PUSH1 0x44 DUP3 ADD MSTORE PUSH1 0x64 SWAP1 REVERT JUMPDEST ISZERO PUSH2 0x1511 JUMPI JUMP JUMPDEST PUSH1 0x40 MLOAD PUSH3 0x461BCD PUSH1 0xE5 SHL DUP2 MSTORE PUSH1 0x20 PUSH1 0x4 DUP3 ADD MSTORE PUSH1 0xE PUSH1 0x24 DUP3 ADD MSTORE PUSH14 0x139BDD08185D5D1A1BDC9A5E9959 PUSH1 0x92 SHL PUSH1 0x44 DUP3 ADD MSTORE PUSH1 0x64 SWAP1 REVERT JUMPDEST ISZERO PUSH2 0x154E JUMPI JUMP JUMPDEST PUSH1 0x40 MLOAD PUSH3 0x461BCD PUSH1 0xE5 SHL DUP2 MSTORE PUSH1 0x20 PUSH1 0x4 DUP3 ADD MSTORE PUSH1 0x19 PUSH1 0x24 DUP3 ADD MSTORE PUSH32 0x5261696E64726F7020616C726561647920657865637574656400000000000000 PUSH1 0x44 DUP3 ADD MSTORE PUSH1 0x64 SWAP1 REVERT JUMPDEST ISZERO PUSH2 0x159A JUMPI JUMP JUMPDEST PUSH1 0x40 MLOAD PUSH3 0x461BCD PUSH1 0xE5 SHL DUP2 MSTORE PUSH1 0x20 PUSH1 0x4 DUP3 ADD MSTORE PUSH1 0x12 PUSH1 0x24 DUP3 ADD MSTORE PUSH18 0x14985A5B991C9BDC0818D85B98D95B1B1959 PUSH1 0x72 SHL PUSH1 0x44 DUP3 ADD MSTORE PUSH1 0x64 SWAP1 REVERT JUMPDEST DUP1 SLOAD DUP3 LT ISZERO PUSH2 0x15E9 JUMPI PUSH0 MSTORE PUSH1 0x20 PUSH0 KECCAK256 ADD SWAP1 PUSH0 SWAP1 JUMP JUMPDEST PUSH4 0x4E487B71 PUSH1 0xE0 SHL PUSH0 MSTORE PUSH1 0x32 PUSH1 0x4 MSTORE PUSH1 0x24 PUSH0 REVERT JUMPDEST DUP2 DUP2 MUL SWAP3 SWAP2 DUP2 ISZERO SWAP2 DUP5 DIV EQ OR ISZERO PUSH2 0x1494 JUMPI JUMP JUMPDEST DUP2 ISZERO PUSH2 0x161A JUMPI DIV SWAP1 JUMP JUMPDEST PUSH4 0x4E487B71 PUSH1 0xE0 SHL PUSH0 MSTORE PUSH1 0x12 PUSH1 0x4 MSTORE PUSH1 0x24 PUSH0 REVERT JUMPDEST PUSH1 0x2 PUSH0 SLOAD EQ PUSH2 0x163D JUMPI PUSH1 0x2 PUSH0 SSTORE JUMP JUMPDEST PUSH1 0x40 MLOAD PUSH3 0x461BCD PUSH1 0xE5 SHL DUP2 MSTORE PUSH1 0x20 PUSH1 0x4 DUP3 ADD MSTORE PUSH1 0x1F PUSH1 0x24 DUP3 ADD MSTORE PUSH32 0x5265656E7472616E637947756172643A207265656E7472616E742063616C6C00 PUSH1 0x44 DUP3 ADD MSTORE PUSH1 0x64 SWAP1 REVERT JUMPDEST PUSH1 0x1 SLOAD PUSH1 0x1 PUSH1 0x1 PUSH1 0xA0 SHL SUB AND CALLER SUB PUSH2 0x1696 JUMPI JUMP JUMPDEST PUSH4 0x118CDAA7 PUSH1 0xE0 SHL PUSH0 MSTORE CALLER PUSH1 0x4 MSTORE PUSH1 0x24 PUSH0 REVERT JUMPDEST PUSH1 0x40 MLOAD PUSH4 0xA9059CBB PUSH1 0xE0 SHL PUSH1 0x20 DUP3 ADD MSTORE PUSH1 0x1 PUSH1 0x1 PUSH1 0xA0 SHL SUB SWAP1 SWAP3 AND PUSH1 0x24 DUP4 ADD MSTORE PUSH1 0x44 DUP1 DUP4 ADD SWAP4 SWAP1 SWAP4 MSTORE SWAP2 DUP2 MSTORE PUSH2 0x16E9 SWAP2 PUSH2 0x16E4 PUSH1 0x64 DUP4 PUSH2 0x13B8 JUMP JUMPDEST PUSH2 0x16EB JUMP JUMPDEST JUMP JUMPDEST SWAP1 PUSH0 PUSH1 0x20 SWAP2 DUP3 DUP2 MLOAD SWAP2 ADD DUP3 DUP6 GAS CALL ISZERO PUSH2 0x1229 JUMPI PUSH0 MLOAD RETURNDATASIZE PUSH2 0x173A JUMPI POP PUSH1 0x1 PUSH1 0x1 PUSH1 0xA0 SHL SUB DUP2 AND EXTCODESIZE ISZERO JUMPDEST PUSH2 0x171A JUMPI POP JUMP JUMPDEST PUSH4 0x5274AFE7 PUSH1 0xE0 SHL PUSH0 SWAP1 DUP2 MSTORE PUSH1 0x1 PUSH1 0x1 PUSH1 0xA0 SHL SUB SWAP2 SWAP1 SWAP2 AND PUSH1 0x4 MSTORE PUSH1 0x24 SWAP1 REVERT JUMPDEST PUSH1 0x1 EQ ISZERO PUSH2 0x1713 JUMP INVALID LOG2 PUSH5 0x6970667358 0x22 SLT KECCAK256 STOP BLOCKHASH 0x2E PUSH2 0x3622 MLOAD SLOAD 0xCF 0xCA NUMBER 0xB2 SMOD DUP8 DUP15 SWAP9 SLT 0x4E 0xD0 MUL GT PUSH9 0x38944CBD6FE72339AD 0xC PUSH5 0x736F6C6343 STOP ADDMOD BYTE STOP CALLER "
		},
		"gasEstimates": {
			"creation": {
				"codeDepositCost": "1201800",
				"executionCost": "infinite",
				"totalCost": "infinite"
			},
			"external": {
				"MAX_PARTICIPANTS()": "516",
				"MIN_AMOUNT_PER_PARTICIPANT()": "233",
				"cancelRaindrop(string)": "infinite",
				"createRaindrop(string,address,uint256,uint256)": "infinite",
				"emergencyRecoverToken(address,uint256)": "infinite",
				"executeRaindrop(string)": "infinite",
				"feeRecipient()": "2338",
				"getParticipants(string)": "infinite",
				"getRaindropDetails(string)": "infinite",
				"owner()": "2492",
				"platformFeeBps()": "2292",
				"raindropExists(string)": "infinite",
				"raindrops(string)": "infinite",
				"renounceOwnership()": "28184",
				"transferOwnership(address)": "28515",
				"updateFeeRecipient(address)": "26951",
				"updateParticipants(string,address[])": "infinite",
				"updatePlatformFee(uint256)": "24702"
			}
		},
		"methodIdentifiers": {
			"MAX_PARTICIPANTS()": "f3baf070",
			"MIN_AMOUNT_PER_PARTICIPANT()": "4898ba63",
			"cancelRaindrop(string)": "9b0f14b5",
			"createRaindrop(string,address,uint256,uint256)": "02749be7",
			"emergencyRecoverToken(address,uint256)": "79020194",
			"executeRaindrop(string)": "9a43dc0c",
			"feeRecipient()": "46904840",
			"getParticipants(string)": "7e90def7",
			"getRaindropDetails(string)": "72521d47",
			"owner()": "8da5cb5b",
			"platformFeeBps()": "22dcd13e",
			"raindropExists(string)": "0d12cba2",
			"raindrops(string)": "b28a9d6f",
			"renounceOwnership()": "715018a6",
			"transferOwnership(address)": "f2fde38b",
			"updateFeeRecipient(address)": "f160d369",
			"updateParticipants(string,address[])": "6b0db1fa",
			"updatePlatformFee(uint256)": "aa0b5988"
		}
	},
	"abi": [
		{
			"inputs": [
				{
					"internalType": "address",
					"name": "_feeRecipient",
					"type": "address"
				}
			],
			"stateMutability": "nonpayable",
			"type": "constructor"
		},
		{
			"inputs": [
				{
					"internalType": "address",
					"name": "owner",
					"type": "address"
				}
			],
			"name": "OwnableInvalidOwner",
			"type": "error"
		},
		{
			"inputs": [
				{
					"internalType": "address",
					"name": "account",
					"type": "address"
				}
			],
			"name": "OwnableUnauthorizedAccount",
			"type": "error"
		},
		{
			"inputs": [
				{
					"internalType": "address",
					"name": "token",
					"type": "address"
				}
			],
			"name": "SafeERC20FailedOperation",
			"type": "error"
		},
		{
			"anonymous": false,
			"inputs": [
				{
					"indexed": true,
					"internalType": "address",
					"name": "previousOwner",
					"type": "address"
				},
				{
					"indexed": true,
					"internalType": "address",
					"name": "newOwner",
					"type": "address"
				}
			],
			"name": "OwnershipTransferred",
			"type": "event"
		},
		{
			"anonymous": false,
			"inputs": [
				{
					"indexed": true,
					"internalType": "string",
					"name": "raindropId",
					"type": "string"
				},
				{
					"indexed": false,
					"internalType": "uint256",
					"name": "participantCount",
					"type": "uint256"
				}
			],
			"name": "ParticipantsUpdated",
			"type": "event"
		},
		{
			"anonymous": false,
			"inputs": [
				{
					"indexed": true,
					"internalType": "string",
					"name": "raindropId",
					"type": "string"
				},
				{
					"indexed": true,
					"internalType": "address",
					"name": "host",
					"type": "address"
				},
				{
					"indexed": false,
					"internalType": "uint256",
					"name": "refundAmount",
					"type": "uint256"
				}
			],
			"name": "RaindropCancelled",
			"type": "event"
		},
		{
			"anonymous": false,
			"inputs": [
				{
					"indexed": true,
					"internalType": "string",
					"name": "raindropId",
					"type": "string"
				},
				{
					"indexed": true,
					"internalType": "address",
					"name": "host",
					"type": "address"
				},
				{
					"indexed": true,
					"internalType": "address",
					"name": "token",
					"type": "address"
				},
				{
					"indexed": false,
					"internalType": "uint256",
					"name": "totalAmount",
					"type": "uint256"
				},
				{
					"indexed": false,
					"internalType": "uint256",
					"name": "scheduledTime",
					"type": "uint256"
				}
			],
			"name": "RaindropCreated",
			"type": "event"
		},
		{
			"anonymous": false,
			"inputs": [
				{
					"indexed": true,
					"internalType": "string",
					"name": "raindropId",
					"type": "string"
				},
				{
					"indexed": false,
					"internalType": "uint256",
					"name": "participantCount",
					"type": "uint256"
				},
				{
					"indexed": false,
					"internalType": "uint256",
					"name": "amountPerParticipant",
					"type": "uint256"
				},
				{
					"indexed": false,
					"internalType": "uint256",
					"name": "totalDistributed",
					"type": "uint256"
				}
			],
			"name": "RaindropExecuted",
			"type": "event"
		},
		{
			"inputs": [],
			"name": "MAX_PARTICIPANTS",
			"outputs": [
				{
					"internalType": "uint256",
					"name": "",
					"type": "uint256"
				}
			],
			"stateMutability": "view",
			"type": "function"
		},
		{
			"inputs": [],
			"name": "MIN_AMOUNT_PER_PARTICIPANT",
			"outputs": [
				{
					"internalType": "uint256",
					"name": "",
					"type": "uint256"
				}
			],
			"stateMutability": "view",
			"type": "function"
		},
		{
			"inputs": [
				{
					"internalType": "string",
					"name": "raindropId",
					"type": "string"
				}
			],
			"name": "cancelRaindrop",
			"outputs": [],
			"stateMutability": "nonpayable",
			"type": "function"
		},
		{
			"inputs": [
				{
					"internalType": "string",
					"name": "raindropId",
					"type": "string"
				},
				{
					"internalType": "address",
					"name": "token",
					"type": "address"
				},
				{
					"internalType": "uint256",
					"name": "totalAmount",
					"type": "uint256"
				},
				{
					"internalType": "uint256",
					"name": "scheduledTime",
					"type": "uint256"
				}
			],
			"name": "createRaindrop",
			"outputs": [],
			"stateMutability": "nonpayable",
			"type": "function"
		},
		{
			"inputs": [
				{
					"internalType": "address",
					"name": "token",
					"type": "address"
				},
				{
					"internalType": "uint256",
					"name": "amount",
					"type": "uint256"
				}
			],
			"name": "emergencyRecoverToken",
			"outputs": [],
			"stateMutability": "nonpayable",
			"type": "function"
		},
		{
			"inputs": [
				{
					"internalType": "string",
					"name": "raindropId",
					"type": "string"
				}
			],
			"name": "executeRaindrop",
			"outputs": [],
			"stateMutability": "nonpayable",
			"type": "function"
		},
		{
			"inputs": [],
			"name": "feeRecipient",
			"outputs": [
				{
					"internalType": "address",
					"name": "",
					"type": "address"
				}
			],
			"stateMutability": "view",
			"type": "function"
		},
		{
			"inputs": [
				{
					"internalType": "string",
					"name": "raindropId",
					"type": "string"
				}
			],
			"name": "getParticipants",
			"outputs": [
				{
					"internalType": "address[]",
					"name": "",
					"type": "address[]"
				}
			],
			"stateMutability": "view",
			"type": "function"
		},
		{
			"inputs": [
				{
					"internalType": "string",
					"name": "raindropId",
					"type": "string"
				}
			],
			"name": "getRaindropDetails",
			"outputs": [
				{
					"internalType": "address",
					"name": "host",
					"type": "address"
				},
				{
					"internalType": "address",
					"name": "token",
					"type": "address"
				},
				{
					"internalType": "uint256",
					"name": "totalAmount",
					"type": "uint256"
				},
				{
					"internalType": "uint256",
					"name": "scheduledTime",
					"type": "uint256"
				},
				{
					"internalType": "bool",
					"name": "executed",
					"type": "bool"
				},
				{
					"internalType": "bool",
					"name": "cancelled",
					"type": "bool"
				},
				{
					"internalType": "uint256",
					"name": "participantCount",
					"type": "uint256"
				}
			],
			"stateMutability": "view",
			"type": "function"
		},
		{
			"inputs": [],
			"name": "owner",
			"outputs": [
				{
					"internalType": "address",
					"name": "",
					"type": "address"
				}
			],
			"stateMutability": "view",
			"type": "function"
		},
		{
			"inputs": [],
			"name": "platformFeeBps",
			"outputs": [
				{
					"internalType": "uint256",
					"name": "",
					"type": "uint256"
				}
			],
			"stateMutability": "view",
			"type": "function"
		},
		{
			"inputs": [
				{
					"internalType": "string",
					"name": "",
					"type": "string"
				}
			],
			"name": "raindropExists",
			"outputs": [
				{
					"internalType": "bool",
					"name": "",
					"type": "bool"
				}
			],
			"stateMutability": "view",
			"type": "function"
		},
		{
			"inputs": [
				{
					"internalType": "string",
					"name": "",
					"type": "string"
				}
			],
			"name": "raindrops",
			"outputs": [
				{
					"internalType": "string",
					"name": "raindropId",
					"type": "string"
				},
				{
					"internalType": "address",
					"name": "host",
					"type": "address"
				},
				{
					"internalType": "address",
					"name": "token",
					"type": "address"
				},
				{
					"internalType": "uint256",
					"name": "totalAmount",
					"type": "uint256"
				},
				{
					"internalType": "uint256",
					"name": "scheduledTime",
					"type": "uint256"
				},
				{
					"internalType": "bool",
					"name": "executed",
					"type": "bool"
				},
				{
					"internalType": "bool",
					"name": "cancelled",
					"type": "bool"
				},
				{
					"internalType": "uint256",
					"name": "participantCount",
					"type": "uint256"
				}
			],
			"stateMutability": "view",
			"type": "function"
		},
		{
			"inputs": [],
			"name": "renounceOwnership",
			"outputs": [],
			"stateMutability": "nonpayable",
			"type": "function"
		},
		{
			"inputs": [
				{
					"internalType": "address",
					"name": "newOwner",
					"type": "address"
				}
			],
			"name": "transferOwnership",
			"outputs": [],
			"stateMutability": "nonpayable",
			"type": "function"
		},
		{
			"inputs": [
				{
					"internalType": "address",
					"name": "newFeeRecipient",
					"type": "address"
				}
			],
			"name": "updateFeeRecipient",
			"outputs": [],
			"stateMutability": "nonpayable",
			"type": "function"
		},
		{
			"inputs": [
				{
					"internalType": "string",
					"name": "raindropId",
					"type": "string"
				},
				{
					"internalType": "address[]",
					"name": "participants",
					"type": "address[]"
				}
			],
			"name": "updateParticipants",
			"outputs": [],
			"stateMutability": "nonpayable",
			"type": "function"
		},
		{
			"inputs": [
				{
					"internalType": "uint256",
					"name": "newFeeBps",
					"type": "uint256"
				}
			],
			"name": "updatePlatformFee",
			"outputs": [],
			"stateMutability": "nonpayable",
			"type": "function"
		}
	]
}