{
	"data": {
		"bytecode": {
			"linkReferences": {},
			"object": "60803461019057601f6110d638819003918201601f19168301916001600160401b0383118484101761019457808492604094855283398101031261019057610052602061004b836101a8565b92016101a8565b331561017d575f8054336001600160a01b0319821681178355604051949290916001600160a01b0316907f8be0079c531659141344cd1fd0a4f28419497f9722a3daafe3b4186f6b6457e09080a36001600160a01b0316918215158061016b575b1561013e5750600180546001600160a01b03199081168417909155600280549091166001600160a01b03929092169182179055604051917f7aed1d3e8155a07ccf395e44ea3109a0e2d6c9b29bbbe9f142d9790596f4dc805f80a27f5f85e7e522385144040f94bcb1eeaeb07da5e11d6384c124c09f53986d0ed8bc5f80a2610f1990816101bd8239f35b62461bcd60e51b81526020600482015260086024820152672d32b937a0b2323960c11b6044820152606490fd5b506001600160a01b03821615156100b3565b631e4fbdf760e01b5f525f60045260245ffd5b5f80fd5b634e487b7160e01b5f52604160045260245ffd5b51906001600160a01b03821682036101905756fe6080604052600436101561001a575b3615610018575f80fd5b005b5f803560e01c8063023884b7146109715780631c58db4f146108a45780633fc8cef31461087b57806351e820e7146107175780635b769f3c146106a8578063715018a61461064e5780638da5cb5b146106275780638e2fdfa41461045d5780639eaa19831461032b578063c0d78655146102bc578063ed2f21f514610281578063f018a8c114610170578063f2fde38b146100ea5763f887ea40146100bf575061000e565b346100e757806003193601126100e7576001546040516001600160a01b039091168152602090f35b80fd5b50346100e75760203660031901126100e757610104610b35565b61010c610ebd565b6001600160a01b0316801561015c5781546001600160a01b03198116821783556001600160a01b03167f8be0079c531659141344cd1fd0a4f28419497f9722a3daafe3b4186f6b6457e08380a380f35b631e4fbdf760e01b82526004829052602482fd5b50346100e75760203660031901126100e7576002546004359082906001600160a01b0316803b1561027257818091602460405180948193632e1a7d4d60e01b83528860048401525af180156102765761025d575b5080808084335af13d15610258573d6101dc81610d2d565b906101ea6040519283610c5c565b81528360203d92013e5b15610228576040519081527f95ae649bfaaef9def56a52f4fb2d9e8fa5496bb7082930e442c74cc76b03dcb360203392a280f35b60405162461bcd60e51b815260206004820152600860248201526714d95b9911985a5b60c21b6044820152606490fd5b6101f4565b8161026791610c5c565b61027257815f6101c4565b5080fd5b6040513d84823e3d90fd5b50346100e757806003193601126100e75760206040517fc4e0f79f70db4b2ce509cf1e4adb5fb99d03350de03fafd915b46124a7b5dd288152f35b50346100e75760203660031901126100e7576102d6610b35565b6102de610ebd565b6001600160a01b03166102f2811515610cf6565b600180546001600160a01b031916821790557f7aed1d3e8155a07ccf395e44ea3109a0e2d6c9b29bbbe9f142d9790596f4dc808280a280f35b50346100e757806103c461036660209361034436610b9d565b600154939a9598949792939192918b916001600160a01b039182169116610e13565b60018060a01b0360015416916040519161037f83610c40565b61038a36898b610d49565b835233868401526040830152896060830152608082015260405194858094819363c04b8d5960e01b83528760048401526024830190610d7f565b03925af19384156104515793610418575b506020937f459322b794f649891286454db465d0eed0ee1c64f4e314f184014f24028d40779161040d85604051938493339785610dde565b0390a2604051908152f35b9092506020813d602011610449575b8161043460209383610c5c565b8101031261044557519160206103d5565b5f80fd5b3d9150610427565b604051903d90823e3d90fd5b50346100e7578060206104fa61047236610b9d565b6001549399959794966001600160a01b039182169593949092916104999186911687610e13565b6001546040516001600160a01b03909116916104b482610c40565b6104bf368a8c610d49565b8252338583015260408201528a6060820152846080820152604051998a80948193631e51809360e31b83528760048401526024830190610d7f565b03925af195861561061c5783966105e8575b50851061054d575b50506020937f61982354c6e19eaebbe0c4376bde59016aad8d6d049a71ec6cdbb157c4d63bf39161040d85604051938493339785610dde565b60208291604460018060a01b0360015416604051958693849263095ea7b360e01b845260048401528160248401525af1908115610451575091602095917f61982354c6e19eaebbe0c4376bde59016aad8d6d049a71ec6cdbb157c4d63bf3936105bb575b5091819550610514565b6105da90873d89116105e1575b6105d28183610c5c565b810190610cde565b505f6105b1565b503d6105c8565b9095506020813d602011610614575b8161060460209383610c5c565b810103126104455751945f61050c565b3d91506105f7565b6040513d85823e3d90fd5b50346100e757806003193601126100e757546040516001600160a01b039091168152602090f35b50346100e757806003193601126100e757610667610ebd565b80546001600160a01b03198116825581906001600160a01b03167f8be0079c531659141344cd1fd0a4f28419497f9722a3daafe3b4186f6b6457e08280a380f35b50346100e75760203660031901126100e7576106c2610b35565b6106ca610ebd565b6001600160a01b03166106de811515610cf6565b600280546001600160a01b031916821790557f5f85e7e522385144040f94bcb1eeaeb07da5e11d6384c124c09f53986d0ed8bc8280a280f35b50346100e7576107c590602061010461072f36610b4b565b96929460018060a09b949b989396981b0316956107578a60018060a01b036001541689610e13565b60018060a01b0360015416946040519161077083610c0f565b88835260018060a01b031698898684015262ffffff8816604084015233606084015260808301528a60a083015260c08201528860e082015288604051958694859363414bf38960e01b85526004850190610c7e565b5af19485156104515794610825575b506040805162ffffff9092168252602082810196909652810184905233907fa0eab23d718fd05cf523c2400b0a13d8681222f055452f738a5b50ef83e829569080606081015b0390a4604051908152f35b9493506020853d602011610873575b8161084160209383610c5c565b8101031261044557935192937fa0eab23d718fd05cf523c2400b0a13d8681222f055452f738a5b50ef83e829566107d4565b3d9150610834565b50346100e757806003193601126100e7576002546040516001600160a01b039091168152602090f35b50602036600319011261044557600435803403610941576002546001600160a01b0316803b15610445575f8291600460405180948193630d0e30db60e41b83525af1801561093657610921575b506040519081527f4700c1726b4198077cd40320a32c45265a1910521eb0ef713dd1d8412413d7fc60203392a280f35b61092e9192505f90610c5c565b5f905f6108f1565b6040513d5f823e3d90fd5b60405162461bcd60e51b815260206004820152600860248201526742616456616c756560c01b6044820152606490fd5b346104455761097f36610b4b565b600154929590936001600160a01b03918216939092916109a29183911685610e13565b6020610a1961010460018060a01b036001541697604051906109c382610c0f565b87825260018060a01b031697888583015262ffffff8716604083015233606083015260808201528960a08201528460c08201525f60e08201525f604051998a948593631b67c43360e31b85526004850190610c7e565b5af1948515610936575f95610b01575b508410610a7a575b6040805162ffffff9092168252602082810196909652810184905233907f72e4e8885b9b7bf72254c4f959b634e6f85ed5c2b83a39bd986cfca59185045090806060810161081a565b60018060a01b03600154166040519063095ea7b360e01b825260048201525f60248201526020816044815f875af18015610936576020967f72e4e8885b9b7bf72254c4f959b634e6f85ed5c2b83a39bd986cfca591850450928792610ae4575b5096505050610a31565b610afa90893d8b116105e1576105d28183610c5c565b5088610ada565b9094506020813d602011610b2d575b81610b1d60209383610c5c565b8101031261044557519386610a29565b3d9150610b10565b600435906001600160a01b038216820361044557565b60c0906003190112610445576004356001600160a01b038116810361044557906024356001600160a01b0381168103610445579060443562ffffff811681036104455790606435906084359060a43590565b9060a06003198301126104455760043567ffffffffffffffff811161044557826023820112156104455780600401359267ffffffffffffffff84116104455760248483010111610445576024908101929190359060443590606435906084356001600160a01b03811681036104455790565b610100810190811067ffffffffffffffff821117610c2c57604052565b634e487b7160e01b5f52604160045260245ffd5b60a0810190811067ffffffffffffffff821117610c2c57604052565b90601f8019910116810190811067ffffffffffffffff821117610c2c57604052565b80516001600160a01b03908116835260208083015182169084015260408083015162ffffff16908401526060808301518216908401526080808301519084015260a0808301519084015260c0808301519084015260e09182015116910152565b90816020910312610445575180151581036104455790565b15610cfd57565b60405162461bcd60e51b81526020600482015260086024820152672d32b937a0b2323960c11b6044820152606490fd5b67ffffffffffffffff8111610c2c57601f01601f191660200190565b929192610d5582610d2d565b91610d636040519384610c5c565b829481845281830111610445578281602093845f960137010152565b906020608060c093805160a0855280519384918260a0880152018686015e5f8484018601526020818101516001600160a01b031690850152604080820151908501526060808201519085015201516080830152601f01601f1916010190565b90826040936080929796959760608552816060860152838501375f828285010152601f80199101168201019460208201520152565b60018060a01b0316916040519163095ea7b360e01b835260018060a01b03168060048401525f60248401526020836044815f885af190811561093657602093604492610ea2575b505f604051958694859363095ea7b360e01b8552600485015260248401525af1801561093657610e875750565b610e9f9060203d6020116105e1576105d28183610c5c565b50565b610eb890853d87116105e1576105d28183610c5c565b610e5a565b5f546001600160a01b03163303610ed057565b63118cdaa760e01b5f523360045260245ffdfea2646970667358221220452ae4fa35cc23a47d24bf57a4b044fc583e23071ff06f0dc1da0c1c226e94de64736f6c634300081a0033",
			"opcodes": "PUSH1 0x80 CALLVALUE PUSH2 0x190 JUMPI PUSH1 0x1F PUSH2 0x10D6 CODESIZE DUP2 SWAP1 SUB SWAP2 DUP3 ADD PUSH1 0x1F NOT AND DUP4 ADD SWAP2 PUSH1 0x1 PUSH1 0x1 PUSH1 0x40 SHL SUB DUP4 GT DUP5 DUP5 LT OR PUSH2 0x194 JUMPI DUP1 DUP5 SWAP3 PUSH1 0x40 SWAP5 DUP6 MSTORE DUP4 CODECOPY DUP2 ADD SUB SLT PUSH2 0x190 JUMPI PUSH2 0x52 PUSH1 0x20 PUSH2 0x4B DUP4 PUSH2 0x1A8 JUMP JUMPDEST SWAP3 ADD PUSH2 0x1A8 JUMP JUMPDEST CALLER ISZERO PUSH2 0x17D JUMPI PUSH0 DUP1 SLOAD CALLER PUSH1 0x1 PUSH1 0x1 PUSH1 0xA0 SHL SUB NOT DUP3 AND DUP2 OR DUP4 SSTORE PUSH1 0x40 MLOAD SWAP5 SWAP3 SWAP1 SWAP2 PUSH1 0x1 PUSH1 0x1 PUSH1 0xA0 SHL SUB AND SWAP1 PUSH32 0x8BE0079C531659141344CD1FD0A4F28419497F9722A3DAAFE3B4186F6B6457E0 SWAP1 DUP1 LOG3 PUSH1 0x1 PUSH1 0x1 PUSH1 0xA0 SHL SUB AND SWAP2 DUP3 ISZERO ISZERO DUP1 PUSH2 0x16B JUMPI JUMPDEST ISZERO PUSH2 0x13E JUMPI POP PUSH1 0x1 DUP1 SLOAD PUSH1 0x1 PUSH1 0x1 PUSH1 0xA0 SHL SUB NOT SWAP1 DUP2 AND DUP5 OR SWAP1 SWAP2 SSTORE PUSH1 0x2 DUP1 SLOAD SWAP1 SWAP2 AND PUSH1 0x1 PUSH1 0x1 PUSH1 0xA0 SHL SUB SWAP3 SWAP1 SWAP3 AND SWAP2 DUP3 OR SWAP1 SSTORE PUSH1 0x40 MLOAD SWAP2 PUSH32 0x7AED1D3E8155A07CCF395E44EA3109A0E2D6C9B29BBBE9F142D9790596F4DC80 PUSH0 DUP1 LOG2 PUSH32 0x5F85E7E522385144040F94BCB1EEAEB07DA5E11D6384C124C09F53986D0ED8BC PUSH0 DUP1 LOG2 PUSH2 0xF19 SWAP1 DUP2 PUSH2 0x1BD DUP3 CODECOPY RETURN JUMPDEST PUSH3 0x461BCD PUSH1 0xE5 SHL DUP2 MSTORE PUSH1 0x20 PUSH1 0x4 DUP3 ADD MSTORE PUSH1 0x8 PUSH1 0x24 DUP3 ADD MSTORE PUSH8 0x2D32B937A0B23239 PUSH1 0xC1 SHL PUSH1 0x44 DUP3 ADD MSTORE PUSH1 0x64 SWAP1 REVERT JUMPDEST POP PUSH1 0x1 PUSH1 0x1 PUSH1 0xA0 SHL SUB DUP3 AND ISZERO ISZERO PUSH2 0xB3 JUMP JUMPDEST PUSH4 0x1E4FBDF7 PUSH1 0xE0 SHL PUSH0 MSTORE PUSH0 PUSH1 0x4 MSTORE PUSH1 0x24 PUSH0 REVERT JUMPDEST PUSH0 DUP1 REVERT JUMPDEST PUSH4 0x4E487B71 PUSH1 0xE0 SHL PUSH0 MSTORE PUSH1 0x41 PUSH1 0x4 MSTORE PUSH1 0x24 PUSH0 REVERT JUMPDEST MLOAD SWAP1 PUSH1 0x1 PUSH1 0x1 PUSH1 0xA0 SHL SUB DUP3 AND DUP3 SUB PUSH2 0x190 JUMPI JUMP INVALID PUSH1 0x80 PUSH1 0x40 MSTORE PUSH1 0x4 CALLDATASIZE LT ISZERO PUSH2 0x1A JUMPI JUMPDEST CALLDATASIZE ISZERO PUSH2 0x18 JUMPI PUSH0 DUP1 REVERT JUMPDEST STOP JUMPDEST PUSH0 DUP1 CALLDATALOAD PUSH1 0xE0 SHR DUP1 PUSH4 0x23884B7 EQ PUSH2 0x971 JUMPI DUP1 PUSH4 0x1C58DB4F EQ PUSH2 0x8A4 JUMPI DUP1 PUSH4 0x3FC8CEF3 EQ PUSH2 0x87B JUMPI DUP1 PUSH4 0x51E820E7 EQ PUSH2 0x717 JUMPI DUP1 PUSH4 0x5B769F3C EQ PUSH2 0x6A8 JUMPI DUP1 PUSH4 0x715018A6 EQ PUSH2 0x64E JUMPI DUP1 PUSH4 0x8DA5CB5B EQ PUSH2 0x627 JUMPI DUP1 PUSH4 0x8E2FDFA4 EQ PUSH2 0x45D JUMPI DUP1 PUSH4 0x9EAA1983 EQ PUSH2 0x32B JUMPI DUP1 PUSH4 0xC0D78655 EQ PUSH2 0x2BC JUMPI DUP1 PUSH4 0xED2F21F5 EQ PUSH2 0x281 JUMPI DUP1 PUSH4 0xF018A8C1 EQ PUSH2 0x170 JUMPI DUP1 PUSH4 0xF2FDE38B EQ PUSH2 0xEA JUMPI PUSH4 0xF887EA40 EQ PUSH2 0xBF JUMPI POP PUSH2 0xE JUMP JUMPDEST CALLVALUE PUSH2 0xE7 JUMPI DUP1 PUSH1 0x3 NOT CALLDATASIZE ADD SLT PUSH2 0xE7 JUMPI PUSH1 0x1 SLOAD PUSH1 0x40 MLOAD PUSH1 0x1 PUSH1 0x1 PUSH1 0xA0 SHL SUB SWAP1 SWAP2 AND DUP2 MSTORE PUSH1 0x20 SWAP1 RETURN JUMPDEST DUP1 REVERT JUMPDEST POP CALLVALUE PUSH2 0xE7 JUMPI PUSH1 0x20 CALLDATASIZE PUSH1 0x3 NOT ADD SLT PUSH2 0xE7 JUMPI PUSH2 0x104 PUSH2 0xB35 JUMP JUMPDEST PUSH2 0x10C PUSH2 0xEBD JUMP JUMPDEST PUSH1 0x1 PUSH1 0x1 PUSH1 0xA0 SHL SUB AND DUP1 ISZERO PUSH2 0x15C JUMPI DUP2 SLOAD PUSH1 0x1 PUSH1 0x1 PUSH1 0xA0 SHL SUB NOT DUP2 AND DUP3 OR DUP4 SSTORE PUSH1 0x1 PUSH1 0x1 PUSH1 0xA0 SHL SUB AND PUSH32 0x8BE0079C531659141344CD1FD0A4F28419497F9722A3DAAFE3B4186F6B6457E0 DUP4 DUP1 LOG3 DUP1 RETURN JUMPDEST PUSH4 0x1E4FBDF7 PUSH1 0xE0 SHL DUP3 MSTORE PUSH1 0x4 DUP3 SWAP1 MSTORE PUSH1 0x24 DUP3 REVERT JUMPDEST POP CALLVALUE PUSH2 0xE7 JUMPI PUSH1 0x20 CALLDATASIZE PUSH1 0x3 NOT ADD SLT PUSH2 0xE7 JUMPI PUSH1 0x2 SLOAD PUSH1 0x4 CALLDATALOAD SWAP1 DUP3 SWAP1 PUSH1 0x1 PUSH1 0x1 PUSH1 0xA0 SHL SUB AND DUP1 EXTCODESIZE ISZERO PUSH2 0x272 JUMPI DUP2 DUP1 SWAP2 PUSH1 0x24 PUSH1 0x40 MLOAD DUP1 SWAP5 DUP2 SWAP4 PUSH4 0x2E1A7D4D PUSH1 0xE0 SHL DUP4 MSTORE DUP9 PUSH1 0x4 DUP5 ADD MSTORE GAS CALL DUP1 ISZERO PUSH2 0x276 JUMPI PUSH2 0x25D JUMPI JUMPDEST POP DUP1 DUP1 DUP1 DUP5 CALLER GAS CALL RETURNDATASIZE ISZERO PUSH2 0x258 JUMPI RETURNDATASIZE PUSH2 0x1DC DUP2 PUSH2 0xD2D JUMP JUMPDEST SWAP1 PUSH2 0x1EA PUSH1 0x40 MLOAD SWAP3 DUP4 PUSH2 0xC5C JUMP JUMPDEST DUP2 MSTORE DUP4 PUSH1 0x20 RETURNDATASIZE SWAP3 ADD RETURNDATACOPY JUMPDEST ISZERO PUSH2 0x228 JUMPI PUSH1 0x40 MLOAD SWAP1 DUP2 MSTORE PUSH32 0x95AE649BFAAEF9DEF56A52F4FB2D9E8FA5496BB7082930E442C74CC76B03DCB3 PUSH1 0x20 CALLER SWAP3 LOG2 DUP1 RETURN JUMPDEST PUSH1 0x40 MLOAD PUSH3 0x461BCD PUSH1 0xE5 SHL DUP2 MSTORE PUSH1 0x20 PUSH1 0x4 DUP3 ADD MSTORE PUSH1 0x8 PUSH1 0x24 DUP3 ADD MSTORE PUSH8 0x14D95B9911985A5B PUSH1 0xC2 SHL PUSH1 0x44 DUP3 ADD MSTORE PUSH1 0x64 SWAP1 REVERT JUMPDEST PUSH2 0x1F4 JUMP JUMPDEST DUP2 PUSH2 0x267 SWAP2 PUSH2 0xC5C JUMP JUMPDEST PUSH2 0x272 JUMPI DUP2 PUSH0 PUSH2 0x1C4 JUMP JUMPDEST POP DUP1 REVERT JUMPDEST PUSH1 0x40 MLOAD RETURNDATASIZE DUP5 DUP3 RETURNDATACOPY RETURNDATASIZE SWAP1 REVERT JUMPDEST POP CALLVALUE PUSH2 0xE7 JUMPI DUP1 PUSH1 0x3 NOT CALLDATASIZE ADD SLT PUSH2 0xE7 JUMPI PUSH1 0x20 PUSH1 0x40 MLOAD PUSH32 0xC4E0F79F70DB4B2CE509CF1E4ADB5FB99D03350DE03FAFD915B46124A7B5DD28 DUP2 MSTORE RETURN JUMPDEST POP CALLVALUE PUSH2 0xE7 JUMPI PUSH1 0x20 CALLDATASIZE PUSH1 0x3 NOT ADD SLT PUSH2 0xE7 JUMPI PUSH2 0x2D6 PUSH2 0xB35 JUMP JUMPDEST PUSH2 0x2DE PUSH2 0xEBD JUMP JUMPDEST PUSH1 0x1 PUSH1 0x1 PUSH1 0xA0 SHL SUB AND PUSH2 0x2F2 DUP2 ISZERO ISZERO PUSH2 0xCF6 JUMP JUMPDEST PUSH1 0x1 DUP1 SLOAD PUSH1 0x1 PUSH1 0x1 PUSH1 0xA0 SHL SUB NOT AND DUP3 OR SWAP1 SSTORE PUSH32 0x7AED1D3E8155A07CCF395E44EA3109A0E2D6C9B29BBBE9F142D9790596F4DC80 DUP3 DUP1 LOG2 DUP1 RETURN JUMPDEST POP CALLVALUE PUSH2 0xE7 JUMPI DUP1 PUSH2 0x3C4 PUSH2 0x366 PUSH1 0x20 SWAP4 PUSH2 0x344 CALLDATASIZE PUSH2 0xB9D JUMP JUMPDEST PUSH1 0x1 SLOAD SWAP4 SWAP11 SWAP6 SWAP9 SWAP5 SWAP8 SWAP3 SWAP4 SWAP2 SWAP3 SWAP2 DUP12 SWAP2 PUSH1 0x1 PUSH1 0x1 PUSH1 0xA0 SHL SUB SWAP2 DUP3 AND SWAP2 AND PUSH2 0xE13 JUMP JUMPDEST PUSH1 0x1 DUP1 PUSH1 0xA0 SHL SUB PUSH1 0x1 SLOAD AND SWAP2 PUSH1 0x40 MLOAD SWAP2 PUSH2 0x37F DUP4 PUSH2 0xC40 JUMP JUMPDEST PUSH2 0x38A CALLDATASIZE DUP10 DUP12 PUSH2 0xD49 JUMP JUMPDEST DUP4 MSTORE CALLER DUP7 DUP5 ADD MSTORE PUSH1 0x40 DUP4 ADD MSTORE DUP10 PUSH1 0x60 DUP4 ADD MSTORE PUSH1 0x80 DUP3 ADD MSTORE PUSH1 0x40 MLOAD SWAP5 DUP6 DUP1 SWAP5 DUP2 SWAP4 PUSH4 0xC04B8D59 PUSH1 0xE0 SHL DUP4 MSTORE DUP8 PUSH1 0x4 DUP5 ADD MSTORE PUSH1 0x24 DUP4 ADD SWAP1 PUSH2 0xD7F JUMP JUMPDEST SUB SWAP3 GAS CALL SWAP4 DUP5 ISZERO PUSH2 0x451 JUMPI SWAP4 PUSH2 0x418 JUMPI JUMPDEST POP PUSH1 0x20 SWAP4 PUSH32 0x459322B794F649891286454DB465D0EED0EE1C64F4E314F184014F24028D4077 SWAP2 PUSH2 0x40D DUP6 PUSH1 0x40 MLOAD SWAP4 DUP5 SWAP4 CALLER SWAP8 DUP6 PUSH2 0xDDE JUMP JUMPDEST SUB SWAP1 LOG2 PUSH1 0x40 MLOAD SWAP1 DUP2 MSTORE RETURN JUMPDEST SWAP1 SWAP3 POP PUSH1 0x20 DUP2 RETURNDATASIZE PUSH1 0x20 GT PUSH2 0x449 JUMPI JUMPDEST DUP2 PUSH2 0x434 PUSH1 0x20 SWAP4 DUP4 PUSH2 0xC5C JUMP JUMPDEST DUP2 ADD SUB SLT PUSH2 0x445 JUMPI MLOAD SWAP2 PUSH1 0x20 PUSH2 0x3D5 JUMP JUMPDEST PUSH0 DUP1 REVERT JUMPDEST RETURNDATASIZE SWAP2 POP PUSH2 0x427 JUMP JUMPDEST PUSH1 0x40 MLOAD SWAP1 RETURNDATASIZE SWAP1 DUP3 RETURNDATACOPY RETURNDATASIZE SWAP1 REVERT JUMPDEST POP CALLVALUE PUSH2 0xE7 JUMPI DUP1 PUSH1 0x20 PUSH2 0x4FA PUSH2 0x472 CALLDATASIZE PUSH2 0xB9D JUMP JUMPDEST PUSH1 0x1 SLOAD SWAP4 SWAP10 SWAP6 SWAP8 SWAP5 SWAP7 PUSH1 0x1 PUSH1 0x1 PUSH1 0xA0 SHL SUB SWAP2 DUP3 AND SWAP6 SWAP4 SWAP5 SWAP1 SWAP3 SWAP2 PUSH2 0x499 SWAP2 DUP7 SWAP2 AND DUP8 PUSH2 0xE13 JUMP JUMPDEST PUSH1 0x1 SLOAD PUSH1 0x40 MLOAD PUSH1 0x1 PUSH1 0x1 PUSH1 0xA0 SHL SUB SWAP1 SWAP2 AND SWAP2 PUSH2 0x4B4 DUP3 PUSH2 0xC40 JUMP JUMPDEST PUSH2 0x4BF CALLDATASIZE DUP11 DUP13 PUSH2 0xD49 JUMP JUMPDEST DUP3 MSTORE CALLER DUP6 DUP4 ADD MSTORE PUSH1 0x40 DUP3 ADD MSTORE DUP11 PUSH1 0x60 DUP3 ADD MSTORE DUP5 PUSH1 0x80 DUP3 ADD MSTORE PUSH1 0x40 MLOAD SWAP10 DUP11 DUP1 SWAP5 DUP2 SWAP4 PUSH4 0x1E518093 PUSH1 0xE3 SHL DUP4 MSTORE DUP8 PUSH1 0x4 DUP5 ADD MSTORE PUSH1 0x24 DUP4 ADD SWAP1 PUSH2 0xD7F JUMP JUMPDEST SUB SWAP3 GAS CALL SWAP6 DUP7 ISZERO PUSH2 0x61C JUMPI DUP4 SWAP7 PUSH2 0x5E8 JUMPI JUMPDEST POP DUP6 LT PUSH2 0x54D JUMPI JUMPDEST POP POP PUSH1 0x20 SWAP4 PUSH32 0x61982354C6E19EAEBBE0C4376BDE59016AAD8D6D049A71EC6CDBB157C4D63BF3 SWAP2 PUSH2 0x40D DUP6 PUSH1 0x40 MLOAD SWAP4 DUP5 SWAP4 CALLER SWAP8 DUP6 PUSH2 0xDDE JUMP JUMPDEST PUSH1 0x20 DUP3 SWAP2 PUSH1 0x44 PUSH1 0x1 DUP1 PUSH1 0xA0 SHL SUB PUSH1 0x1 SLOAD AND PUSH1 0x40 MLOAD SWAP6 DUP7 SWAP4 DUP5 SWAP3 PUSH4 0x95EA7B3 PUSH1 0xE0 SHL DUP5 MSTORE PUSH1 0x4 DUP5 ADD MSTORE DUP2 PUSH1 0x24 DUP5 ADD MSTORE GAS CALL SWAP1 DUP2 ISZERO PUSH2 0x451 JUMPI POP SWAP2 PUSH1 0x20 SWAP6 SWAP2 PUSH32 0x61982354C6E19EAEBBE0C4376BDE59016AAD8D6D049A71EC6CDBB157C4D63BF3 SWAP4 PUSH2 0x5BB JUMPI JUMPDEST POP SWAP2 DUP2 SWAP6 POP PUSH2 0x514 JUMP JUMPDEST PUSH2 0x5DA SWAP1 DUP8 RETURNDATASIZE DUP10 GT PUSH2 0x5E1 JUMPI JUMPDEST PUSH2 0x5D2 DUP2 DUP4 PUSH2 0xC5C JUMP JUMPDEST DUP2 ADD SWAP1 PUSH2 0xCDE JUMP JUMPDEST POP PUSH0 PUSH2 0x5B1 JUMP JUMPDEST POP RETURNDATASIZE PUSH2 0x5C8 JUMP JUMPDEST SWAP1 SWAP6 POP PUSH1 0x20 DUP2 RETURNDATASIZE PUSH1 0x20 GT PUSH2 0x614 JUMPI JUMPDEST DUP2 PUSH2 0x604 PUSH1 0x20 SWAP4 DUP4 PUSH2 0xC5C JUMP JUMPDEST DUP2 ADD SUB SLT PUSH2 0x445 JUMPI MLOAD SWAP5 PUSH0 PUSH2 0x50C JUMP JUMPDEST RETURNDATASIZE SWAP2 POP PUSH2 0x5F7 JUMP JUMPDEST PUSH1 0x40 MLOAD RETURNDATASIZE DUP6 DUP3 RETURNDATACOPY RETURNDATASIZE SWAP1 REVERT JUMPDEST POP CALLVALUE PUSH2 0xE7 JUMPI DUP1 PUSH1 0x3 NOT CALLDATASIZE ADD SLT PUSH2 0xE7 JUMPI SLOAD PUSH1 0x40 MLOAD PUSH1 0x1 PUSH1 0x1 PUSH1 0xA0 SHL SUB SWAP1 SWAP2 AND DUP2 MSTORE PUSH1 0x20 SWAP1 RETURN JUMPDEST POP CALLVALUE PUSH2 0xE7 JUMPI DUP1 PUSH1 0x3 NOT CALLDATASIZE ADD SLT PUSH2 0xE7 JUMPI PUSH2 0x667 PUSH2 0xEBD JUMP JUMPDEST DUP1 SLOAD PUSH1 0x1 PUSH1 0x1 PUSH1 0xA0 SHL SUB NOT DUP2 AND DUP3 SSTORE DUP2 SWAP1 PUSH1 0x1 PUSH1 0x1 PUSH1 0xA0 SHL SUB AND PUSH32 0x8BE0079C531659141344CD1FD0A4F28419497F9722A3DAAFE3B4186F6B6457E0 DUP3 DUP1 LOG3 DUP1 RETURN JUMPDEST POP CALLVALUE PUSH2 0xE7 JUMPI PUSH1 0x20 CALLDATASIZE PUSH1 0x3 NOT ADD SLT PUSH2 0xE7 JUMPI PUSH2 0x6C2 PUSH2 0xB35 JUMP JUMPDEST PUSH2 0x6CA PUSH2 0xEBD JUMP JUMPDEST PUSH1 0x1 PUSH1 0x1 PUSH1 0xA0 SHL SUB AND PUSH2 0x6DE DUP2 ISZERO ISZERO PUSH2 0xCF6 JUMP JUMPDEST PUSH1 0x2 DUP1 SLOAD PUSH1 0x1 PUSH1 0x1 PUSH1 0xA0 SHL SUB NOT AND DUP3 OR SWAP1 SSTORE PUSH32 0x5F85E7E522385144040F94BCB1EEAEB07DA5E11D6384C124C09F53986D0ED8BC DUP3 DUP1 LOG2 DUP1 RETURN JUMPDEST POP CALLVALUE PUSH2 0xE7 JUMPI PUSH2 0x7C5 SWAP1 PUSH1 0x20 PUSH2 0x104 PUSH2 0x72F CALLDATASIZE PUSH2 0xB4B JUMP JUMPDEST SWAP7 SWAP3 SWAP5 PUSH1 0x1 DUP1 PUSH1 0xA0 SWAP12 SWAP5 SWAP12 SWAP9 SWAP4 SWAP7 SWAP9 SHL SUB AND SWAP6 PUSH2 0x757 DUP11 PUSH1 0x1 DUP1 PUSH1 0xA0 SHL SUB PUSH1 0x1 SLOAD AND DUP10 PUSH2 0xE13 JUMP JUMPDEST PUSH1 0x1 DUP1 PUSH1 0xA0 SHL SUB PUSH1 0x1 SLOAD AND SWAP5 PUSH1 0x40 MLOAD SWAP2 PUSH2 0x770 DUP4 PUSH2 0xC0F JUMP JUMPDEST DUP9 DUP4 MSTORE PUSH1 0x1 DUP1 PUSH1 0xA0 SHL SUB AND SWAP9 DUP10 DUP7 DUP5 ADD MSTORE PUSH3 0xFFFFFF DUP9 AND PUSH1 0x40 DUP5 ADD MSTORE CALLER PUSH1 0x60 DUP5 ADD MSTORE PUSH1 0x80 DUP4 ADD MSTORE DUP11 PUSH1 0xA0 DUP4 ADD MSTORE PUSH1 0xC0 DUP3 ADD MSTORE DUP9 PUSH1 0xE0 DUP3 ADD MSTORE DUP9 PUSH1 0x40 MLOAD SWAP6 DUP7 SWAP5 DUP6 SWAP4 PUSH4 0x414BF389 PUSH1 0xE0 SHL DUP6 MSTORE PUSH1 0x4 DUP6 ADD SWAP1 PUSH2 0xC7E JUMP JUMPDEST GAS CALL SWAP5 DUP6 ISZERO PUSH2 0x451 JUMPI SWAP5 PUSH2 0x825 JUMPI JUMPDEST POP PUSH1 0x40 DUP1 MLOAD PUSH3 0xFFFFFF SWAP1 SWAP3 AND DUP3 MSTORE PUSH1 0x20 DUP3 DUP2 ADD SWAP7 SWAP1 SWAP7 MSTORE DUP2 ADD DUP5 SWAP1 MSTORE CALLER SWAP1 PUSH32 0xA0EAB23D718FD05CF523C2400B0A13D8681222F055452F738A5B50EF83E82956 SWAP1 DUP1 PUSH1 0x60 DUP2 ADD JUMPDEST SUB SWAP1 LOG4 PUSH1 0x40 MLOAD SWAP1 DUP2 MSTORE RETURN JUMPDEST SWAP5 SWAP4 POP PUSH1 0x20 DUP6 RETURNDATASIZE PUSH1 0x20 GT PUSH2 0x873 JUMPI JUMPDEST DUP2 PUSH2 0x841 PUSH1 0x20 SWAP4 DUP4 PUSH2 0xC5C JUMP JUMPDEST DUP2 ADD SUB SLT PUSH2 0x445 JUMPI SWAP4 MLOAD SWAP3 SWAP4 PUSH32 0xA0EAB23D718FD05CF523C2400B0A13D8681222F055452F738A5B50EF83E82956 PUSH2 0x7D4 JUMP JUMPDEST RETURNDATASIZE SWAP2 POP PUSH2 0x834 JUMP JUMPDEST POP CALLVALUE PUSH2 0xE7 JUMPI DUP1 PUSH1 0x3 NOT CALLDATASIZE ADD SLT PUSH2 0xE7 JUMPI PUSH1 0x2 SLOAD PUSH1 0x40 MLOAD PUSH1 0x1 PUSH1 0x1 PUSH1 0xA0 SHL SUB SWAP1 SWAP2 AND DUP2 MSTORE PUSH1 0x20 SWAP1 RETURN JUMPDEST POP PUSH1 0x20 CALLDATASIZE PUSH1 0x3 NOT ADD SLT PUSH2 0x445 JUMPI PUSH1 0x4 CALLDATALOAD DUP1 CALLVALUE SUB PUSH2 0x941 JUMPI PUSH1 0x2 SLOAD PUSH1 0x1 PUSH1 0x1 PUSH1 0xA0 SHL SUB AND DUP1 EXTCODESIZE ISZERO PUSH2 0x445 JUMPI PUSH0 DUP3 SWAP2 PUSH1 0x4 PUSH1 0x40 MLOAD DUP1 SWAP5 DUP2 SWAP4 PUSH4 0xD0E30DB PUSH1 0xE4 SHL DUP4 MSTORE GAS CALL DUP1 ISZERO PUSH2 0x936 JUMPI PUSH2 0x921 JUMPI JUMPDEST POP PUSH1 0x40 MLOAD SWAP1 DUP2 MSTORE PUSH32 0x4700C1726B4198077CD40320A32C45265A1910521EB0EF713DD1D8412413D7FC PUSH1 0x20 CALLER SWAP3 LOG2 DUP1 RETURN JUMPDEST PUSH2 0x92E SWAP2 SWAP3 POP PUSH0 SWAP1 PUSH2 0xC5C JUMP JUMPDEST PUSH0 SWAP1 PUSH0 PUSH2 0x8F1 JUMP JUMPDEST PUSH1 0x40 MLOAD RETURNDATASIZE PUSH0 DUP3 RETURNDATACOPY RETURNDATASIZE SWAP1 REVERT JUMPDEST PUSH1 0x40 MLOAD PUSH3 0x461BCD PUSH1 0xE5 SHL DUP2 MSTORE PUSH1 0x20 PUSH1 0x4 DUP3 ADD MSTORE PUSH1 0x8 PUSH1 0x24 DUP3 ADD MSTORE PUSH8 0x42616456616C7565 PUSH1 0xC0 SHL PUSH1 0x44 DUP3 ADD MSTORE PUSH1 0x64 SWAP1 REVERT JUMPDEST CALLVALUE PUSH2 0x445 JUMPI PUSH2 0x97F CALLDATASIZE PUSH2 0xB4B JUMP JUMPDEST PUSH1 0x1 SLOAD SWAP3 SWAP6 SWAP1 SWAP4 PUSH1 0x1 PUSH1 0x1 PUSH1 0xA0 SHL SUB SWAP2 DUP3 AND SWAP4 SWAP1 SWAP3 SWAP2 PUSH2 0x9A2 SWAP2 DUP4 SWAP2 AND DUP6 PUSH2 0xE13 JUMP JUMPDEST PUSH1 0x20 PUSH2 0xA19 PUSH2 0x104 PUSH1 0x1 DUP1 PUSH1 0xA0 SHL SUB PUSH1 0x1 SLOAD AND SWAP8 PUSH1 0x40 MLOAD SWAP1 PUSH2 0x9C3 DUP3 PUSH2 0xC0F JUMP JUMPDEST DUP8 DUP3 MSTORE PUSH1 0x1 DUP1 PUSH1 0xA0 SHL SUB AND SWAP8 DUP9 DUP6 DUP4 ADD MSTORE PUSH3 0xFFFFFF DUP8 AND PUSH1 0x40 DUP4 ADD MSTORE CALLER PUSH1 0x60 DUP4 ADD MSTORE PUSH1 0x80 DUP3 ADD MSTORE DUP10 PUSH1 0xA0 DUP3 ADD MSTORE DUP5 PUSH1 0xC0 DUP3 ADD MSTORE PUSH0 PUSH1 0xE0 DUP3 ADD MSTORE PUSH0 PUSH1 0x40 MLOAD SWAP10 DUP11 SWAP5 DUP6 SWAP4 PUSH4 0x1B67C433 PUSH1 0xE3 SHL DUP6 MSTORE PUSH1 0x4 DUP6 ADD SWAP1 PUSH2 0xC7E JUMP JUMPDEST GAS CALL SWAP5 DUP6 ISZERO PUSH2 0x936 JUMPI PUSH0 SWAP6 PUSH2 0xB01 JUMPI JUMPDEST POP DUP5 LT PUSH2 0xA7A JUMPI JUMPDEST PUSH1 0x40 DUP1 MLOAD PUSH3 0xFFFFFF SWAP1 SWAP3 AND DUP3 MSTORE PUSH1 0x20 DUP3 DUP2 ADD SWAP7 SWAP1 SWAP7 MSTORE DUP2 ADD DUP5 SWAP1 MSTORE CALLER SWAP1 PUSH32 0x72E4E8885B9B7BF72254C4F959B634E6F85ED5C2B83A39BD986CFCA591850450 SWAP1 DUP1 PUSH1 0x60 DUP2 ADD PUSH2 0x81A JUMP JUMPDEST PUSH1 0x1 DUP1 PUSH1 0xA0 SHL SUB PUSH1 0x1 SLOAD AND PUSH1 0x40 MLOAD SWAP1 PUSH4 0x95EA7B3 PUSH1 0xE0 SHL DUP3 MSTORE PUSH1 0x4 DUP3 ADD MSTORE PUSH0 PUSH1 0x24 DUP3 ADD MSTORE PUSH1 0x20 DUP2 PUSH1 0x44 DUP2 PUSH0 DUP8 GAS CALL DUP1 ISZERO PUSH2 0x936 JUMPI PUSH1 0x20 SWAP7 PUSH32 0x72E4E8885B9B7BF72254C4F959B634E6F85ED5C2B83A39BD986CFCA591850450 SWAP3 DUP8 SWAP3 PUSH2 0xAE4 JUMPI JUMPDEST POP SWAP7 POP POP POP PUSH2 0xA31 JUMP JUMPDEST PUSH2 0xAFA SWAP1 DUP10 RETURNDATASIZE DUP12 GT PUSH2 0x5E1 JUMPI PUSH2 0x5D2 DUP2 DUP4 PUSH2 0xC5C JUMP JUMPDEST POP DUP9 PUSH2 0xADA JUMP JUMPDEST SWAP1 SWAP5 POP PUSH1 0x20 DUP2 RETURNDATASIZE PUSH1 0x20 GT PUSH2 0xB2D JUMPI JUMPDEST DUP2 PUSH2 0xB1D PUSH1 0x20 SWAP4 DUP4 PUSH2 0xC5C JUMP JUMPDEST DUP2 ADD SUB SLT PUSH2 0x445 JUMPI MLOAD SWAP4 DUP7 PUSH2 0xA29 JUMP JUMPDEST RETURNDATASIZE SWAP2 POP PUSH2 0xB10 JUMP JUMPDEST PUSH1 0x4 CALLDATALOAD SWAP1 PUSH1 0x1 PUSH1 0x1 PUSH1 0xA0 SHL SUB DUP3 AND DUP3 SUB PUSH2 0x445 JUMPI JUMP JUMPDEST PUSH1 0xC0 SWAP1 PUSH1 0x3 NOT ADD SLT PUSH2 0x445 JUMPI PUSH1 0x4 CALLDATALOAD PUSH1 0x1 PUSH1 0x1 PUSH1 0xA0 SHL SUB DUP2 AND DUP2 SUB PUSH2 0x445 JUMPI SWAP1 PUSH1 0x24 CALLDATALOAD PUSH1 0x1 PUSH1 0x1 PUSH1 0xA0 SHL SUB DUP2 AND DUP2 SUB PUSH2 0x445 JUMPI SWAP1 PUSH1 0x44 CALLDATALOAD PUSH3 0xFFFFFF DUP2 AND DUP2 SUB PUSH2 0x445 JUMPI SWAP1 PUSH1 0x64 CALLDATALOAD SWAP1 PUSH1 0x84 CALLDATALOAD SWAP1 PUSH1 0xA4 CALLDATALOAD SWAP1 JUMP JUMPDEST SWAP1 PUSH1 0xA0 PUSH1 0x3 NOT DUP4 ADD SLT PUSH2 0x445 JUMPI PUSH1 0x4 CALLDATALOAD PUSH8 0xFFFFFFFFFFFFFFFF DUP2 GT PUSH2 0x445 JUMPI DUP3 PUSH1 0x23 DUP3 ADD SLT ISZERO PUSH2 0x445 JUMPI DUP1 PUSH1 0x4 ADD CALLDATALOAD SWAP3 PUSH8 0xFFFFFFFFFFFFFFFF DUP5 GT PUSH2 0x445 JUMPI PUSH1 0x24 DUP5 DUP4 ADD ADD GT PUSH2 0x445 JUMPI PUSH1 0x24 SWAP1 DUP2 ADD SWAP3 SWAP2 SWAP1 CALLDATALOAD SWAP1 PUSH1 0x44 CALLDATALOAD SWAP1 PUSH1 0x64 CALLDATALOAD SWAP1 PUSH1 0x84 CALLDATALOAD PUSH1 0x1 PUSH1 0x1 PUSH1 0xA0 SHL SUB DUP2 AND DUP2 SUB PUSH2 0x445 JUMPI SWAP1 JUMP JUMPDEST PUSH2 0x100 DUP2 ADD SWAP1 DUP2 LT PUSH8 0xFFFFFFFFFFFFFFFF DUP3 GT OR PUSH2 0xC2C JUMPI PUSH1 0x40 MSTORE JUMP JUMPDEST PUSH4 0x4E487B71 PUSH1 0xE0 SHL PUSH0 MSTORE PUSH1 0x41 PUSH1 0x4 MSTORE PUSH1 0x24 PUSH0 REVERT JUMPDEST PUSH1 0xA0 DUP2 ADD SWAP1 DUP2 LT PUSH8 0xFFFFFFFFFFFFFFFF DUP3 GT OR PUSH2 0xC2C JUMPI PUSH1 0x40 MSTORE JUMP JUMPDEST SWAP1 PUSH1 0x1F DUP1 NOT SWAP2 ADD AND DUP2 ADD SWAP1 DUP2 LT PUSH8 0xFFFFFFFFFFFFFFFF DUP3 GT OR PUSH2 0xC2C JUMPI PUSH1 0x40 MSTORE JUMP JUMPDEST DUP1 MLOAD PUSH1 0x1 PUSH1 0x1 PUSH1 0xA0 SHL SUB SWAP1 DUP2 AND DUP4 MSTORE PUSH1 0x20 DUP1 DUP4 ADD MLOAD DUP3 AND SWAP1 DUP5 ADD MSTORE PUSH1 0x40 DUP1 DUP4 ADD MLOAD PUSH3 0xFFFFFF AND SWAP1 DUP5 ADD MSTORE PUSH1 0x60 DUP1 DUP4 ADD MLOAD DUP3 AND SWAP1 DUP5 ADD MSTORE PUSH1 0x80 DUP1 DUP4 ADD MLOAD SWAP1 DUP5 ADD MSTORE PUSH1 0xA0 DUP1 DUP4 ADD MLOAD SWAP1 DUP5 ADD MSTORE PUSH1 0xC0 DUP1 DUP4 ADD MLOAD SWAP1 DUP5 ADD MSTORE PUSH1 0xE0 SWAP2 DUP3 ADD MLOAD AND SWAP2 ADD MSTORE JUMP JUMPDEST SWAP1 DUP2 PUSH1 0x20 SWAP2 SUB SLT PUSH2 0x445 JUMPI MLOAD DUP1 ISZERO ISZERO DUP2 SUB PUSH2 0x445 JUMPI SWAP1 JUMP JUMPDEST ISZERO PUSH2 0xCFD JUMPI JUMP JUMPDEST PUSH1 0x40 MLOAD PUSH3 0x461BCD PUSH1 0xE5 SHL DUP2 MSTORE PUSH1 0x20 PUSH1 0x4 DUP3 ADD MSTORE PUSH1 0x8 PUSH1 0x24 DUP3 ADD MSTORE PUSH8 0x2D32B937A0B23239 PUSH1 0xC1 SHL PUSH1 0x44 DUP3 ADD MSTORE PUSH1 0x64 SWAP1 REVERT JUMPDEST PUSH8 0xFFFFFFFFFFFFFFFF DUP2 GT PUSH2 0xC2C JUMPI PUSH1 0x1F ADD PUSH1 0x1F NOT AND PUSH1 0x20 ADD SWAP1 JUMP JUMPDEST SWAP3 SWAP2 SWAP3 PUSH2 0xD55 DUP3 PUSH2 0xD2D JUMP JUMPDEST SWAP2 PUSH2 0xD63 PUSH1 0x40 MLOAD SWAP4 DUP5 PUSH2 0xC5C JUMP JUMPDEST DUP3 SWAP5 DUP2 DUP5 MSTORE DUP2 DUP4 ADD GT PUSH2 0x445 JUMPI DUP3 DUP2 PUSH1 0x20 SWAP4 DUP5 PUSH0 SWAP7 ADD CALLDATACOPY ADD ADD MSTORE JUMP JUMPDEST SWAP1 PUSH1 0x20 PUSH1 0x80 PUSH1 0xC0 SWAP4 DUP1 MLOAD PUSH1 0xA0 DUP6 MSTORE DUP1 MLOAD SWAP4 DUP5 SWAP2 DUP3 PUSH1 0xA0 DUP9 ADD MSTORE ADD DUP7 DUP7 ADD MCOPY PUSH0 DUP5 DUP5 ADD DUP7 ADD MSTORE PUSH1 0x20 DUP2 DUP2 ADD MLOAD PUSH1 0x1 PUSH1 0x1 PUSH1 0xA0 SHL SUB AND SWAP1 DUP6 ADD MSTORE PUSH1 0x40 DUP1 DUP3 ADD MLOAD SWAP1 DUP6 ADD MSTORE PUSH1 0x60 DUP1 DUP3 ADD MLOAD SWAP1 DUP6 ADD MSTORE ADD MLOAD PUSH1 0x80 DUP4 ADD MSTORE PUSH1 0x1F ADD PUSH1 0x1F NOT AND ADD ADD SWAP1 JUMP JUMPDEST SWAP1 DUP3 PUSH1 0x40 SWAP4 PUSH1 0x80 SWAP3 SWAP8 SWAP7 SWAP6 SWAP8 PUSH1 0x60 DUP6 MSTORE DUP2 PUSH1 0x60 DUP7 ADD MSTORE DUP4 DUP6 ADD CALLDATACOPY PUSH0 DUP3 DUP3 DUP6 ADD ADD MSTORE PUSH1 0x1F DUP1 NOT SWAP2 ADD AND DUP3 ADD ADD SWAP5 PUSH1 0x20 DUP3 ADD MSTORE ADD MSTORE JUMP JUMPDEST PUSH1 0x1 DUP1 PUSH1 0xA0 SHL SUB AND SWAP2 PUSH1 0x40 MLOAD SWAP2 PUSH4 0x95EA7B3 PUSH1 0xE0 SHL DUP4 MSTORE PUSH1 0x1 DUP1 PUSH1 0xA0 SHL SUB AND DUP1 PUSH1 0x4 DUP5 ADD MSTORE PUSH0 PUSH1 0x24 DUP5 ADD MSTORE PUSH1 0x20 DUP4 PUSH1 0x44 DUP2 PUSH0 DUP9 GAS CALL SWAP1 DUP2 ISZERO PUSH2 0x936 JUMPI PUSH1 0x20 SWAP4 PUSH1 0x44 SWAP3 PUSH2 0xEA2 JUMPI JUMPDEST POP PUSH0 PUSH1 0x40 MLOAD SWAP6 DUP7 SWAP5 DUP6 SWAP4 PUSH4 0x95EA7B3 PUSH1 0xE0 SHL DUP6 MSTORE PUSH1 0x4 DUP6 ADD MSTORE PUSH1 0x24 DUP5 ADD MSTORE GAS CALL DUP1 ISZERO PUSH2 0x936 JUMPI PUSH2 0xE87 JUMPI POP JUMP JUMPDEST PUSH2 0xE9F SWAP1 PUSH1 0x20 RETURNDATASIZE PUSH1 0x20 GT PUSH2 0x5E1 JUMPI PUSH2 0x5D2 DUP2 DUP4 PUSH2 0xC5C JUMP JUMPDEST POP JUMP JUMPDEST PUSH2 0xEB8 SWAP1 DUP6 RETURNDATASIZE DUP8 GT PUSH2 0x5E1 JUMPI PUSH2 0x5D2 DUP2 DUP4 PUSH2 0xC5C JUMP JUMPDEST PUSH2 0xE5A JUMP JUMPDEST PUSH0 SLOAD PUSH1 0x1 PUSH1 0x1 PUSH1 0xA0 SHL SUB AND CALLER SUB PUSH2 0xED0 JUMPI JUMP JUMPDEST PUSH4 0x118CDAA7 PUSH1 0xE0 SHL PUSH0 MSTORE CALLER PUSH1 0x4 MSTORE PUSH1 0x24 PUSH0 REVERT INVALID LOG2 PUSH5 0x6970667358 0x22 SLT KECCAK256 GASLIMIT 0x2A 0xE4 STATICCALL CALLDATALOAD 0xCC 0x23 LOG4 PUSH30 0x24BF57A4B044FC583E23071FF06F0DC1DA0C1C226E94DE64736F6C634300 ADDMOD BYTE STOP CALLER "
		},
		"gasEstimates": {
			"creation": {
				"codeDepositCost": "773000",
				"executionCost": "infinite",
				"totalCost": "infinite"
			},
			"external": {
				"MODULE_ID()": "371",
				"owner()": "2407",
				"renounceOwnership()": "28165",
				"router()": "2559",
				"setRouter(address)": "28000",
				"setWETH(address)": "27890",
				"swapExactInputPath(bytes,uint256,uint256,uint256,address)": "infinite",
				"swapExactInputSingle(address,address,uint24,uint256,uint256,uint256)": "infinite",
				"swapExactOutputPath(bytes,uint256,uint256,uint256,address)": "infinite",
				"swapExactOutputSingle(address,address,uint24,uint256,uint256,uint256)": "infinite",
				"transferOwnership(address)": "28429",
				"unwrapWETH(uint256)": "infinite",
				"weth()": "2322",
				"wrapETH(uint256)": "infinite"
			},
			"internal": {
				"_safeApprove(contract IERC20,address,uint256)": "infinite"
			}
		},
		"methodIdentifiers": {
			"MODULE_ID()": "ed2f21f5",
			"owner()": "8da5cb5b",
			"renounceOwnership()": "715018a6",
			"router()": "f887ea40",
			"setRouter(address)": "c0d78655",
			"setWETH(address)": "5b769f3c",
			"swapExactInputPath(bytes,uint256,uint256,uint256,address)": "9eaa1983",
			"swapExactInputSingle(address,address,uint24,uint256,uint256,uint256)": "51e820e7",
			"swapExactOutputPath(bytes,uint256,uint256,uint256,address)": "8e2fdfa4",
			"swapExactOutputSingle(address,address,uint24,uint256,uint256,uint256)": "023884b7",
			"transferOwnership(address)": "f2fde38b",
			"unwrapWETH(uint256)": "f018a8c1",
			"weth()": "3fc8cef3",
			"wrapETH(uint256)": "1c58db4f"
		}
	},
	"abi": [
		{
			"inputs": [
				{
					"internalType": "address",
					"name": "_router",
					"type": "address"
				},
				{
					"internalType": "address",
					"name": "_weth",
					"type": "address"
				}
			],
			"stateMutability": "nonpayable",
			"type": "constructor"
		},
		{
			"inputs": [
				{
					"internalType": "address",
					"name": "owner",
					"type": "address"
				}
			],
			"name": "OwnableInvalidOwner",
			"type": "error"
		},
		{
			"inputs": [
				{
					"internalType": "address",
					"name": "account",
					"type": "address"
				}
			],
			"name": "OwnableUnauthorizedAccount",
			"type": "error"
		},
		{
			"anonymous": false,
			"inputs": [
				{
					"indexed": true,
					"internalType": "address",
					"name": "previousOwner",
					"type": "address"
				},
				{
					"indexed": true,
					"internalType": "address",
					"name": "newOwner",
					"type": "address"
				}
			],
			"name": "OwnershipTransferred",
			"type": "event"
		},
		{
			"anonymous": false,
			"inputs": [
				{
					"indexed": true,
					"internalType": "address",
					"name": "newRouter",
					"type": "address"
				}
			],
			"name": "RouterUpdated",
			"type": "event"
		},
		{
			"anonymous": false,
			"inputs": [
				{
					"indexed": true,
					"internalType": "address",
					"name": "vault",
					"type": "address"
				},
				{
					"indexed": false,
					"internalType": "bytes",
					"name": "path",
					"type": "bytes"
				},
				{
					"indexed": false,
					"internalType": "uint256",
					"name": "amountIn",
					"type": "uint256"
				},
				{
					"indexed": false,
					"internalType": "uint256",
					"name": "amountOut",
					"type": "uint256"
				}
			],
			"name": "SwapExactInputPath",
			"type": "event"
		},
		{
			"anonymous": false,
			"inputs": [
				{
					"indexed": true,
					"internalType": "address",
					"name": "vault",
					"type": "address"
				},
				{
					"indexed": true,
					"internalType": "address",
					"name": "tokenIn",
					"type": "address"
				},
				{
					"indexed": true,
					"internalType": "address",
					"name": "tokenOut",
					"type": "address"
				},
				{
					"indexed": false,
					"internalType": "uint24",
					"name": "fee",
					"type": "uint24"
				},
				{
					"indexed": false,
					"internalType": "uint256",
					"name": "amountIn",
					"type": "uint256"
				},
				{
					"indexed": false,
					"internalType": "uint256",
					"name": "amountOut",
					"type": "uint256"
				}
			],
			"name": "SwapExactInputSingle",
			"type": "event"
		},
		{
			"anonymous": false,
			"inputs": [
				{
					"indexed": true,
					"internalType": "address",
					"name": "vault",
					"type": "address"
				},
				{
					"indexed": false,
					"internalType": "bytes",
					"name": "path",
					"type": "bytes"
				},
				{
					"indexed": false,
					"internalType": "uint256",
					"name": "amountOut",
					"type": "uint256"
				},
				{
					"indexed": false,
					"internalType": "uint256",
					"name": "amountInSpent",
					"type": "uint256"
				}
			],
			"name": "SwapExactOutputPath",
			"type": "event"
		},
		{
			"anonymous": false,
			"inputs": [
				{
					"indexed": true,
					"internalType": "address",
					"name": "vault",
					"type": "address"
				},
				{
					"indexed": true,
					"internalType": "address",
					"name": "tokenIn",
					"type": "address"
				},
				{
					"indexed": true,
					"internalType": "address",
					"name": "tokenOut",
					"type": "address"
				},
				{
					"indexed": false,
					"internalType": "uint24",
					"name": "fee",
					"type": "uint24"
				},
				{
					"indexed": false,
					"internalType": "uint256",
					"name": "amountOut",
					"type": "uint256"
				},
				{
					"indexed": false,
					"internalType": "uint256",
					"name": "amountInSpent",
					"type": "uint256"
				}
			],
			"name": "SwapExactOutputSingle",
			"type": "event"
		},
		{
			"anonymous": false,
			"inputs": [
				{
					"indexed": true,
					"internalType": "address",
					"name": "vault",
					"type": "address"
				},
				{
					"indexed": false,
					"internalType": "uint256",
					"name": "amount",
					"type": "uint256"
				}
			],
			"name": "Unwrapped",
			"type": "event"
		},
		{
			"anonymous": false,
			"inputs": [
				{
					"indexed": true,
					"internalType": "address",
					"name": "newWETH",
					"type": "address"
				}
			],
			"name": "WETHUpdated",
			"type": "event"
		},
		{
			"anonymous": false,
			"inputs": [
				{
					"indexed": true,
					"internalType": "address",
					"name": "vault",
					"type": "address"
				},
				{
					"indexed": false,
					"internalType": "uint256",
					"name": "amount",
					"type": "uint256"
				}
			],
			"name": "Wrapped",
			"type": "event"
		},
		{
			"inputs": [],
			"name": "MODULE_ID",
			"outputs": [
				{
					"internalType": "bytes32",
					"name": "",
					"type": "bytes32"
				}
			],
			"stateMutability": "view",
			"type": "function"
		},
		{
			"inputs": [],
			"name": "owner",
			"outputs": [
				{
					"internalType": "address",
					"name": "",
					"type": "address"
				}
			],
			"stateMutability": "view",
			"type": "function"
		},
		{
			"inputs": [],
			"name": "renounceOwnership",
			"outputs": [],
			"stateMutability": "nonpayable",
			"type": "function"
		},
		{
			"inputs": [],
			"name": "router",
			"outputs": [
				{
					"internalType": "contract IUniswapV3RouterLike",
					"name": "",
					"type": "address"
				}
			],
			"stateMutability": "view",
			"type": "function"
		},
		{
			"inputs": [
				{
					"internalType": "address",
					"name": "_router",
					"type": "address"
				}
			],
			"name": "setRouter",
			"outputs": [],
			"stateMutability": "nonpayable",
			"type": "function"
		},
		{
			"inputs": [
				{
					"internalType": "address",
					"name": "_weth",
					"type": "address"
				}
			],
			"name": "setWETH",
			"outputs": [],
			"stateMutability": "nonpayable",
			"type": "function"
		},
		{
			"inputs": [
				{
					"internalType": "bytes",
					"name": "path",
					"type": "bytes"
				},
				{
					"internalType": "uint256",
					"name": "amountIn",
					"type": "uint256"
				},
				{
					"internalType": "uint256",
					"name": "amountOutMin",
					"type": "uint256"
				},
				{
					"internalType": "uint256",
					"name": "deadline",
					"type": "uint256"
				},
				{
					"internalType": "address",
					"name": "tokenIn",
					"type": "address"
				}
			],
			"name": "swapExactInputPath",
			"outputs": [
				{
					"internalType": "uint256",
					"name": "amountOut",
					"type": "uint256"
				}
			],
			"stateMutability": "nonpayable",
			"type": "function"
		},
		{
			"inputs": [
				{
					"internalType": "address",
					"name": "tokenIn",
					"type": "address"
				},
				{
					"internalType": "address",
					"name": "tokenOut",
					"type": "address"
				},
				{
					"internalType": "uint24",
					"name": "fee",
					"type": "uint24"
				},
				{
					"internalType": "uint256",
					"name": "amountIn",
					"type": "uint256"
				},
				{
					"internalType": "uint256",
					"name": "amountOutMin",
					"type": "uint256"
				},
				{
					"internalType": "uint256",
					"name": "deadline",
					"type": "uint256"
				}
			],
			"name": "swapExactInputSingle",
			"outputs": [
				{
					"internalType": "uint256",
					"name": "amountOut",
					"type": "uint256"
				}
			],
			"stateMutability": "nonpayable",
			"type": "function"
		},
		{
			"inputs": [
				{
					"internalType": "bytes",
					"name": "path",
					"type": "bytes"
				},
				{
					"internalType": "uint256",
					"name": "amountOut",
					"type": "uint256"
				},
				{
					"internalType": "uint256",
					"name": "amountInMax",
					"type": "uint256"
				},
				{
					"internalType": "uint256",
					"name": "deadline",
					"type": "uint256"
				},
				{
					"internalType": "address",
					"name": "tokenIn",
					"type": "address"
				}
			],
			"name": "swapExactOutputPath",
			"outputs": [
				{
					"internalType": "uint256",
					"name": "amountInSpent",
					"type": "uint256"
				}
			],
			"stateMutability": "nonpayable",
			"type": "function"
		},
		{
			"inputs": [
				{
					"internalType": "address",
					"name": "tokenIn",
					"type": "address"
				},
				{
					"internalType": "address",
					"name": "tokenOut",
					"type": "address"
				},
				{
					"internalType": "uint24",
					"name": "fee",
					"type": "uint24"
				},
				{
					"internalType": "uint256",
					"name": "amountOut",
					"type": "uint256"
				},
				{
					"internalType": "uint256",
					"name": "amountInMax",
					"type": "uint256"
				},
				{
					"internalType": "uint256",
					"name": "deadline",
					"type": "uint256"
				}
			],
			"name": "swapExactOutputSingle",
			"outputs": [
				{
					"internalType": "uint256",
					"name": "amountInSpent",
					"type": "uint256"
				}
			],
			"stateMutability": "nonpayable",
			"type": "function"
		},
		{
			"inputs": [
				{
					"internalType": "address",
					"name": "newOwner",
					"type": "address"
				}
			],
			"name": "transferOwnership",
			"outputs": [],
			"stateMutability": "nonpayable",
			"type": "function"
		},
		{
			"inputs": [
				{
					"internalType": "uint256",
					"name": "amount",
					"type": "uint256"
				}
			],
			"name": "unwrapWETH",
			"outputs": [],
			"stateMutability": "nonpayable",
			"type": "function"
		},
		{
			"inputs": [],
			"name": "weth",
			"outputs": [
				{
					"internalType": "contract IWETH9",
					"name": "",
					"type": "address"
				}
			],
			"stateMutability": "view",
			"type": "function"
		},
		{
			"inputs": [
				{
					"internalType": "uint256",
					"name": "amount",
					"type": "uint256"
				}
			],
			"name": "wrapETH",
			"outputs": [],
			"stateMutability": "payable",
			"type": "function"
		},
		{
			"stateMutability": "payable",
			"type": "receive"
		}
	]
}