{
	"data": {
		"bytecode": {
			"linkReferences": {},
			"object": "60803461010157601f610dc038819003918201601f19168301916001600160401b038311848410176101055780849260209460405283398101031261010157516001600160a01b038116908190036101015733156100ee575f8054336001600160a01b0319821681178355604051939290916001600160a01b0316907f8be0079c531659141344cd1fd0a4f28419497f9722a3daafe3b4186f6b6457e09080a3806100b2575b50610ca6908161011a8239f35b600180546001600160a01b031916821790557fd6ceddf6d2a22f21c7c81675c518004eff43bc5c8a6fc32a0b748e69d58671cd5f80a25f6100a5565b631e4fbdf760e01b5f525f60045260245ffd5b5f80fd5b634e487b7160e01b5f52604160045260245ffdfe6080604052600436101561001a575b3615610018575f80fd5b005b5f3560e01c806302bf711c146107985780630cd8331f146107125780631560c8ab146106255780632fdcfbd2146105a557806364a197f31461052e578063715018a6146104d75780637b103999146104af57806388e57ed7146103ee5780638da5cb5b146103c7578063904ab5af14610310578063a91ee0dc146102aa578063c76bd1931461017b578063ed2f21f5146101415763f2fde38b0361000e573461013d57602036600319011261013d576100d161081c565b6100d9610c4a565b6001600160a01b0316801561012a575f80546001600160a01b03198116831782556001600160a01b0316907f8be0079c531659141344cd1fd0a4f28419497f9722a3daafe3b4186f6b6457e09080a3005b631e4fbdf760e01b5f525f60045260245ffd5b5f80fd5b3461013d575f36600319011261013d5760206040517f90a9736c6b6114655e7e4bf7a0526cedc19738532318c7756fc798261fa1aac08152f35b604036600319011261013d5760043567ffffffffffffffff811161013d576101a7903690600401610832565b9060243567ffffffffffffffff811161013d576101c8903690600401610832565b6101d3818514610952565b5f805b858210610276576101e9915034146109f7565b835f5b81811061022257506040519081527f72b653ffb9dfa308ac98c92c68b0d15ac53c33dab2b9168ad4804ca82c4d8ea360203392a2005b61026e5f808080896102456102408860019a8b8060a01b039461098d565b6109b1565b166102518115156109c5565b61025c878a8c61098d565b35905af16102686108d5565b50610914565b0184906101ec565b61028182848661098d565b358101809111610296576001909101906101d6565b634e487b7160e01b5f52601160045260245ffd5b3461013d57602036600319011261013d576102c361081c565b6102cb610c4a565b600180546001600160a01b0319166001600160a01b039290921691821790557fd6ceddf6d2a22f21c7c81675c518004eff43bc5c8a6fc32a0b748e69d58671cd5f80a2005b3461013d57606036600319011261013d5761032961081c565b60243567ffffffffffffffff811161013d57610349903690600401610832565b6001600160a01b0390921691906044355f5b838110610393575050506040519081527fe8f445929a8727519e377599e26b7aacdea8d6a97e65b86b0b7fdacdbc90e83860203392a3005b806103c1836103a8610240600195898961098d565b6103ba858060a01b03821615156109c5565b3389610bb3565b0161035b565b3461013d575f36600319011261013d575f546040516001600160a01b039091168152602090f35b604036600319011261013d5760043567ffffffffffffffff811161013d5761041a903690600401610832565b90602435828102818104841482151715610296576104399034146109f7565b825f5b81811061047257506040519081527f72b653ffb9dfa308ac98c92c68b0d15ac53c33dab2b9168ad4804ca82c4d8ea360203392a2005b6104a75f80808087896104916102408960019b8c8060a01b039461098d565b1661049d8115156109c5565b5af16102686108d5565b01839061043c565b3461013d575f36600319011261013d576001546040516001600160a01b039091168152602090f35b3461013d575f36600319011261013d576104ef610c4a565b5f80546001600160a01b0319811682556001600160a01b03167f8be0079c531659141344cd1fd0a4f28419497f9722a3daafe3b4186f6b6457e08280a3005b604036600319011261013d5761054261081c565b6001600160a01b03166024356105598215156109c5565b610564813414610863565b6105775f80808085875af16102686108d5565b6040519081527fca3a24d155af841a817f7f643338faccb74b7c930ce1a2698d66dc42c3041dd660203392a3005b3461013d57606036600319011261013d576105be61081c565b6024356001600160a01b0381169182820361013d576105f760443580926105e68615156109c5565b6001600160a01b0316933385610bb3565b6040519081527fa4162acb2096ecf8e81304c656b4ff4eb143f95264f26ac3dad5a3b96bb68b5360203392a4005b3461013d57606036600319011261013d5761063e61081c565b60243567ffffffffffffffff811161013d5761065e903690600401610832565b909160443567ffffffffffffffff811161013d578361068284923690600401610832565b61068d818514610952565b6001600160a01b03909416935f5b8481106106d25785856040519081527fe8f445929a8727519e377599e26b7aacdea8d6a97e65b86b0b7fdacdbc90e83860203392a3005b8061070c6106e6610240600194898961098d565b6106f8848060a01b03821615156109c5565b61070383868861098d565b3590338a610bb3565b0161069b565b604036600319011261013d576004357fd33b9b494e094b2f326b1ac7fbb86d087da3668b11148840d76e369f7a55f70b60243561074e83610a4e565b610759823414610863565b6107755f808080866001600160a01b0387165af16102686108d5565b604080519485526001600160a01b039190911660208501528301523391606090a2005b3461013d57606036600319011261013d576107b161081c565b6024357faa295c8e761ddecb2fd980f150a88873e865f11ca342c3cdf97107374729dc616044356107e183610a4e565b6001600160a01b03909416936107f982823388610bb3565b604080519485526001600160a01b039190911660208501528301523391606090a3005b600435906001600160a01b038216820361013d57565b9181601f8401121561013d5782359167ffffffffffffffff831161013d576020808501948460051b01011161013d57565b1561086a57565b60405162461bcd60e51b815260206004820152600d60248201526c626164206d73672e76616c756560981b6044820152606490fd5b90601f8019910116810190811067ffffffffffffffff8211176108c157604052565b634e487b7160e01b5f52604160045260245ffd5b3d1561090f573d9067ffffffffffffffff82116108c15760405191610904601f8201601f19166020018461089f565b82523d5f602084013e565b606090565b1561091b57565b60405162461bcd60e51b815260206004820152600f60248201526e195d1a081cd95b990819985a5b1959608a1b6044820152606490fd5b1561095957565b60405162461bcd60e51b815260206004820152600c60248201526b0d8cadc40dad2e6dac2e8c6d60a31b6044820152606490fd5b919081101561099d5760051b0190565b634e487b7160e01b5f52603260045260245ffd5b356001600160a01b038116810361013d5790565b156109cc57565b606460405162461bcd60e51b81526020600482015260046024820152630746f3d360e41b6044820152fd5b156109fe57565b60405162461bcd60e51b8152602060048201526009602482015268189859081d1bdd185b60ba1b6044820152606490fd5b9081602091031261013d57516001600160a01b038116810361013d5790565b6001549091906001600160a01b03168015610b7b576040516345315d8b60e11b81526004810184905292602084602481855afa938415610b4f575f94610b5a575b506001600160a01b03841615610ae9575b50506001600160a01b03821615610ab357565b60405162461bcd60e51b815260206004820152600e60248201526d199a59081b9bdd081b1a5b9ad95960921b6044820152606490fd5b602091929350602460405180948193637b9cf4f360e01b835260048301525afa908115610b4f575f91610b20575b50905f80610aa0565b610b42915060203d602011610b48575b610b3a818361089f565b810190610a2f565b5f610b17565b503d610b30565b6040513d5f823e3d90fd5b610b7491945060203d602011610b4857610b3a818361089f565b925f610a8f565b60405162461bcd60e51b815260206004820152601060248201526f1c9959da5cdd1c9e481b9bdd081cd95d60821b6044820152606490fd5b6040516323b872dd60e01b60208083019182526001600160a01b039485166024840152949093166044820152606480820195909552938452925f9190610bfa60848261089f565b519082855af115610b4f575f513d610c4157506001600160a01b0381163b155b610c215750565b635274afe760e01b5f9081526001600160a01b0391909116600452602490fd5b60011415610c1a565b5f546001600160a01b03163303610c5d57565b63118cdaa760e01b5f523360045260245ffdfea2646970667358221220a2a1b6dba80433a9224f32d644482992f5d4d1a305c0c41b929509ae43462b7f64736f6c634300081a0033",
			"opcodes": "PUSH1 0x80 CALLVALUE PUSH2 0x101 JUMPI PUSH1 0x1F PUSH2 0xDC0 CODESIZE DUP2 SWAP1 SUB SWAP2 DUP3 ADD PUSH1 0x1F NOT AND DUP4 ADD SWAP2 PUSH1 0x1 PUSH1 0x1 PUSH1 0x40 SHL SUB DUP4 GT DUP5 DUP5 LT OR PUSH2 0x105 JUMPI DUP1 DUP5 SWAP3 PUSH1 0x20 SWAP5 PUSH1 0x40 MSTORE DUP4 CODECOPY DUP2 ADD SUB SLT PUSH2 0x101 JUMPI MLOAD PUSH1 0x1 PUSH1 0x1 PUSH1 0xA0 SHL SUB DUP2 AND SWAP1 DUP2 SWAP1 SUB PUSH2 0x101 JUMPI CALLER ISZERO PUSH2 0xEE JUMPI PUSH0 DUP1 SLOAD CALLER PUSH1 0x1 PUSH1 0x1 PUSH1 0xA0 SHL SUB NOT DUP3 AND DUP2 OR DUP4 SSTORE PUSH1 0x40 MLOAD SWAP4 SWAP3 SWAP1 SWAP2 PUSH1 0x1 PUSH1 0x1 PUSH1 0xA0 SHL SUB AND SWAP1 PUSH32 0x8BE0079C531659141344CD1FD0A4F28419497F9722A3DAAFE3B4186F6B6457E0 SWAP1 DUP1 LOG3 DUP1 PUSH2 0xB2 JUMPI JUMPDEST POP PUSH2 0xCA6 SWAP1 DUP2 PUSH2 0x11A DUP3 CODECOPY RETURN JUMPDEST PUSH1 0x1 DUP1 SLOAD PUSH1 0x1 PUSH1 0x1 PUSH1 0xA0 SHL SUB NOT AND DUP3 OR SWAP1 SSTORE PUSH32 0xD6CEDDF6D2A22F21C7C81675C518004EFF43BC5C8A6FC32A0B748E69D58671CD PUSH0 DUP1 LOG2 PUSH0 PUSH2 0xA5 JUMP JUMPDEST PUSH4 0x1E4FBDF7 PUSH1 0xE0 SHL PUSH0 MSTORE PUSH0 PUSH1 0x4 MSTORE PUSH1 0x24 PUSH0 REVERT JUMPDEST PUSH0 DUP1 REVERT JUMPDEST PUSH4 0x4E487B71 PUSH1 0xE0 SHL PUSH0 MSTORE PUSH1 0x41 PUSH1 0x4 MSTORE PUSH1 0x24 PUSH0 REVERT INVALID PUSH1 0x80 PUSH1 0x40 MSTORE PUSH1 0x4 CALLDATASIZE LT ISZERO PUSH2 0x1A JUMPI JUMPDEST CALLDATASIZE ISZERO PUSH2 0x18 JUMPI PUSH0 DUP1 REVERT JUMPDEST STOP JUMPDEST PUSH0 CALLDATALOAD PUSH1 0xE0 SHR DUP1 PUSH4 0x2BF711C EQ PUSH2 0x798 JUMPI DUP1 PUSH4 0xCD8331F EQ PUSH2 0x712 JUMPI DUP1 PUSH4 0x1560C8AB EQ PUSH2 0x625 JUMPI DUP1 PUSH4 0x2FDCFBD2 EQ PUSH2 0x5A5 JUMPI DUP1 PUSH4 0x64A197F3 EQ PUSH2 0x52E JUMPI DUP1 PUSH4 0x715018A6 EQ PUSH2 0x4D7 JUMPI DUP1 PUSH4 0x7B103999 EQ PUSH2 0x4AF JUMPI DUP1 PUSH4 0x88E57ED7 EQ PUSH2 0x3EE JUMPI DUP1 PUSH4 0x8DA5CB5B EQ PUSH2 0x3C7 JUMPI DUP1 PUSH4 0x904AB5AF EQ PUSH2 0x310 JUMPI DUP1 PUSH4 0xA91EE0DC EQ PUSH2 0x2AA JUMPI DUP1 PUSH4 0xC76BD193 EQ PUSH2 0x17B JUMPI DUP1 PUSH4 0xED2F21F5 EQ PUSH2 0x141 JUMPI PUSH4 0xF2FDE38B SUB PUSH2 0xE JUMPI CALLVALUE PUSH2 0x13D JUMPI PUSH1 0x20 CALLDATASIZE PUSH1 0x3 NOT ADD SLT PUSH2 0x13D JUMPI PUSH2 0xD1 PUSH2 0x81C JUMP JUMPDEST PUSH2 0xD9 PUSH2 0xC4A JUMP JUMPDEST PUSH1 0x1 PUSH1 0x1 PUSH1 0xA0 SHL SUB AND DUP1 ISZERO PUSH2 0x12A JUMPI PUSH0 DUP1 SLOAD PUSH1 0x1 PUSH1 0x1 PUSH1 0xA0 SHL SUB NOT DUP2 AND DUP4 OR DUP3 SSTORE PUSH1 0x1 PUSH1 0x1 PUSH1 0xA0 SHL SUB AND SWAP1 PUSH32 0x8BE0079C531659141344CD1FD0A4F28419497F9722A3DAAFE3B4186F6B6457E0 SWAP1 DUP1 LOG3 STOP JUMPDEST PUSH4 0x1E4FBDF7 PUSH1 0xE0 SHL PUSH0 MSTORE PUSH0 PUSH1 0x4 MSTORE PUSH1 0x24 PUSH0 REVERT JUMPDEST PUSH0 DUP1 REVERT JUMPDEST CALLVALUE PUSH2 0x13D JUMPI PUSH0 CALLDATASIZE PUSH1 0x3 NOT ADD SLT PUSH2 0x13D JUMPI PUSH1 0x20 PUSH1 0x40 MLOAD PUSH32 0x90A9736C6B6114655E7E4BF7A0526CEDC19738532318C7756FC798261FA1AAC0 DUP2 MSTORE RETURN JUMPDEST PUSH1 0x40 CALLDATASIZE PUSH1 0x3 NOT ADD SLT PUSH2 0x13D JUMPI PUSH1 0x4 CALLDATALOAD PUSH8 0xFFFFFFFFFFFFFFFF DUP2 GT PUSH2 0x13D JUMPI PUSH2 0x1A7 SWAP1 CALLDATASIZE SWAP1 PUSH1 0x4 ADD PUSH2 0x832 JUMP JUMPDEST SWAP1 PUSH1 0x24 CALLDATALOAD PUSH8 0xFFFFFFFFFFFFFFFF DUP2 GT PUSH2 0x13D JUMPI PUSH2 0x1C8 SWAP1 CALLDATASIZE SWAP1 PUSH1 0x4 ADD PUSH2 0x832 JUMP JUMPDEST PUSH2 0x1D3 DUP2 DUP6 EQ PUSH2 0x952 JUMP JUMPDEST PUSH0 DUP1 JUMPDEST DUP6 DUP3 LT PUSH2 0x276 JUMPI PUSH2 0x1E9 SWAP2 POP CALLVALUE EQ PUSH2 0x9F7 JUMP JUMPDEST DUP4 PUSH0 JUMPDEST DUP2 DUP2 LT PUSH2 0x222 JUMPI POP PUSH1 0x40 MLOAD SWAP1 DUP2 MSTORE PUSH32 0x72B653FFB9DFA308AC98C92C68B0D15AC53C33DAB2B9168AD4804CA82C4D8EA3 PUSH1 0x20 CALLER SWAP3 LOG2 STOP JUMPDEST PUSH2 0x26E PUSH0 DUP1 DUP1 DUP1 DUP10 PUSH2 0x245 PUSH2 0x240 DUP9 PUSH1 0x1 SWAP11 DUP12 DUP1 PUSH1 0xA0 SHL SUB SWAP5 PUSH2 0x98D JUMP JUMPDEST PUSH2 0x9B1 JUMP JUMPDEST AND PUSH2 0x251 DUP2 ISZERO ISZERO PUSH2 0x9C5 JUMP JUMPDEST PUSH2 0x25C DUP8 DUP11 DUP13 PUSH2 0x98D JUMP JUMPDEST CALLDATALOAD SWAP1 GAS CALL PUSH2 0x268 PUSH2 0x8D5 JUMP JUMPDEST POP PUSH2 0x914 JUMP JUMPDEST ADD DUP5 SWAP1 PUSH2 0x1EC JUMP JUMPDEST PUSH2 0x281 DUP3 DUP5 DUP7 PUSH2 0x98D JUMP JUMPDEST CALLDATALOAD DUP2 ADD DUP1 SWAP2 GT PUSH2 0x296 JUMPI PUSH1 0x1 SWAP1 SWAP2 ADD SWAP1 PUSH2 0x1D6 JUMP JUMPDEST PUSH4 0x4E487B71 PUSH1 0xE0 SHL PUSH0 MSTORE PUSH1 0x11 PUSH1 0x4 MSTORE PUSH1 0x24 PUSH0 REVERT JUMPDEST CALLVALUE PUSH2 0x13D JUMPI PUSH1 0x20 CALLDATASIZE PUSH1 0x3 NOT ADD SLT PUSH2 0x13D JUMPI PUSH2 0x2C3 PUSH2 0x81C JUMP JUMPDEST PUSH2 0x2CB PUSH2 0xC4A JUMP JUMPDEST PUSH1 0x1 DUP1 SLOAD PUSH1 0x1 PUSH1 0x1 PUSH1 0xA0 SHL SUB NOT AND PUSH1 0x1 PUSH1 0x1 PUSH1 0xA0 SHL SUB SWAP3 SWAP1 SWAP3 AND SWAP2 DUP3 OR SWAP1 SSTORE PUSH32 0xD6CEDDF6D2A22F21C7C81675C518004EFF43BC5C8A6FC32A0B748E69D58671CD PUSH0 DUP1 LOG2 STOP JUMPDEST CALLVALUE PUSH2 0x13D JUMPI PUSH1 0x60 CALLDATASIZE PUSH1 0x3 NOT ADD SLT PUSH2 0x13D JUMPI PUSH2 0x329 PUSH2 0x81C JUMP JUMPDEST PUSH1 0x24 CALLDATALOAD PUSH8 0xFFFFFFFFFFFFFFFF DUP2 GT PUSH2 0x13D JUMPI PUSH2 0x349 SWAP1 CALLDATASIZE SWAP1 PUSH1 0x4 ADD PUSH2 0x832 JUMP JUMPDEST PUSH1 0x1 PUSH1 0x1 PUSH1 0xA0 SHL SUB SWAP1 SWAP3 AND SWAP2 SWAP1 PUSH1 0x44 CALLDATALOAD PUSH0 JUMPDEST DUP4 DUP2 LT PUSH2 0x393 JUMPI POP POP POP PUSH1 0x40 MLOAD SWAP1 DUP2 MSTORE PUSH32 0xE8F445929A8727519E377599E26B7AACDEA8D6A97E65B86B0B7FDACDBC90E838 PUSH1 0x20 CALLER SWAP3 LOG3 STOP JUMPDEST DUP1 PUSH2 0x3C1 DUP4 PUSH2 0x3A8 PUSH2 0x240 PUSH1 0x1 SWAP6 DUP10 DUP10 PUSH2 0x98D JUMP JUMPDEST PUSH2 0x3BA DUP6 DUP1 PUSH1 0xA0 SHL SUB DUP3 AND ISZERO ISZERO PUSH2 0x9C5 JUMP JUMPDEST CALLER DUP10 PUSH2 0xBB3 JUMP JUMPDEST ADD PUSH2 0x35B JUMP JUMPDEST CALLVALUE PUSH2 0x13D JUMPI PUSH0 CALLDATASIZE PUSH1 0x3 NOT ADD SLT PUSH2 0x13D JUMPI PUSH0 SLOAD PUSH1 0x40 MLOAD PUSH1 0x1 PUSH1 0x1 PUSH1 0xA0 SHL SUB SWAP1 SWAP2 AND DUP2 MSTORE PUSH1 0x20 SWAP1 RETURN JUMPDEST PUSH1 0x40 CALLDATASIZE PUSH1 0x3 NOT ADD SLT PUSH2 0x13D JUMPI PUSH1 0x4 CALLDATALOAD PUSH8 0xFFFFFFFFFFFFFFFF DUP2 GT PUSH2 0x13D JUMPI PUSH2 0x41A SWAP1 CALLDATASIZE SWAP1 PUSH1 0x4 ADD PUSH2 0x832 JUMP JUMPDEST SWAP1 PUSH1 0x24 CALLDATALOAD DUP3 DUP2 MUL DUP2 DUP2 DIV DUP5 EQ DUP3 ISZERO OR ISZERO PUSH2 0x296 JUMPI PUSH2 0x439 SWAP1 CALLVALUE EQ PUSH2 0x9F7 JUMP JUMPDEST DUP3 PUSH0 JUMPDEST DUP2 DUP2 LT PUSH2 0x472 JUMPI POP PUSH1 0x40 MLOAD SWAP1 DUP2 MSTORE PUSH32 0x72B653FFB9DFA308AC98C92C68B0D15AC53C33DAB2B9168AD4804CA82C4D8EA3 PUSH1 0x20 CALLER SWAP3 LOG2 STOP JUMPDEST PUSH2 0x4A7 PUSH0 DUP1 DUP1 DUP1 DUP8 DUP10 PUSH2 0x491 PUSH2 0x240 DUP10 PUSH1 0x1 SWAP12 DUP13 DUP1 PUSH1 0xA0 SHL SUB SWAP5 PUSH2 0x98D JUMP JUMPDEST AND PUSH2 0x49D DUP2 ISZERO ISZERO PUSH2 0x9C5 JUMP JUMPDEST GAS CALL PUSH2 0x268 PUSH2 0x8D5 JUMP JUMPDEST ADD DUP4 SWAP1 PUSH2 0x43C JUMP JUMPDEST CALLVALUE PUSH2 0x13D JUMPI PUSH0 CALLDATASIZE PUSH1 0x3 NOT ADD SLT PUSH2 0x13D JUMPI PUSH1 0x1 SLOAD PUSH1 0x40 MLOAD PUSH1 0x1 PUSH1 0x1 PUSH1 0xA0 SHL SUB SWAP1 SWAP2 AND DUP2 MSTORE PUSH1 0x20 SWAP1 RETURN JUMPDEST CALLVALUE PUSH2 0x13D JUMPI PUSH0 CALLDATASIZE PUSH1 0x3 NOT ADD SLT PUSH2 0x13D JUMPI PUSH2 0x4EF PUSH2 0xC4A JUMP JUMPDEST PUSH0 DUP1 SLOAD PUSH1 0x1 PUSH1 0x1 PUSH1 0xA0 SHL SUB NOT DUP2 AND DUP3 SSTORE PUSH1 0x1 PUSH1 0x1 PUSH1 0xA0 SHL SUB AND PUSH32 0x8BE0079C531659141344CD1FD0A4F28419497F9722A3DAAFE3B4186F6B6457E0 DUP3 DUP1 LOG3 STOP JUMPDEST PUSH1 0x40 CALLDATASIZE PUSH1 0x3 NOT ADD SLT PUSH2 0x13D JUMPI PUSH2 0x542 PUSH2 0x81C JUMP JUMPDEST PUSH1 0x1 PUSH1 0x1 PUSH1 0xA0 SHL SUB AND PUSH1 0x24 CALLDATALOAD PUSH2 0x559 DUP3 ISZERO ISZERO PUSH2 0x9C5 JUMP JUMPDEST PUSH2 0x564 DUP2 CALLVALUE EQ PUSH2 0x863 JUMP JUMPDEST PUSH2 0x577 PUSH0 DUP1 DUP1 DUP1 DUP6 DUP8 GAS CALL PUSH2 0x268 PUSH2 0x8D5 JUMP JUMPDEST PUSH1 0x40 MLOAD SWAP1 DUP2 MSTORE PUSH32 0xCA3A24D155AF841A817F7F643338FACCB74B7C930CE1A2698D66DC42C3041DD6 PUSH1 0x20 CALLER SWAP3 LOG3 STOP JUMPDEST CALLVALUE PUSH2 0x13D JUMPI PUSH1 0x60 CALLDATASIZE PUSH1 0x3 NOT ADD SLT PUSH2 0x13D JUMPI PUSH2 0x5BE PUSH2 0x81C JUMP JUMPDEST PUSH1 0x24 CALLDATALOAD PUSH1 0x1 PUSH1 0x1 PUSH1 0xA0 SHL SUB DUP2 AND SWAP2 DUP3 DUP3 SUB PUSH2 0x13D JUMPI PUSH2 0x5F7 PUSH1 0x44 CALLDATALOAD DUP1 SWAP3 PUSH2 0x5E6 DUP7 ISZERO ISZERO PUSH2 0x9C5 JUMP JUMPDEST PUSH1 0x1 PUSH1 0x1 PUSH1 0xA0 SHL SUB AND SWAP4 CALLER DUP6 PUSH2 0xBB3 JUMP JUMPDEST PUSH1 0x40 MLOAD SWAP1 DUP2 MSTORE PUSH32 0xA4162ACB2096ECF8E81304C656B4FF4EB143F95264F26AC3DAD5A3B96BB68B53 PUSH1 0x20 CALLER SWAP3 LOG4 STOP JUMPDEST CALLVALUE PUSH2 0x13D JUMPI PUSH1 0x60 CALLDATASIZE PUSH1 0x3 NOT ADD SLT PUSH2 0x13D JUMPI PUSH2 0x63E PUSH2 0x81C JUMP JUMPDEST PUSH1 0x24 CALLDATALOAD PUSH8 0xFFFFFFFFFFFFFFFF DUP2 GT PUSH2 0x13D JUMPI PUSH2 0x65E SWAP1 CALLDATASIZE SWAP1 PUSH1 0x4 ADD PUSH2 0x832 JUMP JUMPDEST SWAP1 SWAP2 PUSH1 0x44 CALLDATALOAD PUSH8 0xFFFFFFFFFFFFFFFF DUP2 GT PUSH2 0x13D JUMPI DUP4 PUSH2 0x682 DUP5 SWAP3 CALLDATASIZE SWAP1 PUSH1 0x4 ADD PUSH2 0x832 JUMP JUMPDEST PUSH2 0x68D DUP2 DUP6 EQ PUSH2 0x952 JUMP JUMPDEST PUSH1 0x1 PUSH1 0x1 PUSH1 0xA0 SHL SUB SWAP1 SWAP5 AND SWAP4 PUSH0 JUMPDEST DUP5 DUP2 LT PUSH2 0x6D2 JUMPI DUP6 DUP6 PUSH1 0x40 MLOAD SWAP1 DUP2 MSTORE PUSH32 0xE8F445929A8727519E377599E26B7AACDEA8D6A97E65B86B0B7FDACDBC90E838 PUSH1 0x20 CALLER SWAP3 LOG3 STOP JUMPDEST DUP1 PUSH2 0x70C PUSH2 0x6E6 PUSH2 0x240 PUSH1 0x1 SWAP5 DUP10 DUP10 PUSH2 0x98D JUMP JUMPDEST PUSH2 0x6F8 DUP5 DUP1 PUSH1 0xA0 SHL SUB DUP3 AND ISZERO ISZERO PUSH2 0x9C5 JUMP JUMPDEST PUSH2 0x703 DUP4 DUP7 DUP9 PUSH2 0x98D JUMP JUMPDEST CALLDATALOAD SWAP1 CALLER DUP11 PUSH2 0xBB3 JUMP JUMPDEST ADD PUSH2 0x69B JUMP JUMPDEST PUSH1 0x40 CALLDATASIZE PUSH1 0x3 NOT ADD SLT PUSH2 0x13D JUMPI PUSH1 0x4 CALLDATALOAD PUSH32 0xD33B9B494E094B2F326B1AC7FBB86D087DA3668B11148840D76E369F7A55F70B PUSH1 0x24 CALLDATALOAD PUSH2 0x74E DUP4 PUSH2 0xA4E JUMP JUMPDEST PUSH2 0x759 DUP3 CALLVALUE EQ PUSH2 0x863 JUMP JUMPDEST PUSH2 0x775 PUSH0 DUP1 DUP1 DUP1 DUP7 PUSH1 0x1 PUSH1 0x1 PUSH1 0xA0 SHL SUB DUP8 AND GAS CALL PUSH2 0x268 PUSH2 0x8D5 JUMP JUMPDEST PUSH1 0x40 DUP1 MLOAD SWAP5 DUP6 MSTORE PUSH1 0x1 PUSH1 0x1 PUSH1 0xA0 SHL SUB SWAP2 SWAP1 SWAP2 AND PUSH1 0x20 DUP6 ADD MSTORE DUP4 ADD MSTORE CALLER SWAP2 PUSH1 0x60 SWAP1 LOG2 STOP JUMPDEST CALLVALUE PUSH2 0x13D JUMPI PUSH1 0x60 CALLDATASIZE PUSH1 0x3 NOT ADD SLT PUSH2 0x13D JUMPI PUSH2 0x7B1 PUSH2 0x81C JUMP JUMPDEST PUSH1 0x24 CALLDATALOAD PUSH32 0xAA295C8E761DDECB2FD980F150A88873E865F11CA342C3CDF97107374729DC61 PUSH1 0x44 CALLDATALOAD PUSH2 0x7E1 DUP4 PUSH2 0xA4E JUMP JUMPDEST PUSH1 0x1 PUSH1 0x1 PUSH1 0xA0 SHL SUB SWAP1 SWAP5 AND SWAP4 PUSH2 0x7F9 DUP3 DUP3 CALLER DUP9 PUSH2 0xBB3 JUMP JUMPDEST PUSH1 0x40 DUP1 MLOAD SWAP5 DUP6 MSTORE PUSH1 0x1 PUSH1 0x1 PUSH1 0xA0 SHL SUB SWAP2 SWAP1 SWAP2 AND PUSH1 0x20 DUP6 ADD MSTORE DUP4 ADD MSTORE CALLER SWAP2 PUSH1 0x60 SWAP1 LOG3 STOP JUMPDEST PUSH1 0x4 CALLDATALOAD SWAP1 PUSH1 0x1 PUSH1 0x1 PUSH1 0xA0 SHL SUB DUP3 AND DUP3 SUB PUSH2 0x13D JUMPI JUMP JUMPDEST SWAP2 DUP2 PUSH1 0x1F DUP5 ADD SLT ISZERO PUSH2 0x13D JUMPI DUP3 CALLDATALOAD SWAP2 PUSH8 0xFFFFFFFFFFFFFFFF DUP4 GT PUSH2 0x13D JUMPI PUSH1 0x20 DUP1 DUP6 ADD SWAP5 DUP5 PUSH1 0x5 SHL ADD ADD GT PUSH2 0x13D JUMPI JUMP JUMPDEST ISZERO PUSH2 0x86A JUMPI JUMP JUMPDEST PUSH1 0x40 MLOAD PUSH3 0x461BCD PUSH1 0xE5 SHL DUP2 MSTORE PUSH1 0x20 PUSH1 0x4 DUP3 ADD MSTORE PUSH1 0xD PUSH1 0x24 DUP3 ADD MSTORE PUSH13 0x626164206D73672E76616C7565 PUSH1 0x98 SHL PUSH1 0x44 DUP3 ADD MSTORE PUSH1 0x64 SWAP1 REVERT JUMPDEST SWAP1 PUSH1 0x1F DUP1 NOT SWAP2 ADD AND DUP2 ADD SWAP1 DUP2 LT PUSH8 0xFFFFFFFFFFFFFFFF DUP3 GT OR PUSH2 0x8C1 JUMPI PUSH1 0x40 MSTORE JUMP JUMPDEST PUSH4 0x4E487B71 PUSH1 0xE0 SHL PUSH0 MSTORE PUSH1 0x41 PUSH1 0x4 MSTORE PUSH1 0x24 PUSH0 REVERT JUMPDEST RETURNDATASIZE ISZERO PUSH2 0x90F JUMPI RETURNDATASIZE SWAP1 PUSH8 0xFFFFFFFFFFFFFFFF DUP3 GT PUSH2 0x8C1 JUMPI PUSH1 0x40 MLOAD SWAP2 PUSH2 0x904 PUSH1 0x1F DUP3 ADD PUSH1 0x1F NOT AND PUSH1 0x20 ADD DUP5 PUSH2 0x89F JUMP JUMPDEST DUP3 MSTORE RETURNDATASIZE PUSH0 PUSH1 0x20 DUP5 ADD RETURNDATACOPY JUMP JUMPDEST PUSH1 0x60 SWAP1 JUMP JUMPDEST ISZERO PUSH2 0x91B JUMPI JUMP JUMPDEST PUSH1 0x40 MLOAD PUSH3 0x461BCD PUSH1 0xE5 SHL DUP2 MSTORE PUSH1 0x20 PUSH1 0x4 DUP3 ADD MSTORE PUSH1 0xF PUSH1 0x24 DUP3 ADD MSTORE PUSH15 0x195D1A081CD95B990819985A5B1959 PUSH1 0x8A SHL PUSH1 0x44 DUP3 ADD MSTORE PUSH1 0x64 SWAP1 REVERT JUMPDEST ISZERO PUSH2 0x959 JUMPI JUMP JUMPDEST PUSH1 0x40 MLOAD PUSH3 0x461BCD PUSH1 0xE5 SHL DUP2 MSTORE PUSH1 0x20 PUSH1 0x4 DUP3 ADD MSTORE PUSH1 0xC PUSH1 0x24 DUP3 ADD MSTORE PUSH12 0xD8CADC40DAD2E6DAC2E8C6D PUSH1 0xA3 SHL PUSH1 0x44 DUP3 ADD MSTORE PUSH1 0x64 SWAP1 REVERT JUMPDEST SWAP2 SWAP1 DUP2 LT ISZERO PUSH2 0x99D JUMPI PUSH1 0x5 SHL ADD SWAP1 JUMP JUMPDEST PUSH4 0x4E487B71 PUSH1 0xE0 SHL PUSH0 MSTORE PUSH1 0x32 PUSH1 0x4 MSTORE PUSH1 0x24 PUSH0 REVERT JUMPDEST CALLDATALOAD PUSH1 0x1 PUSH1 0x1 PUSH1 0xA0 SHL SUB DUP2 AND DUP2 SUB PUSH2 0x13D JUMPI SWAP1 JUMP JUMPDEST ISZERO PUSH2 0x9CC JUMPI JUMP JUMPDEST PUSH1 0x64 PUSH1 0x40 MLOAD PUSH3 0x461BCD PUSH1 0xE5 SHL DUP2 MSTORE PUSH1 0x20 PUSH1 0x4 DUP3 ADD MSTORE PUSH1 0x4 PUSH1 0x24 DUP3 ADD MSTORE PUSH4 0x746F3D3 PUSH1 0xE4 SHL PUSH1 0x44 DUP3 ADD MSTORE REVERT JUMPDEST ISZERO PUSH2 0x9FE JUMPI JUMP JUMPDEST PUSH1 0x40 MLOAD PUSH3 0x461BCD PUSH1 0xE5 SHL DUP2 MSTORE PUSH1 0x20 PUSH1 0x4 DUP3 ADD MSTORE PUSH1 0x9 PUSH1 0x24 DUP3 ADD MSTORE PUSH9 0x189859081D1BDD185B PUSH1 0xBA SHL PUSH1 0x44 DUP3 ADD MSTORE PUSH1 0x64 SWAP1 REVERT JUMPDEST SWAP1 DUP2 PUSH1 0x20 SWAP2 SUB SLT PUSH2 0x13D JUMPI MLOAD PUSH1 0x1 PUSH1 0x1 PUSH1 0xA0 SHL SUB DUP2 AND DUP2 SUB PUSH2 0x13D JUMPI SWAP1 JUMP JUMPDEST PUSH1 0x1 SLOAD SWAP1 SWAP2 SWAP1 PUSH1 0x1 PUSH1 0x1 PUSH1 0xA0 SHL SUB AND DUP1 ISZERO PUSH2 0xB7B JUMPI PUSH1 0x40 MLOAD PUSH4 0x45315D8B PUSH1 0xE1 SHL DUP2 MSTORE PUSH1 0x4 DUP2 ADD DUP5 SWAP1 MSTORE SWAP3 PUSH1 0x20 DUP5 PUSH1 0x24 DUP2 DUP6 GAS STATICCALL SWAP4 DUP5 ISZERO PUSH2 0xB4F JUMPI PUSH0 SWAP5 PUSH2 0xB5A JUMPI JUMPDEST POP PUSH1 0x1 PUSH1 0x1 PUSH1 0xA0 SHL SUB DUP5 AND ISZERO PUSH2 0xAE9 JUMPI JUMPDEST POP POP PUSH1 0x1 PUSH1 0x1 PUSH1 0xA0 SHL SUB DUP3 AND ISZERO PUSH2 0xAB3 JUMPI JUMP JUMPDEST PUSH1 0x40 MLOAD PUSH3 0x461BCD PUSH1 0xE5 SHL DUP2 MSTORE PUSH1 0x20 PUSH1 0x4 DUP3 ADD MSTORE PUSH1 0xE PUSH1 0x24 DUP3 ADD MSTORE PUSH14 0x199A59081B9BDD081B1A5B9AD959 PUSH1 0x92 SHL PUSH1 0x44 DUP3 ADD MSTORE PUSH1 0x64 SWAP1 REVERT JUMPDEST PUSH1 0x20 SWAP2 SWAP3 SWAP4 POP PUSH1 0x24 PUSH1 0x40 MLOAD DUP1 SWAP5 DUP2 SWAP4 PUSH4 0x7B9CF4F3 PUSH1 0xE0 SHL DUP4 MSTORE PUSH1 0x4 DUP4 ADD MSTORE GAS STATICCALL SWAP1 DUP2 ISZERO PUSH2 0xB4F JUMPI PUSH0 SWAP2 PUSH2 0xB20 JUMPI JUMPDEST POP SWAP1 PUSH0 DUP1 PUSH2 0xAA0 JUMP JUMPDEST PUSH2 0xB42 SWAP2 POP PUSH1 0x20 RETURNDATASIZE PUSH1 0x20 GT PUSH2 0xB48 JUMPI JUMPDEST PUSH2 0xB3A DUP2 DUP4 PUSH2 0x89F JUMP JUMPDEST DUP2 ADD SWAP1 PUSH2 0xA2F JUMP JUMPDEST PUSH0 PUSH2 0xB17 JUMP JUMPDEST POP RETURNDATASIZE PUSH2 0xB30 JUMP JUMPDEST PUSH1 0x40 MLOAD RETURNDATASIZE PUSH0 DUP3 RETURNDATACOPY RETURNDATASIZE SWAP1 REVERT JUMPDEST PUSH2 0xB74 SWAP2 SWAP5 POP PUSH1 0x20 RETURNDATASIZE PUSH1 0x20 GT PUSH2 0xB48 JUMPI PUSH2 0xB3A DUP2 DUP4 PUSH2 0x89F JUMP JUMPDEST SWAP3 PUSH0 PUSH2 0xA8F JUMP JUMPDEST PUSH1 0x40 MLOAD PUSH3 0x461BCD PUSH1 0xE5 SHL DUP2 MSTORE PUSH1 0x20 PUSH1 0x4 DUP3 ADD MSTORE PUSH1 0x10 PUSH1 0x24 DUP3 ADD MSTORE PUSH16 0x1C9959DA5CDD1C9E481B9BDD081CD95D PUSH1 0x82 SHL PUSH1 0x44 DUP3 ADD MSTORE PUSH1 0x64 SWAP1 REVERT JUMPDEST PUSH1 0x40 MLOAD PUSH4 0x23B872DD PUSH1 0xE0 SHL PUSH1 0x20 DUP1 DUP4 ADD SWAP2 DUP3 MSTORE PUSH1 0x1 PUSH1 0x1 PUSH1 0xA0 SHL SUB SWAP5 DUP6 AND PUSH1 0x24 DUP5 ADD MSTORE SWAP5 SWAP1 SWAP4 AND PUSH1 0x44 DUP3 ADD MSTORE PUSH1 0x64 DUP1 DUP3 ADD SWAP6 SWAP1 SWAP6 MSTORE SWAP4 DUP5 MSTORE SWAP3 PUSH0 SWAP2 SWAP1 PUSH2 0xBFA PUSH1 0x84 DUP3 PUSH2 0x89F JUMP JUMPDEST MLOAD SWAP1 DUP3 DUP6 GAS CALL ISZERO PUSH2 0xB4F JUMPI PUSH0 MLOAD RETURNDATASIZE PUSH2 0xC41 JUMPI POP PUSH1 0x1 PUSH1 0x1 PUSH1 0xA0 SHL SUB DUP2 AND EXTCODESIZE ISZERO JUMPDEST PUSH2 0xC21 JUMPI POP JUMP JUMPDEST PUSH4 0x5274AFE7 PUSH1 0xE0 SHL PUSH0 SWAP1 DUP2 MSTORE PUSH1 0x1 PUSH1 0x1 PUSH1 0xA0 SHL SUB SWAP2 SWAP1 SWAP2 AND PUSH1 0x4 MSTORE PUSH1 0x24 SWAP1 REVERT JUMPDEST PUSH1 0x1 EQ ISZERO PUSH2 0xC1A JUMP JUMPDEST PUSH0 SLOAD PUSH1 0x1 PUSH1 0x1 PUSH1 0xA0 SHL SUB AND CALLER SUB PUSH2 0xC5D JUMPI JUMP JUMPDEST PUSH4 0x118CDAA7 PUSH1 0xE0 SHL PUSH0 MSTORE CALLER PUSH1 0x4 MSTORE PUSH1 0x24 PUSH0 REVERT INVALID LOG2 PUSH5 0x6970667358 0x22 SLT KECCAK256 LOG2 LOG1 0xB6 0xDB 0xA8 DIV CALLER 0xA9 0x22 0x4F ORIGIN 0xD6 PREVRANDAO BASEFEE 0x29 SWAP3 CREATE2 0xD4 0xD1 LOG3 SDIV 0xC0 0xC4 SHL SWAP3 SWAP6 MULMOD 0xAE NUMBER CHAINID 0x2B PUSH32 0x64736F6C634300081A0033000000000000000000000000000000000000000000 "
		},
		"gasEstimates": {
			"creation": {
				"codeDepositCost": "647600",
				"executionCost": "infinite",
				"totalCost": "infinite"
			},
			"external": {
				"MODULE_ID()": "409",
				"batchSendETH(address[],uint256[])": "infinite",
				"batchSendETHEqual(address[],uint256)": "infinite",
				"batchSendToken(address,address[],uint256[])": "infinite",
				"batchSendTokenEqual(address,address[],uint256)": "infinite",
				"owner()": "2447",
				"registry()": "2404",
				"renounceOwnership()": "28152",
				"sendETH(address,uint256)": "infinite",
				"sendETHByFid(uint256,uint256)": "infinite",
				"sendToken(address,address,uint256)": "infinite",
				"sendTokenByFid(address,uint256,uint256)": "infinite",
				"setRegistry(address)": "27976",
				"transferOwnership(address)": "28444"
			},
			"internal": {
				"_resolveFid(uint256)": "infinite"
			}
		},
		"methodIdentifiers": {
			"MODULE_ID()": "ed2f21f5",
			"batchSendETH(address[],uint256[])": "c76bd193",
			"batchSendETHEqual(address[],uint256)": "88e57ed7",
			"batchSendToken(address,address[],uint256[])": "1560c8ab",
			"batchSendTokenEqual(address,address[],uint256)": "904ab5af",
			"owner()": "8da5cb5b",
			"registry()": "7b103999",
			"renounceOwnership()": "715018a6",
			"sendETH(address,uint256)": "64a197f3",
			"sendETHByFid(uint256,uint256)": "0cd8331f",
			"sendToken(address,address,uint256)": "2fdcfbd2",
			"sendTokenByFid(address,uint256,uint256)": "02bf711c",
			"setRegistry(address)": "a91ee0dc",
			"transferOwnership(address)": "f2fde38b"
		}
	},
	"abi": [
		{
			"inputs": [
				{
					"internalType": "address",
					"name": "_registry",
					"type": "address"
				}
			],
			"stateMutability": "nonpayable",
			"type": "constructor"
		},
		{
			"inputs": [
				{
					"internalType": "address",
					"name": "owner",
					"type": "address"
				}
			],
			"name": "OwnableInvalidOwner",
			"type": "error"
		},
		{
			"inputs": [
				{
					"internalType": "address",
					"name": "account",
					"type": "address"
				}
			],
			"name": "OwnableUnauthorizedAccount",
			"type": "error"
		},
		{
			"inputs": [
				{
					"internalType": "address",
					"name": "token",
					"type": "address"
				}
			],
			"name": "SafeERC20FailedOperation",
			"type": "error"
		},
		{
			"anonymous": false,
			"inputs": [
				{
					"indexed": true,
					"internalType": "address",
					"name": "vault",
					"type": "address"
				},
				{
					"indexed": false,
					"internalType": "uint256",
					"name": "recipients",
					"type": "uint256"
				}
			],
			"name": "BatchEthSent",
			"type": "event"
		},
		{
			"anonymous": false,
			"inputs": [
				{
					"indexed": true,
					"internalType": "address",
					"name": "vault",
					"type": "address"
				},
				{
					"indexed": true,
					"internalType": "address",
					"name": "token",
					"type": "address"
				},
				{
					"indexed": false,
					"internalType": "uint256",
					"name": "recipients",
					"type": "uint256"
				}
			],
			"name": "BatchTokenSent",
			"type": "event"
		},
		{
			"anonymous": false,
			"inputs": [
				{
					"indexed": true,
					"internalType": "address",
					"name": "vault",
					"type": "address"
				},
				{
					"indexed": true,
					"internalType": "address",
					"name": "to",
					"type": "address"
				},
				{
					"indexed": false,
					"internalType": "uint256",
					"name": "amount",
					"type": "uint256"
				}
			],
			"name": "EthSent",
			"type": "event"
		},
		{
			"anonymous": false,
			"inputs": [
				{
					"indexed": true,
					"internalType": "address",
					"name": "vault",
					"type": "address"
				},
				{
					"indexed": false,
					"internalType": "uint256",
					"name": "fid",
					"type": "uint256"
				},
				{
					"indexed": false,
					"internalType": "address",
					"name": "resolved",
					"type": "address"
				},
				{
					"indexed": false,
					"internalType": "uint256",
					"name": "amount",
					"type": "uint256"
				}
			],
			"name": "EthSentByFid",
			"type": "event"
		},
		{
			"anonymous": false,
			"inputs": [
				{
					"indexed": true,
					"internalType": "address",
					"name": "previousOwner",
					"type": "address"
				},
				{
					"indexed": true,
					"internalType": "address",
					"name": "newOwner",
					"type": "address"
				}
			],
			"name": "OwnershipTransferred",
			"type": "event"
		},
		{
			"anonymous": false,
			"inputs": [
				{
					"indexed": true,
					"internalType": "address",
					"name": "registry",
					"type": "address"
				}
			],
			"name": "RegistryUpdated",
			"type": "event"
		},
		{
			"anonymous": false,
			"inputs": [
				{
					"indexed": true,
					"internalType": "address",
					"name": "vault",
					"type": "address"
				},
				{
					"indexed": true,
					"internalType": "address",
					"name": "token",
					"type": "address"
				},
				{
					"indexed": true,
					"internalType": "address",
					"name": "to",
					"type": "address"
				},
				{
					"indexed": false,
					"internalType": "uint256",
					"name": "amount",
					"type": "uint256"
				}
			],
			"name": "TokenSent",
			"type": "event"
		},
		{
			"anonymous": false,
			"inputs": [
				{
					"indexed": true,
					"internalType": "address",
					"name": "vault",
					"type": "address"
				},
				{
					"indexed": true,
					"internalType": "address",
					"name": "token",
					"type": "address"
				},
				{
					"indexed": false,
					"internalType": "uint256",
					"name": "fid",
					"type": "uint256"
				},
				{
					"indexed": false,
					"internalType": "address",
					"name": "resolved",
					"type": "address"
				},
				{
					"indexed": false,
					"internalType": "uint256",
					"name": "amount",
					"type": "uint256"
				}
			],
			"name": "TokenSentByFid",
			"type": "event"
		},
		{
			"inputs": [],
			"name": "MODULE_ID",
			"outputs": [
				{
					"internalType": "bytes32",
					"name": "",
					"type": "bytes32"
				}
			],
			"stateMutability": "view",
			"type": "function"
		},
		{
			"inputs": [
				{
					"internalType": "address[]",
					"name": "recipients",
					"type": "address[]"
				},
				{
					"internalType": "uint256[]",
					"name": "amounts",
					"type": "uint256[]"
				}
			],
			"name": "batchSendETH",
			"outputs": [],
			"stateMutability": "payable",
			"type": "function"
		},
		{
			"inputs": [
				{
					"internalType": "address[]",
					"name": "recipients",
					"type": "address[]"
				},
				{
					"internalType": "uint256",
					"name": "amountEach",
					"type": "uint256"
				}
			],
			"name": "batchSendETHEqual",
			"outputs": [],
			"stateMutability": "payable",
			"type": "function"
		},
		{
			"inputs": [
				{
					"internalType": "address",
					"name": "token",
					"type": "address"
				},
				{
					"internalType": "address[]",
					"name": "recipients",
					"type": "address[]"
				},
				{
					"internalType": "uint256[]",
					"name": "amounts",
					"type": "uint256[]"
				}
			],
			"name": "batchSendToken",
			"outputs": [],
			"stateMutability": "nonpayable",
			"type": "function"
		},
		{
			"inputs": [
				{
					"internalType": "address",
					"name": "token",
					"type": "address"
				},
				{
					"internalType": "address[]",
					"name": "recipients",
					"type": "address[]"
				},
				{
					"internalType": "uint256",
					"name": "amountEach",
					"type": "uint256"
				}
			],
			"name": "batchSendTokenEqual",
			"outputs": [],
			"stateMutability": "nonpayable",
			"type": "function"
		},
		{
			"inputs": [],
			"name": "owner",
			"outputs": [
				{
					"internalType": "address",
					"name": "",
					"type": "address"
				}
			],
			"stateMutability": "view",
			"type": "function"
		},
		{
			"inputs": [],
			"name": "registry",
			"outputs": [
				{
					"internalType": "contract IFarcasterRegistry",
					"name": "",
					"type": "address"
				}
			],
			"stateMutability": "view",
			"type": "function"
		},
		{
			"inputs": [],
			"name": "renounceOwnership",
			"outputs": [],
			"stateMutability": "nonpayable",
			"type": "function"
		},
		{
			"inputs": [
				{
					"internalType": "address",
					"name": "to",
					"type": "address"
				},
				{
					"internalType": "uint256",
					"name": "amount",
					"type": "uint256"
				}
			],
			"name": "sendETH",
			"outputs": [],
			"stateMutability": "payable",
			"type": "function"
		},
		{
			"inputs": [
				{
					"internalType": "uint256",
					"name": "fid",
					"type": "uint256"
				},
				{
					"internalType": "uint256",
					"name": "amount",
					"type": "uint256"
				}
			],
			"name": "sendETHByFid",
			"outputs": [],
			"stateMutability": "payable",
			"type": "function"
		},
		{
			"inputs": [
				{
					"internalType": "address",
					"name": "token",
					"type": "address"
				},
				{
					"internalType": "address",
					"name": "to",
					"type": "address"
				},
				{
					"internalType": "uint256",
					"name": "amount",
					"type": "uint256"
				}
			],
			"name": "sendToken",
			"outputs": [],
			"stateMutability": "nonpayable",
			"type": "function"
		},
		{
			"inputs": [
				{
					"internalType": "address",
					"name": "token",
					"type": "address"
				},
				{
					"internalType": "uint256",
					"name": "fid",
					"type": "uint256"
				},
				{
					"internalType": "uint256",
					"name": "amount",
					"type": "uint256"
				}
			],
			"name": "sendTokenByFid",
			"outputs": [],
			"stateMutability": "nonpayable",
			"type": "function"
		},
		{
			"inputs": [
				{
					"internalType": "address",
					"name": "_registry",
					"type": "address"
				}
			],
			"name": "setRegistry",
			"outputs": [],
			"stateMutability": "nonpayable",
			"type": "function"
		},
		{
			"inputs": [
				{
					"internalType": "address",
					"name": "newOwner",
					"type": "address"
				}
			],
			"name": "transferOwnership",
			"outputs": [],
			"stateMutability": "nonpayable",
			"type": "function"
		},
		{
			"stateMutability": "payable",
			"type": "receive"
		}
	]
}