{
	"data": {
		"bytecode": {
			"linkReferences": {},
			"object": "60803461019457601f61107538819003918201601f19168301916001600160401b0383118484101761019857808492604094855283398101031261019457610052602061004b836101ac565b92016101ac565b3315610181575f8054336001600160a01b0319821681178355604051949290916001600160a01b0316907f8be0079c531659141344cd1fd0a4f28419497f9722a3daafe3b4186f6b6457e09080a3600180556001600160a01b0316918215158061016f575b156101425750600280546001600160a01b03199081168417909155600380549091166001600160a01b03929092169182179055604051917f3df77beb5db05fcdd70a30fc8adf3f83f9501b68579455adbd100b81809403945f80a27f7aed1d3e8155a07ccf395e44ea3109a0e2d6c9b29bbbe9f142d9790596f4dc805f80a2610eb490816101c18239f35b62461bcd60e51b81526020600482015260086024820152672d32b937a0b2323960c11b6044820152606490fd5b506001600160a01b03821615156100b7565b631e4fbdf760e01b5f525f60045260245ffd5b5f80fd5b634e487b7160e01b5f52604160045260245ffd5b51906001600160a01b03821682036101945756fe6080806040526004361015610012575f80fd5b5f3560e01c908163239aee061461070c5750806335d0ed5f14610637578063715018a6146105e05780637adbf973146105735780637d818f47146102f25780637dc0d1d0146102ca5780638da5cb5b146102a3578063bcae5ef4146101f8578063c0d786551461018b578063ed2f21f514610151578063f2fde38b146100cc5763f887ea40146100a0575f80fd5b346100c8575f3660031901126100c8576003546040516001600160a01b039091168152602090f35b5f80fd5b346100c85760203660031901126100c8576100e5610d4d565b6100ed610e58565b6001600160a01b0316801561013e575f80546001600160a01b03198116831782556001600160a01b0316907f8be0079c531659141344cd1fd0a4f28419497f9722a3daafe3b4186f6b6457e09080a3005b631e4fbdf760e01b5f525f60045260245ffd5b346100c8575f3660031901126100c85760206040517f36366627dbd14ebf17bfe4ad54a261f54ee08412a2d76099708ba0c75fef2da88152f35b346100c85760203660031901126100c8576101a4610d4d565b6101ac610e58565b6001600160a01b03166101c0811515610e21565b600380546001600160a01b031916821790557f7aed1d3e8155a07ccf395e44ea3109a0e2d6c9b29bbbe9f142d9790596f4dc805f80a2005b346100c85760403660031901126100c857610211610d4d565b610219610d63565b335f52600460205260405f2060018060a01b0383165f5260205260405f2060018060a01b0382165f5260205261026f60405f2060055f918281558260018201558260028201558260038201558260048201550155565b6001600160a01b039081169116337fc4a0f24a5a427f98d9bb378273a31dc61774f9aacf4071433c97d5041f08ac225f80a4005b346100c8575f3660031901126100c8575f546040516001600160a01b039091168152602090f35b346100c8575f3660031901126100c8576002546040516001600160a01b039091168152602090f35b346100c85760e03660031901126100c85761030b610d4d565b610313610d63565b906044359162ffffff83168093036100c8576064359160843560a4359060c4359261ffff84168094036100c8576001600160a01b03169485151580610561575b15610530578115801590610527575b156104f55761271084116104c6578361ffff60058997868a6040519261038784610d8f565b600184526020840190828252604085019060018060a01b03169e8f928383526060870191825260808701938b855260a08801958d875260c0890197885260e089019b8c52335f52600460205260405f20905f5260205260405f20905f5260205260405f20965115159060ff885491610100600160a81b03905160081b169216906affffffffffffffffffffff60a81b1617178655600186019160018060a01b039051166bffffffffffffffffffffffff60a01b8354161782555181549062ffffff60a01b9060a01b169062ffffff60a01b19161790555160028401555160038301555160048201550191511661ffff198254161790556040519485526020850152604084015260608301526080820152600160a08201527f746a2f823cf6f4474906bacc479001a4919e05edf924b3dbabf198d8d16bec4360c03392a4005b60405162461bcd60e51b81526020600482015260076024820152664261644269707360c81b6044820152606490fd5b60405162461bcd60e51b815260206004820152600a6024820152694e6f547269676765727360b01b6044820152606490fd5b50821515610362565b60405162461bcd60e51b81526020600482015260096024820152682d32b937aa37b5b2b760b91b6044820152606490fd5b506001600160a01b0385161515610353565b346100c85760203660031901126100c85761058c610d4d565b610594610e58565b6001600160a01b03166105a8811515610e21565b600280546001600160a01b031916821790557f3df77beb5db05fcdd70a30fc8adf3f83f9501b68579455adbd100b81809403945f80a2005b346100c8575f3660031901126100c8576105f8610e58565b5f80546001600160a01b0319811682556001600160a01b03167f8be0079c531659141344cd1fd0a4f28419497f9722a3daafe3b4186f6b6457e08280a3005b346100c85760603660031901126100c857610650610d4d565b610658610d63565b610660610d79565b9160018060a01b03165f52600460205260405f209060018060a01b03165f5260205260405f209060018060a01b03165f5260205261010060405f20805490600181015490600281015460038201549062ffffff61ffff6005600486015495015416946040519660ff81161515885260018060a01b039060081c16602088015260018060a01b038116604088015260a01c166060860152608085015260a084015260c083015260e0820152f35b346100c85760803660031901126100c857610725610d4d565b61072d610d63565b90610736610d79565b92600260015414610d0b575060026001556001600160a01b039081165f81815260046020908152604080832086861684528252808320948716835293905282902091519390929061078685610d8f565b82549360ff851615948515875260018060a01b039060081c16602087015260018401549360018060a01b038516604088015262ffffff606088019560a01c1685526002810154966080810197885260038201549660a0820197885260e061ffff600560048601549560c086019687520154169201918252610cdb576002546040805163cc34929d60e01b81526001600160a01b0397881660048201819052968816602482018190529099909790928a916044918391165afa978815610b0a575f98610ca7575b508715610c785751918215159283610c6d575b5051978815159889610c62575b5082159283610c5b575b15610c275751968715610b8f575b670de0b6b3a764000061089a61ffff928a610de2565b0491511680610b7b575b5060205f604051828101906323b872dd60e01b82528660248201523060448201528a6064820152606481526108da608482610dc0565b519082885af115610b0a575f513d610b725750833b155b610b5f5760018060a01b03600354166040519063095ea7b360e01b825260048201525f60248201526020816044815f895af18015610b0a57610b42575b5060035460405163095ea7b360e01b81526001600160a01b039091166004820152602481018890526020816044815f895af18015610b0a57610b15575b50600354955160405162ffffff909116966001600160a01b031661098e82610d8f565b858252602082018781526040808401998a5260608401878152606480356080870190815260a087018e815260c088019889525f60e08901908152945163414bf38960e01b815297516001600160a01b0390811660048a01529551861660248901529c5162ffffff1660448801529151841690860152516084850152985160a4840152925160c4830152965190911660e482015294859081905a925f61010492602095f1948515610b0a575f95610ad3575b5060807ffa280417fe858ee402a8c4bec666f5c036232a751cba9074e347742b260a68f391604098845f526004602052895f20865f52602052895f20875f52602052610aaa8a5f2060055f918281558260018201558260028201558260038201558260048201550155565b895191898352886020840152158a83015215156060820152a46001805582519182526020820152f35b9694506020873d602011610b02575b81610aef60209383610dc0565b810103126100c857955193956080610a3f565b3d9150610ae2565b6040513d5f823e3d90fd5b610b369060203d602011610b3b575b610b2e8183610dc0565b810190610e09565b61096b565b503d610b24565b610b5a9060203d602011610b3b57610b2e8183610dc0565b61092e565b83635274afe760e01b5f5260045260245ffd5b600114156108f1565b610b889061271092610de2565b04886108a4565b6040516370a0823160e01b8152600481018590529750602088602481885afa978815610b0a575f98610bf3575b50876108845760405162461bcd60e51b81526020600482015260096024820152684e6f42616c616e636560b81b6044820152606490fd5b9097506020813d602011610c1f575b81610c0f60209383610dc0565b810103126100c857519689610bbc565b3d9150610c02565b60405162461bcd60e51b815260206004820152600c60248201526b139bdd151c9a59d9d95c995960a21b6044820152606490fd5b5088610876565b88111598508961086c565b88101592508961085f565b60405162461bcd60e51b81526020600482015260076024820152664e6f507269636560c81b6044820152606490fd5b9097506040813d604011610cd3575b81610cc360409383610dc0565b810103126100c85751968961084c565b3d9150610cb6565b60405162461bcd60e51b8152602060048201526008602482015267496e61637469766560c01b6044820152606490fd5b62461bcd60e51b815260206004820152601f60248201527f5265656e7472616e637947756172643a207265656e7472616e742063616c6c006044820152606490fd5b600435906001600160a01b03821682036100c857565b602435906001600160a01b03821682036100c857565b604435906001600160a01b03821682036100c857565b610100810190811067ffffffffffffffff821117610dac57604052565b634e487b7160e01b5f52604160045260245ffd5b90601f8019910116810190811067ffffffffffffffff821117610dac57604052565b81810292918115918404141715610df557565b634e487b7160e01b5f52601160045260245ffd5b908160209103126100c8575180151581036100c85790565b15610e2857565b60405162461bcd60e51b81526020600482015260086024820152672d32b937a0b2323960c11b6044820152606490fd5b5f546001600160a01b03163303610e6b57565b63118cdaa760e01b5f523360045260245ffdfea264697066735822122026013fa6904a016af465e38f57ab04ba232be7468a0d4f7353bb9d0c1007f77a64736f6c634300081a0033",
			"opcodes": "PUSH1 0x80 CALLVALUE PUSH2 0x194 JUMPI PUSH1 0x1F PUSH2 0x1075 CODESIZE DUP2 SWAP1 SUB SWAP2 DUP3 ADD PUSH1 0x1F NOT AND DUP4 ADD SWAP2 PUSH1 0x1 PUSH1 0x1 PUSH1 0x40 SHL SUB DUP4 GT DUP5 DUP5 LT OR PUSH2 0x198 JUMPI DUP1 DUP5 SWAP3 PUSH1 0x40 SWAP5 DUP6 MSTORE DUP4 CODECOPY DUP2 ADD SUB SLT PUSH2 0x194 JUMPI PUSH2 0x52 PUSH1 0x20 PUSH2 0x4B DUP4 PUSH2 0x1AC JUMP JUMPDEST SWAP3 ADD PUSH2 0x1AC JUMP JUMPDEST CALLER ISZERO PUSH2 0x181 JUMPI PUSH0 DUP1 SLOAD CALLER PUSH1 0x1 PUSH1 0x1 PUSH1 0xA0 SHL SUB NOT DUP3 AND DUP2 OR DUP4 SSTORE PUSH1 0x40 MLOAD SWAP5 SWAP3 SWAP1 SWAP2 PUSH1 0x1 PUSH1 0x1 PUSH1 0xA0 SHL SUB AND SWAP1 PUSH32 0x8BE0079C531659141344CD1FD0A4F28419497F9722A3DAAFE3B4186F6B6457E0 SWAP1 DUP1 LOG3 PUSH1 0x1 DUP1 SSTORE PUSH1 0x1 PUSH1 0x1 PUSH1 0xA0 SHL SUB AND SWAP2 DUP3 ISZERO ISZERO DUP1 PUSH2 0x16F JUMPI JUMPDEST ISZERO PUSH2 0x142 JUMPI POP PUSH1 0x2 DUP1 SLOAD PUSH1 0x1 PUSH1 0x1 PUSH1 0xA0 SHL SUB NOT SWAP1 DUP2 AND DUP5 OR SWAP1 SWAP2 SSTORE PUSH1 0x3 DUP1 SLOAD SWAP1 SWAP2 AND PUSH1 0x1 PUSH1 0x1 PUSH1 0xA0 SHL SUB SWAP3 SWAP1 SWAP3 AND SWAP2 DUP3 OR SWAP1 SSTORE PUSH1 0x40 MLOAD SWAP2 PUSH32 0x3DF77BEB5DB05FCDD70A30FC8ADF3F83F9501B68579455ADBD100B8180940394 PUSH0 DUP1 LOG2 PUSH32 0x7AED1D3E8155A07CCF395E44EA3109A0E2D6C9B29BBBE9F142D9790596F4DC80 PUSH0 DUP1 LOG2 PUSH2 0xEB4 SWAP1 DUP2 PUSH2 0x1C1 DUP3 CODECOPY RETURN JUMPDEST PUSH3 0x461BCD PUSH1 0xE5 SHL DUP2 MSTORE PUSH1 0x20 PUSH1 0x4 DUP3 ADD MSTORE PUSH1 0x8 PUSH1 0x24 DUP3 ADD MSTORE PUSH8 0x2D32B937A0B23239 PUSH1 0xC1 SHL PUSH1 0x44 DUP3 ADD MSTORE PUSH1 0x64 SWAP1 REVERT JUMPDEST POP PUSH1 0x1 PUSH1 0x1 PUSH1 0xA0 SHL SUB DUP3 AND ISZERO ISZERO PUSH2 0xB7 JUMP JUMPDEST PUSH4 0x1E4FBDF7 PUSH1 0xE0 SHL PUSH0 MSTORE PUSH0 PUSH1 0x4 MSTORE PUSH1 0x24 PUSH0 REVERT JUMPDEST PUSH0 DUP1 REVERT JUMPDEST PUSH4 0x4E487B71 PUSH1 0xE0 SHL PUSH0 MSTORE PUSH1 0x41 PUSH1 0x4 MSTORE PUSH1 0x24 PUSH0 REVERT JUMPDEST MLOAD SWAP1 PUSH1 0x1 PUSH1 0x1 PUSH1 0xA0 SHL SUB DUP3 AND DUP3 SUB PUSH2 0x194 JUMPI JUMP INVALID PUSH1 0x80 DUP1 PUSH1 0x40 MSTORE PUSH1 0x4 CALLDATASIZE LT ISZERO PUSH2 0x12 JUMPI PUSH0 DUP1 REVERT JUMPDEST PUSH0 CALLDATALOAD PUSH1 0xE0 SHR SWAP1 DUP2 PUSH4 0x239AEE06 EQ PUSH2 0x70C JUMPI POP DUP1 PUSH4 0x35D0ED5F EQ PUSH2 0x637 JUMPI DUP1 PUSH4 0x715018A6 EQ PUSH2 0x5E0 JUMPI DUP1 PUSH4 0x7ADBF973 EQ PUSH2 0x573 JUMPI DUP1 PUSH4 0x7D818F47 EQ PUSH2 0x2F2 JUMPI DUP1 PUSH4 0x7DC0D1D0 EQ PUSH2 0x2CA JUMPI DUP1 PUSH4 0x8DA5CB5B EQ PUSH2 0x2A3 JUMPI DUP1 PUSH4 0xBCAE5EF4 EQ PUSH2 0x1F8 JUMPI DUP1 PUSH4 0xC0D78655 EQ PUSH2 0x18B JUMPI DUP1 PUSH4 0xED2F21F5 EQ PUSH2 0x151 JUMPI DUP1 PUSH4 0xF2FDE38B EQ PUSH2 0xCC JUMPI PUSH4 0xF887EA40 EQ PUSH2 0xA0 JUMPI PUSH0 DUP1 REVERT JUMPDEST CALLVALUE PUSH2 0xC8 JUMPI PUSH0 CALLDATASIZE PUSH1 0x3 NOT ADD SLT PUSH2 0xC8 JUMPI PUSH1 0x3 SLOAD PUSH1 0x40 MLOAD PUSH1 0x1 PUSH1 0x1 PUSH1 0xA0 SHL SUB SWAP1 SWAP2 AND DUP2 MSTORE PUSH1 0x20 SWAP1 RETURN JUMPDEST PUSH0 DUP1 REVERT JUMPDEST CALLVALUE PUSH2 0xC8 JUMPI PUSH1 0x20 CALLDATASIZE PUSH1 0x3 NOT ADD SLT PUSH2 0xC8 JUMPI PUSH2 0xE5 PUSH2 0xD4D JUMP JUMPDEST PUSH2 0xED PUSH2 0xE58 JUMP JUMPDEST PUSH1 0x1 PUSH1 0x1 PUSH1 0xA0 SHL SUB AND DUP1 ISZERO PUSH2 0x13E JUMPI PUSH0 DUP1 SLOAD PUSH1 0x1 PUSH1 0x1 PUSH1 0xA0 SHL SUB NOT DUP2 AND DUP4 OR DUP3 SSTORE PUSH1 0x1 PUSH1 0x1 PUSH1 0xA0 SHL SUB AND SWAP1 PUSH32 0x8BE0079C531659141344CD1FD0A4F28419497F9722A3DAAFE3B4186F6B6457E0 SWAP1 DUP1 LOG3 STOP JUMPDEST PUSH4 0x1E4FBDF7 PUSH1 0xE0 SHL PUSH0 MSTORE PUSH0 PUSH1 0x4 MSTORE PUSH1 0x24 PUSH0 REVERT JUMPDEST CALLVALUE PUSH2 0xC8 JUMPI PUSH0 CALLDATASIZE PUSH1 0x3 NOT ADD SLT PUSH2 0xC8 JUMPI PUSH1 0x20 PUSH1 0x40 MLOAD PUSH32 0x36366627DBD14EBF17BFE4AD54A261F54EE08412A2D76099708BA0C75FEF2DA8 DUP2 MSTORE RETURN JUMPDEST CALLVALUE PUSH2 0xC8 JUMPI PUSH1 0x20 CALLDATASIZE PUSH1 0x3 NOT ADD SLT PUSH2 0xC8 JUMPI PUSH2 0x1A4 PUSH2 0xD4D JUMP JUMPDEST PUSH2 0x1AC PUSH2 0xE58 JUMP JUMPDEST PUSH1 0x1 PUSH1 0x1 PUSH1 0xA0 SHL SUB AND PUSH2 0x1C0 DUP2 ISZERO ISZERO PUSH2 0xE21 JUMP JUMPDEST PUSH1 0x3 DUP1 SLOAD PUSH1 0x1 PUSH1 0x1 PUSH1 0xA0 SHL SUB NOT AND DUP3 OR SWAP1 SSTORE PUSH32 0x7AED1D3E8155A07CCF395E44EA3109A0E2D6C9B29BBBE9F142D9790596F4DC80 PUSH0 DUP1 LOG2 STOP JUMPDEST CALLVALUE PUSH2 0xC8 JUMPI PUSH1 0x40 CALLDATASIZE PUSH1 0x3 NOT ADD SLT PUSH2 0xC8 JUMPI PUSH2 0x211 PUSH2 0xD4D JUMP JUMPDEST PUSH2 0x219 PUSH2 0xD63 JUMP JUMPDEST CALLER PUSH0 MSTORE PUSH1 0x4 PUSH1 0x20 MSTORE PUSH1 0x40 PUSH0 KECCAK256 PUSH1 0x1 DUP1 PUSH1 0xA0 SHL SUB DUP4 AND PUSH0 MSTORE PUSH1 0x20 MSTORE PUSH1 0x40 PUSH0 KECCAK256 PUSH1 0x1 DUP1 PUSH1 0xA0 SHL SUB DUP3 AND PUSH0 MSTORE PUSH1 0x20 MSTORE PUSH2 0x26F PUSH1 0x40 PUSH0 KECCAK256 PUSH1 0x5 PUSH0 SWAP2 DUP3 DUP2 SSTORE DUP3 PUSH1 0x1 DUP3 ADD SSTORE DUP3 PUSH1 0x2 DUP3 ADD SSTORE DUP3 PUSH1 0x3 DUP3 ADD SSTORE DUP3 PUSH1 0x4 DUP3 ADD SSTORE ADD SSTORE JUMP JUMPDEST PUSH1 0x1 PUSH1 0x1 PUSH1 0xA0 SHL SUB SWAP1 DUP2 AND SWAP2 AND CALLER PUSH32 0xC4A0F24A5A427F98D9BB378273A31DC61774F9AACF4071433C97D5041F08AC22 PUSH0 DUP1 LOG4 STOP JUMPDEST CALLVALUE PUSH2 0xC8 JUMPI PUSH0 CALLDATASIZE PUSH1 0x3 NOT ADD SLT PUSH2 0xC8 JUMPI PUSH0 SLOAD PUSH1 0x40 MLOAD PUSH1 0x1 PUSH1 0x1 PUSH1 0xA0 SHL SUB SWAP1 SWAP2 AND DUP2 MSTORE PUSH1 0x20 SWAP1 RETURN JUMPDEST CALLVALUE PUSH2 0xC8 JUMPI PUSH0 CALLDATASIZE PUSH1 0x3 NOT ADD SLT PUSH2 0xC8 JUMPI PUSH1 0x2 SLOAD PUSH1 0x40 MLOAD PUSH1 0x1 PUSH1 0x1 PUSH1 0xA0 SHL SUB SWAP1 SWAP2 AND DUP2 MSTORE PUSH1 0x20 SWAP1 RETURN JUMPDEST CALLVALUE PUSH2 0xC8 JUMPI PUSH1 0xE0 CALLDATASIZE PUSH1 0x3 NOT ADD SLT PUSH2 0xC8 JUMPI PUSH2 0x30B PUSH2 0xD4D JUMP JUMPDEST PUSH2 0x313 PUSH2 0xD63 JUMP JUMPDEST SWAP1 PUSH1 0x44 CALLDATALOAD SWAP2 PUSH3 0xFFFFFF DUP4 AND DUP1 SWAP4 SUB PUSH2 0xC8 JUMPI PUSH1 0x64 CALLDATALOAD SWAP2 PUSH1 0x84 CALLDATALOAD PUSH1 0xA4 CALLDATALOAD SWAP1 PUSH1 0xC4 CALLDATALOAD SWAP3 PUSH2 0xFFFF DUP5 AND DUP1 SWAP5 SUB PUSH2 0xC8 JUMPI PUSH1 0x1 PUSH1 0x1 PUSH1 0xA0 SHL SUB AND SWAP5 DUP6 ISZERO ISZERO DUP1 PUSH2 0x561 JUMPI JUMPDEST ISZERO PUSH2 0x530 JUMPI DUP2 ISZERO DUP1 ISZERO SWAP1 PUSH2 0x527 JUMPI JUMPDEST ISZERO PUSH2 0x4F5 JUMPI PUSH2 0x2710 DUP5 GT PUSH2 0x4C6 JUMPI DUP4 PUSH2 0xFFFF PUSH1 0x5 DUP10 SWAP8 DUP7 DUP11 PUSH1 0x40 MLOAD SWAP3 PUSH2 0x387 DUP5 PUSH2 0xD8F JUMP JUMPDEST PUSH1 0x1 DUP5 MSTORE PUSH1 0x20 DUP5 ADD SWAP1 DUP3 DUP3 MSTORE PUSH1 0x40 DUP6 ADD SWAP1 PUSH1 0x1 DUP1 PUSH1 0xA0 SHL SUB AND SWAP15 DUP16 SWAP3 DUP4 DUP4 MSTORE PUSH1 0x60 DUP8 ADD SWAP2 DUP3 MSTORE PUSH1 0x80 DUP8 ADD SWAP4 DUP12 DUP6 MSTORE PUSH1 0xA0 DUP9 ADD SWAP6 DUP14 DUP8 MSTORE PUSH1 0xC0 DUP10 ADD SWAP8 DUP9 MSTORE PUSH1 0xE0 DUP10 ADD SWAP12 DUP13 MSTORE CALLER PUSH0 MSTORE PUSH1 0x4 PUSH1 0x20 MSTORE PUSH1 0x40 PUSH0 KECCAK256 SWAP1 PUSH0 MSTORE PUSH1 0x20 MSTORE PUSH1 0x40 PUSH0 KECCAK256 SWAP1 PUSH0 MSTORE PUSH1 0x20 MSTORE PUSH1 0x40 PUSH0 KECCAK256 SWAP7 MLOAD ISZERO ISZERO SWAP1 PUSH1 0xFF DUP9 SLOAD SWAP2 PUSH2 0x100 PUSH1 0x1 PUSH1 0xA8 SHL SUB SWAP1 MLOAD PUSH1 0x8 SHL AND SWAP3 AND SWAP1 PUSH11 0xFFFFFFFFFFFFFFFFFFFFFF PUSH1 0xA8 SHL AND OR OR DUP7 SSTORE PUSH1 0x1 DUP7 ADD SWAP2 PUSH1 0x1 DUP1 PUSH1 0xA0 SHL SUB SWAP1 MLOAD AND PUSH12 0xFFFFFFFFFFFFFFFFFFFFFFFF PUSH1 0xA0 SHL DUP4 SLOAD AND OR DUP3 SSTORE MLOAD DUP2 SLOAD SWAP1 PUSH3 0xFFFFFF PUSH1 0xA0 SHL SWAP1 PUSH1 0xA0 SHL AND SWAP1 PUSH3 0xFFFFFF PUSH1 0xA0 SHL NOT AND OR SWAP1 SSTORE MLOAD PUSH1 0x2 DUP5 ADD SSTORE MLOAD PUSH1 0x3 DUP4 ADD SSTORE MLOAD PUSH1 0x4 DUP3 ADD SSTORE ADD SWAP2 MLOAD AND PUSH2 0xFFFF NOT DUP3 SLOAD AND OR SWAP1 SSTORE PUSH1 0x40 MLOAD SWAP5 DUP6 MSTORE PUSH1 0x20 DUP6 ADD MSTORE PUSH1 0x40 DUP5 ADD MSTORE PUSH1 0x60 DUP4 ADD MSTORE PUSH1 0x80 DUP3 ADD MSTORE PUSH1 0x1 PUSH1 0xA0 DUP3 ADD MSTORE PUSH32 0x746A2F823CF6F4474906BACC479001A4919E05EDF924B3DBABF198D8D16BEC43 PUSH1 0xC0 CALLER SWAP3 LOG4 STOP JUMPDEST PUSH1 0x40 MLOAD PUSH3 0x461BCD PUSH1 0xE5 SHL DUP2 MSTORE PUSH1 0x20 PUSH1 0x4 DUP3 ADD MSTORE PUSH1 0x7 PUSH1 0x24 DUP3 ADD MSTORE PUSH7 0x42616442697073 PUSH1 0xC8 SHL PUSH1 0x44 DUP3 ADD MSTORE PUSH1 0x64 SWAP1 REVERT JUMPDEST PUSH1 0x40 MLOAD PUSH3 0x461BCD PUSH1 0xE5 SHL DUP2 MSTORE PUSH1 0x20 PUSH1 0x4 DUP3 ADD MSTORE PUSH1 0xA PUSH1 0x24 DUP3 ADD MSTORE PUSH10 0x4E6F5472696767657273 PUSH1 0xB0 SHL PUSH1 0x44 DUP3 ADD MSTORE PUSH1 0x64 SWAP1 REVERT JUMPDEST POP DUP3 ISZERO ISZERO PUSH2 0x362 JUMP JUMPDEST PUSH1 0x40 MLOAD PUSH3 0x461BCD PUSH1 0xE5 SHL DUP2 MSTORE PUSH1 0x20 PUSH1 0x4 DUP3 ADD MSTORE PUSH1 0x9 PUSH1 0x24 DUP3 ADD MSTORE PUSH9 0x2D32B937AA37B5B2B7 PUSH1 0xB9 SHL PUSH1 0x44 DUP3 ADD MSTORE PUSH1 0x64 SWAP1 REVERT JUMPDEST POP PUSH1 0x1 PUSH1 0x1 PUSH1 0xA0 SHL SUB DUP6 AND ISZERO ISZERO PUSH2 0x353 JUMP JUMPDEST CALLVALUE PUSH2 0xC8 JUMPI PUSH1 0x20 CALLDATASIZE PUSH1 0x3 NOT ADD SLT PUSH2 0xC8 JUMPI PUSH2 0x58C PUSH2 0xD4D JUMP JUMPDEST PUSH2 0x594 PUSH2 0xE58 JUMP JUMPDEST PUSH1 0x1 PUSH1 0x1 PUSH1 0xA0 SHL SUB AND PUSH2 0x5A8 DUP2 ISZERO ISZERO PUSH2 0xE21 JUMP JUMPDEST PUSH1 0x2 DUP1 SLOAD PUSH1 0x1 PUSH1 0x1 PUSH1 0xA0 SHL SUB NOT AND DUP3 OR SWAP1 SSTORE PUSH32 0x3DF77BEB5DB05FCDD70A30FC8ADF3F83F9501B68579455ADBD100B8180940394 PUSH0 DUP1 LOG2 STOP JUMPDEST CALLVALUE PUSH2 0xC8 JUMPI PUSH0 CALLDATASIZE PUSH1 0x3 NOT ADD SLT PUSH2 0xC8 JUMPI PUSH2 0x5F8 PUSH2 0xE58 JUMP JUMPDEST PUSH0 DUP1 SLOAD PUSH1 0x1 PUSH1 0x1 PUSH1 0xA0 SHL SUB NOT DUP2 AND DUP3 SSTORE PUSH1 0x1 PUSH1 0x1 PUSH1 0xA0 SHL SUB AND PUSH32 0x8BE0079C531659141344CD1FD0A4F28419497F9722A3DAAFE3B4186F6B6457E0 DUP3 DUP1 LOG3 STOP JUMPDEST CALLVALUE PUSH2 0xC8 JUMPI PUSH1 0x60 CALLDATASIZE PUSH1 0x3 NOT ADD SLT PUSH2 0xC8 JUMPI PUSH2 0x650 PUSH2 0xD4D JUMP JUMPDEST PUSH2 0x658 PUSH2 0xD63 JUMP JUMPDEST PUSH2 0x660 PUSH2 0xD79 JUMP JUMPDEST SWAP2 PUSH1 0x1 DUP1 PUSH1 0xA0 SHL SUB AND PUSH0 MSTORE PUSH1 0x4 PUSH1 0x20 MSTORE PUSH1 0x40 PUSH0 KECCAK256 SWAP1 PUSH1 0x1 DUP1 PUSH1 0xA0 SHL SUB AND PUSH0 MSTORE PUSH1 0x20 MSTORE PUSH1 0x40 PUSH0 KECCAK256 SWAP1 PUSH1 0x1 DUP1 PUSH1 0xA0 SHL SUB AND PUSH0 MSTORE PUSH1 0x20 MSTORE PUSH2 0x100 PUSH1 0x40 PUSH0 KECCAK256 DUP1 SLOAD SWAP1 PUSH1 0x1 DUP2 ADD SLOAD SWAP1 PUSH1 0x2 DUP2 ADD SLOAD PUSH1 0x3 DUP3 ADD SLOAD SWAP1 PUSH3 0xFFFFFF PUSH2 0xFFFF PUSH1 0x5 PUSH1 0x4 DUP7 ADD SLOAD SWAP6 ADD SLOAD AND SWAP5 PUSH1 0x40 MLOAD SWAP7 PUSH1 0xFF DUP2 AND ISZERO ISZERO DUP9 MSTORE PUSH1 0x1 DUP1 PUSH1 0xA0 SHL SUB SWAP1 PUSH1 0x8 SHR AND PUSH1 0x20 DUP9 ADD MSTORE PUSH1 0x1 DUP1 PUSH1 0xA0 SHL SUB DUP2 AND PUSH1 0x40 DUP9 ADD MSTORE PUSH1 0xA0 SHR AND PUSH1 0x60 DUP7 ADD MSTORE PUSH1 0x80 DUP6 ADD MSTORE PUSH1 0xA0 DUP5 ADD MSTORE PUSH1 0xC0 DUP4 ADD MSTORE PUSH1 0xE0 DUP3 ADD MSTORE RETURN JUMPDEST CALLVALUE PUSH2 0xC8 JUMPI PUSH1 0x80 CALLDATASIZE PUSH1 0x3 NOT ADD SLT PUSH2 0xC8 JUMPI PUSH2 0x725 PUSH2 0xD4D JUMP JUMPDEST PUSH2 0x72D PUSH2 0xD63 JUMP JUMPDEST SWAP1 PUSH2 0x736 PUSH2 0xD79 JUMP JUMPDEST SWAP3 PUSH1 0x2 PUSH1 0x1 SLOAD EQ PUSH2 0xD0B JUMPI POP PUSH1 0x2 PUSH1 0x1 SSTORE PUSH1 0x1 PUSH1 0x1 PUSH1 0xA0 SHL SUB SWAP1 DUP2 AND PUSH0 DUP2 DUP2 MSTORE PUSH1 0x4 PUSH1 0x20 SWAP1 DUP2 MSTORE PUSH1 0x40 DUP1 DUP4 KECCAK256 DUP7 DUP7 AND DUP5 MSTORE DUP3 MSTORE DUP1 DUP4 KECCAK256 SWAP5 DUP8 AND DUP4 MSTORE SWAP4 SWAP1 MSTORE DUP3 SWAP1 KECCAK256 SWAP2 MLOAD SWAP4 SWAP1 SWAP3 SWAP1 PUSH2 0x786 DUP6 PUSH2 0xD8F JUMP JUMPDEST DUP3 SLOAD SWAP4 PUSH1 0xFF DUP6 AND ISZERO SWAP5 DUP6 ISZERO DUP8 MSTORE PUSH1 0x1 DUP1 PUSH1 0xA0 SHL SUB SWAP1 PUSH1 0x8 SHR AND PUSH1 0x20 DUP8 ADD MSTORE PUSH1 0x1 DUP5 ADD SLOAD SWAP4 PUSH1 0x1 DUP1 PUSH1 0xA0 SHL SUB DUP6 AND PUSH1 0x40 DUP9 ADD MSTORE PUSH3 0xFFFFFF PUSH1 0x60 DUP9 ADD SWAP6 PUSH1 0xA0 SHR AND DUP6 MSTORE PUSH1 0x2 DUP2 ADD SLOAD SWAP7 PUSH1 0x80 DUP2 ADD SWAP8 DUP9 MSTORE PUSH1 0x3 DUP3 ADD SLOAD SWAP7 PUSH1 0xA0 DUP3 ADD SWAP8 DUP9 MSTORE PUSH1 0xE0 PUSH2 0xFFFF PUSH1 0x5 PUSH1 0x4 DUP7 ADD SLOAD SWAP6 PUSH1 0xC0 DUP7 ADD SWAP7 DUP8 MSTORE ADD SLOAD AND SWAP3 ADD SWAP2 DUP3 MSTORE PUSH2 0xCDB JUMPI PUSH1 0x2 SLOAD PUSH1 0x40 DUP1 MLOAD PUSH4 0xCC34929D PUSH1 0xE0 SHL DUP2 MSTORE PUSH1 0x1 PUSH1 0x1 PUSH1 0xA0 SHL SUB SWAP8 DUP9 AND PUSH1 0x4 DUP3 ADD DUP2 SWAP1 MSTORE SWAP7 DUP9 AND PUSH1 0x24 DUP3 ADD DUP2 SWAP1 MSTORE SWAP1 SWAP10 SWAP1 SWAP8 SWAP1 SWAP3 DUP11 SWAP2 PUSH1 0x44 SWAP2 DUP4 SWAP2 AND GAS STATICCALL SWAP8 DUP9 ISZERO PUSH2 0xB0A JUMPI PUSH0 SWAP9 PUSH2 0xCA7 JUMPI JUMPDEST POP DUP8 ISZERO PUSH2 0xC78 JUMPI MLOAD SWAP2 DUP3 ISZERO ISZERO SWAP3 DUP4 PUSH2 0xC6D JUMPI JUMPDEST POP MLOAD SWAP8 DUP9 ISZERO ISZERO SWAP9 DUP10 PUSH2 0xC62 JUMPI JUMPDEST POP DUP3 ISZERO SWAP3 DUP4 PUSH2 0xC5B JUMPI JUMPDEST ISZERO PUSH2 0xC27 JUMPI MLOAD SWAP7 DUP8 ISZERO PUSH2 0xB8F JUMPI JUMPDEST PUSH8 0xDE0B6B3A7640000 PUSH2 0x89A PUSH2 0xFFFF SWAP3 DUP11 PUSH2 0xDE2 JUMP JUMPDEST DIV SWAP2 MLOAD AND DUP1 PUSH2 0xB7B JUMPI JUMPDEST POP PUSH1 0x20 PUSH0 PUSH1 0x40 MLOAD DUP3 DUP2 ADD SWAP1 PUSH4 0x23B872DD PUSH1 0xE0 SHL DUP3 MSTORE DUP7 PUSH1 0x24 DUP3 ADD MSTORE ADDRESS PUSH1 0x44 DUP3 ADD MSTORE DUP11 PUSH1 0x64 DUP3 ADD MSTORE PUSH1 0x64 DUP2 MSTORE PUSH2 0x8DA PUSH1 0x84 DUP3 PUSH2 0xDC0 JUMP JUMPDEST MLOAD SWAP1 DUP3 DUP9 GAS CALL ISZERO PUSH2 0xB0A JUMPI PUSH0 MLOAD RETURNDATASIZE PUSH2 0xB72 JUMPI POP DUP4 EXTCODESIZE ISZERO JUMPDEST PUSH2 0xB5F JUMPI PUSH1 0x1 DUP1 PUSH1 0xA0 SHL SUB PUSH1 0x3 SLOAD AND PUSH1 0x40 MLOAD SWAP1 PUSH4 0x95EA7B3 PUSH1 0xE0 SHL DUP3 MSTORE PUSH1 0x4 DUP3 ADD MSTORE PUSH0 PUSH1 0x24 DUP3 ADD MSTORE PUSH1 0x20 DUP2 PUSH1 0x44 DUP2 PUSH0 DUP10 GAS CALL DUP1 ISZERO PUSH2 0xB0A JUMPI PUSH2 0xB42 JUMPI JUMPDEST POP PUSH1 0x3 SLOAD PUSH1 0x40 MLOAD PUSH4 0x95EA7B3 PUSH1 0xE0 SHL DUP2 MSTORE PUSH1 0x1 PUSH1 0x1 PUSH1 0xA0 SHL SUB SWAP1 SWAP2 AND PUSH1 0x4 DUP3 ADD MSTORE PUSH1 0x24 DUP2 ADD DUP9 SWAP1 MSTORE PUSH1 0x20 DUP2 PUSH1 0x44 DUP2 PUSH0 DUP10 GAS CALL DUP1 ISZERO PUSH2 0xB0A JUMPI PUSH2 0xB15 JUMPI JUMPDEST POP PUSH1 0x3 SLOAD SWAP6 MLOAD PUSH1 0x40 MLOAD PUSH3 0xFFFFFF SWAP1 SWAP2 AND SWAP7 PUSH1 0x1 PUSH1 0x1 PUSH1 0xA0 SHL SUB AND PUSH2 0x98E DUP3 PUSH2 0xD8F JUMP JUMPDEST DUP6 DUP3 MSTORE PUSH1 0x20 DUP3 ADD DUP8 DUP2 MSTORE PUSH1 0x40 DUP1 DUP5 ADD SWAP10 DUP11 MSTORE PUSH1 0x60 DUP5 ADD DUP8 DUP2 MSTORE PUSH1 0x64 DUP1 CALLDATALOAD PUSH1 0x80 DUP8 ADD SWAP1 DUP2 MSTORE PUSH1 0xA0 DUP8 ADD DUP15 DUP2 MSTORE PUSH1 0xC0 DUP9 ADD SWAP9 DUP10 MSTORE PUSH0 PUSH1 0xE0 DUP10 ADD SWAP1 DUP2 MSTORE SWAP5 MLOAD PUSH4 0x414BF389 PUSH1 0xE0 SHL DUP2 MSTORE SWAP8 MLOAD PUSH1 0x1 PUSH1 0x1 PUSH1 0xA0 SHL SUB SWAP1 DUP2 AND PUSH1 0x4 DUP11 ADD MSTORE SWAP6 MLOAD DUP7 AND PUSH1 0x24 DUP10 ADD MSTORE SWAP13 MLOAD PUSH3 0xFFFFFF AND PUSH1 0x44 DUP9 ADD MSTORE SWAP2 MLOAD DUP5 AND SWAP1 DUP7 ADD MSTORE MLOAD PUSH1 0x84 DUP6 ADD MSTORE SWAP9 MLOAD PUSH1 0xA4 DUP5 ADD MSTORE SWAP3 MLOAD PUSH1 0xC4 DUP4 ADD MSTORE SWAP7 MLOAD SWAP1 SWAP2 AND PUSH1 0xE4 DUP3 ADD MSTORE SWAP5 DUP6 SWAP1 DUP2 SWAP1 GAS SWAP3 PUSH0 PUSH2 0x104 SWAP3 PUSH1 0x20 SWAP6 CALL SWAP5 DUP6 ISZERO PUSH2 0xB0A JUMPI PUSH0 SWAP6 PUSH2 0xAD3 JUMPI JUMPDEST POP PUSH1 0x80 PUSH32 0xFA280417FE858EE402A8C4BEC666F5C036232A751CBA9074E347742B260A68F3 SWAP2 PUSH1 0x40 SWAP9 DUP5 PUSH0 MSTORE PUSH1 0x4 PUSH1 0x20 MSTORE DUP10 PUSH0 KECCAK256 DUP7 PUSH0 MSTORE PUSH1 0x20 MSTORE DUP10 PUSH0 KECCAK256 DUP8 PUSH0 MSTORE PUSH1 0x20 MSTORE PUSH2 0xAAA DUP11 PUSH0 KECCAK256 PUSH1 0x5 PUSH0 SWAP2 DUP3 DUP2 SSTORE DUP3 PUSH1 0x1 DUP3 ADD SSTORE DUP3 PUSH1 0x2 DUP3 ADD SSTORE DUP3 PUSH1 0x3 DUP3 ADD SSTORE DUP3 PUSH1 0x4 DUP3 ADD SSTORE ADD SSTORE JUMP JUMPDEST DUP10 MLOAD SWAP2 DUP10 DUP4 MSTORE DUP9 PUSH1 0x20 DUP5 ADD MSTORE ISZERO DUP11 DUP4 ADD MSTORE ISZERO ISZERO PUSH1 0x60 DUP3 ADD MSTORE LOG4 PUSH1 0x1 DUP1 SSTORE DUP3 MLOAD SWAP2 DUP3 MSTORE PUSH1 0x20 DUP3 ADD MSTORE RETURN JUMPDEST SWAP7 SWAP5 POP PUSH1 0x20 DUP8 RETURNDATASIZE PUSH1 0x20 GT PUSH2 0xB02 JUMPI JUMPDEST DUP2 PUSH2 0xAEF PUSH1 0x20 SWAP4 DUP4 PUSH2 0xDC0 JUMP JUMPDEST DUP2 ADD SUB SLT PUSH2 0xC8 JUMPI SWAP6 MLOAD SWAP4 SWAP6 PUSH1 0x80 PUSH2 0xA3F JUMP JUMPDEST RETURNDATASIZE SWAP2 POP PUSH2 0xAE2 JUMP JUMPDEST PUSH1 0x40 MLOAD RETURNDATASIZE PUSH0 DUP3 RETURNDATACOPY RETURNDATASIZE SWAP1 REVERT JUMPDEST PUSH2 0xB36 SWAP1 PUSH1 0x20 RETURNDATASIZE PUSH1 0x20 GT PUSH2 0xB3B JUMPI JUMPDEST PUSH2 0xB2E DUP2 DUP4 PUSH2 0xDC0 JUMP JUMPDEST DUP2 ADD SWAP1 PUSH2 0xE09 JUMP JUMPDEST PUSH2 0x96B JUMP JUMPDEST POP RETURNDATASIZE PUSH2 0xB24 JUMP JUMPDEST PUSH2 0xB5A SWAP1 PUSH1 0x20 RETURNDATASIZE PUSH1 0x20 GT PUSH2 0xB3B JUMPI PUSH2 0xB2E DUP2 DUP4 PUSH2 0xDC0 JUMP JUMPDEST PUSH2 0x92E JUMP JUMPDEST DUP4 PUSH4 0x5274AFE7 PUSH1 0xE0 SHL PUSH0 MSTORE PUSH1 0x4 MSTORE PUSH1 0x24 PUSH0 REVERT JUMPDEST PUSH1 0x1 EQ ISZERO PUSH2 0x8F1 JUMP JUMPDEST PUSH2 0xB88 SWAP1 PUSH2 0x2710 SWAP3 PUSH2 0xDE2 JUMP JUMPDEST DIV DUP9 PUSH2 0x8A4 JUMP JUMPDEST PUSH1 0x40 MLOAD PUSH4 0x70A08231 PUSH1 0xE0 SHL DUP2 MSTORE PUSH1 0x4 DUP2 ADD DUP6 SWAP1 MSTORE SWAP8 POP PUSH1 0x20 DUP9 PUSH1 0x24 DUP2 DUP9 GAS STATICCALL SWAP8 DUP9 ISZERO PUSH2 0xB0A JUMPI PUSH0 SWAP9 PUSH2 0xBF3 JUMPI JUMPDEST POP DUP8 PUSH2 0x884 JUMPI PUSH1 0x40 MLOAD PUSH3 0x461BCD PUSH1 0xE5 SHL DUP2 MSTORE PUSH1 0x20 PUSH1 0x4 DUP3 ADD MSTORE PUSH1 0x9 PUSH1 0x24 DUP3 ADD MSTORE PUSH9 0x4E6F42616C616E6365 PUSH1 0xB8 SHL PUSH1 0x44 DUP3 ADD MSTORE PUSH1 0x64 SWAP1 REVERT JUMPDEST SWAP1 SWAP8 POP PUSH1 0x20 DUP2 RETURNDATASIZE PUSH1 0x20 GT PUSH2 0xC1F JUMPI JUMPDEST DUP2 PUSH2 0xC0F PUSH1 0x20 SWAP4 DUP4 PUSH2 0xDC0 JUMP JUMPDEST DUP2 ADD SUB SLT PUSH2 0xC8 JUMPI MLOAD SWAP7 DUP10 PUSH2 0xBBC JUMP JUMPDEST RETURNDATASIZE SWAP2 POP PUSH2 0xC02 JUMP JUMPDEST PUSH1 0x40 MLOAD PUSH3 0x461BCD PUSH1 0xE5 SHL DUP2 MSTORE PUSH1 0x20 PUSH1 0x4 DUP3 ADD MSTORE PUSH1 0xC PUSH1 0x24 DUP3 ADD MSTORE PUSH12 0x139BDD151C9A59D9D95C9959 PUSH1 0xA2 SHL PUSH1 0x44 DUP3 ADD MSTORE PUSH1 0x64 SWAP1 REVERT JUMPDEST POP DUP9 PUSH2 0x876 JUMP JUMPDEST DUP9 GT ISZERO SWAP9 POP DUP10 PUSH2 0x86C JUMP JUMPDEST DUP9 LT ISZERO SWAP3 POP DUP10 PUSH2 0x85F JUMP JUMPDEST PUSH1 0x40 MLOAD PUSH3 0x461BCD PUSH1 0xE5 SHL DUP2 MSTORE PUSH1 0x20 PUSH1 0x4 DUP3 ADD MSTORE PUSH1 0x7 PUSH1 0x24 DUP3 ADD MSTORE PUSH7 0x4E6F5072696365 PUSH1 0xC8 SHL PUSH1 0x44 DUP3 ADD MSTORE PUSH1 0x64 SWAP1 REVERT JUMPDEST SWAP1 SWAP8 POP PUSH1 0x40 DUP2 RETURNDATASIZE PUSH1 0x40 GT PUSH2 0xCD3 JUMPI JUMPDEST DUP2 PUSH2 0xCC3 PUSH1 0x40 SWAP4 DUP4 PUSH2 0xDC0 JUMP JUMPDEST DUP2 ADD SUB SLT PUSH2 0xC8 JUMPI MLOAD SWAP7 DUP10 PUSH2 0x84C JUMP JUMPDEST RETURNDATASIZE SWAP2 POP PUSH2 0xCB6 JUMP JUMPDEST PUSH1 0x40 MLOAD PUSH3 0x461BCD PUSH1 0xE5 SHL DUP2 MSTORE PUSH1 0x20 PUSH1 0x4 DUP3 ADD MSTORE PUSH1 0x8 PUSH1 0x24 DUP3 ADD MSTORE PUSH8 0x496E616374697665 PUSH1 0xC0 SHL PUSH1 0x44 DUP3 ADD MSTORE PUSH1 0x64 SWAP1 REVERT JUMPDEST PUSH3 0x461BCD PUSH1 0xE5 SHL DUP2 MSTORE PUSH1 0x20 PUSH1 0x4 DUP3 ADD MSTORE PUSH1 0x1F PUSH1 0x24 DUP3 ADD MSTORE PUSH32 0x5265656E7472616E637947756172643A207265656E7472616E742063616C6C00 PUSH1 0x44 DUP3 ADD MSTORE PUSH1 0x64 SWAP1 REVERT JUMPDEST PUSH1 0x4 CALLDATALOAD SWAP1 PUSH1 0x1 PUSH1 0x1 PUSH1 0xA0 SHL SUB DUP3 AND DUP3 SUB PUSH2 0xC8 JUMPI JUMP JUMPDEST PUSH1 0x24 CALLDATALOAD SWAP1 PUSH1 0x1 PUSH1 0x1 PUSH1 0xA0 SHL SUB DUP3 AND DUP3 SUB PUSH2 0xC8 JUMPI JUMP JUMPDEST PUSH1 0x44 CALLDATALOAD SWAP1 PUSH1 0x1 PUSH1 0x1 PUSH1 0xA0 SHL SUB DUP3 AND DUP3 SUB PUSH2 0xC8 JUMPI JUMP JUMPDEST PUSH2 0x100 DUP2 ADD SWAP1 DUP2 LT PUSH8 0xFFFFFFFFFFFFFFFF DUP3 GT OR PUSH2 0xDAC JUMPI PUSH1 0x40 MSTORE JUMP JUMPDEST PUSH4 0x4E487B71 PUSH1 0xE0 SHL PUSH0 MSTORE PUSH1 0x41 PUSH1 0x4 MSTORE PUSH1 0x24 PUSH0 REVERT JUMPDEST SWAP1 PUSH1 0x1F DUP1 NOT SWAP2 ADD AND DUP2 ADD SWAP1 DUP2 LT PUSH8 0xFFFFFFFFFFFFFFFF DUP3 GT OR PUSH2 0xDAC JUMPI PUSH1 0x40 MSTORE JUMP JUMPDEST DUP2 DUP2 MUL SWAP3 SWAP2 DUP2 ISZERO SWAP2 DUP5 DIV EQ OR ISZERO PUSH2 0xDF5 JUMPI JUMP JUMPDEST PUSH4 0x4E487B71 PUSH1 0xE0 SHL PUSH0 MSTORE PUSH1 0x11 PUSH1 0x4 MSTORE PUSH1 0x24 PUSH0 REVERT JUMPDEST SWAP1 DUP2 PUSH1 0x20 SWAP2 SUB SLT PUSH2 0xC8 JUMPI MLOAD DUP1 ISZERO ISZERO DUP2 SUB PUSH2 0xC8 JUMPI SWAP1 JUMP JUMPDEST ISZERO PUSH2 0xE28 JUMPI JUMP JUMPDEST PUSH1 0x40 MLOAD PUSH3 0x461BCD PUSH1 0xE5 SHL DUP2 MSTORE PUSH1 0x20 PUSH1 0x4 DUP3 ADD MSTORE PUSH1 0x8 PUSH1 0x24 DUP3 ADD MSTORE PUSH8 0x2D32B937A0B23239 PUSH1 0xC1 SHL PUSH1 0x44 DUP3 ADD MSTORE PUSH1 0x64 SWAP1 REVERT JUMPDEST PUSH0 SLOAD PUSH1 0x1 PUSH1 0x1 PUSH1 0xA0 SHL SUB AND CALLER SUB PUSH2 0xE6B JUMPI JUMP JUMPDEST PUSH4 0x118CDAA7 PUSH1 0xE0 SHL PUSH0 MSTORE CALLER PUSH1 0x4 MSTORE PUSH1 0x24 PUSH0 REVERT INVALID LOG2 PUSH5 0x6970667358 0x22 SLT KECCAK256 0x26 ADD EXTCODEHASH 0xA6 SWAP1 BLOBBASEFEE ADD PUSH11 0xF465E38F57AB04BA232BE7 CHAINID DUP11 0xD 0x4F PUSH20 0x53BB9D0C1007F77A64736F6C634300081A003300 "
		},
		"gasEstimates": {
			"creation": {
				"codeDepositCost": "752800",
				"executionCost": "infinite",
				"totalCost": "infinite"
			},
			"external": {
				"MODULE_ID()": "351",
				"clearTPSL(address,address)": "32643",
				"configs(address,address,address)": "13481",
				"execute(address,address,address,uint256)": "infinite",
				"oracle()": "2390",
				"owner()": "2411",
				"renounceOwnership()": "28094",
				"router()": "2519",
				"setOracle(address)": "27867",
				"setRouter(address)": "27977",
				"setTPSL(address,address,uint24,uint256,uint256,uint256,uint16)": "168036",
				"transferOwnership(address)": "28390"
			}
		},
		"methodIdentifiers": {
			"MODULE_ID()": "ed2f21f5",
			"clearTPSL(address,address)": "bcae5ef4",
			"configs(address,address,address)": "35d0ed5f",
			"execute(address,address,address,uint256)": "239aee06",
			"oracle()": "7dc0d1d0",
			"owner()": "8da5cb5b",
			"renounceOwnership()": "715018a6",
			"router()": "f887ea40",
			"setOracle(address)": "7adbf973",
			"setRouter(address)": "c0d78655",
			"setTPSL(address,address,uint24,uint256,uint256,uint256,uint16)": "7d818f47",
			"transferOwnership(address)": "f2fde38b"
		}
	},
	"abi": [
		{
			"inputs": [
				{
					"internalType": "address",
					"name": "_oracle",
					"type": "address"
				},
				{
					"internalType": "address",
					"name": "_router",
					"type": "address"
				}
			],
			"stateMutability": "nonpayable",
			"type": "constructor"
		},
		{
			"inputs": [
				{
					"internalType": "address",
					"name": "owner",
					"type": "address"
				}
			],
			"name": "OwnableInvalidOwner",
			"type": "error"
		},
		{
			"inputs": [
				{
					"internalType": "address",
					"name": "account",
					"type": "address"
				}
			],
			"name": "OwnableUnauthorizedAccount",
			"type": "error"
		},
		{
			"inputs": [
				{
					"internalType": "address",
					"name": "token",
					"type": "address"
				}
			],
			"name": "SafeERC20FailedOperation",
			"type": "error"
		},
		{
			"anonymous": false,
			"inputs": [
				{
					"indexed": true,
					"internalType": "address",
					"name": "vault",
					"type": "address"
				},
				{
					"indexed": true,
					"internalType": "address",
					"name": "base",
					"type": "address"
				},
				{
					"indexed": true,
					"internalType": "address",
					"name": "quote",
					"type": "address"
				}
			],
			"name": "Cleared",
			"type": "event"
		},
		{
			"anonymous": false,
			"inputs": [
				{
					"indexed": true,
					"internalType": "address",
					"name": "vault",
					"type": "address"
				},
				{
					"indexed": true,
					"internalType": "address",
					"name": "base",
					"type": "address"
				},
				{
					"indexed": true,
					"internalType": "address",
					"name": "quote",
					"type": "address"
				},
				{
					"indexed": false,
					"internalType": "uint24",
					"name": "fee",
					"type": "uint24"
				},
				{
					"indexed": false,
					"internalType": "uint256",
					"name": "amountIn",
					"type": "uint256"
				},
				{
					"indexed": false,
					"internalType": "uint256",
					"name": "takeProfitPrice1e18",
					"type": "uint256"
				},
				{
					"indexed": false,
					"internalType": "uint256",
					"name": "stopLossPrice1e18",
					"type": "uint256"
				},
				{
					"indexed": false,
					"internalType": "uint16",
					"name": "minOutBips",
					"type": "uint16"
				},
				{
					"indexed": false,
					"internalType": "bool",
					"name": "active",
					"type": "bool"
				}
			],
			"name": "ConfigSet",
			"type": "event"
		},
		{
			"anonymous": false,
			"inputs": [
				{
					"indexed": true,
					"internalType": "address",
					"name": "vault",
					"type": "address"
				},
				{
					"indexed": true,
					"internalType": "address",
					"name": "base",
					"type": "address"
				},
				{
					"indexed": true,
					"internalType": "address",
					"name": "quote",
					"type": "address"
				},
				{
					"indexed": false,
					"internalType": "uint256",
					"name": "sold",
					"type": "uint256"
				},
				{
					"indexed": false,
					"internalType": "uint256",
					"name": "received",
					"type": "uint256"
				},
				{
					"indexed": false,
					"internalType": "bool",
					"name": "tpTriggered",
					"type": "bool"
				},
				{
					"indexed": false,
					"internalType": "bool",
					"name": "slTriggered",
					"type": "bool"
				}
			],
			"name": "Executed",
			"type": "event"
		},
		{
			"anonymous": false,
			"inputs": [
				{
					"indexed": true,
					"internalType": "address",
					"name": "oracle",
					"type": "address"
				}
			],
			"name": "OracleUpdated",
			"type": "event"
		},
		{
			"anonymous": false,
			"inputs": [
				{
					"indexed": true,
					"internalType": "address",
					"name": "previousOwner",
					"type": "address"
				},
				{
					"indexed": true,
					"internalType": "address",
					"name": "newOwner",
					"type": "address"
				}
			],
			"name": "OwnershipTransferred",
			"type": "event"
		},
		{
			"anonymous": false,
			"inputs": [
				{
					"indexed": true,
					"internalType": "address",
					"name": "router",
					"type": "address"
				}
			],
			"name": "RouterUpdated",
			"type": "event"
		},
		{
			"inputs": [],
			"name": "MODULE_ID",
			"outputs": [
				{
					"internalType": "bytes32",
					"name": "",
					"type": "bytes32"
				}
			],
			"stateMutability": "view",
			"type": "function"
		},
		{
			"inputs": [
				{
					"internalType": "address",
					"name": "base",
					"type": "address"
				},
				{
					"internalType": "address",
					"name": "quote",
					"type": "address"
				}
			],
			"name": "clearTPSL",
			"outputs": [],
			"stateMutability": "nonpayable",
			"type": "function"
		},
		{
			"inputs": [
				{
					"internalType": "address",
					"name": "",
					"type": "address"
				},
				{
					"internalType": "address",
					"name": "",
					"type": "address"
				},
				{
					"internalType": "address",
					"name": "",
					"type": "address"
				}
			],
			"name": "configs",
			"outputs": [
				{
					"internalType": "bool",
					"name": "active",
					"type": "bool"
				},
				{
					"internalType": "address",
					"name": "base",
					"type": "address"
				},
				{
					"internalType": "address",
					"name": "quote",
					"type": "address"
				},
				{
					"internalType": "uint24",
					"name": "fee",
					"type": "uint24"
				},
				{
					"internalType": "uint256",
					"name": "amountIn",
					"type": "uint256"
				},
				{
					"internalType": "uint256",
					"name": "takeProfitPrice1e18",
					"type": "uint256"
				},
				{
					"internalType": "uint256",
					"name": "stopLossPrice1e18",
					"type": "uint256"
				},
				{
					"internalType": "uint16",
					"name": "minOutBips",
					"type": "uint16"
				}
			],
			"stateMutability": "view",
			"type": "function"
		},
		{
			"inputs": [
				{
					"internalType": "address",
					"name": "vault",
					"type": "address"
				},
				{
					"internalType": "address",
					"name": "base",
					"type": "address"
				},
				{
					"internalType": "address",
					"name": "quote",
					"type": "address"
				},
				{
					"internalType": "uint256",
					"name": "deadline",
					"type": "uint256"
				}
			],
			"name": "execute",
			"outputs": [
				{
					"internalType": "uint256",
					"name": "amountSold",
					"type": "uint256"
				},
				{
					"internalType": "uint256",
					"name": "amountReceived",
					"type": "uint256"
				}
			],
			"stateMutability": "nonpayable",
			"type": "function"
		},
		{
			"inputs": [],
			"name": "oracle",
			"outputs": [
				{
					"internalType": "contract IOracleManager2",
					"name": "",
					"type": "address"
				}
			],
			"stateMutability": "view",
			"type": "function"
		},
		{
			"inputs": [],
			"name": "owner",
			"outputs": [
				{
					"internalType": "address",
					"name": "",
					"type": "address"
				}
			],
			"stateMutability": "view",
			"type": "function"
		},
		{
			"inputs": [],
			"name": "renounceOwnership",
			"outputs": [],
			"stateMutability": "nonpayable",
			"type": "function"
		},
		{
			"inputs": [],
			"name": "router",
			"outputs": [
				{
					"internalType": "contract IUniswapV3Router2",
					"name": "",
					"type": "address"
				}
			],
			"stateMutability": "view",
			"type": "function"
		},
		{
			"inputs": [
				{
					"internalType": "address",
					"name": "_oracle",
					"type": "address"
				}
			],
			"name": "setOracle",
			"outputs": [],
			"stateMutability": "nonpayable",
			"type": "function"
		},
		{
			"inputs": [
				{
					"internalType": "address",
					"name": "_router",
					"type": "address"
				}
			],
			"name": "setRouter",
			"outputs": [],
			"stateMutability": "nonpayable",
			"type": "function"
		},
		{
			"inputs": [
				{
					"internalType": "address",
					"name": "base",
					"type": "address"
				},
				{
					"internalType": "address",
					"name": "quote",
					"type": "address"
				},
				{
					"internalType": "uint24",
					"name": "fee",
					"type": "uint24"
				},
				{
					"internalType": "uint256",
					"name": "amountIn",
					"type": "uint256"
				},
				{
					"internalType": "uint256",
					"name": "takeProfitPrice1e18",
					"type": "uint256"
				},
				{
					"internalType": "uint256",
					"name": "stopLossPrice1e18",
					"type": "uint256"
				},
				{
					"internalType": "uint16",
					"name": "minOutBips",
					"type": "uint16"
				}
			],
			"name": "setTPSL",
			"outputs": [],
			"stateMutability": "nonpayable",
			"type": "function"
		},
		{
			"inputs": [
				{
					"internalType": "address",
					"name": "newOwner",
					"type": "address"
				}
			],
			"name": "transferOwnership",
			"outputs": [],
			"stateMutability": "nonpayable",
			"type": "function"
		}
	]
}