{
	"data": {
		"bytecode": {
			"linkReferences": {},
			"object": "6080806040523461001657610c55908161001b8239f35b5f80fdfe60806040526004361015610022575b3615610018575f80fd5b610020610b60565b005b5f3560e01c8063103657e714610101578063392e53cd146100fc57806340c442de146100f757806344004cc1146100f25780634782f779146100ed57806354ba7696146100e857806368fec4da146100e357806384536017146100de5780638da5cb5b146100d95780639e5d4c49146100d4578063a8e5e4aa146100cf578063c4d66de8146100ca578063f32f1864146100c55763f6326fb30361000e576109b8565b61095b565b6108d3565b61083e565b610725565b6106fe565b610682565b6105f3565b6105a9565b610518565b61048e565b610343565b61031f565b6101a3565b6001600160a01b0381160361011757565b5f80fd5b9181601f840112156101175782359167ffffffffffffffff8311610117576020838186019501011161011757565b5f5b83811061015a5750505f910152565b818101518382015260200161014b565b9060209161018381518092818552858086019101610149565b601f01601f1916010190565b9060206101a092818152019061016a565b90565b346101175760a0366003190112610117576004356101c081610106565b6024356101cc81610106565b606435916101d983610106565b60843567ffffffffffffffff8111610117576101f990369060040161011b565b93909160018060a01b0393845f541633141580610308575b6102f65760405163095ea7b360e01b81526001600160a01b03919091166004820152604480356024830152909460209286929183915f91165af19283156102c2575f936102c7575b506102786040519485938493639e5d4c4960e01b855260048501610ac1565b038183305af180156102c25761029c915f916102a0575b506040519182918261018f565b0390f35b6102bc91503d805f833e6102b481836109df565b810190610a42565b5f61028f565b610a1b565b6102e89060203d6020116102ef575b6102e081836109df565b810190610a06565b505f610259565b503d6102d6565b6040516330cd747160e01b8152600490fd5b50335f52600160205260ff60405f20541615610211565b34610117575f36600319011261011757602060ff5f5460a01c166040519015158152f35b346101175760203660031901126101175760043561036081610106565b5f546001600160a01b0390811691338390036102f6576040516370a0823160e01b8152306004820152929082169190602084602481865afa9384156102c2575f94610409575b507fbfed55bdcd242e3dd0f60ddd7d1e87c67f61c34cd9527b3e6455d841b1025362916103f39185806103f8575b50505f546001600160a01b031660405195865216939081906020820190565b0390a3005b6104029186610b8e565b5f856103d4565b6103f3919450916104527fbfed55bdcd242e3dd0f60ddd7d1e87c67f61c34cd9527b3e6455d841b10253629360203d60201161045b575b61044a81836109df565b810190610ae9565b949150916103a6565b503d610440565b60609060031901126101175760043561047a81610106565b9060243561048781610106565b9060443590565b346101175761049c36610462565b5f5490926001600160a01b0391821633036102f6578116918215801561050e575b6104fc577fbfed55bdcd242e3dd0f60ddd7d1e87c67f61c34cd9527b3e6455d841b102536291816104f18660209487610b8e565b6040519586521693a3005b60405163d92e233d60e01b8152600490fd5b50818116156104bd565b346101175760403660031901126101175760043561053581610106565b5f54602435916001600160a01b0391821633036102f657169081156104fc575f80808084865af1610564610af8565b50156105975760207f94b2de810873337ed265c5f8cf98c9cffefa06b8607f9a2f1fbaebdfbcfbef1c91604051908152a2005b6040516312171d8360e31b8152600490fd5b34610117576020366003190112610117576004356105c681610106565b60018060a01b03165f526001602052602060ff60405f2054166040519015158152f35b8015150361011757565b346101175760403660031901126101175760043561061081610106565b6024359061061d826105e9565b5f546001600160a01b039190821633036102f657169081156104fc5760207f19f4c310cf148369e5605e8f3538cee4d3495da0612c9a45c0b89105ed6fee4d91835f526001825260405f209015159060ff1981541660ff8316179055604051908152a2005b34610117575f366003190112610117575f546001600160a01b0316338190036102f6574790816106ae57005b5f80808481945af16106be610af8565b5015610597575f546040519182526001600160a01b0316907f94b2de810873337ed265c5f8cf98c9cffefa06b8607f9a2f1fbaebdfbcfbef1c90602090a2005b34610117575f366003190112610117575f546040516001600160a01b039091168152602090f35b346101175760603660031901126101175760043561074281610106565b60243560443567ffffffffffffffff81116101175761076590369060040161011b565b92909160018060a01b03805f541633141580610827575b6102f6578216918215610815575f8091604051848161079c818b8b610b27565b03925af1926107a9610af8565b93156107f65761029c947f335a1fecd5558554165c05171954925d0d97911ad1d259ef6bb18eb2c07a58aa916107e786604051938493339785610b34565b0390a36040519182918261018f565b83518481610810576040516312171d8360e31b8152600490fd5b602001fd5b60405163416aebb560e11b8152600490fd5b50335f52600160205260ff60405f2054161561077c565b346101175761084c36610462565b5f546001600160a01b039390841633036102f65783169283159081156108c8575b506104fc5760405163095ea7b360e01b81526001600160a01b03929092166004830152602482015290602090829060449082905f905af180156102c2576108b057005b6100209060203d6020116102ef576102e081836109df565b90508216155f61086d565b34610117576020366003190112610117576004356108f081610106565b5f549060ff8260a01c1661094a576001600160a01b03169081156104fc576001600160a81b0319168117600160a01b175f9081557f908408e307fc569b417f6cbec5d5a06f44a0a505ac0479b47d421a4b2fd6a1e69080a2005b60405162dc149f60e41b8152600490fd5b346101175760403660031901126101175760043561097881610106565b6001600160a01b031680156104fc576040519060243582527fe33e9822e3317b004d587136bab2627ea1ecfbba4eb79abddd0a56cfdd09c0e160203393a3005b5f36600319011261011757610020610b60565b634e487b7160e01b5f52604160045260245ffd5b90601f8019910116810190811067ffffffffffffffff821117610a0157604052565b6109cb565b9081602091031261011757516101a0816105e9565b6040513d5f823e3d90fd5b67ffffffffffffffff8111610a0157601f01601f191660200190565b6020818303126101175780519067ffffffffffffffff8211610117570181601f82011215610117578051610a7581610a26565b92610a8360405194856109df565b81845260208284010111610117576101a09160208085019101610149565b908060209392818452848401375f828201840152601f01601f1916010190565b6001600160a01b0390911681525f60208201526060604082018190526101a093910191610aa1565b90816020910312610117575190565b3d15610b22573d90610b0982610a26565b91610b1760405193846109df565b82523d5f602084013e565b606090565b908092918237015f815290565b92916101a09492610b52928552606060208601526060850191610aa1565b91604081840391015261016a565b6040513481527fbfe611b001dfcd411432f7bf0d79b82b4b2ee81511edac123a3403c357fb972a60203392a2565b60405163a9059cbb60e01b60208083019182526001600160a01b0394909416602483015260448083019590955293815290925f91610bcd6064826109df565b519082855af115610a1b575f513d610c1657506001600160a01b0381163b155b610bf45750565b604051635274afe760e01b81526001600160a01b039091166004820152602490fd5b60011415610bed56fea26469706673582212201c7641eb85605d861976f59983419e040ca2c74fc8f8f2e057fdf3a9c9b73a1764736f6c63430008180033",
			"opcodes": "PUSH1 0x80 DUP1 PUSH1 0x40 MSTORE CALLVALUE PUSH2 0x16 JUMPI PUSH2 0xC55 SWAP1 DUP2 PUSH2 0x1B DUP3 CODECOPY RETURN JUMPDEST PUSH0 DUP1 REVERT INVALID PUSH1 0x80 PUSH1 0x40 MSTORE PUSH1 0x4 CALLDATASIZE LT ISZERO PUSH2 0x22 JUMPI JUMPDEST CALLDATASIZE ISZERO PUSH2 0x18 JUMPI PUSH0 DUP1 REVERT JUMPDEST PUSH2 0x20 PUSH2 0xB60 JUMP JUMPDEST STOP JUMPDEST PUSH0 CALLDATALOAD PUSH1 0xE0 SHR DUP1 PUSH4 0x103657E7 EQ PUSH2 0x101 JUMPI DUP1 PUSH4 0x392E53CD EQ PUSH2 0xFC JUMPI DUP1 PUSH4 0x40C442DE EQ PUSH2 0xF7 JUMPI DUP1 PUSH4 0x44004CC1 EQ PUSH2 0xF2 JUMPI DUP1 PUSH4 0x4782F779 EQ PUSH2 0xED JUMPI DUP1 PUSH4 0x54BA7696 EQ PUSH2 0xE8 JUMPI DUP1 PUSH4 0x68FEC4DA EQ PUSH2 0xE3 JUMPI DUP1 PUSH4 0x84536017 EQ PUSH2 0xDE JUMPI DUP1 PUSH4 0x8DA5CB5B EQ PUSH2 0xD9 JUMPI DUP1 PUSH4 0x9E5D4C49 EQ PUSH2 0xD4 JUMPI DUP1 PUSH4 0xA8E5E4AA EQ PUSH2 0xCF JUMPI DUP1 PUSH4 0xC4D66DE8 EQ PUSH2 0xCA JUMPI DUP1 PUSH4 0xF32F1864 EQ PUSH2 0xC5 JUMPI PUSH4 0xF6326FB3 SUB PUSH2 0xE JUMPI PUSH2 0x9B8 JUMP JUMPDEST PUSH2 0x95B JUMP JUMPDEST PUSH2 0x8D3 JUMP JUMPDEST PUSH2 0x83E JUMP JUMPDEST PUSH2 0x725 JUMP JUMPDEST PUSH2 0x6FE JUMP JUMPDEST PUSH2 0x682 JUMP JUMPDEST PUSH2 0x5F3 JUMP JUMPDEST PUSH2 0x5A9 JUMP JUMPDEST PUSH2 0x518 JUMP JUMPDEST PUSH2 0x48E JUMP JUMPDEST PUSH2 0x343 JUMP JUMPDEST PUSH2 0x31F JUMP JUMPDEST PUSH2 0x1A3 JUMP JUMPDEST PUSH1 0x1 PUSH1 0x1 PUSH1 0xA0 SHL SUB DUP2 AND SUB PUSH2 0x117 JUMPI JUMP JUMPDEST PUSH0 DUP1 REVERT JUMPDEST SWAP2 DUP2 PUSH1 0x1F DUP5 ADD SLT ISZERO PUSH2 0x117 JUMPI DUP3 CALLDATALOAD SWAP2 PUSH8 0xFFFFFFFFFFFFFFFF DUP4 GT PUSH2 0x117 JUMPI PUSH1 0x20 DUP4 DUP2 DUP7 ADD SWAP6 ADD ADD GT PUSH2 0x117 JUMPI JUMP JUMPDEST PUSH0 JUMPDEST DUP4 DUP2 LT PUSH2 0x15A JUMPI POP POP PUSH0 SWAP2 ADD MSTORE JUMP JUMPDEST DUP2 DUP2 ADD MLOAD DUP4 DUP3 ADD MSTORE PUSH1 0x20 ADD PUSH2 0x14B JUMP JUMPDEST SWAP1 PUSH1 0x20 SWAP2 PUSH2 0x183 DUP2 MLOAD DUP1 SWAP3 DUP2 DUP6 MSTORE DUP6 DUP1 DUP7 ADD SWAP2 ADD PUSH2 0x149 JUMP JUMPDEST PUSH1 0x1F ADD PUSH1 0x1F NOT AND ADD ADD SWAP1 JUMP JUMPDEST SWAP1 PUSH1 0x20 PUSH2 0x1A0 SWAP3 DUP2 DUP2 MSTORE ADD SWAP1 PUSH2 0x16A JUMP JUMPDEST SWAP1 JUMP JUMPDEST CALLVALUE PUSH2 0x117 JUMPI PUSH1 0xA0 CALLDATASIZE PUSH1 0x3 NOT ADD SLT PUSH2 0x117 JUMPI PUSH1 0x4 CALLDATALOAD PUSH2 0x1C0 DUP2 PUSH2 0x106 JUMP JUMPDEST PUSH1 0x24 CALLDATALOAD PUSH2 0x1CC DUP2 PUSH2 0x106 JUMP JUMPDEST PUSH1 0x64 CALLDATALOAD SWAP2 PUSH2 0x1D9 DUP4 PUSH2 0x106 JUMP JUMPDEST PUSH1 0x84 CALLDATALOAD PUSH8 0xFFFFFFFFFFFFFFFF DUP2 GT PUSH2 0x117 JUMPI PUSH2 0x1F9 SWAP1 CALLDATASIZE SWAP1 PUSH1 0x4 ADD PUSH2 0x11B JUMP JUMPDEST SWAP4 SWAP1 SWAP2 PUSH1 0x1 DUP1 PUSH1 0xA0 SHL SUB SWAP4 DUP5 PUSH0 SLOAD AND CALLER EQ ISZERO DUP1 PUSH2 0x308 JUMPI JUMPDEST PUSH2 0x2F6 JUMPI PUSH1 0x40 MLOAD PUSH4 0x95EA7B3 PUSH1 0xE0 SHL DUP2 MSTORE PUSH1 0x1 PUSH1 0x1 PUSH1 0xA0 SHL SUB SWAP2 SWAP1 SWAP2 AND PUSH1 0x4 DUP3 ADD MSTORE PUSH1 0x44 DUP1 CALLDATALOAD PUSH1 0x24 DUP4 ADD MSTORE SWAP1 SWAP5 PUSH1 0x20 SWAP3 DUP7 SWAP3 SWAP2 DUP4 SWAP2 PUSH0 SWAP2 AND GAS CALL SWAP3 DUP4 ISZERO PUSH2 0x2C2 JUMPI PUSH0 SWAP4 PUSH2 0x2C7 JUMPI JUMPDEST POP PUSH2 0x278 PUSH1 0x40 MLOAD SWAP5 DUP6 SWAP4 DUP5 SWAP4 PUSH4 0x9E5D4C49 PUSH1 0xE0 SHL DUP6 MSTORE PUSH1 0x4 DUP6 ADD PUSH2 0xAC1 JUMP JUMPDEST SUB DUP2 DUP4 ADDRESS GAS CALL DUP1 ISZERO PUSH2 0x2C2 JUMPI PUSH2 0x29C SWAP2 PUSH0 SWAP2 PUSH2 0x2A0 JUMPI JUMPDEST POP PUSH1 0x40 MLOAD SWAP2 DUP3 SWAP2 DUP3 PUSH2 0x18F JUMP JUMPDEST SUB SWAP1 RETURN JUMPDEST PUSH2 0x2BC SWAP2 POP RETURNDATASIZE DUP1 PUSH0 DUP4 RETURNDATACOPY PUSH2 0x2B4 DUP2 DUP4 PUSH2 0x9DF JUMP JUMPDEST DUP2 ADD SWAP1 PUSH2 0xA42 JUMP JUMPDEST PUSH0 PUSH2 0x28F JUMP JUMPDEST PUSH2 0xA1B JUMP JUMPDEST PUSH2 0x2E8 SWAP1 PUSH1 0x20 RETURNDATASIZE PUSH1 0x20 GT PUSH2 0x2EF JUMPI JUMPDEST PUSH2 0x2E0 DUP2 DUP4 PUSH2 0x9DF JUMP JUMPDEST DUP2 ADD SWAP1 PUSH2 0xA06 JUMP JUMPDEST POP PUSH0 PUSH2 0x259 JUMP JUMPDEST POP RETURNDATASIZE PUSH2 0x2D6 JUMP JUMPDEST PUSH1 0x40 MLOAD PUSH4 0x30CD7471 PUSH1 0xE0 SHL DUP2 MSTORE PUSH1 0x4 SWAP1 REVERT JUMPDEST POP CALLER PUSH0 MSTORE PUSH1 0x1 PUSH1 0x20 MSTORE PUSH1 0xFF PUSH1 0x40 PUSH0 KECCAK256 SLOAD AND ISZERO PUSH2 0x211 JUMP JUMPDEST CALLVALUE PUSH2 0x117 JUMPI PUSH0 CALLDATASIZE PUSH1 0x3 NOT ADD SLT PUSH2 0x117 JUMPI PUSH1 0x20 PUSH1 0xFF PUSH0 SLOAD PUSH1 0xA0 SHR AND PUSH1 0x40 MLOAD SWAP1 ISZERO ISZERO DUP2 MSTORE RETURN JUMPDEST CALLVALUE PUSH2 0x117 JUMPI PUSH1 0x20 CALLDATASIZE PUSH1 0x3 NOT ADD SLT PUSH2 0x117 JUMPI PUSH1 0x4 CALLDATALOAD PUSH2 0x360 DUP2 PUSH2 0x106 JUMP JUMPDEST PUSH0 SLOAD PUSH1 0x1 PUSH1 0x1 PUSH1 0xA0 SHL SUB SWAP1 DUP2 AND SWAP2 CALLER DUP4 SWAP1 SUB PUSH2 0x2F6 JUMPI PUSH1 0x40 MLOAD PUSH4 0x70A08231 PUSH1 0xE0 SHL DUP2 MSTORE ADDRESS PUSH1 0x4 DUP3 ADD MSTORE SWAP3 SWAP1 DUP3 AND SWAP2 SWAP1 PUSH1 0x20 DUP5 PUSH1 0x24 DUP2 DUP7 GAS STATICCALL SWAP4 DUP5 ISZERO PUSH2 0x2C2 JUMPI PUSH0 SWAP5 PUSH2 0x409 JUMPI JUMPDEST POP PUSH32 0xBFED55BDCD242E3DD0F60DDD7D1E87C67F61C34CD9527B3E6455D841B1025362 SWAP2 PUSH2 0x3F3 SWAP2 DUP6 DUP1 PUSH2 0x3F8 JUMPI JUMPDEST POP POP PUSH0 SLOAD PUSH1 0x1 PUSH1 0x1 PUSH1 0xA0 SHL SUB AND PUSH1 0x40 MLOAD SWAP6 DUP7 MSTORE AND SWAP4 SWAP1 DUP2 SWAP1 PUSH1 0x20 DUP3 ADD SWAP1 JUMP JUMPDEST SUB SWAP1 LOG3 STOP JUMPDEST PUSH2 0x402 SWAP2 DUP7 PUSH2 0xB8E JUMP JUMPDEST PUSH0 DUP6 PUSH2 0x3D4 JUMP JUMPDEST PUSH2 0x3F3 SWAP2 SWAP5 POP SWAP2 PUSH2 0x452 PUSH32 0xBFED55BDCD242E3DD0F60DDD7D1E87C67F61C34CD9527B3E6455D841B1025362 SWAP4 PUSH1 0x20 RETURNDATASIZE PUSH1 0x20 GT PUSH2 0x45B JUMPI JUMPDEST PUSH2 0x44A DUP2 DUP4 PUSH2 0x9DF JUMP JUMPDEST DUP2 ADD SWAP1 PUSH2 0xAE9 JUMP JUMPDEST SWAP5 SWAP2 POP SWAP2 PUSH2 0x3A6 JUMP JUMPDEST POP RETURNDATASIZE PUSH2 0x440 JUMP JUMPDEST PUSH1 0x60 SWAP1 PUSH1 0x3 NOT ADD SLT PUSH2 0x117 JUMPI PUSH1 0x4 CALLDATALOAD PUSH2 0x47A DUP2 PUSH2 0x106 JUMP JUMPDEST SWAP1 PUSH1 0x24 CALLDATALOAD PUSH2 0x487 DUP2 PUSH2 0x106 JUMP JUMPDEST SWAP1 PUSH1 0x44 CALLDATALOAD SWAP1 JUMP JUMPDEST CALLVALUE PUSH2 0x117 JUMPI PUSH2 0x49C CALLDATASIZE PUSH2 0x462 JUMP JUMPDEST PUSH0 SLOAD SWAP1 SWAP3 PUSH1 0x1 PUSH1 0x1 PUSH1 0xA0 SHL SUB SWAP2 DUP3 AND CALLER SUB PUSH2 0x2F6 JUMPI DUP2 AND SWAP2 DUP3 ISZERO DUP1 ISZERO PUSH2 0x50E JUMPI JUMPDEST PUSH2 0x4FC JUMPI PUSH32 0xBFED55BDCD242E3DD0F60DDD7D1E87C67F61C34CD9527B3E6455D841B1025362 SWAP2 DUP2 PUSH2 0x4F1 DUP7 PUSH1 0x20 SWAP5 DUP8 PUSH2 0xB8E JUMP JUMPDEST PUSH1 0x40 MLOAD SWAP6 DUP7 MSTORE AND SWAP4 LOG3 STOP JUMPDEST PUSH1 0x40 MLOAD PUSH4 0xD92E233D PUSH1 0xE0 SHL DUP2 MSTORE PUSH1 0x4 SWAP1 REVERT JUMPDEST POP DUP2 DUP2 AND ISZERO PUSH2 0x4BD JUMP JUMPDEST CALLVALUE PUSH2 0x117 JUMPI PUSH1 0x40 CALLDATASIZE PUSH1 0x3 NOT ADD SLT PUSH2 0x117 JUMPI PUSH1 0x4 CALLDATALOAD PUSH2 0x535 DUP2 PUSH2 0x106 JUMP JUMPDEST PUSH0 SLOAD PUSH1 0x24 CALLDATALOAD SWAP2 PUSH1 0x1 PUSH1 0x1 PUSH1 0xA0 SHL SUB SWAP2 DUP3 AND CALLER SUB PUSH2 0x2F6 JUMPI AND SWAP1 DUP2 ISZERO PUSH2 0x4FC JUMPI PUSH0 DUP1 DUP1 DUP1 DUP5 DUP7 GAS CALL PUSH2 0x564 PUSH2 0xAF8 JUMP JUMPDEST POP ISZERO PUSH2 0x597 JUMPI PUSH1 0x20 PUSH32 0x94B2DE810873337ED265C5F8CF98C9CFFEFA06B8607F9A2F1FBAEBDFBCFBEF1C SWAP2 PUSH1 0x40 MLOAD SWAP1 DUP2 MSTORE LOG2 STOP JUMPDEST PUSH1 0x40 MLOAD PUSH4 0x12171D83 PUSH1 0xE3 SHL DUP2 MSTORE PUSH1 0x4 SWAP1 REVERT JUMPDEST CALLVALUE PUSH2 0x117 JUMPI PUSH1 0x20 CALLDATASIZE PUSH1 0x3 NOT ADD SLT PUSH2 0x117 JUMPI PUSH1 0x4 CALLDATALOAD PUSH2 0x5C6 DUP2 PUSH2 0x106 JUMP JUMPDEST PUSH1 0x1 DUP1 PUSH1 0xA0 SHL SUB AND PUSH0 MSTORE PUSH1 0x1 PUSH1 0x20 MSTORE PUSH1 0x20 PUSH1 0xFF PUSH1 0x40 PUSH0 KECCAK256 SLOAD AND PUSH1 0x40 MLOAD SWAP1 ISZERO ISZERO DUP2 MSTORE RETURN JUMPDEST DUP1 ISZERO ISZERO SUB PUSH2 0x117 JUMPI JUMP JUMPDEST CALLVALUE PUSH2 0x117 JUMPI PUSH1 0x40 CALLDATASIZE PUSH1 0x3 NOT ADD SLT PUSH2 0x117 JUMPI PUSH1 0x4 CALLDATALOAD PUSH2 0x610 DUP2 PUSH2 0x106 JUMP JUMPDEST PUSH1 0x24 CALLDATALOAD SWAP1 PUSH2 0x61D DUP3 PUSH2 0x5E9 JUMP JUMPDEST PUSH0 SLOAD PUSH1 0x1 PUSH1 0x1 PUSH1 0xA0 SHL SUB SWAP2 SWAP1 DUP3 AND CALLER SUB PUSH2 0x2F6 JUMPI AND SWAP1 DUP2 ISZERO PUSH2 0x4FC JUMPI PUSH1 0x20 PUSH32 0x19F4C310CF148369E5605E8F3538CEE4D3495DA0612C9A45C0B89105ED6FEE4D SWAP2 DUP4 PUSH0 MSTORE PUSH1 0x1 DUP3 MSTORE PUSH1 0x40 PUSH0 KECCAK256 SWAP1 ISZERO ISZERO SWAP1 PUSH1 0xFF NOT DUP2 SLOAD AND PUSH1 0xFF DUP4 AND OR SWAP1 SSTORE PUSH1 0x40 MLOAD SWAP1 DUP2 MSTORE LOG2 STOP JUMPDEST CALLVALUE PUSH2 0x117 JUMPI PUSH0 CALLDATASIZE PUSH1 0x3 NOT ADD SLT PUSH2 0x117 JUMPI PUSH0 SLOAD PUSH1 0x1 PUSH1 0x1 PUSH1 0xA0 SHL SUB AND CALLER DUP2 SWAP1 SUB PUSH2 0x2F6 JUMPI SELFBALANCE SWAP1 DUP2 PUSH2 0x6AE JUMPI STOP JUMPDEST PUSH0 DUP1 DUP1 DUP5 DUP2 SWAP5 GAS CALL PUSH2 0x6BE PUSH2 0xAF8 JUMP JUMPDEST POP ISZERO PUSH2 0x597 JUMPI PUSH0 SLOAD PUSH1 0x40 MLOAD SWAP2 DUP3 MSTORE PUSH1 0x1 PUSH1 0x1 PUSH1 0xA0 SHL SUB AND SWAP1 PUSH32 0x94B2DE810873337ED265C5F8CF98C9CFFEFA06B8607F9A2F1FBAEBDFBCFBEF1C SWAP1 PUSH1 0x20 SWAP1 LOG2 STOP JUMPDEST CALLVALUE PUSH2 0x117 JUMPI PUSH0 CALLDATASIZE PUSH1 0x3 NOT ADD SLT PUSH2 0x117 JUMPI PUSH0 SLOAD PUSH1 0x40 MLOAD PUSH1 0x1 PUSH1 0x1 PUSH1 0xA0 SHL SUB SWAP1 SWAP2 AND DUP2 MSTORE PUSH1 0x20 SWAP1 RETURN JUMPDEST CALLVALUE PUSH2 0x117 JUMPI PUSH1 0x60 CALLDATASIZE PUSH1 0x3 NOT ADD SLT PUSH2 0x117 JUMPI PUSH1 0x4 CALLDATALOAD PUSH2 0x742 DUP2 PUSH2 0x106 JUMP JUMPDEST PUSH1 0x24 CALLDATALOAD PUSH1 0x44 CALLDATALOAD PUSH8 0xFFFFFFFFFFFFFFFF DUP2 GT PUSH2 0x117 JUMPI PUSH2 0x765 SWAP1 CALLDATASIZE SWAP1 PUSH1 0x4 ADD PUSH2 0x11B JUMP JUMPDEST SWAP3 SWAP1 SWAP2 PUSH1 0x1 DUP1 PUSH1 0xA0 SHL SUB DUP1 PUSH0 SLOAD AND CALLER EQ ISZERO DUP1 PUSH2 0x827 JUMPI JUMPDEST PUSH2 0x2F6 JUMPI DUP3 AND SWAP2 DUP3 ISZERO PUSH2 0x815 JUMPI PUSH0 DUP1 SWAP2 PUSH1 0x40 MLOAD DUP5 DUP2 PUSH2 0x79C DUP2 DUP12 DUP12 PUSH2 0xB27 JUMP JUMPDEST SUB SWAP3 GAS CALL SWAP3 PUSH2 0x7A9 PUSH2 0xAF8 JUMP JUMPDEST SWAP4 ISZERO PUSH2 0x7F6 JUMPI PUSH2 0x29C SWAP5 PUSH32 0x335A1FECD5558554165C05171954925D0D97911AD1D259EF6BB18EB2C07A58AA SWAP2 PUSH2 0x7E7 DUP7 PUSH1 0x40 MLOAD SWAP4 DUP5 SWAP4 CALLER SWAP8 DUP6 PUSH2 0xB34 JUMP JUMPDEST SUB SWAP1 LOG3 PUSH1 0x40 MLOAD SWAP2 DUP3 SWAP2 DUP3 PUSH2 0x18F JUMP JUMPDEST DUP4 MLOAD DUP5 DUP2 PUSH2 0x810 JUMPI PUSH1 0x40 MLOAD PUSH4 0x12171D83 PUSH1 0xE3 SHL DUP2 MSTORE PUSH1 0x4 SWAP1 REVERT JUMPDEST PUSH1 0x20 ADD REVERT JUMPDEST PUSH1 0x40 MLOAD PUSH4 0x416AEBB5 PUSH1 0xE1 SHL DUP2 MSTORE PUSH1 0x4 SWAP1 REVERT JUMPDEST POP CALLER PUSH0 MSTORE PUSH1 0x1 PUSH1 0x20 MSTORE PUSH1 0xFF PUSH1 0x40 PUSH0 KECCAK256 SLOAD AND ISZERO PUSH2 0x77C JUMP JUMPDEST CALLVALUE PUSH2 0x117 JUMPI PUSH2 0x84C CALLDATASIZE PUSH2 0x462 JUMP JUMPDEST PUSH0 SLOAD PUSH1 0x1 PUSH1 0x1 PUSH1 0xA0 SHL SUB SWAP4 SWAP1 DUP5 AND CALLER SUB PUSH2 0x2F6 JUMPI DUP4 AND SWAP3 DUP4 ISZERO SWAP1 DUP2 ISZERO PUSH2 0x8C8 JUMPI JUMPDEST POP PUSH2 0x4FC JUMPI PUSH1 0x40 MLOAD PUSH4 0x95EA7B3 PUSH1 0xE0 SHL DUP2 MSTORE PUSH1 0x1 PUSH1 0x1 PUSH1 0xA0 SHL SUB SWAP3 SWAP1 SWAP3 AND PUSH1 0x4 DUP4 ADD MSTORE PUSH1 0x24 DUP3 ADD MSTORE SWAP1 PUSH1 0x20 SWAP1 DUP3 SWAP1 PUSH1 0x44 SWAP1 DUP3 SWAP1 PUSH0 SWAP1 GAS CALL DUP1 ISZERO PUSH2 0x2C2 JUMPI PUSH2 0x8B0 JUMPI STOP JUMPDEST PUSH2 0x20 SWAP1 PUSH1 0x20 RETURNDATASIZE PUSH1 0x20 GT PUSH2 0x2EF JUMPI PUSH2 0x2E0 DUP2 DUP4 PUSH2 0x9DF JUMP JUMPDEST SWAP1 POP DUP3 AND ISZERO PUSH0 PUSH2 0x86D JUMP JUMPDEST CALLVALUE PUSH2 0x117 JUMPI PUSH1 0x20 CALLDATASIZE PUSH1 0x3 NOT ADD SLT PUSH2 0x117 JUMPI PUSH1 0x4 CALLDATALOAD PUSH2 0x8F0 DUP2 PUSH2 0x106 JUMP JUMPDEST PUSH0 SLOAD SWAP1 PUSH1 0xFF DUP3 PUSH1 0xA0 SHR AND PUSH2 0x94A JUMPI PUSH1 0x1 PUSH1 0x1 PUSH1 0xA0 SHL SUB AND SWAP1 DUP2 ISZERO PUSH2 0x4FC JUMPI PUSH1 0x1 PUSH1 0x1 PUSH1 0xA8 SHL SUB NOT AND DUP2 OR PUSH1 0x1 PUSH1 0xA0 SHL OR PUSH0 SWAP1 DUP2 SSTORE PUSH32 0x908408E307FC569B417F6CBEC5D5A06F44A0A505AC0479B47D421A4B2FD6A1E6 SWAP1 DUP1 LOG2 STOP JUMPDEST PUSH1 0x40 MLOAD PUSH3 0xDC149F PUSH1 0xE4 SHL DUP2 MSTORE PUSH1 0x4 SWAP1 REVERT JUMPDEST CALLVALUE PUSH2 0x117 JUMPI PUSH1 0x40 CALLDATASIZE PUSH1 0x3 NOT ADD SLT PUSH2 0x117 JUMPI PUSH1 0x4 CALLDATALOAD PUSH2 0x978 DUP2 PUSH2 0x106 JUMP JUMPDEST PUSH1 0x1 PUSH1 0x1 PUSH1 0xA0 SHL SUB AND DUP1 ISZERO PUSH2 0x4FC JUMPI PUSH1 0x40 MLOAD SWAP1 PUSH1 0x24 CALLDATALOAD DUP3 MSTORE PUSH32 0xE33E9822E3317B004D587136BAB2627EA1ECFBBA4EB79ABDDD0A56CFDD09C0E1 PUSH1 0x20 CALLER SWAP4 LOG3 STOP JUMPDEST PUSH0 CALLDATASIZE PUSH1 0x3 NOT ADD SLT PUSH2 0x117 JUMPI PUSH2 0x20 PUSH2 0xB60 JUMP JUMPDEST PUSH4 0x4E487B71 PUSH1 0xE0 SHL PUSH0 MSTORE PUSH1 0x41 PUSH1 0x4 MSTORE PUSH1 0x24 PUSH0 REVERT JUMPDEST SWAP1 PUSH1 0x1F DUP1 NOT SWAP2 ADD AND DUP2 ADD SWAP1 DUP2 LT PUSH8 0xFFFFFFFFFFFFFFFF DUP3 GT OR PUSH2 0xA01 JUMPI PUSH1 0x40 MSTORE JUMP JUMPDEST PUSH2 0x9CB JUMP JUMPDEST SWAP1 DUP2 PUSH1 0x20 SWAP2 SUB SLT PUSH2 0x117 JUMPI MLOAD PUSH2 0x1A0 DUP2 PUSH2 0x5E9 JUMP JUMPDEST PUSH1 0x40 MLOAD RETURNDATASIZE PUSH0 DUP3 RETURNDATACOPY RETURNDATASIZE SWAP1 REVERT JUMPDEST PUSH8 0xFFFFFFFFFFFFFFFF DUP2 GT PUSH2 0xA01 JUMPI PUSH1 0x1F ADD PUSH1 0x1F NOT AND PUSH1 0x20 ADD SWAP1 JUMP JUMPDEST PUSH1 0x20 DUP2 DUP4 SUB SLT PUSH2 0x117 JUMPI DUP1 MLOAD SWAP1 PUSH8 0xFFFFFFFFFFFFFFFF DUP3 GT PUSH2 0x117 JUMPI ADD DUP2 PUSH1 0x1F DUP3 ADD SLT ISZERO PUSH2 0x117 JUMPI DUP1 MLOAD PUSH2 0xA75 DUP2 PUSH2 0xA26 JUMP JUMPDEST SWAP3 PUSH2 0xA83 PUSH1 0x40 MLOAD SWAP5 DUP6 PUSH2 0x9DF JUMP JUMPDEST DUP2 DUP5 MSTORE PUSH1 0x20 DUP3 DUP5 ADD ADD GT PUSH2 0x117 JUMPI PUSH2 0x1A0 SWAP2 PUSH1 0x20 DUP1 DUP6 ADD SWAP2 ADD PUSH2 0x149 JUMP JUMPDEST SWAP1 DUP1 PUSH1 0x20 SWAP4 SWAP3 DUP2 DUP5 MSTORE DUP5 DUP5 ADD CALLDATACOPY PUSH0 DUP3 DUP3 ADD DUP5 ADD MSTORE PUSH1 0x1F ADD PUSH1 0x1F NOT AND ADD ADD SWAP1 JUMP JUMPDEST PUSH1 0x1 PUSH1 0x1 PUSH1 0xA0 SHL SUB SWAP1 SWAP2 AND DUP2 MSTORE PUSH0 PUSH1 0x20 DUP3 ADD MSTORE PUSH1 0x60 PUSH1 0x40 DUP3 ADD DUP2 SWAP1 MSTORE PUSH2 0x1A0 SWAP4 SWAP2 ADD SWAP2 PUSH2 0xAA1 JUMP JUMPDEST SWAP1 DUP2 PUSH1 0x20 SWAP2 SUB SLT PUSH2 0x117 JUMPI MLOAD SWAP1 JUMP JUMPDEST RETURNDATASIZE ISZERO PUSH2 0xB22 JUMPI RETURNDATASIZE SWAP1 PUSH2 0xB09 DUP3 PUSH2 0xA26 JUMP JUMPDEST SWAP2 PUSH2 0xB17 PUSH1 0x40 MLOAD SWAP4 DUP5 PUSH2 0x9DF JUMP JUMPDEST DUP3 MSTORE RETURNDATASIZE PUSH0 PUSH1 0x20 DUP5 ADD RETURNDATACOPY JUMP JUMPDEST PUSH1 0x60 SWAP1 JUMP JUMPDEST SWAP1 DUP1 SWAP3 SWAP2 DUP3 CALLDATACOPY ADD PUSH0 DUP2 MSTORE SWAP1 JUMP JUMPDEST SWAP3 SWAP2 PUSH2 0x1A0 SWAP5 SWAP3 PUSH2 0xB52 SWAP3 DUP6 MSTORE PUSH1 0x60 PUSH1 0x20 DUP7 ADD MSTORE PUSH1 0x60 DUP6 ADD SWAP2 PUSH2 0xAA1 JUMP JUMPDEST SWAP2 PUSH1 0x40 DUP2 DUP5 SUB SWAP2 ADD MSTORE PUSH2 0x16A JUMP JUMPDEST PUSH1 0x40 MLOAD CALLVALUE DUP2 MSTORE PUSH32 0xBFE611B001DFCD411432F7BF0D79B82B4B2EE81511EDAC123A3403C357FB972A PUSH1 0x20 CALLER SWAP3 LOG2 JUMP JUMPDEST PUSH1 0x40 MLOAD PUSH4 0xA9059CBB PUSH1 0xE0 SHL PUSH1 0x20 DUP1 DUP4 ADD SWAP2 DUP3 MSTORE PUSH1 0x1 PUSH1 0x1 PUSH1 0xA0 SHL SUB SWAP5 SWAP1 SWAP5 AND PUSH1 0x24 DUP4 ADD MSTORE PUSH1 0x44 DUP1 DUP4 ADD SWAP6 SWAP1 SWAP6 MSTORE SWAP4 DUP2 MSTORE SWAP1 SWAP3 PUSH0 SWAP2 PUSH2 0xBCD PUSH1 0x64 DUP3 PUSH2 0x9DF JUMP JUMPDEST MLOAD SWAP1 DUP3 DUP6 GAS CALL ISZERO PUSH2 0xA1B JUMPI PUSH0 MLOAD RETURNDATASIZE PUSH2 0xC16 JUMPI POP PUSH1 0x1 PUSH1 0x1 PUSH1 0xA0 SHL SUB DUP2 AND EXTCODESIZE ISZERO JUMPDEST PUSH2 0xBF4 JUMPI POP JUMP JUMPDEST PUSH1 0x40 MLOAD PUSH4 0x5274AFE7 PUSH1 0xE0 SHL DUP2 MSTORE PUSH1 0x1 PUSH1 0x1 PUSH1 0xA0 SHL SUB SWAP1 SWAP2 AND PUSH1 0x4 DUP3 ADD MSTORE PUSH1 0x24 SWAP1 REVERT JUMPDEST PUSH1 0x1 EQ ISZERO PUSH2 0xBED JUMP INVALID LOG2 PUSH5 0x6970667358 0x22 SLT KECCAK256 SHR PUSH23 0x41EB85605D861976F59983419E040CA2C74FC8F8F2E057 REVERT RETURN 0xA9 0xC9 0xB7 GASPRICE OR PUSH5 0x736F6C6343 STOP ADDMOD XOR STOP CALLER "
		},
		"gasEstimates": {
			"creation": {
				"codeDepositCost": "631400",
				"executionCost": "671",
				"totalCost": "632071"
			},
			"external": {
				"approveAndCall(address,address,uint256,address,bytes)": "infinite",
				"approveERC20(address,address,uint256)": "infinite",
				"depositETH()": "1836",
				"emergencyWithdrawERC20(address)": "infinite",
				"emergencyWithdrawETH()": "infinite",
				"executeCall(address,uint256,bytes)": "infinite",
				"executorWhitelist(address)": "2529",
				"initialize(address)": "25900",
				"isInitialized()": "2299",
				"notifyERC20Deposit(address,uint256)": "2299",
				"owner()": "2459",
				"setExecutorAllowed(address,bool)": "28283",
				"withdrawERC20(address,address,uint256)": "infinite",
				"withdrawETH(address,uint256)": "infinite"
			}
		},
		"methodIdentifiers": {
			"approveAndCall(address,address,uint256,address,bytes)": "103657e7",
			"approveERC20(address,address,uint256)": "a8e5e4aa",
			"depositETH()": "f6326fb3",
			"emergencyWithdrawERC20(address)": "40c442de",
			"emergencyWithdrawETH()": "84536017",
			"executeCall(address,uint256,bytes)": "9e5d4c49",
			"executorWhitelist(address)": "54ba7696",
			"initialize(address)": "c4d66de8",
			"isInitialized()": "392e53cd",
			"notifyERC20Deposit(address,uint256)": "f32f1864",
			"owner()": "8da5cb5b",
			"setExecutorAllowed(address,bool)": "68fec4da",
			"withdrawERC20(address,address,uint256)": "44004cc1",
			"withdrawETH(address,uint256)": "4782f779"
		}
	},
	"abi": [
		{
			"inputs": [],
			"name": "AlreadyInitialized",
			"type": "error"
		},
		{
			"inputs": [],
			"name": "InvalidTarget",
			"type": "error"
		},
		{
			"inputs": [],
			"name": "NotOwner",
			"type": "error"
		},
		{
			"inputs": [
				{
					"internalType": "address",
					"name": "token",
					"type": "address"
				}
			],
			"name": "SafeERC20FailedOperation",
			"type": "error"
		},
		{
			"inputs": [],
			"name": "TransferFailed",
			"type": "error"
		},
		{
			"inputs": [],
			"name": "ZeroAddress",
			"type": "error"
		},
		{
			"anonymous": false,
			"inputs": [
				{
					"indexed": true,
					"internalType": "address",
					"name": "token",
					"type": "address"
				},
				{
					"indexed": true,
					"internalType": "address",
					"name": "from",
					"type": "address"
				},
				{
					"indexed": false,
					"internalType": "uint256",
					"name": "amount",
					"type": "uint256"
				}
			],
			"name": "ERC20Deposited",
			"type": "event"
		},
		{
			"anonymous": false,
			"inputs": [
				{
					"indexed": true,
					"internalType": "address",
					"name": "token",
					"type": "address"
				},
				{
					"indexed": true,
					"internalType": "address",
					"name": "to",
					"type": "address"
				},
				{
					"indexed": false,
					"internalType": "uint256",
					"name": "amount",
					"type": "uint256"
				}
			],
			"name": "ERC20Withdrawn",
			"type": "event"
		},
		{
			"anonymous": false,
			"inputs": [
				{
					"indexed": true,
					"internalType": "address",
					"name": "from",
					"type": "address"
				},
				{
					"indexed": false,
					"internalType": "uint256",
					"name": "amount",
					"type": "uint256"
				}
			],
			"name": "ETHReceived",
			"type": "event"
		},
		{
			"anonymous": false,
			"inputs": [
				{
					"indexed": true,
					"internalType": "address",
					"name": "to",
					"type": "address"
				},
				{
					"indexed": false,
					"internalType": "uint256",
					"name": "amount",
					"type": "uint256"
				}
			],
			"name": "ETHWithdrawn",
			"type": "event"
		},
		{
			"anonymous": false,
			"inputs": [
				{
					"indexed": true,
					"internalType": "address",
					"name": "caller",
					"type": "address"
				},
				{
					"indexed": true,
					"internalType": "address",
					"name": "target",
					"type": "address"
				},
				{
					"indexed": false,
					"internalType": "uint256",
					"name": "value",
					"type": "uint256"
				},
				{
					"indexed": false,
					"internalType": "bytes",
					"name": "data",
					"type": "bytes"
				},
				{
					"indexed": false,
					"internalType": "bytes",
					"name": "result",
					"type": "bytes"
				}
			],
			"name": "ExecutedCall",
			"type": "event"
		},
		{
			"anonymous": false,
			"inputs": [
				{
					"indexed": true,
					"internalType": "address",
					"name": "executor",
					"type": "address"
				},
				{
					"indexed": false,
					"internalType": "bool",
					"name": "allowed",
					"type": "bool"
				}
			],
			"name": "ExecutorWhitelisted",
			"type": "event"
		},
		{
			"anonymous": false,
			"inputs": [
				{
					"indexed": true,
					"internalType": "address",
					"name": "owner",
					"type": "address"
				}
			],
			"name": "Initialized",
			"type": "event"
		},
		{
			"inputs": [
				{
					"internalType": "address",
					"name": "token",
					"type": "address"
				},
				{
					"internalType": "address",
					"name": "spender",
					"type": "address"
				},
				{
					"internalType": "uint256",
					"name": "amount",
					"type": "uint256"
				},
				{
					"internalType": "address",
					"name": "target",
					"type": "address"
				},
				{
					"internalType": "bytes",
					"name": "data",
					"type": "bytes"
				}
			],
			"name": "approveAndCall",
			"outputs": [
				{
					"internalType": "bytes",
					"name": "",
					"type": "bytes"
				}
			],
			"stateMutability": "nonpayable",
			"type": "function"
		},
		{
			"inputs": [
				{
					"internalType": "address",
					"name": "token",
					"type": "address"
				},
				{
					"internalType": "address",
					"name": "spender",
					"type": "address"
				},
				{
					"internalType": "uint256",
					"name": "amount",
					"type": "uint256"
				}
			],
			"name": "approveERC20",
			"outputs": [],
			"stateMutability": "nonpayable",
			"type": "function"
		},
		{
			"inputs": [],
			"name": "depositETH",
			"outputs": [],
			"stateMutability": "payable",
			"type": "function"
		},
		{
			"inputs": [
				{
					"internalType": "address",
					"name": "token",
					"type": "address"
				}
			],
			"name": "emergencyWithdrawERC20",
			"outputs": [],
			"stateMutability": "nonpayable",
			"type": "function"
		},
		{
			"inputs": [],
			"name": "emergencyWithdrawETH",
			"outputs": [],
			"stateMutability": "nonpayable",
			"type": "function"
		},
		{
			"inputs": [
				{
					"internalType": "address",
					"name": "target",
					"type": "address"
				},
				{
					"internalType": "uint256",
					"name": "value",
					"type": "uint256"
				},
				{
					"internalType": "bytes",
					"name": "data",
					"type": "bytes"
				}
			],
			"name": "executeCall",
			"outputs": [
				{
					"internalType": "bytes",
					"name": "result",
					"type": "bytes"
				}
			],
			"stateMutability": "nonpayable",
			"type": "function"
		},
		{
			"inputs": [
				{
					"internalType": "address",
					"name": "",
					"type": "address"
				}
			],
			"name": "executorWhitelist",
			"outputs": [
				{
					"internalType": "bool",
					"name": "",
					"type": "bool"
				}
			],
			"stateMutability": "view",
			"type": "function"
		},
		{
			"inputs": [
				{
					"internalType": "address",
					"name": "owner_",
					"type": "address"
				}
			],
			"name": "initialize",
			"outputs": [],
			"stateMutability": "nonpayable",
			"type": "function"
		},
		{
			"inputs": [],
			"name": "isInitialized",
			"outputs": [
				{
					"internalType": "bool",
					"name": "",
					"type": "bool"
				}
			],
			"stateMutability": "view",
			"type": "function"
		},
		{
			"inputs": [
				{
					"internalType": "address",
					"name": "token",
					"type": "address"
				},
				{
					"internalType": "uint256",
					"name": "amount",
					"type": "uint256"
				}
			],
			"name": "notifyERC20Deposit",
			"outputs": [],
			"stateMutability": "nonpayable",
			"type": "function"
		},
		{
			"inputs": [],
			"name": "owner",
			"outputs": [
				{
					"internalType": "address",
					"name": "",
					"type": "address"
				}
			],
			"stateMutability": "view",
			"type": "function"
		},
		{
			"inputs": [
				{
					"internalType": "address",
					"name": "executor",
					"type": "address"
				},
				{
					"internalType": "bool",
					"name": "allowed",
					"type": "bool"
				}
			],
			"name": "setExecutorAllowed",
			"outputs": [],
			"stateMutability": "nonpayable",
			"type": "function"
		},
		{
			"inputs": [
				{
					"internalType": "address",
					"name": "token",
					"type": "address"
				},
				{
					"internalType": "address",
					"name": "to",
					"type": "address"
				},
				{
					"internalType": "uint256",
					"name": "amount",
					"type": "uint256"
				}
			],
			"name": "withdrawERC20",
			"outputs": [],
			"stateMutability": "nonpayable",
			"type": "function"
		},
		{
			"inputs": [
				{
					"internalType": "address payable",
					"name": "to",
					"type": "address"
				},
				{
					"internalType": "uint256",
					"name": "amount",
					"type": "uint256"
				}
			],
			"name": "withdrawETH",
			"outputs": [],
			"stateMutability": "nonpayable",
			"type": "function"
		},
		{
			"stateMutability": "payable",
			"type": "receive"
		}
	]
}