{
	"data": {
		"bytecode": {
			"linkReferences": {},
			"object": "60803461010957601f6108ca38819003918201601f19168301916001600160401b0383118484101761010d5780849260209460405283398101031261010957516001600160a01b038116908190036101095733156100f6575f8054336001600160a01b0319821681178355604051939290916001600160a01b0316907f8be0079c531659141344cd1fd0a4f28419497f9722a3daafe3b4186f6b6457e09080a380156100e757600180546001600160a01b031916821790557fb3113c226e7a2d90bb0324c2c6af9fc8f012eb7a61f4004619548b54acf2eb045f80a26107a890816101228239f35b63d92e233d60e01b5f5260045ffd5b631e4fbdf760e01b5f525f60045260245ffd5b5f80fd5b634e487b7160e01b5f52604160045260245ffdfe6080806040526004361015610012575f80fd5b5f905f3560e01c9081630eb9af38146106ef575080631c5765751461063e57806335598a02146105d65780635cf2598114610596578063715018a61461053f5780637b9cf4f3146103d2578063820b3d53146104ca5780638a62bb16146104535780638da5cb5b1461042c578063a6e7d83f14610404578063c8b6a983146103d2578063e2cc3d2f1461039a578063f247d217146101405763f2fde38b146100b8575f80fd5b3461013d57602036600319011261013d576100d1610736565b6100d961074c565b6001600160a01b031680156101295781546001600160a01b03198116821783556001600160a01b03167f8be0079c531659141344cd1fd0a4f28419497f9722a3daafe3b4186f6b6457e08380a380f35b631e4fbdf760e01b82526004829052602482fd5b80fd5b503461032c57604036600319011261032c5761015a610736565b60015490602435906001600160a01b0383161561038b576001600160a01b0316801561037c575f818152600260205260409020546001600160a01b031661036d5781151592838061034e575b61033f5780763d602d80600a3d3981f3363d3d373d3d3d363d7300000062ffffff6e5af43d82803e903d91602b57fd5bf39360881c16175f526effffffffffffffffffffffffffffff199060781b161760205260018060a01b03603760095ff01692831561033057833b1561032c5760405163189acdbd60e31b8152600481018390525f8160248183895af18015610321576102ee575b508285839283602098526002885260408220876001600160601b0360a01b82541617905561029a575b5050507f4a3920ce64f1f4f94c7d183cc35de5df87c9b0b30de1c886f490b495cb8791c884604051858152a3604051908152f35b81815260038752604080822080546001600160a01b031916851790558382526004885281208290557f352813b8d042518a94ed321d9dc289e197f2c4808f289e723bb13e59559f16339080a380825f610266565b945067ffffffffffffffff851161030d576040949094525f938261023d565b634e487b7160e01b5f52604160045260245ffd5b6040513d5f823e3d90fd5b5f80fd5b63b06ebf3d60e01b5f5260045ffd5b631f2c68c160e31b5f5260045ffd5b505f838152600360205260409020546001600160a01b031615156101a6565b634f10987560e01b5f5260045ffd5b63d92e233d60e01b5f5260045ffd5b6340dde93560e01b5f5260045ffd5b3461032c57602036600319011261032c576001600160a01b036103bb610736565b165f526004602052602060405f2054604051908152f35b3461032c57602036600319011261032c576004355f526003602052602060018060a01b0360405f205416604051908152f35b3461032c575f36600319011261032c576001546040516001600160a01b039091168152602090f35b3461032c575f36600319011261032c575f546040516001600160a01b039091168152602090f35b3461032c57602036600319011261032c576004355f908152600360205260409020546001600160a01b031680156104bb575f908152600260205260409020546001600160a01b031680156104ac57602090604051908152f35b63dee790fb60e01b5f5260045ffd5b637a93adf760e11b5f5260045ffd5b3461032c575f36600319011261032c57335f52600460205260405f205480156104bb57805f52600360205260405f206001600160601b0360a01b8154169055335f5260046020525f604081205533907fafa425487c9afa00a971354b7196fe3cfcda1835bf4c2a1027b6f21f288897625f80a3005b3461032c575f36600319011261032c5761055761074c565b5f80546001600160a01b0319811682556001600160a01b03167f8be0079c531659141344cd1fd0a4f28419497f9722a3daafe3b4186f6b6457e08280a3005b3461032c57602036600319011261032c576001600160a01b036105b7610736565b165f526002602052602060018060a01b0360405f205416604051908152f35b3461032c57602036600319011261032c576105ef610736565b6105f761074c565b6001600160a01b0316801561037c57600180546001600160a01b031916821790557fb3113c226e7a2d90bb0324c2c6af9fc8f012eb7a61f4004619548b54acf2eb045f80a2005b3461032c57602036600319011261032c5760043580156104bb575f818152600360205260409020546001600160a01b031661033f57335f52600460205260405f20546106e057805f52600360205260405f2060018060a01b0333166001600160601b0360a01b825416179055335f5260046020528060405f205533907f352813b8d042518a94ed321d9dc289e197f2c4808f289e723bb13e59559f16335f80a3005b6334b3fb3760e21b5f5260045ffd5b3461032c57602036600319011261032c576001600160a01b03610710610736565b165f908152600260205260409020546001600160a01b03169081156104ac576020918152f35b600435906001600160a01b038216820361032c57565b5f546001600160a01b0316330361075f57565b63118cdaa760e01b5f523360045260245ffdfea264697066735822122026a7f9d3a20ae07c96b2069cd977555191cbedc3f52329c745bd4491d46f681464736f6c634300081a0033",
			"opcodes": "PUSH1 0x80 CALLVALUE PUSH2 0x109 JUMPI PUSH1 0x1F PUSH2 0x8CA CODESIZE DUP2 SWAP1 SUB SWAP2 DUP3 ADD PUSH1 0x1F NOT AND DUP4 ADD SWAP2 PUSH1 0x1 PUSH1 0x1 PUSH1 0x40 SHL SUB DUP4 GT DUP5 DUP5 LT OR PUSH2 0x10D JUMPI DUP1 DUP5 SWAP3 PUSH1 0x20 SWAP5 PUSH1 0x40 MSTORE DUP4 CODECOPY DUP2 ADD SUB SLT PUSH2 0x109 JUMPI MLOAD PUSH1 0x1 PUSH1 0x1 PUSH1 0xA0 SHL SUB DUP2 AND SWAP1 DUP2 SWAP1 SUB PUSH2 0x109 JUMPI CALLER ISZERO PUSH2 0xF6 JUMPI PUSH0 DUP1 SLOAD CALLER PUSH1 0x1 PUSH1 0x1 PUSH1 0xA0 SHL SUB NOT DUP3 AND DUP2 OR DUP4 SSTORE PUSH1 0x40 MLOAD SWAP4 SWAP3 SWAP1 SWAP2 PUSH1 0x1 PUSH1 0x1 PUSH1 0xA0 SHL SUB AND SWAP1 PUSH32 0x8BE0079C531659141344CD1FD0A4F28419497F9722A3DAAFE3B4186F6B6457E0 SWAP1 DUP1 LOG3 DUP1 ISZERO PUSH2 0xE7 JUMPI PUSH1 0x1 DUP1 SLOAD PUSH1 0x1 PUSH1 0x1 PUSH1 0xA0 SHL SUB NOT AND DUP3 OR SWAP1 SSTORE PUSH32 0xB3113C226E7A2D90BB0324C2C6AF9FC8F012EB7A61F4004619548B54ACF2EB04 PUSH0 DUP1 LOG2 PUSH2 0x7A8 SWAP1 DUP2 PUSH2 0x122 DUP3 CODECOPY RETURN JUMPDEST PUSH4 0xD92E233D PUSH1 0xE0 SHL PUSH0 MSTORE PUSH1 0x4 PUSH0 REVERT JUMPDEST PUSH4 0x1E4FBDF7 PUSH1 0xE0 SHL PUSH0 MSTORE PUSH0 PUSH1 0x4 MSTORE PUSH1 0x24 PUSH0 REVERT JUMPDEST PUSH0 DUP1 REVERT JUMPDEST PUSH4 0x4E487B71 PUSH1 0xE0 SHL PUSH0 MSTORE PUSH1 0x41 PUSH1 0x4 MSTORE PUSH1 0x24 PUSH0 REVERT INVALID PUSH1 0x80 DUP1 PUSH1 0x40 MSTORE PUSH1 0x4 CALLDATASIZE LT ISZERO PUSH2 0x12 JUMPI PUSH0 DUP1 REVERT JUMPDEST PUSH0 SWAP1 PUSH0 CALLDATALOAD PUSH1 0xE0 SHR SWAP1 DUP2 PUSH4 0xEB9AF38 EQ PUSH2 0x6EF JUMPI POP DUP1 PUSH4 0x1C576575 EQ PUSH2 0x63E JUMPI DUP1 PUSH4 0x35598A02 EQ PUSH2 0x5D6 JUMPI DUP1 PUSH4 0x5CF25981 EQ PUSH2 0x596 JUMPI DUP1 PUSH4 0x715018A6 EQ PUSH2 0x53F JUMPI DUP1 PUSH4 0x7B9CF4F3 EQ PUSH2 0x3D2 JUMPI DUP1 PUSH4 0x820B3D53 EQ PUSH2 0x4CA JUMPI DUP1 PUSH4 0x8A62BB16 EQ PUSH2 0x453 JUMPI DUP1 PUSH4 0x8DA5CB5B EQ PUSH2 0x42C JUMPI DUP1 PUSH4 0xA6E7D83F EQ PUSH2 0x404 JUMPI DUP1 PUSH4 0xC8B6A983 EQ PUSH2 0x3D2 JUMPI DUP1 PUSH4 0xE2CC3D2F EQ PUSH2 0x39A JUMPI DUP1 PUSH4 0xF247D217 EQ PUSH2 0x140 JUMPI PUSH4 0xF2FDE38B EQ PUSH2 0xB8 JUMPI PUSH0 DUP1 REVERT JUMPDEST CALLVALUE PUSH2 0x13D JUMPI PUSH1 0x20 CALLDATASIZE PUSH1 0x3 NOT ADD SLT PUSH2 0x13D JUMPI PUSH2 0xD1 PUSH2 0x736 JUMP JUMPDEST PUSH2 0xD9 PUSH2 0x74C JUMP JUMPDEST PUSH1 0x1 PUSH1 0x1 PUSH1 0xA0 SHL SUB AND DUP1 ISZERO PUSH2 0x129 JUMPI DUP2 SLOAD PUSH1 0x1 PUSH1 0x1 PUSH1 0xA0 SHL SUB NOT DUP2 AND DUP3 OR DUP4 SSTORE PUSH1 0x1 PUSH1 0x1 PUSH1 0xA0 SHL SUB AND PUSH32 0x8BE0079C531659141344CD1FD0A4F28419497F9722A3DAAFE3B4186F6B6457E0 DUP4 DUP1 LOG3 DUP1 RETURN JUMPDEST PUSH4 0x1E4FBDF7 PUSH1 0xE0 SHL DUP3 MSTORE PUSH1 0x4 DUP3 SWAP1 MSTORE PUSH1 0x24 DUP3 REVERT JUMPDEST DUP1 REVERT JUMPDEST POP CALLVALUE PUSH2 0x32C JUMPI PUSH1 0x40 CALLDATASIZE PUSH1 0x3 NOT ADD SLT PUSH2 0x32C JUMPI PUSH2 0x15A PUSH2 0x736 JUMP JUMPDEST PUSH1 0x1 SLOAD SWAP1 PUSH1 0x24 CALLDATALOAD SWAP1 PUSH1 0x1 PUSH1 0x1 PUSH1 0xA0 SHL SUB DUP4 AND ISZERO PUSH2 0x38B JUMPI PUSH1 0x1 PUSH1 0x1 PUSH1 0xA0 SHL SUB AND DUP1 ISZERO PUSH2 0x37C JUMPI PUSH0 DUP2 DUP2 MSTORE PUSH1 0x2 PUSH1 0x20 MSTORE PUSH1 0x40 SWAP1 KECCAK256 SLOAD PUSH1 0x1 PUSH1 0x1 PUSH1 0xA0 SHL SUB AND PUSH2 0x36D JUMPI DUP2 ISZERO ISZERO SWAP3 DUP4 DUP1 PUSH2 0x34E JUMPI JUMPDEST PUSH2 0x33F JUMPI DUP1 PUSH23 0x3D602D80600A3D3981F3363D3D373D3D3D363D73000000 PUSH3 0xFFFFFF PUSH15 0x5AF43D82803E903D91602B57FD5BF3 SWAP4 PUSH1 0x88 SHR AND OR PUSH0 MSTORE PUSH15 0xFFFFFFFFFFFFFFFFFFFFFFFFFFFFFF NOT SWAP1 PUSH1 0x78 SHL AND OR PUSH1 0x20 MSTORE PUSH1 0x1 DUP1 PUSH1 0xA0 SHL SUB PUSH1 0x37 PUSH1 0x9 PUSH0 CREATE AND SWAP3 DUP4 ISZERO PUSH2 0x330 JUMPI DUP4 EXTCODESIZE ISZERO PUSH2 0x32C JUMPI PUSH1 0x40 MLOAD PUSH4 0x189ACDBD PUSH1 0xE3 SHL DUP2 MSTORE PUSH1 0x4 DUP2 ADD DUP4 SWAP1 MSTORE PUSH0 DUP2 PUSH1 0x24 DUP2 DUP4 DUP10 GAS CALL DUP1 ISZERO PUSH2 0x321 JUMPI PUSH2 0x2EE JUMPI JUMPDEST POP DUP3 DUP6 DUP4 SWAP3 DUP4 PUSH1 0x20 SWAP9 MSTORE PUSH1 0x2 DUP9 MSTORE PUSH1 0x40 DUP3 KECCAK256 DUP8 PUSH1 0x1 PUSH1 0x1 PUSH1 0x60 SHL SUB PUSH1 0xA0 SHL DUP3 SLOAD AND OR SWAP1 SSTORE PUSH2 0x29A JUMPI JUMPDEST POP POP POP PUSH32 0x4A3920CE64F1F4F94C7D183CC35DE5DF87C9B0B30DE1C886F490B495CB8791C8 DUP5 PUSH1 0x40 MLOAD DUP6 DUP2 MSTORE LOG3 PUSH1 0x40 MLOAD SWAP1 DUP2 MSTORE RETURN JUMPDEST DUP2 DUP2 MSTORE PUSH1 0x3 DUP8 MSTORE PUSH1 0x40 DUP1 DUP3 KECCAK256 DUP1 SLOAD PUSH1 0x1 PUSH1 0x1 PUSH1 0xA0 SHL SUB NOT AND DUP6 OR SWAP1 SSTORE DUP4 DUP3 MSTORE PUSH1 0x4 DUP9 MSTORE DUP2 KECCAK256 DUP3 SWAP1 SSTORE PUSH32 0x352813B8D042518A94ED321D9DC289E197F2C4808F289E723BB13E59559F1633 SWAP1 DUP1 LOG3 DUP1 DUP3 PUSH0 PUSH2 0x266 JUMP JUMPDEST SWAP5 POP PUSH8 0xFFFFFFFFFFFFFFFF DUP6 GT PUSH2 0x30D JUMPI PUSH1 0x40 SWAP5 SWAP1 SWAP5 MSTORE PUSH0 SWAP4 DUP3 PUSH2 0x23D JUMP JUMPDEST PUSH4 0x4E487B71 PUSH1 0xE0 SHL PUSH0 MSTORE PUSH1 0x41 PUSH1 0x4 MSTORE PUSH1 0x24 PUSH0 REVERT JUMPDEST PUSH1 0x40 MLOAD RETURNDATASIZE PUSH0 DUP3 RETURNDATACOPY RETURNDATASIZE SWAP1 REVERT JUMPDEST PUSH0 DUP1 REVERT JUMPDEST PUSH4 0xB06EBF3D PUSH1 0xE0 SHL PUSH0 MSTORE PUSH1 0x4 PUSH0 REVERT JUMPDEST PUSH4 0x1F2C68C1 PUSH1 0xE3 SHL PUSH0 MSTORE PUSH1 0x4 PUSH0 REVERT JUMPDEST POP PUSH0 DUP4 DUP2 MSTORE PUSH1 0x3 PUSH1 0x20 MSTORE PUSH1 0x40 SWAP1 KECCAK256 SLOAD PUSH1 0x1 PUSH1 0x1 PUSH1 0xA0 SHL SUB AND ISZERO ISZERO PUSH2 0x1A6 JUMP JUMPDEST PUSH4 0x4F109875 PUSH1 0xE0 SHL PUSH0 MSTORE PUSH1 0x4 PUSH0 REVERT JUMPDEST PUSH4 0xD92E233D PUSH1 0xE0 SHL PUSH0 MSTORE PUSH1 0x4 PUSH0 REVERT JUMPDEST PUSH4 0x40DDE935 PUSH1 0xE0 SHL PUSH0 MSTORE PUSH1 0x4 PUSH0 REVERT JUMPDEST CALLVALUE PUSH2 0x32C JUMPI PUSH1 0x20 CALLDATASIZE PUSH1 0x3 NOT ADD SLT PUSH2 0x32C JUMPI PUSH1 0x1 PUSH1 0x1 PUSH1 0xA0 SHL SUB PUSH2 0x3BB PUSH2 0x736 JUMP JUMPDEST AND PUSH0 MSTORE PUSH1 0x4 PUSH1 0x20 MSTORE PUSH1 0x20 PUSH1 0x40 PUSH0 KECCAK256 SLOAD PUSH1 0x40 MLOAD SWAP1 DUP2 MSTORE RETURN JUMPDEST CALLVALUE PUSH2 0x32C JUMPI PUSH1 0x20 CALLDATASIZE PUSH1 0x3 NOT ADD SLT PUSH2 0x32C JUMPI PUSH1 0x4 CALLDATALOAD PUSH0 MSTORE PUSH1 0x3 PUSH1 0x20 MSTORE PUSH1 0x20 PUSH1 0x1 DUP1 PUSH1 0xA0 SHL SUB PUSH1 0x40 PUSH0 KECCAK256 SLOAD AND PUSH1 0x40 MLOAD SWAP1 DUP2 MSTORE RETURN JUMPDEST CALLVALUE PUSH2 0x32C JUMPI PUSH0 CALLDATASIZE PUSH1 0x3 NOT ADD SLT PUSH2 0x32C JUMPI PUSH1 0x1 SLOAD PUSH1 0x40 MLOAD PUSH1 0x1 PUSH1 0x1 PUSH1 0xA0 SHL SUB SWAP1 SWAP2 AND DUP2 MSTORE PUSH1 0x20 SWAP1 RETURN JUMPDEST CALLVALUE PUSH2 0x32C JUMPI PUSH0 CALLDATASIZE PUSH1 0x3 NOT ADD SLT PUSH2 0x32C JUMPI PUSH0 SLOAD PUSH1 0x40 MLOAD PUSH1 0x1 PUSH1 0x1 PUSH1 0xA0 SHL SUB SWAP1 SWAP2 AND DUP2 MSTORE PUSH1 0x20 SWAP1 RETURN JUMPDEST CALLVALUE PUSH2 0x32C JUMPI PUSH1 0x20 CALLDATASIZE PUSH1 0x3 NOT ADD SLT PUSH2 0x32C JUMPI PUSH1 0x4 CALLDATALOAD PUSH0 SWAP1 DUP2 MSTORE PUSH1 0x3 PUSH1 0x20 MSTORE PUSH1 0x40 SWAP1 KECCAK256 SLOAD PUSH1 0x1 PUSH1 0x1 PUSH1 0xA0 SHL SUB AND DUP1 ISZERO PUSH2 0x4BB JUMPI PUSH0 SWAP1 DUP2 MSTORE PUSH1 0x2 PUSH1 0x20 MSTORE PUSH1 0x40 SWAP1 KECCAK256 SLOAD PUSH1 0x1 PUSH1 0x1 PUSH1 0xA0 SHL SUB AND DUP1 ISZERO PUSH2 0x4AC JUMPI PUSH1 0x20 SWAP1 PUSH1 0x40 MLOAD SWAP1 DUP2 MSTORE RETURN JUMPDEST PUSH4 0xDEE790FB PUSH1 0xE0 SHL PUSH0 MSTORE PUSH1 0x4 PUSH0 REVERT JUMPDEST PUSH4 0x7A93ADF7 PUSH1 0xE1 SHL PUSH0 MSTORE PUSH1 0x4 PUSH0 REVERT JUMPDEST CALLVALUE PUSH2 0x32C JUMPI PUSH0 CALLDATASIZE PUSH1 0x3 NOT ADD SLT PUSH2 0x32C JUMPI CALLER PUSH0 MSTORE PUSH1 0x4 PUSH1 0x20 MSTORE PUSH1 0x40 PUSH0 KECCAK256 SLOAD DUP1 ISZERO PUSH2 0x4BB JUMPI DUP1 PUSH0 MSTORE PUSH1 0x3 PUSH1 0x20 MSTORE PUSH1 0x40 PUSH0 KECCAK256 PUSH1 0x1 PUSH1 0x1 PUSH1 0x60 SHL SUB PUSH1 0xA0 SHL DUP2 SLOAD AND SWAP1 SSTORE CALLER PUSH0 MSTORE PUSH1 0x4 PUSH1 0x20 MSTORE PUSH0 PUSH1 0x40 DUP2 KECCAK256 SSTORE CALLER SWAP1 PUSH32 0xAFA425487C9AFA00A971354B7196FE3CFCDA1835BF4C2A1027B6F21F28889762 PUSH0 DUP1 LOG3 STOP JUMPDEST CALLVALUE PUSH2 0x32C JUMPI PUSH0 CALLDATASIZE PUSH1 0x3 NOT ADD SLT PUSH2 0x32C JUMPI PUSH2 0x557 PUSH2 0x74C JUMP JUMPDEST PUSH0 DUP1 SLOAD PUSH1 0x1 PUSH1 0x1 PUSH1 0xA0 SHL SUB NOT DUP2 AND DUP3 SSTORE PUSH1 0x1 PUSH1 0x1 PUSH1 0xA0 SHL SUB AND PUSH32 0x8BE0079C531659141344CD1FD0A4F28419497F9722A3DAAFE3B4186F6B6457E0 DUP3 DUP1 LOG3 STOP JUMPDEST CALLVALUE PUSH2 0x32C JUMPI PUSH1 0x20 CALLDATASIZE PUSH1 0x3 NOT ADD SLT PUSH2 0x32C JUMPI PUSH1 0x1 PUSH1 0x1 PUSH1 0xA0 SHL SUB PUSH2 0x5B7 PUSH2 0x736 JUMP JUMPDEST AND PUSH0 MSTORE PUSH1 0x2 PUSH1 0x20 MSTORE PUSH1 0x20 PUSH1 0x1 DUP1 PUSH1 0xA0 SHL SUB PUSH1 0x40 PUSH0 KECCAK256 SLOAD AND PUSH1 0x40 MLOAD SWAP1 DUP2 MSTORE RETURN JUMPDEST CALLVALUE PUSH2 0x32C JUMPI PUSH1 0x20 CALLDATASIZE PUSH1 0x3 NOT ADD SLT PUSH2 0x32C JUMPI PUSH2 0x5EF PUSH2 0x736 JUMP JUMPDEST PUSH2 0x5F7 PUSH2 0x74C JUMP JUMPDEST PUSH1 0x1 PUSH1 0x1 PUSH1 0xA0 SHL SUB AND DUP1 ISZERO PUSH2 0x37C JUMPI PUSH1 0x1 DUP1 SLOAD PUSH1 0x1 PUSH1 0x1 PUSH1 0xA0 SHL SUB NOT AND DUP3 OR SWAP1 SSTORE PUSH32 0xB3113C226E7A2D90BB0324C2C6AF9FC8F012EB7A61F4004619548B54ACF2EB04 PUSH0 DUP1 LOG2 STOP JUMPDEST CALLVALUE PUSH2 0x32C JUMPI PUSH1 0x20 CALLDATASIZE PUSH1 0x3 NOT ADD SLT PUSH2 0x32C JUMPI PUSH1 0x4 CALLDATALOAD DUP1 ISZERO PUSH2 0x4BB JUMPI PUSH0 DUP2 DUP2 MSTORE PUSH1 0x3 PUSH1 0x20 MSTORE PUSH1 0x40 SWAP1 KECCAK256 SLOAD PUSH1 0x1 PUSH1 0x1 PUSH1 0xA0 SHL SUB AND PUSH2 0x33F JUMPI CALLER PUSH0 MSTORE PUSH1 0x4 PUSH1 0x20 MSTORE PUSH1 0x40 PUSH0 KECCAK256 SLOAD PUSH2 0x6E0 JUMPI DUP1 PUSH0 MSTORE PUSH1 0x3 PUSH1 0x20 MSTORE PUSH1 0x40 PUSH0 KECCAK256 PUSH1 0x1 DUP1 PUSH1 0xA0 SHL SUB CALLER AND PUSH1 0x1 PUSH1 0x1 PUSH1 0x60 SHL SUB PUSH1 0xA0 SHL DUP3 SLOAD AND OR SWAP1 SSTORE CALLER PUSH0 MSTORE PUSH1 0x4 PUSH1 0x20 MSTORE DUP1 PUSH1 0x40 PUSH0 KECCAK256 SSTORE CALLER SWAP1 PUSH32 0x352813B8D042518A94ED321D9DC289E197F2C4808F289E723BB13E59559F1633 PUSH0 DUP1 LOG3 STOP JUMPDEST PUSH4 0x34B3FB37 PUSH1 0xE2 SHL PUSH0 MSTORE PUSH1 0x4 PUSH0 REVERT JUMPDEST CALLVALUE PUSH2 0x32C JUMPI PUSH1 0x20 CALLDATASIZE PUSH1 0x3 NOT ADD SLT PUSH2 0x32C JUMPI PUSH1 0x1 PUSH1 0x1 PUSH1 0xA0 SHL SUB PUSH2 0x710 PUSH2 0x736 JUMP JUMPDEST AND PUSH0 SWAP1 DUP2 MSTORE PUSH1 0x2 PUSH1 0x20 MSTORE PUSH1 0x40 SWAP1 KECCAK256 SLOAD PUSH1 0x1 PUSH1 0x1 PUSH1 0xA0 SHL SUB AND SWAP1 DUP2 ISZERO PUSH2 0x4AC JUMPI PUSH1 0x20 SWAP2 DUP2 MSTORE RETURN JUMPDEST PUSH1 0x4 CALLDATALOAD SWAP1 PUSH1 0x1 PUSH1 0x1 PUSH1 0xA0 SHL SUB DUP3 AND DUP3 SUB PUSH2 0x32C JUMPI JUMP JUMPDEST PUSH0 SLOAD PUSH1 0x1 PUSH1 0x1 PUSH1 0xA0 SHL SUB AND CALLER SUB PUSH2 0x75F JUMPI JUMP JUMPDEST PUSH4 0x118CDAA7 PUSH1 0xE0 SHL PUSH0 MSTORE CALLER PUSH1 0x4 MSTORE PUSH1 0x24 PUSH0 REVERT INVALID LOG2 PUSH5 0x6970667358 0x22 SLT KECCAK256 0x26 0xA7 0xF9 0xD3 LOG2 EXP 0xE0 PUSH29 0x96B2069CD977555191CBEDC3F52329C745BD4491D46F681464736F6C63 NUMBER STOP ADDMOD BYTE STOP CALLER "
		},
		"gasEstimates": {
			"creation": {
				"codeDepositCost": "392000",
				"executionCost": "infinite",
				"totalCost": "infinite"
			},
			"external": {
				"createWallet(address,uint256)": "infinite",
				"fidToOwner(uint256)": "2564",
				"getOwnerByFid(uint256)": "2454",
				"getVault(address)": "2452",
				"getVaultByFid(uint256)": "4732",
				"linkFarcasterId(uint256)": "52553",
				"owner()": "2460",
				"ownerToFid(address)": "2653",
				"ownerToVault(address)": "2495",
				"renounceOwnership()": "28143",
				"setUserVaultImplementation(address)": "27820",
				"transferOwnership(address)": "28456",
				"unlinkFarcasterId()": "33321",
				"userVaultImplementation()": "2483"
			}
		},
		"methodIdentifiers": {
			"createWallet(address,uint256)": "f247d217",
			"fidToOwner(uint256)": "c8b6a983",
			"getOwnerByFid(uint256)": "7b9cf4f3",
			"getVault(address)": "0eb9af38",
			"getVaultByFid(uint256)": "8a62bb16",
			"linkFarcasterId(uint256)": "1c576575",
			"owner()": "8da5cb5b",
			"ownerToFid(address)": "e2cc3d2f",
			"ownerToVault(address)": "5cf25981",
			"renounceOwnership()": "715018a6",
			"setUserVaultImplementation(address)": "35598a02",
			"transferOwnership(address)": "f2fde38b",
			"unlinkFarcasterId()": "820b3d53",
			"userVaultImplementation()": "a6e7d83f"
		}
	},
	"abi": [
		{
			"inputs": [
				{
					"internalType": "address",
					"name": "_userVaultImplementation",
					"type": "address"
				}
			],
			"stateMutability": "nonpayable",
			"type": "constructor"
		},
		{
			"inputs": [],
			"name": "AlreadyHasVault",
			"type": "error"
		},
		{
			"inputs": [],
			"name": "FailedDeployment",
			"type": "error"
		},
		{
			"inputs": [],
			"name": "FidAlreadyLinked",
			"type": "error"
		},
		{
			"inputs": [],
			"name": "FidNotLinked",
			"type": "error"
		},
		{
			"inputs": [],
			"name": "ImplementationNotSet",
			"type": "error"
		},
		{
			"inputs": [
				{
					"internalType": "uint256",
					"name": "balance",
					"type": "uint256"
				},
				{
					"internalType": "uint256",
					"name": "needed",
					"type": "uint256"
				}
			],
			"name": "InsufficientBalance",
			"type": "error"
		},
		{
			"inputs": [
				{
					"internalType": "address",
					"name": "owner",
					"type": "address"
				}
			],
			"name": "OwnableInvalidOwner",
			"type": "error"
		},
		{
			"inputs": [
				{
					"internalType": "address",
					"name": "account",
					"type": "address"
				}
			],
			"name": "OwnableUnauthorizedAccount",
			"type": "error"
		},
		{
			"inputs": [],
			"name": "OwnerAlreadyLinked",
			"type": "error"
		},
		{
			"inputs": [],
			"name": "VaultNotFound",
			"type": "error"
		},
		{
			"inputs": [],
			"name": "ZeroAddress",
			"type": "error"
		},
		{
			"anonymous": false,
			"inputs": [
				{
					"indexed": true,
					"internalType": "uint256",
					"name": "fid",
					"type": "uint256"
				},
				{
					"indexed": true,
					"internalType": "address",
					"name": "owner",
					"type": "address"
				}
			],
			"name": "FidLinked",
			"type": "event"
		},
		{
			"anonymous": false,
			"inputs": [
				{
					"indexed": true,
					"internalType": "uint256",
					"name": "fid",
					"type": "uint256"
				},
				{
					"indexed": true,
					"internalType": "address",
					"name": "previousOwner",
					"type": "address"
				}
			],
			"name": "FidUnlinked",
			"type": "event"
		},
		{
			"anonymous": false,
			"inputs": [
				{
					"indexed": true,
					"internalType": "address",
					"name": "previousOwner",
					"type": "address"
				},
				{
					"indexed": true,
					"internalType": "address",
					"name": "newOwner",
					"type": "address"
				}
			],
			"name": "OwnershipTransferred",
			"type": "event"
		},
		{
			"anonymous": false,
			"inputs": [
				{
					"indexed": true,
					"internalType": "address",
					"name": "implementation",
					"type": "address"
				}
			],
			"name": "UserVaultImplementationUpdated",
			"type": "event"
		},
		{
			"anonymous": false,
			"inputs": [
				{
					"indexed": true,
					"internalType": "address",
					"name": "owner",
					"type": "address"
				},
				{
					"indexed": true,
					"internalType": "uint256",
					"name": "fid",
					"type": "uint256"
				},
				{
					"indexed": false,
					"internalType": "address",
					"name": "vault",
					"type": "address"
				}
			],
			"name": "WalletCreated",
			"type": "event"
		},
		{
			"inputs": [
				{
					"internalType": "address",
					"name": "owner_",
					"type": "address"
				},
				{
					"internalType": "uint256",
					"name": "fid_",
					"type": "uint256"
				}
			],
			"name": "createWallet",
			"outputs": [
				{
					"internalType": "address",
					"name": "vault",
					"type": "address"
				}
			],
			"stateMutability": "nonpayable",
			"type": "function"
		},
		{
			"inputs": [
				{
					"internalType": "uint256",
					"name": "",
					"type": "uint256"
				}
			],
			"name": "fidToOwner",
			"outputs": [
				{
					"internalType": "address",
					"name": "",
					"type": "address"
				}
			],
			"stateMutability": "view",
			"type": "function"
		},
		{
			"inputs": [
				{
					"internalType": "uint256",
					"name": "fid_",
					"type": "uint256"
				}
			],
			"name": "getOwnerByFid",
			"outputs": [
				{
					"internalType": "address",
					"name": "",
					"type": "address"
				}
			],
			"stateMutability": "view",
			"type": "function"
		},
		{
			"inputs": [
				{
					"internalType": "address",
					"name": "owner_",
					"type": "address"
				}
			],
			"name": "getVault",
			"outputs": [
				{
					"internalType": "address",
					"name": "vault",
					"type": "address"
				}
			],
			"stateMutability": "view",
			"type": "function"
		},
		{
			"inputs": [
				{
					"internalType": "uint256",
					"name": "fid_",
					"type": "uint256"
				}
			],
			"name": "getVaultByFid",
			"outputs": [
				{
					"internalType": "address",
					"name": "vault",
					"type": "address"
				}
			],
			"stateMutability": "view",
			"type": "function"
		},
		{
			"inputs": [
				{
					"internalType": "uint256",
					"name": "fid_",
					"type": "uint256"
				}
			],
			"name": "linkFarcasterId",
			"outputs": [],
			"stateMutability": "nonpayable",
			"type": "function"
		},
		{
			"inputs": [],
			"name": "owner",
			"outputs": [
				{
					"internalType": "address",
					"name": "",
					"type": "address"
				}
			],
			"stateMutability": "view",
			"type": "function"
		},
		{
			"inputs": [
				{
					"internalType": "address",
					"name": "",
					"type": "address"
				}
			],
			"name": "ownerToFid",
			"outputs": [
				{
					"internalType": "uint256",
					"name": "",
					"type": "uint256"
				}
			],
			"stateMutability": "view",
			"type": "function"
		},
		{
			"inputs": [
				{
					"internalType": "address",
					"name": "",
					"type": "address"
				}
			],
			"name": "ownerToVault",
			"outputs": [
				{
					"internalType": "address",
					"name": "",
					"type": "address"
				}
			],
			"stateMutability": "view",
			"type": "function"
		},
		{
			"inputs": [],
			"name": "renounceOwnership",
			"outputs": [],
			"stateMutability": "nonpayable",
			"type": "function"
		},
		{
			"inputs": [
				{
					"internalType": "address",
					"name": "_implementation",
					"type": "address"
				}
			],
			"name": "setUserVaultImplementation",
			"outputs": [],
			"stateMutability": "nonpayable",
			"type": "function"
		},
		{
			"inputs": [
				{
					"internalType": "address",
					"name": "newOwner",
					"type": "address"
				}
			],
			"name": "transferOwnership",
			"outputs": [],
			"stateMutability": "nonpayable",
			"type": "function"
		},
		{
			"inputs": [],
			"name": "unlinkFarcasterId",
			"outputs": [],
			"stateMutability": "nonpayable",
			"type": "function"
		},
		{
			"inputs": [],
			"name": "userVaultImplementation",
			"outputs": [
				{
					"internalType": "address",
					"name": "",
					"type": "address"
				}
			],
			"stateMutability": "view",
			"type": "function"
		}
	]
}